{
  "_format": "hh-sol-artifact-1",
  "contractName": "ActivistPool",
  "sourceName": "contracts/ActivistPool.sol",
  "abi": [
    {
      "inputs": [
        {
          "internalType": "address",
          "name": "regenerationCreditAddress",
          "type": "address"
        },
        {
          "internalType": "uint256",
          "name": "_halving",
          "type": "uint256"
        },
        {
          "internalType": "uint256",
          "name": "_blocksPerEra",
          "type": "uint256"
        }
      ],
      "stateMutability": "nonpayable",
      "type": "constructor"
    },
    {
      "anonymous": false,
      "inputs": [
        {
          "indexed": true,
          "internalType": "address",
          "name": "previousOwner",
          "type": "address"
        },
        {
          "indexed": true,
          "internalType": "address",
          "name": "newOwner",
          "type": "address"
        }
      ],
      "name": "OwnershipTransferred",
      "type": "event"
    },
    {
      "inputs": [],
      "name": "BLOCKS_PRECISION",
      "outputs": [
        {
          "internalType": "uint256",
          "name": "",
          "type": "uint256"
        }
      ],
      "stateMutability": "view",
      "type": "function"
    },
    {
      "inputs": [
        {
          "internalType": "address",
          "name": "addr",
          "type": "address"
        },
        {
          "internalType": "uint256",
          "name": "levels",
          "type": "uint256"
        }
      ],
      "name": "addLevel",
      "outputs": [],
      "stateMutability": "nonpayable",
      "type": "function"
    },
    {
      "inputs": [
        {
          "internalType": "address",
          "name": "",
          "type": "address"
        }
      ],
      "name": "allowedCallers",
      "outputs": [
        {
          "internalType": "bool",
          "name": "",
          "type": "bool"
        }
      ],
      "stateMutability": "view",
      "type": "function"
    },
    {
      "inputs": [
        {
          "internalType": "uint256",
          "name": "currentUserEra",
          "type": "uint256"
        }
      ],
      "name": "canWithdraw",
      "outputs": [
        {
          "internalType": "bool",
          "name": "",
          "type": "bool"
        }
      ],
      "stateMutability": "view",
      "type": "function"
    },
    {
      "inputs": [
        {
          "internalType": "uint256",
          "name": "currentUserEra",
          "type": "uint256"
        }
      ],
      "name": "canWithdrawTimes",
      "outputs": [
        {
          "internalType": "uint256",
          "name": "",
          "type": "uint256"
        }
      ],
      "stateMutability": "view",
      "type": "function"
    },
    {
      "inputs": [],
      "name": "currentContractEra",
      "outputs": [
        {
          "internalType": "uint256",
          "name": "",
          "type": "uint256"
        }
      ],
      "stateMutability": "view",
      "type": "function"
    },
    {
      "inputs": [],
      "name": "currentEpoch",
      "outputs": [
        {
          "internalType": "uint256",
          "name": "",
          "type": "uint256"
        }
      ],
      "stateMutability": "view",
      "type": "function"
    },
    {
      "inputs": [
        {
          "internalType": "uint256",
          "name": "era",
          "type": "uint256"
        }
      ],
      "name": "currentUserEpoch",
      "outputs": [
        {
          "internalType": "uint256",
          "name": "",
          "type": "uint256"
        }
      ],
      "stateMutability": "view",
      "type": "function"
    },
    {
      "inputs": [
        {
          "internalType": "uint256",
          "name": "",
          "type": "uint256"
        },
        {
          "internalType": "address",
          "name": "",
          "type": "address"
        }
      ],
      "name": "eraLevels",
      "outputs": [
        {
          "internalType": "uint256",
          "name": "",
          "type": "uint256"
        }
      ],
      "stateMutability": "view",
      "type": "function"
    },
    {
      "inputs": [
        {
          "internalType": "uint256",
          "name": "",
          "type": "uint256"
        },
        {
          "internalType": "address",
          "name": "",
          "type": "address"
        }
      ],
      "name": "eraTokens",
      "outputs": [
        {
          "internalType": "uint256",
          "name": "",
          "type": "uint256"
        }
      ],
      "stateMutability": "view",
      "type": "function"
    },
    {
      "inputs": [
        {
          "internalType": "uint256",
          "name": "",
          "type": "uint256"
        }
      ],
      "name": "eras",
      "outputs": [
        {
          "internalType": "uint256",
          "name": "users",
          "type": "uint256"
        },
        {
          "internalType": "uint256",
          "name": "tokens",
          "type": "uint256"
        },
        {
          "internalType": "uint256",
          "name": "levels",
          "type": "uint256"
        }
      ],
      "stateMutability": "view",
      "type": "function"
    },
    {
      "inputs": [
        {
          "internalType": "uint256",
          "name": "era",
          "type": "uint256"
        }
      ],
      "name": "getEra",
      "outputs": [
        {
          "components": [
            {
              "internalType": "uint256",
              "name": "users",
              "type": "uint256"
            },
            {
              "internalType": "uint256",
              "name": "tokens",
              "type": "uint256"
            },
            {
              "internalType": "uint256",
              "name": "levels",
              "type": "uint256"
            }
          ],
          "internalType": "struct Era",
          "name": "",
          "type": "tuple"
        }
      ],
      "stateMutability": "view",
      "type": "function"
    },
    {
      "inputs": [
        {
          "internalType": "address",
          "name": "caller",
          "type": "address"
        }
      ],
      "name": "isAllowedCaller",
      "outputs": [
        {
          "internalType": "bool",
          "name": "",
          "type": "bool"
        }
      ],
      "stateMutability": "view",
      "type": "function"
    },
    {
      "inputs": [
        {
          "internalType": "address",
          "name": "allowed",
          "type": "address"
        }
      ],
      "name": "newAllowedCaller",
      "outputs": [],
      "stateMutability": "nonpayable",
      "type": "function"
    },
    {
      "inputs": [
        {
          "internalType": "uint256",
          "name": "currentUserEra",
          "type": "uint256"
        }
      ],
      "name": "nextEraIn",
      "outputs": [
        {
          "internalType": "int256",
          "name": "",
          "type": "int256"
        }
      ],
      "stateMutability": "view",
      "type": "function"
    },
    {
      "inputs": [],
      "name": "owner",
      "outputs": [
        {
          "internalType": "address",
          "name": "",
          "type": "address"
        }
      ],
      "stateMutability": "view",
      "type": "function"
    },
    {
      "inputs": [
        {
          "internalType": "address",
          "name": "addr",
          "type": "address"
        },
        {
          "internalType": "uint256",
          "name": "era",
          "type": "uint256"
        },
        {
          "internalType": "uint256",
          "name": "removeSomeLevels",
          "type": "uint256"
        }
      ],
      "name": "removePoolLevels",
      "outputs": [],
      "stateMutability": "nonpayable",
      "type": "function"
    },
    {
      "inputs": [],
      "name": "renounceOwnership",
      "outputs": [],
      "stateMutability": "nonpayable",
      "type": "function"
    },
    {
      "inputs": [
        {
          "internalType": "uint256",
          "name": "currentEpoch",
          "type": "uint256"
        }
      ],
      "name": "tokensPerEpoch",
      "outputs": [
        {
          "internalType": "uint256",
          "name": "",
          "type": "uint256"
        }
      ],
      "stateMutability": "view",
      "type": "function"
    },
    {
      "inputs": [
        {
          "internalType": "uint256",
          "name": "currentEpoch",
          "type": "uint256"
        },
        {
          "internalType": "uint256",
          "name": "halving",
          "type": "uint256"
        }
      ],
      "name": "tokensPerEra",
      "outputs": [
        {
          "internalType": "uint256",
          "name": "",
          "type": "uint256"
        }
      ],
      "stateMutability": "view",
      "type": "function"
    },
    {
      "inputs": [
        {
          "internalType": "address",
          "name": "newOwner",
          "type": "address"
        }
      ],
      "name": "transferOwnership",
      "outputs": [],
      "stateMutability": "nonpayable",
      "type": "function"
    },
    {
      "inputs": [
        {
          "internalType": "address",
          "name": "delegate",
          "type": "address"
        },
        {
          "internalType": "uint256",
          "name": "era",
          "type": "uint256"
        }
      ],
      "name": "withdraw",
      "outputs": [],
      "stateMutability": "nonpayable",
      "type": "function"
    }
  ],
  "bytecode": "0x61010060405234801561001157600080fd5b5060405161200f38038061200f83398181016040528101906100339190610245565b80826a18d0bf423c03d8de00000080608081815250505061006661005b6100d660201b60201c565b6100de60201b60201c565b8160a0818152505061007c6101a460201b60201c565b60c081815250508060e08181525050505082600560006101000a81548173ffffffffffffffffffffffffffffffffffffffff021916908373ffffffffffffffffffffffffffffffffffffffff160217905550505050610298565b600033905090565b6000600360009054906101000a900473ffffffffffffffffffffffffffffffffffffffff16905081600360006101000a81548173ffffffffffffffffffffffffffffffffffffffff021916908373ffffffffffffffffffffffffffffffffffffffff1602179055508173ffffffffffffffffffffffffffffffffffffffff168173ffffffffffffffffffffffffffffffffffffffff167f8be0079c531659141344cd1fd0a4f28419497f9722a3daafe3b4186f6b6457e060405160405180910390a35050565b600043905090565b600080fd5b600073ffffffffffffffffffffffffffffffffffffffff82169050919050565b60006101dc826101b1565b9050919050565b6101ec816101d1565b81146101f757600080fd5b50565b600081519050610209816101e3565b92915050565b6000819050919050565b6102228161020f565b811461022d57600080fd5b50565b60008151905061023f81610219565b92915050565b60008060006060848603121561025e5761025d6101ac565b5b600061026c868287016101fa565b935050602061027d86828701610230565b925050604061028e86828701610230565b9150509250925092565b60805160a05160c05160e051611d1b6102f4600039600081816106dc015281816108e20152610b8a01526000818161095d01526109c701526000818161074a0152818161093201526109a30152600061056c0152611d1b6000f3fe608060405234801561001057600080fd5b50600436106101425760003560e01c806388b3acae116100b8578063d5ee3eb51161007c578063d5ee3eb5146103b1578063ed0df79e146103e1578063f2fde38b146103ff578063f3fef3a31461041b578063fbe85f0614610437578063ff39043c1461046757610142565b806388b3acae146102e75780638da5cb5b146103175780638f93716f14610335578063a680125814610351578063b3cc6d991461038157610142565b8063715018a61161010a578063715018a61461020f578063720a70bd14610219578063766718081461024b5780637721f1b5146102695780637b33415414610299578063861b4ce1146102c957610142565b8063157ffc52146101475780631f14f415146101635780632506b932146101935780632eedcb18146101c357806352b8d3ed146101f3575b600080fd5b610161600480360381019061015c919061135a565b610497565b005b61017d600480360381019061017891906113ad565b610533565b60405161018a91906113fc565b60405180910390f35b6101ad60048036038101906101a89190611417565b610558565b6040516101ba91906113fc565b60405180910390f35b6101dd60048036038101906101d89190611417565b6105a0565b6040516101ea9190611495565b60405180910390f35b61020d600480360381019061020891906114b0565b6105ea565b005b610217610692565b005b610233600480360381019061022e9190611417565b6106a6565b604051610242939291906114f0565b60405180910390f35b6102536106d0565b60405161026091906113fc565b60405180910390f35b610283600480360381019061027e9190611417565b610724565b60405161029091906113fc565b60405180910390f35b6102b360048036038101906102ae9190611527565b6107a9565b6040516102c0919061156f565b60405180910390f35b6102d16107c9565b6040516102de91906113fc565b60405180910390f35b61030160048036038101906102fc919061158a565b6107ce565b60405161030e91906113fc565b60405180910390f35b61031f6107f3565b60405161032c91906115d9565b60405180910390f35b61034f600480360381019061034a9190611527565b61081d565b005b61036b60048036038101906103669190611527565b610880565b604051610378919061156f565b60405180910390f35b61039b60048036038101906103969190611417565b6108d6565b6040516103a891906113fc565b60405180910390f35b6103cb60048036038101906103c69190611417565b610925565b6040516103d8919061160d565b60405180910390f35b6103e9610997565b6040516103f691906113fc565b60405180910390f35b61041960048036038101906104149190611527565b610a1d565b005b610435600480360381019061043091906114b0565b610aa0565b005b610451600480360381019061044c9190611417565b610c78565b60405161045e919061156f565b60405180910390f35b610481600480360381019061047c919061158a565b610c8b565b60405161048e91906113fc565b60405180910390f35b600460003373ffffffffffffffffffffffffffffffffffffffff1673ffffffffffffffffffffffffffffffffffffffff16815260200190815260200160002060009054906101000a900460ff16610523576040517f08c379a000000000000000000000000000000000000000000000000000000000815260040161051a90611685565b60405180910390fd5b61052e838383610cb0565b505050565b60006105508261054285610558565b610d3990919063ffffffff16565b905092915050565b600061059982600261056a9190611807565b7f0000000000000000000000000000000000000000000000000000000000000000610d3990919063ffffffff16565b9050919050565b6105a86112a0565b60008083815260200190815260200160002060405180606001604052908160008201548152602001600182015481526020016002820154815250509050919050565b600460003373ffffffffffffffffffffffffffffffffffffffff1673ffffffffffffffffffffffffffffffffffffffff16815260200190815260200160002060009054906101000a900460ff16610676576040517f08c379a000000000000000000000000000000000000000000000000000000000815260040161066d90611685565b60405180910390fd5b6000610680610997565b905061068d838383610d4f565b505050565b61069a610dfc565b6106a46000610e7a565b565b60006020528060005260406000206000915090508060000154908060010154908060020154905083565b600061071f60016107117f0000000000000000000000000000000000000000000000000000000000000000610703610997565b610d3990919063ffffffff16565b610f4090919063ffffffff16565b905090565b60008061073083610925565b905060008113156107455760009150506107a4565b6107a07f00000000000000000000000000000000000000000000000000000000000000006107926005600a61077a9190611807565b8461078490611852565b610f5690919063ffffffff16565b610d3990919063ffffffff16565b9150505b919050565b60046020528060005260406000206000915054906101000a900460ff1681565b600581565b6001602052816000526040600020602052806000526040600020600091509150505481565b6000600360009054906101000a900473ffffffffffffffffffffffffffffffffffffffff16905090565b610825610dfc565b6001600460008373ffffffffffffffffffffffffffffffffffffffff1673ffffffffffffffffffffffffffffffffffffffff16815260200190815260200160002060006101000a81548160ff02191690831515021790555050565b6000600460008373ffffffffffffffffffffffffffffffffffffffff1673ffffffffffffffffffffffffffffffffffffffff16815260200190815260200160002060009054906101000a900460ff169050919050565b600061091e60016109107f000000000000000000000000000000000000000000000000000000000000000085610d3990919063ffffffff16565b610f4090919063ffffffff16565b9050919050565b600061092f610f6c565b827f000000000000000000000000000000000000000000000000000000000000000061095b919061189a565b7f00000000000000000000000000000000000000000000000000000000000000006109869190611912565b6109909190611956565b9050919050565b6000610a186001610a0a7f00000000000000000000000000000000000000000000000000000000000000006109fc7f00000000000000000000000000000000000000000000000000000000000000006109ee610f6c565b610f7490919063ffffffff16565b610d3990919063ffffffff16565b610f4090919063ffffffff16565b905090565b610a25610dfc565b600073ffffffffffffffffffffffffffffffffffffffff168173ffffffffffffffffffffffffffffffffffffffff1603610a94576040517f08c379a0000000000000000000000000000000000000000000000000000000008152600401610a8b90611a0b565b60405180910390fd5b610a9d81610e7a565b50565b600460003373ffffffffffffffffffffffffffffffffffffffff1673ffffffffffffffffffffffffffffffffffffffff16815260200190815260200160002060009054906101000a900460ff16610b2c576040517f08c379a0000000000000000000000000000000000000000000000000000000008152600401610b2390611685565b60405180910390fd5b80610b3681610c78565b610b75576040517f08c379a0000000000000000000000000000000000000000000000000000000008152600401610b6c90611a77565b60405180910390fd5b6000610bb38385610bae610b88876108d6565b7f0000000000000000000000000000000000000000000000000000000000000000610533565b610f8a565b9050610bc083858361103e565b60008103610bce5750610c73565b600560009054906101000a900473ffffffffffffffffffffffffffffffffffffffff1673ffffffffffffffffffffffffffffffffffffffff1663a2c7670e3086846040518463ffffffff1660e01b8152600401610c2d93929190611a97565b6020604051808303816000875af1158015610c4c573d6000803e3d6000fd5b505050506040513d601f19601f82011682018060405250810190610c709190611afa565b50505b505050565b6000610c82610997565b82109050919050565b6002602052816000526040600020602052806000526040600020600091509150505481565b60006001600084815260200190815260200160002060008573ffffffffffffffffffffffffffffffffffffffff1673ffffffffffffffffffffffffffffffffffffffff16815260200190815260200160002054905060008103610d135750610d34565b6000808311610d225781610d24565b825b9050610d318585836110ef565b50505b505050565b60008183610d479190611b56565b905092915050565b610d778260008084815260200190815260200160002060020154610f4090919063ffffffff16565b60008083815260200190815260200160002060020181905550816001600083815260200190815260200160002060008573ffffffffffffffffffffffffffffffffffffffff1673ffffffffffffffffffffffffffffffffffffffff1681526020019081526020016000206000828254610df09190611b87565b92505081905550505050565b610e04611298565b73ffffffffffffffffffffffffffffffffffffffff16610e226107f3565b73ffffffffffffffffffffffffffffffffffffffff1614610e78576040517f08c379a0000000000000000000000000000000000000000000000000000000008152600401610e6f90611c07565b60405180910390fd5b565b6000600360009054906101000a900473ffffffffffffffffffffffffffffffffffffffff16905081600360006101000a81548173ffffffffffffffffffffffffffffffffffffffff021916908373ffffffffffffffffffffffffffffffffffffffff1602179055508173ffffffffffffffffffffffffffffffffffffffff168173ffffffffffffffffffffffffffffffffffffffff167f8be0079c531659141344cd1fd0a4f28419497f9722a3daafe3b4186f6b6457e060405160405180910390a35050565b60008183610f4e9190611b87565b905092915050565b60008183610f649190611c27565b905092915050565b600043905090565b60008183610f829190611c69565b905092915050565b60008060008086815260200190815260200160002060020154905060006001600087815260200190815260200160002060008673ffffffffffffffffffffffffffffffffffffffff1673ffffffffffffffffffffffffffffffffffffffff1681526020019081526020016000205490506000810361100d57600092505050611037565b611032826110248684610f5690919063ffffffff16565b610d3990919063ffffffff16565b925050505b9392505050565b600080848152602001908152602001600020600001600081548092919061106490611c9d565b919050555080600080858152602001908152602001600020600101600082825461108e9190611b87565b92505081905550806002600085815260200190815260200160002060008473ffffffffffffffffffffffffffffffffffffffff1673ffffffffffffffffffffffffffffffffffffffff16815260200190815260200160002081905550505050565b6001600083815260200190815260200160002060008473ffffffffffffffffffffffffffffffffffffffff1673ffffffffffffffffffffffffffffffffffffffff1681526020019081526020016000205481111561119b576001600083815260200190815260200160002060008473ffffffffffffffffffffffffffffffffffffffff1673ffffffffffffffffffffffffffffffffffffffff1681526020019081526020016000205490505b6111c38160008085815260200190815260200160002060020154610f7490919063ffffffff16565b6000808481526020019081526020016000206002018190555061123f816001600085815260200190815260200160002060008673ffffffffffffffffffffffffffffffffffffffff1673ffffffffffffffffffffffffffffffffffffffff16815260200190815260200160002054610f7490919063ffffffff16565b6001600084815260200190815260200160002060008573ffffffffffffffffffffffffffffffffffffffff1673ffffffffffffffffffffffffffffffffffffffff16815260200190815260200160002081905550505050565b600033905090565b60405180606001604052806000815260200160008152602001600081525090565b600080fd5b600073ffffffffffffffffffffffffffffffffffffffff82169050919050565b60006112f1826112c6565b9050919050565b611301816112e6565b811461130c57600080fd5b50565b60008135905061131e816112f8565b92915050565b6000819050919050565b61133781611324565b811461134257600080fd5b50565b6000813590506113548161132e565b92915050565b600080600060608486031215611373576113726112c1565b5b60006113818682870161130f565b935050602061139286828701611345565b92505060406113a386828701611345565b9150509250925092565b600080604083850312156113c4576113c36112c1565b5b60006113d285828601611345565b92505060206113e385828601611345565b9150509250929050565b6113f681611324565b82525050565b600060208201905061141160008301846113ed565b92915050565b60006020828403121561142d5761142c6112c1565b5b600061143b84828501611345565b91505092915050565b61144d81611324565b82525050565b6060820160008201516114696000850182611444565b50602082015161147c6020850182611444565b50604082015161148f6040850182611444565b50505050565b60006060820190506114aa6000830184611453565b92915050565b600080604083850312156114c7576114c66112c1565b5b60006114d58582860161130f565b92505060206114e685828601611345565b9150509250929050565b600060608201905061150560008301866113ed565b61151260208301856113ed565b61151f60408301846113ed565b949350505050565b60006020828403121561153d5761153c6112c1565b5b600061154b8482850161130f565b91505092915050565b60008115159050919050565b61156981611554565b82525050565b60006020820190506115846000830184611560565b92915050565b600080604083850312156115a1576115a06112c1565b5b60006115af85828601611345565b92505060206115c08582860161130f565b9150509250929050565b6115d3816112e6565b82525050565b60006020820190506115ee60008301846115ca565b92915050565b6000819050919050565b611607816115f4565b82525050565b600060208201905061162260008301846115fe565b92915050565b600082825260208201905092915050565b7f4e6f7420616c6c6f7765642063616c6c65720000000000000000000000000000600082015250565b600061166f601283611628565b915061167a82611639565b602082019050919050565b6000602082019050818103600083015261169e81611662565b9050919050565b7f4e487b7100000000000000000000000000000000000000000000000000000000600052601160045260246000fd5b60008160011c9050919050565b6000808291508390505b600185111561172b57808604811115611707576117066116a5565b5b60018516156117165780820291505b8081029050611724856116d4565b94506116eb565b94509492505050565b6000826117445760019050611800565b816117525760009050611800565b81600181146117685760028114611772576117a1565b6001915050611800565b60ff841115611784576117836116a5565b5b8360020a91508482111561179b5761179a6116a5565b5b50611800565b5060208310610133831016604e8410600b84101617156117d65782820a9050838111156117d1576117d06116a5565b5b611800565b6117e384848460016116e1565b925090508184048111156117fa576117f96116a5565b5b81810290505b9392505050565b600061181282611324565b915061181d83611324565b925061184a7fffffffffffffffffffffffffffffffffffffffffffffffffffffffffffffffff8484611734565b905092915050565b600061185d826115f4565b91507f8000000000000000000000000000000000000000000000000000000000000000820361188f5761188e6116a5565b5b816000039050919050565b60006118a5826115f4565b91506118b0836115f4565b92508282026118be816115f4565b91507f800000000000000000000000000000000000000000000000000000000000000084146000841216156118f6576118f56116a5565b5b828205841483151761190b5761190a6116a5565b5b5092915050565b600061191d826115f4565b9150611928836115f4565b9250828201905082811215600083121683821260008412151617156119505761194f6116a5565b5b92915050565b6000611961826115f4565b915061196c836115f4565b9250828203905081811260008412168282136000851215161715611993576119926116a5565b5b92915050565b7f4f776e61626c653a206e6577206f776e657220697320746865207a65726f206160008201527f6464726573730000000000000000000000000000000000000000000000000000602082015250565b60006119f5602683611628565b9150611a0082611999565b604082019050919050565b60006020820190508181036000830152611a24816119e8565b9050919050565b7f596f752063616e277420617070726f7665207965740000000000000000000000600082015250565b6000611a61601583611628565b9150611a6c82611a2b565b602082019050919050565b60006020820190508181036000830152611a9081611a54565b9050919050565b6000606082019050611aac60008301866115ca565b611ab960208301856115ca565b611ac660408301846113ed565b949350505050565b611ad781611554565b8114611ae257600080fd5b50565b600081519050611af481611ace565b92915050565b600060208284031215611b1057611b0f6112c1565b5b6000611b1e84828501611ae5565b91505092915050565b7f4e487b7100000000000000000000000000000000000000000000000000000000600052601260045260246000fd5b6000611b6182611324565b9150611b6c83611324565b925082611b7c57611b7b611b27565b5b828204905092915050565b6000611b9282611324565b9150611b9d83611324565b9250828201905080821115611bb557611bb46116a5565b5b92915050565b7f4f776e61626c653a2063616c6c6572206973206e6f7420746865206f776e6572600082015250565b6000611bf1602083611628565b9150611bfc82611bbb565b602082019050919050565b60006020820190508181036000830152611c2081611be4565b9050919050565b6000611c3282611324565b9150611c3d83611324565b9250828202611c4b81611324565b91508282048414831517611c6257611c616116a5565b5b5092915050565b6000611c7482611324565b9150611c7f83611324565b9250828203905081811115611c9757611c966116a5565b5b92915050565b6000611ca882611324565b91507fffffffffffffffffffffffffffffffffffffffffffffffffffffffffffffffff8203611cda57611cd96116a5565b5b60018201905091905056fea264697066735822122044b70fc4ebd6be1021d62d64dc1e976c5a4a743ce609f9c6ff2c5e7151c69dff64736f6c634300081b0033",
  "linkReferences": {},
  "deployedLinkReferences": {}
}