{
  "_format": "hh-sol-artifact-1",
  "contractName": "ActivistRules",
  "sourceName": "contracts/ActivistRules.sol",
  "abi": [
    {
      "inputs": [
        {
          "internalType": "address",
          "name": "communityRulesAddress",
          "type": "address"
        },
        {
          "internalType": "address",
          "name": "activistPoolAddress",
          "type": "address"
        }
      ],
      "stateMutability": "nonpayable",
      "type": "constructor"
    },
    {
      "anonymous": false,
      "inputs": [
        {
          "indexed": true,
          "internalType": "address",
          "name": "previousOwner",
          "type": "address"
        },
        {
          "indexed": true,
          "internalType": "address",
          "name": "newOwner",
          "type": "address"
        }
      ],
      "name": "OwnershipTransferred",
      "type": "event"
    },
    {
      "inputs": [
        {
          "internalType": "address",
          "name": "",
          "type": "address"
        }
      ],
      "name": "activistApprovedInvites",
      "outputs": [
        {
          "internalType": "uint256",
          "name": "",
          "type": "uint256"
        }
      ],
      "stateMutability": "view",
      "type": "function"
    },
    {
      "inputs": [
        {
          "internalType": "address",
          "name": "",
          "type": "address"
        },
        {
          "internalType": "uint256",
          "name": "",
          "type": "uint256"
        }
      ],
      "name": "activistApprovedUsers",
      "outputs": [
        {
          "internalType": "address",
          "name": "",
          "type": "address"
        }
      ],
      "stateMutability": "view",
      "type": "function"
    },
    {
      "inputs": [
        {
          "internalType": "uint256",
          "name": "",
          "type": "uint256"
        }
      ],
      "name": "activistsAddress",
      "outputs": [
        {
          "internalType": "address",
          "name": "",
          "type": "address"
        }
      ],
      "stateMutability": "view",
      "type": "function"
    },
    {
      "inputs": [
        {
          "internalType": "string",
          "name": "name",
          "type": "string"
        },
        {
          "internalType": "string",
          "name": "proofPhoto",
          "type": "string"
        }
      ],
      "name": "addActivist",
      "outputs": [],
      "stateMutability": "nonpayable",
      "type": "function"
    },
    {
      "inputs": [
        {
          "internalType": "address",
          "name": "inspectorAddress",
          "type": "address"
        },
        {
          "internalType": "uint256",
          "name": "inspectorTotalInspections",
          "type": "uint256"
        }
      ],
      "name": "addInspectorLevel",
      "outputs": [],
      "stateMutability": "nonpayable",
      "type": "function"
    },
    {
      "inputs": [
        {
          "internalType": "address",
          "name": "regeneratorAddress",
          "type": "address"
        },
        {
          "internalType": "uint256",
          "name": "regeneratorTotalInspections",
          "type": "uint256"
        }
      ],
      "name": "addRegeneratorLevel",
      "outputs": [],
      "stateMutability": "nonpayable",
      "type": "function"
    },
    {
      "inputs": [
        {
          "internalType": "address",
          "name": "",
          "type": "address"
        }
      ],
      "name": "allowedCallers",
      "outputs": [
        {
          "internalType": "bool",
          "name": "",
          "type": "bool"
        }
      ],
      "stateMutability": "view",
      "type": "function"
    },
    {
      "inputs": [],
      "name": "approvedInvites",
      "outputs": [
        {
          "internalType": "uint256",
          "name": "",
          "type": "uint256"
        }
      ],
      "stateMutability": "view",
      "type": "function"
    },
    {
      "inputs": [
        {
          "internalType": "uint256",
          "name": "totalLevels",
          "type": "uint256"
        },
        {
          "internalType": "uint256",
          "name": "totalUsers",
          "type": "uint256"
        },
        {
          "internalType": "uint256",
          "name": "userLevels",
          "type": "uint256"
        }
      ],
      "name": "canInvite",
      "outputs": [
        {
          "internalType": "bool",
          "name": "",
          "type": "bool"
        }
      ],
      "stateMutability": "pure",
      "type": "function"
    },
    {
      "inputs": [
        {
          "internalType": "address",
          "name": "addr",
          "type": "address"
        }
      ],
      "name": "canSendInvite",
      "outputs": [
        {
          "internalType": "bool",
          "name": "",
          "type": "bool"
        }
      ],
      "stateMutability": "view",
      "type": "function"
    },
    {
      "inputs": [
        {
          "internalType": "address",
          "name": "addr",
          "type": "address"
        }
      ],
      "name": "getActivist",
      "outputs": [
        {
          "components": [
            {
              "internalType": "uint256",
              "name": "id",
              "type": "uint256"
            },
            {
              "internalType": "address",
              "name": "activistWallet",
              "type": "address"
            },
            {
              "internalType": "string",
              "name": "name",
              "type": "string"
            },
            {
              "internalType": "string",
              "name": "proofPhoto",
              "type": "string"
            },
            {
              "components": [
                {
                  "internalType": "uint256",
                  "name": "level",
                  "type": "uint256"
                },
                {
                  "internalType": "uint256",
                  "name": "currentEra",
                  "type": "uint256"
                }
              ],
              "internalType": "struct Pool",
              "name": "pool",
              "type": "tuple"
            },
            {
              "internalType": "uint256",
              "name": "createdAt",
              "type": "uint256"
            }
          ],
          "internalType": "struct Activist",
          "name": "",
          "type": "tuple"
        }
      ],
      "stateMutability": "view",
      "type": "function"
    },
    {
      "inputs": [
        {
          "internalType": "address",
          "name": "caller",
          "type": "address"
        }
      ],
      "name": "isAllowedCaller",
      "outputs": [
        {
          "internalType": "bool",
          "name": "",
          "type": "bool"
        }
      ],
      "stateMutability": "view",
      "type": "function"
    },
    {
      "inputs": [
        {
          "internalType": "address",
          "name": "allowed",
          "type": "address"
        }
      ],
      "name": "newAllowedCaller",
      "outputs": [],
      "stateMutability": "nonpayable",
      "type": "function"
    },
    {
      "inputs": [],
      "name": "owner",
      "outputs": [
        {
          "internalType": "address",
          "name": "",
          "type": "address"
        }
      ],
      "stateMutability": "view",
      "type": "function"
    },
    {
      "inputs": [
        {
          "internalType": "address",
          "name": "addr",
          "type": "address"
        },
        {
          "internalType": "uint256",
          "name": "removeSomeLevels",
          "type": "uint256"
        }
      ],
      "name": "removePoolLevels",
      "outputs": [],
      "stateMutability": "nonpayable",
      "type": "function"
    },
    {
      "inputs": [],
      "name": "renounceOwnership",
      "outputs": [],
      "stateMutability": "nonpayable",
      "type": "function"
    },
    {
      "inputs": [
        {
          "internalType": "address",
          "name": "newOwner",
          "type": "address"
        }
      ],
      "name": "transferOwnership",
      "outputs": [],
      "stateMutability": "nonpayable",
      "type": "function"
    },
    {
      "inputs": [],
      "name": "withdraw",
      "outputs": [],
      "stateMutability": "nonpayable",
      "type": "function"
    }
  ],
  "bytecode": "0x608060405234801561001057600080fd5b5060405161370738038061370783398181016040528101906100329190610206565b61004e6100436100d760201b60201c565b6100df60201b60201c565b81600760006101000a81548173ffffffffffffffffffffffffffffffffffffffff021916908373ffffffffffffffffffffffffffffffffffffffff16021790555080600860006101000a81548173ffffffffffffffffffffffffffffffffffffffff021916908373ffffffffffffffffffffffffffffffffffffffff1602179055505050610246565b600033905090565b60008060009054906101000a900473ffffffffffffffffffffffffffffffffffffffff169050816000806101000a81548173ffffffffffffffffffffffffffffffffffffffff021916908373ffffffffffffffffffffffffffffffffffffffff1602179055508173ffffffffffffffffffffffffffffffffffffffff168173ffffffffffffffffffffffffffffffffffffffff167f8be0079c531659141344cd1fd0a4f28419497f9722a3daafe3b4186f6b6457e060405160405180910390a35050565b600080fd5b600073ffffffffffffffffffffffffffffffffffffffff82169050919050565b60006101d3826101a8565b9050919050565b6101e3816101c8565b81146101ee57600080fd5b50565b600081519050610200816101da565b92915050565b6000806040838503121561021d5761021c6101a3565b5b600061022b858286016101f1565b925050602061023c858286016101f1565b9150509250929050565b6134b2806102556000396000f3fe608060405234801561001057600080fd5b50600436106101155760003560e01c80638da5cb5b116100a2578063a680125811610071578063a6801258146102ca578063c77c1ce6146102fa578063cb11cd891461032a578063f1a204ce1461035a578063f2fde38b1461037657610115565b80638da5cb5b146102305780638f93716f1461024e5780639d3c50b21461026a5780639eaf666f1461029a57610115565b8063430816aa116100e9578063430816aa1461018c5780635fbf8a69146101aa57806362efeff7146101c6578063715018a6146101f65780637b3341541461020057610115565b8062b2c9201461011a5780630d4e45d31461013657806318ad5c9a146101665780633ccfd60b14610182575b600080fd5b610134600480360381019061012f919061255a565b610392565b005b610150600480360381019061014b919061255a565b61042c565b60405161015d91906125a9565b60405180910390f35b610180600480360381019061017b919061255a565b61047a565b005b61018a61081a565b005b610194610cd2565b6040516101a191906125d3565b60405180910390f35b6101c460048036038101906101bf9190612734565b610cd8565b005b6101e060048036038101906101db91906127ac565b6110ed565b6040516101ed9190612935565b60405180910390f35b6101fe6112fc565b005b61021a600480360381019061021591906127ac565b611310565b6040516102279190612972565b60405180910390f35b610238611330565b60405161024591906125a9565b60405180910390f35b610268600480360381019061026391906127ac565b611359565b005b610284600480360381019061027f919061298d565b6113bb565b60405161029191906125a9565b60405180910390f35b6102b460048036038101906102af91906129ba565b6113ee565b6040516102c19190612972565b60405180910390f35b6102e460048036038101906102df91906127ac565b61143a565b6040516102f19190612972565b60405180910390f35b610314600480360381019061030f91906127ac565b611490565b6040516103219190612972565b60405180910390f35b610344600480360381019061033f91906127ac565b611765565b60405161035191906125d3565b60405180910390f35b610374600480360381019061036f919061255a565b61177d565b005b610390600480360381019061038b91906127ac565b611817565b005b600160003373ffffffffffffffffffffffffffffffffffffffff1673ffffffffffffffffffffffffffffffffffffffff16815260200190815260200160002060009054906101000a900460ff1661041e576040517f08c379a000000000000000000000000000000000000000000000000000000000815260040161041590612a6a565b60405180910390fd5b610428828261189a565b5050565b6004602052816000526040600020818154811061044857600080fd5b906000526020600020016000915091509054906101000a900473ffffffffffffffffffffffffffffffffffffffff1681565b600160003373ffffffffffffffffffffffffffffffffffffffff1673ffffffffffffffffffffffffffffffffffffffff16815260200190815260200160002060009054906101000a900460ff16610506576040517f08c379a00000000000000000000000000000000000000000000000000000000081526004016104fd90612a6a565b60405180910390fd5b6000600260008473ffffffffffffffffffffffffffffffffffffffff1673ffffffffffffffffffffffffffffffffffffffff1681526020019081526020016000206040518060c0016040529081600082015481526020016001820160009054906101000a900473ffffffffffffffffffffffffffffffffffffffff1673ffffffffffffffffffffffffffffffffffffffff1673ffffffffffffffffffffffffffffffffffffffff1681526020016002820180546105c290612ab9565b80601f01602080910402602001604051908101604052809291908181526020018280546105ee90612ab9565b801561063b5780601f106106105761010080835404028352916020019161063b565b820191906000526020600020905b81548152906001019060200180831161061e57829003601f168201915b5050505050815260200160038201805461065490612ab9565b80601f016020809104026020016040519081016040528092919081815260200182805461068090612ab9565b80156106cd5780601f106106a2576101008083540402835291602001916106cd565b820191906000526020600020905b8154815290600101906020018083116106b057829003601f168201915b505050505081526020016004820160405180604001604052908160008201548152602001600182015481525050815260200160068201548152505090506000821161072057806080015160000151610722565b815b600260008573ffffffffffffffffffffffffffffffffffffffff1673ffffffffffffffffffffffffffffffffffffffff16815260200190815260200160002060040160000160008282546107769190612b19565b92505081905550600860009054906101000a900473ffffffffffffffffffffffffffffffffffffffff1673ffffffffffffffffffffffffffffffffffffffff1663157ffc52846107c4611b92565b856040518463ffffffff1660e01b81526004016107e393929190612b4d565b600060405180830381600087803b1580156107fd57600080fd5b505af1158015610811573d6000803e3d6000fd5b50505050505050565b600760009054906101000a900473ffffffffffffffffffffffffffffffffffffffff1673ffffffffffffffffffffffffffffffffffffffff16639497c6086006336040518363ffffffff1660e01b8152600401610878929190612bfb565b602060405180830381865afa158015610895573d6000803e3d6000fd5b505050506040513d601f19601f820116820180604052508101906108b99190612c50565b6108f8576040517f08c379a00000000000000000000000000000000000000000000000000000000081526004016108ef90612cc9565b60405180910390fd5b6000600260003373ffffffffffffffffffffffffffffffffffffffff1673ffffffffffffffffffffffffffffffffffffffff1681526020019081526020016000206040518060c0016040529081600082015481526020016001820160009054906101000a900473ffffffffffffffffffffffffffffffffffffffff1673ffffffffffffffffffffffffffffffffffffffff1673ffffffffffffffffffffffffffffffffffffffff1681526020016002820180546109b490612ab9565b80601f01602080910402602001604051908101604052809291908181526020018280546109e090612ab9565b8015610a2d5780601f10610a0257610100808354040283529160200191610a2d565b820191906000526020600020905b815481529060010190602001808311610a1057829003601f168201915b50505050508152602001600382018054610a4690612ab9565b80601f0160208091040260200160405190810160405280929190818152602001828054610a7290612ab9565b8015610abf5780601f10610a9457610100808354040283529160200191610abf565b820191906000526020600020905b815481529060010190602001808311610aa257829003601f168201915b5050505050815260200160048201604051806040016040529081600082015481526020016001820154815250508152602001600682015481525050905060008160800151602001519050600860009054906101000a900473ffffffffffffffffffffffffffffffffffffffff1673ffffffffffffffffffffffffffffffffffffffff1663fbe85f06826040518263ffffffff1660e01b8152600401610b6491906125d3565b602060405180830381865afa158015610b81573d6000803e3d6000fd5b505050506040513d601f19601f82011682018060405250810190610ba59190612c50565b610be4576040517f08c379a0000000000000000000000000000000000000000000000000000000008152600401610bdb90612d35565b60405180910390fd5b600260003373ffffffffffffffffffffffffffffffffffffffff1673ffffffffffffffffffffffffffffffffffffffff1681526020019081526020016000206004016001016000815480929190610c3a90612d55565b9190505550600860009054906101000a900473ffffffffffffffffffffffffffffffffffffffff1673ffffffffffffffffffffffffffffffffffffffff1663f3fef3a333836040518363ffffffff1660e01b8152600401610c9c929190612d9d565b600060405180830381600087803b158015610cb657600080fd5b505af1158015610cca573d6000803e3d6000fd5b505050505050565b60095481565b6064825111158015610cec57506064815111155b610d2b576040517f08c379a0000000000000000000000000000000000000000000000000000000008152600401610d2290612e12565b60405180910390fd5b613e80600760009054906101000a900473ffffffffffffffffffffffffffffffffffffffff1673ffffffffffffffffffffffffffffffffffffffff16632f22dc7b60066040518263ffffffff1660e01b8152600401610d8a9190612e32565b602060405180830381865afa158015610da7573d6000803e3d6000fd5b505050506040513d601f19601f82011682018060405250810190610dcb9190612e62565b1115610e0c576040517f08c379a0000000000000000000000000000000000000000000000000000000008152600401610e0390612edb565b60405180910390fd5b60006001600760009054906101000a900473ffffffffffffffffffffffffffffffffffffffff1673ffffffffffffffffffffffffffffffffffffffff16631eb2c12060066040518263ffffffff1660e01b8152600401610e6c9190612e32565b602060405180830381865afa158015610e89573d6000803e3d6000fd5b505050506040513d601f19601f82011682018060405250810190610ead9190612e62565b610eb79190612efb565b905060006040518060c001604052808381526020013373ffffffffffffffffffffffffffffffffffffffff168152602001858152602001848152602001604051806040016040528060008152602001610f0e611b92565b815250815260200143815250905080600260003373ffffffffffffffffffffffffffffffffffffffff1673ffffffffffffffffffffffffffffffffffffffff1681526020019081526020016000206000820151816000015560208201518160010160006101000a81548173ffffffffffffffffffffffffffffffffffffffff021916908373ffffffffffffffffffffffffffffffffffffffff1602179055506040820151816002019081610fc291906130db565b506060820151816003019081610fd891906130db565b506080820151816004016000820151816000015560208201518160010155505060a08201518160060155905050336006600084815260200190815260200160002060006101000a81548173ffffffffffffffffffffffffffffffffffffffff021916908373ffffffffffffffffffffffffffffffffffffffff160217905550600760009054906101000a900473ffffffffffffffffffffffffffffffffffffffff1673ffffffffffffffffffffffffffffffffffffffff16639c3eead93360066040518363ffffffff1660e01b81526004016110b59291906131ad565b600060405180830381600087803b1580156110cf57600080fd5b505af11580156110e3573d6000803e3d6000fd5b5050505050505050565b6110f5612446565b600260008373ffffffffffffffffffffffffffffffffffffffff1673ffffffffffffffffffffffffffffffffffffffff1681526020019081526020016000206040518060c0016040529081600082015481526020016001820160009054906101000a900473ffffffffffffffffffffffffffffffffffffffff1673ffffffffffffffffffffffffffffffffffffffff1673ffffffffffffffffffffffffffffffffffffffff1681526020016002820180546111af90612ab9565b80601f01602080910402602001604051908101604052809291908181526020018280546111db90612ab9565b80156112285780601f106111fd57610100808354040283529160200191611228565b820191906000526020600020905b81548152906001019060200180831161120b57829003601f168201915b5050505050815260200160038201805461124190612ab9565b80601f016020809104026020016040519081016040528092919081815260200182805461126d90612ab9565b80156112ba5780601f1061128f576101008083540402835291602001916112ba565b820191906000526020600020905b81548152906001019060200180831161129d57829003601f168201915b50505050508152602001600482016040518060400160405290816000820154815260200160018201548152505081526020016006820154815250509050919050565b611304611c2a565b61130e6000611ca8565b565b60016020528060005260406000206000915054906101000a900460ff1681565b60008060009054906101000a900473ffffffffffffffffffffffffffffffffffffffff16905090565b611361611c2a565b60018060008373ffffffffffffffffffffffffffffffffffffffff1673ffffffffffffffffffffffffffffffffffffffff16815260200190815260200160002060006101000a81548160ff02191690831515021790555050565b60066020528060005260406000206000915054906101000a900473ffffffffffffffffffffffffffffffffffffffff1681565b6000600583116114015760019050611433565b6000611429600161141b8688611d6c90919063ffffffff16565b611d8290919063ffffffff16565b9050808310159150505b9392505050565b6000600160008373ffffffffffffffffffffffffffffffffffffffff1673ffffffffffffffffffffffffffffffffffffffff16815260200190815260200160002060009054906101000a900460ff169050919050565b600080600260008473ffffffffffffffffffffffffffffffffffffffff1673ffffffffffffffffffffffffffffffffffffffff1681526020019081526020016000206040518060c0016040529081600082015481526020016001820160009054906101000a900473ffffffffffffffffffffffffffffffffffffffff1673ffffffffffffffffffffffffffffffffffffffff1673ffffffffffffffffffffffffffffffffffffffff16815260200160028201805461154d90612ab9565b80601f016020809104026020016040519081016040528092919081815260200182805461157990612ab9565b80156115c65780601f1061159b576101008083540402835291602001916115c6565b820191906000526020600020905b8154815290600101906020018083116115a957829003601f168201915b505050505081526020016003820180546115df90612ab9565b80601f016020809104026020016040519081016040528092919081815260200182805461160b90612ab9565b80156116585780601f1061162d57610100808354040283529160200191611658565b820191906000526020600020905b81548152906001019060200180831161163b57829003601f168201915b5050505050815260200160048201604051806040016040529081600082015481526020016001820154815250508152602001600682015481525050905060008160000151116116ab576000915050611760565b61175c600954600760009054906101000a900473ffffffffffffffffffffffffffffffffffffffff1673ffffffffffffffffffffffffffffffffffffffff16631eb2c12060066040518263ffffffff1660e01b815260040161170d9190612e32565b602060405180830381865afa15801561172a573d6000803e3d6000fd5b505050506040513d601f19601f8201168201806040525081019061174e9190612e62565b8360800151600001516113ee565b9150505b919050565b60056020528060005260406000206000915090505481565b600160003373ffffffffffffffffffffffffffffffffffffffff1673ffffffffffffffffffffffffffffffffffffffff16815260200190815260200160002060009054906101000a900460ff16611809576040517f08c379a000000000000000000000000000000000000000000000000000000000815260040161180090612a6a565b60405180910390fd5b6118138282611d98565b5050565b61181f611c2a565b600073ffffffffffffffffffffffffffffffffffffffff168173ffffffffffffffffffffffffffffffffffffffff160361188e576040517f08c379a000000000000000000000000000000000000000000000000000000000815260040161188590613248565b60405180910390fd5b61189781611ca8565b50565b6000600760009054906101000a900473ffffffffffffffffffffffffffffffffffffffff1673ffffffffffffffffffffffffffffffffffffffff16632b17b8be846040518263ffffffff1660e01b81526004016118f791906125a9565b608060405180830381865afa158015611914573d6000803e3d6000fd5b505050506040513d601f19601f82011682018060405250810190611938919061331f565b9050600081602001519050600360008273ffffffffffffffffffffffffffffffffffffffff1673ffffffffffffffffffffffffffffffffffffffff16815260200190815260200160002060008573ffffffffffffffffffffffffffffffffffffffff1673ffffffffffffffffffffffffffffffffffffffff16815260200190815260200160002060009054906101000a900460ff161580156119db575060038310155b15611b8c576001600360008373ffffffffffffffffffffffffffffffffffffffff1673ffffffffffffffffffffffffffffffffffffffff16815260200190815260200160002060008673ffffffffffffffffffffffffffffffffffffffff1673ffffffffffffffffffffffffffffffffffffffff16815260200190815260200160002060006101000a81548160ff02191690831515021790555060096000815480929190611a8890612d55565b9190505550600560008273ffffffffffffffffffffffffffffffffffffffff1673ffffffffffffffffffffffffffffffffffffffff1681526020019081526020016000206000815480929190611add90612d55565b9190505550600460008273ffffffffffffffffffffffffffffffffffffffff1673ffffffffffffffffffffffffffffffffffffffff168152602001908152602001600020849080600181540180825580915050600190039060005260206000200160009091909190916101000a81548173ffffffffffffffffffffffffffffffffffffffff021916908373ffffffffffffffffffffffffffffffffffffffff160217905550611b8b81612090565b5b50505050565b6000600860009054906101000a900473ffffffffffffffffffffffffffffffffffffffff1673ffffffffffffffffffffffffffffffffffffffff1663ed0df79e6040518163ffffffff1660e01b8152600401602060405180830381865afa158015611c01573d6000803e3d6000fd5b505050506040513d601f19601f82011682018060405250810190611c259190612e62565b905090565b611c3261243e565b73ffffffffffffffffffffffffffffffffffffffff16611c50611330565b73ffffffffffffffffffffffffffffffffffffffff1614611ca6576040517f08c379a0000000000000000000000000000000000000000000000000000000008152600401611c9d90613398565b60405180910390fd5b565b60008060009054906101000a900473ffffffffffffffffffffffffffffffffffffffff169050816000806101000a81548173ffffffffffffffffffffffffffffffffffffffff021916908373ffffffffffffffffffffffffffffffffffffffff1602179055508173ffffffffffffffffffffffffffffffffffffffff168173ffffffffffffffffffffffffffffffffffffffff167f8be0079c531659141344cd1fd0a4f28419497f9722a3daafe3b4186f6b6457e060405160405180910390a35050565b60008183611d7a91906133e7565b905092915050565b60008183611d909190612efb565b905092915050565b6000600760009054906101000a900473ffffffffffffffffffffffffffffffffffffffff1673ffffffffffffffffffffffffffffffffffffffff16632b17b8be846040518263ffffffff1660e01b8152600401611df591906125a9565b608060405180830381865afa158015611e12573d6000803e3d6000fd5b505050506040513d601f19601f82011682018060405250810190611e36919061331f565b9050600081602001519050600360008273ffffffffffffffffffffffffffffffffffffffff1673ffffffffffffffffffffffffffffffffffffffff16815260200190815260200160002060008573ffffffffffffffffffffffffffffffffffffffff1673ffffffffffffffffffffffffffffffffffffffff16815260200190815260200160002060009054906101000a900460ff16158015611ed9575060038310155b1561208a576001600360008373ffffffffffffffffffffffffffffffffffffffff1673ffffffffffffffffffffffffffffffffffffffff16815260200190815260200160002060008673ffffffffffffffffffffffffffffffffffffffff1673ffffffffffffffffffffffffffffffffffffffff16815260200190815260200160002060006101000a81548160ff02191690831515021790555060096000815480929190611f8690612d55565b9190505550600560008273ffffffffffffffffffffffffffffffffffffffff1673ffffffffffffffffffffffffffffffffffffffff1681526020019081526020016000206000815480929190611fdb90612d55565b9190505550600460008273ffffffffffffffffffffffffffffffffffffffff1673ffffffffffffffffffffffffffffffffffffffff168152602001908152602001600020849080600181540180825580915050600190039060005260206000200160009091909190916101000a81548173ffffffffffffffffffffffffffffffffffffffff021916908373ffffffffffffffffffffffffffffffffffffffff16021790555061208981612090565b5b50505050565b6000600260008373ffffffffffffffffffffffffffffffffffffffff1673ffffffffffffffffffffffffffffffffffffffff1681526020019081526020016000206040518060c0016040529081600082015481526020016001820160009054906101000a900473ffffffffffffffffffffffffffffffffffffffff1673ffffffffffffffffffffffffffffffffffffffff1673ffffffffffffffffffffffffffffffffffffffff16815260200160028201805461214c90612ab9565b80601f016020809104026020016040519081016040528092919081815260200182805461217890612ab9565b80156121c55780601f1061219a576101008083540402835291602001916121c5565b820191906000526020600020905b8154815290600101906020018083116121a857829003601f168201915b505050505081526020016003820180546121de90612ab9565b80601f016020809104026020016040519081016040528092919081815260200182805461220a90612ab9565b80156122575780601f1061222c57610100808354040283529160200191612257565b820191906000526020600020905b81548152906001019060200180831161223a57829003601f168201915b5050505050815260200160048201604051806040016040529081600082015481526020016001820154815250508152602001600682015481525050905060008160000151116122a6575061243b565b806080015160000180518091906122bc90612d55565b8152505080600260008473ffffffffffffffffffffffffffffffffffffffff1673ffffffffffffffffffffffffffffffffffffffff1681526020019081526020016000206000820151816000015560208201518160010160006101000a81548173ffffffffffffffffffffffffffffffffffffffff021916908373ffffffffffffffffffffffffffffffffffffffff160217905550604082015181600201908161236691906130db565b50606082015181600301908161237c91906130db565b506080820151816004016000820151816000015560208201518160010155505060a08201518160060155905050600860009054906101000a900473ffffffffffffffffffffffffffffffffffffffff1673ffffffffffffffffffffffffffffffffffffffff166352b8d3ed8360016040518363ffffffff1660e01b8152600401612407929190613453565b600060405180830381600087803b15801561242157600080fd5b505af1158015612435573d6000803e3d6000fd5b50505050505b50565b600033905090565b6040518060c0016040528060008152602001600073ffffffffffffffffffffffffffffffffffffffff168152602001606081526020016060815260200161248b612498565b8152602001600081525090565b604051806040016040528060008152602001600081525090565b6000604051905090565b600080fd5b600080fd5b600073ffffffffffffffffffffffffffffffffffffffff82169050919050565b60006124f1826124c6565b9050919050565b612501816124e6565b811461250c57600080fd5b50565b60008135905061251e816124f8565b92915050565b6000819050919050565b61253781612524565b811461254257600080fd5b50565b6000813590506125548161252e565b92915050565b60008060408385031215612571576125706124bc565b5b600061257f8582860161250f565b925050602061259085828601612545565b9150509250929050565b6125a3816124e6565b82525050565b60006020820190506125be600083018461259a565b92915050565b6125cd81612524565b82525050565b60006020820190506125e860008301846125c4565b92915050565b600080fd5b600080fd5b6000601f19601f8301169050919050565b7f4e487b7100000000000000000000000000000000000000000000000000000000600052604160045260246000fd5b612641826125f8565b810181811067ffffffffffffffff821117156126605761265f612609565b5b80604052505050565b60006126736124b2565b905061267f8282612638565b919050565b600067ffffffffffffffff82111561269f5761269e612609565b5b6126a8826125f8565b9050602081019050919050565b82818337600083830152505050565b60006126d76126d284612684565b612669565b9050828152602081018484840111156126f3576126f26125f3565b5b6126fe8482856126b5565b509392505050565b600082601f83011261271b5761271a6125ee565b5b813561272b8482602086016126c4565b91505092915050565b6000806040838503121561274b5761274a6124bc565b5b600083013567ffffffffffffffff811115612769576127686124c1565b5b61277585828601612706565b925050602083013567ffffffffffffffff811115612796576127956124c1565b5b6127a285828601612706565b9150509250929050565b6000602082840312156127c2576127c16124bc565b5b60006127d08482850161250f565b91505092915050565b6127e281612524565b82525050565b6127f1816124e6565b82525050565b600081519050919050565b600082825260208201905092915050565b60005b83811015612831578082015181840152602081019050612816565b60008484015250505050565b6000612848826127f7565b6128528185612802565b9350612862818560208601612813565b61286b816125f8565b840191505092915050565b60408201600082015161288c60008501826127d9565b50602082015161289f60208501826127d9565b50505050565b600060e0830160008301516128bd60008601826127d9565b5060208301516128d060208601826127e8565b50604083015184820360408601526128e8828261283d565b91505060608301518482036060860152612902828261283d565b91505060808301516129176080860182612876565b5060a083015161292a60c08601826127d9565b508091505092915050565b6000602082019050818103600083015261294f81846128a5565b905092915050565b60008115159050919050565b61296c81612957565b82525050565b60006020820190506129876000830184612963565b92915050565b6000602082840312156129a3576129a26124bc565b5b60006129b184828501612545565b91505092915050565b6000806000606084860312156129d3576129d26124bc565b5b60006129e186828701612545565b93505060206129f286828701612545565b9250506040612a0386828701612545565b9150509250925092565b600082825260208201905092915050565b7f4e6f7420616c6c6f7765642063616c6c65720000000000000000000000000000600082015250565b6000612a54601283612a0d565b9150612a5f82612a1e565b602082019050919050565b60006020820190508181036000830152612a8381612a47565b9050919050565b7f4e487b7100000000000000000000000000000000000000000000000000000000600052602260045260246000fd5b60006002820490506001821680612ad157607f821691505b602082108103612ae457612ae3612a8a565b5b50919050565b7f4e487b7100000000000000000000000000000000000000000000000000000000600052601160045260246000fd5b6000612b2482612524565b9150612b2f83612524565b9250828203905081811115612b4757612b46612aea565b5b92915050565b6000606082019050612b62600083018661259a565b612b6f60208301856125c4565b612b7c60408301846125c4565b949350505050565b7f4e487b7100000000000000000000000000000000000000000000000000000000600052602160045260246000fd5b60098110612bc457612bc3612b84565b5b50565b6000819050612bd582612bb3565b919050565b6000612be582612bc7565b9050919050565b612bf581612bda565b82525050565b6000604082019050612c106000830185612bec565b612c1d602083018461259a565b9392505050565b612c2d81612957565b8114612c3857600080fd5b50565b600081519050612c4a81612c24565b92915050565b600060208284031215612c6657612c656124bc565b5b6000612c7484828501612c3b565b91505092915050565b7f506f6f6c206f6e6c7920746f2061637469766973740000000000000000000000600082015250565b6000612cb3601583612a0d565b9150612cbe82612c7d565b602082019050919050565b60006020820190508181036000830152612ce281612ca6565b9050919050565b7f43616e277420617070726f766520776974686472617700000000000000000000600082015250565b6000612d1f601683612a0d565b9150612d2a82612ce9565b602082019050919050565b60006020820190508181036000830152612d4e81612d12565b9050919050565b6000612d6082612524565b91507fffffffffffffffffffffffffffffffffffffffffffffffffffffffffffffffff8203612d9257612d91612aea565b5b600182019050919050565b6000604082019050612db2600083018561259a565b612dbf60208301846125c4565b9392505050565b7f4d61782031303020636861726163746572730000000000000000000000000000600082015250565b6000612dfc601283612a0d565b9150612e0782612dc6565b602082019050919050565b60006020820190508181036000830152612e2b81612def565b9050919050565b6000602082019050612e476000830184612bec565b92915050565b600081519050612e5c8161252e565b92915050565b600060208284031215612e7857612e776124bc565b5b6000612e8684828501612e4d565b91505092915050565b7f4d6178206c696d69742072656163686564000000000000000000000000000000600082015250565b6000612ec5601183612a0d565b9150612ed082612e8f565b602082019050919050565b60006020820190508181036000830152612ef481612eb8565b9050919050565b6000612f0682612524565b9150612f1183612524565b9250828201905080821115612f2957612f28612aea565b5b92915050565b60008190508160005260206000209050919050565b60006020601f8301049050919050565b600082821b905092915050565b600060088302612f917fffffffffffffffffffffffffffffffffffffffffffffffffffffffffffffffff82612f54565b612f9b8683612f54565b95508019841693508086168417925050509392505050565b6000819050919050565b6000612fd8612fd3612fce84612524565b612fb3565b612524565b9050919050565b6000819050919050565b612ff283612fbd565b613006612ffe82612fdf565b848454612f61565b825550505050565b600090565b61301b61300e565b613026818484612fe9565b505050565b5b8181101561304a5761303f600082613013565b60018101905061302c565b5050565b601f82111561308f5761306081612f2f565b61306984612f44565b81016020851015613078578190505b61308c61308485612f44565b83018261302b565b50505b505050565b600082821c905092915050565b60006130b260001984600802613094565b1980831691505092915050565b60006130cb83836130a1565b9150826002028217905092915050565b6130e4826127f7565b67ffffffffffffffff8111156130fd576130fc612609565b5b6131078254612ab9565b61311282828561304e565b600060209050601f8311600181146131455760008415613133578287015190505b61313d85826130bf565b8655506131a5565b601f19841661315386612f2f565b60005b8281101561317b57848901518255600182019150602085019450602081019050613156565b868310156131985784890151613194601f8916826130a1565b8355505b6001600288020188555050505b505050505050565b60006040820190506131c2600083018561259a565b6131cf6020830184612bec565b9392505050565b7f4f776e61626c653a206e6577206f776e657220697320746865207a65726f206160008201527f6464726573730000000000000000000000000000000000000000000000000000602082015250565b6000613232602683612a0d565b915061323d826131d6565b604082019050919050565b6000602082019050818103600083015261326181613225565b9050919050565b600080fd5b60008151905061327c816124f8565b92915050565b6009811061328f57600080fd5b50565b6000815190506132a181613282565b92915050565b6000608082840312156132bd576132bc613268565b5b6132c76080612669565b905060006132d78482850161326d565b60008301525060206132eb8482850161326d565b60208301525060406132ff84828501613292565b604083015250606061331384828501612e4d565b60608301525092915050565b600060808284031215613335576133346124bc565b5b6000613343848285016132a7565b91505092915050565b7f4f776e61626c653a2063616c6c6572206973206e6f7420746865206f776e6572600082015250565b6000613382602083612a0d565b915061338d8261334c565b602082019050919050565b600060208201905081810360008301526133b181613375565b9050919050565b7f4e487b7100000000000000000000000000000000000000000000000000000000600052601260045260246000fd5b60006133f282612524565b91506133fd83612524565b92508261340d5761340c6133b8565b5b828204905092915050565b6000819050919050565b600061343d61343861343384613418565b612fb3565b612524565b9050919050565b61344d81613422565b82525050565b6000604082019050613468600083018561259a565b6134756020830184613444565b939250505056fea26469706673582212207bbe57a32a06b4e5696b260f43689acd51371fe934bef54a1049f6a2a0fe48e864736f6c634300081b0033",
  "linkReferences": {},
  "deployedLinkReferences": {}
}