{
  "_format": "hh-sol-artifact-1",
  "contractName": "ActivistRules",
  "sourceName": "contracts/ActivistRules.sol",
  "abi": [
    {
      "inputs": [
        {
          "internalType": "address",
          "name": "communityRulesAddress",
          "type": "address"
        },
        {
          "internalType": "address",
          "name": "activistPoolAddress",
          "type": "address"
        }
      ],
      "stateMutability": "nonpayable",
      "type": "constructor"
    },
    {
      "anonymous": false,
      "inputs": [
        {
          "indexed": true,
          "internalType": "address",
          "name": "previousOwner",
          "type": "address"
        },
        {
          "indexed": true,
          "internalType": "address",
          "name": "newOwner",
          "type": "address"
        }
      ],
      "name": "OwnershipTransferred",
      "type": "event"
    },
    {
      "inputs": [
        {
          "internalType": "address",
          "name": "",
          "type": "address"
        }
      ],
      "name": "activistApprovedInvites",
      "outputs": [
        {
          "internalType": "uint256",
          "name": "",
          "type": "uint256"
        }
      ],
      "stateMutability": "view",
      "type": "function"
    },
    {
      "inputs": [
        {
          "internalType": "address",
          "name": "",
          "type": "address"
        },
        {
          "internalType": "uint256",
          "name": "",
          "type": "uint256"
        }
      ],
      "name": "activistApprovedUsers",
      "outputs": [
        {
          "internalType": "address",
          "name": "",
          "type": "address"
        }
      ],
      "stateMutability": "view",
      "type": "function"
    },
    {
      "inputs": [
        {
          "internalType": "uint256",
          "name": "",
          "type": "uint256"
        }
      ],
      "name": "activistsAddress",
      "outputs": [
        {
          "internalType": "address",
          "name": "",
          "type": "address"
        }
      ],
      "stateMutability": "view",
      "type": "function"
    },
    {
      "inputs": [
        {
          "internalType": "string",
          "name": "name",
          "type": "string"
        },
        {
          "internalType": "string",
          "name": "proofPhoto",
          "type": "string"
        }
      ],
      "name": "addActivist",
      "outputs": [],
      "stateMutability": "nonpayable",
      "type": "function"
    },
    {
      "inputs": [
        {
          "internalType": "address",
          "name": "inspectorAddress",
          "type": "address"
        },
        {
          "internalType": "uint256",
          "name": "inspectorTotalInspections",
          "type": "uint256"
        }
      ],
      "name": "addInspectorLevel",
      "outputs": [],
      "stateMutability": "nonpayable",
      "type": "function"
    },
    {
      "inputs": [
        {
          "internalType": "address",
          "name": "regeneratorAddress",
          "type": "address"
        },
        {
          "internalType": "uint256",
          "name": "regeneratorTotalInspections",
          "type": "uint256"
        }
      ],
      "name": "addRegeneratorLevel",
      "outputs": [],
      "stateMutability": "nonpayable",
      "type": "function"
    },
    {
      "inputs": [
        {
          "internalType": "address",
          "name": "",
          "type": "address"
        }
      ],
      "name": "allowedCallers",
      "outputs": [
        {
          "internalType": "bool",
          "name": "",
          "type": "bool"
        }
      ],
      "stateMutability": "view",
      "type": "function"
    },
    {
      "inputs": [],
      "name": "approvedInvites",
      "outputs": [
        {
          "internalType": "uint256",
          "name": "",
          "type": "uint256"
        }
      ],
      "stateMutability": "view",
      "type": "function"
    },
    {
      "inputs": [
        {
          "internalType": "uint256",
          "name": "totalLevels",
          "type": "uint256"
        },
        {
          "internalType": "uint256",
          "name": "totalUsers",
          "type": "uint256"
        },
        {
          "internalType": "uint256",
          "name": "userLevels",
          "type": "uint256"
        }
      ],
      "name": "canInvite",
      "outputs": [
        {
          "internalType": "bool",
          "name": "",
          "type": "bool"
        }
      ],
      "stateMutability": "pure",
      "type": "function"
    },
    {
      "inputs": [
        {
          "internalType": "address",
          "name": "addr",
          "type": "address"
        }
      ],
      "name": "canSendInvite",
      "outputs": [
        {
          "internalType": "bool",
          "name": "",
          "type": "bool"
        }
      ],
      "stateMutability": "view",
      "type": "function"
    },
    {
      "inputs": [
        {
          "internalType": "address",
          "name": "addr",
          "type": "address"
        }
      ],
      "name": "getActivist",
      "outputs": [
        {
          "components": [
            {
              "internalType": "uint256",
              "name": "id",
              "type": "uint256"
            },
            {
              "internalType": "address",
              "name": "activistWallet",
              "type": "address"
            },
            {
              "internalType": "string",
              "name": "name",
              "type": "string"
            },
            {
              "internalType": "string",
              "name": "proofPhoto",
              "type": "string"
            },
            {
              "components": [
                {
                  "internalType": "uint256",
                  "name": "level",
                  "type": "uint256"
                },
                {
                  "internalType": "uint256",
                  "name": "currentEra",
                  "type": "uint256"
                }
              ],
              "internalType": "struct Pool",
              "name": "pool",
              "type": "tuple"
            },
            {
              "internalType": "uint256",
              "name": "createdAt",
              "type": "uint256"
            }
          ],
          "internalType": "struct Activist",
          "name": "",
          "type": "tuple"
        }
      ],
      "stateMutability": "view",
      "type": "function"
    },
    {
      "inputs": [
        {
          "internalType": "address",
          "name": "caller",
          "type": "address"
        }
      ],
      "name": "isAllowedCaller",
      "outputs": [
        {
          "internalType": "bool",
          "name": "",
          "type": "bool"
        }
      ],
      "stateMutability": "view",
      "type": "function"
    },
    {
      "inputs": [
        {
          "internalType": "address",
          "name": "allowed",
          "type": "address"
        }
      ],
      "name": "newAllowedCaller",
      "outputs": [],
      "stateMutability": "nonpayable",
      "type": "function"
    },
    {
      "inputs": [],
      "name": "owner",
      "outputs": [
        {
          "internalType": "address",
          "name": "",
          "type": "address"
        }
      ],
      "stateMutability": "view",
      "type": "function"
    },
    {
      "inputs": [],
      "name": "poolCurrentEra",
      "outputs": [
        {
          "internalType": "uint256",
          "name": "",
          "type": "uint256"
        }
      ],
      "stateMutability": "view",
      "type": "function"
    },
    {
      "inputs": [
        {
          "internalType": "address",
          "name": "addr",
          "type": "address"
        },
        {
          "internalType": "uint256",
          "name": "removeSomeLevels",
          "type": "uint256"
        }
      ],
      "name": "removePoolLevels",
      "outputs": [],
      "stateMutability": "nonpayable",
      "type": "function"
    },
    {
      "inputs": [],
      "name": "renounceOwnership",
      "outputs": [],
      "stateMutability": "nonpayable",
      "type": "function"
    },
    {
      "inputs": [
        {
          "internalType": "address",
          "name": "newOwner",
          "type": "address"
        }
      ],
      "name": "transferOwnership",
      "outputs": [],
      "stateMutability": "nonpayable",
      "type": "function"
    },
    {
      "inputs": [],
      "name": "withdraw",
      "outputs": [],
      "stateMutability": "nonpayable",
      "type": "function"
    }
  ],
  "bytecode": "0x608060405234801561001057600080fd5b5060405161373038038061373083398181016040528101906100329190610206565b61004e6100436100d760201b60201c565b6100df60201b60201c565b81600760006101000a81548173ffffffffffffffffffffffffffffffffffffffff021916908373ffffffffffffffffffffffffffffffffffffffff16021790555080600860006101000a81548173ffffffffffffffffffffffffffffffffffffffff021916908373ffffffffffffffffffffffffffffffffffffffff1602179055505050610246565b600033905090565b60008060009054906101000a900473ffffffffffffffffffffffffffffffffffffffff169050816000806101000a81548173ffffffffffffffffffffffffffffffffffffffff021916908373ffffffffffffffffffffffffffffffffffffffff1602179055508173ffffffffffffffffffffffffffffffffffffffff168173ffffffffffffffffffffffffffffffffffffffff167f8be0079c531659141344cd1fd0a4f28419497f9722a3daafe3b4186f6b6457e060405160405180910390a35050565b600080fd5b600073ffffffffffffffffffffffffffffffffffffffff82169050919050565b60006101d3826101a8565b9050919050565b6101e3816101c8565b81146101ee57600080fd5b50565b600081519050610200816101da565b92915050565b6000806040838503121561021d5761021c6101a3565b5b600061022b858286016101f1565b925050602061023c858286016101f1565b9150509250929050565b6134db806102556000396000f3fe608060405234801561001057600080fd5b50600436106101205760003560e01c80638da5cb5b116100ad578063c77c1ce611610071578063c77c1ce614610305578063cb11cd8914610335578063e05cf15514610365578063f1a204ce14610383578063f2fde38b1461039f57610120565b80638da5cb5b1461023b5780638f93716f146102595780639d3c50b2146102755780639eaf666f146102a5578063a6801258146102d557610120565b8063430816aa116100f4578063430816aa146101975780635fbf8a69146101b557806362efeff7146101d1578063715018a6146102015780637b3341541461020b57610120565b8062b2c920146101255780630d4e45d31461014157806318ad5c9a146101715780633ccfd60b1461018d575b600080fd5b61013f600480360381019061013a9190612583565b6103bb565b005b61015b60048036038101906101569190612583565b610455565b60405161016891906125d2565b60405180910390f35b61018b60048036038101906101869190612583565b6104a3565b005b610195610843565b005b61019f610cfb565b6040516101ac91906125fc565b60405180910390f35b6101cf60048036038101906101ca919061275d565b610d01565b005b6101eb60048036038101906101e691906127d5565b611116565b6040516101f8919061295e565b60405180910390f35b610209611325565b005b610225600480360381019061022091906127d5565b611339565b604051610232919061299b565b60405180910390f35b610243611359565b60405161025091906125d2565b60405180910390f35b610273600480360381019061026e91906127d5565b611382565b005b61028f600480360381019061028a91906129b6565b6113e4565b60405161029c91906125d2565b60405180910390f35b6102bf60048036038101906102ba91906129e3565b611417565b6040516102cc919061299b565b60405180910390f35b6102ef60048036038101906102ea91906127d5565b611463565b6040516102fc919061299b565b60405180910390f35b61031f600480360381019061031a91906127d5565b6114b9565b60405161032c919061299b565b60405180910390f35b61034f600480360381019061034a91906127d5565b61178e565b60405161035c91906125fc565b60405180910390f35b61036d6117a6565b60405161037a91906125fc565b60405180910390f35b61039d60048036038101906103989190612583565b61183e565b005b6103b960048036038101906103b491906127d5565b6118d8565b005b600160003373ffffffffffffffffffffffffffffffffffffffff1673ffffffffffffffffffffffffffffffffffffffff16815260200190815260200160002060009054906101000a900460ff16610447576040517f08c379a000000000000000000000000000000000000000000000000000000000815260040161043e90612a93565b60405180910390fd5b610451828261195b565b5050565b6004602052816000526040600020818154811061047157600080fd5b906000526020600020016000915091509054906101000a900473ffffffffffffffffffffffffffffffffffffffff1681565b600160003373ffffffffffffffffffffffffffffffffffffffff1673ffffffffffffffffffffffffffffffffffffffff16815260200190815260200160002060009054906101000a900460ff1661052f576040517f08c379a000000000000000000000000000000000000000000000000000000000815260040161052690612a93565b60405180910390fd5b6000600260008473ffffffffffffffffffffffffffffffffffffffff1673ffffffffffffffffffffffffffffffffffffffff1681526020019081526020016000206040518060c0016040529081600082015481526020016001820160009054906101000a900473ffffffffffffffffffffffffffffffffffffffff1673ffffffffffffffffffffffffffffffffffffffff1673ffffffffffffffffffffffffffffffffffffffff1681526020016002820180546105eb90612ae2565b80601f016020809104026020016040519081016040528092919081815260200182805461061790612ae2565b80156106645780601f1061063957610100808354040283529160200191610664565b820191906000526020600020905b81548152906001019060200180831161064757829003601f168201915b5050505050815260200160038201805461067d90612ae2565b80601f01602080910402602001604051908101604052809291908181526020018280546106a990612ae2565b80156106f65780601f106106cb576101008083540402835291602001916106f6565b820191906000526020600020905b8154815290600101906020018083116106d957829003601f168201915b50505050508152602001600482016040518060400160405290816000820154815260200160018201548152505081526020016006820154815250509050600082116107495780608001516000015161074b565b815b600260008573ffffffffffffffffffffffffffffffffffffffff1673ffffffffffffffffffffffffffffffffffffffff168152602001908152602001600020600401600001600082825461079f9190612b42565b92505081905550600860009054906101000a900473ffffffffffffffffffffffffffffffffffffffff1673ffffffffffffffffffffffffffffffffffffffff1663157ffc52846107ed6117a6565b856040518463ffffffff1660e01b815260040161080c93929190612b76565b600060405180830381600087803b15801561082657600080fd5b505af115801561083a573d6000803e3d6000fd5b50505050505050565b600760009054906101000a900473ffffffffffffffffffffffffffffffffffffffff1673ffffffffffffffffffffffffffffffffffffffff16639497c6086006336040518363ffffffff1660e01b81526004016108a1929190612c24565b602060405180830381865afa1580156108be573d6000803e3d6000fd5b505050506040513d601f19601f820116820180604052508101906108e29190612c79565b610921576040517f08c379a000000000000000000000000000000000000000000000000000000000815260040161091890612cf2565b60405180910390fd5b6000600260003373ffffffffffffffffffffffffffffffffffffffff1673ffffffffffffffffffffffffffffffffffffffff1681526020019081526020016000206040518060c0016040529081600082015481526020016001820160009054906101000a900473ffffffffffffffffffffffffffffffffffffffff1673ffffffffffffffffffffffffffffffffffffffff1673ffffffffffffffffffffffffffffffffffffffff1681526020016002820180546109dd90612ae2565b80601f0160208091040260200160405190810160405280929190818152602001828054610a0990612ae2565b8015610a565780601f10610a2b57610100808354040283529160200191610a56565b820191906000526020600020905b815481529060010190602001808311610a3957829003601f168201915b50505050508152602001600382018054610a6f90612ae2565b80601f0160208091040260200160405190810160405280929190818152602001828054610a9b90612ae2565b8015610ae85780601f10610abd57610100808354040283529160200191610ae8565b820191906000526020600020905b815481529060010190602001808311610acb57829003601f168201915b5050505050815260200160048201604051806040016040529081600082015481526020016001820154815250508152602001600682015481525050905060008160800151602001519050600860009054906101000a900473ffffffffffffffffffffffffffffffffffffffff1673ffffffffffffffffffffffffffffffffffffffff1663fbe85f06826040518263ffffffff1660e01b8152600401610b8d91906125fc565b602060405180830381865afa158015610baa573d6000803e3d6000fd5b505050506040513d601f19601f82011682018060405250810190610bce9190612c79565b610c0d576040517f08c379a0000000000000000000000000000000000000000000000000000000008152600401610c0490612d5e565b60405180910390fd5b600260003373ffffffffffffffffffffffffffffffffffffffff1673ffffffffffffffffffffffffffffffffffffffff1681526020019081526020016000206004016001016000815480929190610c6390612d7e565b9190505550600860009054906101000a900473ffffffffffffffffffffffffffffffffffffffff1673ffffffffffffffffffffffffffffffffffffffff1663f3fef3a333836040518363ffffffff1660e01b8152600401610cc5929190612dc6565b600060405180830381600087803b158015610cdf57600080fd5b505af1158015610cf3573d6000803e3d6000fd5b505050505050565b60095481565b6064825111158015610d1557506064815111155b610d54576040517f08c379a0000000000000000000000000000000000000000000000000000000008152600401610d4b90612e3b565b60405180910390fd5b613e80600760009054906101000a900473ffffffffffffffffffffffffffffffffffffffff1673ffffffffffffffffffffffffffffffffffffffff16632f22dc7b60066040518263ffffffff1660e01b8152600401610db39190612e5b565b602060405180830381865afa158015610dd0573d6000803e3d6000fd5b505050506040513d601f19601f82011682018060405250810190610df49190612e8b565b1115610e35576040517f08c379a0000000000000000000000000000000000000000000000000000000008152600401610e2c90612f04565b60405180910390fd5b60006001600760009054906101000a900473ffffffffffffffffffffffffffffffffffffffff1673ffffffffffffffffffffffffffffffffffffffff16631eb2c12060066040518263ffffffff1660e01b8152600401610e959190612e5b565b602060405180830381865afa158015610eb2573d6000803e3d6000fd5b505050506040513d601f19601f82011682018060405250810190610ed69190612e8b565b610ee09190612f24565b905060006040518060c001604052808381526020013373ffffffffffffffffffffffffffffffffffffffff168152602001858152602001848152602001604051806040016040528060008152602001610f376117a6565b815250815260200143815250905080600260003373ffffffffffffffffffffffffffffffffffffffff1673ffffffffffffffffffffffffffffffffffffffff1681526020019081526020016000206000820151816000015560208201518160010160006101000a81548173ffffffffffffffffffffffffffffffffffffffff021916908373ffffffffffffffffffffffffffffffffffffffff1602179055506040820151816002019081610feb9190613104565b5060608201518160030190816110019190613104565b506080820151816004016000820151816000015560208201518160010155505060a08201518160060155905050336006600084815260200190815260200160002060006101000a81548173ffffffffffffffffffffffffffffffffffffffff021916908373ffffffffffffffffffffffffffffffffffffffff160217905550600760009054906101000a900473ffffffffffffffffffffffffffffffffffffffff1673ffffffffffffffffffffffffffffffffffffffff16639c3eead93360066040518363ffffffff1660e01b81526004016110de9291906131d6565b600060405180830381600087803b1580156110f857600080fd5b505af115801561110c573d6000803e3d6000fd5b5050505050505050565b61111e61246f565b600260008373ffffffffffffffffffffffffffffffffffffffff1673ffffffffffffffffffffffffffffffffffffffff1681526020019081526020016000206040518060c0016040529081600082015481526020016001820160009054906101000a900473ffffffffffffffffffffffffffffffffffffffff1673ffffffffffffffffffffffffffffffffffffffff1673ffffffffffffffffffffffffffffffffffffffff1681526020016002820180546111d890612ae2565b80601f016020809104026020016040519081016040528092919081815260200182805461120490612ae2565b80156112515780601f1061122657610100808354040283529160200191611251565b820191906000526020600020905b81548152906001019060200180831161123457829003601f168201915b5050505050815260200160038201805461126a90612ae2565b80601f016020809104026020016040519081016040528092919081815260200182805461129690612ae2565b80156112e35780601f106112b8576101008083540402835291602001916112e3565b820191906000526020600020905b8154815290600101906020018083116112c657829003601f168201915b50505050508152602001600482016040518060400160405290816000820154815260200160018201548152505081526020016006820154815250509050919050565b61132d611c53565b6113376000611cd1565b565b60016020528060005260406000206000915054906101000a900460ff1681565b60008060009054906101000a900473ffffffffffffffffffffffffffffffffffffffff16905090565b61138a611c53565b60018060008373ffffffffffffffffffffffffffffffffffffffff1673ffffffffffffffffffffffffffffffffffffffff16815260200190815260200160002060006101000a81548160ff02191690831515021790555050565b60066020528060005260406000206000915054906101000a900473ffffffffffffffffffffffffffffffffffffffff1681565b60006005831161142a576001905061145c565b600061145260016114448688611d9590919063ffffffff16565b611dab90919063ffffffff16565b9050808310159150505b9392505050565b6000600160008373ffffffffffffffffffffffffffffffffffffffff1673ffffffffffffffffffffffffffffffffffffffff16815260200190815260200160002060009054906101000a900460ff169050919050565b600080600260008473ffffffffffffffffffffffffffffffffffffffff1673ffffffffffffffffffffffffffffffffffffffff1681526020019081526020016000206040518060c0016040529081600082015481526020016001820160009054906101000a900473ffffffffffffffffffffffffffffffffffffffff1673ffffffffffffffffffffffffffffffffffffffff1673ffffffffffffffffffffffffffffffffffffffff16815260200160028201805461157690612ae2565b80601f01602080910402602001604051908101604052809291908181526020018280546115a290612ae2565b80156115ef5780601f106115c4576101008083540402835291602001916115ef565b820191906000526020600020905b8154815290600101906020018083116115d257829003601f168201915b5050505050815260200160038201805461160890612ae2565b80601f016020809104026020016040519081016040528092919081815260200182805461163490612ae2565b80156116815780601f1061165657610100808354040283529160200191611681565b820191906000526020600020905b81548152906001019060200180831161166457829003601f168201915b5050505050815260200160048201604051806040016040529081600082015481526020016001820154815250508152602001600682015481525050905060008160000151116116d4576000915050611789565b611785600954600760009054906101000a900473ffffffffffffffffffffffffffffffffffffffff1673ffffffffffffffffffffffffffffffffffffffff16631eb2c12060066040518263ffffffff1660e01b81526004016117369190612e5b565b602060405180830381865afa158015611753573d6000803e3d6000fd5b505050506040513d601f19601f820116820180604052508101906117779190612e8b565b836080015160000151611417565b9150505b919050565b60056020528060005260406000206000915090505481565b6000600860009054906101000a900473ffffffffffffffffffffffffffffffffffffffff1673ffffffffffffffffffffffffffffffffffffffff1663ed0df79e6040518163ffffffff1660e01b8152600401602060405180830381865afa158015611815573d6000803e3d6000fd5b505050506040513d601f19601f820116820180604052508101906118399190612e8b565b905090565b600160003373ffffffffffffffffffffffffffffffffffffffff1673ffffffffffffffffffffffffffffffffffffffff16815260200190815260200160002060009054906101000a900460ff166118ca576040517f08c379a00000000000000000000000000000000000000000000000000000000081526004016118c190612a93565b60405180910390fd5b6118d48282611dc1565b5050565b6118e0611c53565b600073ffffffffffffffffffffffffffffffffffffffff168173ffffffffffffffffffffffffffffffffffffffff160361194f576040517f08c379a000000000000000000000000000000000000000000000000000000000815260040161194690613271565b60405180910390fd5b61195881611cd1565b50565b6000600760009054906101000a900473ffffffffffffffffffffffffffffffffffffffff1673ffffffffffffffffffffffffffffffffffffffff16632b17b8be846040518263ffffffff1660e01b81526004016119b891906125d2565b608060405180830381865afa1580156119d5573d6000803e3d6000fd5b505050506040513d601f19601f820116820180604052508101906119f99190613348565b9050600081602001519050600360008273ffffffffffffffffffffffffffffffffffffffff1673ffffffffffffffffffffffffffffffffffffffff16815260200190815260200160002060008573ffffffffffffffffffffffffffffffffffffffff1673ffffffffffffffffffffffffffffffffffffffff16815260200190815260200160002060009054906101000a900460ff16158015611a9c575060038310155b15611c4d576001600360008373ffffffffffffffffffffffffffffffffffffffff1673ffffffffffffffffffffffffffffffffffffffff16815260200190815260200160002060008673ffffffffffffffffffffffffffffffffffffffff1673ffffffffffffffffffffffffffffffffffffffff16815260200190815260200160002060006101000a81548160ff02191690831515021790555060096000815480929190611b4990612d7e565b9190505550600560008273ffffffffffffffffffffffffffffffffffffffff1673ffffffffffffffffffffffffffffffffffffffff1681526020019081526020016000206000815480929190611b9e90612d7e565b9190505550600460008273ffffffffffffffffffffffffffffffffffffffff1673ffffffffffffffffffffffffffffffffffffffff168152602001908152602001600020849080600181540180825580915050600190039060005260206000200160009091909190916101000a81548173ffffffffffffffffffffffffffffffffffffffff021916908373ffffffffffffffffffffffffffffffffffffffff160217905550611c4c816120b9565b5b50505050565b611c5b612467565b73ffffffffffffffffffffffffffffffffffffffff16611c79611359565b73ffffffffffffffffffffffffffffffffffffffff1614611ccf576040517f08c379a0000000000000000000000000000000000000000000000000000000008152600401611cc6906133c1565b60405180910390fd5b565b60008060009054906101000a900473ffffffffffffffffffffffffffffffffffffffff169050816000806101000a81548173ffffffffffffffffffffffffffffffffffffffff021916908373ffffffffffffffffffffffffffffffffffffffff1602179055508173ffffffffffffffffffffffffffffffffffffffff168173ffffffffffffffffffffffffffffffffffffffff167f8be0079c531659141344cd1fd0a4f28419497f9722a3daafe3b4186f6b6457e060405160405180910390a35050565b60008183611da39190613410565b905092915050565b60008183611db99190612f24565b905092915050565b6000600760009054906101000a900473ffffffffffffffffffffffffffffffffffffffff1673ffffffffffffffffffffffffffffffffffffffff16632b17b8be846040518263ffffffff1660e01b8152600401611e1e91906125d2565b608060405180830381865afa158015611e3b573d6000803e3d6000fd5b505050506040513d601f19601f82011682018060405250810190611e5f9190613348565b9050600081602001519050600360008273ffffffffffffffffffffffffffffffffffffffff1673ffffffffffffffffffffffffffffffffffffffff16815260200190815260200160002060008573ffffffffffffffffffffffffffffffffffffffff1673ffffffffffffffffffffffffffffffffffffffff16815260200190815260200160002060009054906101000a900460ff16158015611f02575060038310155b156120b3576001600360008373ffffffffffffffffffffffffffffffffffffffff1673ffffffffffffffffffffffffffffffffffffffff16815260200190815260200160002060008673ffffffffffffffffffffffffffffffffffffffff1673ffffffffffffffffffffffffffffffffffffffff16815260200190815260200160002060006101000a81548160ff02191690831515021790555060096000815480929190611faf90612d7e565b9190505550600560008273ffffffffffffffffffffffffffffffffffffffff1673ffffffffffffffffffffffffffffffffffffffff168152602001908152602001600020600081548092919061200490612d7e565b9190505550600460008273ffffffffffffffffffffffffffffffffffffffff1673ffffffffffffffffffffffffffffffffffffffff168152602001908152602001600020849080600181540180825580915050600190039060005260206000200160009091909190916101000a81548173ffffffffffffffffffffffffffffffffffffffff021916908373ffffffffffffffffffffffffffffffffffffffff1602179055506120b2816120b9565b5b50505050565b6000600260008373ffffffffffffffffffffffffffffffffffffffff1673ffffffffffffffffffffffffffffffffffffffff1681526020019081526020016000206040518060c0016040529081600082015481526020016001820160009054906101000a900473ffffffffffffffffffffffffffffffffffffffff1673ffffffffffffffffffffffffffffffffffffffff1673ffffffffffffffffffffffffffffffffffffffff16815260200160028201805461217590612ae2565b80601f01602080910402602001604051908101604052809291908181526020018280546121a190612ae2565b80156121ee5780601f106121c3576101008083540402835291602001916121ee565b820191906000526020600020905b8154815290600101906020018083116121d157829003601f168201915b5050505050815260200160038201805461220790612ae2565b80601f016020809104026020016040519081016040528092919081815260200182805461223390612ae2565b80156122805780601f1061225557610100808354040283529160200191612280565b820191906000526020600020905b81548152906001019060200180831161226357829003601f168201915b5050505050815260200160048201604051806040016040529081600082015481526020016001820154815250508152602001600682015481525050905060008160000151116122cf5750612464565b806080015160000180518091906122e590612d7e565b8152505080600260008473ffffffffffffffffffffffffffffffffffffffff1673ffffffffffffffffffffffffffffffffffffffff1681526020019081526020016000206000820151816000015560208201518160010160006101000a81548173ffffffffffffffffffffffffffffffffffffffff021916908373ffffffffffffffffffffffffffffffffffffffff160217905550604082015181600201908161238f9190613104565b5060608201518160030190816123a59190613104565b506080820151816004016000820151816000015560208201518160010155505060a08201518160060155905050600860009054906101000a900473ffffffffffffffffffffffffffffffffffffffff1673ffffffffffffffffffffffffffffffffffffffff166352b8d3ed8360016040518363ffffffff1660e01b815260040161243092919061347c565b600060405180830381600087803b15801561244a57600080fd5b505af115801561245e573d6000803e3d6000fd5b50505050505b50565b600033905090565b6040518060c0016040528060008152602001600073ffffffffffffffffffffffffffffffffffffffff16815260200160608152602001606081526020016124b46124c1565b8152602001600081525090565b604051806040016040528060008152602001600081525090565b6000604051905090565b600080fd5b600080fd5b600073ffffffffffffffffffffffffffffffffffffffff82169050919050565b600061251a826124ef565b9050919050565b61252a8161250f565b811461253557600080fd5b50565b60008135905061254781612521565b92915050565b6000819050919050565b6125608161254d565b811461256b57600080fd5b50565b60008135905061257d81612557565b92915050565b6000806040838503121561259a576125996124e5565b5b60006125a885828601612538565b92505060206125b98582860161256e565b9150509250929050565b6125cc8161250f565b82525050565b60006020820190506125e760008301846125c3565b92915050565b6125f68161254d565b82525050565b600060208201905061261160008301846125ed565b92915050565b600080fd5b600080fd5b6000601f19601f8301169050919050565b7f4e487b7100000000000000000000000000000000000000000000000000000000600052604160045260246000fd5b61266a82612621565b810181811067ffffffffffffffff8211171561268957612688612632565b5b80604052505050565b600061269c6124db565b90506126a88282612661565b919050565b600067ffffffffffffffff8211156126c8576126c7612632565b5b6126d182612621565b9050602081019050919050565b82818337600083830152505050565b60006127006126fb846126ad565b612692565b90508281526020810184848401111561271c5761271b61261c565b5b6127278482856126de565b509392505050565b600082601f83011261274457612743612617565b5b81356127548482602086016126ed565b91505092915050565b60008060408385031215612774576127736124e5565b5b600083013567ffffffffffffffff811115612792576127916124ea565b5b61279e8582860161272f565b925050602083013567ffffffffffffffff8111156127bf576127be6124ea565b5b6127cb8582860161272f565b9150509250929050565b6000602082840312156127eb576127ea6124e5565b5b60006127f984828501612538565b91505092915050565b61280b8161254d565b82525050565b61281a8161250f565b82525050565b600081519050919050565b600082825260208201905092915050565b60005b8381101561285a57808201518184015260208101905061283f565b60008484015250505050565b600061287182612820565b61287b818561282b565b935061288b81856020860161283c565b61289481612621565b840191505092915050565b6040820160008201516128b56000850182612802565b5060208201516128c86020850182612802565b50505050565b600060e0830160008301516128e66000860182612802565b5060208301516128f96020860182612811565b50604083015184820360408601526129118282612866565b9150506060830151848203606086015261292b8282612866565b9150506080830151612940608086018261289f565b5060a083015161295360c0860182612802565b508091505092915050565b6000602082019050818103600083015261297881846128ce565b905092915050565b60008115159050919050565b61299581612980565b82525050565b60006020820190506129b0600083018461298c565b92915050565b6000602082840312156129cc576129cb6124e5565b5b60006129da8482850161256e565b91505092915050565b6000806000606084860312156129fc576129fb6124e5565b5b6000612a0a8682870161256e565b9350506020612a1b8682870161256e565b9250506040612a2c8682870161256e565b9150509250925092565b600082825260208201905092915050565b7f4e6f7420616c6c6f7765642063616c6c65720000000000000000000000000000600082015250565b6000612a7d601283612a36565b9150612a8882612a47565b602082019050919050565b60006020820190508181036000830152612aac81612a70565b9050919050565b7f4e487b7100000000000000000000000000000000000000000000000000000000600052602260045260246000fd5b60006002820490506001821680612afa57607f821691505b602082108103612b0d57612b0c612ab3565b5b50919050565b7f4e487b7100000000000000000000000000000000000000000000000000000000600052601160045260246000fd5b6000612b4d8261254d565b9150612b588361254d565b9250828203905081811115612b7057612b6f612b13565b5b92915050565b6000606082019050612b8b60008301866125c3565b612b9860208301856125ed565b612ba560408301846125ed565b949350505050565b7f4e487b7100000000000000000000000000000000000000000000000000000000600052602160045260246000fd5b60098110612bed57612bec612bad565b5b50565b6000819050612bfe82612bdc565b919050565b6000612c0e82612bf0565b9050919050565b612c1e81612c03565b82525050565b6000604082019050612c396000830185612c15565b612c4660208301846125c3565b9392505050565b612c5681612980565b8114612c6157600080fd5b50565b600081519050612c7381612c4d565b92915050565b600060208284031215612c8f57612c8e6124e5565b5b6000612c9d84828501612c64565b91505092915050565b7f506f6f6c206f6e6c7920746f2061637469766973740000000000000000000000600082015250565b6000612cdc601583612a36565b9150612ce782612ca6565b602082019050919050565b60006020820190508181036000830152612d0b81612ccf565b9050919050565b7f43616e277420617070726f766520776974686472617700000000000000000000600082015250565b6000612d48601683612a36565b9150612d5382612d12565b602082019050919050565b60006020820190508181036000830152612d7781612d3b565b9050919050565b6000612d898261254d565b91507fffffffffffffffffffffffffffffffffffffffffffffffffffffffffffffffff8203612dbb57612dba612b13565b5b600182019050919050565b6000604082019050612ddb60008301856125c3565b612de860208301846125ed565b9392505050565b7f4d61782031303020636861726163746572730000000000000000000000000000600082015250565b6000612e25601283612a36565b9150612e3082612def565b602082019050919050565b60006020820190508181036000830152612e5481612e18565b9050919050565b6000602082019050612e706000830184612c15565b92915050565b600081519050612e8581612557565b92915050565b600060208284031215612ea157612ea06124e5565b5b6000612eaf84828501612e76565b91505092915050565b7f4d6178206c696d69742072656163686564000000000000000000000000000000600082015250565b6000612eee601183612a36565b9150612ef982612eb8565b602082019050919050565b60006020820190508181036000830152612f1d81612ee1565b9050919050565b6000612f2f8261254d565b9150612f3a8361254d565b9250828201905080821115612f5257612f51612b13565b5b92915050565b60008190508160005260206000209050919050565b60006020601f8301049050919050565b600082821b905092915050565b600060088302612fba7fffffffffffffffffffffffffffffffffffffffffffffffffffffffffffffffff82612f7d565b612fc48683612f7d565b95508019841693508086168417925050509392505050565b6000819050919050565b6000613001612ffc612ff78461254d565b612fdc565b61254d565b9050919050565b6000819050919050565b61301b83612fe6565b61302f61302782613008565b848454612f8a565b825550505050565b600090565b613044613037565b61304f818484613012565b505050565b5b818110156130735761306860008261303c565b600181019050613055565b5050565b601f8211156130b85761308981612f58565b61309284612f6d565b810160208510156130a1578190505b6130b56130ad85612f6d565b830182613054565b50505b505050565b600082821c905092915050565b60006130db600019846008026130bd565b1980831691505092915050565b60006130f483836130ca565b9150826002028217905092915050565b61310d82612820565b67ffffffffffffffff81111561312657613125612632565b5b6131308254612ae2565b61313b828285613077565b600060209050601f83116001811461316e576000841561315c578287015190505b61316685826130e8565b8655506131ce565b601f19841661317c86612f58565b60005b828110156131a45784890151825560018201915060208501945060208101905061317f565b868310156131c157848901516131bd601f8916826130ca565b8355505b6001600288020188555050505b505050505050565b60006040820190506131eb60008301856125c3565b6131f86020830184612c15565b9392505050565b7f4f776e61626c653a206e6577206f776e657220697320746865207a65726f206160008201527f6464726573730000000000000000000000000000000000000000000000000000602082015250565b600061325b602683612a36565b9150613266826131ff565b604082019050919050565b6000602082019050818103600083015261328a8161324e565b9050919050565b600080fd5b6000815190506132a581612521565b92915050565b600981106132b857600080fd5b50565b6000815190506132ca816132ab565b92915050565b6000608082840312156132e6576132e5613291565b5b6132f06080612692565b9050600061330084828501613296565b600083015250602061331484828501613296565b6020830152506040613328848285016132bb565b604083015250606061333c84828501612e76565b60608301525092915050565b60006080828403121561335e5761335d6124e5565b5b600061336c848285016132d0565b91505092915050565b7f4f776e61626c653a2063616c6c6572206973206e6f7420746865206f776e6572600082015250565b60006133ab602083612a36565b91506133b682613375565b602082019050919050565b600060208201905081810360008301526133da8161339e565b9050919050565b7f4e487b7100000000000000000000000000000000000000000000000000000000600052601260045260246000fd5b600061341b8261254d565b91506134268361254d565b925082613436576134356133e1565b5b828204905092915050565b6000819050919050565b600061346661346161345c84613441565b612fdc565b61254d565b9050919050565b6134768161344b565b82525050565b600060408201905061349160008301856125c3565b61349e602083018461346d565b939250505056fea2646970667358221220a05a88b5b6ffc4fd67399de18a12804482477c7bacacff08ba2f4a291700fb5564736f6c634300081b0033",
  "linkReferences": {},
  "deployedLinkReferences": {}
}