{
  "_format": "hh-sol-artifact-1",
  "contractName": "ActivistPool",
  "sourceName": "contracts/ActivistPool.sol",
  "abi": [
    {
      "inputs": [
        {
          "internalType": "address",
          "name": "regenerationCreditAddress",
          "type": "address"
        },
        {
          "internalType": "uint256",
          "name": "_halving",
          "type": "uint256"
        },
        {
          "internalType": "uint256",
          "name": "_blocksPerEra",
          "type": "uint256"
        }
      ],
      "stateMutability": "nonpayable",
      "type": "constructor"
    },
    {
      "inputs": [
        {
          "internalType": "address",
          "name": "owner",
          "type": "address"
        }
      ],
      "name": "OwnableInvalidOwner",
      "type": "error"
    },
    {
      "inputs": [
        {
          "internalType": "address",
          "name": "account",
          "type": "address"
        }
      ],
      "name": "OwnableUnauthorizedAccount",
      "type": "error"
    },
    {
      "inputs": [],
      "name": "ReentrancyGuardReentrantCall",
      "type": "error"
    },
    {
      "anonymous": false,
      "inputs": [
        {
          "indexed": true,
          "internalType": "address",
          "name": "previousOwner",
          "type": "address"
        },
        {
          "indexed": true,
          "internalType": "address",
          "name": "newOwner",
          "type": "address"
        }
      ],
      "name": "OwnershipTransferred",
      "type": "event"
    },
    {
      "anonymous": false,
      "inputs": [
        {
          "indexed": true,
          "internalType": "address",
          "name": "user",
          "type": "address"
        },
        {
          "indexed": false,
          "internalType": "uint256",
          "name": "era",
          "type": "uint256"
        },
        {
          "indexed": false,
          "internalType": "uint256",
          "name": "levelsAdded",
          "type": "uint256"
        },
        {
          "indexed": false,
          "internalType": "uint256",
          "name": "newTotalEraLevels",
          "type": "uint256"
        },
        {
          "indexed": false,
          "internalType": "uint256",
          "name": "newEraUserLevels",
          "type": "uint256"
        }
      ],
      "name": "PoolLevelAdded",
      "type": "event"
    },
    {
      "anonymous": false,
      "inputs": [
        {
          "indexed": true,
          "internalType": "address",
          "name": "user",
          "type": "address"
        },
        {
          "indexed": false,
          "internalType": "uint256",
          "name": "era",
          "type": "uint256"
        },
        {
          "indexed": false,
          "internalType": "uint256",
          "name": "levelsRemoved",
          "type": "uint256"
        },
        {
          "indexed": false,
          "internalType": "uint256",
          "name": "newTotalEraLevels",
          "type": "uint256"
        },
        {
          "indexed": false,
          "internalType": "uint256",
          "name": "newEraUserLevels",
          "type": "uint256"
        }
      ],
      "name": "PoolLevelRemoved",
      "type": "event"
    },
    {
      "anonymous": false,
      "inputs": [
        {
          "indexed": true,
          "internalType": "address",
          "name": "user",
          "type": "address"
        },
        {
          "indexed": false,
          "internalType": "uint256",
          "name": "era",
          "type": "uint256"
        },
        {
          "indexed": false,
          "internalType": "uint256",
          "name": "amount",
          "type": "uint256"
        }
      ],
      "name": "TokensWithdrawn",
      "type": "event"
    },
    {
      "inputs": [],
      "name": "BLOCKS_PRECISION",
      "outputs": [
        {
          "internalType": "uint256",
          "name": "",
          "type": "uint256"
        }
      ],
      "stateMutability": "view",
      "type": "function"
    },
    {
      "inputs": [
        {
          "internalType": "address",
          "name": "addr",
          "type": "address"
        },
        {
          "internalType": "uint256",
          "name": "levels",
          "type": "uint256"
        },
        {
          "internalType": "bytes32",
          "name": "eventId",
          "type": "bytes32"
        }
      ],
      "name": "addLevel",
      "outputs": [],
      "stateMutability": "nonpayable",
      "type": "function"
    },
    {
      "inputs": [
        {
          "internalType": "address",
          "name": "",
          "type": "address"
        }
      ],
      "name": "allowedCallers",
      "outputs": [
        {
          "internalType": "bool",
          "name": "",
          "type": "bool"
        }
      ],
      "stateMutability": "view",
      "type": "function"
    },
    {
      "inputs": [
        {
          "internalType": "uint256",
          "name": "currentUserEra",
          "type": "uint256"
        }
      ],
      "name": "canWithdraw",
      "outputs": [
        {
          "internalType": "bool",
          "name": "",
          "type": "bool"
        }
      ],
      "stateMutability": "view",
      "type": "function"
    },
    {
      "inputs": [
        {
          "internalType": "uint256",
          "name": "currentUserEra",
          "type": "uint256"
        }
      ],
      "name": "canWithdrawTimes",
      "outputs": [
        {
          "internalType": "uint256",
          "name": "",
          "type": "uint256"
        }
      ],
      "stateMutability": "view",
      "type": "function"
    },
    {
      "inputs": [],
      "name": "currentContractEra",
      "outputs": [
        {
          "internalType": "uint256",
          "name": "",
          "type": "uint256"
        }
      ],
      "stateMutability": "view",
      "type": "function"
    },
    {
      "inputs": [],
      "name": "currentEpoch",
      "outputs": [
        {
          "internalType": "uint256",
          "name": "",
          "type": "uint256"
        }
      ],
      "stateMutability": "view",
      "type": "function"
    },
    {
      "inputs": [
        {
          "internalType": "uint256",
          "name": "",
          "type": "uint256"
        },
        {
          "internalType": "address",
          "name": "",
          "type": "address"
        }
      ],
      "name": "eraLevels",
      "outputs": [
        {
          "internalType": "uint256",
          "name": "",
          "type": "uint256"
        }
      ],
      "stateMutability": "view",
      "type": "function"
    },
    {
      "inputs": [
        {
          "internalType": "uint256",
          "name": "",
          "type": "uint256"
        },
        {
          "internalType": "address",
          "name": "",
          "type": "address"
        }
      ],
      "name": "eraTokens",
      "outputs": [
        {
          "internalType": "uint256",
          "name": "",
          "type": "uint256"
        }
      ],
      "stateMutability": "view",
      "type": "function"
    },
    {
      "inputs": [
        {
          "internalType": "uint256",
          "name": "",
          "type": "uint256"
        }
      ],
      "name": "eras",
      "outputs": [
        {
          "internalType": "uint256",
          "name": "claimsCount",
          "type": "uint256"
        },
        {
          "internalType": "uint256",
          "name": "tokens",
          "type": "uint256"
        },
        {
          "internalType": "uint256",
          "name": "levels",
          "type": "uint256"
        }
      ],
      "stateMutability": "view",
      "type": "function"
    },
    {
      "inputs": [
        {
          "internalType": "uint256",
          "name": "era",
          "type": "uint256"
        }
      ],
      "name": "getEpochForEra",
      "outputs": [
        {
          "internalType": "uint256",
          "name": "",
          "type": "uint256"
        }
      ],
      "stateMutability": "view",
      "type": "function"
    },
    {
      "inputs": [
        {
          "internalType": "uint256",
          "name": "era",
          "type": "uint256"
        }
      ],
      "name": "getEra",
      "outputs": [
        {
          "components": [
            {
              "internalType": "uint256",
              "name": "claimsCount",
              "type": "uint256"
            },
            {
              "internalType": "uint256",
              "name": "tokens",
              "type": "uint256"
            },
            {
              "internalType": "uint256",
              "name": "levels",
              "type": "uint256"
            }
          ],
          "internalType": "struct Era",
          "name": "",
          "type": "tuple"
        }
      ],
      "stateMutability": "view",
      "type": "function"
    },
    {
      "inputs": [
        {
          "internalType": "bytes32",
          "name": "",
          "type": "bytes32"
        }
      ],
      "name": "hasProcessedLevel",
      "outputs": [
        {
          "internalType": "bool",
          "name": "",
          "type": "bool"
        }
      ],
      "stateMutability": "view",
      "type": "function"
    },
    {
      "inputs": [
        {
          "internalType": "uint256",
          "name": "",
          "type": "uint256"
        },
        {
          "internalType": "address",
          "name": "",
          "type": "address"
        }
      ],
      "name": "hasWithdrawn",
      "outputs": [
        {
          "internalType": "bool",
          "name": "",
          "type": "bool"
        }
      ],
      "stateMutability": "view",
      "type": "function"
    },
    {
      "inputs": [
        {
          "internalType": "address",
          "name": "delegate",
          "type": "address"
        },
        {
          "internalType": "uint256",
          "name": "era",
          "type": "uint256"
        }
      ],
      "name": "haveTokensToWithdraw",
      "outputs": [
        {
          "internalType": "bool",
          "name": "",
          "type": "bool"
        }
      ],
      "stateMutability": "view",
      "type": "function"
    },
    {
      "inputs": [
        {
          "internalType": "address",
          "name": "caller",
          "type": "address"
        }
      ],
      "name": "isAllowedCaller",
      "outputs": [
        {
          "internalType": "bool",
          "name": "",
          "type": "bool"
        }
      ],
      "stateMutability": "view",
      "type": "function"
    },
    {
      "inputs": [
        {
          "internalType": "address",
          "name": "allowed",
          "type": "address"
        }
      ],
      "name": "newAllowedCaller",
      "outputs": [],
      "stateMutability": "nonpayable",
      "type": "function"
    },
    {
      "inputs": [
        {
          "internalType": "uint256",
          "name": "targetEra",
          "type": "uint256"
        }
      ],
      "name": "nextEraIn",
      "outputs": [
        {
          "internalType": "int256",
          "name": "",
          "type": "int256"
        }
      ],
      "stateMutability": "view",
      "type": "function"
    },
    {
      "inputs": [],
      "name": "owner",
      "outputs": [
        {
          "internalType": "address",
          "name": "",
          "type": "address"
        }
      ],
      "stateMutability": "view",
      "type": "function"
    },
    {
      "inputs": [
        {
          "internalType": "address",
          "name": "addr",
          "type": "address"
        },
        {
          "internalType": "bool",
          "name": "denied",
          "type": "bool"
        }
      ],
      "name": "removePoolLevels",
      "outputs": [],
      "stateMutability": "nonpayable",
      "type": "function"
    },
    {
      "inputs": [],
      "name": "renounceOwnership",
      "outputs": [],
      "stateMutability": "nonpayable",
      "type": "function"
    },
    {
      "inputs": [
        {
          "internalType": "address",
          "name": "_activistRulesAddress",
          "type": "address"
        }
      ],
      "name": "setContractCall",
      "outputs": [],
      "stateMutability": "nonpayable",
      "type": "function"
    },
    {
      "inputs": [
        {
          "internalType": "uint256",
          "name": "currentEpoch",
          "type": "uint256"
        }
      ],
      "name": "tokensPerEpoch",
      "outputs": [
        {
          "internalType": "uint256",
          "name": "",
          "type": "uint256"
        }
      ],
      "stateMutability": "view",
      "type": "function"
    },
    {
      "inputs": [
        {
          "internalType": "uint256",
          "name": "currentEpoch",
          "type": "uint256"
        },
        {
          "internalType": "uint256",
          "name": "halvingFactor",
          "type": "uint256"
        }
      ],
      "name": "tokensPerEra",
      "outputs": [
        {
          "internalType": "uint256",
          "name": "",
          "type": "uint256"
        }
      ],
      "stateMutability": "view",
      "type": "function"
    },
    {
      "inputs": [
        {
          "internalType": "address",
          "name": "newOwner",
          "type": "address"
        }
      ],
      "name": "transferOwnership",
      "outputs": [],
      "stateMutability": "nonpayable",
      "type": "function"
    },
    {
      "inputs": [
        {
          "internalType": "address",
          "name": "delegate",
          "type": "address"
        },
        {
          "internalType": "uint256",
          "name": "era",
          "type": "uint256"
        }
      ],
      "name": "withdraw",
      "outputs": [],
      "stateMutability": "nonpayable",
      "type": "function"
    }
  ],
  "bytecode": "0x61010060405234801561001157600080fd5b50604051611659380380611659833981016040819052610030916100fb565b6a211654585005212800000060805260a08190524360c05260e0829052338061007357604051631e4fbdf760e01b81526000600482015260240160405180910390fd5b61007c816100a9565b5050600160065550600780546001600160a01b0319166001600160a01b039290921691909117905561013e565b600480546001600160a01b038381166001600160a01b0319831681179093556040519116919082907f8be0079c531659141344cd1fd0a4f28419497f9722a3daafe3b4186f6b6457e090600090a35050565b60008060006060848603121561011057600080fd5b83516001600160a01b038116811461012757600080fd5b602085015160409095015190969495509392505050565b60805160a05160c05160e0516114c661019360003960008181610474015261089c01526000818161096801526109a70152600081816107d60152818161093d01526109d3015260006106d801526114c66000f3fe608060405234801561001057600080fd5b506004361061018e5760003560e01c8063861b4ce1116100de578063b86c569911610097578063f2fde38b11610071578063f2fde38b146103fb578063f3fef3a31461040e578063fbe85f0614610421578063ff39043c1461043457600080fd5b8063b86c5699146103cd578063d5ee3eb5146103e0578063ed0df79e146103f357600080fd5b8063861b4ce11461031257806388b3acae1461031a5780638da5cb5b146103455780638f93716f1461036057806394cec7a714610373578063a6801258146103a157600080fd5b806352f3bd7f1161014b578063755d4f9711610125578063755d4f97146102c157806376671808146102d45780637721f1b5146102dc5780637b334154146102ef57600080fd5b806352f3bd7f1461024c578063715018a61461026f578063720a70bd1461027757600080fd5b80630f2dbe60146101935780631f14f415146101bb5780631f3451aa146101dc578063218f23ca146101f15780632506b932146102045780632eedcb1814610217575b600080fd5b6101a66101a1366004611128565b61045f565b60405190151581526020015b60405180910390f35b6101ce6101c9366004611152565b6104a6565b6040519081526020016101b2565b6101ef6101ea366004611174565b6104bc565b005b6101ef6101ff3660046111b5565b610607565b6101ce6102123660046111ec565b6106c5565b61022a6102253660046111ec565b6106fc565b60408051825181526020808401519082015291810151908201526060016101b2565b6101a661025a3660046111ec565b60096020526000908152604090205460ff1681565b6101ef610757565b6102a66102853660046111ec565b60006020819052908152604090208054600182015460029092015490919083565b604080519384526020840192909252908201526060016101b2565b6101ef6102cf366004611205565b61076b565b6101ce610795565b6101ce6102ea3660046111ec565b6107a7565b6101a66102fd366004611205565b60056020526000908152604090205460ff1681565b6101ce600581565b6101ce610328366004611220565b600160209081526000928352604080842090915290825290205481565b6004546040516001600160a01b0390911681526020016101b2565b6101ef61036e366004611205565b61081d565b6101a6610381366004611220565b600360209081526000928352604080842090915290825290205460ff1681565b6101a66103af366004611205565b6001600160a01b031660009081526005602052604090205460ff1690565b6101ce6103db3660046111ec565b610849565b6101ce6103ee3660046111ec565b6108db565b6101ce61099f565b6101ef610409366004611205565b610a09565b6101ef61041c366004611128565b610a47565b6101a661042f3660046111ec565b610d4c565b6101ce610442366004611220565b600260209081526000928352604080842090915290825290205481565b600061049d838361049861047286610849565b7f00000000000000000000000000000000000000000000000000000000000000006104a6565b610d5e565b90505b92915050565b6000816104b2846106c5565b61049d9190611262565b3360009081526005602052604090205460ff166104f45760405162461bcd60e51b81526004016104eb90611284565b60405180910390fd5b6008546001600160a01b031633811461051f5760405162461bcd60e51b81526004016104eb906112b0565b610527610d77565b600183111561056d5760405162461bcd60e51b815260206004820152601260248201527145786365656473206d6178206c6576656c7360701b60448201526064016104eb565b60008281526009602052604090205460ff16156105cc5760405162461bcd60e51b815260206004820152601760248201527f4576656e7420616c72656164792070726f63657373656400000000000000000060448201526064016104eb565b6000828152600960205260409020805460ff191660011790556105f784846105f261099f565b610da1565b6106016001600655565b50505050565b3360009081526005602052604090205460ff166106365760405162461bcd60e51b81526004016104eb90611284565b6008546001600160a01b03163381146106615760405162461bcd60e51b81526004016104eb906112b0565b610669610d77565b600061067361099f565b90506000836106835760016106a7565b60008281526001602090815260408083206001600160a01b03891684529091529020545b90506106b4858383610e77565b50506106c06001600655565b505050565b60006106d28260026113ce565b6104a0907f0000000000000000000000000000000000000000000000000000000000000000611262565b61072060405180606001604052806000815260200160008152602001600081525090565b5060009081526020818152604091829020825160608101845281548152600182015492810192909252600201549181019190915290565b61075f610f87565b6107696000610fb4565b565b610773610f87565b600880546001600160a01b0319166001600160a01b0392909216919091179055565b60006107a26103db61099f565b905090565b6000806107b3836108db565b905060008113156107c75750600092915050565b60006107d2826113da565b90507f00000000000000000000000000000000000000000000000000000000000000006108016005600a6113ce565b61080b90836113f6565b6108159190611262565b949350505050565b610825610f87565b6001600160a01b03166000908152600560205260409020805460ff19166001179055565b600080821161089a5760405162461bcd60e51b815260206004820152601a60248201527f457261206d7573742062652067726561746572207468616e203000000000000060448201526064016104eb565b7f00000000000000000000000000000000000000000000000000000000000000006108c660018461140d565b6108d09190611262565b6104a0906001611420565b60008082116109365760405162461bcd60e51b815260206004820152602160248201527f54617267657420657261206d7573742062652067726561746572207468616e206044820152600360fc1b60648201526084016104eb565b60006109627f0000000000000000000000000000000000000000000000000000000000000000846113f6565b61098c907f0000000000000000000000000000000000000000000000000000000000000000611420565b90506109984382611433565b9392505050565b6000806109cc7f00000000000000000000000000000000000000000000000000000000000000004361140d565b90506109f87f000000000000000000000000000000000000000000000000000000000000000082611262565b610a03906001611420565b91505090565b610a11610f87565b6001600160a01b038116610a3b57604051631e4fbdf760e01b8152600060048201526024016104eb565b610a4481610fb4565b50565b3360009081526005602052604090205460ff16610a765760405162461bcd60e51b81526004016104eb90611284565b6008546001600160a01b0316338114610aa15760405162461bcd60e51b81526004016104eb906112b0565b81610aab81610d4c565b610aef5760405162461bcd60e51b8152602060048201526015602482015274165bdd4818d85b89dd08185c1c1c9bdd99481e595d605a1b60448201526064016104eb565b60008381526003602090815260408083206001600160a01b03881684529091529020548390859060ff1615610b665760405162461bcd60e51b815260206004820152601e60248201527f416c72656164792077697468647261776e20666f72207468697320657261000060448201526064016104eb565b610b6e610d77565b610b7661099f565b851115610bb95760405162461bcd60e51b815260206004820152601160248201527045726120696e207468652066757475726560781b60448201526064016104eb565b60008581526003602090815260408083206001600160a01b038a1684529091528120805460ff19166001179055610bfc8688610bf761047283610849565b611006565b9050610c0986888361106c565b80600003610c175750610d3a565b600754604051631caccb1d60e31b8152600481018390526001600160a01b039091169063e56658e890602401600060405180830381600087803b158015610c5d57600080fd5b505af1158015610c71573d6000803e3d6000fd5b505060075460405163a9059cbb60e01b81526001600160a01b038b811660048301526024820186905260009450909116915063a9059cbb906044016020604051808303816000875af1158015610ccb573d6000803e3d6000fd5b505050506040513d601f19601f82011682018060405250810190610cef919061145a565b905080610d375760405162461bcd60e51b8152602060048201526016602482015275115490cc8c0e881d1c985b9cd9995c8819985a5b195960521b60448201526064016104eb565b50505b610d446001600655565b505050505050565b6000610d5661099f565b909110919050565b600080610d6c848685611006565b151595945050505050565b600260065403610d9a57604051633ee5aeb560e01b815260040160405180910390fd5b6002600655565b600081815260208190526040902060020154610dbe908390611420565b60008281526020818152604080832060020193909355600181528282206001600160a01b038716835290529081208054849290610dfc908490611420565b909155505060008181526020818152604080832060020154600183528184206001600160a01b038816808652908452938290205482518681529384018790529183015260608201527ffc6907b3f86e1e63de43e8e6af6345e03bbc9726a0f63eddb4021532417f78b1906080015b60405180910390a2505050565b60008281526001602090815260408083206001600160a01b038716845290915281205490819003610ea85750505050565b80821115610eb4578091505b60008381526020819052604081206002018054849290610ed590849061140d565b909155505060008381526001602090815260408083206001600160a01b038816845290915281208054849290610f0c90849061140d565b909155505060008381526020818152604080832060020154600183528184206001600160a01b038916808652908452938290205482518881529384018790529183015260608201527f8df21415d734537dcf01ffb77472049844f905c24abd54708d93555ea85239f99060800160405180910390a250505050565b6004546001600160a01b031633146107695760405163118cdaa760e01b81523360048201526024016104eb565b600480546001600160a01b038381166001600160a01b0319831681179093556040519116919082907f8be0079c531659141344cd1fd0a4f28419497f9722a3daafe3b4186f6b6457e090600090a35050565b60008381526020818152604080832060020154600183528184206001600160a01b038716855290925282205480158061103d575081155b1561104d57600092505050610998565b8161105885836113f6565b6110629190611262565b9695505050505050565b600083815260208190526040812080549161108683611477565b9091555050600083815260208190526040812060010180548392906110ac908490611420565b909155505060008381526002602090815260408083206001600160a01b0386168085529083529281902084905580518681529182018490527fffe903c0abe6b2dbb2f3474ef43d7a3c1fca49e5a774453423ca8e1952aabffa9101610e6a565b80356001600160a01b038116811461112357600080fd5b919050565b6000806040838503121561113b57600080fd5b6111448361110c565b946020939093013593505050565b6000806040838503121561116557600080fd5b50508035926020909101359150565b60008060006060848603121561118957600080fd5b6111928461110c565b95602085013595506040909401359392505050565b8015158114610a4457600080fd5b600080604083850312156111c857600080fd5b6111d18361110c565b915060208301356111e1816111a7565b809150509250929050565b6000602082840312156111fe57600080fd5b5035919050565b60006020828403121561121757600080fd5b61049d8261110c565b6000806040838503121561123357600080fd5b823591506112436020840161110c565b90509250929050565b634e487b7160e01b600052601160045260246000fd5b60008261127f57634e487b7160e01b600052601260045260246000fd5b500490565b6020808252601290820152712737ba1030b63637bbb2b21031b0b63632b960711b604082015260600190565b6020808252601e908201527f43616c6c6572206d7573742062652073797374656d20636f6e74726163740000604082015260600190565b6001815b6001841115611322578085048111156113065761130661124c565b600184161561131457908102905b60019390931c9280026112eb565b935093915050565b600082611339575060016104a0565b81611346575060006104a0565b816001811461135c576002811461136657611382565b60019150506104a0565b60ff8411156113775761137761124c565b50506001821b6104a0565b5060208310610133831016604e8410600b84101617156113a5575081810a6104a0565b6113b260001984846112e7565b80600019048211156113c6576113c661124c565b029392505050565b600061049d838361132a565b6000600160ff1b82016113ef576113ef61124c565b5060000390565b80820281158282048414176104a0576104a061124c565b818103818111156104a0576104a061124c565b808201808211156104a0576104a061124c565b81810360008312801583831316838312821617156114535761145361124c565b5092915050565b60006020828403121561146c57600080fd5b8151610998816111a7565b6000600182016114895761148961124c565b506001019056fea2646970667358221220a89ec1710306c66a11779a2f5329b4a8e6839421eea093e3c332a4083ee66ccd64736f6c634300081b0033",
  "linkReferences": {},
  "deployedLinkReferences": {}
}