{
  "_format": "hh-sol-artifact-1",
  "contractName": "ActivistPool",
  "sourceName": "contracts/ActivistPool.sol",
  "abi": [
    {
      "inputs": [
        {
          "internalType": "address",
          "name": "regenerationCreditAddress",
          "type": "address"
        },
        {
          "internalType": "uint256",
          "name": "_halving",
          "type": "uint256"
        },
        {
          "internalType": "uint256",
          "name": "_blocksPerEra",
          "type": "uint256"
        }
      ],
      "stateMutability": "nonpayable",
      "type": "constructor"
    },
    {
      "inputs": [
        {
          "internalType": "address",
          "name": "owner",
          "type": "address"
        }
      ],
      "name": "OwnableInvalidOwner",
      "type": "error"
    },
    {
      "inputs": [
        {
          "internalType": "address",
          "name": "account",
          "type": "address"
        }
      ],
      "name": "OwnableUnauthorizedAccount",
      "type": "error"
    },
    {
      "inputs": [],
      "name": "ReentrancyGuardReentrantCall",
      "type": "error"
    },
    {
      "anonymous": false,
      "inputs": [
        {
          "indexed": true,
          "internalType": "address",
          "name": "previousOwner",
          "type": "address"
        },
        {
          "indexed": true,
          "internalType": "address",
          "name": "newOwner",
          "type": "address"
        }
      ],
      "name": "OwnershipTransferred",
      "type": "event"
    },
    {
      "anonymous": false,
      "inputs": [
        {
          "indexed": true,
          "internalType": "address",
          "name": "user",
          "type": "address"
        },
        {
          "indexed": false,
          "internalType": "uint256",
          "name": "era",
          "type": "uint256"
        },
        {
          "indexed": false,
          "internalType": "uint256",
          "name": "levelsAdded",
          "type": "uint256"
        },
        {
          "indexed": false,
          "internalType": "uint256",
          "name": "newTotalEraLevels",
          "type": "uint256"
        },
        {
          "indexed": false,
          "internalType": "uint256",
          "name": "newEraUserLevels",
          "type": "uint256"
        }
      ],
      "name": "PoolLevelAdded",
      "type": "event"
    },
    {
      "anonymous": false,
      "inputs": [
        {
          "indexed": true,
          "internalType": "address",
          "name": "user",
          "type": "address"
        },
        {
          "indexed": false,
          "internalType": "uint256",
          "name": "era",
          "type": "uint256"
        },
        {
          "indexed": false,
          "internalType": "uint256",
          "name": "levelsRemoved",
          "type": "uint256"
        },
        {
          "indexed": false,
          "internalType": "uint256",
          "name": "newTotalEraLevels",
          "type": "uint256"
        },
        {
          "indexed": false,
          "internalType": "uint256",
          "name": "newEraUserLevels",
          "type": "uint256"
        }
      ],
      "name": "PoolLevelRemoved",
      "type": "event"
    },
    {
      "anonymous": false,
      "inputs": [
        {
          "indexed": true,
          "internalType": "address",
          "name": "user",
          "type": "address"
        },
        {
          "indexed": false,
          "internalType": "uint256",
          "name": "era",
          "type": "uint256"
        },
        {
          "indexed": false,
          "internalType": "uint256",
          "name": "amount",
          "type": "uint256"
        }
      ],
      "name": "TokensWithdrawn",
      "type": "event"
    },
    {
      "inputs": [],
      "name": "BLOCKS_PRECISION",
      "outputs": [
        {
          "internalType": "uint256",
          "name": "",
          "type": "uint256"
        }
      ],
      "stateMutability": "view",
      "type": "function"
    },
    {
      "inputs": [
        {
          "internalType": "address",
          "name": "addr",
          "type": "address"
        },
        {
          "internalType": "uint256",
          "name": "levels",
          "type": "uint256"
        }
      ],
      "name": "addLevel",
      "outputs": [],
      "stateMutability": "nonpayable",
      "type": "function"
    },
    {
      "inputs": [
        {
          "internalType": "address",
          "name": "",
          "type": "address"
        }
      ],
      "name": "allowedCallers",
      "outputs": [
        {
          "internalType": "bool",
          "name": "",
          "type": "bool"
        }
      ],
      "stateMutability": "view",
      "type": "function"
    },
    {
      "inputs": [
        {
          "internalType": "uint256",
          "name": "currentUserEra",
          "type": "uint256"
        }
      ],
      "name": "canWithdraw",
      "outputs": [
        {
          "internalType": "bool",
          "name": "",
          "type": "bool"
        }
      ],
      "stateMutability": "view",
      "type": "function"
    },
    {
      "inputs": [
        {
          "internalType": "uint256",
          "name": "currentUserEra",
          "type": "uint256"
        }
      ],
      "name": "canWithdrawTimes",
      "outputs": [
        {
          "internalType": "uint256",
          "name": "",
          "type": "uint256"
        }
      ],
      "stateMutability": "view",
      "type": "function"
    },
    {
      "inputs": [],
      "name": "currentContractEra",
      "outputs": [
        {
          "internalType": "uint256",
          "name": "",
          "type": "uint256"
        }
      ],
      "stateMutability": "view",
      "type": "function"
    },
    {
      "inputs": [],
      "name": "currentEpoch",
      "outputs": [
        {
          "internalType": "uint256",
          "name": "",
          "type": "uint256"
        }
      ],
      "stateMutability": "view",
      "type": "function"
    },
    {
      "inputs": [
        {
          "internalType": "uint256",
          "name": "",
          "type": "uint256"
        },
        {
          "internalType": "address",
          "name": "",
          "type": "address"
        }
      ],
      "name": "eraLevels",
      "outputs": [
        {
          "internalType": "uint256",
          "name": "",
          "type": "uint256"
        }
      ],
      "stateMutability": "view",
      "type": "function"
    },
    {
      "inputs": [
        {
          "internalType": "uint256",
          "name": "",
          "type": "uint256"
        },
        {
          "internalType": "address",
          "name": "",
          "type": "address"
        }
      ],
      "name": "eraTokens",
      "outputs": [
        {
          "internalType": "uint256",
          "name": "",
          "type": "uint256"
        }
      ],
      "stateMutability": "view",
      "type": "function"
    },
    {
      "inputs": [
        {
          "internalType": "uint256",
          "name": "",
          "type": "uint256"
        }
      ],
      "name": "eras",
      "outputs": [
        {
          "internalType": "uint256",
          "name": "claimsCount",
          "type": "uint256"
        },
        {
          "internalType": "uint256",
          "name": "tokens",
          "type": "uint256"
        },
        {
          "internalType": "uint256",
          "name": "levels",
          "type": "uint256"
        }
      ],
      "stateMutability": "view",
      "type": "function"
    },
    {
      "inputs": [
        {
          "internalType": "uint256",
          "name": "era",
          "type": "uint256"
        }
      ],
      "name": "getEpochForEra",
      "outputs": [
        {
          "internalType": "uint256",
          "name": "",
          "type": "uint256"
        }
      ],
      "stateMutability": "view",
      "type": "function"
    },
    {
      "inputs": [
        {
          "internalType": "uint256",
          "name": "era",
          "type": "uint256"
        }
      ],
      "name": "getEra",
      "outputs": [
        {
          "components": [
            {
              "internalType": "uint256",
              "name": "claimsCount",
              "type": "uint256"
            },
            {
              "internalType": "uint256",
              "name": "tokens",
              "type": "uint256"
            },
            {
              "internalType": "uint256",
              "name": "levels",
              "type": "uint256"
            }
          ],
          "internalType": "struct Era",
          "name": "",
          "type": "tuple"
        }
      ],
      "stateMutability": "view",
      "type": "function"
    },
    {
      "inputs": [
        {
          "internalType": "uint256",
          "name": "",
          "type": "uint256"
        },
        {
          "internalType": "address",
          "name": "",
          "type": "address"
        }
      ],
      "name": "hasWithdrawn",
      "outputs": [
        {
          "internalType": "bool",
          "name": "",
          "type": "bool"
        }
      ],
      "stateMutability": "view",
      "type": "function"
    },
    {
      "inputs": [
        {
          "internalType": "address",
          "name": "delegate",
          "type": "address"
        },
        {
          "internalType": "uint256",
          "name": "era",
          "type": "uint256"
        }
      ],
      "name": "haveTokensToWithdraw",
      "outputs": [
        {
          "internalType": "bool",
          "name": "",
          "type": "bool"
        }
      ],
      "stateMutability": "view",
      "type": "function"
    },
    {
      "inputs": [
        {
          "internalType": "address",
          "name": "caller",
          "type": "address"
        }
      ],
      "name": "isAllowedCaller",
      "outputs": [
        {
          "internalType": "bool",
          "name": "",
          "type": "bool"
        }
      ],
      "stateMutability": "view",
      "type": "function"
    },
    {
      "inputs": [
        {
          "internalType": "address",
          "name": "allowed",
          "type": "address"
        }
      ],
      "name": "newAllowedCaller",
      "outputs": [],
      "stateMutability": "nonpayable",
      "type": "function"
    },
    {
      "inputs": [
        {
          "internalType": "uint256",
          "name": "targetEra",
          "type": "uint256"
        }
      ],
      "name": "nextEraIn",
      "outputs": [
        {
          "internalType": "int256",
          "name": "",
          "type": "int256"
        }
      ],
      "stateMutability": "view",
      "type": "function"
    },
    {
      "inputs": [],
      "name": "owner",
      "outputs": [
        {
          "internalType": "address",
          "name": "",
          "type": "address"
        }
      ],
      "stateMutability": "view",
      "type": "function"
    },
    {
      "inputs": [
        {
          "internalType": "address",
          "name": "addr",
          "type": "address"
        },
        {
          "internalType": "uint256",
          "name": "levelsToRemove",
          "type": "uint256"
        }
      ],
      "name": "removePoolLevels",
      "outputs": [],
      "stateMutability": "nonpayable",
      "type": "function"
    },
    {
      "inputs": [],
      "name": "renounceOwnership",
      "outputs": [],
      "stateMutability": "nonpayable",
      "type": "function"
    },
    {
      "inputs": [
        {
          "internalType": "address",
          "name": "_activistRulesAddress",
          "type": "address"
        }
      ],
      "name": "setContractCall",
      "outputs": [],
      "stateMutability": "nonpayable",
      "type": "function"
    },
    {
      "inputs": [
        {
          "internalType": "uint256",
          "name": "currentEpoch",
          "type": "uint256"
        }
      ],
      "name": "tokensPerEpoch",
      "outputs": [
        {
          "internalType": "uint256",
          "name": "",
          "type": "uint256"
        }
      ],
      "stateMutability": "view",
      "type": "function"
    },
    {
      "inputs": [
        {
          "internalType": "uint256",
          "name": "currentEpoch",
          "type": "uint256"
        },
        {
          "internalType": "uint256",
          "name": "halvingFactor",
          "type": "uint256"
        }
      ],
      "name": "tokensPerEra",
      "outputs": [
        {
          "internalType": "uint256",
          "name": "",
          "type": "uint256"
        }
      ],
      "stateMutability": "view",
      "type": "function"
    },
    {
      "inputs": [
        {
          "internalType": "address",
          "name": "newOwner",
          "type": "address"
        }
      ],
      "name": "transferOwnership",
      "outputs": [],
      "stateMutability": "nonpayable",
      "type": "function"
    },
    {
      "inputs": [
        {
          "internalType": "address",
          "name": "delegate",
          "type": "address"
        },
        {
          "internalType": "uint256",
          "name": "era",
          "type": "uint256"
        }
      ],
      "name": "withdraw",
      "outputs": [],
      "stateMutability": "nonpayable",
      "type": "function"
    }
  ],
  "bytecode": "0x61010060405234801561001157600080fd5b506040516114b23803806114b2833981016040819052610030916100fb565b6a211654585005212800000060805260a08190524360c05260e0829052338061007357604051631e4fbdf760e01b81526000600482015260240160405180910390fd5b61007c816100a9565b5050600160065550600780546001600160a01b0319166001600160a01b039290921691909117905561013e565b600480546001600160a01b038381166001600160a01b0319831681179093556040519116919082907f8be0079c531659141344cd1fd0a4f28419497f9722a3daafe3b4186f6b6457e090600090a35050565b60008060006060848603121561011057600080fd5b83516001600160a01b038116811461012757600080fd5b602085015160409095015190969495509392505050565b60805160a05160c05160e05161131f610193600039600081816104360152610755015260008181610821015261086001526000818161068f015281816107f6015261088c0152600061051d015261131f6000f3fe608060405234801561001057600080fd5b50600436106101735760003560e01c8063861b4ce1116100de578063b86c569911610097578063f2fde38b11610071578063f2fde38b146103bd578063f3fef3a3146103d0578063fbe85f06146103e3578063ff39043c146103f657600080fd5b8063b86c56991461038f578063d5ee3eb5146103a2578063ed0df79e146103b557600080fd5b8063861b4ce1146102d457806388b3acae146102dc5780638da5cb5b146103075780638f93716f1461032257806394cec7a714610335578063a68012581461036357600080fd5b8063715018a611610130578063715018a614610231578063720a70bd14610239578063755d4f971461028357806376671808146102965780637721f1b51461029e5780637b334154146102b157600080fd5b80630f2dbe601461017857806318ad5c9a146101a05780631f14f415146101b55780632506b932146101d65780632eedcb18146101e957806352b8d3ed1461021e575b600080fd5b61018b610186366004610ff4565b610421565b60405190151581526020015b60405180910390f35b6101b36101ae366004610ff4565b610468565b005b6101c86101c336600461101e565b6104f4565b604051908152602001610197565b6101c86101e4366004611040565b61050a565b6101fc6101f7366004611040565b610541565b6040805182518152602080840151908201529181015190820152606001610197565b6101b361022c366004610ff4565b61059c565b6101b3610610565b610268610247366004611040565b60006020819052908152604090208054600182015460029092015490919083565b60408051938452602084019290925290820152606001610197565b6101b3610291366004611059565b610624565b6101c861064e565b6101c86102ac366004611040565b610660565b61018b6102bf366004611059565b60056020526000908152604090205460ff1681565b6101c8600581565b6101c86102ea366004611074565b600160209081526000928352604080842090915290825290205481565b6004546040516001600160a01b039091168152602001610197565b6101b3610330366004611059565b6106d6565b61018b610343366004611074565b600360209081526000928352604080842090915290825290205460ff1681565b61018b610371366004611059565b6001600160a01b031660009081526005602052604090205460ff1690565b6101c861039d366004611040565b610702565b6101c86103b0366004611040565b610794565b6101c8610858565b6101b36103cb366004611059565b6108c2565b6101b36103de366004610ff4565b610900565b61018b6103f1366004611040565b610c05565b6101c8610404366004611074565b600260209081526000928352604080842090915290825290205481565b600061045f838361045a61043486610702565b7f00000000000000000000000000000000000000000000000000000000000000006104f4565b610c17565b90505b92915050565b3360009081526005602052604090205460ff166104a05760405162461bcd60e51b8152600401610497906110a0565b60405180910390fd5b6008546001600160a01b03163381146104cb5760405162461bcd60e51b8152600401610497906110cc565b6104d3610c30565b6104e5836104df610858565b84610c5a565b6104ef6001600655565b505050565b6000816105008461050a565b61045f9190611119565b6000610517826002611222565b610462907f0000000000000000000000000000000000000000000000000000000000000000611119565b61056560405180606001604052806000815260200160008152602001600081525090565b5060009081526020818152604091829020825160608101845281548152600182015492810192909252600201549181019190915290565b3360009081526005602052604090205460ff166105cb5760405162461bcd60e51b8152600401610497906110a0565b6008546001600160a01b03163381146105f65760405162461bcd60e51b8152600401610497906110cc565b6105fe610c30565b6104e5838361060b610858565b610d7d565b610618610e53565b6106226000610e80565b565b61062c610e53565b600880546001600160a01b0319166001600160a01b0392909216919091179055565b600061065b61039d610858565b905090565b60008061066c83610794565b905060008113156106805750600092915050565b600061068b8261122e565b90507f00000000000000000000000000000000000000000000000000000000000000006106ba6005600a611222565b6106c4908361124a565b6106ce9190611119565b949350505050565b6106de610e53565b6001600160a01b03166000908152600560205260409020805460ff19166001179055565b60008082116107535760405162461bcd60e51b815260206004820152601a60248201527f457261206d7573742062652067726561746572207468616e20300000000000006044820152606401610497565b7f000000000000000000000000000000000000000000000000000000000000000061077f600184611261565b6107899190611119565b610462906001611274565b60008082116107ef5760405162461bcd60e51b815260206004820152602160248201527f54617267657420657261206d7573742062652067726561746572207468616e206044820152600360fc1b6064820152608401610497565b600061081b7f00000000000000000000000000000000000000000000000000000000000000008461124a565b610845907f0000000000000000000000000000000000000000000000000000000000000000611274565b90506108514382611287565b9392505050565b6000806108857f000000000000000000000000000000000000000000000000000000000000000043611261565b90506108b17f000000000000000000000000000000000000000000000000000000000000000082611119565b6108bc906001611274565b91505090565b6108ca610e53565b6001600160a01b0381166108f457604051631e4fbdf760e01b815260006004820152602401610497565b6108fd81610e80565b50565b3360009081526005602052604090205460ff1661092f5760405162461bcd60e51b8152600401610497906110a0565b6008546001600160a01b031633811461095a5760405162461bcd60e51b8152600401610497906110cc565b8161096481610c05565b6109a85760405162461bcd60e51b8152602060048201526015602482015274165bdd4818d85b89dd08185c1c1c9bdd99481e595d605a1b6044820152606401610497565b60008381526003602090815260408083206001600160a01b03881684529091529020548390859060ff1615610a1f5760405162461bcd60e51b815260206004820152601e60248201527f416c72656164792077697468647261776e20666f7220746869732065726100006044820152606401610497565b610a27610c30565b610a2f610858565b851115610a725760405162461bcd60e51b815260206004820152601160248201527045726120696e207468652066757475726560781b6044820152606401610497565b60008581526003602090815260408083206001600160a01b038a1684529091528120805460ff19166001179055610ab58688610ab061043483610702565b610ed2565b9050610ac2868883610f38565b80600003610ad05750610bf3565b600754604051631caccb1d60e31b8152600481018390526001600160a01b039091169063e56658e890602401600060405180830381600087803b158015610b1657600080fd5b505af1158015610b2a573d6000803e3d6000fd5b505060075460405163a9059cbb60e01b81526001600160a01b038b811660048301526024820186905260009450909116915063a9059cbb906044016020604051808303816000875af1158015610b84573d6000803e3d6000fd5b505050506040513d601f19601f82011682018060405250810190610ba891906112ae565b905080610bf05760405162461bcd60e51b8152602060048201526016602482015275115490cc8c0e881d1c985b9cd9995c8819985a5b195960521b6044820152606401610497565b50505b610bfd6001600655565b505050505050565b6000610c0f610858565b909110919050565b600080610c25848685610ed2565b151595945050505050565b600260065403610c5357604051633ee5aeb560e01b815260040160405180910390fd5b6002600655565b60008281526001602090815260408083206001600160a01b038716845290915281205490819003610c8b5750505050565b6000808311610c9a5781610c9c565b825b905081811115610ca95750805b60008481526020819052604081206002018054839290610cca908490611261565b909155505060008481526001602090815260408083206001600160a01b038916845290915281208054839290610d01908490611261565b909155505060008481526020818152604080832060020154600183528184206001600160a01b038a16808652908452938290205482518981529384018690529183015260608201527f8df21415d734537dcf01ffb77472049844f905c24abd54708d93555ea85239f99060800160405180910390a25050505050565b600081815260208190526040902060020154610d9a908390611274565b60008281526020818152604080832060020193909355600181528282206001600160a01b038716835290529081208054849290610dd8908490611274565b909155505060008181526020818152604080832060020154600183528184206001600160a01b038816808652908452938290205482518681529384018790529183015260608201527ffc6907b3f86e1e63de43e8e6af6345e03bbc9726a0f63eddb4021532417f78b1906080015b60405180910390a2505050565b6004546001600160a01b031633146106225760405163118cdaa760e01b8152336004820152602401610497565b600480546001600160a01b038381166001600160a01b0319831681179093556040519116919082907f8be0079c531659141344cd1fd0a4f28419497f9722a3daafe3b4186f6b6457e090600090a35050565b60008381526020818152604080832060020154600183528184206001600160a01b0387168552909252822054801580610f09575081155b15610f1957600092505050610851565b81610f24858361124a565b610f2e9190611119565b9695505050505050565b6000838152602081905260408120805491610f52836112d0565b909155505060008381526020819052604081206001018054839290610f78908490611274565b909155505060008381526002602090815260408083206001600160a01b0386168085529083529281902084905580518681529182018490527fffe903c0abe6b2dbb2f3474ef43d7a3c1fca49e5a774453423ca8e1952aabffa9101610e46565b80356001600160a01b0381168114610fef57600080fd5b919050565b6000806040838503121561100757600080fd5b61101083610fd8565b946020939093013593505050565b6000806040838503121561103157600080fd5b50508035926020909101359150565b60006020828403121561105257600080fd5b5035919050565b60006020828403121561106b57600080fd5b61045f82610fd8565b6000806040838503121561108757600080fd5b8235915061109760208401610fd8565b90509250929050565b6020808252601290820152712737ba1030b63637bbb2b21031b0b63632b960711b604082015260600190565b6020808252601e908201527f43616c6c6572206d7573742062652073797374656d20636f6e74726163740000604082015260600190565b634e487b7160e01b600052601160045260246000fd5b60008261113657634e487b7160e01b600052601260045260246000fd5b500490565b6001815b60018411156111765780850481111561115a5761115a611103565b600184161561116857908102905b60019390931c92800261113f565b935093915050565b60008261118d57506001610462565b8161119a57506000610462565b81600181146111b057600281146111ba576111d6565b6001915050610462565b60ff8411156111cb576111cb611103565b50506001821b610462565b5060208310610133831016604e8410600b84101617156111f9575081810a610462565b611206600019848461113b565b806000190482111561121a5761121a611103565b029392505050565b600061045f838361117e565b6000600160ff1b820161124357611243611103565b5060000390565b808202811582820484141761046257610462611103565b8181038181111561046257610462611103565b8082018082111561046257610462611103565b81810360008312801583831316838312821617156112a7576112a7611103565b5092915050565b6000602082840312156112c057600080fd5b8151801515811461085157600080fd5b6000600182016112e2576112e2611103565b506001019056fea2646970667358221220a234719794a49dc928f48000b37adaa056edcc06c03c04ed11758242abd45f0f64736f6c634300081b0033",
  "linkReferences": {},
  "deployedLinkReferences": {}
}