{
  "_format": "hh-sol-artifact-1",
  "contractName": "ActivistRules",
  "sourceName": "contracts/ActivistRules.sol",
  "abi": [
    {
      "inputs": [
        {
          "internalType": "address",
          "name": "communityRulesAddress",
          "type": "address"
        },
        {
          "internalType": "address",
          "name": "activistPoolAddress",
          "type": "address"
        }
      ],
      "stateMutability": "nonpayable",
      "type": "constructor"
    },
    {
      "anonymous": false,
      "inputs": [
        {
          "indexed": true,
          "internalType": "address",
          "name": "previousOwner",
          "type": "address"
        },
        {
          "indexed": true,
          "internalType": "address",
          "name": "newOwner",
          "type": "address"
        }
      ],
      "name": "OwnershipTransferred",
      "type": "event"
    },
    {
      "inputs": [
        {
          "internalType": "uint256",
          "name": "",
          "type": "uint256"
        }
      ],
      "name": "activistsAddress",
      "outputs": [
        {
          "internalType": "address",
          "name": "",
          "type": "address"
        }
      ],
      "stateMutability": "view",
      "type": "function"
    },
    {
      "inputs": [
        {
          "internalType": "string",
          "name": "name",
          "type": "string"
        },
        {
          "internalType": "string",
          "name": "proofPhoto",
          "type": "string"
        }
      ],
      "name": "addActivist",
      "outputs": [
        {
          "components": [
            {
              "internalType": "uint256",
              "name": "id",
              "type": "uint256"
            },
            {
              "internalType": "address",
              "name": "activistWallet",
              "type": "address"
            },
            {
              "internalType": "string",
              "name": "name",
              "type": "string"
            },
            {
              "internalType": "string",
              "name": "proofPhoto",
              "type": "string"
            },
            {
              "components": [
                {
                  "internalType": "uint256",
                  "name": "level",
                  "type": "uint256"
                },
                {
                  "internalType": "uint256",
                  "name": "currentEra",
                  "type": "uint256"
                }
              ],
              "internalType": "struct Pool",
              "name": "pool",
              "type": "tuple"
            },
            {
              "internalType": "uint256",
              "name": "createdAt",
              "type": "uint256"
            }
          ],
          "internalType": "struct Activist",
          "name": "",
          "type": "tuple"
        }
      ],
      "stateMutability": "nonpayable",
      "type": "function"
    },
    {
      "inputs": [
        {
          "internalType": "address",
          "name": "regeneratorAddress",
          "type": "address"
        },
        {
          "internalType": "uint256",
          "name": "regeneratorTotalInspections",
          "type": "uint256"
        },
        {
          "internalType": "address",
          "name": "inspectorAddress",
          "type": "address"
        },
        {
          "internalType": "uint256",
          "name": "inspectorTotalInspections",
          "type": "uint256"
        }
      ],
      "name": "addLevel",
      "outputs": [],
      "stateMutability": "nonpayable",
      "type": "function"
    },
    {
      "inputs": [
        {
          "internalType": "address",
          "name": "",
          "type": "address"
        }
      ],
      "name": "allowedCallers",
      "outputs": [
        {
          "internalType": "bool",
          "name": "",
          "type": "bool"
        }
      ],
      "stateMutability": "view",
      "type": "function"
    },
    {
      "inputs": [],
      "name": "approvedInvites",
      "outputs": [
        {
          "internalType": "uint256",
          "name": "",
          "type": "uint256"
        }
      ],
      "stateMutability": "view",
      "type": "function"
    },
    {
      "inputs": [
        {
          "internalType": "uint256",
          "name": "totalLevels",
          "type": "uint256"
        },
        {
          "internalType": "uint256",
          "name": "totalUsers",
          "type": "uint256"
        },
        {
          "internalType": "uint256",
          "name": "userLevels",
          "type": "uint256"
        }
      ],
      "name": "canInvite",
      "outputs": [
        {
          "internalType": "bool",
          "name": "",
          "type": "bool"
        }
      ],
      "stateMutability": "pure",
      "type": "function"
    },
    {
      "inputs": [
        {
          "internalType": "address",
          "name": "addr",
          "type": "address"
        }
      ],
      "name": "canSendInvite",
      "outputs": [
        {
          "internalType": "bool",
          "name": "",
          "type": "bool"
        }
      ],
      "stateMutability": "view",
      "type": "function"
    },
    {
      "inputs": [
        {
          "internalType": "address",
          "name": "addr",
          "type": "address"
        }
      ],
      "name": "getActivist",
      "outputs": [
        {
          "components": [
            {
              "internalType": "uint256",
              "name": "id",
              "type": "uint256"
            },
            {
              "internalType": "address",
              "name": "activistWallet",
              "type": "address"
            },
            {
              "internalType": "string",
              "name": "name",
              "type": "string"
            },
            {
              "internalType": "string",
              "name": "proofPhoto",
              "type": "string"
            },
            {
              "components": [
                {
                  "internalType": "uint256",
                  "name": "level",
                  "type": "uint256"
                },
                {
                  "internalType": "uint256",
                  "name": "currentEra",
                  "type": "uint256"
                }
              ],
              "internalType": "struct Pool",
              "name": "pool",
              "type": "tuple"
            },
            {
              "internalType": "uint256",
              "name": "createdAt",
              "type": "uint256"
            }
          ],
          "internalType": "struct Activist",
          "name": "",
          "type": "tuple"
        }
      ],
      "stateMutability": "view",
      "type": "function"
    },
    {
      "inputs": [
        {
          "internalType": "address",
          "name": "caller",
          "type": "address"
        }
      ],
      "name": "isAllowedCaller",
      "outputs": [
        {
          "internalType": "bool",
          "name": "",
          "type": "bool"
        }
      ],
      "stateMutability": "view",
      "type": "function"
    },
    {
      "inputs": [
        {
          "internalType": "address",
          "name": "allowed",
          "type": "address"
        }
      ],
      "name": "newAllowedCaller",
      "outputs": [],
      "stateMutability": "nonpayable",
      "type": "function"
    },
    {
      "inputs": [],
      "name": "owner",
      "outputs": [
        {
          "internalType": "address",
          "name": "",
          "type": "address"
        }
      ],
      "stateMutability": "view",
      "type": "function"
    },
    {
      "inputs": [
        {
          "internalType": "address",
          "name": "addr",
          "type": "address"
        },
        {
          "internalType": "uint256",
          "name": "removeSomeLevels",
          "type": "uint256"
        }
      ],
      "name": "removePoolLevels",
      "outputs": [],
      "stateMutability": "nonpayable",
      "type": "function"
    },
    {
      "inputs": [],
      "name": "renounceOwnership",
      "outputs": [],
      "stateMutability": "nonpayable",
      "type": "function"
    },
    {
      "inputs": [
        {
          "internalType": "address",
          "name": "newOwner",
          "type": "address"
        }
      ],
      "name": "transferOwnership",
      "outputs": [],
      "stateMutability": "nonpayable",
      "type": "function"
    },
    {
      "inputs": [],
      "name": "withdraw",
      "outputs": [],
      "stateMutability": "nonpayable",
      "type": "function"
    }
  ],
  "bytecode": "0x608060405234801561001057600080fd5b5060405161320938038061320983398181016040528101906100329190610206565b61004e6100436100d760201b60201c565b6100df60201b60201c565b81600560006101000a81548173ffffffffffffffffffffffffffffffffffffffff021916908373ffffffffffffffffffffffffffffffffffffffff16021790555080600660006101000a81548173ffffffffffffffffffffffffffffffffffffffff021916908373ffffffffffffffffffffffffffffffffffffffff1602179055505050610246565b600033905090565b60008060009054906101000a900473ffffffffffffffffffffffffffffffffffffffff169050816000806101000a81548173ffffffffffffffffffffffffffffffffffffffff021916908373ffffffffffffffffffffffffffffffffffffffff1602179055508173ffffffffffffffffffffffffffffffffffffffff168173ffffffffffffffffffffffffffffffffffffffff167f8be0079c531659141344cd1fd0a4f28419497f9722a3daafe3b4186f6b6457e060405160405180910390a35050565b600080fd5b600073ffffffffffffffffffffffffffffffffffffffff82169050919050565b60006101d3826101a8565b9050919050565b6101e3816101c8565b81146101ee57600080fd5b50565b600081519050610200816101da565b92915050565b6000806040838503121561021d5761021c6101a3565b5b600061022b858286016101f1565b925050602061023c858286016101f1565b9150509250929050565b612fb4806102556000396000f3fe608060405234801561001057600080fd5b50600436106100f55760003560e01c80637b334154116100975780639eaf666f116100665780639eaf666f1461025e578063a68012581461028e578063c77c1ce6146102be578063f2fde38b146102ee576100f5565b80637b334154146101c45780638da5cb5b146101f45780638f93716f146102125780639d3c50b21461022e576100f5565b8063430816aa116100d3578063430816aa1461013c5780635fbf8a691461015a57806362efeff71461018a578063715018a6146101ba576100f5565b806318ad5c9a146100fa5780632a279621146101165780633ccfd60b14610132575b600080fd5b610114600480360381019061010f91906120cd565b61030a565b005b610130600480360381019061012b919061210d565b6106aa565b005b61013a610750565b005b610144610c08565b6040516101519190612183565b60405180910390f35b610174600480360381019061016f91906122e4565b610c0e565b60405161018191906124b8565b60405180910390f35b6101a4600480360381019061019f91906124da565b610efc565b6040516101b191906124b8565b60405180910390f35b6101c261110b565b005b6101de60048036038101906101d991906124da565b61111f565b6040516101eb9190612522565b60405180910390f35b6101fc61113f565b604051610209919061254c565b60405180910390f35b61022c600480360381019061022791906124da565b611168565b005b61024860048036038101906102439190612567565b6111ca565b604051610255919061254c565b60405180910390f35b61027860048036038101906102739190612594565b6111fd565b6040516102859190612522565b60405180910390f35b6102a860048036038101906102a391906124da565b611249565b6040516102b59190612522565b60405180910390f35b6102d860048036038101906102d391906124da565b61129f565b6040516102e59190612522565b60405180910390f35b610308600480360381019061030391906124da565b611574565b005b600160003373ffffffffffffffffffffffffffffffffffffffff1673ffffffffffffffffffffffffffffffffffffffff16815260200190815260200160002060009054906101000a900460ff16610396576040517f08c379a000000000000000000000000000000000000000000000000000000000815260040161038d90612644565b60405180910390fd5b6000600260008473ffffffffffffffffffffffffffffffffffffffff1673ffffffffffffffffffffffffffffffffffffffff1681526020019081526020016000206040518060c0016040529081600082015481526020016001820160009054906101000a900473ffffffffffffffffffffffffffffffffffffffff1673ffffffffffffffffffffffffffffffffffffffff1673ffffffffffffffffffffffffffffffffffffffff16815260200160028201805461045290612693565b80601f016020809104026020016040519081016040528092919081815260200182805461047e90612693565b80156104cb5780601f106104a0576101008083540402835291602001916104cb565b820191906000526020600020905b8154815290600101906020018083116104ae57829003601f168201915b505050505081526020016003820180546104e490612693565b80601f016020809104026020016040519081016040528092919081815260200182805461051090612693565b801561055d5780601f106105325761010080835404028352916020019161055d565b820191906000526020600020905b81548152906001019060200180831161054057829003601f168201915b50505050508152602001600482016040518060400160405290816000820154815260200160018201548152505081526020016006820154815250509050600082116105b0578060800151600001516105b2565b815b600260008573ffffffffffffffffffffffffffffffffffffffff1673ffffffffffffffffffffffffffffffffffffffff168152602001908152602001600020600401600001600082825461060691906126f3565b92505081905550600660009054906101000a900473ffffffffffffffffffffffffffffffffffffffff1673ffffffffffffffffffffffffffffffffffffffff1663157ffc52846106546115f7565b856040518463ffffffff1660e01b815260040161067393929190612727565b600060405180830381600087803b15801561068d57600080fd5b505af11580156106a1573d6000803e3d6000fd5b50505050505050565b600160003373ffffffffffffffffffffffffffffffffffffffff1673ffffffffffffffffffffffffffffffffffffffff16815260200190815260200160002060009054906101000a900460ff16610736576040517f08c379a000000000000000000000000000000000000000000000000000000000815260040161072d90612644565b60405180910390fd5b610740848461168f565b61074a8282611892565b50505050565b600560009054906101000a900473ffffffffffffffffffffffffffffffffffffffff1673ffffffffffffffffffffffffffffffffffffffff16639497c6086006336040518363ffffffff1660e01b81526004016107ae9291906127d5565b602060405180830381865afa1580156107cb573d6000803e3d6000fd5b505050506040513d601f19601f820116820180604052508101906107ef919061282a565b61082e576040517f08c379a0000000000000000000000000000000000000000000000000000000008152600401610825906128a3565b60405180910390fd5b6000600260003373ffffffffffffffffffffffffffffffffffffffff1673ffffffffffffffffffffffffffffffffffffffff1681526020019081526020016000206040518060c0016040529081600082015481526020016001820160009054906101000a900473ffffffffffffffffffffffffffffffffffffffff1673ffffffffffffffffffffffffffffffffffffffff1673ffffffffffffffffffffffffffffffffffffffff1681526020016002820180546108ea90612693565b80601f016020809104026020016040519081016040528092919081815260200182805461091690612693565b80156109635780601f1061093857610100808354040283529160200191610963565b820191906000526020600020905b81548152906001019060200180831161094657829003601f168201915b5050505050815260200160038201805461097c90612693565b80601f01602080910402602001604051908101604052809291908181526020018280546109a890612693565b80156109f55780601f106109ca576101008083540402835291602001916109f5565b820191906000526020600020905b8154815290600101906020018083116109d857829003601f168201915b5050505050815260200160048201604051806040016040529081600082015481526020016001820154815250508152602001600682015481525050905060008160800151602001519050600660009054906101000a900473ffffffffffffffffffffffffffffffffffffffff1673ffffffffffffffffffffffffffffffffffffffff1663fbe85f06826040518263ffffffff1660e01b8152600401610a9a9190612183565b602060405180830381865afa158015610ab7573d6000803e3d6000fd5b505050506040513d601f19601f82011682018060405250810190610adb919061282a565b610b1a576040517f08c379a0000000000000000000000000000000000000000000000000000000008152600401610b119061290f565b60405180910390fd5b600260003373ffffffffffffffffffffffffffffffffffffffff1673ffffffffffffffffffffffffffffffffffffffff1681526020019081526020016000206004016001016000815480929190610b709061292f565b9190505550600660009054906101000a900473ffffffffffffffffffffffffffffffffffffffff1673ffffffffffffffffffffffffffffffffffffffff1663f3fef3a333836040518363ffffffff1660e01b8152600401610bd2929190612977565b600060405180830381600087803b158015610bec57600080fd5b505af1158015610c00573d6000803e3d6000fd5b505050505050565b60075481565b610c16611fb9565b60006001600560009054906101000a900473ffffffffffffffffffffffffffffffffffffffff1673ffffffffffffffffffffffffffffffffffffffff16631eb2c12060066040518263ffffffff1660e01b8152600401610c7691906129a0565b602060405180830381865afa158015610c93573d6000803e3d6000fd5b505050506040513d601f19601f82011682018060405250810190610cb791906129d0565b610cc191906129fd565b905060006040518060c001604052808381526020013373ffffffffffffffffffffffffffffffffffffffff168152602001868152602001858152602001604051806040016040528060008152602001610d186115f7565b815250815260200143815250905080600260003373ffffffffffffffffffffffffffffffffffffffff1673ffffffffffffffffffffffffffffffffffffffff1681526020019081526020016000206000820151816000015560208201518160010160006101000a81548173ffffffffffffffffffffffffffffffffffffffff021916908373ffffffffffffffffffffffffffffffffffffffff1602179055506040820151816002019081610dcc9190612bdd565b506060820151816003019081610de29190612bdd565b506080820151816004016000820151816000015560208201518160010155505060a08201518160060155905050336004600084815260200190815260200160002060006101000a81548173ffffffffffffffffffffffffffffffffffffffff021916908373ffffffffffffffffffffffffffffffffffffffff160217905550600560009054906101000a900473ffffffffffffffffffffffffffffffffffffffff1673ffffffffffffffffffffffffffffffffffffffff16639c3eead93360066040518363ffffffff1660e01b8152600401610ebf929190612caf565b600060405180830381600087803b158015610ed957600080fd5b505af1158015610eed573d6000803e3d6000fd5b50505050809250505092915050565b610f04611fb9565b600260008373ffffffffffffffffffffffffffffffffffffffff1673ffffffffffffffffffffffffffffffffffffffff1681526020019081526020016000206040518060c0016040529081600082015481526020016001820160009054906101000a900473ffffffffffffffffffffffffffffffffffffffff1673ffffffffffffffffffffffffffffffffffffffff1673ffffffffffffffffffffffffffffffffffffffff168152602001600282018054610fbe90612693565b80601f0160208091040260200160405190810160405280929190818152602001828054610fea90612693565b80156110375780601f1061100c57610100808354040283529160200191611037565b820191906000526020600020905b81548152906001019060200180831161101a57829003601f168201915b5050505050815260200160038201805461105090612693565b80601f016020809104026020016040519081016040528092919081815260200182805461107c90612693565b80156110c95780601f1061109e576101008083540402835291602001916110c9565b820191906000526020600020905b8154815290600101906020018083116110ac57829003601f168201915b50505050508152602001600482016040518060400160405290816000820154815260200160018201548152505081526020016006820154815250509050919050565b611113611a95565b61111d6000611b13565b565b60016020528060005260406000206000915054906101000a900460ff1681565b60008060009054906101000a900473ffffffffffffffffffffffffffffffffffffffff16905090565b611170611a95565b60018060008373ffffffffffffffffffffffffffffffffffffffff1673ffffffffffffffffffffffffffffffffffffffff16815260200190815260200160002060006101000a81548160ff02191690831515021790555050565b60046020528060005260406000206000915054906101000a900473ffffffffffffffffffffffffffffffffffffffff1681565b6000600583116112105760019050611242565b6000611238600161122a8688611bd790919063ffffffff16565b611bed90919063ffffffff16565b9050808310159150505b9392505050565b6000600160008373ffffffffffffffffffffffffffffffffffffffff1673ffffffffffffffffffffffffffffffffffffffff16815260200190815260200160002060009054906101000a900460ff169050919050565b600080600260008473ffffffffffffffffffffffffffffffffffffffff1673ffffffffffffffffffffffffffffffffffffffff1681526020019081526020016000206040518060c0016040529081600082015481526020016001820160009054906101000a900473ffffffffffffffffffffffffffffffffffffffff1673ffffffffffffffffffffffffffffffffffffffff1673ffffffffffffffffffffffffffffffffffffffff16815260200160028201805461135c90612693565b80601f016020809104026020016040519081016040528092919081815260200182805461138890612693565b80156113d55780601f106113aa576101008083540402835291602001916113d5565b820191906000526020600020905b8154815290600101906020018083116113b857829003601f168201915b505050505081526020016003820180546113ee90612693565b80601f016020809104026020016040519081016040528092919081815260200182805461141a90612693565b80156114675780601f1061143c57610100808354040283529160200191611467565b820191906000526020600020905b81548152906001019060200180831161144a57829003601f168201915b5050505050815260200160048201604051806040016040529081600082015481526020016001820154815250508152602001600682015481525050905060008160000151116114ba57600091505061156f565b61156b600754600560009054906101000a900473ffffffffffffffffffffffffffffffffffffffff1673ffffffffffffffffffffffffffffffffffffffff16631eb2c12060066040518263ffffffff1660e01b815260040161151c91906129a0565b602060405180830381865afa158015611539573d6000803e3d6000fd5b505050506040513d601f19601f8201168201806040525081019061155d91906129d0565b8360800151600001516111fd565b9150505b919050565b61157c611a95565b600073ffffffffffffffffffffffffffffffffffffffff168173ffffffffffffffffffffffffffffffffffffffff16036115eb576040517f08c379a00000000000000000000000000000000000000000000000000000000081526004016115e290612d4a565b60405180910390fd5b6115f481611b13565b50565b6000600660009054906101000a900473ffffffffffffffffffffffffffffffffffffffff1673ffffffffffffffffffffffffffffffffffffffff1663ed0df79e6040518163ffffffff1660e01b8152600401602060405180830381865afa158015611666573d6000803e3d6000fd5b505050506040513d601f19601f8201168201806040525081019061168a91906129d0565b905090565b6000600560009054906101000a900473ffffffffffffffffffffffffffffffffffffffff1673ffffffffffffffffffffffffffffffffffffffff16632b17b8be846040518263ffffffff1660e01b81526004016116ec919061254c565b608060405180830381865afa158015611709573d6000803e3d6000fd5b505050506040513d601f19601f8201168201806040525081019061172d9190612e21565b9050600081602001519050600360008273ffffffffffffffffffffffffffffffffffffffff1673ffffffffffffffffffffffffffffffffffffffff16815260200190815260200160002060008573ffffffffffffffffffffffffffffffffffffffff1673ffffffffffffffffffffffffffffffffffffffff16815260200190815260200160002060009054906101000a900460ff161580156117d0575060038310155b1561188c576001600360008373ffffffffffffffffffffffffffffffffffffffff1673ffffffffffffffffffffffffffffffffffffffff16815260200190815260200160002060008673ffffffffffffffffffffffffffffffffffffffff1673ffffffffffffffffffffffffffffffffffffffff16815260200190815260200160002060006101000a81548160ff0219169083151502179055506007600081548092919061187d9061292f565b919050555061188b81611c03565b5b50505050565b6000600560009054906101000a900473ffffffffffffffffffffffffffffffffffffffff1673ffffffffffffffffffffffffffffffffffffffff16632b17b8be846040518263ffffffff1660e01b81526004016118ef919061254c565b608060405180830381865afa15801561190c573d6000803e3d6000fd5b505050506040513d601f19601f820116820180604052508101906119309190612e21565b9050600081602001519050600360008273ffffffffffffffffffffffffffffffffffffffff1673ffffffffffffffffffffffffffffffffffffffff16815260200190815260200160002060008573ffffffffffffffffffffffffffffffffffffffff1673ffffffffffffffffffffffffffffffffffffffff16815260200190815260200160002060009054906101000a900460ff161580156119d3575060038310155b15611a8f576001600360008373ffffffffffffffffffffffffffffffffffffffff1673ffffffffffffffffffffffffffffffffffffffff16815260200190815260200160002060008673ffffffffffffffffffffffffffffffffffffffff1673ffffffffffffffffffffffffffffffffffffffff16815260200190815260200160002060006101000a81548160ff02191690831515021790555060076000815480929190611a809061292f565b9190505550611a8e81611c03565b5b50505050565b611a9d611fb1565b73ffffffffffffffffffffffffffffffffffffffff16611abb61113f565b73ffffffffffffffffffffffffffffffffffffffff1614611b11576040517f08c379a0000000000000000000000000000000000000000000000000000000008152600401611b0890612e9a565b60405180910390fd5b565b60008060009054906101000a900473ffffffffffffffffffffffffffffffffffffffff169050816000806101000a81548173ffffffffffffffffffffffffffffffffffffffff021916908373ffffffffffffffffffffffffffffffffffffffff1602179055508173ffffffffffffffffffffffffffffffffffffffff168173ffffffffffffffffffffffffffffffffffffffff167f8be0079c531659141344cd1fd0a4f28419497f9722a3daafe3b4186f6b6457e060405160405180910390a35050565b60008183611be59190612ee9565b905092915050565b60008183611bfb91906129fd565b905092915050565b6000600260008373ffffffffffffffffffffffffffffffffffffffff1673ffffffffffffffffffffffffffffffffffffffff1681526020019081526020016000206040518060c0016040529081600082015481526020016001820160009054906101000a900473ffffffffffffffffffffffffffffffffffffffff1673ffffffffffffffffffffffffffffffffffffffff1673ffffffffffffffffffffffffffffffffffffffff168152602001600282018054611cbf90612693565b80601f0160208091040260200160405190810160405280929190818152602001828054611ceb90612693565b8015611d385780601f10611d0d57610100808354040283529160200191611d38565b820191906000526020600020905b815481529060010190602001808311611d1b57829003601f168201915b50505050508152602001600382018054611d5190612693565b80601f0160208091040260200160405190810160405280929190818152602001828054611d7d90612693565b8015611dca5780601f10611d9f57610100808354040283529160200191611dca565b820191906000526020600020905b815481529060010190602001808311611dad57829003601f168201915b505050505081526020016004820160405180604001604052908160008201548152602001600182015481525050815260200160068201548152505090506000816000015103611e195750611fae565b80608001516000018051809190611e2f9061292f565b8152505080600260008473ffffffffffffffffffffffffffffffffffffffff1673ffffffffffffffffffffffffffffffffffffffff1681526020019081526020016000206000820151816000015560208201518160010160006101000a81548173ffffffffffffffffffffffffffffffffffffffff021916908373ffffffffffffffffffffffffffffffffffffffff1602179055506040820151816002019081611ed99190612bdd565b506060820151816003019081611eef9190612bdd565b506080820151816004016000820151816000015560208201518160010155505060a08201518160060155905050600660009054906101000a900473ffffffffffffffffffffffffffffffffffffffff1673ffffffffffffffffffffffffffffffffffffffff166352b8d3ed8360016040518363ffffffff1660e01b8152600401611f7a929190612f55565b600060405180830381600087803b158015611f9457600080fd5b505af1158015611fa8573d6000803e3d6000fd5b50505050505b50565b600033905090565b6040518060c0016040528060008152602001600073ffffffffffffffffffffffffffffffffffffffff1681526020016060815260200160608152602001611ffe61200b565b8152602001600081525090565b604051806040016040528060008152602001600081525090565b6000604051905090565b600080fd5b600080fd5b600073ffffffffffffffffffffffffffffffffffffffff82169050919050565b600061206482612039565b9050919050565b61207481612059565b811461207f57600080fd5b50565b6000813590506120918161206b565b92915050565b6000819050919050565b6120aa81612097565b81146120b557600080fd5b50565b6000813590506120c7816120a1565b92915050565b600080604083850312156120e4576120e361202f565b5b60006120f285828601612082565b9250506020612103858286016120b8565b9150509250929050565b600080600080608085870312156121275761212661202f565b5b600061213587828801612082565b9450506020612146878288016120b8565b935050604061215787828801612082565b9250506060612168878288016120b8565b91505092959194509250565b61217d81612097565b82525050565b60006020820190506121986000830184612174565b92915050565b600080fd5b600080fd5b6000601f19601f8301169050919050565b7f4e487b7100000000000000000000000000000000000000000000000000000000600052604160045260246000fd5b6121f1826121a8565b810181811067ffffffffffffffff821117156122105761220f6121b9565b5b80604052505050565b6000612223612025565b905061222f82826121e8565b919050565b600067ffffffffffffffff82111561224f5761224e6121b9565b5b612258826121a8565b9050602081019050919050565b82818337600083830152505050565b600061228761228284612234565b612219565b9050828152602081018484840111156122a3576122a26121a3565b5b6122ae848285612265565b509392505050565b600082601f8301126122cb576122ca61219e565b5b81356122db848260208601612274565b91505092915050565b600080604083850312156122fb576122fa61202f565b5b600083013567ffffffffffffffff81111561231957612318612034565b5b612325858286016122b6565b925050602083013567ffffffffffffffff81111561234657612345612034565b5b612352858286016122b6565b9150509250929050565b61236581612097565b82525050565b61237481612059565b82525050565b600081519050919050565b600082825260208201905092915050565b60005b838110156123b4578082015181840152602081019050612399565b60008484015250505050565b60006123cb8261237a565b6123d58185612385565b93506123e5818560208601612396565b6123ee816121a8565b840191505092915050565b60408201600082015161240f600085018261235c565b506020820151612422602085018261235c565b50505050565b600060e083016000830151612440600086018261235c565b506020830151612453602086018261236b565b506040830151848203604086015261246b82826123c0565b9150506060830151848203606086015261248582826123c0565b915050608083015161249a60808601826123f9565b5060a08301516124ad60c086018261235c565b508091505092915050565b600060208201905081810360008301526124d28184612428565b905092915050565b6000602082840312156124f0576124ef61202f565b5b60006124fe84828501612082565b91505092915050565b60008115159050919050565b61251c81612507565b82525050565b60006020820190506125376000830184612513565b92915050565b61254681612059565b82525050565b6000602082019050612561600083018461253d565b92915050565b60006020828403121561257d5761257c61202f565b5b600061258b848285016120b8565b91505092915050565b6000806000606084860312156125ad576125ac61202f565b5b60006125bb868287016120b8565b93505060206125cc868287016120b8565b92505060406125dd868287016120b8565b9150509250925092565b600082825260208201905092915050565b7f4e6f7420616c6c6f7765642063616c6c65720000000000000000000000000000600082015250565b600061262e6012836125e7565b9150612639826125f8565b602082019050919050565b6000602082019050818103600083015261265d81612621565b9050919050565b7f4e487b7100000000000000000000000000000000000000000000000000000000600052602260045260246000fd5b600060028204905060018216806126ab57607f821691505b6020821081036126be576126bd612664565b5b50919050565b7f4e487b7100000000000000000000000000000000000000000000000000000000600052601160045260246000fd5b60006126fe82612097565b915061270983612097565b9250828203905081811115612721576127206126c4565b5b92915050565b600060608201905061273c600083018661253d565b6127496020830185612174565b6127566040830184612174565b949350505050565b7f4e487b7100000000000000000000000000000000000000000000000000000000600052602160045260246000fd5b600a811061279e5761279d61275e565b5b50565b60008190506127af8261278d565b919050565b60006127bf826127a1565b9050919050565b6127cf816127b4565b82525050565b60006040820190506127ea60008301856127c6565b6127f7602083018461253d565b9392505050565b61280781612507565b811461281257600080fd5b50565b600081519050612824816127fe565b92915050565b6000602082840312156128405761283f61202f565b5b600061284e84828501612815565b91505092915050565b7f506f6f6c206f6e6c7920746f2061637469766973740000000000000000000000600082015250565b600061288d6015836125e7565b915061289882612857565b602082019050919050565b600060208201905081810360008301526128bc81612880565b9050919050565b7f43616e277420617070726f766520776974686472617700000000000000000000600082015250565b60006128f96016836125e7565b9150612904826128c3565b602082019050919050565b60006020820190508181036000830152612928816128ec565b9050919050565b600061293a82612097565b91507fffffffffffffffffffffffffffffffffffffffffffffffffffffffffffffffff820361296c5761296b6126c4565b5b600182019050919050565b600060408201905061298c600083018561253d565b6129996020830184612174565b9392505050565b60006020820190506129b560008301846127c6565b92915050565b6000815190506129ca816120a1565b92915050565b6000602082840312156129e6576129e561202f565b5b60006129f4848285016129bb565b91505092915050565b6000612a0882612097565b9150612a1383612097565b9250828201905080821115612a2b57612a2a6126c4565b5b92915050565b60008190508160005260206000209050919050565b60006020601f8301049050919050565b600082821b905092915050565b600060088302612a937fffffffffffffffffffffffffffffffffffffffffffffffffffffffffffffffff82612a56565b612a9d8683612a56565b95508019841693508086168417925050509392505050565b6000819050919050565b6000612ada612ad5612ad084612097565b612ab5565b612097565b9050919050565b6000819050919050565b612af483612abf565b612b08612b0082612ae1565b848454612a63565b825550505050565b600090565b612b1d612b10565b612b28818484612aeb565b505050565b5b81811015612b4c57612b41600082612b15565b600181019050612b2e565b5050565b601f821115612b9157612b6281612a31565b612b6b84612a46565b81016020851015612b7a578190505b612b8e612b8685612a46565b830182612b2d565b50505b505050565b600082821c905092915050565b6000612bb460001984600802612b96565b1980831691505092915050565b6000612bcd8383612ba3565b9150826002028217905092915050565b612be68261237a565b67ffffffffffffffff811115612bff57612bfe6121b9565b5b612c098254612693565b612c14828285612b50565b600060209050601f831160018114612c475760008415612c35578287015190505b612c3f8582612bc1565b865550612ca7565b601f198416612c5586612a31565b60005b82811015612c7d57848901518255600182019150602085019450602081019050612c58565b86831015612c9a5784890151612c96601f891682612ba3565b8355505b6001600288020188555050505b505050505050565b6000604082019050612cc4600083018561253d565b612cd160208301846127c6565b9392505050565b7f4f776e61626c653a206e6577206f776e657220697320746865207a65726f206160008201527f6464726573730000000000000000000000000000000000000000000000000000602082015250565b6000612d346026836125e7565b9150612d3f82612cd8565b604082019050919050565b60006020820190508181036000830152612d6381612d27565b9050919050565b600080fd5b600081519050612d7e8161206b565b92915050565b600a8110612d9157600080fd5b50565b600081519050612da381612d84565b92915050565b600060808284031215612dbf57612dbe612d6a565b5b612dc96080612219565b90506000612dd984828501612d6f565b6000830152506020612ded84828501612d6f565b6020830152506040612e0184828501612d94565b6040830152506060612e15848285016129bb565b60608301525092915050565b600060808284031215612e3757612e3661202f565b5b6000612e4584828501612da9565b91505092915050565b7f4f776e61626c653a2063616c6c6572206973206e6f7420746865206f776e6572600082015250565b6000612e846020836125e7565b9150612e8f82612e4e565b602082019050919050565b60006020820190508181036000830152612eb381612e77565b9050919050565b7f4e487b7100000000000000000000000000000000000000000000000000000000600052601260045260246000fd5b6000612ef482612097565b9150612eff83612097565b925082612f0f57612f0e612eba565b5b828204905092915050565b6000819050919050565b6000612f3f612f3a612f3584612f1a565b612ab5565b612097565b9050919050565b612f4f81612f24565b82525050565b6000604082019050612f6a600083018561253d565b612f776020830184612f46565b939250505056fea264697066735822122081ebef4627bd2e0805363946cb358f8c7f7b39d1e74e3ba187266167309b1adf64736f6c634300081b0033",
  "linkReferences": {},
  "deployedLinkReferences": {}
}