{
  "_format": "hh-sol-artifact-1",
  "contractName": "ActivistRules",
  "sourceName": "contracts/ActivistRules.sol",
  "abi": [
    {
      "inputs": [
        {
          "internalType": "address",
          "name": "communityRulesAddress",
          "type": "address"
        },
        {
          "internalType": "address",
          "name": "activistPoolAddress",
          "type": "address"
        }
      ],
      "stateMutability": "nonpayable",
      "type": "constructor"
    },
    {
      "anonymous": false,
      "inputs": [
        {
          "indexed": true,
          "internalType": "address",
          "name": "previousOwner",
          "type": "address"
        },
        {
          "indexed": true,
          "internalType": "address",
          "name": "newOwner",
          "type": "address"
        }
      ],
      "name": "OwnershipTransferred",
      "type": "event"
    },
    {
      "inputs": [
        {
          "internalType": "uint256",
          "name": "",
          "type": "uint256"
        }
      ],
      "name": "activistsAddress",
      "outputs": [
        {
          "internalType": "address",
          "name": "",
          "type": "address"
        }
      ],
      "stateMutability": "view",
      "type": "function"
    },
    {
      "inputs": [
        {
          "internalType": "string",
          "name": "name",
          "type": "string"
        },
        {
          "internalType": "string",
          "name": "proofPhoto",
          "type": "string"
        }
      ],
      "name": "addActivist",
      "outputs": [
        {
          "components": [
            {
              "internalType": "uint256",
              "name": "id",
              "type": "uint256"
            },
            {
              "internalType": "address",
              "name": "activistWallet",
              "type": "address"
            },
            {
              "internalType": "string",
              "name": "name",
              "type": "string"
            },
            {
              "internalType": "string",
              "name": "proofPhoto",
              "type": "string"
            },
            {
              "components": [
                {
                  "internalType": "uint256",
                  "name": "level",
                  "type": "uint256"
                },
                {
                  "internalType": "uint256",
                  "name": "currentEra",
                  "type": "uint256"
                }
              ],
              "internalType": "struct Pool",
              "name": "pool",
              "type": "tuple"
            },
            {
              "internalType": "uint256",
              "name": "createdAt",
              "type": "uint256"
            }
          ],
          "internalType": "struct Activist",
          "name": "",
          "type": "tuple"
        }
      ],
      "stateMutability": "nonpayable",
      "type": "function"
    },
    {
      "inputs": [
        {
          "internalType": "address",
          "name": "regeneratorAddress",
          "type": "address"
        },
        {
          "internalType": "uint256",
          "name": "regeneratorTotalInspections",
          "type": "uint256"
        },
        {
          "internalType": "address",
          "name": "inspectorAddress",
          "type": "address"
        },
        {
          "internalType": "uint256",
          "name": "inspectorTotalInspections",
          "type": "uint256"
        }
      ],
      "name": "addLevel",
      "outputs": [],
      "stateMutability": "nonpayable",
      "type": "function"
    },
    {
      "inputs": [
        {
          "internalType": "address",
          "name": "",
          "type": "address"
        }
      ],
      "name": "allowedCallers",
      "outputs": [
        {
          "internalType": "bool",
          "name": "",
          "type": "bool"
        }
      ],
      "stateMutability": "view",
      "type": "function"
    },
    {
      "inputs": [],
      "name": "approvedInvites",
      "outputs": [
        {
          "internalType": "uint256",
          "name": "",
          "type": "uint256"
        }
      ],
      "stateMutability": "view",
      "type": "function"
    },
    {
      "inputs": [
        {
          "internalType": "uint256",
          "name": "totalLevels",
          "type": "uint256"
        },
        {
          "internalType": "uint256",
          "name": "totalUsers",
          "type": "uint256"
        },
        {
          "internalType": "uint256",
          "name": "userLevels",
          "type": "uint256"
        }
      ],
      "name": "canInvite",
      "outputs": [
        {
          "internalType": "bool",
          "name": "",
          "type": "bool"
        }
      ],
      "stateMutability": "pure",
      "type": "function"
    },
    {
      "inputs": [
        {
          "internalType": "address",
          "name": "addr",
          "type": "address"
        }
      ],
      "name": "canSendInvite",
      "outputs": [
        {
          "internalType": "bool",
          "name": "",
          "type": "bool"
        }
      ],
      "stateMutability": "view",
      "type": "function"
    },
    {
      "inputs": [
        {
          "internalType": "address",
          "name": "addr",
          "type": "address"
        }
      ],
      "name": "getActivist",
      "outputs": [
        {
          "components": [
            {
              "internalType": "uint256",
              "name": "id",
              "type": "uint256"
            },
            {
              "internalType": "address",
              "name": "activistWallet",
              "type": "address"
            },
            {
              "internalType": "string",
              "name": "name",
              "type": "string"
            },
            {
              "internalType": "string",
              "name": "proofPhoto",
              "type": "string"
            },
            {
              "components": [
                {
                  "internalType": "uint256",
                  "name": "level",
                  "type": "uint256"
                },
                {
                  "internalType": "uint256",
                  "name": "currentEra",
                  "type": "uint256"
                }
              ],
              "internalType": "struct Pool",
              "name": "pool",
              "type": "tuple"
            },
            {
              "internalType": "uint256",
              "name": "createdAt",
              "type": "uint256"
            }
          ],
          "internalType": "struct Activist",
          "name": "",
          "type": "tuple"
        }
      ],
      "stateMutability": "view",
      "type": "function"
    },
    {
      "inputs": [
        {
          "internalType": "address",
          "name": "caller",
          "type": "address"
        }
      ],
      "name": "isAllowedCaller",
      "outputs": [
        {
          "internalType": "bool",
          "name": "",
          "type": "bool"
        }
      ],
      "stateMutability": "view",
      "type": "function"
    },
    {
      "inputs": [
        {
          "internalType": "address",
          "name": "allowed",
          "type": "address"
        }
      ],
      "name": "newAllowedCaller",
      "outputs": [],
      "stateMutability": "nonpayable",
      "type": "function"
    },
    {
      "inputs": [],
      "name": "owner",
      "outputs": [
        {
          "internalType": "address",
          "name": "",
          "type": "address"
        }
      ],
      "stateMutability": "view",
      "type": "function"
    },
    {
      "inputs": [
        {
          "internalType": "address",
          "name": "addr",
          "type": "address"
        },
        {
          "internalType": "uint256",
          "name": "removeSomeLevels",
          "type": "uint256"
        }
      ],
      "name": "removePoolLevels",
      "outputs": [],
      "stateMutability": "nonpayable",
      "type": "function"
    },
    {
      "inputs": [],
      "name": "renounceOwnership",
      "outputs": [],
      "stateMutability": "nonpayable",
      "type": "function"
    },
    {
      "inputs": [
        {
          "internalType": "address",
          "name": "newOwner",
          "type": "address"
        }
      ],
      "name": "transferOwnership",
      "outputs": [],
      "stateMutability": "nonpayable",
      "type": "function"
    },
    {
      "inputs": [],
      "name": "withdraw",
      "outputs": [],
      "stateMutability": "nonpayable",
      "type": "function"
    }
  ],
  "bytecode": "0x608060405234801561001057600080fd5b506040516131f63803806131f683398181016040528101906100329190610206565b61004e6100436100d760201b60201c565b6100df60201b60201c565b81600560006101000a81548173ffffffffffffffffffffffffffffffffffffffff021916908373ffffffffffffffffffffffffffffffffffffffff16021790555080600660006101000a81548173ffffffffffffffffffffffffffffffffffffffff021916908373ffffffffffffffffffffffffffffffffffffffff1602179055505050610246565b600033905090565b60008060009054906101000a900473ffffffffffffffffffffffffffffffffffffffff169050816000806101000a81548173ffffffffffffffffffffffffffffffffffffffff021916908373ffffffffffffffffffffffffffffffffffffffff1602179055508173ffffffffffffffffffffffffffffffffffffffff168173ffffffffffffffffffffffffffffffffffffffff167f8be0079c531659141344cd1fd0a4f28419497f9722a3daafe3b4186f6b6457e060405160405180910390a35050565b600080fd5b600073ffffffffffffffffffffffffffffffffffffffff82169050919050565b60006101d3826101a8565b9050919050565b6101e3816101c8565b81146101ee57600080fd5b50565b600081519050610200816101da565b92915050565b6000806040838503121561021d5761021c6101a3565b5b600061022b858286016101f1565b925050602061023c858286016101f1565b9150509250929050565b612fa1806102556000396000f3fe608060405234801561001057600080fd5b50600436106100f55760003560e01c80637b334154116100975780639eaf666f116100665780639eaf666f1461025e578063a68012581461028e578063c77c1ce6146102be578063f2fde38b146102ee576100f5565b80637b334154146101c45780638da5cb5b146101f45780638f93716f146102125780639d3c50b21461022e576100f5565b8063430816aa116100d3578063430816aa1461013c5780635fbf8a691461015a57806362efeff71461018a578063715018a6146101ba576100f5565b806318ad5c9a146100fa5780632a279621146101165780633ccfd60b14610132575b600080fd5b610114600480360381019061010f91906120ba565b61030a565b005b610130600480360381019061012b91906120fa565b6106aa565b005b61013a610750565b005b610144610c08565b6040516101519190612170565b60405180910390f35b610174600480360381019061016f91906122d1565b610c0e565b60405161018191906124a5565b60405180910390f35b6101a4600480360381019061019f91906124c7565b610efc565b6040516101b191906124a5565b60405180910390f35b6101c261110b565b005b6101de60048036038101906101d991906124c7565b61111f565b6040516101eb919061250f565b60405180910390f35b6101fc61113f565b6040516102099190612539565b60405180910390f35b61022c600480360381019061022791906124c7565b611168565b005b61024860048036038101906102439190612554565b6111ca565b6040516102559190612539565b60405180910390f35b61027860048036038101906102739190612581565b6111fd565b604051610285919061250f565b60405180910390f35b6102a860048036038101906102a391906124c7565b611236565b6040516102b5919061250f565b60405180910390f35b6102d860048036038101906102d391906124c7565b61128c565b6040516102e5919061250f565b60405180910390f35b610308600480360381019061030391906124c7565b611561565b005b600160003373ffffffffffffffffffffffffffffffffffffffff1673ffffffffffffffffffffffffffffffffffffffff16815260200190815260200160002060009054906101000a900460ff16610396576040517f08c379a000000000000000000000000000000000000000000000000000000000815260040161038d90612631565b60405180910390fd5b6000600260008473ffffffffffffffffffffffffffffffffffffffff1673ffffffffffffffffffffffffffffffffffffffff1681526020019081526020016000206040518060c0016040529081600082015481526020016001820160009054906101000a900473ffffffffffffffffffffffffffffffffffffffff1673ffffffffffffffffffffffffffffffffffffffff1673ffffffffffffffffffffffffffffffffffffffff16815260200160028201805461045290612680565b80601f016020809104026020016040519081016040528092919081815260200182805461047e90612680565b80156104cb5780601f106104a0576101008083540402835291602001916104cb565b820191906000526020600020905b8154815290600101906020018083116104ae57829003601f168201915b505050505081526020016003820180546104e490612680565b80601f016020809104026020016040519081016040528092919081815260200182805461051090612680565b801561055d5780601f106105325761010080835404028352916020019161055d565b820191906000526020600020905b81548152906001019060200180831161054057829003601f168201915b50505050508152602001600482016040518060400160405290816000820154815260200160018201548152505081526020016006820154815250509050600082116105b0578060800151600001516105b2565b815b600260008573ffffffffffffffffffffffffffffffffffffffff1673ffffffffffffffffffffffffffffffffffffffff168152602001908152602001600020600401600001600082825461060691906126e0565b92505081905550600660009054906101000a900473ffffffffffffffffffffffffffffffffffffffff1673ffffffffffffffffffffffffffffffffffffffff1663157ffc52846106546115e4565b856040518463ffffffff1660e01b815260040161067393929190612714565b600060405180830381600087803b15801561068d57600080fd5b505af11580156106a1573d6000803e3d6000fd5b50505050505050565b600160003373ffffffffffffffffffffffffffffffffffffffff1673ffffffffffffffffffffffffffffffffffffffff16815260200190815260200160002060009054906101000a900460ff16610736576040517f08c379a000000000000000000000000000000000000000000000000000000000815260040161072d90612631565b60405180910390fd5b610740848461167c565b61074a828261187f565b50505050565b600560009054906101000a900473ffffffffffffffffffffffffffffffffffffffff1673ffffffffffffffffffffffffffffffffffffffff16639497c6086006336040518363ffffffff1660e01b81526004016107ae9291906127c2565b602060405180830381865afa1580156107cb573d6000803e3d6000fd5b505050506040513d601f19601f820116820180604052508101906107ef9190612817565b61082e576040517f08c379a000000000000000000000000000000000000000000000000000000000815260040161082590612890565b60405180910390fd5b6000600260003373ffffffffffffffffffffffffffffffffffffffff1673ffffffffffffffffffffffffffffffffffffffff1681526020019081526020016000206040518060c0016040529081600082015481526020016001820160009054906101000a900473ffffffffffffffffffffffffffffffffffffffff1673ffffffffffffffffffffffffffffffffffffffff1673ffffffffffffffffffffffffffffffffffffffff1681526020016002820180546108ea90612680565b80601f016020809104026020016040519081016040528092919081815260200182805461091690612680565b80156109635780601f1061093857610100808354040283529160200191610963565b820191906000526020600020905b81548152906001019060200180831161094657829003601f168201915b5050505050815260200160038201805461097c90612680565b80601f01602080910402602001604051908101604052809291908181526020018280546109a890612680565b80156109f55780601f106109ca576101008083540402835291602001916109f5565b820191906000526020600020905b8154815290600101906020018083116109d857829003601f168201915b5050505050815260200160048201604051806040016040529081600082015481526020016001820154815250508152602001600682015481525050905060008160800151602001519050600660009054906101000a900473ffffffffffffffffffffffffffffffffffffffff1673ffffffffffffffffffffffffffffffffffffffff1663fbe85f06826040518263ffffffff1660e01b8152600401610a9a9190612170565b602060405180830381865afa158015610ab7573d6000803e3d6000fd5b505050506040513d601f19601f82011682018060405250810190610adb9190612817565b610b1a576040517f08c379a0000000000000000000000000000000000000000000000000000000008152600401610b11906128fc565b60405180910390fd5b600260003373ffffffffffffffffffffffffffffffffffffffff1673ffffffffffffffffffffffffffffffffffffffff1681526020019081526020016000206004016001016000815480929190610b709061291c565b9190505550600660009054906101000a900473ffffffffffffffffffffffffffffffffffffffff1673ffffffffffffffffffffffffffffffffffffffff1663f3fef3a333836040518363ffffffff1660e01b8152600401610bd2929190612964565b600060405180830381600087803b158015610bec57600080fd5b505af1158015610c00573d6000803e3d6000fd5b505050505050565b60075481565b610c16611fa6565b60006001600560009054906101000a900473ffffffffffffffffffffffffffffffffffffffff1673ffffffffffffffffffffffffffffffffffffffff16631eb2c12060066040518263ffffffff1660e01b8152600401610c76919061298d565b602060405180830381865afa158015610c93573d6000803e3d6000fd5b505050506040513d601f19601f82011682018060405250810190610cb791906129bd565b610cc191906129ea565b905060006040518060c001604052808381526020013373ffffffffffffffffffffffffffffffffffffffff168152602001868152602001858152602001604051806040016040528060008152602001610d186115e4565b815250815260200143815250905080600260003373ffffffffffffffffffffffffffffffffffffffff1673ffffffffffffffffffffffffffffffffffffffff1681526020019081526020016000206000820151816000015560208201518160010160006101000a81548173ffffffffffffffffffffffffffffffffffffffff021916908373ffffffffffffffffffffffffffffffffffffffff1602179055506040820151816002019081610dcc9190612bca565b506060820151816003019081610de29190612bca565b506080820151816004016000820151816000015560208201518160010155505060a08201518160060155905050336004600084815260200190815260200160002060006101000a81548173ffffffffffffffffffffffffffffffffffffffff021916908373ffffffffffffffffffffffffffffffffffffffff160217905550600560009054906101000a900473ffffffffffffffffffffffffffffffffffffffff1673ffffffffffffffffffffffffffffffffffffffff16639c3eead93360066040518363ffffffff1660e01b8152600401610ebf929190612c9c565b600060405180830381600087803b158015610ed957600080fd5b505af1158015610eed573d6000803e3d6000fd5b50505050809250505092915050565b610f04611fa6565b600260008373ffffffffffffffffffffffffffffffffffffffff1673ffffffffffffffffffffffffffffffffffffffff1681526020019081526020016000206040518060c0016040529081600082015481526020016001820160009054906101000a900473ffffffffffffffffffffffffffffffffffffffff1673ffffffffffffffffffffffffffffffffffffffff1673ffffffffffffffffffffffffffffffffffffffff168152602001600282018054610fbe90612680565b80601f0160208091040260200160405190810160405280929190818152602001828054610fea90612680565b80156110375780601f1061100c57610100808354040283529160200191611037565b820191906000526020600020905b81548152906001019060200180831161101a57829003601f168201915b5050505050815260200160038201805461105090612680565b80601f016020809104026020016040519081016040528092919081815260200182805461107c90612680565b80156110c95780601f1061109e576101008083540402835291602001916110c9565b820191906000526020600020905b8154815290600101906020018083116110ac57829003601f168201915b50505050508152602001600482016040518060400160405290816000820154815260200160018201548152505081526020016006820154815250509050919050565b611113611a82565b61111d6000611b00565b565b60016020528060005260406000206000915054906101000a900460ff1681565b60008060009054906101000a900473ffffffffffffffffffffffffffffffffffffffff16905090565b611170611a82565b60018060008373ffffffffffffffffffffffffffffffffffffffff1673ffffffffffffffffffffffffffffffffffffffff16815260200190815260200160002060006101000a81548160ff02191690831515021790555050565b60046020528060005260406000206000915054906101000a900473ffffffffffffffffffffffffffffffffffffffff1681565b60008061122660016112188688611bc490919063ffffffff16565b611bda90919063ffffffff16565b9050808310159150509392505050565b6000600160008373ffffffffffffffffffffffffffffffffffffffff1673ffffffffffffffffffffffffffffffffffffffff16815260200190815260200160002060009054906101000a900460ff169050919050565b600080600260008473ffffffffffffffffffffffffffffffffffffffff1673ffffffffffffffffffffffffffffffffffffffff1681526020019081526020016000206040518060c0016040529081600082015481526020016001820160009054906101000a900473ffffffffffffffffffffffffffffffffffffffff1673ffffffffffffffffffffffffffffffffffffffff1673ffffffffffffffffffffffffffffffffffffffff16815260200160028201805461134990612680565b80601f016020809104026020016040519081016040528092919081815260200182805461137590612680565b80156113c25780601f10611397576101008083540402835291602001916113c2565b820191906000526020600020905b8154815290600101906020018083116113a557829003601f168201915b505050505081526020016003820180546113db90612680565b80601f016020809104026020016040519081016040528092919081815260200182805461140790612680565b80156114545780601f1061142957610100808354040283529160200191611454565b820191906000526020600020905b81548152906001019060200180831161143757829003601f168201915b5050505050815260200160048201604051806040016040529081600082015481526020016001820154815250508152602001600682015481525050905060008160000151116114a757600091505061155c565b611558600754600560009054906101000a900473ffffffffffffffffffffffffffffffffffffffff1673ffffffffffffffffffffffffffffffffffffffff16631eb2c12060066040518263ffffffff1660e01b8152600401611509919061298d565b602060405180830381865afa158015611526573d6000803e3d6000fd5b505050506040513d601f19601f8201168201806040525081019061154a91906129bd565b8360800151600001516111fd565b9150505b919050565b611569611a82565b600073ffffffffffffffffffffffffffffffffffffffff168173ffffffffffffffffffffffffffffffffffffffff16036115d8576040517f08c379a00000000000000000000000000000000000000000000000000000000081526004016115cf90612d37565b60405180910390fd5b6115e181611b00565b50565b6000600660009054906101000a900473ffffffffffffffffffffffffffffffffffffffff1673ffffffffffffffffffffffffffffffffffffffff1663ed0df79e6040518163ffffffff1660e01b8152600401602060405180830381865afa158015611653573d6000803e3d6000fd5b505050506040513d601f19601f8201168201806040525081019061167791906129bd565b905090565b6000600560009054906101000a900473ffffffffffffffffffffffffffffffffffffffff1673ffffffffffffffffffffffffffffffffffffffff16632b17b8be846040518263ffffffff1660e01b81526004016116d99190612539565b608060405180830381865afa1580156116f6573d6000803e3d6000fd5b505050506040513d601f19601f8201168201806040525081019061171a9190612e0e565b9050600081602001519050600360008273ffffffffffffffffffffffffffffffffffffffff1673ffffffffffffffffffffffffffffffffffffffff16815260200190815260200160002060008573ffffffffffffffffffffffffffffffffffffffff1673ffffffffffffffffffffffffffffffffffffffff16815260200190815260200160002060009054906101000a900460ff161580156117bd575060038310155b15611879576001600360008373ffffffffffffffffffffffffffffffffffffffff1673ffffffffffffffffffffffffffffffffffffffff16815260200190815260200160002060008673ffffffffffffffffffffffffffffffffffffffff1673ffffffffffffffffffffffffffffffffffffffff16815260200190815260200160002060006101000a81548160ff0219169083151502179055506007600081548092919061186a9061291c565b919050555061187881611bf0565b5b50505050565b6000600560009054906101000a900473ffffffffffffffffffffffffffffffffffffffff1673ffffffffffffffffffffffffffffffffffffffff16632b17b8be846040518263ffffffff1660e01b81526004016118dc9190612539565b608060405180830381865afa1580156118f9573d6000803e3d6000fd5b505050506040513d601f19601f8201168201806040525081019061191d9190612e0e565b9050600081602001519050600360008273ffffffffffffffffffffffffffffffffffffffff1673ffffffffffffffffffffffffffffffffffffffff16815260200190815260200160002060008573ffffffffffffffffffffffffffffffffffffffff1673ffffffffffffffffffffffffffffffffffffffff16815260200190815260200160002060009054906101000a900460ff161580156119c0575060038310155b15611a7c576001600360008373ffffffffffffffffffffffffffffffffffffffff1673ffffffffffffffffffffffffffffffffffffffff16815260200190815260200160002060008673ffffffffffffffffffffffffffffffffffffffff1673ffffffffffffffffffffffffffffffffffffffff16815260200190815260200160002060006101000a81548160ff02191690831515021790555060076000815480929190611a6d9061291c565b9190505550611a7b81611bf0565b5b50505050565b611a8a611f9e565b73ffffffffffffffffffffffffffffffffffffffff16611aa861113f565b73ffffffffffffffffffffffffffffffffffffffff1614611afe576040517f08c379a0000000000000000000000000000000000000000000000000000000008152600401611af590612e87565b60405180910390fd5b565b60008060009054906101000a900473ffffffffffffffffffffffffffffffffffffffff169050816000806101000a81548173ffffffffffffffffffffffffffffffffffffffff021916908373ffffffffffffffffffffffffffffffffffffffff1602179055508173ffffffffffffffffffffffffffffffffffffffff168173ffffffffffffffffffffffffffffffffffffffff167f8be0079c531659141344cd1fd0a4f28419497f9722a3daafe3b4186f6b6457e060405160405180910390a35050565b60008183611bd29190612ed6565b905092915050565b60008183611be891906129ea565b905092915050565b6000600260008373ffffffffffffffffffffffffffffffffffffffff1673ffffffffffffffffffffffffffffffffffffffff1681526020019081526020016000206040518060c0016040529081600082015481526020016001820160009054906101000a900473ffffffffffffffffffffffffffffffffffffffff1673ffffffffffffffffffffffffffffffffffffffff1673ffffffffffffffffffffffffffffffffffffffff168152602001600282018054611cac90612680565b80601f0160208091040260200160405190810160405280929190818152602001828054611cd890612680565b8015611d255780601f10611cfa57610100808354040283529160200191611d25565b820191906000526020600020905b815481529060010190602001808311611d0857829003601f168201915b50505050508152602001600382018054611d3e90612680565b80601f0160208091040260200160405190810160405280929190818152602001828054611d6a90612680565b8015611db75780601f10611d8c57610100808354040283529160200191611db7565b820191906000526020600020905b815481529060010190602001808311611d9a57829003601f168201915b505050505081526020016004820160405180604001604052908160008201548152602001600182015481525050815260200160068201548152505090506000816000015103611e065750611f9b565b80608001516000018051809190611e1c9061291c565b8152505080600260008473ffffffffffffffffffffffffffffffffffffffff1673ffffffffffffffffffffffffffffffffffffffff1681526020019081526020016000206000820151816000015560208201518160010160006101000a81548173ffffffffffffffffffffffffffffffffffffffff021916908373ffffffffffffffffffffffffffffffffffffffff1602179055506040820151816002019081611ec69190612bca565b506060820151816003019081611edc9190612bca565b506080820151816004016000820151816000015560208201518160010155505060a08201518160060155905050600660009054906101000a900473ffffffffffffffffffffffffffffffffffffffff1673ffffffffffffffffffffffffffffffffffffffff166352b8d3ed8360016040518363ffffffff1660e01b8152600401611f67929190612f42565b600060405180830381600087803b158015611f8157600080fd5b505af1158015611f95573d6000803e3d6000fd5b50505050505b50565b600033905090565b6040518060c0016040528060008152602001600073ffffffffffffffffffffffffffffffffffffffff1681526020016060815260200160608152602001611feb611ff8565b8152602001600081525090565b604051806040016040528060008152602001600081525090565b6000604051905090565b600080fd5b600080fd5b600073ffffffffffffffffffffffffffffffffffffffff82169050919050565b600061205182612026565b9050919050565b61206181612046565b811461206c57600080fd5b50565b60008135905061207e81612058565b92915050565b6000819050919050565b61209781612084565b81146120a257600080fd5b50565b6000813590506120b48161208e565b92915050565b600080604083850312156120d1576120d061201c565b5b60006120df8582860161206f565b92505060206120f0858286016120a5565b9150509250929050565b600080600080608085870312156121145761211361201c565b5b60006121228782880161206f565b9450506020612133878288016120a5565b93505060406121448782880161206f565b9250506060612155878288016120a5565b91505092959194509250565b61216a81612084565b82525050565b60006020820190506121856000830184612161565b92915050565b600080fd5b600080fd5b6000601f19601f8301169050919050565b7f4e487b7100000000000000000000000000000000000000000000000000000000600052604160045260246000fd5b6121de82612195565b810181811067ffffffffffffffff821117156121fd576121fc6121a6565b5b80604052505050565b6000612210612012565b905061221c82826121d5565b919050565b600067ffffffffffffffff82111561223c5761223b6121a6565b5b61224582612195565b9050602081019050919050565b82818337600083830152505050565b600061227461226f84612221565b612206565b9050828152602081018484840111156122905761228f612190565b5b61229b848285612252565b509392505050565b600082601f8301126122b8576122b761218b565b5b81356122c8848260208601612261565b91505092915050565b600080604083850312156122e8576122e761201c565b5b600083013567ffffffffffffffff81111561230657612305612021565b5b612312858286016122a3565b925050602083013567ffffffffffffffff81111561233357612332612021565b5b61233f858286016122a3565b9150509250929050565b61235281612084565b82525050565b61236181612046565b82525050565b600081519050919050565b600082825260208201905092915050565b60005b838110156123a1578082015181840152602081019050612386565b60008484015250505050565b60006123b882612367565b6123c28185612372565b93506123d2818560208601612383565b6123db81612195565b840191505092915050565b6040820160008201516123fc6000850182612349565b50602082015161240f6020850182612349565b50505050565b600060e08301600083015161242d6000860182612349565b5060208301516124406020860182612358565b506040830151848203604086015261245882826123ad565b9150506060830151848203606086015261247282826123ad565b915050608083015161248760808601826123e6565b5060a083015161249a60c0860182612349565b508091505092915050565b600060208201905081810360008301526124bf8184612415565b905092915050565b6000602082840312156124dd576124dc61201c565b5b60006124eb8482850161206f565b91505092915050565b60008115159050919050565b612509816124f4565b82525050565b60006020820190506125246000830184612500565b92915050565b61253381612046565b82525050565b600060208201905061254e600083018461252a565b92915050565b60006020828403121561256a5761256961201c565b5b6000612578848285016120a5565b91505092915050565b60008060006060848603121561259a5761259961201c565b5b60006125a8868287016120a5565b93505060206125b9868287016120a5565b92505060406125ca868287016120a5565b9150509250925092565b600082825260208201905092915050565b7f4e6f7420616c6c6f7765642063616c6c65720000000000000000000000000000600082015250565b600061261b6012836125d4565b9150612626826125e5565b602082019050919050565b6000602082019050818103600083015261264a8161260e565b9050919050565b7f4e487b7100000000000000000000000000000000000000000000000000000000600052602260045260246000fd5b6000600282049050600182168061269857607f821691505b6020821081036126ab576126aa612651565b5b50919050565b7f4e487b7100000000000000000000000000000000000000000000000000000000600052601160045260246000fd5b60006126eb82612084565b91506126f683612084565b925082820390508181111561270e5761270d6126b1565b5b92915050565b6000606082019050612729600083018661252a565b6127366020830185612161565b6127436040830184612161565b949350505050565b7f4e487b7100000000000000000000000000000000000000000000000000000000600052602160045260246000fd5b600a811061278b5761278a61274b565b5b50565b600081905061279c8261277a565b919050565b60006127ac8261278e565b9050919050565b6127bc816127a1565b82525050565b60006040820190506127d760008301856127b3565b6127e4602083018461252a565b9392505050565b6127f4816124f4565b81146127ff57600080fd5b50565b600081519050612811816127eb565b92915050565b60006020828403121561282d5761282c61201c565b5b600061283b84828501612802565b91505092915050565b7f506f6f6c206f6e6c7920746f2061637469766973740000000000000000000000600082015250565b600061287a6015836125d4565b915061288582612844565b602082019050919050565b600060208201905081810360008301526128a98161286d565b9050919050565b7f43616e277420617070726f766520776974686472617700000000000000000000600082015250565b60006128e66016836125d4565b91506128f1826128b0565b602082019050919050565b60006020820190508181036000830152612915816128d9565b9050919050565b600061292782612084565b91507fffffffffffffffffffffffffffffffffffffffffffffffffffffffffffffffff8203612959576129586126b1565b5b600182019050919050565b6000604082019050612979600083018561252a565b6129866020830184612161565b9392505050565b60006020820190506129a260008301846127b3565b92915050565b6000815190506129b78161208e565b92915050565b6000602082840312156129d3576129d261201c565b5b60006129e1848285016129a8565b91505092915050565b60006129f582612084565b9150612a0083612084565b9250828201905080821115612a1857612a176126b1565b5b92915050565b60008190508160005260206000209050919050565b60006020601f8301049050919050565b600082821b905092915050565b600060088302612a807fffffffffffffffffffffffffffffffffffffffffffffffffffffffffffffffff82612a43565b612a8a8683612a43565b95508019841693508086168417925050509392505050565b6000819050919050565b6000612ac7612ac2612abd84612084565b612aa2565b612084565b9050919050565b6000819050919050565b612ae183612aac565b612af5612aed82612ace565b848454612a50565b825550505050565b600090565b612b0a612afd565b612b15818484612ad8565b505050565b5b81811015612b3957612b2e600082612b02565b600181019050612b1b565b5050565b601f821115612b7e57612b4f81612a1e565b612b5884612a33565b81016020851015612b67578190505b612b7b612b7385612a33565b830182612b1a565b50505b505050565b600082821c905092915050565b6000612ba160001984600802612b83565b1980831691505092915050565b6000612bba8383612b90565b9150826002028217905092915050565b612bd382612367565b67ffffffffffffffff811115612bec57612beb6121a6565b5b612bf68254612680565b612c01828285612b3d565b600060209050601f831160018114612c345760008415612c22578287015190505b612c2c8582612bae565b865550612c94565b601f198416612c4286612a1e565b60005b82811015612c6a57848901518255600182019150602085019450602081019050612c45565b86831015612c875784890151612c83601f891682612b90565b8355505b6001600288020188555050505b505050505050565b6000604082019050612cb1600083018561252a565b612cbe60208301846127b3565b9392505050565b7f4f776e61626c653a206e6577206f776e657220697320746865207a65726f206160008201527f6464726573730000000000000000000000000000000000000000000000000000602082015250565b6000612d216026836125d4565b9150612d2c82612cc5565b604082019050919050565b60006020820190508181036000830152612d5081612d14565b9050919050565b600080fd5b600081519050612d6b81612058565b92915050565b600a8110612d7e57600080fd5b50565b600081519050612d9081612d71565b92915050565b600060808284031215612dac57612dab612d57565b5b612db66080612206565b90506000612dc684828501612d5c565b6000830152506020612dda84828501612d5c565b6020830152506040612dee84828501612d81565b6040830152506060612e02848285016129a8565b60608301525092915050565b600060808284031215612e2457612e2361201c565b5b6000612e3284828501612d96565b91505092915050565b7f4f776e61626c653a2063616c6c6572206973206e6f7420746865206f776e6572600082015250565b6000612e716020836125d4565b9150612e7c82612e3b565b602082019050919050565b60006020820190508181036000830152612ea081612e64565b9050919050565b7f4e487b7100000000000000000000000000000000000000000000000000000000600052601260045260246000fd5b6000612ee182612084565b9150612eec83612084565b925082612efc57612efb612ea7565b5b828204905092915050565b6000819050919050565b6000612f2c612f27612f2284612f07565b612aa2565b612084565b9050919050565b612f3c81612f11565b82525050565b6000604082019050612f57600083018561252a565b612f646020830184612f33565b939250505056fea2646970667358221220a4eddbfa015cbc2fda8eab077c445ed0f7010597a5ab3920cc44daf9581c0e6064736f6c634300081b0033",
  "linkReferences": {},
  "deployedLinkReferences": {}
}