{
  "_format": "hh-sol-artifact-1",
  "contractName": "ActivistPool",
  "sourceName": "contracts/ActivistPool.sol",
  "abi": [
    {
      "inputs": [
        {
          "internalType": "address",
          "name": "regenerationCreditAddress",
          "type": "address"
        },
        {
          "internalType": "uint256",
          "name": "_halving",
          "type": "uint256"
        },
        {
          "internalType": "uint256",
          "name": "_blocksPerEra",
          "type": "uint256"
        }
      ],
      "stateMutability": "nonpayable",
      "type": "constructor"
    },
    {
      "inputs": [
        {
          "internalType": "address",
          "name": "owner",
          "type": "address"
        }
      ],
      "name": "OwnableInvalidOwner",
      "type": "error"
    },
    {
      "inputs": [
        {
          "internalType": "address",
          "name": "account",
          "type": "address"
        }
      ],
      "name": "OwnableUnauthorizedAccount",
      "type": "error"
    },
    {
      "inputs": [],
      "name": "ReentrancyGuardReentrantCall",
      "type": "error"
    },
    {
      "anonymous": false,
      "inputs": [
        {
          "indexed": true,
          "internalType": "address",
          "name": "previousOwner",
          "type": "address"
        },
        {
          "indexed": true,
          "internalType": "address",
          "name": "newOwner",
          "type": "address"
        }
      ],
      "name": "OwnershipTransferred",
      "type": "event"
    },
    {
      "anonymous": false,
      "inputs": [
        {
          "indexed": true,
          "internalType": "address",
          "name": "user",
          "type": "address"
        },
        {
          "indexed": false,
          "internalType": "uint256",
          "name": "era",
          "type": "uint256"
        },
        {
          "indexed": false,
          "internalType": "uint256",
          "name": "levelsAdded",
          "type": "uint256"
        },
        {
          "indexed": false,
          "internalType": "uint256",
          "name": "newTotalEraLevels",
          "type": "uint256"
        },
        {
          "indexed": false,
          "internalType": "uint256",
          "name": "newEraUserLevels",
          "type": "uint256"
        }
      ],
      "name": "PoolLevelAdded",
      "type": "event"
    },
    {
      "anonymous": false,
      "inputs": [
        {
          "indexed": true,
          "internalType": "address",
          "name": "user",
          "type": "address"
        },
        {
          "indexed": false,
          "internalType": "uint256",
          "name": "era",
          "type": "uint256"
        },
        {
          "indexed": false,
          "internalType": "uint256",
          "name": "levelsRemoved",
          "type": "uint256"
        },
        {
          "indexed": false,
          "internalType": "uint256",
          "name": "newTotalEraLevels",
          "type": "uint256"
        },
        {
          "indexed": false,
          "internalType": "uint256",
          "name": "newEraUserLevels",
          "type": "uint256"
        }
      ],
      "name": "PoolLevelRemoved",
      "type": "event"
    },
    {
      "anonymous": false,
      "inputs": [
        {
          "indexed": true,
          "internalType": "address",
          "name": "user",
          "type": "address"
        },
        {
          "indexed": false,
          "internalType": "uint256",
          "name": "era",
          "type": "uint256"
        },
        {
          "indexed": false,
          "internalType": "uint256",
          "name": "amount",
          "type": "uint256"
        }
      ],
      "name": "TokensWithdrawn",
      "type": "event"
    },
    {
      "inputs": [],
      "name": "BLOCKS_PRECISION",
      "outputs": [
        {
          "internalType": "uint256",
          "name": "",
          "type": "uint256"
        }
      ],
      "stateMutability": "view",
      "type": "function"
    },
    {
      "inputs": [],
      "name": "MAX_NEW_LEVELS",
      "outputs": [
        {
          "internalType": "uint256",
          "name": "",
          "type": "uint256"
        }
      ],
      "stateMutability": "view",
      "type": "function"
    },
    {
      "inputs": [
        {
          "internalType": "address",
          "name": "addr",
          "type": "address"
        },
        {
          "internalType": "uint256",
          "name": "levels",
          "type": "uint256"
        },
        {
          "internalType": "bytes32",
          "name": "eventId",
          "type": "bytes32"
        }
      ],
      "name": "addLevel",
      "outputs": [],
      "stateMutability": "nonpayable",
      "type": "function"
    },
    {
      "inputs": [
        {
          "internalType": "address",
          "name": "",
          "type": "address"
        }
      ],
      "name": "allowedCallers",
      "outputs": [
        {
          "internalType": "bool",
          "name": "",
          "type": "bool"
        }
      ],
      "stateMutability": "view",
      "type": "function"
    },
    {
      "inputs": [
        {
          "internalType": "uint256",
          "name": "currentUserEra",
          "type": "uint256"
        }
      ],
      "name": "canWithdraw",
      "outputs": [
        {
          "internalType": "bool",
          "name": "",
          "type": "bool"
        }
      ],
      "stateMutability": "view",
      "type": "function"
    },
    {
      "inputs": [
        {
          "internalType": "uint256",
          "name": "currentUserEra",
          "type": "uint256"
        }
      ],
      "name": "canWithdrawTimes",
      "outputs": [
        {
          "internalType": "uint256",
          "name": "",
          "type": "uint256"
        }
      ],
      "stateMutability": "view",
      "type": "function"
    },
    {
      "inputs": [],
      "name": "currentContractEra",
      "outputs": [
        {
          "internalType": "uint256",
          "name": "",
          "type": "uint256"
        }
      ],
      "stateMutability": "view",
      "type": "function"
    },
    {
      "inputs": [],
      "name": "currentEpoch",
      "outputs": [
        {
          "internalType": "uint256",
          "name": "",
          "type": "uint256"
        }
      ],
      "stateMutability": "view",
      "type": "function"
    },
    {
      "inputs": [
        {
          "internalType": "uint256",
          "name": "",
          "type": "uint256"
        },
        {
          "internalType": "address",
          "name": "",
          "type": "address"
        }
      ],
      "name": "eraLevels",
      "outputs": [
        {
          "internalType": "uint256",
          "name": "",
          "type": "uint256"
        }
      ],
      "stateMutability": "view",
      "type": "function"
    },
    {
      "inputs": [
        {
          "internalType": "uint256",
          "name": "",
          "type": "uint256"
        },
        {
          "internalType": "address",
          "name": "",
          "type": "address"
        }
      ],
      "name": "eraTokens",
      "outputs": [
        {
          "internalType": "uint256",
          "name": "",
          "type": "uint256"
        }
      ],
      "stateMutability": "view",
      "type": "function"
    },
    {
      "inputs": [
        {
          "internalType": "uint256",
          "name": "",
          "type": "uint256"
        }
      ],
      "name": "eras",
      "outputs": [
        {
          "internalType": "uint256",
          "name": "claimsCount",
          "type": "uint256"
        },
        {
          "internalType": "uint256",
          "name": "tokens",
          "type": "uint256"
        },
        {
          "internalType": "uint256",
          "name": "levels",
          "type": "uint256"
        }
      ],
      "stateMutability": "view",
      "type": "function"
    },
    {
      "inputs": [
        {
          "internalType": "uint256",
          "name": "era",
          "type": "uint256"
        }
      ],
      "name": "getEpochForEra",
      "outputs": [
        {
          "internalType": "uint256",
          "name": "",
          "type": "uint256"
        }
      ],
      "stateMutability": "view",
      "type": "function"
    },
    {
      "inputs": [
        {
          "internalType": "uint256",
          "name": "era",
          "type": "uint256"
        }
      ],
      "name": "getEra",
      "outputs": [
        {
          "components": [
            {
              "internalType": "uint256",
              "name": "claimsCount",
              "type": "uint256"
            },
            {
              "internalType": "uint256",
              "name": "tokens",
              "type": "uint256"
            },
            {
              "internalType": "uint256",
              "name": "levels",
              "type": "uint256"
            }
          ],
          "internalType": "struct Era",
          "name": "",
          "type": "tuple"
        }
      ],
      "stateMutability": "view",
      "type": "function"
    },
    {
      "inputs": [
        {
          "internalType": "bytes32",
          "name": "",
          "type": "bytes32"
        }
      ],
      "name": "hasProcessedLevel",
      "outputs": [
        {
          "internalType": "bool",
          "name": "",
          "type": "bool"
        }
      ],
      "stateMutability": "view",
      "type": "function"
    },
    {
      "inputs": [
        {
          "internalType": "uint256",
          "name": "",
          "type": "uint256"
        },
        {
          "internalType": "address",
          "name": "",
          "type": "address"
        }
      ],
      "name": "hasWithdrawn",
      "outputs": [
        {
          "internalType": "bool",
          "name": "",
          "type": "bool"
        }
      ],
      "stateMutability": "view",
      "type": "function"
    },
    {
      "inputs": [
        {
          "internalType": "address",
          "name": "delegate",
          "type": "address"
        },
        {
          "internalType": "uint256",
          "name": "era",
          "type": "uint256"
        }
      ],
      "name": "haveTokensToWithdraw",
      "outputs": [
        {
          "internalType": "bool",
          "name": "",
          "type": "bool"
        }
      ],
      "stateMutability": "view",
      "type": "function"
    },
    {
      "inputs": [
        {
          "internalType": "address",
          "name": "caller",
          "type": "address"
        }
      ],
      "name": "isAllowedCaller",
      "outputs": [
        {
          "internalType": "bool",
          "name": "",
          "type": "bool"
        }
      ],
      "stateMutability": "view",
      "type": "function"
    },
    {
      "inputs": [
        {
          "internalType": "address",
          "name": "allowed",
          "type": "address"
        }
      ],
      "name": "newAllowedCaller",
      "outputs": [],
      "stateMutability": "nonpayable",
      "type": "function"
    },
    {
      "inputs": [
        {
          "internalType": "uint256",
          "name": "targetEra",
          "type": "uint256"
        }
      ],
      "name": "nextEraIn",
      "outputs": [
        {
          "internalType": "int256",
          "name": "",
          "type": "int256"
        }
      ],
      "stateMutability": "view",
      "type": "function"
    },
    {
      "inputs": [],
      "name": "owner",
      "outputs": [
        {
          "internalType": "address",
          "name": "",
          "type": "address"
        }
      ],
      "stateMutability": "view",
      "type": "function"
    },
    {
      "inputs": [
        {
          "internalType": "address",
          "name": "addr",
          "type": "address"
        },
        {
          "internalType": "bool",
          "name": "denied",
          "type": "bool"
        }
      ],
      "name": "removePoolLevels",
      "outputs": [],
      "stateMutability": "nonpayable",
      "type": "function"
    },
    {
      "inputs": [],
      "name": "renounceOwnership",
      "outputs": [],
      "stateMutability": "nonpayable",
      "type": "function"
    },
    {
      "inputs": [
        {
          "internalType": "address",
          "name": "_activistRulesAddress",
          "type": "address"
        }
      ],
      "name": "setContractCall",
      "outputs": [],
      "stateMutability": "nonpayable",
      "type": "function"
    },
    {
      "inputs": [
        {
          "internalType": "uint256",
          "name": "currentEpoch",
          "type": "uint256"
        }
      ],
      "name": "tokensPerEpoch",
      "outputs": [
        {
          "internalType": "uint256",
          "name": "",
          "type": "uint256"
        }
      ],
      "stateMutability": "view",
      "type": "function"
    },
    {
      "inputs": [
        {
          "internalType": "uint256",
          "name": "currentEpoch",
          "type": "uint256"
        },
        {
          "internalType": "uint256",
          "name": "halvingFactor",
          "type": "uint256"
        }
      ],
      "name": "tokensPerEra",
      "outputs": [
        {
          "internalType": "uint256",
          "name": "",
          "type": "uint256"
        }
      ],
      "stateMutability": "view",
      "type": "function"
    },
    {
      "inputs": [
        {
          "internalType": "address",
          "name": "newOwner",
          "type": "address"
        }
      ],
      "name": "transferOwnership",
      "outputs": [],
      "stateMutability": "nonpayable",
      "type": "function"
    },
    {
      "inputs": [
        {
          "internalType": "address",
          "name": "delegate",
          "type": "address"
        },
        {
          "internalType": "uint256",
          "name": "era",
          "type": "uint256"
        }
      ],
      "name": "withdraw",
      "outputs": [],
      "stateMutability": "nonpayable",
      "type": "function"
    }
  ],
  "bytecode": "0x61010060405234801561001157600080fd5b5060405161167c38038061167c833981016040819052610030916100fb565b6a211654585005212800000060805260a08190524360c05260e0829052338061007357604051631e4fbdf760e01b81526000600482015260240160405180910390fd5b61007c816100a9565b5050600160065550600780546001600160a01b0319166001600160a01b039290921691909117905561013e565b600480546001600160a01b038381166001600160a01b0319831681179093556040519116919082907f8be0079c531659141344cd1fd0a4f28419497f9722a3daafe3b4186f6b6457e090600090a35050565b60008060006060848603121561011057600080fd5b83516001600160a01b038116811461012757600080fd5b602085015160409095015190969495509392505050565b60805160a05160c05160e0516114e96101936000396000818161049701526108bf01526000818161098b01526109ca0152600081816107f90152818161096001526109f6015260006106fb01526114e96000f3fe608060405234801561001057600080fd5b50600436106101a95760003560e01c80637b334154116100f9578063b86c569911610097578063f2fde38b11610071578063f2fde38b1461041e578063f3fef3a314610431578063fbe85f0614610444578063ff39043c1461045757600080fd5b8063b86c5699146103f0578063d5ee3eb514610403578063ed0df79e1461041657600080fd5b80638da5cb5b116100d35780638da5cb5b146103685780638f93716f1461038357806394cec7a714610396578063a6801258146103c457600080fd5b80637b33415414610312578063861b4ce11461033557806388b3acae1461033d57600080fd5b80634e0be8b511610166578063720a70bd11610140578063720a70bd1461029a578063755d4f97146102e457806376671808146102f75780637721f1b5146102ff57600080fd5b80634e0be8b51461026757806352f3bd7f1461026f578063715018a61461029257600080fd5b80630f2dbe60146101ae5780631f14f415146101d65780631f3451aa146101f7578063218f23ca1461020c5780632506b9321461021f5780632eedcb1814610232575b600080fd5b6101c16101bc36600461114b565b610482565b60405190151581526020015b60405180910390f35b6101e96101e4366004611175565b6104c9565b6040519081526020016101cd565b61020a610205366004611197565b6104df565b005b61020a61021a3660046111d8565b61062a565b6101e961022d36600461120f565b6106e8565b61024561024036600461120f565b61071f565b60408051825181526020808401519082015291810151908201526060016101cd565b6101e9600181565b6101c161027d36600461120f565b60096020526000908152604090205460ff1681565b61020a61077a565b6102c96102a836600461120f565b60006020819052908152604090208054600182015460029092015490919083565b604080519384526020840192909252908201526060016101cd565b61020a6102f2366004611228565b61078e565b6101e96107b8565b6101e961030d36600461120f565b6107ca565b6101c1610320366004611228565b60056020526000908152604090205460ff1681565b6101e9600581565b6101e961034b366004611243565b600160209081526000928352604080842090915290825290205481565b6004546040516001600160a01b0390911681526020016101cd565b61020a610391366004611228565b610840565b6101c16103a4366004611243565b600360209081526000928352604080842090915290825290205460ff1681565b6101c16103d2366004611228565b6001600160a01b031660009081526005602052604090205460ff1690565b6101e96103fe36600461120f565b61086c565b6101e961041136600461120f565b6108fe565b6101e96109c2565b61020a61042c366004611228565b610a2c565b61020a61043f36600461114b565b610a6a565b6101c161045236600461120f565b610d6f565b6101e9610465366004611243565b600260209081526000928352604080842090915290825290205481565b60006104c083836104bb6104958661086c565b7f00000000000000000000000000000000000000000000000000000000000000006104c9565b610d81565b90505b92915050565b6000816104d5846106e8565b6104c09190611285565b3360009081526005602052604090205460ff166105175760405162461bcd60e51b815260040161050e906112a7565b60405180910390fd5b6008546001600160a01b03163381146105425760405162461bcd60e51b815260040161050e906112d3565b61054a610d9a565b60018311156105905760405162461bcd60e51b815260206004820152601260248201527145786365656473206d6178206c6576656c7360701b604482015260640161050e565b60008281526009602052604090205460ff16156105ef5760405162461bcd60e51b815260206004820152601760248201527f4576656e7420616c72656164792070726f636573736564000000000000000000604482015260640161050e565b6000828152600960205260409020805460ff1916600117905561061a84846106156109c2565b610dc4565b6106246001600655565b50505050565b3360009081526005602052604090205460ff166106595760405162461bcd60e51b815260040161050e906112a7565b6008546001600160a01b03163381146106845760405162461bcd60e51b815260040161050e906112d3565b61068c610d9a565b60006106966109c2565b90506000836106a65760016106ca565b60008281526001602090815260408083206001600160a01b03891684529091529020545b90506106d7858383610e9a565b50506106e36001600655565b505050565b60006106f58260026113f1565b6104c3907f0000000000000000000000000000000000000000000000000000000000000000611285565b61074360405180606001604052806000815260200160008152602001600081525090565b5060009081526020818152604091829020825160608101845281548152600182015492810192909252600201549181019190915290565b610782610faa565b61078c6000610fd7565b565b610796610faa565b600880546001600160a01b0319166001600160a01b0392909216919091179055565b60006107c56103fe6109c2565b905090565b6000806107d6836108fe565b905060008113156107ea5750600092915050565b60006107f5826113fd565b90507f00000000000000000000000000000000000000000000000000000000000000006108246005600a6113f1565b61082e9083611419565b6108389190611285565b949350505050565b610848610faa565b6001600160a01b03166000908152600560205260409020805460ff19166001179055565b60008082116108bd5760405162461bcd60e51b815260206004820152601a60248201527f457261206d7573742062652067726561746572207468616e2030000000000000604482015260640161050e565b7f00000000000000000000000000000000000000000000000000000000000000006108e9600184611430565b6108f39190611285565b6104c3906001611443565b60008082116109595760405162461bcd60e51b815260206004820152602160248201527f54617267657420657261206d7573742062652067726561746572207468616e206044820152600360fc1b606482015260840161050e565b60006109857f000000000000000000000000000000000000000000000000000000000000000084611419565b6109af907f0000000000000000000000000000000000000000000000000000000000000000611443565b90506109bb4382611456565b9392505050565b6000806109ef7f000000000000000000000000000000000000000000000000000000000000000043611430565b9050610a1b7f000000000000000000000000000000000000000000000000000000000000000082611285565b610a26906001611443565b91505090565b610a34610faa565b6001600160a01b038116610a5e57604051631e4fbdf760e01b81526000600482015260240161050e565b610a6781610fd7565b50565b3360009081526005602052604090205460ff16610a995760405162461bcd60e51b815260040161050e906112a7565b6008546001600160a01b0316338114610ac45760405162461bcd60e51b815260040161050e906112d3565b81610ace81610d6f565b610b125760405162461bcd60e51b8152602060048201526015602482015274165bdd4818d85b89dd08185c1c1c9bdd99481e595d605a1b604482015260640161050e565b60008381526003602090815260408083206001600160a01b03881684529091529020548390859060ff1615610b895760405162461bcd60e51b815260206004820152601e60248201527f416c72656164792077697468647261776e20666f722074686973206572610000604482015260640161050e565b610b91610d9a565b610b996109c2565b851115610bdc5760405162461bcd60e51b815260206004820152601160248201527045726120696e207468652066757475726560781b604482015260640161050e565b60008581526003602090815260408083206001600160a01b038a1684529091528120805460ff19166001179055610c1f8688610c1a6104958361086c565b611029565b9050610c2c86888361108f565b80600003610c3a5750610d5d565b600754604051631caccb1d60e31b8152600481018390526001600160a01b039091169063e56658e890602401600060405180830381600087803b158015610c8057600080fd5b505af1158015610c94573d6000803e3d6000fd5b505060075460405163a9059cbb60e01b81526001600160a01b038b811660048301526024820186905260009450909116915063a9059cbb906044016020604051808303816000875af1158015610cee573d6000803e3d6000fd5b505050506040513d601f19601f82011682018060405250810190610d12919061147d565b905080610d5a5760405162461bcd60e51b8152602060048201526016602482015275115490cc8c0e881d1c985b9cd9995c8819985a5b195960521b604482015260640161050e565b50505b610d676001600655565b505050505050565b6000610d796109c2565b909110919050565b600080610d8f848685611029565b151595945050505050565b600260065403610dbd57604051633ee5aeb560e01b815260040160405180910390fd5b6002600655565b600081815260208190526040902060020154610de1908390611443565b60008281526020818152604080832060020193909355600181528282206001600160a01b038716835290529081208054849290610e1f908490611443565b909155505060008181526020818152604080832060020154600183528184206001600160a01b038816808652908452938290205482518681529384018790529183015260608201527ffc6907b3f86e1e63de43e8e6af6345e03bbc9726a0f63eddb4021532417f78b1906080015b60405180910390a2505050565b60008281526001602090815260408083206001600160a01b038716845290915281205490819003610ecb5750505050565b80821115610ed7578091505b60008381526020819052604081206002018054849290610ef8908490611430565b909155505060008381526001602090815260408083206001600160a01b038816845290915281208054849290610f2f908490611430565b909155505060008381526020818152604080832060020154600183528184206001600160a01b038916808652908452938290205482518881529384018790529183015260608201527f8df21415d734537dcf01ffb77472049844f905c24abd54708d93555ea85239f99060800160405180910390a250505050565b6004546001600160a01b0316331461078c5760405163118cdaa760e01b815233600482015260240161050e565b600480546001600160a01b038381166001600160a01b0319831681179093556040519116919082907f8be0079c531659141344cd1fd0a4f28419497f9722a3daafe3b4186f6b6457e090600090a35050565b60008381526020818152604080832060020154600183528184206001600160a01b0387168552909252822054801580611060575081155b15611070576000925050506109bb565b8161107b8583611419565b6110859190611285565b9695505050505050565b60008381526020819052604081208054916110a98361149a565b9091555050600083815260208190526040812060010180548392906110cf908490611443565b909155505060008381526002602090815260408083206001600160a01b0386168085529083529281902084905580518681529182018490527fffe903c0abe6b2dbb2f3474ef43d7a3c1fca49e5a774453423ca8e1952aabffa9101610e8d565b80356001600160a01b038116811461114657600080fd5b919050565b6000806040838503121561115e57600080fd5b6111678361112f565b946020939093013593505050565b6000806040838503121561118857600080fd5b50508035926020909101359150565b6000806000606084860312156111ac57600080fd5b6111b58461112f565b95602085013595506040909401359392505050565b8015158114610a6757600080fd5b600080604083850312156111eb57600080fd5b6111f48361112f565b91506020830135611204816111ca565b809150509250929050565b60006020828403121561122157600080fd5b5035919050565b60006020828403121561123a57600080fd5b6104c08261112f565b6000806040838503121561125657600080fd5b823591506112666020840161112f565b90509250929050565b634e487b7160e01b600052601160045260246000fd5b6000826112a257634e487b7160e01b600052601260045260246000fd5b500490565b6020808252601290820152712737ba1030b63637bbb2b21031b0b63632b960711b604082015260600190565b6020808252601e908201527f43616c6c6572206d7573742062652073797374656d20636f6e74726163740000604082015260600190565b6001815b6001841115611345578085048111156113295761132961126f565b600184161561133757908102905b60019390931c92800261130e565b935093915050565b60008261135c575060016104c3565b81611369575060006104c3565b816001811461137f5760028114611389576113a5565b60019150506104c3565b60ff84111561139a5761139a61126f565b50506001821b6104c3565b5060208310610133831016604e8410600b84101617156113c8575081810a6104c3565b6113d5600019848461130a565b80600019048211156113e9576113e961126f565b029392505050565b60006104c0838361134d565b6000600160ff1b82016114125761141261126f565b5060000390565b80820281158282048414176104c3576104c361126f565b818103818111156104c3576104c361126f565b808201808211156104c3576104c361126f565b81810360008312801583831316838312821617156114765761147661126f565b5092915050565b60006020828403121561148f57600080fd5b81516109bb816111ca565b6000600182016114ac576114ac61126f565b506001019056fea26469706673582212204de57dcb59811e5ca4b71679001bbe98ce447571bdbf3569fd7c3d46cda115ab64736f6c634300081b0033",
  "linkReferences": {},
  "deployedLinkReferences": {}
}