{
  "_format": "hh-sol-artifact-1",
  "contractName": "ActivistRules",
  "sourceName": "contracts/ActivistRules.sol",
  "abi": [
    {
      "inputs": [
        {
          "internalType": "address",
          "name": "communityRulesAddress",
          "type": "address"
        },
        {
          "internalType": "address",
          "name": "activistPoolAddress",
          "type": "address"
        }
      ],
      "stateMutability": "nonpayable",
      "type": "constructor"
    },
    {
      "inputs": [
        {
          "internalType": "address",
          "name": "owner",
          "type": "address"
        }
      ],
      "name": "OwnableInvalidOwner",
      "type": "error"
    },
    {
      "inputs": [
        {
          "internalType": "address",
          "name": "account",
          "type": "address"
        }
      ],
      "name": "OwnableUnauthorizedAccount",
      "type": "error"
    },
    {
      "inputs": [],
      "name": "ReentrancyGuardReentrantCall",
      "type": "error"
    },
    {
      "anonymous": false,
      "inputs": [
        {
          "indexed": true,
          "internalType": "address",
          "name": "activistAddress",
          "type": "address"
        },
        {
          "indexed": false,
          "internalType": "uint256",
          "name": "newLevel",
          "type": "uint256"
        },
        {
          "indexed": false,
          "internalType": "uint256",
          "name": "blockNumber",
          "type": "uint256"
        }
      ],
      "name": "ActivistLevelIncreased",
      "type": "event"
    },
    {
      "anonymous": false,
      "inputs": [
        {
          "indexed": true,
          "internalType": "uint256",
          "name": "id",
          "type": "uint256"
        },
        {
          "indexed": true,
          "internalType": "address",
          "name": "activistAddress",
          "type": "address"
        },
        {
          "indexed": false,
          "internalType": "string",
          "name": "name",
          "type": "string"
        },
        {
          "indexed": false,
          "internalType": "uint256",
          "name": "blockNumber",
          "type": "uint256"
        }
      ],
      "name": "ActivistRegistered",
      "type": "event"
    },
    {
      "anonymous": false,
      "inputs": [
        {
          "indexed": true,
          "internalType": "address",
          "name": "activistAddress",
          "type": "address"
        },
        {
          "indexed": true,
          "internalType": "uint256",
          "name": "era",
          "type": "uint256"
        },
        {
          "indexed": false,
          "internalType": "uint256",
          "name": "blockNumber",
          "type": "uint256"
        }
      ],
      "name": "ActivistWithdrawalInitiated",
      "type": "event"
    },
    {
      "anonymous": false,
      "inputs": [
        {
          "indexed": true,
          "internalType": "address",
          "name": "previousOwner",
          "type": "address"
        },
        {
          "indexed": true,
          "internalType": "address",
          "name": "newOwner",
          "type": "address"
        }
      ],
      "name": "OwnershipTransferred",
      "type": "event"
    },
    {
      "inputs": [],
      "name": "INITIAL_USER_COUNT_THRESHOLD",
      "outputs": [
        {
          "internalType": "uint256",
          "name": "",
          "type": "uint256"
        }
      ],
      "stateMutability": "view",
      "type": "function"
    },
    {
      "inputs": [],
      "name": "MAX_USER_COUNT",
      "outputs": [
        {
          "internalType": "uint16",
          "name": "",
          "type": "uint16"
        }
      ],
      "stateMutability": "view",
      "type": "function"
    },
    {
      "inputs": [],
      "name": "MINIMUM_INSPECTIONS_TO_WON_POOL_LEVELS",
      "outputs": [
        {
          "internalType": "uint16",
          "name": "",
          "type": "uint16"
        }
      ],
      "stateMutability": "view",
      "type": "function"
    },
    {
      "inputs": [
        {
          "internalType": "uint256",
          "name": "",
          "type": "uint256"
        }
      ],
      "name": "activistsAddress",
      "outputs": [
        {
          "internalType": "address",
          "name": "",
          "type": "address"
        }
      ],
      "stateMutability": "view",
      "type": "function"
    },
    {
      "inputs": [
        {
          "internalType": "string",
          "name": "name",
          "type": "string"
        },
        {
          "internalType": "string",
          "name": "proofPhoto",
          "type": "string"
        }
      ],
      "name": "addActivist",
      "outputs": [],
      "stateMutability": "nonpayable",
      "type": "function"
    },
    {
      "inputs": [
        {
          "internalType": "address",
          "name": "inspectorAddress",
          "type": "address"
        },
        {
          "internalType": "uint256",
          "name": "inspectorTotalInspections",
          "type": "uint256"
        }
      ],
      "name": "addInspectorLevel",
      "outputs": [],
      "stateMutability": "nonpayable",
      "type": "function"
    },
    {
      "inputs": [
        {
          "internalType": "address",
          "name": "regeneratorAddress",
          "type": "address"
        },
        {
          "internalType": "uint256",
          "name": "regeneratorTotalInspections",
          "type": "uint256"
        }
      ],
      "name": "addRegeneratorLevel",
      "outputs": [],
      "stateMutability": "nonpayable",
      "type": "function"
    },
    {
      "inputs": [
        {
          "internalType": "address",
          "name": "",
          "type": "address"
        }
      ],
      "name": "allowedCallers",
      "outputs": [
        {
          "internalType": "bool",
          "name": "",
          "type": "bool"
        }
      ],
      "stateMutability": "view",
      "type": "function"
    },
    {
      "inputs": [],
      "name": "approvedInvites",
      "outputs": [
        {
          "internalType": "uint32",
          "name": "",
          "type": "uint32"
        }
      ],
      "stateMutability": "view",
      "type": "function"
    },
    {
      "inputs": [
        {
          "internalType": "uint256",
          "name": "totalLevels",
          "type": "uint256"
        },
        {
          "internalType": "uint256",
          "name": "totalUsers",
          "type": "uint256"
        },
        {
          "internalType": "uint256",
          "name": "userLevels",
          "type": "uint256"
        }
      ],
      "name": "canInvite",
      "outputs": [
        {
          "internalType": "bool",
          "name": "",
          "type": "bool"
        }
      ],
      "stateMutability": "pure",
      "type": "function"
    },
    {
      "inputs": [
        {
          "internalType": "address",
          "name": "addr",
          "type": "address"
        }
      ],
      "name": "canSendInvite",
      "outputs": [
        {
          "internalType": "bool",
          "name": "",
          "type": "bool"
        }
      ],
      "stateMutability": "view",
      "type": "function"
    },
    {
      "inputs": [
        {
          "internalType": "address",
          "name": "addr",
          "type": "address"
        }
      ],
      "name": "getActivist",
      "outputs": [
        {
          "components": [
            {
              "internalType": "uint64",
              "name": "id",
              "type": "uint64"
            },
            {
              "internalType": "address",
              "name": "activistWallet",
              "type": "address"
            },
            {
              "internalType": "string",
              "name": "name",
              "type": "string"
            },
            {
              "internalType": "string",
              "name": "proofPhoto",
              "type": "string"
            },
            {
              "components": [
                {
                  "internalType": "uint256",
                  "name": "level",
                  "type": "uint256"
                },
                {
                  "internalType": "uint256",
                  "name": "currentEra",
                  "type": "uint256"
                }
              ],
              "internalType": "struct Pool",
              "name": "pool",
              "type": "tuple"
            },
            {
              "internalType": "uint256",
              "name": "createdAt",
              "type": "uint256"
            }
          ],
          "internalType": "struct Activist",
          "name": "",
          "type": "tuple"
        }
      ],
      "stateMutability": "view",
      "type": "function"
    },
    {
      "inputs": [
        {
          "internalType": "address",
          "name": "caller",
          "type": "address"
        }
      ],
      "name": "isAllowedCaller",
      "outputs": [
        {
          "internalType": "bool",
          "name": "",
          "type": "bool"
        }
      ],
      "stateMutability": "view",
      "type": "function"
    },
    {
      "inputs": [
        {
          "internalType": "address",
          "name": "allowed",
          "type": "address"
        }
      ],
      "name": "newAllowedCaller",
      "outputs": [],
      "stateMutability": "nonpayable",
      "type": "function"
    },
    {
      "inputs": [],
      "name": "owner",
      "outputs": [
        {
          "internalType": "address",
          "name": "",
          "type": "address"
        }
      ],
      "stateMutability": "view",
      "type": "function"
    },
    {
      "inputs": [],
      "name": "poolCurrentEra",
      "outputs": [
        {
          "internalType": "uint256",
          "name": "",
          "type": "uint256"
        }
      ],
      "stateMutability": "view",
      "type": "function"
    },
    {
      "inputs": [
        {
          "internalType": "address",
          "name": "addr",
          "type": "address"
        }
      ],
      "name": "removePoolLevels",
      "outputs": [],
      "stateMutability": "nonpayable",
      "type": "function"
    },
    {
      "inputs": [],
      "name": "renounceOwnership",
      "outputs": [],
      "stateMutability": "nonpayable",
      "type": "function"
    },
    {
      "inputs": [
        {
          "internalType": "address",
          "name": "_inspectionRulesAddress",
          "type": "address"
        },
        {
          "internalType": "address",
          "name": "_validationRulesAddress",
          "type": "address"
        }
      ],
      "name": "setContractCall",
      "outputs": [],
      "stateMutability": "nonpayable",
      "type": "function"
    },
    {
      "inputs": [
        {
          "internalType": "address",
          "name": "newOwner",
          "type": "address"
        }
      ],
      "name": "transferOwnership",
      "outputs": [],
      "stateMutability": "nonpayable",
      "type": "function"
    },
    {
      "inputs": [],
      "name": "withdraw",
      "outputs": [],
      "stateMutability": "nonpayable",
      "type": "function"
    }
  ],
  "bytecode": "0x608060405234801561001057600080fd5b50604051611cdb380380611cdb83398101604081905261002f91610101565b338061005557604051631e4fbdf760e01b81526000600482015260240160405180910390fd5b61005e81610095565b506001600255600780546001600160a01b039384166001600160a01b03199182161790915560088054929093169116179055610134565b600080546001600160a01b038381166001600160a01b0319831681178455604051919092169283917f8be0079c531659141344cd1fd0a4f28419497f9722a3daafe3b4186f6b6457e09190a35050565b80516001600160a01b03811681146100fc57600080fd5b919050565b6000806040838503121561011457600080fd5b61011d836100e5565b915061012b602084016100e5565b90509250929050565b611b98806101436000396000f3fe608060405234801561001057600080fd5b50600436106101365760003560e01c80638da5cb5b116100b8578063be9dc5841161007c578063be9dc584146102c7578063c77c1ce6146102dd578063e05cf155146102f0578063f1a204ce146102f8578063f2fde38b1461030b578063f92f0f8e1461031e57600080fd5b80638da5cb5b146102275780638f93716f1461024c5780639d3c50b21461025f5780639eaf666f14610288578063a68012581461029b57600080fd5b80635fbf8a69116100ff5780635fbf8a69146101b057806362efeff7146101c35780636ec7053a146101e3578063715018a6146101ec5780637b334154146101f457600080fd5b8062b2c9201461013b57806304521ca31461015057806320515231146101635780633ccfd60b14610183578063430816aa1461018b575b600080fd5b61014e6101493660046114f9565b610331565b005b61014e61015e366004611525565b6103b5565b61016b600381565b60405161ffff90911681526020015b60405180910390f35b61014e6103eb565b60035461019b9063ffffffff1681565b60405163ffffffff909116815260200161017a565b61014e6101be366004611601565b610648565b6101d66101d1366004611668565b61099b565b60405161017a91906116cb565b61016b613e8081565b61014e610b7d565b610217610202366004611668565b60016020526000908152604090205460ff1681565b604051901515815260200161017a565b6000546001600160a01b03165b6040516001600160a01b03909116815260200161017a565b61014e61025a366004611668565b610b8f565b61023461026d366004611758565b6006602052600090815260409020546001600160a01b031681565b610217610296366004611771565b610bbe565b6102176102a9366004611668565b6001600160a01b031660009081526001602052604090205460ff1690565b6102cf600581565b60405190815260200161017a565b6102176102eb366004611668565b610bf6565b6102cf610e3f565b61014e6103063660046114f9565b610eb2565b61014e610319366004611668565b610f1e565b61014e61032c366004611668565b610f5c565b3360009081526001602052604090205460ff166103695760405162461bcd60e51b81526004016103609061179d565b60405180910390fd5b6009546001600160a01b03163381146103945760405162461bcd60e51b8152600401610360906117c9565b61039c611032565b6103a6838361105a565b6103b06001600255565b505050565b6103bd6111f2565b600980546001600160a01b039384166001600160a01b031991821617909155600a8054929093169116179055565b6103f3611032565b600754604051631292f8c160e31b81526001600160a01b0390911690639497c60890610426906006903390600401611822565b602060405180830381865afa158015610443573d6000803e3d6000fd5b505050506040513d601f19601f820116820180604052508101906104679190611848565b6104ab5760405162461bcd60e51b8152602060048201526015602482015274141bdbdb081bdb9b1e481d1bc81858dd1a5d9a5cdd605a1b6044820152606401610360565b33600090815260046020819052604091829020808201546008549351637df42f8360e11b8152928301819052909290916001600160a01b039091169063fbe85f0690602401602060405180830381865afa15801561050d573d6000803e3d6000fd5b505050506040513d601f19601f820116820180604052508101906105319190611848565b61058b5760405162461bcd60e51b815260206004820152602560248201527f4e6f7420656c696769626c6520746f20776974686472617720666f7220746869604482015264732065726160d81b6064820152608401610360565b610596816001611880565b60048381019190915560085460405163f3fef3a360e01b81523392810192909252602482018390526001600160a01b03169063f3fef3a390604401600060405180830381600087803b1580156105eb57600080fd5b505af11580156105ff573d6000803e3d6000fd5b50506040514381528392503391507fb81f4acc0377f571ab134a4bbbd3747583189d714f31efcea075ae6d4c1d72da9060200160405180910390a350506106466001600255565b565b815160321080159061065c57508051609610155b6106995760405162461bcd60e51b815260206004820152600e60248201526d4d6178206368617261637465727360901b6044820152606401610360565b600754604051632f22dc7b60e01b8152613e80916001600160a01b031690632f22dc7b906106cc90600690600401611899565b602060405180830381865afa1580156106e9573d6000803e3d6000fd5b505050506040513d601f19601f8201168201806040525081019061070d91906118a7565b1061074b5760405162461bcd60e51b815260206004820152600e60248201526d13585e081d5cd95c881b1a5b5a5d60921b6044820152606401610360565b60075460405162f5960960e51b81526000916001600160a01b031690631eb2c1209061077c90600690600401611899565b602060405180830381865afa158015610799573d6000803e3d6000fd5b505050506040513d601f19601f820116820180604052508101906107bd91906118c0565b6107c89060016118e9565b90506040518060c00160405280826001600160401b03168152602001336001600160a01b03168152602001848152602001838152602001604051806040016040528060008152602001610819610e3f565b90528152436020918201523360009081526004825260409081902083518154938501516001600160a01b0316600160401b026001600160e01b03199094166001600160401b0390911617929092178255820151600182019061087b9082611989565b50606082015160028201906108909082611989565b5060808201518051600383015560209081015160048084019190915560a0909301516005909201919091556001600160401b038316600090815260069182905260409081902080546001600160a01b031916339081179091556007549151639c3eead960e01b81526001600160a01b039290921693639c3eead99361091793909101611a47565b600060405180830381600087803b15801561093157600080fd5b505af1158015610945573d6000803e3d6000fd5b50505050336001600160a01b0316816001600160401b03167f465f144a166d5efbf5d238fa355c743be298b6a91abf5e53628b9a87dacbe3c3854360405161098e929190611a64565b60405180910390a3505050565b6109e26040805160c0810182526000808252602080830182905260608385018190528084015283518085019094528184528301529060808201908152602001600081525090565b6001600160a01b03808316600090815260046020908152604091829020825160c08101845281546001600160401b0381168252600160401b9004909416918401919091526001810180549192840191610a3a90611908565b80601f0160208091040260200160405190810160405280929190818152602001828054610a6690611908565b8015610ab35780601f10610a8857610100808354040283529160200191610ab3565b820191906000526020600020905b815481529060010190602001808311610a9657829003601f168201915b50505050508152602001600282018054610acc90611908565b80601f0160208091040260200160405190810160405280929190818152602001828054610af890611908565b8015610b455780601f10610b1a57610100808354040283529160200191610b45565b820191906000526020600020905b815481529060010190602001808311610b2857829003601f168201915b505050918352505060408051808201825260038401548152600484015460208281019190915283015260059092015491015292915050565b610b856111f2565b610646600061121f565b610b976111f2565b6001600160a01b03166000908152600160208190526040909120805460ff19169091179055565b600060058311610bd057506001610bef565b82600003610be057506000610bef565b83610beb8484611a86565b1190505b9392505050565b6001600160a01b038082166000908152600460209081526040808320815160c08101835281546001600160401b0381168252600160401b9004909516928501929092526001820180549394859490939284019190610c5390611908565b80601f0160208091040260200160405190810160405280929190818152602001828054610c7f90611908565b8015610ccc5780601f10610ca157610100808354040283529160200191610ccc565b820191906000526020600020905b815481529060010190602001808311610caf57829003601f168201915b50505050508152602001600282018054610ce590611908565b80601f0160208091040260200160405190810160405280929190818152602001828054610d1190611908565b8015610d5e5780601f10610d3357610100808354040283529160200191610d5e565b820191906000526020600020905b815481529060010190602001808311610d4157829003601f168201915b505050918352505060408051808201825260038401548152600484015460208281019190915283015260059092015491015280519091506001600160401b0316610dab5750600092915050565b60035460075460405162f5960960e51b8152610bef9263ffffffff16916001600160a01b031690631eb2c12090610de790600690600401611899565b602060405180830381865afa158015610e04573d6000803e3d6000fd5b505050506040513d601f19601f82011682018060405250810190610e2891906118c0565b6001600160401b0316836080015160000151610bbe565b60085460408051637686fbcf60e11b815290516000926001600160a01b03169163ed0df79e9160048083019260209291908290030181865afa158015610e89573d6000803e3d6000fd5b505050506040513d601f19601f82011682018060405250810190610ead91906118a7565b905090565b3360009081526001602052604090205460ff16610ee15760405162461bcd60e51b81526004016103609061179d565b6009546001600160a01b0316338114610f0c5760405162461bcd60e51b8152600401610360906117c9565b610f14611032565b6103a6838361126f565b610f266111f2565b6001600160a01b038116610f5057604051631e4fbdf760e01b815260006004820152602401610360565b610f598161121f565b50565b3360009081526001602052604090205460ff16610f8b5760405162461bcd60e51b81526004016103609061179d565b600a546001600160a01b0316338114610fb65760405162461bcd60e51b8152600401610360906117c9565b610fbe611032565b6008546040516310c791e560e11b81526001600160a01b038481166004830152600160248301529091169063218f23ca90604401600060405180830381600087803b15801561100c57600080fd5b505af1158015611020573d6000803e3d6000fd5b5050505061102e6001600255565b5050565b600280540361105457604051633ee5aeb560e01b815260040160405180910390fd5b60028055565b60075460405163158bdc5f60e11b81526001600160a01b0384811660048301526000921690632b17b8be90602401608060405180830381865afa1580156110a5573d6000803e3d6000fd5b505050506040513d601f19601f820116820180604052508101906110c99190611a9d565b6020808201516001600160a01b038082166000908152600584526040808220928916825291909352909120549192509060ff1615801561110a575060038310155b156111ec576001600160a01b0380821660009081526005602090815260408083209388168352929052908120805460ff191660011790556003805463ffffffff169161115583611b24565b825463ffffffff9182166101009390930a9283029190920219909116179055506040517f61637469766973745f7265776172645f726567656e657261746f72000000000060208201526bffffffffffffffffffffffff19606083811b8216603b84015286901b16604f8201526000906063015b6040516020818303038152906040528051906020012090506111ea82826113e1565b505b50505050565b6000546001600160a01b031633146106465760405163118cdaa760e01b8152336004820152602401610360565b600080546001600160a01b038381166001600160a01b0319831681178455604051919092169283917f8be0079c531659141344cd1fd0a4f28419497f9722a3daafe3b4186f6b6457e09190a35050565b60075460405163158bdc5f60e11b81526001600160a01b0384811660048301526000921690632b17b8be90602401608060405180830381865afa1580156112ba573d6000803e3d6000fd5b505050506040513d601f19601f820116820180604052508101906112de9190611a9d565b6020808201516001600160a01b038082166000908152600584526040808220928916825291909352909120549192509060ff1615801561131f575060038310155b156111ec576001600160a01b0380821660009081526005602090815260408083209388168352929052908120805460ff191660011790556003805463ffffffff169161136a83611b24565b825463ffffffff9182166101009390930a9283029190920219909116179055506040517f61637469766973745f7265776172645f696e73706563746f720000000000000060208201526bffffffffffffffffffffffff19606083811b8216603984015286901b16604d8201526000906061016111c8565b6001600160a01b0382166000908152600460205260408120805490916001600160401b03909116900361141357505050565b60038101805490600061142583611b49565b9091555050600854604051630f9a28d560e11b81526001600160a01b038581166004830152600160248301526044820185905290911690631f3451aa90606401600060405180830381600087803b15801561147f57600080fd5b505af1158015611493573d6000803e3d6000fd5b505050506003810154604080519182524360208301526001600160a01b038516917f36f15968a9f51192bb47c8eb232f2f6f1a17509d72befcb36e4963e541831f03910160405180910390a2505050565b6001600160a01b0381168114610f5957600080fd5b6000806040838503121561150c57600080fd5b8235611517816114e4565b946020939093013593505050565b6000806040838503121561153857600080fd5b8235611543816114e4565b91506020830135611553816114e4565b809150509250929050565b634e487b7160e01b600052604160045260246000fd5b600082601f83011261158557600080fd5b81356001600160401b0381111561159e5761159e61155e565b604051601f8201601f19908116603f011681016001600160401b03811182821017156115cc576115cc61155e565b6040528181528382016020018510156115e457600080fd5b816020850160208301376000918101602001919091529392505050565b6000806040838503121561161457600080fd5b82356001600160401b0381111561162a57600080fd5b61163685828601611574565b92505060208301356001600160401b0381111561165257600080fd5b61165e85828601611574565b9150509250929050565b60006020828403121561167a57600080fd5b8135610bef816114e4565b6000815180845260005b818110156116ab5760208185018101518683018201520161168f565b506000602082860101526020601f19601f83011685010191505092915050565b602081526001600160401b03825116602082015260018060a01b0360208301511660408201526000604083015160e0606084015261170d610100840182611685565b90506060840151601f1984830301608085015261172a8282611685565b9150506080840151805160a0850152602081015160c08501525060a084015160e08401528091505092915050565b60006020828403121561176a57600080fd5b5035919050565b60008060006060848603121561178657600080fd5b505081359360208301359350604090920135919050565b6020808252601290820152712737ba1030b63637bbb2b21031b0b63632b960711b604082015260600190565b6020808252601e908201527f43616c6c6572206d7573742062652073797374656d20636f6e74726163740000604082015260600190565b6008811061181e57634e487b7160e01b600052602160045260246000fd5b9052565b604081016118308285611800565b6001600160a01b039290921660209190910152919050565b60006020828403121561185a57600080fd5b81518015158114610bef57600080fd5b634e487b7160e01b600052601160045260246000fd5b808201808211156118935761189361186a565b92915050565b602081016118938284611800565b6000602082840312156118b957600080fd5b5051919050565b6000602082840312156118d257600080fd5b81516001600160401b0381168114610bef57600080fd5b6001600160401b0381811683821601908111156118935761189361186a565b600181811c9082168061191c57607f821691505b60208210810361193c57634e487b7160e01b600052602260045260246000fd5b50919050565b601f8211156103b057806000526020600020601f840160051c810160208510156119695750805b601f840160051c820191505b818110156111ea5760008155600101611975565b81516001600160401b038111156119a2576119a261155e565b6119b6816119b08454611908565b84611942565b6020601f8211600181146119ea57600083156119d25750848201515b600019600385901b1c1916600184901b1784556111ea565b600084815260208120601f198516915b82811015611a1a57878501518255602094850194600190920191016119fa565b5084821015611a385786840151600019600387901b60f8161c191681555b50505050600190811b01905550565b6001600160a01b038316815260408101610bef6020830184611800565b604081526000611a776040830185611685565b90508260208301529392505050565b80820281158282048414176118935761189361186a565b60006080828403128015611ab057600080fd5b50604051600090608081016001600160401b0381118282101715611ad657611ad661155e565b6040528351611ae4816114e4565b81526020840151611af4816114e4565b6020820152604084015160088110611b0a578283fd5b604082015260609384015193810193909352509092915050565b600063ffffffff821663ffffffff8103611b4057611b4061186a565b60010192915050565b600060018201611b5b57611b5b61186a565b506001019056fea26469706673582212209b858a1c7bde768a52f8eee102edd6c6ce86523b064766d2476b7f4bbda0095964736f6c634300081b0033",
  "linkReferences": {},
  "deployedLinkReferences": {}
}