{
  "_format": "hh-sol-artifact-1",
  "contractName": "ActivistRules",
  "sourceName": "contracts/ActivistRules.sol",
  "abi": [
    {
      "inputs": [
        {
          "internalType": "address",
          "name": "communityRulesAddress",
          "type": "address"
        },
        {
          "internalType": "address",
          "name": "activistPoolAddress",
          "type": "address"
        }
      ],
      "stateMutability": "nonpayable",
      "type": "constructor"
    },
    {
      "inputs": [
        {
          "internalType": "address",
          "name": "owner",
          "type": "address"
        }
      ],
      "name": "OwnableInvalidOwner",
      "type": "error"
    },
    {
      "inputs": [
        {
          "internalType": "address",
          "name": "account",
          "type": "address"
        }
      ],
      "name": "OwnableUnauthorizedAccount",
      "type": "error"
    },
    {
      "inputs": [],
      "name": "ReentrancyGuardReentrantCall",
      "type": "error"
    },
    {
      "anonymous": false,
      "inputs": [
        {
          "indexed": true,
          "internalType": "address",
          "name": "activistAddress",
          "type": "address"
        },
        {
          "indexed": false,
          "internalType": "uint256",
          "name": "newLevel",
          "type": "uint256"
        },
        {
          "indexed": false,
          "internalType": "uint256",
          "name": "blockNumber",
          "type": "uint256"
        }
      ],
      "name": "ActivistLevelIncreased",
      "type": "event"
    },
    {
      "anonymous": false,
      "inputs": [
        {
          "indexed": true,
          "internalType": "uint256",
          "name": "id",
          "type": "uint256"
        },
        {
          "indexed": true,
          "internalType": "address",
          "name": "activistAddress",
          "type": "address"
        },
        {
          "indexed": false,
          "internalType": "string",
          "name": "name",
          "type": "string"
        },
        {
          "indexed": false,
          "internalType": "uint256",
          "name": "blockNumber",
          "type": "uint256"
        }
      ],
      "name": "ActivistRegistered",
      "type": "event"
    },
    {
      "anonymous": false,
      "inputs": [
        {
          "indexed": true,
          "internalType": "address",
          "name": "activistAddress",
          "type": "address"
        },
        {
          "indexed": true,
          "internalType": "uint256",
          "name": "era",
          "type": "uint256"
        },
        {
          "indexed": false,
          "internalType": "uint256",
          "name": "blockNumber",
          "type": "uint256"
        }
      ],
      "name": "ActivistWithdrawalInitiated",
      "type": "event"
    },
    {
      "anonymous": false,
      "inputs": [
        {
          "indexed": true,
          "internalType": "address",
          "name": "previousOwner",
          "type": "address"
        },
        {
          "indexed": true,
          "internalType": "address",
          "name": "newOwner",
          "type": "address"
        }
      ],
      "name": "OwnershipTransferred",
      "type": "event"
    },
    {
      "inputs": [],
      "name": "INITIAL_USER_COUNT_THRESHOLD",
      "outputs": [
        {
          "internalType": "uint256",
          "name": "",
          "type": "uint256"
        }
      ],
      "stateMutability": "view",
      "type": "function"
    },
    {
      "inputs": [],
      "name": "MAX_USER_COUNT",
      "outputs": [
        {
          "internalType": "uint16",
          "name": "",
          "type": "uint16"
        }
      ],
      "stateMutability": "view",
      "type": "function"
    },
    {
      "inputs": [],
      "name": "MINIMUM_INSPECTIONS_TO_WON_POOL_LEVELS",
      "outputs": [
        {
          "internalType": "uint16",
          "name": "",
          "type": "uint16"
        }
      ],
      "stateMutability": "view",
      "type": "function"
    },
    {
      "inputs": [
        {
          "internalType": "uint256",
          "name": "",
          "type": "uint256"
        }
      ],
      "name": "activistsAddress",
      "outputs": [
        {
          "internalType": "address",
          "name": "",
          "type": "address"
        }
      ],
      "stateMutability": "view",
      "type": "function"
    },
    {
      "inputs": [
        {
          "internalType": "string",
          "name": "name",
          "type": "string"
        },
        {
          "internalType": "string",
          "name": "proofPhoto",
          "type": "string"
        }
      ],
      "name": "addActivist",
      "outputs": [],
      "stateMutability": "nonpayable",
      "type": "function"
    },
    {
      "inputs": [
        {
          "internalType": "address",
          "name": "inspectorAddress",
          "type": "address"
        },
        {
          "internalType": "uint256",
          "name": "inspectorTotalInspections",
          "type": "uint256"
        }
      ],
      "name": "addInspectorLevel",
      "outputs": [],
      "stateMutability": "nonpayable",
      "type": "function"
    },
    {
      "inputs": [
        {
          "internalType": "address",
          "name": "regeneratorAddress",
          "type": "address"
        },
        {
          "internalType": "uint256",
          "name": "regeneratorTotalInspections",
          "type": "uint256"
        }
      ],
      "name": "addRegeneratorLevel",
      "outputs": [],
      "stateMutability": "nonpayable",
      "type": "function"
    },
    {
      "inputs": [
        {
          "internalType": "address",
          "name": "",
          "type": "address"
        }
      ],
      "name": "allowedCallers",
      "outputs": [
        {
          "internalType": "bool",
          "name": "",
          "type": "bool"
        }
      ],
      "stateMutability": "view",
      "type": "function"
    },
    {
      "inputs": [],
      "name": "approvedInvites",
      "outputs": [
        {
          "internalType": "uint64",
          "name": "",
          "type": "uint64"
        }
      ],
      "stateMutability": "view",
      "type": "function"
    },
    {
      "inputs": [
        {
          "internalType": "uint256",
          "name": "totalLevels",
          "type": "uint256"
        },
        {
          "internalType": "uint256",
          "name": "totalUsers",
          "type": "uint256"
        },
        {
          "internalType": "uint256",
          "name": "userLevels",
          "type": "uint256"
        }
      ],
      "name": "canInvite",
      "outputs": [
        {
          "internalType": "bool",
          "name": "",
          "type": "bool"
        }
      ],
      "stateMutability": "pure",
      "type": "function"
    },
    {
      "inputs": [
        {
          "internalType": "address",
          "name": "addr",
          "type": "address"
        }
      ],
      "name": "canSendInvite",
      "outputs": [
        {
          "internalType": "bool",
          "name": "",
          "type": "bool"
        }
      ],
      "stateMutability": "view",
      "type": "function"
    },
    {
      "inputs": [
        {
          "internalType": "address",
          "name": "addr",
          "type": "address"
        }
      ],
      "name": "getActivist",
      "outputs": [
        {
          "components": [
            {
              "internalType": "uint64",
              "name": "id",
              "type": "uint64"
            },
            {
              "internalType": "address",
              "name": "activistWallet",
              "type": "address"
            },
            {
              "internalType": "string",
              "name": "name",
              "type": "string"
            },
            {
              "internalType": "string",
              "name": "proofPhoto",
              "type": "string"
            },
            {
              "components": [
                {
                  "internalType": "uint256",
                  "name": "level",
                  "type": "uint256"
                },
                {
                  "internalType": "uint256",
                  "name": "currentEra",
                  "type": "uint256"
                }
              ],
              "internalType": "struct Pool",
              "name": "pool",
              "type": "tuple"
            },
            {
              "internalType": "uint256",
              "name": "createdAt",
              "type": "uint256"
            }
          ],
          "internalType": "struct Activist",
          "name": "",
          "type": "tuple"
        }
      ],
      "stateMutability": "view",
      "type": "function"
    },
    {
      "inputs": [
        {
          "internalType": "address",
          "name": "caller",
          "type": "address"
        }
      ],
      "name": "isAllowedCaller",
      "outputs": [
        {
          "internalType": "bool",
          "name": "",
          "type": "bool"
        }
      ],
      "stateMutability": "view",
      "type": "function"
    },
    {
      "inputs": [
        {
          "internalType": "address",
          "name": "allowed",
          "type": "address"
        }
      ],
      "name": "newAllowedCaller",
      "outputs": [],
      "stateMutability": "nonpayable",
      "type": "function"
    },
    {
      "inputs": [],
      "name": "owner",
      "outputs": [
        {
          "internalType": "address",
          "name": "",
          "type": "address"
        }
      ],
      "stateMutability": "view",
      "type": "function"
    },
    {
      "inputs": [],
      "name": "poolCurrentEra",
      "outputs": [
        {
          "internalType": "uint256",
          "name": "",
          "type": "uint256"
        }
      ],
      "stateMutability": "view",
      "type": "function"
    },
    {
      "inputs": [
        {
          "internalType": "address",
          "name": "addr",
          "type": "address"
        }
      ],
      "name": "removePoolLevels",
      "outputs": [],
      "stateMutability": "nonpayable",
      "type": "function"
    },
    {
      "inputs": [],
      "name": "renounceOwnership",
      "outputs": [],
      "stateMutability": "nonpayable",
      "type": "function"
    },
    {
      "inputs": [
        {
          "internalType": "address",
          "name": "_inspectionRulesAddress",
          "type": "address"
        },
        {
          "internalType": "address",
          "name": "_validationRulesAddress",
          "type": "address"
        }
      ],
      "name": "setContractCall",
      "outputs": [],
      "stateMutability": "nonpayable",
      "type": "function"
    },
    {
      "inputs": [],
      "name": "totalActiveLevels",
      "outputs": [
        {
          "internalType": "uint256",
          "name": "",
          "type": "uint256"
        }
      ],
      "stateMutability": "view",
      "type": "function"
    },
    {
      "inputs": [
        {
          "internalType": "address",
          "name": "newOwner",
          "type": "address"
        }
      ],
      "name": "transferOwnership",
      "outputs": [],
      "stateMutability": "nonpayable",
      "type": "function"
    },
    {
      "inputs": [],
      "name": "withdraw",
      "outputs": [],
      "stateMutability": "nonpayable",
      "type": "function"
    }
  ],
  "bytecode": "0x608060405234801561001057600080fd5b50604051611e9e380380611e9e83398101604081905261002f91610101565b338061005557604051631e4fbdf760e01b81526000600482015260240160405180910390fd5b61005e81610095565b506001600255600880546001600160a01b039384166001600160a01b03199182161790915560098054929093169116179055610134565b600080546001600160a01b038381166001600160a01b0319831681178455604051919092169283917f8be0079c531659141344cd1fd0a4f28419497f9722a3daafe3b4186f6b6457e09190a35050565b80516001600160a01b03811681146100fc57600080fd5b919050565b6000806040838503121561011457600080fd5b61011d836100e5565b915061012b602084016100e5565b90509250929050565b611d5b806101436000396000f3fe608060405234801561001057600080fd5b50600436106101415760003560e01c80638f93716f116100b8578063be9dc5841161007c578063be9dc584146102ef578063c77c1ce6146102f7578063e05cf1551461030a578063f1a204ce14610312578063f2fde38b14610325578063f92f0f8e1461033857600080fd5b80638f93716f1461025d57806394a7444e146102705780639d3c50b2146102875780639eaf666f146102b0578063a6801258146102c357600080fd5b80635fbf8a691161010a5780635fbf8a69146101c157806362efeff7146101d45780636ec7053a146101f4578063715018a6146101fd5780637b334154146102055780638da5cb5b1461023857600080fd5b8062b2c9201461014657806304521ca31461015b578063205152311461016e5780633ccfd60b1461018e578063430816aa14610196575b600080fd5b6101596101543660046116a3565b61034b565b005b6101596101693660046116cf565b6103cf565b610176600381565b60405161ffff90911681526020015b60405180910390f35b610159610405565b6003546101a9906001600160401b031681565b6040516001600160401b039091168152602001610185565b6101596101cf3660046117ab565b61065e565b6101e76101e2366004611812565b6109b2565b6040516101859190611875565b610176613e8081565b610159610b94565b610228610213366004611812565b60016020526000908152604090205460ff1681565b6040519015158152602001610185565b6000546001600160a01b03165b6040516001600160a01b039091168152602001610185565b61015961026b366004611812565b610ba6565b61027960045481565b604051908152602001610185565b610245610295366004611902565b6007602052600090815260409020546001600160a01b031681565b6102286102be36600461191b565b610bd5565b6102286102d1366004611812565b6001600160a01b031660009081526001602052604090205460ff1690565b610279600581565b610228610305366004611812565b610c0d565b610279610e45565b6101596103203660046116a3565b610eb8565b610159610333366004611812565b610f24565b610159610346366004611812565b610f62565b3360009081526001602052604090205460ff166103835760405162461bcd60e51b815260040161037a90611947565b60405180910390fd5b600a546001600160a01b03163381146103ae5760405162461bcd60e51b815260040161037a90611973565b6103b661106c565b6103c08383611094565b6103ca6001600255565b505050565b6103d76112b9565b600a80546001600160a01b039384166001600160a01b031991821617909155600b8054929093169116179055565b61040d61106c565b600854604051631292f8c160e31b81526001600160a01b0390911690639497c608906104409060069033906004016119cc565b602060405180830381865afa15801561045d573d6000803e3d6000fd5b505050506040513d601f19601f8201168201806040525081019061048191906119f2565b6104c55760405162461bcd60e51b8152602060048201526015602482015274141bdbdb081bdb9b1e481d1bc81858dd1a5d9a5cdd605a1b604482015260640161037a565b33600090815260056020526040908190206004808201546009549351637df42f8360e11b815291820181905291926001600160a01b03169063fbe85f0690602401602060405180830381865afa158015610523573d6000803e3d6000fd5b505050506040513d601f19601f8201168201806040525081019061054791906119f2565b6105a15760405162461bcd60e51b815260206004820152602560248201527f4e6f7420656c696769626c6520746f20776974686472617720666f7220746869604482015264732065726160d81b606482015260840161037a565b6105ac816001611a2a565b60048381019190915560095460405163f3fef3a360e01b81523392810192909252602482018390526001600160a01b03169063f3fef3a390604401600060405180830381600087803b15801561060157600080fd5b505af1158015610615573d6000803e3d6000fd5b50506040514381528392503391507fb81f4acc0377f571ab134a4bbbd3747583189d714f31efcea075ae6d4c1d72da9060200160405180910390a3505061065c6001600255565b565b815160321080159061067257508051609610155b6106af5760405162461bcd60e51b815260206004820152600e60248201526d4d6178206368617261637465727360901b604482015260640161037a565b600854604051632f22dc7b60e01b8152613e80916001600160a01b031690632f22dc7b906106e290600690600401611a43565b602060405180830381865afa1580156106ff573d6000803e3d6000fd5b505050506040513d601f19601f820116820180604052508101906107239190611a51565b106107615760405162461bcd60e51b815260206004820152600e60248201526d13585e081d5cd95c881b1a5b5a5d60921b604482015260640161037a565b60085460405162f5960960e51b81526000916001600160a01b031690631eb2c1209061079290600690600401611a43565b602060405180830381865afa1580156107af573d6000803e3d6000fd5b505050506040513d601f19601f820116820180604052508101906107d39190611a6a565b6107de906001611a93565b90506040518060c00160405280826001600160401b03168152602001336001600160a01b0316815260200184815260200183815260200160405180604001604052806000815260200161082f610e45565b90528152436020918201523360009081526005825260409081902083518154938501516001600160a01b0316600160401b026001600160e01b03199094166001600160401b039091161792909217825582015160018201906108919082611b33565b50606082015160028201906108a69082611b33565b5060808201518051600383015560209081015160048084019190915560a0909301516005909201919091556001600160401b0383166000908152600790915260409081902080546001600160a01b031916339081179091556008549151639c3eead960e01b81526001600160a01b039290921692639c3eead99261092e929160069101611bf1565b600060405180830381600087803b15801561094857600080fd5b505af115801561095c573d6000803e3d6000fd5b50505050336001600160a01b0316816001600160401b03167f465f144a166d5efbf5d238fa355c743be298b6a91abf5e53628b9a87dacbe3c385436040516109a5929190611c0e565b60405180910390a3505050565b6109f96040805160c0810182526000808252602080830182905260608385018190528084015283518085019094528184528301529060808201908152602001600081525090565b6001600160a01b03808316600090815260056020908152604091829020825160c08101845281546001600160401b0381168252600160401b9004909416918401919091526001810180549192840191610a5190611ab2565b80601f0160208091040260200160405190810160405280929190818152602001828054610a7d90611ab2565b8015610aca5780601f10610a9f57610100808354040283529160200191610aca565b820191906000526020600020905b815481529060010190602001808311610aad57829003601f168201915b50505050508152602001600282018054610ae390611ab2565b80601f0160208091040260200160405190810160405280929190818152602001828054610b0f90611ab2565b8015610b5c5780601f10610b3157610100808354040283529160200191610b5c565b820191906000526020600020905b815481529060010190602001808311610b3f57829003601f168201915b505050918352505060408051808201825260038401548152600484015460208281019190915283015260059092015491015292915050565b610b9c6112b9565b61065c60006112e6565b610bae6112b9565b6001600160a01b03166000908152600160208190526040909120805460ff19169091179055565b600082600003610be757506000610c06565b60058311610bf757506001610c06565b83610c028484611c30565b1190505b9392505050565b6001600160a01b038082166000908152600560209081526040808320815160c08101835281546001600160401b0381168252600160401b9004909516928501929092526001820180549394859490939284019190610c6a90611ab2565b80601f0160208091040260200160405190810160405280929190818152602001828054610c9690611ab2565b8015610ce35780601f10610cb857610100808354040283529160200191610ce3565b820191906000526020600020905b815481529060010190602001808311610cc657829003601f168201915b50505050508152602001600282018054610cfc90611ab2565b80601f0160208091040260200160405190810160405280929190818152602001828054610d2890611ab2565b8015610d755780601f10610d4a57610100808354040283529160200191610d75565b820191906000526020600020905b815481529060010190602001808311610d5857829003601f168201915b505050918352505060408051808201825260038401548152600484015460208281019190915283015260059092015491015280519091506001600160401b0316610dc25750600092915050565b60048054600854604051632f22dc7b60e01b8152610c06936001600160a01b0390921691632f22dc7b91610df99160069101611a43565b602060405180830381865afa158015610e16573d6000803e3d6000fd5b505050506040513d601f19601f82011682018060405250810190610e3a9190611a51565b608084015151610bd5565b60095460408051637686fbcf60e11b815290516000926001600160a01b03169163ed0df79e9160048083019260209291908290030181865afa158015610e8f573d6000803e3d6000fd5b505050506040513d601f19601f82011682018060405250810190610eb39190611a51565b905090565b3360009081526001602052604090205460ff16610ee75760405162461bcd60e51b815260040161037a90611947565b600a546001600160a01b0316338114610f125760405162461bcd60e51b815260040161037a90611973565b610f1a61106c565b6103c08383611336565b610f2c6112b9565b6001600160a01b038116610f5657604051631e4fbdf760e01b81526000600482015260240161037a565b610f5f816112e6565b50565b3360009081526001602052604090205460ff16610f915760405162461bcd60e51b815260040161037a90611947565b600b546001600160a01b0316338114610fbc5760405162461bcd60e51b815260040161037a90611973565b610fc461106c565b6001600160a01b0382166000908152600560205260408120600301546004805491929091610ff3908490611c47565b90915550506009546040516310c791e560e11b81526001600160a01b038481166004830152600160248301529091169063218f23ca90604401600060405180830381600087803b15801561104657600080fd5b505af115801561105a573d6000803e3d6000fd5b505050506110686001600255565b5050565b600280540361108e57604051633ee5aeb560e01b815260040160405180910390fd5b60028055565b600854604051631292f8c160e31b81526001600160a01b0390911690639497c608906110c79060019086906004016119cc565b602060405180830381865afa1580156110e4573d6000803e3d6000fd5b505050506040513d601f19601f8201168201806040525081019061110891906119f2565b6111545760405162461bcd60e51b815260206004820152601c60248201527f41646472657373206973206e6f74206120526567656e657261746f7200000000604482015260640161037a565b60085460405163158bdc5f60e11b81526001600160a01b0384811660048301526000921690632b17b8be90602401608060405180830381865afa15801561119f573d6000803e3d6000fd5b505050506040513d601f19601f820116820180604052508101906111c39190611c5a565b6020808201516001600160a01b038082166000908152600684526040808220928916825291909352909120549192509060ff16158015611204575060038310155b156112b3576001600160a01b03818116600090815260066020908152604080832093881683529281528282208054600160ff1990911617905591517f61637469766973745f7265776172645f726567656e657261746f720000000000928101929092526bffffffffffffffffffffffff19606084811b8216603b85015287901b16604f830152906063015b6040516020818303038152906040528051906020012090506112b18282611535565b505b50505050565b6000546001600160a01b0316331461065c5760405163118cdaa760e01b815233600482015260240161037a565b600080546001600160a01b038381166001600160a01b0319831681178455604051919092169283917f8be0079c531659141344cd1fd0a4f28419497f9722a3daafe3b4186f6b6457e09190a35050565b600854604051631292f8c160e31b81526001600160a01b0390911690639497c608906113699060029086906004016119cc565b602060405180830381865afa158015611386573d6000803e3d6000fd5b505050506040513d601f19601f820116820180604052508101906113aa91906119f2565b6113f65760405162461bcd60e51b815260206004820152601a60248201527f41646472657373206973206e6f74206120496e73706563746f72000000000000604482015260640161037a565b60085460405163158bdc5f60e11b81526001600160a01b0384811660048301526000921690632b17b8be90602401608060405180830381865afa158015611441573d6000803e3d6000fd5b505050506040513d601f19601f820116820180604052508101906114659190611c5a565b6020808201516001600160a01b038082166000908152600684526040808220928916825291909352909120549192509060ff161580156114a6575060038310155b156112b3576001600160a01b03818116600090815260066020908152604080832093881683529281528282208054600160ff1990911617905591517f61637469766973745f7265776172645f696e73706563746f7200000000000000928101929092526bffffffffffffffffffffffff19606084811b8216603985015287901b16604d8301529060610161128f565b6001600160a01b0382166000908152600560205260408120805490916001600160401b03909116900361156757505050565b600380546001600160401b031690600061158083611ce1565b91906101000a8154816001600160401b0302191690836001600160401b0316021790555050600460008154809291906115b890611d0c565b90915550506003810180549060006115cf83611d0c565b9091555050600954604051630f9a28d560e11b81526001600160a01b038581166004830152600160248301526044820185905290911690631f3451aa90606401600060405180830381600087803b15801561162957600080fd5b505af115801561163d573d6000803e3d6000fd5b505050506003810154604080519182524360208301526001600160a01b038516917f36f15968a9f51192bb47c8eb232f2f6f1a17509d72befcb36e4963e541831f03910160405180910390a2505050565b6001600160a01b0381168114610f5f57600080fd5b600080604083850312156116b657600080fd5b82356116c18161168e565b946020939093013593505050565b600080604083850312156116e257600080fd5b82356116ed8161168e565b915060208301356116fd8161168e565b809150509250929050565b634e487b7160e01b600052604160045260246000fd5b600082601f83011261172f57600080fd5b81356001600160401b0381111561174857611748611708565b604051601f8201601f19908116603f011681016001600160401b038111828210171561177657611776611708565b60405281815283820160200185101561178e57600080fd5b816020850160208301376000918101602001919091529392505050565b600080604083850312156117be57600080fd5b82356001600160401b038111156117d457600080fd5b6117e08582860161171e565b92505060208301356001600160401b038111156117fc57600080fd5b6118088582860161171e565b9150509250929050565b60006020828403121561182457600080fd5b8135610c068161168e565b6000815180845260005b8181101561185557602081850181015186830182015201611839565b506000602082860101526020601f19601f83011685010191505092915050565b602081526001600160401b03825116602082015260018060a01b0360208301511660408201526000604083015160e060608401526118b761010084018261182f565b90506060840151601f198483030160808501526118d4828261182f565b9150506080840151805160a0850152602081015160c08501525060a084015160e08401528091505092915050565b60006020828403121561191457600080fd5b5035919050565b60008060006060848603121561193057600080fd5b505081359360208301359350604090920135919050565b6020808252601290820152712737ba1030b63637bbb2b21031b0b63632b960711b604082015260600190565b6020808252601e908201527f43616c6c6572206d7573742062652073797374656d20636f6e74726163740000604082015260600190565b600881106119c857634e487b7160e01b600052602160045260246000fd5b9052565b604081016119da82856119aa565b6001600160a01b039290921660209190910152919050565b600060208284031215611a0457600080fd5b81518015158114610c0657600080fd5b634e487b7160e01b600052601160045260246000fd5b80820180821115611a3d57611a3d611a14565b92915050565b60208101611a3d82846119aa565b600060208284031215611a6357600080fd5b5051919050565b600060208284031215611a7c57600080fd5b81516001600160401b0381168114610c0657600080fd5b6001600160401b038181168382160190811115611a3d57611a3d611a14565b600181811c90821680611ac657607f821691505b602082108103611ae657634e487b7160e01b600052602260045260246000fd5b50919050565b601f8211156103ca57806000526020600020601f840160051c81016020851015611b135750805b601f840160051c820191505b818110156112b15760008155600101611b1f565b81516001600160401b03811115611b4c57611b4c611708565b611b6081611b5a8454611ab2565b84611aec565b6020601f821160018114611b945760008315611b7c5750848201515b600019600385901b1c1916600184901b1784556112b1565b600084815260208120601f198516915b82811015611bc45787850151825560209485019460019092019101611ba4565b5084821015611be25786840151600019600387901b60f8161c191681555b50505050600190811b01905550565b6001600160a01b038316815260408101610c0660208301846119aa565b604081526000611c21604083018561182f565b90508260208301529392505050565b8082028115828204841417611a3d57611a3d611a14565b81810381811115611a3d57611a3d611a14565b60006080828403128015611c6d57600080fd5b50604051600090608081016001600160401b0381118282101715611c9357611c93611708565b6040528351611ca18161168e565b81526020840151611cb18161168e565b6020820152604084015160088110611cc7578283fd5b604082015260609384015193810193909352509092915050565b60006001600160401b0382166001600160401b038103611d0357611d03611a14565b60010192915050565b600060018201611d1e57611d1e611a14565b506001019056fea2646970667358221220e63d3198d717a8c20d0a0ff7e34b21a61a4399fe5e99459184f15917136f14e764736f6c634300081b0033",
  "linkReferences": {},
  "deployedLinkReferences": {}
}