{
  "_format": "hh-sol-artifact-1",
  "contractName": "ActivistRules",
  "sourceName": "contracts/ActivistRules.sol",
  "abi": [
    {
      "inputs": [
        {
          "internalType": "address",
          "name": "communityRulesAddress",
          "type": "address"
        },
        {
          "internalType": "address",
          "name": "activistPoolAddress",
          "type": "address"
        }
      ],
      "stateMutability": "nonpayable",
      "type": "constructor"
    },
    {
      "inputs": [
        {
          "internalType": "address",
          "name": "owner",
          "type": "address"
        }
      ],
      "name": "OwnableInvalidOwner",
      "type": "error"
    },
    {
      "inputs": [
        {
          "internalType": "address",
          "name": "account",
          "type": "address"
        }
      ],
      "name": "OwnableUnauthorizedAccount",
      "type": "error"
    },
    {
      "inputs": [],
      "name": "ReentrancyGuardReentrantCall",
      "type": "error"
    },
    {
      "anonymous": false,
      "inputs": [
        {
          "indexed": true,
          "internalType": "address",
          "name": "activistAddress",
          "type": "address"
        },
        {
          "indexed": false,
          "internalType": "uint256",
          "name": "newLevel",
          "type": "uint256"
        },
        {
          "indexed": false,
          "internalType": "uint256",
          "name": "blockNumber",
          "type": "uint256"
        }
      ],
      "name": "ActivistLevelIncreased",
      "type": "event"
    },
    {
      "anonymous": false,
      "inputs": [
        {
          "indexed": true,
          "internalType": "uint256",
          "name": "id",
          "type": "uint256"
        },
        {
          "indexed": true,
          "internalType": "address",
          "name": "activistAddress",
          "type": "address"
        },
        {
          "indexed": false,
          "internalType": "string",
          "name": "name",
          "type": "string"
        },
        {
          "indexed": false,
          "internalType": "uint256",
          "name": "blockNumber",
          "type": "uint256"
        }
      ],
      "name": "ActivistRegistered",
      "type": "event"
    },
    {
      "anonymous": false,
      "inputs": [
        {
          "indexed": true,
          "internalType": "address",
          "name": "activistAddress",
          "type": "address"
        },
        {
          "indexed": true,
          "internalType": "uint256",
          "name": "era",
          "type": "uint256"
        },
        {
          "indexed": false,
          "internalType": "uint256",
          "name": "blockNumber",
          "type": "uint256"
        }
      ],
      "name": "ActivistWithdrawalInitiated",
      "type": "event"
    },
    {
      "anonymous": false,
      "inputs": [
        {
          "indexed": true,
          "internalType": "address",
          "name": "previousOwner",
          "type": "address"
        },
        {
          "indexed": true,
          "internalType": "address",
          "name": "newOwner",
          "type": "address"
        }
      ],
      "name": "OwnershipTransferred",
      "type": "event"
    },
    {
      "inputs": [],
      "name": "INITIAL_USER_COUNT_THRESHOLD",
      "outputs": [
        {
          "internalType": "uint256",
          "name": "",
          "type": "uint256"
        }
      ],
      "stateMutability": "view",
      "type": "function"
    },
    {
      "inputs": [],
      "name": "MAX_USER_COUNT",
      "outputs": [
        {
          "internalType": "uint16",
          "name": "",
          "type": "uint16"
        }
      ],
      "stateMutability": "view",
      "type": "function"
    },
    {
      "inputs": [],
      "name": "MINIMUM_INSPECTIONS_TO_WON_POOL_LEVELS",
      "outputs": [
        {
          "internalType": "uint16",
          "name": "",
          "type": "uint16"
        }
      ],
      "stateMutability": "view",
      "type": "function"
    },
    {
      "inputs": [
        {
          "internalType": "uint256",
          "name": "",
          "type": "uint256"
        }
      ],
      "name": "activistsAddress",
      "outputs": [
        {
          "internalType": "address",
          "name": "",
          "type": "address"
        }
      ],
      "stateMutability": "view",
      "type": "function"
    },
    {
      "inputs": [
        {
          "internalType": "string",
          "name": "name",
          "type": "string"
        },
        {
          "internalType": "string",
          "name": "proofPhoto",
          "type": "string"
        }
      ],
      "name": "addActivist",
      "outputs": [],
      "stateMutability": "nonpayable",
      "type": "function"
    },
    {
      "inputs": [
        {
          "internalType": "address",
          "name": "inspectorAddress",
          "type": "address"
        },
        {
          "internalType": "uint256",
          "name": "inspectorTotalInspections",
          "type": "uint256"
        }
      ],
      "name": "addInspectorLevel",
      "outputs": [],
      "stateMutability": "nonpayable",
      "type": "function"
    },
    {
      "inputs": [
        {
          "internalType": "address",
          "name": "regeneratorAddress",
          "type": "address"
        },
        {
          "internalType": "uint256",
          "name": "regeneratorTotalInspections",
          "type": "uint256"
        }
      ],
      "name": "addRegeneratorLevel",
      "outputs": [],
      "stateMutability": "nonpayable",
      "type": "function"
    },
    {
      "inputs": [
        {
          "internalType": "address",
          "name": "",
          "type": "address"
        }
      ],
      "name": "allowedCallers",
      "outputs": [
        {
          "internalType": "bool",
          "name": "",
          "type": "bool"
        }
      ],
      "stateMutability": "view",
      "type": "function"
    },
    {
      "inputs": [],
      "name": "approvedInvites",
      "outputs": [
        {
          "internalType": "uint64",
          "name": "",
          "type": "uint64"
        }
      ],
      "stateMutability": "view",
      "type": "function"
    },
    {
      "inputs": [
        {
          "internalType": "uint256",
          "name": "totalLevels",
          "type": "uint256"
        },
        {
          "internalType": "uint256",
          "name": "totalUsers",
          "type": "uint256"
        },
        {
          "internalType": "uint256",
          "name": "userLevels",
          "type": "uint256"
        }
      ],
      "name": "canInvite",
      "outputs": [
        {
          "internalType": "bool",
          "name": "",
          "type": "bool"
        }
      ],
      "stateMutability": "pure",
      "type": "function"
    },
    {
      "inputs": [
        {
          "internalType": "address",
          "name": "addr",
          "type": "address"
        }
      ],
      "name": "canSendInvite",
      "outputs": [
        {
          "internalType": "bool",
          "name": "",
          "type": "bool"
        }
      ],
      "stateMutability": "view",
      "type": "function"
    },
    {
      "inputs": [
        {
          "internalType": "address",
          "name": "addr",
          "type": "address"
        }
      ],
      "name": "getActivist",
      "outputs": [
        {
          "components": [
            {
              "internalType": "uint64",
              "name": "id",
              "type": "uint64"
            },
            {
              "internalType": "address",
              "name": "activistWallet",
              "type": "address"
            },
            {
              "internalType": "string",
              "name": "name",
              "type": "string"
            },
            {
              "internalType": "string",
              "name": "proofPhoto",
              "type": "string"
            },
            {
              "components": [
                {
                  "internalType": "uint256",
                  "name": "level",
                  "type": "uint256"
                },
                {
                  "internalType": "uint256",
                  "name": "currentEra",
                  "type": "uint256"
                }
              ],
              "internalType": "struct Pool",
              "name": "pool",
              "type": "tuple"
            },
            {
              "internalType": "uint256",
              "name": "createdAt",
              "type": "uint256"
            }
          ],
          "internalType": "struct Activist",
          "name": "",
          "type": "tuple"
        }
      ],
      "stateMutability": "view",
      "type": "function"
    },
    {
      "inputs": [
        {
          "internalType": "address",
          "name": "caller",
          "type": "address"
        }
      ],
      "name": "isAllowedCaller",
      "outputs": [
        {
          "internalType": "bool",
          "name": "",
          "type": "bool"
        }
      ],
      "stateMutability": "view",
      "type": "function"
    },
    {
      "inputs": [
        {
          "internalType": "address",
          "name": "allowed",
          "type": "address"
        }
      ],
      "name": "newAllowedCaller",
      "outputs": [],
      "stateMutability": "nonpayable",
      "type": "function"
    },
    {
      "inputs": [],
      "name": "owner",
      "outputs": [
        {
          "internalType": "address",
          "name": "",
          "type": "address"
        }
      ],
      "stateMutability": "view",
      "type": "function"
    },
    {
      "inputs": [],
      "name": "poolCurrentEra",
      "outputs": [
        {
          "internalType": "uint256",
          "name": "",
          "type": "uint256"
        }
      ],
      "stateMutability": "view",
      "type": "function"
    },
    {
      "inputs": [
        {
          "internalType": "address",
          "name": "addr",
          "type": "address"
        }
      ],
      "name": "removePoolLevels",
      "outputs": [],
      "stateMutability": "nonpayable",
      "type": "function"
    },
    {
      "inputs": [],
      "name": "renounceOwnership",
      "outputs": [],
      "stateMutability": "nonpayable",
      "type": "function"
    },
    {
      "inputs": [
        {
          "internalType": "address",
          "name": "_inspectionRulesAddress",
          "type": "address"
        },
        {
          "internalType": "address",
          "name": "_validationRulesAddress",
          "type": "address"
        }
      ],
      "name": "setContractCall",
      "outputs": [],
      "stateMutability": "nonpayable",
      "type": "function"
    },
    {
      "inputs": [
        {
          "internalType": "address",
          "name": "newOwner",
          "type": "address"
        }
      ],
      "name": "transferOwnership",
      "outputs": [],
      "stateMutability": "nonpayable",
      "type": "function"
    },
    {
      "inputs": [],
      "name": "withdraw",
      "outputs": [],
      "stateMutability": "nonpayable",
      "type": "function"
    }
  ],
  "bytecode": "0x608060405234801561001057600080fd5b50604051611e76380380611e7683398101604081905261002f91610101565b338061005557604051631e4fbdf760e01b81526000600482015260240160405180910390fd5b61005e81610095565b506001600255600780546001600160a01b039384166001600160a01b03199182161790915560088054929093169116179055610134565b600080546001600160a01b038381166001600160a01b0319831681178455604051919092169283917f8be0079c531659141344cd1fd0a4f28419497f9722a3daafe3b4186f6b6457e09190a35050565b80516001600160a01b03811681146100fc57600080fd5b919050565b6000806040838503121561011457600080fd5b61011d836100e5565b915061012b602084016100e5565b90509250929050565b611d33806101436000396000f3fe608060405234801561001057600080fd5b50600436106101365760003560e01c80638da5cb5b116100b8578063be9dc5841161007c578063be9dc584146102cd578063c77c1ce6146102e3578063e05cf155146102f6578063f1a204ce146102fe578063f2fde38b14610311578063f92f0f8e1461032457600080fd5b80638da5cb5b1461022d5780638f93716f146102525780639d3c50b2146102655780639eaf666f1461028e578063a6801258146102a157600080fd5b80635fbf8a69116100ff5780635fbf8a69146101b657806362efeff7146101c95780636ec7053a146101e9578063715018a6146101f25780637b334154146101fa57600080fd5b8062b2c9201461013b57806304521ca31461015057806320515231146101635780633ccfd60b14610183578063430816aa1461018b575b600080fd5b61014e61014936600461168e565b610337565b005b61014e61015e3660046116ba565b6103bb565b61016b600381565b60405161ffff90911681526020015b60405180910390f35b61014e6103f1565b60035461019e906001600160401b031681565b6040516001600160401b03909116815260200161017a565b61014e6101c4366004611796565b61064e565b6101dc6101d73660046117fd565b6109a1565b60405161017a9190611860565b61016b613e8081565b61014e610b83565b61021d6102083660046117fd565b60016020526000908152604090205460ff1681565b604051901515815260200161017a565b6000546001600160a01b03165b6040516001600160a01b03909116815260200161017a565b61014e6102603660046117fd565b610b95565b61023a6102733660046118ed565b6006602052600090815260409020546001600160a01b031681565b61021d61029c366004611906565b610bc4565b61021d6102af3660046117fd565b6001600160a01b031660009081526001602052604090205460ff1690565b6102d5600581565b60405190815260200161017a565b61021d6102f13660046117fd565b610bfc565b6102d5610e48565b61014e61030c36600461168e565b610ebb565b61014e61031f3660046117fd565b610f27565b61014e6103323660046117fd565b610f65565b3360009081526001602052604090205460ff1661036f5760405162461bcd60e51b815260040161036690611932565b60405180910390fd5b6009546001600160a01b031633811461039a5760405162461bcd60e51b81526004016103669061195e565b6103a261103b565b6103ac8383611063565b6103b66001600255565b505050565b6103c36112c1565b600980546001600160a01b039384166001600160a01b031991821617909155600a8054929093169116179055565b6103f961103b565b600754604051631292f8c160e31b81526001600160a01b0390911690639497c6089061042c9060069033906004016119b7565b602060405180830381865afa158015610449573d6000803e3d6000fd5b505050506040513d601f19601f8201168201806040525081019061046d91906119dd565b6104b15760405162461bcd60e51b8152602060048201526015602482015274141bdbdb081bdb9b1e481d1bc81858dd1a5d9a5cdd605a1b6044820152606401610366565b33600090815260046020819052604091829020808201546008549351637df42f8360e11b8152928301819052909290916001600160a01b039091169063fbe85f0690602401602060405180830381865afa158015610513573d6000803e3d6000fd5b505050506040513d601f19601f8201168201806040525081019061053791906119dd565b6105915760405162461bcd60e51b815260206004820152602560248201527f4e6f7420656c696769626c6520746f20776974686472617720666f7220746869604482015264732065726160d81b6064820152608401610366565b61059c816001611a15565b60048381019190915560085460405163f3fef3a360e01b81523392810192909252602482018390526001600160a01b03169063f3fef3a390604401600060405180830381600087803b1580156105f157600080fd5b505af1158015610605573d6000803e3d6000fd5b50506040514381528392503391507fb81f4acc0377f571ab134a4bbbd3747583189d714f31efcea075ae6d4c1d72da9060200160405180910390a3505061064c6001600255565b565b815160321080159061066257508051609610155b61069f5760405162461bcd60e51b815260206004820152600e60248201526d4d6178206368617261637465727360901b6044820152606401610366565b600754604051632f22dc7b60e01b8152613e80916001600160a01b031690632f22dc7b906106d290600690600401611a2e565b602060405180830381865afa1580156106ef573d6000803e3d6000fd5b505050506040513d601f19601f820116820180604052508101906107139190611a3c565b106107515760405162461bcd60e51b815260206004820152600e60248201526d13585e081d5cd95c881b1a5b5a5d60921b6044820152606401610366565b60075460405162f5960960e51b81526000916001600160a01b031690631eb2c1209061078290600690600401611a2e565b602060405180830381865afa15801561079f573d6000803e3d6000fd5b505050506040513d601f19601f820116820180604052508101906107c39190611a55565b6107ce906001611a7e565b90506040518060c00160405280826001600160401b03168152602001336001600160a01b0316815260200184815260200183815260200160405180604001604052806000815260200161081f610e48565b90528152436020918201523360009081526004825260409081902083518154938501516001600160a01b0316600160401b026001600160e01b03199094166001600160401b039091161792909217825582015160018201906108819082611b1e565b50606082015160028201906108969082611b1e565b5060808201518051600383015560209081015160048084019190915560a0909301516005909201919091556001600160401b038316600090815260069182905260409081902080546001600160a01b031916339081179091556007549151639c3eead960e01b81526001600160a01b039290921693639c3eead99361091d93909101611bdc565b600060405180830381600087803b15801561093757600080fd5b505af115801561094b573d6000803e3d6000fd5b50505050336001600160a01b0316816001600160401b03167f465f144a166d5efbf5d238fa355c743be298b6a91abf5e53628b9a87dacbe3c38543604051610994929190611bf9565b60405180910390a3505050565b6109e86040805160c0810182526000808252602080830182905260608385018190528084015283518085019094528184528301529060808201908152602001600081525090565b6001600160a01b03808316600090815260046020908152604091829020825160c08101845281546001600160401b0381168252600160401b9004909416918401919091526001810180549192840191610a4090611a9d565b80601f0160208091040260200160405190810160405280929190818152602001828054610a6c90611a9d565b8015610ab95780601f10610a8e57610100808354040283529160200191610ab9565b820191906000526020600020905b815481529060010190602001808311610a9c57829003601f168201915b50505050508152602001600282018054610ad290611a9d565b80601f0160208091040260200160405190810160405280929190818152602001828054610afe90611a9d565b8015610b4b5780601f10610b2057610100808354040283529160200191610b4b565b820191906000526020600020905b815481529060010190602001808311610b2e57829003601f168201915b505050918352505060408051808201825260038401548152600484015460208281019190915283015260059092015491015292915050565b610b8b6112c1565b61064c60006112ee565b610b9d6112c1565b6001600160a01b03166000908152600160208190526040909120805460ff19169091179055565b600060058311610bd657506001610bf5565b82600003610be657506000610bf5565b83610bf18484611c1b565b1190505b9392505050565b6001600160a01b038082166000908152600460209081526040808320815160c08101835281546001600160401b0381168252600160401b9004909516928501929092526001820180549394859490939284019190610c5990611a9d565b80601f0160208091040260200160405190810160405280929190818152602001828054610c8590611a9d565b8015610cd25780601f10610ca757610100808354040283529160200191610cd2565b820191906000526020600020905b815481529060010190602001808311610cb557829003601f168201915b50505050508152602001600282018054610ceb90611a9d565b80601f0160208091040260200160405190810160405280929190818152602001828054610d1790611a9d565b8015610d645780601f10610d3957610100808354040283529160200191610d64565b820191906000526020600020905b815481529060010190602001808311610d4757829003601f168201915b505050918352505060408051808201825260038401548152600484015460208281019190915283015260059092015491015280519091506001600160401b0316610db15750600092915050565b60035460075460405162f5960960e51b8152610bf5926001600160401b0316916001600160a01b031690631eb2c12090610df090600690600401611a2e565b602060405180830381865afa158015610e0d573d6000803e3d6000fd5b505050506040513d601f19601f82011682018060405250810190610e319190611a55565b6001600160401b0316836080015160000151610bc4565b60085460408051637686fbcf60e11b815290516000926001600160a01b03169163ed0df79e9160048083019260209291908290030181865afa158015610e92573d6000803e3d6000fd5b505050506040513d601f19601f82011682018060405250810190610eb69190611a3c565b905090565b3360009081526001602052604090205460ff16610eea5760405162461bcd60e51b815260040161036690611932565b6009546001600160a01b0316338114610f155760405162461bcd60e51b81526004016103669061195e565b610f1d61103b565b6103ac838361133e565b610f2f6112c1565b6001600160a01b038116610f5957604051631e4fbdf760e01b815260006004820152602401610366565b610f62816112ee565b50565b3360009081526001602052604090205460ff16610f945760405162461bcd60e51b815260040161036690611932565b600a546001600160a01b0316338114610fbf5760405162461bcd60e51b81526004016103669061195e565b610fc761103b565b6008546040516310c791e560e11b81526001600160a01b038481166004830152600160248301529091169063218f23ca90604401600060405180830381600087803b15801561101557600080fd5b505af1158015611029573d6000803e3d6000fd5b505050506110376001600255565b5050565b600280540361105d57604051633ee5aeb560e01b815260040160405180910390fd5b60028055565b600754604051631292f8c160e31b81526001600160a01b0390911690639497c608906110969060019086906004016119b7565b602060405180830381865afa1580156110b3573d6000803e3d6000fd5b505050506040513d601f19601f820116820180604052508101906110d791906119dd565b6111235760405162461bcd60e51b815260206004820152601c60248201527f41646472657373206973206e6f74206120526567656e657261746f72000000006044820152606401610366565b60075460405163158bdc5f60e11b81526001600160a01b0384811660048301526000921690632b17b8be90602401608060405180830381865afa15801561116e573d6000803e3d6000fd5b505050506040513d601f19601f820116820180604052508101906111929190611c32565b6020808201516001600160a01b038082166000908152600584526040808220928916825291909352909120549192509060ff161580156111d3575060038310155b156112bb576001600160a01b0380821660009081526005602090815260408083209388168352929052908120805460ff19166001179055600380546001600160401b03169161122183611cb9565b82546001600160401b039182166101009390930a9283029190920219909116179055506040517f61637469766973745f7265776172645f726567656e657261746f72000000000060208201526bffffffffffffffffffffffff19606083811b8216603b84015286901b16604f8201526000906063015b6040516020818303038152906040528051906020012090506112b98282611576565b505b50505050565b6000546001600160a01b0316331461064c5760405163118cdaa760e01b8152336004820152602401610366565b600080546001600160a01b038381166001600160a01b0319831681178455604051919092169283917f8be0079c531659141344cd1fd0a4f28419497f9722a3daafe3b4186f6b6457e09190a35050565b600754604051631292f8c160e31b81526001600160a01b0390911690639497c608906113719060029086906004016119b7565b602060405180830381865afa15801561138e573d6000803e3d6000fd5b505050506040513d601f19601f820116820180604052508101906113b291906119dd565b6113fe5760405162461bcd60e51b815260206004820152601a60248201527f41646472657373206973206e6f74206120496e73706563746f720000000000006044820152606401610366565b60075460405163158bdc5f60e11b81526001600160a01b0384811660048301526000921690632b17b8be90602401608060405180830381865afa158015611449573d6000803e3d6000fd5b505050506040513d601f19601f8201168201806040525081019061146d9190611c32565b6020808201516001600160a01b038082166000908152600584526040808220928916825291909352909120549192509060ff161580156114ae575060038310155b156112bb576001600160a01b0380821660009081526005602090815260408083209388168352929052908120805460ff19166001179055600380546001600160401b0316916114fc83611cb9565b82546001600160401b039182166101009390930a9283029190920219909116179055506040517f61637469766973745f7265776172645f696e73706563746f720000000000000060208201526bffffffffffffffffffffffff19606083811b8216603984015286901b16604d820152600090606101611297565b6001600160a01b0382166000908152600460205260408120805490916001600160401b0390911690036115a857505050565b6003810180549060006115ba83611ce4565b9091555050600854604051630f9a28d560e11b81526001600160a01b038581166004830152600160248301526044820185905290911690631f3451aa90606401600060405180830381600087803b15801561161457600080fd5b505af1158015611628573d6000803e3d6000fd5b505050506003810154604080519182524360208301526001600160a01b038516917f36f15968a9f51192bb47c8eb232f2f6f1a17509d72befcb36e4963e541831f03910160405180910390a2505050565b6001600160a01b0381168114610f6257600080fd5b600080604083850312156116a157600080fd5b82356116ac81611679565b946020939093013593505050565b600080604083850312156116cd57600080fd5b82356116d881611679565b915060208301356116e881611679565b809150509250929050565b634e487b7160e01b600052604160045260246000fd5b600082601f83011261171a57600080fd5b81356001600160401b03811115611733576117336116f3565b604051601f8201601f19908116603f011681016001600160401b0381118282101715611761576117616116f3565b60405281815283820160200185101561177957600080fd5b816020850160208301376000918101602001919091529392505050565b600080604083850312156117a957600080fd5b82356001600160401b038111156117bf57600080fd5b6117cb85828601611709565b92505060208301356001600160401b038111156117e757600080fd5b6117f385828601611709565b9150509250929050565b60006020828403121561180f57600080fd5b8135610bf581611679565b6000815180845260005b8181101561184057602081850181015186830182015201611824565b506000602082860101526020601f19601f83011685010191505092915050565b602081526001600160401b03825116602082015260018060a01b0360208301511660408201526000604083015160e060608401526118a261010084018261181a565b90506060840151601f198483030160808501526118bf828261181a565b9150506080840151805160a0850152602081015160c08501525060a084015160e08401528091505092915050565b6000602082840312156118ff57600080fd5b5035919050565b60008060006060848603121561191b57600080fd5b505081359360208301359350604090920135919050565b6020808252601290820152712737ba1030b63637bbb2b21031b0b63632b960711b604082015260600190565b6020808252601e908201527f43616c6c6572206d7573742062652073797374656d20636f6e74726163740000604082015260600190565b600881106119b357634e487b7160e01b600052602160045260246000fd5b9052565b604081016119c58285611995565b6001600160a01b039290921660209190910152919050565b6000602082840312156119ef57600080fd5b81518015158114610bf557600080fd5b634e487b7160e01b600052601160045260246000fd5b80820180821115611a2857611a286119ff565b92915050565b60208101611a288284611995565b600060208284031215611a4e57600080fd5b5051919050565b600060208284031215611a6757600080fd5b81516001600160401b0381168114610bf557600080fd5b6001600160401b038181168382160190811115611a2857611a286119ff565b600181811c90821680611ab157607f821691505b602082108103611ad157634e487b7160e01b600052602260045260246000fd5b50919050565b601f8211156103b657806000526020600020601f840160051c81016020851015611afe5750805b601f840160051c820191505b818110156112b95760008155600101611b0a565b81516001600160401b03811115611b3757611b376116f3565b611b4b81611b458454611a9d565b84611ad7565b6020601f821160018114611b7f5760008315611b675750848201515b600019600385901b1c1916600184901b1784556112b9565b600084815260208120601f198516915b82811015611baf5787850151825560209485019460019092019101611b8f565b5084821015611bcd5786840151600019600387901b60f8161c191681555b50505050600190811b01905550565b6001600160a01b038316815260408101610bf56020830184611995565b604081526000611c0c604083018561181a565b90508260208301529392505050565b8082028115828204841417611a2857611a286119ff565b60006080828403128015611c4557600080fd5b50604051600090608081016001600160401b0381118282101715611c6b57611c6b6116f3565b6040528351611c7981611679565b81526020840151611c8981611679565b6020820152604084015160088110611c9f578283fd5b604082015260609384015193810193909352509092915050565b60006001600160401b0382166001600160401b038103611cdb57611cdb6119ff565b60010192915050565b600060018201611cf657611cf66119ff565b506001019056fea264697066735822122012537a8e8a164754b96263fda7c421c70ce17ecad6a927e945433870eb0097ad64736f6c634300081b0033",
  "linkReferences": {},
  "deployedLinkReferences": {}
}