{
  "_format": "hh-sol-artifact-1",
  "contractName": "ActivistRules",
  "sourceName": "contracts/ActivistRules.sol",
  "abi": [
    {
      "inputs": [
        {
          "internalType": "address",
          "name": "communityRulesAddress",
          "type": "address"
        },
        {
          "internalType": "address",
          "name": "activistPoolAddress",
          "type": "address"
        }
      ],
      "stateMutability": "nonpayable",
      "type": "constructor"
    },
    {
      "anonymous": false,
      "inputs": [
        {
          "indexed": true,
          "internalType": "address",
          "name": "activistAddress",
          "type": "address"
        },
        {
          "indexed": false,
          "internalType": "uint256",
          "name": "newLevel",
          "type": "uint256"
        },
        {
          "indexed": false,
          "internalType": "uint256",
          "name": "blockNumber",
          "type": "uint256"
        }
      ],
      "name": "ActivistLevelIncreased",
      "type": "event"
    },
    {
      "anonymous": false,
      "inputs": [
        {
          "indexed": true,
          "internalType": "address",
          "name": "activistAddress",
          "type": "address"
        },
        {
          "indexed": false,
          "internalType": "uint256",
          "name": "levelsRemoved",
          "type": "uint256"
        },
        {
          "indexed": false,
          "internalType": "uint256",
          "name": "newLevel",
          "type": "uint256"
        },
        {
          "indexed": false,
          "internalType": "uint256",
          "name": "blockNumber",
          "type": "uint256"
        }
      ],
      "name": "ActivistLevelRemoved",
      "type": "event"
    },
    {
      "anonymous": false,
      "inputs": [
        {
          "indexed": true,
          "internalType": "uint256",
          "name": "id",
          "type": "uint256"
        },
        {
          "indexed": true,
          "internalType": "address",
          "name": "activistAddress",
          "type": "address"
        },
        {
          "indexed": false,
          "internalType": "string",
          "name": "name",
          "type": "string"
        },
        {
          "indexed": false,
          "internalType": "uint256",
          "name": "blockNumber",
          "type": "uint256"
        }
      ],
      "name": "ActivistRegistered",
      "type": "event"
    },
    {
      "anonymous": false,
      "inputs": [
        {
          "indexed": true,
          "internalType": "address",
          "name": "activistAddress",
          "type": "address"
        },
        {
          "indexed": true,
          "internalType": "uint256",
          "name": "era",
          "type": "uint256"
        },
        {
          "indexed": false,
          "internalType": "uint256",
          "name": "blockNumber",
          "type": "uint256"
        }
      ],
      "name": "ActivistWithdrawalInitiated",
      "type": "event"
    },
    {
      "anonymous": false,
      "inputs": [
        {
          "indexed": true,
          "internalType": "address",
          "name": "activistAddress",
          "type": "address"
        },
        {
          "indexed": true,
          "internalType": "address",
          "name": "invitedUserAddress",
          "type": "address"
        },
        {
          "indexed": false,
          "internalType": "uint256",
          "name": "invitedUserTotalInspections",
          "type": "uint256"
        },
        {
          "indexed": false,
          "internalType": "uint256",
          "name": "blockNumber",
          "type": "uint256"
        }
      ],
      "name": "LevelWonFromInvitedUser",
      "type": "event"
    },
    {
      "anonymous": false,
      "inputs": [
        {
          "indexed": true,
          "internalType": "address",
          "name": "previousOwner",
          "type": "address"
        },
        {
          "indexed": true,
          "internalType": "address",
          "name": "newOwner",
          "type": "address"
        }
      ],
      "name": "OwnershipTransferred",
      "type": "event"
    },
    {
      "inputs": [],
      "name": "INITIAL_USER_COUNT_THRESHOLD",
      "outputs": [
        {
          "internalType": "uint256",
          "name": "",
          "type": "uint256"
        }
      ],
      "stateMutability": "view",
      "type": "function"
    },
    {
      "inputs": [],
      "name": "MAX_USER_COUNT",
      "outputs": [
        {
          "internalType": "uint16",
          "name": "",
          "type": "uint16"
        }
      ],
      "stateMutability": "view",
      "type": "function"
    },
    {
      "inputs": [],
      "name": "MINIMUM_INSPECTIONS_TO_WON_POOL_LEVELS",
      "outputs": [
        {
          "internalType": "uint16",
          "name": "",
          "type": "uint16"
        }
      ],
      "stateMutability": "view",
      "type": "function"
    },
    {
      "inputs": [
        {
          "internalType": "uint256",
          "name": "",
          "type": "uint256"
        }
      ],
      "name": "activistsAddress",
      "outputs": [
        {
          "internalType": "address",
          "name": "",
          "type": "address"
        }
      ],
      "stateMutability": "view",
      "type": "function"
    },
    {
      "inputs": [
        {
          "internalType": "string",
          "name": "name",
          "type": "string"
        },
        {
          "internalType": "string",
          "name": "proofPhoto",
          "type": "string"
        }
      ],
      "name": "addActivist",
      "outputs": [],
      "stateMutability": "nonpayable",
      "type": "function"
    },
    {
      "inputs": [
        {
          "internalType": "address",
          "name": "inspectorAddress",
          "type": "address"
        },
        {
          "internalType": "uint256",
          "name": "inspectorTotalInspections",
          "type": "uint256"
        }
      ],
      "name": "addInspectorLevel",
      "outputs": [],
      "stateMutability": "nonpayable",
      "type": "function"
    },
    {
      "inputs": [
        {
          "internalType": "address",
          "name": "regeneratorAddress",
          "type": "address"
        },
        {
          "internalType": "uint256",
          "name": "regeneratorTotalInspections",
          "type": "uint256"
        }
      ],
      "name": "addRegeneratorLevel",
      "outputs": [],
      "stateMutability": "nonpayable",
      "type": "function"
    },
    {
      "inputs": [
        {
          "internalType": "address",
          "name": "",
          "type": "address"
        }
      ],
      "name": "allowedCallers",
      "outputs": [
        {
          "internalType": "bool",
          "name": "",
          "type": "bool"
        }
      ],
      "stateMutability": "view",
      "type": "function"
    },
    {
      "inputs": [],
      "name": "approvedInvites",
      "outputs": [
        {
          "internalType": "uint32",
          "name": "",
          "type": "uint32"
        }
      ],
      "stateMutability": "view",
      "type": "function"
    },
    {
      "inputs": [
        {
          "internalType": "uint256",
          "name": "totalLevels",
          "type": "uint256"
        },
        {
          "internalType": "uint256",
          "name": "totalUsers",
          "type": "uint256"
        },
        {
          "internalType": "uint256",
          "name": "userLevels",
          "type": "uint256"
        }
      ],
      "name": "canInvite",
      "outputs": [
        {
          "internalType": "bool",
          "name": "",
          "type": "bool"
        }
      ],
      "stateMutability": "pure",
      "type": "function"
    },
    {
      "inputs": [
        {
          "internalType": "address",
          "name": "addr",
          "type": "address"
        }
      ],
      "name": "canSendInvite",
      "outputs": [
        {
          "internalType": "bool",
          "name": "",
          "type": "bool"
        }
      ],
      "stateMutability": "view",
      "type": "function"
    },
    {
      "inputs": [
        {
          "internalType": "address",
          "name": "addr",
          "type": "address"
        }
      ],
      "name": "getActivist",
      "outputs": [
        {
          "components": [
            {
              "internalType": "uint64",
              "name": "id",
              "type": "uint64"
            },
            {
              "internalType": "address",
              "name": "activistWallet",
              "type": "address"
            },
            {
              "internalType": "string",
              "name": "name",
              "type": "string"
            },
            {
              "internalType": "string",
              "name": "proofPhoto",
              "type": "string"
            },
            {
              "components": [
                {
                  "internalType": "uint256",
                  "name": "level",
                  "type": "uint256"
                },
                {
                  "internalType": "uint256",
                  "name": "currentEra",
                  "type": "uint256"
                }
              ],
              "internalType": "struct Pool",
              "name": "pool",
              "type": "tuple"
            },
            {
              "internalType": "uint256",
              "name": "createdAt",
              "type": "uint256"
            }
          ],
          "internalType": "struct Activist",
          "name": "",
          "type": "tuple"
        }
      ],
      "stateMutability": "view",
      "type": "function"
    },
    {
      "inputs": [
        {
          "internalType": "address",
          "name": "caller",
          "type": "address"
        }
      ],
      "name": "isAllowedCaller",
      "outputs": [
        {
          "internalType": "bool",
          "name": "",
          "type": "bool"
        }
      ],
      "stateMutability": "view",
      "type": "function"
    },
    {
      "inputs": [
        {
          "internalType": "address",
          "name": "allowed",
          "type": "address"
        }
      ],
      "name": "newAllowedCaller",
      "outputs": [],
      "stateMutability": "nonpayable",
      "type": "function"
    },
    {
      "inputs": [],
      "name": "owner",
      "outputs": [
        {
          "internalType": "address",
          "name": "",
          "type": "address"
        }
      ],
      "stateMutability": "view",
      "type": "function"
    },
    {
      "inputs": [],
      "name": "poolCurrentEra",
      "outputs": [
        {
          "internalType": "uint256",
          "name": "",
          "type": "uint256"
        }
      ],
      "stateMutability": "view",
      "type": "function"
    },
    {
      "inputs": [
        {
          "internalType": "address",
          "name": "addr",
          "type": "address"
        },
        {
          "internalType": "uint256",
          "name": "levelsToRemove",
          "type": "uint256"
        }
      ],
      "name": "removePoolLevels",
      "outputs": [],
      "stateMutability": "nonpayable",
      "type": "function"
    },
    {
      "inputs": [],
      "name": "renounceOwnership",
      "outputs": [],
      "stateMutability": "nonpayable",
      "type": "function"
    },
    {
      "inputs": [
        {
          "internalType": "address",
          "name": "newOwner",
          "type": "address"
        }
      ],
      "name": "transferOwnership",
      "outputs": [],
      "stateMutability": "nonpayable",
      "type": "function"
    },
    {
      "inputs": [],
      "name": "withdraw",
      "outputs": [],
      "stateMutability": "nonpayable",
      "type": "function"
    }
  ],
  "bytecode": "0x608060405234801561001057600080fd5b50604051611ab2380380611ab283398101604081905261002f916100da565b6100383361006e565b6001600255600780546001600160a01b039384166001600160a01b0319918216179091556008805492909316911617905561010d565b600080546001600160a01b038381166001600160a01b0319831681178455604051919092169283917f8be0079c531659141344cd1fd0a4f28419497f9722a3daafe3b4186f6b6457e09190a35050565b80516001600160a01b03811681146100d557600080fd5b919050565b600080604083850312156100ed57600080fd5b6100f6836100be565b9150610104602084016100be565b90509250929050565b6119968061011c6000396000f3fe608060405234801561001057600080fd5b506004361061012b5760003560e01c80638da5cb5b116100ad578063be9dc58411610071578063be9dc584146102bc578063c77c1ce6146102d2578063e05cf155146102e5578063f1a204ce14610130578063f2fde38b146102ed57600080fd5b80638da5cb5b1461021c5780638f93716f146102415780639d3c50b2146102545780639eaf666f1461027d578063a68012581461029057600080fd5b80635fbf8a69116100f45780635fbf8a69146101a557806362efeff7146101b85780636ec7053a146101d8578063715018a6146101e15780637b334154146101e957600080fd5b8062b2c9201461013057806318ad5c9a1461014557806320515231146101585780633ccfd60b14610178578063430816aa14610180575b600080fd5b61014361013e366004611373565b610300565b005b610143610153366004611373565b610379565b610160600381565b60405161ffff90911681526020015b60405180910390f35b6101436104d9565b6003546101909063ffffffff1681565b60405163ffffffff909116815260200161016f565b6101436101b3366004611442565b610736565b6101cb6101c63660046114a9565b610a8a565b60405161016f919061150c565b610160613e8081565b610143610c6c565b61020c6101f73660046114a9565b60016020526000908152604090205460ff1681565b604051901515815260200161016f565b6000546001600160a01b03165b6040516001600160a01b03909116815260200161016f565b61014361024f3660046114a9565b610c7e565b610229610262366004611599565b6006602052600090815260409020546001600160a01b031681565b61020c61028b3660046115b2565b610cad565b61020c61029e3660046114a9565b6001600160a01b031660009081526001602052604090205460ff1690565b6102c4600581565b60405190815260200161016f565b61020c6102e03660046114a9565b610ce4565b6102c4610f2d565b6101436102fb3660046114a9565b610fa0565b3360009081526001602052604090205460ff166103595760405162461bcd60e51b81526020600482015260126024820152712737ba1030b63637bbb2b21031b0b63632b960711b60448201526064015b60405180910390fd5b610361611019565b61036b8282611070565b6103756001600255565b5050565b3360009081526001602052604090205460ff166103cd5760405162461bcd60e51b81526020600482015260126024820152712737ba1030b63637bbb2b21031b0b63632b960711b6044820152606401610350565b6103d5611019565b6001600160a01b0382166000908152600460205260409020816103fc5760038101546103fe565b815b6003820180546000906104129084906115f4565b9091555050600854604051630c56ae4d60e11b81526001600160a01b03858116600483015260248201859052909116906318ad5c9a90604401600060405180830381600087803b15801561046557600080fd5b505af1158015610479573d6000803e3d6000fd5b505050600382015460408051858152602081019290925243908201526001600160a01b03851691507f91fb82506cd586644a295f8280b2511c9032bb1f360432516f881485c06e20309060600160405180910390a2506103756001600255565b6104e1611019565b600754604051631292f8c160e31b81526001600160a01b0390911690639497c60890610514906006903390600401611629565b602060405180830381865afa158015610531573d6000803e3d6000fd5b505050506040513d601f19601f82011682018060405250810190610555919061164f565b6105995760405162461bcd60e51b8152602060048201526015602482015274141bdbdb081bdb9b1e481d1bc81858dd1a5d9a5cdd605a1b6044820152606401610350565b33600090815260046020819052604091829020808201546008549351637df42f8360e11b8152928301819052909290916001600160a01b039091169063fbe85f0690602401602060405180830381865afa1580156105fb573d6000803e3d6000fd5b505050506040513d601f19601f8201168201806040525081019061061f919061164f565b6106795760405162461bcd60e51b815260206004820152602560248201527f4e6f7420656c696769626c6520746f20776974686472617720666f7220746869604482015264732065726160d81b6064820152608401610350565b610684816001611671565b60048381019190915560085460405163f3fef3a360e01b81523392810192909252602482018390526001600160a01b03169063f3fef3a390604401600060405180830381600087803b1580156106d957600080fd5b505af11580156106ed573d6000803e3d6000fd5b50506040514381528392503391507fb81f4acc0377f571ab134a4bbbd3747583189d714f31efcea075ae6d4c1d72da9060200160405180910390a350506107346001600255565b565b815160321080159061074a57508051609610155b6107875760405162461bcd60e51b815260206004820152600e60248201526d4d6178206368617261637465727360901b6044820152606401610350565b600754604051632f22dc7b60e01b8152613e80916001600160a01b031690632f22dc7b906107ba90600690600401611684565b602060405180830381865afa1580156107d7573d6000803e3d6000fd5b505050506040513d601f19601f820116820180604052508101906107fb9190611692565b111561083a5760405162461bcd60e51b815260206004820152600e60248201526d13585e081d5cd95c881b1a5b5a5d60921b6044820152606401610350565b60075460405162f5960960e51b81526000916001600160a01b031690631eb2c1209061086b90600690600401611684565b602060405180830381865afa158015610888573d6000803e3d6000fd5b505050506040513d601f19601f820116820180604052508101906108ac91906116ab565b6108b79060016116d4565b90506040518060c00160405280826001600160401b03168152602001336001600160a01b03168152602001848152602001838152602001604051806040016040528060008152602001610908610f2d565b90528152436020918201523360009081526004825260409081902083518154938501516001600160a01b0316600160401b026001600160e01b03199094166001600160401b0390911617929092178255820151600182019061096a908261177c565b506060820151600282019061097f908261177c565b5060808201518051600383015560209081015160048084019190915560a0909301516005909201919091556001600160401b038316600090815260069182905260409081902080546001600160a01b031916339081179091556007549151639c3eead960e01b81526001600160a01b039290921693639c3eead993610a069390910161183a565b600060405180830381600087803b158015610a2057600080fd5b505af1158015610a34573d6000803e3d6000fd5b50505050336001600160a01b0316816001600160401b03167f465f144a166d5efbf5d238fa355c743be298b6a91abf5e53628b9a87dacbe3c38543604051610a7d929190611857565b60405180910390a3505050565b610ad16040805160c0810182526000808252602080830182905260608385018190528084015283518085019094528184528301529060808201908152602001600081525090565b6001600160a01b03808316600090815260046020908152604091829020825160c08101845281546001600160401b0381168252600160401b9004909416918401919091526001810180549192840191610b29906116f3565b80601f0160208091040260200160405190810160405280929190818152602001828054610b55906116f3565b8015610ba25780601f10610b7757610100808354040283529160200191610ba2565b820191906000526020600020905b815481529060010190602001808311610b8557829003601f168201915b50505050508152602001600282018054610bbb906116f3565b80601f0160208091040260200160405190810160405280929190818152602001828054610be7906116f3565b8015610c345780601f10610c0957610100808354040283529160200191610c34565b820191906000526020600020905b815481529060010190602001808311610c1757829003601f168201915b505050918352505060408051808201825260038401548152600484015460208281019190915283015260059092015491015292915050565b610c74611199565b61073460006111f3565b610c86611199565b6001600160a01b03166000908152600160208190526040909120805460ff19169091179055565b600060058311610cbf57506001610cdd565b6000610cd66001610cd08787611243565b90611258565b8310159150505b9392505050565b6001600160a01b038082166000908152600460209081526040808320815160c08101835281546001600160401b0381168252600160401b9004909516928501929092526001820180549394859490939284019190610d41906116f3565b80601f0160208091040260200160405190810160405280929190818152602001828054610d6d906116f3565b8015610dba5780601f10610d8f57610100808354040283529160200191610dba565b820191906000526020600020905b815481529060010190602001808311610d9d57829003601f168201915b50505050508152602001600282018054610dd3906116f3565b80601f0160208091040260200160405190810160405280929190818152602001828054610dff906116f3565b8015610e4c5780601f10610e2157610100808354040283529160200191610e4c565b820191906000526020600020905b815481529060010190602001808311610e2f57829003601f168201915b505050918352505060408051808201825260038401548152600484015460208281019190915283015260059092015491015280519091506001600160401b0316610e995750600092915050565b60035460075460405162f5960960e51b8152610cdd9263ffffffff16916001600160a01b031690631eb2c12090610ed590600690600401611684565b602060405180830381865afa158015610ef2573d6000803e3d6000fd5b505050506040513d601f19601f82011682018060405250810190610f1691906116ab565b6001600160401b0316836080015160000151610cad565b60085460408051637686fbcf60e11b815290516000926001600160a01b03169163ed0df79e9160048083019260209291908290030181865afa158015610f77573d6000803e3d6000fd5b505050506040513d601f19601f82011682018060405250810190610f9b9190611692565b905090565b610fa8611199565b6001600160a01b03811661100d5760405162461bcd60e51b815260206004820152602660248201527f4f776e61626c653a206e6577206f776e657220697320746865207a65726f206160448201526564647265737360d01b6064820152608401610350565b611016816111f3565b50565b600280540361106a5760405162461bcd60e51b815260206004820152601f60248201527f5265656e7472616e637947756172643a207265656e7472616e742063616c6c006044820152606401610350565b60028055565b60075460405163158bdc5f60e11b81526001600160a01b0384811660048301526000921690632b17b8be90602401608060405180830381865afa1580156110bb573d6000803e3d6000fd5b505050506040513d601f19601f820116820180604052508101906110df9190611879565b6020808201516001600160a01b038082166000908152600584526040808220928916825291909352909120549192509060ff16158015611120575060038310155b15611193576001600160a01b0380821660009081526005602090815260408083209388168352929052908120805460ff191660011790556003805463ffffffff169161116b83611900565b91906101000a81548163ffffffff021916908363ffffffff1602179055505061119381611264565b50505050565b6000546001600160a01b031633146107345760405162461bcd60e51b815260206004820181905260248201527f4f776e61626c653a2063616c6c6572206973206e6f7420746865206f776e65726044820152606401610350565b600080546001600160a01b038381166001600160a01b0319831681178455604051919092169283917f8be0079c531659141344cd1fd0a4f28419497f9722a3daafe3b4186f6b6457e09190a35050565b600061124f8284611925565b90505b92915050565b600061124f8284611671565b6001600160a01b0381166000908152600460205260408120805490916001600160401b039091169003611295575050565b6003810180549060006112a783611947565b90915550506008546040516352b8d3ed60e01b81526001600160a01b03848116600483015260016024830152909116906352b8d3ed90604401600060405180830381600087803b1580156112fa57600080fd5b505af115801561130e573d6000803e3d6000fd5b505050506003810154604080519182524360208301526001600160a01b038416917f36f15968a9f51192bb47c8eb232f2f6f1a17509d72befcb36e4963e541831f03910160405180910390a25050565b6001600160a01b038116811461101657600080fd5b6000806040838503121561138657600080fd5b82356113918161135e565b946020939093013593505050565b634e487b7160e01b600052604160045260246000fd5b600082601f8301126113c657600080fd5b81356001600160401b038111156113df576113df61139f565b604051601f8201601f19908116603f011681016001600160401b038111828210171561140d5761140d61139f565b60405281815283820160200185101561142557600080fd5b816020850160208301376000918101602001919091529392505050565b6000806040838503121561145557600080fd5b82356001600160401b0381111561146b57600080fd5b611477858286016113b5565b92505060208301356001600160401b0381111561149357600080fd5b61149f858286016113b5565b9150509250929050565b6000602082840312156114bb57600080fd5b8135610cdd8161135e565b6000815180845260005b818110156114ec576020818501810151868301820152016114d0565b506000602082860101526020601f19601f83011685010191505092915050565b602081526001600160401b03825116602082015260018060a01b0360208301511660408201526000604083015160e0606084015261154e6101008401826114c6565b90506060840151601f1984830301608085015261156b82826114c6565b9150506080840151805160a0850152602081015160c08501525060a084015160e08401528091505092915050565b6000602082840312156115ab57600080fd5b5035919050565b6000806000606084860312156115c757600080fd5b505081359360208301359350604090920135919050565b634e487b7160e01b600052601160045260246000fd5b81810381811115611252576112526115de565b6009811061162557634e487b7160e01b600052602160045260246000fd5b9052565b604081016116378285611607565b6001600160a01b039290921660209190910152919050565b60006020828403121561166157600080fd5b81518015158114610cdd57600080fd5b80820180821115611252576112526115de565b602081016112528284611607565b6000602082840312156116a457600080fd5b5051919050565b6000602082840312156116bd57600080fd5b81516001600160401b0381168114610cdd57600080fd5b6001600160401b038181168382160190811115611252576112526115de565b600181811c9082168061170757607f821691505b60208210810361172757634e487b7160e01b600052602260045260246000fd5b50919050565b601f82111561177757806000526020600020601f840160051c810160208510156117545750805b601f840160051c820191505b818110156117745760008155600101611760565b50505b505050565b81516001600160401b038111156117955761179561139f565b6117a9816117a384546116f3565b8461172d565b6020601f8211600181146117dd57600083156117c55750848201515b600019600385901b1c1916600184901b178455611774565b600084815260208120601f198516915b8281101561180d57878501518255602094850194600190920191016117ed565b508482101561182b5786840151600019600387901b60f8161c191681555b50505050600190811b01905550565b6001600160a01b038316815260408101610cdd6020830184611607565b60408152600061186a60408301856114c6565b90508260208301529392505050565b6000608082840312801561188c57600080fd5b50604051600090608081016001600160401b03811182821017156118b2576118b261139f565b60405283516118c08161135e565b815260208401516118d08161135e565b60208201526040840151600981106118e6578283fd5b604082015260609384015193810193909352509092915050565b600063ffffffff821663ffffffff810361191c5761191c6115de565b60010192915050565b60008261194257634e487b7160e01b600052601260045260246000fd5b500490565b600060018201611959576119596115de565b506001019056fea2646970667358221220ee6ef5e95c74a8bd0e93494f6c9f600b4224ff6939eaeed4a233259618619be964736f6c634300081b0033",
  "linkReferences": {},
  "deployedLinkReferences": {}
}