{
  "_format": "hh-sol-artifact-1",
  "contractName": "ActivistRules",
  "sourceName": "contracts/ActivistRules.sol",
  "abi": [
    {
      "inputs": [
        {
          "internalType": "address",
          "name": "communityRulesAddress",
          "type": "address"
        },
        {
          "internalType": "address",
          "name": "activistPoolAddress",
          "type": "address"
        }
      ],
      "stateMutability": "nonpayable",
      "type": "constructor"
    },
    {
      "inputs": [
        {
          "internalType": "address",
          "name": "owner",
          "type": "address"
        }
      ],
      "name": "OwnableInvalidOwner",
      "type": "error"
    },
    {
      "inputs": [
        {
          "internalType": "address",
          "name": "account",
          "type": "address"
        }
      ],
      "name": "OwnableUnauthorizedAccount",
      "type": "error"
    },
    {
      "inputs": [],
      "name": "ReentrancyGuardReentrantCall",
      "type": "error"
    },
    {
      "anonymous": false,
      "inputs": [
        {
          "indexed": true,
          "internalType": "address",
          "name": "activistAddress",
          "type": "address"
        },
        {
          "indexed": false,
          "internalType": "uint256",
          "name": "newLevel",
          "type": "uint256"
        },
        {
          "indexed": false,
          "internalType": "uint256",
          "name": "blockNumber",
          "type": "uint256"
        }
      ],
      "name": "ActivistLevelIncreased",
      "type": "event"
    },
    {
      "anonymous": false,
      "inputs": [
        {
          "indexed": true,
          "internalType": "address",
          "name": "activistAddress",
          "type": "address"
        },
        {
          "indexed": false,
          "internalType": "uint256",
          "name": "levelsRemoved",
          "type": "uint256"
        },
        {
          "indexed": false,
          "internalType": "uint256",
          "name": "newLevel",
          "type": "uint256"
        },
        {
          "indexed": false,
          "internalType": "uint256",
          "name": "blockNumber",
          "type": "uint256"
        }
      ],
      "name": "ActivistLevelRemoved",
      "type": "event"
    },
    {
      "anonymous": false,
      "inputs": [
        {
          "indexed": true,
          "internalType": "uint256",
          "name": "id",
          "type": "uint256"
        },
        {
          "indexed": true,
          "internalType": "address",
          "name": "activistAddress",
          "type": "address"
        },
        {
          "indexed": false,
          "internalType": "string",
          "name": "name",
          "type": "string"
        },
        {
          "indexed": false,
          "internalType": "uint256",
          "name": "blockNumber",
          "type": "uint256"
        }
      ],
      "name": "ActivistRegistered",
      "type": "event"
    },
    {
      "anonymous": false,
      "inputs": [
        {
          "indexed": true,
          "internalType": "address",
          "name": "activistAddress",
          "type": "address"
        },
        {
          "indexed": true,
          "internalType": "uint256",
          "name": "era",
          "type": "uint256"
        },
        {
          "indexed": false,
          "internalType": "uint256",
          "name": "blockNumber",
          "type": "uint256"
        }
      ],
      "name": "ActivistWithdrawalInitiated",
      "type": "event"
    },
    {
      "anonymous": false,
      "inputs": [
        {
          "indexed": true,
          "internalType": "address",
          "name": "activistAddress",
          "type": "address"
        },
        {
          "indexed": true,
          "internalType": "address",
          "name": "invitedUserAddress",
          "type": "address"
        },
        {
          "indexed": false,
          "internalType": "uint256",
          "name": "invitedUserTotalInspections",
          "type": "uint256"
        },
        {
          "indexed": false,
          "internalType": "uint256",
          "name": "blockNumber",
          "type": "uint256"
        }
      ],
      "name": "LevelWonFromInvitedUser",
      "type": "event"
    },
    {
      "anonymous": false,
      "inputs": [
        {
          "indexed": true,
          "internalType": "address",
          "name": "previousOwner",
          "type": "address"
        },
        {
          "indexed": true,
          "internalType": "address",
          "name": "newOwner",
          "type": "address"
        }
      ],
      "name": "OwnershipTransferred",
      "type": "event"
    },
    {
      "inputs": [],
      "name": "INITIAL_USER_COUNT_THRESHOLD",
      "outputs": [
        {
          "internalType": "uint256",
          "name": "",
          "type": "uint256"
        }
      ],
      "stateMutability": "view",
      "type": "function"
    },
    {
      "inputs": [],
      "name": "MAX_USER_COUNT",
      "outputs": [
        {
          "internalType": "uint16",
          "name": "",
          "type": "uint16"
        }
      ],
      "stateMutability": "view",
      "type": "function"
    },
    {
      "inputs": [],
      "name": "MINIMUM_INSPECTIONS_TO_WON_POOL_LEVELS",
      "outputs": [
        {
          "internalType": "uint16",
          "name": "",
          "type": "uint16"
        }
      ],
      "stateMutability": "view",
      "type": "function"
    },
    {
      "inputs": [
        {
          "internalType": "uint256",
          "name": "",
          "type": "uint256"
        }
      ],
      "name": "activistsAddress",
      "outputs": [
        {
          "internalType": "address",
          "name": "",
          "type": "address"
        }
      ],
      "stateMutability": "view",
      "type": "function"
    },
    {
      "inputs": [
        {
          "internalType": "string",
          "name": "name",
          "type": "string"
        },
        {
          "internalType": "string",
          "name": "proofPhoto",
          "type": "string"
        }
      ],
      "name": "addActivist",
      "outputs": [],
      "stateMutability": "nonpayable",
      "type": "function"
    },
    {
      "inputs": [
        {
          "internalType": "address",
          "name": "inspectorAddress",
          "type": "address"
        },
        {
          "internalType": "uint256",
          "name": "inspectorTotalInspections",
          "type": "uint256"
        }
      ],
      "name": "addInspectorLevel",
      "outputs": [],
      "stateMutability": "nonpayable",
      "type": "function"
    },
    {
      "inputs": [
        {
          "internalType": "address",
          "name": "regeneratorAddress",
          "type": "address"
        },
        {
          "internalType": "uint256",
          "name": "regeneratorTotalInspections",
          "type": "uint256"
        }
      ],
      "name": "addRegeneratorLevel",
      "outputs": [],
      "stateMutability": "nonpayable",
      "type": "function"
    },
    {
      "inputs": [
        {
          "internalType": "address",
          "name": "",
          "type": "address"
        }
      ],
      "name": "allowedCallers",
      "outputs": [
        {
          "internalType": "bool",
          "name": "",
          "type": "bool"
        }
      ],
      "stateMutability": "view",
      "type": "function"
    },
    {
      "inputs": [],
      "name": "approvedInvites",
      "outputs": [
        {
          "internalType": "uint32",
          "name": "",
          "type": "uint32"
        }
      ],
      "stateMutability": "view",
      "type": "function"
    },
    {
      "inputs": [
        {
          "internalType": "uint256",
          "name": "totalLevels",
          "type": "uint256"
        },
        {
          "internalType": "uint256",
          "name": "totalUsers",
          "type": "uint256"
        },
        {
          "internalType": "uint256",
          "name": "userLevels",
          "type": "uint256"
        }
      ],
      "name": "canInvite",
      "outputs": [
        {
          "internalType": "bool",
          "name": "",
          "type": "bool"
        }
      ],
      "stateMutability": "pure",
      "type": "function"
    },
    {
      "inputs": [
        {
          "internalType": "address",
          "name": "addr",
          "type": "address"
        }
      ],
      "name": "canSendInvite",
      "outputs": [
        {
          "internalType": "bool",
          "name": "",
          "type": "bool"
        }
      ],
      "stateMutability": "view",
      "type": "function"
    },
    {
      "inputs": [
        {
          "internalType": "address",
          "name": "addr",
          "type": "address"
        }
      ],
      "name": "getActivist",
      "outputs": [
        {
          "components": [
            {
              "internalType": "uint64",
              "name": "id",
              "type": "uint64"
            },
            {
              "internalType": "address",
              "name": "activistWallet",
              "type": "address"
            },
            {
              "internalType": "string",
              "name": "name",
              "type": "string"
            },
            {
              "internalType": "string",
              "name": "proofPhoto",
              "type": "string"
            },
            {
              "components": [
                {
                  "internalType": "uint256",
                  "name": "level",
                  "type": "uint256"
                },
                {
                  "internalType": "uint256",
                  "name": "currentEra",
                  "type": "uint256"
                }
              ],
              "internalType": "struct Pool",
              "name": "pool",
              "type": "tuple"
            },
            {
              "internalType": "uint256",
              "name": "createdAt",
              "type": "uint256"
            }
          ],
          "internalType": "struct Activist",
          "name": "",
          "type": "tuple"
        }
      ],
      "stateMutability": "view",
      "type": "function"
    },
    {
      "inputs": [
        {
          "internalType": "address",
          "name": "caller",
          "type": "address"
        }
      ],
      "name": "isAllowedCaller",
      "outputs": [
        {
          "internalType": "bool",
          "name": "",
          "type": "bool"
        }
      ],
      "stateMutability": "view",
      "type": "function"
    },
    {
      "inputs": [
        {
          "internalType": "address",
          "name": "allowed",
          "type": "address"
        }
      ],
      "name": "newAllowedCaller",
      "outputs": [],
      "stateMutability": "nonpayable",
      "type": "function"
    },
    {
      "inputs": [],
      "name": "owner",
      "outputs": [
        {
          "internalType": "address",
          "name": "",
          "type": "address"
        }
      ],
      "stateMutability": "view",
      "type": "function"
    },
    {
      "inputs": [],
      "name": "poolCurrentEra",
      "outputs": [
        {
          "internalType": "uint256",
          "name": "",
          "type": "uint256"
        }
      ],
      "stateMutability": "view",
      "type": "function"
    },
    {
      "inputs": [
        {
          "internalType": "address",
          "name": "addr",
          "type": "address"
        },
        {
          "internalType": "bool",
          "name": "denied",
          "type": "bool"
        }
      ],
      "name": "removePoolLevels",
      "outputs": [],
      "stateMutability": "nonpayable",
      "type": "function"
    },
    {
      "inputs": [],
      "name": "renounceOwnership",
      "outputs": [],
      "stateMutability": "nonpayable",
      "type": "function"
    },
    {
      "inputs": [
        {
          "internalType": "address",
          "name": "_inspectionRulesAddress",
          "type": "address"
        },
        {
          "internalType": "address",
          "name": "_validationRulesAddress",
          "type": "address"
        }
      ],
      "name": "setContractCall",
      "outputs": [],
      "stateMutability": "nonpayable",
      "type": "function"
    },
    {
      "inputs": [
        {
          "internalType": "address",
          "name": "newOwner",
          "type": "address"
        }
      ],
      "name": "transferOwnership",
      "outputs": [],
      "stateMutability": "nonpayable",
      "type": "function"
    },
    {
      "inputs": [],
      "name": "withdraw",
      "outputs": [],
      "stateMutability": "nonpayable",
      "type": "function"
    }
  ],
  "bytecode": "0x608060405234801561001057600080fd5b50604051611d66380380611d6683398101604081905261002f91610101565b338061005557604051631e4fbdf760e01b81526000600482015260240160405180910390fd5b61005e81610095565b506001600255600780546001600160a01b039384166001600160a01b03199182161790915560088054929093169116179055610134565b600080546001600160a01b038381166001600160a01b0319831681178455604051919092169283917f8be0079c531659141344cd1fd0a4f28419497f9722a3daafe3b4186f6b6457e09190a35050565b80516001600160a01b03811681146100fc57600080fd5b919050565b6000806040838503121561011457600080fd5b61011d836100e5565b915061012b602084016100e5565b90509250929050565b611c23806101436000396000f3fe608060405234801561001057600080fd5b50600436106101365760003560e01c80637b334154116100b8578063a68012581161007c578063a6801258146102ae578063be9dc584146102da578063c77c1ce6146102f0578063e05cf15514610303578063f1a204ce1461030b578063f2fde38b1461031e57600080fd5b80637b334154146102075780638da5cb5b1461023a5780638f93716f1461025f5780639d3c50b2146102725780639eaf666f1461029b57600080fd5b8063430816aa116100ff578063430816aa1461019e5780635fbf8a69146101c357806362efeff7146101d65780636ec7053a146101f6578063715018a6146101ff57600080fd5b8062b2c9201461013b57806304521ca3146101505780632051523114610163578063218f23ca146101835780633ccfd60b14610196575b600080fd5b61014e61014936600461153a565b610331565b005b61014e61015e366004611566565b6103b5565b61016b600381565b60405161ffff90911681526020015b60405180910390f35b61014e6101913660046115ad565b6103eb565b61014e610502565b6003546101ae9063ffffffff1681565b60405163ffffffff909116815260200161017a565b61014e6101d136600461167e565b61075f565b6101e96101e43660046116e5565b610ab2565b60405161017a9190611748565b61016b613e8081565b61014e610c94565b61022a6102153660046116e5565b60016020526000908152604090205460ff1681565b604051901515815260200161017a565b6000546001600160a01b03165b6040516001600160a01b03909116815260200161017a565b61014e61026d3660046116e5565b610ca6565b6102476102803660046117d5565b6006602052600090815260409020546001600160a01b031681565b61022a6102a93660046117ee565b610cd5565b61022a6102bc3660046116e5565b6001600160a01b031660009081526001602052604090205460ff1690565b6102e2600581565b60405190815260200161017a565b61022a6102fe3660046116e5565b610d0d565b6102e2610f56565b61014e61031936600461153a565b610fc9565b61014e61032c3660046116e5565b611035565b3360009081526001602052604090205460ff166103695760405162461bcd60e51b81526004016103609061181a565b60405180910390fd5b6009546001600160a01b03163381146103945760405162461bcd60e51b815260040161036090611846565b61039c611073565b6103a6838361109b565b6103b06001600255565b505050565b6103bd611233565b600980546001600160a01b039384166001600160a01b031991821617909155600a8054929093169116179055565b3360009081526001602052604090205460ff1661041a5760405162461bcd60e51b81526004016103609061181a565b600a546001600160a01b03163381146104455760405162461bcd60e51b815260040161036090611846565b61044d611073565b6001600160a01b038316600090815260046020526040902082610471576001610477565b60038101545b60038201805460009061048b908490611893565b90915550506008546040516310c791e560e11b81526001600160a01b03868116600483015285151560248301529091169063218f23ca90604401600060405180830381600087803b1580156104df57600080fd5b505af11580156104f3573d6000803e3d6000fd5b50505050506103b06001600255565b61050a611073565b600754604051631292f8c160e31b81526001600160a01b0390911690639497c6089061053d9060069033906004016118ce565b602060405180830381865afa15801561055a573d6000803e3d6000fd5b505050506040513d601f19601f8201168201806040525081019061057e91906118f4565b6105c25760405162461bcd60e51b8152602060048201526015602482015274141bdbdb081bdb9b1e481d1bc81858dd1a5d9a5cdd605a1b6044820152606401610360565b33600090815260046020819052604091829020808201546008549351637df42f8360e11b8152928301819052909290916001600160a01b039091169063fbe85f0690602401602060405180830381865afa158015610624573d6000803e3d6000fd5b505050506040513d601f19601f8201168201806040525081019061064891906118f4565b6106a25760405162461bcd60e51b815260206004820152602560248201527f4e6f7420656c696769626c6520746f20776974686472617720666f7220746869604482015264732065726160d81b6064820152608401610360565b6106ad816001611911565b60048381019190915560085460405163f3fef3a360e01b81523392810192909252602482018390526001600160a01b03169063f3fef3a390604401600060405180830381600087803b15801561070257600080fd5b505af1158015610716573d6000803e3d6000fd5b50506040514381528392503391507fb81f4acc0377f571ab134a4bbbd3747583189d714f31efcea075ae6d4c1d72da9060200160405180910390a3505061075d6001600255565b565b815160321080159061077357508051609610155b6107b05760405162461bcd60e51b815260206004820152600e60248201526d4d6178206368617261637465727360901b6044820152606401610360565b600754604051632f22dc7b60e01b8152613e80916001600160a01b031690632f22dc7b906107e390600690600401611924565b602060405180830381865afa158015610800573d6000803e3d6000fd5b505050506040513d601f19601f820116820180604052508101906108249190611932565b106108625760405162461bcd60e51b815260206004820152600e60248201526d13585e081d5cd95c881b1a5b5a5d60921b6044820152606401610360565b60075460405162f5960960e51b81526000916001600160a01b031690631eb2c1209061089390600690600401611924565b602060405180830381865afa1580156108b0573d6000803e3d6000fd5b505050506040513d601f19601f820116820180604052508101906108d4919061194b565b6108df906001611974565b90506040518060c00160405280826001600160401b03168152602001336001600160a01b03168152602001848152602001838152602001604051806040016040528060008152602001610930610f56565b90528152436020918201523360009081526004825260409081902083518154938501516001600160a01b0316600160401b026001600160e01b03199094166001600160401b039091161792909217825582015160018201906109929082611a14565b50606082015160028201906109a79082611a14565b5060808201518051600383015560209081015160048084019190915560a0909301516005909201919091556001600160401b038316600090815260069182905260409081902080546001600160a01b031916339081179091556007549151639c3eead960e01b81526001600160a01b039290921693639c3eead993610a2e93909101611ad2565b600060405180830381600087803b158015610a4857600080fd5b505af1158015610a5c573d6000803e3d6000fd5b50505050336001600160a01b0316816001600160401b03167f465f144a166d5efbf5d238fa355c743be298b6a91abf5e53628b9a87dacbe3c38543604051610aa5929190611aef565b60405180910390a3505050565b610af96040805160c0810182526000808252602080830182905260608385018190528084015283518085019094528184528301529060808201908152602001600081525090565b6001600160a01b03808316600090815260046020908152604091829020825160c08101845281546001600160401b0381168252600160401b9004909416918401919091526001810180549192840191610b5190611993565b80601f0160208091040260200160405190810160405280929190818152602001828054610b7d90611993565b8015610bca5780601f10610b9f57610100808354040283529160200191610bca565b820191906000526020600020905b815481529060010190602001808311610bad57829003601f168201915b50505050508152602001600282018054610be390611993565b80601f0160208091040260200160405190810160405280929190818152602001828054610c0f90611993565b8015610c5c5780601f10610c3157610100808354040283529160200191610c5c565b820191906000526020600020905b815481529060010190602001808311610c3f57829003601f168201915b505050918352505060408051808201825260038401548152600484015460208281019190915283015260059092015491015292915050565b610c9c611233565b61075d6000611260565b610cae611233565b6001600160a01b03166000908152600160208190526040909120805460ff19169091179055565b600060058311610ce757506001610d06565b82600003610cf757506000610d06565b83610d028484611b11565b1190505b9392505050565b6001600160a01b038082166000908152600460209081526040808320815160c08101835281546001600160401b0381168252600160401b9004909516928501929092526001820180549394859490939284019190610d6a90611993565b80601f0160208091040260200160405190810160405280929190818152602001828054610d9690611993565b8015610de35780601f10610db857610100808354040283529160200191610de3565b820191906000526020600020905b815481529060010190602001808311610dc657829003601f168201915b50505050508152602001600282018054610dfc90611993565b80601f0160208091040260200160405190810160405280929190818152602001828054610e2890611993565b8015610e755780601f10610e4a57610100808354040283529160200191610e75565b820191906000526020600020905b815481529060010190602001808311610e5857829003601f168201915b505050918352505060408051808201825260038401548152600484015460208281019190915283015260059092015491015280519091506001600160401b0316610ec25750600092915050565b60035460075460405162f5960960e51b8152610d069263ffffffff16916001600160a01b031690631eb2c12090610efe90600690600401611924565b602060405180830381865afa158015610f1b573d6000803e3d6000fd5b505050506040513d601f19601f82011682018060405250810190610f3f919061194b565b6001600160401b0316836080015160000151610cd5565b60085460408051637686fbcf60e11b815290516000926001600160a01b03169163ed0df79e9160048083019260209291908290030181865afa158015610fa0573d6000803e3d6000fd5b505050506040513d601f19601f82011682018060405250810190610fc49190611932565b905090565b3360009081526001602052604090205460ff16610ff85760405162461bcd60e51b81526004016103609061181a565b6009546001600160a01b03163381146110235760405162461bcd60e51b815260040161036090611846565b61102b611073565b6103a683836112b0565b61103d611233565b6001600160a01b03811661106757604051631e4fbdf760e01b815260006004820152602401610360565b61107081611260565b50565b600280540361109557604051633ee5aeb560e01b815260040160405180910390fd5b60028055565b60075460405163158bdc5f60e11b81526001600160a01b0384811660048301526000921690632b17b8be90602401608060405180830381865afa1580156110e6573d6000803e3d6000fd5b505050506040513d601f19601f8201168201806040525081019061110a9190611b28565b6020808201516001600160a01b038082166000908152600584526040808220928916825291909352909120549192509060ff1615801561114b575060038310155b1561122d576001600160a01b0380821660009081526005602090815260408083209388168352929052908120805460ff191660011790556003805463ffffffff169161119683611baf565b825463ffffffff9182166101009390930a9283029190920219909116179055506040517f61637469766973745f7265776172645f726567656e657261746f72000000000060208201526bffffffffffffffffffffffff19606083811b8216603b84015286901b16604f8201526000906063015b60405160208183030381529060405280519060200120905061122b8282611422565b505b50505050565b6000546001600160a01b0316331461075d5760405163118cdaa760e01b8152336004820152602401610360565b600080546001600160a01b038381166001600160a01b0319831681178455604051919092169283917f8be0079c531659141344cd1fd0a4f28419497f9722a3daafe3b4186f6b6457e09190a35050565b60075460405163158bdc5f60e11b81526001600160a01b0384811660048301526000921690632b17b8be90602401608060405180830381865afa1580156112fb573d6000803e3d6000fd5b505050506040513d601f19601f8201168201806040525081019061131f9190611b28565b6020808201516001600160a01b038082166000908152600584526040808220928916825291909352909120549192509060ff16158015611360575060038310155b1561122d576001600160a01b0380821660009081526005602090815260408083209388168352929052908120805460ff191660011790556003805463ffffffff16916113ab83611baf565b825463ffffffff9182166101009390930a9283029190920219909116179055506040517f61637469766973745f7265776172645f696e73706563746f720000000000000060208201526bffffffffffffffffffffffff19606083811b8216603984015286901b16604d820152600090606101611209565b6001600160a01b0382166000908152600460205260408120805490916001600160401b03909116900361145457505050565b60038101805490600061146683611bd4565b9091555050600854604051630f9a28d560e11b81526001600160a01b038581166004830152600160248301526044820185905290911690631f3451aa90606401600060405180830381600087803b1580156114c057600080fd5b505af11580156114d4573d6000803e3d6000fd5b505050506003810154604080519182524360208301526001600160a01b038516917f36f15968a9f51192bb47c8eb232f2f6f1a17509d72befcb36e4963e541831f03910160405180910390a2505050565b6001600160a01b038116811461107057600080fd5b6000806040838503121561154d57600080fd5b823561155881611525565b946020939093013593505050565b6000806040838503121561157957600080fd5b823561158481611525565b9150602083013561159481611525565b809150509250929050565b801515811461107057600080fd5b600080604083850312156115c057600080fd5b82356115cb81611525565b915060208301356115948161159f565b634e487b7160e01b600052604160045260246000fd5b600082601f83011261160257600080fd5b81356001600160401b0381111561161b5761161b6115db565b604051601f8201601f19908116603f011681016001600160401b0381118282101715611649576116496115db565b60405281815283820160200185101561166157600080fd5b816020850160208301376000918101602001919091529392505050565b6000806040838503121561169157600080fd5b82356001600160401b038111156116a757600080fd5b6116b3858286016115f1565b92505060208301356001600160401b038111156116cf57600080fd5b6116db858286016115f1565b9150509250929050565b6000602082840312156116f757600080fd5b8135610d0681611525565b6000815180845260005b818110156117285760208185018101518683018201520161170c565b506000602082860101526020601f19601f83011685010191505092915050565b602081526001600160401b03825116602082015260018060a01b0360208301511660408201526000604083015160e0606084015261178a610100840182611702565b90506060840151601f198483030160808501526117a78282611702565b9150506080840151805160a0850152602081015160c08501525060a084015160e08401528091505092915050565b6000602082840312156117e757600080fd5b5035919050565b60008060006060848603121561180357600080fd5b505081359360208301359350604090920135919050565b6020808252601290820152712737ba1030b63637bbb2b21031b0b63632b960711b604082015260600190565b6020808252601e908201527f43616c6c6572206d7573742062652073797374656d20636f6e74726163740000604082015260600190565b634e487b7160e01b600052601160045260246000fd5b818103818111156118a6576118a661187d565b92915050565b600981106118ca57634e487b7160e01b600052602160045260246000fd5b9052565b604081016118dc82856118ac565b6001600160a01b039290921660209190910152919050565b60006020828403121561190657600080fd5b8151610d068161159f565b808201808211156118a6576118a661187d565b602081016118a682846118ac565b60006020828403121561194457600080fd5b5051919050565b60006020828403121561195d57600080fd5b81516001600160401b0381168114610d0657600080fd5b6001600160401b0381811683821601908111156118a6576118a661187d565b600181811c908216806119a757607f821691505b6020821081036119c757634e487b7160e01b600052602260045260246000fd5b50919050565b601f8211156103b057806000526020600020601f840160051c810160208510156119f45750805b601f840160051c820191505b8181101561122b5760008155600101611a00565b81516001600160401b03811115611a2d57611a2d6115db565b611a4181611a3b8454611993565b846119cd565b6020601f821160018114611a755760008315611a5d5750848201515b600019600385901b1c1916600184901b17845561122b565b600084815260208120601f198516915b82811015611aa55787850151825560209485019460019092019101611a85565b5084821015611ac35786840151600019600387901b60f8161c191681555b50505050600190811b01905550565b6001600160a01b038316815260408101610d0660208301846118ac565b604081526000611b026040830185611702565b90508260208301529392505050565b80820281158282048414176118a6576118a661187d565b60006080828403128015611b3b57600080fd5b50604051600090608081016001600160401b0381118282101715611b6157611b616115db565b6040528351611b6f81611525565b81526020840151611b7f81611525565b6020820152604084015160098110611b95578283fd5b604082015260609384015193810193909352509092915050565b600063ffffffff821663ffffffff8103611bcb57611bcb61187d565b60010192915050565b600060018201611be657611be661187d565b506001019056fea264697066735822122009edca22da60b25560f674b1eafa16c8f0ef1c6274db684c8101160f8027a8ba64736f6c634300081b0033",
  "linkReferences": {},
  "deployedLinkReferences": {}
}