{
  "_format": "hh-sol-artifact-1",
  "contractName": "ActivistRules",
  "sourceName": "contracts/ActivistRules.sol",
  "abi": [
    {
      "inputs": [
        {
          "internalType": "address",
          "name": "communityRulesAddress",
          "type": "address"
        },
        {
          "internalType": "address",
          "name": "activistPoolAddress",
          "type": "address"
        }
      ],
      "stateMutability": "nonpayable",
      "type": "constructor"
    },
    {
      "inputs": [
        {
          "internalType": "address",
          "name": "owner",
          "type": "address"
        }
      ],
      "name": "OwnableInvalidOwner",
      "type": "error"
    },
    {
      "inputs": [
        {
          "internalType": "address",
          "name": "account",
          "type": "address"
        }
      ],
      "name": "OwnableUnauthorizedAccount",
      "type": "error"
    },
    {
      "inputs": [],
      "name": "ReentrancyGuardReentrantCall",
      "type": "error"
    },
    {
      "anonymous": false,
      "inputs": [
        {
          "indexed": true,
          "internalType": "address",
          "name": "activistAddress",
          "type": "address"
        },
        {
          "indexed": false,
          "internalType": "uint256",
          "name": "newLevel",
          "type": "uint256"
        },
        {
          "indexed": false,
          "internalType": "uint256",
          "name": "blockNumber",
          "type": "uint256"
        }
      ],
      "name": "ActivistLevelIncreased",
      "type": "event"
    },
    {
      "anonymous": false,
      "inputs": [
        {
          "indexed": true,
          "internalType": "address",
          "name": "activistAddress",
          "type": "address"
        },
        {
          "indexed": false,
          "internalType": "uint256",
          "name": "levelsRemoved",
          "type": "uint256"
        },
        {
          "indexed": false,
          "internalType": "uint256",
          "name": "newLevel",
          "type": "uint256"
        },
        {
          "indexed": false,
          "internalType": "uint256",
          "name": "blockNumber",
          "type": "uint256"
        }
      ],
      "name": "ActivistLevelRemoved",
      "type": "event"
    },
    {
      "anonymous": false,
      "inputs": [
        {
          "indexed": true,
          "internalType": "uint256",
          "name": "id",
          "type": "uint256"
        },
        {
          "indexed": true,
          "internalType": "address",
          "name": "activistAddress",
          "type": "address"
        },
        {
          "indexed": false,
          "internalType": "string",
          "name": "name",
          "type": "string"
        },
        {
          "indexed": false,
          "internalType": "uint256",
          "name": "blockNumber",
          "type": "uint256"
        }
      ],
      "name": "ActivistRegistered",
      "type": "event"
    },
    {
      "anonymous": false,
      "inputs": [
        {
          "indexed": true,
          "internalType": "address",
          "name": "activistAddress",
          "type": "address"
        },
        {
          "indexed": true,
          "internalType": "uint256",
          "name": "era",
          "type": "uint256"
        },
        {
          "indexed": false,
          "internalType": "uint256",
          "name": "blockNumber",
          "type": "uint256"
        }
      ],
      "name": "ActivistWithdrawalInitiated",
      "type": "event"
    },
    {
      "anonymous": false,
      "inputs": [
        {
          "indexed": true,
          "internalType": "address",
          "name": "activistAddress",
          "type": "address"
        },
        {
          "indexed": true,
          "internalType": "address",
          "name": "invitedUserAddress",
          "type": "address"
        },
        {
          "indexed": false,
          "internalType": "uint256",
          "name": "invitedUserTotalInspections",
          "type": "uint256"
        },
        {
          "indexed": false,
          "internalType": "uint256",
          "name": "blockNumber",
          "type": "uint256"
        }
      ],
      "name": "LevelWonFromInvitedUser",
      "type": "event"
    },
    {
      "anonymous": false,
      "inputs": [
        {
          "indexed": true,
          "internalType": "address",
          "name": "previousOwner",
          "type": "address"
        },
        {
          "indexed": true,
          "internalType": "address",
          "name": "newOwner",
          "type": "address"
        }
      ],
      "name": "OwnershipTransferred",
      "type": "event"
    },
    {
      "inputs": [],
      "name": "INITIAL_USER_COUNT_THRESHOLD",
      "outputs": [
        {
          "internalType": "uint256",
          "name": "",
          "type": "uint256"
        }
      ],
      "stateMutability": "view",
      "type": "function"
    },
    {
      "inputs": [],
      "name": "MAX_USER_COUNT",
      "outputs": [
        {
          "internalType": "uint16",
          "name": "",
          "type": "uint16"
        }
      ],
      "stateMutability": "view",
      "type": "function"
    },
    {
      "inputs": [],
      "name": "MINIMUM_INSPECTIONS_TO_WON_POOL_LEVELS",
      "outputs": [
        {
          "internalType": "uint16",
          "name": "",
          "type": "uint16"
        }
      ],
      "stateMutability": "view",
      "type": "function"
    },
    {
      "inputs": [
        {
          "internalType": "uint256",
          "name": "",
          "type": "uint256"
        }
      ],
      "name": "activistsAddress",
      "outputs": [
        {
          "internalType": "address",
          "name": "",
          "type": "address"
        }
      ],
      "stateMutability": "view",
      "type": "function"
    },
    {
      "inputs": [
        {
          "internalType": "string",
          "name": "name",
          "type": "string"
        },
        {
          "internalType": "string",
          "name": "proofPhoto",
          "type": "string"
        }
      ],
      "name": "addActivist",
      "outputs": [],
      "stateMutability": "nonpayable",
      "type": "function"
    },
    {
      "inputs": [
        {
          "internalType": "address",
          "name": "inspectorAddress",
          "type": "address"
        },
        {
          "internalType": "uint256",
          "name": "inspectorTotalInspections",
          "type": "uint256"
        }
      ],
      "name": "addInspectorLevel",
      "outputs": [],
      "stateMutability": "nonpayable",
      "type": "function"
    },
    {
      "inputs": [
        {
          "internalType": "address",
          "name": "regeneratorAddress",
          "type": "address"
        },
        {
          "internalType": "uint256",
          "name": "regeneratorTotalInspections",
          "type": "uint256"
        }
      ],
      "name": "addRegeneratorLevel",
      "outputs": [],
      "stateMutability": "nonpayable",
      "type": "function"
    },
    {
      "inputs": [
        {
          "internalType": "address",
          "name": "",
          "type": "address"
        }
      ],
      "name": "allowedCallers",
      "outputs": [
        {
          "internalType": "bool",
          "name": "",
          "type": "bool"
        }
      ],
      "stateMutability": "view",
      "type": "function"
    },
    {
      "inputs": [],
      "name": "approvedInvites",
      "outputs": [
        {
          "internalType": "uint32",
          "name": "",
          "type": "uint32"
        }
      ],
      "stateMutability": "view",
      "type": "function"
    },
    {
      "inputs": [
        {
          "internalType": "uint256",
          "name": "totalLevels",
          "type": "uint256"
        },
        {
          "internalType": "uint256",
          "name": "totalUsers",
          "type": "uint256"
        },
        {
          "internalType": "uint256",
          "name": "userLevels",
          "type": "uint256"
        }
      ],
      "name": "canInvite",
      "outputs": [
        {
          "internalType": "bool",
          "name": "",
          "type": "bool"
        }
      ],
      "stateMutability": "pure",
      "type": "function"
    },
    {
      "inputs": [
        {
          "internalType": "address",
          "name": "addr",
          "type": "address"
        }
      ],
      "name": "canSendInvite",
      "outputs": [
        {
          "internalType": "bool",
          "name": "",
          "type": "bool"
        }
      ],
      "stateMutability": "view",
      "type": "function"
    },
    {
      "inputs": [
        {
          "internalType": "address",
          "name": "addr",
          "type": "address"
        }
      ],
      "name": "getActivist",
      "outputs": [
        {
          "components": [
            {
              "internalType": "uint64",
              "name": "id",
              "type": "uint64"
            },
            {
              "internalType": "address",
              "name": "activistWallet",
              "type": "address"
            },
            {
              "internalType": "string",
              "name": "name",
              "type": "string"
            },
            {
              "internalType": "string",
              "name": "proofPhoto",
              "type": "string"
            },
            {
              "components": [
                {
                  "internalType": "uint256",
                  "name": "level",
                  "type": "uint256"
                },
                {
                  "internalType": "uint256",
                  "name": "currentEra",
                  "type": "uint256"
                }
              ],
              "internalType": "struct Pool",
              "name": "pool",
              "type": "tuple"
            },
            {
              "internalType": "uint256",
              "name": "createdAt",
              "type": "uint256"
            }
          ],
          "internalType": "struct Activist",
          "name": "",
          "type": "tuple"
        }
      ],
      "stateMutability": "view",
      "type": "function"
    },
    {
      "inputs": [
        {
          "internalType": "address",
          "name": "caller",
          "type": "address"
        }
      ],
      "name": "isAllowedCaller",
      "outputs": [
        {
          "internalType": "bool",
          "name": "",
          "type": "bool"
        }
      ],
      "stateMutability": "view",
      "type": "function"
    },
    {
      "inputs": [
        {
          "internalType": "address",
          "name": "allowed",
          "type": "address"
        }
      ],
      "name": "newAllowedCaller",
      "outputs": [],
      "stateMutability": "nonpayable",
      "type": "function"
    },
    {
      "inputs": [],
      "name": "owner",
      "outputs": [
        {
          "internalType": "address",
          "name": "",
          "type": "address"
        }
      ],
      "stateMutability": "view",
      "type": "function"
    },
    {
      "inputs": [],
      "name": "poolCurrentEra",
      "outputs": [
        {
          "internalType": "uint256",
          "name": "",
          "type": "uint256"
        }
      ],
      "stateMutability": "view",
      "type": "function"
    },
    {
      "inputs": [
        {
          "internalType": "address",
          "name": "addr",
          "type": "address"
        },
        {
          "internalType": "uint256",
          "name": "levelsToRemove",
          "type": "uint256"
        }
      ],
      "name": "removePoolLevels",
      "outputs": [],
      "stateMutability": "nonpayable",
      "type": "function"
    },
    {
      "inputs": [],
      "name": "renounceOwnership",
      "outputs": [],
      "stateMutability": "nonpayable",
      "type": "function"
    },
    {
      "inputs": [
        {
          "internalType": "address",
          "name": "_inspectionRulesAddress",
          "type": "address"
        },
        {
          "internalType": "address",
          "name": "_validationRulesAddress",
          "type": "address"
        }
      ],
      "name": "setContractCall",
      "outputs": [],
      "stateMutability": "nonpayable",
      "type": "function"
    },
    {
      "inputs": [
        {
          "internalType": "address",
          "name": "newOwner",
          "type": "address"
        }
      ],
      "name": "transferOwnership",
      "outputs": [],
      "stateMutability": "nonpayable",
      "type": "function"
    },
    {
      "inputs": [],
      "name": "withdraw",
      "outputs": [],
      "stateMutability": "nonpayable",
      "type": "function"
    }
  ],
  "bytecode": "0x608060405234801561001057600080fd5b50604051611b5f380380611b5f83398101604081905261002f91610101565b338061005557604051631e4fbdf760e01b81526000600482015260240160405180910390fd5b61005e81610095565b506001600255600780546001600160a01b039384166001600160a01b03199182161790915560088054929093169116179055610134565b600080546001600160a01b038381166001600160a01b0319831681178455604051919092169283917f8be0079c531659141344cd1fd0a4f28419497f9722a3daafe3b4186f6b6457e09190a35050565b80516001600160a01b03811681146100fc57600080fd5b919050565b6000806040838503121561011457600080fd5b61011d836100e5565b915061012b602084016100e5565b90509250929050565b611a1c806101436000396000f3fe608060405234801561001057600080fd5b50600436106101365760003560e01c80637b334154116100b8578063a68012581161007c578063a6801258146102ae578063be9dc584146102da578063c77c1ce6146102f0578063e05cf15514610303578063f1a204ce1461013b578063f2fde38b1461030b57600080fd5b80637b334154146102075780638da5cb5b1461023a5780638f93716f1461025f5780639d3c50b2146102725780639eaf666f1461029b57600080fd5b8063430816aa116100ff578063430816aa1461019e5780635fbf8a69146101c357806362efeff7146101d65780636ec7053a146101f6578063715018a6146101ff57600080fd5b8062b2c9201461013b57806304521ca31461015057806318ad5c9a1461016357806320515231146101765780633ccfd60b14610196575b600080fd5b61014e6101493660046113c6565b61031e565b005b61014e61015e3660046113f2565b6103f3565b61014e6101713660046113c6565b610429565b61017e600381565b60405161ffff90911681526020015b60405180910390f35b61014e6105e4565b6003546101ae9063ffffffff1681565b60405163ffffffff909116815260200161018d565b61014e6101d13660046114ce565b610841565b6101e96101e4366004611535565b610b94565b60405161018d9190611598565b61017e613e8081565b61014e610d76565b61022a610215366004611535565b60016020526000908152604090205460ff1681565b604051901515815260200161018d565b6000546001600160a01b03165b6040516001600160a01b03909116815260200161018d565b61014e61026d366004611535565b610d88565b610247610280366004611625565b6006602052600090815260409020546001600160a01b031681565b61022a6102a936600461163e565b610db7565b61022a6102bc366004611535565b6001600160a01b031660009081526001602052604090205460ff1690565b6102e2600581565b60405190815260200161018d565b61022a6102fe366004611535565b610def565b6102e2611038565b61014e610319366004611535565b6110ab565b3360009081526001602052604090205460ff166103775760405162461bcd60e51b81526020600482015260126024820152712737ba1030b63637bbb2b21031b0b63632b960711b60448201526064015b60405180910390fd5b6009546001600160a01b03163381146103d25760405162461bcd60e51b815260206004820152601e60248201527f43616c6c6572206d7573742062652073797374656d20636f6e74726163740000604482015260640161036e565b6103da6110e9565b6103e48383611111565b6103ee6001600255565b505050565b6103fb61123a565b600980546001600160a01b039384166001600160a01b031991821617909155600a8054929093169116179055565b3360009081526001602052604090205460ff1661047d5760405162461bcd60e51b81526020600482015260126024820152712737ba1030b63637bbb2b21031b0b63632b960711b604482015260640161036e565b600a546001600160a01b03163381146104d85760405162461bcd60e51b815260206004820152601e60248201527f43616c6c6572206d7573742062652073797374656d20636f6e74726163740000604482015260640161036e565b6104e06110e9565b6001600160a01b038316600090815260046020526040902082610507576003810154610509565b825b60038201805460009061051d908490611680565b9091555050600854604051630c56ae4d60e11b81526001600160a01b03868116600483015260248201869052909116906318ad5c9a90604401600060405180830381600087803b15801561057057600080fd5b505af1158015610584573d6000803e3d6000fd5b505050600382015460408051868152602081019290925243908201526001600160a01b03861691507f91fb82506cd586644a295f8280b2511c9032bb1f360432516f881485c06e20309060600160405180910390a2506103ee6001600255565b6105ec6110e9565b600754604051631292f8c160e31b81526001600160a01b0390911690639497c6089061061f9060069033906004016116bb565b602060405180830381865afa15801561063c573d6000803e3d6000fd5b505050506040513d601f19601f8201168201806040525081019061066091906116e1565b6106a45760405162461bcd60e51b8152602060048201526015602482015274141bdbdb081bdb9b1e481d1bc81858dd1a5d9a5cdd605a1b604482015260640161036e565b33600090815260046020819052604091829020808201546008549351637df42f8360e11b8152928301819052909290916001600160a01b039091169063fbe85f0690602401602060405180830381865afa158015610706573d6000803e3d6000fd5b505050506040513d601f19601f8201168201806040525081019061072a91906116e1565b6107845760405162461bcd60e51b815260206004820152602560248201527f4e6f7420656c696769626c6520746f20776974686472617720666f7220746869604482015264732065726160d81b606482015260840161036e565b61078f816001611703565b60048381019190915560085460405163f3fef3a360e01b81523392810192909252602482018390526001600160a01b03169063f3fef3a390604401600060405180830381600087803b1580156107e457600080fd5b505af11580156107f8573d6000803e3d6000fd5b50506040514381528392503391507fb81f4acc0377f571ab134a4bbbd3747583189d714f31efcea075ae6d4c1d72da9060200160405180910390a3505061083f6001600255565b565b815160321080159061085557508051609610155b6108925760405162461bcd60e51b815260206004820152600e60248201526d4d6178206368617261637465727360901b604482015260640161036e565b600754604051632f22dc7b60e01b8152613e80916001600160a01b031690632f22dc7b906108c590600690600401611716565b602060405180830381865afa1580156108e2573d6000803e3d6000fd5b505050506040513d601f19601f820116820180604052508101906109069190611724565b106109445760405162461bcd60e51b815260206004820152600e60248201526d13585e081d5cd95c881b1a5b5a5d60921b604482015260640161036e565b60075460405162f5960960e51b81526000916001600160a01b031690631eb2c1209061097590600690600401611716565b602060405180830381865afa158015610992573d6000803e3d6000fd5b505050506040513d601f19601f820116820180604052508101906109b6919061173d565b6109c1906001611766565b90506040518060c00160405280826001600160401b03168152602001336001600160a01b03168152602001848152602001838152602001604051806040016040528060008152602001610a12611038565b90528152436020918201523360009081526004825260409081902083518154938501516001600160a01b0316600160401b026001600160e01b03199094166001600160401b03909116179290921782558201516001820190610a74908261180d565b5060608201516002820190610a89908261180d565b5060808201518051600383015560209081015160048084019190915560a0909301516005909201919091556001600160401b038316600090815260069182905260409081902080546001600160a01b031916339081179091556007549151639c3eead960e01b81526001600160a01b039290921693639c3eead993610b10939091016118cb565b600060405180830381600087803b158015610b2a57600080fd5b505af1158015610b3e573d6000803e3d6000fd5b50505050336001600160a01b0316816001600160401b03167f465f144a166d5efbf5d238fa355c743be298b6a91abf5e53628b9a87dacbe3c38543604051610b879291906118e8565b60405180910390a3505050565b610bdb6040805160c0810182526000808252602080830182905260608385018190528084015283518085019094528184528301529060808201908152602001600081525090565b6001600160a01b03808316600090815260046020908152604091829020825160c08101845281546001600160401b0381168252600160401b9004909416918401919091526001810180549192840191610c3390611785565b80601f0160208091040260200160405190810160405280929190818152602001828054610c5f90611785565b8015610cac5780601f10610c8157610100808354040283529160200191610cac565b820191906000526020600020905b815481529060010190602001808311610c8f57829003601f168201915b50505050508152602001600282018054610cc590611785565b80601f0160208091040260200160405190810160405280929190818152602001828054610cf190611785565b8015610d3e5780601f10610d1357610100808354040283529160200191610d3e565b820191906000526020600020905b815481529060010190602001808311610d2157829003601f168201915b505050918352505060408051808201825260038401548152600484015460208281019190915283015260059092015491015292915050565b610d7e61123a565b61083f6000611267565b610d9061123a565b6001600160a01b03166000908152600160208190526040909120805460ff19169091179055565b600060058311610dc957506001610de8565b82600003610dd957506000610de8565b83610de4848461190a565b1190505b9392505050565b6001600160a01b038082166000908152600460209081526040808320815160c08101835281546001600160401b0381168252600160401b9004909516928501929092526001820180549394859490939284019190610e4c90611785565b80601f0160208091040260200160405190810160405280929190818152602001828054610e7890611785565b8015610ec55780601f10610e9a57610100808354040283529160200191610ec5565b820191906000526020600020905b815481529060010190602001808311610ea857829003601f168201915b50505050508152602001600282018054610ede90611785565b80601f0160208091040260200160405190810160405280929190818152602001828054610f0a90611785565b8015610f575780601f10610f2c57610100808354040283529160200191610f57565b820191906000526020600020905b815481529060010190602001808311610f3a57829003601f168201915b505050918352505060408051808201825260038401548152600484015460208281019190915283015260059092015491015280519091506001600160401b0316610fa45750600092915050565b60035460075460405162f5960960e51b8152610de89263ffffffff16916001600160a01b031690631eb2c12090610fe090600690600401611716565b602060405180830381865afa158015610ffd573d6000803e3d6000fd5b505050506040513d601f19601f82011682018060405250810190611021919061173d565b6001600160401b0316836080015160000151610db7565b60085460408051637686fbcf60e11b815290516000926001600160a01b03169163ed0df79e9160048083019260209291908290030181865afa158015611082573d6000803e3d6000fd5b505050506040513d601f19601f820116820180604052508101906110a69190611724565b905090565b6110b361123a565b6001600160a01b0381166110dd57604051631e4fbdf760e01b81526000600482015260240161036e565b6110e681611267565b50565b600280540361110b57604051633ee5aeb560e01b815260040160405180910390fd5b60028055565b60075460405163158bdc5f60e11b81526001600160a01b0384811660048301526000921690632b17b8be90602401608060405180830381865afa15801561115c573d6000803e3d6000fd5b505050506040513d601f19601f820116820180604052508101906111809190611921565b6020808201516001600160a01b038082166000908152600584526040808220928916825291909352909120549192509060ff161580156111c1575060038310155b15611234576001600160a01b0380821660009081526005602090815260408083209388168352929052908120805460ff191660011790556003805463ffffffff169161120c836119a8565b91906101000a81548163ffffffff021916908363ffffffff16021790555050611234816112b7565b50505050565b6000546001600160a01b0316331461083f5760405163118cdaa760e01b815233600482015260240161036e565b600080546001600160a01b038381166001600160a01b0319831681178455604051919092169283917f8be0079c531659141344cd1fd0a4f28419497f9722a3daafe3b4186f6b6457e09190a35050565b6001600160a01b0381166000908152600460205260408120805490916001600160401b0390911690036112e8575050565b6003810180549060006112fa836119cd565b90915550506008546040516352b8d3ed60e01b81526001600160a01b03848116600483015260016024830152909116906352b8d3ed90604401600060405180830381600087803b15801561134d57600080fd5b505af1158015611361573d6000803e3d6000fd5b505050506003810154604080519182524360208301526001600160a01b038416917f36f15968a9f51192bb47c8eb232f2f6f1a17509d72befcb36e4963e541831f03910160405180910390a25050565b6001600160a01b03811681146110e657600080fd5b600080604083850312156113d957600080fd5b82356113e4816113b1565b946020939093013593505050565b6000806040838503121561140557600080fd5b8235611410816113b1565b91506020830135611420816113b1565b809150509250929050565b634e487b7160e01b600052604160045260246000fd5b600082601f83011261145257600080fd5b81356001600160401b0381111561146b5761146b61142b565b604051601f8201601f19908116603f011681016001600160401b03811182821017156114995761149961142b565b6040528181528382016020018510156114b157600080fd5b816020850160208301376000918101602001919091529392505050565b600080604083850312156114e157600080fd5b82356001600160401b038111156114f757600080fd5b61150385828601611441565b92505060208301356001600160401b0381111561151f57600080fd5b61152b85828601611441565b9150509250929050565b60006020828403121561154757600080fd5b8135610de8816113b1565b6000815180845260005b818110156115785760208185018101518683018201520161155c565b506000602082860101526020601f19601f83011685010191505092915050565b602081526001600160401b03825116602082015260018060a01b0360208301511660408201526000604083015160e060608401526115da610100840182611552565b90506060840151601f198483030160808501526115f78282611552565b9150506080840151805160a0850152602081015160c08501525060a084015160e08401528091505092915050565b60006020828403121561163757600080fd5b5035919050565b60008060006060848603121561165357600080fd5b505081359360208301359350604090920135919050565b634e487b7160e01b600052601160045260246000fd5b818103818111156116935761169361166a565b92915050565b600981106116b757634e487b7160e01b600052602160045260246000fd5b9052565b604081016116c98285611699565b6001600160a01b039290921660209190910152919050565b6000602082840312156116f357600080fd5b81518015158114610de857600080fd5b808201808211156116935761169361166a565b602081016116938284611699565b60006020828403121561173657600080fd5b5051919050565b60006020828403121561174f57600080fd5b81516001600160401b0381168114610de857600080fd5b6001600160401b0381811683821601908111156116935761169361166a565b600181811c9082168061179957607f821691505b6020821081036117b957634e487b7160e01b600052602260045260246000fd5b50919050565b601f8211156103ee57806000526020600020601f840160051c810160208510156117e65750805b601f840160051c820191505b8181101561180657600081556001016117f2565b5050505050565b81516001600160401b038111156118265761182661142b565b61183a816118348454611785565b846117bf565b6020601f82116001811461186e57600083156118565750848201515b600019600385901b1c1916600184901b178455611806565b600084815260208120601f198516915b8281101561189e578785015182556020948501946001909201910161187e565b50848210156118bc5786840151600019600387901b60f8161c191681555b50505050600190811b01905550565b6001600160a01b038316815260408101610de86020830184611699565b6040815260006118fb6040830185611552565b90508260208301529392505050565b80820281158282048414176116935761169361166a565b6000608082840312801561193457600080fd5b50604051600090608081016001600160401b038111828210171561195a5761195a61142b565b6040528351611968816113b1565b81526020840151611978816113b1565b602082015260408401516009811061198e578283fd5b604082015260609384015193810193909352509092915050565b600063ffffffff821663ffffffff81036119c4576119c461166a565b60010192915050565b6000600182016119df576119df61166a565b506001019056fea26469706673582212201ab90a61da0ea1a0089e7539b2dc3b194c52a60a87c563d520f2d015930b4ddc64736f6c634300081b0033",
  "linkReferences": {},
  "deployedLinkReferences": {}
}