{
  "_format": "hh-sol-artifact-1",
  "contractName": "CommunityRules",
  "sourceName": "contracts/CommunityRules.sol",
  "abi": [
    {
      "inputs": [
        {
          "internalType": "uint8",
          "name": "inspectorProportionality",
          "type": "uint8"
        },
        {
          "internalType": "uint8",
          "name": "activistProportionality",
          "type": "uint8"
        },
        {
          "internalType": "uint8",
          "name": "researcherProportionality",
          "type": "uint8"
        },
        {
          "internalType": "uint8",
          "name": "developerProportionality",
          "type": "uint8"
        },
        {
          "internalType": "uint8",
          "name": "contributorProportionality",
          "type": "uint8"
        }
      ],
      "stateMutability": "nonpayable",
      "type": "constructor"
    },
    {
      "inputs": [
        {
          "internalType": "address",
          "name": "owner",
          "type": "address"
        }
      ],
      "name": "OwnableInvalidOwner",
      "type": "error"
    },
    {
      "inputs": [
        {
          "internalType": "address",
          "name": "account",
          "type": "address"
        }
      ],
      "name": "OwnableUnauthorizedAccount",
      "type": "error"
    },
    {
      "anonymous": false,
      "inputs": [
        {
          "indexed": true,
          "internalType": "address",
          "name": "informer",
          "type": "address"
        },
        {
          "indexed": true,
          "internalType": "address",
          "name": "reported",
          "type": "address"
        }
      ],
      "name": "DelationAdded",
      "type": "event"
    },
    {
      "anonymous": false,
      "inputs": [
        {
          "indexed": true,
          "internalType": "address",
          "name": "addr",
          "type": "address"
        }
      ],
      "name": "DeniedUserEvent",
      "type": "event"
    },
    {
      "anonymous": false,
      "inputs": [
        {
          "indexed": true,
          "internalType": "address",
          "name": "inviter",
          "type": "address"
        },
        {
          "indexed": true,
          "internalType": "address",
          "name": "invited",
          "type": "address"
        },
        {
          "indexed": false,
          "internalType": "enum CommunityTypes.UserType",
          "name": "userTypeTo",
          "type": "uint8"
        }
      ],
      "name": "InvitationAdded",
      "type": "event"
    },
    {
      "anonymous": false,
      "inputs": [
        {
          "indexed": true,
          "internalType": "address",
          "name": "previousOwner",
          "type": "address"
        },
        {
          "indexed": true,
          "internalType": "address",
          "name": "newOwner",
          "type": "address"
        }
      ],
      "name": "OwnershipTransferred",
      "type": "event"
    },
    {
      "anonymous": false,
      "inputs": [
        {
          "indexed": true,
          "internalType": "address",
          "name": "addr",
          "type": "address"
        },
        {
          "indexed": false,
          "internalType": "enum CommunityTypes.UserType",
          "name": "userType",
          "type": "uint8"
        }
      ],
      "name": "UserRegistered",
      "type": "event"
    },
    {
      "inputs": [],
      "name": "VOTER_INVITATION_DELAY_BLOCKS",
      "outputs": [
        {
          "internalType": "uint32",
          "name": "",
          "type": "uint32"
        }
      ],
      "stateMutability": "view",
      "type": "function"
    },
    {
      "inputs": [
        {
          "internalType": "address",
          "name": "addr",
          "type": "address"
        },
        {
          "internalType": "string",
          "name": "title",
          "type": "string"
        },
        {
          "internalType": "string",
          "name": "testimony",
          "type": "string"
        }
      ],
      "name": "addDelation",
      "outputs": [],
      "stateMutability": "nonpayable",
      "type": "function"
    },
    {
      "inputs": [
        {
          "internalType": "address",
          "name": "inviter",
          "type": "address"
        },
        {
          "internalType": "address",
          "name": "invited",
          "type": "address"
        },
        {
          "internalType": "enum CommunityTypes.UserType",
          "name": "userType",
          "type": "uint8"
        }
      ],
      "name": "addInvitation",
      "outputs": [],
      "stateMutability": "nonpayable",
      "type": "function"
    },
    {
      "inputs": [
        {
          "internalType": "address",
          "name": "inviter",
          "type": "address"
        }
      ],
      "name": "addInviterPenalty",
      "outputs": [],
      "stateMutability": "nonpayable",
      "type": "function"
    },
    {
      "inputs": [
        {
          "internalType": "address",
          "name": "addr",
          "type": "address"
        },
        {
          "internalType": "enum CommunityTypes.UserType",
          "name": "userType",
          "type": "uint8"
        }
      ],
      "name": "addUser",
      "outputs": [],
      "stateMutability": "nonpayable",
      "type": "function"
    },
    {
      "inputs": [
        {
          "internalType": "address",
          "name": "",
          "type": "address"
        }
      ],
      "name": "allowedCallers",
      "outputs": [
        {
          "internalType": "bool",
          "name": "",
          "type": "bool"
        }
      ],
      "stateMutability": "view",
      "type": "function"
    },
    {
      "inputs": [],
      "name": "delationsCount",
      "outputs": [
        {
          "internalType": "uint64",
          "name": "",
          "type": "uint64"
        }
      ],
      "stateMutability": "view",
      "type": "function"
    },
    {
      "inputs": [
        {
          "internalType": "address",
          "name": "addr",
          "type": "address"
        }
      ],
      "name": "getInvitation",
      "outputs": [
        {
          "components": [
            {
              "internalType": "address",
              "name": "invited",
              "type": "address"
            },
            {
              "internalType": "address",
              "name": "inviter",
              "type": "address"
            },
            {
              "internalType": "enum CommunityTypes.UserType",
              "name": "userType",
              "type": "uint8"
            },
            {
              "internalType": "uint256",
              "name": "createdAtBlock",
              "type": "uint256"
            }
          ],
          "internalType": "struct CommunityTypes.Invitation",
          "name": "",
          "type": "tuple"
        }
      ],
      "stateMutability": "view",
      "type": "function"
    },
    {
      "inputs": [
        {
          "internalType": "address",
          "name": "addr",
          "type": "address"
        }
      ],
      "name": "getUser",
      "outputs": [
        {
          "internalType": "enum CommunityTypes.UserType",
          "name": "",
          "type": "uint8"
        }
      ],
      "stateMutability": "view",
      "type": "function"
    },
    {
      "inputs": [
        {
          "internalType": "address",
          "name": "addr",
          "type": "address"
        }
      ],
      "name": "getUserDelations",
      "outputs": [
        {
          "components": [
            {
              "internalType": "uint64",
              "name": "id",
              "type": "uint64"
            },
            {
              "internalType": "address",
              "name": "informer",
              "type": "address"
            },
            {
              "internalType": "address",
              "name": "reported",
              "type": "address"
            },
            {
              "internalType": "string",
              "name": "title",
              "type": "string"
            },
            {
              "internalType": "string",
              "name": "testimony",
              "type": "string"
            }
          ],
          "internalType": "struct CommunityTypes.Delation[]",
          "name": "",
          "type": "tuple[]"
        }
      ],
      "stateMutability": "view",
      "type": "function"
    },
    {
      "inputs": [
        {
          "internalType": "enum CommunityTypes.UserType",
          "name": "userType",
          "type": "uint8"
        }
      ],
      "name": "getUserTypeSettings",
      "outputs": [
        {
          "components": [
            {
              "internalType": "uint8",
              "name": "proportionalityOnRegister",
              "type": "uint8"
            },
            {
              "internalType": "bool",
              "name": "directProportionalityRegistration",
              "type": "bool"
            },
            {
              "internalType": "bool",
              "name": "needInvitationOnRegister",
              "type": "bool"
            },
            {
              "internalType": "uint32",
              "name": "invitationDelayBlocks",
              "type": "uint32"
            },
            {
              "internalType": "bool",
              "name": "isVoter",
              "type": "bool"
            }
          ],
          "internalType": "struct CommunityTypes.UserTypeSetting",
          "name": "",
          "type": "tuple"
        }
      ],
      "stateMutability": "view",
      "type": "function"
    },
    {
      "inputs": [
        {
          "internalType": "address",
          "name": "",
          "type": "address"
        }
      ],
      "name": "invitations",
      "outputs": [
        {
          "internalType": "address",
          "name": "invited",
          "type": "address"
        },
        {
          "internalType": "address",
          "name": "inviter",
          "type": "address"
        },
        {
          "internalType": "enum CommunityTypes.UserType",
          "name": "userType",
          "type": "uint8"
        },
        {
          "internalType": "uint256",
          "name": "createdAtBlock",
          "type": "uint256"
        }
      ],
      "stateMutability": "view",
      "type": "function"
    },
    {
      "inputs": [
        {
          "internalType": "address",
          "name": "",
          "type": "address"
        }
      ],
      "name": "inviterPenalties",
      "outputs": [
        {
          "internalType": "uint16",
          "name": "",
          "type": "uint16"
        }
      ],
      "stateMutability": "view",
      "type": "function"
    },
    {
      "inputs": [
        {
          "internalType": "address",
          "name": "caller",
          "type": "address"
        }
      ],
      "name": "isAllowedCaller",
      "outputs": [
        {
          "internalType": "bool",
          "name": "",
          "type": "bool"
        }
      ],
      "stateMutability": "view",
      "type": "function"
    },
    {
      "inputs": [
        {
          "internalType": "address",
          "name": "addr",
          "type": "address"
        }
      ],
      "name": "isVoter",
      "outputs": [
        {
          "internalType": "bool",
          "name": "",
          "type": "bool"
        }
      ],
      "stateMutability": "view",
      "type": "function"
    },
    {
      "inputs": [
        {
          "internalType": "address",
          "name": "allowed",
          "type": "address"
        }
      ],
      "name": "newAllowedCaller",
      "outputs": [],
      "stateMutability": "nonpayable",
      "type": "function"
    },
    {
      "inputs": [],
      "name": "owner",
      "outputs": [
        {
          "internalType": "address",
          "name": "",
          "type": "address"
        }
      ],
      "stateMutability": "view",
      "type": "function"
    },
    {
      "inputs": [],
      "name": "renounceOwnership",
      "outputs": [],
      "stateMutability": "nonpayable",
      "type": "function"
    },
    {
      "inputs": [
        {
          "internalType": "address",
          "name": "_invitationRulesAddress",
          "type": "address"
        },
        {
          "internalType": "address",
          "name": "_validationRulesAddress",
          "type": "address"
        }
      ],
      "name": "setContractCall",
      "outputs": [],
      "stateMutability": "nonpayable",
      "type": "function"
    },
    {
      "inputs": [
        {
          "internalType": "address",
          "name": "userAddress",
          "type": "address"
        }
      ],
      "name": "setDeniedType",
      "outputs": [],
      "stateMutability": "nonpayable",
      "type": "function"
    },
    {
      "inputs": [
        {
          "internalType": "address",
          "name": "newOwner",
          "type": "address"
        }
      ],
      "name": "transferOwnership",
      "outputs": [],
      "stateMutability": "nonpayable",
      "type": "function"
    },
    {
      "inputs": [
        {
          "internalType": "enum CommunityTypes.UserType",
          "name": "userType",
          "type": "uint8"
        },
        {
          "internalType": "address",
          "name": "userAddress",
          "type": "address"
        }
      ],
      "name": "userTypeIs",
      "outputs": [
        {
          "internalType": "bool",
          "name": "",
          "type": "bool"
        }
      ],
      "stateMutability": "view",
      "type": "function"
    },
    {
      "inputs": [
        {
          "internalType": "enum CommunityTypes.UserType",
          "name": "",
          "type": "uint8"
        }
      ],
      "name": "userTypeSettings",
      "outputs": [
        {
          "internalType": "uint8",
          "name": "proportionalityOnRegister",
          "type": "uint8"
        },
        {
          "internalType": "bool",
          "name": "directProportionalityRegistration",
          "type": "bool"
        },
        {
          "internalType": "bool",
          "name": "needInvitationOnRegister",
          "type": "bool"
        },
        {
          "internalType": "uint32",
          "name": "invitationDelayBlocks",
          "type": "uint32"
        },
        {
          "internalType": "bool",
          "name": "isVoter",
          "type": "bool"
        }
      ],
      "stateMutability": "view",
      "type": "function"
    },
    {
      "inputs": [
        {
          "internalType": "enum CommunityTypes.UserType",
          "name": "",
          "type": "uint8"
        }
      ],
      "name": "userTypesCount",
      "outputs": [
        {
          "internalType": "uint64",
          "name": "",
          "type": "uint64"
        }
      ],
      "stateMutability": "view",
      "type": "function"
    },
    {
      "inputs": [
        {
          "internalType": "enum CommunityTypes.UserType",
          "name": "",
          "type": "uint8"
        }
      ],
      "name": "userTypesTotalCount",
      "outputs": [
        {
          "internalType": "uint64",
          "name": "",
          "type": "uint64"
        }
      ],
      "stateMutability": "view",
      "type": "function"
    },
    {
      "inputs": [],
      "name": "usersCount",
      "outputs": [
        {
          "internalType": "uint64",
          "name": "",
          "type": "uint64"
        }
      ],
      "stateMutability": "view",
      "type": "function"
    },
    {
      "inputs": [],
      "name": "votersCount",
      "outputs": [
        {
          "internalType": "uint256",
          "name": "",
          "type": "uint256"
        }
      ],
      "stateMutability": "view",
      "type": "function"
    }
  ],
  "bytecode": "0x608060405234801561001057600080fd5b5060405161272838038061272883398101604081905261002f916105ae565b338061005557604051631e4fbdf760e01b81526000600482015260240160405180910390fd5b61005e81610548565b506040805160a0808201835260008083526020808401828152600185870181815260608088018681526080808a0188815285895260088089529a517fad67d757c34507f157cacfa2e3153e9f260a2244f30428821be7be64587ac55f8054985196519451925115156701000000000000000260ff60381b1963ffffffff90941663010000000266ffffffff0000001996151562010000029690961666ffffffffff0000199815156101000261ffff19909b1660ff948516179a909a17979097169890981793909317169390931790945588519687018952928d168652928501819052958401959095529382018190529281018390529160028152602080820192909252604090810160009081208451815486860151878601516060808a015160809a8b015115156701000000000000000260ff60381b1963ffffffff90921663010000000266ffffffff0000001994151562010000029490941666ffffffffff0000199515156101000261ffff1990971660ff98891617969096179490941694909417919091179290921617909255835160a081018552908a1681529384018290526001928401839052620186a09084015292820152906008906006600881111561022b5761022b610613565b8152602080820192909252604090810160009081208451815486860151878601516060808a015160809a8b015115156701000000000000000260ff60381b1963ffffffff90921663010000000266ffffffff0000001994151562010000029490941666ffffffffff0000199515156101000261ffff1990971660ff98891617969096179490941694909417919091179290921617909255835160a08101855290891681529384018290526001928401839052620186a09084015292820152906008906003600881111561030057610300610613565b8152602080820192909252604090810160009081208451815486860151878601516060808a015160809a8b015115156701000000000000000260ff60381b1963ffffffff90921663010000000266ffffffff0000001994151562010000029490941666ffffffffff0000199515156101000261ffff1990971660ff98891617969096179490941694909417919091179290921617909255835160a08101855290881681529384018290526001928401839052620186a0908401529282015290600890600460088111156103d5576103d5610613565b8152602080820192909252604090810160009081208451815486860151878601516060808a015160809a8b015115156701000000000000000260ff60381b1963ffffffff90921663010000000266ffffffff0000001994151562010000029490941666ffffffffff0000199515156101000261ffff1990971660ff98891617969096179490941694909417919091179290921617909255835160a08101855290871681529384018290526001928401839052620186a0908401529282015290600890600560088111156104aa576104aa610613565b81526020808201929092526040908101600020835181549385015192850151606086015160809096015115156701000000000000000260ff60381b1963ffffffff90971663010000000266ffffffff0000001992151562010000029290921666ffffffffff0000199515156101000261ffff1990971660ff909416939093179590951793909316179190911792909216179055506106299350505050565b600080546001600160a01b038381166001600160a01b0319831681178455604051919092169283917f8be0079c531659141344cd1fd0a4f28419497f9722a3daafe3b4186f6b6457e09190a35050565b805160ff811681146105a957600080fd5b919050565b600080600080600060a086880312156105c657600080fd5b6105cf86610598565b94506105dd60208701610598565b93506105eb60408701610598565b92506105f960608701610598565b915061060760808701610598565b90509295509295909350565b634e487b7160e01b600052602160045260246000fd5b6120f0806106386000396000f3fe608060405234801561001057600080fd5b50600436106101a95760003560e01c80637ccfdba7116100f95780639c3eead911610097578063deffb90611610071578063deffb9061461055f578063e202fa4d1461057e578063f2fde38b14610591578063ff789095146105a457600080fd5b80639c3eead91461050d578063a680125814610520578063a7771ee31461054c57600080fd5b806392220142116100d3578063922201421461046d5780639497c608146104805780639547f9531461049357806398c07938146104f757600080fd5b80637ccfdba71461042c5780638da5cb5b1461043f5780638f93716f1461045a57600080fd5b80632f22dc7b116101665780636ba13a82116101405780636ba13a821461039e5780636f77926b146103b8578063715018a6146103f15780637b334154146103f957600080fd5b80632f22dc7b1461030b57806358f43f76146103345780636101bf211461038b57600080fd5b806304521ca3146101ae578063064505ad146101c35780630ed4ea5e146101ec5780631eb2c120146102735780632115c634146102b45780632b17b8be146102eb575b600080fd5b6101c16101bc366004611a29565b6105b7565b005b6101d66101d1366004611a5c565b6105ed565b6040516101e39190611ac4565b60405180910390f35b61023a6101fa366004611b96565b60086020526000908152604090205460ff80821691610100810482169162010000820481169163ffffffff630100000082041691600160381b9091041685565b6040805160ff909616865293151560208601529115159284019290925263ffffffff90911660608301521515608082015260a0016101e3565b61029c610281366004611b96565b6007602052600090815260409020546001600160401b031681565b6040516001600160401b0390911681526020016101e3565b6102d86102c2366004611a5c565b60096020526000908152604090205461ffff1681565b60405161ffff90911681526020016101e3565b6102fe6102f9366004611a5c565b6107c2565b6040516101e39190611be9565b61029c610319366004611b96565b6006602052600090815260409020546001600160401b031681565b61037b610342366004611a5c565b6005602052600090815260409020805460018201546002909201546001600160a01b039182169291821691600160a01b900460ff169084565b6040516101e39493929190611c2b565b6101c1610399366004611a5c565b610861565b60025461029c90600160401b90046001600160401b031681565b6103e46103c6366004611a5c565b6001600160a01b031660009081526003602052604090205460ff1690565b6040516101e39190611c5f565b6101c161090b565b61041c610407366004611a5c565b60016020526000908152604090205460ff1681565b60405190151581526020016101e3565b6101c161043a366004611c6d565b61091f565b6000546040516001600160a01b0390911681526020016101e3565b6101c1610468366004611a5c565b610baf565b60025461029c906001600160401b031681565b61041c61048e366004611cb0565b610bde565b6104a66104a1366004611b96565b610c29565b6040516101e39190600060a08201905060ff835116825260208301511515602083015260408301511515604083015263ffffffff606084015116606083015260808301511515608083015292915050565b6104ff610cea565b6040519081526020016101e3565b6101c161051b366004611ccc565b610dbd565b61041c61052e366004611a5c565b6001600160a01b031660009081526001602052604090205460ff1690565b61041c61055a366004611a5c565b611170565b610569620186a081565b60405163ffffffff90911681526020016101e3565b6101c161058c366004611a5c565b61119f565b6101c161059f366004611a5c565b611308565b6101c16105b2366004611d99565b611346565b6105bf6116dd565b600a80546001600160a01b039384166001600160a01b031991821617909155600b8054929093169116179055565b6001600160a01b0381166000908152600460209081526040808320805482518185028101850190935280835260609492939192909184015b828210156107b75760008481526020908190206040805160a0810182526004860290920180546001600160401b03811684526001600160a01b03600160401b90910481169484019490945260018101549093169082015260028201805491929160608401919061069490611e10565b80601f01602080910402602001604051908101604052809291908181526020018280546106c090611e10565b801561070d5780601f106106e25761010080835404028352916020019161070d565b820191906000526020600020905b8154815290600101906020018083116106f057829003601f168201915b5050505050815260200160038201805461072690611e10565b80601f016020809104026020016040519081016040528092919081815260200182805461075290611e10565b801561079f5780601f106107745761010080835404028352916020019161079f565b820191906000526020600020905b81548152906001019060200180831161078257829003601f168201915b50505050508152505081526020019060010190610625565b505050509050919050565b604080516080808201835260008083526020808401829052838501829052606084018290526001600160a01b0386811683526005825291859020855193840186528054831684526001810154928316918401919091529293919291830190600160a01b900460ff16600881111561083b5761083b611bb1565b600881111561084c5761084c611bb1565b81526020016002820154815250509050919050565b3360009081526001602052604090205460ff166108995760405162461bcd60e51b815260040161089090611e4a565b60405180910390fd5b600b546001600160a01b03163381146108c45760405162461bcd60e51b815260040161089090611e76565b6001600160a01b0382166000908152600960205260408120805461ffff16916108ec83611ec3565b91906101000a81548161ffff021916908361ffff160217905550505050565b6109136116dd565b61091d600061170a565b565b3360009081526001602052604090205460ff1661094e5760405162461bcd60e51b815260040161089090611e4a565b600a546001600160a01b03163381146109795760405162461bcd60e51b815260040161089090611e76565b6001600160a01b0383166109cf5760405162461bcd60e51b815260206004820152601e60248201527f496e766974656420616464726573732063616e6e6f74206265207a65726f00006044820152606401610890565b6001600160a01b038381166000908152600560205260409020541615610a295760405162461bcd60e51b815260206004820152600f60248201526e105b1c9958591e481a5b9d9a5d1959608a1b6044820152606401610890565b6001600160a01b03831660009081526003602052604081205460ff166008811115610a5657610a56611bb1565b14610a985760405162461bcd60e51b8152602060048201526012602482015271105b1c9958591e481c9959da5cdd195c995960721b6044820152606401610890565b6040518060800160405280846001600160a01b03168152602001856001600160a01b03168152602001836008811115610ad357610ad3611bb1565b8152436020918201526001600160a01b03808616600090815260058352604090819020845181549084166001600160a01b03199182161782559385015160018201805491909416948116851784559185015190939092916001600160a81b03191617600160a01b836008811115610b4c57610b4c611bb1565b021790555060608201518160020155905050826001600160a01b0316846001600160a01b03167f3aed71ce4143148a406a002376059e9cb31ad2e3c9b2a431fc106d4be03f204784604051610ba19190611c5f565b60405180910390a350505050565b610bb76116dd565b6001600160a01b03166000908152600160208190526040909120805460ff19169091179055565b6000826008811115610bf257610bf2611bb1565b6001600160a01b03831660009081526003602052604090205460ff166008811115610c1f57610c1f611bb1565b1490505b92915050565b6040805160a08101825260008082526020820181905291810182905260608101829052608081019190915260086000836008811115610c6a57610c6a611bb1565b6008811115610c7b57610c7b611bb1565b81526020808201929092526040908101600020815160a081018352905460ff808216835261010082048116151594830194909452620100008104841615159282019290925263ffffffff63010000008304166060820152600160381b9091049091161515608082015292915050565b600660208190527f75f96ab15d697e93042dc45b5c896c4b27e89bb6eaf39475c5c371cb2513f7d2547fc5069e24aaadb2addc3e52e868fcf3f4f8acf5a87e24300992fd4540c2a87eed547fbfd358e93f18da3ed276c3afdbdba00b8f0b6008a03476a6a86bd6320ee6938b5460009384527f697b2bd7bb2984c4e0dc14c79c987d37818484a62958b9c45a0e8b962f20650f546001600160401b039384169392831692610d9b9281169116611ee4565b610da59190611ee4565b610daf9190611ee4565b6001600160401b0316905090565b3360009081526001602052604090205460ff16610dec5760405162461bcd60e51b815260040161089090611e4a565b6001600160a01b038216610e425760405162461bcd60e51b815260206004820152601b60248201527f5573657220616464726573732063616e6e6f74206265207a65726f00000000006044820152606401610890565b6001600160a01b03821660009081526003602052604081205460ff166008811115610e6f57610e6f611bb1565b14610eb25760405162461bcd60e51b81526020600482015260136024820152725573657220616c72656164792065786973747360681b6044820152606401610890565b6000816008811115610ec657610ec6611bb1565b14158015610ee657506008816008811115610ee357610ee3611bb1565b14155b610f265760405162461bcd60e51b8152602060048201526011602482015270496e76616c69642075736572207479706560781b6044820152606401610890565b610f2f8161175a565b610f7b5760405162461bcd60e51b815260206004820152601760248201527f50726f706f7274696f6e616c69747920696e76616c69640000000000000000006044820152606401610890565b610f8582826118ff565b610fc65760405162461bcd60e51b815260206004820152601260248201527124b73b30b634b21034b73b34ba30ba34b7b760711b6044820152606401610890565b6001600160a01b0382166000908152600360205260409020805482919060ff19166001836008811115610ffb57610ffb611bb1565b021790555060028054600160401b90046001600160401b031690600861102083611f03565b91906101000a8154816001600160401b0302191690836001600160401b03160217905550506006600082600881111561105b5761105b611bb1565b600881111561106c5761106c611bb1565b81526020810191909152604001600090812080546001600160401b03169161109383611f03565b91906101000a8154816001600160401b0302191690836001600160401b0316021790555050600760008260088111156110ce576110ce611bb1565b60088111156110df576110df611bb1565b81526020810191909152604001600090812080546001600160401b03169161110683611f03565b91906101000a8154816001600160401b0302191690836001600160401b0316021790555050816001600160a01b03167f8e18574f8a7333e6a87112742a55853a643e2f0550f4e1a3a2c3f1bb2994441d826040516111649190611c5f565b60405180910390a25050565b6001600160a01b0381166000908152600360205260408120546111959060ff16610c29565b6080015192915050565b3360009081526001602052604090205460ff166111ce5760405162461bcd60e51b815260040161089090611e4a565b600b546001600160a01b03163381146111f95760405162461bcd60e51b815260040161089090611e76565b60086001600160a01b03831660009081526003602052604090205460ff16600881111561122857611228611bb1565b14611304576001600160a01b0382166000908152600360205260408120546006919060ff16600881111561125e5761125e611bb1565b600881111561126f5761126f611bb1565b81526020810191909152604001600090812080546001600160401b03169161129683611f25565b82546101009290920a6001600160401b03818102199093169190921691909102179055506001600160a01b038216600081815260036020526040808220805460ff19166008179055517f4e283ac74dcfce6ff8dd078cc60000ae1deac4f6ae889f87268c6ed2fd0404d89190a25b5050565b6113106116dd565b6001600160a01b03811661133a57604051631e4fbdf760e01b815260006004820152602401610890565b6113438161170a565b50565b815160641080159061135b5750805161012c10155b6113a05760405162461bcd60e51b815260206004820152601660248201527513585e0818da185c9858dd195c9cc81c995858da195960521b6044820152606401610890565b3360009081526003602052604081205460ff1660088111156113c4576113c4611bb1565b036114115760405162461bcd60e51b815260206004820152601960248201527f43616c6c6572206d7573742062652072656769737465726564000000000000006044820152606401610890565b60073360009081526003602052604090205460ff16600881111561143757611437611bb1565b036114845760405162461bcd60e51b815260206004820152601960248201527f4e6f7420616c6c6f77656420746f20737570706f7274657273000000000000006044820152606401610890565b6001600160a01b03831660009081526003602052604081205460ff1660088111156114b1576114b1611bb1565b036114fe5760405162461bcd60e51b815260206004820152601760248201527f55736572206d75737420626520726567697374657265640000000000000000006044820152606401610890565b6001600160a01b0383166115545760405162461bcd60e51b815260206004820152601a60248201527f43616e6e6f742064656c617465207a65726f20616464726573730000000000006044820152606401610890565b6001600160a01b03831660009081526004602052604090819020815160a081019092526002549091908190611593906001600160401b03166001611ee4565b6001600160401b039081168252336020808401919091526001600160a01b0388811660408086019190915260608086018a9052608090950188905286546001818101895560009889529784902087516004909202018054948801518416600160401b026001600160e01b03199095169190951617929092178355908401519482018054959091166001600160a01b03199095169490941790935581015190919060028201906116429082611f97565b50608082015160038201906116579082611f97565b5050600280546001600160401b03169150600061167383611f03565b91906101000a8154816001600160401b0302191690836001600160401b0316021790555050826001600160a01b0316336001600160a01b03167f650ecc022f450966bb9175753b45172e38411e795fcd1f3541a83a43e9dab66b60405160405180910390a3505050565b6000546001600160a01b0316331461091d5760405163118cdaa760e01b8152336004820152602401610890565b600080546001600160a01b038381166001600160a01b0319831681178455604051919092169283917f8be0079c531659141344cd1fd0a4f28419497f9722a3daafe3b4186f6b6457e09190a35050565b60016000908152600660208190527f3e5fec24aa4dc4e5aee2e025e51e1392c72a2500577559fae9665c6d52bd6a31546001600160401b0316908290818560088111156117a9576117a9611bb1565b60088111156117ba576117ba611bb1565b815260208101919091526040016000908120546001600160401b0316915060088186828111156117ec576117ec611bb1565b60088111156117fd576117fd611bb1565b815260208082019290925260409081016000908120825160a081018452905460ff80821680845261010083048216151596840196909652620100008204811615159483019490945263ffffffff63010000008204166060830152600160381b90049092161515608083015290925081900361187e5750600195945050505050565b60056001600160401b038416101561189c5750600195945050505050565b8160200151156118d2576118b360ff821685612055565b6001600160401b0316836001600160401b031610945050505050919050565b6118df60ff82168561207e565b6001600160401b0316836001600160401b03161115945050505050919050565b60006008600083600881111561191757611917611bb1565b600881111561192857611928611bb1565b815260208101919091526040016000205462010000900460ff1661194e57506001610c23565b6001600160a01b0383811660009081526005602090815260408083208151608081018352815486168152600182015495861693810193909352929391929190830190600160a01b900460ff1660088111156119ab576119ab611bb1565b60088111156119bc576119bc611bb1565b8152602001600282015481525050905060008160600151118015611a0557508260088111156119ed576119ed611bb1565b81604001516008811115611a0357611a03611bb1565b145b949350505050565b80356001600160a01b0381168114611a2457600080fd5b919050565b60008060408385031215611a3c57600080fd5b611a4583611a0d565b9150611a5360208401611a0d565b90509250929050565b600060208284031215611a6e57600080fd5b611a7782611a0d565b9392505050565b6000815180845260005b81811015611aa457602081850181015186830182015201611a88565b506000602082860101526020601f19601f83011685010191505092915050565b6000602082016020835280845180835260408501915060408160051b86010192506020860160005b82811015611b7b57603f1987860301845281516001600160401b03815116865260018060a01b03602082015116602087015260018060a01b036040820151166040870152606081015160a06060880152611b4960a0880182611a7e565b9050608082015191508681036080880152611b648183611a7e565b965050506020938401939190910190600101611aec565b50929695505050505050565b803560098110611a2457600080fd5b600060208284031215611ba857600080fd5b611a7782611b87565b634e487b7160e01b600052602160045260246000fd5b60098110611be557634e487b7160e01b600052602160045260246000fd5b9052565b81516001600160a01b039081168252602080840151909116908201526040808301516080830191611c1c90840182611bc7565b50606092830151919092015290565b6001600160a01b0385811682528416602082015260808101611c506040830185611bc7565b82606083015295945050505050565b60208101610c238284611bc7565b600080600060608486031215611c8257600080fd5b611c8b84611a0d565b9250611c9960208501611a0d565b9150611ca760408501611b87565b90509250925092565b60008060408385031215611cc357600080fd5b611a4583611b87565b60008060408385031215611cdf57600080fd5b611ce883611a0d565b9150611a5360208401611b87565b634e487b7160e01b600052604160045260246000fd5b600082601f830112611d1d57600080fd5b81356001600160401b03811115611d3657611d36611cf6565b604051601f8201601f19908116603f011681016001600160401b0381118282101715611d6457611d64611cf6565b604052818152838201602001851015611d7c57600080fd5b816020850160208301376000918101602001919091529392505050565b600080600060608486031215611dae57600080fd5b611db784611a0d565b925060208401356001600160401b03811115611dd257600080fd5b611dde86828701611d0c565b92505060408401356001600160401b03811115611dfa57600080fd5b611e0686828701611d0c565b9150509250925092565b600181811c90821680611e2457607f821691505b602082108103611e4457634e487b7160e01b600052602260045260246000fd5b50919050565b6020808252601290820152712737ba1030b63637bbb2b21031b0b63632b960711b604082015260600190565b6020808252601e908201527f43616c6c6572206d7573742062652073797374656d20636f6e74726163740000604082015260600190565b634e487b7160e01b600052601160045260246000fd5b600061ffff821661ffff8103611edb57611edb611ead565b60010192915050565b6001600160401b038181168382160190811115610c2357610c23611ead565b60006001600160401b0382166001600160401b038103611edb57611edb611ead565b60006001600160401b03821680611f3e57611f3e611ead565b6000190192915050565b601f821115611f9257806000526020600020601f840160051c81016020851015611f6f5750805b601f840160051c820191505b81811015611f8f5760008155600101611f7b565b50505b505050565b81516001600160401b03811115611fb057611fb0611cf6565b611fc481611fbe8454611e10565b84611f48565b6020601f821160018114611ff85760008315611fe05750848201515b600019600385901b1c1916600184901b178455611f8f565b600084815260208120601f198516915b828110156120285787850151825560209485019460019092019101612008565b50848210156120465786840151600019600387901b60f8161c191681555b50505050600190811b01905550565b6001600160401b03818116838216029081169081811461207757612077611ead565b5092915050565b60006001600160401b038316806120a557634e487b7160e01b600052601260045260246000fd5b806001600160401b038416049150509291505056fea2646970667358221220ef38fbe5295ed67ed66010e6a3375903a273fb5dbe6835bf1c55c281b9dc280d64736f6c634300081b0033",
  "linkReferences": {},
  "deployedLinkReferences": {}
}