{
  "_format": "hh-sol-artifact-1",
  "contractName": "CommunityRules",
  "sourceName": "contracts/CommunityRules.sol",
  "abi": [
    {
      "inputs": [
        {
          "internalType": "uint8",
          "name": "inspectorProportionality",
          "type": "uint8"
        },
        {
          "internalType": "uint8",
          "name": "activistProportionality",
          "type": "uint8"
        },
        {
          "internalType": "uint8",
          "name": "researcherProportionality",
          "type": "uint8"
        },
        {
          "internalType": "uint8",
          "name": "developerProportionality",
          "type": "uint8"
        },
        {
          "internalType": "uint8",
          "name": "contributorProportionality",
          "type": "uint8"
        }
      ],
      "stateMutability": "nonpayable",
      "type": "constructor"
    },
    {
      "anonymous": false,
      "inputs": [
        {
          "indexed": true,
          "internalType": "address",
          "name": "informer",
          "type": "address"
        },
        {
          "indexed": true,
          "internalType": "address",
          "name": "reported",
          "type": "address"
        }
      ],
      "name": "DelationAdded",
      "type": "event"
    },
    {
      "anonymous": false,
      "inputs": [
        {
          "indexed": true,
          "internalType": "address",
          "name": "addr",
          "type": "address"
        }
      ],
      "name": "DeniedUserEvent",
      "type": "event"
    },
    {
      "anonymous": false,
      "inputs": [
        {
          "indexed": true,
          "internalType": "address",
          "name": "inviter",
          "type": "address"
        },
        {
          "indexed": true,
          "internalType": "address",
          "name": "invited",
          "type": "address"
        },
        {
          "indexed": false,
          "internalType": "enum UserType",
          "name": "userTypeTo",
          "type": "uint8"
        }
      ],
      "name": "InvitationAdded",
      "type": "event"
    },
    {
      "anonymous": false,
      "inputs": [
        {
          "indexed": true,
          "internalType": "address",
          "name": "previousOwner",
          "type": "address"
        },
        {
          "indexed": true,
          "internalType": "address",
          "name": "newOwner",
          "type": "address"
        }
      ],
      "name": "OwnershipTransferred",
      "type": "event"
    },
    {
      "anonymous": false,
      "inputs": [
        {
          "indexed": true,
          "internalType": "address",
          "name": "addr",
          "type": "address"
        },
        {
          "indexed": false,
          "internalType": "enum UserType",
          "name": "userType",
          "type": "uint8"
        }
      ],
      "name": "UserRegistered",
      "type": "event"
    },
    {
      "inputs": [],
      "name": "SUPPORTER_INVITATION_DELAY_BLOCKS",
      "outputs": [
        {
          "internalType": "uint32",
          "name": "",
          "type": "uint32"
        }
      ],
      "stateMutability": "view",
      "type": "function"
    },
    {
      "inputs": [],
      "name": "VOTER_INVITATION_DELAY_BLOCKS",
      "outputs": [
        {
          "internalType": "uint32",
          "name": "",
          "type": "uint32"
        }
      ],
      "stateMutability": "view",
      "type": "function"
    },
    {
      "inputs": [
        {
          "internalType": "address",
          "name": "addr",
          "type": "address"
        },
        {
          "internalType": "string",
          "name": "title",
          "type": "string"
        },
        {
          "internalType": "string",
          "name": "testimony",
          "type": "string"
        }
      ],
      "name": "addDelation",
      "outputs": [],
      "stateMutability": "nonpayable",
      "type": "function"
    },
    {
      "inputs": [
        {
          "internalType": "address",
          "name": "inviter",
          "type": "address"
        },
        {
          "internalType": "address",
          "name": "invited",
          "type": "address"
        },
        {
          "internalType": "enum UserType",
          "name": "userType",
          "type": "uint8"
        }
      ],
      "name": "addInvitation",
      "outputs": [],
      "stateMutability": "nonpayable",
      "type": "function"
    },
    {
      "inputs": [
        {
          "internalType": "address",
          "name": "inviter",
          "type": "address"
        }
      ],
      "name": "addInviterPenalty",
      "outputs": [],
      "stateMutability": "nonpayable",
      "type": "function"
    },
    {
      "inputs": [
        {
          "internalType": "address",
          "name": "addr",
          "type": "address"
        },
        {
          "internalType": "enum UserType",
          "name": "userType",
          "type": "uint8"
        }
      ],
      "name": "addUser",
      "outputs": [],
      "stateMutability": "nonpayable",
      "type": "function"
    },
    {
      "inputs": [
        {
          "internalType": "address",
          "name": "",
          "type": "address"
        }
      ],
      "name": "allowedCallers",
      "outputs": [
        {
          "internalType": "bool",
          "name": "",
          "type": "bool"
        }
      ],
      "stateMutability": "view",
      "type": "function"
    },
    {
      "inputs": [],
      "name": "delationsCount",
      "outputs": [
        {
          "internalType": "uint64",
          "name": "",
          "type": "uint64"
        }
      ],
      "stateMutability": "view",
      "type": "function"
    },
    {
      "inputs": [
        {
          "internalType": "address",
          "name": "addr",
          "type": "address"
        }
      ],
      "name": "getInvitation",
      "outputs": [
        {
          "components": [
            {
              "internalType": "address",
              "name": "invited",
              "type": "address"
            },
            {
              "internalType": "address",
              "name": "inviter",
              "type": "address"
            },
            {
              "internalType": "enum UserType",
              "name": "userType",
              "type": "uint8"
            },
            {
              "internalType": "uint256",
              "name": "createdAtBlock",
              "type": "uint256"
            }
          ],
          "internalType": "struct Invitation",
          "name": "",
          "type": "tuple"
        }
      ],
      "stateMutability": "view",
      "type": "function"
    },
    {
      "inputs": [
        {
          "internalType": "address",
          "name": "addr",
          "type": "address"
        }
      ],
      "name": "getUser",
      "outputs": [
        {
          "internalType": "enum UserType",
          "name": "",
          "type": "uint8"
        }
      ],
      "stateMutability": "view",
      "type": "function"
    },
    {
      "inputs": [
        {
          "internalType": "address",
          "name": "addr",
          "type": "address"
        }
      ],
      "name": "getUserDelations",
      "outputs": [
        {
          "components": [
            {
              "internalType": "uint64",
              "name": "id",
              "type": "uint64"
            },
            {
              "internalType": "address",
              "name": "informer",
              "type": "address"
            },
            {
              "internalType": "address",
              "name": "reported",
              "type": "address"
            },
            {
              "internalType": "string",
              "name": "title",
              "type": "string"
            },
            {
              "internalType": "string",
              "name": "testimony",
              "type": "string"
            }
          ],
          "internalType": "struct Delation[]",
          "name": "",
          "type": "tuple[]"
        }
      ],
      "stateMutability": "view",
      "type": "function"
    },
    {
      "inputs": [
        {
          "internalType": "enum UserType",
          "name": "userType",
          "type": "uint8"
        }
      ],
      "name": "getUserTypeSettings",
      "outputs": [
        {
          "components": [
            {
              "internalType": "uint8",
              "name": "proportionalityOnRegister",
              "type": "uint8"
            },
            {
              "internalType": "bool",
              "name": "directProportionalityRegistration",
              "type": "bool"
            },
            {
              "internalType": "bool",
              "name": "needInvitationOnRegister",
              "type": "bool"
            },
            {
              "internalType": "uint32",
              "name": "invitationDelayBlocks",
              "type": "uint32"
            },
            {
              "internalType": "bool",
              "name": "isVoter",
              "type": "bool"
            }
          ],
          "internalType": "struct UserTypeSetting",
          "name": "",
          "type": "tuple"
        }
      ],
      "stateMutability": "view",
      "type": "function"
    },
    {
      "inputs": [
        {
          "internalType": "address",
          "name": "",
          "type": "address"
        }
      ],
      "name": "invitations",
      "outputs": [
        {
          "internalType": "address",
          "name": "invited",
          "type": "address"
        },
        {
          "internalType": "address",
          "name": "inviter",
          "type": "address"
        },
        {
          "internalType": "enum UserType",
          "name": "userType",
          "type": "uint8"
        },
        {
          "internalType": "uint256",
          "name": "createdAtBlock",
          "type": "uint256"
        }
      ],
      "stateMutability": "view",
      "type": "function"
    },
    {
      "inputs": [
        {
          "internalType": "address",
          "name": "",
          "type": "address"
        }
      ],
      "name": "inviterPenalties",
      "outputs": [
        {
          "internalType": "uint16",
          "name": "",
          "type": "uint16"
        }
      ],
      "stateMutability": "view",
      "type": "function"
    },
    {
      "inputs": [
        {
          "internalType": "address",
          "name": "caller",
          "type": "address"
        }
      ],
      "name": "isAllowedCaller",
      "outputs": [
        {
          "internalType": "bool",
          "name": "",
          "type": "bool"
        }
      ],
      "stateMutability": "view",
      "type": "function"
    },
    {
      "inputs": [
        {
          "internalType": "address",
          "name": "addr",
          "type": "address"
        }
      ],
      "name": "isVoter",
      "outputs": [
        {
          "internalType": "bool",
          "name": "",
          "type": "bool"
        }
      ],
      "stateMutability": "view",
      "type": "function"
    },
    {
      "inputs": [
        {
          "internalType": "address",
          "name": "allowed",
          "type": "address"
        }
      ],
      "name": "newAllowedCaller",
      "outputs": [],
      "stateMutability": "nonpayable",
      "type": "function"
    },
    {
      "inputs": [],
      "name": "owner",
      "outputs": [
        {
          "internalType": "address",
          "name": "",
          "type": "address"
        }
      ],
      "stateMutability": "view",
      "type": "function"
    },
    {
      "inputs": [],
      "name": "renounceOwnership",
      "outputs": [],
      "stateMutability": "nonpayable",
      "type": "function"
    },
    {
      "inputs": [
        {
          "internalType": "address",
          "name": "userAddress",
          "type": "address"
        }
      ],
      "name": "setDeniedType",
      "outputs": [],
      "stateMutability": "nonpayable",
      "type": "function"
    },
    {
      "inputs": [
        {
          "internalType": "address",
          "name": "newOwner",
          "type": "address"
        }
      ],
      "name": "transferOwnership",
      "outputs": [],
      "stateMutability": "nonpayable",
      "type": "function"
    },
    {
      "inputs": [
        {
          "internalType": "enum UserType",
          "name": "userType",
          "type": "uint8"
        },
        {
          "internalType": "address",
          "name": "userAddress",
          "type": "address"
        }
      ],
      "name": "userTypeIs",
      "outputs": [
        {
          "internalType": "bool",
          "name": "",
          "type": "bool"
        }
      ],
      "stateMutability": "view",
      "type": "function"
    },
    {
      "inputs": [
        {
          "internalType": "enum UserType",
          "name": "",
          "type": "uint8"
        }
      ],
      "name": "userTypeSettings",
      "outputs": [
        {
          "internalType": "uint8",
          "name": "proportionalityOnRegister",
          "type": "uint8"
        },
        {
          "internalType": "bool",
          "name": "directProportionalityRegistration",
          "type": "bool"
        },
        {
          "internalType": "bool",
          "name": "needInvitationOnRegister",
          "type": "bool"
        },
        {
          "internalType": "uint32",
          "name": "invitationDelayBlocks",
          "type": "uint32"
        },
        {
          "internalType": "bool",
          "name": "isVoter",
          "type": "bool"
        }
      ],
      "stateMutability": "view",
      "type": "function"
    },
    {
      "inputs": [
        {
          "internalType": "enum UserType",
          "name": "",
          "type": "uint8"
        }
      ],
      "name": "userTypesCount",
      "outputs": [
        {
          "internalType": "uint64",
          "name": "",
          "type": "uint64"
        }
      ],
      "stateMutability": "view",
      "type": "function"
    },
    {
      "inputs": [
        {
          "internalType": "enum UserType",
          "name": "",
          "type": "uint8"
        }
      ],
      "name": "userTypesTotalCount",
      "outputs": [
        {
          "internalType": "uint64",
          "name": "",
          "type": "uint64"
        }
      ],
      "stateMutability": "view",
      "type": "function"
    },
    {
      "inputs": [],
      "name": "usersCount",
      "outputs": [
        {
          "internalType": "uint64",
          "name": "",
          "type": "uint64"
        }
      ],
      "stateMutability": "view",
      "type": "function"
    },
    {
      "inputs": [],
      "name": "votersCount",
      "outputs": [
        {
          "internalType": "uint256",
          "name": "",
          "type": "uint256"
        }
      ],
      "stateMutability": "view",
      "type": "function"
    }
  ],
  "bytecode": "0x608060405234801561001057600080fd5b5060405161272338038061272383398101604081905261002f9161065c565b610038336105f6565b6040805160a080820183526000808352602080840182815284860183815260966060808801918252608080890187815260078852600880885299517f24cd397636bedc6cf9b490d0edd57c769c19b367fb7d5c2344ae1ddc7d21c1448054975196519551925115156701000000000000000260ff60381b1963ffffffff90941663010000000266ffffffff0000001997151562010000029790971666ffffffffff0000199815156101000261ffff19909a1660ff909416939093179890981796909616179390931792909216939093179091558651948501875283855291840183905260019584018690528301829052820181905290928152602080820192909252604090810160009081208451815486860151878601516060808a015160809a8b015115156701000000000000000260ff60381b1963ffffffff90921663010000000266ffffffff0000001994151562010000029490941666ffffffffff0000199515156101000261ffff1990971660ff98891617969096179490941694909417919091179290921617909255835160a081018552908b16815260019481018590529283019390935291810182905291820181905260089060026008811115610204576102046106c1565b8152602080820192909252604090810160009081208451815486860151878601516060808a015160809a8b015115156701000000000000000260ff60381b1963ffffffff90921663010000000266ffffffff0000001994151562010000029490941666ffffffffff0000199515156101000261ffff1990971660ff98891617969096179490941694909417919091179290921617909255835160a081018552908a1681529384018290526001928401839052620186a0908401529282015290600890600660088111156102d9576102d96106c1565b8152602080820192909252604090810160009081208451815486860151878601516060808a015160809a8b015115156701000000000000000260ff60381b1963ffffffff90921663010000000266ffffffff0000001994151562010000029490941666ffffffffff0000199515156101000261ffff1990971660ff98891617969096179490941694909417919091179290921617909255835160a08101855290891681529384018290526001928401839052620186a0908401529282015290600890600360088111156103ae576103ae6106c1565b8152602080820192909252604090810160009081208451815486860151878601516060808a015160809a8b015115156701000000000000000260ff60381b1963ffffffff90921663010000000266ffffffff0000001994151562010000029490941666ffffffffff0000199515156101000261ffff1990971660ff98891617969096179490941694909417919091179290921617909255835160a08101855290881681529384018290526001928401839052620186a090840152928201529060089060046008811115610483576104836106c1565b8152602080820192909252604090810160009081208451815486860151878601516060808a015160809a8b015115156701000000000000000260ff60381b1963ffffffff90921663010000000266ffffffff0000001994151562010000029490941666ffffffffff0000199515156101000261ffff1990971660ff98891617969096179490941694909417919091179290921617909255835160a08101855290871681529384018290526001928401839052620186a090840152928201529060089060056008811115610558576105586106c1565b81526020808201929092526040908101600020835181549385015192850151606086015160809096015115156701000000000000000260ff60381b1963ffffffff90971663010000000266ffffffff0000001992151562010000029290921666ffffffffff0000199515156101000261ffff1990971660ff909416939093179590951793909316179190911792909216179055506106d79350505050565b600080546001600160a01b038381166001600160a01b0319831681178455604051919092169283917f8be0079c531659141344cd1fd0a4f28419497f9722a3daafe3b4186f6b6457e09190a35050565b805160ff8116811461065757600080fd5b919050565b600080600080600060a0868803121561067457600080fd5b61067d86610646565b945061068b60208701610646565b935061069960408701610646565b92506106a760608701610646565b91506106b560808701610646565b90509295509295909350565b634e487b7160e01b600052602160045260246000fd5b61203d806106e66000396000f3fe608060405234801561001057600080fd5b50600436106101a95760003560e01c80638da5cb5b116100f9578063a1dcdb2211610097578063deffb90611610071578063deffb90614610569578063e202fa4d14610573578063f2fde38b14610586578063ff7890951461059957600080fd5b8063a1dcdb221461050d578063a68012581461052a578063a7771ee31461055657600080fd5b80639497c608116100d35780639497c6081461046d5780639547f9531461048057806398c07938146104e45780639c3eead9146104fa57600080fd5b80638da5cb5b1461042c5780638f93716f14610447578063922201421461045a57600080fd5b806358f43f76116101665780636f77926b116101405780636f77926b146103a5578063715018a6146103de5780637b334154146103e65780637ccfdba71461041957600080fd5b806358f43f761461031f5780636101bf21146103765780636ba13a821461038b57600080fd5b8063064505ad146101ae5780630ed4ea5e146101d75780631eb2c1201461025e5780632115c6341461029f5780632b17b8be146102d65780632f22dc7b146102f6575b600080fd5b6101c16101bc3660046119c9565b6105ac565b6040516101ce9190611a31565b60405180910390f35b6102256101e5366004611b03565b60086020526000908152604090205460ff80821691610100810482169162010000820481169163ffffffff630100000082041691600160381b9091041685565b6040805160ff909616865293151560208601529115159284019290925263ffffffff90911660608301521515608082015260a0016101ce565b61028761026c366004611b03565b6007602052600090815260409020546001600160401b031681565b6040516001600160401b0390911681526020016101ce565b6102c36102ad3660046119c9565b60096020526000908152604090205461ffff1681565b60405161ffff90911681526020016101ce565b6102e96102e43660046119c9565b610781565b6040516101ce9190611b56565b610287610304366004611b03565b6006602052600090815260409020546001600160401b031681565b61036661032d3660046119c9565b6005602052600090815260409020805460018201546002909201546001600160a01b039182169291821691600160a01b900460ff169084565b6040516101ce9493929190611b98565b6103896103843660046119c9565b610820565b005b60025461028790600160401b90046001600160401b031681565b6103d16103b33660046119c9565b6001600160a01b031660009081526003602052604090205460ff1690565b6040516101ce9190611bcc565b61038961089e565b6104096103f43660046119c9565b60016020526000908152604090205460ff1681565b60405190151581526020016101ce565b610389610427366004611bda565b6108b2565b6000546040516001600160a01b0390911681526020016101ce565b6103896104553660046119c9565b610b16565b600254610287906001600160401b031681565b61040961047b366004611c1d565b610b45565b61049361048e366004611b03565b610b90565b6040516101ce9190600060a08201905060ff835116825260208301511515602083015260408301511515604083015263ffffffff606084015116606083015260808301511515608083015292915050565b6104ec610c51565b6040519081526020016101ce565b610389610508366004611c50565b610d24565b610515609681565b60405163ffffffff90911681526020016101ce565b6104096105383660046119c9565b6001600160a01b031660009081526001602052604090205460ff1690565b6104096105643660046119c9565b6110d7565b610515620186a081565b6103896105813660046119c9565b611106565b6103896105943660046119c9565b611243565b6103896105a7366004611d1d565b6112b9565b6001600160a01b0381166000908152600460209081526040808320805482518185028101850190935280835260609492939192909184015b828210156107765760008481526020908190206040805160a0810182526004860290920180546001600160401b03811684526001600160a01b03600160401b90910481169484019490945260018101549093169082015260028201805491929160608401919061065390611d94565b80601f016020809104026020016040519081016040528092919081815260200182805461067f90611d94565b80156106cc5780601f106106a1576101008083540402835291602001916106cc565b820191906000526020600020905b8154815290600101906020018083116106af57829003601f168201915b505050505081526020016003820180546106e590611d94565b80601f016020809104026020016040519081016040528092919081815260200182805461071190611d94565b801561075e5780601f106107335761010080835404028352916020019161075e565b820191906000526020600020905b81548152906001019060200180831161074157829003601f168201915b505050505081525050815260200190600101906105e4565b505050509050919050565b604080516080808201835260008083526020808401829052838501829052606084018290526001600160a01b0386811683526005825291859020855193840186528054831684526001810154928316918401919091529293919291830190600160a01b900460ff1660088111156107fa576107fa611b1e565b600881111561080b5761080b611b1e565b81526020016002820154815250509050919050565b3360009081526001602052604090205460ff166108585760405162461bcd60e51b815260040161084f90611dce565b60405180910390fd5b6001600160a01b0381166000908152600960205260408120805461ffff169161088083611e10565b91906101000a81548161ffff021916908361ffff1602179055505050565b6108a6611650565b6108b060006116aa565b565b3360009081526001602052604090205460ff166108e15760405162461bcd60e51b815260040161084f90611dce565b6001600160a01b0382166109375760405162461bcd60e51b815260206004820152601e60248201527f496e766974656420616464726573732063616e6e6f74206265207a65726f0000604482015260640161084f565b6001600160a01b0382811660009081526005602052604090205416156109915760405162461bcd60e51b815260206004820152600f60248201526e105b1c9958591e481a5b9d9a5d1959608a1b604482015260640161084f565b6001600160a01b03821660009081526003602052604081205460ff1660088111156109be576109be611b1e565b14610a005760405162461bcd60e51b8152602060048201526012602482015271105b1c9958591e481c9959da5cdd195c995960721b604482015260640161084f565b6040518060800160405280836001600160a01b03168152602001846001600160a01b03168152602001826008811115610a3b57610a3b611b1e565b8152436020918201526001600160a01b03808516600090815260058352604090819020845181549084166001600160a01b03199182161782559385015160018201805491909416948116851784559185015190939092916001600160a81b03191617600160a01b836008811115610ab457610ab4611b1e565b021790555060608201518160020155905050816001600160a01b0316836001600160a01b03167f3aed71ce4143148a406a002376059e9cb31ad2e3c9b2a431fc106d4be03f204783604051610b099190611bcc565b60405180910390a3505050565b610b1e611650565b6001600160a01b03166000908152600160208190526040909120805460ff19169091179055565b6000826008811115610b5957610b59611b1e565b6001600160a01b03831660009081526003602052604090205460ff166008811115610b8657610b86611b1e565b1490505b92915050565b6040805160a08101825260008082526020820181905291810182905260608101829052608081019190915260086000836008811115610bd157610bd1611b1e565b6008811115610be257610be2611b1e565b81526020808201929092526040908101600020815160a081018352905460ff808216835261010082048116151594830194909452620100008104841615159282019290925263ffffffff63010000008304166060820152600160381b9091049091161515608082015292915050565b600660208190527f75f96ab15d697e93042dc45b5c896c4b27e89bb6eaf39475c5c371cb2513f7d2547fc5069e24aaadb2addc3e52e868fcf3f4f8acf5a87e24300992fd4540c2a87eed547fbfd358e93f18da3ed276c3afdbdba00b8f0b6008a03476a6a86bd6320ee6938b5460009384527f697b2bd7bb2984c4e0dc14c79c987d37818484a62958b9c45a0e8b962f20650f546001600160401b039384169392831692610d029281169116611e31565b610d0c9190611e31565b610d169190611e31565b6001600160401b0316905090565b3360009081526001602052604090205460ff16610d535760405162461bcd60e51b815260040161084f90611dce565b6001600160a01b038216610da95760405162461bcd60e51b815260206004820152601b60248201527f5573657220616464726573732063616e6e6f74206265207a65726f0000000000604482015260640161084f565b6001600160a01b03821660009081526003602052604081205460ff166008811115610dd657610dd6611b1e565b14610e195760405162461bcd60e51b81526020600482015260136024820152725573657220616c72656164792065786973747360681b604482015260640161084f565b6000816008811115610e2d57610e2d611b1e565b14158015610e4d57506008816008811115610e4a57610e4a611b1e565b14155b610e8d5760405162461bcd60e51b8152602060048201526011602482015270496e76616c69642075736572207479706560781b604482015260640161084f565b610e96816116fa565b610ee25760405162461bcd60e51b815260206004820152601760248201527f50726f706f7274696f6e616c69747920696e76616c6964000000000000000000604482015260640161084f565b610eec828261189f565b610f2d5760405162461bcd60e51b815260206004820152601260248201527124b73b30b634b21034b73b34ba30ba34b7b760711b604482015260640161084f565b6001600160a01b0382166000908152600360205260409020805482919060ff19166001836008811115610f6257610f62611b1e565b021790555060028054600160401b90046001600160401b0316906008610f8783611e50565b91906101000a8154816001600160401b0302191690836001600160401b031602179055505060066000826008811115610fc257610fc2611b1e565b6008811115610fd357610fd3611b1e565b81526020810191909152604001600090812080546001600160401b031691610ffa83611e50565b91906101000a8154816001600160401b0302191690836001600160401b03160217905550506007600082600881111561103557611035611b1e565b600881111561104657611046611b1e565b81526020810191909152604001600090812080546001600160401b03169161106d83611e50565b91906101000a8154816001600160401b0302191690836001600160401b0316021790555050816001600160a01b03167f8e18574f8a7333e6a87112742a55853a643e2f0550f4e1a3a2c3f1bb2994441d826040516110cb9190611bcc565b60405180910390a25050565b6001600160a01b0381166000908152600360205260408120546110fc9060ff16610b90565b6080015192915050565b3360009081526001602052604090205460ff166111355760405162461bcd60e51b815260040161084f90611dce565b60086001600160a01b03821660009081526003602052604090205460ff16600881111561116457611164611b1e565b14611240576001600160a01b0381166000908152600360205260408120546006919060ff16600881111561119a5761119a611b1e565b60088111156111ab576111ab611b1e565b81526020810191909152604001600090812080546001600160401b0316916111d283611e72565b82546101009290920a6001600160401b03818102199093169190921691909102179055506001600160a01b038116600081815260036020526040808220805460ff19166008179055517f4e283ac74dcfce6ff8dd078cc60000ae1deac4f6ae889f87268c6ed2fd0404d89190a25b50565b61124b611650565b6001600160a01b0381166112b05760405162461bcd60e51b815260206004820152602660248201527f4f776e61626c653a206e6577206f776e657220697320746865207a65726f206160448201526564647265737360d01b606482015260840161084f565b611240816116aa565b81516064108015906112ce5750805161012c10155b6113135760405162461bcd60e51b815260206004820152601660248201527513585e0818da185c9858dd195c9cc81c995858da195960521b604482015260640161084f565b3360009081526003602052604081205460ff16600881111561133757611337611b1e565b036113845760405162461bcd60e51b815260206004820152601960248201527f43616c6c6572206d757374206265207265676973746572656400000000000000604482015260640161084f565b60073360009081526003602052604090205460ff1660088111156113aa576113aa611b1e565b036113f75760405162461bcd60e51b815260206004820152601960248201527f4e6f7420616c6c6f77656420746f20737570706f727465727300000000000000604482015260640161084f565b6001600160a01b03831660009081526003602052604081205460ff16600881111561142457611424611b1e565b036114715760405162461bcd60e51b815260206004820152601760248201527f55736572206d7573742062652072656769737465726564000000000000000000604482015260640161084f565b6001600160a01b0383166114c75760405162461bcd60e51b815260206004820152601a60248201527f43616e6e6f742064656c617465207a65726f2061646472657373000000000000604482015260640161084f565b6001600160a01b03831660009081526004602052604090819020815160a081019092526002549091908190611506906001600160401b03166001611e31565b6001600160401b039081168252336020808401919091526001600160a01b0388811660408086019190915260608086018a9052608090950188905286546001818101895560009889529784902087516004909202018054948801518416600160401b026001600160e01b03199095169190951617929092178355908401519482018054959091166001600160a01b03199095169490941790935581015190919060028201906115b59082611ee4565b50608082015160038201906115ca9082611ee4565b5050600280546001600160401b0316915060006115e683611e50565b91906101000a8154816001600160401b0302191690836001600160401b0316021790555050826001600160a01b0316336001600160a01b03167f650ecc022f450966bb9175753b45172e38411e795fcd1f3541a83a43e9dab66b60405160405180910390a3505050565b6000546001600160a01b031633146108b05760405162461bcd60e51b815260206004820181905260248201527f4f776e61626c653a2063616c6c6572206973206e6f7420746865206f776e6572604482015260640161084f565b600080546001600160a01b038381166001600160a01b0319831681178455604051919092169283917f8be0079c531659141344cd1fd0a4f28419497f9722a3daafe3b4186f6b6457e09190a35050565b60016000908152600660208190527f3e5fec24aa4dc4e5aee2e025e51e1392c72a2500577559fae9665c6d52bd6a31546001600160401b03169082908185600881111561174957611749611b1e565b600881111561175a5761175a611b1e565b815260208101919091526040016000908120546001600160401b03169150600881868281111561178c5761178c611b1e565b600881111561179d5761179d611b1e565b815260208082019290925260409081016000908120825160a081018452905460ff80821680845261010083048216151596840196909652620100008204811615159483019490945263ffffffff63010000008204166060830152600160381b90049092161515608083015290925081900361181e5750600195945050505050565b60056001600160401b038416101561183c5750600195945050505050565b8160200151156118725761185360ff821685611fa2565b6001600160401b0316836001600160401b031610945050505050919050565b61187f60ff821685611fcb565b6001600160401b0316836001600160401b03161115945050505050919050565b6000600860008360088111156118b7576118b7611b1e565b60088111156118c8576118c8611b1e565b815260208101919091526040016000205462010000900460ff166118ee57506001610b8a565b6001600160a01b0383811660009081526005602090815260408083208151608081018352815486168152600182015495861693810193909352929391929190830190600160a01b900460ff16600881111561194b5761194b611b1e565b600881111561195c5761195c611b1e565b81526020016002820154815250509050600081606001511180156119a5575082600881111561198d5761198d611b1e565b816040015160088111156119a3576119a3611b1e565b145b949350505050565b80356001600160a01b03811681146119c457600080fd5b919050565b6000602082840312156119db57600080fd5b6119e4826119ad565b9392505050565b6000815180845260005b81811015611a11576020818501810151868301820152016119f5565b506000602082860101526020601f19601f83011685010191505092915050565b6000602082016020835280845180835260408501915060408160051b86010192506020860160005b82811015611ae857603f1987860301845281516001600160401b03815116865260018060a01b03602082015116602087015260018060a01b036040820151166040870152606081015160a06060880152611ab660a08801826119eb565b9050608082015191508681036080880152611ad181836119eb565b965050506020938401939190910190600101611a59565b50929695505050505050565b8035600981106119c457600080fd5b600060208284031215611b1557600080fd5b6119e482611af4565b634e487b7160e01b600052602160045260246000fd5b60098110611b5257634e487b7160e01b600052602160045260246000fd5b9052565b81516001600160a01b039081168252602080840151909116908201526040808301516080830191611b8990840182611b34565b50606092830151919092015290565b6001600160a01b0385811682528416602082015260808101611bbd6040830185611b34565b82606083015295945050505050565b60208101610b8a8284611b34565b600080600060608486031215611bef57600080fd5b611bf8846119ad565b9250611c06602085016119ad565b9150611c1460408501611af4565b90509250925092565b60008060408385031215611c3057600080fd5b611c3983611af4565b9150611c47602084016119ad565b90509250929050565b60008060408385031215611c6357600080fd5b611c6c836119ad565b9150611c4760208401611af4565b634e487b7160e01b600052604160045260246000fd5b600082601f830112611ca157600080fd5b81356001600160401b03811115611cba57611cba611c7a565b604051601f8201601f19908116603f011681016001600160401b0381118282101715611ce857611ce8611c7a565b604052818152838201602001851015611d0057600080fd5b816020850160208301376000918101602001919091529392505050565b600080600060608486031215611d3257600080fd5b611d3b846119ad565b925060208401356001600160401b03811115611d5657600080fd5b611d6286828701611c90565b92505060408401356001600160401b03811115611d7e57600080fd5b611d8a86828701611c90565b9150509250925092565b600181811c90821680611da857607f821691505b602082108103611dc857634e487b7160e01b600052602260045260246000fd5b50919050565b6020808252601290820152712737ba1030b63637bbb2b21031b0b63632b960711b604082015260600190565b634e487b7160e01b600052601160045260246000fd5b600061ffff821661ffff8103611e2857611e28611dfa565b60010192915050565b6001600160401b038181168382160190811115610b8a57610b8a611dfa565b60006001600160401b0382166001600160401b038103611e2857611e28611dfa565b60006001600160401b03821680611e8b57611e8b611dfa565b6000190192915050565b601f821115611edf57806000526020600020601f840160051c81016020851015611ebc5750805b601f840160051c820191505b81811015611edc5760008155600101611ec8565b50505b505050565b81516001600160401b03811115611efd57611efd611c7a565b611f1181611f0b8454611d94565b84611e95565b6020601f821160018114611f455760008315611f2d5750848201515b600019600385901b1c1916600184901b178455611edc565b600084815260208120601f198516915b82811015611f755787850151825560209485019460019092019101611f55565b5084821015611f935786840151600019600387901b60f8161c191681555b50505050600190811b01905550565b6001600160401b038181168382160290811690818114611fc457611fc4611dfa565b5092915050565b60006001600160401b03831680611ff257634e487b7160e01b600052601260045260246000fd5b806001600160401b038416049150509291505056fea264697066735822122085f7af347d79ebac65748b342414627716158b9a0c3be4704fe9bd4401f99b1564736f6c634300081b0033",
  "linkReferences": {},
  "deployedLinkReferences": {}
}