{
  "_format": "hh-sol-artifact-1",
  "contractName": "CommunityRules",
  "sourceName": "contracts/CommunityRules.sol",
  "abi": [
    {
      "inputs": [
        {
          "internalType": "uint8",
          "name": "inspectorProportionality",
          "type": "uint8"
        },
        {
          "internalType": "uint8",
          "name": "activistProportionality",
          "type": "uint8"
        },
        {
          "internalType": "uint8",
          "name": "researcherProportionality",
          "type": "uint8"
        },
        {
          "internalType": "uint8",
          "name": "developerProportionality",
          "type": "uint8"
        },
        {
          "internalType": "uint8",
          "name": "contributorProportionality",
          "type": "uint8"
        }
      ],
      "stateMutability": "nonpayable",
      "type": "constructor"
    },
    {
      "inputs": [
        {
          "internalType": "address",
          "name": "owner",
          "type": "address"
        }
      ],
      "name": "OwnableInvalidOwner",
      "type": "error"
    },
    {
      "inputs": [
        {
          "internalType": "address",
          "name": "account",
          "type": "address"
        }
      ],
      "name": "OwnableUnauthorizedAccount",
      "type": "error"
    },
    {
      "anonymous": false,
      "inputs": [
        {
          "indexed": true,
          "internalType": "address",
          "name": "informer",
          "type": "address"
        },
        {
          "indexed": true,
          "internalType": "address",
          "name": "reported",
          "type": "address"
        }
      ],
      "name": "DelationAdded",
      "type": "event"
    },
    {
      "anonymous": false,
      "inputs": [
        {
          "indexed": true,
          "internalType": "address",
          "name": "addr",
          "type": "address"
        }
      ],
      "name": "DeniedUserEvent",
      "type": "event"
    },
    {
      "anonymous": false,
      "inputs": [
        {
          "indexed": true,
          "internalType": "address",
          "name": "inviter",
          "type": "address"
        },
        {
          "indexed": true,
          "internalType": "address",
          "name": "invited",
          "type": "address"
        },
        {
          "indexed": false,
          "internalType": "enum CommunityTypes.UserType",
          "name": "userTypeTo",
          "type": "uint8"
        }
      ],
      "name": "InvitationAdded",
      "type": "event"
    },
    {
      "anonymous": false,
      "inputs": [
        {
          "indexed": true,
          "internalType": "address",
          "name": "previousOwner",
          "type": "address"
        },
        {
          "indexed": true,
          "internalType": "address",
          "name": "newOwner",
          "type": "address"
        }
      ],
      "name": "OwnershipTransferred",
      "type": "event"
    },
    {
      "anonymous": false,
      "inputs": [
        {
          "indexed": true,
          "internalType": "address",
          "name": "addr",
          "type": "address"
        },
        {
          "indexed": false,
          "internalType": "enum CommunityTypes.UserType",
          "name": "userType",
          "type": "uint8"
        }
      ],
      "name": "UserRegistered",
      "type": "event"
    },
    {
      "inputs": [],
      "name": "SUPPORTER_INVITATION_DELAY_BLOCKS",
      "outputs": [
        {
          "internalType": "uint32",
          "name": "",
          "type": "uint32"
        }
      ],
      "stateMutability": "view",
      "type": "function"
    },
    {
      "inputs": [],
      "name": "VOTER_INVITATION_DELAY_BLOCKS",
      "outputs": [
        {
          "internalType": "uint32",
          "name": "",
          "type": "uint32"
        }
      ],
      "stateMutability": "view",
      "type": "function"
    },
    {
      "inputs": [
        {
          "internalType": "address",
          "name": "addr",
          "type": "address"
        },
        {
          "internalType": "string",
          "name": "title",
          "type": "string"
        },
        {
          "internalType": "string",
          "name": "testimony",
          "type": "string"
        }
      ],
      "name": "addDelation",
      "outputs": [],
      "stateMutability": "nonpayable",
      "type": "function"
    },
    {
      "inputs": [
        {
          "internalType": "address",
          "name": "inviter",
          "type": "address"
        },
        {
          "internalType": "address",
          "name": "invited",
          "type": "address"
        },
        {
          "internalType": "enum CommunityTypes.UserType",
          "name": "userType",
          "type": "uint8"
        }
      ],
      "name": "addInvitation",
      "outputs": [],
      "stateMutability": "nonpayable",
      "type": "function"
    },
    {
      "inputs": [
        {
          "internalType": "address",
          "name": "inviter",
          "type": "address"
        }
      ],
      "name": "addInviterPenalty",
      "outputs": [],
      "stateMutability": "nonpayable",
      "type": "function"
    },
    {
      "inputs": [
        {
          "internalType": "address",
          "name": "addr",
          "type": "address"
        },
        {
          "internalType": "enum CommunityTypes.UserType",
          "name": "userType",
          "type": "uint8"
        }
      ],
      "name": "addUser",
      "outputs": [],
      "stateMutability": "nonpayable",
      "type": "function"
    },
    {
      "inputs": [
        {
          "internalType": "address",
          "name": "",
          "type": "address"
        }
      ],
      "name": "allowedCallers",
      "outputs": [
        {
          "internalType": "bool",
          "name": "",
          "type": "bool"
        }
      ],
      "stateMutability": "view",
      "type": "function"
    },
    {
      "inputs": [],
      "name": "delationsCount",
      "outputs": [
        {
          "internalType": "uint64",
          "name": "",
          "type": "uint64"
        }
      ],
      "stateMutability": "view",
      "type": "function"
    },
    {
      "inputs": [
        {
          "internalType": "address",
          "name": "addr",
          "type": "address"
        }
      ],
      "name": "getInvitation",
      "outputs": [
        {
          "components": [
            {
              "internalType": "address",
              "name": "invited",
              "type": "address"
            },
            {
              "internalType": "address",
              "name": "inviter",
              "type": "address"
            },
            {
              "internalType": "enum CommunityTypes.UserType",
              "name": "userType",
              "type": "uint8"
            },
            {
              "internalType": "uint256",
              "name": "createdAtBlock",
              "type": "uint256"
            }
          ],
          "internalType": "struct CommunityTypes.Invitation",
          "name": "",
          "type": "tuple"
        }
      ],
      "stateMutability": "view",
      "type": "function"
    },
    {
      "inputs": [
        {
          "internalType": "address",
          "name": "addr",
          "type": "address"
        }
      ],
      "name": "getUser",
      "outputs": [
        {
          "internalType": "enum CommunityTypes.UserType",
          "name": "",
          "type": "uint8"
        }
      ],
      "stateMutability": "view",
      "type": "function"
    },
    {
      "inputs": [
        {
          "internalType": "address",
          "name": "addr",
          "type": "address"
        }
      ],
      "name": "getUserDelations",
      "outputs": [
        {
          "components": [
            {
              "internalType": "uint64",
              "name": "id",
              "type": "uint64"
            },
            {
              "internalType": "address",
              "name": "informer",
              "type": "address"
            },
            {
              "internalType": "address",
              "name": "reported",
              "type": "address"
            },
            {
              "internalType": "string",
              "name": "title",
              "type": "string"
            },
            {
              "internalType": "string",
              "name": "testimony",
              "type": "string"
            },
            {
              "internalType": "uint256",
              "name": "createdAtBlock",
              "type": "uint256"
            }
          ],
          "internalType": "struct CommunityTypes.Delation[]",
          "name": "",
          "type": "tuple[]"
        }
      ],
      "stateMutability": "view",
      "type": "function"
    },
    {
      "inputs": [
        {
          "internalType": "enum CommunityTypes.UserType",
          "name": "userType",
          "type": "uint8"
        }
      ],
      "name": "getUserTypeSettings",
      "outputs": [
        {
          "components": [
            {
              "internalType": "uint8",
              "name": "proportionalityOnRegister",
              "type": "uint8"
            },
            {
              "internalType": "bool",
              "name": "directProportionalityRegistration",
              "type": "bool"
            },
            {
              "internalType": "bool",
              "name": "needInvitationOnRegister",
              "type": "bool"
            },
            {
              "internalType": "uint32",
              "name": "invitationDelayBlocks",
              "type": "uint32"
            },
            {
              "internalType": "bool",
              "name": "isVoter",
              "type": "bool"
            }
          ],
          "internalType": "struct CommunityTypes.UserTypeSetting",
          "name": "",
          "type": "tuple"
        }
      ],
      "stateMutability": "view",
      "type": "function"
    },
    {
      "inputs": [
        {
          "internalType": "address",
          "name": "",
          "type": "address"
        }
      ],
      "name": "invitations",
      "outputs": [
        {
          "internalType": "address",
          "name": "invited",
          "type": "address"
        },
        {
          "internalType": "address",
          "name": "inviter",
          "type": "address"
        },
        {
          "internalType": "enum CommunityTypes.UserType",
          "name": "userType",
          "type": "uint8"
        },
        {
          "internalType": "uint256",
          "name": "createdAtBlock",
          "type": "uint256"
        }
      ],
      "stateMutability": "view",
      "type": "function"
    },
    {
      "inputs": [
        {
          "internalType": "address",
          "name": "",
          "type": "address"
        }
      ],
      "name": "inviterPenalties",
      "outputs": [
        {
          "internalType": "uint16",
          "name": "",
          "type": "uint16"
        }
      ],
      "stateMutability": "view",
      "type": "function"
    },
    {
      "inputs": [
        {
          "internalType": "address",
          "name": "caller",
          "type": "address"
        }
      ],
      "name": "isAllowedCaller",
      "outputs": [
        {
          "internalType": "bool",
          "name": "",
          "type": "bool"
        }
      ],
      "stateMutability": "view",
      "type": "function"
    },
    {
      "inputs": [
        {
          "internalType": "address",
          "name": "userAddress",
          "type": "address"
        }
      ],
      "name": "isDenied",
      "outputs": [
        {
          "internalType": "bool",
          "name": "",
          "type": "bool"
        }
      ],
      "stateMutability": "view",
      "type": "function"
    },
    {
      "inputs": [
        {
          "internalType": "address",
          "name": "addr",
          "type": "address"
        }
      ],
      "name": "isVoter",
      "outputs": [
        {
          "internalType": "bool",
          "name": "",
          "type": "bool"
        }
      ],
      "stateMutability": "view",
      "type": "function"
    },
    {
      "inputs": [
        {
          "internalType": "address",
          "name": "allowed",
          "type": "address"
        }
      ],
      "name": "newAllowedCaller",
      "outputs": [],
      "stateMutability": "nonpayable",
      "type": "function"
    },
    {
      "inputs": [],
      "name": "owner",
      "outputs": [
        {
          "internalType": "address",
          "name": "",
          "type": "address"
        }
      ],
      "stateMutability": "view",
      "type": "function"
    },
    {
      "inputs": [],
      "name": "renounceOwnership",
      "outputs": [],
      "stateMutability": "nonpayable",
      "type": "function"
    },
    {
      "inputs": [
        {
          "internalType": "address",
          "name": "_invitationRulesAddress",
          "type": "address"
        },
        {
          "internalType": "address",
          "name": "_validationRulesAddress",
          "type": "address"
        }
      ],
      "name": "setContractCall",
      "outputs": [],
      "stateMutability": "nonpayable",
      "type": "function"
    },
    {
      "inputs": [
        {
          "internalType": "address",
          "name": "userAddress",
          "type": "address"
        }
      ],
      "name": "setDeniedType",
      "outputs": [],
      "stateMutability": "nonpayable",
      "type": "function"
    },
    {
      "inputs": [
        {
          "internalType": "address",
          "name": "newOwner",
          "type": "address"
        }
      ],
      "name": "transferOwnership",
      "outputs": [],
      "stateMutability": "nonpayable",
      "type": "function"
    },
    {
      "inputs": [
        {
          "internalType": "enum CommunityTypes.UserType",
          "name": "userType",
          "type": "uint8"
        },
        {
          "internalType": "address",
          "name": "userAddress",
          "type": "address"
        }
      ],
      "name": "userTypeIs",
      "outputs": [
        {
          "internalType": "bool",
          "name": "",
          "type": "bool"
        }
      ],
      "stateMutability": "view",
      "type": "function"
    },
    {
      "inputs": [
        {
          "internalType": "enum CommunityTypes.UserType",
          "name": "",
          "type": "uint8"
        }
      ],
      "name": "userTypeSettings",
      "outputs": [
        {
          "internalType": "uint8",
          "name": "proportionalityOnRegister",
          "type": "uint8"
        },
        {
          "internalType": "bool",
          "name": "directProportionalityRegistration",
          "type": "bool"
        },
        {
          "internalType": "bool",
          "name": "needInvitationOnRegister",
          "type": "bool"
        },
        {
          "internalType": "uint32",
          "name": "invitationDelayBlocks",
          "type": "uint32"
        },
        {
          "internalType": "bool",
          "name": "isVoter",
          "type": "bool"
        }
      ],
      "stateMutability": "view",
      "type": "function"
    },
    {
      "inputs": [
        {
          "internalType": "enum CommunityTypes.UserType",
          "name": "",
          "type": "uint8"
        }
      ],
      "name": "userTypesCount",
      "outputs": [
        {
          "internalType": "uint64",
          "name": "",
          "type": "uint64"
        }
      ],
      "stateMutability": "view",
      "type": "function"
    },
    {
      "inputs": [
        {
          "internalType": "enum CommunityTypes.UserType",
          "name": "",
          "type": "uint8"
        }
      ],
      "name": "userTypesTotalCount",
      "outputs": [
        {
          "internalType": "uint64",
          "name": "",
          "type": "uint64"
        }
      ],
      "stateMutability": "view",
      "type": "function"
    },
    {
      "inputs": [],
      "name": "usersCount",
      "outputs": [
        {
          "internalType": "uint64",
          "name": "",
          "type": "uint64"
        }
      ],
      "stateMutability": "view",
      "type": "function"
    },
    {
      "inputs": [],
      "name": "votersCount",
      "outputs": [
        {
          "internalType": "uint256",
          "name": "",
          "type": "uint256"
        }
      ],
      "stateMutability": "view",
      "type": "function"
    }
  ],
  "bytecode": "0x608060405234801561001057600080fd5b5060405161286b38038061286b83398101604081905261002f91610683565b338061005557604051631e4fbdf760e01b81526000600482015260240160405180910390fd5b61005e8161061d565b506040805160a080820183526000808352602080840182815284860183815260966060808801918252608080890187815260078852600980885299517fae6299332bcd708cd60e3a8defa55de28078a50a4cf2b3de3a546253240ff9e18054975196519551925115156701000000000000000260ff60381b1963ffffffff90941663010000000266ffffffff0000001997151562010000029790971666ffffffffff0000199815156101000261ffff19909a1660ff909416939093179890981796909616179390931792909216939093179091558651948501875283855291840183905260019584018690528301829052820181905290928152602080820192909252604090810160009081208451815486860151878601516060808a015160809a8b015115156701000000000000000260ff60381b1963ffffffff90921663010000000266ffffffff0000001994151562010000029490941666ffffffffff0000199515156101000261ffff1990971660ff98891617969096179490941694909417919091179290921617909255835160a081018552908b1681526001948101859052928301939093529181018290529182018190526009906002600781111561022b5761022b6106e8565b8152602080820192909252604090810160009081208451815486860151878601516060808a015160809a8b015115156701000000000000000260ff60381b1963ffffffff90921663010000000266ffffffff0000001994151562010000029490941666ffffffffff0000199515156101000261ffff1990971660ff98891617969096179490941694909417919091179290921617909255835160a081018552908a1681529384018290526001928401839052620186a090840152928201529060099060066007811115610300576103006106e8565b8152602080820192909252604090810160009081208451815486860151878601516060808a015160809a8b015115156701000000000000000260ff60381b1963ffffffff90921663010000000266ffffffff0000001994151562010000029490941666ffffffffff0000199515156101000261ffff1990971660ff98891617969096179490941694909417919091179290921617909255835160a08101855290891681529384018290526001928401839052620186a0908401529282015290600990600360078111156103d5576103d56106e8565b8152602080820192909252604090810160009081208451815486860151878601516060808a015160809a8b015115156701000000000000000260ff60381b1963ffffffff90921663010000000266ffffffff0000001994151562010000029490941666ffffffffff0000199515156101000261ffff1990971660ff98891617969096179490941694909417919091179290921617909255835160a08101855290881681529384018290526001928401839052620186a0908401529282015290600990600460078111156104aa576104aa6106e8565b8152602080820192909252604090810160009081208451815486860151878601516060808a015160809a8b015115156701000000000000000260ff60381b1963ffffffff90921663010000000266ffffffff0000001994151562010000029490941666ffffffffff0000199515156101000261ffff1990971660ff98891617969096179490941694909417919091179290921617909255835160a08101855290871681529384018290526001928401839052620186a09084015292820152906009906005600781111561057f5761057f6106e8565b81526020808201929092526040908101600020835181549385015192850151606086015160809096015115156701000000000000000260ff60381b1963ffffffff90971663010000000266ffffffff0000001992151562010000029290921666ffffffffff0000199515156101000261ffff1990971660ff909416939093179590951793909316179190911792909216179055506106fe9350505050565b600080546001600160a01b038381166001600160a01b0319831681178455604051919092169283917f8be0079c531659141344cd1fd0a4f28419497f9722a3daafe3b4186f6b6457e09190a35050565b805160ff8116811461067e57600080fd5b919050565b600080600080600060a0868803121561069b57600080fd5b6106a48661066d565b94506106b26020870161066d565b93506106c06040870161066d565b92506106ce6060870161066d565b91506106dc6080870161066d565b90509295509295909350565b634e487b7160e01b600052602160045260246000fd5b61215e8061070d6000396000f3fe608060405234801561001057600080fd5b50600436106101cf5760003560e01c80638da5cb5b11610104578063a1dcdb22116100a2578063e202fa4d11610071578063e202fa4d146105ac578063e838dfbb146105bf578063f2fde38b146105eb578063ff789095146105fe57600080fd5b8063a1dcdb2214610546578063a680125814610563578063a7771ee31461058f578063deffb906146105a257600080fd5b80639497c608116100de5780639497c608146104a65780639547f953146104b957806398c079381461051d5780639c3eead91461053357600080fd5b80638da5cb5b146104655780638f93716f14610480578063922201421461049357600080fd5b806358f43f76116101715780636f77926b1161014b5780636f77926b146103de578063715018a6146104175780637b3341541461041f5780637ccfdba71461045257600080fd5b806358f43f761461035a5780636101bf21146103b15780636ba13a82146103c457600080fd5b80631eb2c120116101ad5780631eb2c120146102995780632115c634146102da5780632b17b8be146103115780632f22dc7b1461033157600080fd5b806304521ca3146101d4578063064505ad146101e95780630ed4ea5e14610212575b600080fd5b6101e76101e2366004611a93565b610611565b005b6101fc6101f7366004611ac6565b610647565b6040516102099190611b27565b60405180910390f35b610260610220366004611c04565b60096020526000908152604090205460ff80821691610100810482169162010000820481169163ffffffff630100000082041691600160381b9091041685565b6040805160ff909616865293151560208601529115159284019290925263ffffffff90911660608301521515608082015260a001610209565b6102c26102a7366004611c04565b6008602052600090815260409020546001600160401b031681565b6040516001600160401b039091168152602001610209565b6102fe6102e8366004611ac6565b600a6020526000908152604090205461ffff1681565b60405161ffff9091168152602001610209565b61032461031f366004611ac6565b610826565b6040516102099190611c57565b6102c261033f366004611c04565b6007602052600090815260409020546001600160401b031681565b6103a1610368366004611ac6565b6006602052600090815260409020805460018201546002909201546001600160a01b039182169291821691600160a01b900460ff169084565b6040516102099493929190611c99565b6101e76103bf366004611ac6565b6108c5565b6002546102c290600160401b90046001600160401b031681565b61040a6103ec366004611ac6565b6001600160a01b031660009081526003602052604090205460ff1690565b6040516102099190611ccd565b6101e761096f565b61044261042d366004611ac6565b60016020526000908152604090205460ff1681565b6040519015158152602001610209565b6101e7610460366004611cdb565b610983565b6000546040516001600160a01b039091168152602001610209565b6101e761048e366004611ac6565b610c13565b6002546102c2906001600160401b031681565b6104426104b4366004611d1e565b610c42565b6104cc6104c7366004611c04565b610cb2565b6040516102099190600060a08201905060ff835116825260208301511515602083015260408301511515604083015263ffffffff606084015116606083015260808301511515608083015292915050565b610525610d73565b604051908152602001610209565b6101e7610541366004611d3a565b610e48565b61054e609681565b60405163ffffffff9091168152602001610209565b610442610571366004611ac6565b6001600160a01b031660009081526001602052604090205460ff1690565b61044261059d366004611ac6565b6111dc565b61054e620186a081565b6101e76105ba366004611ac6565b61120b565b6104426105cd366004611ac6565b6001600160a01b031660009081526004602052604090205460ff1690565b6101e76105f9366004611ac6565b61135e565b6101e761060c366004611e07565b61139c565b610619611747565b600b80546001600160a01b039384166001600160a01b031991821617909155600c8054929093169116179055565b6001600160a01b0381166000908152600560209081526040808320805482518185028101850190935280835260609492939192909184015b8282101561081b5760008481526020908190206040805160c0810182526005860290920180546001600160401b03811684526001600160a01b03600160401b9091048116948401949094526001810154909316908201526002820180549192916060840191906106ee90611e7e565b80601f016020809104026020016040519081016040528092919081815260200182805461071a90611e7e565b80156107675780601f1061073c57610100808354040283529160200191610767565b820191906000526020600020905b81548152906001019060200180831161074a57829003601f168201915b5050505050815260200160038201805461078090611e7e565b80601f01602080910402602001604051908101604052809291908181526020018280546107ac90611e7e565b80156107f95780601f106107ce576101008083540402835291602001916107f9565b820191906000526020600020905b8154815290600101906020018083116107dc57829003601f168201915b505050505081526020016004820154815250508152602001906001019061067f565b505050509050919050565b604080516080808201835260008083526020808401829052838501829052606084018290526001600160a01b0386811683526006825291859020855193840186528054831684526001810154928316918401919091529293919291830190600160a01b900460ff16600781111561089f5761089f611c1f565b60078111156108b0576108b0611c1f565b81526020016002820154815250509050919050565b3360009081526001602052604090205460ff166108fd5760405162461bcd60e51b81526004016108f490611eb8565b60405180910390fd5b600c546001600160a01b03163381146109285760405162461bcd60e51b81526004016108f490611ee4565b6001600160a01b0382166000908152600a60205260408120805461ffff169161095083611f31565b91906101000a81548161ffff021916908361ffff160217905550505050565b610977611747565b6109816000611774565b565b3360009081526001602052604090205460ff166109b25760405162461bcd60e51b81526004016108f490611eb8565b600b546001600160a01b03163381146109dd5760405162461bcd60e51b81526004016108f490611ee4565b6001600160a01b038316610a335760405162461bcd60e51b815260206004820152601e60248201527f496e766974656420616464726573732063616e6e6f74206265207a65726f000060448201526064016108f4565b6001600160a01b038381166000908152600660205260409020541615610a8d5760405162461bcd60e51b815260206004820152600f60248201526e105b1c9958591e481a5b9d9a5d1959608a1b60448201526064016108f4565b6001600160a01b03831660009081526003602052604081205460ff166007811115610aba57610aba611c1f565b14610afc5760405162461bcd60e51b8152602060048201526012602482015271105b1c9958591e481c9959da5cdd195c995960721b60448201526064016108f4565b6040518060800160405280846001600160a01b03168152602001856001600160a01b03168152602001836007811115610b3757610b37611c1f565b8152436020918201526001600160a01b03808616600090815260068352604090819020845181549084166001600160a01b03199182161782559385015160018201805491909416948116851784559185015190939092916001600160a81b03191617600160a01b836007811115610bb057610bb0611c1f565b021790555060608201518160020155905050826001600160a01b0316846001600160a01b03167f3aed71ce4143148a406a002376059e9cb31ad2e3c9b2a431fc106d4be03f204784604051610c059190611ccd565b60405180910390a350505050565b610c1b611747565b6001600160a01b03166000908152600160208190526040909120805460ff19169091179055565b6000826007811115610c5657610c56611c1f565b6001600160a01b03831660009081526003602052604090205460ff166007811115610c8357610c83611c1f565b148015610ca957506001600160a01b03821660009081526004602052604090205460ff16155b90505b92915050565b6040805160a08101825260008082526020820181905291810182905260608101829052608081019190915260096000836007811115610cf357610cf3611c1f565b6007811115610d0457610d04611c1f565b81526020808201929092526040908101600020815160a081018352905460ff808216835261010082048116151594830194909452620100008104841615159282019290925263ffffffff63010000008304166060820152600160381b9091049091161515608082015292915050565b60076020527f3be6fd20d5acfde5b873b48692cd31f4d3c7e8ee8a813af4696af8859e5ca6c6547fb805995a7ec585a251200611a61d179cfd7fb105e1ab17dc415a7336783786f7547fbcdda56b5d08466ec462cbbe0adfa57cb0a15fcc8940ef68f702f21b787bc93554600660009081527f55c5b153ab560fcde54a63b18c7f53d75501706907cef8767fbded79ab9997c75490936001600160401b0390811693811692610e26929082169116611f52565b610e309190611f52565b610e3a9190611f52565b6001600160401b0316905090565b3360009081526001602052604090205460ff16610e775760405162461bcd60e51b81526004016108f490611eb8565b6001600160a01b038216610ecd5760405162461bcd60e51b815260206004820152601b60248201527f5573657220616464726573732063616e6e6f74206265207a65726f000000000060448201526064016108f4565b6001600160a01b03821660009081526003602052604081205460ff166007811115610efa57610efa611c1f565b14610f3d5760405162461bcd60e51b81526020600482015260136024820152725573657220616c72656164792065786973747360681b60448201526064016108f4565b6000816007811115610f5157610f51611c1f565b03610f925760405162461bcd60e51b8152602060048201526011602482015270496e76616c69642075736572207479706560781b60448201526064016108f4565b610f9b816117c4565b610fe75760405162461bcd60e51b815260206004820152601760248201527f50726f706f7274696f6e616c69747920696e76616c696400000000000000000060448201526064016108f4565b610ff18282611969565b6110325760405162461bcd60e51b815260206004820152601260248201527124b73b30b634b21034b73b34ba30ba34b7b760711b60448201526064016108f4565b6001600160a01b0382166000908152600360205260409020805482919060ff1916600183600781111561106757611067611c1f565b021790555060028054600160401b90046001600160401b031690600861108c83611f71565b91906101000a8154816001600160401b0302191690836001600160401b0316021790555050600760008260078111156110c7576110c7611c1f565b60078111156110d8576110d8611c1f565b81526020810191909152604001600090812080546001600160401b0316916110ff83611f71565b91906101000a8154816001600160401b0302191690836001600160401b03160217905550506008600082600781111561113a5761113a611c1f565b600781111561114b5761114b611c1f565b81526020810191909152604001600090812080546001600160401b03169161117283611f71565b91906101000a8154816001600160401b0302191690836001600160401b0316021790555050816001600160a01b03167f8e18574f8a7333e6a87112742a55853a643e2f0550f4e1a3a2c3f1bb2994441d826040516111d09190611ccd565b60405180910390a25050565b6001600160a01b0381166000908152600360205260408120546112019060ff16610cb2565b6080015192915050565b3360009081526001602052604090205460ff1661123a5760405162461bcd60e51b81526004016108f490611eb8565b600c546001600160a01b03163381146112655760405162461bcd60e51b81526004016108f490611ee4565b6001600160a01b03821660009081526004602052604090205460ff1661135a576001600160a01b0382166000908152600360205260408120546007919060ff16828111156112b5576112b5611c1f565b60078111156112c6576112c6611c1f565b81526020810191909152604001600090812080546001600160401b0316916112ed83611f93565b82546001600160401b039182166101009390930a9283029190920219909116179055506001600160a01b038216600081815260046020526040808220805460ff19166001179055517f4e283ac74dcfce6ff8dd078cc60000ae1deac4f6ae889f87268c6ed2fd0404d89190a25b5050565b611366611747565b6001600160a01b03811661139057604051631e4fbdf760e01b8152600060048201526024016108f4565b61139981611774565b50565b81516064108015906113b15750805161012c10155b6113f65760405162461bcd60e51b815260206004820152601660248201527513585e0818da185c9858dd195c9cc81c995858da195960521b60448201526064016108f4565b3360009081526003602052604081205460ff16600781111561141a5761141a611c1f565b036114675760405162461bcd60e51b815260206004820152601960248201527f43616c6c6572206d75737420626520726567697374657265640000000000000060448201526064016108f4565b60073360009081526003602052604090205460ff16600781111561148d5761148d611c1f565b036114da5760405162461bcd60e51b815260206004820152601960248201527f4e6f7420616c6c6f77656420746f20737570706f72746572730000000000000060448201526064016108f4565b6001600160a01b03831660009081526003602052604081205460ff16600781111561150757611507611c1f565b036115545760405162461bcd60e51b815260206004820152601760248201527f55736572206d757374206265207265676973746572656400000000000000000060448201526064016108f4565b6001600160a01b0383166115aa5760405162461bcd60e51b815260206004820152601a60248201527f43616e6e6f742064656c617465207a65726f206164647265737300000000000060448201526064016108f4565b6001600160a01b03831660009081526005602052604090819020815160c0810190925260025490919081906115e9906001600160401b03166001611f52565b6001600160401b039081168252336020808401919091526001600160a01b0388811660408086019190915260608086018a9052608086018990524360a09096019590955286546001818101895560009889529784902087516005909202018054948801518416600160401b026001600160e01b03199095169190951617929092178355908401519482018054959091166001600160a01b03199095169490941790935581015190919060028201906116a19082612005565b50608082015160038201906116b69082612005565b5060a09190910151600490910155600280546001600160401b03169060006116dd83611f71565b91906101000a8154816001600160401b0302191690836001600160401b0316021790555050826001600160a01b0316336001600160a01b03167f650ecc022f450966bb9175753b45172e38411e795fcd1f3541a83a43e9dab66b60405160405180910390a3505050565b6000546001600160a01b031633146109815760405163118cdaa760e01b81523360048201526024016108f4565b600080546001600160a01b038381166001600160a01b0319831681178455604051919092169283917f8be0079c531659141344cd1fd0a4f28419497f9722a3daafe3b4186f6b6457e09190a35050565b60016000908152600760208190527fb39221ace053465ec3453ce2b36430bd138b997ecea25c1043da0c366812b828546001600160401b031690829081858281111561181257611812611c1f565b600781111561182357611823611c1f565b815260208101919091526040016000908120546001600160401b0316915060098186600781111561185657611856611c1f565b600781111561186757611867611c1f565b815260208082019290925260409081016000908120825160a081018452905460ff80821680845261010083048216151596840196909652620100008204811615159483019490945263ffffffff63010000008204166060830152600160381b9004909216151560808301529092508190036118e85750600195945050505050565b60056001600160401b03841610156119065750600195945050505050565b81602001511561193c5761191d60ff8216856120c3565b6001600160401b0316836001600160401b031610945050505050919050565b61194960ff8216856120ec565b6001600160401b0316836001600160401b03161115945050505050919050565b60006009600083600781111561198157611981611c1f565b600781111561199257611992611c1f565b815260208101919091526040016000205462010000900460ff166119b857506001610cac565b6001600160a01b0383811660009081526006602090815260408083208151608081018352815486168152600182015495861693810193909352929391929190830190600160a01b900460ff166007811115611a1557611a15611c1f565b6007811115611a2657611a26611c1f565b8152602001600282015481525050905060008160600151118015611a6f5750826007811115611a5757611a57611c1f565b81604001516007811115611a6d57611a6d611c1f565b145b949350505050565b80356001600160a01b0381168114611a8e57600080fd5b919050565b60008060408385031215611aa657600080fd5b611aaf83611a77565b9150611abd60208401611a77565b90509250929050565b600060208284031215611ad857600080fd5b610ca982611a77565b6000815180845260005b81811015611b0757602081850181015186830182015201611aeb565b506000602082860101526020601f19601f83011685010191505092915050565b6000602082016020835280845180835260408501915060408160051b86010192506020860160005b82811015611be957603f1987860301845281516001600160401b03815116865260018060a01b03602082015116602087015260018060a01b036040820151166040870152606081015160c06060880152611bac60c0880182611ae1565b905060808201518782036080890152611bc58282611ae1565b60a09384015198909301979097525094506020938401939190910190600101611b4f565b50929695505050505050565b803560088110611a8e57600080fd5b600060208284031215611c1657600080fd5b610ca982611bf5565b634e487b7160e01b600052602160045260246000fd5b60088110611c5357634e487b7160e01b600052602160045260246000fd5b9052565b81516001600160a01b039081168252602080840151909116908201526040808301516080830191611c8a90840182611c35565b50606092830151919092015290565b6001600160a01b0385811682528416602082015260808101611cbe6040830185611c35565b82606083015295945050505050565b60208101610cac8284611c35565b600080600060608486031215611cf057600080fd5b611cf984611a77565b9250611d0760208501611a77565b9150611d1560408501611bf5565b90509250925092565b60008060408385031215611d3157600080fd5b611aaf83611bf5565b60008060408385031215611d4d57600080fd5b611d5683611a77565b9150611abd60208401611bf5565b634e487b7160e01b600052604160045260246000fd5b600082601f830112611d8b57600080fd5b81356001600160401b03811115611da457611da4611d64565b604051601f8201601f19908116603f011681016001600160401b0381118282101715611dd257611dd2611d64565b604052818152838201602001851015611dea57600080fd5b816020850160208301376000918101602001919091529392505050565b600080600060608486031215611e1c57600080fd5b611e2584611a77565b925060208401356001600160401b03811115611e4057600080fd5b611e4c86828701611d7a565b92505060408401356001600160401b03811115611e6857600080fd5b611e7486828701611d7a565b9150509250925092565b600181811c90821680611e9257607f821691505b602082108103611eb257634e487b7160e01b600052602260045260246000fd5b50919050565b6020808252601290820152712737ba1030b63637bbb2b21031b0b63632b960711b604082015260600190565b6020808252601e908201527f43616c6c6572206d7573742062652073797374656d20636f6e74726163740000604082015260600190565b634e487b7160e01b600052601160045260246000fd5b600061ffff821661ffff8103611f4957611f49611f1b565b60010192915050565b6001600160401b038181168382160190811115610cac57610cac611f1b565b60006001600160401b0382166001600160401b038103611f4957611f49611f1b565b60006001600160401b03821680611fac57611fac611f1b565b6000190192915050565b601f82111561200057806000526020600020601f840160051c81016020851015611fdd5750805b601f840160051c820191505b81811015611ffd5760008155600101611fe9565b50505b505050565b81516001600160401b0381111561201e5761201e611d64565b6120328161202c8454611e7e565b84611fb6565b6020601f821160018114612066576000831561204e5750848201515b600019600385901b1c1916600184901b178455611ffd565b600084815260208120601f198516915b828110156120965787850151825560209485019460019092019101612076565b50848210156120b45786840151600019600387901b60f8161c191681555b50505050600190811b01905550565b6001600160401b0381811683821602908116908181146120e5576120e5611f1b565b5092915050565b60006001600160401b0383168061211357634e487b7160e01b600052601260045260246000fd5b806001600160401b038416049150509291505056fea2646970667358221220b05e47d85e5fd031c071788b850b978ab668b8ae787199f1eddfffd6bff5a96664736f6c634300081b0033",
  "linkReferences": {},
  "deployedLinkReferences": {}
}