{
  "_format": "hh-sol-artifact-1",
  "contractName": "CommunityRules",
  "sourceName": "contracts/CommunityRules.sol",
  "abi": [
    {
      "inputs": [
        {
          "internalType": "uint8",
          "name": "inspectorProportionality",
          "type": "uint8"
        },
        {
          "internalType": "uint8",
          "name": "activistProportionality",
          "type": "uint8"
        },
        {
          "internalType": "uint8",
          "name": "researcherProportionality",
          "type": "uint8"
        },
        {
          "internalType": "uint8",
          "name": "developerProportionality",
          "type": "uint8"
        },
        {
          "internalType": "uint8",
          "name": "contributorProportionality",
          "type": "uint8"
        }
      ],
      "stateMutability": "nonpayable",
      "type": "constructor"
    },
    {
      "inputs": [
        {
          "internalType": "address",
          "name": "owner",
          "type": "address"
        }
      ],
      "name": "OwnableInvalidOwner",
      "type": "error"
    },
    {
      "inputs": [
        {
          "internalType": "address",
          "name": "account",
          "type": "address"
        }
      ],
      "name": "OwnableUnauthorizedAccount",
      "type": "error"
    },
    {
      "anonymous": false,
      "inputs": [
        {
          "indexed": true,
          "internalType": "address",
          "name": "informer",
          "type": "address"
        },
        {
          "indexed": true,
          "internalType": "address",
          "name": "reported",
          "type": "address"
        },
        {
          "indexed": false,
          "internalType": "uint64",
          "name": "newDelationId",
          "type": "uint64"
        }
      ],
      "name": "DelationAdded",
      "type": "event"
    },
    {
      "anonymous": false,
      "inputs": [
        {
          "indexed": true,
          "internalType": "address",
          "name": "addr",
          "type": "address"
        }
      ],
      "name": "DeniedUserEvent",
      "type": "event"
    },
    {
      "anonymous": false,
      "inputs": [
        {
          "indexed": true,
          "internalType": "address",
          "name": "inviter",
          "type": "address"
        },
        {
          "indexed": true,
          "internalType": "address",
          "name": "invited",
          "type": "address"
        },
        {
          "indexed": false,
          "internalType": "enum CommunityTypes.UserType",
          "name": "userTypeTo",
          "type": "uint8"
        }
      ],
      "name": "InvitationAdded",
      "type": "event"
    },
    {
      "anonymous": false,
      "inputs": [
        {
          "indexed": true,
          "internalType": "address",
          "name": "previousOwner",
          "type": "address"
        },
        {
          "indexed": true,
          "internalType": "address",
          "name": "newOwner",
          "type": "address"
        }
      ],
      "name": "OwnershipTransferred",
      "type": "event"
    },
    {
      "anonymous": false,
      "inputs": [
        {
          "indexed": true,
          "internalType": "address",
          "name": "addr",
          "type": "address"
        },
        {
          "indexed": false,
          "internalType": "enum CommunityTypes.UserType",
          "name": "userType",
          "type": "uint8"
        }
      ],
      "name": "UserRegistered",
      "type": "event"
    },
    {
      "inputs": [],
      "name": "SUPPORTER_INVITATION_DELAY_BLOCKS",
      "outputs": [
        {
          "internalType": "uint32",
          "name": "",
          "type": "uint32"
        }
      ],
      "stateMutability": "view",
      "type": "function"
    },
    {
      "inputs": [],
      "name": "VOTER_INVITATION_DELAY_BLOCKS",
      "outputs": [
        {
          "internalType": "uint32",
          "name": "",
          "type": "uint32"
        }
      ],
      "stateMutability": "view",
      "type": "function"
    },
    {
      "inputs": [
        {
          "internalType": "address",
          "name": "addr",
          "type": "address"
        },
        {
          "internalType": "string",
          "name": "title",
          "type": "string"
        },
        {
          "internalType": "string",
          "name": "testimony",
          "type": "string"
        }
      ],
      "name": "addDelation",
      "outputs": [],
      "stateMutability": "nonpayable",
      "type": "function"
    },
    {
      "inputs": [
        {
          "internalType": "address",
          "name": "inviter",
          "type": "address"
        },
        {
          "internalType": "address",
          "name": "invited",
          "type": "address"
        },
        {
          "internalType": "enum CommunityTypes.UserType",
          "name": "userType",
          "type": "uint8"
        }
      ],
      "name": "addInvitation",
      "outputs": [],
      "stateMutability": "nonpayable",
      "type": "function"
    },
    {
      "inputs": [
        {
          "internalType": "address",
          "name": "inviter",
          "type": "address"
        }
      ],
      "name": "addInviterPenalty",
      "outputs": [],
      "stateMutability": "nonpayable",
      "type": "function"
    },
    {
      "inputs": [
        {
          "internalType": "address",
          "name": "addr",
          "type": "address"
        },
        {
          "internalType": "enum CommunityTypes.UserType",
          "name": "userType",
          "type": "uint8"
        }
      ],
      "name": "addUser",
      "outputs": [],
      "stateMutability": "nonpayable",
      "type": "function"
    },
    {
      "inputs": [
        {
          "internalType": "address",
          "name": "",
          "type": "address"
        }
      ],
      "name": "allowedCallers",
      "outputs": [
        {
          "internalType": "bool",
          "name": "",
          "type": "bool"
        }
      ],
      "stateMutability": "view",
      "type": "function"
    },
    {
      "inputs": [
        {
          "internalType": "uint256",
          "name": "",
          "type": "uint256"
        }
      ],
      "name": "delationsById",
      "outputs": [
        {
          "internalType": "uint64",
          "name": "id",
          "type": "uint64"
        },
        {
          "internalType": "address",
          "name": "informer",
          "type": "address"
        },
        {
          "internalType": "address",
          "name": "reported",
          "type": "address"
        },
        {
          "internalType": "string",
          "name": "title",
          "type": "string"
        },
        {
          "internalType": "string",
          "name": "testimony",
          "type": "string"
        },
        {
          "internalType": "uint256",
          "name": "createdAtBlock",
          "type": "uint256"
        }
      ],
      "stateMutability": "view",
      "type": "function"
    },
    {
      "inputs": [],
      "name": "delationsCount",
      "outputs": [
        {
          "internalType": "uint64",
          "name": "",
          "type": "uint64"
        }
      ],
      "stateMutability": "view",
      "type": "function"
    },
    {
      "inputs": [
        {
          "internalType": "address",
          "name": "addr",
          "type": "address"
        }
      ],
      "name": "getInvitation",
      "outputs": [
        {
          "components": [
            {
              "internalType": "address",
              "name": "invited",
              "type": "address"
            },
            {
              "internalType": "address",
              "name": "inviter",
              "type": "address"
            },
            {
              "internalType": "enum CommunityTypes.UserType",
              "name": "userType",
              "type": "uint8"
            },
            {
              "internalType": "uint256",
              "name": "createdAtBlock",
              "type": "uint256"
            }
          ],
          "internalType": "struct CommunityTypes.Invitation",
          "name": "",
          "type": "tuple"
        }
      ],
      "stateMutability": "view",
      "type": "function"
    },
    {
      "inputs": [
        {
          "internalType": "address",
          "name": "addr",
          "type": "address"
        }
      ],
      "name": "getUser",
      "outputs": [
        {
          "internalType": "enum CommunityTypes.UserType",
          "name": "",
          "type": "uint8"
        }
      ],
      "stateMutability": "view",
      "type": "function"
    },
    {
      "inputs": [
        {
          "internalType": "address",
          "name": "addr",
          "type": "address"
        }
      ],
      "name": "getUserDelations",
      "outputs": [
        {
          "components": [
            {
              "internalType": "uint64",
              "name": "id",
              "type": "uint64"
            },
            {
              "internalType": "address",
              "name": "informer",
              "type": "address"
            },
            {
              "internalType": "address",
              "name": "reported",
              "type": "address"
            },
            {
              "internalType": "string",
              "name": "title",
              "type": "string"
            },
            {
              "internalType": "string",
              "name": "testimony",
              "type": "string"
            },
            {
              "internalType": "uint256",
              "name": "createdAtBlock",
              "type": "uint256"
            }
          ],
          "internalType": "struct CommunityTypes.Delation[]",
          "name": "",
          "type": "tuple[]"
        }
      ],
      "stateMutability": "view",
      "type": "function"
    },
    {
      "inputs": [
        {
          "internalType": "enum CommunityTypes.UserType",
          "name": "userType",
          "type": "uint8"
        }
      ],
      "name": "getUserTypeSettings",
      "outputs": [
        {
          "components": [
            {
              "internalType": "uint8",
              "name": "proportionalityOnRegister",
              "type": "uint8"
            },
            {
              "internalType": "bool",
              "name": "directProportionalityRegistration",
              "type": "bool"
            },
            {
              "internalType": "bool",
              "name": "needInvitationOnRegister",
              "type": "bool"
            },
            {
              "internalType": "uint32",
              "name": "invitationDelayBlocks",
              "type": "uint32"
            },
            {
              "internalType": "bool",
              "name": "isVoter",
              "type": "bool"
            }
          ],
          "internalType": "struct CommunityTypes.UserTypeSetting",
          "name": "",
          "type": "tuple"
        }
      ],
      "stateMutability": "view",
      "type": "function"
    },
    {
      "inputs": [
        {
          "internalType": "address",
          "name": "",
          "type": "address"
        }
      ],
      "name": "invitations",
      "outputs": [
        {
          "internalType": "address",
          "name": "invited",
          "type": "address"
        },
        {
          "internalType": "address",
          "name": "inviter",
          "type": "address"
        },
        {
          "internalType": "enum CommunityTypes.UserType",
          "name": "userType",
          "type": "uint8"
        },
        {
          "internalType": "uint256",
          "name": "createdAtBlock",
          "type": "uint256"
        }
      ],
      "stateMutability": "view",
      "type": "function"
    },
    {
      "inputs": [
        {
          "internalType": "address",
          "name": "",
          "type": "address"
        }
      ],
      "name": "inviterPenalties",
      "outputs": [
        {
          "internalType": "uint16",
          "name": "",
          "type": "uint16"
        }
      ],
      "stateMutability": "view",
      "type": "function"
    },
    {
      "inputs": [
        {
          "internalType": "address",
          "name": "caller",
          "type": "address"
        }
      ],
      "name": "isAllowedCaller",
      "outputs": [
        {
          "internalType": "bool",
          "name": "",
          "type": "bool"
        }
      ],
      "stateMutability": "view",
      "type": "function"
    },
    {
      "inputs": [
        {
          "internalType": "address",
          "name": "userAddress",
          "type": "address"
        }
      ],
      "name": "isDenied",
      "outputs": [
        {
          "internalType": "bool",
          "name": "",
          "type": "bool"
        }
      ],
      "stateMutability": "view",
      "type": "function"
    },
    {
      "inputs": [
        {
          "internalType": "address",
          "name": "addr",
          "type": "address"
        }
      ],
      "name": "isVoter",
      "outputs": [
        {
          "internalType": "bool",
          "name": "",
          "type": "bool"
        }
      ],
      "stateMutability": "view",
      "type": "function"
    },
    {
      "inputs": [
        {
          "internalType": "address",
          "name": "allowed",
          "type": "address"
        }
      ],
      "name": "newAllowedCaller",
      "outputs": [],
      "stateMutability": "nonpayable",
      "type": "function"
    },
    {
      "inputs": [],
      "name": "owner",
      "outputs": [
        {
          "internalType": "address",
          "name": "",
          "type": "address"
        }
      ],
      "stateMutability": "view",
      "type": "function"
    },
    {
      "inputs": [],
      "name": "renounceOwnership",
      "outputs": [],
      "stateMutability": "nonpayable",
      "type": "function"
    },
    {
      "inputs": [
        {
          "internalType": "address",
          "name": "_invitationRulesAddress",
          "type": "address"
        },
        {
          "internalType": "address",
          "name": "_validationRulesAddress",
          "type": "address"
        }
      ],
      "name": "setContractCall",
      "outputs": [],
      "stateMutability": "nonpayable",
      "type": "function"
    },
    {
      "inputs": [
        {
          "internalType": "address",
          "name": "userAddress",
          "type": "address"
        }
      ],
      "name": "setDeniedType",
      "outputs": [],
      "stateMutability": "nonpayable",
      "type": "function"
    },
    {
      "inputs": [
        {
          "internalType": "address",
          "name": "newOwner",
          "type": "address"
        }
      ],
      "name": "transferOwnership",
      "outputs": [],
      "stateMutability": "nonpayable",
      "type": "function"
    },
    {
      "inputs": [
        {
          "internalType": "enum CommunityTypes.UserType",
          "name": "userType",
          "type": "uint8"
        },
        {
          "internalType": "address",
          "name": "userAddress",
          "type": "address"
        }
      ],
      "name": "userTypeIs",
      "outputs": [
        {
          "internalType": "bool",
          "name": "",
          "type": "bool"
        }
      ],
      "stateMutability": "view",
      "type": "function"
    },
    {
      "inputs": [
        {
          "internalType": "enum CommunityTypes.UserType",
          "name": "",
          "type": "uint8"
        }
      ],
      "name": "userTypeSettings",
      "outputs": [
        {
          "internalType": "uint8",
          "name": "proportionalityOnRegister",
          "type": "uint8"
        },
        {
          "internalType": "bool",
          "name": "directProportionalityRegistration",
          "type": "bool"
        },
        {
          "internalType": "bool",
          "name": "needInvitationOnRegister",
          "type": "bool"
        },
        {
          "internalType": "uint32",
          "name": "invitationDelayBlocks",
          "type": "uint32"
        },
        {
          "internalType": "bool",
          "name": "isVoter",
          "type": "bool"
        }
      ],
      "stateMutability": "view",
      "type": "function"
    },
    {
      "inputs": [
        {
          "internalType": "enum CommunityTypes.UserType",
          "name": "",
          "type": "uint8"
        }
      ],
      "name": "userTypesCount",
      "outputs": [
        {
          "internalType": "uint64",
          "name": "",
          "type": "uint64"
        }
      ],
      "stateMutability": "view",
      "type": "function"
    },
    {
      "inputs": [
        {
          "internalType": "enum CommunityTypes.UserType",
          "name": "",
          "type": "uint8"
        }
      ],
      "name": "userTypesTotalCount",
      "outputs": [
        {
          "internalType": "uint64",
          "name": "",
          "type": "uint64"
        }
      ],
      "stateMutability": "view",
      "type": "function"
    },
    {
      "inputs": [],
      "name": "usersCount",
      "outputs": [
        {
          "internalType": "uint64",
          "name": "",
          "type": "uint64"
        }
      ],
      "stateMutability": "view",
      "type": "function"
    },
    {
      "inputs": [],
      "name": "votersCount",
      "outputs": [
        {
          "internalType": "uint256",
          "name": "",
          "type": "uint256"
        }
      ],
      "stateMutability": "view",
      "type": "function"
    }
  ],
  "bytecode": "0x608060405234801561001057600080fd5b50604051612af1380380612af183398101604081905261002f91610683565b338061005557604051631e4fbdf760e01b81526000600482015260240160405180910390fd5b61005e8161061d565b506040805160a080820183526000808352602080840182815284860183815260966060808801918252608080890187815260078852600a80885299517f22e39f61d1e4986b4f116cea9067f62cc77d74dff1780ae9c8b5166d1dd288298054975196519551925115156701000000000000000260ff60381b1963ffffffff90941663010000000266ffffffff0000001997151562010000029790971666ffffffffff0000199815156101000261ffff19909a1660ff909416939093179890981796909616179390931792909216939093179091558651948501875283855291840183905260019584018690528301829052820181905290928152602080820192909252604090810160009081208451815486860151878601516060808a015160809a8b015115156701000000000000000260ff60381b1963ffffffff90921663010000000266ffffffff0000001994151562010000029490941666ffffffffff0000199515156101000261ffff1990971660ff98891617969096179490941694909417919091179290921617909255835160a081018552908b168152600194810185905292830193909352918101829052918201819052600a906002600781111561022b5761022b6106e8565b8152602080820192909252604090810160009081208451815486860151878601516060808a015160809a8b015115156701000000000000000260ff60381b1963ffffffff90921663010000000266ffffffff0000001994151562010000029490941666ffffffffff0000199515156101000261ffff1990971660ff98891617969096179490941694909417919091179290921617909255835160a081018552908a1681529384018290526001928401839052620186a0908401529282015290600a9060066007811115610300576103006106e8565b8152602080820192909252604090810160009081208451815486860151878601516060808a015160809a8b015115156701000000000000000260ff60381b1963ffffffff90921663010000000266ffffffff0000001994151562010000029490941666ffffffffff0000199515156101000261ffff1990971660ff98891617969096179490941694909417919091179290921617909255835160a08101855290891681529384018290526001928401839052620186a0908401529282015290600a90600360078111156103d5576103d56106e8565b8152602080820192909252604090810160009081208451815486860151878601516060808a015160809a8b015115156701000000000000000260ff60381b1963ffffffff90921663010000000266ffffffff0000001994151562010000029490941666ffffffffff0000199515156101000261ffff1990971660ff98891617969096179490941694909417919091179290921617909255835160a08101855290881681529384018290526001928401839052620186a0908401529282015290600a90600460078111156104aa576104aa6106e8565b8152602080820192909252604090810160009081208451815486860151878601516060808a015160809a8b015115156701000000000000000260ff60381b1963ffffffff90921663010000000266ffffffff0000001994151562010000029490941666ffffffffff0000199515156101000261ffff1990971660ff98891617969096179490941694909417919091179290921617909255835160a08101855290871681529384018290526001928401839052620186a0908401529282015290600a906005600781111561057f5761057f6106e8565b81526020808201929092526040908101600020835181549385015192850151606086015160809096015115156701000000000000000260ff60381b1963ffffffff90971663010000000266ffffffff0000001992151562010000029290921666ffffffffff0000199515156101000261ffff1990971660ff909416939093179590951793909316179190911792909216179055506106fe9350505050565b600080546001600160a01b038381166001600160a01b0319831681178455604051919092169283917f8be0079c531659141344cd1fd0a4f28419497f9722a3daafe3b4186f6b6457e09190a35050565b805160ff8116811461067e57600080fd5b919050565b600080600080600060a0868803121561069b57600080fd5b6106a48661066d565b94506106b26020870161066d565b93506106c06040870161066d565b92506106ce6060870161066d565b91506106dc6080870161066d565b90509295509295909350565b634e487b7160e01b600052602160045260246000fd5b6123e48061070d6000396000f3fe608060405234801561001057600080fd5b50600436106101da5760003560e01c80638da5cb5b11610104578063a1dcdb22116100a2578063e202fa4d11610071578063e202fa4d146105dc578063e838dfbb146105ef578063f2fde38b1461061b578063ff7890951461062e57600080fd5b8063a1dcdb2214610576578063a680125814610593578063a7771ee3146105bf578063deffb906146105d257600080fd5b80639497c608116100de5780639497c608146104d65780639547f953146104e957806398c079381461054d5780639c3eead91461056357600080fd5b80638da5cb5b146104955780638f93716f146104b057806392220142146104c357600080fd5b806358f43f761161017c5780636f77926b1161014b5780636f77926b1461040e578063715018a6146104475780637b3341541461044f5780637ccfdba71461048257600080fd5b806358f43f76146103655780635b2b62a1146103bc5780636101bf21146103e15780636ba13a82146103f457600080fd5b80631eb2c120116101b85780631eb2c120146102a45780632115c634146102e55780632b17b8be1461031c5780632f22dc7b1461033c57600080fd5b806304521ca3146101df578063064505ad146101f45780630ed4ea5e1461021d575b600080fd5b6101f26101ed366004611c9f565b610641565b005b610207610202366004611cd2565b610677565b6040516102149190611d33565b60405180910390f35b61026b61022b366004611e10565b600a6020526000908152604090205460ff80821691610100810482169162010000820481169163ffffffff630100000082041691600160381b9091041685565b6040805160ff909616865293151560208601529115159284019290925263ffffffff90911660608301521515608082015260a001610214565b6102cd6102b2366004611e10565b6009602052600090815260409020546001600160401b031681565b6040516001600160401b039091168152602001610214565b6103096102f3366004611cd2565b600b6020526000908152604090205461ffff1681565b60405161ffff9091168152602001610214565b61032f61032a366004611cd2565b610856565b6040516102149190611e63565b6102cd61034a366004611e10565b6008602052600090815260409020546001600160401b031681565b6103ac610373366004611cd2565b6007602052600090815260409020805460018201546002909201546001600160a01b039182169291821691600160a01b900460ff169084565b6040516102149493929190611ea5565b6103cf6103ca366004611ed9565b6108fc565b60405161021496959493929190611ef2565b6101f26103ef366004611cd2565b610a5b565b6002546102cd90600160401b90046001600160401b031681565b61043a61041c366004611cd2565b6001600160a01b031660009081526003602052604090205460ff1690565b6040516102149190611f53565b6101f2610b05565b61047261045d366004611cd2565b60016020526000908152604090205460ff1681565b6040519015158152602001610214565b6101f2610490366004611f61565b610b19565b6000546040516001600160a01b039091168152602001610214565b6101f26104be366004611cd2565b610dab565b6002546102cd906001600160401b031681565b6104726104e4366004611fa4565b610dda565b6104fc6104f7366004611e10565b610e4a565b6040516102149190600060a08201905060ff835116825260208301511515602083015260408301511515604083015263ffffffff606084015116606083015260808301511515608083015292915050565b610555610f0b565b604051908152602001610214565b6101f2610571366004611fc0565b610fe0565b61057e609681565b60405163ffffffff9091168152602001610214565b6104726105a1366004611cd2565b6001600160a01b031660009081526001602052604090205460ff1690565b6104726105cd366004611cd2565b611374565b61057e620186a081565b6101f26105ea366004611cd2565b6113a3565b6104726105fd366004611cd2565b6001600160a01b031660009081526004602052604090205460ff1690565b6101f2610629366004611cd2565b6114f7565b6101f261063c36600461208d565b611535565b610649611953565b600c80546001600160a01b039384166001600160a01b031991821617909155600d8054929093169116179055565b6001600160a01b0381166000908152600560209081526040808320805482518185028101850190935280835260609492939192909184015b8282101561084b5760008481526020908190206040805160c0810182526005860290920180546001600160401b03811684526001600160a01b03600160401b90910481169484019490945260018101549093169082015260028201805491929160608401919061071e90612104565b80601f016020809104026020016040519081016040528092919081815260200182805461074a90612104565b80156107975780601f1061076c57610100808354040283529160200191610797565b820191906000526020600020905b81548152906001019060200180831161077a57829003601f168201915b505050505081526020016003820180546107b090612104565b80601f01602080910402602001604051908101604052809291908181526020018280546107dc90612104565b80156108295780601f106107fe57610100808354040283529160200191610829565b820191906000526020600020905b81548152906001019060200180831161080c57829003601f168201915b50505050508152602001600482015481525050815260200190600101906106af565b505050509050919050565b6040805160808101825260008082526020820181905291810182905260608101919091526001600160a01b03828116600090815260076020818152604092839020835160808101855281548616815260018201549586169281019290925290939092840191600160a01b90910460ff16908111156108d6576108d6611e2b565b60078111156108e7576108e7611e2b565b81526020016002820154815250509050919050565b6006602052600090815260409020805460018201546002830180546001600160401b03841694600160401b9094046001600160a01b0390811694931692919061094490612104565b80601f016020809104026020016040519081016040528092919081815260200182805461097090612104565b80156109bd5780601f10610992576101008083540402835291602001916109bd565b820191906000526020600020905b8154815290600101906020018083116109a057829003601f168201915b5050505050908060030180546109d290612104565b80601f01602080910402602001604051908101604052809291908181526020018280546109fe90612104565b8015610a4b5780601f10610a2057610100808354040283529160200191610a4b565b820191906000526020600020905b815481529060010190602001808311610a2e57829003601f168201915b5050505050908060040154905086565b3360009081526001602052604090205460ff16610a935760405162461bcd60e51b8152600401610a8a9061213e565b60405180910390fd5b600d546001600160a01b0316338114610abe5760405162461bcd60e51b8152600401610a8a9061216a565b6001600160a01b0382166000908152600b60205260408120805461ffff1691610ae6836121b7565b91906101000a81548161ffff021916908361ffff160217905550505050565b610b0d611953565b610b176000611980565b565b3360009081526001602052604090205460ff16610b485760405162461bcd60e51b8152600401610a8a9061213e565b600c546001600160a01b0316338114610b735760405162461bcd60e51b8152600401610a8a9061216a565b6001600160a01b038316610bc95760405162461bcd60e51b815260206004820152601e60248201527f496e766974656420616464726573732063616e6e6f74206265207a65726f00006044820152606401610a8a565b6001600160a01b038381166000908152600760205260409020541615610c235760405162461bcd60e51b815260206004820152600f60248201526e105b1c9958591e481a5b9d9a5d1959608a1b6044820152606401610a8a565b6001600160a01b03831660009081526003602052604081205460ff166007811115610c5057610c50611e2b565b14610c925760405162461bcd60e51b8152602060048201526012602482015271105b1c9958591e481c9959da5cdd195c995960721b6044820152606401610a8a565b6040518060800160405280846001600160a01b03168152602001856001600160a01b03168152602001836007811115610ccd57610ccd611e2b565b8152436020918201526001600160a01b0380861660009081526007808452604091829020855181549085166001600160a01b03199182161782559486015160018201805491909516958116861785559286015190949093926001600160a81b0319161790600160a01b908490811115610d4857610d48611e2b565b021790555060608201518160020155905050826001600160a01b0316846001600160a01b03167f3aed71ce4143148a406a002376059e9cb31ad2e3c9b2a431fc106d4be03f204784604051610d9d9190611f53565b60405180910390a350505050565b610db3611953565b6001600160a01b03166000908152600160208190526040909120805460ff19169091179055565b6000826007811115610dee57610dee611e2b565b6001600160a01b03831660009081526003602052604090205460ff166007811115610e1b57610e1b611e2b565b148015610e4157506001600160a01b03821660009081526004602052604090205460ff16155b90505b92915050565b6040805160a081018252600080825260208201819052918101829052606081018290526080810191909152600a6000836007811115610e8b57610e8b611e2b565b6007811115610e9c57610e9c611e2b565b81526020808201929092526040908101600020815160a081018352905460ff808216835261010082048116151594830194909452620100008104841615159282019290925263ffffffff63010000008304166060820152600160381b9091049091161515608082015292915050565b60086020527f625b35f5e76f098dd7c3a05b10e2e5e78a4a01228d60c3b143426cdf36d26455547f9321edea6e3be4df59a344b401fab4f888b556fda1f954244cff9204bad624b8547f91238f30f286c9a1c6e901c4eda3b214c381c846e3dbe48df95c21488e8e1fdb54600660009081527f13acf3fc7bed94759963f076d5d3443d88732026bffc8253bdf4a6e65f21ecc55490936001600160401b0390811693811692610fbe9290821691166121d8565b610fc891906121d8565b610fd291906121d8565b6001600160401b0316905090565b3360009081526001602052604090205460ff1661100f5760405162461bcd60e51b8152600401610a8a9061213e565b6001600160a01b0382166110655760405162461bcd60e51b815260206004820152601b60248201527f5573657220616464726573732063616e6e6f74206265207a65726f00000000006044820152606401610a8a565b6001600160a01b03821660009081526003602052604081205460ff16600781111561109257611092611e2b565b146110d55760405162461bcd60e51b81526020600482015260136024820152725573657220616c72656164792065786973747360681b6044820152606401610a8a565b60008160078111156110e9576110e9611e2b565b0361112a5760405162461bcd60e51b8152602060048201526011602482015270496e76616c69642075736572207479706560781b6044820152606401610a8a565b611133816119d0565b61117f5760405162461bcd60e51b815260206004820152601760248201527f50726f706f7274696f6e616c69747920696e76616c69640000000000000000006044820152606401610a8a565b6111898282611b76565b6111ca5760405162461bcd60e51b815260206004820152601260248201527124b73b30b634b21034b73b34ba30ba34b7b760711b6044820152606401610a8a565b6001600160a01b0382166000908152600360205260409020805482919060ff191660018360078111156111ff576111ff611e2b565b021790555060028054600160401b90046001600160401b0316906008611224836121f7565b91906101000a8154816001600160401b0302191690836001600160401b03160217905550506008600082600781111561125f5761125f611e2b565b600781111561127057611270611e2b565b81526020810191909152604001600090812080546001600160401b031691611297836121f7565b91906101000a8154816001600160401b0302191690836001600160401b0316021790555050600960008260078111156112d2576112d2611e2b565b60078111156112e3576112e3611e2b565b81526020810191909152604001600090812080546001600160401b03169161130a836121f7565b91906101000a8154816001600160401b0302191690836001600160401b0316021790555050816001600160a01b03167f8e18574f8a7333e6a87112742a55853a643e2f0550f4e1a3a2c3f1bb2994441d826040516113689190611f53565b60405180910390a25050565b6001600160a01b0381166000908152600360205260408120546113999060ff16610e4a565b6080015192915050565b3360009081526001602052604090205460ff166113d25760405162461bcd60e51b8152600401610a8a9061213e565b600d546001600160a01b03163381146113fd5760405162461bcd60e51b8152600401610a8a9061216a565b6001600160a01b03821660009081526004602052604090205460ff166114f3576001600160a01b0382166000908152600360205260408120546008919060ff16600781111561144e5761144e611e2b565b600781111561145f5761145f611e2b565b81526020810191909152604001600090812080546001600160401b03169161148683612219565b82546001600160401b039182166101009390930a9283029190920219909116179055506001600160a01b038216600081815260046020526040808220805460ff19166001179055517f4e283ac74dcfce6ff8dd078cc60000ae1deac4f6ae889f87268c6ed2fd0404d89190a25b5050565b6114ff611953565b6001600160a01b03811661152957604051631e4fbdf760e01b815260006004820152602401610a8a565b61153281611980565b50565b815160641080159061154a5750805161012c10155b61158f5760405162461bcd60e51b815260206004820152601660248201527513585e0818da185c9858dd195c9cc81c995858da195960521b6044820152606401610a8a565b3360009081526003602052604081205460ff1660078111156115b3576115b3611e2b565b036116005760405162461bcd60e51b815260206004820152601960248201527f43616c6c6572206d7573742062652072656769737465726564000000000000006044820152606401610a8a565b60073360009081526003602052604090205460ff16600781111561162657611626611e2b565b036116735760405162461bcd60e51b815260206004820152601960248201527f4e6f7420616c6c6f77656420746f20737570706f7274657273000000000000006044820152606401610a8a565b6001600160a01b03831660009081526003602052604081205460ff1660078111156116a0576116a0611e2b565b036116ed5760405162461bcd60e51b815260206004820152601760248201527f55736572206d75737420626520726567697374657265640000000000000000006044820152606401610a8a565b6001600160a01b0383166117435760405162461bcd60e51b815260206004820152601a60248201527f43616e6e6f742064656c617465207a65726f20616464726573730000000000006044820152606401610a8a565b600280546001600160401b031690600061175c836121f7565b82546101009290920a6001600160401b03818102199093169183160217909155600280546040805160c0810182529184168083523360208085019182526001600160a01b038b8116868601818152606088018d8152608089018d90524360a08a015260009283526005808652978320805460018181018355918552959093208951959098029097018054955194909a166001600160e01b031990951694909417600160401b93831693909302929092178855915190870180546001600160a01b0319169190921617905590519094509092839290919082019061183f908261228b565b5060808201516003820190611854908261228b565b5060a091909101516004909101556001600160401b03828116600090815260066020908152604091829020845181549286015194166001600160e01b031990921691909117600160401b6001600160a01b0394851602178155908301516001820180546001600160a01b0319169190931617909155606082015182919060028201906118e0908261228b565b50608082015160038201906118f5908261228b565b5060a091909101516004909101556040516001600160401b03831681526001600160a01b0386169033907f189a77cbe3dec0697e2a3b90dc61ee5a0271739d521848b871170224328f7a889060200160405180910390a35050505050565b6000546001600160a01b03163314610b175760405163118cdaa760e01b8152336004820152602401610a8a565b600080546001600160a01b038381166001600160a01b0319831681178455604051919092169283917f8be0079c531659141344cd1fd0a4f28419497f9722a3daafe3b4186f6b6457e09190a35050565b60016000908152600860208190527fad67d757c34507f157cacfa2e3153e9f260a2244f30428821be7be64587ac55f546001600160401b031690829081856007811115611a1f57611a1f611e2b565b6007811115611a3057611a30611e2b565b815260208101919091526040016000908120546001600160401b03169150600a81866007811115611a6357611a63611e2b565b6007811115611a7457611a74611e2b565b815260208082019290925260409081016000908120825160a081018452905460ff80821680845261010083048216151596840196909652620100008204811615159483019490945263ffffffff63010000008204166060830152600160381b900490921615156080830152909250819003611af55750600195945050505050565b60056001600160401b0384161015611b135750600195945050505050565b816020015115611b4957611b2a60ff821685612349565b6001600160401b0316836001600160401b031610945050505050919050565b611b5660ff821685612372565b6001600160401b0316836001600160401b03161115945050505050919050565b6000600a6000836007811115611b8e57611b8e611e2b565b6007811115611b9f57611b9f611e2b565b815260208101919091526040016000205462010000900460ff16611bc557506001610e44565b6001600160a01b0383811660009081526007602081815260408084208151608081018352815487168152600182015496871693810193909352939491939290840191600160a01b900460ff1690811115611c2157611c21611e2b565b6007811115611c3257611c32611e2b565b8152602001600282015481525050905060008160600151118015611c7b5750826007811115611c6357611c63611e2b565b81604001516007811115611c7957611c79611e2b565b145b949350505050565b80356001600160a01b0381168114611c9a57600080fd5b919050565b60008060408385031215611cb257600080fd5b611cbb83611c83565b9150611cc960208401611c83565b90509250929050565b600060208284031215611ce457600080fd5b610e4182611c83565b6000815180845260005b81811015611d1357602081850181015186830182015201611cf7565b506000602082860101526020601f19601f83011685010191505092915050565b6000602082016020835280845180835260408501915060408160051b86010192506020860160005b82811015611df557603f1987860301845281516001600160401b03815116865260018060a01b03602082015116602087015260018060a01b036040820151166040870152606081015160c06060880152611db860c0880182611ced565b905060808201518782036080890152611dd18282611ced565b60a09384015198909301979097525094506020938401939190910190600101611d5b565b50929695505050505050565b803560088110611c9a57600080fd5b600060208284031215611e2257600080fd5b610e4182611e01565b634e487b7160e01b600052602160045260246000fd5b60088110611e5f57634e487b7160e01b600052602160045260246000fd5b9052565b81516001600160a01b039081168252602080840151909116908201526040808301516080830191611e9690840182611e41565b50606092830151919092015290565b6001600160a01b0385811682528416602082015260808101611eca6040830185611e41565b82606083015295945050505050565b600060208284031215611eeb57600080fd5b5035919050565b6001600160401b03871681526001600160a01b0386811660208301528516604082015260c060608201819052600090611f2d90830186611ced565b8281036080840152611f3f8186611ced565b9150508260a0830152979650505050505050565b60208101610e448284611e41565b600080600060608486031215611f7657600080fd5b611f7f84611c83565b9250611f8d60208501611c83565b9150611f9b60408501611e01565b90509250925092565b60008060408385031215611fb757600080fd5b611cbb83611e01565b60008060408385031215611fd357600080fd5b611fdc83611c83565b9150611cc960208401611e01565b634e487b7160e01b600052604160045260246000fd5b600082601f83011261201157600080fd5b81356001600160401b0381111561202a5761202a611fea565b604051601f8201601f19908116603f011681016001600160401b038111828210171561205857612058611fea565b60405281815283820160200185101561207057600080fd5b816020850160208301376000918101602001919091529392505050565b6000806000606084860312156120a257600080fd5b6120ab84611c83565b925060208401356001600160401b038111156120c657600080fd5b6120d286828701612000565b92505060408401356001600160401b038111156120ee57600080fd5b6120fa86828701612000565b9150509250925092565b600181811c9082168061211857607f821691505b60208210810361213857634e487b7160e01b600052602260045260246000fd5b50919050565b6020808252601290820152712737ba1030b63637bbb2b21031b0b63632b960711b604082015260600190565b6020808252601e908201527f43616c6c6572206d7573742062652073797374656d20636f6e74726163740000604082015260600190565b634e487b7160e01b600052601160045260246000fd5b600061ffff821661ffff81036121cf576121cf6121a1565b60010192915050565b6001600160401b038181168382160190811115610e4457610e446121a1565b60006001600160401b0382166001600160401b0381036121cf576121cf6121a1565b60006001600160401b03821680612232576122326121a1565b6000190192915050565b601f82111561228657806000526020600020601f840160051c810160208510156122635750805b601f840160051c820191505b81811015612283576000815560010161226f565b50505b505050565b81516001600160401b038111156122a4576122a4611fea565b6122b8816122b28454612104565b8461223c565b6020601f8211600181146122ec57600083156122d45750848201515b600019600385901b1c1916600184901b178455612283565b600084815260208120601f198516915b8281101561231c57878501518255602094850194600190920191016122fc565b508482101561233a5786840151600019600387901b60f8161c191681555b50505050600190811b01905550565b6001600160401b03818116838216029081169081811461236b5761236b6121a1565b5092915050565b60006001600160401b0383168061239957634e487b7160e01b600052601260045260246000fd5b806001600160401b038416049150509291505056fea2646970667358221220f92f2449b6dfa36fb3f1829b2fa8e6204994871780a816b222ad36f788c6fb4664736f6c634300081b0033",
  "linkReferences": {},
  "deployedLinkReferences": {}
}