{
  "_format": "hh-sol-artifact-1",
  "contractName": "CommunityRules",
  "sourceName": "contracts/CommunityRules.sol",
  "abi": [
    {
      "inputs": [
        {
          "internalType": "uint8",
          "name": "inspectorProportionality",
          "type": "uint8"
        },
        {
          "internalType": "uint8",
          "name": "activistProportionality",
          "type": "uint8"
        },
        {
          "internalType": "uint8",
          "name": "researcherProportionality",
          "type": "uint8"
        },
        {
          "internalType": "uint8",
          "name": "developerProportionality",
          "type": "uint8"
        },
        {
          "internalType": "uint8",
          "name": "contributorProportionality",
          "type": "uint8"
        }
      ],
      "stateMutability": "nonpayable",
      "type": "constructor"
    },
    {
      "inputs": [
        {
          "internalType": "address",
          "name": "owner",
          "type": "address"
        }
      ],
      "name": "OwnableInvalidOwner",
      "type": "error"
    },
    {
      "inputs": [
        {
          "internalType": "address",
          "name": "account",
          "type": "address"
        }
      ],
      "name": "OwnableUnauthorizedAccount",
      "type": "error"
    },
    {
      "anonymous": false,
      "inputs": [
        {
          "indexed": true,
          "internalType": "address",
          "name": "informer",
          "type": "address"
        },
        {
          "indexed": true,
          "internalType": "address",
          "name": "reported",
          "type": "address"
        },
        {
          "indexed": false,
          "internalType": "uint64",
          "name": "newDelationId",
          "type": "uint64"
        }
      ],
      "name": "DelationAdded",
      "type": "event"
    },
    {
      "anonymous": false,
      "inputs": [
        {
          "indexed": true,
          "internalType": "uint64",
          "name": "delationId",
          "type": "uint64"
        },
        {
          "indexed": true,
          "internalType": "address",
          "name": "voter",
          "type": "address"
        },
        {
          "indexed": false,
          "internalType": "bool",
          "name": "supportsDelation",
          "type": "bool"
        },
        {
          "indexed": false,
          "internalType": "uint256",
          "name": "newThumbsUpCount",
          "type": "uint256"
        },
        {
          "indexed": false,
          "internalType": "uint256",
          "name": "newThumbsDownCount",
          "type": "uint256"
        }
      ],
      "name": "DelationVoted",
      "type": "event"
    },
    {
      "anonymous": false,
      "inputs": [
        {
          "indexed": true,
          "internalType": "address",
          "name": "addr",
          "type": "address"
        }
      ],
      "name": "DeniedUserEvent",
      "type": "event"
    },
    {
      "anonymous": false,
      "inputs": [
        {
          "indexed": true,
          "internalType": "address",
          "name": "inviter",
          "type": "address"
        },
        {
          "indexed": true,
          "internalType": "address",
          "name": "invited",
          "type": "address"
        },
        {
          "indexed": false,
          "internalType": "enum CommunityTypes.UserType",
          "name": "userTypeTo",
          "type": "uint8"
        }
      ],
      "name": "InvitationAdded",
      "type": "event"
    },
    {
      "anonymous": false,
      "inputs": [
        {
          "indexed": true,
          "internalType": "address",
          "name": "previousOwner",
          "type": "address"
        },
        {
          "indexed": true,
          "internalType": "address",
          "name": "newOwner",
          "type": "address"
        }
      ],
      "name": "OwnershipTransferred",
      "type": "event"
    },
    {
      "anonymous": false,
      "inputs": [
        {
          "indexed": true,
          "internalType": "address",
          "name": "addr",
          "type": "address"
        },
        {
          "indexed": false,
          "internalType": "enum CommunityTypes.UserType",
          "name": "userType",
          "type": "uint8"
        }
      ],
      "name": "UserRegistered",
      "type": "event"
    },
    {
      "inputs": [],
      "name": "SUPPORTER_INVITATION_DELAY_BLOCKS",
      "outputs": [
        {
          "internalType": "uint32",
          "name": "",
          "type": "uint32"
        }
      ],
      "stateMutability": "view",
      "type": "function"
    },
    {
      "inputs": [],
      "name": "VOTER_INVITATION_DELAY_BLOCKS",
      "outputs": [
        {
          "internalType": "uint32",
          "name": "",
          "type": "uint32"
        }
      ],
      "stateMutability": "view",
      "type": "function"
    },
    {
      "inputs": [
        {
          "internalType": "address",
          "name": "addr",
          "type": "address"
        },
        {
          "internalType": "string",
          "name": "title",
          "type": "string"
        },
        {
          "internalType": "string",
          "name": "testimony",
          "type": "string"
        }
      ],
      "name": "addDelation",
      "outputs": [],
      "stateMutability": "nonpayable",
      "type": "function"
    },
    {
      "inputs": [
        {
          "internalType": "address",
          "name": "inviter",
          "type": "address"
        },
        {
          "internalType": "address",
          "name": "invited",
          "type": "address"
        },
        {
          "internalType": "enum CommunityTypes.UserType",
          "name": "userType",
          "type": "uint8"
        }
      ],
      "name": "addInvitation",
      "outputs": [],
      "stateMutability": "nonpayable",
      "type": "function"
    },
    {
      "inputs": [
        {
          "internalType": "address",
          "name": "inviter",
          "type": "address"
        }
      ],
      "name": "addInviterPenalty",
      "outputs": [],
      "stateMutability": "nonpayable",
      "type": "function"
    },
    {
      "inputs": [
        {
          "internalType": "address",
          "name": "addr",
          "type": "address"
        },
        {
          "internalType": "enum CommunityTypes.UserType",
          "name": "userType",
          "type": "uint8"
        }
      ],
      "name": "addUser",
      "outputs": [],
      "stateMutability": "nonpayable",
      "type": "function"
    },
    {
      "inputs": [
        {
          "internalType": "address",
          "name": "",
          "type": "address"
        }
      ],
      "name": "allowedCallers",
      "outputs": [
        {
          "internalType": "bool",
          "name": "",
          "type": "bool"
        }
      ],
      "stateMutability": "view",
      "type": "function"
    },
    {
      "inputs": [
        {
          "internalType": "uint256",
          "name": "",
          "type": "uint256"
        }
      ],
      "name": "delationsById",
      "outputs": [
        {
          "internalType": "uint64",
          "name": "id",
          "type": "uint64"
        },
        {
          "internalType": "address",
          "name": "informer",
          "type": "address"
        },
        {
          "internalType": "address",
          "name": "reported",
          "type": "address"
        },
        {
          "internalType": "string",
          "name": "title",
          "type": "string"
        },
        {
          "internalType": "string",
          "name": "testimony",
          "type": "string"
        },
        {
          "internalType": "uint256",
          "name": "createdAtBlock",
          "type": "uint256"
        },
        {
          "internalType": "uint256",
          "name": "thumbsUp",
          "type": "uint256"
        },
        {
          "internalType": "uint256",
          "name": "thumbsDown",
          "type": "uint256"
        }
      ],
      "stateMutability": "view",
      "type": "function"
    },
    {
      "inputs": [],
      "name": "delationsCount",
      "outputs": [
        {
          "internalType": "uint64",
          "name": "",
          "type": "uint64"
        }
      ],
      "stateMutability": "view",
      "type": "function"
    },
    {
      "inputs": [
        {
          "internalType": "address",
          "name": "addr",
          "type": "address"
        }
      ],
      "name": "getInvitation",
      "outputs": [
        {
          "components": [
            {
              "internalType": "address",
              "name": "invited",
              "type": "address"
            },
            {
              "internalType": "address",
              "name": "inviter",
              "type": "address"
            },
            {
              "internalType": "enum CommunityTypes.UserType",
              "name": "userType",
              "type": "uint8"
            },
            {
              "internalType": "uint256",
              "name": "createdAtBlock",
              "type": "uint256"
            }
          ],
          "internalType": "struct CommunityTypes.Invitation",
          "name": "",
          "type": "tuple"
        }
      ],
      "stateMutability": "view",
      "type": "function"
    },
    {
      "inputs": [
        {
          "internalType": "address",
          "name": "addr",
          "type": "address"
        }
      ],
      "name": "getUser",
      "outputs": [
        {
          "internalType": "enum CommunityTypes.UserType",
          "name": "",
          "type": "uint8"
        }
      ],
      "stateMutability": "view",
      "type": "function"
    },
    {
      "inputs": [
        {
          "internalType": "address",
          "name": "_user",
          "type": "address"
        }
      ],
      "name": "getUserDelations",
      "outputs": [
        {
          "internalType": "uint64[]",
          "name": "",
          "type": "uint64[]"
        }
      ],
      "stateMutability": "view",
      "type": "function"
    },
    {
      "inputs": [
        {
          "internalType": "enum CommunityTypes.UserType",
          "name": "userType",
          "type": "uint8"
        }
      ],
      "name": "getUserTypeSettings",
      "outputs": [
        {
          "components": [
            {
              "internalType": "uint8",
              "name": "proportionalityOnRegister",
              "type": "uint8"
            },
            {
              "internalType": "bool",
              "name": "directProportionalityRegistration",
              "type": "bool"
            },
            {
              "internalType": "bool",
              "name": "needInvitationOnRegister",
              "type": "bool"
            },
            {
              "internalType": "uint32",
              "name": "invitationDelayBlocks",
              "type": "uint32"
            },
            {
              "internalType": "bool",
              "name": "isVoter",
              "type": "bool"
            }
          ],
          "internalType": "struct CommunityTypes.UserTypeSetting",
          "name": "",
          "type": "tuple"
        }
      ],
      "stateMutability": "view",
      "type": "function"
    },
    {
      "inputs": [
        {
          "internalType": "address",
          "name": "addr",
          "type": "address"
        }
      ],
      "name": "hasWaitedRequiredTime",
      "outputs": [
        {
          "internalType": "bool",
          "name": "",
          "type": "bool"
        }
      ],
      "stateMutability": "view",
      "type": "function"
    },
    {
      "inputs": [
        {
          "internalType": "address",
          "name": "",
          "type": "address"
        }
      ],
      "name": "invitations",
      "outputs": [
        {
          "internalType": "address",
          "name": "invited",
          "type": "address"
        },
        {
          "internalType": "address",
          "name": "inviter",
          "type": "address"
        },
        {
          "internalType": "enum CommunityTypes.UserType",
          "name": "userType",
          "type": "uint8"
        },
        {
          "internalType": "uint256",
          "name": "createdAtBlock",
          "type": "uint256"
        }
      ],
      "stateMutability": "view",
      "type": "function"
    },
    {
      "inputs": [
        {
          "internalType": "address",
          "name": "",
          "type": "address"
        }
      ],
      "name": "inviterPenalties",
      "outputs": [
        {
          "internalType": "uint16",
          "name": "",
          "type": "uint16"
        }
      ],
      "stateMutability": "view",
      "type": "function"
    },
    {
      "inputs": [
        {
          "internalType": "address",
          "name": "caller",
          "type": "address"
        }
      ],
      "name": "isAllowedCaller",
      "outputs": [
        {
          "internalType": "bool",
          "name": "",
          "type": "bool"
        }
      ],
      "stateMutability": "view",
      "type": "function"
    },
    {
      "inputs": [
        {
          "internalType": "address",
          "name": "userAddress",
          "type": "address"
        }
      ],
      "name": "isDenied",
      "outputs": [
        {
          "internalType": "bool",
          "name": "",
          "type": "bool"
        }
      ],
      "stateMutability": "view",
      "type": "function"
    },
    {
      "inputs": [
        {
          "internalType": "address",
          "name": "addr",
          "type": "address"
        }
      ],
      "name": "isVoter",
      "outputs": [
        {
          "internalType": "bool",
          "name": "",
          "type": "bool"
        }
      ],
      "stateMutability": "view",
      "type": "function"
    },
    {
      "inputs": [
        {
          "internalType": "address",
          "name": "",
          "type": "address"
        }
      ],
      "name": "lastDelationBlock",
      "outputs": [
        {
          "internalType": "uint256",
          "name": "",
          "type": "uint256"
        }
      ],
      "stateMutability": "view",
      "type": "function"
    },
    {
      "inputs": [
        {
          "internalType": "address",
          "name": "allowed",
          "type": "address"
        }
      ],
      "name": "newAllowedCaller",
      "outputs": [],
      "stateMutability": "nonpayable",
      "type": "function"
    },
    {
      "inputs": [],
      "name": "owner",
      "outputs": [
        {
          "internalType": "address",
          "name": "",
          "type": "address"
        }
      ],
      "stateMutability": "view",
      "type": "function"
    },
    {
      "inputs": [],
      "name": "renounceOwnership",
      "outputs": [],
      "stateMutability": "nonpayable",
      "type": "function"
    },
    {
      "inputs": [
        {
          "internalType": "address",
          "name": "_invitationRulesAddress",
          "type": "address"
        },
        {
          "internalType": "address",
          "name": "_validationRulesAddress",
          "type": "address"
        }
      ],
      "name": "setContractCall",
      "outputs": [],
      "stateMutability": "nonpayable",
      "type": "function"
    },
    {
      "inputs": [
        {
          "internalType": "address",
          "name": "userAddress",
          "type": "address"
        }
      ],
      "name": "setToDenied",
      "outputs": [],
      "stateMutability": "nonpayable",
      "type": "function"
    },
    {
      "inputs": [
        {
          "internalType": "address",
          "name": "newOwner",
          "type": "address"
        }
      ],
      "name": "transferOwnership",
      "outputs": [],
      "stateMutability": "nonpayable",
      "type": "function"
    },
    {
      "inputs": [
        {
          "internalType": "enum CommunityTypes.UserType",
          "name": "userType",
          "type": "uint8"
        },
        {
          "internalType": "address",
          "name": "userAddress",
          "type": "address"
        }
      ],
      "name": "userTypeIs",
      "outputs": [
        {
          "internalType": "bool",
          "name": "",
          "type": "bool"
        }
      ],
      "stateMutability": "view",
      "type": "function"
    },
    {
      "inputs": [
        {
          "internalType": "enum CommunityTypes.UserType",
          "name": "",
          "type": "uint8"
        }
      ],
      "name": "userTypeSettings",
      "outputs": [
        {
          "internalType": "uint8",
          "name": "proportionalityOnRegister",
          "type": "uint8"
        },
        {
          "internalType": "bool",
          "name": "directProportionalityRegistration",
          "type": "bool"
        },
        {
          "internalType": "bool",
          "name": "needInvitationOnRegister",
          "type": "bool"
        },
        {
          "internalType": "uint32",
          "name": "invitationDelayBlocks",
          "type": "uint32"
        },
        {
          "internalType": "bool",
          "name": "isVoter",
          "type": "bool"
        }
      ],
      "stateMutability": "view",
      "type": "function"
    },
    {
      "inputs": [
        {
          "internalType": "enum CommunityTypes.UserType",
          "name": "",
          "type": "uint8"
        }
      ],
      "name": "userTypesCount",
      "outputs": [
        {
          "internalType": "uint64",
          "name": "",
          "type": "uint64"
        }
      ],
      "stateMutability": "view",
      "type": "function"
    },
    {
      "inputs": [
        {
          "internalType": "enum CommunityTypes.UserType",
          "name": "",
          "type": "uint8"
        }
      ],
      "name": "userTypesTotalCount",
      "outputs": [
        {
          "internalType": "uint64",
          "name": "",
          "type": "uint64"
        }
      ],
      "stateMutability": "view",
      "type": "function"
    },
    {
      "inputs": [],
      "name": "usersCount",
      "outputs": [
        {
          "internalType": "uint64",
          "name": "",
          "type": "uint64"
        }
      ],
      "stateMutability": "view",
      "type": "function"
    },
    {
      "inputs": [
        {
          "internalType": "uint64",
          "name": "_delationId",
          "type": "uint64"
        },
        {
          "internalType": "bool",
          "name": "_supportsDelation",
          "type": "bool"
        }
      ],
      "name": "voteOnDelation",
      "outputs": [],
      "stateMutability": "nonpayable",
      "type": "function"
    },
    {
      "inputs": [],
      "name": "votersCount",
      "outputs": [
        {
          "internalType": "uint256",
          "name": "",
          "type": "uint256"
        }
      ],
      "stateMutability": "view",
      "type": "function"
    }
  ],
  "bytecode": "0x608060405234801561001057600080fd5b50604051612f9d380380612f9d83398101604081905261002f91610689565b338061005557604051631e4fbdf760e01b81526000600482015260240160405180910390fd5b61005e81610623565b506040805160a080820183526000808352602080840182815284860183815260966060808801918252608080890187815260078852600b80885299517ff5559028dc9ba50d75343c779b2f75e13a84a14662932fc67a486f263ca31a968054975196519551925115156701000000000000000260ff60381b1963ffffffff90941663010000000266ffffffff0000001997151562010000029790971666ffffffffff0000199815156101000261ffff19909a1660ff909416939093179890981796909616179390931792909216939093179091558651948501875283855291840183905260019584018690528301829052820181905290928152602080820192909252604090810160009081208451815486860151878601516060808a015160809a8b015115156701000000000000000260ff60381b1963ffffffff90921663010000000266ffffffff0000001994151562010000029490941666ffffffffff0000199515156101000261ffff1990971660ff98891617969096179490941694909417919091179290921617909255835160a081018552908b168152600194810185905292830193909352918101829052918201819052600b906002600781111561022b5761022b6106ee565b8152602080820192909252604090810160009081208451815486860151878601516060808a015160809a8b015115156701000000000000000260ff60381b1963ffffffff90921663010000000266ffffffff0000001994151562010000029490941666ffffffffff0000199515156101000261ffff1990971660ff98891617969096179490941694909417919091179290921617909255835160a081018552908a168152938401829052600192840192909252620186a09183019190915291810182905290600b9060066007811115610306576103066106ee565b8152602080820192909252604090810160009081208451815486860151878601516060808a015160809a8b015115156701000000000000000260ff60381b1963ffffffff90921663010000000266ffffffff0000001994151562010000029490941666ffffffffff0000199515156101000261ffff1990971660ff98891617969096179490941694909417919091179290921617909255835160a08101855290891681529384018290526001928401839052620186a0908401529282015290600b90600360078111156103db576103db6106ee565b8152602080820192909252604090810160009081208451815486860151878601516060808a015160809a8b015115156701000000000000000260ff60381b1963ffffffff90921663010000000266ffffffff0000001994151562010000029490941666ffffffffff0000199515156101000261ffff1990971660ff98891617969096179490941694909417919091179290921617909255835160a08101855290881681529384018290526001928401839052620186a0908401529282015290600b90600460078111156104b0576104b06106ee565b8152602080820192909252604090810160009081208451815486860151878601516060808a015160809a8b015115156701000000000000000260ff60381b1963ffffffff90921663010000000266ffffffff0000001994151562010000029490941666ffffffffff0000199515156101000261ffff1990971660ff98891617969096179490941694909417919091179290921617909255835160a08101855290871681529384018290526001928401839052620186a0908401529282015290600b9060056007811115610585576105856106ee565b81526020808201929092526040908101600020835181549385015192850151606086015160809096015115156701000000000000000260ff60381b1963ffffffff90971663010000000266ffffffff0000001992151562010000029290921666ffffffffff0000199515156101000261ffff1990971660ff909416939093179590951793909316179190911792909216179055506107049350505050565b600080546001600160a01b038381166001600160a01b0319831681178455604051919092169283917f8be0079c531659141344cd1fd0a4f28419497f9722a3daafe3b4186f6b6457e09190a35050565b805160ff8116811461068457600080fd5b919050565b600080600080600060a086880312156106a157600080fd5b6106aa86610673565b94506106b860208701610673565b93506106c660408701610673565b92506106d460608701610673565b91506106e260808701610673565b90509295509295909350565b634e487b7160e01b600052602160045260246000fd5b61288a806107136000396000f3fe608060405234801561001057600080fd5b50600436106101fb5760003560e01c80637b3341541161011a57806398c07938116100ad578063a7771ee31161007c578063a7771ee31461063b578063deffb9061461064e578063e838dfbb14610658578063f2fde38b14610684578063ff7890951461069757600080fd5b806398c07938146105d75780639c3eead9146105df578063a1dcdb22146105f2578063a68012581461060f57600080fd5b806392220142116100e9578063922201421461053a5780639497c6081461054d5780639547f95314610560578063959ef1d2146105c457600080fd5b80637b334154146104d65780637ccfdba7146104f95780638da5cb5b1461050c5780638f93716f1461052757600080fd5b806340e972d0116101925780636101bf21116101615780636101bf21146104685780636ba13a821461047b5780636f77926b14610495578063715018a6146104ce57600080fd5b806340e972d0146103b457806358f43f76146103c75780635b0abfb11461041e5780635b2b62a11461044157600080fd5b80632115c634116101ce5780632115c634146103065780632b17b8be1461033d5780632f22dc7b1461035d578063306cda551461038657600080fd5b806304521ca314610200578063064505ad146102155780630ed4ea5e1461023e5780631eb2c120146102c5575b600080fd5b61021361020e36600461217a565b6106aa565b005b6102286102233660046121ad565b6106e0565b60405161023591906121c8565b60405180910390f35b61028c61024c366004612223565b600b6020526000908152604090205460ff80821691610100810482169162010000820481169163ffffffff630100000082041691600160381b9091041685565b6040805160ff909616865293151560208601529115159284019290925263ffffffff90911660608301521515608082015260a001610235565b6102ee6102d3366004612223565b600a602052600090815260409020546001600160401b031681565b6040516001600160401b039091168152602001610235565b61032a6103143660046121ad565b600c6020526000908152604090205461ffff1681565b60405161ffff9091168152602001610235565b61035061034b3660046121ad565b61077e565b6040516102359190612276565b6102ee61036b366004612223565b6009602052600090815260409020546001600160401b031681565b6103a66103943660046121ad565b600d6020526000908152604090205481565b604051908152602001610235565b6102136103c23660046122b8565b61081d565b61040e6103d53660046121ad565b6008602052600090815260409020805460018201546002909201546001600160a01b039182169291821691600160a01b900460ff169084565b6040516102359493929190612302565b61043161042c3660046121ad565b610b94565b6040519015158152602001610235565b61045461044f366004612336565b610be3565b604051610235989796959493929190612395565b6102136104763660046121ad565b610d4e565b6002546102ee90600160401b90046001600160401b031681565b6104c16104a33660046121ad565b6001600160a01b031660009081526003602052604090205460ff1690565b6040516102359190612404565b610213610dc3565b6104316104e43660046121ad565b60016020526000908152604090205460ff1681565b610213610507366004612412565b610dd7565b6000546040516001600160a01b039091168152602001610235565b6102136105353660046121ad565b6110f8565b6002546102ee906001600160401b031681565b61043161055b366004612455565b611127565b61057361056e366004612223565b611195565b6040516102359190600060a08201905060ff835116825260208301511515602083015260408301511515604083015263ffffffff606084015116606083015260808301511515608083015292915050565b6102136105d23660046121ad565b611256565b6103a661137e565b6102136105ed366004612471565b611453565b6105fa609681565b60405163ffffffff9091168152602001610235565b61043161061d3660046121ad565b6001600160a01b031660009081526001602052604090205460ff1690565b6104316106493660046121ad565b611853565b6105fa620186a081565b6104316106663660046121ad565b6001600160a01b031660009081526004602052604090205460ff1690565b6102136106923660046121ad565b6118ab565b6102136106a536600461253e565b6118e6565b6106b2611e2d565b600f80546001600160a01b039384166001600160a01b03199182161790915560108054929093169116179055565b6001600160a01b03811660009081526005602090815260409182902080548351818402810184019094528084526060939283018282801561077257602002820191906000526020600020906000905b82829054906101000a90046001600160401b03166001600160401b03168152602001906008019060208260070104928301926001038202915080841161072f5790505b50505050509050919050565b604080516080808201835260008083526020808401829052838501829052606084018290526001600160a01b0386811683526008825291859020855193840186528054831684526001810154928316918401919091529293919291830190600160a01b900460ff1660078111156107f7576107f761223e565b60078111156108085761080861223e565b81526020016002820154815250509050919050565b6001600160401b0380831660009081526006602052604081208054909216900361088e5760405162461bcd60e51b815260206004820152601760248201527f44656c6174696f6e20646f6573206e6f7420657869737400000000000000000060448201526064015b60405180910390fd5b3360009081526003602052604081205460ff1660078111156108b2576108b261223e565b036108fb5760405162461bcd60e51b815260206004820152601960248201527810d85b1b195c881b5d5cdd081899481c9959da5cdd195c9959603a1b6044820152606401610885565b60073360009081526003602052604090205460ff1660078111156109215761092161223e565b0361096a5760405162461bcd60e51b81526020600482015260196024820152784e6f7420616c6c6f77656420746f20737570706f727465727360381b6044820152606401610885565b3360009081526004602052604090205460ff16156109b85760405162461bcd60e51b815260206004820152600b60248201526a155cd95c8819195b9a595960aa1b6044820152606401610885565b8054600160401b90046001600160a01b03163303610a0f5760405162461bcd60e51b8152602060048201526014602482015273496e666f726d65722063616e6e6f7420766f746560601b6044820152606401610885565b60018101546001600160a01b03163303610a6b5760405162461bcd60e51b815260206004820152601960248201527f5265706f7274656420757365722063616e6e6f7420766f7465000000000000006044820152606401610885565b6001600160401b038316600090815260076020908152604080832033845290915290205460ff1615610acf5760405162461bcd60e51b815260206004820152600d60248201526c105b1c9958591e481d9bdd1959609a1b6044820152606401610885565b6001600160401b03831660009081526007602090815260408083203384529091529020805460ff191660011790558115610b1f57600581018054906000610b15836125cb565b9190505550610b37565b600681018054906000610b31836125cb565b91905055505b60058101546006820154604080518515158152602081019390935282015233906001600160401b038516907f07c734e1752c9260d550c708685673ab3cf5d1a0755d9a68ce3f43fd69d3eb249060600160405180910390a3505050565b6001600160a01b0381166000908152600d60205260408120541580610bdd57506001600160a01b0382166000908152600d6020526040902054610bda906101f4906125e4565b43115b92915050565b6006602052600090815260409020805460018201546002830180546001600160401b03841694600160401b9094046001600160a01b03908116949316929190610c2b906125f7565b80601f0160208091040260200160405190810160405280929190818152602001828054610c57906125f7565b8015610ca45780601f10610c7957610100808354040283529160200191610ca4565b820191906000526020600020905b815481529060010190602001808311610c8757829003601f168201915b505050505090806003018054610cb9906125f7565b80601f0160208091040260200160405190810160405280929190818152602001828054610ce5906125f7565b8015610d325780601f10610d0757610100808354040283529160200191610d32565b820191906000526020600020905b815481529060010190602001808311610d1557829003601f168201915b5050505050908060040154908060050154908060060154905088565b3360009081526001602052604090205460ff16610d7d5760405162461bcd60e51b815260040161088590612631565b6001600160a01b0381166000908152600c60205260408120805461ffff1691610da58361265d565b91906101000a81548161ffff021916908361ffff1602179055505050565b610dcb611e2d565b610dd56000611e5a565b565b3360009081526001602052604090205460ff16610e065760405162461bcd60e51b815260040161088590612631565b600f546001600160a01b0316338114610e615760405162461bcd60e51b815260206004820152601e60248201527f43616c6c6572206d7573742062652073797374656d20636f6e747261637400006044820152606401610885565b6001600160a01b038316610eb75760405162461bcd60e51b815260206004820152601e60248201527f496e766974656420616464726573732063616e6e6f74206265207a65726f00006044820152606401610885565b6001600160a01b038381166000908152600860205260409020541615610f115760405162461bcd60e51b815260206004820152600f60248201526e105b1c9958591e481a5b9d9a5d1959608a1b6044820152606401610885565b6001600160a01b03831660009081526003602052604081205460ff166007811115610f3e57610f3e61223e565b14610f805760405162461bcd60e51b8152602060048201526012602482015271105b1c9958591e481c9959da5cdd195c995960721b6044820152606401610885565b6000826007811115610f9457610f9461223e565b03610fe15760405162461bcd60e51b815260206004820181905260248201527f496e76616c69642075736572207479706520666f7220696e7669746174696f6e6044820152606401610885565b6040518060800160405280846001600160a01b03168152602001856001600160a01b0316815260200183600781111561101c5761101c61223e565b8152436020918201526001600160a01b03808616600090815260088352604090819020845181549084166001600160a01b03199182161782559385015160018201805491909416948116851784559185015190939092916001600160a81b03191617600160a01b8360078111156110955761109561223e565b021790555060608201518160020155905050826001600160a01b0316846001600160a01b03167f3aed71ce4143148a406a002376059e9cb31ad2e3c9b2a431fc106d4be03f2047846040516110ea9190612404565b60405180910390a350505050565b611100611e2d565b6001600160a01b03166000908152600160208190526040909120805460ff19169091179055565b600082600781111561113b5761113b61223e565b6001600160a01b03831660009081526003602052604090205460ff1660078111156111685761116861223e565b14801561118e57506001600160a01b03821660009081526004602052604090205460ff16155b9392505050565b6040805160a081018252600080825260208201819052918101829052606081018290526080810191909152600b60008360078111156111d6576111d661223e565b60078111156111e7576111e761223e565b81526020808201929092526040908101600020815160a081018352905460ff808216835261010082048116151594830194909452620100008104841615159282019290925263ffffffff63010000008304166060820152600160381b9091049091161515608082015292915050565b3360009081526001602052604090205460ff166112855760405162461bcd60e51b815260040161088590612631565b6001600160a01b03811660009081526004602052604090205460ff1661137b576001600160a01b0381166000908152600360205260408120546009919060ff1660078111156112d6576112d661223e565b60078111156112e7576112e761223e565b81526020810191909152604001600090812080546001600160401b03169161130e8361267e565b82546001600160401b039182166101009390930a9283029190920219909116179055506001600160a01b038116600081815260046020526040808220805460ff19166001179055517f4e283ac74dcfce6ff8dd078cc60000ae1deac4f6ae889f87268c6ed2fd0404d89190a25b50565b60096020527fc575c31fea594a6eb97c8e9d3f9caee4c16218c6ef37e923234c0fe9014a61e7547f8dc18c4ccfd75f5c815b63770fa542fd953e8fef7e0e44bbdd4913470ce7e9cb547f74b05292d1d4b2b48b65261b07099d24244bcb069f138d9a6bfdcf776becac4c54600660009081527fbb6daa0c283751197dfdc76590680f9005e97d6f23870deb1164ab60b28b9f5f5490936001600160401b03908116938116926114319290821691166126a1565b61143b91906126a1565b61144591906126a1565b6001600160401b0316905090565b3360009081526001602052604090205460ff166114825760405162461bcd60e51b815260040161088590612631565b6001600160a01b0382166114d85760405162461bcd60e51b815260206004820152601b60248201527f5573657220616464726573732063616e6e6f74206265207a65726f00000000006044820152606401610885565b6001600160a01b03821660009081526003602052604081205460ff1660078111156115055761150561223e565b146115485760405162461bcd60e51b81526020600482015260136024820152725573657220616c72656164792065786973747360681b6044820152606401610885565b600081600781111561155c5761155c61223e565b0361159d5760405162461bcd60e51b8152602060048201526011602482015270496e76616c69642075736572207479706560781b6044820152606401610885565b6115a681611eaa565b6115f25760405162461bcd60e51b815260206004820152601760248201527f50726f706f7274696f6e616c69747920696e76616c69640000000000000000006044820152606401610885565b6115fc8282612050565b61163d5760405162461bcd60e51b815260206004820152601260248201527124b73b30b634b21034b73b34ba30ba34b7b760711b6044820152606401610885565b6001600160a01b03828116600090815260086020908152604080832060010154909316825260049052205460ff16156116a95760405162461bcd60e51b815260206004820152600e60248201526d125b9d9a5d195c8819195b9a595960921b6044820152606401610885565b6001600160a01b0382166000908152600360205260409020805482919060ff191660018360078111156116de576116de61223e565b021790555060028054600160401b90046001600160401b0316906008611703836126c0565b91906101000a8154816001600160401b0302191690836001600160401b03160217905550506009600082600781111561173e5761173e61223e565b600781111561174f5761174f61223e565b81526020810191909152604001600090812080546001600160401b031691611776836126c0565b91906101000a8154816001600160401b0302191690836001600160401b0316021790555050600a60008260078111156117b1576117b161223e565b60078111156117c2576117c261223e565b81526020810191909152604001600090812080546001600160401b0316916117e9836126c0565b91906101000a8154816001600160401b0302191690836001600160401b0316021790555050816001600160a01b03167f8e18574f8a7333e6a87112742a55853a643e2f0550f4e1a3a2c3f1bb2994441d826040516118479190612404565b60405180910390a25050565b6001600160a01b03811660009081526004602052604081205460ff161561187c57506000919050565b6001600160a01b0382166000908152600360205260409020546118a19060ff16611195565b6080015192915050565b6118b3611e2d565b6001600160a01b0381166118dd57604051631e4fbdf760e01b815260006004820152602401610885565b61137b81611e5a565b81516064108015906118fb5750805161012c10155b6119405760405162461bcd60e51b815260206004820152601660248201527513585e0818da185c9858dd195c9cc81c995858da195960521b6044820152606401610885565b3360009081526004602052604090205460ff161561198e5760405162461bcd60e51b815260206004820152600b60248201526a155cd95c8819195b9a595960aa1b6044820152606401610885565b61199733610b94565b6119d75760405162461bcd60e51b8152602060048201526011602482015270576169742064656c617920626c6f636b7360781b6044820152606401610885565b3360009081526003602052604081205460ff1660078111156119fb576119fb61223e565b03611a445760405162461bcd60e51b815260206004820152601960248201527810d85b1b195c881b5d5cdd081899481c9959da5cdd195c9959603a1b6044820152606401610885565b60073360009081526003602052604090205460ff166007811115611a6a57611a6a61223e565b03611ab35760405162461bcd60e51b81526020600482015260196024820152784e6f7420616c6c6f77656420746f20737570706f727465727360381b6044820152606401610885565b6001600160a01b03831660009081526003602052604081205460ff166007811115611ae057611ae061223e565b03611b2d5760405162461bcd60e51b815260206004820152601760248201527f55736572206d75737420626520726567697374657265640000000000000000006044820152606401610885565b6001600160a01b038316611b835760405162461bcd60e51b815260206004820152601a60248201527f43616e6e6f742064656c617465207a65726f20616464726573730000000000006044820152606401610885565b336001600160a01b03841603611bdb5760405162461bcd60e51b815260206004820152601d60248201527f53656c662d64656e756e63696174696f6e206e6f7420616c6c6f7765640000006044820152606401610885565b336000908152600e602090815260408083206001600160a01b038716845290915290205460ff1615611c435760405162461bcd60e51b8152602060048201526011602482015270105b1c9958591e481cdd589b5a5d1d1959607a1b6044820152606401610885565b336000818152600e602090815260408083206001600160a01b03881684528252808320805460ff19166001179055928252600d9052908120439055600280546001600160401b031691611c95836126c0565b825461010092830a6001600160401b03818102199092169282160291909117909255600280546040805180850182529185168083523360208085019182526001600160a01b038c8116868601818152606088018e8152608089018e90524360a08a0152600060c08a0181905260e08a0181905292835260058552878320805460018181018355918552868520600482040180546003909216600802909d0a808f021990911690890217909b5586835260069094529590208651815494519a166001600160e01b031990941693909317600160401b99821699909902989098178255925195810180546001600160a01b03191696909716959095179095555193945092839291820190611da79082612731565b5060808201516003820190611dbc9082612731565b5060a0820151600482015560c0820151600582015560e0909101516006909101556040516001600160401b03831681526001600160a01b0386169033907f189a77cbe3dec0697e2a3b90dc61ee5a0271739d521848b871170224328f7a889060200160405180910390a35050505050565b6000546001600160a01b03163314610dd55760405163118cdaa760e01b8152336004820152602401610885565b600080546001600160a01b038381166001600160a01b0319831681178455604051919092169283917f8be0079c531659141344cd1fd0a4f28419497f9722a3daafe3b4186f6b6457e09190a35050565b60016000908152600960208190527f92e85d02570a8092d09a6e3a57665bc3815a2699a4074001bf1ccabf660f5a36546001600160401b031690829081856007811115611ef957611ef961223e565b6007811115611f0a57611f0a61223e565b815260208101919091526040016000908120546001600160401b03169150600b81866007811115611f3d57611f3d61223e565b6007811115611f4e57611f4e61223e565b815260208082019290925260409081016000908120825160a081018452905460ff80821680845261010083048216151596840196909652620100008204811615159483019490945263ffffffff63010000008204166060830152600160381b900490921615156080830152909250819003611fcf5750600195945050505050565b60056001600160401b0384161015611fed5750600195945050505050565b8160200151156120235761200460ff8216856127ef565b6001600160401b0316836001600160401b031610945050505050919050565b61203060ff821685612818565b6001600160401b0316836001600160401b03161115945050505050919050565b6000600b60008360078111156120685761206861223e565b60078111156120795761207961223e565b815260208101919091526040016000205462010000900460ff1661209f57506001610bdd565b6001600160a01b0383811660009081526008602090815260408083208151608081018352815486168152600182015495861693810193909352929391929190830190600160a01b900460ff1660078111156120fc576120fc61223e565b600781111561210d5761210d61223e565b8152602001600282015481525050905060008160600151118015612156575082600781111561213e5761213e61223e565b816040015160078111156121545761215461223e565b145b949350505050565b80356001600160a01b038116811461217557600080fd5b919050565b6000806040838503121561218d57600080fd5b6121968361215e565b91506121a46020840161215e565b90509250929050565b6000602082840312156121bf57600080fd5b61118e8261215e565b602080825282518282018190526000918401906040840190835b818110156122095783516001600160401b03168352602093840193909201916001016121e2565b509095945050505050565b80356008811061217557600080fd5b60006020828403121561223557600080fd5b61118e82612214565b634e487b7160e01b600052602160045260246000fd5b6008811061227257634e487b7160e01b600052602160045260246000fd5b9052565b81516001600160a01b0390811682526020808401519091169082015260408083015160808301916122a990840182612254565b50606092830151919092015290565b600080604083850312156122cb57600080fd5b82356001600160401b03811681146122e257600080fd5b9150602083013580151581146122f757600080fd5b809150509250929050565b6001600160a01b03858116825284166020820152608081016123276040830185612254565b82606083015295945050505050565b60006020828403121561234857600080fd5b5035919050565b6000815180845260005b8181101561237557602081850181015186830182015201612359565b506000602082860101526020601f19601f83011685010191505092915050565b6001600160401b03891681526001600160a01b03888116602083015287166040820152610100606082018190526000906123d19083018861234f565b82810360808401526123e3818861234f565b60a0840196909652505060c081019290925260e09091015295945050505050565b60208101610bdd8284612254565b60008060006060848603121561242757600080fd5b6124308461215e565b925061243e6020850161215e565b915061244c60408501612214565b90509250925092565b6000806040838503121561246857600080fd5b61219683612214565b6000806040838503121561248457600080fd5b61248d8361215e565b91506121a460208401612214565b634e487b7160e01b600052604160045260246000fd5b600082601f8301126124c257600080fd5b81356001600160401b038111156124db576124db61249b565b604051601f8201601f19908116603f011681016001600160401b03811182821017156125095761250961249b565b60405281815283820160200185101561252157600080fd5b816020850160208301376000918101602001919091529392505050565b60008060006060848603121561255357600080fd5b61255c8461215e565b925060208401356001600160401b0381111561257757600080fd5b612583868287016124b1565b92505060408401356001600160401b0381111561259f57600080fd5b6125ab868287016124b1565b9150509250925092565b634e487b7160e01b600052601160045260246000fd5b6000600182016125dd576125dd6125b5565b5060010190565b80820180821115610bdd57610bdd6125b5565b600181811c9082168061260b57607f821691505b60208210810361262b57634e487b7160e01b600052602260045260246000fd5b50919050565b6020808252601290820152712737ba1030b63637bbb2b21031b0b63632b960711b604082015260600190565b600061ffff821661ffff8103612675576126756125b5565b60010192915050565b60006001600160401b03821680612697576126976125b5565b6000190192915050565b6001600160401b038181168382160190811115610bdd57610bdd6125b5565b60006001600160401b0382166001600160401b038103612675576126756125b5565b601f82111561272c57806000526020600020601f840160051c810160208510156127095750805b601f840160051c820191505b818110156127295760008155600101612715565b50505b505050565b81516001600160401b0381111561274a5761274a61249b565b61275e8161275884546125f7565b846126e2565b6020601f821160018114612792576000831561277a5750848201515b600019600385901b1c1916600184901b178455612729565b600084815260208120601f198516915b828110156127c257878501518255602094850194600190920191016127a2565b50848210156127e05786840151600019600387901b60f8161c191681555b50505050600190811b01905550565b6001600160401b038181168382160290811690818114612811576128116125b5565b5092915050565b60006001600160401b0383168061283f57634e487b7160e01b600052601260045260246000fd5b806001600160401b038416049150509291505056fea26469706673582212208e226fbcf7936a8db5951ce5da35431b66701f5632f01f745e9b142240635e1e64736f6c634300081b0033",
  "linkReferences": {},
  "deployedLinkReferences": {}
}