{
  "_format": "hh-sol-artifact-1",
  "contractName": "CommunityRules",
  "sourceName": "contracts/CommunityRules.sol",
  "abi": [
    {
      "inputs": [
        {
          "internalType": "uint8",
          "name": "inspectorProportionality",
          "type": "uint8"
        },
        {
          "internalType": "uint8",
          "name": "activistProportionality",
          "type": "uint8"
        },
        {
          "internalType": "uint8",
          "name": "researcherProportionality",
          "type": "uint8"
        },
        {
          "internalType": "uint8",
          "name": "developerProportionality",
          "type": "uint8"
        },
        {
          "internalType": "uint8",
          "name": "contributorProportionality",
          "type": "uint8"
        }
      ],
      "stateMutability": "nonpayable",
      "type": "constructor"
    },
    {
      "inputs": [
        {
          "internalType": "address",
          "name": "owner",
          "type": "address"
        }
      ],
      "name": "OwnableInvalidOwner",
      "type": "error"
    },
    {
      "inputs": [
        {
          "internalType": "address",
          "name": "account",
          "type": "address"
        }
      ],
      "name": "OwnableUnauthorizedAccount",
      "type": "error"
    },
    {
      "anonymous": false,
      "inputs": [
        {
          "indexed": true,
          "internalType": "address",
          "name": "informer",
          "type": "address"
        },
        {
          "indexed": true,
          "internalType": "address",
          "name": "reported",
          "type": "address"
        },
        {
          "indexed": false,
          "internalType": "uint64",
          "name": "newDelationId",
          "type": "uint64"
        }
      ],
      "name": "DelationAdded",
      "type": "event"
    },
    {
      "anonymous": false,
      "inputs": [
        {
          "indexed": true,
          "internalType": "address",
          "name": "addr",
          "type": "address"
        }
      ],
      "name": "DeniedUserEvent",
      "type": "event"
    },
    {
      "anonymous": false,
      "inputs": [
        {
          "indexed": true,
          "internalType": "address",
          "name": "inviter",
          "type": "address"
        },
        {
          "indexed": true,
          "internalType": "address",
          "name": "invited",
          "type": "address"
        },
        {
          "indexed": false,
          "internalType": "enum CommunityTypes.UserType",
          "name": "userTypeTo",
          "type": "uint8"
        }
      ],
      "name": "InvitationAdded",
      "type": "event"
    },
    {
      "anonymous": false,
      "inputs": [
        {
          "indexed": true,
          "internalType": "address",
          "name": "previousOwner",
          "type": "address"
        },
        {
          "indexed": true,
          "internalType": "address",
          "name": "newOwner",
          "type": "address"
        }
      ],
      "name": "OwnershipTransferred",
      "type": "event"
    },
    {
      "anonymous": false,
      "inputs": [
        {
          "indexed": true,
          "internalType": "address",
          "name": "addr",
          "type": "address"
        },
        {
          "indexed": false,
          "internalType": "enum CommunityTypes.UserType",
          "name": "userType",
          "type": "uint8"
        }
      ],
      "name": "UserRegistered",
      "type": "event"
    },
    {
      "inputs": [],
      "name": "SUPPORTER_INVITATION_DELAY_BLOCKS",
      "outputs": [
        {
          "internalType": "uint32",
          "name": "",
          "type": "uint32"
        }
      ],
      "stateMutability": "view",
      "type": "function"
    },
    {
      "inputs": [],
      "name": "VOTER_INVITATION_DELAY_BLOCKS",
      "outputs": [
        {
          "internalType": "uint32",
          "name": "",
          "type": "uint32"
        }
      ],
      "stateMutability": "view",
      "type": "function"
    },
    {
      "inputs": [
        {
          "internalType": "address",
          "name": "addr",
          "type": "address"
        },
        {
          "internalType": "string",
          "name": "title",
          "type": "string"
        },
        {
          "internalType": "string",
          "name": "testimony",
          "type": "string"
        }
      ],
      "name": "addDelation",
      "outputs": [],
      "stateMutability": "nonpayable",
      "type": "function"
    },
    {
      "inputs": [
        {
          "internalType": "address",
          "name": "inviter",
          "type": "address"
        },
        {
          "internalType": "address",
          "name": "invited",
          "type": "address"
        },
        {
          "internalType": "enum CommunityTypes.UserType",
          "name": "userType",
          "type": "uint8"
        }
      ],
      "name": "addInvitation",
      "outputs": [],
      "stateMutability": "nonpayable",
      "type": "function"
    },
    {
      "inputs": [
        {
          "internalType": "address",
          "name": "inviter",
          "type": "address"
        }
      ],
      "name": "addInviterPenalty",
      "outputs": [],
      "stateMutability": "nonpayable",
      "type": "function"
    },
    {
      "inputs": [
        {
          "internalType": "address",
          "name": "addr",
          "type": "address"
        },
        {
          "internalType": "enum CommunityTypes.UserType",
          "name": "userType",
          "type": "uint8"
        }
      ],
      "name": "addUser",
      "outputs": [],
      "stateMutability": "nonpayable",
      "type": "function"
    },
    {
      "inputs": [
        {
          "internalType": "address",
          "name": "",
          "type": "address"
        }
      ],
      "name": "allowedCallers",
      "outputs": [
        {
          "internalType": "bool",
          "name": "",
          "type": "bool"
        }
      ],
      "stateMutability": "view",
      "type": "function"
    },
    {
      "inputs": [
        {
          "internalType": "uint256",
          "name": "",
          "type": "uint256"
        }
      ],
      "name": "delationsById",
      "outputs": [
        {
          "internalType": "uint64",
          "name": "id",
          "type": "uint64"
        },
        {
          "internalType": "address",
          "name": "informer",
          "type": "address"
        },
        {
          "internalType": "address",
          "name": "reported",
          "type": "address"
        },
        {
          "internalType": "string",
          "name": "title",
          "type": "string"
        },
        {
          "internalType": "string",
          "name": "testimony",
          "type": "string"
        },
        {
          "internalType": "uint256",
          "name": "createdAtBlock",
          "type": "uint256"
        }
      ],
      "stateMutability": "view",
      "type": "function"
    },
    {
      "inputs": [],
      "name": "delationsCount",
      "outputs": [
        {
          "internalType": "uint64",
          "name": "",
          "type": "uint64"
        }
      ],
      "stateMutability": "view",
      "type": "function"
    },
    {
      "inputs": [
        {
          "internalType": "address",
          "name": "addr",
          "type": "address"
        }
      ],
      "name": "getInvitation",
      "outputs": [
        {
          "components": [
            {
              "internalType": "address",
              "name": "invited",
              "type": "address"
            },
            {
              "internalType": "address",
              "name": "inviter",
              "type": "address"
            },
            {
              "internalType": "enum CommunityTypes.UserType",
              "name": "userType",
              "type": "uint8"
            },
            {
              "internalType": "uint256",
              "name": "createdAtBlock",
              "type": "uint256"
            }
          ],
          "internalType": "struct CommunityTypes.Invitation",
          "name": "",
          "type": "tuple"
        }
      ],
      "stateMutability": "view",
      "type": "function"
    },
    {
      "inputs": [
        {
          "internalType": "address",
          "name": "addr",
          "type": "address"
        }
      ],
      "name": "getUser",
      "outputs": [
        {
          "internalType": "enum CommunityTypes.UserType",
          "name": "",
          "type": "uint8"
        }
      ],
      "stateMutability": "view",
      "type": "function"
    },
    {
      "inputs": [
        {
          "internalType": "address",
          "name": "addr",
          "type": "address"
        }
      ],
      "name": "getUserDelations",
      "outputs": [
        {
          "components": [
            {
              "internalType": "uint64",
              "name": "id",
              "type": "uint64"
            },
            {
              "internalType": "address",
              "name": "informer",
              "type": "address"
            },
            {
              "internalType": "address",
              "name": "reported",
              "type": "address"
            },
            {
              "internalType": "string",
              "name": "title",
              "type": "string"
            },
            {
              "internalType": "string",
              "name": "testimony",
              "type": "string"
            },
            {
              "internalType": "uint256",
              "name": "createdAtBlock",
              "type": "uint256"
            }
          ],
          "internalType": "struct CommunityTypes.Delation[]",
          "name": "",
          "type": "tuple[]"
        }
      ],
      "stateMutability": "view",
      "type": "function"
    },
    {
      "inputs": [
        {
          "internalType": "enum CommunityTypes.UserType",
          "name": "userType",
          "type": "uint8"
        }
      ],
      "name": "getUserTypeSettings",
      "outputs": [
        {
          "components": [
            {
              "internalType": "uint8",
              "name": "proportionalityOnRegister",
              "type": "uint8"
            },
            {
              "internalType": "bool",
              "name": "directProportionalityRegistration",
              "type": "bool"
            },
            {
              "internalType": "bool",
              "name": "needInvitationOnRegister",
              "type": "bool"
            },
            {
              "internalType": "uint32",
              "name": "invitationDelayBlocks",
              "type": "uint32"
            },
            {
              "internalType": "bool",
              "name": "isVoter",
              "type": "bool"
            }
          ],
          "internalType": "struct CommunityTypes.UserTypeSetting",
          "name": "",
          "type": "tuple"
        }
      ],
      "stateMutability": "view",
      "type": "function"
    },
    {
      "inputs": [
        {
          "internalType": "address",
          "name": "",
          "type": "address"
        }
      ],
      "name": "invitations",
      "outputs": [
        {
          "internalType": "address",
          "name": "invited",
          "type": "address"
        },
        {
          "internalType": "address",
          "name": "inviter",
          "type": "address"
        },
        {
          "internalType": "enum CommunityTypes.UserType",
          "name": "userType",
          "type": "uint8"
        },
        {
          "internalType": "uint256",
          "name": "createdAtBlock",
          "type": "uint256"
        }
      ],
      "stateMutability": "view",
      "type": "function"
    },
    {
      "inputs": [
        {
          "internalType": "address",
          "name": "",
          "type": "address"
        }
      ],
      "name": "inviterPenalties",
      "outputs": [
        {
          "internalType": "uint16",
          "name": "",
          "type": "uint16"
        }
      ],
      "stateMutability": "view",
      "type": "function"
    },
    {
      "inputs": [
        {
          "internalType": "address",
          "name": "caller",
          "type": "address"
        }
      ],
      "name": "isAllowedCaller",
      "outputs": [
        {
          "internalType": "bool",
          "name": "",
          "type": "bool"
        }
      ],
      "stateMutability": "view",
      "type": "function"
    },
    {
      "inputs": [
        {
          "internalType": "address",
          "name": "userAddress",
          "type": "address"
        }
      ],
      "name": "isDenied",
      "outputs": [
        {
          "internalType": "bool",
          "name": "",
          "type": "bool"
        }
      ],
      "stateMutability": "view",
      "type": "function"
    },
    {
      "inputs": [
        {
          "internalType": "address",
          "name": "addr",
          "type": "address"
        }
      ],
      "name": "isVoter",
      "outputs": [
        {
          "internalType": "bool",
          "name": "",
          "type": "bool"
        }
      ],
      "stateMutability": "view",
      "type": "function"
    },
    {
      "inputs": [
        {
          "internalType": "address",
          "name": "allowed",
          "type": "address"
        }
      ],
      "name": "newAllowedCaller",
      "outputs": [],
      "stateMutability": "nonpayable",
      "type": "function"
    },
    {
      "inputs": [],
      "name": "owner",
      "outputs": [
        {
          "internalType": "address",
          "name": "",
          "type": "address"
        }
      ],
      "stateMutability": "view",
      "type": "function"
    },
    {
      "inputs": [],
      "name": "renounceOwnership",
      "outputs": [],
      "stateMutability": "nonpayable",
      "type": "function"
    },
    {
      "inputs": [
        {
          "internalType": "address",
          "name": "_invitationRulesAddress",
          "type": "address"
        },
        {
          "internalType": "address",
          "name": "_validationRulesAddress",
          "type": "address"
        }
      ],
      "name": "setContractCall",
      "outputs": [],
      "stateMutability": "nonpayable",
      "type": "function"
    },
    {
      "inputs": [
        {
          "internalType": "address",
          "name": "userAddress",
          "type": "address"
        }
      ],
      "name": "setToDenied",
      "outputs": [],
      "stateMutability": "nonpayable",
      "type": "function"
    },
    {
      "inputs": [
        {
          "internalType": "address",
          "name": "newOwner",
          "type": "address"
        }
      ],
      "name": "transferOwnership",
      "outputs": [],
      "stateMutability": "nonpayable",
      "type": "function"
    },
    {
      "inputs": [
        {
          "internalType": "enum CommunityTypes.UserType",
          "name": "userType",
          "type": "uint8"
        },
        {
          "internalType": "address",
          "name": "userAddress",
          "type": "address"
        }
      ],
      "name": "userTypeIs",
      "outputs": [
        {
          "internalType": "bool",
          "name": "",
          "type": "bool"
        }
      ],
      "stateMutability": "view",
      "type": "function"
    },
    {
      "inputs": [
        {
          "internalType": "enum CommunityTypes.UserType",
          "name": "",
          "type": "uint8"
        }
      ],
      "name": "userTypeSettings",
      "outputs": [
        {
          "internalType": "uint8",
          "name": "proportionalityOnRegister",
          "type": "uint8"
        },
        {
          "internalType": "bool",
          "name": "directProportionalityRegistration",
          "type": "bool"
        },
        {
          "internalType": "bool",
          "name": "needInvitationOnRegister",
          "type": "bool"
        },
        {
          "internalType": "uint32",
          "name": "invitationDelayBlocks",
          "type": "uint32"
        },
        {
          "internalType": "bool",
          "name": "isVoter",
          "type": "bool"
        }
      ],
      "stateMutability": "view",
      "type": "function"
    },
    {
      "inputs": [
        {
          "internalType": "enum CommunityTypes.UserType",
          "name": "",
          "type": "uint8"
        }
      ],
      "name": "userTypesCount",
      "outputs": [
        {
          "internalType": "uint64",
          "name": "",
          "type": "uint64"
        }
      ],
      "stateMutability": "view",
      "type": "function"
    },
    {
      "inputs": [
        {
          "internalType": "enum CommunityTypes.UserType",
          "name": "",
          "type": "uint8"
        }
      ],
      "name": "userTypesTotalCount",
      "outputs": [
        {
          "internalType": "uint64",
          "name": "",
          "type": "uint64"
        }
      ],
      "stateMutability": "view",
      "type": "function"
    },
    {
      "inputs": [],
      "name": "usersCount",
      "outputs": [
        {
          "internalType": "uint64",
          "name": "",
          "type": "uint64"
        }
      ],
      "stateMutability": "view",
      "type": "function"
    },
    {
      "inputs": [],
      "name": "votersCount",
      "outputs": [
        {
          "internalType": "uint256",
          "name": "",
          "type": "uint256"
        }
      ],
      "stateMutability": "view",
      "type": "function"
    }
  ],
  "bytecode": "0x608060405234801561001057600080fd5b50604051612ae7380380612ae783398101604081905261002f91610683565b338061005557604051631e4fbdf760e01b81526000600482015260240160405180910390fd5b61005e8161061d565b506040805160a080820183526000808352602080840182815284860183815260966060808801918252608080890187815260078852600a80885299517f22e39f61d1e4986b4f116cea9067f62cc77d74dff1780ae9c8b5166d1dd288298054975196519551925115156701000000000000000260ff60381b1963ffffffff90941663010000000266ffffffff0000001997151562010000029790971666ffffffffff0000199815156101000261ffff19909a1660ff909416939093179890981796909616179390931792909216939093179091558651948501875283855291840183905260019584018690528301829052820181905290928152602080820192909252604090810160009081208451815486860151878601516060808a015160809a8b015115156701000000000000000260ff60381b1963ffffffff90921663010000000266ffffffff0000001994151562010000029490941666ffffffffff0000199515156101000261ffff1990971660ff98891617969096179490941694909417919091179290921617909255835160a081018552908b168152600194810185905292830193909352918101829052918201819052600a906002600781111561022b5761022b6106e8565b8152602080820192909252604090810160009081208451815486860151878601516060808a015160809a8b015115156701000000000000000260ff60381b1963ffffffff90921663010000000266ffffffff0000001994151562010000029490941666ffffffffff0000199515156101000261ffff1990971660ff98891617969096179490941694909417919091179290921617909255835160a081018552908a1681529384018290526001928401839052620186a0908401529282015290600a9060066007811115610300576103006106e8565b8152602080820192909252604090810160009081208451815486860151878601516060808a015160809a8b015115156701000000000000000260ff60381b1963ffffffff90921663010000000266ffffffff0000001994151562010000029490941666ffffffffff0000199515156101000261ffff1990971660ff98891617969096179490941694909417919091179290921617909255835160a08101855290891681529384018290526001928401839052620186a0908401529282015290600a90600360078111156103d5576103d56106e8565b8152602080820192909252604090810160009081208451815486860151878601516060808a015160809a8b015115156701000000000000000260ff60381b1963ffffffff90921663010000000266ffffffff0000001994151562010000029490941666ffffffffff0000199515156101000261ffff1990971660ff98891617969096179490941694909417919091179290921617909255835160a08101855290881681529384018290526001928401839052620186a0908401529282015290600a90600460078111156104aa576104aa6106e8565b8152602080820192909252604090810160009081208451815486860151878601516060808a015160809a8b015115156701000000000000000260ff60381b1963ffffffff90921663010000000266ffffffff0000001994151562010000029490941666ffffffffff0000199515156101000261ffff1990971660ff98891617969096179490941694909417919091179290921617909255835160a08101855290871681529384018290526001928401839052620186a0908401529282015290600a906005600781111561057f5761057f6106e8565b81526020808201929092526040908101600020835181549385015192850151606086015160809096015115156701000000000000000260ff60381b1963ffffffff90971663010000000266ffffffff0000001992151562010000029290921666ffffffffff0000199515156101000261ffff1990971660ff909416939093179590951793909316179190911792909216179055506106fe9350505050565b600080546001600160a01b038381166001600160a01b0319831681178455604051919092169283917f8be0079c531659141344cd1fd0a4f28419497f9722a3daafe3b4186f6b6457e09190a35050565b805160ff8116811461067e57600080fd5b919050565b600080600080600060a0868803121561069b57600080fd5b6106a48661066d565b94506106b26020870161066d565b93506106c06040870161066d565b92506106ce6060870161066d565b91506106dc6080870161066d565b90509295509295909350565b634e487b7160e01b600052602160045260246000fd5b6123da8061070d6000396000f3fe608060405234801561001057600080fd5b50600436106101da5760003560e01c80638da5cb5b116101045780639c3eead9116100a2578063deffb90611610071578063deffb906146105e5578063e838dfbb146105ef578063f2fde38b1461061b578063ff7890951461062e57600080fd5b80639c3eead914610576578063a1dcdb2214610589578063a6801258146105a6578063a7771ee3146105d257600080fd5b80639497c608116100de5780639497c608146104d65780639547f953146104e9578063959ef1d21461054d57806398c079381461056057600080fd5b80638da5cb5b146104955780638f93716f146104b057806392220142146104c357600080fd5b806358f43f761161017c5780636f77926b1161014b5780636f77926b1461040e578063715018a6146104475780637b3341541461044f5780637ccfdba71461048257600080fd5b806358f43f76146103655780635b2b62a1146103bc5780636101bf21146103e15780636ba13a82146103f457600080fd5b80631eb2c120116101b85780631eb2c120146102a45780632115c634146102e55780632b17b8be1461031c5780632f22dc7b1461033c57600080fd5b806304521ca3146101df578063064505ad146101f45780630ed4ea5e1461021d575b600080fd5b6101f26101ed366004611ccc565b610641565b005b610207610202366004611cff565b610677565b6040516102149190611d60565b60405180910390f35b61026b61022b366004611e3d565b600a6020526000908152604090205460ff80821691610100810482169162010000820481169163ffffffff630100000082041691600160381b9091041685565b6040805160ff909616865293151560208601529115159284019290925263ffffffff90911660608301521515608082015260a001610214565b6102cd6102b2366004611e3d565b6009602052600090815260409020546001600160401b031681565b6040516001600160401b039091168152602001610214565b6103096102f3366004611cff565b600b6020526000908152604090205461ffff1681565b60405161ffff9091168152602001610214565b61032f61032a366004611cff565b610856565b6040516102149190611e90565b6102cd61034a366004611e3d565b6008602052600090815260409020546001600160401b031681565b6103ac610373366004611cff565b6007602052600090815260409020805460018201546002909201546001600160a01b039182169291821691600160a01b900460ff169084565b6040516102149493929190611ed2565b6103cf6103ca366004611f06565b6108fc565b60405161021496959493929190611f1f565b6101f26103ef366004611cff565b610a5b565b6002546102cd90600160401b90046001600160401b031681565b61043a61041c366004611cff565b6001600160a01b031660009081526003602052604090205460ff1690565b6040516102149190611f80565b6101f2610ad9565b61047261045d366004611cff565b60016020526000908152604090205460ff1681565b6040519015158152602001610214565b6101f2610490366004611f8e565b610aed565b6000546040516001600160a01b039091168152602001610214565b6101f26104be366004611cff565b610daf565b6002546102cd906001600160401b031681565b6104726104e4366004611fd1565b610dde565b6104fc6104f7366004611e3d565b610e4e565b6040516102149190600060a08201905060ff835116825260208301511515602083015260408301511515604083015263ffffffff606084015116606083015260808301511515608083015292915050565b6101f261055b366004611cff565b610f0f565b610568611037565b604051908152602001610214565b6101f2610584366004611fed565b61110c565b610591609681565b60405163ffffffff9091168152602001610214565b6104726105b4366004611cff565b6001600160a01b031660009081526001602052604090205460ff1690565b6104726105e0366004611cff565b6114a0565b610591620186a081565b6104726105fd366004611cff565b6001600160a01b031660009081526004602052604090205460ff1690565b6101f2610629366004611cff565b6114cf565b6101f261063c3660046120ba565b61150a565b610649611980565b600c80546001600160a01b039384166001600160a01b031991821617909155600d8054929093169116179055565b6001600160a01b0381166000908152600560209081526040808320805482518185028101850190935280835260609492939192909184015b8282101561084b5760008481526020908190206040805160c0810182526005860290920180546001600160401b03811684526001600160a01b03600160401b90910481169484019490945260018101549093169082015260028201805491929160608401919061071e90612131565b80601f016020809104026020016040519081016040528092919081815260200182805461074a90612131565b80156107975780601f1061076c57610100808354040283529160200191610797565b820191906000526020600020905b81548152906001019060200180831161077a57829003601f168201915b505050505081526020016003820180546107b090612131565b80601f01602080910402602001604051908101604052809291908181526020018280546107dc90612131565b80156108295780601f106107fe57610100808354040283529160200191610829565b820191906000526020600020905b81548152906001019060200180831161080c57829003601f168201915b50505050508152602001600482015481525050815260200190600101906106af565b505050509050919050565b6040805160808101825260008082526020820181905291810182905260608101919091526001600160a01b03828116600090815260076020818152604092839020835160808101855281548616815260018201549586169281019290925290939092840191600160a01b90910460ff16908111156108d6576108d6611e58565b60078111156108e7576108e7611e58565b81526020016002820154815250509050919050565b6006602052600090815260409020805460018201546002830180546001600160401b03841694600160401b9094046001600160a01b0390811694931692919061094490612131565b80601f016020809104026020016040519081016040528092919081815260200182805461097090612131565b80156109bd5780601f10610992576101008083540402835291602001916109bd565b820191906000526020600020905b8154815290600101906020018083116109a057829003601f168201915b5050505050908060030180546109d290612131565b80601f01602080910402602001604051908101604052809291908181526020018280546109fe90612131565b8015610a4b5780601f10610a2057610100808354040283529160200191610a4b565b820191906000526020600020905b815481529060010190602001808311610a2e57829003601f168201915b5050505050908060040154905086565b3360009081526001602052604090205460ff16610a935760405162461bcd60e51b8152600401610a8a9061216b565b60405180910390fd5b6001600160a01b0381166000908152600b60205260408120805461ffff1691610abb836121ad565b91906101000a81548161ffff021916908361ffff1602179055505050565b610ae1611980565b610aeb60006119ad565b565b3360009081526001602052604090205460ff16610b1c5760405162461bcd60e51b8152600401610a8a9061216b565b600c546001600160a01b0316338114610b775760405162461bcd60e51b815260206004820152601e60248201527f43616c6c6572206d7573742062652073797374656d20636f6e747261637400006044820152606401610a8a565b6001600160a01b038316610bcd5760405162461bcd60e51b815260206004820152601e60248201527f496e766974656420616464726573732063616e6e6f74206265207a65726f00006044820152606401610a8a565b6001600160a01b038381166000908152600760205260409020541615610c275760405162461bcd60e51b815260206004820152600f60248201526e105b1c9958591e481a5b9d9a5d1959608a1b6044820152606401610a8a565b6001600160a01b03831660009081526003602052604081205460ff166007811115610c5457610c54611e58565b14610c965760405162461bcd60e51b8152602060048201526012602482015271105b1c9958591e481c9959da5cdd195c995960721b6044820152606401610a8a565b6040518060800160405280846001600160a01b03168152602001856001600160a01b03168152602001836007811115610cd157610cd1611e58565b8152436020918201526001600160a01b0380861660009081526007808452604091829020855181549085166001600160a01b03199182161782559486015160018201805491909516958116861785559286015190949093926001600160a81b0319161790600160a01b908490811115610d4c57610d4c611e58565b021790555060608201518160020155905050826001600160a01b0316846001600160a01b03167f3aed71ce4143148a406a002376059e9cb31ad2e3c9b2a431fc106d4be03f204784604051610da19190611f80565b60405180910390a350505050565b610db7611980565b6001600160a01b03166000908152600160208190526040909120805460ff19169091179055565b6000826007811115610df257610df2611e58565b6001600160a01b03831660009081526003602052604090205460ff166007811115610e1f57610e1f611e58565b148015610e4557506001600160a01b03821660009081526004602052604090205460ff16155b90505b92915050565b6040805160a081018252600080825260208201819052918101829052606081018290526080810191909152600a6000836007811115610e8f57610e8f611e58565b6007811115610ea057610ea0611e58565b81526020808201929092526040908101600020815160a081018352905460ff808216835261010082048116151594830194909452620100008104841615159282019290925263ffffffff63010000008304166060820152600160381b9091049091161515608082015292915050565b3360009081526001602052604090205460ff16610f3e5760405162461bcd60e51b8152600401610a8a9061216b565b6001600160a01b03811660009081526004602052604090205460ff16611034576001600160a01b0381166000908152600360205260408120546008919060ff166007811115610f8f57610f8f611e58565b6007811115610fa057610fa0611e58565b81526020810191909152604001600090812080546001600160401b031691610fc7836121ce565b82546001600160401b039182166101009390930a9283029190920219909116179055506001600160a01b038116600081815260046020526040808220805460ff19166001179055517f4e283ac74dcfce6ff8dd078cc60000ae1deac4f6ae889f87268c6ed2fd0404d89190a25b50565b60086020527f625b35f5e76f098dd7c3a05b10e2e5e78a4a01228d60c3b143426cdf36d26455547f9321edea6e3be4df59a344b401fab4f888b556fda1f954244cff9204bad624b8547f91238f30f286c9a1c6e901c4eda3b214c381c846e3dbe48df95c21488e8e1fdb54600660009081527f13acf3fc7bed94759963f076d5d3443d88732026bffc8253bdf4a6e65f21ecc55490936001600160401b03908116938116926110ea9290821691166121f1565b6110f491906121f1565b6110fe91906121f1565b6001600160401b0316905090565b3360009081526001602052604090205460ff1661113b5760405162461bcd60e51b8152600401610a8a9061216b565b6001600160a01b0382166111915760405162461bcd60e51b815260206004820152601b60248201527f5573657220616464726573732063616e6e6f74206265207a65726f00000000006044820152606401610a8a565b6001600160a01b03821660009081526003602052604081205460ff1660078111156111be576111be611e58565b146112015760405162461bcd60e51b81526020600482015260136024820152725573657220616c72656164792065786973747360681b6044820152606401610a8a565b600081600781111561121557611215611e58565b036112565760405162461bcd60e51b8152602060048201526011602482015270496e76616c69642075736572207479706560781b6044820152606401610a8a565b61125f816119fd565b6112ab5760405162461bcd60e51b815260206004820152601760248201527f50726f706f7274696f6e616c69747920696e76616c69640000000000000000006044820152606401610a8a565b6112b58282611ba3565b6112f65760405162461bcd60e51b815260206004820152601260248201527124b73b30b634b21034b73b34ba30ba34b7b760711b6044820152606401610a8a565b6001600160a01b0382166000908152600360205260409020805482919060ff1916600183600781111561132b5761132b611e58565b021790555060028054600160401b90046001600160401b031690600861135083612210565b91906101000a8154816001600160401b0302191690836001600160401b03160217905550506008600082600781111561138b5761138b611e58565b600781111561139c5761139c611e58565b81526020810191909152604001600090812080546001600160401b0316916113c383612210565b91906101000a8154816001600160401b0302191690836001600160401b0316021790555050600960008260078111156113fe576113fe611e58565b600781111561140f5761140f611e58565b81526020810191909152604001600090812080546001600160401b03169161143683612210565b91906101000a8154816001600160401b0302191690836001600160401b0316021790555050816001600160a01b03167f8e18574f8a7333e6a87112742a55853a643e2f0550f4e1a3a2c3f1bb2994441d826040516114949190611f80565b60405180910390a25050565b6001600160a01b0381166000908152600360205260408120546114c59060ff16610e4e565b6080015192915050565b6114d7611980565b6001600160a01b03811661150157604051631e4fbdf760e01b815260006004820152602401610a8a565b611034816119ad565b815160641080159061151f5750805161012c10155b6115645760405162461bcd60e51b815260206004820152601660248201527513585e0818da185c9858dd195c9cc81c995858da195960521b6044820152606401610a8a565b3360009081526003602052604081205460ff16600781111561158857611588611e58565b036115d55760405162461bcd60e51b815260206004820152601960248201527f43616c6c6572206d7573742062652072656769737465726564000000000000006044820152606401610a8a565b60073360009081526003602052604090205460ff1660078111156115fb576115fb611e58565b036116485760405162461bcd60e51b815260206004820152601960248201527f4e6f7420616c6c6f77656420746f20737570706f7274657273000000000000006044820152606401610a8a565b6001600160a01b03831660009081526003602052604081205460ff16600781111561167557611675611e58565b036116c25760405162461bcd60e51b815260206004820152601760248201527f55736572206d75737420626520726567697374657265640000000000000000006044820152606401610a8a565b6001600160a01b0383166117185760405162461bcd60e51b815260206004820152601a60248201527f43616e6e6f742064656c617465207a65726f20616464726573730000000000006044820152606401610a8a565b336001600160a01b038416036117705760405162461bcd60e51b815260206004820152601d60248201527f53656c662d64656e756e63696174696f6e206e6f7420616c6c6f7765640000006044820152606401610a8a565b600280546001600160401b031690600061178983612210565b82546101009290920a6001600160401b03818102199093169183160217909155600280546040805160c0810182529184168083523360208085019182526001600160a01b038b8116868601818152606088018d8152608089018d90524360a08a015260009283526005808652978320805460018181018355918552959093208951959098029097018054955194909a166001600160e01b031990951694909417600160401b93831693909302929092178855915190870180546001600160a01b0319169190921617905590519094509092839290919082019061186c9082612281565b50608082015160038201906118819082612281565b5060a091909101516004909101556001600160401b03828116600090815260066020908152604091829020845181549286015194166001600160e01b031990921691909117600160401b6001600160a01b0394851602178155908301516001820180546001600160a01b03191691909316179091556060820151829190600282019061190d9082612281565b50608082015160038201906119229082612281565b5060a091909101516004909101556040516001600160401b03831681526001600160a01b0386169033907f189a77cbe3dec0697e2a3b90dc61ee5a0271739d521848b871170224328f7a889060200160405180910390a35050505050565b6000546001600160a01b03163314610aeb5760405163118cdaa760e01b8152336004820152602401610a8a565b600080546001600160a01b038381166001600160a01b0319831681178455604051919092169283917f8be0079c531659141344cd1fd0a4f28419497f9722a3daafe3b4186f6b6457e09190a35050565b60016000908152600860208190527fad67d757c34507f157cacfa2e3153e9f260a2244f30428821be7be64587ac55f546001600160401b031690829081856007811115611a4c57611a4c611e58565b6007811115611a5d57611a5d611e58565b815260208101919091526040016000908120546001600160401b03169150600a81866007811115611a9057611a90611e58565b6007811115611aa157611aa1611e58565b815260208082019290925260409081016000908120825160a081018452905460ff80821680845261010083048216151596840196909652620100008204811615159483019490945263ffffffff63010000008204166060830152600160381b900490921615156080830152909250819003611b225750600195945050505050565b60056001600160401b0384161015611b405750600195945050505050565b816020015115611b7657611b5760ff82168561233f565b6001600160401b0316836001600160401b031610945050505050919050565b611b8360ff821685612368565b6001600160401b0316836001600160401b03161115945050505050919050565b6000600a6000836007811115611bbb57611bbb611e58565b6007811115611bcc57611bcc611e58565b815260208101919091526040016000205462010000900460ff16611bf257506001610e48565b6001600160a01b0383811660009081526007602081815260408084208151608081018352815487168152600182015496871693810193909352939491939290840191600160a01b900460ff1690811115611c4e57611c4e611e58565b6007811115611c5f57611c5f611e58565b8152602001600282015481525050905060008160600151118015611ca85750826007811115611c9057611c90611e58565b81604001516007811115611ca657611ca6611e58565b145b949350505050565b80356001600160a01b0381168114611cc757600080fd5b919050565b60008060408385031215611cdf57600080fd5b611ce883611cb0565b9150611cf660208401611cb0565b90509250929050565b600060208284031215611d1157600080fd5b610e4582611cb0565b6000815180845260005b81811015611d4057602081850181015186830182015201611d24565b506000602082860101526020601f19601f83011685010191505092915050565b6000602082016020835280845180835260408501915060408160051b86010192506020860160005b82811015611e2257603f1987860301845281516001600160401b03815116865260018060a01b03602082015116602087015260018060a01b036040820151166040870152606081015160c06060880152611de560c0880182611d1a565b905060808201518782036080890152611dfe8282611d1a565b60a09384015198909301979097525094506020938401939190910190600101611d88565b50929695505050505050565b803560088110611cc757600080fd5b600060208284031215611e4f57600080fd5b610e4582611e2e565b634e487b7160e01b600052602160045260246000fd5b60088110611e8c57634e487b7160e01b600052602160045260246000fd5b9052565b81516001600160a01b039081168252602080840151909116908201526040808301516080830191611ec390840182611e6e565b50606092830151919092015290565b6001600160a01b0385811682528416602082015260808101611ef76040830185611e6e565b82606083015295945050505050565b600060208284031215611f1857600080fd5b5035919050565b6001600160401b03871681526001600160a01b0386811660208301528516604082015260c060608201819052600090611f5a90830186611d1a565b8281036080840152611f6c8186611d1a565b9150508260a0830152979650505050505050565b60208101610e488284611e6e565b600080600060608486031215611fa357600080fd5b611fac84611cb0565b9250611fba60208501611cb0565b9150611fc860408501611e2e565b90509250925092565b60008060408385031215611fe457600080fd5b611ce883611e2e565b6000806040838503121561200057600080fd5b61200983611cb0565b9150611cf660208401611e2e565b634e487b7160e01b600052604160045260246000fd5b600082601f83011261203e57600080fd5b81356001600160401b0381111561205757612057612017565b604051601f8201601f19908116603f011681016001600160401b038111828210171561208557612085612017565b60405281815283820160200185101561209d57600080fd5b816020850160208301376000918101602001919091529392505050565b6000806000606084860312156120cf57600080fd5b6120d884611cb0565b925060208401356001600160401b038111156120f357600080fd5b6120ff8682870161202d565b92505060408401356001600160401b0381111561211b57600080fd5b6121278682870161202d565b9150509250925092565b600181811c9082168061214557607f821691505b60208210810361216557634e487b7160e01b600052602260045260246000fd5b50919050565b6020808252601290820152712737ba1030b63637bbb2b21031b0b63632b960711b604082015260600190565b634e487b7160e01b600052601160045260246000fd5b600061ffff821661ffff81036121c5576121c5612197565b60010192915050565b60006001600160401b038216806121e7576121e7612197565b6000190192915050565b6001600160401b038181168382160190811115610e4857610e48612197565b60006001600160401b0382166001600160401b0381036121c5576121c5612197565b601f82111561227c57806000526020600020601f840160051c810160208510156122595750805b601f840160051c820191505b818110156122795760008155600101612265565b50505b505050565b81516001600160401b0381111561229a5761229a612017565b6122ae816122a88454612131565b84612232565b6020601f8211600181146122e257600083156122ca5750848201515b600019600385901b1c1916600184901b178455612279565b600084815260208120601f198516915b8281101561231257878501518255602094850194600190920191016122f2565b50848210156123305786840151600019600387901b60f8161c191681555b50505050600190811b01905550565b6001600160401b03818116838216029081169081811461236157612361612197565b5092915050565b60006001600160401b0383168061238f57634e487b7160e01b600052601260045260246000fd5b806001600160401b038416049150509291505056fea264697066735822122025902477a8c9284836d02cb585dfafd692910ad0f8712516899c3bf1872e707764736f6c634300081b0033",
  "linkReferences": {},
  "deployedLinkReferences": {}
}