{
  "_format": "hh-sol-artifact-1",
  "contractName": "CommunityRules",
  "sourceName": "contracts/CommunityRules.sol",
  "abi": [
    {
      "inputs": [
        {
          "internalType": "uint8",
          "name": "inspectorProportionality",
          "type": "uint8"
        },
        {
          "internalType": "uint8",
          "name": "activistProportionality",
          "type": "uint8"
        },
        {
          "internalType": "uint8",
          "name": "researcherProportionality",
          "type": "uint8"
        },
        {
          "internalType": "uint8",
          "name": "developerProportionality",
          "type": "uint8"
        },
        {
          "internalType": "uint8",
          "name": "contributorProportionality",
          "type": "uint8"
        }
      ],
      "stateMutability": "nonpayable",
      "type": "constructor"
    },
    {
      "inputs": [
        {
          "internalType": "address",
          "name": "owner",
          "type": "address"
        }
      ],
      "name": "OwnableInvalidOwner",
      "type": "error"
    },
    {
      "inputs": [
        {
          "internalType": "address",
          "name": "account",
          "type": "address"
        }
      ],
      "name": "OwnableUnauthorizedAccount",
      "type": "error"
    },
    {
      "anonymous": false,
      "inputs": [
        {
          "indexed": true,
          "internalType": "address",
          "name": "informer",
          "type": "address"
        },
        {
          "indexed": true,
          "internalType": "address",
          "name": "reported",
          "type": "address"
        },
        {
          "indexed": false,
          "internalType": "uint64",
          "name": "newDelationId",
          "type": "uint64"
        }
      ],
      "name": "DelationAdded",
      "type": "event"
    },
    {
      "anonymous": false,
      "inputs": [
        {
          "indexed": true,
          "internalType": "uint64",
          "name": "delationId",
          "type": "uint64"
        },
        {
          "indexed": true,
          "internalType": "address",
          "name": "voter",
          "type": "address"
        },
        {
          "indexed": false,
          "internalType": "bool",
          "name": "supportsDelation",
          "type": "bool"
        },
        {
          "indexed": false,
          "internalType": "uint256",
          "name": "newThumbsUpCount",
          "type": "uint256"
        },
        {
          "indexed": false,
          "internalType": "uint256",
          "name": "newThumbsDownCount",
          "type": "uint256"
        }
      ],
      "name": "DelationVoted",
      "type": "event"
    },
    {
      "anonymous": false,
      "inputs": [
        {
          "indexed": true,
          "internalType": "address",
          "name": "addr",
          "type": "address"
        }
      ],
      "name": "DeniedUserEvent",
      "type": "event"
    },
    {
      "anonymous": false,
      "inputs": [
        {
          "indexed": true,
          "internalType": "address",
          "name": "inviter",
          "type": "address"
        },
        {
          "indexed": true,
          "internalType": "address",
          "name": "invited",
          "type": "address"
        },
        {
          "indexed": false,
          "internalType": "enum CommunityTypes.UserType",
          "name": "userTypeTo",
          "type": "uint8"
        }
      ],
      "name": "InvitationAdded",
      "type": "event"
    },
    {
      "anonymous": false,
      "inputs": [
        {
          "indexed": true,
          "internalType": "address",
          "name": "previousOwner",
          "type": "address"
        },
        {
          "indexed": true,
          "internalType": "address",
          "name": "newOwner",
          "type": "address"
        }
      ],
      "name": "OwnershipTransferred",
      "type": "event"
    },
    {
      "anonymous": false,
      "inputs": [
        {
          "indexed": true,
          "internalType": "address",
          "name": "addr",
          "type": "address"
        },
        {
          "indexed": false,
          "internalType": "enum CommunityTypes.UserType",
          "name": "userType",
          "type": "uint8"
        }
      ],
      "name": "UserRegistered",
      "type": "event"
    },
    {
      "inputs": [],
      "name": "SUPPORTER_INVITATION_DELAY_BLOCKS",
      "outputs": [
        {
          "internalType": "uint32",
          "name": "",
          "type": "uint32"
        }
      ],
      "stateMutability": "view",
      "type": "function"
    },
    {
      "inputs": [],
      "name": "VOTER_INVITATION_DELAY_BLOCKS",
      "outputs": [
        {
          "internalType": "uint32",
          "name": "",
          "type": "uint32"
        }
      ],
      "stateMutability": "view",
      "type": "function"
    },
    {
      "inputs": [
        {
          "internalType": "uint64",
          "name": "",
          "type": "uint64"
        },
        {
          "internalType": "address",
          "name": "",
          "type": "address"
        }
      ],
      "name": "_hasVotedOnDelation",
      "outputs": [
        {
          "internalType": "bool",
          "name": "",
          "type": "bool"
        }
      ],
      "stateMutability": "view",
      "type": "function"
    },
    {
      "inputs": [
        {
          "internalType": "address",
          "name": "addr",
          "type": "address"
        },
        {
          "internalType": "string",
          "name": "title",
          "type": "string"
        },
        {
          "internalType": "string",
          "name": "testimony",
          "type": "string"
        }
      ],
      "name": "addDelation",
      "outputs": [],
      "stateMutability": "nonpayable",
      "type": "function"
    },
    {
      "inputs": [
        {
          "internalType": "address",
          "name": "inviter",
          "type": "address"
        },
        {
          "internalType": "address",
          "name": "invited",
          "type": "address"
        },
        {
          "internalType": "enum CommunityTypes.UserType",
          "name": "userType",
          "type": "uint8"
        }
      ],
      "name": "addInvitation",
      "outputs": [],
      "stateMutability": "nonpayable",
      "type": "function"
    },
    {
      "inputs": [
        {
          "internalType": "address",
          "name": "inviter",
          "type": "address"
        }
      ],
      "name": "addInviterPenalty",
      "outputs": [],
      "stateMutability": "nonpayable",
      "type": "function"
    },
    {
      "inputs": [
        {
          "internalType": "address",
          "name": "addr",
          "type": "address"
        },
        {
          "internalType": "enum CommunityTypes.UserType",
          "name": "userType",
          "type": "uint8"
        }
      ],
      "name": "addUser",
      "outputs": [],
      "stateMutability": "nonpayable",
      "type": "function"
    },
    {
      "inputs": [
        {
          "internalType": "address",
          "name": "",
          "type": "address"
        }
      ],
      "name": "allowedCallers",
      "outputs": [
        {
          "internalType": "bool",
          "name": "",
          "type": "bool"
        }
      ],
      "stateMutability": "view",
      "type": "function"
    },
    {
      "inputs": [
        {
          "internalType": "uint256",
          "name": "",
          "type": "uint256"
        }
      ],
      "name": "delationsById",
      "outputs": [
        {
          "internalType": "uint64",
          "name": "id",
          "type": "uint64"
        },
        {
          "internalType": "address",
          "name": "informer",
          "type": "address"
        },
        {
          "internalType": "address",
          "name": "reported",
          "type": "address"
        },
        {
          "internalType": "string",
          "name": "title",
          "type": "string"
        },
        {
          "internalType": "string",
          "name": "testimony",
          "type": "string"
        },
        {
          "internalType": "uint256",
          "name": "createdAtBlock",
          "type": "uint256"
        },
        {
          "internalType": "uint256",
          "name": "thumbsUp",
          "type": "uint256"
        },
        {
          "internalType": "uint256",
          "name": "thumbsDown",
          "type": "uint256"
        }
      ],
      "stateMutability": "view",
      "type": "function"
    },
    {
      "inputs": [],
      "name": "delationsCount",
      "outputs": [
        {
          "internalType": "uint64",
          "name": "",
          "type": "uint64"
        }
      ],
      "stateMutability": "view",
      "type": "function"
    },
    {
      "inputs": [
        {
          "internalType": "address",
          "name": "addr",
          "type": "address"
        }
      ],
      "name": "getInvitation",
      "outputs": [
        {
          "components": [
            {
              "internalType": "address",
              "name": "invited",
              "type": "address"
            },
            {
              "internalType": "address",
              "name": "inviter",
              "type": "address"
            },
            {
              "internalType": "enum CommunityTypes.UserType",
              "name": "userType",
              "type": "uint8"
            },
            {
              "internalType": "uint256",
              "name": "createdAtBlock",
              "type": "uint256"
            }
          ],
          "internalType": "struct CommunityTypes.Invitation",
          "name": "",
          "type": "tuple"
        }
      ],
      "stateMutability": "view",
      "type": "function"
    },
    {
      "inputs": [
        {
          "internalType": "address",
          "name": "addr",
          "type": "address"
        }
      ],
      "name": "getUser",
      "outputs": [
        {
          "internalType": "enum CommunityTypes.UserType",
          "name": "",
          "type": "uint8"
        }
      ],
      "stateMutability": "view",
      "type": "function"
    },
    {
      "inputs": [
        {
          "internalType": "address",
          "name": "_user",
          "type": "address"
        }
      ],
      "name": "getUserDelations",
      "outputs": [
        {
          "internalType": "uint64[]",
          "name": "",
          "type": "uint64[]"
        }
      ],
      "stateMutability": "view",
      "type": "function"
    },
    {
      "inputs": [
        {
          "internalType": "enum CommunityTypes.UserType",
          "name": "userType",
          "type": "uint8"
        }
      ],
      "name": "getUserTypeSettings",
      "outputs": [
        {
          "components": [
            {
              "internalType": "uint8",
              "name": "proportionalityOnRegister",
              "type": "uint8"
            },
            {
              "internalType": "bool",
              "name": "directProportionalityRegistration",
              "type": "bool"
            },
            {
              "internalType": "bool",
              "name": "needInvitationOnRegister",
              "type": "bool"
            },
            {
              "internalType": "uint32",
              "name": "invitationDelayBlocks",
              "type": "uint32"
            },
            {
              "internalType": "bool",
              "name": "isVoter",
              "type": "bool"
            }
          ],
          "internalType": "struct CommunityTypes.UserTypeSetting",
          "name": "",
          "type": "tuple"
        }
      ],
      "stateMutability": "view",
      "type": "function"
    },
    {
      "inputs": [
        {
          "internalType": "address",
          "name": "addr",
          "type": "address"
        }
      ],
      "name": "hasWaitedRequiredTime",
      "outputs": [
        {
          "internalType": "bool",
          "name": "",
          "type": "bool"
        }
      ],
      "stateMutability": "view",
      "type": "function"
    },
    {
      "inputs": [],
      "name": "invitationRulesAddress",
      "outputs": [
        {
          "internalType": "address",
          "name": "",
          "type": "address"
        }
      ],
      "stateMutability": "view",
      "type": "function"
    },
    {
      "inputs": [
        {
          "internalType": "address",
          "name": "",
          "type": "address"
        }
      ],
      "name": "invitations",
      "outputs": [
        {
          "internalType": "address",
          "name": "invited",
          "type": "address"
        },
        {
          "internalType": "address",
          "name": "inviter",
          "type": "address"
        },
        {
          "internalType": "enum CommunityTypes.UserType",
          "name": "userType",
          "type": "uint8"
        },
        {
          "internalType": "uint256",
          "name": "createdAtBlock",
          "type": "uint256"
        }
      ],
      "stateMutability": "view",
      "type": "function"
    },
    {
      "inputs": [
        {
          "internalType": "address",
          "name": "",
          "type": "address"
        }
      ],
      "name": "inviterPenalties",
      "outputs": [
        {
          "internalType": "uint16",
          "name": "",
          "type": "uint16"
        }
      ],
      "stateMutability": "view",
      "type": "function"
    },
    {
      "inputs": [
        {
          "internalType": "address",
          "name": "caller",
          "type": "address"
        }
      ],
      "name": "isAllowedCaller",
      "outputs": [
        {
          "internalType": "bool",
          "name": "",
          "type": "bool"
        }
      ],
      "stateMutability": "view",
      "type": "function"
    },
    {
      "inputs": [
        {
          "internalType": "address",
          "name": "userAddress",
          "type": "address"
        }
      ],
      "name": "isDenied",
      "outputs": [
        {
          "internalType": "bool",
          "name": "",
          "type": "bool"
        }
      ],
      "stateMutability": "view",
      "type": "function"
    },
    {
      "inputs": [
        {
          "internalType": "address",
          "name": "addr",
          "type": "address"
        }
      ],
      "name": "isVoter",
      "outputs": [
        {
          "internalType": "bool",
          "name": "",
          "type": "bool"
        }
      ],
      "stateMutability": "view",
      "type": "function"
    },
    {
      "inputs": [
        {
          "internalType": "address",
          "name": "",
          "type": "address"
        }
      ],
      "name": "lastDelationBlock",
      "outputs": [
        {
          "internalType": "uint256",
          "name": "",
          "type": "uint256"
        }
      ],
      "stateMutability": "view",
      "type": "function"
    },
    {
      "inputs": [
        {
          "internalType": "address",
          "name": "allowed",
          "type": "address"
        }
      ],
      "name": "newAllowedCaller",
      "outputs": [],
      "stateMutability": "nonpayable",
      "type": "function"
    },
    {
      "inputs": [],
      "name": "owner",
      "outputs": [
        {
          "internalType": "address",
          "name": "",
          "type": "address"
        }
      ],
      "stateMutability": "view",
      "type": "function"
    },
    {
      "inputs": [],
      "name": "renounceOwnership",
      "outputs": [],
      "stateMutability": "nonpayable",
      "type": "function"
    },
    {
      "inputs": [
        {
          "internalType": "address",
          "name": "_invitationRulesAddress",
          "type": "address"
        },
        {
          "internalType": "address",
          "name": "_validationRulesAddress",
          "type": "address"
        }
      ],
      "name": "setContractCall",
      "outputs": [],
      "stateMutability": "nonpayable",
      "type": "function"
    },
    {
      "inputs": [
        {
          "internalType": "address",
          "name": "userAddress",
          "type": "address"
        }
      ],
      "name": "setToDenied",
      "outputs": [],
      "stateMutability": "nonpayable",
      "type": "function"
    },
    {
      "inputs": [
        {
          "internalType": "address",
          "name": "newOwner",
          "type": "address"
        }
      ],
      "name": "transferOwnership",
      "outputs": [],
      "stateMutability": "nonpayable",
      "type": "function"
    },
    {
      "inputs": [
        {
          "internalType": "enum CommunityTypes.UserType",
          "name": "userType",
          "type": "uint8"
        },
        {
          "internalType": "address",
          "name": "userAddress",
          "type": "address"
        }
      ],
      "name": "userTypeIs",
      "outputs": [
        {
          "internalType": "bool",
          "name": "",
          "type": "bool"
        }
      ],
      "stateMutability": "view",
      "type": "function"
    },
    {
      "inputs": [
        {
          "internalType": "enum CommunityTypes.UserType",
          "name": "",
          "type": "uint8"
        }
      ],
      "name": "userTypeSettings",
      "outputs": [
        {
          "internalType": "uint8",
          "name": "proportionalityOnRegister",
          "type": "uint8"
        },
        {
          "internalType": "bool",
          "name": "directProportionalityRegistration",
          "type": "bool"
        },
        {
          "internalType": "bool",
          "name": "needInvitationOnRegister",
          "type": "bool"
        },
        {
          "internalType": "uint32",
          "name": "invitationDelayBlocks",
          "type": "uint32"
        },
        {
          "internalType": "bool",
          "name": "isVoter",
          "type": "bool"
        }
      ],
      "stateMutability": "view",
      "type": "function"
    },
    {
      "inputs": [
        {
          "internalType": "enum CommunityTypes.UserType",
          "name": "",
          "type": "uint8"
        }
      ],
      "name": "userTypesCount",
      "outputs": [
        {
          "internalType": "uint64",
          "name": "",
          "type": "uint64"
        }
      ],
      "stateMutability": "view",
      "type": "function"
    },
    {
      "inputs": [
        {
          "internalType": "enum CommunityTypes.UserType",
          "name": "",
          "type": "uint8"
        }
      ],
      "name": "userTypesTotalCount",
      "outputs": [
        {
          "internalType": "uint64",
          "name": "",
          "type": "uint64"
        }
      ],
      "stateMutability": "view",
      "type": "function"
    },
    {
      "inputs": [],
      "name": "usersCount",
      "outputs": [
        {
          "internalType": "uint64",
          "name": "",
          "type": "uint64"
        }
      ],
      "stateMutability": "view",
      "type": "function"
    },
    {
      "inputs": [],
      "name": "validationRulesAddress",
      "outputs": [
        {
          "internalType": "address",
          "name": "",
          "type": "address"
        }
      ],
      "stateMutability": "view",
      "type": "function"
    },
    {
      "inputs": [
        {
          "internalType": "uint64",
          "name": "_delationId",
          "type": "uint64"
        },
        {
          "internalType": "bool",
          "name": "_supportsDelation",
          "type": "bool"
        }
      ],
      "name": "voteOnDelation",
      "outputs": [],
      "stateMutability": "nonpayable",
      "type": "function"
    },
    {
      "inputs": [],
      "name": "votersCount",
      "outputs": [
        {
          "internalType": "uint256",
          "name": "",
          "type": "uint256"
        }
      ],
      "stateMutability": "view",
      "type": "function"
    }
  ],
  "bytecode": "0x608060405234801561001057600080fd5b506040516130ba3803806130ba83398101604081905261002f91610681565b338061005557604051631e4fbdf760e01b81526000600482015260240160405180910390fd5b61005e8161061b565b506040805160a080820183526000808352602080840182815284860183815260966060808801918252608080890187815260078852600b80885299517ff5559028dc9ba50d75343c779b2f75e13a84a14662932fc67a486f263ca31a968054975196519551925115156701000000000000000260ff60381b1963ffffffff90941663010000000266ffffffff0000001997151562010000029790971666ffffffffff0000199815156101000261ffff19909a1660ff909416939093179890981796909616179390931792909216939093179091558651948501875283855291840183905260019584018690528301829052820181905290928152602080820192909252604090810160009081208451815486860151878601516060808a015160809a8b015115156701000000000000000260ff60381b1963ffffffff90921663010000000266ffffffff0000001994151562010000029490941666ffffffffff0000199515156101000261ffff1990971660ff98891617969096179490941694909417919091179290921617909255835160a081018552908b168152600194810185905292830193909352918101829052918201819052600b906002600781111561022b5761022b6106e6565b8152602080820192909252604090810160009081208451815486860151878601516060808a015160809a8b015115156701000000000000000260ff60381b1963ffffffff90921663010000000266ffffffff0000001994151562010000029490941666ffffffffff0000199515156101000261ffff1990971660ff98891617969096179490941694909417919091179290921617909255835160a081018552908a168152938401829052600192840192909252600a9183019190915291810182905290600b9060066007811115610304576103046106e6565b8152602080820192909252604090810160009081208451815486860151878601516060808a015160809a8b015115156701000000000000000260ff60381b1963ffffffff90921663010000000266ffffffff0000001994151562010000029490941666ffffffffff0000199515156101000261ffff1990971660ff98891617969096179490941694909417919091179290921617909255835160a08101855290891681529384018290526001928401839052600a908401529282015290600b90600360078111156103d7576103d76106e6565b8152602080820192909252604090810160009081208451815486860151878601516060808a015160809a8b015115156701000000000000000260ff60381b1963ffffffff90921663010000000266ffffffff0000001994151562010000029490941666ffffffffff0000199515156101000261ffff1990971660ff98891617969096179490941694909417919091179290921617909255835160a08101855290881681529384018290526001928401839052600a908401529282015290600b90600460078111156104aa576104aa6106e6565b8152602080820192909252604090810160009081208451815486860151878601516060808a015160809a8b015115156701000000000000000260ff60381b1963ffffffff90921663010000000266ffffffff0000001994151562010000029490941666ffffffffff0000199515156101000261ffff1990971660ff98891617969096179490941694909417919091179290921617909255835160a08101855290871681529384018290526001928401839052600a908401529282015290600b906005600781111561057d5761057d6106e6565b81526020808201929092526040908101600020835181549385015192850151606086015160809096015115156701000000000000000260ff60381b1963ffffffff90971663010000000266ffffffff0000001992151562010000029290921666ffffffffff0000199515156101000261ffff1990971660ff909416939093179590951793909316179190911792909216179055506106fc9350505050565b600080546001600160a01b038381166001600160a01b0319831681178455604051919092169283917f8be0079c531659141344cd1fd0a4f28419497f9722a3daafe3b4186f6b6457e09190a35050565b805160ff8116811461067c57600080fd5b919050565b600080600080600060a0868803121561069957600080fd5b6106a28661066b565b94506106b06020870161066b565b93506106be6040870161066b565b92506106cc6060870161066b565b91506106da6080870161066b565b90509295509295909350565b634e487b7160e01b600052602160045260246000fd5b6129af8061070b6000396000f3fe608060405234801561001057600080fd5b506004361061021c5760003560e01c80637b334154116101255780639c3eead9116100ad578063b8a481eb1161007c578063b8a481eb146106be578063deffb906146106d1578063e838dfbb146106d9578063f2fde38b14610705578063ff7890951461071857600080fd5b80639c3eead91461064f578063a1dcdb2214610662578063a68012581461067f578063a7771ee3146106ab57600080fd5b806392220142116100f457806392220142146105aa5780639497c608146105bd5780639547f953146105d0578063959ef1d21461063457806398c079381461064757600080fd5b80637b334154146105505780637ccfdba7146105735780638da5cb5b146105865780638f93716f1461059757600080fd5b806340e972d0116101a8578063609d7c2411610177578063609d7c24146104b45780636101bf21146104e25780636ba13a82146104f55780636f77926b1461050f578063715018a61461054857600080fd5b806340e972d01461040057806358f43f76146104135780635b0abfb11461046a5780635b2b62a11461048d57600080fd5b80632115c634116101ef5780632115c634146103275780632b17b8be1461035e5780632f22dc7b1461037e578063306cda55146103a75780633974b345146103d557600080fd5b806304521ca314610221578063064505ad146102365780630ed4ea5e1461025f5780631eb2c120146102e6575b600080fd5b61023461022f36600461227a565b61072b565b005b6102496102443660046122ad565b610761565b60405161025691906122c8565b60405180910390f35b6102ad61026d366004612323565b600b6020526000908152604090205460ff80821691610100810482169162010000820481169163ffffffff630100000082041691600160381b9091041685565b6040805160ff909616865293151560208601529115159284019290925263ffffffff90911660608301521515608082015260a001610256565b61030f6102f4366004612323565b600a602052600090815260409020546001600160401b031681565b6040516001600160401b039091168152602001610256565b61034b6103353660046122ad565b600c6020526000908152604090205461ffff1681565b60405161ffff9091168152602001610256565b61037161036c3660046122ad565b6107ff565b6040516102569190612376565b61030f61038c366004612323565b6009602052600090815260409020546001600160401b031681565b6103c76103b53660046122ad565b600d6020526000908152604090205481565b604051908152602001610256565b6010546103e8906001600160a01b031681565b6040516001600160a01b039091168152602001610256565b61023461040e3660046123cf565b61089e565b61045a6104213660046122ad565b6008602052600090815260409020805460018201546002909201546001600160a01b039182169291821691600160a01b900460ff169084565b604051610256949392919061240b565b61047d6104783660046122ad565b610c15565b6040519015158152602001610256565b6104a061049b36600461243f565b610c63565b60405161025698979695949392919061249e565b61047d6104c236600461250d565b600760209081526000928352604080842090915290825290205460ff1681565b6102346104f03660046122ad565b610dce565b60025461030f90600160401b90046001600160401b031681565b61053b61051d3660046122ad565b6001600160a01b031660009081526003602052604090205460ff1690565b6040516102569190612529565b610234610e43565b61047d61055e3660046122ad565b60016020526000908152604090205460ff1681565b610234610581366004612537565b610e57565b6000546001600160a01b03166103e8565b6102346105a53660046122ad565b611178565b60025461030f906001600160401b031681565b61047d6105cb36600461257a565b6111a7565b6105e36105de366004612323565b611215565b6040516102569190600060a08201905060ff835116825260208301511515602083015260408301511515604083015263ffffffff606084015116606083015260808301511515608083015292915050565b6102346106423660046122ad565b6112d6565b6103c76113fe565b61023461065d366004612596565b6114d3565b61066a609681565b60405163ffffffff9091168152602001610256565b61047d61068d3660046122ad565b6001600160a01b031660009081526001602052604090205460ff1690565b61047d6106b93660046122ad565b611953565b600f546103e8906001600160a01b031681565b61066a600a81565b61047d6106e73660046122ad565b6001600160a01b031660009081526004602052604090205460ff1690565b6102346107133660046122ad565b6119ab565b610234610726366004612663565b6119e6565b610733611f2d565b600f80546001600160a01b039384166001600160a01b03199182161790915560108054929093169116179055565b6001600160a01b0381166000908152600560209081526040918290208054835181840281018401909452808452606093928301828280156107f357602002820191906000526020600020906000905b82829054906101000a90046001600160401b03166001600160401b0316815260200190600801906020826007010492830192600103820291508084116107b05790505b50505050509050919050565b604080516080808201835260008083526020808401829052838501829052606084018290526001600160a01b0386811683526008825291859020855193840186528054831684526001810154928316918401919091529293919291830190600160a01b900460ff1660078111156108785761087861233e565b60078111156108895761088961233e565b81526020016002820154815250509050919050565b6001600160401b0380831660009081526006602052604081208054909216900361090f5760405162461bcd60e51b815260206004820152601760248201527f44656c6174696f6e20646f6573206e6f7420657869737400000000000000000060448201526064015b60405180910390fd5b3360009081526003602052604081205460ff1660078111156109335761093361233e565b0361097c5760405162461bcd60e51b815260206004820152601960248201527810d85b1b195c881b5d5cdd081899481c9959da5cdd195c9959603a1b6044820152606401610906565b60073360009081526003602052604090205460ff1660078111156109a2576109a261233e565b036109eb5760405162461bcd60e51b81526020600482015260196024820152784e6f7420616c6c6f77656420746f20737570706f727465727360381b6044820152606401610906565b3360009081526004602052604090205460ff1615610a395760405162461bcd60e51b815260206004820152600b60248201526a155cd95c8819195b9a595960aa1b6044820152606401610906565b8054600160401b90046001600160a01b03163303610a905760405162461bcd60e51b8152602060048201526014602482015273496e666f726d65722063616e6e6f7420766f746560601b6044820152606401610906565b60018101546001600160a01b03163303610aec5760405162461bcd60e51b815260206004820152601960248201527f5265706f7274656420757365722063616e6e6f7420766f7465000000000000006044820152606401610906565b6001600160401b038316600090815260076020908152604080832033845290915290205460ff1615610b505760405162461bcd60e51b815260206004820152600d60248201526c105b1c9958591e481d9bdd1959609a1b6044820152606401610906565b6001600160401b03831660009081526007602090815260408083203384529091529020805460ff191660011790558115610ba057600581018054906000610b96836126f0565b9190505550610bb8565b600681018054906000610bb2836126f0565b91905055505b60058101546006820154604080518515158152602081019390935282015233906001600160401b038516907f07c734e1752c9260d550c708685673ab3cf5d1a0755d9a68ce3f43fd69d3eb249060600160405180910390a3505050565b6001600160a01b0381166000908152600d60205260408120541580610c5d57506001600160a01b0382166000908152600d6020526040902054610c5a90600590612709565b43115b92915050565b6006602052600090815260409020805460018201546002830180546001600160401b03841694600160401b9094046001600160a01b03908116949316929190610cab9061271c565b80601f0160208091040260200160405190810160405280929190818152602001828054610cd79061271c565b8015610d245780601f10610cf957610100808354040283529160200191610d24565b820191906000526020600020905b815481529060010190602001808311610d0757829003601f168201915b505050505090806003018054610d399061271c565b80601f0160208091040260200160405190810160405280929190818152602001828054610d659061271c565b8015610db25780601f10610d8757610100808354040283529160200191610db2565b820191906000526020600020905b815481529060010190602001808311610d9557829003601f168201915b5050505050908060040154908060050154908060060154905088565b3360009081526001602052604090205460ff16610dfd5760405162461bcd60e51b815260040161090690612756565b6001600160a01b0381166000908152600c60205260408120805461ffff1691610e2583612782565b91906101000a81548161ffff021916908361ffff1602179055505050565b610e4b611f2d565b610e556000611f5a565b565b3360009081526001602052604090205460ff16610e865760405162461bcd60e51b815260040161090690612756565b600f546001600160a01b0316338114610ee15760405162461bcd60e51b815260206004820152601e60248201527f43616c6c6572206d7573742062652073797374656d20636f6e747261637400006044820152606401610906565b6001600160a01b038316610f375760405162461bcd60e51b815260206004820152601e60248201527f496e766974656420616464726573732063616e6e6f74206265207a65726f00006044820152606401610906565b6001600160a01b038381166000908152600860205260409020541615610f915760405162461bcd60e51b815260206004820152600f60248201526e105b1c9958591e481a5b9d9a5d1959608a1b6044820152606401610906565b6001600160a01b03831660009081526003602052604081205460ff166007811115610fbe57610fbe61233e565b146110005760405162461bcd60e51b8152602060048201526012602482015271105b1c9958591e481c9959da5cdd195c995960721b6044820152606401610906565b60008260078111156110145761101461233e565b036110615760405162461bcd60e51b815260206004820181905260248201527f496e76616c69642075736572207479706520666f7220696e7669746174696f6e6044820152606401610906565b6040518060800160405280846001600160a01b03168152602001856001600160a01b0316815260200183600781111561109c5761109c61233e565b8152436020918201526001600160a01b03808616600090815260088352604090819020845181549084166001600160a01b03199182161782559385015160018201805491909416948116851784559185015190939092916001600160a81b03191617600160a01b8360078111156111155761111561233e565b021790555060608201518160020155905050826001600160a01b0316846001600160a01b03167f3aed71ce4143148a406a002376059e9cb31ad2e3c9b2a431fc106d4be03f20478460405161116a9190612529565b60405180910390a350505050565b611180611f2d565b6001600160a01b03166000908152600160208190526040909120805460ff19169091179055565b60008260078111156111bb576111bb61233e565b6001600160a01b03831660009081526003602052604090205460ff1660078111156111e8576111e861233e565b14801561120e57506001600160a01b03821660009081526004602052604090205460ff16155b9392505050565b6040805160a081018252600080825260208201819052918101829052606081018290526080810191909152600b60008360078111156112565761125661233e565b60078111156112675761126761233e565b81526020808201929092526040908101600020815160a081018352905460ff808216835261010082048116151594830194909452620100008104841615159282019290925263ffffffff63010000008304166060820152600160381b9091049091161515608082015292915050565b3360009081526001602052604090205460ff166113055760405162461bcd60e51b815260040161090690612756565b6001600160a01b03811660009081526004602052604090205460ff166113fb576001600160a01b0381166000908152600360205260408120546009919060ff1660078111156113565761135661233e565b60078111156113675761136761233e565b81526020810191909152604001600090812080546001600160401b03169161138e836127a3565b82546001600160401b039182166101009390930a9283029190920219909116179055506001600160a01b038116600081815260046020526040808220805460ff19166001179055517f4e283ac74dcfce6ff8dd078cc60000ae1deac4f6ae889f87268c6ed2fd0404d89190a25b50565b60096020527fc575c31fea594a6eb97c8e9d3f9caee4c16218c6ef37e923234c0fe9014a61e7547f8dc18c4ccfd75f5c815b63770fa542fd953e8fef7e0e44bbdd4913470ce7e9cb547f74b05292d1d4b2b48b65261b07099d24244bcb069f138d9a6bfdcf776becac4c54600660009081527fbb6daa0c283751197dfdc76590680f9005e97d6f23870deb1164ab60b28b9f5f5490936001600160401b03908116938116926114b19290821691166127c6565b6114bb91906127c6565b6114c591906127c6565b6001600160401b0316905090565b3360009081526001602052604090205460ff166115025760405162461bcd60e51b815260040161090690612756565b6001600160a01b0382166115585760405162461bcd60e51b815260206004820152601b60248201527f5573657220616464726573732063616e6e6f74206265207a65726f00000000006044820152606401610906565b6001600160a01b03821660009081526003602052604081205460ff1660078111156115855761158561233e565b146115c85760405162461bcd60e51b81526020600482015260136024820152725573657220616c72656164792065786973747360681b6044820152606401610906565b60008160078111156115dc576115dc61233e565b0361161d5760405162461bcd60e51b8152602060048201526011602482015270496e76616c69642075736572207479706560781b6044820152606401610906565b61162681611faa565b6116725760405162461bcd60e51b815260206004820152601760248201527f50726f706f7274696f6e616c69747920696e76616c69640000000000000000006044820152606401610906565b61167c8282612150565b6116bd5760405162461bcd60e51b815260206004820152601260248201527124b73b30b634b21034b73b34ba30ba34b7b760711b6044820152606401610906565b6001600160a01b03828116600090815260086020908152604080832060010154909316825260049052205460ff16156117295760405162461bcd60e51b815260206004820152600e60248201526d125b9d9a5d195c8819195b9a595960921b6044820152606401610906565b6001600160a01b038281166000908152600860209081526040808320600101549093168252600c90522054600261ffff909116106117a95760405162461bcd60e51b815260206004820152601f60248201527f496e7669746572207769746820746f6f206d616e792070656e616c74696573006044820152606401610906565b6001600160a01b0382166000908152600360205260409020805482919060ff191660018360078111156117de576117de61233e565b021790555060028054600160401b90046001600160401b0316906008611803836127e5565b91906101000a8154816001600160401b0302191690836001600160401b03160217905550506009600082600781111561183e5761183e61233e565b600781111561184f5761184f61233e565b81526020810191909152604001600090812080546001600160401b031691611876836127e5565b91906101000a8154816001600160401b0302191690836001600160401b0316021790555050600a60008260078111156118b1576118b161233e565b60078111156118c2576118c261233e565b81526020810191909152604001600090812080546001600160401b0316916118e9836127e5565b91906101000a8154816001600160401b0302191690836001600160401b0316021790555050816001600160a01b03167f8e18574f8a7333e6a87112742a55853a643e2f0550f4e1a3a2c3f1bb2994441d826040516119479190612529565b60405180910390a25050565b6001600160a01b03811660009081526004602052604081205460ff161561197c57506000919050565b6001600160a01b0382166000908152600360205260409020546119a19060ff16611215565b6080015192915050565b6119b3611f2d565b6001600160a01b0381166119dd57604051631e4fbdf760e01b815260006004820152602401610906565b6113fb81611f5a565b81516064108015906119fb5750805161012c10155b611a405760405162461bcd60e51b815260206004820152601660248201527513585e0818da185c9858dd195c9cc81c995858da195960521b6044820152606401610906565b3360009081526004602052604090205460ff1615611a8e5760405162461bcd60e51b815260206004820152600b60248201526a155cd95c8819195b9a595960aa1b6044820152606401610906565b611a9733610c15565b611ad75760405162461bcd60e51b8152602060048201526011602482015270576169742064656c617920626c6f636b7360781b6044820152606401610906565b3360009081526003602052604081205460ff166007811115611afb57611afb61233e565b03611b445760405162461bcd60e51b815260206004820152601960248201527810d85b1b195c881b5d5cdd081899481c9959da5cdd195c9959603a1b6044820152606401610906565b60073360009081526003602052604090205460ff166007811115611b6a57611b6a61233e565b03611bb35760405162461bcd60e51b81526020600482015260196024820152784e6f7420616c6c6f77656420746f20737570706f727465727360381b6044820152606401610906565b6001600160a01b03831660009081526003602052604081205460ff166007811115611be057611be061233e565b03611c2d5760405162461bcd60e51b815260206004820152601760248201527f55736572206d75737420626520726567697374657265640000000000000000006044820152606401610906565b6001600160a01b038316611c835760405162461bcd60e51b815260206004820152601a60248201527f43616e6e6f742064656c617465207a65726f20616464726573730000000000006044820152606401610906565b336001600160a01b03841603611cdb5760405162461bcd60e51b815260206004820152601d60248201527f53656c662d64656e756e63696174696f6e206e6f7420616c6c6f7765640000006044820152606401610906565b336000908152600e602090815260408083206001600160a01b038716845290915290205460ff1615611d435760405162461bcd60e51b8152602060048201526011602482015270105b1c9958591e481cdd589b5a5d1d1959607a1b6044820152606401610906565b336000818152600e602090815260408083206001600160a01b03881684528252808320805460ff19166001179055928252600d9052908120439055600280546001600160401b031691611d95836127e5565b825461010092830a6001600160401b03818102199092169282160291909117909255600280546040805180850182529185168083523360208085019182526001600160a01b038c8116868601818152606088018e8152608089018e90524360a08a0152600060c08a0181905260e08a0181905292835260058552878320805460018181018355918552868520600482040180546003909216600802909d0a808f021990911690890217909b5586835260069094529590208651815494519a166001600160e01b031990941693909317600160401b99821699909902989098178255925195810180546001600160a01b03191696909716959095179095555193945092839291820190611ea79082612856565b5060808201516003820190611ebc9082612856565b5060a0820151600482015560c0820151600582015560e0909101516006909101556040516001600160401b03831681526001600160a01b0386169033907f189a77cbe3dec0697e2a3b90dc61ee5a0271739d521848b871170224328f7a889060200160405180910390a35050505050565b6000546001600160a01b03163314610e555760405163118cdaa760e01b8152336004820152602401610906565b600080546001600160a01b038381166001600160a01b0319831681178455604051919092169283917f8be0079c531659141344cd1fd0a4f28419497f9722a3daafe3b4186f6b6457e09190a35050565b60016000908152600960208190527f92e85d02570a8092d09a6e3a57665bc3815a2699a4074001bf1ccabf660f5a36546001600160401b031690829081856007811115611ff957611ff961233e565b600781111561200a5761200a61233e565b815260208101919091526040016000908120546001600160401b03169150600b8186600781111561203d5761203d61233e565b600781111561204e5761204e61233e565b815260208082019290925260409081016000908120825160a081018452905460ff80821680845261010083048216151596840196909652620100008204811615159483019490945263ffffffff63010000008204166060830152600160381b9004909216151560808301529092508190036120cf5750600195945050505050565b60056001600160401b03841610156120ed5750600195945050505050565b8160200151156121235761210460ff821685612914565b6001600160401b0316836001600160401b031610945050505050919050565b61213060ff82168561293d565b6001600160401b0316836001600160401b03161115945050505050919050565b6000600b60008360078111156121685761216861233e565b60078111156121795761217961233e565b815260208101919091526040016000205462010000900460ff1661219f57506001610c5d565b6001600160a01b0383811660009081526008602090815260408083208151608081018352815486168152600182015495861693810193909352929391929190830190600160a01b900460ff1660078111156121fc576121fc61233e565b600781111561220d5761220d61233e565b8152602001600282015481525050905060008160600151118015612256575082600781111561223e5761223e61233e565b816040015160078111156122545761225461233e565b145b949350505050565b80356001600160a01b038116811461227557600080fd5b919050565b6000806040838503121561228d57600080fd5b6122968361225e565b91506122a46020840161225e565b90509250929050565b6000602082840312156122bf57600080fd5b61120e8261225e565b602080825282518282018190526000918401906040840190835b818110156123095783516001600160401b03168352602093840193909201916001016122e2565b509095945050505050565b80356008811061227557600080fd5b60006020828403121561233557600080fd5b61120e82612314565b634e487b7160e01b600052602160045260246000fd5b6008811061237257634e487b7160e01b600052602160045260246000fd5b9052565b81516001600160a01b0390811682526020808401519091169082015260408083015160808301916123a990840182612354565b50606092830151919092015290565b80356001600160401b038116811461227557600080fd5b600080604083850312156123e257600080fd5b6123eb836123b8565b91506020830135801515811461240057600080fd5b809150509250929050565b6001600160a01b03858116825284166020820152608081016124306040830185612354565b82606083015295945050505050565b60006020828403121561245157600080fd5b5035919050565b6000815180845260005b8181101561247e57602081850181015186830182015201612462565b506000602082860101526020601f19601f83011685010191505092915050565b6001600160401b03891681526001600160a01b03888116602083015287166040820152610100606082018190526000906124da90830188612458565b82810360808401526124ec8188612458565b60a0840196909652505060c081019290925260e09091015295945050505050565b6000806040838503121561252057600080fd5b612296836123b8565b60208101610c5d8284612354565b60008060006060848603121561254c57600080fd5b6125558461225e565b92506125636020850161225e565b915061257160408501612314565b90509250925092565b6000806040838503121561258d57600080fd5b61229683612314565b600080604083850312156125a957600080fd5b6125b28361225e565b91506122a460208401612314565b634e487b7160e01b600052604160045260246000fd5b600082601f8301126125e757600080fd5b81356001600160401b03811115612600576126006125c0565b604051601f8201601f19908116603f011681016001600160401b038111828210171561262e5761262e6125c0565b60405281815283820160200185101561264657600080fd5b816020850160208301376000918101602001919091529392505050565b60008060006060848603121561267857600080fd5b6126818461225e565b925060208401356001600160401b0381111561269c57600080fd5b6126a8868287016125d6565b92505060408401356001600160401b038111156126c457600080fd5b6126d0868287016125d6565b9150509250925092565b634e487b7160e01b600052601160045260246000fd5b600060018201612702576127026126da565b5060010190565b80820180821115610c5d57610c5d6126da565b600181811c9082168061273057607f821691505b60208210810361275057634e487b7160e01b600052602260045260246000fd5b50919050565b6020808252601290820152712737ba1030b63637bbb2b21031b0b63632b960711b604082015260600190565b600061ffff821661ffff810361279a5761279a6126da565b60010192915050565b60006001600160401b038216806127bc576127bc6126da565b6000190192915050565b6001600160401b038181168382160190811115610c5d57610c5d6126da565b60006001600160401b0382166001600160401b03810361279a5761279a6126da565b601f82111561285157806000526020600020601f840160051c8101602085101561282e5750805b601f840160051c820191505b8181101561284e576000815560010161283a565b50505b505050565b81516001600160401b0381111561286f5761286f6125c0565b6128838161287d845461271c565b84612807565b6020601f8211600181146128b7576000831561289f5750848201515b600019600385901b1c1916600184901b17845561284e565b600084815260208120601f198516915b828110156128e757878501518255602094850194600190920191016128c7565b50848210156129055786840151600019600387901b60f8161c191681555b50505050600190811b01905550565b6001600160401b038181168382160290811690818114612936576129366126da565b5092915050565b60006001600160401b0383168061296457634e487b7160e01b600052601260045260246000fd5b806001600160401b038416049150509291505056fea2646970667358221220e7eb020781b5ce87559b108f60e5b05e48ef7b7fe2e2f292d2bce5460618400164736f6c634300081b0033",
  "linkReferences": {},
  "deployedLinkReferences": {}
}