{
  "_format": "hh-sol-artifact-1",
  "contractName": "CommunityRules",
  "sourceName": "contracts/CommunityRules.sol",
  "abi": [
    {
      "inputs": [
        {
          "internalType": "uint256",
          "name": "inspectorProportionality",
          "type": "uint256"
        },
        {
          "internalType": "uint256",
          "name": "activistProportionality",
          "type": "uint256"
        },
        {
          "internalType": "uint256",
          "name": "researcherProportionality",
          "type": "uint256"
        },
        {
          "internalType": "uint256",
          "name": "developerProportionality",
          "type": "uint256"
        },
        {
          "internalType": "uint256",
          "name": "validatorProportionality",
          "type": "uint256"
        },
        {
          "internalType": "uint256",
          "name": "contributorProportionality",
          "type": "uint256"
        }
      ],
      "stateMutability": "nonpayable",
      "type": "constructor"
    },
    {
      "anonymous": false,
      "inputs": [
        {
          "indexed": false,
          "internalType": "address",
          "name": "informer",
          "type": "address"
        },
        {
          "indexed": false,
          "internalType": "address",
          "name": "reported",
          "type": "address"
        }
      ],
      "name": "AddDelelationEvent",
      "type": "event"
    },
    {
      "anonymous": false,
      "inputs": [
        {
          "indexed": false,
          "internalType": "address",
          "name": "inviter",
          "type": "address"
        },
        {
          "indexed": false,
          "internalType": "address",
          "name": "invited",
          "type": "address"
        },
        {
          "indexed": false,
          "internalType": "enum UserType",
          "name": "userTypeTo",
          "type": "uint8"
        }
      ],
      "name": "AddInvitationEvent",
      "type": "event"
    },
    {
      "anonymous": false,
      "inputs": [
        {
          "indexed": false,
          "internalType": "address",
          "name": "addr",
          "type": "address"
        },
        {
          "indexed": false,
          "internalType": "enum UserType",
          "name": "userType",
          "type": "uint8"
        }
      ],
      "name": "AddUserEvent",
      "type": "event"
    },
    {
      "anonymous": false,
      "inputs": [
        {
          "indexed": false,
          "internalType": "address",
          "name": "addr",
          "type": "address"
        }
      ],
      "name": "DeniedUserEevent",
      "type": "event"
    },
    {
      "anonymous": false,
      "inputs": [
        {
          "indexed": true,
          "internalType": "address",
          "name": "previousOwner",
          "type": "address"
        },
        {
          "indexed": true,
          "internalType": "address",
          "name": "newOwner",
          "type": "address"
        }
      ],
      "name": "OwnershipTransferred",
      "type": "event"
    },
    {
      "inputs": [],
      "name": "MINIMUM_REGISTERED_USERS_QUANTITY",
      "outputs": [
        {
          "internalType": "uint256",
          "name": "",
          "type": "uint256"
        }
      ],
      "stateMutability": "view",
      "type": "function"
    },
    {
      "inputs": [
        {
          "internalType": "address",
          "name": "addr",
          "type": "address"
        },
        {
          "internalType": "string",
          "name": "title",
          "type": "string"
        },
        {
          "internalType": "string",
          "name": "testimony",
          "type": "string"
        }
      ],
      "name": "addDelation",
      "outputs": [],
      "stateMutability": "nonpayable",
      "type": "function"
    },
    {
      "inputs": [
        {
          "internalType": "address",
          "name": "inviter",
          "type": "address"
        },
        {
          "internalType": "address",
          "name": "invited",
          "type": "address"
        },
        {
          "internalType": "enum UserType",
          "name": "userType",
          "type": "uint8"
        }
      ],
      "name": "addInvitation",
      "outputs": [],
      "stateMutability": "nonpayable",
      "type": "function"
    },
    {
      "inputs": [
        {
          "internalType": "address",
          "name": "addr",
          "type": "address"
        },
        {
          "internalType": "enum UserType",
          "name": "userType",
          "type": "uint8"
        }
      ],
      "name": "addUser",
      "outputs": [],
      "stateMutability": "nonpayable",
      "type": "function"
    },
    {
      "inputs": [
        {
          "internalType": "address",
          "name": "",
          "type": "address"
        }
      ],
      "name": "allowedCallers",
      "outputs": [
        {
          "internalType": "bool",
          "name": "",
          "type": "bool"
        }
      ],
      "stateMutability": "view",
      "type": "function"
    },
    {
      "inputs": [],
      "name": "delationsCount",
      "outputs": [
        {
          "internalType": "uint256",
          "name": "",
          "type": "uint256"
        }
      ],
      "stateMutability": "view",
      "type": "function"
    },
    {
      "inputs": [
        {
          "internalType": "address",
          "name": "addr",
          "type": "address"
        }
      ],
      "name": "getInvitation",
      "outputs": [
        {
          "components": [
            {
              "internalType": "address",
              "name": "invited",
              "type": "address"
            },
            {
              "internalType": "address",
              "name": "inviter",
              "type": "address"
            },
            {
              "internalType": "enum UserType",
              "name": "userType",
              "type": "uint8"
            },
            {
              "internalType": "uint256",
              "name": "createdAtBlock",
              "type": "uint256"
            }
          ],
          "internalType": "struct Invitation",
          "name": "",
          "type": "tuple"
        }
      ],
      "stateMutability": "view",
      "type": "function"
    },
    {
      "inputs": [
        {
          "internalType": "address",
          "name": "addr",
          "type": "address"
        }
      ],
      "name": "getUser",
      "outputs": [
        {
          "internalType": "enum UserType",
          "name": "",
          "type": "uint8"
        }
      ],
      "stateMutability": "view",
      "type": "function"
    },
    {
      "inputs": [
        {
          "internalType": "address",
          "name": "addr",
          "type": "address"
        }
      ],
      "name": "getUserDelations",
      "outputs": [
        {
          "components": [
            {
              "internalType": "uint256",
              "name": "id",
              "type": "uint256"
            },
            {
              "internalType": "address",
              "name": "informer",
              "type": "address"
            },
            {
              "internalType": "address",
              "name": "reported",
              "type": "address"
            },
            {
              "internalType": "string",
              "name": "title",
              "type": "string"
            },
            {
              "internalType": "string",
              "name": "testimony",
              "type": "string"
            }
          ],
          "internalType": "struct Delation[]",
          "name": "",
          "type": "tuple[]"
        }
      ],
      "stateMutability": "view",
      "type": "function"
    },
    {
      "inputs": [
        {
          "internalType": "enum UserType",
          "name": "userType",
          "type": "uint8"
        }
      ],
      "name": "getUserTypeSettings",
      "outputs": [
        {
          "components": [
            {
              "internalType": "uint256",
              "name": "proportionalityOnRegister",
              "type": "uint256"
            },
            {
              "internalType": "bool",
              "name": "directProportionalityRegistration",
              "type": "bool"
            },
            {
              "internalType": "bool",
              "name": "needInvitationOnRegister",
              "type": "bool"
            },
            {
              "internalType": "uint256",
              "name": "invitationDelayBlocks",
              "type": "uint256"
            }
          ],
          "internalType": "struct UserTypeSetting",
          "name": "",
          "type": "tuple"
        }
      ],
      "stateMutability": "view",
      "type": "function"
    },
    {
      "inputs": [
        {
          "internalType": "address",
          "name": "",
          "type": "address"
        }
      ],
      "name": "invitations",
      "outputs": [
        {
          "internalType": "address",
          "name": "invited",
          "type": "address"
        },
        {
          "internalType": "address",
          "name": "inviter",
          "type": "address"
        },
        {
          "internalType": "enum UserType",
          "name": "userType",
          "type": "uint8"
        },
        {
          "internalType": "uint256",
          "name": "createdAtBlock",
          "type": "uint256"
        }
      ],
      "stateMutability": "view",
      "type": "function"
    },
    {
      "inputs": [
        {
          "internalType": "address",
          "name": "caller",
          "type": "address"
        }
      ],
      "name": "isAllowedCaller",
      "outputs": [
        {
          "internalType": "bool",
          "name": "",
          "type": "bool"
        }
      ],
      "stateMutability": "view",
      "type": "function"
    },
    {
      "inputs": [
        {
          "internalType": "address",
          "name": "allowed",
          "type": "address"
        }
      ],
      "name": "newAllowedCaller",
      "outputs": [],
      "stateMutability": "nonpayable",
      "type": "function"
    },
    {
      "inputs": [],
      "name": "owner",
      "outputs": [
        {
          "internalType": "address",
          "name": "",
          "type": "address"
        }
      ],
      "stateMutability": "view",
      "type": "function"
    },
    {
      "inputs": [],
      "name": "renounceOwnership",
      "outputs": [],
      "stateMutability": "nonpayable",
      "type": "function"
    },
    {
      "inputs": [
        {
          "internalType": "address",
          "name": "userAddress",
          "type": "address"
        }
      ],
      "name": "setDeniedType",
      "outputs": [],
      "stateMutability": "nonpayable",
      "type": "function"
    },
    {
      "inputs": [
        {
          "internalType": "address",
          "name": "newOwner",
          "type": "address"
        }
      ],
      "name": "transferOwnership",
      "outputs": [],
      "stateMutability": "nonpayable",
      "type": "function"
    },
    {
      "inputs": [
        {
          "internalType": "enum UserType",
          "name": "userType",
          "type": "uint8"
        },
        {
          "internalType": "address",
          "name": "userAddress",
          "type": "address"
        }
      ],
      "name": "userTypeIs",
      "outputs": [
        {
          "internalType": "bool",
          "name": "",
          "type": "bool"
        }
      ],
      "stateMutability": "view",
      "type": "function"
    },
    {
      "inputs": [
        {
          "internalType": "enum UserType",
          "name": "",
          "type": "uint8"
        }
      ],
      "name": "userTypeSettings",
      "outputs": [
        {
          "internalType": "uint256",
          "name": "proportionalityOnRegister",
          "type": "uint256"
        },
        {
          "internalType": "bool",
          "name": "directProportionalityRegistration",
          "type": "bool"
        },
        {
          "internalType": "bool",
          "name": "needInvitationOnRegister",
          "type": "bool"
        },
        {
          "internalType": "uint256",
          "name": "invitationDelayBlocks",
          "type": "uint256"
        }
      ],
      "stateMutability": "view",
      "type": "function"
    },
    {
      "inputs": [
        {
          "internalType": "enum UserType",
          "name": "",
          "type": "uint8"
        }
      ],
      "name": "userTypesCount",
      "outputs": [
        {
          "internalType": "uint256",
          "name": "",
          "type": "uint256"
        }
      ],
      "stateMutability": "view",
      "type": "function"
    },
    {
      "inputs": [
        {
          "internalType": "enum UserType",
          "name": "",
          "type": "uint8"
        }
      ],
      "name": "userTypesTotalCount",
      "outputs": [
        {
          "internalType": "uint256",
          "name": "",
          "type": "uint256"
        }
      ],
      "stateMutability": "view",
      "type": "function"
    },
    {
      "inputs": [],
      "name": "usersCount",
      "outputs": [
        {
          "internalType": "uint256",
          "name": "",
          "type": "uint256"
        }
      ],
      "stateMutability": "view",
      "type": "function"
    }
  ],
  "bytecode": "0x608060405234801561001057600080fd5b506040516137473803806137478339818101604052810190610032919061066c565b61004e61004361056560201b60201c565b61056d60201b60201c565b6040518060800160405280600081526020016000151581526020016001151581526020016000815250600760006001600981111561008f5761008e6106f9565b5b60098111156100a1576100a06106f9565b5b81526020019081526020016000206000820151816000015560208201518160010160006101000a81548160ff02191690831515021790555060408201518160010160016101000a81548160ff02191690831515021790555060608201518160020155905050604051806080016040528087815260200160011515815260200160011515815260200160008152506007600060026009811115610146576101456106f9565b5b6009811115610158576101576106f9565b5b81526020019081526020016000206000820151816000015560208201518160010160006101000a81548160ff02191690831515021790555060408201518160010160016101000a81548160ff021916908315150217905550606082015181600201559050506040518060800160405280868152602001600015158152602001600115158152602001620186a081525060076000600660098111156101ff576101fe6106f9565b5b6009811115610211576102106106f9565b5b81526020019081526020016000206000820151816000015560208201518160010160006101000a81548160ff02191690831515021790555060408201518160010160016101000a81548160ff02191690831515021790555060608201518160020155905050604051806080016040528085815260200160001515815260200160011515815260200162030d4081525060076000600360098111156102b8576102b76106f9565b5b60098111156102ca576102c96106f9565b5b81526020019081526020016000206000820151816000015560208201518160010160006101000a81548160ff02191690831515021790555060408201518160010160016101000a81548160ff02191690831515021790555060608201518160020155905050604051806080016040528084815260200160001515815260200160011515815260200162030d408152506007600060046009811115610371576103706106f9565b5b6009811115610383576103826106f9565b5b81526020019081526020016000206000820151816000015560208201518160010160006101000a81548160ff02191690831515021790555060408201518160010160016101000a81548160ff021916908315150217905550606082015181600201559050506040518060800160405280828152602001600015158152602001600115158152602001620186a0815250600760006005600981111561042a576104296106f9565b5b600981111561043c5761043b6106f9565b5b81526020019081526020016000206000820151816000015560208201518160010160006101000a81548160ff02191690831515021790555060408201518160010160016101000a81548160ff021916908315150217905550606082015181600201559050506040518060800160405280838152602001600015158152602001600115158152602001620f424081525060076000600860098111156104e3576104e26106f9565b5b60098111156104f5576104f46106f9565b5b81526020019081526020016000206000820151816000015560208201518160010160006101000a81548160ff02191690831515021790555060408201518160010160016101000a81548160ff02191690831515021790555060608201518160020155905050505050505050610728565b600033905090565b60008060009054906101000a900473ffffffffffffffffffffffffffffffffffffffff169050816000806101000a81548173ffffffffffffffffffffffffffffffffffffffff021916908373ffffffffffffffffffffffffffffffffffffffff1602179055508173ffffffffffffffffffffffffffffffffffffffff168173ffffffffffffffffffffffffffffffffffffffff167f8be0079c531659141344cd1fd0a4f28419497f9722a3daafe3b4186f6b6457e060405160405180910390a35050565b600080fd5b6000819050919050565b61064981610636565b811461065457600080fd5b50565b60008151905061066681610640565b92915050565b60008060008060008060c0878903121561068957610688610631565b5b600061069789828a01610657565b96505060206106a889828a01610657565b95505060406106b989828a01610657565b94505060606106ca89828a01610657565b93505060806106db89828a01610657565b92505060a06106ec89828a01610657565b9150509295509295509295565b7f4e487b7100000000000000000000000000000000000000000000000000000000600052602160045260246000fd5b613010806107376000396000f3fe608060405234801561001057600080fd5b50600436106101425760003560e01c80637ccfdba7116100b85780639547f9531161007c5780639547f953146103b75780639c3eead9146103e7578063a680125814610403578063e202fa4d14610433578063f2fde38b1461044f578063ff7890951461046b57610142565b80637ccfdba7146103135780638da5cb5b1461032f5780638f93716f1461034d57806392220142146103695780639497c6081461038757610142565b80632f22dc7b1161010a5780632f22dc7b1461022857806358f43f76146102585780636ba13a821461028b5780636f77926b146102a9578063715018a6146102d95780637b334154146102e357610142565b8063064505ad146101475780630ed4ea5e146101775780631eb2c120146101aa57806327127f5d146101da5780632b17b8be146101f8575b600080fd5b610161600480360381019061015c9190611e53565b610487565b60405161016e9190612077565b60405180910390f35b610191600480360381019061018c91906120be565b6106ff565b6040516101a19493929190612115565b60405180910390f35b6101c460048036038101906101bf91906120be565b610749565b6040516101d1919061215a565b60405180910390f35b6101e2610761565b6040516101ef919061215a565b60405180910390f35b610212600480360381019061020d9190611e53565b610766565b60405161021f9190612241565b60405180910390f35b610242600480360381019061023d91906120be565b6108b0565b60405161024f919061215a565b60405180910390f35b610272600480360381019061026d9190611e53565b6108c8565b604051610282949392919061227a565b60405180910390f35b610293610945565b6040516102a0919061215a565b60405180910390f35b6102c360048036038101906102be9190611e53565b61094b565b6040516102d091906122bf565b60405180910390f35b6102e16109a1565b005b6102fd60048036038101906102f89190611e53565b6109b5565b60405161030a91906122da565b60405180910390f35b61032d600480360381019061032891906122f5565b6109d5565b005b610337610d8e565b6040516103449190612348565b60405180910390f35b61036760048036038101906103629190611e53565b610db7565b005b610371610e19565b60405161037e919061215a565b60405180910390f35b6103a1600480360381019061039c9190612363565b610e1f565b6040516103ae91906122da565b60405180910390f35b6103d160048036038101906103cc91906120be565b610e9c565b6040516103de9190612407565b60405180910390f35b61040160048036038101906103fc9190612422565b610f37565b005b61041d60048036038101906104189190611e53565b6112c4565b60405161042a91906122da565b60405180910390f35b61044d60048036038101906104489190611e53565b61131a565b005b61046960048036038101906104649190611e53565b6114e1565b005b61048560048036038101906104809190612597565b611564565b005b6060600360008373ffffffffffffffffffffffffffffffffffffffff1673ffffffffffffffffffffffffffffffffffffffff168152602001908152602001600020805480602002602001604051908101604052809291908181526020016000905b828210156106f457838290600052602060002090600502016040518060a0016040529081600082015481526020016001820160009054906101000a900473ffffffffffffffffffffffffffffffffffffffff1673ffffffffffffffffffffffffffffffffffffffff1673ffffffffffffffffffffffffffffffffffffffff1681526020016002820160009054906101000a900473ffffffffffffffffffffffffffffffffffffffff1673ffffffffffffffffffffffffffffffffffffffff1673ffffffffffffffffffffffffffffffffffffffff1681526020016003820180546105d190612651565b80601f01602080910402602001604051908101604052809291908181526020018280546105fd90612651565b801561064a5780601f1061061f5761010080835404028352916020019161064a565b820191906000526020600020905b81548152906001019060200180831161062d57829003601f168201915b5050505050815260200160048201805461066390612651565b80601f016020809104026020016040519081016040528092919081815260200182805461068f90612651565b80156106dc5780601f106106b1576101008083540402835291602001916106dc565b820191906000526020600020905b8154815290600101906020018083116106bf57829003601f168201915b505050505081525050815260200190600101906104e8565b505050509050919050565b60076020528060005260406000206000915090508060000154908060010160009054906101000a900460ff16908060010160019054906101000a900460ff16908060020154905084565b60066020528060005260406000206000915090505481565b600581565b61076e611d4f565b600460008373ffffffffffffffffffffffffffffffffffffffff1673ffffffffffffffffffffffffffffffffffffffff1681526020019081526020016000206040518060800160405290816000820160009054906101000a900473ffffffffffffffffffffffffffffffffffffffff1673ffffffffffffffffffffffffffffffffffffffff1673ffffffffffffffffffffffffffffffffffffffff1681526020016001820160009054906101000a900473ffffffffffffffffffffffffffffffffffffffff1673ffffffffffffffffffffffffffffffffffffffff1673ffffffffffffffffffffffffffffffffffffffff1681526020016001820160149054906101000a900460ff16600981111561088957610888612175565b5b600981111561089b5761089a612175565b5b81526020016002820154815250509050919050565b60056020528060005260406000206000915090505481565b60046020528060005260406000206000915090508060000160009054906101000a900473ffffffffffffffffffffffffffffffffffffffff16908060010160009054906101000a900473ffffffffffffffffffffffffffffffffffffffff16908060010160149054906101000a900460ff16908060020154905084565b60095481565b6000600260008373ffffffffffffffffffffffffffffffffffffffff1673ffffffffffffffffffffffffffffffffffffffff16815260200190815260200160002060009054906101000a900460ff169050919050565b6109a96118af565b6109b3600061192d565b565b60016020528060005260406000206000915054906101000a900460ff1681565b600160003373ffffffffffffffffffffffffffffffffffffffff1673ffffffffffffffffffffffffffffffffffffffff16815260200190815260200160002060009054906101000a900460ff16610a61576040517f08c379a0000000000000000000000000000000000000000000000000000000008152600401610a58906126df565b60405180910390fd5b600073ffffffffffffffffffffffffffffffffffffffff16600460008473ffffffffffffffffffffffffffffffffffffffff1673ffffffffffffffffffffffffffffffffffffffff16815260200190815260200160002060000160009054906101000a900473ffffffffffffffffffffffffffffffffffffffff1673ffffffffffffffffffffffffffffffffffffffff1614610b32576040517f08c379a0000000000000000000000000000000000000000000000000000000008152600401610b299061274b565b60405180910390fd5b60006009811115610b4657610b45612175565b5b600260008473ffffffffffffffffffffffffffffffffffffffff1673ffffffffffffffffffffffffffffffffffffffff16815260200190815260200160002060009054906101000a900460ff166009811115610ba557610ba4612175565b5b14610be5576040517f08c379a0000000000000000000000000000000000000000000000000000000008152600401610bdc906127b7565b60405180910390fd5b60405180608001604052808373ffffffffffffffffffffffffffffffffffffffff1681526020018473ffffffffffffffffffffffffffffffffffffffff168152602001826009811115610c3b57610c3a612175565b5b815260200143815250600460008473ffffffffffffffffffffffffffffffffffffffff1673ffffffffffffffffffffffffffffffffffffffff16815260200190815260200160002060008201518160000160006101000a81548173ffffffffffffffffffffffffffffffffffffffff021916908373ffffffffffffffffffffffffffffffffffffffff16021790555060208201518160010160006101000a81548173ffffffffffffffffffffffffffffffffffffffff021916908373ffffffffffffffffffffffffffffffffffffffff16021790555060408201518160010160146101000a81548160ff02191690836009811115610d3c57610d3b612175565b5b0217905550606082015181600201559050507f901be2f9ae038bff3ed90525a236278dcd3b4ae87000beba691f4912303235d8838383604051610d81939291906127d7565b60405180910390a1505050565b60008060009054906101000a900473ffffffffffffffffffffffffffffffffffffffff16905090565b610dbf6118af565b60018060008373ffffffffffffffffffffffffffffffffffffffff1673ffffffffffffffffffffffffffffffffffffffff16815260200190815260200160002060006101000a81548160ff02191690831515021790555050565b60085481565b6000826009811115610e3457610e33612175565b5b600260008473ffffffffffffffffffffffffffffffffffffffff1673ffffffffffffffffffffffffffffffffffffffff16815260200190815260200160002060009054906101000a900460ff166009811115610e9357610e92612175565b5b14905092915050565b610ea4611db5565b60076000836009811115610ebb57610eba612175565b5b6009811115610ecd57610ecc612175565b5b8152602001908152602001600020604051806080016040529081600082015481526020016001820160009054906101000a900460ff161515151581526020016001820160019054906101000a900460ff161515151581526020016002820154815250509050919050565b600160003373ffffffffffffffffffffffffffffffffffffffff1673ffffffffffffffffffffffffffffffffffffffff16815260200190815260200160002060009054906101000a900460ff16610fc3576040517f08c379a0000000000000000000000000000000000000000000000000000000008152600401610fba906126df565b60405180910390fd5b60006009811115610fd757610fd6612175565b5b600260008473ffffffffffffffffffffffffffffffffffffffff1673ffffffffffffffffffffffffffffffffffffffff16815260200190815260200160002060009054906101000a900460ff16600981111561103657611035612175565b5b14611076576040517f08c379a000000000000000000000000000000000000000000000000000000000815260040161106d9061285a565b60405180910390fd5b6000600981111561108a57611089612175565b5b81600981111561109d5761109c612175565b5b036110dd576040517f08c379a00000000000000000000000000000000000000000000000000000000081526004016110d4906128c6565b60405180910390fd5b6110e6816119f1565b611125576040517f08c379a000000000000000000000000000000000000000000000000000000000815260040161111c90612932565b60405180910390fd5b61112f8282611b6c565b61116e576040517f08c379a00000000000000000000000000000000000000000000000000000000081526004016111659061299e565b60405180910390fd5b80600260008473ffffffffffffffffffffffffffffffffffffffff1673ffffffffffffffffffffffffffffffffffffffff16815260200190815260200160002060006101000a81548160ff021916908360098111156111d0576111cf612175565b5b0217905550600960008154809291906111e8906129ed565b91905055506005600082600981111561120457611203612175565b5b600981111561121657611215612175565b5b81526020019081526020016000206000815480929190611235906129ed565b91905055506006600082600981111561125157611250612175565b5b600981111561126357611262612175565b5b81526020019081526020016000206000815480929190611282906129ed565b91905055507f7e9d1e0ce3fa635fda0b423f40aeb85e9aa332042faebecff692e06cf182260d82826040516112b8929190612a35565b60405180910390a15050565b6000600160008373ffffffffffffffffffffffffffffffffffffffff1673ffffffffffffffffffffffffffffffffffffffff16815260200190815260200160002060009054906101000a900460ff169050919050565b600160003373ffffffffffffffffffffffffffffffffffffffff1673ffffffffffffffffffffffffffffffffffffffff16815260200190815260200160002060009054906101000a900460ff166113a6576040517f08c379a000000000000000000000000000000000000000000000000000000000815260040161139d906126df565b60405180910390fd5b60056000600260008473ffffffffffffffffffffffffffffffffffffffff1673ffffffffffffffffffffffffffffffffffffffff16815260200190815260200160002060009054906101000a900460ff16600981111561140957611408612175565b5b600981111561141b5761141a612175565b5b8152602001908152602001600020600081548092919061143a90612a5e565b91905055506009600260008373ffffffffffffffffffffffffffffffffffffffff1673ffffffffffffffffffffffffffffffffffffffff16815260200190815260200160002060006101000a81548160ff021916908360098111156114a2576114a1612175565b5b02179055507f6e61357b95aac497bc8b8aba69a3e74616ce17ff4d8b4ba9694d80668dce4c6d816040516114d69190612348565b60405180910390a150565b6114e96118af565b600073ffffffffffffffffffffffffffffffffffffffff168173ffffffffffffffffffffffffffffffffffffffff1603611558576040517f08c379a000000000000000000000000000000000000000000000000000000000815260040161154f90612af9565b60405180910390fd5b6115618161192d565b50565b6000600981111561157857611577612175565b5b600260003373ffffffffffffffffffffffffffffffffffffffff1673ffffffffffffffffffffffffffffffffffffffff16815260200190815260200160002060009054906101000a900460ff1660098111156115d7576115d6612175565b5b03611617576040517f08c379a000000000000000000000000000000000000000000000000000000000815260040161160e90612b65565b60405180910390fd5b6000600981111561162b5761162a612175565b5b600260008573ffffffffffffffffffffffffffffffffffffffff1673ffffffffffffffffffffffffffffffffffffffff16815260200190815260200160002060009054906101000a900460ff16600981111561168a57611689612175565b5b036116ca576040517f08c379a00000000000000000000000000000000000000000000000000000000081526004016116c190612bd1565b60405180910390fd5b600360008473ffffffffffffffffffffffffffffffffffffffff1673ffffffffffffffffffffffffffffffffffffffff1681526020019081526020016000206040518060a0016040528060016008546117239190612bf1565b81526020013373ffffffffffffffffffffffffffffffffffffffff1681526020018573ffffffffffffffffffffffffffffffffffffffff1681526020018481526020018381525090806001815401808255809150506001900390600052602060002090600502016000909190919091506000820151816000015560208201518160010160006101000a81548173ffffffffffffffffffffffffffffffffffffffff021916908373ffffffffffffffffffffffffffffffffffffffff16021790555060408201518160020160006101000a81548173ffffffffffffffffffffffffffffffffffffffff021916908373ffffffffffffffffffffffffffffffffffffffff16021790555060608201518160030190816118409190612dd1565b5060808201518160040190816118569190612dd1565b5050506008600081548092919061186c906129ed565b91905055507f7da036e59c6c49d773d1641f0bb20f614d377e40e5338c5d14c3819367fe20b833846040516118a2929190612ea3565b60405180910390a1505050565b6118b7611d47565b73ffffffffffffffffffffffffffffffffffffffff166118d5610d8e565b73ffffffffffffffffffffffffffffffffffffffff161461192b576040517f08c379a000000000000000000000000000000000000000000000000000000000815260040161192290612f18565b60405180910390fd5b565b60008060009054906101000a900473ffffffffffffffffffffffffffffffffffffffff169050816000806101000a81548173ffffffffffffffffffffffffffffffffffffffff021916908373ffffffffffffffffffffffffffffffffffffffff1602179055508173ffffffffffffffffffffffffffffffffffffffff168173ffffffffffffffffffffffffffffffffffffffff167f8be0079c531659141344cd1fd0a4f28419497f9722a3daafe3b4186f6b6457e060405160405180910390a35050565b6000806005600060016009811115611a0c57611a0b612175565b5b6009811115611a1e57611a1d612175565b5b8152602001908152602001600020549050600060056000856009811115611a4857611a47612175565b5b6009811115611a5a57611a59612175565b5b8152602001908152602001600020549050600060076000866009811115611a8457611a83612175565b5b6009811115611a9657611a95612175565b5b8152602001908152602001600020604051806080016040529081600082015481526020016001820160009054906101000a900460ff161515151581526020016001820160019054906101000a900460ff16151515158152602001600282015481525050905060008160000151905060008103611b19576001945050505050611b67565b6005831015611b2f576001945050505050611b67565b816020015115611b52578084611b459190612f38565b8310945050505050611b67565b8084611b5e9190612fa9565b83109450505050505b919050565b600060076000836009811115611b8557611b84612175565b5b6009811115611b9757611b96612175565b5b815260200190815260200160002060010160019054906101000a900460ff16611bc35760019050611d41565b6000600460008573ffffffffffffffffffffffffffffffffffffffff1673ffffffffffffffffffffffffffffffffffffffff1681526020019081526020016000206040518060800160405290816000820160009054906101000a900473ffffffffffffffffffffffffffffffffffffffff1673ffffffffffffffffffffffffffffffffffffffff1673ffffffffffffffffffffffffffffffffffffffff1681526020016001820160009054906101000a900473ffffffffffffffffffffffffffffffffffffffff1673ffffffffffffffffffffffffffffffffffffffff1673ffffffffffffffffffffffffffffffffffffffff1681526020016001820160149054906101000a900460ff166009811115611ce057611cdf612175565b5b6009811115611cf257611cf1612175565b5b8152602001600282015481525050905060008160600151118015611d3d5750826009811115611d2457611d23612175565b5b81604001516009811115611d3b57611d3a612175565b5b145b9150505b92915050565b600033905090565b6040518060800160405280600073ffffffffffffffffffffffffffffffffffffffff168152602001600073ffffffffffffffffffffffffffffffffffffffff16815260200160006009811115611da857611da7612175565b5b8152602001600081525090565b604051806080016040528060008152602001600015158152602001600015158152602001600081525090565b6000604051905090565b600080fd5b600080fd5b600073ffffffffffffffffffffffffffffffffffffffff82169050919050565b6000611e2082611df5565b9050919050565b611e3081611e15565b8114611e3b57600080fd5b50565b600081359050611e4d81611e27565b92915050565b600060208284031215611e6957611e68611deb565b5b6000611e7784828501611e3e565b91505092915050565b600081519050919050565b600082825260208201905092915050565b6000819050602082019050919050565b6000819050919050565b611ebf81611eac565b82525050565b611ece81611e15565b82525050565b600081519050919050565b600082825260208201905092915050565b60005b83811015611f0e578082015181840152602081019050611ef3565b60008484015250505050565b6000601f19601f8301169050919050565b6000611f3682611ed4565b611f408185611edf565b9350611f50818560208601611ef0565b611f5981611f1a565b840191505092915050565b600060a083016000830151611f7c6000860182611eb6565b506020830151611f8f6020860182611ec5565b506040830151611fa26040860182611ec5565b5060608301518482036060860152611fba8282611f2b565b91505060808301518482036080860152611fd48282611f2b565b9150508091505092915050565b6000611fed8383611f64565b905092915050565b6000602082019050919050565b600061200d82611e80565b6120178185611e8b565b93508360208202850161202985611e9c565b8060005b8581101561206557848403895281516120468582611fe1565b945061205183611ff5565b925060208a0199505060018101905061202d565b50829750879550505050505092915050565b600060208201905081810360008301526120918184612002565b905092915050565b600a81106120a657600080fd5b50565b6000813590506120b881612099565b92915050565b6000602082840312156120d4576120d3611deb565b5b60006120e2848285016120a9565b91505092915050565b6120f481611eac565b82525050565b60008115159050919050565b61210f816120fa565b82525050565b600060808201905061212a60008301876120eb565b6121376020830186612106565b6121446040830185612106565b61215160608301846120eb565b95945050505050565b600060208201905061216f60008301846120eb565b92915050565b7f4e487b7100000000000000000000000000000000000000000000000000000000600052602160045260246000fd5b600a81106121b5576121b4612175565b5b50565b60008190506121c6826121a4565b919050565b60006121d6826121b8565b9050919050565b6121e6816121cb565b82525050565b6080820160008201516122026000850182611ec5565b5060208201516122156020850182611ec5565b50604082015161222860408501826121dd565b50606082015161223b6060850182611eb6565b50505050565b600060808201905061225660008301846121ec565b92915050565b61226581611e15565b82525050565b612274816121cb565b82525050565b600060808201905061228f600083018761225c565b61229c602083018661225c565b6122a9604083018561226b565b6122b660608301846120eb565b95945050505050565b60006020820190506122d4600083018461226b565b92915050565b60006020820190506122ef6000830184612106565b92915050565b60008060006060848603121561230e5761230d611deb565b5b600061231c86828701611e3e565b935050602061232d86828701611e3e565b925050604061233e868287016120a9565b9150509250925092565b600060208201905061235d600083018461225c565b92915050565b6000806040838503121561237a57612379611deb565b5b6000612388858286016120a9565b925050602061239985828601611e3e565b9150509250929050565b6123ac816120fa565b82525050565b6080820160008201516123c86000850182611eb6565b5060208201516123db60208501826123a3565b5060408201516123ee60408501826123a3565b5060608201516124016060850182611eb6565b50505050565b600060808201905061241c60008301846123b2565b92915050565b6000806040838503121561243957612438611deb565b5b600061244785828601611e3e565b9250506020612458858286016120a9565b9150509250929050565b600080fd5b600080fd5b7f4e487b7100000000000000000000000000000000000000000000000000000000600052604160045260246000fd5b6124a482611f1a565b810181811067ffffffffffffffff821117156124c3576124c261246c565b5b80604052505050565b60006124d6611de1565b90506124e2828261249b565b919050565b600067ffffffffffffffff8211156125025761250161246c565b5b61250b82611f1a565b9050602081019050919050565b82818337600083830152505050565b600061253a612535846124e7565b6124cc565b90508281526020810184848401111561255657612555612467565b5b612561848285612518565b509392505050565b600082601f83011261257e5761257d612462565b5b813561258e848260208601612527565b91505092915050565b6000806000606084860312156125b0576125af611deb565b5b60006125be86828701611e3e565b935050602084013567ffffffffffffffff8111156125df576125de611df0565b5b6125eb86828701612569565b925050604084013567ffffffffffffffff81111561260c5761260b611df0565b5b61261886828701612569565b9150509250925092565b7f4e487b7100000000000000000000000000000000000000000000000000000000600052602260045260246000fd5b6000600282049050600182168061266957607f821691505b60208210810361267c5761267b612622565b5b50919050565b600082825260208201905092915050565b7f4e6f7420616c6c6f7765642063616c6c65720000000000000000000000000000600082015250565b60006126c9601283612682565b91506126d482612693565b602082019050919050565b600060208201905081810360008301526126f8816126bc565b9050919050565b7f416c726561647920696e76697465640000000000000000000000000000000000600082015250565b6000612735600f83612682565b9150612740826126ff565b602082019050919050565b6000602082019050818103600083015261276481612728565b9050919050565b7f416c726561647920726567697374657265640000000000000000000000000000600082015250565b60006127a1601283612682565b91506127ac8261276b565b602082019050919050565b600060208201905081810360008301526127d081612794565b9050919050565b60006060820190506127ec600083018661225c565b6127f9602083018561225c565b612806604083018461226b565b949350505050565b7f5573657220616c72656164792065786973747300000000000000000000000000600082015250565b6000612844601383612682565b915061284f8261280e565b602082019050919050565b6000602082019050818103600083015261287381612837565b9050919050565b7f496e76616c696420757365722074797065000000000000000000000000000000600082015250565b60006128b0601183612682565b91506128bb8261287a565b602082019050919050565b600060208201905081810360008301526128df816128a3565b9050919050565b7f50726f706f7274696f6e616c69747920696e76616c6964000000000000000000600082015250565b600061291c601783612682565b9150612927826128e6565b602082019050919050565b6000602082019050818103600083015261294b8161290f565b9050919050565b7f496e76616c696420696e7669746174696f6e0000000000000000000000000000600082015250565b6000612988601283612682565b915061299382612952565b602082019050919050565b600060208201905081810360008301526129b78161297b565b9050919050565b7f4e487b7100000000000000000000000000000000000000000000000000000000600052601160045260246000fd5b60006129f882611eac565b91507fffffffffffffffffffffffffffffffffffffffffffffffffffffffffffffffff8203612a2a57612a296129be565b5b600182019050919050565b6000604082019050612a4a600083018561225c565b612a57602083018461226b565b9392505050565b6000612a6982611eac565b915060008203612a7c57612a7b6129be565b5b600182039050919050565b7f4f776e61626c653a206e6577206f776e657220697320746865207a65726f206160008201527f6464726573730000000000000000000000000000000000000000000000000000602082015250565b6000612ae3602683612682565b9150612aee82612a87565b604082019050919050565b60006020820190508181036000830152612b1281612ad6565b9050919050565b7f43616c6c6572206d757374206265207265676973746572656400000000000000600082015250565b6000612b4f601983612682565b9150612b5a82612b19565b602082019050919050565b60006020820190508181036000830152612b7e81612b42565b9050919050565b7f55736572206d7573742062652072656769737465726564000000000000000000600082015250565b6000612bbb601783612682565b9150612bc682612b85565b602082019050919050565b60006020820190508181036000830152612bea81612bae565b9050919050565b6000612bfc82611eac565b9150612c0783611eac565b9250828201905080821115612c1f57612c1e6129be565b5b92915050565b60008190508160005260206000209050919050565b60006020601f8301049050919050565b600082821b905092915050565b600060088302612c877fffffffffffffffffffffffffffffffffffffffffffffffffffffffffffffffff82612c4a565b612c918683612c4a565b95508019841693508086168417925050509392505050565b6000819050919050565b6000612cce612cc9612cc484611eac565b612ca9565b611eac565b9050919050565b6000819050919050565b612ce883612cb3565b612cfc612cf482612cd5565b848454612c57565b825550505050565b600090565b612d11612d04565b612d1c818484612cdf565b505050565b5b81811015612d4057612d35600082612d09565b600181019050612d22565b5050565b601f821115612d8557612d5681612c25565b612d5f84612c3a565b81016020851015612d6e578190505b612d82612d7a85612c3a565b830182612d21565b50505b505050565b600082821c905092915050565b6000612da860001984600802612d8a565b1980831691505092915050565b6000612dc18383612d97565b9150826002028217905092915050565b612dda82611ed4565b67ffffffffffffffff811115612df357612df261246c565b5b612dfd8254612651565b612e08828285612d44565b600060209050601f831160018114612e3b5760008415612e29578287015190505b612e338582612db5565b865550612e9b565b601f198416612e4986612c25565b60005b82811015612e7157848901518255600182019150602085019450602081019050612e4c565b86831015612e8e5784890151612e8a601f891682612d97565b8355505b6001600288020188555050505b505050505050565b6000604082019050612eb8600083018561225c565b612ec5602083018461225c565b9392505050565b7f4f776e61626c653a2063616c6c6572206973206e6f7420746865206f776e6572600082015250565b6000612f02602083612682565b9150612f0d82612ecc565b602082019050919050565b60006020820190508181036000830152612f3181612ef5565b9050919050565b6000612f4382611eac565b9150612f4e83611eac565b9250828202612f5c81611eac565b91508282048414831517612f7357612f726129be565b5b5092915050565b7f4e487b7100000000000000000000000000000000000000000000000000000000600052601260045260246000fd5b6000612fb482611eac565b9150612fbf83611eac565b925082612fcf57612fce612f7a565b5b82820490509291505056fea26469706673582212204589d0a613126474ef61b404b78e05cea17359ae7ebc1a62450329c818b5ff3564736f6c634300081b0033",
  "linkReferences": {},
  "deployedLinkReferences": {}
}