{
  "_format": "hh-sol-artifact-1",
  "contractName": "CommunityRules",
  "sourceName": "contracts/CommunityRules.sol",
  "abi": [
    {
      "inputs": [
        {
          "internalType": "uint8",
          "name": "inspectorProportionality",
          "type": "uint8"
        },
        {
          "internalType": "uint8",
          "name": "activistProportionality",
          "type": "uint8"
        },
        {
          "internalType": "uint8",
          "name": "researcherProportionality",
          "type": "uint8"
        },
        {
          "internalType": "uint8",
          "name": "developerProportionality",
          "type": "uint8"
        },
        {
          "internalType": "uint8",
          "name": "contributorProportionality",
          "type": "uint8"
        }
      ],
      "stateMutability": "nonpayable",
      "type": "constructor"
    },
    {
      "inputs": [
        {
          "internalType": "address",
          "name": "owner",
          "type": "address"
        }
      ],
      "name": "OwnableInvalidOwner",
      "type": "error"
    },
    {
      "inputs": [
        {
          "internalType": "address",
          "name": "account",
          "type": "address"
        }
      ],
      "name": "OwnableUnauthorizedAccount",
      "type": "error"
    },
    {
      "anonymous": false,
      "inputs": [
        {
          "indexed": true,
          "internalType": "address",
          "name": "informer",
          "type": "address"
        },
        {
          "indexed": true,
          "internalType": "address",
          "name": "reported",
          "type": "address"
        },
        {
          "indexed": false,
          "internalType": "uint64",
          "name": "newDelationId",
          "type": "uint64"
        }
      ],
      "name": "DelationAdded",
      "type": "event"
    },
    {
      "anonymous": false,
      "inputs": [
        {
          "indexed": true,
          "internalType": "address",
          "name": "addr",
          "type": "address"
        }
      ],
      "name": "DeniedUserEvent",
      "type": "event"
    },
    {
      "anonymous": false,
      "inputs": [
        {
          "indexed": true,
          "internalType": "address",
          "name": "inviter",
          "type": "address"
        },
        {
          "indexed": true,
          "internalType": "address",
          "name": "invited",
          "type": "address"
        },
        {
          "indexed": false,
          "internalType": "enum CommunityTypes.UserType",
          "name": "userTypeTo",
          "type": "uint8"
        }
      ],
      "name": "InvitationAdded",
      "type": "event"
    },
    {
      "anonymous": false,
      "inputs": [
        {
          "indexed": true,
          "internalType": "address",
          "name": "previousOwner",
          "type": "address"
        },
        {
          "indexed": true,
          "internalType": "address",
          "name": "newOwner",
          "type": "address"
        }
      ],
      "name": "OwnershipTransferred",
      "type": "event"
    },
    {
      "anonymous": false,
      "inputs": [
        {
          "indexed": true,
          "internalType": "address",
          "name": "addr",
          "type": "address"
        },
        {
          "indexed": false,
          "internalType": "enum CommunityTypes.UserType",
          "name": "userType",
          "type": "uint8"
        }
      ],
      "name": "UserRegistered",
      "type": "event"
    },
    {
      "inputs": [],
      "name": "SUPPORTER_INVITATION_DELAY_BLOCKS",
      "outputs": [
        {
          "internalType": "uint32",
          "name": "",
          "type": "uint32"
        }
      ],
      "stateMutability": "view",
      "type": "function"
    },
    {
      "inputs": [],
      "name": "VOTER_INVITATION_DELAY_BLOCKS",
      "outputs": [
        {
          "internalType": "uint32",
          "name": "",
          "type": "uint32"
        }
      ],
      "stateMutability": "view",
      "type": "function"
    },
    {
      "inputs": [
        {
          "internalType": "address",
          "name": "addr",
          "type": "address"
        },
        {
          "internalType": "string",
          "name": "title",
          "type": "string"
        },
        {
          "internalType": "string",
          "name": "testimony",
          "type": "string"
        }
      ],
      "name": "addDelation",
      "outputs": [],
      "stateMutability": "nonpayable",
      "type": "function"
    },
    {
      "inputs": [
        {
          "internalType": "address",
          "name": "inviter",
          "type": "address"
        },
        {
          "internalType": "address",
          "name": "invited",
          "type": "address"
        },
        {
          "internalType": "enum CommunityTypes.UserType",
          "name": "userType",
          "type": "uint8"
        }
      ],
      "name": "addInvitation",
      "outputs": [],
      "stateMutability": "nonpayable",
      "type": "function"
    },
    {
      "inputs": [
        {
          "internalType": "address",
          "name": "inviter",
          "type": "address"
        }
      ],
      "name": "addInviterPenalty",
      "outputs": [],
      "stateMutability": "nonpayable",
      "type": "function"
    },
    {
      "inputs": [
        {
          "internalType": "address",
          "name": "addr",
          "type": "address"
        },
        {
          "internalType": "enum CommunityTypes.UserType",
          "name": "userType",
          "type": "uint8"
        }
      ],
      "name": "addUser",
      "outputs": [],
      "stateMutability": "nonpayable",
      "type": "function"
    },
    {
      "inputs": [
        {
          "internalType": "address",
          "name": "",
          "type": "address"
        }
      ],
      "name": "allowedCallers",
      "outputs": [
        {
          "internalType": "bool",
          "name": "",
          "type": "bool"
        }
      ],
      "stateMutability": "view",
      "type": "function"
    },
    {
      "inputs": [
        {
          "internalType": "uint256",
          "name": "",
          "type": "uint256"
        }
      ],
      "name": "delationsById",
      "outputs": [
        {
          "internalType": "uint64",
          "name": "id",
          "type": "uint64"
        },
        {
          "internalType": "address",
          "name": "informer",
          "type": "address"
        },
        {
          "internalType": "address",
          "name": "reported",
          "type": "address"
        },
        {
          "internalType": "string",
          "name": "title",
          "type": "string"
        },
        {
          "internalType": "string",
          "name": "testimony",
          "type": "string"
        },
        {
          "internalType": "uint256",
          "name": "createdAtBlock",
          "type": "uint256"
        }
      ],
      "stateMutability": "view",
      "type": "function"
    },
    {
      "inputs": [],
      "name": "delationsCount",
      "outputs": [
        {
          "internalType": "uint64",
          "name": "",
          "type": "uint64"
        }
      ],
      "stateMutability": "view",
      "type": "function"
    },
    {
      "inputs": [
        {
          "internalType": "address",
          "name": "addr",
          "type": "address"
        }
      ],
      "name": "getInvitation",
      "outputs": [
        {
          "components": [
            {
              "internalType": "address",
              "name": "invited",
              "type": "address"
            },
            {
              "internalType": "address",
              "name": "inviter",
              "type": "address"
            },
            {
              "internalType": "enum CommunityTypes.UserType",
              "name": "userType",
              "type": "uint8"
            },
            {
              "internalType": "uint256",
              "name": "createdAtBlock",
              "type": "uint256"
            }
          ],
          "internalType": "struct CommunityTypes.Invitation",
          "name": "",
          "type": "tuple"
        }
      ],
      "stateMutability": "view",
      "type": "function"
    },
    {
      "inputs": [
        {
          "internalType": "address",
          "name": "addr",
          "type": "address"
        }
      ],
      "name": "getUser",
      "outputs": [
        {
          "internalType": "enum CommunityTypes.UserType",
          "name": "",
          "type": "uint8"
        }
      ],
      "stateMutability": "view",
      "type": "function"
    },
    {
      "inputs": [
        {
          "internalType": "address",
          "name": "addr",
          "type": "address"
        }
      ],
      "name": "getUserDelations",
      "outputs": [
        {
          "components": [
            {
              "internalType": "uint64",
              "name": "id",
              "type": "uint64"
            },
            {
              "internalType": "address",
              "name": "informer",
              "type": "address"
            },
            {
              "internalType": "address",
              "name": "reported",
              "type": "address"
            },
            {
              "internalType": "string",
              "name": "title",
              "type": "string"
            },
            {
              "internalType": "string",
              "name": "testimony",
              "type": "string"
            },
            {
              "internalType": "uint256",
              "name": "createdAtBlock",
              "type": "uint256"
            }
          ],
          "internalType": "struct CommunityTypes.Delation[]",
          "name": "",
          "type": "tuple[]"
        }
      ],
      "stateMutability": "view",
      "type": "function"
    },
    {
      "inputs": [
        {
          "internalType": "enum CommunityTypes.UserType",
          "name": "userType",
          "type": "uint8"
        }
      ],
      "name": "getUserTypeSettings",
      "outputs": [
        {
          "components": [
            {
              "internalType": "uint8",
              "name": "proportionalityOnRegister",
              "type": "uint8"
            },
            {
              "internalType": "bool",
              "name": "directProportionalityRegistration",
              "type": "bool"
            },
            {
              "internalType": "bool",
              "name": "needInvitationOnRegister",
              "type": "bool"
            },
            {
              "internalType": "uint32",
              "name": "invitationDelayBlocks",
              "type": "uint32"
            },
            {
              "internalType": "bool",
              "name": "isVoter",
              "type": "bool"
            }
          ],
          "internalType": "struct CommunityTypes.UserTypeSetting",
          "name": "",
          "type": "tuple"
        }
      ],
      "stateMutability": "view",
      "type": "function"
    },
    {
      "inputs": [
        {
          "internalType": "address",
          "name": "",
          "type": "address"
        }
      ],
      "name": "invitations",
      "outputs": [
        {
          "internalType": "address",
          "name": "invited",
          "type": "address"
        },
        {
          "internalType": "address",
          "name": "inviter",
          "type": "address"
        },
        {
          "internalType": "enum CommunityTypes.UserType",
          "name": "userType",
          "type": "uint8"
        },
        {
          "internalType": "uint256",
          "name": "createdAtBlock",
          "type": "uint256"
        }
      ],
      "stateMutability": "view",
      "type": "function"
    },
    {
      "inputs": [
        {
          "internalType": "address",
          "name": "",
          "type": "address"
        }
      ],
      "name": "inviterPenalties",
      "outputs": [
        {
          "internalType": "uint16",
          "name": "",
          "type": "uint16"
        }
      ],
      "stateMutability": "view",
      "type": "function"
    },
    {
      "inputs": [
        {
          "internalType": "address",
          "name": "caller",
          "type": "address"
        }
      ],
      "name": "isAllowedCaller",
      "outputs": [
        {
          "internalType": "bool",
          "name": "",
          "type": "bool"
        }
      ],
      "stateMutability": "view",
      "type": "function"
    },
    {
      "inputs": [
        {
          "internalType": "address",
          "name": "userAddress",
          "type": "address"
        }
      ],
      "name": "isDenied",
      "outputs": [
        {
          "internalType": "bool",
          "name": "",
          "type": "bool"
        }
      ],
      "stateMutability": "view",
      "type": "function"
    },
    {
      "inputs": [
        {
          "internalType": "address",
          "name": "addr",
          "type": "address"
        }
      ],
      "name": "isVoter",
      "outputs": [
        {
          "internalType": "bool",
          "name": "",
          "type": "bool"
        }
      ],
      "stateMutability": "view",
      "type": "function"
    },
    {
      "inputs": [
        {
          "internalType": "address",
          "name": "",
          "type": "address"
        }
      ],
      "name": "lastDelationBlock",
      "outputs": [
        {
          "internalType": "uint256",
          "name": "",
          "type": "uint256"
        }
      ],
      "stateMutability": "view",
      "type": "function"
    },
    {
      "inputs": [
        {
          "internalType": "address",
          "name": "allowed",
          "type": "address"
        }
      ],
      "name": "newAllowedCaller",
      "outputs": [],
      "stateMutability": "nonpayable",
      "type": "function"
    },
    {
      "inputs": [],
      "name": "owner",
      "outputs": [
        {
          "internalType": "address",
          "name": "",
          "type": "address"
        }
      ],
      "stateMutability": "view",
      "type": "function"
    },
    {
      "inputs": [],
      "name": "renounceOwnership",
      "outputs": [],
      "stateMutability": "nonpayable",
      "type": "function"
    },
    {
      "inputs": [
        {
          "internalType": "address",
          "name": "_invitationRulesAddress",
          "type": "address"
        },
        {
          "internalType": "address",
          "name": "_validationRulesAddress",
          "type": "address"
        }
      ],
      "name": "setContractCall",
      "outputs": [],
      "stateMutability": "nonpayable",
      "type": "function"
    },
    {
      "inputs": [
        {
          "internalType": "address",
          "name": "userAddress",
          "type": "address"
        }
      ],
      "name": "setToDenied",
      "outputs": [],
      "stateMutability": "nonpayable",
      "type": "function"
    },
    {
      "inputs": [
        {
          "internalType": "address",
          "name": "newOwner",
          "type": "address"
        }
      ],
      "name": "transferOwnership",
      "outputs": [],
      "stateMutability": "nonpayable",
      "type": "function"
    },
    {
      "inputs": [
        {
          "internalType": "enum CommunityTypes.UserType",
          "name": "userType",
          "type": "uint8"
        },
        {
          "internalType": "address",
          "name": "userAddress",
          "type": "address"
        }
      ],
      "name": "userTypeIs",
      "outputs": [
        {
          "internalType": "bool",
          "name": "",
          "type": "bool"
        }
      ],
      "stateMutability": "view",
      "type": "function"
    },
    {
      "inputs": [
        {
          "internalType": "enum CommunityTypes.UserType",
          "name": "",
          "type": "uint8"
        }
      ],
      "name": "userTypeSettings",
      "outputs": [
        {
          "internalType": "uint8",
          "name": "proportionalityOnRegister",
          "type": "uint8"
        },
        {
          "internalType": "bool",
          "name": "directProportionalityRegistration",
          "type": "bool"
        },
        {
          "internalType": "bool",
          "name": "needInvitationOnRegister",
          "type": "bool"
        },
        {
          "internalType": "uint32",
          "name": "invitationDelayBlocks",
          "type": "uint32"
        },
        {
          "internalType": "bool",
          "name": "isVoter",
          "type": "bool"
        }
      ],
      "stateMutability": "view",
      "type": "function"
    },
    {
      "inputs": [
        {
          "internalType": "enum CommunityTypes.UserType",
          "name": "",
          "type": "uint8"
        }
      ],
      "name": "userTypesCount",
      "outputs": [
        {
          "internalType": "uint64",
          "name": "",
          "type": "uint64"
        }
      ],
      "stateMutability": "view",
      "type": "function"
    },
    {
      "inputs": [
        {
          "internalType": "enum CommunityTypes.UserType",
          "name": "",
          "type": "uint8"
        }
      ],
      "name": "userTypesTotalCount",
      "outputs": [
        {
          "internalType": "uint64",
          "name": "",
          "type": "uint64"
        }
      ],
      "stateMutability": "view",
      "type": "function"
    },
    {
      "inputs": [],
      "name": "usersCount",
      "outputs": [
        {
          "internalType": "uint64",
          "name": "",
          "type": "uint64"
        }
      ],
      "stateMutability": "view",
      "type": "function"
    },
    {
      "inputs": [],
      "name": "votersCount",
      "outputs": [
        {
          "internalType": "uint256",
          "name": "",
          "type": "uint256"
        }
      ],
      "stateMutability": "view",
      "type": "function"
    }
  ],
  "bytecode": "0x608060405234801561001057600080fd5b50604051612c5d380380612c5d83398101604081905261002f91610683565b338061005557604051631e4fbdf760e01b81526000600482015260240160405180910390fd5b61005e8161061d565b506040805160a080820183526000808352602080840182815284860183815260966060808801918252608080890187815260078852600a80885299517f22e39f61d1e4986b4f116cea9067f62cc77d74dff1780ae9c8b5166d1dd288298054975196519551925115156701000000000000000260ff60381b1963ffffffff90941663010000000266ffffffff0000001997151562010000029790971666ffffffffff0000199815156101000261ffff19909a1660ff909416939093179890981796909616179390931792909216939093179091558651948501875283855291840183905260019584018690528301829052820181905290928152602080820192909252604090810160009081208451815486860151878601516060808a015160809a8b015115156701000000000000000260ff60381b1963ffffffff90921663010000000266ffffffff0000001994151562010000029490941666ffffffffff0000199515156101000261ffff1990971660ff98891617969096179490941694909417919091179290921617909255835160a081018552908b168152600194810185905292830193909352918101829052918201819052600a906002600781111561022b5761022b6106e8565b8152602080820192909252604090810160009081208451815486860151878601516060808a015160809a8b015115156701000000000000000260ff60381b1963ffffffff90921663010000000266ffffffff0000001994151562010000029490941666ffffffffff0000199515156101000261ffff1990971660ff98891617969096179490941694909417919091179290921617909255835160a081018552908a1681529384018290526001928401839052620186a0908401529282015290600a9060066007811115610300576103006106e8565b8152602080820192909252604090810160009081208451815486860151878601516060808a015160809a8b015115156701000000000000000260ff60381b1963ffffffff90921663010000000266ffffffff0000001994151562010000029490941666ffffffffff0000199515156101000261ffff1990971660ff98891617969096179490941694909417919091179290921617909255835160a08101855290891681529384018290526001928401839052620186a0908401529282015290600a90600360078111156103d5576103d56106e8565b8152602080820192909252604090810160009081208451815486860151878601516060808a015160809a8b015115156701000000000000000260ff60381b1963ffffffff90921663010000000266ffffffff0000001994151562010000029490941666ffffffffff0000199515156101000261ffff1990971660ff98891617969096179490941694909417919091179290921617909255835160a08101855290881681529384018290526001928401839052620186a0908401529282015290600a90600460078111156104aa576104aa6106e8565b8152602080820192909252604090810160009081208451815486860151878601516060808a015160809a8b015115156701000000000000000260ff60381b1963ffffffff90921663010000000266ffffffff0000001994151562010000029490941666ffffffffff0000199515156101000261ffff1990971660ff98891617969096179490941694909417919091179290921617909255835160a08101855290871681529384018290526001928401839052620186a0908401529282015290600a906005600781111561057f5761057f6106e8565b81526020808201929092526040908101600020835181549385015192850151606086015160809096015115156701000000000000000260ff60381b1963ffffffff90971663010000000266ffffffff0000001992151562010000029290921666ffffffffff0000199515156101000261ffff1990971660ff909416939093179590951793909316179190911792909216179055506106fe9350505050565b600080546001600160a01b038381166001600160a01b0319831681178455604051919092169283917f8be0079c531659141344cd1fd0a4f28419497f9722a3daafe3b4186f6b6457e09190a35050565b805160ff8116811461067e57600080fd5b919050565b600080600080600060a0868803121561069b57600080fd5b6106a48661066d565b94506106b26020870161066d565b93506106c06040870161066d565b92506106ce6060870161066d565b91506106dc6080870161066d565b90509295509295909350565b634e487b7160e01b600052602160045260246000fd5b6125508061070d6000396000f3fe608060405234801561001057600080fd5b50600436106101e55760003560e01c80637ccfdba71161010f5780639c3eead9116100a2578063deffb90611610071578063deffb90614610610578063e838dfbb1461061a578063f2fde38b14610646578063ff7890951461065957600080fd5b80639c3eead9146105a1578063a1dcdb22146105b4578063a6801258146105d1578063a7771ee3146105fd57600080fd5b80639497c608116100de5780639497c6081461050f5780639547f95314610522578063959ef1d21461058657806398c079381461059957600080fd5b80637ccfdba7146104bb5780638da5cb5b146104ce5780638f93716f146104e957806392220142146104fc57600080fd5b8063306cda55116101875780636ba13a82116101565780636ba13a821461042d5780636f77926b14610447578063715018a6146104805780637b3341541461048857600080fd5b8063306cda551461037057806358f43f761461039e5780635b2b62a1146103f55780636101bf211461041a57600080fd5b80631eb2c120116101c35780631eb2c120146102af5780632115c634146102f05780632b17b8be146103275780632f22dc7b1461034757600080fd5b806304521ca3146101ea578063064505ad146101ff5780630ed4ea5e14610228575b600080fd5b6101fd6101f8366004611e2f565b61066c565b005b61021261020d366004611e62565b6106a2565b60405161021f9190611ec3565b60405180910390f35b610276610236366004611fa0565b600a6020526000908152604090205460ff80821691610100810482169162010000820481169163ffffffff630100000082041691600160381b9091041685565b6040805160ff909616865293151560208601529115159284019290925263ffffffff90911660608301521515608082015260a00161021f565b6102d86102bd366004611fa0565b6009602052600090815260409020546001600160401b031681565b6040516001600160401b03909116815260200161021f565b6103146102fe366004611e62565b600b6020526000908152604090205461ffff1681565b60405161ffff909116815260200161021f565b61033a610335366004611e62565b610881565b60405161021f9190611ff3565b6102d8610355366004611fa0565b6008602052600090815260409020546001600160401b031681565b61039061037e366004611e62565b600c6020526000908152604090205481565b60405190815260200161021f565b6103e56103ac366004611e62565b6007602052600090815260409020805460018201546002909201546001600160a01b039182169291821691600160a01b900460ff169084565b60405161021f9493929190612035565b610408610403366004612069565b610927565b60405161021f96959493929190612082565b6101fd610428366004611e62565b610a86565b6002546102d890600160401b90046001600160401b031681565b610473610455366004611e62565b6001600160a01b031660009081526003602052604090205460ff1690565b60405161021f91906120e3565b6101fd610b04565b6104ab610496366004611e62565b60016020526000908152604090205460ff1681565b604051901515815260200161021f565b6101fd6104c93660046120f1565b610b18565b6000546040516001600160a01b03909116815260200161021f565b6101fd6104f7366004611e62565b610e3b565b6002546102d8906001600160401b031681565b6104ab61051d366004612134565b610e6a565b610535610530366004611fa0565b610eda565b60405161021f9190600060a08201905060ff835116825260208301511515602083015260408301511515604083015263ffffffff606084015116606083015260808301511515608083015292915050565b6101fd610594366004611e62565b610f9b565b6103906110c3565b6101fd6105af366004612150565b611198565b6105bc609681565b60405163ffffffff909116815260200161021f565b6104ab6105df366004611e62565b6001600160a01b031660009081526001602052604090205460ff1690565b6104ab61060b366004611e62565b61152c565b6105bc620186a081565b6104ab610628366004611e62565b6001600160a01b031660009081526004602052604090205460ff1690565b6101fd610654366004611e62565b611584565b6101fd61066736600461221d565b6115bf565b610674611a8e565b600d80546001600160a01b039384166001600160a01b031991821617909155600e8054929093169116179055565b6001600160a01b0381166000908152600560209081526040808320805482518185028101850190935280835260609492939192909184015b828210156108765760008481526020908190206040805160c0810182526005860290920180546001600160401b03811684526001600160a01b03600160401b90910481169484019490945260018101549093169082015260028201805491929160608401919061074990612294565b80601f016020809104026020016040519081016040528092919081815260200182805461077590612294565b80156107c25780601f10610797576101008083540402835291602001916107c2565b820191906000526020600020905b8154815290600101906020018083116107a557829003601f168201915b505050505081526020016003820180546107db90612294565b80601f016020809104026020016040519081016040528092919081815260200182805461080790612294565b80156108545780601f1061082957610100808354040283529160200191610854565b820191906000526020600020905b81548152906001019060200180831161083757829003601f168201915b50505050508152602001600482015481525050815260200190600101906106da565b505050509050919050565b6040805160808101825260008082526020820181905291810182905260608101919091526001600160a01b03828116600090815260076020818152604092839020835160808101855281548616815260018201549586169281019290925290939092840191600160a01b90910460ff169081111561090157610901611fbb565b600781111561091257610912611fbb565b81526020016002820154815250509050919050565b6006602052600090815260409020805460018201546002830180546001600160401b03841694600160401b9094046001600160a01b0390811694931692919061096f90612294565b80601f016020809104026020016040519081016040528092919081815260200182805461099b90612294565b80156109e85780601f106109bd576101008083540402835291602001916109e8565b820191906000526020600020905b8154815290600101906020018083116109cb57829003601f168201915b5050505050908060030180546109fd90612294565b80601f0160208091040260200160405190810160405280929190818152602001828054610a2990612294565b8015610a765780601f10610a4b57610100808354040283529160200191610a76565b820191906000526020600020905b815481529060010190602001808311610a5957829003601f168201915b5050505050908060040154905086565b3360009081526001602052604090205460ff16610abe5760405162461bcd60e51b8152600401610ab5906122ce565b60405180910390fd5b6001600160a01b0381166000908152600b60205260408120805461ffff1691610ae683612310565b91906101000a81548161ffff021916908361ffff1602179055505050565b610b0c611a8e565b610b166000611abb565b565b3360009081526001602052604090205460ff16610b475760405162461bcd60e51b8152600401610ab5906122ce565b600d546001600160a01b0316338114610ba25760405162461bcd60e51b815260206004820152601e60248201527f43616c6c6572206d7573742062652073797374656d20636f6e747261637400006044820152606401610ab5565b6001600160a01b038316610bf85760405162461bcd60e51b815260206004820152601e60248201527f496e766974656420616464726573732063616e6e6f74206265207a65726f00006044820152606401610ab5565b6001600160a01b038381166000908152600760205260409020541615610c525760405162461bcd60e51b815260206004820152600f60248201526e105b1c9958591e481a5b9d9a5d1959608a1b6044820152606401610ab5565b6001600160a01b03831660009081526003602052604081205460ff166007811115610c7f57610c7f611fbb565b14610cc15760405162461bcd60e51b8152602060048201526012602482015271105b1c9958591e481c9959da5cdd195c995960721b6044820152606401610ab5565b6000826007811115610cd557610cd5611fbb565b03610d225760405162461bcd60e51b815260206004820181905260248201527f496e76616c69642075736572207479706520666f7220696e7669746174696f6e6044820152606401610ab5565b6040518060800160405280846001600160a01b03168152602001856001600160a01b03168152602001836007811115610d5d57610d5d611fbb565b8152436020918201526001600160a01b0380861660009081526007808452604091829020855181549085166001600160a01b03199182161782559486015160018201805491909516958116861785559286015190949093926001600160a81b0319161790600160a01b908490811115610dd857610dd8611fbb565b021790555060608201518160020155905050826001600160a01b0316846001600160a01b03167f3aed71ce4143148a406a002376059e9cb31ad2e3c9b2a431fc106d4be03f204784604051610e2d91906120e3565b60405180910390a350505050565b610e43611a8e565b6001600160a01b03166000908152600160208190526040909120805460ff19169091179055565b6000826007811115610e7e57610e7e611fbb565b6001600160a01b03831660009081526003602052604090205460ff166007811115610eab57610eab611fbb565b148015610ed157506001600160a01b03821660009081526004602052604090205460ff16155b90505b92915050565b6040805160a081018252600080825260208201819052918101829052606081018290526080810191909152600a6000836007811115610f1b57610f1b611fbb565b6007811115610f2c57610f2c611fbb565b81526020808201929092526040908101600020815160a081018352905460ff808216835261010082048116151594830194909452620100008104841615159282019290925263ffffffff63010000008304166060820152600160381b9091049091161515608082015292915050565b3360009081526001602052604090205460ff16610fca5760405162461bcd60e51b8152600401610ab5906122ce565b6001600160a01b03811660009081526004602052604090205460ff166110c0576001600160a01b0381166000908152600360205260408120546008919060ff16600781111561101b5761101b611fbb565b600781111561102c5761102c611fbb565b81526020810191909152604001600090812080546001600160401b03169161105383612331565b82546001600160401b039182166101009390930a9283029190920219909116179055506001600160a01b038116600081815260046020526040808220805460ff19166001179055517f4e283ac74dcfce6ff8dd078cc60000ae1deac4f6ae889f87268c6ed2fd0404d89190a25b50565b60086020527f625b35f5e76f098dd7c3a05b10e2e5e78a4a01228d60c3b143426cdf36d26455547f9321edea6e3be4df59a344b401fab4f888b556fda1f954244cff9204bad624b8547f91238f30f286c9a1c6e901c4eda3b214c381c846e3dbe48df95c21488e8e1fdb54600660009081527f13acf3fc7bed94759963f076d5d3443d88732026bffc8253bdf4a6e65f21ecc55490936001600160401b0390811693811692611176929082169116612354565b6111809190612354565b61118a9190612354565b6001600160401b0316905090565b3360009081526001602052604090205460ff166111c75760405162461bcd60e51b8152600401610ab5906122ce565b6001600160a01b03821661121d5760405162461bcd60e51b815260206004820152601b60248201527f5573657220616464726573732063616e6e6f74206265207a65726f00000000006044820152606401610ab5565b6001600160a01b03821660009081526003602052604081205460ff16600781111561124a5761124a611fbb565b1461128d5760405162461bcd60e51b81526020600482015260136024820152725573657220616c72656164792065786973747360681b6044820152606401610ab5565b60008160078111156112a1576112a1611fbb565b036112e25760405162461bcd60e51b8152602060048201526011602482015270496e76616c69642075736572207479706560781b6044820152606401610ab5565b6112eb81611b0b565b6113375760405162461bcd60e51b815260206004820152601760248201527f50726f706f7274696f6e616c69747920696e76616c69640000000000000000006044820152606401610ab5565b6113418282611cb1565b6113825760405162461bcd60e51b815260206004820152601260248201527124b73b30b634b21034b73b34ba30ba34b7b760711b6044820152606401610ab5565b6001600160a01b0382166000908152600360205260409020805482919060ff191660018360078111156113b7576113b7611fbb565b021790555060028054600160401b90046001600160401b03169060086113dc83612373565b91906101000a8154816001600160401b0302191690836001600160401b03160217905550506008600082600781111561141757611417611fbb565b600781111561142857611428611fbb565b81526020810191909152604001600090812080546001600160401b03169161144f83612373565b91906101000a8154816001600160401b0302191690836001600160401b03160217905550506009600082600781111561148a5761148a611fbb565b600781111561149b5761149b611fbb565b81526020810191909152604001600090812080546001600160401b0316916114c283612373565b91906101000a8154816001600160401b0302191690836001600160401b0316021790555050816001600160a01b03167f8e18574f8a7333e6a87112742a55853a643e2f0550f4e1a3a2c3f1bb2994441d8260405161152091906120e3565b60405180910390a25050565b6001600160a01b03811660009081526004602052604081205460ff161561155557506000919050565b6001600160a01b03821660009081526003602052604090205461157a9060ff16610eda565b6080015192915050565b61158c611a8e565b6001600160a01b0381166115b657604051631e4fbdf760e01b815260006004820152602401610ab5565b6110c081611abb565b81516064108015906115d45750805161012c10155b6116195760405162461bcd60e51b815260206004820152601660248201527513585e0818da185c9858dd195c9cc81c995858da195960521b6044820152606401610ab5565b61162233611dbe565b6116625760405162461bcd60e51b8152602060048201526011602482015270576169742064656c617920626c6f636b7360781b6044820152606401610ab5565b3360009081526003602052604081205460ff16600781111561168657611686611fbb565b036116d35760405162461bcd60e51b815260206004820152601960248201527f43616c6c6572206d7573742062652072656769737465726564000000000000006044820152606401610ab5565b60073360009081526003602052604090205460ff1660078111156116f9576116f9611fbb565b036117465760405162461bcd60e51b815260206004820152601960248201527f4e6f7420616c6c6f77656420746f20737570706f7274657273000000000000006044820152606401610ab5565b6001600160a01b03831660009081526003602052604081205460ff16600781111561177357611773611fbb565b036117c05760405162461bcd60e51b815260206004820152601760248201527f55736572206d75737420626520726567697374657265640000000000000000006044820152606401610ab5565b6001600160a01b0383166118165760405162461bcd60e51b815260206004820152601a60248201527f43616e6e6f742064656c617465207a65726f20616464726573730000000000006044820152606401610ab5565b336001600160a01b0384160361186e5760405162461bcd60e51b815260206004820152601d60248201527f53656c662d64656e756e63696174696f6e206e6f7420616c6c6f7765640000006044820152606401610ab5565b336000908152600c60205260408120439055600280546001600160401b03169161189783612373565b82546101009290920a6001600160401b03818102199093169183160217909155600280546040805160c0810182529184168083523360208085019182526001600160a01b038b8116868601818152606088018d8152608089018d90524360a08a015260009283526005808652978320805460018181018355918552959093208951959098029097018054955194909a166001600160e01b031990951694909417600160401b93831693909302929092178855915190870180546001600160a01b0319169190921617905590519094509092839290919082019061197a90826123e4565b506080820151600382019061198f90826123e4565b5060a091909101516004909101556001600160401b03828116600090815260066020908152604091829020845181549286015194166001600160e01b031990921691909117600160401b6001600160a01b0394851602178155908301516001820180546001600160a01b031916919093161790915560608201518291906002820190611a1b90826123e4565b5060808201516003820190611a3090826123e4565b5060a091909101516004909101556040516001600160401b03831681526001600160a01b0386169033907f189a77cbe3dec0697e2a3b90dc61ee5a0271739d521848b871170224328f7a889060200160405180910390a35050505050565b6000546001600160a01b03163314610b165760405163118cdaa760e01b8152336004820152602401610ab5565b600080546001600160a01b038381166001600160a01b0319831681178455604051919092169283917f8be0079c531659141344cd1fd0a4f28419497f9722a3daafe3b4186f6b6457e09190a35050565b60016000908152600860208190527fad67d757c34507f157cacfa2e3153e9f260a2244f30428821be7be64587ac55f546001600160401b031690829081856007811115611b5a57611b5a611fbb565b6007811115611b6b57611b6b611fbb565b815260208101919091526040016000908120546001600160401b03169150600a81866007811115611b9e57611b9e611fbb565b6007811115611baf57611baf611fbb565b815260208082019290925260409081016000908120825160a081018452905460ff80821680845261010083048216151596840196909652620100008204811615159483019490945263ffffffff63010000008204166060830152600160381b900490921615156080830152909250819003611c305750600195945050505050565b60056001600160401b0384161015611c4e5750600195945050505050565b816020015115611c8457611c6560ff8216856124a2565b6001600160401b0316836001600160401b031610945050505050919050565b611c9160ff8216856124cb565b6001600160401b0316836001600160401b03161115945050505050919050565b6000600a6000836007811115611cc957611cc9611fbb565b6007811115611cda57611cda611fbb565b815260208101919091526040016000205462010000900460ff16611d0057506001610ed4565b6001600160a01b0383811660009081526007602081815260408084208151608081018352815487168152600182015496871693810193909352939491939290840191600160a01b900460ff1690811115611d5c57611d5c611fbb565b6007811115611d6d57611d6d611fbb565b8152602001600282015481525050905060008160600151118015611db65750826007811115611d9e57611d9e611fbb565b81604001516007811115611db457611db4611fbb565b145b949350505050565b6001600160a01b0381166000908152600c60205260408120548103611de557506001919050565b6001600160a01b0382166000908152600c6020526040902054611e0b9061138890612507565b431192915050565b80356001600160a01b0381168114611e2a57600080fd5b919050565b60008060408385031215611e4257600080fd5b611e4b83611e13565b9150611e5960208401611e13565b90509250929050565b600060208284031215611e7457600080fd5b610ed182611e13565b6000815180845260005b81811015611ea357602081850181015186830182015201611e87565b506000602082860101526020601f19601f83011685010191505092915050565b6000602082016020835280845180835260408501915060408160051b86010192506020860160005b82811015611f8557603f1987860301845281516001600160401b03815116865260018060a01b03602082015116602087015260018060a01b036040820151166040870152606081015160c06060880152611f4860c0880182611e7d565b905060808201518782036080890152611f618282611e7d565b60a09384015198909301979097525094506020938401939190910190600101611eeb565b50929695505050505050565b803560088110611e2a57600080fd5b600060208284031215611fb257600080fd5b610ed182611f91565b634e487b7160e01b600052602160045260246000fd5b60088110611fef57634e487b7160e01b600052602160045260246000fd5b9052565b81516001600160a01b03908116825260208084015190911690820152604080830151608083019161202690840182611fd1565b50606092830151919092015290565b6001600160a01b038581168252841660208201526080810161205a6040830185611fd1565b82606083015295945050505050565b60006020828403121561207b57600080fd5b5035919050565b6001600160401b03871681526001600160a01b0386811660208301528516604082015260c0606082018190526000906120bd90830186611e7d565b82810360808401526120cf8186611e7d565b9150508260a0830152979650505050505050565b60208101610ed48284611fd1565b60008060006060848603121561210657600080fd5b61210f84611e13565b925061211d60208501611e13565b915061212b60408501611f91565b90509250925092565b6000806040838503121561214757600080fd5b611e4b83611f91565b6000806040838503121561216357600080fd5b61216c83611e13565b9150611e5960208401611f91565b634e487b7160e01b600052604160045260246000fd5b600082601f8301126121a157600080fd5b81356001600160401b038111156121ba576121ba61217a565b604051601f8201601f19908116603f011681016001600160401b03811182821017156121e8576121e861217a565b60405281815283820160200185101561220057600080fd5b816020850160208301376000918101602001919091529392505050565b60008060006060848603121561223257600080fd5b61223b84611e13565b925060208401356001600160401b0381111561225657600080fd5b61226286828701612190565b92505060408401356001600160401b0381111561227e57600080fd5b61228a86828701612190565b9150509250925092565b600181811c908216806122a857607f821691505b6020821081036122c857634e487b7160e01b600052602260045260246000fd5b50919050565b6020808252601290820152712737ba1030b63637bbb2b21031b0b63632b960711b604082015260600190565b634e487b7160e01b600052601160045260246000fd5b600061ffff821661ffff8103612328576123286122fa565b60010192915050565b60006001600160401b0382168061234a5761234a6122fa565b6000190192915050565b6001600160401b038181168382160190811115610ed457610ed46122fa565b60006001600160401b0382166001600160401b038103612328576123286122fa565b601f8211156123df57806000526020600020601f840160051c810160208510156123bc5750805b601f840160051c820191505b818110156123dc57600081556001016123c8565b50505b505050565b81516001600160401b038111156123fd576123fd61217a565b6124118161240b8454612294565b84612395565b6020601f821160018114612445576000831561242d5750848201515b600019600385901b1c1916600184901b1784556123dc565b600084815260208120601f198516915b828110156124755787850151825560209485019460019092019101612455565b50848210156124935786840151600019600387901b60f8161c191681555b50505050600190811b01905550565b6001600160401b0381811683821602908116908181146124c4576124c46122fa565b5092915050565b60006001600160401b038316806124f257634e487b7160e01b600052601260045260246000fd5b806001600160401b0384160491505092915050565b80820180821115610ed457610ed46122fa56fea264697066735822122000db48b42a13f92930e2f8a72d01d3b8b52f10c0d41470fb9de102d15a015e5d64736f6c634300081b0033",
  "linkReferences": {},
  "deployedLinkReferences": {}
}