{
  "_format": "hh-sol-artifact-1",
  "contractName": "ContributorRules",
  "sourceName": "contracts/ContributorRules.sol",
  "abi": [
    {
      "inputs": [
        {
          "internalType": "uint256",
          "name": "timeBetweenWorks_",
          "type": "uint256"
        },
        {
          "internalType": "uint256",
          "name": "maxPenalties_",
          "type": "uint256"
        },
        {
          "internalType": "uint256",
          "name": "securityBlocksToValidatorAnalysis",
          "type": "uint256"
        }
      ],
      "stateMutability": "nonpayable",
      "type": "constructor"
    },
    {
      "anonymous": false,
      "inputs": [
        {
          "indexed": true,
          "internalType": "address",
          "name": "previousOwner",
          "type": "address"
        },
        {
          "indexed": true,
          "internalType": "address",
          "name": "newOwner",
          "type": "address"
        }
      ],
      "name": "OwnershipTransferred",
      "type": "event"
    },
    {
      "inputs": [],
      "name": "MAX_PENALTIES",
      "outputs": [
        {
          "internalType": "uint256",
          "name": "",
          "type": "uint256"
        }
      ],
      "stateMutability": "view",
      "type": "function"
    },
    {
      "inputs": [],
      "name": "SECURITY_BLOCKS_TO_VALIDATOR_ANALYSIS",
      "outputs": [
        {
          "internalType": "uint256",
          "name": "",
          "type": "uint256"
        }
      ],
      "stateMutability": "view",
      "type": "function"
    },
    {
      "inputs": [
        {
          "internalType": "string",
          "name": "description",
          "type": "string"
        },
        {
          "internalType": "string",
          "name": "report",
          "type": "string"
        }
      ],
      "name": "addContribution",
      "outputs": [],
      "stateMutability": "nonpayable",
      "type": "function"
    },
    {
      "inputs": [
        {
          "internalType": "uint256",
          "name": "id",
          "type": "uint256"
        },
        {
          "internalType": "string",
          "name": "justification",
          "type": "string"
        }
      ],
      "name": "addContributionValidation",
      "outputs": [],
      "stateMutability": "nonpayable",
      "type": "function"
    },
    {
      "inputs": [
        {
          "internalType": "string",
          "name": "name",
          "type": "string"
        },
        {
          "internalType": "string",
          "name": "proofPhoto",
          "type": "string"
        }
      ],
      "name": "addContributor",
      "outputs": [],
      "stateMutability": "nonpayable",
      "type": "function"
    },
    {
      "inputs": [
        {
          "internalType": "address",
          "name": "addr",
          "type": "address"
        },
        {
          "internalType": "uint256",
          "name": "contributionId",
          "type": "uint256"
        }
      ],
      "name": "addPenalty",
      "outputs": [
        {
          "internalType": "uint256",
          "name": "",
          "type": "uint256"
        }
      ],
      "stateMutability": "nonpayable",
      "type": "function"
    },
    {
      "inputs": [
        {
          "internalType": "address",
          "name": "",
          "type": "address"
        }
      ],
      "name": "allowedCallers",
      "outputs": [
        {
          "internalType": "bool",
          "name": "",
          "type": "bool"
        }
      ],
      "stateMutability": "view",
      "type": "function"
    },
    {
      "inputs": [
        {
          "internalType": "uint256",
          "name": "totalLevels",
          "type": "uint256"
        },
        {
          "internalType": "uint256",
          "name": "totalUsers",
          "type": "uint256"
        },
        {
          "internalType": "uint256",
          "name": "userLevels",
          "type": "uint256"
        }
      ],
      "name": "canInvite",
      "outputs": [
        {
          "internalType": "bool",
          "name": "",
          "type": "bool"
        }
      ],
      "stateMutability": "pure",
      "type": "function"
    },
    {
      "inputs": [
        {
          "internalType": "address",
          "name": "addr",
          "type": "address"
        }
      ],
      "name": "canSendInvite",
      "outputs": [
        {
          "internalType": "bool",
          "name": "",
          "type": "bool"
        }
      ],
      "stateMutability": "view",
      "type": "function"
    },
    {
      "inputs": [
        {
          "internalType": "uint256",
          "name": "",
          "type": "uint256"
        }
      ],
      "name": "contributions",
      "outputs": [
        {
          "internalType": "uint256",
          "name": "id",
          "type": "uint256"
        },
        {
          "internalType": "uint256",
          "name": "era",
          "type": "uint256"
        },
        {
          "internalType": "address",
          "name": "user",
          "type": "address"
        },
        {
          "internalType": "string",
          "name": "description",
          "type": "string"
        },
        {
          "internalType": "string",
          "name": "report",
          "type": "string"
        },
        {
          "internalType": "uint256",
          "name": "validationsCount",
          "type": "uint256"
        },
        {
          "internalType": "bool",
          "name": "valid",
          "type": "bool"
        },
        {
          "internalType": "uint256",
          "name": "invalidatedAt",
          "type": "uint256"
        },
        {
          "internalType": "uint256",
          "name": "createdAtBlockNumber",
          "type": "uint256"
        }
      ],
      "stateMutability": "view",
      "type": "function"
    },
    {
      "inputs": [],
      "name": "contributionsCount",
      "outputs": [
        {
          "internalType": "uint256",
          "name": "",
          "type": "uint256"
        }
      ],
      "stateMutability": "view",
      "type": "function"
    },
    {
      "inputs": [
        {
          "internalType": "address",
          "name": "",
          "type": "address"
        },
        {
          "internalType": "uint256",
          "name": "",
          "type": "uint256"
        }
      ],
      "name": "contributionsIds",
      "outputs": [
        {
          "internalType": "uint256",
          "name": "",
          "type": "uint256"
        }
      ],
      "stateMutability": "view",
      "type": "function"
    },
    {
      "inputs": [],
      "name": "contributionsTotalCount",
      "outputs": [
        {
          "internalType": "uint256",
          "name": "",
          "type": "uint256"
        }
      ],
      "stateMutability": "view",
      "type": "function"
    },
    {
      "inputs": [
        {
          "internalType": "address",
          "name": "addr",
          "type": "address"
        }
      ],
      "name": "contributorExists",
      "outputs": [
        {
          "internalType": "bool",
          "name": "",
          "type": "bool"
        }
      ],
      "stateMutability": "view",
      "type": "function"
    },
    {
      "inputs": [
        {
          "internalType": "address",
          "name": "",
          "type": "address"
        }
      ],
      "name": "contributors",
      "outputs": [
        {
          "internalType": "uint256",
          "name": "id",
          "type": "uint256"
        },
        {
          "internalType": "address",
          "name": "contributorWallet",
          "type": "address"
        },
        {
          "internalType": "string",
          "name": "name",
          "type": "string"
        },
        {
          "internalType": "string",
          "name": "proofPhoto",
          "type": "string"
        },
        {
          "components": [
            {
              "internalType": "uint256",
              "name": "level",
              "type": "uint256"
            },
            {
              "internalType": "uint256",
              "name": "currentEra",
              "type": "uint256"
            }
          ],
          "internalType": "struct Pool",
          "name": "pool",
          "type": "tuple"
        },
        {
          "internalType": "uint256",
          "name": "createdAt",
          "type": "uint256"
        },
        {
          "internalType": "uint256",
          "name": "lastPublishedAt",
          "type": "uint256"
        }
      ],
      "stateMutability": "view",
      "type": "function"
    },
    {
      "inputs": [
        {
          "internalType": "uint256",
          "name": "",
          "type": "uint256"
        }
      ],
      "name": "contributorsAddress",
      "outputs": [
        {
          "internalType": "address",
          "name": "",
          "type": "address"
        }
      ],
      "stateMutability": "view",
      "type": "function"
    },
    {
      "inputs": [
        {
          "internalType": "uint256",
          "name": "id",
          "type": "uint256"
        }
      ],
      "name": "getContribution",
      "outputs": [
        {
          "components": [
            {
              "internalType": "uint256",
              "name": "id",
              "type": "uint256"
            },
            {
              "internalType": "uint256",
              "name": "era",
              "type": "uint256"
            },
            {
              "internalType": "address",
              "name": "user",
              "type": "address"
            },
            {
              "internalType": "string",
              "name": "description",
              "type": "string"
            },
            {
              "internalType": "string",
              "name": "report",
              "type": "string"
            },
            {
              "internalType": "uint256",
              "name": "validationsCount",
              "type": "uint256"
            },
            {
              "internalType": "bool",
              "name": "valid",
              "type": "bool"
            },
            {
              "internalType": "uint256",
              "name": "invalidatedAt",
              "type": "uint256"
            },
            {
              "internalType": "uint256",
              "name": "createdAtBlockNumber",
              "type": "uint256"
            }
          ],
          "internalType": "struct Contribution",
          "name": "",
          "type": "tuple"
        }
      ],
      "stateMutability": "view",
      "type": "function"
    },
    {
      "inputs": [
        {
          "internalType": "address",
          "name": "addr",
          "type": "address"
        }
      ],
      "name": "getContributionsIds",
      "outputs": [
        {
          "internalType": "uint256[]",
          "name": "",
          "type": "uint256[]"
        }
      ],
      "stateMutability": "view",
      "type": "function"
    },
    {
      "inputs": [
        {
          "internalType": "address",
          "name": "addr",
          "type": "address"
        }
      ],
      "name": "getContributor",
      "outputs": [
        {
          "components": [
            {
              "internalType": "uint256",
              "name": "id",
              "type": "uint256"
            },
            {
              "internalType": "address",
              "name": "contributorWallet",
              "type": "address"
            },
            {
              "internalType": "string",
              "name": "name",
              "type": "string"
            },
            {
              "internalType": "string",
              "name": "proofPhoto",
              "type": "string"
            },
            {
              "components": [
                {
                  "internalType": "uint256",
                  "name": "level",
                  "type": "uint256"
                },
                {
                  "internalType": "uint256",
                  "name": "currentEra",
                  "type": "uint256"
                }
              ],
              "internalType": "struct Pool",
              "name": "pool",
              "type": "tuple"
            },
            {
              "internalType": "uint256",
              "name": "createdAt",
              "type": "uint256"
            },
            {
              "internalType": "uint256",
              "name": "lastPublishedAt",
              "type": "uint256"
            }
          ],
          "internalType": "struct Contributor",
          "name": "contributor",
          "type": "tuple"
        }
      ],
      "stateMutability": "view",
      "type": "function"
    },
    {
      "inputs": [
        {
          "internalType": "address",
          "name": "caller",
          "type": "address"
        }
      ],
      "name": "isAllowedCaller",
      "outputs": [
        {
          "internalType": "bool",
          "name": "",
          "type": "bool"
        }
      ],
      "stateMutability": "view",
      "type": "function"
    },
    {
      "inputs": [
        {
          "internalType": "address",
          "name": "allowed",
          "type": "address"
        }
      ],
      "name": "newAllowedCaller",
      "outputs": [],
      "stateMutability": "nonpayable",
      "type": "function"
    },
    {
      "inputs": [],
      "name": "nextEraIn",
      "outputs": [
        {
          "internalType": "uint256",
          "name": "",
          "type": "uint256"
        }
      ],
      "stateMutability": "view",
      "type": "function"
    },
    {
      "inputs": [],
      "name": "owner",
      "outputs": [
        {
          "internalType": "address",
          "name": "",
          "type": "address"
        }
      ],
      "stateMutability": "view",
      "type": "function"
    },
    {
      "inputs": [
        {
          "internalType": "address",
          "name": "",
          "type": "address"
        },
        {
          "internalType": "uint256",
          "name": "",
          "type": "uint256"
        }
      ],
      "name": "penalties",
      "outputs": [
        {
          "internalType": "uint256",
          "name": "contributionId",
          "type": "uint256"
        }
      ],
      "stateMutability": "view",
      "type": "function"
    },
    {
      "inputs": [
        {
          "internalType": "address",
          "name": "addr",
          "type": "address"
        },
        {
          "internalType": "uint256",
          "name": "removeSomeLevels",
          "type": "uint256"
        }
      ],
      "name": "removePoolLevels",
      "outputs": [],
      "stateMutability": "nonpayable",
      "type": "function"
    },
    {
      "inputs": [],
      "name": "renounceOwnership",
      "outputs": [],
      "stateMutability": "nonpayable",
      "type": "function"
    },
    {
      "inputs": [
        {
          "components": [
            {
              "internalType": "address",
              "name": "communityRulesAddress",
              "type": "address"
            },
            {
              "internalType": "address",
              "name": "contributorPoolAddress",
              "type": "address"
            },
            {
              "internalType": "address",
              "name": "validationRulesAddress",
              "type": "address"
            },
            {
              "internalType": "address",
              "name": "voteRulesAddress",
              "type": "address"
            }
          ],
          "internalType": "struct ContractsDependency",
          "name": "contractDependency",
          "type": "tuple"
        }
      ],
      "name": "setContractAddressDependencies",
      "outputs": [],
      "stateMutability": "nonpayable",
      "type": "function"
    },
    {
      "inputs": [
        {
          "internalType": "address",
          "name": "addr",
          "type": "address"
        }
      ],
      "name": "totalPenalties",
      "outputs": [
        {
          "internalType": "uint256",
          "name": "",
          "type": "uint256"
        }
      ],
      "stateMutability": "view",
      "type": "function"
    },
    {
      "inputs": [
        {
          "internalType": "address",
          "name": "newOwner",
          "type": "address"
        }
      ],
      "name": "transferOwnership",
      "outputs": [],
      "stateMutability": "nonpayable",
      "type": "function"
    },
    {
      "inputs": [],
      "name": "withdraw",
      "outputs": [],
      "stateMutability": "nonpayable",
      "type": "function"
    }
  ],
  "bytecode": "0x60e060405234801561001057600080fd5b50604051614f97380380614f9783398181016040528101906100329190610175565b61004e61004361006e60201b60201c565b61007660201b60201c565b82608081815250508160c081815250508060a081815250505050506101c8565b600033905090565b60008060009054906101000a900473ffffffffffffffffffffffffffffffffffffffff169050816000806101000a81548173ffffffffffffffffffffffffffffffffffffffff021916908373ffffffffffffffffffffffffffffffffffffffff1602179055508173ffffffffffffffffffffffffffffffffffffffff168173ffffffffffffffffffffffffffffffffffffffff167f8be0079c531659141344cd1fd0a4f28419497f9722a3daafe3b4186f6b6457e060405160405180910390a35050565b600080fd5b6000819050919050565b6101528161013f565b811461015d57600080fd5b50565b60008151905061016f81610149565b92915050565b60008060006060848603121561018e5761018d61013a565b5b600061019c86828701610160565b93505060206101ad86828701610160565b92505060406101be86828701610160565b9150509250925092565b60805160a05160c051614d996101fe600039600061275601526000818161077d0152611ba501526000612deb0152614d996000f3fe608060405234801561001057600080fd5b50600436106101da5760003560e01c80638f93716f11610104578063b1824a51116100a2578063c77c1ce611610071578063c77c1ce61461059d578063cef42254146105cd578063da0e0f97146105fd578063f2fde38b1461062d576101da565b8063b1824a5114610501578063b43f070a14610531578063b7e977771461054f578063c69685561461057f576101da565b80639d4c1ab8116100de5780639d4c1ab8146104695780639eaf666f14610485578063a6801258146104b5578063b0fd59f3146104e5576101da565b80638f93716f146103ff57806391155f191461041b57806397705d601461044b576101da565b8063386581751161017c5780635fa71c281161014b5780635fa71c2814610377578063715018a6146103a75780637b334154146103b15780638da5cb5b146103e1576101da565b806338658175146103015780633ccfd60b1461031f5780633d8270f514610329578063582256f114610359576101da565b80631cee0700116101b85780631cee0700146102475780631f6d49421461027f5780632076267b146102b55780632d68402e146102e5576101da565b8063129de965146101df57806318ad5c9a146101fb5780631b63a43c14610217575b600080fd5b6101f960048036038101906101f4919061374b565b610649565b005b61021560048036038101906102109190613857565b610a15565b005b610231600480360381019061022c9190613857565b610d4d565b60405161023e91906138a6565b60405180910390f35b610261600480360381019061025c91906138c1565b610e6b565b60405161027699989796959493929190613997565b60405180910390f35b61029960048036038101906102949190613a32565b610ff6565b6040516102ac9796959493929190613a9d565b60405180910390f35b6102cf60048036038101906102ca9190613a32565b611186565b6040516102dc91906138a6565b60405180910390f35b6102ff60048036038101906102fa9190613b98565b6111d2565b005b6103096112f1565b60405161031691906138a6565b60405180910390f35b6103276112f7565b005b610343600480360381019061033e9190613a32565b6117b9565b6040516103509190613cf1565b60405180910390f35b6103616119d2565b60405161036e91906138a6565b60405180910390f35b610391600480360381019061038c9190613857565b611a7c565b60405161039e91906138a6565b60405180910390f35b6103af611ab3565b005b6103cb60048036038101906103c69190613a32565b611ac7565b6040516103d89190613d13565b60405180910390f35b6103e9611ae7565b6040516103f69190613d2e565b60405180910390f35b61041960048036038101906104149190613a32565b611b10565b005b61043560048036038101906104309190613857565b611b72565b60405161044291906138a6565b60405180910390f35b610453611ba3565b60405161046091906138a6565b60405180910390f35b610483600480360381019061047e9190613d49565b611bc7565b005b61049f600480360381019061049a9190613da5565b612244565b6040516104ac9190613d13565b60405180910390f35b6104cf60048036038101906104ca9190613a32565b612290565b6040516104dc9190613d13565b60405180910390f35b6104ff60048036038101906104fa919061374b565b6122e6565b005b61051b60048036038101906105169190613a32565b612706565b6040516105289190613d13565b60405180910390f35b610539612754565b60405161054691906138a6565b60405180910390f35b610569600480360381019061056491906138c1565b612778565b6040516105769190613d2e565b60405180910390f35b6105876127ab565b60405161059491906138a6565b60405180910390f35b6105b760048036038101906105b29190613a32565b6127b1565b6040516105c49190613d13565b60405180910390f35b6105e760048036038101906105e291906138c1565b612a90565b6040516105f49190613ed3565b60405180910390f35b61061760048036038101906106129190613a32565b612c85565b6040516106249190613fa4565b60405180910390f35b61064760048036038101906106429190613a32565b612d1c565b005b6101f482511115801561065e57506064815111155b61069d576040517f08c379a000000000000000000000000000000000000000000000000000000000815260040161069490614012565b60405180910390fd5b600660009054906101000a900473ffffffffffffffffffffffffffffffffffffffff1673ffffffffffffffffffffffffffffffffffffffff16639497c6086005336040518363ffffffff1660e01b81526004016106fb9291906140a9565b602060405180830381865afa158015610718573d6000803e3d6000fd5b505050506040513d601f19601f8201168201806040525081019061073c91906140fe565b61077b576040517f08c379a000000000000000000000000000000000000000000000000000000000815260040161077290614177565b60405180910390fd5b7f00000000000000000000000000000000000000000000000000000000000000006107a46119d2565b116107e4576040517f08c379a00000000000000000000000000000000000000000000000000000000081526004016107db90614209565b60405180910390fd5b6107ed33612d9f565b61082c576040517f08c379a000000000000000000000000000000000000000000000000000000000815260040161082390614275565b60405180910390fd5b600a600081548092919061083f906142c4565b9190505550600b6000815480929190610857906142c4565b91905055506000600b54905060405180610120016040528082815260200161087d612e2f565b81526020013373ffffffffffffffffffffffffffffffffffffffff16815260200184815260200183815260200160008152602001600115158152602001600081526020014381525060036000838152602001908152602001600020600082015181600001556020820151816001015560408201518160020160006101000a81548173ffffffffffffffffffffffffffffffffffffffff021916908373ffffffffffffffffffffffffffffffffffffffff16021790555060608201518160030190816109489190614518565b50608082015181600401908161095e9190614518565b5060a0820151816005015560c08201518160060160006101000a81548160ff02191690831515021790555060e082015181600701556101008201518160080155905050600560003373ffffffffffffffffffffffffffffffffffffffff1673ffffffffffffffffffffffffffffffffffffffff168152602001908152602001600020819080600181540180825580915050600190039060005260206000200160009091909190915055610a1033612ec7565b505050565b600160003373ffffffffffffffffffffffffffffffffffffffff1673ffffffffffffffffffffffffffffffffffffffff16815260200190815260200160002060009054906101000a900460ff16610aa1576040517f08c379a0000000000000000000000000000000000000000000000000000000008152600401610a9890614636565b60405180910390fd5b6000600260008473ffffffffffffffffffffffffffffffffffffffff1673ffffffffffffffffffffffffffffffffffffffff1681526020019081526020016000206040518060e0016040529081600082015481526020016001820160009054906101000a900473ffffffffffffffffffffffffffffffffffffffff1673ffffffffffffffffffffffffffffffffffffffff1673ffffffffffffffffffffffffffffffffffffffff168152602001600282018054610b5d9061433b565b80601f0160208091040260200160405190810160405280929190818152602001828054610b899061433b565b8015610bd65780601f10610bab57610100808354040283529160200191610bd6565b820191906000526020600020905b815481529060010190602001808311610bb957829003601f168201915b50505050508152602001600382018054610bef9061433b565b80601f0160208091040260200160405190810160405280929190818152602001828054610c1b9061433b565b8015610c685780601f10610c3d57610100808354040283529160200191610c68565b820191906000526020600020905b815481529060010190602001808311610c4b57829003601f168201915b5050505050815260200160048201604051806040016040529081600082015481526020016001820154815250508152602001600682015481526020016007820154815250509050600760009054906101000a900473ffffffffffffffffffffffffffffffffffffffff1673ffffffffffffffffffffffffffffffffffffffff1663157ffc5284836080015160200151856040518463ffffffff1660e01b8152600401610d1693929190614656565b600060405180830381600087803b158015610d3057600080fd5b505af1158015610d44573d6000803e3d6000fd5b50505050505050565b6000600160003373ffffffffffffffffffffffffffffffffffffffff1673ffffffffffffffffffffffffffffffffffffffff16815260200190815260200160002060009054906101000a900460ff16610ddb576040517f08c379a0000000000000000000000000000000000000000000000000000000008152600401610dd290614636565b60405180910390fd5b600c60008473ffffffffffffffffffffffffffffffffffffffff1673ffffffffffffffffffffffffffffffffffffffff16815260200190815260200160002060405180602001604052808481525090806001815401808255809150506001900390600052602060002001600090919091909150600082015181600001555050610e6383611186565b905092915050565b60036020528060005260406000206000915090508060000154908060010154908060020160009054906101000a900473ffffffffffffffffffffffffffffffffffffffff1690806003018054610ec09061433b565b80601f0160208091040260200160405190810160405280929190818152602001828054610eec9061433b565b8015610f395780601f10610f0e57610100808354040283529160200191610f39565b820191906000526020600020905b815481529060010190602001808311610f1c57829003601f168201915b505050505090806004018054610f4e9061433b565b80601f0160208091040260200160405190810160405280929190818152602001828054610f7a9061433b565b8015610fc75780601f10610f9c57610100808354040283529160200191610fc7565b820191906000526020600020905b815481529060010190602001808311610faa57829003601f168201915b5050505050908060050154908060060160009054906101000a900460ff16908060070154908060080154905089565b60026020528060005260406000206000915090508060000154908060010160009054906101000a900473ffffffffffffffffffffffffffffffffffffffff16908060020180546110459061433b565b80601f01602080910402602001604051908101604052809291908181526020018280546110719061433b565b80156110be5780601f10611093576101008083540402835291602001916110be565b820191906000526020600020905b8154815290600101906020018083116110a157829003601f168201915b5050505050908060030180546110d39061433b565b80601f01602080910402602001604051908101604052809291908181526020018280546110ff9061433b565b801561114c5780601f106111215761010080835404028352916020019161114c565b820191906000526020600020905b81548152906001019060200180831161112f57829003601f168201915b5050505050908060040160405180604001604052908160008201548152602001600182015481525050908060060154908060070154905087565b6000600c60008373ffffffffffffffffffffffffffffffffffffffff1673ffffffffffffffffffffffffffffffffffffffff168152602001908152602001600020805490509050919050565b6111da613280565b8060000151600660006101000a81548173ffffffffffffffffffffffffffffffffffffffff021916908373ffffffffffffffffffffffffffffffffffffffff1602179055508060200151600760006101000a81548173ffffffffffffffffffffffffffffffffffffffff021916908373ffffffffffffffffffffffffffffffffffffffff1602179055508060400151600860006101000a81548173ffffffffffffffffffffffffffffffffffffffff021916908373ffffffffffffffffffffffffffffffffffffffff1602179055508060600151600960006101000a81548173ffffffffffffffffffffffffffffffffffffffff021916908373ffffffffffffffffffffffffffffffffffffffff16021790555050565b600a5481565b600660009054906101000a900473ffffffffffffffffffffffffffffffffffffffff1673ffffffffffffffffffffffffffffffffffffffff16639497c6086005336040518363ffffffff1660e01b81526004016113559291906140a9565b602060405180830381865afa158015611372573d6000803e3d6000fd5b505050506040513d601f19601f8201168201806040525081019061139691906140fe565b6113d5576040517f08c379a00000000000000000000000000000000000000000000000000000000081526004016113cc906146d9565b60405180910390fd5b6000600260003373ffffffffffffffffffffffffffffffffffffffff1673ffffffffffffffffffffffffffffffffffffffff1681526020019081526020016000206040518060e0016040529081600082015481526020016001820160009054906101000a900473ffffffffffffffffffffffffffffffffffffffff1673ffffffffffffffffffffffffffffffffffffffff1673ffffffffffffffffffffffffffffffffffffffff1681526020016002820180546114919061433b565b80601f01602080910402602001604051908101604052809291908181526020018280546114bd9061433b565b801561150a5780601f106114df5761010080835404028352916020019161150a565b820191906000526020600020905b8154815290600101906020018083116114ed57829003601f168201915b505050505081526020016003820180546115239061433b565b80601f016020809104026020016040519081016040528092919081815260200182805461154f9061433b565b801561159c5780601f106115715761010080835404028352916020019161159c565b820191906000526020600020905b81548152906001019060200180831161157f57829003601f168201915b505050505081526020016004820160405180604001604052908160008201548152602001600182015481525050815260200160068201548152602001600782015481525050905060008160800151602001519050600760009054906101000a900473ffffffffffffffffffffffffffffffffffffffff1673ffffffffffffffffffffffffffffffffffffffff1663fbe85f06826040518263ffffffff1660e01b815260040161164b91906138a6565b602060405180830381865afa158015611668573d6000803e3d6000fd5b505050506040513d601f19601f8201168201806040525081019061168c91906140fe565b6116cb576040517f08c379a00000000000000000000000000000000000000000000000000000000081526004016116c290614745565b60405180910390fd5b600260003373ffffffffffffffffffffffffffffffffffffffff1673ffffffffffffffffffffffffffffffffffffffff1681526020019081526020016000206004016001016000815480929190611721906142c4565b9190505550600760009054906101000a900473ffffffffffffffffffffffffffffffffffffffff1673ffffffffffffffffffffffffffffffffffffffff1663f3fef3a333836040518363ffffffff1660e01b8152600401611783929190614765565b600060405180830381600087803b15801561179d57600080fd5b505af11580156117b1573d6000803e3d6000fd5b505050505050565b6117c161351a565b600260008373ffffffffffffffffffffffffffffffffffffffff1673ffffffffffffffffffffffffffffffffffffffff1681526020019081526020016000206040518060e0016040529081600082015481526020016001820160009054906101000a900473ffffffffffffffffffffffffffffffffffffffff1673ffffffffffffffffffffffffffffffffffffffff1673ffffffffffffffffffffffffffffffffffffffff16815260200160028201805461187b9061433b565b80601f01602080910402602001604051908101604052809291908181526020018280546118a79061433b565b80156118f45780601f106118c9576101008083540402835291602001916118f4565b820191906000526020600020905b8154815290600101906020018083116118d757829003601f168201915b5050505050815260200160038201805461190d9061433b565b80601f01602080910402602001604051908101604052809291908181526020018280546119399061433b565b80156119865780601f1061195b57610100808354040283529160200191611986565b820191906000526020600020905b81548152906001019060200180831161196957829003601f168201915b5050505050815260200160048201604051806040016040529081600082015481526020016001820154815250508152602001600682015481526020016007820154815250509050919050565b6000600760009054906101000a900473ffffffffffffffffffffffffffffffffffffffff1673ffffffffffffffffffffffffffffffffffffffff1663d5ee3eb5611a1a612e2f565b6040518263ffffffff1660e01b8152600401611a3691906138a6565b602060405180830381865afa158015611a53573d6000803e3d6000fd5b505050506040513d601f19601f82011682018060405250810190611a7791906147c4565b905090565b600c6020528160005260406000208181548110611a9857600080fd5b90600052602060002001600091509150508060000154905081565b611abb613280565b611ac560006132fe565b565b60016020528060005260406000206000915054906101000a900460ff1681565b60008060009054906101000a900473ffffffffffffffffffffffffffffffffffffffff16905090565b611b18613280565b60018060008373ffffffffffffffffffffffffffffffffffffffff1673ffffffffffffffffffffffffffffffffffffffff16815260200190815260200160002060006101000a81548160ff02191690831515021790555050565b60056020528160005260406000208181548110611b8e57600080fd5b90600052602060002001600091509150505481565b7f000000000000000000000000000000000000000000000000000000000000000081565b600960009054906101000a900473ffffffffffffffffffffffffffffffffffffffff1673ffffffffffffffffffffffffffffffffffffffff1663adfaa72e336040518263ffffffff1660e01b8152600401611c229190613d2e565b602060405180830381865afa158015611c3f573d6000803e3d6000fd5b505050506040513d601f19601f82011682018060405250810190611c6391906140fe565b611ca2576040517f08c379a0000000000000000000000000000000000000000000000000000000008152600401611c999061483d565b60405180910390fd5b600860009054906101000a900473ffffffffffffffffffffffffffffffffffffffff1673ffffffffffffffffffffffffffffffffffffffff1663361119ac336040518263ffffffff1660e01b8152600401611cfd9190613d2e565b602060405180830381865afa158015611d1a573d6000803e3d6000fd5b505050506040513d601f19601f82011682018060405250810190611d3e91906140fe565b611d7d576040517f08c379a0000000000000000000000000000000000000000000000000000000008152600401611d74906148a9565b60405180910390fd5b61012c81511115611dc3576040517f08c379a0000000000000000000000000000000000000000000000000000000008152600401611dba90614915565b60405180910390fd5b6000600360008481526020019081526020016000206040518061012001604052908160008201548152602001600182015481526020016002820160009054906101000a900473ffffffffffffffffffffffffffffffffffffffff1673ffffffffffffffffffffffffffffffffffffffff1673ffffffffffffffffffffffffffffffffffffffff168152602001600382018054611e5e9061433b565b80601f0160208091040260200160405190810160405280929190818152602001828054611e8a9061433b565b8015611ed75780601f10611eac57610100808354040283529160200191611ed7565b820191906000526020600020905b815481529060010190602001808311611eba57829003601f168201915b50505050508152602001600482018054611ef09061433b565b80601f0160208091040260200160405190810160405280929190818152602001828054611f1c9061433b565b8015611f695780601f10611f3e57610100808354040283529160200191611f69565b820191906000526020600020905b815481529060010190602001808311611f4c57829003601f168201915b50505050508152602001600582015481526020016006820160009054906101000a900460ff161515151581526020016007820154815260200160088201548152505090508060c001518015611fc957508060200151611fc6612e2f565b11155b612008576040517f08c379a0000000000000000000000000000000000000000000000000000000008152600401611fff90614981565b60405180910390fd5b60018160a00181815161201b91906149a1565b915081815250508060036000858152602001908152602001600020600082015181600001556020820151816001015560408201518160020160006101000a81548173ffffffffffffffffffffffffffffffffffffffff021916908373ffffffffffffffffffffffffffffffffffffffff16021790555060608201518160030190816120a69190614518565b5060808201518160040190816120bc9190614518565b5060a0820151816005015560c08201518160060160006101000a81548160ff02191690831515021790555060e0820151816007015561010082015181600801559050506000600860009054906101000a900473ffffffffffffffffffffffffffffffffffffffff1673ffffffffffffffffffffffffffffffffffffffff166369bf81c36040518163ffffffff1660e01b8152600401602060405180830381865afa15801561216e573d6000803e3d6000fd5b505050506040513d601f19601f8201168201806040525081019061219291906149ea565b8260a001511015905080156121ad576121aa826133c2565b91505b600860009054906101000a900473ffffffffffffffffffffffffffffffffffffffff1673ffffffffffffffffffffffffffffffffffffffff1663ff12574e8385336040518463ffffffff1660e01b815260040161220c93929190614a17565b600060405180830381600087803b15801561222657600080fd5b505af115801561223a573d6000803e3d6000fd5b5050505050505050565b6000600583116122575760019050612289565b600061227f600161227186886134e690919063ffffffff16565b6134fc90919063ffffffff16565b9050808310159150505b9392505050565b6000600160008373ffffffffffffffffffffffffffffffffffffffff1673ffffffffffffffffffffffffffffffffffffffff16815260200190815260200160002060009054906101000a900460ff169050919050565b60648251111580156122fa57506064815111155b612339576040517f08c379a000000000000000000000000000000000000000000000000000000000815260040161233090614aa8565b60405180910390fd5b613e80600660009054906101000a900473ffffffffffffffffffffffffffffffffffffffff1673ffffffffffffffffffffffffffffffffffffffff16632f22dc7b60056040518263ffffffff1660e01b81526004016123989190614ac8565b602060405180830381865afa1580156123b5573d6000803e3d6000fd5b505050506040513d601f19601f820116820180604052508101906123d991906149ea565b111561241a576040517f08c379a000000000000000000000000000000000000000000000000000000000815260040161241190614b2f565b60405180910390fd5b60006001600660009054906101000a900473ffffffffffffffffffffffffffffffffffffffff1673ffffffffffffffffffffffffffffffffffffffff16631eb2c12060056040518263ffffffff1660e01b815260040161247a9190614ac8565b602060405180830381865afa158015612497573d6000803e3d6000fd5b505050506040513d601f19601f820116820180604052508101906124bb91906149ea565b6124c591906149a1565b90506040518060e001604052808281526020013373ffffffffffffffffffffffffffffffffffffffff16815260200184815260200183815260200160405180604001604052806000815260200161251a612e2f565b81525081526020014381526020016000815250600260003373ffffffffffffffffffffffffffffffffffffffff1673ffffffffffffffffffffffffffffffffffffffff1681526020019081526020016000206000820151816000015560208201518160010160006101000a81548173ffffffffffffffffffffffffffffffffffffffff021916908373ffffffffffffffffffffffffffffffffffffffff16021790555060408201518160020190816125d29190614518565b5060608201518160030190816125e89190614518565b506080820151816004016000820151816000015560208201518160010155505060a0820151816006015560c08201518160070155905050336004600083815260200190815260200160002060006101000a81548173ffffffffffffffffffffffffffffffffffffffff021916908373ffffffffffffffffffffffffffffffffffffffff160217905550600660009054906101000a900473ffffffffffffffffffffffffffffffffffffffff1673ffffffffffffffffffffffffffffffffffffffff16639c3eead93360056040518363ffffffff1660e01b81526004016126cf929190614b4f565b600060405180830381600087803b1580156126e957600080fd5b505af11580156126fd573d6000803e3d6000fd5b50505050505050565b600080600260008473ffffffffffffffffffffffffffffffffffffffff1673ffffffffffffffffffffffffffffffffffffffff16815260200190815260200160002060000154119050919050565b7f000000000000000000000000000000000000000000000000000000000000000081565b60046020528060005260406000206000915054906101000a900473ffffffffffffffffffffffffffffffffffffffff1681565b600b5481565b600080600260008473ffffffffffffffffffffffffffffffffffffffff1673ffffffffffffffffffffffffffffffffffffffff1681526020019081526020016000206040518060e0016040529081600082015481526020016001820160009054906101000a900473ffffffffffffffffffffffffffffffffffffffff1673ffffffffffffffffffffffffffffffffffffffff1673ffffffffffffffffffffffffffffffffffffffff16815260200160028201805461286e9061433b565b80601f016020809104026020016040519081016040528092919081815260200182805461289a9061433b565b80156128e75780601f106128bc576101008083540402835291602001916128e7565b820191906000526020600020905b8154815290600101906020018083116128ca57829003601f168201915b505050505081526020016003820180546129009061433b565b80601f016020809104026020016040519081016040528092919081815260200182805461292c9061433b565b80156129795780601f1061294e57610100808354040283529160200191612979565b820191906000526020600020905b81548152906001019060200180831161295c57829003601f168201915b505050505081526020016004820160405180604001604052908160008201548152602001600182015481525050815260200160068201548152602001600782015481525050905060008160000151116129d6576000915050612a8b565b612a87600b54600660009054906101000a900473ffffffffffffffffffffffffffffffffffffffff1673ffffffffffffffffffffffffffffffffffffffff16631eb2c12060056040518263ffffffff1660e01b8152600401612a389190614ac8565b602060405180830381865afa158015612a55573d6000803e3d6000fd5b505050506040513d601f19601f82011682018060405250810190612a7991906149ea565b836080015160000151612244565b9150505b919050565b612a98613573565b600360008381526020019081526020016000206040518061012001604052908160008201548152602001600182015481526020016002820160009054906101000a900473ffffffffffffffffffffffffffffffffffffffff1673ffffffffffffffffffffffffffffffffffffffff1673ffffffffffffffffffffffffffffffffffffffff168152602001600382018054612b319061433b565b80601f0160208091040260200160405190810160405280929190818152602001828054612b5d9061433b565b8015612baa5780601f10612b7f57610100808354040283529160200191612baa565b820191906000526020600020905b815481529060010190602001808311612b8d57829003601f168201915b50505050508152602001600482018054612bc39061433b565b80601f0160208091040260200160405190810160405280929190818152602001828054612bef9061433b565b8015612c3c5780601f10612c1157610100808354040283529160200191612c3c565b820191906000526020600020905b815481529060010190602001808311612c1f57829003601f168201915b50505050508152602001600582015481526020016006820160009054906101000a900460ff16151515158152602001600782015481526020016008820154815250509050919050565b6060600560008373ffffffffffffffffffffffffffffffffffffffff1673ffffffffffffffffffffffffffffffffffffffff168152602001908152602001600020805480602002602001604051908101604052809291908181526020018280548015612d1057602002820191906000526020600020905b815481526020019060010190808311612cfc575b50505050509050919050565b612d24613280565b600073ffffffffffffffffffffffffffffffffffffffff168173ffffffffffffffffffffffffffffffffffffffff1603612d93576040517f08c379a0000000000000000000000000000000000000000000000000000000008152600401612d8a90614bea565b60405180910390fd5b612d9c816132fe565b50565b600080600260008473ffffffffffffffffffffffffffffffffffffffff1673ffffffffffffffffffffffffffffffffffffffff16815260200190815260200160002060070154905060007f000000000000000000000000000000000000000000000000000000000000000082612e1591906149a1565b431190508080612e26575060008211155b92505050919050565b6000600760009054906101000a900473ffffffffffffffffffffffffffffffffffffffff1673ffffffffffffffffffffffffffffffffffffffff1663ed0df79e6040518163ffffffff1660e01b8152600401602060405180830381865afa158015612e9e573d6000803e3d6000fd5b505050506040513d601f19601f82011682018060405250810190612ec291906149ea565b905090565b6000600260008373ffffffffffffffffffffffffffffffffffffffff1673ffffffffffffffffffffffffffffffffffffffff1681526020019081526020016000206040518060e0016040529081600082015481526020016001820160009054906101000a900473ffffffffffffffffffffffffffffffffffffffff1673ffffffffffffffffffffffffffffffffffffffff1673ffffffffffffffffffffffffffffffffffffffff168152602001600282018054612f839061433b565b80601f0160208091040260200160405190810160405280929190818152602001828054612faf9061433b565b8015612ffc5780601f10612fd157610100808354040283529160200191612ffc565b820191906000526020600020905b815481529060010190602001808311612fdf57829003601f168201915b505050505081526020016003820180546130159061433b565b80601f01602080910402602001604051908101604052809291908181526020018280546130419061433b565b801561308e5780601f106130635761010080835404028352916020019161308e565b820191906000526020600020905b81548152906001019060200180831161307157829003601f168201915b5050505050815260200160048201604051806040016040529081600082015481526020016001820154815250508152602001600682015481526020016007820154815250509050438160c0018181525050806080015160000180518091906130f5906142c4565b8152505080600260008473ffffffffffffffffffffffffffffffffffffffff1673ffffffffffffffffffffffffffffffffffffffff1681526020019081526020016000206000820151816000015560208201518160010160006101000a81548173ffffffffffffffffffffffffffffffffffffffff021916908373ffffffffffffffffffffffffffffffffffffffff160217905550604082015181600201908161319f9190614518565b5060608201518160030190816131b59190614518565b506080820151816004016000820151816000015560208201518160010155505060a0820151816006015560c08201518160070155905050600760009054906101000a900473ffffffffffffffffffffffffffffffffffffffff1673ffffffffffffffffffffffffffffffffffffffff166352b8d3ed8360016040518363ffffffff1660e01b815260040161324a929190614c45565b600060405180830381600087803b15801561326457600080fd5b505af1158015613278573d6000803e3d6000fd5b505050505050565b613288613512565b73ffffffffffffffffffffffffffffffffffffffff166132a6611ae7565b73ffffffffffffffffffffffffffffffffffffffff16146132fc576040517f08c379a00000000000000000000000000000000000000000000000000000000081526004016132f390614cba565b60405180910390fd5b565b60008060009054906101000a900473ffffffffffffffffffffffffffffffffffffffff169050816000806101000a81548173ffffffffffffffffffffffffffffffffffffffff021916908373ffffffffffffffffffffffffffffffffffffffff1602179055508173ffffffffffffffffffffffffffffffffffffffff168173ffffffffffffffffffffffffffffffffffffffff167f8be0079c531659141344cd1fd0a4f28419497f9722a3daafe3b4186f6b6457e060405160405180910390a35050565b6133ca613573565b600a60008154809291906133dd90614cda565b919050555060008260c0019015159081151581525050438260e0018181525050816003600084600001518152602001908152602001600020600082015181600001556020820151816001015560408201518160020160006101000a81548173ffffffffffffffffffffffffffffffffffffffff021916908373ffffffffffffffffffffffffffffffffffffffff16021790555060608201518160030190816134859190614518565b50608082015181600401908161349b9190614518565b5060a0820151816005015560c08201518160060160006101000a81548160ff02191690831515021790555060e082015181600701556101008201518160080155905050819050919050565b600081836134f49190614d32565b905092915050565b6000818361350a91906149a1565b905092915050565b600033905090565b6040518060e0016040528060008152602001600073ffffffffffffffffffffffffffffffffffffffff168152602001606081526020016060815260200161355f6135d7565b815260200160008152602001600081525090565b6040518061012001604052806000815260200160008152602001600073ffffffffffffffffffffffffffffffffffffffff16815260200160608152602001606081526020016000815260200160001515815260200160008152602001600081525090565b604051806040016040528060008152602001600081525090565b6000604051905090565b600080fd5b600080fd5b600080fd5b600080fd5b6000601f19601f8301169050919050565b7f4e487b7100000000000000000000000000000000000000000000000000000000600052604160045260246000fd5b6136588261360f565b810181811067ffffffffffffffff8211171561367757613676613620565b5b80604052505050565b600061368a6135f1565b9050613696828261364f565b919050565b600067ffffffffffffffff8211156136b6576136b5613620565b5b6136bf8261360f565b9050602081019050919050565b82818337600083830152505050565b60006136ee6136e98461369b565b613680565b90508281526020810184848401111561370a5761370961360a565b5b6137158482856136cc565b509392505050565b600082601f83011261373257613731613605565b5b81356137428482602086016136db565b91505092915050565b60008060408385031215613762576137616135fb565b5b600083013567ffffffffffffffff8111156137805761377f613600565b5b61378c8582860161371d565b925050602083013567ffffffffffffffff8111156137ad576137ac613600565b5b6137b98582860161371d565b9150509250929050565b600073ffffffffffffffffffffffffffffffffffffffff82169050919050565b60006137ee826137c3565b9050919050565b6137fe816137e3565b811461380957600080fd5b50565b60008135905061381b816137f5565b92915050565b6000819050919050565b61383481613821565b811461383f57600080fd5b50565b6000813590506138518161382b565b92915050565b6000806040838503121561386e5761386d6135fb565b5b600061387c8582860161380c565b925050602061388d85828601613842565b9150509250929050565b6138a081613821565b82525050565b60006020820190506138bb6000830184613897565b92915050565b6000602082840312156138d7576138d66135fb565b5b60006138e584828501613842565b91505092915050565b6138f7816137e3565b82525050565b600081519050919050565b600082825260208201905092915050565b60005b8381101561393757808201518184015260208101905061391c565b60008484015250505050565b600061394e826138fd565b6139588185613908565b9350613968818560208601613919565b6139718161360f565b840191505092915050565b60008115159050919050565b6139918161397c565b82525050565b6000610120820190506139ad600083018c613897565b6139ba602083018b613897565b6139c7604083018a6138ee565b81810360608301526139d98189613943565b905081810360808301526139ed8188613943565b90506139fc60a0830187613897565b613a0960c0830186613988565b613a1660e0830185613897565b613a24610100830184613897565b9a9950505050505050505050565b600060208284031215613a4857613a476135fb565b5b6000613a568482850161380c565b91505092915050565b613a6881613821565b82525050565b604082016000820151613a846000850182613a5f565b506020820151613a976020850182613a5f565b50505050565b600061010082019050613ab3600083018a613897565b613ac060208301896138ee565b8181036040830152613ad28188613943565b90508181036060830152613ae68187613943565b9050613af56080830186613a6e565b613b0260c0830185613897565b613b0f60e0830184613897565b98975050505050505050565b600080fd5b600060808284031215613b3657613b35613b1b565b5b613b406080613680565b90506000613b508482850161380c565b6000830152506020613b648482850161380c565b6020830152506040613b788482850161380c565b6040830152506060613b8c8482850161380c565b60608301525092915050565b600060808284031215613bae57613bad6135fb565b5b6000613bbc84828501613b20565b91505092915050565b613bce816137e3565b82525050565b600082825260208201905092915050565b6000613bf0826138fd565b613bfa8185613bd4565b9350613c0a818560208601613919565b613c138161360f565b840191505092915050565b604082016000820151613c346000850182613a5f565b506020820151613c476020850182613a5f565b50505050565b600061010083016000830151613c666000860182613a5f565b506020830151613c796020860182613bc5565b5060408301518482036040860152613c918282613be5565b91505060608301518482036060860152613cab8282613be5565b9150506080830151613cc06080860182613c1e565b5060a0830151613cd360c0860182613a5f565b5060c0830151613ce660e0860182613a5f565b508091505092915050565b60006020820190508181036000830152613d0b8184613c4d565b905092915050565b6000602082019050613d286000830184613988565b92915050565b6000602082019050613d4360008301846138ee565b92915050565b60008060408385031215613d6057613d5f6135fb565b5b6000613d6e85828601613842565b925050602083013567ffffffffffffffff811115613d8f57613d8e613600565b5b613d9b8582860161371d565b9150509250929050565b600080600060608486031215613dbe57613dbd6135fb565b5b6000613dcc86828701613842565b9350506020613ddd86828701613842565b9250506040613dee86828701613842565b9150509250925092565b613e018161397c565b82525050565b600061012083016000830151613e206000860182613a5f565b506020830151613e336020860182613a5f565b506040830151613e466040860182613bc5565b5060608301518482036060860152613e5e8282613be5565b91505060808301518482036080860152613e788282613be5565b91505060a0830151613e8d60a0860182613a5f565b5060c0830151613ea060c0860182613df8565b5060e0830151613eb360e0860182613a5f565b50610100830151613ec8610100860182613a5f565b508091505092915050565b60006020820190508181036000830152613eed8184613e07565b905092915050565b600081519050919050565b600082825260208201905092915050565b6000819050602082019050919050565b6000613f2d8383613a5f565b60208301905092915050565b6000602082019050919050565b6000613f5182613ef5565b613f5b8185613f00565b9350613f6683613f11565b8060005b83811015613f97578151613f7e8882613f21565b9750613f8983613f39565b925050600181019050613f6a565b5085935050505092915050565b60006020820190508181036000830152613fbe8184613f46565b905092915050565b7f4d61782063686172616374657273207265616368656400000000000000000000600082015250565b6000613ffc601683613908565b915061400782613fc6565b602082019050919050565b6000602082019050818103600083015261402b81613fef565b9050919050565b7f4e487b7100000000000000000000000000000000000000000000000000000000600052602160045260246000fd5b6009811061407257614071614032565b5b50565b600081905061408382614061565b919050565b600061409382614075565b9050919050565b6140a381614088565b82525050565b60006040820190506140be600083018561409a565b6140cb60208301846138ee565b9392505050565b6140db8161397c565b81146140e657600080fd5b50565b6000815190506140f8816140d2565b92915050565b600060208284031215614114576141136135fb565b5b6000614122848285016140e9565b91505092915050565b7f4f6e6c7920436f6e7472696275746f7200000000000000000000000000000000600082015250565b6000614161601083613908565b915061416c8261412b565b602082019050919050565b6000602082019050818103600083015261419081614154565b9050919050565b7f5761697420756e74696c206e6578742065726120746f2061646420636f6e747260008201527f69627574696f6e00000000000000000000000000000000000000000000000000602082015250565b60006141f3602783613908565b91506141fe82614197565b604082019050919050565b60006020820190508181036000830152614222816141e6565b9050919050565b7f43616e2774207075626c69736820796574000000000000000000000000000000600082015250565b600061425f601183613908565b915061426a82614229565b602082019050919050565b6000602082019050818103600083015261428e81614252565b9050919050565b7f4e487b7100000000000000000000000000000000000000000000000000000000600052601160045260246000fd5b60006142cf82613821565b91507fffffffffffffffffffffffffffffffffffffffffffffffffffffffffffffffff820361430157614300614295565b5b600182019050919050565b7f4e487b7100000000000000000000000000000000000000000000000000000000600052602260045260246000fd5b6000600282049050600182168061435357607f821691505b6020821081036143665761436561430c565b5b50919050565b60008190508160005260206000209050919050565b60006020601f8301049050919050565b600082821b905092915050565b6000600883026143ce7fffffffffffffffffffffffffffffffffffffffffffffffffffffffffffffffff82614391565b6143d88683614391565b95508019841693508086168417925050509392505050565b6000819050919050565b600061441561441061440b84613821565b6143f0565b613821565b9050919050565b6000819050919050565b61442f836143fa565b61444361443b8261441c565b84845461439e565b825550505050565b600090565b61445861444b565b614463818484614426565b505050565b5b818110156144875761447c600082614450565b600181019050614469565b5050565b601f8211156144cc5761449d8161436c565b6144a684614381565b810160208510156144b5578190505b6144c96144c185614381565b830182614468565b50505b505050565b600082821c905092915050565b60006144ef600019846008026144d1565b1980831691505092915050565b600061450883836144de565b9150826002028217905092915050565b614521826138fd565b67ffffffffffffffff81111561453a57614539613620565b5b614544825461433b565b61454f82828561448b565b600060209050601f8311600181146145825760008415614570578287015190505b61457a85826144fc565b8655506145e2565b601f1984166145908661436c565b60005b828110156145b857848901518255600182019150602085019450602081019050614593565b868310156145d557848901516145d1601f8916826144de565b8355505b6001600288020188555050505b505050505050565b7f4e6f7420616c6c6f7765642063616c6c65720000000000000000000000000000600082015250565b6000614620601283613908565b915061462b826145ea565b602082019050919050565b6000602082019050818103600083015261464f81614613565b9050919050565b600060608201905061466b60008301866138ee565b6146786020830185613897565b6146856040830184613897565b949350505050565b7f506f6f6c206f6e6c7920746f20636f6e7472696275746f720000000000000000600082015250565b60006146c3601883613908565b91506146ce8261468d565b602082019050919050565b600060208201905081810360008301526146f2816146b6565b9050919050565b7f43616e277420617070726f766520776974686472617700000000000000000000600082015250565b600061472f601683613908565b915061473a826146f9565b602082019050919050565b6000602082019050818103600083015261475e81614722565b9050919050565b600060408201905061477a60008301856138ee565b6147876020830184613897565b9392505050565b6000819050919050565b6147a18161478e565b81146147ac57600080fd5b50565b6000815190506147be81614798565b92915050565b6000602082840312156147da576147d96135fb565b5b60006147e8848285016147af565b91505092915050565b7f557365722063616e6e6f7420766f746500000000000000000000000000000000600082015250565b6000614827601083613908565b9150614832826147f1565b602082019050919050565b600060208201905081810360008301526148568161481a565b9050919050565b7f576169742074696d654265747765656e566f7465730000000000000000000000600082015250565b6000614893601583613908565b915061489e8261485d565b602082019050919050565b600060208201905081810360008301526148c281614886565b9050919050565b7f4d61782033303020636861726163746572732072656163686564000000000000600082015250565b60006148ff601a83613908565b915061490a826148c9565b602082019050919050565b6000602082019050818103600083015261492e816148f2565b9050919050565b7f5468697320636f6e747269627574696f6e206973206e6f742056414c49440000600082015250565b600061496b601e83613908565b915061497682614935565b602082019050919050565b6000602082019050818103600083015261499a8161495e565b9050919050565b60006149ac82613821565b91506149b783613821565b92508282019050808211156149cf576149ce614295565b5b92915050565b6000815190506149e48161382b565b92915050565b600060208284031215614a00576149ff6135fb565b5b6000614a0e848285016149d5565b91505092915050565b60006060820190508181036000830152614a318186613e07565b90508181036020830152614a458185613943565b9050614a5460408301846138ee565b949350505050565b7f4d61782031303020636861726163746572730000000000000000000000000000600082015250565b6000614a92601283613908565b9150614a9d82614a5c565b602082019050919050565b60006020820190508181036000830152614ac181614a85565b9050919050565b6000602082019050614add600083018461409a565b92915050565b7f4d6178206c696d69742072656163686564000000000000000000000000000000600082015250565b6000614b19601183613908565b9150614b2482614ae3565b602082019050919050565b60006020820190508181036000830152614b4881614b0c565b9050919050565b6000604082019050614b6460008301856138ee565b614b71602083018461409a565b9392505050565b7f4f776e61626c653a206e6577206f776e657220697320746865207a65726f206160008201527f6464726573730000000000000000000000000000000000000000000000000000602082015250565b6000614bd4602683613908565b9150614bdf82614b78565b604082019050919050565b60006020820190508181036000830152614c0381614bc7565b9050919050565b6000819050919050565b6000614c2f614c2a614c2584614c0a565b6143f0565b613821565b9050919050565b614c3f81614c14565b82525050565b6000604082019050614c5a60008301856138ee565b614c676020830184614c36565b9392505050565b7f4f776e61626c653a2063616c6c6572206973206e6f7420746865206f776e6572600082015250565b6000614ca4602083613908565b9150614caf82614c6e565b602082019050919050565b60006020820190508181036000830152614cd381614c97565b9050919050565b6000614ce582613821565b915060008203614cf857614cf7614295565b5b600182039050919050565b7f4e487b7100000000000000000000000000000000000000000000000000000000600052601260045260246000fd5b6000614d3d82613821565b9150614d4883613821565b925082614d5857614d57614d03565b5b82820490509291505056fea26469706673582212203ca729f2c97e4b0dda9a86d2f103ae4dba74d8a856acd05300071d4c134de77d64736f6c634300081b0033",
  "linkReferences": {},
  "deployedLinkReferences": {}
}