{
  "_format": "hh-sol-artifact-1",
  "contractName": "ContributorPool",
  "sourceName": "contracts/ContributorPool.sol",
  "abi": [
    {
      "inputs": [
        {
          "internalType": "address",
          "name": "regenerationCreditAddress",
          "type": "address"
        },
        {
          "internalType": "uint256",
          "name": "_halving",
          "type": "uint256"
        },
        {
          "internalType": "uint256",
          "name": "_blocksPerEra",
          "type": "uint256"
        }
      ],
      "stateMutability": "nonpayable",
      "type": "constructor"
    },
    {
      "inputs": [
        {
          "internalType": "address",
          "name": "owner",
          "type": "address"
        }
      ],
      "name": "OwnableInvalidOwner",
      "type": "error"
    },
    {
      "inputs": [
        {
          "internalType": "address",
          "name": "account",
          "type": "address"
        }
      ],
      "name": "OwnableUnauthorizedAccount",
      "type": "error"
    },
    {
      "inputs": [],
      "name": "ReentrancyGuardReentrantCall",
      "type": "error"
    },
    {
      "anonymous": false,
      "inputs": [
        {
          "indexed": true,
          "internalType": "address",
          "name": "previousOwner",
          "type": "address"
        },
        {
          "indexed": true,
          "internalType": "address",
          "name": "newOwner",
          "type": "address"
        }
      ],
      "name": "OwnershipTransferred",
      "type": "event"
    },
    {
      "anonymous": false,
      "inputs": [
        {
          "indexed": true,
          "internalType": "address",
          "name": "user",
          "type": "address"
        },
        {
          "indexed": false,
          "internalType": "uint256",
          "name": "era",
          "type": "uint256"
        },
        {
          "indexed": false,
          "internalType": "uint256",
          "name": "levelsAdded",
          "type": "uint256"
        },
        {
          "indexed": false,
          "internalType": "uint256",
          "name": "newTotalEraLevels",
          "type": "uint256"
        },
        {
          "indexed": false,
          "internalType": "uint256",
          "name": "newEraUserLevels",
          "type": "uint256"
        }
      ],
      "name": "PoolLevelAdded",
      "type": "event"
    },
    {
      "anonymous": false,
      "inputs": [
        {
          "indexed": true,
          "internalType": "address",
          "name": "user",
          "type": "address"
        },
        {
          "indexed": false,
          "internalType": "uint256",
          "name": "era",
          "type": "uint256"
        },
        {
          "indexed": false,
          "internalType": "uint256",
          "name": "levelsRemoved",
          "type": "uint256"
        },
        {
          "indexed": false,
          "internalType": "uint256",
          "name": "newTotalEraLevels",
          "type": "uint256"
        },
        {
          "indexed": false,
          "internalType": "uint256",
          "name": "newEraUserLevels",
          "type": "uint256"
        }
      ],
      "name": "PoolLevelRemoved",
      "type": "event"
    },
    {
      "anonymous": false,
      "inputs": [
        {
          "indexed": true,
          "internalType": "address",
          "name": "user",
          "type": "address"
        },
        {
          "indexed": false,
          "internalType": "uint256",
          "name": "era",
          "type": "uint256"
        },
        {
          "indexed": false,
          "internalType": "uint256",
          "name": "amount",
          "type": "uint256"
        }
      ],
      "name": "TokensWithdrawn",
      "type": "event"
    },
    {
      "inputs": [],
      "name": "BLOCKS_PRECISION",
      "outputs": [
        {
          "internalType": "uint256",
          "name": "",
          "type": "uint256"
        }
      ],
      "stateMutability": "view",
      "type": "function"
    },
    {
      "inputs": [
        {
          "internalType": "address",
          "name": "addr",
          "type": "address"
        },
        {
          "internalType": "uint256",
          "name": "levels",
          "type": "uint256"
        },
        {
          "internalType": "uint64",
          "name": "eventId",
          "type": "uint64"
        }
      ],
      "name": "addLevel",
      "outputs": [],
      "stateMutability": "nonpayable",
      "type": "function"
    },
    {
      "inputs": [
        {
          "internalType": "address",
          "name": "",
          "type": "address"
        }
      ],
      "name": "allowedCallers",
      "outputs": [
        {
          "internalType": "bool",
          "name": "",
          "type": "bool"
        }
      ],
      "stateMutability": "view",
      "type": "function"
    },
    {
      "inputs": [
        {
          "internalType": "uint256",
          "name": "currentUserEra",
          "type": "uint256"
        }
      ],
      "name": "canWithdraw",
      "outputs": [
        {
          "internalType": "bool",
          "name": "",
          "type": "bool"
        }
      ],
      "stateMutability": "view",
      "type": "function"
    },
    {
      "inputs": [
        {
          "internalType": "uint256",
          "name": "currentUserEra",
          "type": "uint256"
        }
      ],
      "name": "canWithdrawTimes",
      "outputs": [
        {
          "internalType": "uint256",
          "name": "",
          "type": "uint256"
        }
      ],
      "stateMutability": "view",
      "type": "function"
    },
    {
      "inputs": [],
      "name": "currentContractEra",
      "outputs": [
        {
          "internalType": "uint256",
          "name": "",
          "type": "uint256"
        }
      ],
      "stateMutability": "view",
      "type": "function"
    },
    {
      "inputs": [],
      "name": "currentEpoch",
      "outputs": [
        {
          "internalType": "uint256",
          "name": "",
          "type": "uint256"
        }
      ],
      "stateMutability": "view",
      "type": "function"
    },
    {
      "inputs": [
        {
          "internalType": "uint256",
          "name": "",
          "type": "uint256"
        },
        {
          "internalType": "address",
          "name": "",
          "type": "address"
        }
      ],
      "name": "eraLevels",
      "outputs": [
        {
          "internalType": "uint256",
          "name": "",
          "type": "uint256"
        }
      ],
      "stateMutability": "view",
      "type": "function"
    },
    {
      "inputs": [
        {
          "internalType": "uint256",
          "name": "",
          "type": "uint256"
        },
        {
          "internalType": "address",
          "name": "",
          "type": "address"
        }
      ],
      "name": "eraTokens",
      "outputs": [
        {
          "internalType": "uint256",
          "name": "",
          "type": "uint256"
        }
      ],
      "stateMutability": "view",
      "type": "function"
    },
    {
      "inputs": [
        {
          "internalType": "uint256",
          "name": "",
          "type": "uint256"
        }
      ],
      "name": "eras",
      "outputs": [
        {
          "internalType": "uint256",
          "name": "claimsCount",
          "type": "uint256"
        },
        {
          "internalType": "uint256",
          "name": "tokens",
          "type": "uint256"
        },
        {
          "internalType": "uint256",
          "name": "levels",
          "type": "uint256"
        }
      ],
      "stateMutability": "view",
      "type": "function"
    },
    {
      "inputs": [
        {
          "internalType": "uint256",
          "name": "era",
          "type": "uint256"
        }
      ],
      "name": "getEpochForEra",
      "outputs": [
        {
          "internalType": "uint256",
          "name": "",
          "type": "uint256"
        }
      ],
      "stateMutability": "view",
      "type": "function"
    },
    {
      "inputs": [
        {
          "internalType": "uint256",
          "name": "era",
          "type": "uint256"
        }
      ],
      "name": "getEra",
      "outputs": [
        {
          "components": [
            {
              "internalType": "uint256",
              "name": "claimsCount",
              "type": "uint256"
            },
            {
              "internalType": "uint256",
              "name": "tokens",
              "type": "uint256"
            },
            {
              "internalType": "uint256",
              "name": "levels",
              "type": "uint256"
            }
          ],
          "internalType": "struct Era",
          "name": "",
          "type": "tuple"
        }
      ],
      "stateMutability": "view",
      "type": "function"
    },
    {
      "inputs": [
        {
          "internalType": "uint64",
          "name": "",
          "type": "uint64"
        }
      ],
      "name": "hasProcessedLevel",
      "outputs": [
        {
          "internalType": "bool",
          "name": "",
          "type": "bool"
        }
      ],
      "stateMutability": "view",
      "type": "function"
    },
    {
      "inputs": [
        {
          "internalType": "uint256",
          "name": "",
          "type": "uint256"
        },
        {
          "internalType": "address",
          "name": "",
          "type": "address"
        }
      ],
      "name": "hasWithdrawn",
      "outputs": [
        {
          "internalType": "bool",
          "name": "",
          "type": "bool"
        }
      ],
      "stateMutability": "view",
      "type": "function"
    },
    {
      "inputs": [
        {
          "internalType": "address",
          "name": "delegate",
          "type": "address"
        },
        {
          "internalType": "uint256",
          "name": "era",
          "type": "uint256"
        }
      ],
      "name": "haveTokensToWithdraw",
      "outputs": [
        {
          "internalType": "bool",
          "name": "",
          "type": "bool"
        }
      ],
      "stateMutability": "view",
      "type": "function"
    },
    {
      "inputs": [
        {
          "internalType": "address",
          "name": "caller",
          "type": "address"
        }
      ],
      "name": "isAllowedCaller",
      "outputs": [
        {
          "internalType": "bool",
          "name": "",
          "type": "bool"
        }
      ],
      "stateMutability": "view",
      "type": "function"
    },
    {
      "inputs": [
        {
          "internalType": "address",
          "name": "allowed",
          "type": "address"
        }
      ],
      "name": "newAllowedCaller",
      "outputs": [],
      "stateMutability": "nonpayable",
      "type": "function"
    },
    {
      "inputs": [
        {
          "internalType": "uint256",
          "name": "targetEra",
          "type": "uint256"
        }
      ],
      "name": "nextEraIn",
      "outputs": [
        {
          "internalType": "int256",
          "name": "",
          "type": "int256"
        }
      ],
      "stateMutability": "view",
      "type": "function"
    },
    {
      "inputs": [],
      "name": "owner",
      "outputs": [
        {
          "internalType": "address",
          "name": "",
          "type": "address"
        }
      ],
      "stateMutability": "view",
      "type": "function"
    },
    {
      "inputs": [
        {
          "internalType": "address",
          "name": "addr",
          "type": "address"
        },
        {
          "internalType": "bool",
          "name": "denied",
          "type": "bool"
        }
      ],
      "name": "removePoolLevels",
      "outputs": [],
      "stateMutability": "nonpayable",
      "type": "function"
    },
    {
      "inputs": [],
      "name": "renounceOwnership",
      "outputs": [],
      "stateMutability": "nonpayable",
      "type": "function"
    },
    {
      "inputs": [
        {
          "internalType": "address",
          "name": "_contributorRulesAddress",
          "type": "address"
        }
      ],
      "name": "setContractCall",
      "outputs": [],
      "stateMutability": "nonpayable",
      "type": "function"
    },
    {
      "inputs": [
        {
          "internalType": "uint256",
          "name": "currentEpoch",
          "type": "uint256"
        }
      ],
      "name": "tokensPerEpoch",
      "outputs": [
        {
          "internalType": "uint256",
          "name": "",
          "type": "uint256"
        }
      ],
      "stateMutability": "view",
      "type": "function"
    },
    {
      "inputs": [
        {
          "internalType": "uint256",
          "name": "currentEpoch",
          "type": "uint256"
        },
        {
          "internalType": "uint256",
          "name": "halvingFactor",
          "type": "uint256"
        }
      ],
      "name": "tokensPerEra",
      "outputs": [
        {
          "internalType": "uint256",
          "name": "",
          "type": "uint256"
        }
      ],
      "stateMutability": "view",
      "type": "function"
    },
    {
      "inputs": [
        {
          "internalType": "address",
          "name": "newOwner",
          "type": "address"
        }
      ],
      "name": "transferOwnership",
      "outputs": [],
      "stateMutability": "nonpayable",
      "type": "function"
    },
    {
      "inputs": [
        {
          "internalType": "address",
          "name": "delegate",
          "type": "address"
        },
        {
          "internalType": "uint256",
          "name": "era",
          "type": "uint256"
        }
      ],
      "name": "withdraw",
      "outputs": [],
      "stateMutability": "nonpayable",
      "type": "function"
    }
  ],
  "bytecode": "0x61010060405234801561001157600080fd5b506040516116ab3803806116ab833981016040819052610030916100fb565b6a211654585005212800000060805260a08190524360c05260e0829052338061007357604051631e4fbdf760e01b81526000600482015260240160405180910390fd5b61007c816100a9565b5050600160065550600780546001600160a01b0319166001600160a01b039290921691909117905561013e565b600480546001600160a01b038381166001600160a01b0319831681179093556040519116919082907f8be0079c531659141344cd1fd0a4f28419497f9722a3daafe3b4186f6b6457e090600090a35050565b60008060006060848603121561011057600080fd5b83516001600160a01b038116811461012757600080fd5b602085015160409095015190969495509392505050565b60805160a05160c05160e0516115186101936000396000818161047401526108b201526000818161097e01526109bd0152600081816107ec0152818161095301526109e90152600061059601526115186000f3fe608060405234801561001057600080fd5b506004361061018e5760003560e01c806388b3acae116100de578063d5ee3eb511610097578063f2fde38b11610071578063f2fde38b146103fb578063f3fef3a31461040e578063fbe85f0614610421578063ff39043c1461043457600080fd5b8063d5ee3eb5146103bd578063e78a82ff146103d0578063ed0df79e146103f357600080fd5b806388b3acae146102f75780638da5cb5b146103225780638f93716f1461033d57806394cec7a714610350578063a68012581461037e578063b86c5699146103aa57600080fd5b806371d0921a1161014b578063766718081161012557806376671808146102b15780637721f1b5146102b95780637b334154146102cc578063861b4ce1146102ef57600080fd5b806371d0921a14610241578063720a70bd14610254578063755d4f971461029e57600080fd5b80630f2dbe60146101935780631f14f415146101bb578063218f23ca146101dc5780632506b932146101f15780632eedcb1814610204578063715018a614610239575b600080fd5b6101a66101a136600461113e565b61045f565b60405190151581526020015b60405180910390f35b6101ce6101c9366004611168565b6104a6565b6040519081526020016101b2565b6101ef6101ea366004611198565b6104bc565b005b6101ce6101ff3660046111cf565b610583565b6102176102123660046111cf565b6105ba565b60408051825181526020808401519082015291810151908201526060016101b2565b6101ef610615565b6101ef61024f366004611200565b610629565b6102836102623660046111cf565b60006020819052908152604090208054600182015460029092015490919083565b604080519384526020840192909252908201526060016101b2565b6101ef6102ac36600461123c565b610781565b6101ce6107ab565b6101ce6102c73660046111cf565b6107bd565b6101a66102da36600461123c565b60056020526000908152604090205460ff1681565b6101ce600581565b6101ce610305366004611257565b600160209081526000928352604080842090915290825290205481565b6004546040516001600160a01b0390911681526020016101b2565b6101ef61034b36600461123c565b610833565b6101a661035e366004611257565b600360209081526000928352604080842090915290825290205460ff1681565b6101a661038c36600461123c565b6001600160a01b031660009081526005602052604090205460ff1690565b6101ce6103b83660046111cf565b61085f565b6101ce6103cb3660046111cf565b6108f1565b6101a66103de366004611283565b60096020526000908152604090205460ff1681565b6101ce6109b5565b6101ef61040936600461123c565b610a1f565b6101ef61041c36600461113e565b610a5d565b6101a661042f3660046111cf565b610d62565b6101ce610442366004611257565b600260209081526000928352604080842090915290825290205481565b600061049d83836104986104728661085f565b7f00000000000000000000000000000000000000000000000000000000000000006104a6565b610d74565b90505b92915050565b6000816104b284610583565b61049d91906112b4565b3360009081526005602052604090205460ff166104f45760405162461bcd60e51b81526004016104eb906112d6565b60405180910390fd5b6008546001600160a01b031633811461051f5760405162461bcd60e51b81526004016104eb90611302565b610527610d8d565b60006105316109b5565b9050600083610541576001610565565b60008281526001602090815260408083206001600160a01b03891684529091529020545b9050610572858383610db7565b505061057e6001600655565b505050565b6000610590826002611420565b6104a0907f00000000000000000000000000000000000000000000000000000000000000006112b4565b6105de60405180606001604052806000815260200160008152602001600081525090565b5060009081526020818152604091829020825160608101845281548152600182015492810192909252600201549181019190915290565b61061d610ec7565b6106276000610ef4565b565b3360009081526005602052604090205460ff166106585760405162461bcd60e51b81526004016104eb906112d6565b6008546001600160a01b03163381146106835760405162461bcd60e51b81526004016104eb90611302565b61068b610d8d565b60018311156106d15760405162461bcd60e51b815260206004820152601260248201527145786365656473206d6178206c6576656c7360701b60448201526064016104eb565b67ffffffffffffffff821660009081526009602052604090205460ff161561073b5760405162461bcd60e51b815260206004820152601760248201527f4576656e7420616c72656164792070726f63657373656400000000000000000060448201526064016104eb565b67ffffffffffffffff82166000908152600960205260409020805460ff19166001179055610771848461076c6109b5565b610f46565b61077b6001600655565b50505050565b610789610ec7565b600880546001600160a01b0319166001600160a01b0392909216919091179055565b60006107b86103b86109b5565b905090565b6000806107c9836108f1565b905060008113156107dd5750600092915050565b60006107e88261142c565b90507f00000000000000000000000000000000000000000000000000000000000000006108176005600a611420565b6108219083611448565b61082b91906112b4565b949350505050565b61083b610ec7565b6001600160a01b03166000908152600560205260409020805460ff19166001179055565b60008082116108b05760405162461bcd60e51b815260206004820152601a60248201527f457261206d7573742062652067726561746572207468616e203000000000000060448201526064016104eb565b7f00000000000000000000000000000000000000000000000000000000000000006108dc60018461145f565b6108e691906112b4565b6104a0906001611472565b600080821161094c5760405162461bcd60e51b815260206004820152602160248201527f54617267657420657261206d7573742062652067726561746572207468616e206044820152600360fc1b60648201526084016104eb565b60006109787f000000000000000000000000000000000000000000000000000000000000000084611448565b6109a2907f0000000000000000000000000000000000000000000000000000000000000000611472565b90506109ae4382611485565b9392505050565b6000806109e27f00000000000000000000000000000000000000000000000000000000000000004361145f565b9050610a0e7f0000000000000000000000000000000000000000000000000000000000000000826112b4565b610a19906001611472565b91505090565b610a27610ec7565b6001600160a01b038116610a5157604051631e4fbdf760e01b8152600060048201526024016104eb565b610a5a81610ef4565b50565b3360009081526005602052604090205460ff16610a8c5760405162461bcd60e51b81526004016104eb906112d6565b6008546001600160a01b0316338114610ab75760405162461bcd60e51b81526004016104eb90611302565b81610ac181610d62565b610b055760405162461bcd60e51b8152602060048201526015602482015274165bdd4818d85b89dd08185c1c1c9bdd99481e595d605a1b60448201526064016104eb565b60008381526003602090815260408083206001600160a01b03881684529091529020548390859060ff1615610b7c5760405162461bcd60e51b815260206004820152601e60248201527f416c72656164792077697468647261776e20666f72207468697320657261000060448201526064016104eb565b610b84610d8d565b610b8c6109b5565b851115610bcf5760405162461bcd60e51b815260206004820152601160248201527045726120696e207468652066757475726560781b60448201526064016104eb565b60008581526003602090815260408083206001600160a01b038a1684529091528120805460ff19166001179055610c128688610c0d6104728361085f565b61101c565b9050610c1f868883611082565b80600003610c2d5750610d50565b600754604051631caccb1d60e31b8152600481018390526001600160a01b039091169063e56658e890602401600060405180830381600087803b158015610c7357600080fd5b505af1158015610c87573d6000803e3d6000fd5b505060075460405163a9059cbb60e01b81526001600160a01b038b811660048301526024820186905260009450909116915063a9059cbb906044016020604051808303816000875af1158015610ce1573d6000803e3d6000fd5b505050506040513d601f19601f82011682018060405250810190610d0591906114ac565b905080610d4d5760405162461bcd60e51b8152602060048201526016602482015275115490cc8c0e881d1c985b9cd9995c8819985a5b195960521b60448201526064016104eb565b50505b610d5a6001600655565b505050505050565b6000610d6c6109b5565b909110919050565b600080610d8284868561101c565b151595945050505050565b600260065403610db057604051633ee5aeb560e01b815260040160405180910390fd5b6002600655565b60008281526001602090815260408083206001600160a01b038716845290915281205490819003610de85750505050565b80821115610df4578091505b60008381526020819052604081206002018054849290610e1590849061145f565b909155505060008381526001602090815260408083206001600160a01b038816845290915281208054849290610e4c90849061145f565b909155505060008381526020818152604080832060020154600183528184206001600160a01b038916808652908452938290205482518881529384018790529183015260608201527f8df21415d734537dcf01ffb77472049844f905c24abd54708d93555ea85239f99060800160405180910390a250505050565b6004546001600160a01b031633146106275760405163118cdaa760e01b81523360048201526024016104eb565b600480546001600160a01b038381166001600160a01b0319831681179093556040519116919082907f8be0079c531659141344cd1fd0a4f28419497f9722a3daafe3b4186f6b6457e090600090a35050565b600081815260208190526040902060020154610f63908390611472565b60008281526020818152604080832060020193909355600181528282206001600160a01b038716835290529081208054849290610fa1908490611472565b909155505060008181526020818152604080832060020154600183528184206001600160a01b038816808652908452938290205482518681529384018790529183015260608201527ffc6907b3f86e1e63de43e8e6af6345e03bbc9726a0f63eddb4021532417f78b1906080015b60405180910390a2505050565b60008381526020818152604080832060020154600183528184206001600160a01b0387168552909252822054801580611053575081155b15611063576000925050506109ae565b8161106e8583611448565b61107891906112b4565b9695505050505050565b600083815260208190526040812080549161109c836114c9565b9091555050600083815260208190526040812060010180548392906110c2908490611472565b909155505060008381526002602090815260408083206001600160a01b0386168085529083529281902084905580518681529182018490527fffe903c0abe6b2dbb2f3474ef43d7a3c1fca49e5a774453423ca8e1952aabffa910161100f565b80356001600160a01b038116811461113957600080fd5b919050565b6000806040838503121561115157600080fd5b61115a83611122565b946020939093013593505050565b6000806040838503121561117b57600080fd5b50508035926020909101359150565b8015158114610a5a57600080fd5b600080604083850312156111ab57600080fd5b6111b483611122565b915060208301356111c48161118a565b809150509250929050565b6000602082840312156111e157600080fd5b5035919050565b803567ffffffffffffffff8116811461113957600080fd5b60008060006060848603121561121557600080fd5b61121e84611122565b925060208401359150611233604085016111e8565b90509250925092565b60006020828403121561124e57600080fd5b61049d82611122565b6000806040838503121561126a57600080fd5b8235915061127a60208401611122565b90509250929050565b60006020828403121561129557600080fd5b61049d826111e8565b634e487b7160e01b600052601160045260246000fd5b6000826112d157634e487b7160e01b600052601260045260246000fd5b500490565b6020808252601290820152712737ba1030b63637bbb2b21031b0b63632b960711b604082015260600190565b6020808252601e908201527f43616c6c6572206d7573742062652073797374656d20636f6e74726163740000604082015260600190565b6001815b6001841115611374578085048111156113585761135861129e565b600184161561136657908102905b60019390931c92800261133d565b935093915050565b60008261138b575060016104a0565b81611398575060006104a0565b81600181146113ae57600281146113b8576113d4565b60019150506104a0565b60ff8411156113c9576113c961129e565b50506001821b6104a0565b5060208310610133831016604e8410600b84101617156113f7575081810a6104a0565b6114046000198484611339565b80600019048211156114185761141861129e565b029392505050565b600061049d838361137c565b6000600160ff1b82016114415761144161129e565b5060000390565b80820281158282048414176104a0576104a061129e565b818103818111156104a0576104a061129e565b808201808211156104a0576104a061129e565b81810360008312801583831316838312821617156114a5576114a561129e565b5092915050565b6000602082840312156114be57600080fd5b81516109ae8161118a565b6000600182016114db576114db61129e565b506001019056fea26469706673582212208c091a4d303efe9c21f8d4eb89d1c89b0f1d09aa28d9ebf7b354fab711a1829f64736f6c634300081b0033",
  "linkReferences": {},
  "deployedLinkReferences": {}
}