{
  "_format": "hh-sol-artifact-1",
  "contractName": "ContributorPool",
  "sourceName": "contracts/ContributorPool.sol",
  "abi": [
    {
      "inputs": [
        {
          "internalType": "address",
          "name": "regenerationCreditAddress",
          "type": "address"
        },
        {
          "internalType": "uint256",
          "name": "_halving",
          "type": "uint256"
        },
        {
          "internalType": "uint256",
          "name": "_blocksPerEra",
          "type": "uint256"
        }
      ],
      "stateMutability": "nonpayable",
      "type": "constructor"
    },
    {
      "inputs": [
        {
          "internalType": "address",
          "name": "owner",
          "type": "address"
        }
      ],
      "name": "OwnableInvalidOwner",
      "type": "error"
    },
    {
      "inputs": [
        {
          "internalType": "address",
          "name": "account",
          "type": "address"
        }
      ],
      "name": "OwnableUnauthorizedAccount",
      "type": "error"
    },
    {
      "inputs": [],
      "name": "ReentrancyGuardReentrantCall",
      "type": "error"
    },
    {
      "anonymous": false,
      "inputs": [
        {
          "indexed": true,
          "internalType": "address",
          "name": "previousOwner",
          "type": "address"
        },
        {
          "indexed": true,
          "internalType": "address",
          "name": "newOwner",
          "type": "address"
        }
      ],
      "name": "OwnershipTransferred",
      "type": "event"
    },
    {
      "anonymous": false,
      "inputs": [
        {
          "indexed": true,
          "internalType": "address",
          "name": "user",
          "type": "address"
        },
        {
          "indexed": false,
          "internalType": "uint256",
          "name": "era",
          "type": "uint256"
        },
        {
          "indexed": false,
          "internalType": "uint256",
          "name": "levelsAdded",
          "type": "uint256"
        },
        {
          "indexed": false,
          "internalType": "uint256",
          "name": "newTotalEraLevels",
          "type": "uint256"
        },
        {
          "indexed": false,
          "internalType": "uint256",
          "name": "newEraUserLevels",
          "type": "uint256"
        }
      ],
      "name": "PoolLevelAdded",
      "type": "event"
    },
    {
      "anonymous": false,
      "inputs": [
        {
          "indexed": true,
          "internalType": "address",
          "name": "user",
          "type": "address"
        },
        {
          "indexed": false,
          "internalType": "uint256",
          "name": "era",
          "type": "uint256"
        },
        {
          "indexed": false,
          "internalType": "uint256",
          "name": "levelsRemoved",
          "type": "uint256"
        },
        {
          "indexed": false,
          "internalType": "uint256",
          "name": "newTotalEraLevels",
          "type": "uint256"
        },
        {
          "indexed": false,
          "internalType": "uint256",
          "name": "newEraUserLevels",
          "type": "uint256"
        }
      ],
      "name": "PoolLevelRemoved",
      "type": "event"
    },
    {
      "anonymous": false,
      "inputs": [
        {
          "indexed": true,
          "internalType": "address",
          "name": "user",
          "type": "address"
        },
        {
          "indexed": false,
          "internalType": "uint256",
          "name": "era",
          "type": "uint256"
        },
        {
          "indexed": false,
          "internalType": "uint256",
          "name": "amount",
          "type": "uint256"
        }
      ],
      "name": "TokensWithdrawn",
      "type": "event"
    },
    {
      "inputs": [],
      "name": "BLOCKS_PRECISION",
      "outputs": [
        {
          "internalType": "uint256",
          "name": "",
          "type": "uint256"
        }
      ],
      "stateMutability": "view",
      "type": "function"
    },
    {
      "inputs": [],
      "name": "MAX_NEW_LEVELS",
      "outputs": [
        {
          "internalType": "uint256",
          "name": "",
          "type": "uint256"
        }
      ],
      "stateMutability": "view",
      "type": "function"
    },
    {
      "inputs": [
        {
          "internalType": "address",
          "name": "addr",
          "type": "address"
        },
        {
          "internalType": "uint256",
          "name": "levels",
          "type": "uint256"
        },
        {
          "internalType": "uint64",
          "name": "eventId",
          "type": "uint64"
        }
      ],
      "name": "addLevel",
      "outputs": [],
      "stateMutability": "nonpayable",
      "type": "function"
    },
    {
      "inputs": [
        {
          "internalType": "address",
          "name": "",
          "type": "address"
        }
      ],
      "name": "allowedCallers",
      "outputs": [
        {
          "internalType": "bool",
          "name": "",
          "type": "bool"
        }
      ],
      "stateMutability": "view",
      "type": "function"
    },
    {
      "inputs": [
        {
          "internalType": "uint256",
          "name": "currentUserEra",
          "type": "uint256"
        }
      ],
      "name": "canWithdraw",
      "outputs": [
        {
          "internalType": "bool",
          "name": "",
          "type": "bool"
        }
      ],
      "stateMutability": "view",
      "type": "function"
    },
    {
      "inputs": [
        {
          "internalType": "uint256",
          "name": "currentUserEra",
          "type": "uint256"
        }
      ],
      "name": "canWithdrawTimes",
      "outputs": [
        {
          "internalType": "uint256",
          "name": "",
          "type": "uint256"
        }
      ],
      "stateMutability": "view",
      "type": "function"
    },
    {
      "inputs": [],
      "name": "currentContractEra",
      "outputs": [
        {
          "internalType": "uint256",
          "name": "",
          "type": "uint256"
        }
      ],
      "stateMutability": "view",
      "type": "function"
    },
    {
      "inputs": [],
      "name": "currentEpoch",
      "outputs": [
        {
          "internalType": "uint256",
          "name": "",
          "type": "uint256"
        }
      ],
      "stateMutability": "view",
      "type": "function"
    },
    {
      "inputs": [
        {
          "internalType": "uint256",
          "name": "",
          "type": "uint256"
        },
        {
          "internalType": "address",
          "name": "",
          "type": "address"
        }
      ],
      "name": "eraLevels",
      "outputs": [
        {
          "internalType": "uint256",
          "name": "",
          "type": "uint256"
        }
      ],
      "stateMutability": "view",
      "type": "function"
    },
    {
      "inputs": [
        {
          "internalType": "uint256",
          "name": "",
          "type": "uint256"
        },
        {
          "internalType": "address",
          "name": "",
          "type": "address"
        }
      ],
      "name": "eraTokens",
      "outputs": [
        {
          "internalType": "uint256",
          "name": "",
          "type": "uint256"
        }
      ],
      "stateMutability": "view",
      "type": "function"
    },
    {
      "inputs": [
        {
          "internalType": "uint256",
          "name": "",
          "type": "uint256"
        }
      ],
      "name": "eras",
      "outputs": [
        {
          "internalType": "uint256",
          "name": "claimsCount",
          "type": "uint256"
        },
        {
          "internalType": "uint256",
          "name": "tokens",
          "type": "uint256"
        },
        {
          "internalType": "uint256",
          "name": "levels",
          "type": "uint256"
        }
      ],
      "stateMutability": "view",
      "type": "function"
    },
    {
      "inputs": [
        {
          "internalType": "uint256",
          "name": "era",
          "type": "uint256"
        }
      ],
      "name": "getEpochForEra",
      "outputs": [
        {
          "internalType": "uint256",
          "name": "",
          "type": "uint256"
        }
      ],
      "stateMutability": "view",
      "type": "function"
    },
    {
      "inputs": [
        {
          "internalType": "uint256",
          "name": "era",
          "type": "uint256"
        }
      ],
      "name": "getEra",
      "outputs": [
        {
          "components": [
            {
              "internalType": "uint256",
              "name": "claimsCount",
              "type": "uint256"
            },
            {
              "internalType": "uint256",
              "name": "tokens",
              "type": "uint256"
            },
            {
              "internalType": "uint256",
              "name": "levels",
              "type": "uint256"
            }
          ],
          "internalType": "struct Era",
          "name": "",
          "type": "tuple"
        }
      ],
      "stateMutability": "view",
      "type": "function"
    },
    {
      "inputs": [
        {
          "internalType": "uint64",
          "name": "",
          "type": "uint64"
        }
      ],
      "name": "hasProcessedLevel",
      "outputs": [
        {
          "internalType": "bool",
          "name": "",
          "type": "bool"
        }
      ],
      "stateMutability": "view",
      "type": "function"
    },
    {
      "inputs": [
        {
          "internalType": "uint256",
          "name": "",
          "type": "uint256"
        },
        {
          "internalType": "address",
          "name": "",
          "type": "address"
        }
      ],
      "name": "hasWithdrawn",
      "outputs": [
        {
          "internalType": "bool",
          "name": "",
          "type": "bool"
        }
      ],
      "stateMutability": "view",
      "type": "function"
    },
    {
      "inputs": [
        {
          "internalType": "address",
          "name": "delegate",
          "type": "address"
        },
        {
          "internalType": "uint256",
          "name": "era",
          "type": "uint256"
        }
      ],
      "name": "haveTokensToWithdraw",
      "outputs": [
        {
          "internalType": "bool",
          "name": "",
          "type": "bool"
        }
      ],
      "stateMutability": "view",
      "type": "function"
    },
    {
      "inputs": [
        {
          "internalType": "address",
          "name": "caller",
          "type": "address"
        }
      ],
      "name": "isAllowedCaller",
      "outputs": [
        {
          "internalType": "bool",
          "name": "",
          "type": "bool"
        }
      ],
      "stateMutability": "view",
      "type": "function"
    },
    {
      "inputs": [
        {
          "internalType": "address",
          "name": "allowed",
          "type": "address"
        }
      ],
      "name": "newAllowedCaller",
      "outputs": [],
      "stateMutability": "nonpayable",
      "type": "function"
    },
    {
      "inputs": [
        {
          "internalType": "uint256",
          "name": "targetEra",
          "type": "uint256"
        }
      ],
      "name": "nextEraIn",
      "outputs": [
        {
          "internalType": "int256",
          "name": "",
          "type": "int256"
        }
      ],
      "stateMutability": "view",
      "type": "function"
    },
    {
      "inputs": [],
      "name": "owner",
      "outputs": [
        {
          "internalType": "address",
          "name": "",
          "type": "address"
        }
      ],
      "stateMutability": "view",
      "type": "function"
    },
    {
      "inputs": [
        {
          "internalType": "address",
          "name": "addr",
          "type": "address"
        },
        {
          "internalType": "bool",
          "name": "denied",
          "type": "bool"
        }
      ],
      "name": "removePoolLevels",
      "outputs": [],
      "stateMutability": "nonpayable",
      "type": "function"
    },
    {
      "inputs": [],
      "name": "renounceOwnership",
      "outputs": [],
      "stateMutability": "nonpayable",
      "type": "function"
    },
    {
      "inputs": [
        {
          "internalType": "address",
          "name": "_contributorRulesAddress",
          "type": "address"
        }
      ],
      "name": "setContractCall",
      "outputs": [],
      "stateMutability": "nonpayable",
      "type": "function"
    },
    {
      "inputs": [
        {
          "internalType": "uint256",
          "name": "currentEpoch",
          "type": "uint256"
        }
      ],
      "name": "tokensPerEpoch",
      "outputs": [
        {
          "internalType": "uint256",
          "name": "",
          "type": "uint256"
        }
      ],
      "stateMutability": "view",
      "type": "function"
    },
    {
      "inputs": [
        {
          "internalType": "uint256",
          "name": "currentEpoch",
          "type": "uint256"
        },
        {
          "internalType": "uint256",
          "name": "halvingFactor",
          "type": "uint256"
        }
      ],
      "name": "tokensPerEra",
      "outputs": [
        {
          "internalType": "uint256",
          "name": "",
          "type": "uint256"
        }
      ],
      "stateMutability": "view",
      "type": "function"
    },
    {
      "inputs": [
        {
          "internalType": "address",
          "name": "newOwner",
          "type": "address"
        }
      ],
      "name": "transferOwnership",
      "outputs": [],
      "stateMutability": "nonpayable",
      "type": "function"
    },
    {
      "inputs": [
        {
          "internalType": "address",
          "name": "delegate",
          "type": "address"
        },
        {
          "internalType": "uint256",
          "name": "era",
          "type": "uint256"
        }
      ],
      "name": "withdraw",
      "outputs": [],
      "stateMutability": "nonpayable",
      "type": "function"
    }
  ],
  "bytecode": "0x61010060405234801561001157600080fd5b506040516116ce3803806116ce833981016040819052610030916100fb565b6a211654585005212800000060805260a08190524360c05260e0829052338061007357604051631e4fbdf760e01b81526000600482015260240160405180910390fd5b61007c816100a9565b5050600160065550600780546001600160a01b0319166001600160a01b039290921691909117905561013e565b600480546001600160a01b038381166001600160a01b0319831681179093556040519116919082907f8be0079c531659141344cd1fd0a4f28419497f9722a3daafe3b4186f6b6457e090600090a35050565b60008060006060848603121561011057600080fd5b83516001600160a01b038116811461012757600080fd5b602085015160409095015190969495509392505050565b60805160a05160c05160e05161153b6101936000396000818161049701526108d50152600081816109a101526109e001526000818161080f015281816109760152610a0c015260006105b9015261153b6000f3fe608060405234801561001057600080fd5b50600436106101a95760003560e01c8063861b4ce1116100f9578063d5ee3eb511610097578063f2fde38b11610071578063f2fde38b1461041e578063f3fef3a314610431578063fbe85f0614610444578063ff39043c1461045757600080fd5b8063d5ee3eb5146103e0578063e78a82ff146103f3578063ed0df79e1461041657600080fd5b80638f93716f116100d35780638f93716f1461036057806394cec7a714610373578063a6801258146103a1578063b86c5699146103cd57600080fd5b8063861b4ce11461031257806388b3acae1461031a5780638da5cb5b1461034557600080fd5b8063715018a611610166578063755d4f9711610140578063755d4f97146102c157806376671808146102d45780637721f1b5146102dc5780637b334154146102ef57600080fd5b8063715018a61461025c57806371d0921a14610264578063720a70bd1461027757600080fd5b80630f2dbe60146101ae5780631f14f415146101d6578063218f23ca146101f75780632506b9321461020c5780632eedcb181461021f5780634e0be8b514610254575b600080fd5b6101c16101bc366004611161565b610482565b60405190151581526020015b60405180910390f35b6101e96101e436600461118b565b6104c9565b6040519081526020016101cd565b61020a6102053660046111bb565b6104df565b005b6101e961021a3660046111f2565b6105a6565b61023261022d3660046111f2565b6105dd565b60408051825181526020808401519082015291810151908201526060016101cd565b6101e9600181565b61020a610638565b61020a610272366004611223565b61064c565b6102a66102853660046111f2565b60006020819052908152604090208054600182015460029092015490919083565b604080519384526020840192909252908201526060016101cd565b61020a6102cf36600461125f565b6107a4565b6101e96107ce565b6101e96102ea3660046111f2565b6107e0565b6101c16102fd36600461125f565b60056020526000908152604090205460ff1681565b6101e9600581565b6101e961032836600461127a565b600160209081526000928352604080842090915290825290205481565b6004546040516001600160a01b0390911681526020016101cd565b61020a61036e36600461125f565b610856565b6101c161038136600461127a565b600360209081526000928352604080842090915290825290205460ff1681565b6101c16103af36600461125f565b6001600160a01b031660009081526005602052604090205460ff1690565b6101e96103db3660046111f2565b610882565b6101e96103ee3660046111f2565b610914565b6101c16104013660046112a6565b60096020526000908152604090205460ff1681565b6101e96109d8565b61020a61042c36600461125f565b610a42565b61020a61043f366004611161565b610a80565b6101c16104523660046111f2565b610d85565b6101e961046536600461127a565b600260209081526000928352604080842090915290825290205481565b60006104c083836104bb61049586610882565b7f00000000000000000000000000000000000000000000000000000000000000006104c9565b610d97565b90505b92915050565b6000816104d5846105a6565b6104c091906112d7565b3360009081526005602052604090205460ff166105175760405162461bcd60e51b815260040161050e906112f9565b60405180910390fd5b6008546001600160a01b03163381146105425760405162461bcd60e51b815260040161050e90611325565b61054a610db0565b60006105546109d8565b9050600083610564576001610588565b60008281526001602090815260408083206001600160a01b03891684529091529020545b9050610595858383610dda565b50506105a16001600655565b505050565b60006105b3826002611443565b6104c3907f00000000000000000000000000000000000000000000000000000000000000006112d7565b61060160405180606001604052806000815260200160008152602001600081525090565b5060009081526020818152604091829020825160608101845281548152600182015492810192909252600201549181019190915290565b610640610eea565b61064a6000610f17565b565b3360009081526005602052604090205460ff1661067b5760405162461bcd60e51b815260040161050e906112f9565b6008546001600160a01b03163381146106a65760405162461bcd60e51b815260040161050e90611325565b6106ae610db0565b60018311156106f45760405162461bcd60e51b815260206004820152601260248201527145786365656473206d6178206c6576656c7360701b604482015260640161050e565b67ffffffffffffffff821660009081526009602052604090205460ff161561075e5760405162461bcd60e51b815260206004820152601760248201527f4576656e7420616c72656164792070726f636573736564000000000000000000604482015260640161050e565b67ffffffffffffffff82166000908152600960205260409020805460ff19166001179055610794848461078f6109d8565b610f69565b61079e6001600655565b50505050565b6107ac610eea565b600880546001600160a01b0319166001600160a01b0392909216919091179055565b60006107db6103db6109d8565b905090565b6000806107ec83610914565b905060008113156108005750600092915050565b600061080b8261144f565b90507f000000000000000000000000000000000000000000000000000000000000000061083a6005600a611443565b610844908361146b565b61084e91906112d7565b949350505050565b61085e610eea565b6001600160a01b03166000908152600560205260409020805460ff19166001179055565b60008082116108d35760405162461bcd60e51b815260206004820152601a60248201527f457261206d7573742062652067726561746572207468616e2030000000000000604482015260640161050e565b7f00000000000000000000000000000000000000000000000000000000000000006108ff600184611482565b61090991906112d7565b6104c3906001611495565b600080821161096f5760405162461bcd60e51b815260206004820152602160248201527f54617267657420657261206d7573742062652067726561746572207468616e206044820152600360fc1b606482015260840161050e565b600061099b7f00000000000000000000000000000000000000000000000000000000000000008461146b565b6109c5907f0000000000000000000000000000000000000000000000000000000000000000611495565b90506109d143826114a8565b9392505050565b600080610a057f000000000000000000000000000000000000000000000000000000000000000043611482565b9050610a317f0000000000000000000000000000000000000000000000000000000000000000826112d7565b610a3c906001611495565b91505090565b610a4a610eea565b6001600160a01b038116610a7457604051631e4fbdf760e01b81526000600482015260240161050e565b610a7d81610f17565b50565b3360009081526005602052604090205460ff16610aaf5760405162461bcd60e51b815260040161050e906112f9565b6008546001600160a01b0316338114610ada5760405162461bcd60e51b815260040161050e90611325565b81610ae481610d85565b610b285760405162461bcd60e51b8152602060048201526015602482015274165bdd4818d85b89dd08185c1c1c9bdd99481e595d605a1b604482015260640161050e565b60008381526003602090815260408083206001600160a01b03881684529091529020548390859060ff1615610b9f5760405162461bcd60e51b815260206004820152601e60248201527f416c72656164792077697468647261776e20666f722074686973206572610000604482015260640161050e565b610ba7610db0565b610baf6109d8565b851115610bf25760405162461bcd60e51b815260206004820152601160248201527045726120696e207468652066757475726560781b604482015260640161050e565b60008581526003602090815260408083206001600160a01b038a1684529091528120805460ff19166001179055610c358688610c3061049583610882565b61103f565b9050610c428688836110a5565b80600003610c505750610d73565b600754604051631caccb1d60e31b8152600481018390526001600160a01b039091169063e56658e890602401600060405180830381600087803b158015610c9657600080fd5b505af1158015610caa573d6000803e3d6000fd5b505060075460405163a9059cbb60e01b81526001600160a01b038b811660048301526024820186905260009450909116915063a9059cbb906044016020604051808303816000875af1158015610d04573d6000803e3d6000fd5b505050506040513d601f19601f82011682018060405250810190610d2891906114cf565b905080610d705760405162461bcd60e51b8152602060048201526016602482015275115490cc8c0e881d1c985b9cd9995c8819985a5b195960521b604482015260640161050e565b50505b610d7d6001600655565b505050505050565b6000610d8f6109d8565b909110919050565b600080610da584868561103f565b151595945050505050565b600260065403610dd357604051633ee5aeb560e01b815260040160405180910390fd5b6002600655565b60008281526001602090815260408083206001600160a01b038716845290915281205490819003610e0b5750505050565b80821115610e17578091505b60008381526020819052604081206002018054849290610e38908490611482565b909155505060008381526001602090815260408083206001600160a01b038816845290915281208054849290610e6f908490611482565b909155505060008381526020818152604080832060020154600183528184206001600160a01b038916808652908452938290205482518881529384018790529183015260608201527f8df21415d734537dcf01ffb77472049844f905c24abd54708d93555ea85239f99060800160405180910390a250505050565b6004546001600160a01b0316331461064a5760405163118cdaa760e01b815233600482015260240161050e565b600480546001600160a01b038381166001600160a01b0319831681179093556040519116919082907f8be0079c531659141344cd1fd0a4f28419497f9722a3daafe3b4186f6b6457e090600090a35050565b600081815260208190526040902060020154610f86908390611495565b60008281526020818152604080832060020193909355600181528282206001600160a01b038716835290529081208054849290610fc4908490611495565b909155505060008181526020818152604080832060020154600183528184206001600160a01b038816808652908452938290205482518681529384018790529183015260608201527ffc6907b3f86e1e63de43e8e6af6345e03bbc9726a0f63eddb4021532417f78b1906080015b60405180910390a2505050565b60008381526020818152604080832060020154600183528184206001600160a01b0387168552909252822054801580611076575081155b15611086576000925050506109d1565b81611091858361146b565b61109b91906112d7565b9695505050505050565b60008381526020819052604081208054916110bf836114ec565b9091555050600083815260208190526040812060010180548392906110e5908490611495565b909155505060008381526002602090815260408083206001600160a01b0386168085529083529281902084905580518681529182018490527fffe903c0abe6b2dbb2f3474ef43d7a3c1fca49e5a774453423ca8e1952aabffa9101611032565b80356001600160a01b038116811461115c57600080fd5b919050565b6000806040838503121561117457600080fd5b61117d83611145565b946020939093013593505050565b6000806040838503121561119e57600080fd5b50508035926020909101359150565b8015158114610a7d57600080fd5b600080604083850312156111ce57600080fd5b6111d783611145565b915060208301356111e7816111ad565b809150509250929050565b60006020828403121561120457600080fd5b5035919050565b803567ffffffffffffffff8116811461115c57600080fd5b60008060006060848603121561123857600080fd5b61124184611145565b9250602084013591506112566040850161120b565b90509250925092565b60006020828403121561127157600080fd5b6104c082611145565b6000806040838503121561128d57600080fd5b8235915061129d60208401611145565b90509250929050565b6000602082840312156112b857600080fd5b6104c08261120b565b634e487b7160e01b600052601160045260246000fd5b6000826112f457634e487b7160e01b600052601260045260246000fd5b500490565b6020808252601290820152712737ba1030b63637bbb2b21031b0b63632b960711b604082015260600190565b6020808252601e908201527f43616c6c6572206d7573742062652073797374656d20636f6e74726163740000604082015260600190565b6001815b60018411156113975780850481111561137b5761137b6112c1565b600184161561138957908102905b60019390931c928002611360565b935093915050565b6000826113ae575060016104c3565b816113bb575060006104c3565b81600181146113d157600281146113db576113f7565b60019150506104c3565b60ff8411156113ec576113ec6112c1565b50506001821b6104c3565b5060208310610133831016604e8410600b841016171561141a575081810a6104c3565b611427600019848461135c565b806000190482111561143b5761143b6112c1565b029392505050565b60006104c0838361139f565b6000600160ff1b8201611464576114646112c1565b5060000390565b80820281158282048414176104c3576104c36112c1565b818103818111156104c3576104c36112c1565b808201808211156104c3576104c36112c1565b81810360008312801583831316838312821617156114c8576114c86112c1565b5092915050565b6000602082840312156114e157600080fd5b81516109d1816111ad565b6000600182016114fe576114fe6112c1565b506001019056fea26469706673582212204be0e90e580c5d6e20f241b1d22fe8e16b97f079b922b696835aa290c6808b2f64736f6c634300081b0033",
  "linkReferences": {},
  "deployedLinkReferences": {}
}