{
  "_format": "hh-sol-artifact-1",
  "contractName": "ContributorRules",
  "sourceName": "contracts/ContributorRules.sol",
  "abi": [
    {
      "inputs": [
        {
          "internalType": "uint256",
          "name": "timeBetweenWorks_",
          "type": "uint256"
        },
        {
          "internalType": "uint256",
          "name": "maxPenalties_",
          "type": "uint256"
        },
        {
          "internalType": "uint256",
          "name": "securityBlocksToValidatorAnalysis",
          "type": "uint256"
        }
      ],
      "stateMutability": "nonpayable",
      "type": "constructor"
    },
    {
      "anonymous": false,
      "inputs": [
        {
          "indexed": true,
          "internalType": "address",
          "name": "previousOwner",
          "type": "address"
        },
        {
          "indexed": true,
          "internalType": "address",
          "name": "newOwner",
          "type": "address"
        }
      ],
      "name": "OwnershipTransferred",
      "type": "event"
    },
    {
      "inputs": [],
      "name": "MAX_PENALTIES",
      "outputs": [
        {
          "internalType": "uint256",
          "name": "",
          "type": "uint256"
        }
      ],
      "stateMutability": "view",
      "type": "function"
    },
    {
      "inputs": [],
      "name": "SECURITY_BLOCKS_TO_VALIDATOR_ANALYSIS",
      "outputs": [
        {
          "internalType": "uint256",
          "name": "",
          "type": "uint256"
        }
      ],
      "stateMutability": "view",
      "type": "function"
    },
    {
      "inputs": [
        {
          "internalType": "string",
          "name": "description",
          "type": "string"
        },
        {
          "internalType": "string",
          "name": "report",
          "type": "string"
        }
      ],
      "name": "addContribution",
      "outputs": [],
      "stateMutability": "nonpayable",
      "type": "function"
    },
    {
      "inputs": [
        {
          "internalType": "uint256",
          "name": "id",
          "type": "uint256"
        },
        {
          "internalType": "string",
          "name": "justification",
          "type": "string"
        }
      ],
      "name": "addContributionValidation",
      "outputs": [],
      "stateMutability": "nonpayable",
      "type": "function"
    },
    {
      "inputs": [
        {
          "internalType": "string",
          "name": "name",
          "type": "string"
        },
        {
          "internalType": "string",
          "name": "proofPhoto",
          "type": "string"
        }
      ],
      "name": "addContributor",
      "outputs": [],
      "stateMutability": "nonpayable",
      "type": "function"
    },
    {
      "inputs": [
        {
          "internalType": "address",
          "name": "addr",
          "type": "address"
        },
        {
          "internalType": "uint256",
          "name": "contributionId",
          "type": "uint256"
        }
      ],
      "name": "addPenalty",
      "outputs": [
        {
          "internalType": "uint256",
          "name": "",
          "type": "uint256"
        }
      ],
      "stateMutability": "nonpayable",
      "type": "function"
    },
    {
      "inputs": [
        {
          "internalType": "address",
          "name": "",
          "type": "address"
        }
      ],
      "name": "allowedCallers",
      "outputs": [
        {
          "internalType": "bool",
          "name": "",
          "type": "bool"
        }
      ],
      "stateMutability": "view",
      "type": "function"
    },
    {
      "inputs": [
        {
          "internalType": "uint256",
          "name": "totalLevels",
          "type": "uint256"
        },
        {
          "internalType": "uint256",
          "name": "totalUsers",
          "type": "uint256"
        },
        {
          "internalType": "uint256",
          "name": "userLevels",
          "type": "uint256"
        }
      ],
      "name": "canInvite",
      "outputs": [
        {
          "internalType": "bool",
          "name": "",
          "type": "bool"
        }
      ],
      "stateMutability": "pure",
      "type": "function"
    },
    {
      "inputs": [
        {
          "internalType": "address",
          "name": "addr",
          "type": "address"
        }
      ],
      "name": "canSendInvite",
      "outputs": [
        {
          "internalType": "bool",
          "name": "",
          "type": "bool"
        }
      ],
      "stateMutability": "view",
      "type": "function"
    },
    {
      "inputs": [
        {
          "internalType": "uint256",
          "name": "",
          "type": "uint256"
        }
      ],
      "name": "contributions",
      "outputs": [
        {
          "internalType": "uint256",
          "name": "id",
          "type": "uint256"
        },
        {
          "internalType": "uint256",
          "name": "era",
          "type": "uint256"
        },
        {
          "internalType": "address",
          "name": "user",
          "type": "address"
        },
        {
          "internalType": "string",
          "name": "description",
          "type": "string"
        },
        {
          "internalType": "string",
          "name": "report",
          "type": "string"
        },
        {
          "internalType": "uint256",
          "name": "validationsCount",
          "type": "uint256"
        },
        {
          "internalType": "bool",
          "name": "valid",
          "type": "bool"
        },
        {
          "internalType": "uint256",
          "name": "invalidatedAt",
          "type": "uint256"
        },
        {
          "internalType": "uint256",
          "name": "createdAtBlockNumber",
          "type": "uint256"
        }
      ],
      "stateMutability": "view",
      "type": "function"
    },
    {
      "inputs": [],
      "name": "contributionsCount",
      "outputs": [
        {
          "internalType": "uint256",
          "name": "",
          "type": "uint256"
        }
      ],
      "stateMutability": "view",
      "type": "function"
    },
    {
      "inputs": [
        {
          "internalType": "address",
          "name": "",
          "type": "address"
        },
        {
          "internalType": "uint256",
          "name": "",
          "type": "uint256"
        }
      ],
      "name": "contributionsIds",
      "outputs": [
        {
          "internalType": "uint256",
          "name": "",
          "type": "uint256"
        }
      ],
      "stateMutability": "view",
      "type": "function"
    },
    {
      "inputs": [],
      "name": "contributionsTotalCount",
      "outputs": [
        {
          "internalType": "uint256",
          "name": "",
          "type": "uint256"
        }
      ],
      "stateMutability": "view",
      "type": "function"
    },
    {
      "inputs": [
        {
          "internalType": "address",
          "name": "addr",
          "type": "address"
        }
      ],
      "name": "contributorExists",
      "outputs": [
        {
          "internalType": "bool",
          "name": "",
          "type": "bool"
        }
      ],
      "stateMutability": "view",
      "type": "function"
    },
    {
      "inputs": [
        {
          "internalType": "address",
          "name": "",
          "type": "address"
        }
      ],
      "name": "contributors",
      "outputs": [
        {
          "internalType": "uint256",
          "name": "id",
          "type": "uint256"
        },
        {
          "internalType": "address",
          "name": "contributorWallet",
          "type": "address"
        },
        {
          "internalType": "string",
          "name": "name",
          "type": "string"
        },
        {
          "internalType": "string",
          "name": "proofPhoto",
          "type": "string"
        },
        {
          "components": [
            {
              "internalType": "uint256",
              "name": "level",
              "type": "uint256"
            },
            {
              "internalType": "uint256",
              "name": "currentEra",
              "type": "uint256"
            }
          ],
          "internalType": "struct Pool",
          "name": "pool",
          "type": "tuple"
        },
        {
          "internalType": "uint256",
          "name": "createdAt",
          "type": "uint256"
        },
        {
          "internalType": "uint256",
          "name": "lastPublishedAt",
          "type": "uint256"
        }
      ],
      "stateMutability": "view",
      "type": "function"
    },
    {
      "inputs": [
        {
          "internalType": "uint256",
          "name": "",
          "type": "uint256"
        }
      ],
      "name": "contributorsAddress",
      "outputs": [
        {
          "internalType": "address",
          "name": "",
          "type": "address"
        }
      ],
      "stateMutability": "view",
      "type": "function"
    },
    {
      "inputs": [
        {
          "internalType": "uint256",
          "name": "id",
          "type": "uint256"
        }
      ],
      "name": "getContribution",
      "outputs": [
        {
          "components": [
            {
              "internalType": "uint256",
              "name": "id",
              "type": "uint256"
            },
            {
              "internalType": "uint256",
              "name": "era",
              "type": "uint256"
            },
            {
              "internalType": "address",
              "name": "user",
              "type": "address"
            },
            {
              "internalType": "string",
              "name": "description",
              "type": "string"
            },
            {
              "internalType": "string",
              "name": "report",
              "type": "string"
            },
            {
              "internalType": "uint256",
              "name": "validationsCount",
              "type": "uint256"
            },
            {
              "internalType": "bool",
              "name": "valid",
              "type": "bool"
            },
            {
              "internalType": "uint256",
              "name": "invalidatedAt",
              "type": "uint256"
            },
            {
              "internalType": "uint256",
              "name": "createdAtBlockNumber",
              "type": "uint256"
            }
          ],
          "internalType": "struct Contribution",
          "name": "",
          "type": "tuple"
        }
      ],
      "stateMutability": "view",
      "type": "function"
    },
    {
      "inputs": [
        {
          "internalType": "address",
          "name": "addr",
          "type": "address"
        }
      ],
      "name": "getContributionsIds",
      "outputs": [
        {
          "internalType": "uint256[]",
          "name": "",
          "type": "uint256[]"
        }
      ],
      "stateMutability": "view",
      "type": "function"
    },
    {
      "inputs": [
        {
          "internalType": "address",
          "name": "addr",
          "type": "address"
        }
      ],
      "name": "getContributor",
      "outputs": [
        {
          "components": [
            {
              "internalType": "uint256",
              "name": "id",
              "type": "uint256"
            },
            {
              "internalType": "address",
              "name": "contributorWallet",
              "type": "address"
            },
            {
              "internalType": "string",
              "name": "name",
              "type": "string"
            },
            {
              "internalType": "string",
              "name": "proofPhoto",
              "type": "string"
            },
            {
              "components": [
                {
                  "internalType": "uint256",
                  "name": "level",
                  "type": "uint256"
                },
                {
                  "internalType": "uint256",
                  "name": "currentEra",
                  "type": "uint256"
                }
              ],
              "internalType": "struct Pool",
              "name": "pool",
              "type": "tuple"
            },
            {
              "internalType": "uint256",
              "name": "createdAt",
              "type": "uint256"
            },
            {
              "internalType": "uint256",
              "name": "lastPublishedAt",
              "type": "uint256"
            }
          ],
          "internalType": "struct Contributor",
          "name": "contributor",
          "type": "tuple"
        }
      ],
      "stateMutability": "view",
      "type": "function"
    },
    {
      "inputs": [
        {
          "internalType": "address",
          "name": "caller",
          "type": "address"
        }
      ],
      "name": "isAllowedCaller",
      "outputs": [
        {
          "internalType": "bool",
          "name": "",
          "type": "bool"
        }
      ],
      "stateMutability": "view",
      "type": "function"
    },
    {
      "inputs": [
        {
          "internalType": "address",
          "name": "allowed",
          "type": "address"
        }
      ],
      "name": "newAllowedCaller",
      "outputs": [],
      "stateMutability": "nonpayable",
      "type": "function"
    },
    {
      "inputs": [],
      "name": "nextEraIn",
      "outputs": [
        {
          "internalType": "uint256",
          "name": "",
          "type": "uint256"
        }
      ],
      "stateMutability": "view",
      "type": "function"
    },
    {
      "inputs": [],
      "name": "owner",
      "outputs": [
        {
          "internalType": "address",
          "name": "",
          "type": "address"
        }
      ],
      "stateMutability": "view",
      "type": "function"
    },
    {
      "inputs": [
        {
          "internalType": "address",
          "name": "",
          "type": "address"
        },
        {
          "internalType": "uint256",
          "name": "",
          "type": "uint256"
        }
      ],
      "name": "penalties",
      "outputs": [
        {
          "internalType": "uint256",
          "name": "contributionId",
          "type": "uint256"
        }
      ],
      "stateMutability": "view",
      "type": "function"
    },
    {
      "inputs": [],
      "name": "poolCurrentEra",
      "outputs": [
        {
          "internalType": "uint256",
          "name": "",
          "type": "uint256"
        }
      ],
      "stateMutability": "view",
      "type": "function"
    },
    {
      "inputs": [
        {
          "internalType": "address",
          "name": "addr",
          "type": "address"
        },
        {
          "internalType": "uint256",
          "name": "removeSomeLevels",
          "type": "uint256"
        }
      ],
      "name": "removePoolLevels",
      "outputs": [],
      "stateMutability": "nonpayable",
      "type": "function"
    },
    {
      "inputs": [],
      "name": "renounceOwnership",
      "outputs": [],
      "stateMutability": "nonpayable",
      "type": "function"
    },
    {
      "inputs": [
        {
          "components": [
            {
              "internalType": "address",
              "name": "communityRulesAddress",
              "type": "address"
            },
            {
              "internalType": "address",
              "name": "contributorPoolAddress",
              "type": "address"
            },
            {
              "internalType": "address",
              "name": "validationRulesAddress",
              "type": "address"
            },
            {
              "internalType": "address",
              "name": "voteRulesAddress",
              "type": "address"
            }
          ],
          "internalType": "struct ContractsDependency",
          "name": "contractDependency",
          "type": "tuple"
        }
      ],
      "name": "setContractAddressDependencies",
      "outputs": [],
      "stateMutability": "nonpayable",
      "type": "function"
    },
    {
      "inputs": [
        {
          "internalType": "address",
          "name": "addr",
          "type": "address"
        }
      ],
      "name": "totalPenalties",
      "outputs": [
        {
          "internalType": "uint256",
          "name": "",
          "type": "uint256"
        }
      ],
      "stateMutability": "view",
      "type": "function"
    },
    {
      "inputs": [
        {
          "internalType": "address",
          "name": "newOwner",
          "type": "address"
        }
      ],
      "name": "transferOwnership",
      "outputs": [],
      "stateMutability": "nonpayable",
      "type": "function"
    },
    {
      "inputs": [],
      "name": "withdraw",
      "outputs": [],
      "stateMutability": "nonpayable",
      "type": "function"
    }
  ],
  "bytecode": "0x60e060405234801561001057600080fd5b50604051614fc0380380614fc083398181016040528101906100329190610175565b61004e61004361006e60201b60201c565b61007660201b60201c565b82608081815250508160c081815250508060a081815250505050506101c8565b600033905090565b60008060009054906101000a900473ffffffffffffffffffffffffffffffffffffffff169050816000806101000a81548173ffffffffffffffffffffffffffffffffffffffff021916908373ffffffffffffffffffffffffffffffffffffffff1602179055508173ffffffffffffffffffffffffffffffffffffffff168173ffffffffffffffffffffffffffffffffffffffff167f8be0079c531659141344cd1fd0a4f28419497f9722a3daafe3b4186f6b6457e060405160405180910390a35050565b600080fd5b6000819050919050565b6101528161013f565b811461015d57600080fd5b50565b60008151905061016f81610149565b92915050565b60008060006060848603121561018e5761018d61013a565b5b600061019c86828701610160565b93505060206101ad86828701610160565b92505060406101be86828701610160565b9150509250925092565b60805160a05160c051614dc26101fe600039600061277f0152600081816107a60152611bce01526000612eac0152614dc26000f3fe608060405234801561001057600080fd5b50600436106101e55760003560e01c80638f93716f1161010f578063b43f070a116100a2578063cef4225411610071578063cef42254146105d8578063da0e0f9714610608578063e05cf15514610638578063f2fde38b14610656576101e5565b8063b43f070a1461053c578063b7e977771461055a578063c69685561461058a578063c77c1ce6146105a8576101e5565b80639eaf666f116100de5780639eaf666f14610490578063a6801258146104c0578063b0fd59f3146104f0578063b1824a511461050c576101e5565b80638f93716f1461040a57806391155f191461042657806397705d60146104565780639d4c1ab814610474576101e5565b806338658175116101875780635fa71c28116101565780635fa71c2814610382578063715018a6146103b25780637b334154146103bc5780638da5cb5b146103ec576101e5565b8063386581751461030c5780633ccfd60b1461032a5780633d8270f514610334578063582256f114610364576101e5565b80631cee0700116101c35780631cee0700146102525780631f6d49421461028a5780632076267b146102c05780632d68402e146102f0576101e5565b8063129de965146101ea57806318ad5c9a146102065780631b63a43c14610222575b600080fd5b61020460048036038101906101ff9190613774565b610672565b005b610220600480360381019061021b9190613880565b610a3e565b005b61023c60048036038101906102379190613880565b610d76565b60405161024991906138cf565b60405180910390f35b61026c600480360381019061026791906138ea565b610e94565b604051610281999897969594939291906139c0565b60405180910390f35b6102a4600480360381019061029f9190613a5b565b61101f565b6040516102b79796959493929190613ac6565b60405180910390f35b6102da60048036038101906102d59190613a5b565b6111af565b6040516102e791906138cf565b60405180910390f35b61030a60048036038101906103059190613bc1565b6111fb565b005b61031461131a565b60405161032191906138cf565b60405180910390f35b610332611320565b005b61034e60048036038101906103499190613a5b565b6117e2565b60405161035b9190613d1a565b60405180910390f35b61036c6119fb565b60405161037991906138cf565b60405180910390f35b61039c60048036038101906103979190613880565b611aa5565b6040516103a991906138cf565b60405180910390f35b6103ba611adc565b005b6103d660048036038101906103d19190613a5b565b611af0565b6040516103e39190613d3c565b60405180910390f35b6103f4611b10565b6040516104019190613d57565b60405180910390f35b610424600480360381019061041f9190613a5b565b611b39565b005b610440600480360381019061043b9190613880565b611b9b565b60405161044d91906138cf565b60405180910390f35b61045e611bcc565b60405161046b91906138cf565b60405180910390f35b61048e60048036038101906104899190613d72565b611bf0565b005b6104aa60048036038101906104a59190613dce565b61226d565b6040516104b79190613d3c565b60405180910390f35b6104da60048036038101906104d59190613a5b565b6122b9565b6040516104e79190613d3c565b60405180910390f35b61050a60048036038101906105059190613774565b61230f565b005b61052660048036038101906105219190613a5b565b61272f565b6040516105339190613d3c565b60405180910390f35b61054461277d565b60405161055191906138cf565b60405180910390f35b610574600480360381019061056f91906138ea565b6127a1565b6040516105819190613d57565b60405180910390f35b6105926127d4565b60405161059f91906138cf565b60405180910390f35b6105c260048036038101906105bd9190613a5b565b6127da565b6040516105cf9190613d3c565b60405180910390f35b6105f260048036038101906105ed91906138ea565b612ab9565b6040516105ff9190613efc565b60405180910390f35b610622600480360381019061061d9190613a5b565b612cae565b60405161062f9190613fcd565b60405180910390f35b610640612d45565b60405161064d91906138cf565b60405180910390f35b610670600480360381019061066b9190613a5b565b612ddd565b005b6101f482511115801561068757506064815111155b6106c6576040517f08c379a00000000000000000000000000000000000000000000000000000000081526004016106bd9061403b565b60405180910390fd5b600660009054906101000a900473ffffffffffffffffffffffffffffffffffffffff1673ffffffffffffffffffffffffffffffffffffffff16639497c6086005336040518363ffffffff1660e01b81526004016107249291906140d2565b602060405180830381865afa158015610741573d6000803e3d6000fd5b505050506040513d601f19601f820116820180604052508101906107659190614127565b6107a4576040517f08c379a000000000000000000000000000000000000000000000000000000000815260040161079b906141a0565b60405180910390fd5b7f00000000000000000000000000000000000000000000000000000000000000006107cd6119fb565b1161080d576040517f08c379a000000000000000000000000000000000000000000000000000000000815260040161080490614232565b60405180910390fd5b61081633612e60565b610855576040517f08c379a000000000000000000000000000000000000000000000000000000000815260040161084c9061429e565b60405180910390fd5b600a6000815480929190610868906142ed565b9190505550600b6000815480929190610880906142ed565b91905055506000600b5490506040518061012001604052808281526020016108a6612d45565b81526020013373ffffffffffffffffffffffffffffffffffffffff16815260200184815260200183815260200160008152602001600115158152602001600081526020014381525060036000838152602001908152602001600020600082015181600001556020820151816001015560408201518160020160006101000a81548173ffffffffffffffffffffffffffffffffffffffff021916908373ffffffffffffffffffffffffffffffffffffffff16021790555060608201518160030190816109719190614541565b5060808201518160040190816109879190614541565b5060a0820151816005015560c08201518160060160006101000a81548160ff02191690831515021790555060e082015181600701556101008201518160080155905050600560003373ffffffffffffffffffffffffffffffffffffffff1673ffffffffffffffffffffffffffffffffffffffff168152602001908152602001600020819080600181540180825580915050600190039060005260206000200160009091909190915055610a3933612ef0565b505050565b600160003373ffffffffffffffffffffffffffffffffffffffff1673ffffffffffffffffffffffffffffffffffffffff16815260200190815260200160002060009054906101000a900460ff16610aca576040517f08c379a0000000000000000000000000000000000000000000000000000000008152600401610ac19061465f565b60405180910390fd5b6000600260008473ffffffffffffffffffffffffffffffffffffffff1673ffffffffffffffffffffffffffffffffffffffff1681526020019081526020016000206040518060e0016040529081600082015481526020016001820160009054906101000a900473ffffffffffffffffffffffffffffffffffffffff1673ffffffffffffffffffffffffffffffffffffffff1673ffffffffffffffffffffffffffffffffffffffff168152602001600282018054610b8690614364565b80601f0160208091040260200160405190810160405280929190818152602001828054610bb290614364565b8015610bff5780601f10610bd457610100808354040283529160200191610bff565b820191906000526020600020905b815481529060010190602001808311610be257829003601f168201915b50505050508152602001600382018054610c1890614364565b80601f0160208091040260200160405190810160405280929190818152602001828054610c4490614364565b8015610c915780601f10610c6657610100808354040283529160200191610c91565b820191906000526020600020905b815481529060010190602001808311610c7457829003601f168201915b5050505050815260200160048201604051806040016040529081600082015481526020016001820154815250508152602001600682015481526020016007820154815250509050600760009054906101000a900473ffffffffffffffffffffffffffffffffffffffff1673ffffffffffffffffffffffffffffffffffffffff1663157ffc5284836080015160200151856040518463ffffffff1660e01b8152600401610d3f9392919061467f565b600060405180830381600087803b158015610d5957600080fd5b505af1158015610d6d573d6000803e3d6000fd5b50505050505050565b6000600160003373ffffffffffffffffffffffffffffffffffffffff1673ffffffffffffffffffffffffffffffffffffffff16815260200190815260200160002060009054906101000a900460ff16610e04576040517f08c379a0000000000000000000000000000000000000000000000000000000008152600401610dfb9061465f565b60405180910390fd5b600c60008473ffffffffffffffffffffffffffffffffffffffff1673ffffffffffffffffffffffffffffffffffffffff16815260200190815260200160002060405180602001604052808481525090806001815401808255809150506001900390600052602060002001600090919091909150600082015181600001555050610e8c836111af565b905092915050565b60036020528060005260406000206000915090508060000154908060010154908060020160009054906101000a900473ffffffffffffffffffffffffffffffffffffffff1690806003018054610ee990614364565b80601f0160208091040260200160405190810160405280929190818152602001828054610f1590614364565b8015610f625780601f10610f3757610100808354040283529160200191610f62565b820191906000526020600020905b815481529060010190602001808311610f4557829003601f168201915b505050505090806004018054610f7790614364565b80601f0160208091040260200160405190810160405280929190818152602001828054610fa390614364565b8015610ff05780601f10610fc557610100808354040283529160200191610ff0565b820191906000526020600020905b815481529060010190602001808311610fd357829003601f168201915b5050505050908060050154908060060160009054906101000a900460ff16908060070154908060080154905089565b60026020528060005260406000206000915090508060000154908060010160009054906101000a900473ffffffffffffffffffffffffffffffffffffffff169080600201805461106e90614364565b80601f016020809104026020016040519081016040528092919081815260200182805461109a90614364565b80156110e75780601f106110bc576101008083540402835291602001916110e7565b820191906000526020600020905b8154815290600101906020018083116110ca57829003601f168201915b5050505050908060030180546110fc90614364565b80601f016020809104026020016040519081016040528092919081815260200182805461112890614364565b80156111755780601f1061114a57610100808354040283529160200191611175565b820191906000526020600020905b81548152906001019060200180831161115857829003601f168201915b5050505050908060040160405180604001604052908160008201548152602001600182015481525050908060060154908060070154905087565b6000600c60008373ffffffffffffffffffffffffffffffffffffffff1673ffffffffffffffffffffffffffffffffffffffff168152602001908152602001600020805490509050919050565b6112036132a9565b8060000151600660006101000a81548173ffffffffffffffffffffffffffffffffffffffff021916908373ffffffffffffffffffffffffffffffffffffffff1602179055508060200151600760006101000a81548173ffffffffffffffffffffffffffffffffffffffff021916908373ffffffffffffffffffffffffffffffffffffffff1602179055508060400151600860006101000a81548173ffffffffffffffffffffffffffffffffffffffff021916908373ffffffffffffffffffffffffffffffffffffffff1602179055508060600151600960006101000a81548173ffffffffffffffffffffffffffffffffffffffff021916908373ffffffffffffffffffffffffffffffffffffffff16021790555050565b600a5481565b600660009054906101000a900473ffffffffffffffffffffffffffffffffffffffff1673ffffffffffffffffffffffffffffffffffffffff16639497c6086005336040518363ffffffff1660e01b815260040161137e9291906140d2565b602060405180830381865afa15801561139b573d6000803e3d6000fd5b505050506040513d601f19601f820116820180604052508101906113bf9190614127565b6113fe576040517f08c379a00000000000000000000000000000000000000000000000000000000081526004016113f590614702565b60405180910390fd5b6000600260003373ffffffffffffffffffffffffffffffffffffffff1673ffffffffffffffffffffffffffffffffffffffff1681526020019081526020016000206040518060e0016040529081600082015481526020016001820160009054906101000a900473ffffffffffffffffffffffffffffffffffffffff1673ffffffffffffffffffffffffffffffffffffffff1673ffffffffffffffffffffffffffffffffffffffff1681526020016002820180546114ba90614364565b80601f01602080910402602001604051908101604052809291908181526020018280546114e690614364565b80156115335780601f1061150857610100808354040283529160200191611533565b820191906000526020600020905b81548152906001019060200180831161151657829003601f168201915b5050505050815260200160038201805461154c90614364565b80601f016020809104026020016040519081016040528092919081815260200182805461157890614364565b80156115c55780601f1061159a576101008083540402835291602001916115c5565b820191906000526020600020905b8154815290600101906020018083116115a857829003601f168201915b505050505081526020016004820160405180604001604052908160008201548152602001600182015481525050815260200160068201548152602001600782015481525050905060008160800151602001519050600760009054906101000a900473ffffffffffffffffffffffffffffffffffffffff1673ffffffffffffffffffffffffffffffffffffffff1663fbe85f06826040518263ffffffff1660e01b815260040161167491906138cf565b602060405180830381865afa158015611691573d6000803e3d6000fd5b505050506040513d601f19601f820116820180604052508101906116b59190614127565b6116f4576040517f08c379a00000000000000000000000000000000000000000000000000000000081526004016116eb9061476e565b60405180910390fd5b600260003373ffffffffffffffffffffffffffffffffffffffff1673ffffffffffffffffffffffffffffffffffffffff168152602001908152602001600020600401600101600081548092919061174a906142ed565b9190505550600760009054906101000a900473ffffffffffffffffffffffffffffffffffffffff1673ffffffffffffffffffffffffffffffffffffffff1663f3fef3a333836040518363ffffffff1660e01b81526004016117ac92919061478e565b600060405180830381600087803b1580156117c657600080fd5b505af11580156117da573d6000803e3d6000fd5b505050505050565b6117ea613543565b600260008373ffffffffffffffffffffffffffffffffffffffff1673ffffffffffffffffffffffffffffffffffffffff1681526020019081526020016000206040518060e0016040529081600082015481526020016001820160009054906101000a900473ffffffffffffffffffffffffffffffffffffffff1673ffffffffffffffffffffffffffffffffffffffff1673ffffffffffffffffffffffffffffffffffffffff1681526020016002820180546118a490614364565b80601f01602080910402602001604051908101604052809291908181526020018280546118d090614364565b801561191d5780601f106118f25761010080835404028352916020019161191d565b820191906000526020600020905b81548152906001019060200180831161190057829003601f168201915b5050505050815260200160038201805461193690614364565b80601f016020809104026020016040519081016040528092919081815260200182805461196290614364565b80156119af5780601f10611984576101008083540402835291602001916119af565b820191906000526020600020905b81548152906001019060200180831161199257829003601f168201915b5050505050815260200160048201604051806040016040529081600082015481526020016001820154815250508152602001600682015481526020016007820154815250509050919050565b6000600760009054906101000a900473ffffffffffffffffffffffffffffffffffffffff1673ffffffffffffffffffffffffffffffffffffffff1663d5ee3eb5611a43612d45565b6040518263ffffffff1660e01b8152600401611a5f91906138cf565b602060405180830381865afa158015611a7c573d6000803e3d6000fd5b505050506040513d601f19601f82011682018060405250810190611aa091906147ed565b905090565b600c6020528160005260406000208181548110611ac157600080fd5b90600052602060002001600091509150508060000154905081565b611ae46132a9565b611aee6000613327565b565b60016020528060005260406000206000915054906101000a900460ff1681565b60008060009054906101000a900473ffffffffffffffffffffffffffffffffffffffff16905090565b611b416132a9565b60018060008373ffffffffffffffffffffffffffffffffffffffff1673ffffffffffffffffffffffffffffffffffffffff16815260200190815260200160002060006101000a81548160ff02191690831515021790555050565b60056020528160005260406000208181548110611bb757600080fd5b90600052602060002001600091509150505481565b7f000000000000000000000000000000000000000000000000000000000000000081565b600960009054906101000a900473ffffffffffffffffffffffffffffffffffffffff1673ffffffffffffffffffffffffffffffffffffffff1663adfaa72e336040518263ffffffff1660e01b8152600401611c4b9190613d57565b602060405180830381865afa158015611c68573d6000803e3d6000fd5b505050506040513d601f19601f82011682018060405250810190611c8c9190614127565b611ccb576040517f08c379a0000000000000000000000000000000000000000000000000000000008152600401611cc290614866565b60405180910390fd5b600860009054906101000a900473ffffffffffffffffffffffffffffffffffffffff1673ffffffffffffffffffffffffffffffffffffffff1663361119ac336040518263ffffffff1660e01b8152600401611d269190613d57565b602060405180830381865afa158015611d43573d6000803e3d6000fd5b505050506040513d601f19601f82011682018060405250810190611d679190614127565b611da6576040517f08c379a0000000000000000000000000000000000000000000000000000000008152600401611d9d906148d2565b60405180910390fd5b61012c81511115611dec576040517f08c379a0000000000000000000000000000000000000000000000000000000008152600401611de39061493e565b60405180910390fd5b6000600360008481526020019081526020016000206040518061012001604052908160008201548152602001600182015481526020016002820160009054906101000a900473ffffffffffffffffffffffffffffffffffffffff1673ffffffffffffffffffffffffffffffffffffffff1673ffffffffffffffffffffffffffffffffffffffff168152602001600382018054611e8790614364565b80601f0160208091040260200160405190810160405280929190818152602001828054611eb390614364565b8015611f005780601f10611ed557610100808354040283529160200191611f00565b820191906000526020600020905b815481529060010190602001808311611ee357829003601f168201915b50505050508152602001600482018054611f1990614364565b80601f0160208091040260200160405190810160405280929190818152602001828054611f4590614364565b8015611f925780601f10611f6757610100808354040283529160200191611f92565b820191906000526020600020905b815481529060010190602001808311611f7557829003601f168201915b50505050508152602001600582015481526020016006820160009054906101000a900460ff161515151581526020016007820154815260200160088201548152505090508060c001518015611ff257508060200151611fef612d45565b11155b612031576040517f08c379a0000000000000000000000000000000000000000000000000000000008152600401612028906149aa565b60405180910390fd5b60018160a00181815161204491906149ca565b915081815250508060036000858152602001908152602001600020600082015181600001556020820151816001015560408201518160020160006101000a81548173ffffffffffffffffffffffffffffffffffffffff021916908373ffffffffffffffffffffffffffffffffffffffff16021790555060608201518160030190816120cf9190614541565b5060808201518160040190816120e59190614541565b5060a0820151816005015560c08201518160060160006101000a81548160ff02191690831515021790555060e0820151816007015561010082015181600801559050506000600860009054906101000a900473ffffffffffffffffffffffffffffffffffffffff1673ffffffffffffffffffffffffffffffffffffffff166369bf81c36040518163ffffffff1660e01b8152600401602060405180830381865afa158015612197573d6000803e3d6000fd5b505050506040513d601f19601f820116820180604052508101906121bb9190614a13565b8260a001511015905080156121d6576121d3826133eb565b91505b600860009054906101000a900473ffffffffffffffffffffffffffffffffffffffff1673ffffffffffffffffffffffffffffffffffffffff1663ff12574e8385336040518463ffffffff1660e01b815260040161223593929190614a40565b600060405180830381600087803b15801561224f57600080fd5b505af1158015612263573d6000803e3d6000fd5b5050505050505050565b60006005831161228057600190506122b2565b60006122a8600161229a868861350f90919063ffffffff16565b61352590919063ffffffff16565b9050808310159150505b9392505050565b6000600160008373ffffffffffffffffffffffffffffffffffffffff1673ffffffffffffffffffffffffffffffffffffffff16815260200190815260200160002060009054906101000a900460ff169050919050565b606482511115801561232357506064815111155b612362576040517f08c379a000000000000000000000000000000000000000000000000000000000815260040161235990614ad1565b60405180910390fd5b613e80600660009054906101000a900473ffffffffffffffffffffffffffffffffffffffff1673ffffffffffffffffffffffffffffffffffffffff16632f22dc7b60056040518263ffffffff1660e01b81526004016123c19190614af1565b602060405180830381865afa1580156123de573d6000803e3d6000fd5b505050506040513d601f19601f820116820180604052508101906124029190614a13565b1115612443576040517f08c379a000000000000000000000000000000000000000000000000000000000815260040161243a90614b58565b60405180910390fd5b60006001600660009054906101000a900473ffffffffffffffffffffffffffffffffffffffff1673ffffffffffffffffffffffffffffffffffffffff16631eb2c12060056040518263ffffffff1660e01b81526004016124a39190614af1565b602060405180830381865afa1580156124c0573d6000803e3d6000fd5b505050506040513d601f19601f820116820180604052508101906124e49190614a13565b6124ee91906149ca565b90506040518060e001604052808281526020013373ffffffffffffffffffffffffffffffffffffffff168152602001848152602001838152602001604051806040016040528060008152602001612543612d45565b81525081526020014381526020016000815250600260003373ffffffffffffffffffffffffffffffffffffffff1673ffffffffffffffffffffffffffffffffffffffff1681526020019081526020016000206000820151816000015560208201518160010160006101000a81548173ffffffffffffffffffffffffffffffffffffffff021916908373ffffffffffffffffffffffffffffffffffffffff16021790555060408201518160020190816125fb9190614541565b5060608201518160030190816126119190614541565b506080820151816004016000820151816000015560208201518160010155505060a0820151816006015560c08201518160070155905050336004600083815260200190815260200160002060006101000a81548173ffffffffffffffffffffffffffffffffffffffff021916908373ffffffffffffffffffffffffffffffffffffffff160217905550600660009054906101000a900473ffffffffffffffffffffffffffffffffffffffff1673ffffffffffffffffffffffffffffffffffffffff16639c3eead93360056040518363ffffffff1660e01b81526004016126f8929190614b78565b600060405180830381600087803b15801561271257600080fd5b505af1158015612726573d6000803e3d6000fd5b50505050505050565b600080600260008473ffffffffffffffffffffffffffffffffffffffff1673ffffffffffffffffffffffffffffffffffffffff16815260200190815260200160002060000154119050919050565b7f000000000000000000000000000000000000000000000000000000000000000081565b60046020528060005260406000206000915054906101000a900473ffffffffffffffffffffffffffffffffffffffff1681565b600b5481565b600080600260008473ffffffffffffffffffffffffffffffffffffffff1673ffffffffffffffffffffffffffffffffffffffff1681526020019081526020016000206040518060e0016040529081600082015481526020016001820160009054906101000a900473ffffffffffffffffffffffffffffffffffffffff1673ffffffffffffffffffffffffffffffffffffffff1673ffffffffffffffffffffffffffffffffffffffff16815260200160028201805461289790614364565b80601f01602080910402602001604051908101604052809291908181526020018280546128c390614364565b80156129105780601f106128e557610100808354040283529160200191612910565b820191906000526020600020905b8154815290600101906020018083116128f357829003601f168201915b5050505050815260200160038201805461292990614364565b80601f016020809104026020016040519081016040528092919081815260200182805461295590614364565b80156129a25780601f10612977576101008083540402835291602001916129a2565b820191906000526020600020905b81548152906001019060200180831161298557829003601f168201915b505050505081526020016004820160405180604001604052908160008201548152602001600182015481525050815260200160068201548152602001600782015481525050905060008160000151116129ff576000915050612ab4565b612ab0600b54600660009054906101000a900473ffffffffffffffffffffffffffffffffffffffff1673ffffffffffffffffffffffffffffffffffffffff16631eb2c12060056040518263ffffffff1660e01b8152600401612a619190614af1565b602060405180830381865afa158015612a7e573d6000803e3d6000fd5b505050506040513d601f19601f82011682018060405250810190612aa29190614a13565b83608001516000015161226d565b9150505b919050565b612ac161359c565b600360008381526020019081526020016000206040518061012001604052908160008201548152602001600182015481526020016002820160009054906101000a900473ffffffffffffffffffffffffffffffffffffffff1673ffffffffffffffffffffffffffffffffffffffff1673ffffffffffffffffffffffffffffffffffffffff168152602001600382018054612b5a90614364565b80601f0160208091040260200160405190810160405280929190818152602001828054612b8690614364565b8015612bd35780601f10612ba857610100808354040283529160200191612bd3565b820191906000526020600020905b815481529060010190602001808311612bb657829003601f168201915b50505050508152602001600482018054612bec90614364565b80601f0160208091040260200160405190810160405280929190818152602001828054612c1890614364565b8015612c655780601f10612c3a57610100808354040283529160200191612c65565b820191906000526020600020905b815481529060010190602001808311612c4857829003601f168201915b50505050508152602001600582015481526020016006820160009054906101000a900460ff16151515158152602001600782015481526020016008820154815250509050919050565b6060600560008373ffffffffffffffffffffffffffffffffffffffff1673ffffffffffffffffffffffffffffffffffffffff168152602001908152602001600020805480602002602001604051908101604052809291908181526020018280548015612d3957602002820191906000526020600020905b815481526020019060010190808311612d25575b50505050509050919050565b6000600760009054906101000a900473ffffffffffffffffffffffffffffffffffffffff1673ffffffffffffffffffffffffffffffffffffffff1663ed0df79e6040518163ffffffff1660e01b8152600401602060405180830381865afa158015612db4573d6000803e3d6000fd5b505050506040513d601f19601f82011682018060405250810190612dd89190614a13565b905090565b612de56132a9565b600073ffffffffffffffffffffffffffffffffffffffff168173ffffffffffffffffffffffffffffffffffffffff1603612e54576040517f08c379a0000000000000000000000000000000000000000000000000000000008152600401612e4b90614c13565b60405180910390fd5b612e5d81613327565b50565b600080600260008473ffffffffffffffffffffffffffffffffffffffff1673ffffffffffffffffffffffffffffffffffffffff16815260200190815260200160002060070154905060007f000000000000000000000000000000000000000000000000000000000000000082612ed691906149ca565b431190508080612ee7575060008211155b92505050919050565b6000600260008373ffffffffffffffffffffffffffffffffffffffff1673ffffffffffffffffffffffffffffffffffffffff1681526020019081526020016000206040518060e0016040529081600082015481526020016001820160009054906101000a900473ffffffffffffffffffffffffffffffffffffffff1673ffffffffffffffffffffffffffffffffffffffff1673ffffffffffffffffffffffffffffffffffffffff168152602001600282018054612fac90614364565b80601f0160208091040260200160405190810160405280929190818152602001828054612fd890614364565b80156130255780601f10612ffa57610100808354040283529160200191613025565b820191906000526020600020905b81548152906001019060200180831161300857829003601f168201915b5050505050815260200160038201805461303e90614364565b80601f016020809104026020016040519081016040528092919081815260200182805461306a90614364565b80156130b75780601f1061308c576101008083540402835291602001916130b7565b820191906000526020600020905b81548152906001019060200180831161309a57829003601f168201915b5050505050815260200160048201604051806040016040529081600082015481526020016001820154815250508152602001600682015481526020016007820154815250509050438160c00181815250508060800151600001805180919061311e906142ed565b8152505080600260008473ffffffffffffffffffffffffffffffffffffffff1673ffffffffffffffffffffffffffffffffffffffff1681526020019081526020016000206000820151816000015560208201518160010160006101000a81548173ffffffffffffffffffffffffffffffffffffffff021916908373ffffffffffffffffffffffffffffffffffffffff16021790555060408201518160020190816131c89190614541565b5060608201518160030190816131de9190614541565b506080820151816004016000820151816000015560208201518160010155505060a0820151816006015560c08201518160070155905050600760009054906101000a900473ffffffffffffffffffffffffffffffffffffffff1673ffffffffffffffffffffffffffffffffffffffff166352b8d3ed8360016040518363ffffffff1660e01b8152600401613273929190614c6e565b600060405180830381600087803b15801561328d57600080fd5b505af11580156132a1573d6000803e3d6000fd5b505050505050565b6132b161353b565b73ffffffffffffffffffffffffffffffffffffffff166132cf611b10565b73ffffffffffffffffffffffffffffffffffffffff1614613325576040517f08c379a000000000000000000000000000000000000000000000000000000000815260040161331c90614ce3565b60405180910390fd5b565b60008060009054906101000a900473ffffffffffffffffffffffffffffffffffffffff169050816000806101000a81548173ffffffffffffffffffffffffffffffffffffffff021916908373ffffffffffffffffffffffffffffffffffffffff1602179055508173ffffffffffffffffffffffffffffffffffffffff168173ffffffffffffffffffffffffffffffffffffffff167f8be0079c531659141344cd1fd0a4f28419497f9722a3daafe3b4186f6b6457e060405160405180910390a35050565b6133f361359c565b600a600081548092919061340690614d03565b919050555060008260c0019015159081151581525050438260e0018181525050816003600084600001518152602001908152602001600020600082015181600001556020820151816001015560408201518160020160006101000a81548173ffffffffffffffffffffffffffffffffffffffff021916908373ffffffffffffffffffffffffffffffffffffffff16021790555060608201518160030190816134ae9190614541565b5060808201518160040190816134c49190614541565b5060a0820151816005015560c08201518160060160006101000a81548160ff02191690831515021790555060e082015181600701556101008201518160080155905050819050919050565b6000818361351d9190614d5b565b905092915050565b6000818361353391906149ca565b905092915050565b600033905090565b6040518060e0016040528060008152602001600073ffffffffffffffffffffffffffffffffffffffff1681526020016060815260200160608152602001613588613600565b815260200160008152602001600081525090565b6040518061012001604052806000815260200160008152602001600073ffffffffffffffffffffffffffffffffffffffff16815260200160608152602001606081526020016000815260200160001515815260200160008152602001600081525090565b604051806040016040528060008152602001600081525090565b6000604051905090565b600080fd5b600080fd5b600080fd5b600080fd5b6000601f19601f8301169050919050565b7f4e487b7100000000000000000000000000000000000000000000000000000000600052604160045260246000fd5b61368182613638565b810181811067ffffffffffffffff821117156136a05761369f613649565b5b80604052505050565b60006136b361361a565b90506136bf8282613678565b919050565b600067ffffffffffffffff8211156136df576136de613649565b5b6136e882613638565b9050602081019050919050565b82818337600083830152505050565b6000613717613712846136c4565b6136a9565b90508281526020810184848401111561373357613732613633565b5b61373e8482856136f5565b509392505050565b600082601f83011261375b5761375a61362e565b5b813561376b848260208601613704565b91505092915050565b6000806040838503121561378b5761378a613624565b5b600083013567ffffffffffffffff8111156137a9576137a8613629565b5b6137b585828601613746565b925050602083013567ffffffffffffffff8111156137d6576137d5613629565b5b6137e285828601613746565b9150509250929050565b600073ffffffffffffffffffffffffffffffffffffffff82169050919050565b6000613817826137ec565b9050919050565b6138278161380c565b811461383257600080fd5b50565b6000813590506138448161381e565b92915050565b6000819050919050565b61385d8161384a565b811461386857600080fd5b50565b60008135905061387a81613854565b92915050565b6000806040838503121561389757613896613624565b5b60006138a585828601613835565b92505060206138b68582860161386b565b9150509250929050565b6138c98161384a565b82525050565b60006020820190506138e460008301846138c0565b92915050565b600060208284031215613900576138ff613624565b5b600061390e8482850161386b565b91505092915050565b6139208161380c565b82525050565b600081519050919050565b600082825260208201905092915050565b60005b83811015613960578082015181840152602081019050613945565b60008484015250505050565b600061397782613926565b6139818185613931565b9350613991818560208601613942565b61399a81613638565b840191505092915050565b60008115159050919050565b6139ba816139a5565b82525050565b6000610120820190506139d6600083018c6138c0565b6139e3602083018b6138c0565b6139f0604083018a613917565b8181036060830152613a02818961396c565b90508181036080830152613a16818861396c565b9050613a2560a08301876138c0565b613a3260c08301866139b1565b613a3f60e08301856138c0565b613a4d6101008301846138c0565b9a9950505050505050505050565b600060208284031215613a7157613a70613624565b5b6000613a7f84828501613835565b91505092915050565b613a918161384a565b82525050565b604082016000820151613aad6000850182613a88565b506020820151613ac06020850182613a88565b50505050565b600061010082019050613adc600083018a6138c0565b613ae96020830189613917565b8181036040830152613afb818861396c565b90508181036060830152613b0f818761396c565b9050613b1e6080830186613a97565b613b2b60c08301856138c0565b613b3860e08301846138c0565b98975050505050505050565b600080fd5b600060808284031215613b5f57613b5e613b44565b5b613b6960806136a9565b90506000613b7984828501613835565b6000830152506020613b8d84828501613835565b6020830152506040613ba184828501613835565b6040830152506060613bb584828501613835565b60608301525092915050565b600060808284031215613bd757613bd6613624565b5b6000613be584828501613b49565b91505092915050565b613bf78161380c565b82525050565b600082825260208201905092915050565b6000613c1982613926565b613c238185613bfd565b9350613c33818560208601613942565b613c3c81613638565b840191505092915050565b604082016000820151613c5d6000850182613a88565b506020820151613c706020850182613a88565b50505050565b600061010083016000830151613c8f6000860182613a88565b506020830151613ca26020860182613bee565b5060408301518482036040860152613cba8282613c0e565b91505060608301518482036060860152613cd48282613c0e565b9150506080830151613ce96080860182613c47565b5060a0830151613cfc60c0860182613a88565b5060c0830151613d0f60e0860182613a88565b508091505092915050565b60006020820190508181036000830152613d348184613c76565b905092915050565b6000602082019050613d5160008301846139b1565b92915050565b6000602082019050613d6c6000830184613917565b92915050565b60008060408385031215613d8957613d88613624565b5b6000613d978582860161386b565b925050602083013567ffffffffffffffff811115613db857613db7613629565b5b613dc485828601613746565b9150509250929050565b600080600060608486031215613de757613de6613624565b5b6000613df58682870161386b565b9350506020613e068682870161386b565b9250506040613e178682870161386b565b9150509250925092565b613e2a816139a5565b82525050565b600061012083016000830151613e496000860182613a88565b506020830151613e5c6020860182613a88565b506040830151613e6f6040860182613bee565b5060608301518482036060860152613e878282613c0e565b91505060808301518482036080860152613ea18282613c0e565b91505060a0830151613eb660a0860182613a88565b5060c0830151613ec960c0860182613e21565b5060e0830151613edc60e0860182613a88565b50610100830151613ef1610100860182613a88565b508091505092915050565b60006020820190508181036000830152613f168184613e30565b905092915050565b600081519050919050565b600082825260208201905092915050565b6000819050602082019050919050565b6000613f568383613a88565b60208301905092915050565b6000602082019050919050565b6000613f7a82613f1e565b613f848185613f29565b9350613f8f83613f3a565b8060005b83811015613fc0578151613fa78882613f4a565b9750613fb283613f62565b925050600181019050613f93565b5085935050505092915050565b60006020820190508181036000830152613fe78184613f6f565b905092915050565b7f4d61782063686172616374657273207265616368656400000000000000000000600082015250565b6000614025601683613931565b915061403082613fef565b602082019050919050565b6000602082019050818103600083015261405481614018565b9050919050565b7f4e487b7100000000000000000000000000000000000000000000000000000000600052602160045260246000fd5b6009811061409b5761409a61405b565b5b50565b60008190506140ac8261408a565b919050565b60006140bc8261409e565b9050919050565b6140cc816140b1565b82525050565b60006040820190506140e760008301856140c3565b6140f46020830184613917565b9392505050565b614104816139a5565b811461410f57600080fd5b50565b600081519050614121816140fb565b92915050565b60006020828403121561413d5761413c613624565b5b600061414b84828501614112565b91505092915050565b7f4f6e6c7920436f6e7472696275746f7200000000000000000000000000000000600082015250565b600061418a601083613931565b915061419582614154565b602082019050919050565b600060208201905081810360008301526141b98161417d565b9050919050565b7f5761697420756e74696c206e6578742065726120746f2061646420636f6e747260008201527f69627574696f6e00000000000000000000000000000000000000000000000000602082015250565b600061421c602783613931565b9150614227826141c0565b604082019050919050565b6000602082019050818103600083015261424b8161420f565b9050919050565b7f43616e2774207075626c69736820796574000000000000000000000000000000600082015250565b6000614288601183613931565b915061429382614252565b602082019050919050565b600060208201905081810360008301526142b78161427b565b9050919050565b7f4e487b7100000000000000000000000000000000000000000000000000000000600052601160045260246000fd5b60006142f88261384a565b91507fffffffffffffffffffffffffffffffffffffffffffffffffffffffffffffffff820361432a576143296142be565b5b600182019050919050565b7f4e487b7100000000000000000000000000000000000000000000000000000000600052602260045260246000fd5b6000600282049050600182168061437c57607f821691505b60208210810361438f5761438e614335565b5b50919050565b60008190508160005260206000209050919050565b60006020601f8301049050919050565b600082821b905092915050565b6000600883026143f77fffffffffffffffffffffffffffffffffffffffffffffffffffffffffffffffff826143ba565b61440186836143ba565b95508019841693508086168417925050509392505050565b6000819050919050565b600061443e6144396144348461384a565b614419565b61384a565b9050919050565b6000819050919050565b61445883614423565b61446c61446482614445565b8484546143c7565b825550505050565b600090565b614481614474565b61448c81848461444f565b505050565b5b818110156144b0576144a5600082614479565b600181019050614492565b5050565b601f8211156144f5576144c681614395565b6144cf846143aa565b810160208510156144de578190505b6144f26144ea856143aa565b830182614491565b50505b505050565b600082821c905092915050565b6000614518600019846008026144fa565b1980831691505092915050565b60006145318383614507565b9150826002028217905092915050565b61454a82613926565b67ffffffffffffffff81111561456357614562613649565b5b61456d8254614364565b6145788282856144b4565b600060209050601f8311600181146145ab5760008415614599578287015190505b6145a38582614525565b86555061460b565b601f1984166145b986614395565b60005b828110156145e1578489015182556001820191506020850194506020810190506145bc565b868310156145fe57848901516145fa601f891682614507565b8355505b6001600288020188555050505b505050505050565b7f4e6f7420616c6c6f7765642063616c6c65720000000000000000000000000000600082015250565b6000614649601283613931565b915061465482614613565b602082019050919050565b600060208201905081810360008301526146788161463c565b9050919050565b60006060820190506146946000830186613917565b6146a160208301856138c0565b6146ae60408301846138c0565b949350505050565b7f506f6f6c206f6e6c7920746f20636f6e7472696275746f720000000000000000600082015250565b60006146ec601883613931565b91506146f7826146b6565b602082019050919050565b6000602082019050818103600083015261471b816146df565b9050919050565b7f43616e277420617070726f766520776974686472617700000000000000000000600082015250565b6000614758601683613931565b915061476382614722565b602082019050919050565b600060208201905081810360008301526147878161474b565b9050919050565b60006040820190506147a36000830185613917565b6147b060208301846138c0565b9392505050565b6000819050919050565b6147ca816147b7565b81146147d557600080fd5b50565b6000815190506147e7816147c1565b92915050565b60006020828403121561480357614802613624565b5b6000614811848285016147d8565b91505092915050565b7f557365722063616e6e6f7420766f746500000000000000000000000000000000600082015250565b6000614850601083613931565b915061485b8261481a565b602082019050919050565b6000602082019050818103600083015261487f81614843565b9050919050565b7f576169742074696d654265747765656e566f7465730000000000000000000000600082015250565b60006148bc601583613931565b91506148c782614886565b602082019050919050565b600060208201905081810360008301526148eb816148af565b9050919050565b7f4d61782033303020636861726163746572732072656163686564000000000000600082015250565b6000614928601a83613931565b9150614933826148f2565b602082019050919050565b600060208201905081810360008301526149578161491b565b9050919050565b7f5468697320636f6e747269627574696f6e206973206e6f742056414c49440000600082015250565b6000614994601e83613931565b915061499f8261495e565b602082019050919050565b600060208201905081810360008301526149c381614987565b9050919050565b60006149d58261384a565b91506149e08361384a565b92508282019050808211156149f8576149f76142be565b5b92915050565b600081519050614a0d81613854565b92915050565b600060208284031215614a2957614a28613624565b5b6000614a37848285016149fe565b91505092915050565b60006060820190508181036000830152614a5a8186613e30565b90508181036020830152614a6e818561396c565b9050614a7d6040830184613917565b949350505050565b7f4d61782031303020636861726163746572730000000000000000000000000000600082015250565b6000614abb601283613931565b9150614ac682614a85565b602082019050919050565b60006020820190508181036000830152614aea81614aae565b9050919050565b6000602082019050614b0660008301846140c3565b92915050565b7f4d6178206c696d69742072656163686564000000000000000000000000000000600082015250565b6000614b42601183613931565b9150614b4d82614b0c565b602082019050919050565b60006020820190508181036000830152614b7181614b35565b9050919050565b6000604082019050614b8d6000830185613917565b614b9a60208301846140c3565b9392505050565b7f4f776e61626c653a206e6577206f776e657220697320746865207a65726f206160008201527f6464726573730000000000000000000000000000000000000000000000000000602082015250565b6000614bfd602683613931565b9150614c0882614ba1565b604082019050919050565b60006020820190508181036000830152614c2c81614bf0565b9050919050565b6000819050919050565b6000614c58614c53614c4e84614c33565b614419565b61384a565b9050919050565b614c6881614c3d565b82525050565b6000604082019050614c836000830185613917565b614c906020830184614c5f565b9392505050565b7f4f776e61626c653a2063616c6c6572206973206e6f7420746865206f776e6572600082015250565b6000614ccd602083613931565b9150614cd882614c97565b602082019050919050565b60006020820190508181036000830152614cfc81614cc0565b9050919050565b6000614d0e8261384a565b915060008203614d2157614d206142be565b5b600182039050919050565b7f4e487b7100000000000000000000000000000000000000000000000000000000600052601260045260246000fd5b6000614d668261384a565b9150614d718361384a565b925082614d8157614d80614d2c565b5b82820490509291505056fea26469706673582212204b50931d9d473e18e26a7e4494d3c448a4069be25d82a3f11379d4abc755af7064736f6c634300081b0033",
  "linkReferences": {},
  "deployedLinkReferences": {}
}