{
  "_format": "hh-sol-artifact-1",
  "contractName": "ContributorPool",
  "sourceName": "contracts/ContributorPool.sol",
  "abi": [
    {
      "inputs": [
        {
          "internalType": "address",
          "name": "regenerationCreditAddress",
          "type": "address"
        },
        {
          "internalType": "uint256",
          "name": "_halving",
          "type": "uint256"
        },
        {
          "internalType": "uint256",
          "name": "_blocksPerEra",
          "type": "uint256"
        }
      ],
      "stateMutability": "nonpayable",
      "type": "constructor"
    },
    {
      "anonymous": false,
      "inputs": [
        {
          "indexed": true,
          "internalType": "address",
          "name": "previousOwner",
          "type": "address"
        },
        {
          "indexed": true,
          "internalType": "address",
          "name": "newOwner",
          "type": "address"
        }
      ],
      "name": "OwnershipTransferred",
      "type": "event"
    },
    {
      "inputs": [],
      "name": "BLOCKS_PRECISION",
      "outputs": [
        {
          "internalType": "uint256",
          "name": "",
          "type": "uint256"
        }
      ],
      "stateMutability": "view",
      "type": "function"
    },
    {
      "inputs": [
        {
          "internalType": "address",
          "name": "addr",
          "type": "address"
        },
        {
          "internalType": "uint256",
          "name": "levels",
          "type": "uint256"
        }
      ],
      "name": "addLevel",
      "outputs": [],
      "stateMutability": "nonpayable",
      "type": "function"
    },
    {
      "inputs": [
        {
          "internalType": "address",
          "name": "",
          "type": "address"
        }
      ],
      "name": "allowedCallers",
      "outputs": [
        {
          "internalType": "bool",
          "name": "",
          "type": "bool"
        }
      ],
      "stateMutability": "view",
      "type": "function"
    },
    {
      "inputs": [
        {
          "internalType": "uint256",
          "name": "currentUserEra",
          "type": "uint256"
        }
      ],
      "name": "canWithdraw",
      "outputs": [
        {
          "internalType": "bool",
          "name": "",
          "type": "bool"
        }
      ],
      "stateMutability": "view",
      "type": "function"
    },
    {
      "inputs": [
        {
          "internalType": "uint256",
          "name": "currentUserEra",
          "type": "uint256"
        }
      ],
      "name": "canWithdrawTimes",
      "outputs": [
        {
          "internalType": "uint256",
          "name": "",
          "type": "uint256"
        }
      ],
      "stateMutability": "view",
      "type": "function"
    },
    {
      "inputs": [],
      "name": "currentContractEra",
      "outputs": [
        {
          "internalType": "uint256",
          "name": "",
          "type": "uint256"
        }
      ],
      "stateMutability": "view",
      "type": "function"
    },
    {
      "inputs": [],
      "name": "currentEpoch",
      "outputs": [
        {
          "internalType": "uint256",
          "name": "",
          "type": "uint256"
        }
      ],
      "stateMutability": "view",
      "type": "function"
    },
    {
      "inputs": [
        {
          "internalType": "uint256",
          "name": "era",
          "type": "uint256"
        }
      ],
      "name": "currentUserEpoch",
      "outputs": [
        {
          "internalType": "uint256",
          "name": "",
          "type": "uint256"
        }
      ],
      "stateMutability": "view",
      "type": "function"
    },
    {
      "inputs": [
        {
          "internalType": "uint256",
          "name": "",
          "type": "uint256"
        },
        {
          "internalType": "address",
          "name": "",
          "type": "address"
        }
      ],
      "name": "eraLevels",
      "outputs": [
        {
          "internalType": "uint256",
          "name": "",
          "type": "uint256"
        }
      ],
      "stateMutability": "view",
      "type": "function"
    },
    {
      "inputs": [
        {
          "internalType": "uint256",
          "name": "",
          "type": "uint256"
        },
        {
          "internalType": "address",
          "name": "",
          "type": "address"
        }
      ],
      "name": "eraTokens",
      "outputs": [
        {
          "internalType": "uint256",
          "name": "",
          "type": "uint256"
        }
      ],
      "stateMutability": "view",
      "type": "function"
    },
    {
      "inputs": [
        {
          "internalType": "uint256",
          "name": "",
          "type": "uint256"
        }
      ],
      "name": "eras",
      "outputs": [
        {
          "internalType": "uint256",
          "name": "users",
          "type": "uint256"
        },
        {
          "internalType": "uint256",
          "name": "tokens",
          "type": "uint256"
        },
        {
          "internalType": "uint256",
          "name": "levels",
          "type": "uint256"
        }
      ],
      "stateMutability": "view",
      "type": "function"
    },
    {
      "inputs": [
        {
          "internalType": "uint256",
          "name": "era",
          "type": "uint256"
        }
      ],
      "name": "getEra",
      "outputs": [
        {
          "components": [
            {
              "internalType": "uint256",
              "name": "users",
              "type": "uint256"
            },
            {
              "internalType": "uint256",
              "name": "tokens",
              "type": "uint256"
            },
            {
              "internalType": "uint256",
              "name": "levels",
              "type": "uint256"
            }
          ],
          "internalType": "struct Era",
          "name": "",
          "type": "tuple"
        }
      ],
      "stateMutability": "view",
      "type": "function"
    },
    {
      "inputs": [
        {
          "internalType": "address",
          "name": "caller",
          "type": "address"
        }
      ],
      "name": "isAllowedCaller",
      "outputs": [
        {
          "internalType": "bool",
          "name": "",
          "type": "bool"
        }
      ],
      "stateMutability": "view",
      "type": "function"
    },
    {
      "inputs": [
        {
          "internalType": "address",
          "name": "allowed",
          "type": "address"
        }
      ],
      "name": "newAllowedCaller",
      "outputs": [],
      "stateMutability": "nonpayable",
      "type": "function"
    },
    {
      "inputs": [
        {
          "internalType": "uint256",
          "name": "currentUserEra",
          "type": "uint256"
        }
      ],
      "name": "nextEraIn",
      "outputs": [
        {
          "internalType": "int256",
          "name": "",
          "type": "int256"
        }
      ],
      "stateMutability": "view",
      "type": "function"
    },
    {
      "inputs": [],
      "name": "owner",
      "outputs": [
        {
          "internalType": "address",
          "name": "",
          "type": "address"
        }
      ],
      "stateMutability": "view",
      "type": "function"
    },
    {
      "inputs": [
        {
          "internalType": "address",
          "name": "addr",
          "type": "address"
        },
        {
          "internalType": "uint256",
          "name": "era",
          "type": "uint256"
        },
        {
          "internalType": "uint256",
          "name": "removeSomeLevels",
          "type": "uint256"
        }
      ],
      "name": "removePoolLevels",
      "outputs": [],
      "stateMutability": "nonpayable",
      "type": "function"
    },
    {
      "inputs": [],
      "name": "renounceOwnership",
      "outputs": [],
      "stateMutability": "nonpayable",
      "type": "function"
    },
    {
      "inputs": [
        {
          "internalType": "uint256",
          "name": "currentEpoch",
          "type": "uint256"
        }
      ],
      "name": "tokensPerEpoch",
      "outputs": [
        {
          "internalType": "uint256",
          "name": "",
          "type": "uint256"
        }
      ],
      "stateMutability": "view",
      "type": "function"
    },
    {
      "inputs": [
        {
          "internalType": "uint256",
          "name": "currentEpoch",
          "type": "uint256"
        },
        {
          "internalType": "uint256",
          "name": "halving",
          "type": "uint256"
        }
      ],
      "name": "tokensPerEra",
      "outputs": [
        {
          "internalType": "uint256",
          "name": "",
          "type": "uint256"
        }
      ],
      "stateMutability": "view",
      "type": "function"
    },
    {
      "inputs": [
        {
          "internalType": "address",
          "name": "newOwner",
          "type": "address"
        }
      ],
      "name": "transferOwnership",
      "outputs": [],
      "stateMutability": "nonpayable",
      "type": "function"
    },
    {
      "inputs": [
        {
          "internalType": "address",
          "name": "delegate",
          "type": "address"
        },
        {
          "internalType": "uint256",
          "name": "era",
          "type": "uint256"
        }
      ],
      "name": "withdraw",
      "outputs": [],
      "stateMutability": "nonpayable",
      "type": "function"
    }
  ],
  "bytecode": "0x61010060405234801561001157600080fd5b50604051611f9e380380611f9e83398181016040528101906100339190610245565b80826a211654585005212800000080608081815250505061006661005b6100d660201b60201c565b6100de60201b60201c565b8160a0818152505061007c6101a460201b60201c565b60c081815250508060e08181525050505082600560006101000a81548173ffffffffffffffffffffffffffffffffffffffff021916908373ffffffffffffffffffffffffffffffffffffffff160217905550505050610298565b600033905090565b6000600360009054906101000a900473ffffffffffffffffffffffffffffffffffffffff16905081600360006101000a81548173ffffffffffffffffffffffffffffffffffffffff021916908373ffffffffffffffffffffffffffffffffffffffff1602179055508173ffffffffffffffffffffffffffffffffffffffff168173ffffffffffffffffffffffffffffffffffffffff167f8be0079c531659141344cd1fd0a4f28419497f9722a3daafe3b4186f6b6457e060405160405180910390a35050565b600043905090565b600080fd5b600073ffffffffffffffffffffffffffffffffffffffff82169050919050565b60006101dc826101b1565b9050919050565b6101ec816101d1565b81146101f757600080fd5b50565b600081519050610209816101e3565b92915050565b6000819050919050565b6102228161020f565b811461022d57600080fd5b50565b60008151905061023f81610219565b92915050565b60008060006060848603121561025e5761025d6101ac565b5b600061026c868287016101fa565b935050602061027d86828701610230565b925050604061028e86828701610230565b9150509250925092565b60805160a05160c05160e051611caa6102f4600039600081816106d6015281816108dc0152610b8401526000818161095701526109c10152600081816107440152818161092c015261099d0152600061056c0152611caa6000f3fe608060405234801561001057600080fd5b50600436106101425760003560e01c806388b3acae116100b8578063d5ee3eb51161007c578063d5ee3eb5146103b1578063ed0df79e146103e1578063f2fde38b146103ff578063f3fef3a31461041b578063fbe85f0614610437578063ff39043c1461046757610142565b806388b3acae146102e75780638da5cb5b146103175780638f93716f14610335578063a680125814610351578063b3cc6d991461038157610142565b8063715018a61161010a578063715018a61461020f578063720a70bd14610219578063766718081461024b5780637721f1b5146102695780637b33415414610299578063861b4ce1146102c957610142565b8063157ffc52146101475780631f14f415146101635780632506b932146101935780632eedcb18146101c357806352b8d3ed146101f3575b600080fd5b610161600480360381019061015c9190611342565b610497565b005b61017d60048036038101906101789190611395565b610533565b60405161018a91906113e4565b60405180910390f35b6101ad60048036038101906101a891906113ff565b610558565b6040516101ba91906113e4565b60405180910390f35b6101dd60048036038101906101d891906113ff565b6105a0565b6040516101ea919061147d565b60405180910390f35b61020d60048036038101906102089190611498565b6105ea565b005b61021761068c565b005b610233600480360381019061022e91906113ff565b6106a0565b604051610242939291906114d8565b60405180910390f35b6102536106ca565b60405161026091906113e4565b60405180910390f35b610283600480360381019061027e91906113ff565b61071e565b60405161029091906113e4565b60405180910390f35b6102b360048036038101906102ae919061150f565b6107a3565b6040516102c09190611557565b60405180910390f35b6102d16107c3565b6040516102de91906113e4565b60405180910390f35b61030160048036038101906102fc9190611572565b6107c8565b60405161030e91906113e4565b60405180910390f35b61031f6107ed565b60405161032c91906115c1565b60405180910390f35b61034f600480360381019061034a919061150f565b610817565b005b61036b6004803603810190610366919061150f565b61087a565b6040516103789190611557565b60405180910390f35b61039b600480360381019061039691906113ff565b6108d0565b6040516103a891906113e4565b60405180910390f35b6103cb60048036038101906103c691906113ff565b61091f565b6040516103d891906115f5565b60405180910390f35b6103e9610991565b6040516103f691906113e4565b60405180910390f35b6104196004803603810190610414919061150f565b610a17565b005b61043560048036038101906104309190611498565b610a9a565b005b610451600480360381019061044c91906113ff565b610c60565b60405161045e9190611557565b60405180910390f35b610481600480360381019061047c9190611572565b610c73565b60405161048e91906113e4565b60405180910390f35b600460003373ffffffffffffffffffffffffffffffffffffffff1673ffffffffffffffffffffffffffffffffffffffff16815260200190815260200160002060009054906101000a900460ff16610523576040517f08c379a000000000000000000000000000000000000000000000000000000000815260040161051a9061166d565b60405180910390fd5b61052e838383610c98565b505050565b60006105508261054285610558565b610d2190919063ffffffff16565b905092915050565b600061059982600261056a91906117ef565b7f0000000000000000000000000000000000000000000000000000000000000000610d2190919063ffffffff16565b9050919050565b6105a8611288565b60008083815260200190815260200160002060405180606001604052908160008201548152602001600182015481526020016002820154815250509050919050565b600460003373ffffffffffffffffffffffffffffffffffffffff1673ffffffffffffffffffffffffffffffffffffffff16815260200190815260200160002060009054906101000a900460ff16610676576040517f08c379a000000000000000000000000000000000000000000000000000000000815260040161066d9061166d565b60405180910390fd5b6106888282610683610991565b610d37565b5050565b610694610de4565b61069e6000610e62565b565b60006020528060005260406000206000915090508060000154908060010154908060020154905083565b6000610719600161070b7f00000000000000000000000000000000000000000000000000000000000000006106fd610991565b610d2190919063ffffffff16565b610f2890919063ffffffff16565b905090565b60008061072a8361091f565b9050600081131561073f57600091505061079e565b61079a7f000000000000000000000000000000000000000000000000000000000000000061078c6005600a61077491906117ef565b8461077e9061183a565b610f3e90919063ffffffff16565b610d2190919063ffffffff16565b9150505b919050565b60046020528060005260406000206000915054906101000a900460ff1681565b600581565b6001602052816000526040600020602052806000526040600020600091509150505481565b6000600360009054906101000a900473ffffffffffffffffffffffffffffffffffffffff16905090565b61081f610de4565b6001600460008373ffffffffffffffffffffffffffffffffffffffff1673ffffffffffffffffffffffffffffffffffffffff16815260200190815260200160002060006101000a81548160ff02191690831515021790555050565b6000600460008373ffffffffffffffffffffffffffffffffffffffff1673ffffffffffffffffffffffffffffffffffffffff16815260200190815260200160002060009054906101000a900460ff169050919050565b6000610918600161090a7f000000000000000000000000000000000000000000000000000000000000000085610d2190919063ffffffff16565b610f2890919063ffffffff16565b9050919050565b6000610929610f54565b827f00000000000000000000000000000000000000000000000000000000000000006109559190611882565b7f000000000000000000000000000000000000000000000000000000000000000061098091906118fa565b61098a919061193e565b9050919050565b6000610a126001610a047f00000000000000000000000000000000000000000000000000000000000000006109f67f00000000000000000000000000000000000000000000000000000000000000006109e8610f54565b610f5c90919063ffffffff16565b610d2190919063ffffffff16565b610f2890919063ffffffff16565b905090565b610a1f610de4565b600073ffffffffffffffffffffffffffffffffffffffff168173ffffffffffffffffffffffffffffffffffffffff1603610a8e576040517f08c379a0000000000000000000000000000000000000000000000000000000008152600401610a85906119f3565b60405180910390fd5b610a9781610e62565b50565b600460003373ffffffffffffffffffffffffffffffffffffffff1673ffffffffffffffffffffffffffffffffffffffff16815260200190815260200160002060009054906101000a900460ff16610b26576040517f08c379a0000000000000000000000000000000000000000000000000000000008152600401610b1d9061166d565b60405180910390fd5b80610b3081610c60565b610b6f576040517f08c379a0000000000000000000000000000000000000000000000000000000008152600401610b6690611a5f565b60405180910390fd5b6000610bad8385610ba8610b82876108d0565b7f0000000000000000000000000000000000000000000000000000000000000000610533565b610f72565b9050610bba838583611026565b60008103610bc85750610c5b565b600560009054906101000a900473ffffffffffffffffffffffffffffffffffffffff1673ffffffffffffffffffffffffffffffffffffffff1663a2c7670e3086846040518463ffffffff1660e01b8152600401610c2793929190611a7f565b600060405180830381600087803b158015610c4157600080fd5b505af1158015610c55573d6000803e3d6000fd5b50505050505b505050565b6000610c6a610991565b82109050919050565b6002602052816000526040600020602052806000526040600020600091509150505481565b60006001600084815260200190815260200160002060008573ffffffffffffffffffffffffffffffffffffffff1673ffffffffffffffffffffffffffffffffffffffff16815260200190815260200160002054905060008103610cfb5750610d1c565b6000808311610d0a5781610d0c565b825b9050610d198585836110d7565b50505b505050565b60008183610d2f9190611ae5565b905092915050565b610d5f8260008084815260200190815260200160002060020154610f2890919063ffffffff16565b60008083815260200190815260200160002060020181905550816001600083815260200190815260200160002060008573ffffffffffffffffffffffffffffffffffffffff1673ffffffffffffffffffffffffffffffffffffffff1681526020019081526020016000206000828254610dd89190611b16565b92505081905550505050565b610dec611280565b73ffffffffffffffffffffffffffffffffffffffff16610e0a6107ed565b73ffffffffffffffffffffffffffffffffffffffff1614610e60576040517f08c379a0000000000000000000000000000000000000000000000000000000008152600401610e5790611b96565b60405180910390fd5b565b6000600360009054906101000a900473ffffffffffffffffffffffffffffffffffffffff16905081600360006101000a81548173ffffffffffffffffffffffffffffffffffffffff021916908373ffffffffffffffffffffffffffffffffffffffff1602179055508173ffffffffffffffffffffffffffffffffffffffff168173ffffffffffffffffffffffffffffffffffffffff167f8be0079c531659141344cd1fd0a4f28419497f9722a3daafe3b4186f6b6457e060405160405180910390a35050565b60008183610f369190611b16565b905092915050565b60008183610f4c9190611bb6565b905092915050565b600043905090565b60008183610f6a9190611bf8565b905092915050565b60008060008086815260200190815260200160002060020154905060006001600087815260200190815260200160002060008673ffffffffffffffffffffffffffffffffffffffff1673ffffffffffffffffffffffffffffffffffffffff16815260200190815260200160002054905060008103610ff55760009250505061101f565b61101a8261100c8684610f3e90919063ffffffff16565b610d2190919063ffffffff16565b925050505b9392505050565b600080848152602001908152602001600020600001600081548092919061104c90611c2c565b91905055508060008085815260200190815260200160002060010160008282546110769190611b16565b92505081905550806002600085815260200190815260200160002060008473ffffffffffffffffffffffffffffffffffffffff1673ffffffffffffffffffffffffffffffffffffffff16815260200190815260200160002081905550505050565b6001600083815260200190815260200160002060008473ffffffffffffffffffffffffffffffffffffffff1673ffffffffffffffffffffffffffffffffffffffff16815260200190815260200160002054811115611183576001600083815260200190815260200160002060008473ffffffffffffffffffffffffffffffffffffffff1673ffffffffffffffffffffffffffffffffffffffff1681526020019081526020016000205490505b6111ab8160008085815260200190815260200160002060020154610f5c90919063ffffffff16565b60008084815260200190815260200160002060020181905550611227816001600085815260200190815260200160002060008673ffffffffffffffffffffffffffffffffffffffff1673ffffffffffffffffffffffffffffffffffffffff16815260200190815260200160002054610f5c90919063ffffffff16565b6001600084815260200190815260200160002060008573ffffffffffffffffffffffffffffffffffffffff1673ffffffffffffffffffffffffffffffffffffffff16815260200190815260200160002081905550505050565b600033905090565b60405180606001604052806000815260200160008152602001600081525090565b600080fd5b600073ffffffffffffffffffffffffffffffffffffffff82169050919050565b60006112d9826112ae565b9050919050565b6112e9816112ce565b81146112f457600080fd5b50565b600081359050611306816112e0565b92915050565b6000819050919050565b61131f8161130c565b811461132a57600080fd5b50565b60008135905061133c81611316565b92915050565b60008060006060848603121561135b5761135a6112a9565b5b6000611369868287016112f7565b935050602061137a8682870161132d565b925050604061138b8682870161132d565b9150509250925092565b600080604083850312156113ac576113ab6112a9565b5b60006113ba8582860161132d565b92505060206113cb8582860161132d565b9150509250929050565b6113de8161130c565b82525050565b60006020820190506113f960008301846113d5565b92915050565b600060208284031215611415576114146112a9565b5b60006114238482850161132d565b91505092915050565b6114358161130c565b82525050565b606082016000820151611451600085018261142c565b506020820151611464602085018261142c565b506040820151611477604085018261142c565b50505050565b6000606082019050611492600083018461143b565b92915050565b600080604083850312156114af576114ae6112a9565b5b60006114bd858286016112f7565b92505060206114ce8582860161132d565b9150509250929050565b60006060820190506114ed60008301866113d5565b6114fa60208301856113d5565b61150760408301846113d5565b949350505050565b600060208284031215611525576115246112a9565b5b6000611533848285016112f7565b91505092915050565b60008115159050919050565b6115518161153c565b82525050565b600060208201905061156c6000830184611548565b92915050565b60008060408385031215611589576115886112a9565b5b60006115978582860161132d565b92505060206115a8858286016112f7565b9150509250929050565b6115bb816112ce565b82525050565b60006020820190506115d660008301846115b2565b92915050565b6000819050919050565b6115ef816115dc565b82525050565b600060208201905061160a60008301846115e6565b92915050565b600082825260208201905092915050565b7f4e6f7420616c6c6f7765642063616c6c65720000000000000000000000000000600082015250565b6000611657601283611610565b915061166282611621565b602082019050919050565b600060208201905081810360008301526116868161164a565b9050919050565b7f4e487b7100000000000000000000000000000000000000000000000000000000600052601160045260246000fd5b60008160011c9050919050565b6000808291508390505b6001851115611713578086048111156116ef576116ee61168d565b5b60018516156116fe5780820291505b808102905061170c856116bc565b94506116d3565b94509492505050565b60008261172c57600190506117e8565b8161173a57600090506117e8565b8160018114611750576002811461175a57611789565b60019150506117e8565b60ff84111561176c5761176b61168d565b5b8360020a9150848211156117835761178261168d565b5b506117e8565b5060208310610133831016604e8410600b84101617156117be5782820a9050838111156117b9576117b861168d565b5b6117e8565b6117cb84848460016116c9565b925090508184048111156117e2576117e161168d565b5b81810290505b9392505050565b60006117fa8261130c565b91506118058361130c565b92506118327fffffffffffffffffffffffffffffffffffffffffffffffffffffffffffffffff848461171c565b905092915050565b6000611845826115dc565b91507f800000000000000000000000000000000000000000000000000000000000000082036118775761187661168d565b5b816000039050919050565b600061188d826115dc565b9150611898836115dc565b92508282026118a6816115dc565b91507f800000000000000000000000000000000000000000000000000000000000000084146000841216156118de576118dd61168d565b5b82820584148315176118f3576118f261168d565b5b5092915050565b6000611905826115dc565b9150611910836115dc565b9250828201905082811215600083121683821260008412151617156119385761193761168d565b5b92915050565b6000611949826115dc565b9150611954836115dc565b925082820390508181126000841216828213600085121516171561197b5761197a61168d565b5b92915050565b7f4f776e61626c653a206e6577206f776e657220697320746865207a65726f206160008201527f6464726573730000000000000000000000000000000000000000000000000000602082015250565b60006119dd602683611610565b91506119e882611981565b604082019050919050565b60006020820190508181036000830152611a0c816119d0565b9050919050565b7f596f752063616e277420617070726f7665207965740000000000000000000000600082015250565b6000611a49601583611610565b9150611a5482611a13565b602082019050919050565b60006020820190508181036000830152611a7881611a3c565b9050919050565b6000606082019050611a9460008301866115b2565b611aa160208301856115b2565b611aae60408301846113d5565b949350505050565b7f4e487b7100000000000000000000000000000000000000000000000000000000600052601260045260246000fd5b6000611af08261130c565b9150611afb8361130c565b925082611b0b57611b0a611ab6565b5b828204905092915050565b6000611b218261130c565b9150611b2c8361130c565b9250828201905080821115611b4457611b4361168d565b5b92915050565b7f4f776e61626c653a2063616c6c6572206973206e6f7420746865206f776e6572600082015250565b6000611b80602083611610565b9150611b8b82611b4a565b602082019050919050565b60006020820190508181036000830152611baf81611b73565b9050919050565b6000611bc18261130c565b9150611bcc8361130c565b9250828202611bda8161130c565b91508282048414831517611bf157611bf061168d565b5b5092915050565b6000611c038261130c565b9150611c0e8361130c565b9250828203905081811115611c2657611c2561168d565b5b92915050565b6000611c378261130c565b91507fffffffffffffffffffffffffffffffffffffffffffffffffffffffffffffffff8203611c6957611c6861168d565b5b60018201905091905056fea26469706673582212206c26b070e73f7d47fce5a91602f758b3c3b0b7ab883ffddeec143798108da1f664736f6c634300081b0033",
  "linkReferences": {},
  "deployedLinkReferences": {}
}