{
  "_format": "hh-sol-artifact-1",
  "contractName": "ContributorRules",
  "sourceName": "contracts/ContributorRules.sol",
  "abi": [
    {
      "inputs": [
        {
          "internalType": "uint32",
          "name": "timeBetweenWorks_",
          "type": "uint32"
        },
        {
          "internalType": "uint8",
          "name": "maxPenalties_",
          "type": "uint8"
        },
        {
          "internalType": "uint32",
          "name": "securityBlocksToValidation_",
          "type": "uint32"
        }
      ],
      "stateMutability": "nonpayable",
      "type": "constructor"
    },
    {
      "inputs": [
        {
          "internalType": "address",
          "name": "owner",
          "type": "address"
        }
      ],
      "name": "OwnableInvalidOwner",
      "type": "error"
    },
    {
      "inputs": [
        {
          "internalType": "address",
          "name": "account",
          "type": "address"
        }
      ],
      "name": "OwnableUnauthorizedAccount",
      "type": "error"
    },
    {
      "inputs": [],
      "name": "ReentrancyGuardReentrantCall",
      "type": "error"
    },
    {
      "anonymous": false,
      "inputs": [
        {
          "indexed": true,
          "internalType": "uint256",
          "name": "id",
          "type": "uint256"
        },
        {
          "indexed": true,
          "internalType": "address",
          "name": "contributorAddress",
          "type": "address"
        },
        {
          "indexed": false,
          "internalType": "string",
          "name": "description",
          "type": "string"
        },
        {
          "indexed": false,
          "internalType": "uint256",
          "name": "blockNumber",
          "type": "uint256"
        }
      ],
      "name": "ContributionAdded",
      "type": "event"
    },
    {
      "anonymous": false,
      "inputs": [
        {
          "indexed": true,
          "internalType": "uint64",
          "name": "contributionId",
          "type": "uint64"
        },
        {
          "indexed": true,
          "internalType": "address",
          "name": "contributorAddress",
          "type": "address"
        },
        {
          "indexed": false,
          "internalType": "string",
          "name": "justification",
          "type": "string"
        },
        {
          "indexed": false,
          "internalType": "uint256",
          "name": "newPenaltyCount",
          "type": "uint256"
        },
        {
          "indexed": false,
          "internalType": "uint256",
          "name": "blockNumber",
          "type": "uint256"
        }
      ],
      "name": "ContributionInvalidated",
      "type": "event"
    },
    {
      "anonymous": false,
      "inputs": [
        {
          "indexed": true,
          "internalType": "address",
          "name": "_validatorAddress",
          "type": "address"
        },
        {
          "indexed": false,
          "internalType": "uint256",
          "name": "_resourceId",
          "type": "uint256"
        },
        {
          "indexed": false,
          "internalType": "string",
          "name": "_justification",
          "type": "string"
        }
      ],
      "name": "ContributionValidation",
      "type": "event"
    },
    {
      "anonymous": false,
      "inputs": [
        {
          "indexed": true,
          "internalType": "address",
          "name": "contributorAddress",
          "type": "address"
        },
        {
          "indexed": false,
          "internalType": "uint256",
          "name": "newLevel",
          "type": "uint256"
        },
        {
          "indexed": false,
          "internalType": "uint256",
          "name": "blockNumber",
          "type": "uint256"
        }
      ],
      "name": "ContributorLevelIncreased",
      "type": "event"
    },
    {
      "anonymous": false,
      "inputs": [
        {
          "indexed": true,
          "internalType": "uint256",
          "name": "id",
          "type": "uint256"
        },
        {
          "indexed": true,
          "internalType": "address",
          "name": "contributorAddress",
          "type": "address"
        },
        {
          "indexed": false,
          "internalType": "string",
          "name": "name",
          "type": "string"
        },
        {
          "indexed": false,
          "internalType": "uint256",
          "name": "blockNumber",
          "type": "uint256"
        }
      ],
      "name": "ContributorRegistered",
      "type": "event"
    },
    {
      "anonymous": false,
      "inputs": [
        {
          "indexed": true,
          "internalType": "address",
          "name": "contributorAddress",
          "type": "address"
        },
        {
          "indexed": true,
          "internalType": "uint256",
          "name": "era",
          "type": "uint256"
        },
        {
          "indexed": false,
          "internalType": "uint256",
          "name": "blockNumber",
          "type": "uint256"
        }
      ],
      "name": "ContributorWithdrawalInitiated",
      "type": "event"
    },
    {
      "anonymous": false,
      "inputs": [
        {
          "indexed": true,
          "internalType": "address",
          "name": "previousOwner",
          "type": "address"
        },
        {
          "indexed": true,
          "internalType": "address",
          "name": "newOwner",
          "type": "address"
        }
      ],
      "name": "OwnershipTransferred",
      "type": "event"
    },
    {
      "inputs": [],
      "name": "INITIAL_USER_COUNT_THRESHOLD",
      "outputs": [
        {
          "internalType": "uint256",
          "name": "",
          "type": "uint256"
        }
      ],
      "stateMutability": "view",
      "type": "function"
    },
    {
      "inputs": [],
      "name": "MAX_USER_COUNT",
      "outputs": [
        {
          "internalType": "uint16",
          "name": "",
          "type": "uint16"
        }
      ],
      "stateMutability": "view",
      "type": "function"
    },
    {
      "inputs": [
        {
          "internalType": "string",
          "name": "description",
          "type": "string"
        },
        {
          "internalType": "string",
          "name": "report",
          "type": "string"
        }
      ],
      "name": "addContribution",
      "outputs": [],
      "stateMutability": "nonpayable",
      "type": "function"
    },
    {
      "inputs": [
        {
          "internalType": "uint64",
          "name": "id",
          "type": "uint64"
        },
        {
          "internalType": "string",
          "name": "justification",
          "type": "string"
        }
      ],
      "name": "addContributionValidation",
      "outputs": [],
      "stateMutability": "nonpayable",
      "type": "function"
    },
    {
      "inputs": [
        {
          "internalType": "string",
          "name": "name",
          "type": "string"
        },
        {
          "internalType": "string",
          "name": "proofPhoto",
          "type": "string"
        }
      ],
      "name": "addContributor",
      "outputs": [],
      "stateMutability": "nonpayable",
      "type": "function"
    },
    {
      "inputs": [
        {
          "internalType": "address",
          "name": "",
          "type": "address"
        }
      ],
      "name": "allowedCallers",
      "outputs": [
        {
          "internalType": "bool",
          "name": "",
          "type": "bool"
        }
      ],
      "stateMutability": "view",
      "type": "function"
    },
    {
      "inputs": [
        {
          "internalType": "uint256",
          "name": "totalLevels",
          "type": "uint256"
        },
        {
          "internalType": "uint256",
          "name": "totalUsers",
          "type": "uint256"
        },
        {
          "internalType": "uint256",
          "name": "userLevels",
          "type": "uint256"
        }
      ],
      "name": "canInvite",
      "outputs": [
        {
          "internalType": "bool",
          "name": "",
          "type": "bool"
        }
      ],
      "stateMutability": "pure",
      "type": "function"
    },
    {
      "inputs": [
        {
          "internalType": "address",
          "name": "addr",
          "type": "address"
        }
      ],
      "name": "canPublishContribution",
      "outputs": [
        {
          "internalType": "bool",
          "name": "",
          "type": "bool"
        }
      ],
      "stateMutability": "view",
      "type": "function"
    },
    {
      "inputs": [
        {
          "internalType": "address",
          "name": "addr",
          "type": "address"
        }
      ],
      "name": "canSendInvite",
      "outputs": [
        {
          "internalType": "bool",
          "name": "",
          "type": "bool"
        }
      ],
      "stateMutability": "view",
      "type": "function"
    },
    {
      "inputs": [],
      "name": "communityRules",
      "outputs": [
        {
          "internalType": "contract ICommunityRules",
          "name": "",
          "type": "address"
        }
      ],
      "stateMutability": "view",
      "type": "function"
    },
    {
      "inputs": [
        {
          "internalType": "uint64",
          "name": "",
          "type": "uint64"
        }
      ],
      "name": "contributionPenalized",
      "outputs": [
        {
          "internalType": "bool",
          "name": "",
          "type": "bool"
        }
      ],
      "stateMutability": "view",
      "type": "function"
    },
    {
      "inputs": [
        {
          "internalType": "uint256",
          "name": "",
          "type": "uint256"
        }
      ],
      "name": "contributions",
      "outputs": [
        {
          "internalType": "uint64",
          "name": "id",
          "type": "uint64"
        },
        {
          "internalType": "uint256",
          "name": "era",
          "type": "uint256"
        },
        {
          "internalType": "address",
          "name": "user",
          "type": "address"
        },
        {
          "internalType": "string",
          "name": "description",
          "type": "string"
        },
        {
          "internalType": "string",
          "name": "report",
          "type": "string"
        },
        {
          "internalType": "uint256",
          "name": "validationsCount",
          "type": "uint256"
        },
        {
          "internalType": "bool",
          "name": "valid",
          "type": "bool"
        },
        {
          "internalType": "uint256",
          "name": "invalidatedAt",
          "type": "uint256"
        },
        {
          "internalType": "uint256",
          "name": "createdAtBlockNumber",
          "type": "uint256"
        }
      ],
      "stateMutability": "view",
      "type": "function"
    },
    {
      "inputs": [],
      "name": "contributionsCount",
      "outputs": [
        {
          "internalType": "uint64",
          "name": "",
          "type": "uint64"
        }
      ],
      "stateMutability": "view",
      "type": "function"
    },
    {
      "inputs": [
        {
          "internalType": "address",
          "name": "",
          "type": "address"
        },
        {
          "internalType": "uint256",
          "name": "",
          "type": "uint256"
        }
      ],
      "name": "contributionsIds",
      "outputs": [
        {
          "internalType": "uint256",
          "name": "",
          "type": "uint256"
        }
      ],
      "stateMutability": "view",
      "type": "function"
    },
    {
      "inputs": [],
      "name": "contributionsTotalCount",
      "outputs": [
        {
          "internalType": "uint64",
          "name": "",
          "type": "uint64"
        }
      ],
      "stateMutability": "view",
      "type": "function"
    },
    {
      "inputs": [],
      "name": "contributorPool",
      "outputs": [
        {
          "internalType": "contract IContributorPool",
          "name": "",
          "type": "address"
        }
      ],
      "stateMutability": "view",
      "type": "function"
    },
    {
      "inputs": [
        {
          "internalType": "uint256",
          "name": "",
          "type": "uint256"
        }
      ],
      "name": "contributorsAddress",
      "outputs": [
        {
          "internalType": "address",
          "name": "",
          "type": "address"
        }
      ],
      "stateMutability": "view",
      "type": "function"
    },
    {
      "inputs": [
        {
          "internalType": "uint64",
          "name": "id",
          "type": "uint64"
        }
      ],
      "name": "getContribution",
      "outputs": [
        {
          "components": [
            {
              "internalType": "uint64",
              "name": "id",
              "type": "uint64"
            },
            {
              "internalType": "uint256",
              "name": "era",
              "type": "uint256"
            },
            {
              "internalType": "address",
              "name": "user",
              "type": "address"
            },
            {
              "internalType": "string",
              "name": "description",
              "type": "string"
            },
            {
              "internalType": "string",
              "name": "report",
              "type": "string"
            },
            {
              "internalType": "uint256",
              "name": "validationsCount",
              "type": "uint256"
            },
            {
              "internalType": "bool",
              "name": "valid",
              "type": "bool"
            },
            {
              "internalType": "uint256",
              "name": "invalidatedAt",
              "type": "uint256"
            },
            {
              "internalType": "uint256",
              "name": "createdAtBlockNumber",
              "type": "uint256"
            }
          ],
          "internalType": "struct Contribution",
          "name": "",
          "type": "tuple"
        }
      ],
      "stateMutability": "view",
      "type": "function"
    },
    {
      "inputs": [
        {
          "internalType": "address",
          "name": "addr",
          "type": "address"
        }
      ],
      "name": "getContributionsIds",
      "outputs": [
        {
          "internalType": "uint256[]",
          "name": "",
          "type": "uint256[]"
        }
      ],
      "stateMutability": "view",
      "type": "function"
    },
    {
      "inputs": [
        {
          "internalType": "address",
          "name": "addr",
          "type": "address"
        }
      ],
      "name": "getContributor",
      "outputs": [
        {
          "components": [
            {
              "internalType": "uint64",
              "name": "id",
              "type": "uint64"
            },
            {
              "internalType": "address",
              "name": "contributorWallet",
              "type": "address"
            },
            {
              "internalType": "string",
              "name": "name",
              "type": "string"
            },
            {
              "internalType": "string",
              "name": "proofPhoto",
              "type": "string"
            },
            {
              "components": [
                {
                  "internalType": "uint256",
                  "name": "level",
                  "type": "uint256"
                },
                {
                  "internalType": "uint256",
                  "name": "currentEra",
                  "type": "uint256"
                }
              ],
              "internalType": "struct Pool",
              "name": "pool",
              "type": "tuple"
            },
            {
              "internalType": "uint256",
              "name": "totalContributions",
              "type": "uint256"
            },
            {
              "internalType": "uint256",
              "name": "createdAt",
              "type": "uint256"
            },
            {
              "internalType": "uint256",
              "name": "lastPublishedAt",
              "type": "uint256"
            }
          ],
          "internalType": "struct Contributor",
          "name": "contributor",
          "type": "tuple"
        }
      ],
      "stateMutability": "view",
      "type": "function"
    },
    {
      "inputs": [
        {
          "internalType": "address",
          "name": "caller",
          "type": "address"
        }
      ],
      "name": "isAllowedCaller",
      "outputs": [
        {
          "internalType": "bool",
          "name": "",
          "type": "bool"
        }
      ],
      "stateMutability": "view",
      "type": "function"
    },
    {
      "inputs": [],
      "name": "maxPenalties",
      "outputs": [
        {
          "internalType": "uint8",
          "name": "",
          "type": "uint8"
        }
      ],
      "stateMutability": "view",
      "type": "function"
    },
    {
      "inputs": [
        {
          "internalType": "address",
          "name": "allowed",
          "type": "address"
        }
      ],
      "name": "newAllowedCaller",
      "outputs": [],
      "stateMutability": "nonpayable",
      "type": "function"
    },
    {
      "inputs": [],
      "name": "nextEraIn",
      "outputs": [
        {
          "internalType": "uint256",
          "name": "",
          "type": "uint256"
        }
      ],
      "stateMutability": "view",
      "type": "function"
    },
    {
      "inputs": [],
      "name": "owner",
      "outputs": [
        {
          "internalType": "address",
          "name": "",
          "type": "address"
        }
      ],
      "stateMutability": "view",
      "type": "function"
    },
    {
      "inputs": [
        {
          "internalType": "address",
          "name": "",
          "type": "address"
        },
        {
          "internalType": "uint256",
          "name": "",
          "type": "uint256"
        }
      ],
      "name": "penalties",
      "outputs": [
        {
          "internalType": "uint64",
          "name": "contributionId",
          "type": "uint64"
        }
      ],
      "stateMutability": "view",
      "type": "function"
    },
    {
      "inputs": [],
      "name": "poolCurrentEra",
      "outputs": [
        {
          "internalType": "uint256",
          "name": "",
          "type": "uint256"
        }
      ],
      "stateMutability": "view",
      "type": "function"
    },
    {
      "inputs": [
        {
          "internalType": "address",
          "name": "addr",
          "type": "address"
        }
      ],
      "name": "removePoolLevels",
      "outputs": [],
      "stateMutability": "nonpayable",
      "type": "function"
    },
    {
      "inputs": [],
      "name": "renounceOwnership",
      "outputs": [],
      "stateMutability": "nonpayable",
      "type": "function"
    },
    {
      "inputs": [],
      "name": "securityBlocksToValidation",
      "outputs": [
        {
          "internalType": "uint32",
          "name": "",
          "type": "uint32"
        }
      ],
      "stateMutability": "view",
      "type": "function"
    },
    {
      "inputs": [
        {
          "internalType": "address",
          "name": "_validationRulesAddress",
          "type": "address"
        }
      ],
      "name": "setContractCall",
      "outputs": [],
      "stateMutability": "nonpayable",
      "type": "function"
    },
    {
      "inputs": [
        {
          "components": [
            {
              "internalType": "address",
              "name": "communityRulesAddress",
              "type": "address"
            },
            {
              "internalType": "address",
              "name": "contributorPoolAddress",
              "type": "address"
            },
            {
              "internalType": "address",
              "name": "validationRulesAddress",
              "type": "address"
            },
            {
              "internalType": "address",
              "name": "voteRulesAddress",
              "type": "address"
            }
          ],
          "internalType": "struct ContractsDependency",
          "name": "contractDependency",
          "type": "tuple"
        }
      ],
      "name": "setContractInterfaces",
      "outputs": [],
      "stateMutability": "nonpayable",
      "type": "function"
    },
    {
      "inputs": [],
      "name": "timeBetweenWorks",
      "outputs": [
        {
          "internalType": "uint32",
          "name": "",
          "type": "uint32"
        }
      ],
      "stateMutability": "view",
      "type": "function"
    },
    {
      "inputs": [],
      "name": "totalActiveLevels",
      "outputs": [
        {
          "internalType": "uint256",
          "name": "",
          "type": "uint256"
        }
      ],
      "stateMutability": "view",
      "type": "function"
    },
    {
      "inputs": [
        {
          "internalType": "address",
          "name": "addr",
          "type": "address"
        }
      ],
      "name": "totalPenalties",
      "outputs": [
        {
          "internalType": "uint256",
          "name": "",
          "type": "uint256"
        }
      ],
      "stateMutability": "view",
      "type": "function"
    },
    {
      "inputs": [
        {
          "internalType": "address",
          "name": "newOwner",
          "type": "address"
        }
      ],
      "name": "transferOwnership",
      "outputs": [],
      "stateMutability": "nonpayable",
      "type": "function"
    },
    {
      "inputs": [],
      "name": "validationRules",
      "outputs": [
        {
          "internalType": "contract IValidationRules",
          "name": "",
          "type": "address"
        }
      ],
      "stateMutability": "view",
      "type": "function"
    },
    {
      "inputs": [],
      "name": "validationRulesAddress",
      "outputs": [
        {
          "internalType": "address",
          "name": "",
          "type": "address"
        }
      ],
      "stateMutability": "view",
      "type": "function"
    },
    {
      "inputs": [],
      "name": "voteRules",
      "outputs": [
        {
          "internalType": "contract IVoteRules",
          "name": "",
          "type": "address"
        }
      ],
      "stateMutability": "view",
      "type": "function"
    },
    {
      "inputs": [],
      "name": "withdraw",
      "outputs": [],
      "stateMutability": "nonpayable",
      "type": "function"
    }
  ],
  "bytecode": "0x60e060405234801561001057600080fd5b5060405161362538038061362583398101604081905261002f916100e9565b338061005557604051631e4fbdf760e01b81526000600482015260240160405180910390fd5b61005e81610080565b50600160025563ffffffff92831660a05260ff9091166080521660c052610134565b600080546001600160a01b038381166001600160a01b0319831681178455604051919092169283917f8be0079c531659141344cd1fd0a4f28419497f9722a3daafe3b4186f6b6457e09190a35050565b805163ffffffff811681146100e457600080fd5b919050565b6000806000606084860312156100fe57600080fd5b610107846100d0565b9250602084015160ff8116811461011d57600080fd5b915061012b604085016100d0565b90509250925092565b60805160a05160c0516134ad610178600039600081816102e2015261078b0152600081816103fd01526119fd015260008181610536015261140d01526134ad6000f3fe608060405234801561001057600080fd5b50600436106102485760003560e01c80638da5cb5b1161013b578063c6968556116100b8578063da0e0f971161007c578063da0e0f971461060e578063e05cf1551461062e578063e0d56bde14610636578063f2fde38b14610649578063f92f0f8e1461065c57600080fd5b8063c69685561461059b578063c77c1ce6146105b5578063cae5366b146105c8578063ce59654a146105e8578063d785ef94146105fb57600080fd5b8063a6801258116100ff578063a6801258146104f2578063b0fd59f31461051e578063b24eb76914610531578063b7e977771461056a578063be9dc5841461059357600080fd5b80638da5cb5b1461049f5780638f93716f146104b057806391155f19146104c357806394a7444e146104d65780639eaf666f146104df57600080fd5b8063582256f1116101c9578063715018a61161018d578063715018a61461043b578063755d4f971461044357806376007252146104565780637b334154146104695780637c647a621461048c57600080fd5b8063582256f1146103ca578063585506bf146103d25780635fa71c28146103e55780636b6c7c2d146103f85780636ec7053a1461041f57600080fd5b8063386581751161021057806338658175146103195780633974b345146103445780633c9151fe1461036f5780633ccfd60b146103a25780633d8270f5146103aa57600080fd5b8063129de9651461024d5780631cee0700146102625780632076267b14610293578063231a9b86146102ca57806335c11677146102dd575b600080fd5b61026061025b366004612c60565b61066f565b005b610275610270366004612cc7565b610ae8565b60405161028a99989796959493929190612d26565b60405180910390f35b6102bc6102a1366004612daf565b6001600160a01b03166000908152600f602052604090205490565b60405190815260200161028a565b6102606102d8366004612de1565b610c5a565b6103047f000000000000000000000000000000000000000000000000000000000000000081565b60405163ffffffff909116815260200161028a565b60035461032c906001600160401b031681565b6040516001600160401b03909116815260200161028a565b600e54610357906001600160a01b031681565b6040516001600160a01b03909116815260200161028a565b61039261037d366004612e1a565b60096020526000908152604090205460ff1681565b604051901515815260200161028a565b6102606114ea565b6103bd6103b8366004612daf565b61174e565b60405161028a9190612e37565b6102bc611956565b6103926103e0366004612daf565b6119d6565b61032c6103f3366004612eea565b611a39565b6103047f000000000000000000000000000000000000000000000000000000000000000081565b610428613e8081565b60405161ffff909116815260200161028a565b610260611a71565b610260610451366004612daf565b611a83565b600c54610357906001600160a01b031681565b610392610477366004612daf565b60016020526000908152604090205460ff1681565b61026061049a366004612f16565b611aad565b6000546001600160a01b0316610357565b6102606104be366004612daf565b611b12565b6102bc6104d1366004612eea565b611b41565b6102bc60045481565b6103926104ed366004612f7f565b611b72565b610392610500366004612daf565b6001600160a01b031660009081526001602052604090205460ff1690565b61026061052c366004612c60565b611baa565b6105587f000000000000000000000000000000000000000000000000000000000000000081565b60405160ff909116815260200161028a565b610357610578366004612cc7565b6007602052600090815260409020546001600160a01b031681565b6102bc600581565b60035461032c90600160401b90046001600160401b031681565b6103926105c3366004612daf565b611f20565b6105db6105d6366004612e1a565b61216f565b60405161028a9190612fab565b600a54610357906001600160a01b031681565b600b54610357906001600160a01b031681565b61062161061c366004612daf565b61237d565b60405161028a9190613066565b6102bc6123e9565b600d54610357906001600160a01b031681565b610260610657366004612daf565b612433565b61026061066a366004612daf565b612471565b61067761258b565b815161012c1080159061068c57508051609610155b6106d65760405162461bcd60e51b815260206004820152601660248201527513585e0818da185c9858dd195c9cc81c995858da195960521b60448201526064015b60405180910390fd5b600a54604051631292f8c160e31b81526001600160a01b0390911690639497c608906107099060059033906004016130cb565b602060405180830381865afa158015610726573d6000803e3d6000fd5b505050506040513d601f19601f8201168201806040525081019061074a91906130f1565b6107895760405162461bcd60e51b815260206004820152601060248201526f27b7363c9021b7b73a3934b13aba37b960811b60448201526064016106cd565b7f000000000000000000000000000000000000000000000000000000000000000063ffffffff166107b8611956565b116108155760405162461bcd60e51b815260206004820152602760248201527f5761697420756e74696c206e6578742065726120746f2061646420636f6e747260448201526634b13aba34b7b760c91b60648201526084016106cd565b61081e336119d6565b61085e5760405162461bcd60e51b815260206004820152601160248201527010d85b89dd081c1d589b1a5cda081e595d607a1b60448201526064016106cd565b600380546001600160401b031690600061087783613129565b91906101000a8154816001600160401b0302191690836001600160401b03160217905550506003600881819054906101000a90046001600160401b0316809291906108c190613129565b91906101000a8154816001600160401b0302191690836001600160401b0316021790555050600460008154809291906108f990613154565b90915550506003543360009081526005602081905260408220018054600160401b9093046001600160401b0316929161093183613154565b9190505550604051806101200160405280826001600160401b031681526020016109596123e9565b81523360208083019190915260408083018790526060808401879052600060808501819052600160a0860181905260c086018290524360e0909601959095526001600160401b03878116825260068552908390208651815467ffffffffffffffff1916921691909117815592850151938301939093558301516002820180546001600160a01b0319166001600160a01b03909216919091179055908201516003820190610a0690826131f3565b5060808201516004820190610a1b90826131f3565b5060a0820151600582015560c082015160068201805460ff191691151591909117905560e082015160078201556101009091015160089182015533600081815260209283526040812080546001810182559082529290206001600160401b038416920191909155610a8c90826125b3565b336001600160a01b0316816001600160401b03167fc6aae0d562ab183f7fbeb19b28e6ce69e68fa31da15096224a655f5d4c2e26c38543604051610ad19291906132b1565b60405180910390a350610ae46001600255565b5050565b60066020526000908152604090208054600182015460028301546003840180546001600160401b039094169492936001600160a01b039092169291610b2c9061316d565b80601f0160208091040260200160405190810160405280929190818152602001828054610b589061316d565b8015610ba55780601f10610b7a57610100808354040283529160200191610ba5565b820191906000526020600020905b815481529060010190602001808311610b8857829003601f168201915b505050505090806004018054610bba9061316d565b80601f0160208091040260200160405190810160405280929190818152602001828054610be69061316d565b8015610c335780601f10610c0857610100808354040283529160200191610c33565b820191906000526020600020905b815481529060010190602001808311610c1657829003601f168201915b505050506005830154600684015460078501546008909501549394919360ff909116925089565b610c6261258b565b600a5460405163e838dfbb60e01b81523360048201526001600160a01b039091169063e838dfbb90602401602060405180830381865afa158015610caa573d6000803e3d6000fd5b505050506040513d601f19601f82011682018060405250810190610cce91906130f1565b15610d095760405162461bcd60e51b815260206004820152600b60248201526a155cd95c8819195b9a595960aa1b60448201526064016106cd565b805161012c1015610d4d5760405162461bcd60e51b815260206004820152600e60248201526d4d6178206368617261637465727360901b60448201526064016106cd565b600d546040516356fd539760e11b81523360048201526001600160a01b039091169063adfaa72e90602401602060405180830381865afa158015610d95573d6000803e3d6000fd5b505050506040513d601f19601f82011682018060405250810190610db991906130f1565b610df35760405162461bcd60e51b815260206004820152600b60248201526a2737ba1030903b37ba32b960a91b60448201526064016106cd565b600c54604051630d84466b60e21b81523360048201526001600160a01b039091169063361119ac90602401602060405180830381865afa158015610e3b573d6000803e3d6000fd5b505050506040513d601f19601f82011682018060405250810190610e5f91906130f1565b610ea35760405162461bcd60e51b8152602060048201526015602482015274576169742074696d654265747765656e566f74657360581b60448201526064016106cd565b6001600160401b038216600090815260106020908152604080832033845290915290205460ff1615610f075760405162461bcd60e51b815260206004820152600d60248201526c105b1c9958591e481d9bdd1959609a1b60448201526064016106cd565b6001600160401b03821660009081526009602052604090205460ff1615610f705760405162461bcd60e51b815260206004820152601960248201527f50656e616c7469657320616c7265616479206170706c6965640000000000000060448201526064016106cd565b6001600160401b0380831660008181526010602090815260408083203384528252808320805460ff191660019081179091559383526006825280832081516101208101835281549096168652938401549185019190915260028301546001600160a01b03169084015260038201805491939291606084019190610ff29061316d565b80601f016020809104026020016040519081016040528092919081815260200182805461101e9061316d565b801561106b5780601f106110405761010080835404028352916020019161106b565b820191906000526020600020905b81548152906001019060200180831161104e57829003601f168201915b505050505081526020016004820180546110849061316d565b80601f01602080910402602001604051908101604052809291908181526020018280546110b09061316d565b80156110fd5780601f106110d2576101008083540402835291602001916110fd565b820191906000526020600020905b8154815290600101906020018083116110e057829003601f168201915b505050918352505060058201546020820152600682015460ff16151560408201526007820154606082015260089091015460809091015260c08101519091508015611152575080602001516111506123e9565b145b61119e5760405162461bcd60e51b815260206004820152601e60248201527f5468697320636f6e747269627574696f6e206973206e6f742056414c4944000060448201526064016106cd565b60018160a0018181516111b191906132d3565b9052506001600160401b038381166000908152600660209081526040918290208451815467ffffffffffffffff1916941693909317835583015160018301558201516002820180546001600160a01b0319166001600160a01b039092169190911790556060820151829190600382019061122b90826131f3565b506080820151600482019061124090826131f3565b5060a0820151600582015560c082015160068201805460ff191691151591909117905560e0820151600782015561010090910151600890910155600c54604080516369bf81c360e01b815290516000926001600160a01b0316916369bf81c39160048083019260209291908290030181865afa1580156112c4573d6000803e3d6000fd5b505050506040513d601f19601f820116820180604052508101906112e891906132e6565b90506001811161134d5760405162461bcd60e51b815260206004820152602a60248201527f56616c69646174696f6e207468726573686f6c642063616e6e6f74206265206c60448201526932b9b9903a3430b7101960b11b60648201526084016106cd565b808260a0015110611444576001600160401b0384166000908152600960205260409020805460ff19166001179055611384826126c4565b6000611394836040015186612883565b905082604001516001600160a01b0316856001600160401b03167f877210aa63ada7585f903bc529a6691c6e70aeeb79dd69e7c16011733f8d3382866113f387604001516001600160a01b03166000908152600f602052604090205490565b43604051611403939291906132ff565b60405180910390a37f000000000000000000000000000000000000000000000000000000000000000060ff1681106114425761144283604001516128ec565b505b600c5460405163eb48556b60e01b81523360048201526001600160a01b039091169063eb48556b90602401600060405180830381600087803b15801561148957600080fd5b505af115801561149d573d6000803e3d6000fd5b505083516040513393507fd61b6e2c73784f8cc7ef49527075f70bb175237a4bb1cb8f5e840ab67faf65c292506114d691908790613324565b60405180910390a25050610ae46001600255565b6114f261258b565b600a54604051631292f8c160e31b81526001600160a01b0390911690639497c608906115259060059033906004016130cb565b602060405180830381865afa158015611542573d6000803e3d6000fd5b505050506040513d601f19601f8201168201806040525081019061156691906130f1565b6115b25760405162461bcd60e51b815260206004820152601860248201527f506f6f6c206f6e6c7920746f20636f6e7472696275746f72000000000000000060448201526064016106cd565b3360009081526005602052604090819020600480820154600b549351637df42f8360e11b815291820181905291926001600160a01b03169063fbe85f0690602401602060405180830381865afa158015611610573d6000803e3d6000fd5b505050506040513d601f19601f8201168201806040525081019061163491906130f1565b61168e5760405162461bcd60e51b815260206004820152602560248201527f4e6f7420656c696769626c6520746f20776974686472617720666f7220746869604482015264732065726160d81b60648201526084016106cd565b6004820180549060006116a083613154565b9091555050600b5460405163f3fef3a360e01b8152336004820152602481018390526001600160a01b039091169063f3fef3a390604401600060405180830381600087803b1580156116f157600080fd5b505af1158015611705573d6000803e3d6000fd5b50506040514381528392503391507fb40adf9f22b112880b7b93e1732c34e633b966b07e6348eda20450f7e9c114e79060200160405180910390a3505061174c6001600255565b565b6117a4604080516101008101825260008082526020808301829052606083850181905280840152835180850190945281845283015290608082019081526020016000815260200160008152602001600081525090565b6001600160a01b0380831660009081526005602090815260409182902082516101008101845281546001600160401b0381168252600160401b90049094169184019190915260018101805491928401916117fd9061316d565b80601f01602080910402602001604051908101604052809291908181526020018280546118299061316d565b80156118765780601f1061184b57610100808354040283529160200191611876565b820191906000526020600020905b81548152906001019060200180831161185957829003601f168201915b5050505050815260200160028201805461188f9061316d565b80601f01602080910402602001604051908101604052809291908181526020018280546118bb9061316d565b80156119085780601f106118dd57610100808354040283529160200191611908565b820191906000526020600020905b8154815290600101906020018083116118eb57829003601f168201915b50505091835250506040805180820182526003840154815260048401546020828101919091528301526005830154908201526006820154606082015260079091015460809091015292915050565b600b546000906001600160a01b031663d5ee3eb56119726123e9565b6040518263ffffffff1660e01b815260040161199091815260200190565b602060405180830381865afa1580156119ad573d6000803e3d6000fd5b505050506040513d601f19601f820116820180604052508101906119d191906132e6565b905090565b6001600160a01b03811660009081526005602052604081206007015481611a2363ffffffff7f000000000000000000000000000000000000000000000000000000000000000016836132d3565b431190508080611a31575081155b949350505050565b600f6020528160005260406000208181548110611a5557600080fd5b6000918252602090912001546001600160401b03169150829050565b611a79612b18565b61174c6000612b45565b611a8b612b18565b600e80546001600160a01b0319166001600160a01b0392909216919091179055565b611ab5612b18565b8051600a80546001600160a01b03199081166001600160a01b03938416179091556020830151600b805483169184169190911790556040830151600c80548316918416919091179055606090920151600d80549093169116179055565b611b1a612b18565b6001600160a01b03166000908152600160208190526040909120805460ff19169091179055565b60086020528160005260406000208181548110611b5d57600080fd5b90600052602060002001600091509150505481565b600082600003611b8457506000611ba3565b60058311611b9457506001611ba3565b83611b9f8484613346565b1190505b9392505050565b8151603210801590611bbe57508051609610155b611bfb5760405162461bcd60e51b815260206004820152600e60248201526d4d6178206368617261637465727360901b60448201526064016106cd565b600a54604051632f22dc7b60e01b8152613e80916001600160a01b031690632f22dc7b90611c2e9060059060040161335d565b602060405180830381865afa158015611c4b573d6000803e3d6000fd5b505050506040513d601f19601f82011682018060405250810190611c6f91906132e6565b10611cad5760405162461bcd60e51b815260206004820152600e60248201526d13585e081d5cd95c881b1a5b5a5d60921b60448201526064016106cd565b600a5460405162f5960960e51b81526000916001600160a01b031690631eb2c12090611cde9060059060040161335d565b602060405180830381865afa158015611cfb573d6000803e3d6000fd5b505050506040513d601f19601f82011682018060405250810190611d1f919061336b565b611d2a906001613388565b9050604051806101000160405280826001600160401b03168152602001336001600160a01b03168152602001848152602001838152602001604051806040016040528060008152602001611d7c6123e9565b9052815260006020808301829052436040808501919091526060909301829052338252600581529082902083518154928501516001600160a01b0316600160401b026001600160e01b03199093166001600160401b0390911617919091178155908201516001820190611def90826131f3565b5060608201516002820190611e0490826131f3565b5060808201518051600383015560209081015160048084019190915560a084015160058085019190915560c0850151600685015560e0909401516007938401556001600160401b03851660009081529290915260409182902080546001600160a01b03191633908117909155600a549251639c3eead960e01b81526001600160a01b039390931693639c3eead993611e9c93016133a7565b600060405180830381600087803b158015611eb657600080fd5b505af1158015611eca573d6000803e3d6000fd5b50505050336001600160a01b0316816001600160401b03167fc8261a89bb2ba1bec86e2467cbc6d7c91bcceef268691b418bc08e888e43f3388543604051611f139291906132b1565b60405180910390a3505050565b6001600160a01b03808216600090815260056020908152604080832081516101008101835281546001600160401b0381168252600160401b9004909516928501929092526001820180549394859490939284019190611f7e9061316d565b80601f0160208091040260200160405190810160405280929190818152602001828054611faa9061316d565b8015611ff75780601f10611fcc57610100808354040283529160200191611ff7565b820191906000526020600020905b815481529060010190602001808311611fda57829003601f168201915b505050505081526020016002820180546120109061316d565b80601f016020809104026020016040519081016040528092919081815260200182805461203c9061316d565b80156120895780601f1061205e57610100808354040283529160200191612089565b820191906000526020600020905b81548152906001019060200180831161206c57829003601f168201915b50505091835250506040805180820182526003840154815260048401546020828101919091528301526005830154908201526006820154606082015260079091015460809091015280519091506001600160401b03166120ec5750600092915050565b60048054600a54604051632f22dc7b60e01b8152611ba3936001600160a01b0390921691632f22dc7b91612123916005910161335d565b602060405180830381865afa158015612140573d6000803e3d6000fd5b505050506040513d601f19601f8201168201806040525081019061216491906132e6565b608084015151611b72565b6121d260405180610120016040528060006001600160401b031681526020016000815260200160006001600160a01b0316815260200160608152602001606081526020016000815260200160001515815260200160008152602001600081525090565b6001600160401b038083166000908152600660209081526040918290208251610120810184528154909416845260018101549184019190915260028101546001600160a01b0316918301919091526003810180546060840191906122359061316d565b80601f01602080910402602001604051908101604052809291908181526020018280546122619061316d565b80156122ae5780601f10612283576101008083540402835291602001916122ae565b820191906000526020600020905b81548152906001019060200180831161229157829003601f168201915b505050505081526020016004820180546122c79061316d565b80601f01602080910402602001604051908101604052809291908181526020018280546122f39061316d565b80156123405780601f1061231557610100808354040283529160200191612340565b820191906000526020600020905b81548152906001019060200180831161232357829003601f168201915b505050918352505060058201546020820152600682015460ff16151560408201526007820154606082015260089091015460809091015292915050565b6001600160a01b0381166000908152600860209081526040918290208054835181840281018401909452808452606093928301828280156123dd57602002820191906000526020600020905b8154815260200190600101908083116123c9575b50505050509050919050565b600b5460408051637686fbcf60e11b815290516000926001600160a01b03169163ed0df79e9160048083019260209291908290030181865afa1580156119ad573d6000803e3d6000fd5b61243b612b18565b6001600160a01b03811661246557604051631e4fbdf760e01b8152600060048201526024016106cd565b61246e81612b45565b50565b3360009081526001602052604090205460ff166124c55760405162461bcd60e51b81526020600482015260126024820152712737ba1030b63637bbb2b21031b0b63632b960711b60448201526064016106cd565b600e546001600160a01b03163381146125205760405162461bcd60e51b815260206004820152601e60248201527f43616c6c6572206d7573742062652073797374656d20636f6e7472616374000060448201526064016106cd565b600b546040516310c791e560e11b81526001600160a01b038481166004830152600160248301529091169063218f23ca906044015b600060405180830381600087803b15801561256f57600080fd5b505af1158015612583573d6000803e3d6000fd5b505050505050565b60028054036125ad57604051633ee5aeb560e01b815260040160405180910390fd5b60028055565b6001600160a01b0382166000908152600560205260408120805490916001600160401b0390911690036125e557505050565b4360078201556003810180549060006125fd83613154565b9091555050600b546040516338e8490d60e11b81526001600160a01b038581166004830152600160248301526001600160401b0385166044830152909116906371d0921a90606401600060405180830381600087803b15801561265f57600080fd5b505af1158015612673573d6000803e3d6000fd5b505050506003810154604080519182524360208301526001600160a01b038516917f98124a7baa4200982491adbb05ed4b64c8c04aab157bc086bfc71b96540a7e11910160405180910390a2505050565b600380546001600160401b03169060006126dd836133c4565b82546101009290920a6001600160401b03818102199093169183160217909155600060c084018190524360e0850152835182168152600660209081526040918290208551815467ffffffffffffffff1916941693909317835584015160018301558301516002820180546001600160a01b0319166001600160a01b039092169190911790556060830151839250600382019061277990826131f3565b506080820151600482019061278e90826131f3565b5060a082015160058281019190915560c083015160068301805460ff191691151591909117905560e08301516007830155610100909201516008909101556040828101516001600160a01b0316600090815260209290925281206003018054600192906127fc9084906133e7565b909155505060048054906000612811836133fa565b9091555050600b5460408281015190516310c791e560e11b81526001600160a01b0391821660048201526000602482015291169063218f23ca90604401600060405180830381600087803b15801561286857600080fd5b505af115801561287c573d6000803e3d6000fd5b5050505050565b6001600160a01b0382166000818152600f6020818152604080842081518084019092526001600160401b038781168352815460018101835582875284872093519301805467ffffffffffffffff1916939091169290921790915593835252905490505b92915050565b600a5460405163e838dfbb60e01b81526001600160a01b0383811660048301529091169063e838dfbb90602401602060405180830381865afa158015612936573d6000803e3d6000fd5b505050506040513d601f19601f8201168201806040525081019061295a91906130f1565b156129625750565b6001600160a01b03811660009081526005602052604081206003015460048054919290916129919084906133e7565b9091555050600a54604051634acf78e960e11b81526001600160a01b0383811660048301529091169063959ef1d290602401600060405180830381600087803b1580156129dd57600080fd5b505af11580156129f1573d6000803e3d6000fd5b5050600a5460405163158bdc5f60e11b81526001600160a01b038581166004830152600094509091169150632b17b8be90602401608060405180830381865afa158015612a42573d6000803e3d6000fd5b505050506040513d601f19601f82011682018060405250810190612a669190613411565b60208101519091506001600160a01b03161561252057600a546020820151604051636101bf2160e01b81526001600160a01b039182166004820152911690636101bf2190602401600060405180830381600087803b158015612ac757600080fd5b505af1158015612adb573d6000803e3d6000fd5b5050600b546040516310c791e560e11b81526001600160a01b03868116600483015260016024830152909116925063218f23ca9150604401612555565b6000546001600160a01b0316331461174c5760405163118cdaa760e01b81523360048201526024016106cd565b600080546001600160a01b038381166001600160a01b0319831681178455604051919092169283917f8be0079c531659141344cd1fd0a4f28419497f9722a3daafe3b4186f6b6457e09190a35050565b634e487b7160e01b600052604160045260246000fd5b604051608081016001600160401b0381118282101715612bcd57612bcd612b95565b60405290565b600082601f830112612be457600080fd5b81356001600160401b03811115612bfd57612bfd612b95565b604051601f8201601f19908116603f011681016001600160401b0381118282101715612c2b57612c2b612b95565b604052818152838201602001851015612c4357600080fd5b816020850160208301376000918101602001919091529392505050565b60008060408385031215612c7357600080fd5b82356001600160401b03811115612c8957600080fd5b612c9585828601612bd3565b92505060208301356001600160401b03811115612cb157600080fd5b612cbd85828601612bd3565b9150509250929050565b600060208284031215612cd957600080fd5b5035919050565b6000815180845260005b81811015612d0657602081850181015186830182015201612cea565b506000602082860101526020601f19601f83011685010191505092915050565b6001600160401b038a16815288602082015260018060a01b038816604082015261012060608201526000612d5e610120830189612ce0565b8281036080840152612d708189612ce0565b60a0840197909752505092151560c084015260e08301919091526101009091015295945050505050565b6001600160a01b038116811461246e57600080fd5b600060208284031215612dc157600080fd5b8135611ba381612d9a565b6001600160401b038116811461246e57600080fd5b60008060408385031215612df457600080fd5b8235612dff81612dcc565b915060208301356001600160401b03811115612cb157600080fd5b600060208284031215612e2c57600080fd5b8135611ba381612dcc565b602081526001600160401b03825116602082015260006020830151612e6760408401826001600160a01b03169052565b5060408301516101206060840152612e83610140840182612ce0565b90506060840151601f19848303016080850152612ea08282612ce0565b9150506080840151612ebf60a085018280518252602090810151910152565b5060a084015160e084015260c084015161010084015260e08401516101208401528091505092915050565b60008060408385031215612efd57600080fd5b8235612f0881612d9a565b946020939093013593505050565b60006080828403128015612f2957600080fd5b50612f32612bab565b8235612f3d81612d9a565b81526020830135612f4d81612d9a565b60208201526040830135612f6081612d9a565b60408201526060830135612f7381612d9a565b60608201529392505050565b600080600060608486031215612f9457600080fd5b505081359360208301359350604090920135919050565b60208152612fc56020820183516001600160401b03169052565b6020820151604082015260006040830151612feb60608401826001600160a01b03169052565b5060608301516101206080840152613007610140840182612ce0565b90506080840151601f198483030160a08501526130248282612ce0565b91505060a084015160c084015260c084015161304460e085018215159052565b5060e08401516101008401526101008401516101208401528091505092915050565b602080825282518282018190526000918401906040840190835b8181101561309e578351835260209384019390920191600101613080565b509095945050505050565b600881106130c757634e487b7160e01b600052602160045260246000fd5b9052565b604081016130d982856130a9565b6001600160a01b039290921660209190910152919050565b60006020828403121561310357600080fd5b81518015158114611ba357600080fd5b634e487b7160e01b600052601160045260246000fd5b60006001600160401b0382166001600160401b03810361314b5761314b613113565b60010192915050565b60006001820161316657613166613113565b5060010190565b600181811c9082168061318157607f821691505b6020821081036131a157634e487b7160e01b600052602260045260246000fd5b50919050565b601f8211156131ee57806000526020600020601f840160051c810160208510156131ce5750805b601f840160051c820191505b8181101561287c57600081556001016131da565b505050565b81516001600160401b0381111561320c5761320c612b95565b6132208161321a845461316d565b846131a7565b6020601f821160018114613254576000831561323c5750848201515b600019600385901b1c1916600184901b17845561287c565b600084815260208120601f198516915b828110156132845787850151825560209485019460019092019101613264565b50848210156132a25786840151600019600387901b60f8161c191681555b50505050600190811b01905550565b6040815260006132c46040830185612ce0565b90508260208301529392505050565b808201808211156128e6576128e6613113565b6000602082840312156132f857600080fd5b5051919050565b6060815260006133126060830186612ce0565b60208301949094525060400152919050565b6001600160401b0383168152604060208201526000611a316040830184612ce0565b80820281158282048414176128e6576128e6613113565b602081016128e682846130a9565b60006020828403121561337d57600080fd5b8151611ba381612dcc565b6001600160401b0381811683821601908111156128e6576128e6613113565b6001600160a01b038316815260408101611ba360208301846130a9565b60006001600160401b038216806133dd576133dd613113565b6000190192915050565b818103818111156128e6576128e6613113565b60008161340957613409613113565b506000190190565b6000608082840312801561342457600080fd5b5061342d612bab565b825161343881612d9a565b8152602083015161344881612d9a565b602082015260408301516008811061345f57600080fd5b6040820152606092830151928101929092525091905056fea264697066735822122043c51956277f65f13fe8c297492d9ce69fd563ae567e1416de9f00a1dc353a1d64736f6c634300081b0033",
  "linkReferences": {},
  "deployedLinkReferences": {}
}