{
  "_format": "hh-sol-artifact-1",
  "contractName": "ContributorRules",
  "sourceName": "contracts/ContributorRules.sol",
  "abi": [
    {
      "inputs": [
        {
          "internalType": "uint32",
          "name": "timeBetweenWorks_",
          "type": "uint32"
        },
        {
          "internalType": "uint8",
          "name": "maxPenalties_",
          "type": "uint8"
        },
        {
          "internalType": "uint32",
          "name": "securityBlocksToValidation_",
          "type": "uint32"
        }
      ],
      "stateMutability": "nonpayable",
      "type": "constructor"
    },
    {
      "anonymous": false,
      "inputs": [
        {
          "indexed": true,
          "internalType": "uint256",
          "name": "id",
          "type": "uint256"
        },
        {
          "indexed": true,
          "internalType": "address",
          "name": "contributorAddress",
          "type": "address"
        },
        {
          "indexed": false,
          "internalType": "string",
          "name": "description",
          "type": "string"
        },
        {
          "indexed": false,
          "internalType": "uint256",
          "name": "blockNumber",
          "type": "uint256"
        }
      ],
      "name": "ContributionAdded",
      "type": "event"
    },
    {
      "anonymous": false,
      "inputs": [
        {
          "indexed": true,
          "internalType": "uint64",
          "name": "contributionId",
          "type": "uint64"
        },
        {
          "indexed": true,
          "internalType": "address",
          "name": "contributorAddress",
          "type": "address"
        },
        {
          "indexed": false,
          "internalType": "string",
          "name": "justification",
          "type": "string"
        },
        {
          "indexed": false,
          "internalType": "uint256",
          "name": "newPenaltyCount",
          "type": "uint256"
        },
        {
          "indexed": false,
          "internalType": "uint256",
          "name": "blockNumber",
          "type": "uint256"
        }
      ],
      "name": "ContributionInvalidated",
      "type": "event"
    },
    {
      "anonymous": false,
      "inputs": [
        {
          "indexed": true,
          "internalType": "address",
          "name": "contributorAddress",
          "type": "address"
        },
        {
          "indexed": false,
          "internalType": "uint256",
          "name": "newLevel",
          "type": "uint256"
        },
        {
          "indexed": false,
          "internalType": "uint256",
          "name": "blockNumber",
          "type": "uint256"
        }
      ],
      "name": "ContributorLevelIncreased",
      "type": "event"
    },
    {
      "anonymous": false,
      "inputs": [
        {
          "indexed": true,
          "internalType": "address",
          "name": "contributorAddress",
          "type": "address"
        },
        {
          "indexed": false,
          "internalType": "uint256",
          "name": "levelsRemoved",
          "type": "uint256"
        },
        {
          "indexed": false,
          "internalType": "uint256",
          "name": "newLevel",
          "type": "uint256"
        },
        {
          "indexed": false,
          "internalType": "uint256",
          "name": "blockNumber",
          "type": "uint256"
        }
      ],
      "name": "ContributorLevelRemoved",
      "type": "event"
    },
    {
      "anonymous": false,
      "inputs": [
        {
          "indexed": true,
          "internalType": "uint256",
          "name": "id",
          "type": "uint256"
        },
        {
          "indexed": true,
          "internalType": "address",
          "name": "contributorAddress",
          "type": "address"
        },
        {
          "indexed": false,
          "internalType": "string",
          "name": "name",
          "type": "string"
        },
        {
          "indexed": false,
          "internalType": "uint256",
          "name": "blockNumber",
          "type": "uint256"
        }
      ],
      "name": "ContributorRegistered",
      "type": "event"
    },
    {
      "anonymous": false,
      "inputs": [
        {
          "indexed": true,
          "internalType": "address",
          "name": "contributorAddress",
          "type": "address"
        },
        {
          "indexed": true,
          "internalType": "uint256",
          "name": "era",
          "type": "uint256"
        },
        {
          "indexed": false,
          "internalType": "uint256",
          "name": "blockNumber",
          "type": "uint256"
        }
      ],
      "name": "ContributorWithdrawalInitiated",
      "type": "event"
    },
    {
      "anonymous": false,
      "inputs": [
        {
          "indexed": true,
          "internalType": "address",
          "name": "previousOwner",
          "type": "address"
        },
        {
          "indexed": true,
          "internalType": "address",
          "name": "newOwner",
          "type": "address"
        }
      ],
      "name": "OwnershipTransferred",
      "type": "event"
    },
    {
      "inputs": [],
      "name": "INITIAL_USER_COUNT_THRESHOLD",
      "outputs": [
        {
          "internalType": "uint256",
          "name": "",
          "type": "uint256"
        }
      ],
      "stateMutability": "view",
      "type": "function"
    },
    {
      "inputs": [],
      "name": "MAX_USER_COUNT",
      "outputs": [
        {
          "internalType": "uint16",
          "name": "",
          "type": "uint16"
        }
      ],
      "stateMutability": "view",
      "type": "function"
    },
    {
      "inputs": [
        {
          "internalType": "string",
          "name": "description",
          "type": "string"
        },
        {
          "internalType": "string",
          "name": "report",
          "type": "string"
        }
      ],
      "name": "addContribution",
      "outputs": [],
      "stateMutability": "nonpayable",
      "type": "function"
    },
    {
      "inputs": [
        {
          "internalType": "uint64",
          "name": "id",
          "type": "uint64"
        },
        {
          "internalType": "string",
          "name": "justification",
          "type": "string"
        }
      ],
      "name": "addContributionValidation",
      "outputs": [],
      "stateMutability": "nonpayable",
      "type": "function"
    },
    {
      "inputs": [
        {
          "internalType": "string",
          "name": "name",
          "type": "string"
        },
        {
          "internalType": "string",
          "name": "proofPhoto",
          "type": "string"
        }
      ],
      "name": "addContributor",
      "outputs": [],
      "stateMutability": "nonpayable",
      "type": "function"
    },
    {
      "inputs": [
        {
          "internalType": "address",
          "name": "addr",
          "type": "address"
        },
        {
          "internalType": "uint64",
          "name": "contributionId",
          "type": "uint64"
        }
      ],
      "name": "addPenalty",
      "outputs": [
        {
          "internalType": "uint256",
          "name": "",
          "type": "uint256"
        }
      ],
      "stateMutability": "nonpayable",
      "type": "function"
    },
    {
      "inputs": [
        {
          "internalType": "address",
          "name": "",
          "type": "address"
        }
      ],
      "name": "allowedCallers",
      "outputs": [
        {
          "internalType": "bool",
          "name": "",
          "type": "bool"
        }
      ],
      "stateMutability": "view",
      "type": "function"
    },
    {
      "inputs": [
        {
          "internalType": "uint256",
          "name": "totalLevels",
          "type": "uint256"
        },
        {
          "internalType": "uint256",
          "name": "totalUsers",
          "type": "uint256"
        },
        {
          "internalType": "uint256",
          "name": "userLevels",
          "type": "uint256"
        }
      ],
      "name": "canInvite",
      "outputs": [
        {
          "internalType": "bool",
          "name": "",
          "type": "bool"
        }
      ],
      "stateMutability": "pure",
      "type": "function"
    },
    {
      "inputs": [
        {
          "internalType": "address",
          "name": "addr",
          "type": "address"
        }
      ],
      "name": "canPublishContribution",
      "outputs": [
        {
          "internalType": "bool",
          "name": "",
          "type": "bool"
        }
      ],
      "stateMutability": "view",
      "type": "function"
    },
    {
      "inputs": [
        {
          "internalType": "address",
          "name": "addr",
          "type": "address"
        }
      ],
      "name": "canSendInvite",
      "outputs": [
        {
          "internalType": "bool",
          "name": "",
          "type": "bool"
        }
      ],
      "stateMutability": "view",
      "type": "function"
    },
    {
      "inputs": [
        {
          "internalType": "uint256",
          "name": "",
          "type": "uint256"
        }
      ],
      "name": "contributions",
      "outputs": [
        {
          "internalType": "uint64",
          "name": "id",
          "type": "uint64"
        },
        {
          "internalType": "uint256",
          "name": "era",
          "type": "uint256"
        },
        {
          "internalType": "address",
          "name": "user",
          "type": "address"
        },
        {
          "internalType": "string",
          "name": "description",
          "type": "string"
        },
        {
          "internalType": "string",
          "name": "report",
          "type": "string"
        },
        {
          "internalType": "uint256",
          "name": "validationsCount",
          "type": "uint256"
        },
        {
          "internalType": "bool",
          "name": "valid",
          "type": "bool"
        },
        {
          "internalType": "uint256",
          "name": "invalidatedAt",
          "type": "uint256"
        },
        {
          "internalType": "uint256",
          "name": "createdAtBlockNumber",
          "type": "uint256"
        }
      ],
      "stateMutability": "view",
      "type": "function"
    },
    {
      "inputs": [],
      "name": "contributionsCount",
      "outputs": [
        {
          "internalType": "uint64",
          "name": "",
          "type": "uint64"
        }
      ],
      "stateMutability": "view",
      "type": "function"
    },
    {
      "inputs": [
        {
          "internalType": "address",
          "name": "",
          "type": "address"
        },
        {
          "internalType": "uint256",
          "name": "",
          "type": "uint256"
        }
      ],
      "name": "contributionsIds",
      "outputs": [
        {
          "internalType": "uint256",
          "name": "",
          "type": "uint256"
        }
      ],
      "stateMutability": "view",
      "type": "function"
    },
    {
      "inputs": [],
      "name": "contributionsTotalCount",
      "outputs": [
        {
          "internalType": "uint64",
          "name": "",
          "type": "uint64"
        }
      ],
      "stateMutability": "view",
      "type": "function"
    },
    {
      "inputs": [
        {
          "internalType": "uint256",
          "name": "",
          "type": "uint256"
        }
      ],
      "name": "contributorsAddress",
      "outputs": [
        {
          "internalType": "address",
          "name": "",
          "type": "address"
        }
      ],
      "stateMutability": "view",
      "type": "function"
    },
    {
      "inputs": [
        {
          "internalType": "uint64",
          "name": "id",
          "type": "uint64"
        }
      ],
      "name": "getContribution",
      "outputs": [
        {
          "components": [
            {
              "internalType": "uint64",
              "name": "id",
              "type": "uint64"
            },
            {
              "internalType": "uint256",
              "name": "era",
              "type": "uint256"
            },
            {
              "internalType": "address",
              "name": "user",
              "type": "address"
            },
            {
              "internalType": "string",
              "name": "description",
              "type": "string"
            },
            {
              "internalType": "string",
              "name": "report",
              "type": "string"
            },
            {
              "internalType": "uint256",
              "name": "validationsCount",
              "type": "uint256"
            },
            {
              "internalType": "bool",
              "name": "valid",
              "type": "bool"
            },
            {
              "internalType": "uint256",
              "name": "invalidatedAt",
              "type": "uint256"
            },
            {
              "internalType": "uint256",
              "name": "createdAtBlockNumber",
              "type": "uint256"
            }
          ],
          "internalType": "struct Contribution",
          "name": "",
          "type": "tuple"
        }
      ],
      "stateMutability": "view",
      "type": "function"
    },
    {
      "inputs": [
        {
          "internalType": "address",
          "name": "addr",
          "type": "address"
        }
      ],
      "name": "getContributionsIds",
      "outputs": [
        {
          "internalType": "uint256[]",
          "name": "",
          "type": "uint256[]"
        }
      ],
      "stateMutability": "view",
      "type": "function"
    },
    {
      "inputs": [
        {
          "internalType": "address",
          "name": "addr",
          "type": "address"
        }
      ],
      "name": "getContributor",
      "outputs": [
        {
          "components": [
            {
              "internalType": "uint64",
              "name": "id",
              "type": "uint64"
            },
            {
              "internalType": "address",
              "name": "contributorWallet",
              "type": "address"
            },
            {
              "internalType": "string",
              "name": "name",
              "type": "string"
            },
            {
              "internalType": "string",
              "name": "proofPhoto",
              "type": "string"
            },
            {
              "components": [
                {
                  "internalType": "uint256",
                  "name": "level",
                  "type": "uint256"
                },
                {
                  "internalType": "uint256",
                  "name": "currentEra",
                  "type": "uint256"
                }
              ],
              "internalType": "struct Pool",
              "name": "pool",
              "type": "tuple"
            },
            {
              "internalType": "uint256",
              "name": "createdAt",
              "type": "uint256"
            },
            {
              "internalType": "uint256",
              "name": "lastPublishedAt",
              "type": "uint256"
            }
          ],
          "internalType": "struct Contributor",
          "name": "contributor",
          "type": "tuple"
        }
      ],
      "stateMutability": "view",
      "type": "function"
    },
    {
      "inputs": [
        {
          "internalType": "address",
          "name": "caller",
          "type": "address"
        }
      ],
      "name": "isAllowedCaller",
      "outputs": [
        {
          "internalType": "bool",
          "name": "",
          "type": "bool"
        }
      ],
      "stateMutability": "view",
      "type": "function"
    },
    {
      "inputs": [],
      "name": "maxPenalties",
      "outputs": [
        {
          "internalType": "uint8",
          "name": "",
          "type": "uint8"
        }
      ],
      "stateMutability": "view",
      "type": "function"
    },
    {
      "inputs": [
        {
          "internalType": "address",
          "name": "allowed",
          "type": "address"
        }
      ],
      "name": "newAllowedCaller",
      "outputs": [],
      "stateMutability": "nonpayable",
      "type": "function"
    },
    {
      "inputs": [],
      "name": "nextEraIn",
      "outputs": [
        {
          "internalType": "uint256",
          "name": "",
          "type": "uint256"
        }
      ],
      "stateMutability": "view",
      "type": "function"
    },
    {
      "inputs": [],
      "name": "owner",
      "outputs": [
        {
          "internalType": "address",
          "name": "",
          "type": "address"
        }
      ],
      "stateMutability": "view",
      "type": "function"
    },
    {
      "inputs": [
        {
          "internalType": "address",
          "name": "",
          "type": "address"
        },
        {
          "internalType": "uint256",
          "name": "",
          "type": "uint256"
        }
      ],
      "name": "penalties",
      "outputs": [
        {
          "internalType": "uint64",
          "name": "contributionId",
          "type": "uint64"
        }
      ],
      "stateMutability": "view",
      "type": "function"
    },
    {
      "inputs": [],
      "name": "poolCurrentEra",
      "outputs": [
        {
          "internalType": "uint256",
          "name": "",
          "type": "uint256"
        }
      ],
      "stateMutability": "view",
      "type": "function"
    },
    {
      "inputs": [
        {
          "internalType": "address",
          "name": "addr",
          "type": "address"
        },
        {
          "internalType": "uint256",
          "name": "levelsToRemove",
          "type": "uint256"
        }
      ],
      "name": "removePoolLevels",
      "outputs": [],
      "stateMutability": "nonpayable",
      "type": "function"
    },
    {
      "inputs": [],
      "name": "renounceOwnership",
      "outputs": [],
      "stateMutability": "nonpayable",
      "type": "function"
    },
    {
      "inputs": [],
      "name": "securityBlocksToValidation",
      "outputs": [
        {
          "internalType": "uint32",
          "name": "",
          "type": "uint32"
        }
      ],
      "stateMutability": "view",
      "type": "function"
    },
    {
      "inputs": [
        {
          "components": [
            {
              "internalType": "address",
              "name": "communityRulesAddress",
              "type": "address"
            },
            {
              "internalType": "address",
              "name": "contributorPoolAddress",
              "type": "address"
            },
            {
              "internalType": "address",
              "name": "validationRulesAddress",
              "type": "address"
            },
            {
              "internalType": "address",
              "name": "voteRulesAddress",
              "type": "address"
            }
          ],
          "internalType": "struct ContractsDependency",
          "name": "contractDependency",
          "type": "tuple"
        }
      ],
      "name": "setContractAddressDependencies",
      "outputs": [],
      "stateMutability": "nonpayable",
      "type": "function"
    },
    {
      "inputs": [],
      "name": "timeBetweenWorks",
      "outputs": [
        {
          "internalType": "uint32",
          "name": "",
          "type": "uint32"
        }
      ],
      "stateMutability": "view",
      "type": "function"
    },
    {
      "inputs": [
        {
          "internalType": "address",
          "name": "addr",
          "type": "address"
        }
      ],
      "name": "totalPenalties",
      "outputs": [
        {
          "internalType": "uint256",
          "name": "",
          "type": "uint256"
        }
      ],
      "stateMutability": "view",
      "type": "function"
    },
    {
      "inputs": [
        {
          "internalType": "address",
          "name": "newOwner",
          "type": "address"
        }
      ],
      "name": "transferOwnership",
      "outputs": [],
      "stateMutability": "nonpayable",
      "type": "function"
    },
    {
      "inputs": [],
      "name": "withdraw",
      "outputs": [],
      "stateMutability": "nonpayable",
      "type": "function"
    }
  ],
  "bytecode": "0x60e060405234801561001057600080fd5b506040516131d13803806131d183398101604081905261002f916100c2565b61003833610059565b600160025563ffffffff92831660a05260ff9091166080521660c05261010d565b600080546001600160a01b038381166001600160a01b0319831681178455604051919092169283917f8be0079c531659141344cd1fd0a4f28419497f9722a3daafe3b4186f6b6457e09190a35050565b805163ffffffff811681146100bd57600080fd5b919050565b6000806000606084860312156100d757600080fd5b6100e0846100a9565b9250602084015160ff811681146100f657600080fd5b9150610104604085016100a9565b90509250925092565b60805160a05160c05161308761014a600039600081816102bb01526106af01526000818161038801526119a6015260006104a601526130876000f3fe608060405234801561001057600080fd5b50600436106101fb5760003560e01c80637b3341541161011a578063b24eb769116100ad578063c77c1ce61161007c578063c77c1ce614610525578063cae5366b14610538578063da0e0f9714610558578063e05cf15514610578578063f2fde38b1461058057600080fd5b8063b24eb769146104a1578063b7e97777146104da578063be9dc58414610503578063c69685561461050b57600080fd5b80639eaf666f116100e95780639eaf666f1461043c578063a68012581461044f578063b0fd59f31461047b578063b1e866551461048e57600080fd5b80637b334154146103ce5780638da5cb5b146103f15780638f93716f1461041657806391155f191461042957600080fd5b80633ccfd60b116101925780635fa71c28116101615780635fa71c28146103705780636b6c7c2d146103835780636ec7053a146103aa578063715018a6146103c657600080fd5b80633ccfd60b1461031d5780633d8270f514610325578063582256f114610345578063585506bf1461034d57600080fd5b8063231a9b86116101ce578063231a9b86146102905780632d68402e146102a357806335c11677146102b657806338658175146102f257600080fd5b8063129de9651461020057806318ad5c9a146102155780631cee0700146102285780632076267b14610259575b600080fd5b61021361020e366004612852565b610593565b005b6102136102233660046128d5565b6109d9565b61023b6102363660046128ff565b610cd0565b6040516102509998979695949392919061295e565b60405180910390f35b6102826102673660046129d2565b6001600160a01b03166000908152600c602052604090205490565b604051908152602001610250565b61021361029e366004612a02565b610e42565b6102136102b1366004612a3b565b61143d565b6102dd7f000000000000000000000000000000000000000000000000000000000000000081565b60405163ffffffff9091168152602001610250565b600354610305906001600160401b031681565b6040516001600160401b039091168152602001610250565b6102136114a2565b6103386103333660046129d2565b61170a565b6040516102509190612ab9565b6102826118ff565b61036061035b3660046129d2565b61197f565b6040519015158152602001610250565b61030561037e3660046128d5565b6119e2565b6102dd7f000000000000000000000000000000000000000000000000000000000000000081565b6103b3613e8081565b60405161ffff9091168152602001610250565b610213611a1a565b6103606103dc3660046129d2565b60016020526000908152604090205460ff1681565b6000546001600160a01b03165b6040516001600160a01b039091168152602001610250565b6102136104243660046129d2565b611a2c565b6102826104373660046128d5565b611a5b565b61036061044a366004612b57565b611a8c565b61036061045d3660046129d2565b6001600160a01b031660009081526001602052604090205460ff1690565b610213610489366004612852565b611ac3565b61028261049c366004612b83565b611e26565b6104c87f000000000000000000000000000000000000000000000000000000000000000081565b60405160ff9091168152602001610250565b6103fe6104e83660046128ff565b6006602052600090815260409020546001600160a01b031681565b610282600581565b60035461030590600160401b90046001600160401b031681565b6103606105333660046129d2565b611ee5565b61054b610546366004612bba565b612144565b6040516102509190612c80565b61056b6105663660046129d2565b6122f7565b6040516102509190612c93565b610282612363565b61021361058e3660046129d2565b6123ad565b61059b612426565b815161012c108015906105b057508051609610155b6105fa5760405162461bcd60e51b815260206004820152601660248201527513585e0818da185c9858dd195c9cc81c995858da195960521b60448201526064015b60405180910390fd5b600854604051631292f8c160e31b81526001600160a01b0390911690639497c6089061062d906005903390600401612cf8565b602060405180830381865afa15801561064a573d6000803e3d6000fd5b505050506040513d601f19601f8201168201806040525081019061066e9190612d1e565b6106ad5760405162461bcd60e51b815260206004820152601060248201526f27b7363c9021b7b73a3934b13aba37b960811b60448201526064016105f1565b7f000000000000000000000000000000000000000000000000000000000000000063ffffffff166106dc6118ff565b116107395760405162461bcd60e51b815260206004820152602760248201527f5761697420756e74696c206e6578742065726120746f2061646420636f6e747260448201526634b13aba34b7b760c91b60648201526084016105f1565b6107423361197f565b6107825760405162461bcd60e51b815260206004820152601160248201527010d85b89dd081c1d589b1a5cda081e595d607a1b60448201526064016105f1565b600380546001600160401b031690600061079b83612d56565b91906101000a8154816001600160401b0302191690836001600160401b03160217905550506003600881819054906101000a90046001600160401b0316809291906107e590612d56565b91906101000a8154816001600160401b0302191690836001600160401b03160217905550506000600360089054906101000a90046001600160401b03169050604051806101200160405280826001600160401b03168152602001610847612363565b81523360208083019190915260408083018790526060808401879052600060808501819052600160a0860181905260c086018290524360e0909601959095526001600160401b03878116825260058552908390208651815467ffffffffffffffff1916921691909117815592850151938301939093558301516002820180546001600160a01b0319166001600160a01b039092169190911790559082015160038201906108f49082612e0a565b50608082015160048201906109099082612e0a565b5060a0820151600582015560c082015160068201805460ff191691151591909117905560e08201516007808301919091556101009092015160089091015533600081815260209283526040812080546001810182559082529290206001600160401b03841692019190915561097d9061247d565b336001600160a01b0316816001600160401b03167fc6aae0d562ab183f7fbeb19b28e6ce69e68fa31da15096224a655f5d4c2e26c385436040516109c2929190612ec8565b60405180910390a3506109d56001600255565b5050565b3360009081526001602052604090205460ff16610a2d5760405162461bcd60e51b81526020600482015260126024820152712737ba1030b63637bbb2b21031b0b63632b960711b60448201526064016105f1565b6001600160a01b038083166000908152600460209081526040808320815160e08101835281546001600160401b0381168252600160401b90049095169285019290925260018201805493949391840191610a8690612d81565b80601f0160208091040260200160405190810160405280929190818152602001828054610ab290612d81565b8015610aff5780601f10610ad457610100808354040283529160200191610aff565b820191906000526020600020905b815481529060010190602001808311610ae257829003601f168201915b50505050508152602001600282018054610b1890612d81565b80601f0160208091040260200160405190810160405280929190818152602001828054610b4490612d81565b8015610b915780601f10610b6657610100808354040283529160200191610b91565b820191906000526020600020905b815481529060010190602001808311610b7457829003601f168201915b5050509183525050604080518082018252600384015481526004840154602082810191909152830152600583015490820152600690910154606090910152905081610be157608081015151610be3565b815b6001600160a01b03841660009081526004602052604081206003018054909190610c0e908490612eea565b9091555050600954604051630c56ae4d60e11b81526001600160a01b03858116600483015260248201859052909116906318ad5c9a90604401600060405180830381600087803b158015610c6157600080fd5b505af1158015610c75573d6000803e3d6000fd5b50505060808201515160408051858152602081019290925243908201526001600160a01b03851691507f239c80638dc2cd0370d2c706ac5b3a71ce4a93927524d84ffeca938df5cb28989060600160405180910390a2505050565b60056020526000908152604090208054600182015460028301546003840180546001600160401b039094169492936001600160a01b039092169291610d1490612d81565b80601f0160208091040260200160405190810160405280929190818152602001828054610d4090612d81565b8015610d8d5780601f10610d6257610100808354040283529160200191610d8d565b820191906000526020600020905b815481529060010190602001808311610d7057829003601f168201915b505050505090806004018054610da290612d81565b80601f0160208091040260200160405190810160405280929190818152602001828054610dce90612d81565b8015610e1b5780601f10610df057610100808354040283529160200191610e1b565b820191906000526020600020905b815481529060010190602001808311610dfe57829003601f168201915b505050506005830154600684015460078501546008909501549394919360ff909116925089565b610e4a612426565b805161012c1015610e8e5760405162461bcd60e51b815260206004820152600e60248201526d4d6178206368617261637465727360901b60448201526064016105f1565b600b546040516356fd539760e11b81523360048201526001600160a01b039091169063adfaa72e90602401602060405180830381865afa158015610ed6573d6000803e3d6000fd5b505050506040513d601f19601f82011682018060405250810190610efa9190612d1e565b610f345760405162461bcd60e51b815260206004820152600b60248201526a2737ba1030903b37ba32b960a91b60448201526064016105f1565b600a54604051630d84466b60e21b81523360048201526001600160a01b039091169063361119ac90602401602060405180830381865afa158015610f7c573d6000803e3d6000fd5b505050506040513d601f19601f82011682018060405250810190610fa09190612d1e565b610fe45760405162461bcd60e51b8152602060048201526015602482015274576169742074696d654265747765656e566f74657360581b60448201526064016105f1565b6001600160401b0380831660009081526005602090815260408083208151610120810183528154909516855260018101549285019290925260028201546001600160a01b03169084015260038101805492939260608401919061104690612d81565b80601f016020809104026020016040519081016040528092919081815260200182805461107290612d81565b80156110bf5780601f10611094576101008083540402835291602001916110bf565b820191906000526020600020905b8154815290600101906020018083116110a257829003601f168201915b505050505081526020016004820180546110d890612d81565b80601f016020809104026020016040519081016040528092919081815260200182805461110490612d81565b80156111515780601f1061112657610100808354040283529160200191611151565b820191906000526020600020905b81548152906001019060200180831161113457829003601f168201915b505050918352505060058201546020820152600682015460ff16151560408201526007820154606082015260089091015460809091015260c081015190915080156111a6575080602001516111a4612363565b145b6111f25760405162461bcd60e51b815260206004820152601e60248201527f5468697320636f6e747269627574696f6e206973206e6f742056414c4944000060448201526064016105f1565b60018160a0018181516112059190612efd565b9052506001600160401b038381166000908152600560209081526040918290208451815467ffffffffffffffff1916941693909317835583015160018301558201516002820180546001600160a01b0319166001600160a01b039092169190911790556060820151829190600382019061127f9082612e0a565b50608082015160048201906112949082612e0a565b5060a0820151600582015560c082015160068201805460ff191691151591909117905560e0820151600782015561010090910151600890910155600a54604080516369bf81c360e01b815290516000926001600160a01b0316916369bf81c39160048083019260209291908290030181865afa158015611318573d6000803e3d6000fd5b505050506040513d601f19601f8201168201806040525081019061133c9190612f10565b60a083015110801591506113cb576113538261257d565b915081604001516001600160a01b0316846001600160401b03167f877210aa63ada7585f903bc529a6691c6e70aeeb79dd69e7c16011733f8d3382856113b286604001516001600160a01b03166000908152600c602052604090205490565b436040516113c293929190612f29565b60405180910390a35b600a546040516347ec8e9760e01b81526001600160a01b03909116906347ec8e97906113ff90859087903390600401612f4e565b600060405180830381600087803b15801561141957600080fd5b505af115801561142d573d6000803e3d6000fd5b5050505050506109d56001600255565b61144561268d565b8051600880546001600160a01b03199081166001600160a01b039384161790915560208301516009805483169184169190911790556040830151600a80548316918416919091179055606090920151600b80549093169116179055565b6114aa612426565b600854604051631292f8c160e31b81526001600160a01b0390911690639497c608906114dd906005903390600401612cf8565b602060405180830381865afa1580156114fa573d6000803e3d6000fd5b505050506040513d601f19601f8201168201806040525081019061151e9190612d1e565b61156a5760405162461bcd60e51b815260206004820152601860248201527f506f6f6c206f6e6c7920746f20636f6e7472696275746f72000000000000000060448201526064016105f1565b33600090815260046020819052604091829020808201546009549351637df42f8360e11b8152928301819052909290916001600160a01b039091169063fbe85f0690602401602060405180830381865afa1580156115cc573d6000803e3d6000fd5b505050506040513d601f19601f820116820180604052508101906115f09190612d1e565b61164a5760405162461bcd60e51b815260206004820152602560248201527f4e6f7420656c696769626c6520746f20776974686472617720666f7220746869604482015264732065726160d81b60648201526084016105f1565b60048201805490600061165c83612f8c565b909155505060095460405163f3fef3a360e01b8152336004820152602481018390526001600160a01b039091169063f3fef3a390604401600060405180830381600087803b1580156116ad57600080fd5b505af11580156116c1573d6000803e3d6000fd5b50506040514381528392503391507fb40adf9f22b112880b7b93e1732c34e633b966b07e6348eda20450f7e9c114e79060200160405180910390a350506117086001600255565b565b6117586040805160e081018252600080825260208083018290526060838501819052808401528351808501909452818452830152906080820190815260200160008152602001600081525090565b6001600160a01b03808316600090815260046020908152604091829020825160e08101845281546001600160401b0381168252600160401b90049094169184019190915260018101805491928401916117b090612d81565b80601f01602080910402602001604051908101604052809291908181526020018280546117dc90612d81565b80156118295780601f106117fe57610100808354040283529160200191611829565b820191906000526020600020905b81548152906001019060200180831161180c57829003601f168201915b5050505050815260200160028201805461184290612d81565b80601f016020809104026020016040519081016040528092919081815260200182805461186e90612d81565b80156118bb5780601f10611890576101008083540402835291602001916118bb565b820191906000526020600020905b81548152906001019060200180831161189e57829003601f168201915b505050918352505060408051808201825260038401548152600484015460208281019190915283015260058301549082015260069091015460609091015292915050565b6009546000906001600160a01b031663d5ee3eb561191b612363565b6040518263ffffffff1660e01b815260040161193991815260200190565b602060405180830381865afa158015611956573d6000803e3d6000fd5b505050506040513d601f19601f8201168201806040525081019061197a9190612f10565b905090565b6001600160a01b038116600090815260046020526040812060060154816119cc63ffffffff7f00000000000000000000000000000000000000000000000000000000000000001683612efd565b4311905080806119da575081155b949350505050565b600c60205281600052604060002081815481106119fe57600080fd5b6000918252602090912001546001600160401b03169150829050565b611a2261268d565b61170860006126e7565b611a3461268d565b6001600160a01b03166000908152600160208190526040909120805460ff19169091179055565b60076020528160005260406000208181548110611a7757600080fd5b90600052602060002001600091509150505481565b600060058311611a9e57506001611abc565b6000611ab56001611aaf8787612737565b90612743565b8310159150505b9392505050565b8151603210801590611ad757508051609610155b611b145760405162461bcd60e51b815260206004820152600e60248201526d4d6178206368617261637465727360901b60448201526064016105f1565b600854604051632f22dc7b60e01b8152613e80916001600160a01b031690632f22dc7b90611b4790600590600401612fa5565b602060405180830381865afa158015611b64573d6000803e3d6000fd5b505050506040513d601f19601f82011682018060405250810190611b889190612f10565b1115611bc75760405162461bcd60e51b815260206004820152600e60248201526d13585e081d5cd95c881b1a5b5a5d60921b60448201526064016105f1565b60085460405162f5960960e51b81526000916001600160a01b031690631eb2c12090611bf890600590600401612fa5565b602060405180830381865afa158015611c15573d6000803e3d6000fd5b505050506040513d601f19601f82011682018060405250810190611c399190612fb3565b611c44906001612fd0565b90506040518060e00160405280826001600160401b03168152602001336001600160a01b03168152602001848152602001838152602001604051806040016040528060008152602001611c95612363565b9052815243602080830191909152600060409283018190523381526004825282902083518154928501516001600160a01b0316600160401b026001600160e01b03199093166001600160401b0390911617919091178155908201516001820190611cff9082612e0a565b5060608201516002820190611d149082612e0a565b5060808201518051600383015560209081015160048084019190915560a084015160058085019190915560c0909401516006938401556001600160401b03851660009081529290915260409182902080546001600160a01b031916339081179091556008549251639c3eead960e01b81526001600160a01b039390931693639c3eead993611da29301612fef565b600060405180830381600087803b158015611dbc57600080fd5b505af1158015611dd0573d6000803e3d6000fd5b50505050336001600160a01b0316816001600160401b03167fc8261a89bb2ba1bec86e2467cbc6d7c91bcceef268691b418bc08e888e43f3388543604051611e19929190612ec8565b60405180910390a3505050565b3360009081526001602052604081205460ff16611e7a5760405162461bcd60e51b81526020600482015260126024820152712737ba1030b63637bbb2b21031b0b63632b960711b60448201526064016105f1565b6001600160a01b0383166000818152600c6020818152604080842081518084019092526001600160401b038881168352815460018101835582875284872093519301805467ffffffffffffffff19169390911692909217909155939092529052545b90505b92915050565b6001600160a01b038082166000908152600460209081526040808320815160e08101835281546001600160401b0381168252600160401b9004909516928501929092526001820180549394859490939284019190611f4290612d81565b80601f0160208091040260200160405190810160405280929190818152602001828054611f6e90612d81565b8015611fbb5780601f10611f9057610100808354040283529160200191611fbb565b820191906000526020600020905b815481529060010190602001808311611f9e57829003601f168201915b50505050508152602001600282018054611fd490612d81565b80601f016020809104026020016040519081016040528092919081815260200182805461200090612d81565b801561204d5780601f106120225761010080835404028352916020019161204d565b820191906000526020600020905b81548152906001019060200180831161203057829003601f168201915b505050918352505060408051808201825260038401548152600484015460208281019190915283015260058301549082015260069091015460609091015280519091506001600160401b03166120a65750600092915050565b60035460085460405162f5960960e51b8152611abc92600160401b90046001600160401b0316916001600160a01b031690631eb2c120906120ec90600590600401612fa5565b602060405180830381865afa158015612109573d6000803e3d6000fd5b505050506040513d601f19601f8201168201806040525081019061212d9190612fb3565b6001600160401b0316836080015160000151611a8c565b61214c61274f565b6001600160401b038083166000908152600560209081526040918290208251610120810184528154909416845260018101549184019190915260028101546001600160a01b0316918301919091526003810180546060840191906121af90612d81565b80601f01602080910402602001604051908101604052809291908181526020018280546121db90612d81565b80156122285780601f106121fd57610100808354040283529160200191612228565b820191906000526020600020905b81548152906001019060200180831161220b57829003601f168201915b5050505050815260200160048201805461224190612d81565b80601f016020809104026020016040519081016040528092919081815260200182805461226d90612d81565b80156122ba5780601f1061228f576101008083540402835291602001916122ba565b820191906000526020600020905b81548152906001019060200180831161229d57829003601f168201915b505050918352505060058201546020820152600682015460ff16151560408201526007820154606082015260089091015460809091015292915050565b6001600160a01b03811660009081526007602090815260409182902080548351818402810184019094528084526060939283018282801561235757602002820191906000526020600020905b815481526020019060010190808311612343575b50505050509050919050565b60095460408051637686fbcf60e11b815290516000926001600160a01b03169163ed0df79e9160048083019260209291908290030181865afa158015611956573d6000803e3d6000fd5b6123b561268d565b6001600160a01b03811661241a5760405162461bcd60e51b815260206004820152602660248201527f4f776e61626c653a206e6577206f776e657220697320746865207a65726f206160448201526564647265737360d01b60648201526084016105f1565b612423816126e7565b50565b60028054036124775760405162461bcd60e51b815260206004820152601f60248201527f5265656e7472616e637947756172643a207265656e7472616e742063616c6c0060448201526064016105f1565b60028055565b6001600160a01b0381166000908152600460205260408120805490916001600160401b0390911690036124ae575050565b4360068201556003810180549060006124c683612f8c565b90915550506009546040516352b8d3ed60e01b81526001600160a01b03848116600483015260016024830152909116906352b8d3ed90604401600060405180830381600087803b15801561251957600080fd5b505af115801561252d573d6000803e3d6000fd5b505050506003810154604080519182524360208301526001600160a01b038416917f98124a7baa4200982491adbb05ed4b64c8c04aab157bc086bfc71b96540a7e11910160405180910390a25050565b61258561274f565b600380546001600160401b031690600061259e8361300c565b82546101009290920a6001600160401b03818102199093169183160217909155600060c085018190524360e0860152845182168152600560209081526040918290208651815467ffffffffffffffff1916941693909317835585015160018301558401516002820180546001600160a01b0319166001600160a01b039092169190911790556060840151849250600382019061263a9082612e0a565b506080820151600482019061264f9082612e0a565b5060a0820151600582015560c082015160068201805460ff191691151591909117905560e08201516007820155610100909101516008909101555090565b6000546001600160a01b031633146117085760405162461bcd60e51b815260206004820181905260248201527f4f776e61626c653a2063616c6c6572206973206e6f7420746865206f776e657260448201526064016105f1565b600080546001600160a01b038381166001600160a01b0319831681178455604051919092169283917f8be0079c531659141344cd1fd0a4f28419497f9722a3daafe3b4186f6b6457e09190a35050565b6000611edc828461302f565b6000611edc8284612efd565b60405180610120016040528060006001600160401b031681526020016000815260200160006001600160a01b0316815260200160608152602001606081526020016000815260200160001515815260200160008152602001600081525090565b634e487b7160e01b600052604160045260246000fd5b600082601f8301126127d657600080fd5b81356001600160401b038111156127ef576127ef6127af565b604051601f8201601f19908116603f011681016001600160401b038111828210171561281d5761281d6127af565b60405281815283820160200185101561283557600080fd5b816020850160208301376000918101602001919091529392505050565b6000806040838503121561286557600080fd5b82356001600160401b0381111561287b57600080fd5b612887858286016127c5565b92505060208301356001600160401b038111156128a357600080fd5b6128af858286016127c5565b9150509250929050565b80356001600160a01b03811681146128d057600080fd5b919050565b600080604083850312156128e857600080fd5b6128f1836128b9565b946020939093013593505050565b60006020828403121561291157600080fd5b5035919050565b6000815180845260005b8181101561293e57602081850181015186830182015201612922565b506000602082860101526020601f19601f83011685010191505092915050565b6001600160401b038a16815288602082015260018060a01b038816604082015261012060608201526000612996610120830189612918565b82810360808401526129a88189612918565b60a0840197909752505092151560c084015260e08301919091526101009091015295945050505050565b6000602082840312156129e457600080fd5b611edc826128b9565b6001600160401b038116811461242357600080fd5b60008060408385031215612a1557600080fd5b8235612a20816129ed565b915060208301356001600160401b038111156128a357600080fd5b60006080828403128015612a4e57600080fd5b50604051608081016001600160401b0381118282101715612a7157612a716127af565b604052612a7d836128b9565b8152612a8b602084016128b9565b6020820152612a9c604084016128b9565b6040820152612aad606084016128b9565b60608201529392505050565b602081526001600160401b03825116602082015260018060a01b036020830151166040820152600060408301516101006060840152612afc610120840182612918565b90506060840151601f19848303016080850152612b198282612918565b9150506080840151612b3860a085018280518252602090810151910152565b5060a084015160e084015260c090930151610100909201919091525090565b600080600060608486031215612b6c57600080fd5b505081359360208301359350604090920135919050565b60008060408385031215612b9657600080fd5b612b9f836128b9565b91506020830135612baf816129ed565b809150509250929050565b600060208284031215612bcc57600080fd5b8135611abc816129ed565b80516001600160401b031682526020810151602083015260006040820151612c0a60408501826001600160a01b03169052565b5060608201516101206060850152612c26610120850182612918565b905060808301518482036080860152612c3f8282612918565b91505060a083015160a085015260c0830151612c5f60c086018215159052565b5060e083015160e08501526101008301516101008501528091505092915050565b602081526000611edc6020830184612bd7565b602080825282518282018190526000918401906040840190835b81811015612ccb578351835260209384019390920191600101612cad565b509095945050505050565b60098110612cf457634e487b7160e01b600052602160045260246000fd5b9052565b60408101612d068285612cd6565b6001600160a01b039290921660209190910152919050565b600060208284031215612d3057600080fd5b81518015158114611abc57600080fd5b634e487b7160e01b600052601160045260246000fd5b60006001600160401b0382166001600160401b038103612d7857612d78612d40565b60010192915050565b600181811c90821680612d9557607f821691505b602082108103612db557634e487b7160e01b600052602260045260246000fd5b50919050565b601f821115612e0557806000526020600020601f840160051c81016020851015612de25750805b601f840160051c820191505b81811015612e025760008155600101612dee565b50505b505050565b81516001600160401b03811115612e2357612e236127af565b612e3781612e318454612d81565b84612dbb565b6020601f821160018114612e6b5760008315612e535750848201515b600019600385901b1c1916600184901b178455612e02565b600084815260208120601f198516915b82811015612e9b5787850151825560209485019460019092019101612e7b565b5084821015612eb95786840151600019600387901b60f8161c191681555b50505050600190811b01905550565b604081526000612edb6040830185612918565b90508260208301529392505050565b81810381811115611edf57611edf612d40565b80820180821115611edf57611edf612d40565b600060208284031215612f2257600080fd5b5051919050565b606081526000612f3c6060830186612918565b60208301949094525060400152919050565b606081526000612f616060830186612bd7565b8281036020840152612f738186612918565b91505060018060a01b0383166040830152949350505050565b600060018201612f9e57612f9e612d40565b5060010190565b60208101611edf8284612cd6565b600060208284031215612fc557600080fd5b8151611abc816129ed565b6001600160401b038181168382160190811115611edf57611edf612d40565b6001600160a01b038316815260408101611abc6020830184612cd6565b60006001600160401b0382168061302557613025612d40565b6000190192915050565b60008261304c57634e487b7160e01b600052601260045260246000fd5b50049056fea264697066735822122089f975d2b6e0fc763b2bd1c5eddf868e9a97bba6da233e5f87c2d55fb20e4e3264736f6c634300081b0033",
  "linkReferences": {},
  "deployedLinkReferences": {}
}