{
  "_format": "hh-sol-artifact-1",
  "contractName": "ContributorRules",
  "sourceName": "contracts/ContributorRules.sol",
  "abi": [
    {
      "inputs": [
        {
          "internalType": "uint32",
          "name": "timeBetweenWorks_",
          "type": "uint32"
        },
        {
          "internalType": "uint8",
          "name": "maxPenalties_",
          "type": "uint8"
        },
        {
          "internalType": "uint32",
          "name": "securityBlocksToValidation_",
          "type": "uint32"
        }
      ],
      "stateMutability": "nonpayable",
      "type": "constructor"
    },
    {
      "inputs": [
        {
          "internalType": "address",
          "name": "owner",
          "type": "address"
        }
      ],
      "name": "OwnableInvalidOwner",
      "type": "error"
    },
    {
      "inputs": [
        {
          "internalType": "address",
          "name": "account",
          "type": "address"
        }
      ],
      "name": "OwnableUnauthorizedAccount",
      "type": "error"
    },
    {
      "inputs": [],
      "name": "ReentrancyGuardReentrantCall",
      "type": "error"
    },
    {
      "anonymous": false,
      "inputs": [
        {
          "indexed": true,
          "internalType": "uint256",
          "name": "id",
          "type": "uint256"
        },
        {
          "indexed": true,
          "internalType": "address",
          "name": "contributorAddress",
          "type": "address"
        },
        {
          "indexed": false,
          "internalType": "string",
          "name": "description",
          "type": "string"
        },
        {
          "indexed": false,
          "internalType": "uint256",
          "name": "blockNumber",
          "type": "uint256"
        }
      ],
      "name": "ContributionAdded",
      "type": "event"
    },
    {
      "anonymous": false,
      "inputs": [
        {
          "indexed": true,
          "internalType": "uint64",
          "name": "contributionId",
          "type": "uint64"
        },
        {
          "indexed": true,
          "internalType": "address",
          "name": "contributorAddress",
          "type": "address"
        },
        {
          "indexed": false,
          "internalType": "string",
          "name": "justification",
          "type": "string"
        },
        {
          "indexed": false,
          "internalType": "uint256",
          "name": "newPenaltyCount",
          "type": "uint256"
        },
        {
          "indexed": false,
          "internalType": "uint256",
          "name": "blockNumber",
          "type": "uint256"
        }
      ],
      "name": "ContributionInvalidated",
      "type": "event"
    },
    {
      "anonymous": false,
      "inputs": [
        {
          "indexed": true,
          "internalType": "address",
          "name": "contributorAddress",
          "type": "address"
        },
        {
          "indexed": false,
          "internalType": "uint256",
          "name": "newLevel",
          "type": "uint256"
        },
        {
          "indexed": false,
          "internalType": "uint256",
          "name": "blockNumber",
          "type": "uint256"
        }
      ],
      "name": "ContributorLevelIncreased",
      "type": "event"
    },
    {
      "anonymous": false,
      "inputs": [
        {
          "indexed": true,
          "internalType": "address",
          "name": "contributorAddress",
          "type": "address"
        },
        {
          "indexed": false,
          "internalType": "uint256",
          "name": "levelsRemoved",
          "type": "uint256"
        },
        {
          "indexed": false,
          "internalType": "uint256",
          "name": "newLevel",
          "type": "uint256"
        },
        {
          "indexed": false,
          "internalType": "uint256",
          "name": "blockNumber",
          "type": "uint256"
        }
      ],
      "name": "ContributorLevelRemoved",
      "type": "event"
    },
    {
      "anonymous": false,
      "inputs": [
        {
          "indexed": true,
          "internalType": "uint256",
          "name": "id",
          "type": "uint256"
        },
        {
          "indexed": true,
          "internalType": "address",
          "name": "contributorAddress",
          "type": "address"
        },
        {
          "indexed": false,
          "internalType": "string",
          "name": "name",
          "type": "string"
        },
        {
          "indexed": false,
          "internalType": "uint256",
          "name": "blockNumber",
          "type": "uint256"
        }
      ],
      "name": "ContributorRegistered",
      "type": "event"
    },
    {
      "anonymous": false,
      "inputs": [
        {
          "indexed": true,
          "internalType": "address",
          "name": "contributorAddress",
          "type": "address"
        },
        {
          "indexed": true,
          "internalType": "uint256",
          "name": "era",
          "type": "uint256"
        },
        {
          "indexed": false,
          "internalType": "uint256",
          "name": "blockNumber",
          "type": "uint256"
        }
      ],
      "name": "ContributorWithdrawalInitiated",
      "type": "event"
    },
    {
      "anonymous": false,
      "inputs": [
        {
          "indexed": true,
          "internalType": "address",
          "name": "previousOwner",
          "type": "address"
        },
        {
          "indexed": true,
          "internalType": "address",
          "name": "newOwner",
          "type": "address"
        }
      ],
      "name": "OwnershipTransferred",
      "type": "event"
    },
    {
      "inputs": [],
      "name": "INITIAL_USER_COUNT_THRESHOLD",
      "outputs": [
        {
          "internalType": "uint256",
          "name": "",
          "type": "uint256"
        }
      ],
      "stateMutability": "view",
      "type": "function"
    },
    {
      "inputs": [],
      "name": "MAX_USER_COUNT",
      "outputs": [
        {
          "internalType": "uint16",
          "name": "",
          "type": "uint16"
        }
      ],
      "stateMutability": "view",
      "type": "function"
    },
    {
      "inputs": [
        {
          "internalType": "string",
          "name": "description",
          "type": "string"
        },
        {
          "internalType": "string",
          "name": "report",
          "type": "string"
        }
      ],
      "name": "addContribution",
      "outputs": [],
      "stateMutability": "nonpayable",
      "type": "function"
    },
    {
      "inputs": [
        {
          "internalType": "uint64",
          "name": "id",
          "type": "uint64"
        },
        {
          "internalType": "string",
          "name": "justification",
          "type": "string"
        }
      ],
      "name": "addContributionValidation",
      "outputs": [],
      "stateMutability": "nonpayable",
      "type": "function"
    },
    {
      "inputs": [
        {
          "internalType": "string",
          "name": "name",
          "type": "string"
        },
        {
          "internalType": "string",
          "name": "proofPhoto",
          "type": "string"
        }
      ],
      "name": "addContributor",
      "outputs": [],
      "stateMutability": "nonpayable",
      "type": "function"
    },
    {
      "inputs": [
        {
          "internalType": "address",
          "name": "addr",
          "type": "address"
        },
        {
          "internalType": "uint64",
          "name": "contributionId",
          "type": "uint64"
        }
      ],
      "name": "addPenalty",
      "outputs": [
        {
          "internalType": "uint256",
          "name": "",
          "type": "uint256"
        }
      ],
      "stateMutability": "nonpayable",
      "type": "function"
    },
    {
      "inputs": [
        {
          "internalType": "address",
          "name": "",
          "type": "address"
        }
      ],
      "name": "allowedCallers",
      "outputs": [
        {
          "internalType": "bool",
          "name": "",
          "type": "bool"
        }
      ],
      "stateMutability": "view",
      "type": "function"
    },
    {
      "inputs": [
        {
          "internalType": "uint256",
          "name": "totalLevels",
          "type": "uint256"
        },
        {
          "internalType": "uint256",
          "name": "totalUsers",
          "type": "uint256"
        },
        {
          "internalType": "uint256",
          "name": "userLevels",
          "type": "uint256"
        }
      ],
      "name": "canInvite",
      "outputs": [
        {
          "internalType": "bool",
          "name": "",
          "type": "bool"
        }
      ],
      "stateMutability": "pure",
      "type": "function"
    },
    {
      "inputs": [
        {
          "internalType": "address",
          "name": "addr",
          "type": "address"
        }
      ],
      "name": "canPublishContribution",
      "outputs": [
        {
          "internalType": "bool",
          "name": "",
          "type": "bool"
        }
      ],
      "stateMutability": "view",
      "type": "function"
    },
    {
      "inputs": [
        {
          "internalType": "address",
          "name": "addr",
          "type": "address"
        }
      ],
      "name": "canSendInvite",
      "outputs": [
        {
          "internalType": "bool",
          "name": "",
          "type": "bool"
        }
      ],
      "stateMutability": "view",
      "type": "function"
    },
    {
      "inputs": [
        {
          "internalType": "uint256",
          "name": "",
          "type": "uint256"
        }
      ],
      "name": "contributions",
      "outputs": [
        {
          "internalType": "uint64",
          "name": "id",
          "type": "uint64"
        },
        {
          "internalType": "uint256",
          "name": "era",
          "type": "uint256"
        },
        {
          "internalType": "address",
          "name": "user",
          "type": "address"
        },
        {
          "internalType": "string",
          "name": "description",
          "type": "string"
        },
        {
          "internalType": "string",
          "name": "report",
          "type": "string"
        },
        {
          "internalType": "uint256",
          "name": "validationsCount",
          "type": "uint256"
        },
        {
          "internalType": "bool",
          "name": "valid",
          "type": "bool"
        },
        {
          "internalType": "uint256",
          "name": "invalidatedAt",
          "type": "uint256"
        },
        {
          "internalType": "uint256",
          "name": "createdAtBlockNumber",
          "type": "uint256"
        }
      ],
      "stateMutability": "view",
      "type": "function"
    },
    {
      "inputs": [],
      "name": "contributionsCount",
      "outputs": [
        {
          "internalType": "uint64",
          "name": "",
          "type": "uint64"
        }
      ],
      "stateMutability": "view",
      "type": "function"
    },
    {
      "inputs": [
        {
          "internalType": "address",
          "name": "",
          "type": "address"
        },
        {
          "internalType": "uint256",
          "name": "",
          "type": "uint256"
        }
      ],
      "name": "contributionsIds",
      "outputs": [
        {
          "internalType": "uint256",
          "name": "",
          "type": "uint256"
        }
      ],
      "stateMutability": "view",
      "type": "function"
    },
    {
      "inputs": [],
      "name": "contributionsTotalCount",
      "outputs": [
        {
          "internalType": "uint64",
          "name": "",
          "type": "uint64"
        }
      ],
      "stateMutability": "view",
      "type": "function"
    },
    {
      "inputs": [
        {
          "internalType": "uint256",
          "name": "",
          "type": "uint256"
        }
      ],
      "name": "contributorsAddress",
      "outputs": [
        {
          "internalType": "address",
          "name": "",
          "type": "address"
        }
      ],
      "stateMutability": "view",
      "type": "function"
    },
    {
      "inputs": [
        {
          "internalType": "uint64",
          "name": "id",
          "type": "uint64"
        }
      ],
      "name": "getContribution",
      "outputs": [
        {
          "components": [
            {
              "internalType": "uint64",
              "name": "id",
              "type": "uint64"
            },
            {
              "internalType": "uint256",
              "name": "era",
              "type": "uint256"
            },
            {
              "internalType": "address",
              "name": "user",
              "type": "address"
            },
            {
              "internalType": "string",
              "name": "description",
              "type": "string"
            },
            {
              "internalType": "string",
              "name": "report",
              "type": "string"
            },
            {
              "internalType": "uint256",
              "name": "validationsCount",
              "type": "uint256"
            },
            {
              "internalType": "bool",
              "name": "valid",
              "type": "bool"
            },
            {
              "internalType": "uint256",
              "name": "invalidatedAt",
              "type": "uint256"
            },
            {
              "internalType": "uint256",
              "name": "createdAtBlockNumber",
              "type": "uint256"
            }
          ],
          "internalType": "struct Contribution",
          "name": "",
          "type": "tuple"
        }
      ],
      "stateMutability": "view",
      "type": "function"
    },
    {
      "inputs": [
        {
          "internalType": "address",
          "name": "addr",
          "type": "address"
        }
      ],
      "name": "getContributionsIds",
      "outputs": [
        {
          "internalType": "uint256[]",
          "name": "",
          "type": "uint256[]"
        }
      ],
      "stateMutability": "view",
      "type": "function"
    },
    {
      "inputs": [
        {
          "internalType": "address",
          "name": "addr",
          "type": "address"
        }
      ],
      "name": "getContributor",
      "outputs": [
        {
          "components": [
            {
              "internalType": "uint64",
              "name": "id",
              "type": "uint64"
            },
            {
              "internalType": "address",
              "name": "contributorWallet",
              "type": "address"
            },
            {
              "internalType": "string",
              "name": "name",
              "type": "string"
            },
            {
              "internalType": "string",
              "name": "proofPhoto",
              "type": "string"
            },
            {
              "components": [
                {
                  "internalType": "uint256",
                  "name": "level",
                  "type": "uint256"
                },
                {
                  "internalType": "uint256",
                  "name": "currentEra",
                  "type": "uint256"
                }
              ],
              "internalType": "struct Pool",
              "name": "pool",
              "type": "tuple"
            },
            {
              "internalType": "uint256",
              "name": "createdAt",
              "type": "uint256"
            },
            {
              "internalType": "uint256",
              "name": "lastPublishedAt",
              "type": "uint256"
            }
          ],
          "internalType": "struct Contributor",
          "name": "contributor",
          "type": "tuple"
        }
      ],
      "stateMutability": "view",
      "type": "function"
    },
    {
      "inputs": [
        {
          "internalType": "address",
          "name": "caller",
          "type": "address"
        }
      ],
      "name": "isAllowedCaller",
      "outputs": [
        {
          "internalType": "bool",
          "name": "",
          "type": "bool"
        }
      ],
      "stateMutability": "view",
      "type": "function"
    },
    {
      "inputs": [],
      "name": "maxPenalties",
      "outputs": [
        {
          "internalType": "uint8",
          "name": "",
          "type": "uint8"
        }
      ],
      "stateMutability": "view",
      "type": "function"
    },
    {
      "inputs": [
        {
          "internalType": "address",
          "name": "allowed",
          "type": "address"
        }
      ],
      "name": "newAllowedCaller",
      "outputs": [],
      "stateMutability": "nonpayable",
      "type": "function"
    },
    {
      "inputs": [],
      "name": "nextEraIn",
      "outputs": [
        {
          "internalType": "uint256",
          "name": "",
          "type": "uint256"
        }
      ],
      "stateMutability": "view",
      "type": "function"
    },
    {
      "inputs": [],
      "name": "owner",
      "outputs": [
        {
          "internalType": "address",
          "name": "",
          "type": "address"
        }
      ],
      "stateMutability": "view",
      "type": "function"
    },
    {
      "inputs": [
        {
          "internalType": "address",
          "name": "",
          "type": "address"
        },
        {
          "internalType": "uint256",
          "name": "",
          "type": "uint256"
        }
      ],
      "name": "penalties",
      "outputs": [
        {
          "internalType": "uint64",
          "name": "contributionId",
          "type": "uint64"
        }
      ],
      "stateMutability": "view",
      "type": "function"
    },
    {
      "inputs": [],
      "name": "poolCurrentEra",
      "outputs": [
        {
          "internalType": "uint256",
          "name": "",
          "type": "uint256"
        }
      ],
      "stateMutability": "view",
      "type": "function"
    },
    {
      "inputs": [
        {
          "internalType": "address",
          "name": "addr",
          "type": "address"
        },
        {
          "internalType": "uint256",
          "name": "levelsToRemove",
          "type": "uint256"
        }
      ],
      "name": "removePoolLevels",
      "outputs": [],
      "stateMutability": "nonpayable",
      "type": "function"
    },
    {
      "inputs": [],
      "name": "renounceOwnership",
      "outputs": [],
      "stateMutability": "nonpayable",
      "type": "function"
    },
    {
      "inputs": [],
      "name": "securityBlocksToValidation",
      "outputs": [
        {
          "internalType": "uint32",
          "name": "",
          "type": "uint32"
        }
      ],
      "stateMutability": "view",
      "type": "function"
    },
    {
      "inputs": [
        {
          "internalType": "address",
          "name": "_validationRulesAddress",
          "type": "address"
        }
      ],
      "name": "setContractCall",
      "outputs": [],
      "stateMutability": "nonpayable",
      "type": "function"
    },
    {
      "inputs": [
        {
          "components": [
            {
              "internalType": "address",
              "name": "communityRulesAddress",
              "type": "address"
            },
            {
              "internalType": "address",
              "name": "contributorPoolAddress",
              "type": "address"
            },
            {
              "internalType": "address",
              "name": "validationRulesAddress",
              "type": "address"
            },
            {
              "internalType": "address",
              "name": "voteRulesAddress",
              "type": "address"
            }
          ],
          "internalType": "struct ContractsDependency",
          "name": "contractDependency",
          "type": "tuple"
        }
      ],
      "name": "setContractInterfaces",
      "outputs": [],
      "stateMutability": "nonpayable",
      "type": "function"
    },
    {
      "inputs": [],
      "name": "timeBetweenWorks",
      "outputs": [
        {
          "internalType": "uint32",
          "name": "",
          "type": "uint32"
        }
      ],
      "stateMutability": "view",
      "type": "function"
    },
    {
      "inputs": [
        {
          "internalType": "address",
          "name": "addr",
          "type": "address"
        }
      ],
      "name": "totalPenalties",
      "outputs": [
        {
          "internalType": "uint256",
          "name": "",
          "type": "uint256"
        }
      ],
      "stateMutability": "view",
      "type": "function"
    },
    {
      "inputs": [
        {
          "internalType": "address",
          "name": "newOwner",
          "type": "address"
        }
      ],
      "name": "transferOwnership",
      "outputs": [],
      "stateMutability": "nonpayable",
      "type": "function"
    },
    {
      "inputs": [],
      "name": "withdraw",
      "outputs": [],
      "stateMutability": "nonpayable",
      "type": "function"
    }
  ],
  "bytecode": "0x60e060405234801561001057600080fd5b5060405161332b38038061332b83398101604081905261002f916100e9565b338061005557604051631e4fbdf760e01b81526000600482015260240160405180910390fd5b61005e81610080565b50600160025563ffffffff92831660a05260ff9091166080521660c052610134565b600080546001600160a01b038381166001600160a01b0319831681178455604051919092169283917f8be0079c531659141344cd1fd0a4f28419497f9722a3daafe3b4186f6b6457e09190a35050565b805163ffffffff811681146100e457600080fd5b919050565b6000806000606084860312156100fe57600080fd5b610107846100d0565b9250602084015160ff8116811461011d57600080fd5b915061012b604085016100d0565b90509250925092565b60805160a05160c0516131ba610171600039600081816102b301526106cd0152600081816103800152611aa5015260006104c401526131ba6000f3fe608060405234801561001057600080fd5b50600436106102065760003560e01c80637c647a621161011a578063b24eb769116100ad578063c77c1ce61161007c578063c77c1ce614610543578063cae5366b14610556578063da0e0f9714610576578063e05cf15514610596578063f2fde38b1461059e57600080fd5b8063b24eb769146104bf578063b7e97777146104f8578063be9dc58414610521578063c69685561461052957600080fd5b80639eaf666f116100e95780639eaf666f1461045a578063a68012581461046d578063b0fd59f314610499578063b1e86655146104ac57600080fd5b80637c647a62146103fc5780638da5cb5b1461040f5780638f93716f1461043457806391155f191461044757600080fd5b80633d8270f51161019d5780636b6c7c2d1161016c5780636b6c7c2d1461037b5780636ec7053a146103a2578063715018a6146103be578063755d4f97146103c65780637b334154146103d957600080fd5b80633d8270f51461031d578063582256f11461033d578063585506bf146103455780635fa71c281461036857600080fd5b8063231a9b86116101d9578063231a9b861461029b57806335c11677146102ae57806338658175146102ea5780633ccfd60b1461031557600080fd5b8063129de9651461020b57806318ad5c9a146102205780631cee0700146102335780632076267b14610264575b600080fd5b61021e61021936600461298a565b6105b1565b005b61021e61022e366004612a0d565b6109f7565b610246610241366004612a37565b610d4a565b60405161025b99989796959493929190612a96565b60405180910390f35b61028d610272366004612b0a565b6001600160a01b03166000908152600d602052604090205490565b60405190815260200161025b565b61021e6102a9366004612b3a565b610ebc565b6102d57f000000000000000000000000000000000000000000000000000000000000000081565b60405163ffffffff909116815260200161025b565b6003546102fd906001600160401b031681565b6040516001600160401b03909116815260200161025b565b61021e6115a1565b61033061032b366004612b0a565b611809565b60405161025b9190612b73565b61028d6119fe565b610358610353366004612b0a565b611a7e565b604051901515815260200161025b565b6102fd610376366004612a0d565b611ae1565b6102d57f000000000000000000000000000000000000000000000000000000000000000081565b6103ab613e8081565b60405161ffff909116815260200161025b565b61021e611b19565b61021e6103d4366004612b0a565b611b2b565b6103586103e7366004612b0a565b60016020526000908152604090205460ff1681565b61021e61040a366004612c11565b611b55565b6000546001600160a01b03165b6040516001600160a01b03909116815260200161025b565b61021e610442366004612b0a565b611bba565b61028d610455366004612a0d565b611be9565b610358610468366004612c8f565b611c1a565b61035861047b366004612b0a565b6001600160a01b031660009081526001602052604090205460ff1690565b61021e6104a736600461298a565b611c52565b61028d6104ba366004612cbb565b611fb4565b6104e67f000000000000000000000000000000000000000000000000000000000000000081565b60405160ff909116815260200161025b565b61041c610506366004612a37565b6006602052600090815260409020546001600160a01b031681565b61028d600581565b6003546102fd90600160401b90046001600160401b031681565b610358610551366004612b0a565b6120cc565b610569610564366004612cf2565b61232b565b60405161025b9190612db8565b610589610584366004612b0a565b6124de565b60405161025b9190612dcb565b61028d61254a565b61021e6105ac366004612b0a565b612594565b6105b96125d2565b815161012c108015906105ce57508051609610155b6106185760405162461bcd60e51b815260206004820152601660248201527513585e0818da185c9858dd195c9cc81c995858da195960521b60448201526064015b60405180910390fd5b600854604051631292f8c160e31b81526001600160a01b0390911690639497c6089061064b906005903390600401612e30565b602060405180830381865afa158015610668573d6000803e3d6000fd5b505050506040513d601f19601f8201168201806040525081019061068c9190612e56565b6106cb5760405162461bcd60e51b815260206004820152601060248201526f27b7363c9021b7b73a3934b13aba37b960811b604482015260640161060f565b7f000000000000000000000000000000000000000000000000000000000000000063ffffffff166106fa6119fe565b116107575760405162461bcd60e51b815260206004820152602760248201527f5761697420756e74696c206e6578742065726120746f2061646420636f6e747260448201526634b13aba34b7b760c91b606482015260840161060f565b61076033611a7e565b6107a05760405162461bcd60e51b815260206004820152601160248201527010d85b89dd081c1d589b1a5cda081e595d607a1b604482015260640161060f565b600380546001600160401b03169060006107b983612e8e565b91906101000a8154816001600160401b0302191690836001600160401b03160217905550506003600881819054906101000a90046001600160401b03168092919061080390612e8e565b91906101000a8154816001600160401b0302191690836001600160401b03160217905550506000600360089054906101000a90046001600160401b03169050604051806101200160405280826001600160401b0316815260200161086561254a565b81523360208083019190915260408083018790526060808401879052600060808501819052600160a0860181905260c086018290524360e0909601959095526001600160401b03878116825260058552908390208651815467ffffffffffffffff1916921691909117815592850151938301939093558301516002820180546001600160a01b0319166001600160a01b039092169190911790559082015160038201906109129082612f42565b50608082015160048201906109279082612f42565b5060a0820151600582015560c082015160068201805460ff191691151591909117905560e08201516007808301919091556101009092015160089091015533600081815260209283526040812080546001810182559082529290206001600160401b03841692019190915561099b906125fa565b336001600160a01b0316816001600160401b03167fc6aae0d562ab183f7fbeb19b28e6ce69e68fa31da15096224a655f5d4c2e26c385436040516109e0929190613000565b60405180910390a3506109f36001600255565b5050565b3360009081526001602052604090205460ff16610a4b5760405162461bcd60e51b81526020600482015260126024820152712737ba1030b63637bbb2b21031b0b63632b960711b604482015260640161060f565b600c546001600160a01b0316338114610aa65760405162461bcd60e51b815260206004820152601e60248201527f43616c6c6572206d7573742062652073797374656d20636f6e74726163740000604482015260640161060f565b6001600160a01b038084166000908152600460209081526040808320815160e08101835281546001600160401b0381168252600160401b90049095169285019290925260018201805493949391840191610aff90612eb9565b80601f0160208091040260200160405190810160405280929190818152602001828054610b2b90612eb9565b8015610b785780601f10610b4d57610100808354040283529160200191610b78565b820191906000526020600020905b815481529060010190602001808311610b5b57829003601f168201915b50505050508152602001600282018054610b9190612eb9565b80601f0160208091040260200160405190810160405280929190818152602001828054610bbd90612eb9565b8015610c0a5780601f10610bdf57610100808354040283529160200191610c0a565b820191906000526020600020905b815481529060010190602001808311610bed57829003601f168201915b5050509183525050604080518082018252600384015481526004840154602082810191909152830152600583015490820152600690910154606090910152905082610c5a57608081015151610c5c565b825b6001600160a01b03851660009081526004602052604081206003018054909190610c87908490613022565b9091555050600954604051630c56ae4d60e11b81526001600160a01b03868116600483015260248201869052909116906318ad5c9a90604401600060405180830381600087803b158015610cda57600080fd5b505af1158015610cee573d6000803e3d6000fd5b50505060808201515160408051868152602081019290925243908201526001600160a01b03861691507f239c80638dc2cd0370d2c706ac5b3a71ce4a93927524d84ffeca938df5cb28989060600160405180910390a250505050565b60056020526000908152604090208054600182015460028301546003840180546001600160401b039094169492936001600160a01b039092169291610d8e90612eb9565b80601f0160208091040260200160405190810160405280929190818152602001828054610dba90612eb9565b8015610e075780601f10610ddc57610100808354040283529160200191610e07565b820191906000526020600020905b815481529060010190602001808311610dea57829003601f168201915b505050505090806004018054610e1c90612eb9565b80601f0160208091040260200160405190810160405280929190818152602001828054610e4890612eb9565b8015610e955780601f10610e6a57610100808354040283529160200191610e95565b820191906000526020600020905b815481529060010190602001808311610e7857829003601f168201915b505050506005830154600684015460078501546008909501549394919360ff909116925089565b610ec46125d2565b805161012c1015610f085760405162461bcd60e51b815260206004820152600e60248201526d4d6178206368617261637465727360901b604482015260640161060f565b600b546040516356fd539760e11b81523360048201526001600160a01b039091169063adfaa72e90602401602060405180830381865afa158015610f50573d6000803e3d6000fd5b505050506040513d601f19601f82011682018060405250810190610f749190612e56565b610fae5760405162461bcd60e51b815260206004820152600b60248201526a2737ba1030903b37ba32b960a91b604482015260640161060f565b600a54604051630d84466b60e21b81523360048201526001600160a01b039091169063361119ac90602401602060405180830381865afa158015610ff6573d6000803e3d6000fd5b505050506040513d601f19601f8201168201806040525081019061101a9190612e56565b61105e5760405162461bcd60e51b8152602060048201526015602482015274576169742074696d654265747765656e566f74657360581b604482015260640161060f565b6001600160401b0382166000908152600e6020908152604080832033845290915290205460ff16156110c25760405162461bcd60e51b815260206004820152600d60248201526c105b1c9958591e481d9bdd1959609a1b604482015260640161060f565b6001600160401b038083166000818152600e602090815260408083203384528252808320805460ff191660019081179091559383526005825280832081516101208101835281549096168652938401549185019190915260028301546001600160a01b0316908401526003820180549193929160608401919061114490612eb9565b80601f016020809104026020016040519081016040528092919081815260200182805461117090612eb9565b80156111bd5780601f10611192576101008083540402835291602001916111bd565b820191906000526020600020905b8154815290600101906020018083116111a057829003601f168201915b505050505081526020016004820180546111d690612eb9565b80601f016020809104026020016040519081016040528092919081815260200182805461120290612eb9565b801561124f5780601f106112245761010080835404028352916020019161124f565b820191906000526020600020905b81548152906001019060200180831161123257829003601f168201915b505050918352505060058201546020820152600682015460ff16151560408201526007820154606082015260089091015460809091015260c081015190915080156112a4575080602001516112a261254a565b145b6112f05760405162461bcd60e51b815260206004820152601e60248201527f5468697320636f6e747269627574696f6e206973206e6f742056414c49440000604482015260640161060f565b60018160a001818151611303919061303b565b9052506001600160401b038381166000908152600560209081526040918290208451815467ffffffffffffffff1916941693909317835583015160018301558201516002820180546001600160a01b0319166001600160a01b039092169190911790556060820151829190600382019061137d9082612f42565b50608082015160048201906113929082612f42565b5060a0820151600582015560c082015160068201805460ff191691151591909117905560e0820151600782015561010090910151600890910155600a54604080516369bf81c360e01b815290516000926001600160a01b0316916369bf81c39160048083019260209291908290030181865afa158015611416573d6000803e3d6000fd5b505050506040513d601f19601f8201168201806040525081019061143a919061304e565b90506001811161149f5760405162461bcd60e51b815260206004820152602a60248201527f56616c69646174696f6e207468726573686f6c642063616e6e6f74206265206c60448201526932b9b9903a3430b7101960b11b606482015260840161060f565b60a0820151811180159061152e576114b6836126fa565b925082604001516001600160a01b0316856001600160401b03167f877210aa63ada7585f903bc529a6691c6e70aeeb79dd69e7c16011733f8d33828661151587604001516001600160a01b03166000908152600d602052604090205490565b4360405161152593929190613067565b60405180910390a35b600a546040516347ec8e9760e01b81526001600160a01b03909116906347ec8e97906115629086908890339060040161308c565b600060405180830381600087803b15801561157c57600080fd5b505af1158015611590573d6000803e3d6000fd5b505050505050506109f36001600255565b6115a96125d2565b600854604051631292f8c160e31b81526001600160a01b0390911690639497c608906115dc906005903390600401612e30565b602060405180830381865afa1580156115f9573d6000803e3d6000fd5b505050506040513d601f19601f8201168201806040525081019061161d9190612e56565b6116695760405162461bcd60e51b815260206004820152601860248201527f506f6f6c206f6e6c7920746f20636f6e7472696275746f720000000000000000604482015260640161060f565b33600090815260046020819052604091829020808201546009549351637df42f8360e11b8152928301819052909290916001600160a01b039091169063fbe85f0690602401602060405180830381865afa1580156116cb573d6000803e3d6000fd5b505050506040513d601f19601f820116820180604052508101906116ef9190612e56565b6117495760405162461bcd60e51b815260206004820152602560248201527f4e6f7420656c696769626c6520746f20776974686472617720666f7220746869604482015264732065726160d81b606482015260840161060f565b60048201805490600061175b836130ca565b909155505060095460405163f3fef3a360e01b8152336004820152602481018390526001600160a01b039091169063f3fef3a390604401600060405180830381600087803b1580156117ac57600080fd5b505af11580156117c0573d6000803e3d6000fd5b50506040514381528392503391507fb40adf9f22b112880b7b93e1732c34e633b966b07e6348eda20450f7e9c114e79060200160405180910390a350506118076001600255565b565b6118576040805160e081018252600080825260208083018290526060838501819052808401528351808501909452818452830152906080820190815260200160008152602001600081525090565b6001600160a01b03808316600090815260046020908152604091829020825160e08101845281546001600160401b0381168252600160401b90049094169184019190915260018101805491928401916118af90612eb9565b80601f01602080910402602001604051908101604052809291908181526020018280546118db90612eb9565b80156119285780601f106118fd57610100808354040283529160200191611928565b820191906000526020600020905b81548152906001019060200180831161190b57829003601f168201915b5050505050815260200160028201805461194190612eb9565b80601f016020809104026020016040519081016040528092919081815260200182805461196d90612eb9565b80156119ba5780601f1061198f576101008083540402835291602001916119ba565b820191906000526020600020905b81548152906001019060200180831161199d57829003601f168201915b505050918352505060408051808201825260038401548152600484015460208281019190915283015260058301549082015260069091015460609091015292915050565b6009546000906001600160a01b031663d5ee3eb5611a1a61254a565b6040518263ffffffff1660e01b8152600401611a3891815260200190565b602060405180830381865afa158015611a55573d6000803e3d6000fd5b505050506040513d601f19601f82011682018060405250810190611a79919061304e565b905090565b6001600160a01b03811660009081526004602052604081206006015481611acb63ffffffff7f0000000000000000000000000000000000000000000000000000000000000000168361303b565b431190508080611ad9575081155b949350505050565b600d6020528160005260406000208181548110611afd57600080fd5b6000918252602090912001546001600160401b03169150829050565b611b2161280a565b6118076000612837565b611b3361280a565b600c80546001600160a01b0319166001600160a01b0392909216919091179055565b611b5d61280a565b8051600880546001600160a01b03199081166001600160a01b039384161790915560208301516009805483169184169190911790556040830151600a80548316918416919091179055606090920151600b80549093169116179055565b611bc261280a565b6001600160a01b03166000908152600160208190526040909120805460ff19169091179055565b60076020528160005260406000208181548110611c0557600080fd5b90600052602060002001600091509150505481565b600060058311611c2c57506001611c4b565b82600003611c3c57506000611c4b565b83611c4784846130e3565b1190505b9392505050565b8151603210801590611c6657508051609610155b611ca35760405162461bcd60e51b815260206004820152600e60248201526d4d6178206368617261637465727360901b604482015260640161060f565b600854604051632f22dc7b60e01b8152613e80916001600160a01b031690632f22dc7b90611cd6906005906004016130fa565b602060405180830381865afa158015611cf3573d6000803e3d6000fd5b505050506040513d601f19601f82011682018060405250810190611d17919061304e565b10611d555760405162461bcd60e51b815260206004820152600e60248201526d13585e081d5cd95c881b1a5b5a5d60921b604482015260640161060f565b60085460405162f5960960e51b81526000916001600160a01b031690631eb2c12090611d86906005906004016130fa565b602060405180830381865afa158015611da3573d6000803e3d6000fd5b505050506040513d601f19601f82011682018060405250810190611dc79190613108565b611dd2906001613125565b90506040518060e00160405280826001600160401b03168152602001336001600160a01b03168152602001848152602001838152602001604051806040016040528060008152602001611e2361254a565b9052815243602080830191909152600060409283018190523381526004825282902083518154928501516001600160a01b0316600160401b026001600160e01b03199093166001600160401b0390911617919091178155908201516001820190611e8d9082612f42565b5060608201516002820190611ea29082612f42565b5060808201518051600383015560209081015160048084019190915560a084015160058085019190915560c0909401516006938401556001600160401b03851660009081529290915260409182902080546001600160a01b031916339081179091556008549251639c3eead960e01b81526001600160a01b039390931693639c3eead993611f309301613144565b600060405180830381600087803b158015611f4a57600080fd5b505af1158015611f5e573d6000803e3d6000fd5b50505050336001600160a01b0316816001600160401b03167fc8261a89bb2ba1bec86e2467cbc6d7c91bcceef268691b418bc08e888e43f3388543604051611fa7929190613000565b60405180910390a3505050565b3360009081526001602052604081205460ff166120085760405162461bcd60e51b81526020600482015260126024820152712737ba1030b63637bbb2b21031b0b63632b960711b604482015260640161060f565b600c546001600160a01b03163381146120635760405162461bcd60e51b815260206004820152601e60248201527f43616c6c6572206d7573742062652073797374656d20636f6e74726163740000604482015260640161060f565b6001600160a01b0384166000818152600d6020818152604080842081518084019092526001600160401b038981168352815460018101835582875284872093519301805467ffffffffffffffff1916939091169290921790915593909252905254949350505050565b6001600160a01b038082166000908152600460209081526040808320815160e08101835281546001600160401b0381168252600160401b900490951692850192909252600182018054939485949093928401919061212990612eb9565b80601f016020809104026020016040519081016040528092919081815260200182805461215590612eb9565b80156121a25780601f10612177576101008083540402835291602001916121a2565b820191906000526020600020905b81548152906001019060200180831161218557829003601f168201915b505050505081526020016002820180546121bb90612eb9565b80601f01602080910402602001604051908101604052809291908181526020018280546121e790612eb9565b80156122345780601f1061220957610100808354040283529160200191612234565b820191906000526020600020905b81548152906001019060200180831161221757829003601f168201915b505050918352505060408051808201825260038401548152600484015460208281019190915283015260058301549082015260069091015460609091015280519091506001600160401b031661228d5750600092915050565b60035460085460405162f5960960e51b8152611c4b92600160401b90046001600160401b0316916001600160a01b031690631eb2c120906122d3906005906004016130fa565b602060405180830381865afa1580156122f0573d6000803e3d6000fd5b505050506040513d601f19601f820116820180604052508101906123149190613108565b6001600160401b0316836080015160000151611c1a565b612333612887565b6001600160401b038083166000908152600560209081526040918290208251610120810184528154909416845260018101549184019190915260028101546001600160a01b03169183019190915260038101805460608401919061239690612eb9565b80601f01602080910402602001604051908101604052809291908181526020018280546123c290612eb9565b801561240f5780601f106123e45761010080835404028352916020019161240f565b820191906000526020600020905b8154815290600101906020018083116123f257829003601f168201915b5050505050815260200160048201805461242890612eb9565b80601f016020809104026020016040519081016040528092919081815260200182805461245490612eb9565b80156124a15780601f10612476576101008083540402835291602001916124a1565b820191906000526020600020905b81548152906001019060200180831161248457829003601f168201915b505050918352505060058201546020820152600682015460ff16151560408201526007820154606082015260089091015460809091015292915050565b6001600160a01b03811660009081526007602090815260409182902080548351818402810184019094528084526060939283018282801561253e57602002820191906000526020600020905b81548152602001906001019080831161252a575b50505050509050919050565b60095460408051637686fbcf60e11b815290516000926001600160a01b03169163ed0df79e9160048083019260209291908290030181865afa158015611a55573d6000803e3d6000fd5b61259c61280a565b6001600160a01b0381166125c657604051631e4fbdf760e01b81526000600482015260240161060f565b6125cf81612837565b50565b60028054036125f457604051633ee5aeb560e01b815260040160405180910390fd5b60028055565b6001600160a01b0381166000908152600460205260408120805490916001600160401b03909116900361262b575050565b436006820155600381018054906000612643836130ca565b90915550506009546040516352b8d3ed60e01b81526001600160a01b03848116600483015260016024830152909116906352b8d3ed90604401600060405180830381600087803b15801561269657600080fd5b505af11580156126aa573d6000803e3d6000fd5b505050506003810154604080519182524360208301526001600160a01b038416917f98124a7baa4200982491adbb05ed4b64c8c04aab157bc086bfc71b96540a7e11910160405180910390a25050565b612702612887565b600380546001600160401b031690600061271b83613161565b82546101009290920a6001600160401b03818102199093169183160217909155600060c085018190524360e0860152845182168152600560209081526040918290208651815467ffffffffffffffff1916941693909317835585015160018301558401516002820180546001600160a01b0319166001600160a01b03909216919091179055606084015184925060038201906127b79082612f42565b50608082015160048201906127cc9082612f42565b5060a0820151600582015560c082015160068201805460ff191691151591909117905560e08201516007820155610100909101516008909101555090565b6000546001600160a01b031633146118075760405163118cdaa760e01b815233600482015260240161060f565b600080546001600160a01b038381166001600160a01b0319831681178455604051919092169283917f8be0079c531659141344cd1fd0a4f28419497f9722a3daafe3b4186f6b6457e09190a35050565b60405180610120016040528060006001600160401b031681526020016000815260200160006001600160a01b0316815260200160608152602001606081526020016000815260200160001515815260200160008152602001600081525090565b634e487b7160e01b600052604160045260246000fd5b600082601f83011261290e57600080fd5b81356001600160401b03811115612927576129276128e7565b604051601f8201601f19908116603f011681016001600160401b0381118282101715612955576129556128e7565b60405281815283820160200185101561296d57600080fd5b816020850160208301376000918101602001919091529392505050565b6000806040838503121561299d57600080fd5b82356001600160401b038111156129b357600080fd5b6129bf858286016128fd565b92505060208301356001600160401b038111156129db57600080fd5b6129e7858286016128fd565b9150509250929050565b80356001600160a01b0381168114612a0857600080fd5b919050565b60008060408385031215612a2057600080fd5b612a29836129f1565b946020939093013593505050565b600060208284031215612a4957600080fd5b5035919050565b6000815180845260005b81811015612a7657602081850181015186830182015201612a5a565b506000602082860101526020601f19601f83011685010191505092915050565b6001600160401b038a16815288602082015260018060a01b038816604082015261012060608201526000612ace610120830189612a50565b8281036080840152612ae08189612a50565b60a0840197909752505092151560c084015260e08301919091526101009091015295945050505050565b600060208284031215612b1c57600080fd5b611c4b826129f1565b6001600160401b03811681146125cf57600080fd5b60008060408385031215612b4d57600080fd5b8235612b5881612b25565b915060208301356001600160401b038111156129db57600080fd5b602081526001600160401b03825116602082015260018060a01b036020830151166040820152600060408301516101006060840152612bb6610120840182612a50565b90506060840151601f19848303016080850152612bd38282612a50565b9150506080840151612bf260a085018280518252602090810151910152565b5060a084015160e084015260c090930151610100909201919091525090565b60006080828403128015612c2457600080fd5b50604051608081016001600160401b0381118282101715612c4757612c476128e7565b604052612c53836129f1565b8152612c61602084016129f1565b6020820152612c72604084016129f1565b6040820152612c83606084016129f1565b60608201529392505050565b600080600060608486031215612ca457600080fd5b505081359360208301359350604090920135919050565b60008060408385031215612cce57600080fd5b612cd7836129f1565b91506020830135612ce781612b25565b809150509250929050565b600060208284031215612d0457600080fd5b8135611c4b81612b25565b80516001600160401b031682526020810151602083015260006040820151612d4260408501826001600160a01b03169052565b5060608201516101206060850152612d5e610120850182612a50565b905060808301518482036080860152612d778282612a50565b91505060a083015160a085015260c0830151612d9760c086018215159052565b5060e083015160e08501526101008301516101008501528091505092915050565b602081526000611c4b6020830184612d0f565b602080825282518282018190526000918401906040840190835b81811015612e03578351835260209384019390920191600101612de5565b509095945050505050565b60098110612e2c57634e487b7160e01b600052602160045260246000fd5b9052565b60408101612e3e8285612e0e565b6001600160a01b039290921660209190910152919050565b600060208284031215612e6857600080fd5b81518015158114611c4b57600080fd5b634e487b7160e01b600052601160045260246000fd5b60006001600160401b0382166001600160401b038103612eb057612eb0612e78565b60010192915050565b600181811c90821680612ecd57607f821691505b602082108103612eed57634e487b7160e01b600052602260045260246000fd5b50919050565b601f821115612f3d57806000526020600020601f840160051c81016020851015612f1a5750805b601f840160051c820191505b81811015612f3a5760008155600101612f26565b50505b505050565b81516001600160401b03811115612f5b57612f5b6128e7565b612f6f81612f698454612eb9565b84612ef3565b6020601f821160018114612fa35760008315612f8b5750848201515b600019600385901b1c1916600184901b178455612f3a565b600084815260208120601f198516915b82811015612fd35787850151825560209485019460019092019101612fb3565b5084821015612ff15786840151600019600387901b60f8161c191681555b50505050600190811b01905550565b6040815260006130136040830185612a50565b90508260208301529392505050565b8181038181111561303557613035612e78565b92915050565b8082018082111561303557613035612e78565b60006020828403121561306057600080fd5b5051919050565b60608152600061307a6060830186612a50565b60208301949094525060400152919050565b60608152600061309f6060830186612d0f565b82810360208401526130b18186612a50565b91505060018060a01b0383166040830152949350505050565b6000600182016130dc576130dc612e78565b5060010190565b808202811582820484141761303557613035612e78565b602081016130358284612e0e565b60006020828403121561311a57600080fd5b8151611c4b81612b25565b6001600160401b03818116838216019081111561303557613035612e78565b6001600160a01b038316815260408101611c4b6020830184612e0e565b60006001600160401b0382168061317a5761317a612e78565b600019019291505056fea264697066735822122077ef0ab3810b0464c3ba1295103672adcae1157774a75edb7980ce18c187834364736f6c634300081b0033",
  "linkReferences": {},
  "deployedLinkReferences": {}
}