{
  "_format": "hh-sol-artifact-1",
  "contractName": "ContributorRules",
  "sourceName": "contracts/ContributorRules.sol",
  "abi": [
    {
      "inputs": [
        {
          "internalType": "address",
          "name": "communityRulesAddress",
          "type": "address"
        },
        {
          "internalType": "address",
          "name": "contributorPoolAddress",
          "type": "address"
        },
        {
          "internalType": "uint256",
          "name": "timeBetweenWorks_",
          "type": "uint256"
        },
        {
          "internalType": "uint256",
          "name": "securityBlocksToValidatorAnalysis",
          "type": "uint256"
        }
      ],
      "stateMutability": "nonpayable",
      "type": "constructor"
    },
    {
      "anonymous": false,
      "inputs": [
        {
          "indexed": true,
          "internalType": "address",
          "name": "previousOwner",
          "type": "address"
        },
        {
          "indexed": true,
          "internalType": "address",
          "name": "newOwner",
          "type": "address"
        }
      ],
      "name": "OwnershipTransferred",
      "type": "event"
    },
    {
      "inputs": [],
      "name": "SECURITY_BLOCKS_TO_VALIDATOR_ANALYSIS",
      "outputs": [
        {
          "internalType": "uint256",
          "name": "",
          "type": "uint256"
        }
      ],
      "stateMutability": "view",
      "type": "function"
    },
    {
      "inputs": [
        {
          "internalType": "string",
          "name": "description",
          "type": "string"
        },
        {
          "internalType": "string",
          "name": "report",
          "type": "string"
        }
      ],
      "name": "addContribution",
      "outputs": [],
      "stateMutability": "nonpayable",
      "type": "function"
    },
    {
      "inputs": [
        {
          "internalType": "string",
          "name": "name",
          "type": "string"
        },
        {
          "internalType": "string",
          "name": "proofPhoto",
          "type": "string"
        }
      ],
      "name": "addContributor",
      "outputs": [],
      "stateMutability": "nonpayable",
      "type": "function"
    },
    {
      "inputs": [
        {
          "internalType": "address",
          "name": "",
          "type": "address"
        }
      ],
      "name": "allowedCallers",
      "outputs": [
        {
          "internalType": "bool",
          "name": "",
          "type": "bool"
        }
      ],
      "stateMutability": "view",
      "type": "function"
    },
    {
      "inputs": [
        {
          "internalType": "uint256",
          "name": "totalLevels",
          "type": "uint256"
        },
        {
          "internalType": "uint256",
          "name": "totalUsers",
          "type": "uint256"
        },
        {
          "internalType": "uint256",
          "name": "userLevels",
          "type": "uint256"
        }
      ],
      "name": "canInvite",
      "outputs": [
        {
          "internalType": "bool",
          "name": "",
          "type": "bool"
        }
      ],
      "stateMutability": "pure",
      "type": "function"
    },
    {
      "inputs": [
        {
          "internalType": "address",
          "name": "addr",
          "type": "address"
        }
      ],
      "name": "canSendInvite",
      "outputs": [
        {
          "internalType": "bool",
          "name": "",
          "type": "bool"
        }
      ],
      "stateMutability": "view",
      "type": "function"
    },
    {
      "inputs": [
        {
          "internalType": "uint256",
          "name": "",
          "type": "uint256"
        }
      ],
      "name": "contributions",
      "outputs": [
        {
          "internalType": "uint256",
          "name": "id",
          "type": "uint256"
        },
        {
          "internalType": "uint256",
          "name": "era",
          "type": "uint256"
        },
        {
          "internalType": "address",
          "name": "user",
          "type": "address"
        },
        {
          "internalType": "uint256",
          "name": "level",
          "type": "uint256"
        },
        {
          "internalType": "string",
          "name": "description",
          "type": "string"
        },
        {
          "internalType": "string",
          "name": "report",
          "type": "string"
        },
        {
          "internalType": "uint256",
          "name": "createdAtBlockNumber",
          "type": "uint256"
        }
      ],
      "stateMutability": "view",
      "type": "function"
    },
    {
      "inputs": [],
      "name": "contributionsCount",
      "outputs": [
        {
          "internalType": "uint256",
          "name": "",
          "type": "uint256"
        }
      ],
      "stateMutability": "view",
      "type": "function"
    },
    {
      "inputs": [
        {
          "internalType": "address",
          "name": "addr",
          "type": "address"
        }
      ],
      "name": "contributorExists",
      "outputs": [
        {
          "internalType": "bool",
          "name": "",
          "type": "bool"
        }
      ],
      "stateMutability": "view",
      "type": "function"
    },
    {
      "inputs": [
        {
          "internalType": "address",
          "name": "",
          "type": "address"
        }
      ],
      "name": "contributors",
      "outputs": [
        {
          "internalType": "uint256",
          "name": "id",
          "type": "uint256"
        },
        {
          "internalType": "address",
          "name": "contributorWallet",
          "type": "address"
        },
        {
          "internalType": "string",
          "name": "name",
          "type": "string"
        },
        {
          "internalType": "string",
          "name": "proofPhoto",
          "type": "string"
        },
        {
          "components": [
            {
              "internalType": "uint256",
              "name": "level",
              "type": "uint256"
            },
            {
              "internalType": "uint256",
              "name": "currentEra",
              "type": "uint256"
            }
          ],
          "internalType": "struct Pool",
          "name": "pool",
          "type": "tuple"
        },
        {
          "internalType": "uint256",
          "name": "createdAt",
          "type": "uint256"
        },
        {
          "internalType": "uint256",
          "name": "lastPublishedAt",
          "type": "uint256"
        }
      ],
      "stateMutability": "view",
      "type": "function"
    },
    {
      "inputs": [
        {
          "internalType": "uint256",
          "name": "",
          "type": "uint256"
        }
      ],
      "name": "contributorsAddress",
      "outputs": [
        {
          "internalType": "address",
          "name": "",
          "type": "address"
        }
      ],
      "stateMutability": "view",
      "type": "function"
    },
    {
      "inputs": [
        {
          "internalType": "uint256",
          "name": "id",
          "type": "uint256"
        }
      ],
      "name": "getContribution",
      "outputs": [
        {
          "components": [
            {
              "internalType": "uint256",
              "name": "id",
              "type": "uint256"
            },
            {
              "internalType": "uint256",
              "name": "era",
              "type": "uint256"
            },
            {
              "internalType": "address",
              "name": "user",
              "type": "address"
            },
            {
              "internalType": "uint256",
              "name": "level",
              "type": "uint256"
            },
            {
              "internalType": "string",
              "name": "description",
              "type": "string"
            },
            {
              "internalType": "string",
              "name": "report",
              "type": "string"
            },
            {
              "internalType": "uint256",
              "name": "createdAtBlockNumber",
              "type": "uint256"
            }
          ],
          "internalType": "struct Contribution",
          "name": "",
          "type": "tuple"
        }
      ],
      "stateMutability": "view",
      "type": "function"
    },
    {
      "inputs": [
        {
          "internalType": "address",
          "name": "addr",
          "type": "address"
        }
      ],
      "name": "getContributor",
      "outputs": [
        {
          "components": [
            {
              "internalType": "uint256",
              "name": "id",
              "type": "uint256"
            },
            {
              "internalType": "address",
              "name": "contributorWallet",
              "type": "address"
            },
            {
              "internalType": "string",
              "name": "name",
              "type": "string"
            },
            {
              "internalType": "string",
              "name": "proofPhoto",
              "type": "string"
            },
            {
              "components": [
                {
                  "internalType": "uint256",
                  "name": "level",
                  "type": "uint256"
                },
                {
                  "internalType": "uint256",
                  "name": "currentEra",
                  "type": "uint256"
                }
              ],
              "internalType": "struct Pool",
              "name": "pool",
              "type": "tuple"
            },
            {
              "internalType": "uint256",
              "name": "createdAt",
              "type": "uint256"
            },
            {
              "internalType": "uint256",
              "name": "lastPublishedAt",
              "type": "uint256"
            }
          ],
          "internalType": "struct Contributor",
          "name": "contributor",
          "type": "tuple"
        }
      ],
      "stateMutability": "view",
      "type": "function"
    },
    {
      "inputs": [
        {
          "internalType": "address",
          "name": "caller",
          "type": "address"
        }
      ],
      "name": "isAllowedCaller",
      "outputs": [
        {
          "internalType": "bool",
          "name": "",
          "type": "bool"
        }
      ],
      "stateMutability": "view",
      "type": "function"
    },
    {
      "inputs": [
        {
          "internalType": "address",
          "name": "allowed",
          "type": "address"
        }
      ],
      "name": "newAllowedCaller",
      "outputs": [],
      "stateMutability": "nonpayable",
      "type": "function"
    },
    {
      "inputs": [],
      "name": "nextEraIn",
      "outputs": [
        {
          "internalType": "uint256",
          "name": "",
          "type": "uint256"
        }
      ],
      "stateMutability": "view",
      "type": "function"
    },
    {
      "inputs": [],
      "name": "owner",
      "outputs": [
        {
          "internalType": "address",
          "name": "",
          "type": "address"
        }
      ],
      "stateMutability": "view",
      "type": "function"
    },
    {
      "inputs": [
        {
          "internalType": "address",
          "name": "addr",
          "type": "address"
        },
        {
          "internalType": "uint256",
          "name": "removeSomeLevels",
          "type": "uint256"
        }
      ],
      "name": "removePoolLevels",
      "outputs": [],
      "stateMutability": "nonpayable",
      "type": "function"
    },
    {
      "inputs": [],
      "name": "renounceOwnership",
      "outputs": [],
      "stateMutability": "nonpayable",
      "type": "function"
    },
    {
      "inputs": [
        {
          "internalType": "address",
          "name": "newOwner",
          "type": "address"
        }
      ],
      "name": "transferOwnership",
      "outputs": [],
      "stateMutability": "nonpayable",
      "type": "function"
    },
    {
      "inputs": [],
      "name": "withdraw",
      "outputs": [],
      "stateMutability": "nonpayable",
      "type": "function"
    }
  ],
  "bytecode": "0x60c060405234801561001057600080fd5b50604051613b2d380380613b2d8339818101604052810190610032919061024e565b61004e6100436100e960201b60201c565b6100f160201b60201c565b83600560006101000a81548173ffffffffffffffffffffffffffffffffffffffff021916908373ffffffffffffffffffffffffffffffffffffffff16021790555082600660006101000a81548173ffffffffffffffffffffffffffffffffffffffff021916908373ffffffffffffffffffffffffffffffffffffffff16021790555081608081815250508060a08181525050505050506102b5565b600033905090565b60008060009054906101000a900473ffffffffffffffffffffffffffffffffffffffff169050816000806101000a81548173ffffffffffffffffffffffffffffffffffffffff021916908373ffffffffffffffffffffffffffffffffffffffff1602179055508173ffffffffffffffffffffffffffffffffffffffff168173ffffffffffffffffffffffffffffffffffffffff167f8be0079c531659141344cd1fd0a4f28419497f9722a3daafe3b4186f6b6457e060405160405180910390a35050565b600080fd5b600073ffffffffffffffffffffffffffffffffffffffff82169050919050565b60006101e5826101ba565b9050919050565b6101f5816101da565b811461020057600080fd5b50565b600081519050610212816101ec565b92915050565b6000819050919050565b61022b81610218565b811461023657600080fd5b50565b60008151905061024881610222565b92915050565b60008060008060808587031215610268576102676101b5565b5b600061027687828801610203565b945050602061028787828801610203565b935050604061029887828801610239565b92505060606102a987828801610239565b91505092959194509250565b60805160a05161384c6102e16000396000818161052001526115c801526000611f63015261384c6000f3fe608060405234801561001057600080fd5b50600436106101375760003560e01c80638da5cb5b116100b8578063b0fd59f31161007c578063b0fd59f314610348578063b1824a5114610364578063b7e9777714610394578063c77c1ce6146103c4578063cef42254146103f4578063f2fde38b1461042457610137565b80638da5cb5b146102905780638f93716f146102ae57806397705d60146102ca5780639eaf666f146102e8578063a68012581461031857610137565b80633ccfd60b116100ff5780633ccfd60b146101fe5780633d8270f514610208578063582256f114610238578063715018a6146102565780637b3341541461026057610137565b8063129de9651461013c57806318ad5c9a146101585780631cee0700146101745780631f6d4942146101aa57806338658175146101e0575b600080fd5b6101566004803603810190610151919061278d565b610440565b005b610172600480360381019061016d9190612899565b610742565b005b61018e600480360381019061018991906128d9565b610a7a565b6040516101a197969594939291906129a3565b60405180910390f35b6101c460048036038101906101bf9190612a20565b610bec565b6040516101d79796959493929190612a8b565b60405180910390f35b6101e8610d7c565b6040516101f59190612b09565b60405180910390f35b610206610d82565b005b610222600480360381019061021d9190612a20565b611244565b60405161022f9190612c50565b60405180910390f35b61024061145d565b60405161024d9190612b09565b60405180910390f35b61025e611507565b005b61027a60048036038101906102759190612a20565b61151b565b6040516102879190612c8d565b60405180910390f35b61029861153b565b6040516102a59190612ca8565b60405180910390f35b6102c860048036038101906102c39190612a20565b611564565b005b6102d26115c6565b6040516102df9190612b09565b60405180910390f35b61030260048036038101906102fd9190612cc3565b6115ea565b60405161030f9190612c8d565b60405180910390f35b610332600480360381019061032d9190612a20565b611623565b60405161033f9190612c8d565b60405180910390f35b610362600480360381019061035d919061278d565b611679565b005b61037e60048036038101906103799190612a20565b611965565b60405161038b9190612c8d565b60405180910390f35b6103ae60048036038101906103a991906128d9565b6119b3565b6040516103bb9190612ca8565b60405180910390f35b6103de60048036038101906103d99190612a20565b6119e6565b6040516103eb9190612c8d565b60405180910390f35b61040e600480360381019061040991906128d9565b611cc5565b60405161041b9190612db9565b60405180910390f35b61043e60048036038101906104399190612a20565b611e94565b005b600560009054906101000a900473ffffffffffffffffffffffffffffffffffffffff1673ffffffffffffffffffffffffffffffffffffffff16639497c6086005336040518363ffffffff1660e01b815260040161049e929190612e52565b602060405180830381865afa1580156104bb573d6000803e3d6000fd5b505050506040513d601f19601f820116820180604052508101906104df9190612ea7565b61051e576040517f08c379a000000000000000000000000000000000000000000000000000000000815260040161051590612f20565b60405180910390fd5b7f000000000000000000000000000000000000000000000000000000000000000061054761145d565b11610587576040517f08c379a000000000000000000000000000000000000000000000000000000000815260040161057e90612fb2565b60405180910390fd5b61059033611f17565b6105cf576040517f08c379a00000000000000000000000000000000000000000000000000000000081526004016105c69061301e565b60405180910390fd5b600760008154809291906105e29061306d565b9190505550600060075490506040518060e00160405280828152602001610607611fa6565b81526020013373ffffffffffffffffffffffffffffffffffffffff168152602001600260003373ffffffffffffffffffffffffffffffffffffffff1673ffffffffffffffffffffffffffffffffffffffff1681526020019081526020016000206004016000015481526020018481526020018381526020014381525060036000838152602001908152602001600020600082015181600001556020820151816001015560408201518160020160006101000a81548173ffffffffffffffffffffffffffffffffffffffff021916908373ffffffffffffffffffffffffffffffffffffffff16021790555060608201518160030155608082015181600401908161071091906132c1565b5060a082015181600501908161072691906132c1565b5060c0820151816006015590505061073d3361203e565b505050565b600160003373ffffffffffffffffffffffffffffffffffffffff1673ffffffffffffffffffffffffffffffffffffffff16815260200190815260200160002060009054906101000a900460ff166107ce576040517f08c379a00000000000000000000000000000000000000000000000000000000081526004016107c5906133df565b60405180910390fd5b6000600260008473ffffffffffffffffffffffffffffffffffffffff1673ffffffffffffffffffffffffffffffffffffffff1681526020019081526020016000206040518060e0016040529081600082015481526020016001820160009054906101000a900473ffffffffffffffffffffffffffffffffffffffff1673ffffffffffffffffffffffffffffffffffffffff1673ffffffffffffffffffffffffffffffffffffffff16815260200160028201805461088a906130e4565b80601f01602080910402602001604051908101604052809291908181526020018280546108b6906130e4565b80156109035780601f106108d857610100808354040283529160200191610903565b820191906000526020600020905b8154815290600101906020018083116108e657829003601f168201915b5050505050815260200160038201805461091c906130e4565b80601f0160208091040260200160405190810160405280929190818152602001828054610948906130e4565b80156109955780601f1061096a57610100808354040283529160200191610995565b820191906000526020600020905b81548152906001019060200180831161097857829003601f168201915b5050505050815260200160048201604051806040016040529081600082015481526020016001820154815250508152602001600682015481526020016007820154815250509050600660009054906101000a900473ffffffffffffffffffffffffffffffffffffffff1673ffffffffffffffffffffffffffffffffffffffff1663157ffc5284836080015160200151856040518463ffffffff1660e01b8152600401610a43939291906133ff565b600060405180830381600087803b158015610a5d57600080fd5b505af1158015610a71573d6000803e3d6000fd5b50505050505050565b60036020528060005260406000206000915090508060000154908060010154908060020160009054906101000a900473ffffffffffffffffffffffffffffffffffffffff1690806003015490806004018054610ad5906130e4565b80601f0160208091040260200160405190810160405280929190818152602001828054610b01906130e4565b8015610b4e5780601f10610b2357610100808354040283529160200191610b4e565b820191906000526020600020905b815481529060010190602001808311610b3157829003601f168201915b505050505090806005018054610b63906130e4565b80601f0160208091040260200160405190810160405280929190818152602001828054610b8f906130e4565b8015610bdc5780601f10610bb157610100808354040283529160200191610bdc565b820191906000526020600020905b815481529060010190602001808311610bbf57829003601f168201915b5050505050908060060154905087565b60026020528060005260406000206000915090508060000154908060010160009054906101000a900473ffffffffffffffffffffffffffffffffffffffff1690806002018054610c3b906130e4565b80601f0160208091040260200160405190810160405280929190818152602001828054610c67906130e4565b8015610cb45780601f10610c8957610100808354040283529160200191610cb4565b820191906000526020600020905b815481529060010190602001808311610c9757829003601f168201915b505050505090806003018054610cc9906130e4565b80601f0160208091040260200160405190810160405280929190818152602001828054610cf5906130e4565b8015610d425780601f10610d1757610100808354040283529160200191610d42565b820191906000526020600020905b815481529060010190602001808311610d2557829003601f168201915b5050505050908060040160405180604001604052908160008201548152602001600182015481525050908060060154908060070154905087565b60075481565b600560009054906101000a900473ffffffffffffffffffffffffffffffffffffffff1673ffffffffffffffffffffffffffffffffffffffff16639497c6086005336040518363ffffffff1660e01b8152600401610de0929190612e52565b602060405180830381865afa158015610dfd573d6000803e3d6000fd5b505050506040513d601f19601f82011682018060405250810190610e219190612ea7565b610e60576040517f08c379a0000000000000000000000000000000000000000000000000000000008152600401610e5790613482565b60405180910390fd5b6000600260003373ffffffffffffffffffffffffffffffffffffffff1673ffffffffffffffffffffffffffffffffffffffff1681526020019081526020016000206040518060e0016040529081600082015481526020016001820160009054906101000a900473ffffffffffffffffffffffffffffffffffffffff1673ffffffffffffffffffffffffffffffffffffffff1673ffffffffffffffffffffffffffffffffffffffff168152602001600282018054610f1c906130e4565b80601f0160208091040260200160405190810160405280929190818152602001828054610f48906130e4565b8015610f955780601f10610f6a57610100808354040283529160200191610f95565b820191906000526020600020905b815481529060010190602001808311610f7857829003601f168201915b50505050508152602001600382018054610fae906130e4565b80601f0160208091040260200160405190810160405280929190818152602001828054610fda906130e4565b80156110275780601f10610ffc57610100808354040283529160200191611027565b820191906000526020600020905b81548152906001019060200180831161100a57829003601f168201915b505050505081526020016004820160405180604001604052908160008201548152602001600182015481525050815260200160068201548152602001600782015481525050905060008160800151602001519050600660009054906101000a900473ffffffffffffffffffffffffffffffffffffffff1673ffffffffffffffffffffffffffffffffffffffff1663fbe85f06826040518263ffffffff1660e01b81526004016110d69190612b09565b602060405180830381865afa1580156110f3573d6000803e3d6000fd5b505050506040513d601f19601f820116820180604052508101906111179190612ea7565b611156576040517f08c379a000000000000000000000000000000000000000000000000000000000815260040161114d906134ee565b60405180910390fd5b600260003373ffffffffffffffffffffffffffffffffffffffff1673ffffffffffffffffffffffffffffffffffffffff16815260200190815260200160002060040160010160008154809291906111ac9061306d565b9190505550600660009054906101000a900473ffffffffffffffffffffffffffffffffffffffff1673ffffffffffffffffffffffffffffffffffffffff1663f3fef3a333836040518363ffffffff1660e01b815260040161120e92919061350e565b600060405180830381600087803b15801561122857600080fd5b505af115801561123c573d6000803e3d6000fd5b505050505050565b61124c61256d565b600260008373ffffffffffffffffffffffffffffffffffffffff1673ffffffffffffffffffffffffffffffffffffffff1681526020019081526020016000206040518060e0016040529081600082015481526020016001820160009054906101000a900473ffffffffffffffffffffffffffffffffffffffff1673ffffffffffffffffffffffffffffffffffffffff1673ffffffffffffffffffffffffffffffffffffffff168152602001600282018054611306906130e4565b80601f0160208091040260200160405190810160405280929190818152602001828054611332906130e4565b801561137f5780601f106113545761010080835404028352916020019161137f565b820191906000526020600020905b81548152906001019060200180831161136257829003601f168201915b50505050508152602001600382018054611398906130e4565b80601f01602080910402602001604051908101604052809291908181526020018280546113c4906130e4565b80156114115780601f106113e657610100808354040283529160200191611411565b820191906000526020600020905b8154815290600101906020018083116113f457829003601f168201915b5050505050815260200160048201604051806040016040529081600082015481526020016001820154815250508152602001600682015481526020016007820154815250509050919050565b6000600660009054906101000a900473ffffffffffffffffffffffffffffffffffffffff1673ffffffffffffffffffffffffffffffffffffffff1663d5ee3eb56114a5611fa6565b6040518263ffffffff1660e01b81526004016114c19190612b09565b602060405180830381865afa1580156114de573d6000803e3d6000fd5b505050506040513d601f19601f82011682018060405250810190611502919061356d565b905090565b61150f6123f7565b6115196000612475565b565b60016020528060005260406000206000915054906101000a900460ff1681565b60008060009054906101000a900473ffffffffffffffffffffffffffffffffffffffff16905090565b61156c6123f7565b60018060008373ffffffffffffffffffffffffffffffffffffffff1673ffffffffffffffffffffffffffffffffffffffff16815260200190815260200160002060006101000a81548160ff02191690831515021790555050565b7f000000000000000000000000000000000000000000000000000000000000000081565b6000806116136001611605868861253990919063ffffffff16565b61254f90919063ffffffff16565b9050808310159150509392505050565b6000600160008373ffffffffffffffffffffffffffffffffffffffff1673ffffffffffffffffffffffffffffffffffffffff16815260200190815260200160002060009054906101000a900460ff169050919050565b60006001600560009054906101000a900473ffffffffffffffffffffffffffffffffffffffff1673ffffffffffffffffffffffffffffffffffffffff16631eb2c12060056040518263ffffffff1660e01b81526004016116d9919061359a565b602060405180830381865afa1580156116f6573d6000803e3d6000fd5b505050506040513d601f19601f8201168201806040525081019061171a91906135ca565b61172491906135f7565b90506040518060e001604052808281526020013373ffffffffffffffffffffffffffffffffffffffff168152602001848152602001838152602001604051806040016040528060008152602001611779611fa6565b81525081526020014381526020016000815250600260003373ffffffffffffffffffffffffffffffffffffffff1673ffffffffffffffffffffffffffffffffffffffff1681526020019081526020016000206000820151816000015560208201518160010160006101000a81548173ffffffffffffffffffffffffffffffffffffffff021916908373ffffffffffffffffffffffffffffffffffffffff160217905550604082015181600201908161183191906132c1565b50606082015181600301908161184791906132c1565b506080820151816004016000820151816000015560208201518160010155505060a0820151816006015560c08201518160070155905050336004600083815260200190815260200160002060006101000a81548173ffffffffffffffffffffffffffffffffffffffff021916908373ffffffffffffffffffffffffffffffffffffffff160217905550600560009054906101000a900473ffffffffffffffffffffffffffffffffffffffff1673ffffffffffffffffffffffffffffffffffffffff16639c3eead93360056040518363ffffffff1660e01b815260040161192e92919061362b565b600060405180830381600087803b15801561194857600080fd5b505af115801561195c573d6000803e3d6000fd5b50505050505050565b600080600260008473ffffffffffffffffffffffffffffffffffffffff1673ffffffffffffffffffffffffffffffffffffffff16815260200190815260200160002060000154119050919050565b60046020528060005260406000206000915054906101000a900473ffffffffffffffffffffffffffffffffffffffff1681565b600080600260008473ffffffffffffffffffffffffffffffffffffffff1673ffffffffffffffffffffffffffffffffffffffff1681526020019081526020016000206040518060e0016040529081600082015481526020016001820160009054906101000a900473ffffffffffffffffffffffffffffffffffffffff1673ffffffffffffffffffffffffffffffffffffffff1673ffffffffffffffffffffffffffffffffffffffff168152602001600282018054611aa3906130e4565b80601f0160208091040260200160405190810160405280929190818152602001828054611acf906130e4565b8015611b1c5780601f10611af157610100808354040283529160200191611b1c565b820191906000526020600020905b815481529060010190602001808311611aff57829003601f168201915b50505050508152602001600382018054611b35906130e4565b80601f0160208091040260200160405190810160405280929190818152602001828054611b61906130e4565b8015611bae5780601f10611b8357610100808354040283529160200191611bae565b820191906000526020600020905b815481529060010190602001808311611b9157829003601f168201915b50505050508152602001600482016040518060400160405290816000820154815260200160018201548152505081526020016006820154815260200160078201548152505090506000816000015111611c0b576000915050611cc0565b611cbc600754600560009054906101000a900473ffffffffffffffffffffffffffffffffffffffff1673ffffffffffffffffffffffffffffffffffffffff16631eb2c12060056040518263ffffffff1660e01b8152600401611c6d919061359a565b602060405180830381865afa158015611c8a573d6000803e3d6000fd5b505050506040513d601f19601f82011682018060405250810190611cae91906135ca565b8360800151600001516115ea565b9150505b919050565b611ccd6125c6565b600360008381526020019081526020016000206040518060e001604052908160008201548152602001600182015481526020016002820160009054906101000a900473ffffffffffffffffffffffffffffffffffffffff1673ffffffffffffffffffffffffffffffffffffffff1673ffffffffffffffffffffffffffffffffffffffff16815260200160038201548152602001600482018054611d6f906130e4565b80601f0160208091040260200160405190810160405280929190818152602001828054611d9b906130e4565b8015611de85780601f10611dbd57610100808354040283529160200191611de8565b820191906000526020600020905b815481529060010190602001808311611dcb57829003601f168201915b50505050508152602001600582018054611e01906130e4565b80601f0160208091040260200160405190810160405280929190818152602001828054611e2d906130e4565b8015611e7a5780601f10611e4f57610100808354040283529160200191611e7a565b820191906000526020600020905b815481529060010190602001808311611e5d57829003601f168201915b505050505081526020016006820154815250509050919050565b611e9c6123f7565b600073ffffffffffffffffffffffffffffffffffffffff168173ffffffffffffffffffffffffffffffffffffffff1603611f0b576040517f08c379a0000000000000000000000000000000000000000000000000000000008152600401611f02906136c6565b60405180910390fd5b611f1481612475565b50565b600080600260008473ffffffffffffffffffffffffffffffffffffffff1673ffffffffffffffffffffffffffffffffffffffff16815260200190815260200160002060070154905060007f000000000000000000000000000000000000000000000000000000000000000082611f8d91906135f7565b431190508080611f9d5750600082145b92505050919050565b6000600660009054906101000a900473ffffffffffffffffffffffffffffffffffffffff1673ffffffffffffffffffffffffffffffffffffffff1663ed0df79e6040518163ffffffff1660e01b8152600401602060405180830381865afa158015612015573d6000803e3d6000fd5b505050506040513d601f19601f8201168201806040525081019061203991906135ca565b905090565b6000600260008373ffffffffffffffffffffffffffffffffffffffff1673ffffffffffffffffffffffffffffffffffffffff1681526020019081526020016000206040518060e0016040529081600082015481526020016001820160009054906101000a900473ffffffffffffffffffffffffffffffffffffffff1673ffffffffffffffffffffffffffffffffffffffff1673ffffffffffffffffffffffffffffffffffffffff1681526020016002820180546120fa906130e4565b80601f0160208091040260200160405190810160405280929190818152602001828054612126906130e4565b80156121735780601f1061214857610100808354040283529160200191612173565b820191906000526020600020905b81548152906001019060200180831161215657829003601f168201915b5050505050815260200160038201805461218c906130e4565b80601f01602080910402602001604051908101604052809291908181526020018280546121b8906130e4565b80156122055780601f106121da57610100808354040283529160200191612205565b820191906000526020600020905b8154815290600101906020018083116121e857829003601f168201915b5050505050815260200160048201604051806040016040529081600082015481526020016001820154815250508152602001600682015481526020016007820154815250509050438160c00181815250508060800151600001805180919061226c9061306d565b8152505080600260008473ffffffffffffffffffffffffffffffffffffffff1673ffffffffffffffffffffffffffffffffffffffff1681526020019081526020016000206000820151816000015560208201518160010160006101000a81548173ffffffffffffffffffffffffffffffffffffffff021916908373ffffffffffffffffffffffffffffffffffffffff160217905550604082015181600201908161231691906132c1565b50606082015181600301908161232c91906132c1565b506080820151816004016000820151816000015560208201518160010155505060a0820151816006015560c08201518160070155905050600660009054906101000a900473ffffffffffffffffffffffffffffffffffffffff1673ffffffffffffffffffffffffffffffffffffffff166352b8d3ed8360016040518363ffffffff1660e01b81526004016123c1929190613721565b600060405180830381600087803b1580156123db57600080fd5b505af11580156123ef573d6000803e3d6000fd5b505050505050565b6123ff612565565b73ffffffffffffffffffffffffffffffffffffffff1661241d61153b565b73ffffffffffffffffffffffffffffffffffffffff1614612473576040517f08c379a000000000000000000000000000000000000000000000000000000000815260040161246a90613796565b60405180910390fd5b565b60008060009054906101000a900473ffffffffffffffffffffffffffffffffffffffff169050816000806101000a81548173ffffffffffffffffffffffffffffffffffffffff021916908373ffffffffffffffffffffffffffffffffffffffff1602179055508173ffffffffffffffffffffffffffffffffffffffff168173ffffffffffffffffffffffffffffffffffffffff167f8be0079c531659141344cd1fd0a4f28419497f9722a3daafe3b4186f6b6457e060405160405180910390a35050565b6000818361254791906137e5565b905092915050565b6000818361255d91906135f7565b905092915050565b600033905090565b6040518060e0016040528060008152602001600073ffffffffffffffffffffffffffffffffffffffff16815260200160608152602001606081526020016125b2612619565b815260200160008152602001600081525090565b6040518060e001604052806000815260200160008152602001600073ffffffffffffffffffffffffffffffffffffffff168152602001600081526020016060815260200160608152602001600081525090565b604051806040016040528060008152602001600081525090565b6000604051905090565b600080fd5b600080fd5b600080fd5b600080fd5b6000601f19601f8301169050919050565b7f4e487b7100000000000000000000000000000000000000000000000000000000600052604160045260246000fd5b61269a82612651565b810181811067ffffffffffffffff821117156126b9576126b8612662565b5b80604052505050565b60006126cc612633565b90506126d88282612691565b919050565b600067ffffffffffffffff8211156126f8576126f7612662565b5b61270182612651565b9050602081019050919050565b82818337600083830152505050565b600061273061272b846126dd565b6126c2565b90508281526020810184848401111561274c5761274b61264c565b5b61275784828561270e565b509392505050565b600082601f83011261277457612773612647565b5b813561278484826020860161271d565b91505092915050565b600080604083850312156127a4576127a361263d565b5b600083013567ffffffffffffffff8111156127c2576127c1612642565b5b6127ce8582860161275f565b925050602083013567ffffffffffffffff8111156127ef576127ee612642565b5b6127fb8582860161275f565b9150509250929050565b600073ffffffffffffffffffffffffffffffffffffffff82169050919050565b600061283082612805565b9050919050565b61284081612825565b811461284b57600080fd5b50565b60008135905061285d81612837565b92915050565b6000819050919050565b61287681612863565b811461288157600080fd5b50565b6000813590506128938161286d565b92915050565b600080604083850312156128b0576128af61263d565b5b60006128be8582860161284e565b92505060206128cf85828601612884565b9150509250929050565b6000602082840312156128ef576128ee61263d565b5b60006128fd84828501612884565b91505092915050565b61290f81612863565b82525050565b61291e81612825565b82525050565b600081519050919050565b600082825260208201905092915050565b60005b8381101561295e578082015181840152602081019050612943565b60008484015250505050565b600061297582612924565b61297f818561292f565b935061298f818560208601612940565b61299881612651565b840191505092915050565b600060e0820190506129b8600083018a612906565b6129c56020830189612906565b6129d26040830188612915565b6129df6060830187612906565b81810360808301526129f1818661296a565b905081810360a0830152612a05818561296a565b9050612a1460c0830184612906565b98975050505050505050565b600060208284031215612a3657612a3561263d565b5b6000612a448482850161284e565b91505092915050565b612a5681612863565b82525050565b604082016000820151612a726000850182612a4d565b506020820151612a856020850182612a4d565b50505050565b600061010082019050612aa1600083018a612906565b612aae6020830189612915565b8181036040830152612ac0818861296a565b90508181036060830152612ad4818761296a565b9050612ae36080830186612a5c565b612af060c0830185612906565b612afd60e0830184612906565b98975050505050505050565b6000602082019050612b1e6000830184612906565b92915050565b612b2d81612825565b82525050565b600082825260208201905092915050565b6000612b4f82612924565b612b598185612b33565b9350612b69818560208601612940565b612b7281612651565b840191505092915050565b604082016000820151612b936000850182612a4d565b506020820151612ba66020850182612a4d565b50505050565b600061010083016000830151612bc56000860182612a4d565b506020830151612bd86020860182612b24565b5060408301518482036040860152612bf08282612b44565b91505060608301518482036060860152612c0a8282612b44565b9150506080830151612c1f6080860182612b7d565b5060a0830151612c3260c0860182612a4d565b5060c0830151612c4560e0860182612a4d565b508091505092915050565b60006020820190508181036000830152612c6a8184612bac565b905092915050565b60008115159050919050565b612c8781612c72565b82525050565b6000602082019050612ca26000830184612c7e565b92915050565b6000602082019050612cbd6000830184612915565b92915050565b600080600060608486031215612cdc57612cdb61263d565b5b6000612cea86828701612884565b9350506020612cfb86828701612884565b9250506040612d0c86828701612884565b9150509250925092565b600060e083016000830151612d2e6000860182612a4d565b506020830151612d416020860182612a4d565b506040830151612d546040860182612b24565b506060830151612d676060860182612a4d565b5060808301518482036080860152612d7f8282612b44565b91505060a083015184820360a0860152612d998282612b44565b91505060c0830151612dae60c0860182612a4d565b508091505092915050565b60006020820190508181036000830152612dd38184612d16565b905092915050565b7f4e487b7100000000000000000000000000000000000000000000000000000000600052602160045260246000fd5b600a8110612e1b57612e1a612ddb565b5b50565b6000819050612e2c82612e0a565b919050565b6000612e3c82612e1e565b9050919050565b612e4c81612e31565b82525050565b6000604082019050612e676000830185612e43565b612e746020830184612915565b9392505050565b612e8481612c72565b8114612e8f57600080fd5b50565b600081519050612ea181612e7b565b92915050565b600060208284031215612ebd57612ebc61263d565b5b6000612ecb84828501612e92565b91505092915050565b7f4f6e6c7920436f6e7472696275746f7200000000000000000000000000000000600082015250565b6000612f0a60108361292f565b9150612f1582612ed4565b602082019050919050565b60006020820190508181036000830152612f3981612efd565b9050919050565b7f5761697420756e74696c206e6578742065726120746f2061646420636f6e747260008201527f69627574696f6e00000000000000000000000000000000000000000000000000602082015250565b6000612f9c60278361292f565b9150612fa782612f40565b604082019050919050565b60006020820190508181036000830152612fcb81612f8f565b9050919050565b7f43616e2774207075626c69736820796574000000000000000000000000000000600082015250565b600061300860118361292f565b915061301382612fd2565b602082019050919050565b6000602082019050818103600083015261303781612ffb565b9050919050565b7f4e487b7100000000000000000000000000000000000000000000000000000000600052601160045260246000fd5b600061307882612863565b91507fffffffffffffffffffffffffffffffffffffffffffffffffffffffffffffffff82036130aa576130a961303e565b5b600182019050919050565b7f4e487b7100000000000000000000000000000000000000000000000000000000600052602260045260246000fd5b600060028204905060018216806130fc57607f821691505b60208210810361310f5761310e6130b5565b5b50919050565b60008190508160005260206000209050919050565b60006020601f8301049050919050565b600082821b905092915050565b6000600883026131777fffffffffffffffffffffffffffffffffffffffffffffffffffffffffffffffff8261313a565b613181868361313a565b95508019841693508086168417925050509392505050565b6000819050919050565b60006131be6131b96131b484612863565b613199565b612863565b9050919050565b6000819050919050565b6131d8836131a3565b6131ec6131e4826131c5565b848454613147565b825550505050565b600090565b6132016131f4565b61320c8184846131cf565b505050565b5b81811015613230576132256000826131f9565b600181019050613212565b5050565b601f8211156132755761324681613115565b61324f8461312a565b8101602085101561325e578190505b61327261326a8561312a565b830182613211565b50505b505050565b600082821c905092915050565b60006132986000198460080261327a565b1980831691505092915050565b60006132b18383613287565b9150826002028217905092915050565b6132ca82612924565b67ffffffffffffffff8111156132e3576132e2612662565b5b6132ed82546130e4565b6132f8828285613234565b600060209050601f83116001811461332b5760008415613319578287015190505b61332385826132a5565b86555061338b565b601f19841661333986613115565b60005b828110156133615784890151825560018201915060208501945060208101905061333c565b8683101561337e578489015161337a601f891682613287565b8355505b6001600288020188555050505b505050505050565b7f4e6f7420616c6c6f7765642063616c6c65720000000000000000000000000000600082015250565b60006133c960128361292f565b91506133d482613393565b602082019050919050565b600060208201905081810360008301526133f8816133bc565b9050919050565b60006060820190506134146000830186612915565b6134216020830185612906565b61342e6040830184612906565b949350505050565b7f506f6f6c206f6e6c7920746f20636f6e7472696275746f720000000000000000600082015250565b600061346c60188361292f565b915061347782613436565b602082019050919050565b6000602082019050818103600083015261349b8161345f565b9050919050565b7f43616e277420617070726f766520776974686472617700000000000000000000600082015250565b60006134d860168361292f565b91506134e3826134a2565b602082019050919050565b60006020820190508181036000830152613507816134cb565b9050919050565b60006040820190506135236000830185612915565b6135306020830184612906565b9392505050565b6000819050919050565b61354a81613537565b811461355557600080fd5b50565b60008151905061356781613541565b92915050565b6000602082840312156135835761358261263d565b5b600061359184828501613558565b91505092915050565b60006020820190506135af6000830184612e43565b92915050565b6000815190506135c48161286d565b92915050565b6000602082840312156135e0576135df61263d565b5b60006135ee848285016135b5565b91505092915050565b600061360282612863565b915061360d83612863565b92508282019050808211156136255761362461303e565b5b92915050565b60006040820190506136406000830185612915565b61364d6020830184612e43565b9392505050565b7f4f776e61626c653a206e6577206f776e657220697320746865207a65726f206160008201527f6464726573730000000000000000000000000000000000000000000000000000602082015250565b60006136b060268361292f565b91506136bb82613654565b604082019050919050565b600060208201905081810360008301526136df816136a3565b9050919050565b6000819050919050565b600061370b613706613701846136e6565b613199565b612863565b9050919050565b61371b816136f0565b82525050565b60006040820190506137366000830185612915565b6137436020830184613712565b9392505050565b7f4f776e61626c653a2063616c6c6572206973206e6f7420746865206f776e6572600082015250565b600061378060208361292f565b915061378b8261374a565b602082019050919050565b600060208201905081810360008301526137af81613773565b9050919050565b7f4e487b7100000000000000000000000000000000000000000000000000000000600052601260045260246000fd5b60006137f082612863565b91506137fb83612863565b92508261380b5761380a6137b6565b5b82820490509291505056fea2646970667358221220842a0a9a863b93e5dae816b8a93f602d6586e5f0698c88440fe3a270b801309164736f6c634300081b0033",
  "linkReferences": {},
  "deployedLinkReferences": {}
}