{
  "_format": "hh-sol-artifact-1",
  "contractName": "ContributorRules",
  "sourceName": "contracts/ContributorRules.sol",
  "abi": [
    {
      "inputs": [
        {
          "internalType": "uint32",
          "name": "timeBetweenWorks_",
          "type": "uint32"
        },
        {
          "internalType": "uint8",
          "name": "maxPenalties_",
          "type": "uint8"
        },
        {
          "internalType": "uint32",
          "name": "securityBlocksToValidation_",
          "type": "uint32"
        }
      ],
      "stateMutability": "nonpayable",
      "type": "constructor"
    },
    {
      "inputs": [
        {
          "internalType": "address",
          "name": "owner",
          "type": "address"
        }
      ],
      "name": "OwnableInvalidOwner",
      "type": "error"
    },
    {
      "inputs": [
        {
          "internalType": "address",
          "name": "account",
          "type": "address"
        }
      ],
      "name": "OwnableUnauthorizedAccount",
      "type": "error"
    },
    {
      "inputs": [],
      "name": "ReentrancyGuardReentrantCall",
      "type": "error"
    },
    {
      "anonymous": false,
      "inputs": [
        {
          "indexed": true,
          "internalType": "uint256",
          "name": "id",
          "type": "uint256"
        },
        {
          "indexed": true,
          "internalType": "address",
          "name": "contributorAddress",
          "type": "address"
        },
        {
          "indexed": false,
          "internalType": "string",
          "name": "description",
          "type": "string"
        },
        {
          "indexed": false,
          "internalType": "uint256",
          "name": "blockNumber",
          "type": "uint256"
        }
      ],
      "name": "ContributionAdded",
      "type": "event"
    },
    {
      "anonymous": false,
      "inputs": [
        {
          "indexed": true,
          "internalType": "uint64",
          "name": "contributionId",
          "type": "uint64"
        },
        {
          "indexed": true,
          "internalType": "address",
          "name": "contributorAddress",
          "type": "address"
        },
        {
          "indexed": false,
          "internalType": "string",
          "name": "justification",
          "type": "string"
        },
        {
          "indexed": false,
          "internalType": "uint256",
          "name": "newPenaltyCount",
          "type": "uint256"
        },
        {
          "indexed": false,
          "internalType": "uint256",
          "name": "blockNumber",
          "type": "uint256"
        }
      ],
      "name": "ContributionInvalidated",
      "type": "event"
    },
    {
      "anonymous": false,
      "inputs": [
        {
          "indexed": true,
          "internalType": "address",
          "name": "contributorAddress",
          "type": "address"
        },
        {
          "indexed": false,
          "internalType": "uint256",
          "name": "newLevel",
          "type": "uint256"
        },
        {
          "indexed": false,
          "internalType": "uint256",
          "name": "blockNumber",
          "type": "uint256"
        }
      ],
      "name": "ContributorLevelIncreased",
      "type": "event"
    },
    {
      "anonymous": false,
      "inputs": [
        {
          "indexed": true,
          "internalType": "address",
          "name": "contributorAddress",
          "type": "address"
        },
        {
          "indexed": false,
          "internalType": "uint256",
          "name": "levelsRemoved",
          "type": "uint256"
        },
        {
          "indexed": false,
          "internalType": "uint256",
          "name": "newLevel",
          "type": "uint256"
        },
        {
          "indexed": false,
          "internalType": "uint256",
          "name": "blockNumber",
          "type": "uint256"
        }
      ],
      "name": "ContributorLevelRemoved",
      "type": "event"
    },
    {
      "anonymous": false,
      "inputs": [
        {
          "indexed": true,
          "internalType": "uint256",
          "name": "id",
          "type": "uint256"
        },
        {
          "indexed": true,
          "internalType": "address",
          "name": "contributorAddress",
          "type": "address"
        },
        {
          "indexed": false,
          "internalType": "string",
          "name": "name",
          "type": "string"
        },
        {
          "indexed": false,
          "internalType": "uint256",
          "name": "blockNumber",
          "type": "uint256"
        }
      ],
      "name": "ContributorRegistered",
      "type": "event"
    },
    {
      "anonymous": false,
      "inputs": [
        {
          "indexed": true,
          "internalType": "address",
          "name": "contributorAddress",
          "type": "address"
        },
        {
          "indexed": true,
          "internalType": "uint256",
          "name": "era",
          "type": "uint256"
        },
        {
          "indexed": false,
          "internalType": "uint256",
          "name": "blockNumber",
          "type": "uint256"
        }
      ],
      "name": "ContributorWithdrawalInitiated",
      "type": "event"
    },
    {
      "anonymous": false,
      "inputs": [
        {
          "indexed": true,
          "internalType": "address",
          "name": "previousOwner",
          "type": "address"
        },
        {
          "indexed": true,
          "internalType": "address",
          "name": "newOwner",
          "type": "address"
        }
      ],
      "name": "OwnershipTransferred",
      "type": "event"
    },
    {
      "inputs": [],
      "name": "INITIAL_USER_COUNT_THRESHOLD",
      "outputs": [
        {
          "internalType": "uint256",
          "name": "",
          "type": "uint256"
        }
      ],
      "stateMutability": "view",
      "type": "function"
    },
    {
      "inputs": [],
      "name": "MAX_USER_COUNT",
      "outputs": [
        {
          "internalType": "uint16",
          "name": "",
          "type": "uint16"
        }
      ],
      "stateMutability": "view",
      "type": "function"
    },
    {
      "inputs": [
        {
          "internalType": "string",
          "name": "description",
          "type": "string"
        },
        {
          "internalType": "string",
          "name": "report",
          "type": "string"
        }
      ],
      "name": "addContribution",
      "outputs": [],
      "stateMutability": "nonpayable",
      "type": "function"
    },
    {
      "inputs": [
        {
          "internalType": "uint64",
          "name": "id",
          "type": "uint64"
        },
        {
          "internalType": "string",
          "name": "justification",
          "type": "string"
        }
      ],
      "name": "addContributionValidation",
      "outputs": [],
      "stateMutability": "nonpayable",
      "type": "function"
    },
    {
      "inputs": [
        {
          "internalType": "string",
          "name": "name",
          "type": "string"
        },
        {
          "internalType": "string",
          "name": "proofPhoto",
          "type": "string"
        }
      ],
      "name": "addContributor",
      "outputs": [],
      "stateMutability": "nonpayable",
      "type": "function"
    },
    {
      "inputs": [
        {
          "internalType": "address",
          "name": "addr",
          "type": "address"
        },
        {
          "internalType": "uint64",
          "name": "contributionId",
          "type": "uint64"
        }
      ],
      "name": "addPenalty",
      "outputs": [
        {
          "internalType": "uint256",
          "name": "",
          "type": "uint256"
        }
      ],
      "stateMutability": "nonpayable",
      "type": "function"
    },
    {
      "inputs": [
        {
          "internalType": "address",
          "name": "",
          "type": "address"
        }
      ],
      "name": "allowedCallers",
      "outputs": [
        {
          "internalType": "bool",
          "name": "",
          "type": "bool"
        }
      ],
      "stateMutability": "view",
      "type": "function"
    },
    {
      "inputs": [
        {
          "internalType": "uint256",
          "name": "totalLevels",
          "type": "uint256"
        },
        {
          "internalType": "uint256",
          "name": "totalUsers",
          "type": "uint256"
        },
        {
          "internalType": "uint256",
          "name": "userLevels",
          "type": "uint256"
        }
      ],
      "name": "canInvite",
      "outputs": [
        {
          "internalType": "bool",
          "name": "",
          "type": "bool"
        }
      ],
      "stateMutability": "pure",
      "type": "function"
    },
    {
      "inputs": [
        {
          "internalType": "address",
          "name": "addr",
          "type": "address"
        }
      ],
      "name": "canPublishContribution",
      "outputs": [
        {
          "internalType": "bool",
          "name": "",
          "type": "bool"
        }
      ],
      "stateMutability": "view",
      "type": "function"
    },
    {
      "inputs": [
        {
          "internalType": "address",
          "name": "addr",
          "type": "address"
        }
      ],
      "name": "canSendInvite",
      "outputs": [
        {
          "internalType": "bool",
          "name": "",
          "type": "bool"
        }
      ],
      "stateMutability": "view",
      "type": "function"
    },
    {
      "inputs": [
        {
          "internalType": "uint256",
          "name": "",
          "type": "uint256"
        }
      ],
      "name": "contributions",
      "outputs": [
        {
          "internalType": "uint64",
          "name": "id",
          "type": "uint64"
        },
        {
          "internalType": "uint256",
          "name": "era",
          "type": "uint256"
        },
        {
          "internalType": "address",
          "name": "user",
          "type": "address"
        },
        {
          "internalType": "string",
          "name": "description",
          "type": "string"
        },
        {
          "internalType": "string",
          "name": "report",
          "type": "string"
        },
        {
          "internalType": "uint256",
          "name": "validationsCount",
          "type": "uint256"
        },
        {
          "internalType": "bool",
          "name": "valid",
          "type": "bool"
        },
        {
          "internalType": "uint256",
          "name": "invalidatedAt",
          "type": "uint256"
        },
        {
          "internalType": "uint256",
          "name": "createdAtBlockNumber",
          "type": "uint256"
        }
      ],
      "stateMutability": "view",
      "type": "function"
    },
    {
      "inputs": [],
      "name": "contributionsCount",
      "outputs": [
        {
          "internalType": "uint64",
          "name": "",
          "type": "uint64"
        }
      ],
      "stateMutability": "view",
      "type": "function"
    },
    {
      "inputs": [
        {
          "internalType": "address",
          "name": "",
          "type": "address"
        },
        {
          "internalType": "uint256",
          "name": "",
          "type": "uint256"
        }
      ],
      "name": "contributionsIds",
      "outputs": [
        {
          "internalType": "uint256",
          "name": "",
          "type": "uint256"
        }
      ],
      "stateMutability": "view",
      "type": "function"
    },
    {
      "inputs": [],
      "name": "contributionsTotalCount",
      "outputs": [
        {
          "internalType": "uint64",
          "name": "",
          "type": "uint64"
        }
      ],
      "stateMutability": "view",
      "type": "function"
    },
    {
      "inputs": [
        {
          "internalType": "uint256",
          "name": "",
          "type": "uint256"
        }
      ],
      "name": "contributorsAddress",
      "outputs": [
        {
          "internalType": "address",
          "name": "",
          "type": "address"
        }
      ],
      "stateMutability": "view",
      "type": "function"
    },
    {
      "inputs": [
        {
          "internalType": "uint64",
          "name": "id",
          "type": "uint64"
        }
      ],
      "name": "getContribution",
      "outputs": [
        {
          "components": [
            {
              "internalType": "uint64",
              "name": "id",
              "type": "uint64"
            },
            {
              "internalType": "uint256",
              "name": "era",
              "type": "uint256"
            },
            {
              "internalType": "address",
              "name": "user",
              "type": "address"
            },
            {
              "internalType": "string",
              "name": "description",
              "type": "string"
            },
            {
              "internalType": "string",
              "name": "report",
              "type": "string"
            },
            {
              "internalType": "uint256",
              "name": "validationsCount",
              "type": "uint256"
            },
            {
              "internalType": "bool",
              "name": "valid",
              "type": "bool"
            },
            {
              "internalType": "uint256",
              "name": "invalidatedAt",
              "type": "uint256"
            },
            {
              "internalType": "uint256",
              "name": "createdAtBlockNumber",
              "type": "uint256"
            }
          ],
          "internalType": "struct Contribution",
          "name": "",
          "type": "tuple"
        }
      ],
      "stateMutability": "view",
      "type": "function"
    },
    {
      "inputs": [
        {
          "internalType": "address",
          "name": "addr",
          "type": "address"
        }
      ],
      "name": "getContributionsIds",
      "outputs": [
        {
          "internalType": "uint256[]",
          "name": "",
          "type": "uint256[]"
        }
      ],
      "stateMutability": "view",
      "type": "function"
    },
    {
      "inputs": [
        {
          "internalType": "address",
          "name": "addr",
          "type": "address"
        }
      ],
      "name": "getContributor",
      "outputs": [
        {
          "components": [
            {
              "internalType": "uint64",
              "name": "id",
              "type": "uint64"
            },
            {
              "internalType": "address",
              "name": "contributorWallet",
              "type": "address"
            },
            {
              "internalType": "string",
              "name": "name",
              "type": "string"
            },
            {
              "internalType": "string",
              "name": "proofPhoto",
              "type": "string"
            },
            {
              "components": [
                {
                  "internalType": "uint256",
                  "name": "level",
                  "type": "uint256"
                },
                {
                  "internalType": "uint256",
                  "name": "currentEra",
                  "type": "uint256"
                }
              ],
              "internalType": "struct Pool",
              "name": "pool",
              "type": "tuple"
            },
            {
              "internalType": "uint256",
              "name": "totalContributions",
              "type": "uint256"
            },
            {
              "internalType": "uint256",
              "name": "createdAt",
              "type": "uint256"
            },
            {
              "internalType": "uint256",
              "name": "lastPublishedAt",
              "type": "uint256"
            }
          ],
          "internalType": "struct Contributor",
          "name": "contributor",
          "type": "tuple"
        }
      ],
      "stateMutability": "view",
      "type": "function"
    },
    {
      "inputs": [
        {
          "internalType": "address",
          "name": "caller",
          "type": "address"
        }
      ],
      "name": "isAllowedCaller",
      "outputs": [
        {
          "internalType": "bool",
          "name": "",
          "type": "bool"
        }
      ],
      "stateMutability": "view",
      "type": "function"
    },
    {
      "inputs": [],
      "name": "maxPenalties",
      "outputs": [
        {
          "internalType": "uint8",
          "name": "",
          "type": "uint8"
        }
      ],
      "stateMutability": "view",
      "type": "function"
    },
    {
      "inputs": [
        {
          "internalType": "address",
          "name": "allowed",
          "type": "address"
        }
      ],
      "name": "newAllowedCaller",
      "outputs": [],
      "stateMutability": "nonpayable",
      "type": "function"
    },
    {
      "inputs": [],
      "name": "nextEraIn",
      "outputs": [
        {
          "internalType": "uint256",
          "name": "",
          "type": "uint256"
        }
      ],
      "stateMutability": "view",
      "type": "function"
    },
    {
      "inputs": [],
      "name": "owner",
      "outputs": [
        {
          "internalType": "address",
          "name": "",
          "type": "address"
        }
      ],
      "stateMutability": "view",
      "type": "function"
    },
    {
      "inputs": [
        {
          "internalType": "address",
          "name": "",
          "type": "address"
        },
        {
          "internalType": "uint256",
          "name": "",
          "type": "uint256"
        }
      ],
      "name": "penalties",
      "outputs": [
        {
          "internalType": "uint64",
          "name": "contributionId",
          "type": "uint64"
        }
      ],
      "stateMutability": "view",
      "type": "function"
    },
    {
      "inputs": [],
      "name": "poolCurrentEra",
      "outputs": [
        {
          "internalType": "uint256",
          "name": "",
          "type": "uint256"
        }
      ],
      "stateMutability": "view",
      "type": "function"
    },
    {
      "inputs": [
        {
          "internalType": "address",
          "name": "addr",
          "type": "address"
        },
        {
          "internalType": "bool",
          "name": "denied",
          "type": "bool"
        }
      ],
      "name": "removePoolLevels",
      "outputs": [],
      "stateMutability": "nonpayable",
      "type": "function"
    },
    {
      "inputs": [],
      "name": "renounceOwnership",
      "outputs": [],
      "stateMutability": "nonpayable",
      "type": "function"
    },
    {
      "inputs": [],
      "name": "securityBlocksToValidation",
      "outputs": [
        {
          "internalType": "uint32",
          "name": "",
          "type": "uint32"
        }
      ],
      "stateMutability": "view",
      "type": "function"
    },
    {
      "inputs": [
        {
          "internalType": "address",
          "name": "_validationRulesAddress",
          "type": "address"
        }
      ],
      "name": "setContractCall",
      "outputs": [],
      "stateMutability": "nonpayable",
      "type": "function"
    },
    {
      "inputs": [
        {
          "components": [
            {
              "internalType": "address",
              "name": "communityRulesAddress",
              "type": "address"
            },
            {
              "internalType": "address",
              "name": "contributorPoolAddress",
              "type": "address"
            },
            {
              "internalType": "address",
              "name": "validationRulesAddress",
              "type": "address"
            },
            {
              "internalType": "address",
              "name": "voteRulesAddress",
              "type": "address"
            }
          ],
          "internalType": "struct ContractsDependency",
          "name": "contractDependency",
          "type": "tuple"
        }
      ],
      "name": "setContractInterfaces",
      "outputs": [],
      "stateMutability": "nonpayable",
      "type": "function"
    },
    {
      "inputs": [],
      "name": "timeBetweenWorks",
      "outputs": [
        {
          "internalType": "uint32",
          "name": "",
          "type": "uint32"
        }
      ],
      "stateMutability": "view",
      "type": "function"
    },
    {
      "inputs": [
        {
          "internalType": "address",
          "name": "addr",
          "type": "address"
        }
      ],
      "name": "totalPenalties",
      "outputs": [
        {
          "internalType": "uint256",
          "name": "",
          "type": "uint256"
        }
      ],
      "stateMutability": "view",
      "type": "function"
    },
    {
      "inputs": [
        {
          "internalType": "address",
          "name": "newOwner",
          "type": "address"
        }
      ],
      "name": "transferOwnership",
      "outputs": [],
      "stateMutability": "nonpayable",
      "type": "function"
    },
    {
      "inputs": [],
      "name": "withdraw",
      "outputs": [],
      "stateMutability": "nonpayable",
      "type": "function"
    }
  ],
  "bytecode": "0x60e060405234801561001057600080fd5b506040516133ff3803806133ff83398101604081905261002f916100e9565b338061005557604051631e4fbdf760e01b81526000600482015260240160405180910390fd5b61005e81610080565b50600160025563ffffffff92831660a05260ff9091166080521660c052610134565b600080546001600160a01b038381166001600160a01b0319831681178455604051919092169283917f8be0079c531659141344cd1fd0a4f28419497f9722a3daafe3b4186f6b6457e09190a35050565b805163ffffffff811681146100e457600080fd5b919050565b6000806000606084860312156100fe57600080fd5b610107846100d0565b9250602084015160ff8116811461011d57600080fd5b915061012b604085016100d0565b90509250925092565b60805160a05160c05161328e610171600039600081816102b301526106cd0152600081816103800152611a8a015260006104c4015261328e6000f3fe608060405234801561001057600080fd5b50600436106102065760003560e01c80637c647a621161011a578063b24eb769116100ad578063c77c1ce61161007c578063c77c1ce614610543578063cae5366b14610556578063da0e0f9714610576578063e05cf15514610596578063f2fde38b1461059e57600080fd5b8063b24eb769146104bf578063b7e97777146104f8578063be9dc58414610521578063c69685561461052957600080fd5b80639eaf666f116100e95780639eaf666f1461045a578063a68012581461046d578063b0fd59f314610499578063b1e86655146104ac57600080fd5b80637c647a62146103fc5780638da5cb5b1461040f5780638f93716f1461043457806391155f191461044757600080fd5b80633d8270f51161019d5780636b6c7c2d1161016c5780636b6c7c2d1461037b5780636ec7053a146103a2578063715018a6146103be578063755d4f97146103c65780637b334154146103d957600080fd5b80633d8270f51461031d578063582256f11461033d578063585506bf146103455780635fa71c281461036857600080fd5b8063231a9b86116101d9578063231a9b861461029b57806335c11677146102ae57806338658175146102ea5780633ccfd60b1461031557600080fd5b8063129de9651461020b5780631cee0700146102205780632076267b14610251578063218f23ca14610288575b600080fd5b61021e610219366004612a14565b6105b1565b005b61023361022e366004612a7b565b610a0e565b60405161024899989796959493929190612ada565b60405180910390f35b61027a61025f366004612b6a565b6001600160a01b03166000908152600d602052604090205490565b604051908152602001610248565b61021e610296366004612b93565b610b80565b61021e6102a9366004612bdf565b610e8e565b6102d57f000000000000000000000000000000000000000000000000000000000000000081565b60405163ffffffff9091168152602001610248565b6003546102fd906001600160401b031681565b6040516001600160401b039091168152602001610248565b61021e611573565b61033061032b366004612b6a565b6117db565b6040516102489190612c18565b61027a6119e3565b610358610353366004612b6a565b611a63565b6040519015158152602001610248565b6102fd610376366004612ccb565b611ac6565b6102d57f000000000000000000000000000000000000000000000000000000000000000081565b6103ab613e8081565b60405161ffff9091168152602001610248565b61021e611afe565b61021e6103d4366004612b6a565b611b10565b6103586103e7366004612b6a565b60016020526000908152604090205460ff1681565b61021e61040a366004612cf5565b611b3a565b6000546001600160a01b03165b6040516001600160a01b039091168152602001610248565b61021e610442366004612b6a565b611b9f565b61027a610455366004612ccb565b611bce565b610358610468366004612d73565b611bff565b61035861047b366004612b6a565b6001600160a01b031660009081526001602052604090205460ff1690565b61021e6104a7366004612a14565b611c37565b61027a6104ba366004612d9f565b611fb6565b6104e67f000000000000000000000000000000000000000000000000000000000000000081565b60405160ff9091168152602001610248565b61041c610506366004612a7b565b6006602052600090815260409020546001600160a01b031681565b61027a600581565b6003546102fd90600160401b90046001600160401b031681565b610358610551366004612b6a565b6120ce565b610569610564366004612dcb565b612338565b6040516102489190612e91565b610589610584366004612b6a565b6124eb565b6040516102489190612ea4565b61027a612557565b61021e6105ac366004612b6a565b6125a1565b6105b96125df565b815161012c108015906105ce57508051609610155b6106185760405162461bcd60e51b815260206004820152601660248201527513585e0818da185c9858dd195c9cc81c995858da195960521b60448201526064015b60405180910390fd5b600854604051631292f8c160e31b81526001600160a01b0390911690639497c6089061064b906005903390600401612f09565b602060405180830381865afa158015610668573d6000803e3d6000fd5b505050506040513d601f19601f8201168201806040525081019061068c9190612f2f565b6106cb5760405162461bcd60e51b815260206004820152601060248201526f27b7363c9021b7b73a3934b13aba37b960811b604482015260640161060f565b7f000000000000000000000000000000000000000000000000000000000000000063ffffffff166106fa6119e3565b116107575760405162461bcd60e51b815260206004820152602760248201527f5761697420756e74696c206e6578742065726120746f2061646420636f6e747260448201526634b13aba34b7b760c91b606482015260840161060f565b61076033611a63565b6107a05760405162461bcd60e51b815260206004820152601160248201527010d85b89dd081c1d589b1a5cda081e595d607a1b604482015260640161060f565b600380546001600160401b03169060006107b983612f62565b91906101000a8154816001600160401b0302191690836001600160401b03160217905550506003600881819054906101000a90046001600160401b03168092919061080390612f62565b82546101009290920a6001600160401b038181021990931691831602179091556003543360009081526004602052604081206005018054600160401b909304909316935090919061085383612f8d565b9190505550604051806101200160405280826001600160401b0316815260200161087b612557565b81523360208083019190915260408083018790526060808401879052600060808501819052600160a0860181905260c086018290524360e0909601959095526001600160401b03878116825260058552908390208651815467ffffffffffffffff1916921691909117815592850151938301939093558301516002820180546001600160a01b0319166001600160a01b03909216919091179055908201516003820190610928908261302f565b506080820151600482019061093d908261302f565b5060a0820151600582015560c082015160068201805460ff191691151591909117905560e08201516007808301919091556101009092015160089091015533600081815260209283526040812080546001810182559082529290206001600160401b0384169201919091556109b29082612607565b336001600160a01b0316816001600160401b03167fc6aae0d562ab183f7fbeb19b28e6ce69e68fa31da15096224a655f5d4c2e26c385436040516109f79291906130ed565b60405180910390a350610a0a6001600255565b5050565b60056020526000908152604090208054600182015460028301546003840180546001600160401b039094169492936001600160a01b039092169291610a5290612fa6565b80601f0160208091040260200160405190810160405280929190818152602001828054610a7e90612fa6565b8015610acb5780601f10610aa057610100808354040283529160200191610acb565b820191906000526020600020905b815481529060010190602001808311610aae57829003601f168201915b505050505090806004018054610ae090612fa6565b80601f0160208091040260200160405190810160405280929190818152602001828054610b0c90612fa6565b8015610b595780601f10610b2e57610100808354040283529160200191610b59565b820191906000526020600020905b815481529060010190602001808311610b3c57829003601f168201915b505050506005830154600684015460078501546008909501549394919360ff909116925089565b3360009081526001602052604090205460ff16610bd45760405162461bcd60e51b81526020600482015260126024820152712737ba1030b63637bbb2b21031b0b63632b960711b604482015260640161060f565b600c546001600160a01b0316338114610c2f5760405162461bcd60e51b815260206004820152601e60248201527f43616c6c6572206d7573742062652073797374656d20636f6e74726163740000604482015260640161060f565b6001600160a01b03808416600090815260046020908152604080832081516101008101835281546001600160401b0381168252600160401b90049095169285019290925260018201805493949391840191610c8990612fa6565b80601f0160208091040260200160405190810160405280929190818152602001828054610cb590612fa6565b8015610d025780601f10610cd757610100808354040283529160200191610d02565b820191906000526020600020905b815481529060010190602001808311610ce557829003601f168201915b50505050508152602001600282018054610d1b90612fa6565b80601f0160208091040260200160405190810160405280929190818152602001828054610d4790612fa6565b8015610d945780601f10610d6957610100808354040283529160200191610d94565b820191906000526020600020905b815481529060010190602001808311610d7757829003601f168201915b505050918352505060408051808201825260038401548152600484015460208281019190915283015260058301549082015260068201546060820152600790910154608090910152905082610dea576001610df1565b6080810151515b6001600160a01b03851660009081526004602052604081206003018054909190610e1c90849061310f565b90915550506009546040516310c791e560e11b81526001600160a01b03868116600483015285151560248301529091169063218f23ca90604401600060405180830381600087803b158015610e7057600080fd5b505af1158015610e84573d6000803e3d6000fd5b5050505050505050565b610e966125df565b805161012c1015610eda5760405162461bcd60e51b815260206004820152600e60248201526d4d6178206368617261637465727360901b604482015260640161060f565b600b546040516356fd539760e11b81523360048201526001600160a01b039091169063adfaa72e90602401602060405180830381865afa158015610f22573d6000803e3d6000fd5b505050506040513d601f19601f82011682018060405250810190610f469190612f2f565b610f805760405162461bcd60e51b815260206004820152600b60248201526a2737ba1030903b37ba32b960a91b604482015260640161060f565b600a54604051630d84466b60e21b81523360048201526001600160a01b039091169063361119ac90602401602060405180830381865afa158015610fc8573d6000803e3d6000fd5b505050506040513d601f19601f82011682018060405250810190610fec9190612f2f565b6110305760405162461bcd60e51b8152602060048201526015602482015274576169742074696d654265747765656e566f74657360581b604482015260640161060f565b6001600160401b0382166000908152600e6020908152604080832033845290915290205460ff16156110945760405162461bcd60e51b815260206004820152600d60248201526c105b1c9958591e481d9bdd1959609a1b604482015260640161060f565b6001600160401b038083166000818152600e602090815260408083203384528252808320805460ff191660019081179091559383526005825280832081516101208101835281549096168652938401549185019190915260028301546001600160a01b0316908401526003820180549193929160608401919061111690612fa6565b80601f016020809104026020016040519081016040528092919081815260200182805461114290612fa6565b801561118f5780601f106111645761010080835404028352916020019161118f565b820191906000526020600020905b81548152906001019060200180831161117257829003601f168201915b505050505081526020016004820180546111a890612fa6565b80601f01602080910402602001604051908101604052809291908181526020018280546111d490612fa6565b80156112215780601f106111f657610100808354040283529160200191611221565b820191906000526020600020905b81548152906001019060200180831161120457829003601f168201915b505050918352505060058201546020820152600682015460ff16151560408201526007820154606082015260089091015460809091015260c0810151909150801561127657508060200151611274612557565b145b6112c25760405162461bcd60e51b815260206004820152601e60248201527f5468697320636f6e747269627574696f6e206973206e6f742056414c49440000604482015260640161060f565b60018160a0018181516112d59190613128565b9052506001600160401b038381166000908152600560209081526040918290208451815467ffffffffffffffff1916941693909317835583015160018301558201516002820180546001600160a01b0319166001600160a01b039092169190911790556060820151829190600382019061134f908261302f565b5060808201516004820190611364908261302f565b5060a0820151600582015560c082015160068201805460ff191691151591909117905560e0820151600782015561010090910151600890910155600a54604080516369bf81c360e01b815290516000926001600160a01b0316916369bf81c39160048083019260209291908290030181865afa1580156113e8573d6000803e3d6000fd5b505050506040513d601f19601f8201168201806040525081019061140c919061313b565b9050600181116114715760405162461bcd60e51b815260206004820152602a60248201527f56616c69646174696f6e207468726573686f6c642063616e6e6f74206265206c60448201526932b9b9903a3430b7101960b11b606482015260840161060f565b60a082015181118015906115005761148883612718565b925082604001516001600160a01b0316856001600160401b03167f877210aa63ada7585f903bc529a6691c6e70aeeb79dd69e7c16011733f8d3382866114e787604001516001600160a01b03166000908152600d602052604090205490565b436040516114f793929190613154565b60405180910390a35b600a546040516347ec8e9760e01b81526001600160a01b03909116906347ec8e979061153490869088903390600401613179565b600060405180830381600087803b15801561154e57600080fd5b505af1158015611562573d6000803e3d6000fd5b50505050505050610a0a6001600255565b61157b6125df565b600854604051631292f8c160e31b81526001600160a01b0390911690639497c608906115ae906005903390600401612f09565b602060405180830381865afa1580156115cb573d6000803e3d6000fd5b505050506040513d601f19601f820116820180604052508101906115ef9190612f2f565b61163b5760405162461bcd60e51b815260206004820152601860248201527f506f6f6c206f6e6c7920746f20636f6e7472696275746f720000000000000000604482015260640161060f565b33600090815260046020819052604091829020808201546009549351637df42f8360e11b8152928301819052909290916001600160a01b039091169063fbe85f0690602401602060405180830381865afa15801561169d573d6000803e3d6000fd5b505050506040513d601f19601f820116820180604052508101906116c19190612f2f565b61171b5760405162461bcd60e51b815260206004820152602560248201527f4e6f7420656c696769626c6520746f20776974686472617720666f7220746869604482015264732065726160d81b606482015260840161060f565b60048201805490600061172d83612f8d565b909155505060095460405163f3fef3a360e01b8152336004820152602481018390526001600160a01b039091169063f3fef3a390604401600060405180830381600087803b15801561177e57600080fd5b505af1158015611792573d6000803e3d6000fd5b50506040514381528392503391507fb40adf9f22b112880b7b93e1732c34e633b966b07e6348eda20450f7e9c114e79060200160405180910390a350506117d96001600255565b565b611831604080516101008101825260008082526020808301829052606083850181905280840152835180850190945281845283015290608082019081526020016000815260200160008152602001600081525090565b6001600160a01b0380831660009081526004602090815260409182902082516101008101845281546001600160401b0381168252600160401b900490941691840191909152600181018054919284019161188a90612fa6565b80601f01602080910402602001604051908101604052809291908181526020018280546118b690612fa6565b80156119035780601f106118d857610100808354040283529160200191611903565b820191906000526020600020905b8154815290600101906020018083116118e657829003601f168201915b5050505050815260200160028201805461191c90612fa6565b80601f016020809104026020016040519081016040528092919081815260200182805461194890612fa6565b80156119955780601f1061196a57610100808354040283529160200191611995565b820191906000526020600020905b81548152906001019060200180831161197857829003601f168201915b50505091835250506040805180820182526003840154815260048401546020828101919091528301526005830154908201526006820154606082015260079091015460809091015292915050565b6009546000906001600160a01b031663d5ee3eb56119ff612557565b6040518263ffffffff1660e01b8152600401611a1d91815260200190565b602060405180830381865afa158015611a3a573d6000803e3d6000fd5b505050506040513d601f19601f82011682018060405250810190611a5e919061313b565b905090565b6001600160a01b03811660009081526004602052604081206007015481611ab063ffffffff7f00000000000000000000000000000000000000000000000000000000000000001683613128565b431190508080611abe575081155b949350505050565b600d6020528160005260406000208181548110611ae257600080fd5b6000918252602090912001546001600160401b03169150829050565b611b06612894565b6117d960006128c1565b611b18612894565b600c80546001600160a01b0319166001600160a01b0392909216919091179055565b611b42612894565b8051600880546001600160a01b03199081166001600160a01b039384161790915560208301516009805483169184169190911790556040830151600a80548316918416919091179055606090920151600b80549093169116179055565b611ba7612894565b6001600160a01b03166000908152600160208190526040909120805460ff19169091179055565b60076020528160005260406000208181548110611bea57600080fd5b90600052602060002001600091509150505481565b600060058311611c1157506001611c30565b82600003611c2157506000611c30565b83611c2c84846131b7565b1190505b9392505050565b8151603210801590611c4b57508051609610155b611c885760405162461bcd60e51b815260206004820152600e60248201526d4d6178206368617261637465727360901b604482015260640161060f565b600854604051632f22dc7b60e01b8152613e80916001600160a01b031690632f22dc7b90611cbb906005906004016131ce565b602060405180830381865afa158015611cd8573d6000803e3d6000fd5b505050506040513d601f19601f82011682018060405250810190611cfc919061313b565b10611d3a5760405162461bcd60e51b815260206004820152600e60248201526d13585e081d5cd95c881b1a5b5a5d60921b604482015260640161060f565b60085460405162f5960960e51b81526000916001600160a01b031690631eb2c12090611d6b906005906004016131ce565b602060405180830381865afa158015611d88573d6000803e3d6000fd5b505050506040513d601f19601f82011682018060405250810190611dac91906131dc565b611db79060016131f9565b9050604051806101000160405280826001600160401b03168152602001336001600160a01b03168152602001848152602001838152602001604051806040016040528060008152602001611e09612557565b9052815260006020808301829052436040808501919091526060909301829052338252600481529082902083518154928501516001600160a01b0316600160401b026001600160e01b03199093166001600160401b0390911617919091178155908201516001820190611e7c908261302f565b5060608201516002820190611e91908261302f565b5060808201518051600383015560209081015160048084019190915560a084015160058085019190915560c085015160068086019190915560e0909501516007909401939093556001600160401b03851660009081529390915260409283902080546001600160a01b031916339081179091556008549351639c3eead960e01b81526001600160a01b039490941693639c3eead993611f3293909101613218565b600060405180830381600087803b158015611f4c57600080fd5b505af1158015611f60573d6000803e3d6000fd5b50505050336001600160a01b0316816001600160401b03167fc8261a89bb2ba1bec86e2467cbc6d7c91bcceef268691b418bc08e888e43f3388543604051611fa99291906130ed565b60405180910390a3505050565b3360009081526001602052604081205460ff1661200a5760405162461bcd60e51b81526020600482015260126024820152712737ba1030b63637bbb2b21031b0b63632b960711b604482015260640161060f565b600c546001600160a01b03163381146120655760405162461bcd60e51b815260206004820152601e60248201527f43616c6c6572206d7573742062652073797374656d20636f6e74726163740000604482015260640161060f565b6001600160a01b0384166000818152600d6020818152604080842081518084019092526001600160401b038981168352815460018101835582875284872093519301805467ffffffffffffffff1916939091169290921790915593909252905254949350505050565b6001600160a01b03808216600090815260046020908152604080832081516101008101835281546001600160401b0381168252600160401b900490951692850192909252600182018054939485949093928401919061212c90612fa6565b80601f016020809104026020016040519081016040528092919081815260200182805461215890612fa6565b80156121a55780601f1061217a576101008083540402835291602001916121a5565b820191906000526020600020905b81548152906001019060200180831161218857829003601f168201915b505050505081526020016002820180546121be90612fa6565b80601f01602080910402602001604051908101604052809291908181526020018280546121ea90612fa6565b80156122375780601f1061220c57610100808354040283529160200191612237565b820191906000526020600020905b81548152906001019060200180831161221a57829003601f168201915b50505091835250506040805180820182526003840154815260048401546020828101919091528301526005830154908201526006820154606082015260079091015460809091015280519091506001600160401b031661229a5750600092915050565b60035460085460405162f5960960e51b8152611c3092600160401b90046001600160401b0316916001600160a01b031690631eb2c120906122e0906005906004016131ce565b602060405180830381865afa1580156122fd573d6000803e3d6000fd5b505050506040513d601f19601f8201168201806040525081019061232191906131dc565b6001600160401b0316836080015160000151611bff565b612340612911565b6001600160401b038083166000908152600560209081526040918290208251610120810184528154909416845260018101549184019190915260028101546001600160a01b0316918301919091526003810180546060840191906123a390612fa6565b80601f01602080910402602001604051908101604052809291908181526020018280546123cf90612fa6565b801561241c5780601f106123f15761010080835404028352916020019161241c565b820191906000526020600020905b8154815290600101906020018083116123ff57829003601f168201915b5050505050815260200160048201805461243590612fa6565b80601f016020809104026020016040519081016040528092919081815260200182805461246190612fa6565b80156124ae5780601f10612483576101008083540402835291602001916124ae565b820191906000526020600020905b81548152906001019060200180831161249157829003601f168201915b505050918352505060058201546020820152600682015460ff16151560408201526007820154606082015260089091015460809091015292915050565b6001600160a01b03811660009081526007602090815260409182902080548351818402810184019094528084526060939283018282801561254b57602002820191906000526020600020905b815481526020019060010190808311612537575b50505050509050919050565b60095460408051637686fbcf60e11b815290516000926001600160a01b03169163ed0df79e9160048083019260209291908290030181865afa158015611a3a573d6000803e3d6000fd5b6125a9612894565b6001600160a01b0381166125d357604051631e4fbdf760e01b81526000600482015260240161060f565b6125dc816128c1565b50565b600280540361260157604051633ee5aeb560e01b815260040160405180910390fd5b60028055565b6001600160a01b0382166000908152600460205260408120805490916001600160401b03909116900361263957505050565b43600782015560038101805490600061265183612f8d565b90915550506009546040516338e8490d60e11b81526001600160a01b038581166004830152600160248301526001600160401b0385166044830152909116906371d0921a90606401600060405180830381600087803b1580156126b357600080fd5b505af11580156126c7573d6000803e3d6000fd5b505050506003810154604080519182524360208301526001600160a01b038516917f98124a7baa4200982491adbb05ed4b64c8c04aab157bc086bfc71b96540a7e11910160405180910390a2505050565b612720612911565b600380546001600160401b031690600061273983613235565b82546101009290920a6001600160401b03818102199093169183160217909155600060c085018190524360e0860152845182168152600560209081526040918290208651815467ffffffffffffffff1916941693909317835585015160018301558401516002820180546001600160a01b0319166001600160a01b03909216919091179055606084015184925060038201906127d5908261302f565b50608082015160048201906127ea908261302f565b5060a0820151600582015560c082015160068201805460ff191691151591909117905560e082015160078201556101009091015160089091015560095460408381015190516310c791e560e11b81526001600160a01b0391821660048201526000602482015291169063218f23ca90604401600060405180830381600087803b15801561287657600080fd5b505af115801561288a573d6000803e3d6000fd5b5093949350505050565b6000546001600160a01b031633146117d95760405163118cdaa760e01b815233600482015260240161060f565b600080546001600160a01b038381166001600160a01b0319831681178455604051919092169283917f8be0079c531659141344cd1fd0a4f28419497f9722a3daafe3b4186f6b6457e09190a35050565b60405180610120016040528060006001600160401b031681526020016000815260200160006001600160a01b0316815260200160608152602001606081526020016000815260200160001515815260200160008152602001600081525090565b634e487b7160e01b600052604160045260246000fd5b600082601f83011261299857600080fd5b81356001600160401b038111156129b1576129b1612971565b604051601f8201601f19908116603f011681016001600160401b03811182821017156129df576129df612971565b6040528181528382016020018510156129f757600080fd5b816020850160208301376000918101602001919091529392505050565b60008060408385031215612a2757600080fd5b82356001600160401b03811115612a3d57600080fd5b612a4985828601612987565b92505060208301356001600160401b03811115612a6557600080fd5b612a7185828601612987565b9150509250929050565b600060208284031215612a8d57600080fd5b5035919050565b6000815180845260005b81811015612aba57602081850181015186830182015201612a9e565b506000602082860101526020601f19601f83011685010191505092915050565b6001600160401b038a16815288602082015260018060a01b038816604082015261012060608201526000612b12610120830189612a94565b8281036080840152612b248189612a94565b60a0840197909752505092151560c084015260e08301919091526101009091015295945050505050565b80356001600160a01b0381168114612b6557600080fd5b919050565b600060208284031215612b7c57600080fd5b611c3082612b4e565b80151581146125dc57600080fd5b60008060408385031215612ba657600080fd5b612baf83612b4e565b91506020830135612bbf81612b85565b809150509250929050565b6001600160401b03811681146125dc57600080fd5b60008060408385031215612bf257600080fd5b8235612bfd81612bca565b915060208301356001600160401b03811115612a6557600080fd5b602081526001600160401b03825116602082015260006020830151612c4860408401826001600160a01b03169052565b5060408301516101206060840152612c64610140840182612a94565b90506060840151601f19848303016080850152612c818282612a94565b9150506080840151612ca060a085018280518252602090810151910152565b5060a084015160e084015260c084015161010084015260e08401516101208401528091505092915050565b60008060408385031215612cde57600080fd5b612ce783612b4e565b946020939093013593505050565b60006080828403128015612d0857600080fd5b50604051608081016001600160401b0381118282101715612d2b57612d2b612971565b604052612d3783612b4e565b8152612d4560208401612b4e565b6020820152612d5660408401612b4e565b6040820152612d6760608401612b4e565b60608201529392505050565b600080600060608486031215612d8857600080fd5b505081359360208301359350604090920135919050565b60008060408385031215612db257600080fd5b612dbb83612b4e565b91506020830135612bbf81612bca565b600060208284031215612ddd57600080fd5b8135611c3081612bca565b80516001600160401b031682526020810151602083015260006040820151612e1b60408501826001600160a01b03169052565b5060608201516101206060850152612e37610120850182612a94565b905060808301518482036080860152612e508282612a94565b91505060a083015160a085015260c0830151612e7060c086018215159052565b5060e083015160e08501526101008301516101008501528091505092915050565b602081526000611c306020830184612de8565b602080825282518282018190526000918401906040840190835b81811015612edc578351835260209384019390920191600101612ebe565b509095945050505050565b60088110612f0557634e487b7160e01b600052602160045260246000fd5b9052565b60408101612f178285612ee7565b6001600160a01b039290921660209190910152919050565b600060208284031215612f4157600080fd5b8151611c3081612b85565b634e487b7160e01b600052601160045260246000fd5b60006001600160401b0382166001600160401b038103612f8457612f84612f4c565b60010192915050565b600060018201612f9f57612f9f612f4c565b5060010190565b600181811c90821680612fba57607f821691505b602082108103612fda57634e487b7160e01b600052602260045260246000fd5b50919050565b601f82111561302a57806000526020600020601f840160051c810160208510156130075750805b601f840160051c820191505b818110156130275760008155600101613013565b50505b505050565b81516001600160401b0381111561304857613048612971565b61305c816130568454612fa6565b84612fe0565b6020601f82116001811461309057600083156130785750848201515b600019600385901b1c1916600184901b178455613027565b600084815260208120601f198516915b828110156130c057878501518255602094850194600190920191016130a0565b50848210156130de5786840151600019600387901b60f8161c191681555b50505050600190811b01905550565b6040815260006131006040830185612a94565b90508260208301529392505050565b8181038181111561312257613122612f4c565b92915050565b8082018082111561312257613122612f4c565b60006020828403121561314d57600080fd5b5051919050565b6060815260006131676060830186612a94565b60208301949094525060400152919050565b60608152600061318c6060830186612de8565b828103602084015261319e8186612a94565b91505060018060a01b0383166040830152949350505050565b808202811582820484141761312257613122612f4c565b602081016131228284612ee7565b6000602082840312156131ee57600080fd5b8151611c3081612bca565b6001600160401b03818116838216019081111561312257613122612f4c565b6001600160a01b038316815260408101611c306020830184612ee7565b60006001600160401b0382168061324e5761324e612f4c565b600019019291505056fea2646970667358221220db012af475b1c1567665dc1eb7d3c52523c3b35af6c7e0a0fe6b369d197a3c5764736f6c634300081b0033",
  "linkReferences": {},
  "deployedLinkReferences": {}
}