{
  "_format": "hh-sol-artifact-1",
  "contractName": "ContributorRules",
  "sourceName": "contracts/ContributorRules.sol",
  "abi": [
    {
      "inputs": [
        {
          "internalType": "uint32",
          "name": "timeBetweenWorks_",
          "type": "uint32"
        },
        {
          "internalType": "uint8",
          "name": "maxPenalties_",
          "type": "uint8"
        },
        {
          "internalType": "uint32",
          "name": "securityBlocksToValidation_",
          "type": "uint32"
        }
      ],
      "stateMutability": "nonpayable",
      "type": "constructor"
    },
    {
      "anonymous": false,
      "inputs": [
        {
          "indexed": true,
          "internalType": "uint256",
          "name": "id",
          "type": "uint256"
        },
        {
          "indexed": true,
          "internalType": "address",
          "name": "contributorAddress",
          "type": "address"
        },
        {
          "indexed": false,
          "internalType": "string",
          "name": "description",
          "type": "string"
        },
        {
          "indexed": false,
          "internalType": "uint256",
          "name": "blockNumber",
          "type": "uint256"
        }
      ],
      "name": "ContributionAdded",
      "type": "event"
    },
    {
      "anonymous": false,
      "inputs": [
        {
          "indexed": true,
          "internalType": "uint64",
          "name": "contributionId",
          "type": "uint64"
        },
        {
          "indexed": true,
          "internalType": "address",
          "name": "contributorAddress",
          "type": "address"
        },
        {
          "indexed": false,
          "internalType": "string",
          "name": "justification",
          "type": "string"
        },
        {
          "indexed": false,
          "internalType": "uint256",
          "name": "newPenaltyCount",
          "type": "uint256"
        },
        {
          "indexed": false,
          "internalType": "uint256",
          "name": "blockNumber",
          "type": "uint256"
        }
      ],
      "name": "ContributionInvalidated",
      "type": "event"
    },
    {
      "anonymous": false,
      "inputs": [
        {
          "indexed": true,
          "internalType": "address",
          "name": "contributorAddress",
          "type": "address"
        },
        {
          "indexed": false,
          "internalType": "uint256",
          "name": "newLevel",
          "type": "uint256"
        },
        {
          "indexed": false,
          "internalType": "uint256",
          "name": "blockNumber",
          "type": "uint256"
        }
      ],
      "name": "ContributorLevelIncreased",
      "type": "event"
    },
    {
      "anonymous": false,
      "inputs": [
        {
          "indexed": true,
          "internalType": "address",
          "name": "contributorAddress",
          "type": "address"
        },
        {
          "indexed": false,
          "internalType": "uint256",
          "name": "levelsRemoved",
          "type": "uint256"
        },
        {
          "indexed": false,
          "internalType": "uint256",
          "name": "newLevel",
          "type": "uint256"
        },
        {
          "indexed": false,
          "internalType": "uint256",
          "name": "blockNumber",
          "type": "uint256"
        }
      ],
      "name": "ContributorLevelRemoved",
      "type": "event"
    },
    {
      "anonymous": false,
      "inputs": [
        {
          "indexed": true,
          "internalType": "uint256",
          "name": "id",
          "type": "uint256"
        },
        {
          "indexed": true,
          "internalType": "address",
          "name": "contributorAddress",
          "type": "address"
        },
        {
          "indexed": false,
          "internalType": "string",
          "name": "name",
          "type": "string"
        },
        {
          "indexed": false,
          "internalType": "uint256",
          "name": "blockNumber",
          "type": "uint256"
        }
      ],
      "name": "ContributorRegistered",
      "type": "event"
    },
    {
      "anonymous": false,
      "inputs": [
        {
          "indexed": true,
          "internalType": "address",
          "name": "contributorAddress",
          "type": "address"
        },
        {
          "indexed": true,
          "internalType": "uint256",
          "name": "era",
          "type": "uint256"
        },
        {
          "indexed": false,
          "internalType": "uint256",
          "name": "blockNumber",
          "type": "uint256"
        }
      ],
      "name": "ContributorWithdrawalInitiated",
      "type": "event"
    },
    {
      "anonymous": false,
      "inputs": [
        {
          "indexed": true,
          "internalType": "address",
          "name": "previousOwner",
          "type": "address"
        },
        {
          "indexed": true,
          "internalType": "address",
          "name": "newOwner",
          "type": "address"
        }
      ],
      "name": "OwnershipTransferred",
      "type": "event"
    },
    {
      "inputs": [],
      "name": "INITIAL_USER_COUNT_THRESHOLD",
      "outputs": [
        {
          "internalType": "uint256",
          "name": "",
          "type": "uint256"
        }
      ],
      "stateMutability": "view",
      "type": "function"
    },
    {
      "inputs": [],
      "name": "MAX_USER_COUNT",
      "outputs": [
        {
          "internalType": "uint16",
          "name": "",
          "type": "uint16"
        }
      ],
      "stateMutability": "view",
      "type": "function"
    },
    {
      "inputs": [
        {
          "internalType": "string",
          "name": "description",
          "type": "string"
        },
        {
          "internalType": "string",
          "name": "report",
          "type": "string"
        }
      ],
      "name": "addContribution",
      "outputs": [],
      "stateMutability": "nonpayable",
      "type": "function"
    },
    {
      "inputs": [
        {
          "internalType": "uint64",
          "name": "id",
          "type": "uint64"
        },
        {
          "internalType": "string",
          "name": "justification",
          "type": "string"
        }
      ],
      "name": "addContributionValidation",
      "outputs": [],
      "stateMutability": "nonpayable",
      "type": "function"
    },
    {
      "inputs": [
        {
          "internalType": "string",
          "name": "name",
          "type": "string"
        },
        {
          "internalType": "string",
          "name": "proofPhoto",
          "type": "string"
        }
      ],
      "name": "addContributor",
      "outputs": [],
      "stateMutability": "nonpayable",
      "type": "function"
    },
    {
      "inputs": [
        {
          "internalType": "address",
          "name": "addr",
          "type": "address"
        },
        {
          "internalType": "uint64",
          "name": "contributionId",
          "type": "uint64"
        }
      ],
      "name": "addPenalty",
      "outputs": [
        {
          "internalType": "uint256",
          "name": "",
          "type": "uint256"
        }
      ],
      "stateMutability": "nonpayable",
      "type": "function"
    },
    {
      "inputs": [
        {
          "internalType": "address",
          "name": "",
          "type": "address"
        }
      ],
      "name": "allowedCallers",
      "outputs": [
        {
          "internalType": "bool",
          "name": "",
          "type": "bool"
        }
      ],
      "stateMutability": "view",
      "type": "function"
    },
    {
      "inputs": [
        {
          "internalType": "uint256",
          "name": "totalLevels",
          "type": "uint256"
        },
        {
          "internalType": "uint256",
          "name": "totalUsers",
          "type": "uint256"
        },
        {
          "internalType": "uint256",
          "name": "userLevels",
          "type": "uint256"
        }
      ],
      "name": "canInvite",
      "outputs": [
        {
          "internalType": "bool",
          "name": "",
          "type": "bool"
        }
      ],
      "stateMutability": "pure",
      "type": "function"
    },
    {
      "inputs": [
        {
          "internalType": "address",
          "name": "addr",
          "type": "address"
        }
      ],
      "name": "canPublishContribution",
      "outputs": [
        {
          "internalType": "bool",
          "name": "",
          "type": "bool"
        }
      ],
      "stateMutability": "view",
      "type": "function"
    },
    {
      "inputs": [
        {
          "internalType": "address",
          "name": "addr",
          "type": "address"
        }
      ],
      "name": "canSendInvite",
      "outputs": [
        {
          "internalType": "bool",
          "name": "",
          "type": "bool"
        }
      ],
      "stateMutability": "view",
      "type": "function"
    },
    {
      "inputs": [
        {
          "internalType": "uint256",
          "name": "",
          "type": "uint256"
        }
      ],
      "name": "contributions",
      "outputs": [
        {
          "internalType": "uint64",
          "name": "id",
          "type": "uint64"
        },
        {
          "internalType": "uint256",
          "name": "era",
          "type": "uint256"
        },
        {
          "internalType": "address",
          "name": "user",
          "type": "address"
        },
        {
          "internalType": "string",
          "name": "description",
          "type": "string"
        },
        {
          "internalType": "string",
          "name": "report",
          "type": "string"
        },
        {
          "internalType": "uint256",
          "name": "validationsCount",
          "type": "uint256"
        },
        {
          "internalType": "bool",
          "name": "valid",
          "type": "bool"
        },
        {
          "internalType": "uint256",
          "name": "invalidatedAt",
          "type": "uint256"
        },
        {
          "internalType": "uint256",
          "name": "createdAtBlockNumber",
          "type": "uint256"
        }
      ],
      "stateMutability": "view",
      "type": "function"
    },
    {
      "inputs": [],
      "name": "contributionsCount",
      "outputs": [
        {
          "internalType": "uint64",
          "name": "",
          "type": "uint64"
        }
      ],
      "stateMutability": "view",
      "type": "function"
    },
    {
      "inputs": [
        {
          "internalType": "address",
          "name": "",
          "type": "address"
        },
        {
          "internalType": "uint256",
          "name": "",
          "type": "uint256"
        }
      ],
      "name": "contributionsIds",
      "outputs": [
        {
          "internalType": "uint256",
          "name": "",
          "type": "uint256"
        }
      ],
      "stateMutability": "view",
      "type": "function"
    },
    {
      "inputs": [],
      "name": "contributionsTotalCount",
      "outputs": [
        {
          "internalType": "uint64",
          "name": "",
          "type": "uint64"
        }
      ],
      "stateMutability": "view",
      "type": "function"
    },
    {
      "inputs": [
        {
          "internalType": "uint256",
          "name": "",
          "type": "uint256"
        }
      ],
      "name": "contributorsAddress",
      "outputs": [
        {
          "internalType": "address",
          "name": "",
          "type": "address"
        }
      ],
      "stateMutability": "view",
      "type": "function"
    },
    {
      "inputs": [
        {
          "internalType": "uint64",
          "name": "id",
          "type": "uint64"
        }
      ],
      "name": "getContribution",
      "outputs": [
        {
          "components": [
            {
              "internalType": "uint64",
              "name": "id",
              "type": "uint64"
            },
            {
              "internalType": "uint256",
              "name": "era",
              "type": "uint256"
            },
            {
              "internalType": "address",
              "name": "user",
              "type": "address"
            },
            {
              "internalType": "string",
              "name": "description",
              "type": "string"
            },
            {
              "internalType": "string",
              "name": "report",
              "type": "string"
            },
            {
              "internalType": "uint256",
              "name": "validationsCount",
              "type": "uint256"
            },
            {
              "internalType": "bool",
              "name": "valid",
              "type": "bool"
            },
            {
              "internalType": "uint256",
              "name": "invalidatedAt",
              "type": "uint256"
            },
            {
              "internalType": "uint256",
              "name": "createdAtBlockNumber",
              "type": "uint256"
            }
          ],
          "internalType": "struct Contribution",
          "name": "",
          "type": "tuple"
        }
      ],
      "stateMutability": "view",
      "type": "function"
    },
    {
      "inputs": [
        {
          "internalType": "address",
          "name": "addr",
          "type": "address"
        }
      ],
      "name": "getContributionsIds",
      "outputs": [
        {
          "internalType": "uint256[]",
          "name": "",
          "type": "uint256[]"
        }
      ],
      "stateMutability": "view",
      "type": "function"
    },
    {
      "inputs": [
        {
          "internalType": "address",
          "name": "addr",
          "type": "address"
        }
      ],
      "name": "getContributor",
      "outputs": [
        {
          "components": [
            {
              "internalType": "uint64",
              "name": "id",
              "type": "uint64"
            },
            {
              "internalType": "address",
              "name": "contributorWallet",
              "type": "address"
            },
            {
              "internalType": "string",
              "name": "name",
              "type": "string"
            },
            {
              "internalType": "string",
              "name": "proofPhoto",
              "type": "string"
            },
            {
              "components": [
                {
                  "internalType": "uint256",
                  "name": "level",
                  "type": "uint256"
                },
                {
                  "internalType": "uint256",
                  "name": "currentEra",
                  "type": "uint256"
                }
              ],
              "internalType": "struct Pool",
              "name": "pool",
              "type": "tuple"
            },
            {
              "internalType": "uint256",
              "name": "createdAt",
              "type": "uint256"
            },
            {
              "internalType": "uint256",
              "name": "lastPublishedAt",
              "type": "uint256"
            }
          ],
          "internalType": "struct Contributor",
          "name": "contributor",
          "type": "tuple"
        }
      ],
      "stateMutability": "view",
      "type": "function"
    },
    {
      "inputs": [
        {
          "internalType": "address",
          "name": "caller",
          "type": "address"
        }
      ],
      "name": "isAllowedCaller",
      "outputs": [
        {
          "internalType": "bool",
          "name": "",
          "type": "bool"
        }
      ],
      "stateMutability": "view",
      "type": "function"
    },
    {
      "inputs": [],
      "name": "maxPenalties",
      "outputs": [
        {
          "internalType": "uint8",
          "name": "",
          "type": "uint8"
        }
      ],
      "stateMutability": "view",
      "type": "function"
    },
    {
      "inputs": [
        {
          "internalType": "address",
          "name": "allowed",
          "type": "address"
        }
      ],
      "name": "newAllowedCaller",
      "outputs": [],
      "stateMutability": "nonpayable",
      "type": "function"
    },
    {
      "inputs": [],
      "name": "nextEraIn",
      "outputs": [
        {
          "internalType": "uint256",
          "name": "",
          "type": "uint256"
        }
      ],
      "stateMutability": "view",
      "type": "function"
    },
    {
      "inputs": [],
      "name": "owner",
      "outputs": [
        {
          "internalType": "address",
          "name": "",
          "type": "address"
        }
      ],
      "stateMutability": "view",
      "type": "function"
    },
    {
      "inputs": [
        {
          "internalType": "address",
          "name": "",
          "type": "address"
        },
        {
          "internalType": "uint256",
          "name": "",
          "type": "uint256"
        }
      ],
      "name": "penalties",
      "outputs": [
        {
          "internalType": "uint64",
          "name": "contributionId",
          "type": "uint64"
        }
      ],
      "stateMutability": "view",
      "type": "function"
    },
    {
      "inputs": [],
      "name": "poolCurrentEra",
      "outputs": [
        {
          "internalType": "uint256",
          "name": "",
          "type": "uint256"
        }
      ],
      "stateMutability": "view",
      "type": "function"
    },
    {
      "inputs": [
        {
          "internalType": "address",
          "name": "addr",
          "type": "address"
        },
        {
          "internalType": "uint256",
          "name": "levelsToRemove",
          "type": "uint256"
        }
      ],
      "name": "removePoolLevels",
      "outputs": [],
      "stateMutability": "nonpayable",
      "type": "function"
    },
    {
      "inputs": [],
      "name": "renounceOwnership",
      "outputs": [],
      "stateMutability": "nonpayable",
      "type": "function"
    },
    {
      "inputs": [],
      "name": "securityBlocksToValidation",
      "outputs": [
        {
          "internalType": "uint32",
          "name": "",
          "type": "uint32"
        }
      ],
      "stateMutability": "view",
      "type": "function"
    },
    {
      "inputs": [
        {
          "internalType": "address",
          "name": "_validationRulesAddress",
          "type": "address"
        }
      ],
      "name": "setContractCall",
      "outputs": [],
      "stateMutability": "nonpayable",
      "type": "function"
    },
    {
      "inputs": [
        {
          "components": [
            {
              "internalType": "address",
              "name": "communityRulesAddress",
              "type": "address"
            },
            {
              "internalType": "address",
              "name": "contributorPoolAddress",
              "type": "address"
            },
            {
              "internalType": "address",
              "name": "validationRulesAddress",
              "type": "address"
            },
            {
              "internalType": "address",
              "name": "voteRulesAddress",
              "type": "address"
            }
          ],
          "internalType": "struct ContractsDependency",
          "name": "contractDependency",
          "type": "tuple"
        }
      ],
      "name": "setContractInterfaces",
      "outputs": [],
      "stateMutability": "nonpayable",
      "type": "function"
    },
    {
      "inputs": [],
      "name": "timeBetweenWorks",
      "outputs": [
        {
          "internalType": "uint32",
          "name": "",
          "type": "uint32"
        }
      ],
      "stateMutability": "view",
      "type": "function"
    },
    {
      "inputs": [
        {
          "internalType": "address",
          "name": "addr",
          "type": "address"
        }
      ],
      "name": "totalPenalties",
      "outputs": [
        {
          "internalType": "uint256",
          "name": "",
          "type": "uint256"
        }
      ],
      "stateMutability": "view",
      "type": "function"
    },
    {
      "inputs": [
        {
          "internalType": "address",
          "name": "newOwner",
          "type": "address"
        }
      ],
      "name": "transferOwnership",
      "outputs": [],
      "stateMutability": "nonpayable",
      "type": "function"
    },
    {
      "inputs": [],
      "name": "withdraw",
      "outputs": [],
      "stateMutability": "nonpayable",
      "type": "function"
    }
  ],
  "bytecode": "0x60e060405234801561001057600080fd5b506040516132bc3803806132bc83398101604081905261002f916100c2565b61003833610059565b600160025563ffffffff92831660a05260ff9091166080521660c05261010d565b600080546001600160a01b038381166001600160a01b0319831681178455604051919092169283917f8be0079c531659141344cd1fd0a4f28419497f9722a3daafe3b4186f6b6457e09190a35050565b805163ffffffff811681146100bd57600080fd5b919050565b6000806000606084860312156100d757600080fd5b6100e0846100a9565b9250602084015160ff811681146100f657600080fd5b9150610104604085016100a9565b90509250925092565b60805160a05160c05161317261014a600039600081816102b301526106cd01526000818161038001526119bb015260006104c401526131726000f3fe608060405234801561001057600080fd5b50600436106102065760003560e01c80637c647a621161011a578063b24eb769116100ad578063c77c1ce61161007c578063c77c1ce614610543578063cae5366b14610556578063da0e0f9714610576578063e05cf15514610596578063f2fde38b1461059e57600080fd5b8063b24eb769146104bf578063b7e97777146104f8578063be9dc58414610521578063c69685561461052957600080fd5b80639eaf666f116100e95780639eaf666f1461045a578063a68012581461046d578063b0fd59f314610499578063b1e86655146104ac57600080fd5b80637c647a62146103fc5780638da5cb5b1461040f5780638f93716f1461043457806391155f191461044757600080fd5b80633d8270f51161019d5780636b6c7c2d1161016c5780636b6c7c2d1461037b5780636ec7053a146103a2578063715018a6146103be578063755d4f97146103c65780637b334154146103d957600080fd5b80633d8270f51461031d578063582256f11461033d578063585506bf146103455780635fa71c281461036857600080fd5b8063231a9b86116101d9578063231a9b861461029b57806335c11677146102ae57806338658175146102ea5780633ccfd60b1461031557600080fd5b8063129de9651461020b57806318ad5c9a146102205780631cee0700146102335780632076267b14610264575b600080fd5b61021e610219366004612937565b6105b1565b005b61021e61022e3660046129ba565b6109f7565b6102466102413660046129e4565b610d4a565b60405161025b99989796959493929190612a43565b60405180910390f35b61028d610272366004612ab7565b6001600160a01b03166000908152600d602052604090205490565b60405190815260200161025b565b61021e6102a9366004612ae7565b610ebc565b6102d57f000000000000000000000000000000000000000000000000000000000000000081565b60405163ffffffff909116815260200161025b565b6003546102fd906001600160401b031681565b6040516001600160401b03909116815260200161025b565b61021e6114b7565b61033061032b366004612ab7565b61171f565b60405161025b9190612b20565b61028d611914565b610358610353366004612ab7565b611994565b604051901515815260200161025b565b6102fd6103763660046129ba565b6119f7565b6102d57f000000000000000000000000000000000000000000000000000000000000000081565b6103ab613e8081565b60405161ffff909116815260200161025b565b61021e611a2f565b61021e6103d4366004612ab7565b611a41565b6103586103e7366004612ab7565b60016020526000908152604090205460ff1681565b61021e61040a366004612bbe565b611a6b565b6000546001600160a01b03165b6040516001600160a01b03909116815260200161025b565b61021e610442366004612ab7565b611ad0565b61028d6104553660046129ba565b611aff565b610358610468366004612c3c565b611b30565b61035861047b366004612ab7565b6001600160a01b031660009081526001602052604090205460ff1690565b61021e6104a7366004612937565b611b67565b61028d6104ba366004612c68565b611eca565b6104e67f000000000000000000000000000000000000000000000000000000000000000081565b60405160ff909116815260200161025b565b61041c6105063660046129e4565b6006602052600090815260409020546001600160a01b031681565b61028d600581565b6003546102fd90600160401b90046001600160401b031681565b610358610551366004612ab7565b611fe2565b610569610564366004612c9f565b612241565b60405161025b9190612d65565b610589610584366004612ab7565b6123f4565b60405161025b9190612d78565b61028d612460565b61021e6105ac366004612ab7565b6124aa565b6105b9612523565b815161012c108015906105ce57508051609610155b6106185760405162461bcd60e51b815260206004820152601660248201527513585e0818da185c9858dd195c9cc81c995858da195960521b60448201526064015b60405180910390fd5b600854604051631292f8c160e31b81526001600160a01b0390911690639497c6089061064b906005903390600401612ddd565b602060405180830381865afa158015610668573d6000803e3d6000fd5b505050506040513d601f19601f8201168201806040525081019061068c9190612e03565b6106cb5760405162461bcd60e51b815260206004820152601060248201526f27b7363c9021b7b73a3934b13aba37b960811b604482015260640161060f565b7f000000000000000000000000000000000000000000000000000000000000000063ffffffff166106fa611914565b116107575760405162461bcd60e51b815260206004820152602760248201527f5761697420756e74696c206e6578742065726120746f2061646420636f6e747260448201526634b13aba34b7b760c91b606482015260840161060f565b61076033611994565b6107a05760405162461bcd60e51b815260206004820152601160248201527010d85b89dd081c1d589b1a5cda081e595d607a1b604482015260640161060f565b600380546001600160401b03169060006107b983612e3b565b91906101000a8154816001600160401b0302191690836001600160401b03160217905550506003600881819054906101000a90046001600160401b03168092919061080390612e3b565b91906101000a8154816001600160401b0302191690836001600160401b03160217905550506000600360089054906101000a90046001600160401b03169050604051806101200160405280826001600160401b03168152602001610865612460565b81523360208083019190915260408083018790526060808401879052600060808501819052600160a0860181905260c086018290524360e0909601959095526001600160401b03878116825260058552908390208651815467ffffffffffffffff1916921691909117815592850151938301939093558301516002820180546001600160a01b0319166001600160a01b039092169190911790559082015160038201906109129082612eef565b50608082015160048201906109279082612eef565b5060a0820151600582015560c082015160068201805460ff191691151591909117905560e08201516007808301919091556101009092015160089091015533600081815260209283526040812080546001810182559082529290206001600160401b03841692019190915561099b9061257a565b336001600160a01b0316816001600160401b03167fc6aae0d562ab183f7fbeb19b28e6ce69e68fa31da15096224a655f5d4c2e26c385436040516109e0929190612fad565b60405180910390a3506109f36001600255565b5050565b3360009081526001602052604090205460ff16610a4b5760405162461bcd60e51b81526020600482015260126024820152712737ba1030b63637bbb2b21031b0b63632b960711b604482015260640161060f565b600c546001600160a01b0316338114610aa65760405162461bcd60e51b815260206004820152601e60248201527f43616c6c6572206d7573742062652073797374656d20636f6e74726163740000604482015260640161060f565b6001600160a01b038084166000908152600460209081526040808320815160e08101835281546001600160401b0381168252600160401b90049095169285019290925260018201805493949391840191610aff90612e66565b80601f0160208091040260200160405190810160405280929190818152602001828054610b2b90612e66565b8015610b785780601f10610b4d57610100808354040283529160200191610b78565b820191906000526020600020905b815481529060010190602001808311610b5b57829003601f168201915b50505050508152602001600282018054610b9190612e66565b80601f0160208091040260200160405190810160405280929190818152602001828054610bbd90612e66565b8015610c0a5780601f10610bdf57610100808354040283529160200191610c0a565b820191906000526020600020905b815481529060010190602001808311610bed57829003601f168201915b5050509183525050604080518082018252600384015481526004840154602082810191909152830152600583015490820152600690910154606090910152905082610c5a57608081015151610c5c565b825b6001600160a01b03851660009081526004602052604081206003018054909190610c87908490612fcf565b9091555050600954604051630c56ae4d60e11b81526001600160a01b03868116600483015260248201869052909116906318ad5c9a90604401600060405180830381600087803b158015610cda57600080fd5b505af1158015610cee573d6000803e3d6000fd5b50505060808201515160408051868152602081019290925243908201526001600160a01b03861691507f239c80638dc2cd0370d2c706ac5b3a71ce4a93927524d84ffeca938df5cb28989060600160405180910390a250505050565b60056020526000908152604090208054600182015460028301546003840180546001600160401b039094169492936001600160a01b039092169291610d8e90612e66565b80601f0160208091040260200160405190810160405280929190818152602001828054610dba90612e66565b8015610e075780601f10610ddc57610100808354040283529160200191610e07565b820191906000526020600020905b815481529060010190602001808311610dea57829003601f168201915b505050505090806004018054610e1c90612e66565b80601f0160208091040260200160405190810160405280929190818152602001828054610e4890612e66565b8015610e955780601f10610e6a57610100808354040283529160200191610e95565b820191906000526020600020905b815481529060010190602001808311610e7857829003601f168201915b505050506005830154600684015460078501546008909501549394919360ff909116925089565b610ec4612523565b805161012c1015610f085760405162461bcd60e51b815260206004820152600e60248201526d4d6178206368617261637465727360901b604482015260640161060f565b600b546040516356fd539760e11b81523360048201526001600160a01b039091169063adfaa72e90602401602060405180830381865afa158015610f50573d6000803e3d6000fd5b505050506040513d601f19601f82011682018060405250810190610f749190612e03565b610fae5760405162461bcd60e51b815260206004820152600b60248201526a2737ba1030903b37ba32b960a91b604482015260640161060f565b600a54604051630d84466b60e21b81523360048201526001600160a01b039091169063361119ac90602401602060405180830381865afa158015610ff6573d6000803e3d6000fd5b505050506040513d601f19601f8201168201806040525081019061101a9190612e03565b61105e5760405162461bcd60e51b8152602060048201526015602482015274576169742074696d654265747765656e566f74657360581b604482015260640161060f565b6001600160401b0380831660009081526005602090815260408083208151610120810183528154909516855260018101549285019290925260028201546001600160a01b0316908401526003810180549293926060840191906110c090612e66565b80601f01602080910402602001604051908101604052809291908181526020018280546110ec90612e66565b80156111395780601f1061110e57610100808354040283529160200191611139565b820191906000526020600020905b81548152906001019060200180831161111c57829003601f168201915b5050505050815260200160048201805461115290612e66565b80601f016020809104026020016040519081016040528092919081815260200182805461117e90612e66565b80156111cb5780601f106111a0576101008083540402835291602001916111cb565b820191906000526020600020905b8154815290600101906020018083116111ae57829003601f168201915b505050918352505060058201546020820152600682015460ff16151560408201526007820154606082015260089091015460809091015260c081015190915080156112205750806020015161121e612460565b145b61126c5760405162461bcd60e51b815260206004820152601e60248201527f5468697320636f6e747269627574696f6e206973206e6f742056414c49440000604482015260640161060f565b60018160a00181815161127f9190612fe8565b9052506001600160401b038381166000908152600560209081526040918290208451815467ffffffffffffffff1916941693909317835583015160018301558201516002820180546001600160a01b0319166001600160a01b03909216919091179055606082015182919060038201906112f99082612eef565b506080820151600482019061130e9082612eef565b5060a0820151600582015560c082015160068201805460ff191691151591909117905560e0820151600782015561010090910151600890910155600a54604080516369bf81c360e01b815290516000926001600160a01b0316916369bf81c39160048083019260209291908290030181865afa158015611392573d6000803e3d6000fd5b505050506040513d601f19601f820116820180604052508101906113b69190612ffb565b60a08301511080159150611445576113cd8261267a565b915081604001516001600160a01b0316846001600160401b03167f877210aa63ada7585f903bc529a6691c6e70aeeb79dd69e7c16011733f8d33828561142c86604001516001600160a01b03166000908152600d602052604090205490565b4360405161143c93929190613014565b60405180910390a35b600a546040516347ec8e9760e01b81526001600160a01b03909116906347ec8e979061147990859087903390600401613039565b600060405180830381600087803b15801561149357600080fd5b505af11580156114a7573d6000803e3d6000fd5b5050505050506109f36001600255565b6114bf612523565b600854604051631292f8c160e31b81526001600160a01b0390911690639497c608906114f2906005903390600401612ddd565b602060405180830381865afa15801561150f573d6000803e3d6000fd5b505050506040513d601f19601f820116820180604052508101906115339190612e03565b61157f5760405162461bcd60e51b815260206004820152601860248201527f506f6f6c206f6e6c7920746f20636f6e7472696275746f720000000000000000604482015260640161060f565b33600090815260046020819052604091829020808201546009549351637df42f8360e11b8152928301819052909290916001600160a01b039091169063fbe85f0690602401602060405180830381865afa1580156115e1573d6000803e3d6000fd5b505050506040513d601f19601f820116820180604052508101906116059190612e03565b61165f5760405162461bcd60e51b815260206004820152602560248201527f4e6f7420656c696769626c6520746f20776974686472617720666f7220746869604482015264732065726160d81b606482015260840161060f565b60048201805490600061167183613077565b909155505060095460405163f3fef3a360e01b8152336004820152602481018390526001600160a01b039091169063f3fef3a390604401600060405180830381600087803b1580156116c257600080fd5b505af11580156116d6573d6000803e3d6000fd5b50506040514381528392503391507fb40adf9f22b112880b7b93e1732c34e633b966b07e6348eda20450f7e9c114e79060200160405180910390a3505061171d6001600255565b565b61176d6040805160e081018252600080825260208083018290526060838501819052808401528351808501909452818452830152906080820190815260200160008152602001600081525090565b6001600160a01b03808316600090815260046020908152604091829020825160e08101845281546001600160401b0381168252600160401b90049094169184019190915260018101805491928401916117c590612e66565b80601f01602080910402602001604051908101604052809291908181526020018280546117f190612e66565b801561183e5780601f106118135761010080835404028352916020019161183e565b820191906000526020600020905b81548152906001019060200180831161182157829003601f168201915b5050505050815260200160028201805461185790612e66565b80601f016020809104026020016040519081016040528092919081815260200182805461188390612e66565b80156118d05780601f106118a5576101008083540402835291602001916118d0565b820191906000526020600020905b8154815290600101906020018083116118b357829003601f168201915b505050918352505060408051808201825260038401548152600484015460208281019190915283015260058301549082015260069091015460609091015292915050565b6009546000906001600160a01b031663d5ee3eb5611930612460565b6040518263ffffffff1660e01b815260040161194e91815260200190565b602060405180830381865afa15801561196b573d6000803e3d6000fd5b505050506040513d601f19601f8201168201806040525081019061198f9190612ffb565b905090565b6001600160a01b038116600090815260046020526040812060060154816119e163ffffffff7f00000000000000000000000000000000000000000000000000000000000000001683612fe8565b4311905080806119ef575081155b949350505050565b600d6020528160005260406000208181548110611a1357600080fd5b6000918252602090912001546001600160401b03169150829050565b611a3761278a565b61171d60006127e4565b611a4961278a565b600c80546001600160a01b0319166001600160a01b0392909216919091179055565b611a7361278a565b8051600880546001600160a01b03199081166001600160a01b039384161790915560208301516009805483169184169190911790556040830151600a80548316918416919091179055606090920151600b80549093169116179055565b611ad861278a565b6001600160a01b03166000908152600160208190526040909120805460ff19169091179055565b60076020528160005260406000208181548110611b1b57600080fd5b90600052602060002001600091509150505481565b600060058311611b4257506001611b60565b6000611b4e8486613090565b611b59906001612fe8565b8310159150505b9392505050565b8151603210801590611b7b57508051609610155b611bb85760405162461bcd60e51b815260206004820152600e60248201526d4d6178206368617261637465727360901b604482015260640161060f565b600854604051632f22dc7b60e01b8152613e80916001600160a01b031690632f22dc7b90611beb906005906004016130b2565b602060405180830381865afa158015611c08573d6000803e3d6000fd5b505050506040513d601f19601f82011682018060405250810190611c2c9190612ffb565b1115611c6b5760405162461bcd60e51b815260206004820152600e60248201526d13585e081d5cd95c881b1a5b5a5d60921b604482015260640161060f565b60085460405162f5960960e51b81526000916001600160a01b031690631eb2c12090611c9c906005906004016130b2565b602060405180830381865afa158015611cb9573d6000803e3d6000fd5b505050506040513d601f19601f82011682018060405250810190611cdd91906130c0565b611ce89060016130dd565b90506040518060e00160405280826001600160401b03168152602001336001600160a01b03168152602001848152602001838152602001604051806040016040528060008152602001611d39612460565b9052815243602080830191909152600060409283018190523381526004825282902083518154928501516001600160a01b0316600160401b026001600160e01b03199093166001600160401b0390911617919091178155908201516001820190611da39082612eef565b5060608201516002820190611db89082612eef565b5060808201518051600383015560209081015160048084019190915560a084015160058085019190915560c0909401516006938401556001600160401b03851660009081529290915260409182902080546001600160a01b031916339081179091556008549251639c3eead960e01b81526001600160a01b039390931693639c3eead993611e4693016130fc565b600060405180830381600087803b158015611e6057600080fd5b505af1158015611e74573d6000803e3d6000fd5b50505050336001600160a01b0316816001600160401b03167fc8261a89bb2ba1bec86e2467cbc6d7c91bcceef268691b418bc08e888e43f3388543604051611ebd929190612fad565b60405180910390a3505050565b3360009081526001602052604081205460ff16611f1e5760405162461bcd60e51b81526020600482015260126024820152712737ba1030b63637bbb2b21031b0b63632b960711b604482015260640161060f565b600c546001600160a01b0316338114611f795760405162461bcd60e51b815260206004820152601e60248201527f43616c6c6572206d7573742062652073797374656d20636f6e74726163740000604482015260640161060f565b6001600160a01b0384166000818152600d6020818152604080842081518084019092526001600160401b038981168352815460018101835582875284872093519301805467ffffffffffffffff1916939091169290921790915593909252905254949350505050565b6001600160a01b038082166000908152600460209081526040808320815160e08101835281546001600160401b0381168252600160401b900490951692850192909252600182018054939485949093928401919061203f90612e66565b80601f016020809104026020016040519081016040528092919081815260200182805461206b90612e66565b80156120b85780601f1061208d576101008083540402835291602001916120b8565b820191906000526020600020905b81548152906001019060200180831161209b57829003601f168201915b505050505081526020016002820180546120d190612e66565b80601f01602080910402602001604051908101604052809291908181526020018280546120fd90612e66565b801561214a5780601f1061211f5761010080835404028352916020019161214a565b820191906000526020600020905b81548152906001019060200180831161212d57829003601f168201915b505050918352505060408051808201825260038401548152600484015460208281019190915283015260058301549082015260069091015460609091015280519091506001600160401b03166121a35750600092915050565b60035460085460405162f5960960e51b8152611b6092600160401b90046001600160401b0316916001600160a01b031690631eb2c120906121e9906005906004016130b2565b602060405180830381865afa158015612206573d6000803e3d6000fd5b505050506040513d601f19601f8201168201806040525081019061222a91906130c0565b6001600160401b0316836080015160000151611b30565b612249612834565b6001600160401b038083166000908152600560209081526040918290208251610120810184528154909416845260018101549184019190915260028101546001600160a01b0316918301919091526003810180546060840191906122ac90612e66565b80601f01602080910402602001604051908101604052809291908181526020018280546122d890612e66565b80156123255780601f106122fa57610100808354040283529160200191612325565b820191906000526020600020905b81548152906001019060200180831161230857829003601f168201915b5050505050815260200160048201805461233e90612e66565b80601f016020809104026020016040519081016040528092919081815260200182805461236a90612e66565b80156123b75780601f1061238c576101008083540402835291602001916123b7565b820191906000526020600020905b81548152906001019060200180831161239a57829003601f168201915b505050918352505060058201546020820152600682015460ff16151560408201526007820154606082015260089091015460809091015292915050565b6001600160a01b03811660009081526007602090815260409182902080548351818402810184019094528084526060939283018282801561245457602002820191906000526020600020905b815481526020019060010190808311612440575b50505050509050919050565b60095460408051637686fbcf60e11b815290516000926001600160a01b03169163ed0df79e9160048083019260209291908290030181865afa15801561196b573d6000803e3d6000fd5b6124b261278a565b6001600160a01b0381166125175760405162461bcd60e51b815260206004820152602660248201527f4f776e61626c653a206e6577206f776e657220697320746865207a65726f206160448201526564647265737360d01b606482015260840161060f565b612520816127e4565b50565b60028054036125745760405162461bcd60e51b815260206004820152601f60248201527f5265656e7472616e637947756172643a207265656e7472616e742063616c6c00604482015260640161060f565b60028055565b6001600160a01b0381166000908152600460205260408120805490916001600160401b0390911690036125ab575050565b4360068201556003810180549060006125c383613077565b90915550506009546040516352b8d3ed60e01b81526001600160a01b03848116600483015260016024830152909116906352b8d3ed90604401600060405180830381600087803b15801561261657600080fd5b505af115801561262a573d6000803e3d6000fd5b505050506003810154604080519182524360208301526001600160a01b038416917f98124a7baa4200982491adbb05ed4b64c8c04aab157bc086bfc71b96540a7e11910160405180910390a25050565b612682612834565b600380546001600160401b031690600061269b83613119565b82546101009290920a6001600160401b03818102199093169183160217909155600060c085018190524360e0860152845182168152600560209081526040918290208651815467ffffffffffffffff1916941693909317835585015160018301558401516002820180546001600160a01b0319166001600160a01b03909216919091179055606084015184925060038201906127379082612eef565b506080820151600482019061274c9082612eef565b5060a0820151600582015560c082015160068201805460ff191691151591909117905560e08201516007820155610100909101516008909101555090565b6000546001600160a01b0316331461171d5760405162461bcd60e51b815260206004820181905260248201527f4f776e61626c653a2063616c6c6572206973206e6f7420746865206f776e6572604482015260640161060f565b600080546001600160a01b038381166001600160a01b0319831681178455604051919092169283917f8be0079c531659141344cd1fd0a4f28419497f9722a3daafe3b4186f6b6457e09190a35050565b60405180610120016040528060006001600160401b031681526020016000815260200160006001600160a01b0316815260200160608152602001606081526020016000815260200160001515815260200160008152602001600081525090565b634e487b7160e01b600052604160045260246000fd5b600082601f8301126128bb57600080fd5b81356001600160401b038111156128d4576128d4612894565b604051601f8201601f19908116603f011681016001600160401b038111828210171561290257612902612894565b60405281815283820160200185101561291a57600080fd5b816020850160208301376000918101602001919091529392505050565b6000806040838503121561294a57600080fd5b82356001600160401b0381111561296057600080fd5b61296c858286016128aa565b92505060208301356001600160401b0381111561298857600080fd5b612994858286016128aa565b9150509250929050565b80356001600160a01b03811681146129b557600080fd5b919050565b600080604083850312156129cd57600080fd5b6129d68361299e565b946020939093013593505050565b6000602082840312156129f657600080fd5b5035919050565b6000815180845260005b81811015612a2357602081850181015186830182015201612a07565b506000602082860101526020601f19601f83011685010191505092915050565b6001600160401b038a16815288602082015260018060a01b038816604082015261012060608201526000612a7b6101208301896129fd565b8281036080840152612a8d81896129fd565b60a0840197909752505092151560c084015260e08301919091526101009091015295945050505050565b600060208284031215612ac957600080fd5b611b608261299e565b6001600160401b038116811461252057600080fd5b60008060408385031215612afa57600080fd5b8235612b0581612ad2565b915060208301356001600160401b0381111561298857600080fd5b602081526001600160401b03825116602082015260018060a01b036020830151166040820152600060408301516101006060840152612b636101208401826129fd565b90506060840151601f19848303016080850152612b8082826129fd565b9150506080840151612b9f60a085018280518252602090810151910152565b5060a084015160e084015260c090930151610100909201919091525090565b60006080828403128015612bd157600080fd5b50604051608081016001600160401b0381118282101715612bf457612bf4612894565b604052612c008361299e565b8152612c0e6020840161299e565b6020820152612c1f6040840161299e565b6040820152612c306060840161299e565b60608201529392505050565b600080600060608486031215612c5157600080fd5b505081359360208301359350604090920135919050565b60008060408385031215612c7b57600080fd5b612c848361299e565b91506020830135612c9481612ad2565b809150509250929050565b600060208284031215612cb157600080fd5b8135611b6081612ad2565b80516001600160401b031682526020810151602083015260006040820151612cef60408501826001600160a01b03169052565b5060608201516101206060850152612d0b6101208501826129fd565b905060808301518482036080860152612d2482826129fd565b91505060a083015160a085015260c0830151612d4460c086018215159052565b5060e083015160e08501526101008301516101008501528091505092915050565b602081526000611b606020830184612cbc565b602080825282518282018190526000918401906040840190835b81811015612db0578351835260209384019390920191600101612d92565b509095945050505050565b60098110612dd957634e487b7160e01b600052602160045260246000fd5b9052565b60408101612deb8285612dbb565b6001600160a01b039290921660209190910152919050565b600060208284031215612e1557600080fd5b81518015158114611b6057600080fd5b634e487b7160e01b600052601160045260246000fd5b60006001600160401b0382166001600160401b038103612e5d57612e5d612e25565b60010192915050565b600181811c90821680612e7a57607f821691505b602082108103612e9a57634e487b7160e01b600052602260045260246000fd5b50919050565b601f821115612eea57806000526020600020601f840160051c81016020851015612ec75750805b601f840160051c820191505b81811015612ee75760008155600101612ed3565b50505b505050565b81516001600160401b03811115612f0857612f08612894565b612f1c81612f168454612e66565b84612ea0565b6020601f821160018114612f505760008315612f385750848201515b600019600385901b1c1916600184901b178455612ee7565b600084815260208120601f198516915b82811015612f805787850151825560209485019460019092019101612f60565b5084821015612f9e5786840151600019600387901b60f8161c191681555b50505050600190811b01905550565b604081526000612fc060408301856129fd565b90508260208301529392505050565b81810381811115612fe257612fe2612e25565b92915050565b80820180821115612fe257612fe2612e25565b60006020828403121561300d57600080fd5b5051919050565b60608152600061302760608301866129fd565b60208301949094525060400152919050565b60608152600061304c6060830186612cbc565b828103602084015261305e81866129fd565b91505060018060a01b0383166040830152949350505050565b60006001820161308957613089612e25565b5060010190565b6000826130ad57634e487b7160e01b600052601260045260246000fd5b500490565b60208101612fe28284612dbb565b6000602082840312156130d257600080fd5b8151611b6081612ad2565b6001600160401b038181168382160190811115612fe257612fe2612e25565b6001600160a01b038316815260408101611b606020830184612dbb565b60006001600160401b0382168061313257613132612e25565b600019019291505056fea26469706673582212204a2a9fdc104aa1a77f073895b57da4e4472f6910a8da0a5692ee5c128ef4f16c64736f6c634300081b0033",
  "linkReferences": {},
  "deployedLinkReferences": {}
}