{
  "_format": "hh-sol-artifact-1",
  "contractName": "ContributorRules",
  "sourceName": "contracts/ContributorRules.sol",
  "abi": [
    {
      "inputs": [
        {
          "internalType": "address",
          "name": "communityRulesAddress",
          "type": "address"
        },
        {
          "internalType": "address",
          "name": "contributorPoolAddress",
          "type": "address"
        },
        {
          "internalType": "uint256",
          "name": "timeBetweenWorks_",
          "type": "uint256"
        },
        {
          "internalType": "uint256",
          "name": "securityBlocksToValidatorAnalysis",
          "type": "uint256"
        }
      ],
      "stateMutability": "nonpayable",
      "type": "constructor"
    },
    {
      "anonymous": false,
      "inputs": [
        {
          "indexed": true,
          "internalType": "address",
          "name": "previousOwner",
          "type": "address"
        },
        {
          "indexed": true,
          "internalType": "address",
          "name": "newOwner",
          "type": "address"
        }
      ],
      "name": "OwnershipTransferred",
      "type": "event"
    },
    {
      "inputs": [],
      "name": "SECURITY_BLOCKS_TO_VALIDATOR_ANALYSIS",
      "outputs": [
        {
          "internalType": "uint256",
          "name": "",
          "type": "uint256"
        }
      ],
      "stateMutability": "view",
      "type": "function"
    },
    {
      "inputs": [
        {
          "internalType": "string",
          "name": "description",
          "type": "string"
        },
        {
          "internalType": "string",
          "name": "report",
          "type": "string"
        }
      ],
      "name": "addContribution",
      "outputs": [],
      "stateMutability": "nonpayable",
      "type": "function"
    },
    {
      "inputs": [
        {
          "internalType": "string",
          "name": "name",
          "type": "string"
        },
        {
          "internalType": "string",
          "name": "proofPhoto",
          "type": "string"
        }
      ],
      "name": "addContributor",
      "outputs": [],
      "stateMutability": "nonpayable",
      "type": "function"
    },
    {
      "inputs": [
        {
          "internalType": "address",
          "name": "",
          "type": "address"
        }
      ],
      "name": "allowedCallers",
      "outputs": [
        {
          "internalType": "bool",
          "name": "",
          "type": "bool"
        }
      ],
      "stateMutability": "view",
      "type": "function"
    },
    {
      "inputs": [
        {
          "internalType": "uint256",
          "name": "totalLevels",
          "type": "uint256"
        },
        {
          "internalType": "uint256",
          "name": "totalUsers",
          "type": "uint256"
        },
        {
          "internalType": "uint256",
          "name": "userLevels",
          "type": "uint256"
        }
      ],
      "name": "canInvite",
      "outputs": [
        {
          "internalType": "bool",
          "name": "",
          "type": "bool"
        }
      ],
      "stateMutability": "pure",
      "type": "function"
    },
    {
      "inputs": [
        {
          "internalType": "address",
          "name": "addr",
          "type": "address"
        }
      ],
      "name": "canSendInvite",
      "outputs": [
        {
          "internalType": "bool",
          "name": "",
          "type": "bool"
        }
      ],
      "stateMutability": "view",
      "type": "function"
    },
    {
      "inputs": [
        {
          "internalType": "uint256",
          "name": "",
          "type": "uint256"
        }
      ],
      "name": "contributions",
      "outputs": [
        {
          "internalType": "uint256",
          "name": "id",
          "type": "uint256"
        },
        {
          "internalType": "uint256",
          "name": "era",
          "type": "uint256"
        },
        {
          "internalType": "address",
          "name": "user",
          "type": "address"
        },
        {
          "internalType": "string",
          "name": "description",
          "type": "string"
        },
        {
          "internalType": "string",
          "name": "report",
          "type": "string"
        },
        {
          "internalType": "uint256",
          "name": "createdAtBlockNumber",
          "type": "uint256"
        }
      ],
      "stateMutability": "view",
      "type": "function"
    },
    {
      "inputs": [],
      "name": "contributionsCount",
      "outputs": [
        {
          "internalType": "uint256",
          "name": "",
          "type": "uint256"
        }
      ],
      "stateMutability": "view",
      "type": "function"
    },
    {
      "inputs": [
        {
          "internalType": "address",
          "name": "addr",
          "type": "address"
        }
      ],
      "name": "contributorExists",
      "outputs": [
        {
          "internalType": "bool",
          "name": "",
          "type": "bool"
        }
      ],
      "stateMutability": "view",
      "type": "function"
    },
    {
      "inputs": [
        {
          "internalType": "address",
          "name": "",
          "type": "address"
        }
      ],
      "name": "contributors",
      "outputs": [
        {
          "internalType": "uint256",
          "name": "id",
          "type": "uint256"
        },
        {
          "internalType": "address",
          "name": "contributorWallet",
          "type": "address"
        },
        {
          "internalType": "string",
          "name": "name",
          "type": "string"
        },
        {
          "internalType": "string",
          "name": "proofPhoto",
          "type": "string"
        },
        {
          "components": [
            {
              "internalType": "uint256",
              "name": "level",
              "type": "uint256"
            },
            {
              "internalType": "uint256",
              "name": "currentEra",
              "type": "uint256"
            }
          ],
          "internalType": "struct Pool",
          "name": "pool",
          "type": "tuple"
        },
        {
          "internalType": "uint256",
          "name": "createdAt",
          "type": "uint256"
        },
        {
          "internalType": "uint256",
          "name": "lastPublishedAt",
          "type": "uint256"
        }
      ],
      "stateMutability": "view",
      "type": "function"
    },
    {
      "inputs": [
        {
          "internalType": "uint256",
          "name": "",
          "type": "uint256"
        }
      ],
      "name": "contributorsAddress",
      "outputs": [
        {
          "internalType": "address",
          "name": "",
          "type": "address"
        }
      ],
      "stateMutability": "view",
      "type": "function"
    },
    {
      "inputs": [
        {
          "internalType": "uint256",
          "name": "id",
          "type": "uint256"
        }
      ],
      "name": "getContribution",
      "outputs": [
        {
          "components": [
            {
              "internalType": "uint256",
              "name": "id",
              "type": "uint256"
            },
            {
              "internalType": "uint256",
              "name": "era",
              "type": "uint256"
            },
            {
              "internalType": "address",
              "name": "user",
              "type": "address"
            },
            {
              "internalType": "string",
              "name": "description",
              "type": "string"
            },
            {
              "internalType": "string",
              "name": "report",
              "type": "string"
            },
            {
              "internalType": "uint256",
              "name": "createdAtBlockNumber",
              "type": "uint256"
            }
          ],
          "internalType": "struct Contribution",
          "name": "",
          "type": "tuple"
        }
      ],
      "stateMutability": "view",
      "type": "function"
    },
    {
      "inputs": [
        {
          "internalType": "address",
          "name": "addr",
          "type": "address"
        }
      ],
      "name": "getContributor",
      "outputs": [
        {
          "components": [
            {
              "internalType": "uint256",
              "name": "id",
              "type": "uint256"
            },
            {
              "internalType": "address",
              "name": "contributorWallet",
              "type": "address"
            },
            {
              "internalType": "string",
              "name": "name",
              "type": "string"
            },
            {
              "internalType": "string",
              "name": "proofPhoto",
              "type": "string"
            },
            {
              "components": [
                {
                  "internalType": "uint256",
                  "name": "level",
                  "type": "uint256"
                },
                {
                  "internalType": "uint256",
                  "name": "currentEra",
                  "type": "uint256"
                }
              ],
              "internalType": "struct Pool",
              "name": "pool",
              "type": "tuple"
            },
            {
              "internalType": "uint256",
              "name": "createdAt",
              "type": "uint256"
            },
            {
              "internalType": "uint256",
              "name": "lastPublishedAt",
              "type": "uint256"
            }
          ],
          "internalType": "struct Contributor",
          "name": "contributor",
          "type": "tuple"
        }
      ],
      "stateMutability": "view",
      "type": "function"
    },
    {
      "inputs": [
        {
          "internalType": "address",
          "name": "caller",
          "type": "address"
        }
      ],
      "name": "isAllowedCaller",
      "outputs": [
        {
          "internalType": "bool",
          "name": "",
          "type": "bool"
        }
      ],
      "stateMutability": "view",
      "type": "function"
    },
    {
      "inputs": [
        {
          "internalType": "address",
          "name": "allowed",
          "type": "address"
        }
      ],
      "name": "newAllowedCaller",
      "outputs": [],
      "stateMutability": "nonpayable",
      "type": "function"
    },
    {
      "inputs": [],
      "name": "nextEraIn",
      "outputs": [
        {
          "internalType": "uint256",
          "name": "",
          "type": "uint256"
        }
      ],
      "stateMutability": "view",
      "type": "function"
    },
    {
      "inputs": [],
      "name": "owner",
      "outputs": [
        {
          "internalType": "address",
          "name": "",
          "type": "address"
        }
      ],
      "stateMutability": "view",
      "type": "function"
    },
    {
      "inputs": [
        {
          "internalType": "address",
          "name": "addr",
          "type": "address"
        },
        {
          "internalType": "uint256",
          "name": "removeSomeLevels",
          "type": "uint256"
        }
      ],
      "name": "removePoolLevels",
      "outputs": [],
      "stateMutability": "nonpayable",
      "type": "function"
    },
    {
      "inputs": [],
      "name": "renounceOwnership",
      "outputs": [],
      "stateMutability": "nonpayable",
      "type": "function"
    },
    {
      "inputs": [
        {
          "internalType": "address",
          "name": "newOwner",
          "type": "address"
        }
      ],
      "name": "transferOwnership",
      "outputs": [],
      "stateMutability": "nonpayable",
      "type": "function"
    },
    {
      "inputs": [],
      "name": "withdraw",
      "outputs": [],
      "stateMutability": "nonpayable",
      "type": "function"
    }
  ],
  "bytecode": "0x60c060405234801561001057600080fd5b50604051613ab2380380613ab28339818101604052810190610032919061024e565b61004e6100436100e960201b60201c565b6100f160201b60201c565b83600560006101000a81548173ffffffffffffffffffffffffffffffffffffffff021916908373ffffffffffffffffffffffffffffffffffffffff16021790555082600660006101000a81548173ffffffffffffffffffffffffffffffffffffffff021916908373ffffffffffffffffffffffffffffffffffffffff16021790555081608081815250508060a08181525050505050506102b5565b600033905090565b60008060009054906101000a900473ffffffffffffffffffffffffffffffffffffffff169050816000806101000a81548173ffffffffffffffffffffffffffffffffffffffff021916908373ffffffffffffffffffffffffffffffffffffffff1602179055508173ffffffffffffffffffffffffffffffffffffffff168173ffffffffffffffffffffffffffffffffffffffff167f8be0079c531659141344cd1fd0a4f28419497f9722a3daafe3b4186f6b6457e060405160405180910390a35050565b600080fd5b600073ffffffffffffffffffffffffffffffffffffffff82169050919050565b60006101e5826101ba565b9050919050565b6101f5816101da565b811461020057600080fd5b50565b600081519050610212816101ec565b92915050565b6000819050919050565b61022b81610218565b811461023657600080fd5b50565b60008151905061024881610222565b92915050565b60008060008060808587031215610268576102676101b5565b5b600061027687828801610203565b945050602061028787828801610203565b935050604061029887828801610239565b92505060606102a987828801610239565b91505092959194509250565b60805160a0516137d16102e16000396000818161051f015261156c01526000611f1001526137d16000f3fe608060405234801561001057600080fd5b50600436106101375760003560e01c80638da5cb5b116100b8578063b0fd59f31161007c578063b0fd59f314610347578063b1824a5114610363578063b7e9777714610393578063c77c1ce6146103c3578063cef42254146103f3578063f2fde38b1461042357610137565b80638da5cb5b1461028f5780638f93716f146102ad57806397705d60146102c95780639eaf666f146102e7578063a68012581461031757610137565b80633ccfd60b116100ff5780633ccfd60b146101fd5780633d8270f514610207578063582256f114610237578063715018a6146102555780637b3341541461025f57610137565b8063129de9651461013c57806318ad5c9a146101585780631cee0700146101745780631f6d4942146101a957806338658175146101df575b600080fd5b61015660048036038101906101519190612733565b61043f565b005b610172600480360381019061016d919061283f565b6106ec565b005b61018e6004803603810190610189919061287f565b610a24565b6040516101a096959493929190612949565b60405180910390f35b6101c360048036038101906101be91906129b8565b610b90565b6040516101d69796959493929190612a23565b60405180910390f35b6101e7610d20565b6040516101f49190612aa1565b60405180910390f35b610205610d26565b005b610221600480360381019061021c91906129b8565b6111e8565b60405161022e9190612be8565b60405180910390f35b61023f611401565b60405161024c9190612aa1565b60405180910390f35b61025d6114ab565b005b610279600480360381019061027491906129b8565b6114bf565b6040516102869190612c25565b60405180910390f35b6102976114df565b6040516102a49190612c40565b60405180910390f35b6102c760048036038101906102c291906129b8565b611508565b005b6102d161156a565b6040516102de9190612aa1565b60405180910390f35b61030160048036038101906102fc9190612c5b565b61158e565b60405161030e9190612c25565b60405180910390f35b610331600480360381019061032c91906129b8565b6115da565b60405161033e9190612c25565b60405180910390f35b610361600480360381019061035c9190612733565b611630565b005b61037d600480360381019061037891906129b8565b61191c565b60405161038a9190612c25565b60405180910390f35b6103ad60048036038101906103a8919061287f565b61196a565b6040516103ba9190612c40565b60405180910390f35b6103dd60048036038101906103d891906129b8565b61199d565b6040516103ea9190612c25565b60405180910390f35b61040d6004803603810190610408919061287f565b611c7c565b60405161041a9190612d3e565b60405180910390f35b61043d600480360381019061043891906129b8565b611e41565b005b600560009054906101000a900473ffffffffffffffffffffffffffffffffffffffff1673ffffffffffffffffffffffffffffffffffffffff16639497c6086005336040518363ffffffff1660e01b815260040161049d929190612dd7565b602060405180830381865afa1580156104ba573d6000803e3d6000fd5b505050506040513d601f19601f820116820180604052508101906104de9190612e2c565b61051d576040517f08c379a000000000000000000000000000000000000000000000000000000000815260040161051490612ea5565b60405180910390fd5b7f0000000000000000000000000000000000000000000000000000000000000000610546611401565b11610586576040517f08c379a000000000000000000000000000000000000000000000000000000000815260040161057d90612f37565b60405180910390fd5b61058f33611ec4565b6105ce576040517f08c379a00000000000000000000000000000000000000000000000000000000081526004016105c590612fa3565b60405180910390fd5b600760008154809291906105e190612ff2565b9190505550600060075490506040518060c00160405280828152602001610606611f53565b81526020013373ffffffffffffffffffffffffffffffffffffffff1681526020018481526020018381526020014381525060036000838152602001908152602001600020600082015181600001556020820151816001015560408201518160020160006101000a81548173ffffffffffffffffffffffffffffffffffffffff021916908373ffffffffffffffffffffffffffffffffffffffff16021790555060608201518160030190816106ba9190613246565b5060808201518160040190816106d09190613246565b5060a082015181600501559050506106e733611feb565b505050565b600160003373ffffffffffffffffffffffffffffffffffffffff1673ffffffffffffffffffffffffffffffffffffffff16815260200190815260200160002060009054906101000a900460ff16610778576040517f08c379a000000000000000000000000000000000000000000000000000000000815260040161076f90613364565b60405180910390fd5b6000600260008473ffffffffffffffffffffffffffffffffffffffff1673ffffffffffffffffffffffffffffffffffffffff1681526020019081526020016000206040518060e0016040529081600082015481526020016001820160009054906101000a900473ffffffffffffffffffffffffffffffffffffffff1673ffffffffffffffffffffffffffffffffffffffff1673ffffffffffffffffffffffffffffffffffffffff16815260200160028201805461083490613069565b80601f016020809104026020016040519081016040528092919081815260200182805461086090613069565b80156108ad5780601f10610882576101008083540402835291602001916108ad565b820191906000526020600020905b81548152906001019060200180831161089057829003601f168201915b505050505081526020016003820180546108c690613069565b80601f01602080910402602001604051908101604052809291908181526020018280546108f290613069565b801561093f5780601f106109145761010080835404028352916020019161093f565b820191906000526020600020905b81548152906001019060200180831161092257829003601f168201915b5050505050815260200160048201604051806040016040529081600082015481526020016001820154815250508152602001600682015481526020016007820154815250509050600660009054906101000a900473ffffffffffffffffffffffffffffffffffffffff1673ffffffffffffffffffffffffffffffffffffffff1663157ffc5284836080015160200151856040518463ffffffff1660e01b81526004016109ed93929190613384565b600060405180830381600087803b158015610a0757600080fd5b505af1158015610a1b573d6000803e3d6000fd5b50505050505050565b60036020528060005260406000206000915090508060000154908060010154908060020160009054906101000a900473ffffffffffffffffffffffffffffffffffffffff1690806003018054610a7990613069565b80601f0160208091040260200160405190810160405280929190818152602001828054610aa590613069565b8015610af25780601f10610ac757610100808354040283529160200191610af2565b820191906000526020600020905b815481529060010190602001808311610ad557829003601f168201915b505050505090806004018054610b0790613069565b80601f0160208091040260200160405190810160405280929190818152602001828054610b3390613069565b8015610b805780601f10610b5557610100808354040283529160200191610b80565b820191906000526020600020905b815481529060010190602001808311610b6357829003601f168201915b5050505050908060050154905086565b60026020528060005260406000206000915090508060000154908060010160009054906101000a900473ffffffffffffffffffffffffffffffffffffffff1690806002018054610bdf90613069565b80601f0160208091040260200160405190810160405280929190818152602001828054610c0b90613069565b8015610c585780601f10610c2d57610100808354040283529160200191610c58565b820191906000526020600020905b815481529060010190602001808311610c3b57829003601f168201915b505050505090806003018054610c6d90613069565b80601f0160208091040260200160405190810160405280929190818152602001828054610c9990613069565b8015610ce65780601f10610cbb57610100808354040283529160200191610ce6565b820191906000526020600020905b815481529060010190602001808311610cc957829003601f168201915b5050505050908060040160405180604001604052908160008201548152602001600182015481525050908060060154908060070154905087565b60075481565b600560009054906101000a900473ffffffffffffffffffffffffffffffffffffffff1673ffffffffffffffffffffffffffffffffffffffff16639497c6086005336040518363ffffffff1660e01b8152600401610d84929190612dd7565b602060405180830381865afa158015610da1573d6000803e3d6000fd5b505050506040513d601f19601f82011682018060405250810190610dc59190612e2c565b610e04576040517f08c379a0000000000000000000000000000000000000000000000000000000008152600401610dfb90613407565b60405180910390fd5b6000600260003373ffffffffffffffffffffffffffffffffffffffff1673ffffffffffffffffffffffffffffffffffffffff1681526020019081526020016000206040518060e0016040529081600082015481526020016001820160009054906101000a900473ffffffffffffffffffffffffffffffffffffffff1673ffffffffffffffffffffffffffffffffffffffff1673ffffffffffffffffffffffffffffffffffffffff168152602001600282018054610ec090613069565b80601f0160208091040260200160405190810160405280929190818152602001828054610eec90613069565b8015610f395780601f10610f0e57610100808354040283529160200191610f39565b820191906000526020600020905b815481529060010190602001808311610f1c57829003601f168201915b50505050508152602001600382018054610f5290613069565b80601f0160208091040260200160405190810160405280929190818152602001828054610f7e90613069565b8015610fcb5780601f10610fa057610100808354040283529160200191610fcb565b820191906000526020600020905b815481529060010190602001808311610fae57829003601f168201915b505050505081526020016004820160405180604001604052908160008201548152602001600182015481525050815260200160068201548152602001600782015481525050905060008160800151602001519050600660009054906101000a900473ffffffffffffffffffffffffffffffffffffffff1673ffffffffffffffffffffffffffffffffffffffff1663fbe85f06826040518263ffffffff1660e01b815260040161107a9190612aa1565b602060405180830381865afa158015611097573d6000803e3d6000fd5b505050506040513d601f19601f820116820180604052508101906110bb9190612e2c565b6110fa576040517f08c379a00000000000000000000000000000000000000000000000000000000081526004016110f190613473565b60405180910390fd5b600260003373ffffffffffffffffffffffffffffffffffffffff1673ffffffffffffffffffffffffffffffffffffffff168152602001908152602001600020600401600101600081548092919061115090612ff2565b9190505550600660009054906101000a900473ffffffffffffffffffffffffffffffffffffffff1673ffffffffffffffffffffffffffffffffffffffff1663f3fef3a333836040518363ffffffff1660e01b81526004016111b2929190613493565b600060405180830381600087803b1580156111cc57600080fd5b505af11580156111e0573d6000803e3d6000fd5b505050505050565b6111f061251a565b600260008373ffffffffffffffffffffffffffffffffffffffff1673ffffffffffffffffffffffffffffffffffffffff1681526020019081526020016000206040518060e0016040529081600082015481526020016001820160009054906101000a900473ffffffffffffffffffffffffffffffffffffffff1673ffffffffffffffffffffffffffffffffffffffff1673ffffffffffffffffffffffffffffffffffffffff1681526020016002820180546112aa90613069565b80601f01602080910402602001604051908101604052809291908181526020018280546112d690613069565b80156113235780601f106112f857610100808354040283529160200191611323565b820191906000526020600020905b81548152906001019060200180831161130657829003601f168201915b5050505050815260200160038201805461133c90613069565b80601f016020809104026020016040519081016040528092919081815260200182805461136890613069565b80156113b55780601f1061138a576101008083540402835291602001916113b5565b820191906000526020600020905b81548152906001019060200180831161139857829003601f168201915b5050505050815260200160048201604051806040016040529081600082015481526020016001820154815250508152602001600682015481526020016007820154815250509050919050565b6000600660009054906101000a900473ffffffffffffffffffffffffffffffffffffffff1673ffffffffffffffffffffffffffffffffffffffff1663d5ee3eb5611449611f53565b6040518263ffffffff1660e01b81526004016114659190612aa1565b602060405180830381865afa158015611482573d6000803e3d6000fd5b505050506040513d601f19601f820116820180604052508101906114a691906134f2565b905090565b6114b36123a4565b6114bd6000612422565b565b60016020528060005260406000206000915054906101000a900460ff1681565b60008060009054906101000a900473ffffffffffffffffffffffffffffffffffffffff16905090565b6115106123a4565b60018060008373ffffffffffffffffffffffffffffffffffffffff1673ffffffffffffffffffffffffffffffffffffffff16815260200190815260200160002060006101000a81548160ff02191690831515021790555050565b7f000000000000000000000000000000000000000000000000000000000000000081565b6000600583116115a157600190506115d3565b60006115c960016115bb86886124e690919063ffffffff16565b6124fc90919063ffffffff16565b9050808310159150505b9392505050565b6000600160008373ffffffffffffffffffffffffffffffffffffffff1673ffffffffffffffffffffffffffffffffffffffff16815260200190815260200160002060009054906101000a900460ff169050919050565b60006001600560009054906101000a900473ffffffffffffffffffffffffffffffffffffffff1673ffffffffffffffffffffffffffffffffffffffff16631eb2c12060056040518263ffffffff1660e01b8152600401611690919061351f565b602060405180830381865afa1580156116ad573d6000803e3d6000fd5b505050506040513d601f19601f820116820180604052508101906116d1919061354f565b6116db919061357c565b90506040518060e001604052808281526020013373ffffffffffffffffffffffffffffffffffffffff168152602001848152602001838152602001604051806040016040528060008152602001611730611f53565b81525081526020014381526020016000815250600260003373ffffffffffffffffffffffffffffffffffffffff1673ffffffffffffffffffffffffffffffffffffffff1681526020019081526020016000206000820151816000015560208201518160010160006101000a81548173ffffffffffffffffffffffffffffffffffffffff021916908373ffffffffffffffffffffffffffffffffffffffff16021790555060408201518160020190816117e89190613246565b5060608201518160030190816117fe9190613246565b506080820151816004016000820151816000015560208201518160010155505060a0820151816006015560c08201518160070155905050336004600083815260200190815260200160002060006101000a81548173ffffffffffffffffffffffffffffffffffffffff021916908373ffffffffffffffffffffffffffffffffffffffff160217905550600560009054906101000a900473ffffffffffffffffffffffffffffffffffffffff1673ffffffffffffffffffffffffffffffffffffffff16639c3eead93360056040518363ffffffff1660e01b81526004016118e59291906135b0565b600060405180830381600087803b1580156118ff57600080fd5b505af1158015611913573d6000803e3d6000fd5b50505050505050565b600080600260008473ffffffffffffffffffffffffffffffffffffffff1673ffffffffffffffffffffffffffffffffffffffff16815260200190815260200160002060000154119050919050565b60046020528060005260406000206000915054906101000a900473ffffffffffffffffffffffffffffffffffffffff1681565b600080600260008473ffffffffffffffffffffffffffffffffffffffff1673ffffffffffffffffffffffffffffffffffffffff1681526020019081526020016000206040518060e0016040529081600082015481526020016001820160009054906101000a900473ffffffffffffffffffffffffffffffffffffffff1673ffffffffffffffffffffffffffffffffffffffff1673ffffffffffffffffffffffffffffffffffffffff168152602001600282018054611a5a90613069565b80601f0160208091040260200160405190810160405280929190818152602001828054611a8690613069565b8015611ad35780601f10611aa857610100808354040283529160200191611ad3565b820191906000526020600020905b815481529060010190602001808311611ab657829003601f168201915b50505050508152602001600382018054611aec90613069565b80601f0160208091040260200160405190810160405280929190818152602001828054611b1890613069565b8015611b655780601f10611b3a57610100808354040283529160200191611b65565b820191906000526020600020905b815481529060010190602001808311611b4857829003601f168201915b50505050508152602001600482016040518060400160405290816000820154815260200160018201548152505081526020016006820154815260200160078201548152505090506000816000015111611bc2576000915050611c77565b611c73600754600560009054906101000a900473ffffffffffffffffffffffffffffffffffffffff1673ffffffffffffffffffffffffffffffffffffffff16631eb2c12060056040518263ffffffff1660e01b8152600401611c24919061351f565b602060405180830381865afa158015611c41573d6000803e3d6000fd5b505050506040513d601f19601f82011682018060405250810190611c65919061354f565b83608001516000015161158e565b9150505b919050565b611c84612573565b600360008381526020019081526020016000206040518060c001604052908160008201548152602001600182015481526020016002820160009054906101000a900473ffffffffffffffffffffffffffffffffffffffff1673ffffffffffffffffffffffffffffffffffffffff1673ffffffffffffffffffffffffffffffffffffffff168152602001600382018054611d1c90613069565b80601f0160208091040260200160405190810160405280929190818152602001828054611d4890613069565b8015611d955780601f10611d6a57610100808354040283529160200191611d95565b820191906000526020600020905b815481529060010190602001808311611d7857829003601f168201915b50505050508152602001600482018054611dae90613069565b80601f0160208091040260200160405190810160405280929190818152602001828054611dda90613069565b8015611e275780601f10611dfc57610100808354040283529160200191611e27565b820191906000526020600020905b815481529060010190602001808311611e0a57829003601f168201915b505050505081526020016005820154815250509050919050565b611e496123a4565b600073ffffffffffffffffffffffffffffffffffffffff168173ffffffffffffffffffffffffffffffffffffffff1603611eb8576040517f08c379a0000000000000000000000000000000000000000000000000000000008152600401611eaf9061364b565b60405180910390fd5b611ec181612422565b50565b600080600260008473ffffffffffffffffffffffffffffffffffffffff1673ffffffffffffffffffffffffffffffffffffffff16815260200190815260200160002060070154905060007f000000000000000000000000000000000000000000000000000000000000000082611f3a919061357c565b431190508080611f4a5750600082145b92505050919050565b6000600660009054906101000a900473ffffffffffffffffffffffffffffffffffffffff1673ffffffffffffffffffffffffffffffffffffffff1663ed0df79e6040518163ffffffff1660e01b8152600401602060405180830381865afa158015611fc2573d6000803e3d6000fd5b505050506040513d601f19601f82011682018060405250810190611fe6919061354f565b905090565b6000600260008373ffffffffffffffffffffffffffffffffffffffff1673ffffffffffffffffffffffffffffffffffffffff1681526020019081526020016000206040518060e0016040529081600082015481526020016001820160009054906101000a900473ffffffffffffffffffffffffffffffffffffffff1673ffffffffffffffffffffffffffffffffffffffff1673ffffffffffffffffffffffffffffffffffffffff1681526020016002820180546120a790613069565b80601f01602080910402602001604051908101604052809291908181526020018280546120d390613069565b80156121205780601f106120f557610100808354040283529160200191612120565b820191906000526020600020905b81548152906001019060200180831161210357829003601f168201915b5050505050815260200160038201805461213990613069565b80601f016020809104026020016040519081016040528092919081815260200182805461216590613069565b80156121b25780601f10612187576101008083540402835291602001916121b2565b820191906000526020600020905b81548152906001019060200180831161219557829003601f168201915b5050505050815260200160048201604051806040016040529081600082015481526020016001820154815250508152602001600682015481526020016007820154815250509050438160c00181815250508060800151600001805180919061221990612ff2565b8152505080600260008473ffffffffffffffffffffffffffffffffffffffff1673ffffffffffffffffffffffffffffffffffffffff1681526020019081526020016000206000820151816000015560208201518160010160006101000a81548173ffffffffffffffffffffffffffffffffffffffff021916908373ffffffffffffffffffffffffffffffffffffffff16021790555060408201518160020190816122c39190613246565b5060608201518160030190816122d99190613246565b506080820151816004016000820151816000015560208201518160010155505060a0820151816006015560c08201518160070155905050600660009054906101000a900473ffffffffffffffffffffffffffffffffffffffff1673ffffffffffffffffffffffffffffffffffffffff166352b8d3ed8360016040518363ffffffff1660e01b815260040161236e9291906136a6565b600060405180830381600087803b15801561238857600080fd5b505af115801561239c573d6000803e3d6000fd5b505050505050565b6123ac612512565b73ffffffffffffffffffffffffffffffffffffffff166123ca6114df565b73ffffffffffffffffffffffffffffffffffffffff1614612420576040517f08c379a00000000000000000000000000000000000000000000000000000000081526004016124179061371b565b60405180910390fd5b565b60008060009054906101000a900473ffffffffffffffffffffffffffffffffffffffff169050816000806101000a81548173ffffffffffffffffffffffffffffffffffffffff021916908373ffffffffffffffffffffffffffffffffffffffff1602179055508173ffffffffffffffffffffffffffffffffffffffff168173ffffffffffffffffffffffffffffffffffffffff167f8be0079c531659141344cd1fd0a4f28419497f9722a3daafe3b4186f6b6457e060405160405180910390a35050565b600081836124f4919061376a565b905092915050565b6000818361250a919061357c565b905092915050565b600033905090565b6040518060e0016040528060008152602001600073ffffffffffffffffffffffffffffffffffffffff168152602001606081526020016060815260200161255f6125bf565b815260200160008152602001600081525090565b6040518060c001604052806000815260200160008152602001600073ffffffffffffffffffffffffffffffffffffffff1681526020016060815260200160608152602001600081525090565b604051806040016040528060008152602001600081525090565b6000604051905090565b600080fd5b600080fd5b600080fd5b600080fd5b6000601f19601f8301169050919050565b7f4e487b7100000000000000000000000000000000000000000000000000000000600052604160045260246000fd5b612640826125f7565b810181811067ffffffffffffffff8211171561265f5761265e612608565b5b80604052505050565b60006126726125d9565b905061267e8282612637565b919050565b600067ffffffffffffffff82111561269e5761269d612608565b5b6126a7826125f7565b9050602081019050919050565b82818337600083830152505050565b60006126d66126d184612683565b612668565b9050828152602081018484840111156126f2576126f16125f2565b5b6126fd8482856126b4565b509392505050565b600082601f83011261271a576127196125ed565b5b813561272a8482602086016126c3565b91505092915050565b6000806040838503121561274a576127496125e3565b5b600083013567ffffffffffffffff811115612768576127676125e8565b5b61277485828601612705565b925050602083013567ffffffffffffffff811115612795576127946125e8565b5b6127a185828601612705565b9150509250929050565b600073ffffffffffffffffffffffffffffffffffffffff82169050919050565b60006127d6826127ab565b9050919050565b6127e6816127cb565b81146127f157600080fd5b50565b600081359050612803816127dd565b92915050565b6000819050919050565b61281c81612809565b811461282757600080fd5b50565b60008135905061283981612813565b92915050565b60008060408385031215612856576128556125e3565b5b6000612864858286016127f4565b92505060206128758582860161282a565b9150509250929050565b600060208284031215612895576128946125e3565b5b60006128a38482850161282a565b91505092915050565b6128b581612809565b82525050565b6128c4816127cb565b82525050565b600081519050919050565b600082825260208201905092915050565b60005b838110156129045780820151818401526020810190506128e9565b60008484015250505050565b600061291b826128ca565b61292581856128d5565b93506129358185602086016128e6565b61293e816125f7565b840191505092915050565b600060c08201905061295e60008301896128ac565b61296b60208301886128ac565b61297860408301876128bb565b818103606083015261298a8186612910565b9050818103608083015261299e8185612910565b90506129ad60a08301846128ac565b979650505050505050565b6000602082840312156129ce576129cd6125e3565b5b60006129dc848285016127f4565b91505092915050565b6129ee81612809565b82525050565b604082016000820151612a0a60008501826129e5565b506020820151612a1d60208501826129e5565b50505050565b600061010082019050612a39600083018a6128ac565b612a4660208301896128bb565b8181036040830152612a588188612910565b90508181036060830152612a6c8187612910565b9050612a7b60808301866129f4565b612a8860c08301856128ac565b612a9560e08301846128ac565b98975050505050505050565b6000602082019050612ab660008301846128ac565b92915050565b612ac5816127cb565b82525050565b600082825260208201905092915050565b6000612ae7826128ca565b612af18185612acb565b9350612b018185602086016128e6565b612b0a816125f7565b840191505092915050565b604082016000820151612b2b60008501826129e5565b506020820151612b3e60208501826129e5565b50505050565b600061010083016000830151612b5d60008601826129e5565b506020830151612b706020860182612abc565b5060408301518482036040860152612b888282612adc565b91505060608301518482036060860152612ba28282612adc565b9150506080830151612bb76080860182612b15565b5060a0830151612bca60c08601826129e5565b5060c0830151612bdd60e08601826129e5565b508091505092915050565b60006020820190508181036000830152612c028184612b44565b905092915050565b60008115159050919050565b612c1f81612c0a565b82525050565b6000602082019050612c3a6000830184612c16565b92915050565b6000602082019050612c5560008301846128bb565b92915050565b600080600060608486031215612c7457612c736125e3565b5b6000612c828682870161282a565b9350506020612c938682870161282a565b9250506040612ca48682870161282a565b9150509250925092565b600060c083016000830151612cc660008601826129e5565b506020830151612cd960208601826129e5565b506040830151612cec6040860182612abc565b5060608301518482036060860152612d048282612adc565b91505060808301518482036080860152612d1e8282612adc565b91505060a0830151612d3360a08601826129e5565b508091505092915050565b60006020820190508181036000830152612d588184612cae565b905092915050565b7f4e487b7100000000000000000000000000000000000000000000000000000000600052602160045260246000fd5b600a8110612da057612d9f612d60565b5b50565b6000819050612db182612d8f565b919050565b6000612dc182612da3565b9050919050565b612dd181612db6565b82525050565b6000604082019050612dec6000830185612dc8565b612df960208301846128bb565b9392505050565b612e0981612c0a565b8114612e1457600080fd5b50565b600081519050612e2681612e00565b92915050565b600060208284031215612e4257612e416125e3565b5b6000612e5084828501612e17565b91505092915050565b7f4f6e6c7920436f6e7472696275746f7200000000000000000000000000000000600082015250565b6000612e8f6010836128d5565b9150612e9a82612e59565b602082019050919050565b60006020820190508181036000830152612ebe81612e82565b9050919050565b7f5761697420756e74696c206e6578742065726120746f2061646420636f6e747260008201527f69627574696f6e00000000000000000000000000000000000000000000000000602082015250565b6000612f216027836128d5565b9150612f2c82612ec5565b604082019050919050565b60006020820190508181036000830152612f5081612f14565b9050919050565b7f43616e2774207075626c69736820796574000000000000000000000000000000600082015250565b6000612f8d6011836128d5565b9150612f9882612f57565b602082019050919050565b60006020820190508181036000830152612fbc81612f80565b9050919050565b7f4e487b7100000000000000000000000000000000000000000000000000000000600052601160045260246000fd5b6000612ffd82612809565b91507fffffffffffffffffffffffffffffffffffffffffffffffffffffffffffffffff820361302f5761302e612fc3565b5b600182019050919050565b7f4e487b7100000000000000000000000000000000000000000000000000000000600052602260045260246000fd5b6000600282049050600182168061308157607f821691505b6020821081036130945761309361303a565b5b50919050565b60008190508160005260206000209050919050565b60006020601f8301049050919050565b600082821b905092915050565b6000600883026130fc7fffffffffffffffffffffffffffffffffffffffffffffffffffffffffffffffff826130bf565b61310686836130bf565b95508019841693508086168417925050509392505050565b6000819050919050565b600061314361313e61313984612809565b61311e565b612809565b9050919050565b6000819050919050565b61315d83613128565b6131716131698261314a565b8484546130cc565b825550505050565b600090565b613186613179565b613191818484613154565b505050565b5b818110156131b5576131aa60008261317e565b600181019050613197565b5050565b601f8211156131fa576131cb8161309a565b6131d4846130af565b810160208510156131e3578190505b6131f76131ef856130af565b830182613196565b50505b505050565b600082821c905092915050565b600061321d600019846008026131ff565b1980831691505092915050565b6000613236838361320c565b9150826002028217905092915050565b61324f826128ca565b67ffffffffffffffff81111561326857613267612608565b5b6132728254613069565b61327d8282856131b9565b600060209050601f8311600181146132b0576000841561329e578287015190505b6132a8858261322a565b865550613310565b601f1984166132be8661309a565b60005b828110156132e6578489015182556001820191506020850194506020810190506132c1565b8683101561330357848901516132ff601f89168261320c565b8355505b6001600288020188555050505b505050505050565b7f4e6f7420616c6c6f7765642063616c6c65720000000000000000000000000000600082015250565b600061334e6012836128d5565b915061335982613318565b602082019050919050565b6000602082019050818103600083015261337d81613341565b9050919050565b600060608201905061339960008301866128bb565b6133a660208301856128ac565b6133b360408301846128ac565b949350505050565b7f506f6f6c206f6e6c7920746f20636f6e7472696275746f720000000000000000600082015250565b60006133f16018836128d5565b91506133fc826133bb565b602082019050919050565b60006020820190508181036000830152613420816133e4565b9050919050565b7f43616e277420617070726f766520776974686472617700000000000000000000600082015250565b600061345d6016836128d5565b915061346882613427565b602082019050919050565b6000602082019050818103600083015261348c81613450565b9050919050565b60006040820190506134a860008301856128bb565b6134b560208301846128ac565b9392505050565b6000819050919050565b6134cf816134bc565b81146134da57600080fd5b50565b6000815190506134ec816134c6565b92915050565b600060208284031215613508576135076125e3565b5b6000613516848285016134dd565b91505092915050565b60006020820190506135346000830184612dc8565b92915050565b60008151905061354981612813565b92915050565b600060208284031215613565576135646125e3565b5b60006135738482850161353a565b91505092915050565b600061358782612809565b915061359283612809565b92508282019050808211156135aa576135a9612fc3565b5b92915050565b60006040820190506135c560008301856128bb565b6135d26020830184612dc8565b9392505050565b7f4f776e61626c653a206e6577206f776e657220697320746865207a65726f206160008201527f6464726573730000000000000000000000000000000000000000000000000000602082015250565b60006136356026836128d5565b9150613640826135d9565b604082019050919050565b6000602082019050818103600083015261366481613628565b9050919050565b6000819050919050565b600061369061368b6136868461366b565b61311e565b612809565b9050919050565b6136a081613675565b82525050565b60006040820190506136bb60008301856128bb565b6136c86020830184613697565b9392505050565b7f4f776e61626c653a2063616c6c6572206973206e6f7420746865206f776e6572600082015250565b60006137056020836128d5565b9150613710826136cf565b602082019050919050565b60006020820190508181036000830152613734816136f8565b9050919050565b7f4e487b7100000000000000000000000000000000000000000000000000000000600052601260045260246000fd5b600061377582612809565b915061378083612809565b9250826137905761378f61373b565b5b82820490509291505056fea2646970667358221220c39b51a410f015790e3aa7bf765fb52ae11e7a8cab3a5c2909403db6640c891064736f6c634300081b0033",
  "linkReferences": {},
  "deployedLinkReferences": {}
}