{
  "_format": "hh-sol-artifact-1",
  "contractName": "ContributorRules",
  "sourceName": "contracts/ContributorRules.sol",
  "abi": [
    {
      "inputs": [
        {
          "internalType": "uint32",
          "name": "timeBetweenWorks_",
          "type": "uint32"
        },
        {
          "internalType": "uint8",
          "name": "maxPenalties_",
          "type": "uint8"
        },
        {
          "internalType": "uint32",
          "name": "securityBlocksToValidation_",
          "type": "uint32"
        }
      ],
      "stateMutability": "nonpayable",
      "type": "constructor"
    },
    {
      "inputs": [
        {
          "internalType": "address",
          "name": "owner",
          "type": "address"
        }
      ],
      "name": "OwnableInvalidOwner",
      "type": "error"
    },
    {
      "inputs": [
        {
          "internalType": "address",
          "name": "account",
          "type": "address"
        }
      ],
      "name": "OwnableUnauthorizedAccount",
      "type": "error"
    },
    {
      "inputs": [],
      "name": "ReentrancyGuardReentrantCall",
      "type": "error"
    },
    {
      "anonymous": false,
      "inputs": [
        {
          "indexed": true,
          "internalType": "uint256",
          "name": "id",
          "type": "uint256"
        },
        {
          "indexed": true,
          "internalType": "address",
          "name": "contributorAddress",
          "type": "address"
        },
        {
          "indexed": false,
          "internalType": "string",
          "name": "description",
          "type": "string"
        },
        {
          "indexed": false,
          "internalType": "uint256",
          "name": "blockNumber",
          "type": "uint256"
        }
      ],
      "name": "ContributionAdded",
      "type": "event"
    },
    {
      "anonymous": false,
      "inputs": [
        {
          "indexed": true,
          "internalType": "uint64",
          "name": "contributionId",
          "type": "uint64"
        },
        {
          "indexed": true,
          "internalType": "address",
          "name": "contributorAddress",
          "type": "address"
        },
        {
          "indexed": false,
          "internalType": "string",
          "name": "justification",
          "type": "string"
        },
        {
          "indexed": false,
          "internalType": "uint256",
          "name": "newPenaltyCount",
          "type": "uint256"
        },
        {
          "indexed": false,
          "internalType": "uint256",
          "name": "blockNumber",
          "type": "uint256"
        }
      ],
      "name": "ContributionInvalidated",
      "type": "event"
    },
    {
      "anonymous": false,
      "inputs": [
        {
          "indexed": true,
          "internalType": "address",
          "name": "_validatorAddress",
          "type": "address"
        },
        {
          "indexed": false,
          "internalType": "uint256",
          "name": "_resourceId",
          "type": "uint256"
        },
        {
          "indexed": false,
          "internalType": "string",
          "name": "_justification",
          "type": "string"
        }
      ],
      "name": "ContributionValidation",
      "type": "event"
    },
    {
      "anonymous": false,
      "inputs": [
        {
          "indexed": true,
          "internalType": "address",
          "name": "contributorAddress",
          "type": "address"
        },
        {
          "indexed": false,
          "internalType": "uint256",
          "name": "newLevel",
          "type": "uint256"
        },
        {
          "indexed": false,
          "internalType": "uint256",
          "name": "blockNumber",
          "type": "uint256"
        }
      ],
      "name": "ContributorLevelIncreased",
      "type": "event"
    },
    {
      "anonymous": false,
      "inputs": [
        {
          "indexed": true,
          "internalType": "uint256",
          "name": "id",
          "type": "uint256"
        },
        {
          "indexed": true,
          "internalType": "address",
          "name": "contributorAddress",
          "type": "address"
        },
        {
          "indexed": false,
          "internalType": "string",
          "name": "name",
          "type": "string"
        },
        {
          "indexed": false,
          "internalType": "uint256",
          "name": "blockNumber",
          "type": "uint256"
        }
      ],
      "name": "ContributorRegistered",
      "type": "event"
    },
    {
      "anonymous": false,
      "inputs": [
        {
          "indexed": true,
          "internalType": "address",
          "name": "contributorAddress",
          "type": "address"
        },
        {
          "indexed": true,
          "internalType": "uint256",
          "name": "era",
          "type": "uint256"
        },
        {
          "indexed": false,
          "internalType": "uint256",
          "name": "blockNumber",
          "type": "uint256"
        }
      ],
      "name": "ContributorWithdrawalInitiated",
      "type": "event"
    },
    {
      "anonymous": false,
      "inputs": [
        {
          "indexed": true,
          "internalType": "address",
          "name": "previousOwner",
          "type": "address"
        },
        {
          "indexed": true,
          "internalType": "address",
          "name": "newOwner",
          "type": "address"
        }
      ],
      "name": "OwnershipTransferred",
      "type": "event"
    },
    {
      "inputs": [],
      "name": "INITIAL_USER_COUNT_THRESHOLD",
      "outputs": [
        {
          "internalType": "uint256",
          "name": "",
          "type": "uint256"
        }
      ],
      "stateMutability": "view",
      "type": "function"
    },
    {
      "inputs": [],
      "name": "MAX_USER_COUNT",
      "outputs": [
        {
          "internalType": "uint16",
          "name": "",
          "type": "uint16"
        }
      ],
      "stateMutability": "view",
      "type": "function"
    },
    {
      "inputs": [
        {
          "internalType": "string",
          "name": "description",
          "type": "string"
        },
        {
          "internalType": "string",
          "name": "report",
          "type": "string"
        }
      ],
      "name": "addContribution",
      "outputs": [],
      "stateMutability": "nonpayable",
      "type": "function"
    },
    {
      "inputs": [
        {
          "internalType": "uint64",
          "name": "id",
          "type": "uint64"
        },
        {
          "internalType": "string",
          "name": "justification",
          "type": "string"
        }
      ],
      "name": "addContributionValidation",
      "outputs": [],
      "stateMutability": "nonpayable",
      "type": "function"
    },
    {
      "inputs": [
        {
          "internalType": "string",
          "name": "name",
          "type": "string"
        },
        {
          "internalType": "string",
          "name": "proofPhoto",
          "type": "string"
        }
      ],
      "name": "addContributor",
      "outputs": [],
      "stateMutability": "nonpayable",
      "type": "function"
    },
    {
      "inputs": [
        {
          "internalType": "address",
          "name": "",
          "type": "address"
        }
      ],
      "name": "allowedCallers",
      "outputs": [
        {
          "internalType": "bool",
          "name": "",
          "type": "bool"
        }
      ],
      "stateMutability": "view",
      "type": "function"
    },
    {
      "inputs": [
        {
          "internalType": "uint256",
          "name": "totalLevels",
          "type": "uint256"
        },
        {
          "internalType": "uint256",
          "name": "totalUsers",
          "type": "uint256"
        },
        {
          "internalType": "uint256",
          "name": "userLevels",
          "type": "uint256"
        }
      ],
      "name": "canInvite",
      "outputs": [
        {
          "internalType": "bool",
          "name": "",
          "type": "bool"
        }
      ],
      "stateMutability": "pure",
      "type": "function"
    },
    {
      "inputs": [
        {
          "internalType": "address",
          "name": "addr",
          "type": "address"
        }
      ],
      "name": "canPublishContribution",
      "outputs": [
        {
          "internalType": "bool",
          "name": "",
          "type": "bool"
        }
      ],
      "stateMutability": "view",
      "type": "function"
    },
    {
      "inputs": [
        {
          "internalType": "address",
          "name": "addr",
          "type": "address"
        }
      ],
      "name": "canSendInvite",
      "outputs": [
        {
          "internalType": "bool",
          "name": "",
          "type": "bool"
        }
      ],
      "stateMutability": "view",
      "type": "function"
    },
    {
      "inputs": [
        {
          "internalType": "uint64",
          "name": "",
          "type": "uint64"
        }
      ],
      "name": "contributionPenalized",
      "outputs": [
        {
          "internalType": "bool",
          "name": "",
          "type": "bool"
        }
      ],
      "stateMutability": "view",
      "type": "function"
    },
    {
      "inputs": [
        {
          "internalType": "uint256",
          "name": "",
          "type": "uint256"
        }
      ],
      "name": "contributions",
      "outputs": [
        {
          "internalType": "uint64",
          "name": "id",
          "type": "uint64"
        },
        {
          "internalType": "uint256",
          "name": "era",
          "type": "uint256"
        },
        {
          "internalType": "address",
          "name": "user",
          "type": "address"
        },
        {
          "internalType": "string",
          "name": "description",
          "type": "string"
        },
        {
          "internalType": "string",
          "name": "report",
          "type": "string"
        },
        {
          "internalType": "uint256",
          "name": "validationsCount",
          "type": "uint256"
        },
        {
          "internalType": "bool",
          "name": "valid",
          "type": "bool"
        },
        {
          "internalType": "uint256",
          "name": "invalidatedAt",
          "type": "uint256"
        },
        {
          "internalType": "uint256",
          "name": "createdAtBlockNumber",
          "type": "uint256"
        }
      ],
      "stateMutability": "view",
      "type": "function"
    },
    {
      "inputs": [],
      "name": "contributionsCount",
      "outputs": [
        {
          "internalType": "uint64",
          "name": "",
          "type": "uint64"
        }
      ],
      "stateMutability": "view",
      "type": "function"
    },
    {
      "inputs": [
        {
          "internalType": "address",
          "name": "",
          "type": "address"
        },
        {
          "internalType": "uint256",
          "name": "",
          "type": "uint256"
        }
      ],
      "name": "contributionsIds",
      "outputs": [
        {
          "internalType": "uint256",
          "name": "",
          "type": "uint256"
        }
      ],
      "stateMutability": "view",
      "type": "function"
    },
    {
      "inputs": [],
      "name": "contributionsTotalCount",
      "outputs": [
        {
          "internalType": "uint64",
          "name": "",
          "type": "uint64"
        }
      ],
      "stateMutability": "view",
      "type": "function"
    },
    {
      "inputs": [
        {
          "internalType": "uint256",
          "name": "",
          "type": "uint256"
        }
      ],
      "name": "contributorsAddress",
      "outputs": [
        {
          "internalType": "address",
          "name": "",
          "type": "address"
        }
      ],
      "stateMutability": "view",
      "type": "function"
    },
    {
      "inputs": [
        {
          "internalType": "uint64",
          "name": "id",
          "type": "uint64"
        }
      ],
      "name": "getContribution",
      "outputs": [
        {
          "components": [
            {
              "internalType": "uint64",
              "name": "id",
              "type": "uint64"
            },
            {
              "internalType": "uint256",
              "name": "era",
              "type": "uint256"
            },
            {
              "internalType": "address",
              "name": "user",
              "type": "address"
            },
            {
              "internalType": "string",
              "name": "description",
              "type": "string"
            },
            {
              "internalType": "string",
              "name": "report",
              "type": "string"
            },
            {
              "internalType": "uint256",
              "name": "validationsCount",
              "type": "uint256"
            },
            {
              "internalType": "bool",
              "name": "valid",
              "type": "bool"
            },
            {
              "internalType": "uint256",
              "name": "invalidatedAt",
              "type": "uint256"
            },
            {
              "internalType": "uint256",
              "name": "createdAtBlockNumber",
              "type": "uint256"
            }
          ],
          "internalType": "struct Contribution",
          "name": "",
          "type": "tuple"
        }
      ],
      "stateMutability": "view",
      "type": "function"
    },
    {
      "inputs": [
        {
          "internalType": "address",
          "name": "addr",
          "type": "address"
        }
      ],
      "name": "getContributionsIds",
      "outputs": [
        {
          "internalType": "uint256[]",
          "name": "",
          "type": "uint256[]"
        }
      ],
      "stateMutability": "view",
      "type": "function"
    },
    {
      "inputs": [
        {
          "internalType": "address",
          "name": "addr",
          "type": "address"
        }
      ],
      "name": "getContributor",
      "outputs": [
        {
          "components": [
            {
              "internalType": "uint64",
              "name": "id",
              "type": "uint64"
            },
            {
              "internalType": "address",
              "name": "contributorWallet",
              "type": "address"
            },
            {
              "internalType": "string",
              "name": "name",
              "type": "string"
            },
            {
              "internalType": "string",
              "name": "proofPhoto",
              "type": "string"
            },
            {
              "components": [
                {
                  "internalType": "uint256",
                  "name": "level",
                  "type": "uint256"
                },
                {
                  "internalType": "uint256",
                  "name": "currentEra",
                  "type": "uint256"
                }
              ],
              "internalType": "struct Pool",
              "name": "pool",
              "type": "tuple"
            },
            {
              "internalType": "uint256",
              "name": "totalContributions",
              "type": "uint256"
            },
            {
              "internalType": "uint256",
              "name": "createdAt",
              "type": "uint256"
            },
            {
              "internalType": "uint256",
              "name": "lastPublishedAt",
              "type": "uint256"
            }
          ],
          "internalType": "struct Contributor",
          "name": "contributor",
          "type": "tuple"
        }
      ],
      "stateMutability": "view",
      "type": "function"
    },
    {
      "inputs": [
        {
          "internalType": "address",
          "name": "caller",
          "type": "address"
        }
      ],
      "name": "isAllowedCaller",
      "outputs": [
        {
          "internalType": "bool",
          "name": "",
          "type": "bool"
        }
      ],
      "stateMutability": "view",
      "type": "function"
    },
    {
      "inputs": [],
      "name": "maxPenalties",
      "outputs": [
        {
          "internalType": "uint8",
          "name": "",
          "type": "uint8"
        }
      ],
      "stateMutability": "view",
      "type": "function"
    },
    {
      "inputs": [
        {
          "internalType": "address",
          "name": "allowed",
          "type": "address"
        }
      ],
      "name": "newAllowedCaller",
      "outputs": [],
      "stateMutability": "nonpayable",
      "type": "function"
    },
    {
      "inputs": [],
      "name": "nextEraIn",
      "outputs": [
        {
          "internalType": "uint256",
          "name": "",
          "type": "uint256"
        }
      ],
      "stateMutability": "view",
      "type": "function"
    },
    {
      "inputs": [],
      "name": "owner",
      "outputs": [
        {
          "internalType": "address",
          "name": "",
          "type": "address"
        }
      ],
      "stateMutability": "view",
      "type": "function"
    },
    {
      "inputs": [
        {
          "internalType": "address",
          "name": "",
          "type": "address"
        },
        {
          "internalType": "uint256",
          "name": "",
          "type": "uint256"
        }
      ],
      "name": "penalties",
      "outputs": [
        {
          "internalType": "uint64",
          "name": "contributionId",
          "type": "uint64"
        }
      ],
      "stateMutability": "view",
      "type": "function"
    },
    {
      "inputs": [],
      "name": "poolCurrentEra",
      "outputs": [
        {
          "internalType": "uint256",
          "name": "",
          "type": "uint256"
        }
      ],
      "stateMutability": "view",
      "type": "function"
    },
    {
      "inputs": [
        {
          "internalType": "address",
          "name": "addr",
          "type": "address"
        }
      ],
      "name": "removePoolLevels",
      "outputs": [],
      "stateMutability": "nonpayable",
      "type": "function"
    },
    {
      "inputs": [],
      "name": "renounceOwnership",
      "outputs": [],
      "stateMutability": "nonpayable",
      "type": "function"
    },
    {
      "inputs": [],
      "name": "securityBlocksToValidation",
      "outputs": [
        {
          "internalType": "uint32",
          "name": "",
          "type": "uint32"
        }
      ],
      "stateMutability": "view",
      "type": "function"
    },
    {
      "inputs": [
        {
          "internalType": "address",
          "name": "_validationRulesAddress",
          "type": "address"
        }
      ],
      "name": "setContractCall",
      "outputs": [],
      "stateMutability": "nonpayable",
      "type": "function"
    },
    {
      "inputs": [
        {
          "components": [
            {
              "internalType": "address",
              "name": "communityRulesAddress",
              "type": "address"
            },
            {
              "internalType": "address",
              "name": "contributorPoolAddress",
              "type": "address"
            },
            {
              "internalType": "address",
              "name": "validationRulesAddress",
              "type": "address"
            },
            {
              "internalType": "address",
              "name": "voteRulesAddress",
              "type": "address"
            }
          ],
          "internalType": "struct ContractsDependency",
          "name": "contractDependency",
          "type": "tuple"
        }
      ],
      "name": "setContractInterfaces",
      "outputs": [],
      "stateMutability": "nonpayable",
      "type": "function"
    },
    {
      "inputs": [],
      "name": "timeBetweenWorks",
      "outputs": [
        {
          "internalType": "uint32",
          "name": "",
          "type": "uint32"
        }
      ],
      "stateMutability": "view",
      "type": "function"
    },
    {
      "inputs": [
        {
          "internalType": "address",
          "name": "addr",
          "type": "address"
        }
      ],
      "name": "totalPenalties",
      "outputs": [
        {
          "internalType": "uint256",
          "name": "",
          "type": "uint256"
        }
      ],
      "stateMutability": "view",
      "type": "function"
    },
    {
      "inputs": [
        {
          "internalType": "address",
          "name": "newOwner",
          "type": "address"
        }
      ],
      "name": "transferOwnership",
      "outputs": [],
      "stateMutability": "nonpayable",
      "type": "function"
    },
    {
      "inputs": [],
      "name": "withdraw",
      "outputs": [],
      "stateMutability": "nonpayable",
      "type": "function"
    }
  ],
  "bytecode": "0x60e060405234801561001057600080fd5b5060405161351f38038061351f83398101604081905261002f916100e9565b338061005557604051631e4fbdf760e01b81526000600482015260240160405180910390fd5b61005e81610080565b50600160025563ffffffff92831660a05260ff9091166080521660c052610134565b600080546001600160a01b038381166001600160a01b0319831681178455604051919092169283917f8be0079c531659141344cd1fd0a4f28419497f9722a3daafe3b4186f6b6457e09190a35050565b805163ffffffff811681146100e457600080fd5b919050565b6000806000606084860312156100fe57600080fd5b610107846100d0565b9250602084015160ff8116811461011d57600080fd5b915061012b604085016100d0565b90509250925092565b60805160a05160c0516133a7610178600039600081816102a001526106dd01526000818161039001526119370152600081816104c1015261134301526133a76000f3fe608060405234801561001057600080fd5b50600436106102065760003560e01c80637c647a621161011a578063b7e97777116100ad578063cae5366b1161007c578063cae5366b14610553578063da0e0f9714610573578063e05cf15514610593578063f2fde38b1461059b578063f92f0f8e146105ae57600080fd5b8063b7e97777146104f5578063be9dc5841461051e578063c696855614610526578063c77c1ce61461054057600080fd5b80639eaf666f116100e95780639eaf666f1461046a578063a68012581461047d578063b0fd59f3146104a9578063b24eb769146104bc57600080fd5b80637c647a621461040c5780638da5cb5b1461041f5780638f93716f1461044457806391155f191461045757600080fd5b80633d8270f51161019d5780636b6c7c2d1161016c5780636b6c7c2d1461038b5780636ec7053a146103b2578063715018a6146103ce578063755d4f97146103d65780637b334154146103e957600080fd5b80633d8270f51461033d578063582256f11461035d578063585506bf146103655780635fa71c281461037857600080fd5b806335c11677116101d957806335c116771461029b57806338658175146102d75780633c9151fe146103025780633ccfd60b1461033557600080fd5b8063129de9651461020b5780631cee0700146102205780632076267b14610251578063231a9b8614610288575b600080fd5b61021e610219366004612b71565b6105c1565b005b61023361022e366004612bd8565b610a1e565b60405161024899989796959493929190612c37565b60405180910390f35b61027a61025f366004612cc0565b6001600160a01b03166000908152600e602052604090205490565b604051908152602001610248565b61021e610296366004612cf2565b610b90565b6102c27f000000000000000000000000000000000000000000000000000000000000000081565b60405163ffffffff9091168152602001610248565b6003546102ea906001600160401b031681565b6040516001600160401b039091168152602001610248565b610325610310366004612d2b565b60086020526000908152604090205460ff1681565b6040519015158152602001610248565b61021e611420565b61035061034b366004612cc0565b611688565b6040516102489190612d48565b61027a611890565b610325610373366004612cc0565b611910565b6102ea610386366004612dfb565b611973565b6102c27f000000000000000000000000000000000000000000000000000000000000000081565b6103bb613e8081565b60405161ffff9091168152602001610248565b61021e6119ab565b61021e6103e4366004612cc0565b6119bd565b6103256103f7366004612cc0565b60016020526000908152604090205460ff1681565b61021e61041a366004612e27565b6119e7565b6000546001600160a01b03165b6040516001600160a01b039091168152602001610248565b61021e610452366004612cc0565b611a4c565b61027a610465366004612dfb565b611a7b565b610325610478366004612e90565b611aac565b61032561048b366004612cc0565b6001600160a01b031660009081526001602052604090205460ff1690565b61021e6104b7366004612b71565b611ae4565b6104e37f000000000000000000000000000000000000000000000000000000000000000081565b60405160ff9091168152602001610248565b61042c610503366004612bd8565b6006602052600090815260409020546001600160a01b031681565b61027a600581565b6003546102ea90600160401b90046001600160401b031681565b61032561054e366004612cc0565b611e63565b610566610561366004612d2b565b6120cd565b6040516102489190612ebc565b610586610581366004612cc0565b6122db565b6040516102489190612f77565b61027a612347565b61021e6105a9366004612cc0565b612391565b61021e6105bc366004612cc0565b6123cf565b6105c96124e9565b815161012c108015906105de57508051609610155b6106285760405162461bcd60e51b815260206004820152601660248201527513585e0818da185c9858dd195c9cc81c995858da195960521b60448201526064015b60405180910390fd5b600954604051631292f8c160e31b81526001600160a01b0390911690639497c6089061065b906005903390600401612fdc565b602060405180830381865afa158015610678573d6000803e3d6000fd5b505050506040513d601f19601f8201168201806040525081019061069c9190613002565b6106db5760405162461bcd60e51b815260206004820152601060248201526f27b7363c9021b7b73a3934b13aba37b960811b604482015260640161061f565b7f000000000000000000000000000000000000000000000000000000000000000063ffffffff1661070a611890565b116107675760405162461bcd60e51b815260206004820152602760248201527f5761697420756e74696c206e6578742065726120746f2061646420636f6e747260448201526634b13aba34b7b760c91b606482015260840161061f565b61077033611910565b6107b05760405162461bcd60e51b815260206004820152601160248201527010d85b89dd081c1d589b1a5cda081e595d607a1b604482015260640161061f565b600380546001600160401b03169060006107c98361303a565b91906101000a8154816001600160401b0302191690836001600160401b03160217905550506003600881819054906101000a90046001600160401b0316809291906108139061303a565b82546101009290920a6001600160401b038181021990931691831602179091556003543360009081526004602052604081206005018054600160401b909304909316935090919061086383613065565b9190505550604051806101200160405280826001600160401b0316815260200161088b612347565b81523360208083019190915260408083018790526060808401879052600060808501819052600160a0860181905260c086018290524360e0909601959095526001600160401b03878116825260058552908390208651815467ffffffffffffffff1916921691909117815592850151938301939093558301516002820180546001600160a01b0319166001600160a01b039092169190911790559082015160038201906109389082613104565b506080820151600482019061094d9082613104565b5060a0820151600582015560c082015160068201805460ff191691151591909117905560e08201516007808301919091556101009092015160089091015533600081815260209283526040812080546001810182559082529290206001600160401b0384169201919091556109c29082612511565b336001600160a01b0316816001600160401b03167fc6aae0d562ab183f7fbeb19b28e6ce69e68fa31da15096224a655f5d4c2e26c38543604051610a079291906131c2565b60405180910390a350610a1a6001600255565b5050565b60056020526000908152604090208054600182015460028301546003840180546001600160401b039094169492936001600160a01b039092169291610a629061307e565b80601f0160208091040260200160405190810160405280929190818152602001828054610a8e9061307e565b8015610adb5780601f10610ab057610100808354040283529160200191610adb565b820191906000526020600020905b815481529060010190602001808311610abe57829003601f168201915b505050505090806004018054610af09061307e565b80601f0160208091040260200160405190810160405280929190818152602001828054610b1c9061307e565b8015610b695780601f10610b3e57610100808354040283529160200191610b69565b820191906000526020600020905b815481529060010190602001808311610b4c57829003601f168201915b505050506005830154600684015460078501546008909501549394919360ff909116925089565b610b986124e9565b60095460405163e838dfbb60e01b81523360048201526001600160a01b039091169063e838dfbb90602401602060405180830381865afa158015610be0573d6000803e3d6000fd5b505050506040513d601f19601f82011682018060405250810190610c049190613002565b15610c3f5760405162461bcd60e51b815260206004820152600b60248201526a155cd95c8819195b9a595960aa1b604482015260640161061f565b805161012c1015610c835760405162461bcd60e51b815260206004820152600e60248201526d4d6178206368617261637465727360901b604482015260640161061f565b600c546040516356fd539760e11b81523360048201526001600160a01b039091169063adfaa72e90602401602060405180830381865afa158015610ccb573d6000803e3d6000fd5b505050506040513d601f19601f82011682018060405250810190610cef9190613002565b610d295760405162461bcd60e51b815260206004820152600b60248201526a2737ba1030903b37ba32b960a91b604482015260640161061f565b600b54604051630d84466b60e21b81523360048201526001600160a01b039091169063361119ac90602401602060405180830381865afa158015610d71573d6000803e3d6000fd5b505050506040513d601f19601f82011682018060405250810190610d959190613002565b610dd95760405162461bcd60e51b8152602060048201526015602482015274576169742074696d654265747765656e566f74657360581b604482015260640161061f565b6001600160401b0382166000908152600f6020908152604080832033845290915290205460ff1615610e3d5760405162461bcd60e51b815260206004820152600d60248201526c105b1c9958591e481d9bdd1959609a1b604482015260640161061f565b6001600160401b03821660009081526008602052604090205460ff1615610ea65760405162461bcd60e51b815260206004820152601960248201527f50656e616c7469657320616c7265616479206170706c69656400000000000000604482015260640161061f565b6001600160401b038083166000818152600f602090815260408083203384528252808320805460ff191660019081179091559383526005825280832081516101208101835281549096168652938401549185019190915260028301546001600160a01b03169084015260038201805491939291606084019190610f289061307e565b80601f0160208091040260200160405190810160405280929190818152602001828054610f549061307e565b8015610fa15780601f10610f7657610100808354040283529160200191610fa1565b820191906000526020600020905b815481529060010190602001808311610f8457829003601f168201915b50505050508152602001600482018054610fba9061307e565b80601f0160208091040260200160405190810160405280929190818152602001828054610fe69061307e565b80156110335780601f1061100857610100808354040283529160200191611033565b820191906000526020600020905b81548152906001019060200180831161101657829003601f168201915b505050918352505060058201546020820152600682015460ff16151560408201526007820154606082015260089091015460809091015260c0810151909150801561108857508060200151611086612347565b145b6110d45760405162461bcd60e51b815260206004820152601e60248201527f5468697320636f6e747269627574696f6e206973206e6f742056414c49440000604482015260640161061f565b60018160a0018181516110e791906131e4565b9052506001600160401b038381166000908152600560209081526040918290208451815467ffffffffffffffff1916941693909317835583015160018301558201516002820180546001600160a01b0319166001600160a01b03909216919091179055606082015182919060038201906111619082613104565b50608082015160048201906111769082613104565b5060a0820151600582015560c082015160068201805460ff191691151591909117905560e0820151600782015561010090910151600890910155600b54604080516369bf81c360e01b815290516000926001600160a01b0316916369bf81c39160048083019260209291908290030181865afa1580156111fa573d6000803e3d6000fd5b505050506040513d601f19601f8201168201806040525081019061121e91906131f7565b9050600181116112835760405162461bcd60e51b815260206004820152602a60248201527f56616c69646174696f6e207468726573686f6c642063616e6e6f74206265206c60448201526932b9b9903a3430b7101960b11b606482015260840161061f565b808260a001511061137a576001600160401b0384166000908152600860205260409020805460ff191660011790556112ba82612622565b60006112ca8360400151866127c8565b905082604001516001600160a01b0316856001600160401b03167f877210aa63ada7585f903bc529a6691c6e70aeeb79dd69e7c16011733f8d33828661132987604001516001600160a01b03166000908152600e602052604090205490565b4360405161133993929190613210565b60405180910390a37f000000000000000000000000000000000000000000000000000000000000000060ff168110611378576113788360400151612831565b505b600b5460405163eb48556b60e01b81523360048201526001600160a01b039091169063eb48556b90602401600060405180830381600087803b1580156113bf57600080fd5b505af11580156113d3573d6000803e3d6000fd5b505083516040513393507fd61b6e2c73784f8cc7ef49527075f70bb175237a4bb1cb8f5e840ab67faf65c2925061140c91908790613235565b60405180910390a25050610a1a6001600255565b6114286124e9565b600954604051631292f8c160e31b81526001600160a01b0390911690639497c6089061145b906005903390600401612fdc565b602060405180830381865afa158015611478573d6000803e3d6000fd5b505050506040513d601f19601f8201168201806040525081019061149c9190613002565b6114e85760405162461bcd60e51b815260206004820152601860248201527f506f6f6c206f6e6c7920746f20636f6e7472696275746f720000000000000000604482015260640161061f565b3360009081526004602081905260409182902080820154600a549351637df42f8360e11b8152928301819052909290916001600160a01b039091169063fbe85f0690602401602060405180830381865afa15801561154a573d6000803e3d6000fd5b505050506040513d601f19601f8201168201806040525081019061156e9190613002565b6115c85760405162461bcd60e51b815260206004820152602560248201527f4e6f7420656c696769626c6520746f20776974686472617720666f7220746869604482015264732065726160d81b606482015260840161061f565b6004820180549060006115da83613065565b9091555050600a5460405163f3fef3a360e01b8152336004820152602481018390526001600160a01b039091169063f3fef3a390604401600060405180830381600087803b15801561162b57600080fd5b505af115801561163f573d6000803e3d6000fd5b50506040514381528392503391507fb40adf9f22b112880b7b93e1732c34e633b966b07e6348eda20450f7e9c114e79060200160405180910390a350506116866001600255565b565b6116de604080516101008101825260008082526020808301829052606083850181905280840152835180850190945281845283015290608082019081526020016000815260200160008152602001600081525090565b6001600160a01b0380831660009081526004602090815260409182902082516101008101845281546001600160401b0381168252600160401b90049094169184019190915260018101805491928401916117379061307e565b80601f01602080910402602001604051908101604052809291908181526020018280546117639061307e565b80156117b05780601f10611785576101008083540402835291602001916117b0565b820191906000526020600020905b81548152906001019060200180831161179357829003601f168201915b505050505081526020016002820180546117c99061307e565b80601f01602080910402602001604051908101604052809291908181526020018280546117f59061307e565b80156118425780601f1061181757610100808354040283529160200191611842565b820191906000526020600020905b81548152906001019060200180831161182557829003601f168201915b50505091835250506040805180820182526003840154815260048401546020828101919091528301526005830154908201526006820154606082015260079091015460809091015292915050565b600a546000906001600160a01b031663d5ee3eb56118ac612347565b6040518263ffffffff1660e01b81526004016118ca91815260200190565b602060405180830381865afa1580156118e7573d6000803e3d6000fd5b505050506040513d601f19601f8201168201806040525081019061190b91906131f7565b905090565b6001600160a01b0381166000908152600460205260408120600701548161195d63ffffffff7f000000000000000000000000000000000000000000000000000000000000000016836131e4565b43119050808061196b575081155b949350505050565b600e602052816000526040600020818154811061198f57600080fd5b6000918252602090912001546001600160401b03169150829050565b6119b3612a29565b6116866000612a56565b6119c5612a29565b600d80546001600160a01b0319166001600160a01b0392909216919091179055565b6119ef612a29565b8051600980546001600160a01b03199081166001600160a01b03938416179091556020830151600a805483169184169190911790556040830151600b80548316918416919091179055606090920151600c80549093169116179055565b611a54612a29565b6001600160a01b03166000908152600160208190526040909120805460ff19169091179055565b60076020528160005260406000208181548110611a9757600080fd5b90600052602060002001600091509150505481565b600060058311611abe57506001611add565b82600003611ace57506000611add565b83611ad98484613257565b1190505b9392505050565b8151603210801590611af857508051609610155b611b355760405162461bcd60e51b815260206004820152600e60248201526d4d6178206368617261637465727360901b604482015260640161061f565b600954604051632f22dc7b60e01b8152613e80916001600160a01b031690632f22dc7b90611b689060059060040161326e565b602060405180830381865afa158015611b85573d6000803e3d6000fd5b505050506040513d601f19601f82011682018060405250810190611ba991906131f7565b10611be75760405162461bcd60e51b815260206004820152600e60248201526d13585e081d5cd95c881b1a5b5a5d60921b604482015260640161061f565b60095460405162f5960960e51b81526000916001600160a01b031690631eb2c12090611c189060059060040161326e565b602060405180830381865afa158015611c35573d6000803e3d6000fd5b505050506040513d601f19601f82011682018060405250810190611c59919061327c565b611c64906001613299565b9050604051806101000160405280826001600160401b03168152602001336001600160a01b03168152602001848152602001838152602001604051806040016040528060008152602001611cb6612347565b9052815260006020808301829052436040808501919091526060909301829052338252600481529082902083518154928501516001600160a01b0316600160401b026001600160e01b03199093166001600160401b0390911617919091178155908201516001820190611d299082613104565b5060608201516002820190611d3e9082613104565b5060808201518051600383015560209081015160048084019190915560a084015160058085019190915560c085015160068086019190915560e0909501516007909401939093556001600160401b03851660009081529390915260409283902080546001600160a01b031916339081179091556009549351639c3eead960e01b81526001600160a01b039490941693639c3eead993611ddf939091016132b8565b600060405180830381600087803b158015611df957600080fd5b505af1158015611e0d573d6000803e3d6000fd5b50505050336001600160a01b0316816001600160401b03167fc8261a89bb2ba1bec86e2467cbc6d7c91bcceef268691b418bc08e888e43f3388543604051611e569291906131c2565b60405180910390a3505050565b6001600160a01b03808216600090815260046020908152604080832081516101008101835281546001600160401b0381168252600160401b9004909516928501929092526001820180549394859490939284019190611ec19061307e565b80601f0160208091040260200160405190810160405280929190818152602001828054611eed9061307e565b8015611f3a5780601f10611f0f57610100808354040283529160200191611f3a565b820191906000526020600020905b815481529060010190602001808311611f1d57829003601f168201915b50505050508152602001600282018054611f539061307e565b80601f0160208091040260200160405190810160405280929190818152602001828054611f7f9061307e565b8015611fcc5780601f10611fa157610100808354040283529160200191611fcc565b820191906000526020600020905b815481529060010190602001808311611faf57829003601f168201915b50505091835250506040805180820182526003840154815260048401546020828101919091528301526005830154908201526006820154606082015260079091015460809091015280519091506001600160401b031661202f5750600092915050565b60035460095460405162f5960960e51b8152611add92600160401b90046001600160401b0316916001600160a01b031690631eb2c120906120759060059060040161326e565b602060405180830381865afa158015612092573d6000803e3d6000fd5b505050506040513d601f19601f820116820180604052508101906120b6919061327c565b6001600160401b0316836080015160000151611aac565b61213060405180610120016040528060006001600160401b031681526020016000815260200160006001600160a01b0316815260200160608152602001606081526020016000815260200160001515815260200160008152602001600081525090565b6001600160401b038083166000908152600560209081526040918290208251610120810184528154909416845260018101549184019190915260028101546001600160a01b0316918301919091526003810180546060840191906121939061307e565b80601f01602080910402602001604051908101604052809291908181526020018280546121bf9061307e565b801561220c5780601f106121e15761010080835404028352916020019161220c565b820191906000526020600020905b8154815290600101906020018083116121ef57829003601f168201915b505050505081526020016004820180546122259061307e565b80601f01602080910402602001604051908101604052809291908181526020018280546122519061307e565b801561229e5780601f106122735761010080835404028352916020019161229e565b820191906000526020600020905b81548152906001019060200180831161228157829003601f168201915b505050918352505060058201546020820152600682015460ff16151560408201526007820154606082015260089091015460809091015292915050565b6001600160a01b03811660009081526007602090815260409182902080548351818402810184019094528084526060939283018282801561233b57602002820191906000526020600020905b815481526020019060010190808311612327575b50505050509050919050565b600a5460408051637686fbcf60e11b815290516000926001600160a01b03169163ed0df79e9160048083019260209291908290030181865afa1580156118e7573d6000803e3d6000fd5b612399612a29565b6001600160a01b0381166123c357604051631e4fbdf760e01b81526000600482015260240161061f565b6123cc81612a56565b50565b3360009081526001602052604090205460ff166124235760405162461bcd60e51b81526020600482015260126024820152712737ba1030b63637bbb2b21031b0b63632b960711b604482015260640161061f565b600d546001600160a01b031633811461247e5760405162461bcd60e51b815260206004820152601e60248201527f43616c6c6572206d7573742062652073797374656d20636f6e74726163740000604482015260640161061f565b600a546040516310c791e560e11b81526001600160a01b038481166004830152600160248301529091169063218f23ca906044015b600060405180830381600087803b1580156124cd57600080fd5b505af11580156124e1573d6000803e3d6000fd5b505050505050565b600280540361250b57604051633ee5aeb560e01b815260040160405180910390fd5b60028055565b6001600160a01b0382166000908152600460205260408120805490916001600160401b03909116900361254357505050565b43600782015560038101805490600061255b83613065565b9091555050600a546040516338e8490d60e11b81526001600160a01b038581166004830152600160248301526001600160401b0385166044830152909116906371d0921a90606401600060405180830381600087803b1580156125bd57600080fd5b505af11580156125d1573d6000803e3d6000fd5b505050506003810154604080519182524360208301526001600160a01b038516917f98124a7baa4200982491adbb05ed4b64c8c04aab157bc086bfc71b96540a7e11910160405180910390a2505050565b600380546001600160401b031690600061263b836132d5565b82546101009290920a6001600160401b03818102199093169183160217909155600060c084018190524360e0850152835182168152600560209081526040918290208551815467ffffffffffffffff1916941693909317835584015160018301558301516002820180546001600160a01b0319166001600160a01b03909216919091179055606083015183925060038201906126d79082613104565b50608082015160048201906126ec9082613104565b5060a0820151600582015560c082015160068201805460ff191691151591909117905560e08201516007820155610100909101516008909101556040818101516001600160a01b0316600090815260046020529081206003018054600192906127569084906132f8565b9091555050600a5460408281015190516310c791e560e11b81526001600160a01b0391821660048201526000602482015291169063218f23ca90604401600060405180830381600087803b1580156127ad57600080fd5b505af11580156127c1573d6000803e3d6000fd5b5050505050565b6001600160a01b0382166000818152600e6020818152604080842081518084019092526001600160401b038781168352815460018101835582875284872093519301805467ffffffffffffffff1916939091169290921790915593835252905490505b92915050565b60095460405163e838dfbb60e01b81526001600160a01b0383811660048301529091169063e838dfbb90602401602060405180830381865afa15801561287b573d6000803e3d6000fd5b505050506040513d601f19601f8201168201806040525081019061289f9190613002565b156128a75750565b600954604051634acf78e960e11b81526001600160a01b0383811660048301529091169063959ef1d290602401600060405180830381600087803b1580156128ee57600080fd5b505af1158015612902573d6000803e3d6000fd5b505060095460405163158bdc5f60e11b81526001600160a01b038581166004830152600094509091169150632b17b8be90602401608060405180830381865afa158015612953573d6000803e3d6000fd5b505050506040513d601f19601f82011682018060405250810190612977919061330b565b60208101519091506001600160a01b03161561247e576009546020820151604051636101bf2160e01b81526001600160a01b039182166004820152911690636101bf2190602401600060405180830381600087803b1580156129d857600080fd5b505af11580156129ec573d6000803e3d6000fd5b5050600a546040516310c791e560e11b81526001600160a01b03868116600483015260016024830152909116925063218f23ca91506044016124b3565b6000546001600160a01b031633146116865760405163118cdaa760e01b815233600482015260240161061f565b600080546001600160a01b038381166001600160a01b0319831681178455604051919092169283917f8be0079c531659141344cd1fd0a4f28419497f9722a3daafe3b4186f6b6457e09190a35050565b634e487b7160e01b600052604160045260246000fd5b604051608081016001600160401b0381118282101715612ade57612ade612aa6565b60405290565b600082601f830112612af557600080fd5b81356001600160401b03811115612b0e57612b0e612aa6565b604051601f8201601f19908116603f011681016001600160401b0381118282101715612b3c57612b3c612aa6565b604052818152838201602001851015612b5457600080fd5b816020850160208301376000918101602001919091529392505050565b60008060408385031215612b8457600080fd5b82356001600160401b03811115612b9a57600080fd5b612ba685828601612ae4565b92505060208301356001600160401b03811115612bc257600080fd5b612bce85828601612ae4565b9150509250929050565b600060208284031215612bea57600080fd5b5035919050565b6000815180845260005b81811015612c1757602081850181015186830182015201612bfb565b506000602082860101526020601f19601f83011685010191505092915050565b6001600160401b038a16815288602082015260018060a01b038816604082015261012060608201526000612c6f610120830189612bf1565b8281036080840152612c818189612bf1565b60a0840197909752505092151560c084015260e08301919091526101009091015295945050505050565b6001600160a01b03811681146123cc57600080fd5b600060208284031215612cd257600080fd5b8135611add81612cab565b6001600160401b03811681146123cc57600080fd5b60008060408385031215612d0557600080fd5b8235612d1081612cdd565b915060208301356001600160401b03811115612bc257600080fd5b600060208284031215612d3d57600080fd5b8135611add81612cdd565b602081526001600160401b03825116602082015260006020830151612d7860408401826001600160a01b03169052565b5060408301516101206060840152612d94610140840182612bf1565b90506060840151601f19848303016080850152612db18282612bf1565b9150506080840151612dd060a085018280518252602090810151910152565b5060a084015160e084015260c084015161010084015260e08401516101208401528091505092915050565b60008060408385031215612e0e57600080fd5b8235612e1981612cab565b946020939093013593505050565b60006080828403128015612e3a57600080fd5b50612e43612abc565b8235612e4e81612cab565b81526020830135612e5e81612cab565b60208201526040830135612e7181612cab565b60408201526060830135612e8481612cab565b60608201529392505050565b600080600060608486031215612ea557600080fd5b505081359360208301359350604090920135919050565b60208152612ed66020820183516001600160401b03169052565b6020820151604082015260006040830151612efc60608401826001600160a01b03169052565b5060608301516101206080840152612f18610140840182612bf1565b90506080840151601f198483030160a0850152612f358282612bf1565b91505060a084015160c084015260c0840151612f5560e085018215159052565b5060e08401516101008401526101008401516101208401528091505092915050565b602080825282518282018190526000918401906040840190835b81811015612faf578351835260209384019390920191600101612f91565b509095945050505050565b60088110612fd857634e487b7160e01b600052602160045260246000fd5b9052565b60408101612fea8285612fba565b6001600160a01b039290921660209190910152919050565b60006020828403121561301457600080fd5b81518015158114611add57600080fd5b634e487b7160e01b600052601160045260246000fd5b60006001600160401b0382166001600160401b03810361305c5761305c613024565b60010192915050565b60006001820161307757613077613024565b5060010190565b600181811c9082168061309257607f821691505b6020821081036130b257634e487b7160e01b600052602260045260246000fd5b50919050565b601f8211156130ff57806000526020600020601f840160051c810160208510156130df5750805b601f840160051c820191505b818110156127c157600081556001016130eb565b505050565b81516001600160401b0381111561311d5761311d612aa6565b6131318161312b845461307e565b846130b8565b6020601f821160018114613165576000831561314d5750848201515b600019600385901b1c1916600184901b1784556127c1565b600084815260208120601f198516915b828110156131955787850151825560209485019460019092019101613175565b50848210156131b35786840151600019600387901b60f8161c191681555b50505050600190811b01905550565b6040815260006131d56040830185612bf1565b90508260208301529392505050565b8082018082111561282b5761282b613024565b60006020828403121561320957600080fd5b5051919050565b6060815260006132236060830186612bf1565b60208301949094525060400152919050565b6001600160401b038316815260406020820152600061196b6040830184612bf1565b808202811582820484141761282b5761282b613024565b6020810161282b8284612fba565b60006020828403121561328e57600080fd5b8151611add81612cdd565b6001600160401b03818116838216019081111561282b5761282b613024565b6001600160a01b038316815260408101611add6020830184612fba565b60006001600160401b038216806132ee576132ee613024565b6000190192915050565b8181038181111561282b5761282b613024565b6000608082840312801561331e57600080fd5b50613327612abc565b825161333281612cab565b8152602083015161334281612cab565b602082015260408301516008811061335957600080fd5b6040820152606092830151928101929092525091905056fea2646970667358221220d1469419f51b1453faa940725284b17752be712f9317807fe6e8be2080c910cd64736f6c634300081b0033",
  "linkReferences": {},
  "deployedLinkReferences": {}
}