{
  "_format": "hh-sol-artifact-1",
  "contractName": "ContributorRules",
  "sourceName": "contracts/ContributorRules.sol",
  "abi": [
    {
      "inputs": [
        {
          "internalType": "address",
          "name": "communityRulesAddress",
          "type": "address"
        },
        {
          "internalType": "address",
          "name": "contributorPoolAddress",
          "type": "address"
        },
        {
          "internalType": "uint256",
          "name": "timeBetweenWorks_",
          "type": "uint256"
        },
        {
          "internalType": "uint256",
          "name": "securityBlocksToValidatorAnalysis",
          "type": "uint256"
        }
      ],
      "stateMutability": "nonpayable",
      "type": "constructor"
    },
    {
      "anonymous": false,
      "inputs": [
        {
          "indexed": true,
          "internalType": "address",
          "name": "previousOwner",
          "type": "address"
        },
        {
          "indexed": true,
          "internalType": "address",
          "name": "newOwner",
          "type": "address"
        }
      ],
      "name": "OwnershipTransferred",
      "type": "event"
    },
    {
      "inputs": [],
      "name": "SECURITY_BLOCKS_TO_VALIDATOR_ANALYSIS",
      "outputs": [
        {
          "internalType": "uint256",
          "name": "",
          "type": "uint256"
        }
      ],
      "stateMutability": "view",
      "type": "function"
    },
    {
      "inputs": [
        {
          "internalType": "string",
          "name": "description",
          "type": "string"
        },
        {
          "internalType": "string",
          "name": "report",
          "type": "string"
        }
      ],
      "name": "addContribution",
      "outputs": [],
      "stateMutability": "nonpayable",
      "type": "function"
    },
    {
      "inputs": [
        {
          "internalType": "string",
          "name": "name",
          "type": "string"
        },
        {
          "internalType": "string",
          "name": "proofPhoto",
          "type": "string"
        }
      ],
      "name": "addContributor",
      "outputs": [],
      "stateMutability": "nonpayable",
      "type": "function"
    },
    {
      "inputs": [
        {
          "internalType": "address",
          "name": "",
          "type": "address"
        }
      ],
      "name": "allowedCallers",
      "outputs": [
        {
          "internalType": "bool",
          "name": "",
          "type": "bool"
        }
      ],
      "stateMutability": "view",
      "type": "function"
    },
    {
      "inputs": [
        {
          "internalType": "uint256",
          "name": "totalLevels",
          "type": "uint256"
        },
        {
          "internalType": "uint256",
          "name": "totalUsers",
          "type": "uint256"
        },
        {
          "internalType": "uint256",
          "name": "userLevels",
          "type": "uint256"
        }
      ],
      "name": "canInvite",
      "outputs": [
        {
          "internalType": "bool",
          "name": "",
          "type": "bool"
        }
      ],
      "stateMutability": "pure",
      "type": "function"
    },
    {
      "inputs": [
        {
          "internalType": "address",
          "name": "addr",
          "type": "address"
        }
      ],
      "name": "canSendInvite",
      "outputs": [
        {
          "internalType": "bool",
          "name": "",
          "type": "bool"
        }
      ],
      "stateMutability": "view",
      "type": "function"
    },
    {
      "inputs": [
        {
          "internalType": "uint256",
          "name": "",
          "type": "uint256"
        }
      ],
      "name": "contributions",
      "outputs": [
        {
          "internalType": "uint256",
          "name": "id",
          "type": "uint256"
        },
        {
          "internalType": "uint256",
          "name": "era",
          "type": "uint256"
        },
        {
          "internalType": "address",
          "name": "user",
          "type": "address"
        },
        {
          "internalType": "string",
          "name": "description",
          "type": "string"
        },
        {
          "internalType": "string",
          "name": "report",
          "type": "string"
        },
        {
          "internalType": "uint256",
          "name": "createdAtBlockNumber",
          "type": "uint256"
        }
      ],
      "stateMutability": "view",
      "type": "function"
    },
    {
      "inputs": [],
      "name": "contributionsCount",
      "outputs": [
        {
          "internalType": "uint256",
          "name": "",
          "type": "uint256"
        }
      ],
      "stateMutability": "view",
      "type": "function"
    },
    {
      "inputs": [
        {
          "internalType": "address",
          "name": "",
          "type": "address"
        },
        {
          "internalType": "uint256",
          "name": "",
          "type": "uint256"
        }
      ],
      "name": "contributionsIds",
      "outputs": [
        {
          "internalType": "uint256",
          "name": "",
          "type": "uint256"
        }
      ],
      "stateMutability": "view",
      "type": "function"
    },
    {
      "inputs": [
        {
          "internalType": "address",
          "name": "addr",
          "type": "address"
        }
      ],
      "name": "contributorExists",
      "outputs": [
        {
          "internalType": "bool",
          "name": "",
          "type": "bool"
        }
      ],
      "stateMutability": "view",
      "type": "function"
    },
    {
      "inputs": [
        {
          "internalType": "address",
          "name": "",
          "type": "address"
        }
      ],
      "name": "contributors",
      "outputs": [
        {
          "internalType": "uint256",
          "name": "id",
          "type": "uint256"
        },
        {
          "internalType": "address",
          "name": "contributorWallet",
          "type": "address"
        },
        {
          "internalType": "string",
          "name": "name",
          "type": "string"
        },
        {
          "internalType": "string",
          "name": "proofPhoto",
          "type": "string"
        },
        {
          "components": [
            {
              "internalType": "uint256",
              "name": "level",
              "type": "uint256"
            },
            {
              "internalType": "uint256",
              "name": "currentEra",
              "type": "uint256"
            }
          ],
          "internalType": "struct Pool",
          "name": "pool",
          "type": "tuple"
        },
        {
          "internalType": "uint256",
          "name": "createdAt",
          "type": "uint256"
        },
        {
          "internalType": "uint256",
          "name": "lastPublishedAt",
          "type": "uint256"
        }
      ],
      "stateMutability": "view",
      "type": "function"
    },
    {
      "inputs": [
        {
          "internalType": "uint256",
          "name": "",
          "type": "uint256"
        }
      ],
      "name": "contributorsAddress",
      "outputs": [
        {
          "internalType": "address",
          "name": "",
          "type": "address"
        }
      ],
      "stateMutability": "view",
      "type": "function"
    },
    {
      "inputs": [
        {
          "internalType": "uint256",
          "name": "id",
          "type": "uint256"
        }
      ],
      "name": "getContribution",
      "outputs": [
        {
          "components": [
            {
              "internalType": "uint256",
              "name": "id",
              "type": "uint256"
            },
            {
              "internalType": "uint256",
              "name": "era",
              "type": "uint256"
            },
            {
              "internalType": "address",
              "name": "user",
              "type": "address"
            },
            {
              "internalType": "string",
              "name": "description",
              "type": "string"
            },
            {
              "internalType": "string",
              "name": "report",
              "type": "string"
            },
            {
              "internalType": "uint256",
              "name": "createdAtBlockNumber",
              "type": "uint256"
            }
          ],
          "internalType": "struct Contribution",
          "name": "",
          "type": "tuple"
        }
      ],
      "stateMutability": "view",
      "type": "function"
    },
    {
      "inputs": [
        {
          "internalType": "address",
          "name": "addr",
          "type": "address"
        }
      ],
      "name": "getContributionsIds",
      "outputs": [
        {
          "internalType": "uint256[]",
          "name": "",
          "type": "uint256[]"
        }
      ],
      "stateMutability": "view",
      "type": "function"
    },
    {
      "inputs": [
        {
          "internalType": "address",
          "name": "addr",
          "type": "address"
        }
      ],
      "name": "getContributor",
      "outputs": [
        {
          "components": [
            {
              "internalType": "uint256",
              "name": "id",
              "type": "uint256"
            },
            {
              "internalType": "address",
              "name": "contributorWallet",
              "type": "address"
            },
            {
              "internalType": "string",
              "name": "name",
              "type": "string"
            },
            {
              "internalType": "string",
              "name": "proofPhoto",
              "type": "string"
            },
            {
              "components": [
                {
                  "internalType": "uint256",
                  "name": "level",
                  "type": "uint256"
                },
                {
                  "internalType": "uint256",
                  "name": "currentEra",
                  "type": "uint256"
                }
              ],
              "internalType": "struct Pool",
              "name": "pool",
              "type": "tuple"
            },
            {
              "internalType": "uint256",
              "name": "createdAt",
              "type": "uint256"
            },
            {
              "internalType": "uint256",
              "name": "lastPublishedAt",
              "type": "uint256"
            }
          ],
          "internalType": "struct Contributor",
          "name": "contributor",
          "type": "tuple"
        }
      ],
      "stateMutability": "view",
      "type": "function"
    },
    {
      "inputs": [
        {
          "internalType": "address",
          "name": "caller",
          "type": "address"
        }
      ],
      "name": "isAllowedCaller",
      "outputs": [
        {
          "internalType": "bool",
          "name": "",
          "type": "bool"
        }
      ],
      "stateMutability": "view",
      "type": "function"
    },
    {
      "inputs": [
        {
          "internalType": "address",
          "name": "allowed",
          "type": "address"
        }
      ],
      "name": "newAllowedCaller",
      "outputs": [],
      "stateMutability": "nonpayable",
      "type": "function"
    },
    {
      "inputs": [],
      "name": "nextEraIn",
      "outputs": [
        {
          "internalType": "uint256",
          "name": "",
          "type": "uint256"
        }
      ],
      "stateMutability": "view",
      "type": "function"
    },
    {
      "inputs": [],
      "name": "owner",
      "outputs": [
        {
          "internalType": "address",
          "name": "",
          "type": "address"
        }
      ],
      "stateMutability": "view",
      "type": "function"
    },
    {
      "inputs": [
        {
          "internalType": "address",
          "name": "addr",
          "type": "address"
        },
        {
          "internalType": "uint256",
          "name": "removeSomeLevels",
          "type": "uint256"
        }
      ],
      "name": "removePoolLevels",
      "outputs": [],
      "stateMutability": "nonpayable",
      "type": "function"
    },
    {
      "inputs": [],
      "name": "renounceOwnership",
      "outputs": [],
      "stateMutability": "nonpayable",
      "type": "function"
    },
    {
      "inputs": [
        {
          "internalType": "address",
          "name": "newOwner",
          "type": "address"
        }
      ],
      "name": "transferOwnership",
      "outputs": [],
      "stateMutability": "nonpayable",
      "type": "function"
    },
    {
      "inputs": [],
      "name": "withdraw",
      "outputs": [],
      "stateMutability": "nonpayable",
      "type": "function"
    }
  ],
  "bytecode": "0x60c060405234801561001057600080fd5b50604051613d27380380613d278339818101604052810190610032919061024e565b61004e6100436100e960201b60201c565b6100f160201b60201c565b83600660006101000a81548173ffffffffffffffffffffffffffffffffffffffff021916908373ffffffffffffffffffffffffffffffffffffffff16021790555082600760006101000a81548173ffffffffffffffffffffffffffffffffffffffff021916908373ffffffffffffffffffffffffffffffffffffffff16021790555081608081815250508060a08181525050505050506102b5565b600033905090565b60008060009054906101000a900473ffffffffffffffffffffffffffffffffffffffff169050816000806101000a81548173ffffffffffffffffffffffffffffffffffffffff021916908373ffffffffffffffffffffffffffffffffffffffff1602179055508173ffffffffffffffffffffffffffffffffffffffff168173ffffffffffffffffffffffffffffffffffffffff167f8be0079c531659141344cd1fd0a4f28419497f9722a3daafe3b4186f6b6457e060405160405180910390a35050565b600080fd5b600073ffffffffffffffffffffffffffffffffffffffff82169050919050565b60006101e5826101ba565b9050919050565b6101f5816101da565b811461020057600080fd5b50565b600081519050610212816101ec565b92915050565b6000819050919050565b61022b81610218565b811461023657600080fd5b50565b60008151905061024881610222565b92915050565b60008060008060808587031215610268576102676101b5565b5b600061027687828801610203565b945050602061028787828801610203565b935050604061029887828801610239565b92505060606102a987828801610239565b91505092959194509250565b60805160a051613a466102e1600039600081816105950152611679015260006120b40152613a466000f3fe608060405234801561001057600080fd5b506004361061014d5760003560e01c80638f93716f116100c3578063b1824a511161007c578063b1824a51146103a9578063b7e97777146103d9578063c77c1ce614610409578063cef4225414610439578063da0e0f9714610469578063f2fde38b146104995761014d565b80638f93716f146102c357806391155f19146102df57806397705d601461030f5780639eaf666f1461032d578063a68012581461035d578063b0fd59f31461038d5761014d565b80633ccfd60b116101155780633ccfd60b146102135780633d8270f51461021d578063582256f11461024d578063715018a61461026b5780637b334154146102755780638da5cb5b146102a55761014d565b8063129de9651461015257806318ad5c9a1461016e5780631cee07001461018a5780631f6d4942146101bf57806338658175146101f5575b600080fd5b61016c600480360381019061016791906128d7565b6104b5565b005b610188600480360381019061018391906129e3565b6107c8565b005b6101a4600480360381019061019f9190612a23565b610b00565b6040516101b696959493929190612aed565b60405180910390f35b6101d960048036038101906101d49190612b5c565b610c6c565b6040516101ec9796959493929190612bc7565b60405180910390f35b6101fd610dfc565b60405161020a9190612c45565b60405180910390f35b61021b610e02565b005b61023760048036038101906102329190612b5c565b6112c4565b6040516102449190612d8c565b60405180910390f35b6102556114dd565b6040516102629190612c45565b60405180910390f35b610273611587565b005b61028f600480360381019061028a9190612b5c565b61159b565b60405161029c9190612dc9565b60405180910390f35b6102ad6115bb565b6040516102ba9190612de4565b60405180910390f35b6102dd60048036038101906102d89190612b5c565b6115e4565b005b6102f960048036038101906102f491906129e3565b611646565b6040516103069190612c45565b60405180910390f35b610317611677565b6040516103249190612c45565b60405180910390f35b61034760048036038101906103429190612dff565b61169b565b6040516103549190612dc9565b60405180910390f35b61037760048036038101906103729190612b5c565b6116e7565b6040516103849190612dc9565b60405180910390f35b6103a760048036038101906103a291906128d7565b61173d565b005b6103c360048036038101906103be9190612b5c565b611a29565b6040516103d09190612dc9565b60405180910390f35b6103f360048036038101906103ee9190612a23565b611a77565b6040516104009190612de4565b60405180910390f35b610423600480360381019061041e9190612b5c565b611aaa565b6040516104309190612dc9565b60405180910390f35b610453600480360381019061044e9190612a23565b611d89565b6040516104609190612ee2565b60405180910390f35b610483600480360381019061047e9190612b5c565b611f4e565b6040516104909190612fb3565b60405180910390f35b6104b360048036038101906104ae9190612b5c565b611fe5565b005b600660009054906101000a900473ffffffffffffffffffffffffffffffffffffffff1673ffffffffffffffffffffffffffffffffffffffff16639497c6086005336040518363ffffffff1660e01b815260040161051392919061304c565b602060405180830381865afa158015610530573d6000803e3d6000fd5b505050506040513d601f19601f8201168201806040525081019061055491906130a1565b610593576040517f08c379a000000000000000000000000000000000000000000000000000000000815260040161058a9061311a565b60405180910390fd5b7f00000000000000000000000000000000000000000000000000000000000000006105bc6114dd565b116105fc576040517f08c379a00000000000000000000000000000000000000000000000000000000081526004016105f3906131ac565b60405180910390fd5b61060533612068565b610644576040517f08c379a000000000000000000000000000000000000000000000000000000000815260040161063b90613218565b60405180910390fd5b6008600081548092919061065790613267565b9190505550600060085490506040518060c0016040528082815260200161067c6120f7565b81526020013373ffffffffffffffffffffffffffffffffffffffff1681526020018481526020018381526020014381525060036000838152602001908152602001600020600082015181600001556020820151816001015560408201518160020160006101000a81548173ffffffffffffffffffffffffffffffffffffffff021916908373ffffffffffffffffffffffffffffffffffffffff160217905550606082015181600301908161073091906134bb565b50608082015181600401908161074691906134bb565b5060a08201518160050155905050600560003373ffffffffffffffffffffffffffffffffffffffff1673ffffffffffffffffffffffffffffffffffffffff1681526020019081526020016000208190806001815401808255809150506001900390600052602060002001600090919091909150556107c33361218f565b505050565b600160003373ffffffffffffffffffffffffffffffffffffffff1673ffffffffffffffffffffffffffffffffffffffff16815260200190815260200160002060009054906101000a900460ff16610854576040517f08c379a000000000000000000000000000000000000000000000000000000000815260040161084b906135d9565b60405180910390fd5b6000600260008473ffffffffffffffffffffffffffffffffffffffff1673ffffffffffffffffffffffffffffffffffffffff1681526020019081526020016000206040518060e0016040529081600082015481526020016001820160009054906101000a900473ffffffffffffffffffffffffffffffffffffffff1673ffffffffffffffffffffffffffffffffffffffff1673ffffffffffffffffffffffffffffffffffffffff168152602001600282018054610910906132de565b80601f016020809104026020016040519081016040528092919081815260200182805461093c906132de565b80156109895780601f1061095e57610100808354040283529160200191610989565b820191906000526020600020905b81548152906001019060200180831161096c57829003601f168201915b505050505081526020016003820180546109a2906132de565b80601f01602080910402602001604051908101604052809291908181526020018280546109ce906132de565b8015610a1b5780601f106109f057610100808354040283529160200191610a1b565b820191906000526020600020905b8154815290600101906020018083116109fe57829003601f168201915b5050505050815260200160048201604051806040016040529081600082015481526020016001820154815250508152602001600682015481526020016007820154815250509050600760009054906101000a900473ffffffffffffffffffffffffffffffffffffffff1673ffffffffffffffffffffffffffffffffffffffff1663157ffc5284836080015160200151856040518463ffffffff1660e01b8152600401610ac9939291906135f9565b600060405180830381600087803b158015610ae357600080fd5b505af1158015610af7573d6000803e3d6000fd5b50505050505050565b60036020528060005260406000206000915090508060000154908060010154908060020160009054906101000a900473ffffffffffffffffffffffffffffffffffffffff1690806003018054610b55906132de565b80601f0160208091040260200160405190810160405280929190818152602001828054610b81906132de565b8015610bce5780601f10610ba357610100808354040283529160200191610bce565b820191906000526020600020905b815481529060010190602001808311610bb157829003601f168201915b505050505090806004018054610be3906132de565b80601f0160208091040260200160405190810160405280929190818152602001828054610c0f906132de565b8015610c5c5780601f10610c3157610100808354040283529160200191610c5c565b820191906000526020600020905b815481529060010190602001808311610c3f57829003601f168201915b5050505050908060050154905086565b60026020528060005260406000206000915090508060000154908060010160009054906101000a900473ffffffffffffffffffffffffffffffffffffffff1690806002018054610cbb906132de565b80601f0160208091040260200160405190810160405280929190818152602001828054610ce7906132de565b8015610d345780601f10610d0957610100808354040283529160200191610d34565b820191906000526020600020905b815481529060010190602001808311610d1757829003601f168201915b505050505090806003018054610d49906132de565b80601f0160208091040260200160405190810160405280929190818152602001828054610d75906132de565b8015610dc25780601f10610d9757610100808354040283529160200191610dc2565b820191906000526020600020905b815481529060010190602001808311610da557829003601f168201915b5050505050908060040160405180604001604052908160008201548152602001600182015481525050908060060154908060070154905087565b60085481565b600660009054906101000a900473ffffffffffffffffffffffffffffffffffffffff1673ffffffffffffffffffffffffffffffffffffffff16639497c6086005336040518363ffffffff1660e01b8152600401610e6092919061304c565b602060405180830381865afa158015610e7d573d6000803e3d6000fd5b505050506040513d601f19601f82011682018060405250810190610ea191906130a1565b610ee0576040517f08c379a0000000000000000000000000000000000000000000000000000000008152600401610ed79061367c565b60405180910390fd5b6000600260003373ffffffffffffffffffffffffffffffffffffffff1673ffffffffffffffffffffffffffffffffffffffff1681526020019081526020016000206040518060e0016040529081600082015481526020016001820160009054906101000a900473ffffffffffffffffffffffffffffffffffffffff1673ffffffffffffffffffffffffffffffffffffffff1673ffffffffffffffffffffffffffffffffffffffff168152602001600282018054610f9c906132de565b80601f0160208091040260200160405190810160405280929190818152602001828054610fc8906132de565b80156110155780601f10610fea57610100808354040283529160200191611015565b820191906000526020600020905b815481529060010190602001808311610ff857829003601f168201915b5050505050815260200160038201805461102e906132de565b80601f016020809104026020016040519081016040528092919081815260200182805461105a906132de565b80156110a75780601f1061107c576101008083540402835291602001916110a7565b820191906000526020600020905b81548152906001019060200180831161108a57829003601f168201915b505050505081526020016004820160405180604001604052908160008201548152602001600182015481525050815260200160068201548152602001600782015481525050905060008160800151602001519050600760009054906101000a900473ffffffffffffffffffffffffffffffffffffffff1673ffffffffffffffffffffffffffffffffffffffff1663fbe85f06826040518263ffffffff1660e01b81526004016111569190612c45565b602060405180830381865afa158015611173573d6000803e3d6000fd5b505050506040513d601f19601f8201168201806040525081019061119791906130a1565b6111d6576040517f08c379a00000000000000000000000000000000000000000000000000000000081526004016111cd906136e8565b60405180910390fd5b600260003373ffffffffffffffffffffffffffffffffffffffff1673ffffffffffffffffffffffffffffffffffffffff168152602001908152602001600020600401600101600081548092919061122c90613267565b9190505550600760009054906101000a900473ffffffffffffffffffffffffffffffffffffffff1673ffffffffffffffffffffffffffffffffffffffff1663f3fef3a333836040518363ffffffff1660e01b815260040161128e929190613708565b600060405180830381600087803b1580156112a857600080fd5b505af11580156112bc573d6000803e3d6000fd5b505050505050565b6112cc6126be565b600260008373ffffffffffffffffffffffffffffffffffffffff1673ffffffffffffffffffffffffffffffffffffffff1681526020019081526020016000206040518060e0016040529081600082015481526020016001820160009054906101000a900473ffffffffffffffffffffffffffffffffffffffff1673ffffffffffffffffffffffffffffffffffffffff1673ffffffffffffffffffffffffffffffffffffffff168152602001600282018054611386906132de565b80601f01602080910402602001604051908101604052809291908181526020018280546113b2906132de565b80156113ff5780601f106113d4576101008083540402835291602001916113ff565b820191906000526020600020905b8154815290600101906020018083116113e257829003601f168201915b50505050508152602001600382018054611418906132de565b80601f0160208091040260200160405190810160405280929190818152602001828054611444906132de565b80156114915780601f1061146657610100808354040283529160200191611491565b820191906000526020600020905b81548152906001019060200180831161147457829003601f168201915b5050505050815260200160048201604051806040016040529081600082015481526020016001820154815250508152602001600682015481526020016007820154815250509050919050565b6000600760009054906101000a900473ffffffffffffffffffffffffffffffffffffffff1673ffffffffffffffffffffffffffffffffffffffff1663d5ee3eb56115256120f7565b6040518263ffffffff1660e01b81526004016115419190612c45565b602060405180830381865afa15801561155e573d6000803e3d6000fd5b505050506040513d601f19601f820116820180604052508101906115829190613767565b905090565b61158f612548565b61159960006125c6565b565b60016020528060005260406000206000915054906101000a900460ff1681565b60008060009054906101000a900473ffffffffffffffffffffffffffffffffffffffff16905090565b6115ec612548565b60018060008373ffffffffffffffffffffffffffffffffffffffff1673ffffffffffffffffffffffffffffffffffffffff16815260200190815260200160002060006101000a81548160ff02191690831515021790555050565b6005602052816000526040600020818154811061166257600080fd5b90600052602060002001600091509150505481565b7f000000000000000000000000000000000000000000000000000000000000000081565b6000600583116116ae57600190506116e0565b60006116d660016116c8868861268a90919063ffffffff16565b6126a090919063ffffffff16565b9050808310159150505b9392505050565b6000600160008373ffffffffffffffffffffffffffffffffffffffff1673ffffffffffffffffffffffffffffffffffffffff16815260200190815260200160002060009054906101000a900460ff169050919050565b60006001600660009054906101000a900473ffffffffffffffffffffffffffffffffffffffff1673ffffffffffffffffffffffffffffffffffffffff16631eb2c12060056040518263ffffffff1660e01b815260040161179d9190613794565b602060405180830381865afa1580156117ba573d6000803e3d6000fd5b505050506040513d601f19601f820116820180604052508101906117de91906137c4565b6117e891906137f1565b90506040518060e001604052808281526020013373ffffffffffffffffffffffffffffffffffffffff16815260200184815260200183815260200160405180604001604052806000815260200161183d6120f7565b81525081526020014381526020016000815250600260003373ffffffffffffffffffffffffffffffffffffffff1673ffffffffffffffffffffffffffffffffffffffff1681526020019081526020016000206000820151816000015560208201518160010160006101000a81548173ffffffffffffffffffffffffffffffffffffffff021916908373ffffffffffffffffffffffffffffffffffffffff16021790555060408201518160020190816118f591906134bb565b50606082015181600301908161190b91906134bb565b506080820151816004016000820151816000015560208201518160010155505060a0820151816006015560c08201518160070155905050336004600083815260200190815260200160002060006101000a81548173ffffffffffffffffffffffffffffffffffffffff021916908373ffffffffffffffffffffffffffffffffffffffff160217905550600660009054906101000a900473ffffffffffffffffffffffffffffffffffffffff1673ffffffffffffffffffffffffffffffffffffffff16639c3eead93360056040518363ffffffff1660e01b81526004016119f2929190613825565b600060405180830381600087803b158015611a0c57600080fd5b505af1158015611a20573d6000803e3d6000fd5b50505050505050565b600080600260008473ffffffffffffffffffffffffffffffffffffffff1673ffffffffffffffffffffffffffffffffffffffff16815260200190815260200160002060000154119050919050565b60046020528060005260406000206000915054906101000a900473ffffffffffffffffffffffffffffffffffffffff1681565b600080600260008473ffffffffffffffffffffffffffffffffffffffff1673ffffffffffffffffffffffffffffffffffffffff1681526020019081526020016000206040518060e0016040529081600082015481526020016001820160009054906101000a900473ffffffffffffffffffffffffffffffffffffffff1673ffffffffffffffffffffffffffffffffffffffff1673ffffffffffffffffffffffffffffffffffffffff168152602001600282018054611b67906132de565b80601f0160208091040260200160405190810160405280929190818152602001828054611b93906132de565b8015611be05780601f10611bb557610100808354040283529160200191611be0565b820191906000526020600020905b815481529060010190602001808311611bc357829003601f168201915b50505050508152602001600382018054611bf9906132de565b80601f0160208091040260200160405190810160405280929190818152602001828054611c25906132de565b8015611c725780601f10611c4757610100808354040283529160200191611c72565b820191906000526020600020905b815481529060010190602001808311611c5557829003601f168201915b50505050508152602001600482016040518060400160405290816000820154815260200160018201548152505081526020016006820154815260200160078201548152505090506000816000015111611ccf576000915050611d84565b611d80600854600660009054906101000a900473ffffffffffffffffffffffffffffffffffffffff1673ffffffffffffffffffffffffffffffffffffffff16631eb2c12060056040518263ffffffff1660e01b8152600401611d319190613794565b602060405180830381865afa158015611d4e573d6000803e3d6000fd5b505050506040513d601f19601f82011682018060405250810190611d7291906137c4565b83608001516000015161169b565b9150505b919050565b611d91612717565b600360008381526020019081526020016000206040518060c001604052908160008201548152602001600182015481526020016002820160009054906101000a900473ffffffffffffffffffffffffffffffffffffffff1673ffffffffffffffffffffffffffffffffffffffff1673ffffffffffffffffffffffffffffffffffffffff168152602001600382018054611e29906132de565b80601f0160208091040260200160405190810160405280929190818152602001828054611e55906132de565b8015611ea25780601f10611e7757610100808354040283529160200191611ea2565b820191906000526020600020905b815481529060010190602001808311611e8557829003601f168201915b50505050508152602001600482018054611ebb906132de565b80601f0160208091040260200160405190810160405280929190818152602001828054611ee7906132de565b8015611f345780601f10611f0957610100808354040283529160200191611f34565b820191906000526020600020905b815481529060010190602001808311611f1757829003601f168201915b505050505081526020016005820154815250509050919050565b6060600560008373ffffffffffffffffffffffffffffffffffffffff1673ffffffffffffffffffffffffffffffffffffffff168152602001908152602001600020805480602002602001604051908101604052809291908181526020018280548015611fd957602002820191906000526020600020905b815481526020019060010190808311611fc5575b50505050509050919050565b611fed612548565b600073ffffffffffffffffffffffffffffffffffffffff168173ffffffffffffffffffffffffffffffffffffffff160361205c576040517f08c379a0000000000000000000000000000000000000000000000000000000008152600401612053906138c0565b60405180910390fd5b612065816125c6565b50565b600080600260008473ffffffffffffffffffffffffffffffffffffffff1673ffffffffffffffffffffffffffffffffffffffff16815260200190815260200160002060070154905060007f0000000000000000000000000000000000000000000000000000000000000000826120de91906137f1565b4311905080806120ee5750600082145b92505050919050565b6000600760009054906101000a900473ffffffffffffffffffffffffffffffffffffffff1673ffffffffffffffffffffffffffffffffffffffff1663ed0df79e6040518163ffffffff1660e01b8152600401602060405180830381865afa158015612166573d6000803e3d6000fd5b505050506040513d601f19601f8201168201806040525081019061218a91906137c4565b905090565b6000600260008373ffffffffffffffffffffffffffffffffffffffff1673ffffffffffffffffffffffffffffffffffffffff1681526020019081526020016000206040518060e0016040529081600082015481526020016001820160009054906101000a900473ffffffffffffffffffffffffffffffffffffffff1673ffffffffffffffffffffffffffffffffffffffff1673ffffffffffffffffffffffffffffffffffffffff16815260200160028201805461224b906132de565b80601f0160208091040260200160405190810160405280929190818152602001828054612277906132de565b80156122c45780601f10612299576101008083540402835291602001916122c4565b820191906000526020600020905b8154815290600101906020018083116122a757829003601f168201915b505050505081526020016003820180546122dd906132de565b80601f0160208091040260200160405190810160405280929190818152602001828054612309906132de565b80156123565780601f1061232b57610100808354040283529160200191612356565b820191906000526020600020905b81548152906001019060200180831161233957829003601f168201915b5050505050815260200160048201604051806040016040529081600082015481526020016001820154815250508152602001600682015481526020016007820154815250509050438160c0018181525050806080015160000180518091906123bd90613267565b8152505080600260008473ffffffffffffffffffffffffffffffffffffffff1673ffffffffffffffffffffffffffffffffffffffff1681526020019081526020016000206000820151816000015560208201518160010160006101000a81548173ffffffffffffffffffffffffffffffffffffffff021916908373ffffffffffffffffffffffffffffffffffffffff160217905550604082015181600201908161246791906134bb565b50606082015181600301908161247d91906134bb565b506080820151816004016000820151816000015560208201518160010155505060a0820151816006015560c08201518160070155905050600760009054906101000a900473ffffffffffffffffffffffffffffffffffffffff1673ffffffffffffffffffffffffffffffffffffffff166352b8d3ed8360016040518363ffffffff1660e01b815260040161251292919061391b565b600060405180830381600087803b15801561252c57600080fd5b505af1158015612540573d6000803e3d6000fd5b505050505050565b6125506126b6565b73ffffffffffffffffffffffffffffffffffffffff1661256e6115bb565b73ffffffffffffffffffffffffffffffffffffffff16146125c4576040517f08c379a00000000000000000000000000000000000000000000000000000000081526004016125bb90613990565b60405180910390fd5b565b60008060009054906101000a900473ffffffffffffffffffffffffffffffffffffffff169050816000806101000a81548173ffffffffffffffffffffffffffffffffffffffff021916908373ffffffffffffffffffffffffffffffffffffffff1602179055508173ffffffffffffffffffffffffffffffffffffffff168173ffffffffffffffffffffffffffffffffffffffff167f8be0079c531659141344cd1fd0a4f28419497f9722a3daafe3b4186f6b6457e060405160405180910390a35050565b6000818361269891906139df565b905092915050565b600081836126ae91906137f1565b905092915050565b600033905090565b6040518060e0016040528060008152602001600073ffffffffffffffffffffffffffffffffffffffff1681526020016060815260200160608152602001612703612763565b815260200160008152602001600081525090565b6040518060c001604052806000815260200160008152602001600073ffffffffffffffffffffffffffffffffffffffff1681526020016060815260200160608152602001600081525090565b604051806040016040528060008152602001600081525090565b6000604051905090565b600080fd5b600080fd5b600080fd5b600080fd5b6000601f19601f8301169050919050565b7f4e487b7100000000000000000000000000000000000000000000000000000000600052604160045260246000fd5b6127e48261279b565b810181811067ffffffffffffffff82111715612803576128026127ac565b5b80604052505050565b600061281661277d565b905061282282826127db565b919050565b600067ffffffffffffffff821115612842576128416127ac565b5b61284b8261279b565b9050602081019050919050565b82818337600083830152505050565b600061287a61287584612827565b61280c565b90508281526020810184848401111561289657612895612796565b5b6128a1848285612858565b509392505050565b600082601f8301126128be576128bd612791565b5b81356128ce848260208601612867565b91505092915050565b600080604083850312156128ee576128ed612787565b5b600083013567ffffffffffffffff81111561290c5761290b61278c565b5b612918858286016128a9565b925050602083013567ffffffffffffffff8111156129395761293861278c565b5b612945858286016128a9565b9150509250929050565b600073ffffffffffffffffffffffffffffffffffffffff82169050919050565b600061297a8261294f565b9050919050565b61298a8161296f565b811461299557600080fd5b50565b6000813590506129a781612981565b92915050565b6000819050919050565b6129c0816129ad565b81146129cb57600080fd5b50565b6000813590506129dd816129b7565b92915050565b600080604083850312156129fa576129f9612787565b5b6000612a0885828601612998565b9250506020612a19858286016129ce565b9150509250929050565b600060208284031215612a3957612a38612787565b5b6000612a47848285016129ce565b91505092915050565b612a59816129ad565b82525050565b612a688161296f565b82525050565b600081519050919050565b600082825260208201905092915050565b60005b83811015612aa8578082015181840152602081019050612a8d565b60008484015250505050565b6000612abf82612a6e565b612ac98185612a79565b9350612ad9818560208601612a8a565b612ae28161279b565b840191505092915050565b600060c082019050612b026000830189612a50565b612b0f6020830188612a50565b612b1c6040830187612a5f565b8181036060830152612b2e8186612ab4565b90508181036080830152612b428185612ab4565b9050612b5160a0830184612a50565b979650505050505050565b600060208284031215612b7257612b71612787565b5b6000612b8084828501612998565b91505092915050565b612b92816129ad565b82525050565b604082016000820151612bae6000850182612b89565b506020820151612bc16020850182612b89565b50505050565b600061010082019050612bdd600083018a612a50565b612bea6020830189612a5f565b8181036040830152612bfc8188612ab4565b90508181036060830152612c108187612ab4565b9050612c1f6080830186612b98565b612c2c60c0830185612a50565b612c3960e0830184612a50565b98975050505050505050565b6000602082019050612c5a6000830184612a50565b92915050565b612c698161296f565b82525050565b600082825260208201905092915050565b6000612c8b82612a6e565b612c958185612c6f565b9350612ca5818560208601612a8a565b612cae8161279b565b840191505092915050565b604082016000820151612ccf6000850182612b89565b506020820151612ce26020850182612b89565b50505050565b600061010083016000830151612d016000860182612b89565b506020830151612d146020860182612c60565b5060408301518482036040860152612d2c8282612c80565b91505060608301518482036060860152612d468282612c80565b9150506080830151612d5b6080860182612cb9565b5060a0830151612d6e60c0860182612b89565b5060c0830151612d8160e0860182612b89565b508091505092915050565b60006020820190508181036000830152612da68184612ce8565b905092915050565b60008115159050919050565b612dc381612dae565b82525050565b6000602082019050612dde6000830184612dba565b92915050565b6000602082019050612df96000830184612a5f565b92915050565b600080600060608486031215612e1857612e17612787565b5b6000612e26868287016129ce565b9350506020612e37868287016129ce565b9250506040612e48868287016129ce565b9150509250925092565b600060c083016000830151612e6a6000860182612b89565b506020830151612e7d6020860182612b89565b506040830151612e906040860182612c60565b5060608301518482036060860152612ea88282612c80565b91505060808301518482036080860152612ec28282612c80565b91505060a0830151612ed760a0860182612b89565b508091505092915050565b60006020820190508181036000830152612efc8184612e52565b905092915050565b600081519050919050565b600082825260208201905092915050565b6000819050602082019050919050565b6000612f3c8383612b89565b60208301905092915050565b6000602082019050919050565b6000612f6082612f04565b612f6a8185612f0f565b9350612f7583612f20565b8060005b83811015612fa6578151612f8d8882612f30565b9750612f9883612f48565b925050600181019050612f79565b5085935050505092915050565b60006020820190508181036000830152612fcd8184612f55565b905092915050565b7f4e487b7100000000000000000000000000000000000000000000000000000000600052602160045260246000fd5b600a811061301557613014612fd5565b5b50565b600081905061302682613004565b919050565b600061303682613018565b9050919050565b6130468161302b565b82525050565b6000604082019050613061600083018561303d565b61306e6020830184612a5f565b9392505050565b61307e81612dae565b811461308957600080fd5b50565b60008151905061309b81613075565b92915050565b6000602082840312156130b7576130b6612787565b5b60006130c58482850161308c565b91505092915050565b7f4f6e6c7920436f6e7472696275746f7200000000000000000000000000000000600082015250565b6000613104601083612a79565b915061310f826130ce565b602082019050919050565b60006020820190508181036000830152613133816130f7565b9050919050565b7f5761697420756e74696c206e6578742065726120746f2061646420636f6e747260008201527f69627574696f6e00000000000000000000000000000000000000000000000000602082015250565b6000613196602783612a79565b91506131a18261313a565b604082019050919050565b600060208201905081810360008301526131c581613189565b9050919050565b7f43616e2774207075626c69736820796574000000000000000000000000000000600082015250565b6000613202601183612a79565b915061320d826131cc565b602082019050919050565b60006020820190508181036000830152613231816131f5565b9050919050565b7f4e487b7100000000000000000000000000000000000000000000000000000000600052601160045260246000fd5b6000613272826129ad565b91507fffffffffffffffffffffffffffffffffffffffffffffffffffffffffffffffff82036132a4576132a3613238565b5b600182019050919050565b7f4e487b7100000000000000000000000000000000000000000000000000000000600052602260045260246000fd5b600060028204905060018216806132f657607f821691505b602082108103613309576133086132af565b5b50919050565b60008190508160005260206000209050919050565b60006020601f8301049050919050565b600082821b905092915050565b6000600883026133717fffffffffffffffffffffffffffffffffffffffffffffffffffffffffffffffff82613334565b61337b8683613334565b95508019841693508086168417925050509392505050565b6000819050919050565b60006133b86133b36133ae846129ad565b613393565b6129ad565b9050919050565b6000819050919050565b6133d28361339d565b6133e66133de826133bf565b848454613341565b825550505050565b600090565b6133fb6133ee565b6134068184846133c9565b505050565b5b8181101561342a5761341f6000826133f3565b60018101905061340c565b5050565b601f82111561346f576134408161330f565b61344984613324565b81016020851015613458578190505b61346c61346485613324565b83018261340b565b50505b505050565b600082821c905092915050565b600061349260001984600802613474565b1980831691505092915050565b60006134ab8383613481565b9150826002028217905092915050565b6134c482612a6e565b67ffffffffffffffff8111156134dd576134dc6127ac565b5b6134e782546132de565b6134f282828561342e565b600060209050601f8311600181146135255760008415613513578287015190505b61351d858261349f565b865550613585565b601f1984166135338661330f565b60005b8281101561355b57848901518255600182019150602085019450602081019050613536565b868310156135785784890151613574601f891682613481565b8355505b6001600288020188555050505b505050505050565b7f4e6f7420616c6c6f7765642063616c6c65720000000000000000000000000000600082015250565b60006135c3601283612a79565b91506135ce8261358d565b602082019050919050565b600060208201905081810360008301526135f2816135b6565b9050919050565b600060608201905061360e6000830186612a5f565b61361b6020830185612a50565b6136286040830184612a50565b949350505050565b7f506f6f6c206f6e6c7920746f20636f6e7472696275746f720000000000000000600082015250565b6000613666601883612a79565b915061367182613630565b602082019050919050565b6000602082019050818103600083015261369581613659565b9050919050565b7f43616e277420617070726f766520776974686472617700000000000000000000600082015250565b60006136d2601683612a79565b91506136dd8261369c565b602082019050919050565b60006020820190508181036000830152613701816136c5565b9050919050565b600060408201905061371d6000830185612a5f565b61372a6020830184612a50565b9392505050565b6000819050919050565b61374481613731565b811461374f57600080fd5b50565b6000815190506137618161373b565b92915050565b60006020828403121561377d5761377c612787565b5b600061378b84828501613752565b91505092915050565b60006020820190506137a9600083018461303d565b92915050565b6000815190506137be816129b7565b92915050565b6000602082840312156137da576137d9612787565b5b60006137e8848285016137af565b91505092915050565b60006137fc826129ad565b9150613807836129ad565b925082820190508082111561381f5761381e613238565b5b92915050565b600060408201905061383a6000830185612a5f565b613847602083018461303d565b9392505050565b7f4f776e61626c653a206e6577206f776e657220697320746865207a65726f206160008201527f6464726573730000000000000000000000000000000000000000000000000000602082015250565b60006138aa602683612a79565b91506138b58261384e565b604082019050919050565b600060208201905081810360008301526138d98161389d565b9050919050565b6000819050919050565b60006139056139006138fb846138e0565b613393565b6129ad565b9050919050565b613915816138ea565b82525050565b60006040820190506139306000830185612a5f565b61393d602083018461390c565b9392505050565b7f4f776e61626c653a2063616c6c6572206973206e6f7420746865206f776e6572600082015250565b600061397a602083612a79565b915061398582613944565b602082019050919050565b600060208201905081810360008301526139a98161396d565b9050919050565b7f4e487b7100000000000000000000000000000000000000000000000000000000600052601260045260246000fd5b60006139ea826129ad565b91506139f5836129ad565b925082613a0557613a046139b0565b5b82820490509291505056fea2646970667358221220591c3319d781ddadddf434a02be5c78ec1030a58bf8033fc6d3bc22b0e3c6ce264736f6c634300081b0033",
  "linkReferences": {},
  "deployedLinkReferences": {}
}