{
  "_format": "hh-sol-artifact-1",
  "contractName": "DeveloperRules",
  "sourceName": "contracts/DeveloperRules.sol",
  "abi": [
    {
      "inputs": [
        {
          "internalType": "uint32",
          "name": "timeBetweenWorks_",
          "type": "uint32"
        },
        {
          "internalType": "uint8",
          "name": "maxPenalties_",
          "type": "uint8"
        },
        {
          "internalType": "uint32",
          "name": "securityBlocksToValidation_",
          "type": "uint32"
        }
      ],
      "stateMutability": "nonpayable",
      "type": "constructor"
    },
    {
      "inputs": [
        {
          "internalType": "address",
          "name": "owner",
          "type": "address"
        }
      ],
      "name": "OwnableInvalidOwner",
      "type": "error"
    },
    {
      "inputs": [
        {
          "internalType": "address",
          "name": "account",
          "type": "address"
        }
      ],
      "name": "OwnableUnauthorizedAccount",
      "type": "error"
    },
    {
      "inputs": [],
      "name": "ReentrancyGuardReentrantCall",
      "type": "error"
    },
    {
      "anonymous": false,
      "inputs": [
        {
          "indexed": true,
          "internalType": "address",
          "name": "developerAddress",
          "type": "address"
        },
        {
          "indexed": false,
          "internalType": "uint256",
          "name": "newLevel",
          "type": "uint256"
        },
        {
          "indexed": false,
          "internalType": "uint256",
          "name": "blockNumber",
          "type": "uint256"
        }
      ],
      "name": "DeveloperLevelIncreased",
      "type": "event"
    },
    {
      "anonymous": false,
      "inputs": [
        {
          "indexed": true,
          "internalType": "uint256",
          "name": "id",
          "type": "uint256"
        },
        {
          "indexed": true,
          "internalType": "address",
          "name": "developerAddress",
          "type": "address"
        },
        {
          "indexed": false,
          "internalType": "string",
          "name": "name",
          "type": "string"
        },
        {
          "indexed": false,
          "internalType": "uint256",
          "name": "blockNumber",
          "type": "uint256"
        }
      ],
      "name": "DeveloperRegistered",
      "type": "event"
    },
    {
      "anonymous": false,
      "inputs": [
        {
          "indexed": true,
          "internalType": "address",
          "name": "developerAddress",
          "type": "address"
        },
        {
          "indexed": true,
          "internalType": "uint256",
          "name": "era",
          "type": "uint256"
        },
        {
          "indexed": false,
          "internalType": "uint256",
          "name": "blockNumber",
          "type": "uint256"
        }
      ],
      "name": "DeveloperWithdrawalInitiated",
      "type": "event"
    },
    {
      "anonymous": false,
      "inputs": [
        {
          "indexed": true,
          "internalType": "address",
          "name": "previousOwner",
          "type": "address"
        },
        {
          "indexed": true,
          "internalType": "address",
          "name": "newOwner",
          "type": "address"
        }
      ],
      "name": "OwnershipTransferred",
      "type": "event"
    },
    {
      "anonymous": false,
      "inputs": [
        {
          "indexed": true,
          "internalType": "address",
          "name": "developerAddress",
          "type": "address"
        },
        {
          "indexed": true,
          "internalType": "uint256",
          "name": "associatedReportId",
          "type": "uint256"
        },
        {
          "indexed": false,
          "internalType": "uint256",
          "name": "blockNumber",
          "type": "uint256"
        }
      ],
      "name": "PenaltyAdded",
      "type": "event"
    },
    {
      "anonymous": false,
      "inputs": [
        {
          "indexed": true,
          "internalType": "uint256",
          "name": "id",
          "type": "uint256"
        },
        {
          "indexed": true,
          "internalType": "address",
          "name": "developerAddress",
          "type": "address"
        },
        {
          "indexed": false,
          "internalType": "string",
          "name": "description",
          "type": "string"
        },
        {
          "indexed": false,
          "internalType": "uint256",
          "name": "blockNumber",
          "type": "uint256"
        }
      ],
      "name": "ReportAdded",
      "type": "event"
    },
    {
      "anonymous": false,
      "inputs": [
        {
          "indexed": true,
          "internalType": "uint64",
          "name": "reportId",
          "type": "uint64"
        },
        {
          "indexed": true,
          "internalType": "address",
          "name": "developerAddress",
          "type": "address"
        },
        {
          "indexed": false,
          "internalType": "string",
          "name": "justification",
          "type": "string"
        },
        {
          "indexed": false,
          "internalType": "uint256",
          "name": "newPenaltyCount",
          "type": "uint256"
        },
        {
          "indexed": false,
          "internalType": "uint256",
          "name": "blockNumber",
          "type": "uint256"
        }
      ],
      "name": "ReportInvalidated",
      "type": "event"
    },
    {
      "anonymous": false,
      "inputs": [
        {
          "indexed": true,
          "internalType": "address",
          "name": "_validatorAddress",
          "type": "address"
        },
        {
          "indexed": true,
          "internalType": "uint256",
          "name": "_resourceId",
          "type": "uint256"
        },
        {
          "indexed": false,
          "internalType": "string",
          "name": "_justification",
          "type": "string"
        }
      ],
      "name": "ReportValidation",
      "type": "event"
    },
    {
      "inputs": [],
      "name": "INITIAL_USER_COUNT_THRESHOLD",
      "outputs": [
        {
          "internalType": "uint256",
          "name": "",
          "type": "uint256"
        }
      ],
      "stateMutability": "view",
      "type": "function"
    },
    {
      "inputs": [],
      "name": "MAX_USER_COUNT",
      "outputs": [
        {
          "internalType": "uint16",
          "name": "",
          "type": "uint16"
        }
      ],
      "stateMutability": "view",
      "type": "function"
    },
    {
      "inputs": [
        {
          "internalType": "string",
          "name": "name",
          "type": "string"
        },
        {
          "internalType": "string",
          "name": "proofPhoto",
          "type": "string"
        }
      ],
      "name": "addDeveloper",
      "outputs": [],
      "stateMutability": "nonpayable",
      "type": "function"
    },
    {
      "inputs": [
        {
          "internalType": "string",
          "name": "description",
          "type": "string"
        },
        {
          "internalType": "string",
          "name": "report",
          "type": "string"
        }
      ],
      "name": "addReport",
      "outputs": [],
      "stateMutability": "nonpayable",
      "type": "function"
    },
    {
      "inputs": [
        {
          "internalType": "uint64",
          "name": "id",
          "type": "uint64"
        },
        {
          "internalType": "string",
          "name": "justification",
          "type": "string"
        }
      ],
      "name": "addReportValidation",
      "outputs": [],
      "stateMutability": "nonpayable",
      "type": "function"
    },
    {
      "inputs": [
        {
          "internalType": "address",
          "name": "",
          "type": "address"
        }
      ],
      "name": "allowedCallers",
      "outputs": [
        {
          "internalType": "bool",
          "name": "",
          "type": "bool"
        }
      ],
      "stateMutability": "view",
      "type": "function"
    },
    {
      "inputs": [
        {
          "internalType": "uint256",
          "name": "totalLevels",
          "type": "uint256"
        },
        {
          "internalType": "uint256",
          "name": "totalUsers",
          "type": "uint256"
        },
        {
          "internalType": "uint256",
          "name": "userLevels",
          "type": "uint256"
        }
      ],
      "name": "canInvite",
      "outputs": [
        {
          "internalType": "bool",
          "name": "",
          "type": "bool"
        }
      ],
      "stateMutability": "pure",
      "type": "function"
    },
    {
      "inputs": [
        {
          "internalType": "address",
          "name": "addr",
          "type": "address"
        }
      ],
      "name": "canPublishReport",
      "outputs": [
        {
          "internalType": "bool",
          "name": "",
          "type": "bool"
        }
      ],
      "stateMutability": "view",
      "type": "function"
    },
    {
      "inputs": [
        {
          "internalType": "address",
          "name": "addr",
          "type": "address"
        }
      ],
      "name": "canSendInvite",
      "outputs": [
        {
          "internalType": "bool",
          "name": "",
          "type": "bool"
        }
      ],
      "stateMutability": "view",
      "type": "function"
    },
    {
      "inputs": [],
      "name": "communityRules",
      "outputs": [
        {
          "internalType": "contract ICommunityRules",
          "name": "",
          "type": "address"
        }
      ],
      "stateMutability": "view",
      "type": "function"
    },
    {
      "inputs": [],
      "name": "developerPool",
      "outputs": [
        {
          "internalType": "contract IDeveloperPool",
          "name": "",
          "type": "address"
        }
      ],
      "stateMutability": "view",
      "type": "function"
    },
    {
      "inputs": [
        {
          "internalType": "uint256",
          "name": "",
          "type": "uint256"
        }
      ],
      "name": "developersAddress",
      "outputs": [
        {
          "internalType": "address",
          "name": "",
          "type": "address"
        }
      ],
      "stateMutability": "view",
      "type": "function"
    },
    {
      "inputs": [
        {
          "internalType": "address",
          "name": "addr",
          "type": "address"
        }
      ],
      "name": "getDeveloper",
      "outputs": [
        {
          "components": [
            {
              "internalType": "uint64",
              "name": "id",
              "type": "uint64"
            },
            {
              "internalType": "address",
              "name": "developerWallet",
              "type": "address"
            },
            {
              "internalType": "string",
              "name": "name",
              "type": "string"
            },
            {
              "internalType": "string",
              "name": "proofPhoto",
              "type": "string"
            },
            {
              "components": [
                {
                  "internalType": "uint256",
                  "name": "level",
                  "type": "uint256"
                },
                {
                  "internalType": "uint256",
                  "name": "currentEra",
                  "type": "uint256"
                }
              ],
              "internalType": "struct Pool",
              "name": "pool",
              "type": "tuple"
            },
            {
              "internalType": "uint256",
              "name": "totalReports",
              "type": "uint256"
            },
            {
              "internalType": "uint256",
              "name": "createdAt",
              "type": "uint256"
            },
            {
              "internalType": "uint256",
              "name": "lastPublishedAt",
              "type": "uint256"
            }
          ],
          "internalType": "struct Developer",
          "name": "developer",
          "type": "tuple"
        }
      ],
      "stateMutability": "view",
      "type": "function"
    },
    {
      "inputs": [
        {
          "internalType": "uint64",
          "name": "id",
          "type": "uint64"
        }
      ],
      "name": "getReport",
      "outputs": [
        {
          "components": [
            {
              "internalType": "uint64",
              "name": "id",
              "type": "uint64"
            },
            {
              "internalType": "uint256",
              "name": "era",
              "type": "uint256"
            },
            {
              "internalType": "address",
              "name": "developer",
              "type": "address"
            },
            {
              "internalType": "string",
              "name": "description",
              "type": "string"
            },
            {
              "internalType": "string",
              "name": "report",
              "type": "string"
            },
            {
              "internalType": "uint256",
              "name": "validationsCount",
              "type": "uint256"
            },
            {
              "internalType": "bool",
              "name": "valid",
              "type": "bool"
            },
            {
              "internalType": "uint256",
              "name": "invalidatedAt",
              "type": "uint256"
            },
            {
              "internalType": "uint256",
              "name": "createdAtBlockNumber",
              "type": "uint256"
            }
          ],
          "internalType": "struct Report",
          "name": "",
          "type": "tuple"
        }
      ],
      "stateMutability": "view",
      "type": "function"
    },
    {
      "inputs": [
        {
          "internalType": "address",
          "name": "addr",
          "type": "address"
        }
      ],
      "name": "getReportsIds",
      "outputs": [
        {
          "internalType": "uint256[]",
          "name": "",
          "type": "uint256[]"
        }
      ],
      "stateMutability": "view",
      "type": "function"
    },
    {
      "inputs": [
        {
          "internalType": "address",
          "name": "caller",
          "type": "address"
        }
      ],
      "name": "isAllowedCaller",
      "outputs": [
        {
          "internalType": "bool",
          "name": "",
          "type": "bool"
        }
      ],
      "stateMutability": "view",
      "type": "function"
    },
    {
      "inputs": [],
      "name": "maxPenalties",
      "outputs": [
        {
          "internalType": "uint8",
          "name": "",
          "type": "uint8"
        }
      ],
      "stateMutability": "view",
      "type": "function"
    },
    {
      "inputs": [
        {
          "internalType": "address",
          "name": "allowed",
          "type": "address"
        }
      ],
      "name": "newAllowedCaller",
      "outputs": [],
      "stateMutability": "nonpayable",
      "type": "function"
    },
    {
      "inputs": [],
      "name": "nextEraIn",
      "outputs": [
        {
          "internalType": "uint256",
          "name": "",
          "type": "uint256"
        }
      ],
      "stateMutability": "view",
      "type": "function"
    },
    {
      "inputs": [],
      "name": "owner",
      "outputs": [
        {
          "internalType": "address",
          "name": "",
          "type": "address"
        }
      ],
      "stateMutability": "view",
      "type": "function"
    },
    {
      "inputs": [
        {
          "internalType": "address",
          "name": "",
          "type": "address"
        },
        {
          "internalType": "uint256",
          "name": "",
          "type": "uint256"
        }
      ],
      "name": "penalties",
      "outputs": [
        {
          "internalType": "uint64",
          "name": "reportId",
          "type": "uint64"
        }
      ],
      "stateMutability": "view",
      "type": "function"
    },
    {
      "inputs": [],
      "name": "poolCurrentEra",
      "outputs": [
        {
          "internalType": "uint256",
          "name": "",
          "type": "uint256"
        }
      ],
      "stateMutability": "view",
      "type": "function"
    },
    {
      "inputs": [
        {
          "internalType": "address",
          "name": "addr",
          "type": "address"
        }
      ],
      "name": "removePoolLevels",
      "outputs": [],
      "stateMutability": "nonpayable",
      "type": "function"
    },
    {
      "inputs": [],
      "name": "renounceOwnership",
      "outputs": [],
      "stateMutability": "nonpayable",
      "type": "function"
    },
    {
      "inputs": [
        {
          "internalType": "uint64",
          "name": "",
          "type": "uint64"
        }
      ],
      "name": "reportPenalized",
      "outputs": [
        {
          "internalType": "bool",
          "name": "",
          "type": "bool"
        }
      ],
      "stateMutability": "view",
      "type": "function"
    },
    {
      "inputs": [
        {
          "internalType": "uint256",
          "name": "",
          "type": "uint256"
        }
      ],
      "name": "reports",
      "outputs": [
        {
          "internalType": "uint64",
          "name": "id",
          "type": "uint64"
        },
        {
          "internalType": "uint256",
          "name": "era",
          "type": "uint256"
        },
        {
          "internalType": "address",
          "name": "developer",
          "type": "address"
        },
        {
          "internalType": "string",
          "name": "description",
          "type": "string"
        },
        {
          "internalType": "string",
          "name": "report",
          "type": "string"
        },
        {
          "internalType": "uint256",
          "name": "validationsCount",
          "type": "uint256"
        },
        {
          "internalType": "bool",
          "name": "valid",
          "type": "bool"
        },
        {
          "internalType": "uint256",
          "name": "invalidatedAt",
          "type": "uint256"
        },
        {
          "internalType": "uint256",
          "name": "createdAtBlockNumber",
          "type": "uint256"
        }
      ],
      "stateMutability": "view",
      "type": "function"
    },
    {
      "inputs": [],
      "name": "reportsCount",
      "outputs": [
        {
          "internalType": "uint64",
          "name": "",
          "type": "uint64"
        }
      ],
      "stateMutability": "view",
      "type": "function"
    },
    {
      "inputs": [
        {
          "internalType": "address",
          "name": "",
          "type": "address"
        },
        {
          "internalType": "uint256",
          "name": "",
          "type": "uint256"
        }
      ],
      "name": "reportsIds",
      "outputs": [
        {
          "internalType": "uint256",
          "name": "",
          "type": "uint256"
        }
      ],
      "stateMutability": "view",
      "type": "function"
    },
    {
      "inputs": [],
      "name": "reportsTotalCount",
      "outputs": [
        {
          "internalType": "uint64",
          "name": "",
          "type": "uint64"
        }
      ],
      "stateMutability": "view",
      "type": "function"
    },
    {
      "inputs": [],
      "name": "securityBlocksToValidation",
      "outputs": [
        {
          "internalType": "uint32",
          "name": "",
          "type": "uint32"
        }
      ],
      "stateMutability": "view",
      "type": "function"
    },
    {
      "inputs": [
        {
          "internalType": "address",
          "name": "_validationRulesAddress",
          "type": "address"
        }
      ],
      "name": "setContractCall",
      "outputs": [],
      "stateMutability": "nonpayable",
      "type": "function"
    },
    {
      "inputs": [
        {
          "components": [
            {
              "internalType": "address",
              "name": "communityRulesAddress",
              "type": "address"
            },
            {
              "internalType": "address",
              "name": "developerPoolAddress",
              "type": "address"
            },
            {
              "internalType": "address",
              "name": "validationRulesAddress",
              "type": "address"
            },
            {
              "internalType": "address",
              "name": "voteRulesAddress",
              "type": "address"
            }
          ],
          "internalType": "struct ContractsDependency",
          "name": "contractDependency",
          "type": "tuple"
        }
      ],
      "name": "setContractInterfaces",
      "outputs": [],
      "stateMutability": "nonpayable",
      "type": "function"
    },
    {
      "inputs": [],
      "name": "timeBetweenWorks",
      "outputs": [
        {
          "internalType": "uint32",
          "name": "",
          "type": "uint32"
        }
      ],
      "stateMutability": "view",
      "type": "function"
    },
    {
      "inputs": [],
      "name": "totalActiveLevels",
      "outputs": [
        {
          "internalType": "uint256",
          "name": "",
          "type": "uint256"
        }
      ],
      "stateMutability": "view",
      "type": "function"
    },
    {
      "inputs": [
        {
          "internalType": "address",
          "name": "addr",
          "type": "address"
        }
      ],
      "name": "totalPenalties",
      "outputs": [
        {
          "internalType": "uint256",
          "name": "",
          "type": "uint256"
        }
      ],
      "stateMutability": "view",
      "type": "function"
    },
    {
      "inputs": [
        {
          "internalType": "address",
          "name": "newOwner",
          "type": "address"
        }
      ],
      "name": "transferOwnership",
      "outputs": [],
      "stateMutability": "nonpayable",
      "type": "function"
    },
    {
      "inputs": [],
      "name": "validationRules",
      "outputs": [
        {
          "internalType": "contract IValidationRules",
          "name": "",
          "type": "address"
        }
      ],
      "stateMutability": "view",
      "type": "function"
    },
    {
      "inputs": [],
      "name": "validationRulesAddress",
      "outputs": [
        {
          "internalType": "address",
          "name": "",
          "type": "address"
        }
      ],
      "stateMutability": "view",
      "type": "function"
    },
    {
      "inputs": [],
      "name": "voteRules",
      "outputs": [
        {
          "internalType": "contract IVoteRules",
          "name": "",
          "type": "address"
        }
      ],
      "stateMutability": "view",
      "type": "function"
    },
    {
      "inputs": [],
      "name": "withdraw",
      "outputs": [],
      "stateMutability": "nonpayable",
      "type": "function"
    }
  ],
  "bytecode": "0x60e060405234801561001057600080fd5b506040516136a93803806136a983398101604081905261002f916100e9565b338061005557604051631e4fbdf760e01b81526000600482015260240160405180910390fd5b61005e81610080565b50600160025563ffffffff92831660a05260ff9091166080521660c052610134565b600080546001600160a01b038381166001600160a01b0319831681178455604051919092169283917f8be0079c531659141344cd1fd0a4f28419497f9722a3daafe3b4186f6b6457e09190a35050565b805163ffffffff811681146100e457600080fd5b919050565b6000806000606084860312156100fe57600080fd5b610107846100d0565b9250602084015160ff8116811461011d57600080fd5b915061012b604085016100d0565b90509250925092565b60805160a05160c051613531610178600039600081816102a301526118500152600081816103f101526114040152600081816105640152610e2301526135316000f3fe608060405234801561001057600080fd5b50600436106102485760003560e01c80637b3341541161013b578063b432fdca116100b8578063e05cf1551161007c578063e05cf15514610601578063e0d56bde14610609578063f2fde38b1461061c578063f92f0f8e1461062f578063fa64d0f41461064257600080fd5b8063b432fdca14610598578063be9dc584146105ab578063c77c1ce6146105b3578063c942adf7146105c6578063ce59654a146105ee57600080fd5b806394a7444e116100ff57806394a7444e146105045780639e02b7bc1461050d5780639eaf666f14610520578063a680125814610533578063b24eb7691461055f57600080fd5b80637b3341541461048a5780637c647a62146104ad5780638314e008146104c05780638da5cb5b146104e05780638f93716f146104f157600080fd5b8063582256f1116101c9578063715018a61161018d578063715018a61461042f57806374f7c42914610437578063755d4f971461045157806376007252146104645780637a3e00661461047757600080fd5b8063582256f1146103b15780635fa71c28146103b957806367e13ee0146103cc5780636b6c7c2d146103ec5780636ec7053a1461041357600080fd5b80633e0c27f0116102105780633e0c27f01461030d578063460f18ca14610338578063568e51b61461036b57806356c8dc461461037e57806357382d381461039e57600080fd5b8063178c823a1461024d5780632076267b1461026257806335c116771461029e5780633974b345146102da5780633ccfd60b14610305575b600080fd5b61026061025b366004612d08565b61066b565b005b61028b610270366004612d6c565b6001600160a01b031660009081526008602052604090205490565b6040519081526020015b60405180910390f35b6102c57f000000000000000000000000000000000000000000000000000000000000000081565b60405163ffffffff9091168152602001610295565b600f546102ed906001600160a01b031681565b6040516001600160a01b039091168152602001610295565b610260610f73565b600354610320906001600160401b031681565b6040516001600160401b039091168152602001610295565b61035b610346366004612d89565b600a6020526000908152604090205460ff1681565b6040519015158152602001610295565b600c546102ed906001600160a01b031681565b61039161038c366004612d89565b6111cf565b6040516102959190612dec565b61035b6103ac366004612d6c565b6113dd565b61028b611440565b6103206103c7366004612ea7565b6114c0565b6103df6103da366004612d6c565b6114f8565b6040516102959190612ed3565b6102c57f000000000000000000000000000000000000000000000000000000000000000081565b61041c613e8081565b60405161ffff9091168152602001610295565b610260611700565b60035461032090600160401b90046001600160401b031681565b61026061045f366004612d6c565b611712565b600d546102ed906001600160a01b031681565b610260610485366004612f86565b61173c565b61035b610498366004612d6c565b60016020526000908152604090205460ff1681565b6102606104bb366004612fd7565b611ba7565b6104d36104ce366004612d6c565b611c0c565b6040516102959190613040565b6000546001600160a01b03166102ed565b6102606104ff366004612d6c565b611c78565b61028b60045481565b61026061051b366004612f86565b611ca7565b61035b61052e366004613083565b61201e565b61035b610541366004612d6c565b6001600160a01b031660009081526001602052604090205460ff1690565b6105867f000000000000000000000000000000000000000000000000000000000000000081565b60405160ff9091168152602001610295565b61028b6105a6366004612ea7565b612056565b61028b600581565b61035b6105c1366004612d6c565b612087565b6105d96105d43660046130af565b6122d5565b604051610295999897969594939291906130c8565b600b546102ed906001600160a01b031681565b61028b612447565b600e546102ed906001600160a01b031681565b61026061062a366004612d6c565b612491565b61026061063d366004612d6c565b6124cf565b6102ed6106503660046130af565b6009602052600090815260409020546001600160a01b031681565b6106736125e9565b600b5460405163e838dfbb60e01b81523360048201526001600160a01b039091169063e838dfbb90602401602060405180830381865afa1580156106bb573d6000803e3d6000fd5b505050506040513d601f19601f820116820180604052508101906106df919061313c565b1561071f5760405162461bcd60e51b815260206004820152600b60248201526a155cd95c8819195b9a595960aa1b60448201526064015b60405180910390fd5b805161012c10156107635760405162461bcd60e51b815260206004820152600e60248201526d4d6178206368617261637465727360901b6044820152606401610716565b600e546040516356fd539760e11b81523360048201526001600160a01b039091169063adfaa72e90602401602060405180830381865afa1580156107ab573d6000803e3d6000fd5b505050506040513d601f19601f820116820180604052508101906107cf919061313c565b6108095760405162461bcd60e51b815260206004820152600b60248201526a2737ba1030903b37ba32b960a91b6044820152606401610716565b600d54604051630d84466b60e21b81523360048201526001600160a01b039091169063361119ac90602401602060405180830381865afa158015610851573d6000803e3d6000fd5b505050506040513d601f19601f82011682018060405250810190610875919061313c565b6108b95760405162461bcd60e51b8152602060048201526015602482015274576169742074696d654265747765656e566f74657360581b6044820152606401610716565b6001600160401b038216600090815260106020908152604080832033845290915290205460ff161561091d5760405162461bcd60e51b815260206004820152600d60248201526c105b1c9958591e481d9bdd1959609a1b6044820152606401610716565b6001600160401b0382166000908152600a602052604090205460ff16156109865760405162461bcd60e51b815260206004820152601960248201527f50656e616c7469657320616c7265616479206170706c696564000000000000006044820152606401610716565b6001600160401b0380831660008181526010602090815260408083203384528252808320805460ff191660019081179091559383526006825280832081516101208101835281549096168652938401549185019190915260028301546001600160a01b03169084015260038201805491939291606084019190610a089061315e565b80601f0160208091040260200160405190810160405280929190818152602001828054610a349061315e565b8015610a815780601f10610a5657610100808354040283529160200191610a81565b820191906000526020600020905b815481529060010190602001808311610a6457829003601f168201915b50505050508152602001600482018054610a9a9061315e565b80601f0160208091040260200160405190810160405280929190818152602001828054610ac69061315e565b8015610b135780601f10610ae857610100808354040283529160200191610b13565b820191906000526020600020905b815481529060010190602001808311610af657829003601f168201915b505050918352505060058201546020820152600682015460ff16151560408201526007820154606082015260089091015460809091015260c08101519091508015610b6857508060200151610b66612447565b145b610bb45760405162461bcd60e51b815260206004820152601860248201527f54686973207265706f7274206973206e6f742056414c494400000000000000006044820152606401610716565b60018160a001818151610bc791906131ae565b9052506001600160401b038381166000908152600660209081526040918290208451815467ffffffffffffffff1916941693909317835583015160018301558201516002820180546001600160a01b0319166001600160a01b0390921691909117905560608201518291906003820190610c41908261320d565b5060808201516004820190610c56908261320d565b5060a0820151600582015560c082015160068201805460ff191691151591909117905560e0820151600782015561010090910151600890910155600d54604080516369bf81c360e01b815290516000926001600160a01b0316916369bf81c39160048083019260209291908290030181865afa158015610cda573d6000803e3d6000fd5b505050506040513d601f19601f82011682018060405250810190610cfe91906132cb565b905060018111610d635760405162461bcd60e51b815260206004820152602a60248201527f56616c69646174696f6e207468726573686f6c642063616e6e6f74206265206c60448201526932b9b9903a3430b7101960b11b6064820152608401610716565b808260a0015110610e5a576001600160401b0384166000908152600a60205260409020805460ff19166001179055610d9a82612611565b6000610daa8360400151866127d0565b905082604001516001600160a01b0316856001600160401b03167fc8f57d3e72d524f64db8af866e01789df98c0b15a9b17be0e5482a282da0d96286610e0987604001516001600160a01b031660009081526008602052604090205490565b43604051610e19939291906132e4565b60405180910390a37f000000000000000000000000000000000000000000000000000000000000000060ff168110610e5857610e588360400151612889565b505b600d5460405163eb48556b60e01b81523360048201526001600160a01b039091169063eb48556b90602401600060405180830381600087803b158015610e9f57600080fd5b505af1158015610eb3573d6000803e3d6000fd5b5050600d546040516324cc251760e21b81523360048201526001600160a01b039091169250639330945c9150602401600060405180830381600087803b158015610efc57600080fd5b505af1158015610f10573d6000803e3d6000fd5b5050505081600001516001600160401b0316336001600160a01b03167fb19764e85ca109ec31cda3dd13e75f97da9939ba8df810aa2a2aa38d77f19ff885604051610f5b9190613309565b60405180910390a35050610f6f6001600255565b5050565b610f7b6125e9565b600b54604051631292f8c160e31b81526001600160a01b0390911690639497c60890610fad906004903390820161333e565b602060405180830381865afa158015610fca573d6000803e3d6000fd5b505050506040513d601f19601f82011682018060405250810190610fee919061313c565b6110335760405162461bcd60e51b81526020600482015260166024820152752837b7b61037b7363c903a37903232bb32b637b832b960511b6044820152606401610716565b3360009081526005602052604090819020600480820154600c549351637df42f8360e11b815291820181905291926001600160a01b03169063fbe85f0690602401602060405180830381865afa158015611091573d6000803e3d6000fd5b505050506040513d601f19601f820116820180604052508101906110b5919061313c565b61110f5760405162461bcd60e51b815260206004820152602560248201527f4e6f7420656c696769626c6520746f20776974686472617720666f7220746869604482015264732065726160d81b6064820152608401610716565b60048201805490600061112183613364565b9091555050600c5460405163f3fef3a360e01b8152336004820152602481018390526001600160a01b039091169063f3fef3a390604401600060405180830381600087803b15801561117257600080fd5b505af1158015611186573d6000803e3d6000fd5b50506040514381528392503391507f11d89ae7aaa2574610bec036d7e590ae011e55c9029f09f608a225ffac2058619060200160405180910390a350506111cd6001600255565b565b61123260405180610120016040528060006001600160401b031681526020016000815260200160006001600160a01b0316815260200160608152602001606081526020016000815260200160001515815260200160008152602001600081525090565b6001600160401b038083166000908152600660209081526040918290208251610120810184528154909416845260018101549184019190915260028101546001600160a01b0316918301919091526003810180546060840191906112959061315e565b80601f01602080910402602001604051908101604052809291908181526020018280546112c19061315e565b801561130e5780601f106112e35761010080835404028352916020019161130e565b820191906000526020600020905b8154815290600101906020018083116112f157829003601f168201915b505050505081526020016004820180546113279061315e565b80601f01602080910402602001604051908101604052809291908181526020018280546113539061315e565b80156113a05780601f10611375576101008083540402835291602001916113a0565b820191906000526020600020905b81548152906001019060200180831161138357829003601f168201915b505050918352505060058201546020820152600682015460ff16151560408201526007820154606082015260089091015460809091015292915050565b6001600160a01b0381166000908152600560205260408120600701548161142a63ffffffff7f000000000000000000000000000000000000000000000000000000000000000016836131ae565b431190508080611438575081155b949350505050565b600c546000906001600160a01b031663d5ee3eb561145c612447565b6040518263ffffffff1660e01b815260040161147a91815260200190565b602060405180830381865afa158015611497573d6000803e3d6000fd5b505050506040513d601f19601f820116820180604052508101906114bb91906132cb565b905090565b600860205281600052604060002081815481106114dc57600080fd5b6000918252602090912001546001600160401b03169150829050565b61154e604080516101008101825260008082526020808301829052606083850181905280840152835180850190945281845283015290608082019081526020016000815260200160008152602001600081525090565b6001600160a01b0380831660009081526005602090815260409182902082516101008101845281546001600160401b0381168252600160401b90049094169184019190915260018101805491928401916115a79061315e565b80601f01602080910402602001604051908101604052809291908181526020018280546115d39061315e565b80156116205780601f106115f557610100808354040283529160200191611620565b820191906000526020600020905b81548152906001019060200180831161160357829003601f168201915b505050505081526020016002820180546116399061315e565b80601f01602080910402602001604051908101604052809291908181526020018280546116659061315e565b80156116b25780601f10611687576101008083540402835291602001916116b2565b820191906000526020600020905b81548152906001019060200180831161169557829003601f168201915b50505091835250506040805180820182526003840154815260048401546020828101919091528301526005830154908201526006820154606082015260079091015460809091015292915050565b611708612ab5565b6111cd6000612ae2565b61171a612ab5565b600f80546001600160a01b0319166001600160a01b0392909216919091179055565b6117446125e9565b815161012c1080159061175957508051609610155b61179e5760405162461bcd60e51b815260206004820152601660248201527513585e0818da185c9858dd195c9cc81c995858da195960521b6044820152606401610716565b600b54604051631292f8c160e31b81526001600160a01b0390911690639497c608906117d0906004903390820161333e565b602060405180830381865afa1580156117ed573d6000803e3d6000fd5b505050506040513d601f19601f82011682018060405250810190611811919061313c565b61184e5760405162461bcd60e51b815260206004820152600e60248201526d27b7363c902232bb32b637b832b960911b6044820152606401610716565b7f000000000000000000000000000000000000000000000000000000000000000063ffffffff1661187d611440565b116118d45760405162461bcd60e51b815260206004820152602160248201527f5761697420756e74696c206e6578742065726120746f20616464207265706f726044820152601d60fa1b6064820152608401610716565b6118dd336113dd565b61191d5760405162461bcd60e51b815260206004820152601160248201527010d85b89dd081c1d589b1a5cda081e595d607a1b6044820152606401610716565b600380546001600160401b03169060006119368361337d565b91906101000a8154816001600160401b0302191690836001600160401b03160217905550506003600881819054906101000a90046001600160401b0316809291906119809061337d565b91906101000a8154816001600160401b0302191690836001600160401b0316021790555050600460008154809291906119b890613364565b90915550506003543360009081526005602081905260408220018054600160401b9093046001600160401b031692916119f083613364565b9190505550604051806101200160405280826001600160401b03168152602001611a18612447565b81523360208083019190915260408083018790526060808401879052600060808501819052600160a0860181905260c086018290524360e0909601959095526001600160401b03878116825260068552908390208651815467ffffffffffffffff1916921691909117815592850151938301939093558301516002820180546001600160a01b0319166001600160a01b03909216919091179055908201516003820190611ac5908261320d565b5060808201516004820190611ada908261320d565b5060a0820151600582015560c082015160068201805460ff191691151591909117905560e08201516007808301919091556101009092015160089091015533600081815260209283526040812080546001810182559082529290206001600160401b038416920191909155611b4f9082612b32565b336001600160a01b0316816001600160401b03167f90fa8fc57e68c1801adc5593b96145cb8b0dc559414919b07373a84ddfa281bb8543604051611b949291906133a8565b60405180910390a350610f6f6001600255565b611baf612ab5565b8051600b80546001600160a01b03199081166001600160a01b03938416179091556020830151600c805483169184169190911790556040830151600d80548316918416919091179055606090920151600e80549093169116179055565b6001600160a01b038116600090815260076020908152604091829020805483518184028101840190945280845260609392830182828015611c6c57602002820191906000526020600020905b815481526020019060010190808311611c58575b50505050509050919050565b611c80612ab5565b6001600160a01b03166000908152600160208190526040909120805460ff19169091179055565b8151603210801590611cbb57508051609610155b611cf85760405162461bcd60e51b815260206004820152600e60248201526d4d6178206368617261637465727360901b6044820152606401610716565b600b54604051632f22dc7b60e01b8152613e80916001600160a01b031690632f22dc7b90611d2a9060049081016133ca565b602060405180830381865afa158015611d47573d6000803e3d6000fd5b505050506040513d601f19601f82011682018060405250810190611d6b91906132cb565b10611da95760405162461bcd60e51b815260206004820152600e60248201526d13585e081d5cd95c881b1a5b5a5d60921b6044820152606401610716565b600b5460405162f5960960e51b81526000916001600160a01b031690631eb2c12090611dd99060049081016133ca565b602060405180830381865afa158015611df6573d6000803e3d6000fd5b505050506040513d601f19601f82011682018060405250810190611e1a91906133d8565b611e259060016133f5565b9050604051806101000160405280826001600160401b03168152602001336001600160a01b03168152602001848152602001838152602001604051806040016040528060008152602001611e77612447565b9052815260006020808301829052436040808501919091526060909301829052338252600581529082902083518154928501516001600160a01b0316600160401b026001600160e01b03199093166001600160401b0390911617919091178155908201516001820190611eea908261320d565b5060608201516002820190611eff908261320d565b5060808201518051600383015560209081015160048084019190915560a0840151600584015560c0840151600684015560e0909301516007909201919091556001600160401b0383166000908152600990915260409081902080546001600160a01b03191633908117909155600b549151639c3eead960e01b81526001600160a01b039290921692639c3eead992611f9a9291908101613414565b600060405180830381600087803b158015611fb457600080fd5b505af1158015611fc8573d6000803e3d6000fd5b50505050336001600160a01b0316816001600160401b03167fffa85be86549e867f33ff3ad03f00922b2f7113b07f58ca22d923ed22fdebb6e85436040516120119291906133a8565b60405180910390a3505050565b6000826000036120305750600061204f565b600583116120405750600161204f565b8361204b8484613431565b1190505b9392505050565b6007602052816000526040600020818154811061207257600080fd5b90600052602060002001600091509150505481565b6001600160a01b03808216600090815260056020908152604080832081516101008101835281546001600160401b0381168252600160401b90049095169285019290925260018201805493948594909392840191906120e59061315e565b80601f01602080910402602001604051908101604052809291908181526020018280546121119061315e565b801561215e5780601f106121335761010080835404028352916020019161215e565b820191906000526020600020905b81548152906001019060200180831161214157829003601f168201915b505050505081526020016002820180546121779061315e565b80601f01602080910402602001604051908101604052809291908181526020018280546121a39061315e565b80156121f05780601f106121c5576101008083540402835291602001916121f0565b820191906000526020600020905b8154815290600101906020018083116121d357829003601f168201915b50505091835250506040805180820182526003840154815260048401546020828101919091528301526005830154908201526006820154606082015260079091015460809091015280519091506001600160401b03166122535750600092915050565b60048054600b54604051632f22dc7b60e01b815261204f936001600160a01b0390921691632f22dc7b91612289919081016133ca565b602060405180830381865afa1580156122a6573d6000803e3d6000fd5b505050506040513d601f19601f820116820180604052508101906122ca91906132cb565b60808401515161201e565b60066020526000908152604090208054600182015460028301546003840180546001600160401b039094169492936001600160a01b0390921692916123199061315e565b80601f01602080910402602001604051908101604052809291908181526020018280546123459061315e565b80156123925780601f1061236757610100808354040283529160200191612392565b820191906000526020600020905b81548152906001019060200180831161237557829003601f168201915b5050505050908060040180546123a79061315e565b80601f01602080910402602001604051908101604052809291908181526020018280546123d39061315e565b80156124205780601f106123f557610100808354040283529160200191612420565b820191906000526020600020905b81548152906001019060200180831161240357829003601f168201915b505050506005830154600684015460078501546008909501549394919360ff909116925089565b600c5460408051637686fbcf60e11b815290516000926001600160a01b03169163ed0df79e9160048083019260209291908290030181865afa158015611497573d6000803e3d6000fd5b612499612ab5565b6001600160a01b0381166124c357604051631e4fbdf760e01b815260006004820152602401610716565b6124cc81612ae2565b50565b3360009081526001602052604090205460ff166125235760405162461bcd60e51b81526020600482015260126024820152712737ba1030b63637bbb2b21031b0b63632b960711b6044820152606401610716565b600f546001600160a01b031633811461257e5760405162461bcd60e51b815260206004820152601e60248201527f43616c6c6572206d7573742062652073797374656d20636f6e747261637400006044820152606401610716565b600c546040516310c791e560e11b81526001600160a01b038481166004830152600160248301529091169063218f23ca906044015b600060405180830381600087803b1580156125cd57600080fd5b505af11580156125e1573d6000803e3d6000fd5b505050505050565b600280540361260b57604051633ee5aeb560e01b815260040160405180910390fd5b60028055565b600380546001600160401b031690600061262a83613448565b82546101009290920a6001600160401b03818102199093169183160217909155600060c084018190524360e0850152835182168152600660209081526040918290208551815467ffffffffffffffff1916941693909317835584015160018301558301516002820180546001600160a01b0319166001600160a01b03909216919091179055606083015183925060038201906126c6908261320d565b50608082015160048201906126db908261320d565b5060a082015160058281019190915560c083015160068301805460ff191691151591909117905560e08301516007830155610100909201516008909101556040828101516001600160a01b03166000908152602092909252812060030180546001929061274990849061346b565b90915550506004805490600061275e8361347e565b9091555050600c5460408281015190516310c791e560e11b81526001600160a01b0391821660048201526000602482015291169063218f23ca90604401600060405180830381600087803b1580156127b557600080fd5b505af11580156127c9573d6000803e3d6000fd5b5050505050565b6001600160a01b0382166000818152600860209081526040808320815180840183526001600160401b03808816808352835460018101855593875294862091519190920180549190921667ffffffffffffffff1990911617905551919290917fa84878f2a63d2c2c7fb98e2ab5694bdff1c200cbd72d2ec2fb11aab72e2df9519061285e9043815260200190565b60405180910390a36001600160a01b0383166000908152600860205260409020545b90505b92915050565b600b5460405163e838dfbb60e01b81526001600160a01b0383811660048301529091169063e838dfbb90602401602060405180830381865afa1580156128d3573d6000803e3d6000fd5b505050506040513d601f19601f820116820180604052508101906128f7919061313c565b156128ff5750565b6001600160a01b038116600090815260056020526040812060030154600480549192909161292e90849061346b565b9091555050600b54604051634acf78e960e11b81526001600160a01b0383811660048301529091169063959ef1d290602401600060405180830381600087803b15801561297a57600080fd5b505af115801561298e573d6000803e3d6000fd5b5050600b5460405163158bdc5f60e11b81526001600160a01b038581166004830152600094509091169150632b17b8be90602401608060405180830381865afa1580156129df573d6000803e3d6000fd5b505050506040513d601f19601f82011682018060405250810190612a039190613495565b60208101519091506001600160a01b03161561257e57600b546020820151604051636101bf2160e01b81526001600160a01b039182166004820152911690636101bf2190602401600060405180830381600087803b158015612a6457600080fd5b505af1158015612a78573d6000803e3d6000fd5b5050600c546040516310c791e560e11b81526001600160a01b03868116600483015260016024830152909116925063218f23ca91506044016125b3565b6000546001600160a01b031633146111cd5760405163118cdaa760e01b8152336004820152602401610716565b600080546001600160a01b038381166001600160a01b0319831681178455604051919092169283917f8be0079c531659141344cd1fd0a4f28419497f9722a3daafe3b4186f6b6457e09190a35050565b6001600160a01b03821660009081526005602052604081204360078201556003810180549192612b6183613364565b9091555050600c546040516338e8490d60e11b81526001600160a01b038581166004830152600160248301526001600160401b0385166044830152909116906371d0921a90606401600060405180830381600087803b158015612bc357600080fd5b505af1158015612bd7573d6000803e3d6000fd5b505050506003810154604080519182524360208301526001600160a01b038516917f409b9331803c697056d1e0d1cf2188ef4dfa6f8637e3ec609fb230f89d6fa987910160405180910390a2505050565b6001600160401b03811681146124cc57600080fd5b634e487b7160e01b600052604160045260246000fd5b604051608081016001600160401b0381118282101715612c7557612c75612c3d565b60405290565b600082601f830112612c8c57600080fd5b81356001600160401b03811115612ca557612ca5612c3d565b604051601f8201601f19908116603f011681016001600160401b0381118282101715612cd357612cd3612c3d565b604052818152838201602001851015612ceb57600080fd5b816020850160208301376000918101602001919091529392505050565b60008060408385031215612d1b57600080fd5b8235612d2681612c28565b915060208301356001600160401b03811115612d4157600080fd5b612d4d85828601612c7b565b9150509250929050565b6001600160a01b03811681146124cc57600080fd5b600060208284031215612d7e57600080fd5b813561204f81612d57565b600060208284031215612d9b57600080fd5b813561204f81612c28565b6000815180845260005b81811015612dcc57602081850181015186830182015201612db0565b506000602082860101526020601f19601f83011685010191505092915050565b60208152612e066020820183516001600160401b03169052565b6020820151604082015260006040830151612e2c60608401826001600160a01b03169052565b5060608301516101206080840152612e48610140840182612da6565b90506080840151601f198483030160a0850152612e658282612da6565b91505060a084015160c084015260c0840151612e8560e085018215159052565b5060e08401516101008401526101008401516101208401528091505092915050565b60008060408385031215612eba57600080fd5b8235612ec581612d57565b946020939093013593505050565b602081526001600160401b03825116602082015260006020830151612f0360408401826001600160a01b03169052565b5060408301516101206060840152612f1f610140840182612da6565b90506060840151601f19848303016080850152612f3c8282612da6565b9150506080840151612f5b60a085018280518252602090810151910152565b5060a084015160e084015260c084015161010084015260e08401516101208401528091505092915050565b60008060408385031215612f9957600080fd5b82356001600160401b03811115612faf57600080fd5b612fbb85828601612c7b565b92505060208301356001600160401b03811115612d4157600080fd5b60006080828403128015612fea57600080fd5b50612ff3612c53565b8235612ffe81612d57565b8152602083013561300e81612d57565b6020820152604083013561302181612d57565b6040820152606083013561303481612d57565b60608201529392505050565b602080825282518282018190526000918401906040840190835b8181101561307857835183526020938401939092019160010161305a565b509095945050505050565b60008060006060848603121561309857600080fd5b505081359360208301359350604090920135919050565b6000602082840312156130c157600080fd5b5035919050565b6001600160401b038a16815288602082015260018060a01b038816604082015261012060608201526000613100610120830189612da6565b82810360808401526131128189612da6565b60a0840197909752505092151560c084015260e08301919091526101009091015295945050505050565b60006020828403121561314e57600080fd5b8151801515811461204f57600080fd5b600181811c9082168061317257607f821691505b60208210810361319257634e487b7160e01b600052602260045260246000fd5b50919050565b634e487b7160e01b600052601160045260246000fd5b8082018082111561288357612883613198565b601f82111561320857806000526020600020601f840160051c810160208510156131e85750805b601f840160051c820191505b818110156127c957600081556001016131f4565b505050565b81516001600160401b0381111561322657613226612c3d565b61323a81613234845461315e565b846131c1565b6020601f82116001811461326e57600083156132565750848201515b600019600385901b1c1916600184901b1784556127c9565b600084815260208120601f198516915b8281101561329e578785015182556020948501946001909201910161327e565b50848210156132bc5786840151600019600387901b60f8161c191681555b50505050600190811b01905550565b6000602082840312156132dd57600080fd5b5051919050565b6060815260006132f76060830186612da6565b60208301949094525060400152919050565b6020815260006128806020830184612da6565b6008811061333a57634e487b7160e01b600052602160045260246000fd5b9052565b6040810161334c828561331c565b6001600160a01b039290921660209190910152919050565b60006001820161337657613376613198565b5060010190565b60006001600160401b0382166001600160401b03810361339f5761339f613198565b60010192915050565b6040815260006133bb6040830185612da6565b90508260208301529392505050565b60208101612883828461331c565b6000602082840312156133ea57600080fd5b815161204f81612c28565b6001600160401b03818116838216019081111561288357612883613198565b6001600160a01b03831681526040810161204f602083018461331c565b808202811582820484141761288357612883613198565b60006001600160401b0382168061346157613461613198565b6000190192915050565b8181038181111561288357612883613198565b60008161348d5761348d613198565b506000190190565b600060808284031280156134a857600080fd5b506134b1612c53565b82516134bc81612d57565b815260208301516134cc81612d57565b60208201526040830151600881106134e357600080fd5b6040820152606092830151928101929092525091905056fea2646970667358221220b91189582674a86e8296f1477581acbc8c96cde68f6cd9fc3b6443eae9a5852364736f6c634300081b0033",
  "linkReferences": {},
  "deployedLinkReferences": {}
}