{
  "_format": "hh-sol-artifact-1",
  "contractName": "DeveloperRules",
  "sourceName": "contracts/DeveloperRules.sol",
  "abi": [
    {
      "inputs": [
        {
          "internalType": "uint32",
          "name": "timeBetweenWorks_",
          "type": "uint32"
        },
        {
          "internalType": "uint8",
          "name": "maxPenalties_",
          "type": "uint8"
        },
        {
          "internalType": "uint32",
          "name": "securityBlocksToValidation_",
          "type": "uint32"
        }
      ],
      "stateMutability": "nonpayable",
      "type": "constructor"
    },
    {
      "inputs": [
        {
          "internalType": "address",
          "name": "owner",
          "type": "address"
        }
      ],
      "name": "OwnableInvalidOwner",
      "type": "error"
    },
    {
      "inputs": [
        {
          "internalType": "address",
          "name": "account",
          "type": "address"
        }
      ],
      "name": "OwnableUnauthorizedAccount",
      "type": "error"
    },
    {
      "inputs": [],
      "name": "ReentrancyGuardReentrantCall",
      "type": "error"
    },
    {
      "anonymous": false,
      "inputs": [
        {
          "indexed": true,
          "internalType": "address",
          "name": "developerAddress",
          "type": "address"
        },
        {
          "indexed": false,
          "internalType": "uint256",
          "name": "newLevel",
          "type": "uint256"
        },
        {
          "indexed": false,
          "internalType": "uint256",
          "name": "blockNumber",
          "type": "uint256"
        }
      ],
      "name": "DeveloperLevelIncreased",
      "type": "event"
    },
    {
      "anonymous": false,
      "inputs": [
        {
          "indexed": true,
          "internalType": "uint256",
          "name": "id",
          "type": "uint256"
        },
        {
          "indexed": true,
          "internalType": "address",
          "name": "developerAddress",
          "type": "address"
        },
        {
          "indexed": false,
          "internalType": "string",
          "name": "name",
          "type": "string"
        },
        {
          "indexed": false,
          "internalType": "uint256",
          "name": "blockNumber",
          "type": "uint256"
        }
      ],
      "name": "DeveloperRegistered",
      "type": "event"
    },
    {
      "anonymous": false,
      "inputs": [
        {
          "indexed": true,
          "internalType": "address",
          "name": "developerAddress",
          "type": "address"
        },
        {
          "indexed": true,
          "internalType": "uint256",
          "name": "era",
          "type": "uint256"
        },
        {
          "indexed": false,
          "internalType": "uint256",
          "name": "blockNumber",
          "type": "uint256"
        }
      ],
      "name": "DeveloperWithdrawalInitiated",
      "type": "event"
    },
    {
      "anonymous": false,
      "inputs": [
        {
          "indexed": true,
          "internalType": "address",
          "name": "previousOwner",
          "type": "address"
        },
        {
          "indexed": true,
          "internalType": "address",
          "name": "newOwner",
          "type": "address"
        }
      ],
      "name": "OwnershipTransferred",
      "type": "event"
    },
    {
      "anonymous": false,
      "inputs": [
        {
          "indexed": true,
          "internalType": "address",
          "name": "developerAddress",
          "type": "address"
        },
        {
          "indexed": true,
          "internalType": "uint256",
          "name": "associatedReportId",
          "type": "uint256"
        },
        {
          "indexed": false,
          "internalType": "uint256",
          "name": "blockNumber",
          "type": "uint256"
        }
      ],
      "name": "PenaltyAdded",
      "type": "event"
    },
    {
      "anonymous": false,
      "inputs": [
        {
          "indexed": true,
          "internalType": "uint256",
          "name": "id",
          "type": "uint256"
        },
        {
          "indexed": true,
          "internalType": "address",
          "name": "developerAddress",
          "type": "address"
        },
        {
          "indexed": false,
          "internalType": "string",
          "name": "description",
          "type": "string"
        },
        {
          "indexed": false,
          "internalType": "uint256",
          "name": "blockNumber",
          "type": "uint256"
        }
      ],
      "name": "ReportAdded",
      "type": "event"
    },
    {
      "anonymous": false,
      "inputs": [
        {
          "indexed": true,
          "internalType": "uint64",
          "name": "reportId",
          "type": "uint64"
        },
        {
          "indexed": true,
          "internalType": "address",
          "name": "developerAddress",
          "type": "address"
        },
        {
          "indexed": false,
          "internalType": "string",
          "name": "justification",
          "type": "string"
        },
        {
          "indexed": false,
          "internalType": "uint256",
          "name": "newPenaltyCount",
          "type": "uint256"
        },
        {
          "indexed": false,
          "internalType": "uint256",
          "name": "blockNumber",
          "type": "uint256"
        }
      ],
      "name": "ReportInvalidated",
      "type": "event"
    },
    {
      "anonymous": false,
      "inputs": [
        {
          "indexed": true,
          "internalType": "address",
          "name": "_validatorAddress",
          "type": "address"
        },
        {
          "indexed": false,
          "internalType": "uint256",
          "name": "_resourceId",
          "type": "uint256"
        },
        {
          "indexed": false,
          "internalType": "string",
          "name": "_justification",
          "type": "string"
        }
      ],
      "name": "ReportValidation",
      "type": "event"
    },
    {
      "inputs": [],
      "name": "INITIAL_USER_COUNT_THRESHOLD",
      "outputs": [
        {
          "internalType": "uint256",
          "name": "",
          "type": "uint256"
        }
      ],
      "stateMutability": "view",
      "type": "function"
    },
    {
      "inputs": [],
      "name": "MAX_USER_COUNT",
      "outputs": [
        {
          "internalType": "uint16",
          "name": "",
          "type": "uint16"
        }
      ],
      "stateMutability": "view",
      "type": "function"
    },
    {
      "inputs": [
        {
          "internalType": "string",
          "name": "name",
          "type": "string"
        },
        {
          "internalType": "string",
          "name": "proofPhoto",
          "type": "string"
        }
      ],
      "name": "addDeveloper",
      "outputs": [],
      "stateMutability": "nonpayable",
      "type": "function"
    },
    {
      "inputs": [
        {
          "internalType": "string",
          "name": "description",
          "type": "string"
        },
        {
          "internalType": "string",
          "name": "report",
          "type": "string"
        }
      ],
      "name": "addReport",
      "outputs": [],
      "stateMutability": "nonpayable",
      "type": "function"
    },
    {
      "inputs": [
        {
          "internalType": "uint64",
          "name": "id",
          "type": "uint64"
        },
        {
          "internalType": "string",
          "name": "justification",
          "type": "string"
        }
      ],
      "name": "addReportValidation",
      "outputs": [],
      "stateMutability": "nonpayable",
      "type": "function"
    },
    {
      "inputs": [
        {
          "internalType": "address",
          "name": "",
          "type": "address"
        }
      ],
      "name": "allowedCallers",
      "outputs": [
        {
          "internalType": "bool",
          "name": "",
          "type": "bool"
        }
      ],
      "stateMutability": "view",
      "type": "function"
    },
    {
      "inputs": [
        {
          "internalType": "uint256",
          "name": "totalLevels",
          "type": "uint256"
        },
        {
          "internalType": "uint256",
          "name": "totalUsers",
          "type": "uint256"
        },
        {
          "internalType": "uint256",
          "name": "userLevels",
          "type": "uint256"
        }
      ],
      "name": "canInvite",
      "outputs": [
        {
          "internalType": "bool",
          "name": "",
          "type": "bool"
        }
      ],
      "stateMutability": "pure",
      "type": "function"
    },
    {
      "inputs": [
        {
          "internalType": "address",
          "name": "addr",
          "type": "address"
        }
      ],
      "name": "canPublishReport",
      "outputs": [
        {
          "internalType": "bool",
          "name": "",
          "type": "bool"
        }
      ],
      "stateMutability": "view",
      "type": "function"
    },
    {
      "inputs": [
        {
          "internalType": "address",
          "name": "addr",
          "type": "address"
        }
      ],
      "name": "canSendInvite",
      "outputs": [
        {
          "internalType": "bool",
          "name": "",
          "type": "bool"
        }
      ],
      "stateMutability": "view",
      "type": "function"
    },
    {
      "inputs": [
        {
          "internalType": "uint256",
          "name": "",
          "type": "uint256"
        }
      ],
      "name": "developersAddress",
      "outputs": [
        {
          "internalType": "address",
          "name": "",
          "type": "address"
        }
      ],
      "stateMutability": "view",
      "type": "function"
    },
    {
      "inputs": [
        {
          "internalType": "address",
          "name": "addr",
          "type": "address"
        }
      ],
      "name": "getDeveloper",
      "outputs": [
        {
          "components": [
            {
              "internalType": "uint64",
              "name": "id",
              "type": "uint64"
            },
            {
              "internalType": "address",
              "name": "developerWallet",
              "type": "address"
            },
            {
              "internalType": "string",
              "name": "name",
              "type": "string"
            },
            {
              "internalType": "string",
              "name": "proofPhoto",
              "type": "string"
            },
            {
              "components": [
                {
                  "internalType": "uint256",
                  "name": "level",
                  "type": "uint256"
                },
                {
                  "internalType": "uint256",
                  "name": "currentEra",
                  "type": "uint256"
                }
              ],
              "internalType": "struct Pool",
              "name": "pool",
              "type": "tuple"
            },
            {
              "internalType": "uint256",
              "name": "totalReports",
              "type": "uint256"
            },
            {
              "internalType": "uint256",
              "name": "createdAt",
              "type": "uint256"
            },
            {
              "internalType": "uint256",
              "name": "lastPublishedAt",
              "type": "uint256"
            }
          ],
          "internalType": "struct Developer",
          "name": "developer",
          "type": "tuple"
        }
      ],
      "stateMutability": "view",
      "type": "function"
    },
    {
      "inputs": [
        {
          "internalType": "uint64",
          "name": "id",
          "type": "uint64"
        }
      ],
      "name": "getReport",
      "outputs": [
        {
          "components": [
            {
              "internalType": "uint64",
              "name": "id",
              "type": "uint64"
            },
            {
              "internalType": "uint256",
              "name": "era",
              "type": "uint256"
            },
            {
              "internalType": "address",
              "name": "developer",
              "type": "address"
            },
            {
              "internalType": "string",
              "name": "description",
              "type": "string"
            },
            {
              "internalType": "string",
              "name": "report",
              "type": "string"
            },
            {
              "internalType": "uint256",
              "name": "validationsCount",
              "type": "uint256"
            },
            {
              "internalType": "bool",
              "name": "valid",
              "type": "bool"
            },
            {
              "internalType": "uint256",
              "name": "invalidatedAt",
              "type": "uint256"
            },
            {
              "internalType": "uint256",
              "name": "createdAtBlockNumber",
              "type": "uint256"
            }
          ],
          "internalType": "struct Report",
          "name": "",
          "type": "tuple"
        }
      ],
      "stateMutability": "view",
      "type": "function"
    },
    {
      "inputs": [
        {
          "internalType": "address",
          "name": "addr",
          "type": "address"
        }
      ],
      "name": "getReportsIds",
      "outputs": [
        {
          "internalType": "uint256[]",
          "name": "",
          "type": "uint256[]"
        }
      ],
      "stateMutability": "view",
      "type": "function"
    },
    {
      "inputs": [
        {
          "internalType": "address",
          "name": "caller",
          "type": "address"
        }
      ],
      "name": "isAllowedCaller",
      "outputs": [
        {
          "internalType": "bool",
          "name": "",
          "type": "bool"
        }
      ],
      "stateMutability": "view",
      "type": "function"
    },
    {
      "inputs": [],
      "name": "maxPenalties",
      "outputs": [
        {
          "internalType": "uint8",
          "name": "",
          "type": "uint8"
        }
      ],
      "stateMutability": "view",
      "type": "function"
    },
    {
      "inputs": [
        {
          "internalType": "address",
          "name": "allowed",
          "type": "address"
        }
      ],
      "name": "newAllowedCaller",
      "outputs": [],
      "stateMutability": "nonpayable",
      "type": "function"
    },
    {
      "inputs": [],
      "name": "nextEraIn",
      "outputs": [
        {
          "internalType": "uint256",
          "name": "",
          "type": "uint256"
        }
      ],
      "stateMutability": "view",
      "type": "function"
    },
    {
      "inputs": [],
      "name": "owner",
      "outputs": [
        {
          "internalType": "address",
          "name": "",
          "type": "address"
        }
      ],
      "stateMutability": "view",
      "type": "function"
    },
    {
      "inputs": [
        {
          "internalType": "address",
          "name": "",
          "type": "address"
        },
        {
          "internalType": "uint256",
          "name": "",
          "type": "uint256"
        }
      ],
      "name": "penalties",
      "outputs": [
        {
          "internalType": "uint64",
          "name": "reportId",
          "type": "uint64"
        }
      ],
      "stateMutability": "view",
      "type": "function"
    },
    {
      "inputs": [],
      "name": "poolCurrentEra",
      "outputs": [
        {
          "internalType": "uint256",
          "name": "",
          "type": "uint256"
        }
      ],
      "stateMutability": "view",
      "type": "function"
    },
    {
      "inputs": [
        {
          "internalType": "address",
          "name": "addr",
          "type": "address"
        }
      ],
      "name": "removePoolLevels",
      "outputs": [],
      "stateMutability": "nonpayable",
      "type": "function"
    },
    {
      "inputs": [],
      "name": "renounceOwnership",
      "outputs": [],
      "stateMutability": "nonpayable",
      "type": "function"
    },
    {
      "inputs": [
        {
          "internalType": "uint64",
          "name": "",
          "type": "uint64"
        }
      ],
      "name": "reportPenalized",
      "outputs": [
        {
          "internalType": "bool",
          "name": "",
          "type": "bool"
        }
      ],
      "stateMutability": "view",
      "type": "function"
    },
    {
      "inputs": [
        {
          "internalType": "uint256",
          "name": "",
          "type": "uint256"
        }
      ],
      "name": "reports",
      "outputs": [
        {
          "internalType": "uint64",
          "name": "id",
          "type": "uint64"
        },
        {
          "internalType": "uint256",
          "name": "era",
          "type": "uint256"
        },
        {
          "internalType": "address",
          "name": "developer",
          "type": "address"
        },
        {
          "internalType": "string",
          "name": "description",
          "type": "string"
        },
        {
          "internalType": "string",
          "name": "report",
          "type": "string"
        },
        {
          "internalType": "uint256",
          "name": "validationsCount",
          "type": "uint256"
        },
        {
          "internalType": "bool",
          "name": "valid",
          "type": "bool"
        },
        {
          "internalType": "uint256",
          "name": "invalidatedAt",
          "type": "uint256"
        },
        {
          "internalType": "uint256",
          "name": "createdAtBlockNumber",
          "type": "uint256"
        }
      ],
      "stateMutability": "view",
      "type": "function"
    },
    {
      "inputs": [],
      "name": "reportsCount",
      "outputs": [
        {
          "internalType": "uint64",
          "name": "",
          "type": "uint64"
        }
      ],
      "stateMutability": "view",
      "type": "function"
    },
    {
      "inputs": [
        {
          "internalType": "address",
          "name": "",
          "type": "address"
        },
        {
          "internalType": "uint256",
          "name": "",
          "type": "uint256"
        }
      ],
      "name": "reportsIds",
      "outputs": [
        {
          "internalType": "uint256",
          "name": "",
          "type": "uint256"
        }
      ],
      "stateMutability": "view",
      "type": "function"
    },
    {
      "inputs": [],
      "name": "reportsTotalCount",
      "outputs": [
        {
          "internalType": "uint64",
          "name": "",
          "type": "uint64"
        }
      ],
      "stateMutability": "view",
      "type": "function"
    },
    {
      "inputs": [],
      "name": "securityBlocksToValidation",
      "outputs": [
        {
          "internalType": "uint32",
          "name": "",
          "type": "uint32"
        }
      ],
      "stateMutability": "view",
      "type": "function"
    },
    {
      "inputs": [
        {
          "internalType": "address",
          "name": "_validationRulesAddress",
          "type": "address"
        }
      ],
      "name": "setContractCall",
      "outputs": [],
      "stateMutability": "nonpayable",
      "type": "function"
    },
    {
      "inputs": [
        {
          "components": [
            {
              "internalType": "address",
              "name": "communityRulesAddress",
              "type": "address"
            },
            {
              "internalType": "address",
              "name": "developerPoolAddress",
              "type": "address"
            },
            {
              "internalType": "address",
              "name": "validationRulesAddress",
              "type": "address"
            },
            {
              "internalType": "address",
              "name": "voteRulesAddress",
              "type": "address"
            }
          ],
          "internalType": "struct ContractsDependency",
          "name": "contractDependency",
          "type": "tuple"
        }
      ],
      "name": "setContractInterfaces",
      "outputs": [],
      "stateMutability": "nonpayable",
      "type": "function"
    },
    {
      "inputs": [],
      "name": "timeBetweenWorks",
      "outputs": [
        {
          "internalType": "uint32",
          "name": "",
          "type": "uint32"
        }
      ],
      "stateMutability": "view",
      "type": "function"
    },
    {
      "inputs": [
        {
          "internalType": "address",
          "name": "addr",
          "type": "address"
        }
      ],
      "name": "totalPenalties",
      "outputs": [
        {
          "internalType": "uint256",
          "name": "",
          "type": "uint256"
        }
      ],
      "stateMutability": "view",
      "type": "function"
    },
    {
      "inputs": [
        {
          "internalType": "address",
          "name": "newOwner",
          "type": "address"
        }
      ],
      "name": "transferOwnership",
      "outputs": [],
      "stateMutability": "nonpayable",
      "type": "function"
    },
    {
      "inputs": [],
      "name": "withdraw",
      "outputs": [],
      "stateMutability": "nonpayable",
      "type": "function"
    }
  ],
  "bytecode": "0x60e060405234801561001057600080fd5b5060405161353238038061353283398101604081905261002f916100e9565b338061005557604051631e4fbdf760e01b81526000600482015260240160405180910390fd5b61005e81610080565b50600160025563ffffffff92831660a05260ff9091166080521660c052610134565b600080546001600160a01b038381166001600160a01b0319831681178455604051919092169283917f8be0079c531659141344cd1fd0a4f28419497f9722a3daafe3b4186f6b6457e09190a35050565b805163ffffffff811681146100e457600080fd5b919050565b6000806000606084860312156100fe57600080fd5b610107846100d0565b9250602084015160ff8116811461011d57600080fd5b915061012b604085016100d0565b90509250925092565b60805160a05160c0516133ba61017860003960008181610261015261173701526000818161037101526112eb0152600081816104dc0152610d7501526133ba6000f3fe608060405234801561001057600080fd5b50600436106102065760003560e01c80637b3341541161011a578063b24eb769116100ad578063c942adf71161007c578063c942adf71461053e578063e05cf15514610566578063f2fde38b1461056e578063f92f0f8e14610581578063fa64d0f41461059457600080fd5b8063b24eb769146104d7578063b432fdca14610510578063be9dc58414610523578063c77c1ce61461052b57600080fd5b80638f93716f116100e95780638f93716f146104725780639e02b7bc146104855780639eaf666f14610498578063a6801258146104ab57600080fd5b80637b334154146103f75780637c647a621461041a5780638314e0081461042d5780638da5cb5b1461044d57600080fd5b8063582256f11161019d5780636ec7053a1161016c5780636ec7053a14610393578063715018a6146103af57806374f7c429146103b7578063755d4f97146103d15780637a3e0066146103e457600080fd5b8063582256f1146103315780635fa71c281461033957806367e13ee01461034c5780636b6c7c2d1461036c57600080fd5b80633e0c27f0116101d95780633e0c27f0146102a0578063460f18ca146102cb57806356c8dc46146102fe57806357382d381461031e57600080fd5b8063178c823a1461020b5780632076267b1461022057806335c116771461025c5780633ccfd60b14610298575b600080fd5b61021e610219366004612b99565b6105bd565b005b61024961022e366004612bfd565b6001600160a01b031660009081526007602052604090205490565b6040519081526020015b60405180910390f35b6102837f000000000000000000000000000000000000000000000000000000000000000081565b60405163ffffffff9091168152602001610253565b61021e610e56565b6003546102b3906001600160401b031681565b6040516001600160401b039091168152602001610253565b6102ee6102d9366004612c1a565b60096020526000908152604090205460ff1681565b6040519015158152602001610253565b61031161030c366004612c1a565b6110b6565b6040516102539190612c7d565b6102ee61032c366004612bfd565b6112c4565b610249611327565b6102b3610347366004612d38565b6113a7565b61035f61035a366004612bfd565b6113df565b6040516102539190612d64565b6102837f000000000000000000000000000000000000000000000000000000000000000081565b61039c613e8081565b60405161ffff9091168152602001610253565b61021e6115e7565b6003546102b390600160401b90046001600160401b031681565b61021e6103df366004612bfd565b6115f9565b61021e6103f2366004612e17565b611623565b6102ee610405366004612bfd565b60016020526000908152604090205460ff1681565b61021e610428366004612e68565b611a6c565b61044061043b366004612bfd565b611ad1565b6040516102539190612ed1565b6000546001600160a01b03165b6040516001600160a01b039091168152602001610253565b61021e610480366004612bfd565b611b3d565b61021e610493366004612e17565b611b6c565b6102ee6104a6366004612f14565b611ee3565b6102ee6104b9366004612bfd565b6001600160a01b031660009081526001602052604090205460ff1690565b6104fe7f000000000000000000000000000000000000000000000000000000000000000081565b60405160ff9091168152602001610253565b61024961051e366004612d38565b611f1b565b610249600581565b6102ee610539366004612bfd565b611f4c565b61055161054c366004612f40565b6121b5565b60405161025399989796959493929190612f59565b610249612327565b61021e61057c366004612bfd565b612371565b61021e61058f366004612bfd565b6123af565b61045a6105a2366004612f40565b6008602052600090815260409020546001600160a01b031681565b6105c56124c9565b600a5460405163e838dfbb60e01b81523360048201526001600160a01b039091169063e838dfbb90602401602060405180830381865afa15801561060d573d6000803e3d6000fd5b505050506040513d601f19601f820116820180604052508101906106319190612fcd565b156106715760405162461bcd60e51b815260206004820152600b60248201526a155cd95c8819195b9a595960aa1b60448201526064015b60405180910390fd5b805161012c10156106b55760405162461bcd60e51b815260206004820152600e60248201526d4d6178206368617261637465727360901b6044820152606401610668565b600d546040516356fd539760e11b81523360048201526001600160a01b039091169063adfaa72e90602401602060405180830381865afa1580156106fd573d6000803e3d6000fd5b505050506040513d601f19601f820116820180604052508101906107219190612fcd565b61075b5760405162461bcd60e51b815260206004820152600b60248201526a2737ba1030903b37ba32b960a91b6044820152606401610668565b600c54604051630d84466b60e21b81523360048201526001600160a01b039091169063361119ac90602401602060405180830381865afa1580156107a3573d6000803e3d6000fd5b505050506040513d601f19601f820116820180604052508101906107c79190612fcd565b61080b5760405162461bcd60e51b8152602060048201526015602482015274576169742074696d654265747765656e566f74657360581b6044820152606401610668565b6001600160401b0382166000908152600f6020908152604080832033845290915290205460ff161561086f5760405162461bcd60e51b815260206004820152600d60248201526c105b1c9958591e481d9bdd1959609a1b6044820152606401610668565b6001600160401b03821660009081526009602052604090205460ff16156108d85760405162461bcd60e51b815260206004820152601960248201527f50656e616c7469657320616c7265616479206170706c696564000000000000006044820152606401610668565b6001600160401b038083166000818152600f602090815260408083203384528252808320805460ff191660019081179091559383526005825280832081516101208101835281549096168652938401549185019190915260028301546001600160a01b0316908401526003820180549193929160608401919061095a90612fef565b80601f016020809104026020016040519081016040528092919081815260200182805461098690612fef565b80156109d35780601f106109a8576101008083540402835291602001916109d3565b820191906000526020600020905b8154815290600101906020018083116109b657829003601f168201915b505050505081526020016004820180546109ec90612fef565b80601f0160208091040260200160405190810160405280929190818152602001828054610a1890612fef565b8015610a655780601f10610a3a57610100808354040283529160200191610a65565b820191906000526020600020905b815481529060010190602001808311610a4857829003601f168201915b505050918352505060058201546020820152600682015460ff16151560408201526007820154606082015260089091015460809091015260c08101519091508015610aba57508060200151610ab8612327565b145b610b065760405162461bcd60e51b815260206004820152601860248201527f54686973207265706f7274206973206e6f742056414c494400000000000000006044820152606401610668565b60018160a001818151610b19919061303f565b9052506001600160401b038381166000908152600560209081526040918290208451815467ffffffffffffffff1916941693909317835583015160018301558201516002820180546001600160a01b0319166001600160a01b0390921691909117905560608201518291906003820190610b93908261309e565b5060808201516004820190610ba8908261309e565b5060a0820151600582015560c082015160068201805460ff191691151591909117905560e0820151600782015561010090910151600890910155600c54604080516369bf81c360e01b815290516000926001600160a01b0316916369bf81c39160048083019260209291908290030181865afa158015610c2c573d6000803e3d6000fd5b505050506040513d601f19601f82011682018060405250810190610c50919061315c565b905060018111610cb55760405162461bcd60e51b815260206004820152602a60248201527f56616c69646174696f6e207468726573686f6c642063616e6e6f74206265206c60448201526932b9b9903a3430b7101960b11b6064820152608401610668565b808260a0015110610dac576001600160401b0384166000908152600960205260409020805460ff19166001179055610cec826124f1565b6000610cfc836040015186612697565b905082604001516001600160a01b0316856001600160401b03167fc8f57d3e72d524f64db8af866e01789df98c0b15a9b17be0e5482a282da0d96286610d5b87604001516001600160a01b031660009081526007602052604090205490565b43604051610d6b93929190613175565b60405180910390a37f000000000000000000000000000000000000000000000000000000000000000060ff168110610daa57610daa836040015161274e565b505b600c5460405163eb48556b60e01b81523360048201526001600160a01b039091169063eb48556b90602401600060405180830381600087803b158015610df157600080fd5b505af1158015610e05573d6000803e3d6000fd5b505083516040513393507fb19764e85ca109ec31cda3dd13e75f97da9939ba8df810aa2a2aa38d77f19ff89250610e3e9190879061319a565b60405180910390a25050610e526001600255565b5050565b610e5e6124c9565b600a54604051631292f8c160e31b81526001600160a01b0390911690639497c60890610e9090600490339082016131de565b602060405180830381865afa158015610ead573d6000803e3d6000fd5b505050506040513d601f19601f82011682018060405250810190610ed19190612fcd565b610f165760405162461bcd60e51b81526020600482015260166024820152752837b7b61037b7363c903a37903232bb32b637b832b960511b6044820152606401610668565b3360009081526004602081905260409182902080820154600b549351637df42f8360e11b8152928301819052909290916001600160a01b039091169063fbe85f0690602401602060405180830381865afa158015610f78573d6000803e3d6000fd5b505050506040513d601f19601f82011682018060405250810190610f9c9190612fcd565b610ff65760405162461bcd60e51b815260206004820152602560248201527f4e6f7420656c696769626c6520746f20776974686472617720666f7220746869604482015264732065726160d81b6064820152608401610668565b60048201805490600061100883613204565b9091555050600b5460405163f3fef3a360e01b8152336004820152602481018390526001600160a01b039091169063f3fef3a390604401600060405180830381600087803b15801561105957600080fd5b505af115801561106d573d6000803e3d6000fd5b50506040514381528392503391507f11d89ae7aaa2574610bec036d7e590ae011e55c9029f09f608a225ffac2058619060200160405180910390a350506110b46001600255565b565b61111960405180610120016040528060006001600160401b031681526020016000815260200160006001600160a01b0316815260200160608152602001606081526020016000815260200160001515815260200160008152602001600081525090565b6001600160401b038083166000908152600560209081526040918290208251610120810184528154909416845260018101549184019190915260028101546001600160a01b03169183019190915260038101805460608401919061117c90612fef565b80601f01602080910402602001604051908101604052809291908181526020018280546111a890612fef565b80156111f55780601f106111ca576101008083540402835291602001916111f5565b820191906000526020600020905b8154815290600101906020018083116111d857829003601f168201915b5050505050815260200160048201805461120e90612fef565b80601f016020809104026020016040519081016040528092919081815260200182805461123a90612fef565b80156112875780601f1061125c57610100808354040283529160200191611287565b820191906000526020600020905b81548152906001019060200180831161126a57829003601f168201915b505050918352505060058201546020820152600682015460ff16151560408201526007820154606082015260089091015460809091015292915050565b6001600160a01b0381166000908152600460205260408120600701548161131163ffffffff7f0000000000000000000000000000000000000000000000000000000000000000168361303f565b43119050808061131f575081155b949350505050565b600b546000906001600160a01b031663d5ee3eb5611343612327565b6040518263ffffffff1660e01b815260040161136191815260200190565b602060405180830381865afa15801561137e573d6000803e3d6000fd5b505050506040513d601f19601f820116820180604052508101906113a2919061315c565b905090565b600760205281600052604060002081815481106113c357600080fd5b6000918252602090912001546001600160401b03169150829050565b611435604080516101008101825260008082526020808301829052606083850181905280840152835180850190945281845283015290608082019081526020016000815260200160008152602001600081525090565b6001600160a01b0380831660009081526004602090815260409182902082516101008101845281546001600160401b0381168252600160401b900490941691840191909152600181018054919284019161148e90612fef565b80601f01602080910402602001604051908101604052809291908181526020018280546114ba90612fef565b80156115075780601f106114dc57610100808354040283529160200191611507565b820191906000526020600020905b8154815290600101906020018083116114ea57829003601f168201915b5050505050815260200160028201805461152090612fef565b80601f016020809104026020016040519081016040528092919081815260200182805461154c90612fef565b80156115995780601f1061156e57610100808354040283529160200191611599565b820191906000526020600020905b81548152906001019060200180831161157c57829003601f168201915b50505091835250506040805180820182526003840154815260048401546020828101919091528301526005830154908201526006820154606082015260079091015460809091015292915050565b6115ef612946565b6110b46000612973565b611601612946565b600e80546001600160a01b0319166001600160a01b0392909216919091179055565b61162b6124c9565b815161012c1080159061164057508051609610155b6116855760405162461bcd60e51b815260206004820152601660248201527513585e0818da185c9858dd195c9cc81c995858da195960521b6044820152606401610668565b600a54604051631292f8c160e31b81526001600160a01b0390911690639497c608906116b790600490339082016131de565b602060405180830381865afa1580156116d4573d6000803e3d6000fd5b505050506040513d601f19601f820116820180604052508101906116f89190612fcd565b6117355760405162461bcd60e51b815260206004820152600e60248201526d27b7363c902232bb32b637b832b960911b6044820152606401610668565b7f000000000000000000000000000000000000000000000000000000000000000063ffffffff16611764611327565b116117bb5760405162461bcd60e51b815260206004820152602160248201527f5761697420756e74696c206e6578742065726120746f20616464207265706f726044820152601d60fa1b6064820152608401610668565b6117c4336112c4565b6118045760405162461bcd60e51b815260206004820152601160248201527010d85b89dd081c1d589b1a5cda081e595d607a1b6044820152606401610668565b600380546001600160401b031690600061181d8361321d565b91906101000a8154816001600160401b0302191690836001600160401b03160217905550506003600881819054906101000a90046001600160401b0316809291906118679061321d565b82546101009290920a6001600160401b038181021990931691831602179091556003543360009081526004602052604081206005018054600160401b90930490931693509091906118b783613204565b9190505550604051806101200160405280826001600160401b031681526020016118df612327565b81523360208083019190915260408083018790526060808401879052600060808501819052600160a0860181905260c086018290524360e0909601959095526001600160401b03878116825260058552908390208651815467ffffffffffffffff1916921691909117815592850151938301939093558301516002820180546001600160a01b0319166001600160a01b0390921691909117905590820151600382019061198c908261309e565b50608082015160048201906119a1908261309e565b5060a0820151600582015560c08201516006808301805460ff19169215159290921790915560e083015160078301556101009092015160089091015533600081815260209283526040812080546001810182559082529290206001600160401b038416920191909155611a1490826129c3565b336001600160a01b0316816001600160401b03167f90fa8fc57e68c1801adc5593b96145cb8b0dc559414919b07373a84ddfa281bb8543604051611a59929190613248565b60405180910390a350610e526001600255565b611a74612946565b8051600a80546001600160a01b03199081166001600160a01b03938416179091556020830151600b805483169184169190911790556040830151600c80548316918416919091179055606090920151600d80549093169116179055565b6001600160a01b038116600090815260066020908152604091829020805483518184028101840190945280845260609392830182828015611b3157602002820191906000526020600020905b815481526020019060010190808311611b1d575b50505050509050919050565b611b45612946565b6001600160a01b03166000908152600160208190526040909120805460ff19169091179055565b8151603210801590611b8057508051609610155b611bbd5760405162461bcd60e51b815260206004820152600e60248201526d4d6178206368617261637465727360901b6044820152606401610668565b600a54604051632f22dc7b60e01b8152613e80916001600160a01b031690632f22dc7b90611bef90600490810161326a565b602060405180830381865afa158015611c0c573d6000803e3d6000fd5b505050506040513d601f19601f82011682018060405250810190611c30919061315c565b10611c6e5760405162461bcd60e51b815260206004820152600e60248201526d13585e081d5cd95c881b1a5b5a5d60921b6044820152606401610668565b600a5460405162f5960960e51b81526000916001600160a01b031690631eb2c12090611c9e90600490810161326a565b602060405180830381865afa158015611cbb573d6000803e3d6000fd5b505050506040513d601f19601f82011682018060405250810190611cdf9190613278565b611cea906001613295565b9050604051806101000160405280826001600160401b03168152602001336001600160a01b03168152602001848152602001838152602001604051806040016040528060008152602001611d3c612327565b9052815260006020808301829052436040808501919091526060909301829052338252600481529082902083518154928501516001600160a01b0316600160401b026001600160e01b03199093166001600160401b0390911617919091178155908201516001820190611daf908261309e565b5060608201516002820190611dc4908261309e565b5060808201518051600383015560209081015160048084019190915560a0840151600584015560c0840151600684015560e0909301516007909201919091556001600160401b0383166000908152600890915260409081902080546001600160a01b03191633908117909155600a549151639c3eead960e01b81526001600160a01b039290921692639c3eead992611e5f92919081016132b4565b600060405180830381600087803b158015611e7957600080fd5b505af1158015611e8d573d6000803e3d6000fd5b50505050336001600160a01b0316816001600160401b03167fffa85be86549e867f33ff3ad03f00922b2f7113b07f58ca22d923ed22fdebb6e8543604051611ed6929190613248565b60405180910390a3505050565b600060058311611ef557506001611f14565b82600003611f0557506000611f14565b83611f1084846132d1565b1190505b9392505050565b60066020528160005260406000208181548110611f3757600080fd5b90600052602060002001600091509150505481565b6001600160a01b03808216600090815260046020908152604080832081516101008101835281546001600160401b0381168252600160401b9004909516928501929092526001820180549394859490939284019190611faa90612fef565b80601f0160208091040260200160405190810160405280929190818152602001828054611fd690612fef565b80156120235780601f10611ff857610100808354040283529160200191612023565b820191906000526020600020905b81548152906001019060200180831161200657829003601f168201915b5050505050815260200160028201805461203c90612fef565b80601f016020809104026020016040519081016040528092919081815260200182805461206890612fef565b80156120b55780601f1061208a576101008083540402835291602001916120b5565b820191906000526020600020905b81548152906001019060200180831161209857829003601f168201915b50505091835250506040805180820182526003840154815260048401546020828101919091528301526005830154908201526006820154606082015260079091015460809091015280519091506001600160401b03166121185750600092915050565b600354600a5460405162f5960960e51b8152611f1492600160401b90046001600160401b0316916001600160a01b031690631eb2c1209061215d90600490810161326a565b602060405180830381865afa15801561217a573d6000803e3d6000fd5b505050506040513d601f19601f8201168201806040525081019061219e9190613278565b6001600160401b0316836080015160000151611ee3565b60056020526000908152604090208054600182015460028301546003840180546001600160401b039094169492936001600160a01b0390921692916121f990612fef565b80601f016020809104026020016040519081016040528092919081815260200182805461222590612fef565b80156122725780601f1061224757610100808354040283529160200191612272565b820191906000526020600020905b81548152906001019060200180831161225557829003601f168201915b50505050509080600401805461228790612fef565b80601f01602080910402602001604051908101604052809291908181526020018280546122b390612fef565b80156123005780601f106122d557610100808354040283529160200191612300565b820191906000526020600020905b8154815290600101906020018083116122e357829003601f168201915b505050506005830154600684015460078501546008909501549394919360ff909116925089565b600b5460408051637686fbcf60e11b815290516000926001600160a01b03169163ed0df79e9160048083019260209291908290030181865afa15801561137e573d6000803e3d6000fd5b612379612946565b6001600160a01b0381166123a357604051631e4fbdf760e01b815260006004820152602401610668565b6123ac81612973565b50565b3360009081526001602052604090205460ff166124035760405162461bcd60e51b81526020600482015260126024820152712737ba1030b63637bbb2b21031b0b63632b960711b6044820152606401610668565b600e546001600160a01b031633811461245e5760405162461bcd60e51b815260206004820152601e60248201527f43616c6c6572206d7573742062652073797374656d20636f6e747261637400006044820152606401610668565b600b546040516310c791e560e11b81526001600160a01b038481166004830152600160248301529091169063218f23ca906044015b600060405180830381600087803b1580156124ad57600080fd5b505af11580156124c1573d6000803e3d6000fd5b505050505050565b60028054036124eb57604051633ee5aeb560e01b815260040160405180910390fd5b60028055565b600380546001600160401b031690600061250a836132e8565b82546101009290920a6001600160401b03818102199093169183160217909155600060c084018190524360e0850152835182168152600560209081526040918290208551815467ffffffffffffffff1916941693909317835584015160018301558301516002820180546001600160a01b0319166001600160a01b03909216919091179055606083015183925060038201906125a6908261309e565b50608082015160048201906125bb908261309e565b5060a0820151600582015560c082015160068201805460ff191691151591909117905560e08201516007820155610100909101516008909101556040818101516001600160a01b03166000908152600460205290812060030180546001929061262590849061330b565b9091555050600b5460408281015190516310c791e560e11b81526001600160a01b0391821660048201526000602482015291169063218f23ca90604401600060405180830381600087803b15801561267c57600080fd5b505af1158015612690573d6000803e3d6000fd5b5050505050565b6001600160a01b0382166000818152600760209081526040808320815180840183526001600160401b03808816808352835460018101855593875294862091519190920180549190921667ffffffffffffffff1990911617905551919290917fa84878f2a63d2c2c7fb98e2ab5694bdff1c200cbd72d2ec2fb11aab72e2df951906127259043815260200190565b60405180910390a3506001600160a01b0382166000908152600760205260409020545b92915050565b600a5460405163e838dfbb60e01b81526001600160a01b0383811660048301529091169063e838dfbb90602401602060405180830381865afa158015612798573d6000803e3d6000fd5b505050506040513d601f19601f820116820180604052508101906127bc9190612fcd565b156127c45750565b600a54604051634acf78e960e11b81526001600160a01b0383811660048301529091169063959ef1d290602401600060405180830381600087803b15801561280b57600080fd5b505af115801561281f573d6000803e3d6000fd5b5050600a5460405163158bdc5f60e11b81526001600160a01b038581166004830152600094509091169150632b17b8be90602401608060405180830381865afa158015612870573d6000803e3d6000fd5b505050506040513d601f19601f82011682018060405250810190612894919061331e565b60208101519091506001600160a01b03161561245e57600a546020820151604051636101bf2160e01b81526001600160a01b039182166004820152911690636101bf2190602401600060405180830381600087803b1580156128f557600080fd5b505af1158015612909573d6000803e3d6000fd5b5050600b546040516310c791e560e11b81526001600160a01b03868116600483015260016024830152909116925063218f23ca9150604401612493565b6000546001600160a01b031633146110b45760405163118cdaa760e01b8152336004820152602401610668565b600080546001600160a01b038381166001600160a01b0319831681178455604051919092169283917f8be0079c531659141344cd1fd0a4f28419497f9722a3daafe3b4186f6b6457e09190a35050565b6001600160a01b038216600090815260046020526040812043600782015560038101805491926129f283613204565b9091555050600b546040516338e8490d60e11b81526001600160a01b038581166004830152600160248301526001600160401b0385166044830152909116906371d0921a90606401600060405180830381600087803b158015612a5457600080fd5b505af1158015612a68573d6000803e3d6000fd5b505050506003810154604080519182524360208301526001600160a01b038516917f409b9331803c697056d1e0d1cf2188ef4dfa6f8637e3ec609fb230f89d6fa987910160405180910390a2505050565b6001600160401b03811681146123ac57600080fd5b634e487b7160e01b600052604160045260246000fd5b604051608081016001600160401b0381118282101715612b0657612b06612ace565b60405290565b600082601f830112612b1d57600080fd5b81356001600160401b03811115612b3657612b36612ace565b604051601f8201601f19908116603f011681016001600160401b0381118282101715612b6457612b64612ace565b604052818152838201602001851015612b7c57600080fd5b816020850160208301376000918101602001919091529392505050565b60008060408385031215612bac57600080fd5b8235612bb781612ab9565b915060208301356001600160401b03811115612bd257600080fd5b612bde85828601612b0c565b9150509250929050565b6001600160a01b03811681146123ac57600080fd5b600060208284031215612c0f57600080fd5b8135611f1481612be8565b600060208284031215612c2c57600080fd5b8135611f1481612ab9565b6000815180845260005b81811015612c5d57602081850181015186830182015201612c41565b506000602082860101526020601f19601f83011685010191505092915050565b60208152612c976020820183516001600160401b03169052565b6020820151604082015260006040830151612cbd60608401826001600160a01b03169052565b5060608301516101206080840152612cd9610140840182612c37565b90506080840151601f198483030160a0850152612cf68282612c37565b91505060a084015160c084015260c0840151612d1660e085018215159052565b5060e08401516101008401526101008401516101208401528091505092915050565b60008060408385031215612d4b57600080fd5b8235612d5681612be8565b946020939093013593505050565b602081526001600160401b03825116602082015260006020830151612d9460408401826001600160a01b03169052565b5060408301516101206060840152612db0610140840182612c37565b90506060840151601f19848303016080850152612dcd8282612c37565b9150506080840151612dec60a085018280518252602090810151910152565b5060a084015160e084015260c084015161010084015260e08401516101208401528091505092915050565b60008060408385031215612e2a57600080fd5b82356001600160401b03811115612e4057600080fd5b612e4c85828601612b0c565b92505060208301356001600160401b03811115612bd257600080fd5b60006080828403128015612e7b57600080fd5b50612e84612ae4565b8235612e8f81612be8565b81526020830135612e9f81612be8565b60208201526040830135612eb281612be8565b60408201526060830135612ec581612be8565b60608201529392505050565b602080825282518282018190526000918401906040840190835b81811015612f09578351835260209384019390920191600101612eeb565b509095945050505050565b600080600060608486031215612f2957600080fd5b505081359360208301359350604090920135919050565b600060208284031215612f5257600080fd5b5035919050565b6001600160401b038a16815288602082015260018060a01b038816604082015261012060608201526000612f91610120830189612c37565b8281036080840152612fa38189612c37565b60a0840197909752505092151560c084015260e08301919091526101009091015295945050505050565b600060208284031215612fdf57600080fd5b81518015158114611f1457600080fd5b600181811c9082168061300357607f821691505b60208210810361302357634e487b7160e01b600052602260045260246000fd5b50919050565b634e487b7160e01b600052601160045260246000fd5b8082018082111561274857612748613029565b601f82111561309957806000526020600020601f840160051c810160208510156130795750805b601f840160051c820191505b818110156126905760008155600101613085565b505050565b81516001600160401b038111156130b7576130b7612ace565b6130cb816130c58454612fef565b84613052565b6020601f8211600181146130ff57600083156130e75750848201515b600019600385901b1c1916600184901b178455612690565b600084815260208120601f198516915b8281101561312f578785015182556020948501946001909201910161310f565b508482101561314d5786840151600019600387901b60f8161c191681555b50505050600190811b01905550565b60006020828403121561316e57600080fd5b5051919050565b6060815260006131886060830186612c37565b60208301949094525060400152919050565b6001600160401b038316815260406020820152600061131f6040830184612c37565b600881106131da57634e487b7160e01b600052602160045260246000fd5b9052565b604081016131ec82856131bc565b6001600160a01b039290921660209190910152919050565b60006001820161321657613216613029565b5060010190565b60006001600160401b0382166001600160401b03810361323f5761323f613029565b60010192915050565b60408152600061325b6040830185612c37565b90508260208301529392505050565b6020810161274882846131bc565b60006020828403121561328a57600080fd5b8151611f1481612ab9565b6001600160401b03818116838216019081111561274857612748613029565b6001600160a01b038316815260408101611f1460208301846131bc565b808202811582820484141761274857612748613029565b60006001600160401b0382168061330157613301613029565b6000190192915050565b8181038181111561274857612748613029565b6000608082840312801561333157600080fd5b5061333a612ae4565b825161334581612be8565b8152602083015161335581612be8565b602082015260408301516008811061336c57600080fd5b6040820152606092830151928101929092525091905056fea2646970667358221220e2a927cbe8c2c1118f1343d78acbbda371250e9cc7893dd3a73ba51d02408fd964736f6c634300081b0033",
  "linkReferences": {},
  "deployedLinkReferences": {}
}