{
  "_format": "hh-sol-artifact-1",
  "contractName": "DeveloperRules",
  "sourceName": "contracts/DeveloperRules.sol",
  "abi": [
    {
      "inputs": [
        {
          "internalType": "address",
          "name": "communityRulesAddress",
          "type": "address"
        },
        {
          "internalType": "address",
          "name": "developerPoolAddress",
          "type": "address"
        },
        {
          "internalType": "address",
          "name": "validatorRulesAddress",
          "type": "address"
        },
        {
          "internalType": "uint256",
          "name": "timeBetweenWorks_",
          "type": "uint256"
        },
        {
          "internalType": "uint256",
          "name": "maxPenalties_",
          "type": "uint256"
        },
        {
          "internalType": "uint256",
          "name": "securityBlocksToValidatorAnalysis",
          "type": "uint256"
        }
      ],
      "stateMutability": "nonpayable",
      "type": "constructor"
    },
    {
      "anonymous": false,
      "inputs": [
        {
          "indexed": true,
          "internalType": "address",
          "name": "previousOwner",
          "type": "address"
        },
        {
          "indexed": true,
          "internalType": "address",
          "name": "newOwner",
          "type": "address"
        }
      ],
      "name": "OwnershipTransferred",
      "type": "event"
    },
    {
      "inputs": [],
      "name": "MAX_PENALTIES",
      "outputs": [
        {
          "internalType": "uint256",
          "name": "",
          "type": "uint256"
        }
      ],
      "stateMutability": "view",
      "type": "function"
    },
    {
      "inputs": [],
      "name": "SECURITY_BLOCKS_TO_VALIDATOR_ANALYSIS",
      "outputs": [
        {
          "internalType": "uint256",
          "name": "",
          "type": "uint256"
        }
      ],
      "stateMutability": "view",
      "type": "function"
    },
    {
      "inputs": [
        {
          "internalType": "string",
          "name": "name",
          "type": "string"
        },
        {
          "internalType": "string",
          "name": "proofPhoto",
          "type": "string"
        }
      ],
      "name": "addDeveloper",
      "outputs": [],
      "stateMutability": "nonpayable",
      "type": "function"
    },
    {
      "inputs": [
        {
          "internalType": "address",
          "name": "addr",
          "type": "address"
        },
        {
          "internalType": "uint256",
          "name": "reportId",
          "type": "uint256"
        }
      ],
      "name": "addPenalty",
      "outputs": [
        {
          "internalType": "uint256",
          "name": "",
          "type": "uint256"
        }
      ],
      "stateMutability": "nonpayable",
      "type": "function"
    },
    {
      "inputs": [
        {
          "internalType": "string",
          "name": "description",
          "type": "string"
        },
        {
          "internalType": "string",
          "name": "report",
          "type": "string"
        }
      ],
      "name": "addReport",
      "outputs": [],
      "stateMutability": "nonpayable",
      "type": "function"
    },
    {
      "inputs": [
        {
          "internalType": "uint256",
          "name": "id",
          "type": "uint256"
        },
        {
          "internalType": "string",
          "name": "justification",
          "type": "string"
        }
      ],
      "name": "addReportValidation",
      "outputs": [],
      "stateMutability": "nonpayable",
      "type": "function"
    },
    {
      "inputs": [
        {
          "internalType": "address",
          "name": "",
          "type": "address"
        }
      ],
      "name": "allowedCallers",
      "outputs": [
        {
          "internalType": "bool",
          "name": "",
          "type": "bool"
        }
      ],
      "stateMutability": "view",
      "type": "function"
    },
    {
      "inputs": [
        {
          "internalType": "uint256",
          "name": "totalLevels",
          "type": "uint256"
        },
        {
          "internalType": "uint256",
          "name": "totalUsers",
          "type": "uint256"
        },
        {
          "internalType": "uint256",
          "name": "userLevels",
          "type": "uint256"
        }
      ],
      "name": "canInvite",
      "outputs": [
        {
          "internalType": "bool",
          "name": "",
          "type": "bool"
        }
      ],
      "stateMutability": "pure",
      "type": "function"
    },
    {
      "inputs": [
        {
          "internalType": "address",
          "name": "addr",
          "type": "address"
        }
      ],
      "name": "canSendInvite",
      "outputs": [
        {
          "internalType": "bool",
          "name": "",
          "type": "bool"
        }
      ],
      "stateMutability": "view",
      "type": "function"
    },
    {
      "inputs": [
        {
          "internalType": "address",
          "name": "addr",
          "type": "address"
        }
      ],
      "name": "developerExists",
      "outputs": [
        {
          "internalType": "bool",
          "name": "",
          "type": "bool"
        }
      ],
      "stateMutability": "view",
      "type": "function"
    },
    {
      "inputs": [
        {
          "internalType": "address",
          "name": "",
          "type": "address"
        }
      ],
      "name": "developers",
      "outputs": [
        {
          "internalType": "uint256",
          "name": "id",
          "type": "uint256"
        },
        {
          "internalType": "address",
          "name": "developerWallet",
          "type": "address"
        },
        {
          "internalType": "string",
          "name": "name",
          "type": "string"
        },
        {
          "internalType": "string",
          "name": "proofPhoto",
          "type": "string"
        },
        {
          "components": [
            {
              "internalType": "uint256",
              "name": "level",
              "type": "uint256"
            },
            {
              "internalType": "uint256",
              "name": "currentEra",
              "type": "uint256"
            }
          ],
          "internalType": "struct Pool",
          "name": "pool",
          "type": "tuple"
        },
        {
          "internalType": "uint256",
          "name": "totalReports",
          "type": "uint256"
        },
        {
          "internalType": "uint256",
          "name": "createdAt",
          "type": "uint256"
        },
        {
          "internalType": "uint256",
          "name": "lastPublishedAt",
          "type": "uint256"
        }
      ],
      "stateMutability": "view",
      "type": "function"
    },
    {
      "inputs": [
        {
          "internalType": "uint256",
          "name": "",
          "type": "uint256"
        }
      ],
      "name": "developersAddress",
      "outputs": [
        {
          "internalType": "address",
          "name": "",
          "type": "address"
        }
      ],
      "stateMutability": "view",
      "type": "function"
    },
    {
      "inputs": [
        {
          "internalType": "address",
          "name": "addr",
          "type": "address"
        }
      ],
      "name": "getDeveloper",
      "outputs": [
        {
          "components": [
            {
              "internalType": "uint256",
              "name": "id",
              "type": "uint256"
            },
            {
              "internalType": "address",
              "name": "developerWallet",
              "type": "address"
            },
            {
              "internalType": "string",
              "name": "name",
              "type": "string"
            },
            {
              "internalType": "string",
              "name": "proofPhoto",
              "type": "string"
            },
            {
              "components": [
                {
                  "internalType": "uint256",
                  "name": "level",
                  "type": "uint256"
                },
                {
                  "internalType": "uint256",
                  "name": "currentEra",
                  "type": "uint256"
                }
              ],
              "internalType": "struct Pool",
              "name": "pool",
              "type": "tuple"
            },
            {
              "internalType": "uint256",
              "name": "totalReports",
              "type": "uint256"
            },
            {
              "internalType": "uint256",
              "name": "createdAt",
              "type": "uint256"
            },
            {
              "internalType": "uint256",
              "name": "lastPublishedAt",
              "type": "uint256"
            }
          ],
          "internalType": "struct Developer",
          "name": "developer",
          "type": "tuple"
        }
      ],
      "stateMutability": "view",
      "type": "function"
    },
    {
      "inputs": [
        {
          "internalType": "uint256",
          "name": "id",
          "type": "uint256"
        }
      ],
      "name": "getReport",
      "outputs": [
        {
          "components": [
            {
              "internalType": "uint256",
              "name": "id",
              "type": "uint256"
            },
            {
              "internalType": "uint256",
              "name": "era",
              "type": "uint256"
            },
            {
              "internalType": "address",
              "name": "developer",
              "type": "address"
            },
            {
              "internalType": "string",
              "name": "description",
              "type": "string"
            },
            {
              "internalType": "string",
              "name": "report",
              "type": "string"
            },
            {
              "internalType": "uint256",
              "name": "validationsCount",
              "type": "uint256"
            },
            {
              "internalType": "bool",
              "name": "valid",
              "type": "bool"
            },
            {
              "internalType": "uint256",
              "name": "invalidatedAt",
              "type": "uint256"
            },
            {
              "internalType": "uint256",
              "name": "createdAtBlockNumber",
              "type": "uint256"
            }
          ],
          "internalType": "struct Report",
          "name": "",
          "type": "tuple"
        }
      ],
      "stateMutability": "view",
      "type": "function"
    },
    {
      "inputs": [
        {
          "internalType": "address",
          "name": "addr",
          "type": "address"
        }
      ],
      "name": "getReportsIds",
      "outputs": [
        {
          "internalType": "uint256[]",
          "name": "",
          "type": "uint256[]"
        }
      ],
      "stateMutability": "view",
      "type": "function"
    },
    {
      "inputs": [
        {
          "internalType": "address",
          "name": "caller",
          "type": "address"
        }
      ],
      "name": "isAllowedCaller",
      "outputs": [
        {
          "internalType": "bool",
          "name": "",
          "type": "bool"
        }
      ],
      "stateMutability": "view",
      "type": "function"
    },
    {
      "inputs": [
        {
          "internalType": "address",
          "name": "allowed",
          "type": "address"
        }
      ],
      "name": "newAllowedCaller",
      "outputs": [],
      "stateMutability": "nonpayable",
      "type": "function"
    },
    {
      "inputs": [],
      "name": "nextEraIn",
      "outputs": [
        {
          "internalType": "uint256",
          "name": "",
          "type": "uint256"
        }
      ],
      "stateMutability": "view",
      "type": "function"
    },
    {
      "inputs": [],
      "name": "owner",
      "outputs": [
        {
          "internalType": "address",
          "name": "",
          "type": "address"
        }
      ],
      "stateMutability": "view",
      "type": "function"
    },
    {
      "inputs": [
        {
          "internalType": "address",
          "name": "",
          "type": "address"
        },
        {
          "internalType": "uint256",
          "name": "",
          "type": "uint256"
        }
      ],
      "name": "penalties",
      "outputs": [
        {
          "internalType": "uint256",
          "name": "reportId",
          "type": "uint256"
        }
      ],
      "stateMutability": "view",
      "type": "function"
    },
    {
      "inputs": [
        {
          "internalType": "address",
          "name": "addr",
          "type": "address"
        },
        {
          "internalType": "uint256",
          "name": "removeSomeLevels",
          "type": "uint256"
        }
      ],
      "name": "removePoolLevels",
      "outputs": [],
      "stateMutability": "nonpayable",
      "type": "function"
    },
    {
      "inputs": [],
      "name": "renounceOwnership",
      "outputs": [],
      "stateMutability": "nonpayable",
      "type": "function"
    },
    {
      "inputs": [
        {
          "internalType": "uint256",
          "name": "",
          "type": "uint256"
        }
      ],
      "name": "reports",
      "outputs": [
        {
          "internalType": "uint256",
          "name": "id",
          "type": "uint256"
        },
        {
          "internalType": "uint256",
          "name": "era",
          "type": "uint256"
        },
        {
          "internalType": "address",
          "name": "developer",
          "type": "address"
        },
        {
          "internalType": "string",
          "name": "description",
          "type": "string"
        },
        {
          "internalType": "string",
          "name": "report",
          "type": "string"
        },
        {
          "internalType": "uint256",
          "name": "validationsCount",
          "type": "uint256"
        },
        {
          "internalType": "bool",
          "name": "valid",
          "type": "bool"
        },
        {
          "internalType": "uint256",
          "name": "invalidatedAt",
          "type": "uint256"
        },
        {
          "internalType": "uint256",
          "name": "createdAtBlockNumber",
          "type": "uint256"
        }
      ],
      "stateMutability": "view",
      "type": "function"
    },
    {
      "inputs": [],
      "name": "reportsCount",
      "outputs": [
        {
          "internalType": "uint256",
          "name": "",
          "type": "uint256"
        }
      ],
      "stateMutability": "view",
      "type": "function"
    },
    {
      "inputs": [
        {
          "internalType": "address",
          "name": "",
          "type": "address"
        },
        {
          "internalType": "uint256",
          "name": "",
          "type": "uint256"
        }
      ],
      "name": "reportsIds",
      "outputs": [
        {
          "internalType": "uint256",
          "name": "",
          "type": "uint256"
        }
      ],
      "stateMutability": "view",
      "type": "function"
    },
    {
      "inputs": [],
      "name": "reportsTotalCount",
      "outputs": [
        {
          "internalType": "uint256",
          "name": "",
          "type": "uint256"
        }
      ],
      "stateMutability": "view",
      "type": "function"
    },
    {
      "inputs": [
        {
          "internalType": "address",
          "name": "addr",
          "type": "address"
        }
      ],
      "name": "totalPenalties",
      "outputs": [
        {
          "internalType": "uint256",
          "name": "",
          "type": "uint256"
        }
      ],
      "stateMutability": "view",
      "type": "function"
    },
    {
      "inputs": [
        {
          "internalType": "address",
          "name": "newOwner",
          "type": "address"
        }
      ],
      "name": "transferOwnership",
      "outputs": [],
      "stateMutability": "nonpayable",
      "type": "function"
    },
    {
      "inputs": [],
      "name": "withdraw",
      "outputs": [],
      "stateMutability": "nonpayable",
      "type": "function"
    }
  ],
  "bytecode": "0x60e060405234801561001057600080fd5b50604051614bb5380380614bb583398181016040528101906100329190610299565b61004e61004361013460201b60201c565b61013c60201b60201c565b85600760006101000a81548173ffffffffffffffffffffffffffffffffffffffff021916908373ffffffffffffffffffffffffffffffffffffffff16021790555084600860006101000a81548173ffffffffffffffffffffffffffffffffffffffff021916908373ffffffffffffffffffffffffffffffffffffffff16021790555083600960006101000a81548173ffffffffffffffffffffffffffffffffffffffff021916908373ffffffffffffffffffffffffffffffffffffffff16021790555082608081815250508160a081815250508060c08181525050505050505050610326565b600033905090565b60008060009054906101000a900473ffffffffffffffffffffffffffffffffffffffff169050816000806101000a81548173ffffffffffffffffffffffffffffffffffffffff021916908373ffffffffffffffffffffffffffffffffffffffff1602179055508173ffffffffffffffffffffffffffffffffffffffff168173ffffffffffffffffffffffffffffffffffffffff167f8be0079c531659141344cd1fd0a4f28419497f9722a3daafe3b4186f6b6457e060405160405180910390a35050565b600080fd5b600073ffffffffffffffffffffffffffffffffffffffff82169050919050565b600061023082610205565b9050919050565b61024081610225565b811461024b57600080fd5b50565b60008151905061025d81610237565b92915050565b6000819050919050565b61027681610263565b811461028157600080fd5b50565b6000815190506102938161026d565b92915050565b60008060008060008060c087890312156102b6576102b5610200565b5b60006102c489828a0161024e565b96505060206102d589828a0161024e565b95505060406102e689828a0161024e565b94505060606102f789828a01610284565b935050608061030889828a01610284565b92505060a061031989828a01610284565b9150509295509295509295565b60805160a05160c05161485961035c60003960008181611d49015261217d0152600061257201526000612dfc01526148596000f3fe608060405234801561001057600080fd5b50600436106101cf5760003560e01c80637a3e0066116101045780639eaf666f116100a2578063c77c1ce611610071578063c77c1ce61461056f578063c942adf71461059f578063f2fde38b146105d7578063fa64d0f4146105f3576101cf565b80639eaf666f146104c1578063a6801258146104f1578063b432fdca14610521578063b43f070a14610551576101cf565b80638da5cb5b116100de5780638da5cb5b1461044d5780638f93716f1461046b57806397705d60146104875780639e02b7bc146104a5576101cf565b80637a3e0066146103d15780637b334154146103ed5780638314e0081461041d576101cf565b80635fa71c2811610171578063715018a61161014b578063715018a61461035d5780637384fe5f1461036757806374f7c42914610383578063791b1ecc146103a1576101cf565b80635fa71c28146102c657806361fd5c20146102f657806367e13ee01461032d576101cf565b80633ccfd60b116101ad5780633ccfd60b146102505780633e0c27f01461025a5780634e7f9b1914610278578063582256f1146102a8576101cf565b806318ad5c9a146101d45780631b63a43c146101f05780632076267b14610220575b600080fd5b6101ee60048036038101906101e991906133c8565b610623565b005b61020a600480360381019061020591906133c8565b6109d8565b6040516102179190613417565b60405180910390f35b61023a60048036038101906102359190613432565b610af6565b6040516102479190613417565b60405180910390f35b610258610b42565b005b61026261100f565b60405161026f9190613417565b60405180910390f35b610292600480360381019061028d919061345f565b611015565b60405161029f9190613621565b60405180910390f35b6102b061120a565b6040516102bd9190613417565b60405180910390f35b6102e060048036038101906102db91906133c8565b6112b4565b6040516102ed9190613417565b60405180910390f35b610310600480360381019061030b9190613432565b6112eb565b6040516103249897969594939291906136cb565b60405180910390f35b61034760048036038101906103429190613432565b611481565b604051610354919061383f565b60405180910390f35b6103656116a5565b005b610381600480360381019061037c9190613996565b6116b9565b005b61038b611c15565b6040516103989190613417565b60405180910390f35b6103bb60048036038101906103b69190613432565b611c1b565b6040516103c89190613a01565b60405180910390f35b6103eb60048036038101906103e69190613a1c565b611c69565b005b61040760048036038101906104029190613432565b612039565b6040516104149190613a01565b60405180910390f35b61043760048036038101906104329190613432565b612059565b6040516104449190613b43565b60405180910390f35b6104556120f0565b6040516104629190613b65565b60405180910390f35b61048560048036038101906104809190613432565b612119565b005b61048f61217b565b60405161049c9190613417565b60405180910390f35b6104bf60048036038101906104ba9190613a1c565b61219f565b005b6104db60048036038101906104d69190613b80565b61249d565b6040516104e89190613a01565b60405180910390f35b61050b60048036038101906105069190613432565b6124e9565b6040516105189190613a01565b60405180910390f35b61053b600480360381019061053691906133c8565b61253f565b6040516105489190613417565b60405180910390f35b610559612570565b6040516105669190613417565b60405180910390f35b61058960048036038101906105849190613432565b612594565b6040516105969190613a01565b60405180910390f35b6105b960048036038101906105b4919061345f565b61287e565b6040516105ce99989796959493929190613bd3565b60405180910390f35b6105f160048036038101906105ec9190613432565b612a09565b005b61060d6004803603810190610608919061345f565b612a8c565b60405161061a9190613b65565b60405180910390f35b600160003373ffffffffffffffffffffffffffffffffffffffff1673ffffffffffffffffffffffffffffffffffffffff16815260200190815260200160002060009054906101000a900460ff166106af576040517f08c379a00000000000000000000000000000000000000000000000000000000081526004016106a690613cba565b60405180910390fd5b6000600260008473ffffffffffffffffffffffffffffffffffffffff1673ffffffffffffffffffffffffffffffffffffffff16815260200190815260200160002060405180610100016040529081600082015481526020016001820160009054906101000a900473ffffffffffffffffffffffffffffffffffffffff1673ffffffffffffffffffffffffffffffffffffffff1673ffffffffffffffffffffffffffffffffffffffff16815260200160028201805461076c90613d09565b80601f016020809104026020016040519081016040528092919081815260200182805461079890613d09565b80156107e55780601f106107ba576101008083540402835291602001916107e5565b820191906000526020600020905b8154815290600101906020018083116107c857829003601f168201915b505050505081526020016003820180546107fe90613d09565b80601f016020809104026020016040519081016040528092919081815260200182805461082a90613d09565b80156108775780601f1061084c57610100808354040283529160200191610877565b820191906000526020600020905b81548152906001019060200180831161085a57829003601f168201915b505050505081526020016004820160405180604001604052908160008201548152602001600182015481525050815260200160068201548152602001600782015481526020016008820154815250509050600082116108de578060800151600001516108e0565b815b600260008573ffffffffffffffffffffffffffffffffffffffff1673ffffffffffffffffffffffffffffffffffffffff16815260200190815260200160002060040160000160008282546109349190613d69565b92505081905550600860009054906101000a900473ffffffffffffffffffffffffffffffffffffffff1673ffffffffffffffffffffffffffffffffffffffff1663157ffc5284610982612abf565b856040518463ffffffff1660e01b81526004016109a193929190613d9d565b600060405180830381600087803b1580156109bb57600080fd5b505af11580156109cf573d6000803e3d6000fd5b50505050505050565b6000600160003373ffffffffffffffffffffffffffffffffffffffff1673ffffffffffffffffffffffffffffffffffffffff16815260200190815260200160002060009054906101000a900460ff16610a66576040517f08c379a0000000000000000000000000000000000000000000000000000000008152600401610a5d90613cba565b60405180910390fd5b600560008473ffffffffffffffffffffffffffffffffffffffff1673ffffffffffffffffffffffffffffffffffffffff16815260200190815260200160002060405180602001604052808481525090806001815401808255809150506001900390600052602060002001600090919091909150600082015181600001555050610aee83610af6565b905092915050565b6000600560008373ffffffffffffffffffffffffffffffffffffffff1673ffffffffffffffffffffffffffffffffffffffff168152602001908152602001600020805490509050919050565b600760009054906101000a900473ffffffffffffffffffffffffffffffffffffffff1673ffffffffffffffffffffffffffffffffffffffff16639497c6086004336040518363ffffffff1660e01b8152600401610ba0929190613e4b565b602060405180830381865afa158015610bbd573d6000803e3d6000fd5b505050506040513d601f19601f82011682018060405250810190610be19190613ea0565b610c20576040517f08c379a0000000000000000000000000000000000000000000000000000000008152600401610c1790613f19565b60405180910390fd5b6000600260003373ffffffffffffffffffffffffffffffffffffffff1673ffffffffffffffffffffffffffffffffffffffff16815260200190815260200160002060405180610100016040529081600082015481526020016001820160009054906101000a900473ffffffffffffffffffffffffffffffffffffffff1673ffffffffffffffffffffffffffffffffffffffff1673ffffffffffffffffffffffffffffffffffffffff168152602001600282018054610cdd90613d09565b80601f0160208091040260200160405190810160405280929190818152602001828054610d0990613d09565b8015610d565780601f10610d2b57610100808354040283529160200191610d56565b820191906000526020600020905b815481529060010190602001808311610d3957829003601f168201915b50505050508152602001600382018054610d6f90613d09565b80601f0160208091040260200160405190810160405280929190818152602001828054610d9b90613d09565b8015610de85780601f10610dbd57610100808354040283529160200191610de8565b820191906000526020600020905b815481529060010190602001808311610dcb57829003601f168201915b50505050508152602001600482016040518060400160405290816000820154815260200160018201548152505081526020016006820154815260200160078201548152602001600882015481525050905060008160800151602001519050600860009054906101000a900473ffffffffffffffffffffffffffffffffffffffff1673ffffffffffffffffffffffffffffffffffffffff1663fbe85f06826040518263ffffffff1660e01b8152600401610ea19190613417565b602060405180830381865afa158015610ebe573d6000803e3d6000fd5b505050506040513d601f19601f82011682018060405250810190610ee29190613ea0565b610f21576040517f08c379a0000000000000000000000000000000000000000000000000000000008152600401610f1890613f85565b60405180910390fd5b600260003373ffffffffffffffffffffffffffffffffffffffff1673ffffffffffffffffffffffffffffffffffffffff1681526020019081526020016000206004016001016000815480929190610f7790613fa5565b9190505550600860009054906101000a900473ffffffffffffffffffffffffffffffffffffffff1673ffffffffffffffffffffffffffffffffffffffff1663f3fef3a333836040518363ffffffff1660e01b8152600401610fd9929190613fed565b600060405180830381600087803b158015610ff357600080fd5b505af1158015611007573d6000803e3d6000fd5b505050505050565b600a5481565b61101d613241565b600360008381526020019081526020016000206040518061012001604052908160008201548152602001600182015481526020016002820160009054906101000a900473ffffffffffffffffffffffffffffffffffffffff1673ffffffffffffffffffffffffffffffffffffffff1673ffffffffffffffffffffffffffffffffffffffff1681526020016003820180546110b690613d09565b80601f01602080910402602001604051908101604052809291908181526020018280546110e290613d09565b801561112f5780601f106111045761010080835404028352916020019161112f565b820191906000526020600020905b81548152906001019060200180831161111257829003601f168201915b5050505050815260200160048201805461114890613d09565b80601f016020809104026020016040519081016040528092919081815260200182805461117490613d09565b80156111c15780601f10611196576101008083540402835291602001916111c1565b820191906000526020600020905b8154815290600101906020018083116111a457829003601f168201915b50505050508152602001600582015481526020016006820160009054906101000a900460ff16151515158152602001600782015481526020016008820154815250509050919050565b6000600860009054906101000a900473ffffffffffffffffffffffffffffffffffffffff1673ffffffffffffffffffffffffffffffffffffffff1663d5ee3eb5611252612abf565b6040518263ffffffff1660e01b815260040161126e9190613417565b602060405180830381865afa15801561128b573d6000803e3d6000fd5b505050506040513d601f19601f820116820180604052508101906112af919061404c565b905090565b600560205281600052604060002081815481106112d057600080fd5b90600052602060002001600091509150508060000154905081565b60026020528060005260406000206000915090508060000154908060010160009054906101000a900473ffffffffffffffffffffffffffffffffffffffff169080600201805461133a90613d09565b80601f016020809104026020016040519081016040528092919081815260200182805461136690613d09565b80156113b35780601f10611388576101008083540402835291602001916113b3565b820191906000526020600020905b81548152906001019060200180831161139657829003601f168201915b5050505050908060030180546113c890613d09565b80601f01602080910402602001604051908101604052809291908181526020018280546113f490613d09565b80156114415780601f1061141657610100808354040283529160200191611441565b820191906000526020600020905b81548152906001019060200180831161142457829003601f168201915b5050505050908060040160405180604001604052908160008201548152602001600182015481525050908060060154908060070154908060080154905088565b6114896132a5565b600260008373ffffffffffffffffffffffffffffffffffffffff1673ffffffffffffffffffffffffffffffffffffffff16815260200190815260200160002060405180610100016040529081600082015481526020016001820160009054906101000a900473ffffffffffffffffffffffffffffffffffffffff1673ffffffffffffffffffffffffffffffffffffffff1673ffffffffffffffffffffffffffffffffffffffff16815260200160028201805461154490613d09565b80601f016020809104026020016040519081016040528092919081815260200182805461157090613d09565b80156115bd5780601f10611592576101008083540402835291602001916115bd565b820191906000526020600020905b8154815290600101906020018083116115a057829003601f168201915b505050505081526020016003820180546115d690613d09565b80601f016020809104026020016040519081016040528092919081815260200182805461160290613d09565b801561164f5780601f106116245761010080835404028352916020019161164f565b820191906000526020600020905b81548152906001019060200180831161163257829003601f168201915b505050505081526020016004820160405180604001604052908160008201548152602001600182015481525050815260200160068201548152602001600782015481526020016008820154815250509050919050565b6116ad612b57565b6116b76000612bd5565b565b600760009054906101000a900473ffffffffffffffffffffffffffffffffffffffff1673ffffffffffffffffffffffffffffffffffffffff16639497c6086008336040518363ffffffff1660e01b8152600401611717929190613e4b565b602060405180830381865afa158015611734573d6000803e3d6000fd5b505050506040513d601f19601f820116820180604052508101906117589190613ea0565b611797576040517f08c379a000000000000000000000000000000000000000000000000000000000815260040161178e906140c5565b60405180910390fd5b6000600360008481526020019081526020016000206040518061012001604052908160008201548152602001600182015481526020016002820160009054906101000a900473ffffffffffffffffffffffffffffffffffffffff1673ffffffffffffffffffffffffffffffffffffffff1673ffffffffffffffffffffffffffffffffffffffff16815260200160038201805461183290613d09565b80601f016020809104026020016040519081016040528092919081815260200182805461185e90613d09565b80156118ab5780601f10611880576101008083540402835291602001916118ab565b820191906000526020600020905b81548152906001019060200180831161188e57829003601f168201915b505050505081526020016004820180546118c490613d09565b80601f01602080910402602001604051908101604052809291908181526020018280546118f090613d09565b801561193d5780601f106119125761010080835404028352916020019161193d565b820191906000526020600020905b81548152906001019060200180831161192057829003601f168201915b50505050508152602001600582015481526020016006820160009054906101000a900460ff161515151581526020016007820154815260200160088201548152505090508060c00151801561199c5750611995612abf565b8160200151145b6119db576040517f08c379a00000000000000000000000000000000000000000000000000000000081526004016119d290614131565b60405180910390fd5b60018160a0018181516119ee9190614151565b915081815250508060036000858152602001908152602001600020600082015181600001556020820151816001015560408201518160020160006101000a81548173ffffffffffffffffffffffffffffffffffffffff021916908373ffffffffffffffffffffffffffffffffffffffff1602179055506060820151816003019081611a799190614331565b506080820151816004019081611a8f9190614331565b5060a0820151816005015560c08201518160060160006101000a81548160ff02191690831515021790555060e0820151816007015561010082015181600801559050506000600960009054906101000a900473ffffffffffffffffffffffffffffffffffffffff1673ffffffffffffffffffffffffffffffffffffffff166384f0f65f6040518163ffffffff1660e01b8152600401602060405180830381865afa158015611b41573d6000803e3d6000fd5b505050506040513d601f19601f82011682018060405250810190611b659190614418565b8260a00151101590508015611b7e57611b7d82612c99565b5b600960009054906101000a900473ffffffffffffffffffffffffffffffffffffffff1673ffffffffffffffffffffffffffffffffffffffff1663184673338385336040518463ffffffff1660e01b8152600401611bdd93929190614445565b600060405180830381600087803b158015611bf757600080fd5b505af1158015611c0b573d6000803e3d6000fd5b5050505050505050565b600b5481565b600080600260008473ffffffffffffffffffffffffffffffffffffffff1673ffffffffffffffffffffffffffffffffffffffff16815260200190815260200160002060000154119050919050565b600760009054906101000a900473ffffffffffffffffffffffffffffffffffffffff1673ffffffffffffffffffffffffffffffffffffffff16639497c6086004336040518363ffffffff1660e01b8152600401611cc7929190613e4b565b602060405180830381865afa158015611ce4573d6000803e3d6000fd5b505050506040513d601f19601f82011682018060405250810190611d089190613ea0565b611d47576040517f08c379a0000000000000000000000000000000000000000000000000000000008152600401611d3e906144d6565b60405180910390fd5b7f0000000000000000000000000000000000000000000000000000000000000000611d7061120a565b11611db0576040517f08c379a0000000000000000000000000000000000000000000000000000000008152600401611da790614568565b60405180910390fd5b611db933612db0565b611df8576040517f08c379a0000000000000000000000000000000000000000000000000000000008152600401611def906145d4565b60405180910390fd5b600a6000815480929190611e0b90613fa5565b9190505550600b6000815480929190611e2390613fa5565b91905055506000600b549050600260003373ffffffffffffffffffffffffffffffffffffffff1673ffffffffffffffffffffffffffffffffffffffff1681526020019081526020016000206006016000815480929190611e8290613fa5565b9190505550604051806101200160405280828152602001611ea1612abf565b81526020013373ffffffffffffffffffffffffffffffffffffffff16815260200184815260200183815260200160008152602001600115158152602001600081526020014381525060036000838152602001908152602001600020600082015181600001556020820151816001015560408201518160020160006101000a81548173ffffffffffffffffffffffffffffffffffffffff021916908373ffffffffffffffffffffffffffffffffffffffff1602179055506060820151816003019081611f6c9190614331565b506080820151816004019081611f829190614331565b5060a0820151816005015560c08201518160060160006101000a81548160ff02191690831515021790555060e082015181600701556101008201518160080155905050600460003373ffffffffffffffffffffffffffffffffffffffff1673ffffffffffffffffffffffffffffffffffffffff16815260200190815260200160002081908060018154018082558091505060019003906000526020600020016000909190919091505561203433612e3f565b505050565b60016020528060005260406000206000915054906101000a900460ff1681565b6060600460008373ffffffffffffffffffffffffffffffffffffffff1673ffffffffffffffffffffffffffffffffffffffff1681526020019081526020016000208054806020026020016040519081016040528092919081815260200182805480156120e457602002820191906000526020600020905b8154815260200190600101908083116120d0575b50505050509050919050565b60008060009054906101000a900473ffffffffffffffffffffffffffffffffffffffff16905090565b612121612b57565b60018060008373ffffffffffffffffffffffffffffffffffffffff1673ffffffffffffffffffffffffffffffffffffffff16815260200190815260200160002060006101000a81548160ff02191690831515021790555050565b7f000000000000000000000000000000000000000000000000000000000000000081565b60006001600760009054906101000a900473ffffffffffffffffffffffffffffffffffffffff1673ffffffffffffffffffffffffffffffffffffffff16631eb2c12060046040518263ffffffff1660e01b81526004016121ff91906145f4565b602060405180830381865afa15801561221c573d6000803e3d6000fd5b505050506040513d601f19601f820116820180604052508101906122409190614418565b61224a9190614151565b90506040518061010001604052808281526020013373ffffffffffffffffffffffffffffffffffffffff1681526020018481526020018381526020016040518060400160405280600081526020016122a0612abf565b8152508152602001600081526020014381526020016000815250600260003373ffffffffffffffffffffffffffffffffffffffff1673ffffffffffffffffffffffffffffffffffffffff1681526020019081526020016000206000820151816000015560208201518160010160006101000a81548173ffffffffffffffffffffffffffffffffffffffff021916908373ffffffffffffffffffffffffffffffffffffffff160217905550604082015181600201908161235f9190614331565b5060608201518160030190816123759190614331565b506080820151816004016000820151816000015560208201518160010155505060a0820151816006015560c0820151816007015560e08201518160080155905050336006600083815260200190815260200160002060006101000a81548173ffffffffffffffffffffffffffffffffffffffff021916908373ffffffffffffffffffffffffffffffffffffffff160217905550600760009054906101000a900473ffffffffffffffffffffffffffffffffffffffff1673ffffffffffffffffffffffffffffffffffffffff16639c3eead93360046040518363ffffffff1660e01b815260040161246692919061460f565b600060405180830381600087803b15801561248057600080fd5b505af1158015612494573d6000803e3d6000fd5b50505050505050565b6000600583116124b057600190506124e2565b60006124d860016124ca868861320d90919063ffffffff16565b61322390919063ffffffff16565b9050808310159150505b9392505050565b6000600160008373ffffffffffffffffffffffffffffffffffffffff1673ffffffffffffffffffffffffffffffffffffffff16815260200190815260200160002060009054906101000a900460ff169050919050565b6004602052816000526040600020818154811061255b57600080fd5b90600052602060002001600091509150505481565b7f000000000000000000000000000000000000000000000000000000000000000081565b600080600260008473ffffffffffffffffffffffffffffffffffffffff1673ffffffffffffffffffffffffffffffffffffffff16815260200190815260200160002060405180610100016040529081600082015481526020016001820160009054906101000a900473ffffffffffffffffffffffffffffffffffffffff1673ffffffffffffffffffffffffffffffffffffffff1673ffffffffffffffffffffffffffffffffffffffff16815260200160028201805461265290613d09565b80601f016020809104026020016040519081016040528092919081815260200182805461267e90613d09565b80156126cb5780601f106126a0576101008083540402835291602001916126cb565b820191906000526020600020905b8154815290600101906020018083116126ae57829003601f168201915b505050505081526020016003820180546126e490613d09565b80601f016020809104026020016040519081016040528092919081815260200182805461271090613d09565b801561275d5780601f106127325761010080835404028352916020019161275d565b820191906000526020600020905b81548152906001019060200180831161274057829003601f168201915b50505050508152602001600482016040518060400160405290816000820154815260200160018201548152505081526020016006820154815260200160078201548152602001600882015481525050905060008160000151116127c4576000915050612879565b612875600b54600760009054906101000a900473ffffffffffffffffffffffffffffffffffffffff1673ffffffffffffffffffffffffffffffffffffffff16631eb2c12060046040518263ffffffff1660e01b815260040161282691906145f4565b602060405180830381865afa158015612843573d6000803e3d6000fd5b505050506040513d601f19601f820116820180604052508101906128679190614418565b83608001516000015161249d565b9150505b919050565b60036020528060005260406000206000915090508060000154908060010154908060020160009054906101000a900473ffffffffffffffffffffffffffffffffffffffff16908060030180546128d390613d09565b80601f01602080910402602001604051908101604052809291908181526020018280546128ff90613d09565b801561294c5780601f106129215761010080835404028352916020019161294c565b820191906000526020600020905b81548152906001019060200180831161292f57829003601f168201915b50505050509080600401805461296190613d09565b80601f016020809104026020016040519081016040528092919081815260200182805461298d90613d09565b80156129da5780601f106129af576101008083540402835291602001916129da565b820191906000526020600020905b8154815290600101906020018083116129bd57829003601f168201915b5050505050908060050154908060060160009054906101000a900460ff16908060070154908060080154905089565b612a11612b57565b600073ffffffffffffffffffffffffffffffffffffffff168173ffffffffffffffffffffffffffffffffffffffff1603612a80576040517f08c379a0000000000000000000000000000000000000000000000000000000008152600401612a77906146aa565b60405180910390fd5b612a8981612bd5565b50565b60066020528060005260406000206000915054906101000a900473ffffffffffffffffffffffffffffffffffffffff1681565b6000600860009054906101000a900473ffffffffffffffffffffffffffffffffffffffff1673ffffffffffffffffffffffffffffffffffffffff1663ed0df79e6040518163ffffffff1660e01b8152600401602060405180830381865afa158015612b2e573d6000803e3d6000fd5b505050506040513d601f19601f82011682018060405250810190612b529190614418565b905090565b612b5f613239565b73ffffffffffffffffffffffffffffffffffffffff16612b7d6120f0565b73ffffffffffffffffffffffffffffffffffffffff1614612bd3576040517f08c379a0000000000000000000000000000000000000000000000000000000008152600401612bca90614716565b60405180910390fd5b565b60008060009054906101000a900473ffffffffffffffffffffffffffffffffffffffff169050816000806101000a81548173ffffffffffffffffffffffffffffffffffffffff021916908373ffffffffffffffffffffffffffffffffffffffff1602179055508173ffffffffffffffffffffffffffffffffffffffff168173ffffffffffffffffffffffffffffffffffffffff167f8be0079c531659141344cd1fd0a4f28419497f9722a3daafe3b4186f6b6457e060405160405180910390a35050565b600a6000815480929190612cac90614736565b919050555060008160c0019015159081151581525050438160e0018181525050806003600083600001518152602001908152602001600020600082015181600001556020820151816001015560408201518160020160006101000a81548173ffffffffffffffffffffffffffffffffffffffff021916908373ffffffffffffffffffffffffffffffffffffffff1602179055506060820151816003019081612d549190614331565b506080820151816004019081612d6a9190614331565b5060a0820151816005015560c08201518160060160006101000a81548160ff02191690831515021790555060e08201518160070155610100820151816008015590505050565b600080600260008473ffffffffffffffffffffffffffffffffffffffff1673ffffffffffffffffffffffffffffffffffffffff16815260200190815260200160002060080154905060007f000000000000000000000000000000000000000000000000000000000000000082612e269190614151565b431190508080612e365750600082145b92505050919050565b6000600260008373ffffffffffffffffffffffffffffffffffffffff1673ffffffffffffffffffffffffffffffffffffffff16815260200190815260200160002060405180610100016040529081600082015481526020016001820160009054906101000a900473ffffffffffffffffffffffffffffffffffffffff1673ffffffffffffffffffffffffffffffffffffffff1673ffffffffffffffffffffffffffffffffffffffff168152602001600282018054612efc90613d09565b80601f0160208091040260200160405190810160405280929190818152602001828054612f2890613d09565b8015612f755780601f10612f4a57610100808354040283529160200191612f75565b820191906000526020600020905b815481529060010190602001808311612f5857829003601f168201915b50505050508152602001600382018054612f8e90613d09565b80601f0160208091040260200160405190810160405280929190818152602001828054612fba90613d09565b80156130075780601f10612fdc57610100808354040283529160200191613007565b820191906000526020600020905b815481529060010190602001808311612fea57829003601f168201915b505050505081526020016004820160405180604001604052908160008201548152602001600182015481525050815260200160068201548152602001600782015481526020016008820154815250509050438160e00181815250508060800151600001805180919061307890613fa5565b8152505080600260008473ffffffffffffffffffffffffffffffffffffffff1673ffffffffffffffffffffffffffffffffffffffff1681526020019081526020016000206000820151816000015560208201518160010160006101000a81548173ffffffffffffffffffffffffffffffffffffffff021916908373ffffffffffffffffffffffffffffffffffffffff16021790555060408201518160020190816131229190614331565b5060608201518160030190816131389190614331565b506080820151816004016000820151816000015560208201518160010155505060a0820151816006015560c0820151816007015560e08201518160080155905050600860009054906101000a900473ffffffffffffffffffffffffffffffffffffffff1673ffffffffffffffffffffffffffffffffffffffff166352b8d3ed8360016040518363ffffffff1660e01b81526004016131d792919061479a565b600060405180830381600087803b1580156131f157600080fd5b505af1158015613205573d6000803e3d6000fd5b505050505050565b6000818361321b91906147f2565b905092915050565b600081836132319190614151565b905092915050565b600033905090565b6040518061012001604052806000815260200160008152602001600073ffffffffffffffffffffffffffffffffffffffff16815260200160608152602001606081526020016000815260200160001515815260200160008152602001600081525090565b60405180610100016040528060008152602001600073ffffffffffffffffffffffffffffffffffffffff16815260200160608152602001606081526020016132eb613306565b81526020016000815260200160008152602001600081525090565b604051806040016040528060008152602001600081525090565b6000604051905090565b600080fd5b600080fd5b600073ffffffffffffffffffffffffffffffffffffffff82169050919050565b600061335f82613334565b9050919050565b61336f81613354565b811461337a57600080fd5b50565b60008135905061338c81613366565b92915050565b6000819050919050565b6133a581613392565b81146133b057600080fd5b50565b6000813590506133c28161339c565b92915050565b600080604083850312156133df576133de61332a565b5b60006133ed8582860161337d565b92505060206133fe858286016133b3565b9150509250929050565b61341181613392565b82525050565b600060208201905061342c6000830184613408565b92915050565b6000602082840312156134485761344761332a565b5b60006134568482850161337d565b91505092915050565b6000602082840312156134755761347461332a565b5b6000613483848285016133b3565b91505092915050565b61349581613392565b82525050565b6134a481613354565b82525050565b600081519050919050565b600082825260208201905092915050565b60005b838110156134e45780820151818401526020810190506134c9565b60008484015250505050565b6000601f19601f8301169050919050565b600061350c826134aa565b61351681856134b5565b93506135268185602086016134c6565b61352f816134f0565b840191505092915050565b60008115159050919050565b61354f8161353a565b82525050565b60006101208301600083015161356e600086018261348c565b506020830151613581602086018261348c565b506040830151613594604086018261349b565b50606083015184820360608601526135ac8282613501565b915050608083015184820360808601526135c68282613501565b91505060a08301516135db60a086018261348c565b5060c08301516135ee60c0860182613546565b5060e083015161360160e086018261348c565b5061010083015161361661010086018261348c565b508091505092915050565b6000602082019050818103600083015261363b8184613555565b905092915050565b61364c81613354565b82525050565b600082825260208201905092915050565b600061366e826134aa565b6136788185613652565b93506136888185602086016134c6565b613691816134f0565b840191505092915050565b6040820160008201516136b2600085018261348c565b5060208201516136c5602085018261348c565b50505050565b6000610120820190506136e1600083018b613408565b6136ee602083018a613643565b81810360408301526137008189613663565b905081810360608301526137148188613663565b9050613723608083018761369c565b61373060c0830186613408565b61373d60e0830185613408565b61374b610100830184613408565b9998505050505050505050565b60408201600082015161376e600085018261348c565b506020820151613781602085018261348c565b50505050565b6000610120830160008301516137a0600086018261348c565b5060208301516137b3602086018261349b565b50604083015184820360408601526137cb8282613501565b915050606083015184820360608601526137e58282613501565b91505060808301516137fa6080860182613758565b5060a083015161380d60c086018261348c565b5060c083015161382060e086018261348c565b5060e083015161383461010086018261348c565b508091505092915050565b600060208201905081810360008301526138598184613787565b905092915050565b600080fd5b600080fd5b7f4e487b7100000000000000000000000000000000000000000000000000000000600052604160045260246000fd5b6138a3826134f0565b810181811067ffffffffffffffff821117156138c2576138c161386b565b5b80604052505050565b60006138d5613320565b90506138e1828261389a565b919050565b600067ffffffffffffffff8211156139015761390061386b565b5b61390a826134f0565b9050602081019050919050565b82818337600083830152505050565b6000613939613934846138e6565b6138cb565b90508281526020810184848401111561395557613954613866565b5b613960848285613917565b509392505050565b600082601f83011261397d5761397c613861565b5b813561398d848260208601613926565b91505092915050565b600080604083850312156139ad576139ac61332a565b5b60006139bb858286016133b3565b925050602083013567ffffffffffffffff8111156139dc576139db61332f565b5b6139e885828601613968565b9150509250929050565b6139fb8161353a565b82525050565b6000602082019050613a1660008301846139f2565b92915050565b60008060408385031215613a3357613a3261332a565b5b600083013567ffffffffffffffff811115613a5157613a5061332f565b5b613a5d85828601613968565b925050602083013567ffffffffffffffff811115613a7e57613a7d61332f565b5b613a8a85828601613968565b9150509250929050565b600081519050919050565b600082825260208201905092915050565b6000819050602082019050919050565b6000613acc838361348c565b60208301905092915050565b6000602082019050919050565b6000613af082613a94565b613afa8185613a9f565b9350613b0583613ab0565b8060005b83811015613b36578151613b1d8882613ac0565b9750613b2883613ad8565b925050600181019050613b09565b5085935050505092915050565b60006020820190508181036000830152613b5d8184613ae5565b905092915050565b6000602082019050613b7a6000830184613643565b92915050565b600080600060608486031215613b9957613b9861332a565b5b6000613ba7868287016133b3565b9350506020613bb8868287016133b3565b9250506040613bc9868287016133b3565b9150509250925092565b600061012082019050613be9600083018c613408565b613bf6602083018b613408565b613c03604083018a613643565b8181036060830152613c158189613663565b90508181036080830152613c298188613663565b9050613c3860a0830187613408565b613c4560c08301866139f2565b613c5260e0830185613408565b613c60610100830184613408565b9a9950505050505050505050565b7f4e6f7420616c6c6f7765642063616c6c65720000000000000000000000000000600082015250565b6000613ca4601283613652565b9150613caf82613c6e565b602082019050919050565b60006020820190508181036000830152613cd381613c97565b9050919050565b7f4e487b7100000000000000000000000000000000000000000000000000000000600052602260045260246000fd5b60006002820490506001821680613d2157607f821691505b602082108103613d3457613d33613cda565b5b50919050565b7f4e487b7100000000000000000000000000000000000000000000000000000000600052601160045260246000fd5b6000613d7482613392565b9150613d7f83613392565b9250828203905081811115613d9757613d96613d3a565b5b92915050565b6000606082019050613db26000830186613643565b613dbf6020830185613408565b613dcc6040830184613408565b949350505050565b7f4e487b7100000000000000000000000000000000000000000000000000000000600052602160045260246000fd5b600a8110613e1457613e13613dd4565b5b50565b6000819050613e2582613e03565b919050565b6000613e3582613e17565b9050919050565b613e4581613e2a565b82525050565b6000604082019050613e606000830185613e3c565b613e6d6020830184613643565b9392505050565b613e7d8161353a565b8114613e8857600080fd5b50565b600081519050613e9a81613e74565b92915050565b600060208284031215613eb657613eb561332a565b5b6000613ec484828501613e8b565b91505092915050565b7f506f6f6c206f6e6c7920746f20646576656c6f70657200000000000000000000600082015250565b6000613f03601683613652565b9150613f0e82613ecd565b602082019050919050565b60006020820190508181036000830152613f3281613ef6565b9050919050565b7f43616e277420617070726f766520776974686472617700000000000000000000600082015250565b6000613f6f601683613652565b9150613f7a82613f39565b602082019050919050565b60006020820190508181036000830152613f9e81613f62565b9050919050565b6000613fb082613392565b91507fffffffffffffffffffffffffffffffffffffffffffffffffffffffffffffffff8203613fe257613fe1613d3a565b5b600182019050919050565b60006040820190506140026000830185613643565b61400f6020830184613408565b9392505050565b6000819050919050565b61402981614016565b811461403457600080fd5b50565b60008151905061404681614020565b92915050565b6000602082840312156140625761406161332a565b5b600061407084828501614037565b91505092915050565b7f506c656173652072656769737465722061732076616c696461746f7200000000600082015250565b60006140af601c83613652565b91506140ba82614079565b602082019050919050565b600060208201905081810360008301526140de816140a2565b9050919050565b7f54686973207265706f7274206973206e6f742056414c49440000000000000000600082015250565b600061411b601883613652565b9150614126826140e5565b602082019050919050565b6000602082019050818103600083015261414a8161410e565b9050919050565b600061415c82613392565b915061416783613392565b925082820190508082111561417f5761417e613d3a565b5b92915050565b60008190508160005260206000209050919050565b60006020601f8301049050919050565b600082821b905092915050565b6000600883026141e77fffffffffffffffffffffffffffffffffffffffffffffffffffffffffffffffff826141aa565b6141f186836141aa565b95508019841693508086168417925050509392505050565b6000819050919050565b600061422e61422961422484613392565b614209565b613392565b9050919050565b6000819050919050565b61424883614213565b61425c61425482614235565b8484546141b7565b825550505050565b600090565b614271614264565b61427c81848461423f565b505050565b5b818110156142a057614295600082614269565b600181019050614282565b5050565b601f8211156142e5576142b681614185565b6142bf8461419a565b810160208510156142ce578190505b6142e26142da8561419a565b830182614281565b50505b505050565b600082821c905092915050565b6000614308600019846008026142ea565b1980831691505092915050565b600061432183836142f7565b9150826002028217905092915050565b61433a826134aa565b67ffffffffffffffff8111156143535761435261386b565b5b61435d8254613d09565b6143688282856142a4565b600060209050601f83116001811461439b5760008415614389578287015190505b6143938582614315565b8655506143fb565b601f1984166143a986614185565b60005b828110156143d1578489015182556001820191506020850194506020810190506143ac565b868310156143ee57848901516143ea601f8916826142f7565b8355505b6001600288020188555050505b505050505050565b6000815190506144128161339c565b92915050565b60006020828403121561442e5761442d61332a565b5b600061443c84828501614403565b91505092915050565b6000606082019050818103600083015261445f8186613555565b905081810360208301526144738185613663565b90506144826040830184613643565b949350505050565b7f4f6e6c7920446576656c6f706572000000000000000000000000000000000000600082015250565b60006144c0600e83613652565b91506144cb8261448a565b602082019050919050565b600060208201905081810360008301526144ef816144b3565b9050919050565b7f5761697420756e74696c206e6578742065726120746f20616464207265706f7260008201527f7400000000000000000000000000000000000000000000000000000000000000602082015250565b6000614552602183613652565b915061455d826144f6565b604082019050919050565b6000602082019050818103600083015261458181614545565b9050919050565b7f43616e2774207075626c69736820796574000000000000000000000000000000600082015250565b60006145be601183613652565b91506145c982614588565b602082019050919050565b600060208201905081810360008301526145ed816145b1565b9050919050565b60006020820190506146096000830184613e3c565b92915050565b60006040820190506146246000830185613643565b6146316020830184613e3c565b9392505050565b7f4f776e61626c653a206e6577206f776e657220697320746865207a65726f206160008201527f6464726573730000000000000000000000000000000000000000000000000000602082015250565b6000614694602683613652565b915061469f82614638565b604082019050919050565b600060208201905081810360008301526146c381614687565b9050919050565b7f4f776e61626c653a2063616c6c6572206973206e6f7420746865206f776e6572600082015250565b6000614700602083613652565b915061470b826146ca565b602082019050919050565b6000602082019050818103600083015261472f816146f3565b9050919050565b600061474182613392565b91506000820361475457614753613d3a565b5b600182039050919050565b6000819050919050565b600061478461477f61477a8461475f565b614209565b613392565b9050919050565b61479481614769565b82525050565b60006040820190506147af6000830185613643565b6147bc602083018461478b565b9392505050565b7f4e487b7100000000000000000000000000000000000000000000000000000000600052601260045260246000fd5b60006147fd82613392565b915061480883613392565b925082614818576148176147c3565b5b82820490509291505056fea2646970667358221220aaa9bd393d550cd33f9b6aa08735539ab615af535b712f1a4f9554e69df1a83a64736f6c634300081b0033",
  "linkReferences": {},
  "deployedLinkReferences": {}
}