{
  "_format": "hh-sol-artifact-1",
  "contractName": "DeveloperPool",
  "sourceName": "contracts/DeveloperPool.sol",
  "abi": [
    {
      "inputs": [
        {
          "internalType": "address",
          "name": "regenerationCreditAddress",
          "type": "address"
        },
        {
          "internalType": "uint256",
          "name": "_halving",
          "type": "uint256"
        },
        {
          "internalType": "uint256",
          "name": "_blocksPerEra",
          "type": "uint256"
        }
      ],
      "stateMutability": "nonpayable",
      "type": "constructor"
    },
    {
      "anonymous": false,
      "inputs": [
        {
          "indexed": true,
          "internalType": "address",
          "name": "previousOwner",
          "type": "address"
        },
        {
          "indexed": true,
          "internalType": "address",
          "name": "newOwner",
          "type": "address"
        }
      ],
      "name": "OwnershipTransferred",
      "type": "event"
    },
    {
      "inputs": [],
      "name": "BLOCKS_PRECISION",
      "outputs": [
        {
          "internalType": "uint256",
          "name": "",
          "type": "uint256"
        }
      ],
      "stateMutability": "view",
      "type": "function"
    },
    {
      "inputs": [
        {
          "internalType": "address",
          "name": "addr",
          "type": "address"
        },
        {
          "internalType": "uint256",
          "name": "levels",
          "type": "uint256"
        }
      ],
      "name": "addLevel",
      "outputs": [],
      "stateMutability": "nonpayable",
      "type": "function"
    },
    {
      "inputs": [
        {
          "internalType": "address",
          "name": "",
          "type": "address"
        }
      ],
      "name": "allowedCallers",
      "outputs": [
        {
          "internalType": "bool",
          "name": "",
          "type": "bool"
        }
      ],
      "stateMutability": "view",
      "type": "function"
    },
    {
      "inputs": [
        {
          "internalType": "uint256",
          "name": "currentUserEra",
          "type": "uint256"
        }
      ],
      "name": "canWithdraw",
      "outputs": [
        {
          "internalType": "bool",
          "name": "",
          "type": "bool"
        }
      ],
      "stateMutability": "view",
      "type": "function"
    },
    {
      "inputs": [
        {
          "internalType": "uint256",
          "name": "currentUserEra",
          "type": "uint256"
        }
      ],
      "name": "canWithdrawTimes",
      "outputs": [
        {
          "internalType": "uint256",
          "name": "",
          "type": "uint256"
        }
      ],
      "stateMutability": "view",
      "type": "function"
    },
    {
      "inputs": [],
      "name": "currentContractEra",
      "outputs": [
        {
          "internalType": "uint256",
          "name": "",
          "type": "uint256"
        }
      ],
      "stateMutability": "view",
      "type": "function"
    },
    {
      "inputs": [],
      "name": "currentEpoch",
      "outputs": [
        {
          "internalType": "uint256",
          "name": "",
          "type": "uint256"
        }
      ],
      "stateMutability": "view",
      "type": "function"
    },
    {
      "inputs": [
        {
          "internalType": "uint256",
          "name": "era",
          "type": "uint256"
        }
      ],
      "name": "currentUserEpoch",
      "outputs": [
        {
          "internalType": "uint256",
          "name": "",
          "type": "uint256"
        }
      ],
      "stateMutability": "view",
      "type": "function"
    },
    {
      "inputs": [
        {
          "internalType": "uint256",
          "name": "",
          "type": "uint256"
        },
        {
          "internalType": "address",
          "name": "",
          "type": "address"
        }
      ],
      "name": "eraLevels",
      "outputs": [
        {
          "internalType": "uint256",
          "name": "",
          "type": "uint256"
        }
      ],
      "stateMutability": "view",
      "type": "function"
    },
    {
      "inputs": [
        {
          "internalType": "uint256",
          "name": "",
          "type": "uint256"
        },
        {
          "internalType": "address",
          "name": "",
          "type": "address"
        }
      ],
      "name": "eraTokens",
      "outputs": [
        {
          "internalType": "uint256",
          "name": "",
          "type": "uint256"
        }
      ],
      "stateMutability": "view",
      "type": "function"
    },
    {
      "inputs": [
        {
          "internalType": "uint256",
          "name": "",
          "type": "uint256"
        }
      ],
      "name": "eras",
      "outputs": [
        {
          "internalType": "uint256",
          "name": "users",
          "type": "uint256"
        },
        {
          "internalType": "uint256",
          "name": "tokens",
          "type": "uint256"
        },
        {
          "internalType": "uint256",
          "name": "levels",
          "type": "uint256"
        }
      ],
      "stateMutability": "view",
      "type": "function"
    },
    {
      "inputs": [
        {
          "internalType": "uint256",
          "name": "era",
          "type": "uint256"
        }
      ],
      "name": "getEra",
      "outputs": [
        {
          "components": [
            {
              "internalType": "uint256",
              "name": "users",
              "type": "uint256"
            },
            {
              "internalType": "uint256",
              "name": "tokens",
              "type": "uint256"
            },
            {
              "internalType": "uint256",
              "name": "levels",
              "type": "uint256"
            }
          ],
          "internalType": "struct Era",
          "name": "",
          "type": "tuple"
        }
      ],
      "stateMutability": "view",
      "type": "function"
    },
    {
      "inputs": [
        {
          "internalType": "address",
          "name": "delegate",
          "type": "address"
        },
        {
          "internalType": "uint256",
          "name": "era",
          "type": "uint256"
        }
      ],
      "name": "haveTokensToWithdraw",
      "outputs": [
        {
          "internalType": "bool",
          "name": "",
          "type": "bool"
        }
      ],
      "stateMutability": "view",
      "type": "function"
    },
    {
      "inputs": [
        {
          "internalType": "address",
          "name": "caller",
          "type": "address"
        }
      ],
      "name": "isAllowedCaller",
      "outputs": [
        {
          "internalType": "bool",
          "name": "",
          "type": "bool"
        }
      ],
      "stateMutability": "view",
      "type": "function"
    },
    {
      "inputs": [
        {
          "internalType": "address",
          "name": "allowed",
          "type": "address"
        }
      ],
      "name": "newAllowedCaller",
      "outputs": [],
      "stateMutability": "nonpayable",
      "type": "function"
    },
    {
      "inputs": [
        {
          "internalType": "uint256",
          "name": "currentUserEra",
          "type": "uint256"
        }
      ],
      "name": "nextEraIn",
      "outputs": [
        {
          "internalType": "int256",
          "name": "",
          "type": "int256"
        }
      ],
      "stateMutability": "view",
      "type": "function"
    },
    {
      "inputs": [],
      "name": "owner",
      "outputs": [
        {
          "internalType": "address",
          "name": "",
          "type": "address"
        }
      ],
      "stateMutability": "view",
      "type": "function"
    },
    {
      "inputs": [
        {
          "internalType": "address",
          "name": "addr",
          "type": "address"
        },
        {
          "internalType": "uint256",
          "name": "era",
          "type": "uint256"
        },
        {
          "internalType": "uint256",
          "name": "removeSomeLevels",
          "type": "uint256"
        }
      ],
      "name": "removePoolLevels",
      "outputs": [],
      "stateMutability": "nonpayable",
      "type": "function"
    },
    {
      "inputs": [],
      "name": "renounceOwnership",
      "outputs": [],
      "stateMutability": "nonpayable",
      "type": "function"
    },
    {
      "inputs": [
        {
          "internalType": "uint256",
          "name": "currentEpoch",
          "type": "uint256"
        }
      ],
      "name": "tokensPerEpoch",
      "outputs": [
        {
          "internalType": "uint256",
          "name": "",
          "type": "uint256"
        }
      ],
      "stateMutability": "view",
      "type": "function"
    },
    {
      "inputs": [
        {
          "internalType": "uint256",
          "name": "currentEpoch",
          "type": "uint256"
        },
        {
          "internalType": "uint256",
          "name": "halving",
          "type": "uint256"
        }
      ],
      "name": "tokensPerEra",
      "outputs": [
        {
          "internalType": "uint256",
          "name": "",
          "type": "uint256"
        }
      ],
      "stateMutability": "view",
      "type": "function"
    },
    {
      "inputs": [
        {
          "internalType": "address",
          "name": "newOwner",
          "type": "address"
        }
      ],
      "name": "transferOwnership",
      "outputs": [],
      "stateMutability": "nonpayable",
      "type": "function"
    },
    {
      "inputs": [
        {
          "internalType": "address",
          "name": "delegate",
          "type": "address"
        },
        {
          "internalType": "uint256",
          "name": "era",
          "type": "uint256"
        }
      ],
      "name": "withdraw",
      "outputs": [],
      "stateMutability": "nonpayable",
      "type": "function"
    }
  ],
  "bytecode": "0x61010060405234801561001157600080fd5b5060405161203438038061203483398181016040528101906100339190610245565b80826a211654585005212800000080608081815250505061006661005b6100d660201b60201c565b6100de60201b60201c565b8160a0818152505061007c6101a460201b60201c565b60c081815250508060e08181525050505082600560006101000a81548173ffffffffffffffffffffffffffffffffffffffff021916908373ffffffffffffffffffffffffffffffffffffffff160217905550505050610298565b600033905090565b6000600360009054906101000a900473ffffffffffffffffffffffffffffffffffffffff16905081600360006101000a81548173ffffffffffffffffffffffffffffffffffffffff021916908373ffffffffffffffffffffffffffffffffffffffff1602179055508173ffffffffffffffffffffffffffffffffffffffff168173ffffffffffffffffffffffffffffffffffffffff167f8be0079c531659141344cd1fd0a4f28419497f9722a3daafe3b4186f6b6457e060405160405180910390a35050565b600043905090565b600080fd5b600073ffffffffffffffffffffffffffffffffffffffff82169050919050565b60006101dc826101b1565b9050919050565b6101ec816101d1565b81146101f757600080fd5b50565b600081519050610209816101e3565b92915050565b6000819050919050565b6102228161020f565b811461022d57600080fd5b50565b60008151905061023f81610219565b92915050565b60008060006060848603121561025e5761025d6101ac565b5b600061026c868287016101fa565b935050602061027d86828701610230565b925050604061028e86828701610230565b9150509250925092565b60805160a05160c05160e051611d396102fb600039600081816104e8015281816107650152818161096b0152610c130152600081816109e60152610a500152600081816107d3015281816109bb0152610a2c015260006105f50152611d396000f3fe608060405234801561001057600080fd5b506004361061014d5760003560e01c8063861b4ce1116100c3578063d5ee3eb51161007c578063d5ee3eb5146103ec578063ed0df79e1461041c578063f2fde38b1461043a578063f3fef3a314610456578063fbe85f0614610472578063ff39043c146104a25761014d565b8063861b4ce11461030457806388b3acae146103225780638da5cb5b146103525780638f93716f14610370578063a68012581461038c578063b3cc6d99146103bc5761014d565b806352b8d3ed1161011557806352b8d3ed1461022e578063715018a61461024a578063720a70bd1461025457806376671808146102865780637721f1b5146102a45780637b334154146102d45761014d565b80630f2dbe6014610152578063157ffc52146101825780631f14f4151461019e5780632506b932146101ce5780632eedcb18146101fe575b600080fd5b61016c600480360381019061016791906113d1565b6104d2565b604051610179919061142c565b60405180910390f35b61019c60048036038101906101979190611447565b610520565b005b6101b860048036038101906101b3919061149a565b6105bc565b6040516101c591906114e9565b60405180910390f35b6101e860048036038101906101e39190611504565b6105e1565b6040516101f591906114e9565b60405180910390f35b61021860048036038101906102139190611504565b610629565b6040516102259190611582565b60405180910390f35b610248600480360381019061024391906113d1565b610673565b005b61025261071b565b005b61026e60048036038101906102699190611504565b61072f565b60405161027d9392919061159d565b60405180910390f35b61028e610759565b60405161029b91906114e9565b60405180910390f35b6102be60048036038101906102b99190611504565b6107ad565b6040516102cb91906114e9565b60405180910390f35b6102ee60048036038101906102e991906115d4565b610832565b6040516102fb919061142c565b60405180910390f35b61030c610852565b60405161031991906114e9565b60405180910390f35b61033c60048036038101906103379190611601565b610857565b60405161034991906114e9565b60405180910390f35b61035a61087c565b6040516103679190611650565b60405180910390f35b61038a600480360381019061038591906115d4565b6108a6565b005b6103a660048036038101906103a191906115d4565b610909565b6040516103b3919061142c565b60405180910390f35b6103d660048036038101906103d19190611504565b61095f565b6040516103e391906114e9565b60405180910390f35b61040660048036038101906104019190611504565b6109ae565b6040516104139190611684565b60405180910390f35b610424610a20565b60405161043191906114e9565b60405180910390f35b610454600480360381019061044f91906115d4565b610aa6565b005b610470600480360381019061046b91906113d1565b610b29565b005b61048c60048036038101906104879190611504565b610cef565b604051610499919061142c565b60405180910390f35b6104bc60048036038101906104b79190611601565b610d02565b6040516104c991906114e9565b60405180910390f35b600080610511838561050c6104e68761095f565b7f00000000000000000000000000000000000000000000000000000000000000006105bc565b610d27565b90506000811191505092915050565b600460003373ffffffffffffffffffffffffffffffffffffffff1673ffffffffffffffffffffffffffffffffffffffff16815260200190815260200160002060009054906101000a900460ff166105ac576040517f08c379a00000000000000000000000000000000000000000000000000000000081526004016105a3906116fc565b60405180910390fd5b6105b7838383610ddb565b505050565b60006105d9826105cb856105e1565b610e6490919063ffffffff16565b905092915050565b60006106228260026105f3919061187e565b7f0000000000000000000000000000000000000000000000000000000000000000610e6490919063ffffffff16565b9050919050565b610631611317565b60008083815260200190815260200160002060405180606001604052908160008201548152602001600182015481526020016002820154815250509050919050565b600460003373ffffffffffffffffffffffffffffffffffffffff1673ffffffffffffffffffffffffffffffffffffffff16815260200190815260200160002060009054906101000a900460ff166106ff576040517f08c379a00000000000000000000000000000000000000000000000000000000081526004016106f6906116fc565b60405180910390fd5b6000610709610a20565b9050610716838383610e7a565b505050565b610723610f27565b61072d6000610fa5565b565b60006020528060005260406000206000915090508060000154908060010154908060020154905083565b60006107a8600161079a7f000000000000000000000000000000000000000000000000000000000000000061078c610a20565b610e6490919063ffffffff16565b61106b90919063ffffffff16565b905090565b6000806107b9836109ae565b905060008113156107ce57600091505061082d565b6108297f000000000000000000000000000000000000000000000000000000000000000061081b6005600a610803919061187e565b8461080d906118c9565b61108190919063ffffffff16565b610e6490919063ffffffff16565b9150505b919050565b60046020528060005260406000206000915054906101000a900460ff1681565b600581565b6001602052816000526040600020602052806000526040600020600091509150505481565b6000600360009054906101000a900473ffffffffffffffffffffffffffffffffffffffff16905090565b6108ae610f27565b6001600460008373ffffffffffffffffffffffffffffffffffffffff1673ffffffffffffffffffffffffffffffffffffffff16815260200190815260200160002060006101000a81548160ff02191690831515021790555050565b6000600460008373ffffffffffffffffffffffffffffffffffffffff1673ffffffffffffffffffffffffffffffffffffffff16815260200190815260200160002060009054906101000a900460ff169050919050565b60006109a760016109997f000000000000000000000000000000000000000000000000000000000000000085610e6490919063ffffffff16565b61106b90919063ffffffff16565b9050919050565b60006109b8611097565b827f00000000000000000000000000000000000000000000000000000000000000006109e49190611911565b7f0000000000000000000000000000000000000000000000000000000000000000610a0f9190611989565b610a1991906119cd565b9050919050565b6000610aa16001610a937f0000000000000000000000000000000000000000000000000000000000000000610a857f0000000000000000000000000000000000000000000000000000000000000000610a77611097565b61109f90919063ffffffff16565b610e6490919063ffffffff16565b61106b90919063ffffffff16565b905090565b610aae610f27565b600073ffffffffffffffffffffffffffffffffffffffff168173ffffffffffffffffffffffffffffffffffffffff1603610b1d576040517f08c379a0000000000000000000000000000000000000000000000000000000008152600401610b1490611a82565b60405180910390fd5b610b2681610fa5565b50565b600460003373ffffffffffffffffffffffffffffffffffffffff1673ffffffffffffffffffffffffffffffffffffffff16815260200190815260200160002060009054906101000a900460ff16610bb5576040517f08c379a0000000000000000000000000000000000000000000000000000000008152600401610bac906116fc565b60405180910390fd5b80610bbf81610cef565b610bfe576040517f08c379a0000000000000000000000000000000000000000000000000000000008152600401610bf590611aee565b60405180910390fd5b6000610c3c8385610c37610c118761095f565b7f00000000000000000000000000000000000000000000000000000000000000006105bc565b610d27565b9050610c498385836110b5565b60008103610c575750610cea565b600560009054906101000a900473ffffffffffffffffffffffffffffffffffffffff1673ffffffffffffffffffffffffffffffffffffffff1663a2c7670e3086846040518463ffffffff1660e01b8152600401610cb693929190611b0e565b600060405180830381600087803b158015610cd057600080fd5b505af1158015610ce4573d6000803e3d6000fd5b50505050505b505050565b6000610cf9610a20565b82109050919050565b6002602052816000526040600020602052806000526040600020600091509150505481565b60008060008086815260200190815260200160002060020154905060006001600087815260200190815260200160002060008673ffffffffffffffffffffffffffffffffffffffff1673ffffffffffffffffffffffffffffffffffffffff16815260200190815260200160002054905060008103610daa57600092505050610dd4565b610dcf82610dc1868461108190919063ffffffff16565b610e6490919063ffffffff16565b925050505b9392505050565b60006001600084815260200190815260200160002060008573ffffffffffffffffffffffffffffffffffffffff1673ffffffffffffffffffffffffffffffffffffffff16815260200190815260200160002054905060008103610e3e5750610e5f565b6000808311610e4d5781610e4f565b825b9050610e5c858583611166565b50505b505050565b60008183610e729190611b74565b905092915050565b610ea2826000808481526020019081526020016000206002015461106b90919063ffffffff16565b60008083815260200190815260200160002060020181905550816001600083815260200190815260200160002060008573ffffffffffffffffffffffffffffffffffffffff1673ffffffffffffffffffffffffffffffffffffffff1681526020019081526020016000206000828254610f1b9190611ba5565b92505081905550505050565b610f2f61130f565b73ffffffffffffffffffffffffffffffffffffffff16610f4d61087c565b73ffffffffffffffffffffffffffffffffffffffff1614610fa3576040517f08c379a0000000000000000000000000000000000000000000000000000000008152600401610f9a90611c25565b60405180910390fd5b565b6000600360009054906101000a900473ffffffffffffffffffffffffffffffffffffffff16905081600360006101000a81548173ffffffffffffffffffffffffffffffffffffffff021916908373ffffffffffffffffffffffffffffffffffffffff1602179055508173ffffffffffffffffffffffffffffffffffffffff168173ffffffffffffffffffffffffffffffffffffffff167f8be0079c531659141344cd1fd0a4f28419497f9722a3daafe3b4186f6b6457e060405160405180910390a35050565b600081836110799190611ba5565b905092915050565b6000818361108f9190611c45565b905092915050565b600043905090565b600081836110ad9190611c87565b905092915050565b60008084815260200190815260200160002060000160008154809291906110db90611cbb565b91905055508060008085815260200190815260200160002060010160008282546111059190611ba5565b92505081905550806002600085815260200190815260200160002060008473ffffffffffffffffffffffffffffffffffffffff1673ffffffffffffffffffffffffffffffffffffffff16815260200190815260200160002081905550505050565b6001600083815260200190815260200160002060008473ffffffffffffffffffffffffffffffffffffffff1673ffffffffffffffffffffffffffffffffffffffff16815260200190815260200160002054811115611212576001600083815260200190815260200160002060008473ffffffffffffffffffffffffffffffffffffffff1673ffffffffffffffffffffffffffffffffffffffff1681526020019081526020016000205490505b61123a816000808581526020019081526020016000206002015461109f90919063ffffffff16565b600080848152602001908152602001600020600201819055506112b6816001600085815260200190815260200160002060008673ffffffffffffffffffffffffffffffffffffffff1673ffffffffffffffffffffffffffffffffffffffff1681526020019081526020016000205461109f90919063ffffffff16565b6001600084815260200190815260200160002060008573ffffffffffffffffffffffffffffffffffffffff1673ffffffffffffffffffffffffffffffffffffffff16815260200190815260200160002081905550505050565b600033905090565b60405180606001604052806000815260200160008152602001600081525090565b600080fd5b600073ffffffffffffffffffffffffffffffffffffffff82169050919050565b60006113688261133d565b9050919050565b6113788161135d565b811461138357600080fd5b50565b6000813590506113958161136f565b92915050565b6000819050919050565b6113ae8161139b565b81146113b957600080fd5b50565b6000813590506113cb816113a5565b92915050565b600080604083850312156113e8576113e7611338565b5b60006113f685828601611386565b9250506020611407858286016113bc565b9150509250929050565b60008115159050919050565b61142681611411565b82525050565b6000602082019050611441600083018461141d565b92915050565b6000806000606084860312156114605761145f611338565b5b600061146e86828701611386565b935050602061147f868287016113bc565b9250506040611490868287016113bc565b9150509250925092565b600080604083850312156114b1576114b0611338565b5b60006114bf858286016113bc565b92505060206114d0858286016113bc565b9150509250929050565b6114e38161139b565b82525050565b60006020820190506114fe60008301846114da565b92915050565b60006020828403121561151a57611519611338565b5b6000611528848285016113bc565b91505092915050565b61153a8161139b565b82525050565b6060820160008201516115566000850182611531565b5060208201516115696020850182611531565b50604082015161157c6040850182611531565b50505050565b60006060820190506115976000830184611540565b92915050565b60006060820190506115b260008301866114da565b6115bf60208301856114da565b6115cc60408301846114da565b949350505050565b6000602082840312156115ea576115e9611338565b5b60006115f884828501611386565b91505092915050565b6000806040838503121561161857611617611338565b5b6000611626858286016113bc565b925050602061163785828601611386565b9150509250929050565b61164a8161135d565b82525050565b60006020820190506116656000830184611641565b92915050565b6000819050919050565b61167e8161166b565b82525050565b60006020820190506116996000830184611675565b92915050565b600082825260208201905092915050565b7f4e6f7420616c6c6f7765642063616c6c65720000000000000000000000000000600082015250565b60006116e660128361169f565b91506116f1826116b0565b602082019050919050565b60006020820190508181036000830152611715816116d9565b9050919050565b7f4e487b7100000000000000000000000000000000000000000000000000000000600052601160045260246000fd5b60008160011c9050919050565b6000808291508390505b60018511156117a25780860481111561177e5761177d61171c565b5b600185161561178d5780820291505b808102905061179b8561174b565b9450611762565b94509492505050565b6000826117bb5760019050611877565b816117c95760009050611877565b81600181146117df57600281146117e957611818565b6001915050611877565b60ff8411156117fb576117fa61171c565b5b8360020a9150848211156118125761181161171c565b5b50611877565b5060208310610133831016604e8410600b841016171561184d5782820a9050838111156118485761184761171c565b5b611877565b61185a8484846001611758565b925090508184048111156118715761187061171c565b5b81810290505b9392505050565b60006118898261139b565b91506118948361139b565b92506118c17fffffffffffffffffffffffffffffffffffffffffffffffffffffffffffffffff84846117ab565b905092915050565b60006118d48261166b565b91507f800000000000000000000000000000000000000000000000000000000000000082036119065761190561171c565b5b816000039050919050565b600061191c8261166b565b91506119278361166b565b92508282026119358161166b565b91507f8000000000000000000000000000000000000000000000000000000000000000841460008412161561196d5761196c61171c565b5b82820584148315176119825761198161171c565b5b5092915050565b60006119948261166b565b915061199f8361166b565b9250828201905082811215600083121683821260008412151617156119c7576119c661171c565b5b92915050565b60006119d88261166b565b91506119e38361166b565b9250828203905081811260008412168282136000851215161715611a0a57611a0961171c565b5b92915050565b7f4f776e61626c653a206e6577206f776e657220697320746865207a65726f206160008201527f6464726573730000000000000000000000000000000000000000000000000000602082015250565b6000611a6c60268361169f565b9150611a7782611a10565b604082019050919050565b60006020820190508181036000830152611a9b81611a5f565b9050919050565b7f596f752063616e277420617070726f7665207965740000000000000000000000600082015250565b6000611ad860158361169f565b9150611ae382611aa2565b602082019050919050565b60006020820190508181036000830152611b0781611acb565b9050919050565b6000606082019050611b236000830186611641565b611b306020830185611641565b611b3d60408301846114da565b949350505050565b7f4e487b7100000000000000000000000000000000000000000000000000000000600052601260045260246000fd5b6000611b7f8261139b565b9150611b8a8361139b565b925082611b9a57611b99611b45565b5b828204905092915050565b6000611bb08261139b565b9150611bbb8361139b565b9250828201905080821115611bd357611bd261171c565b5b92915050565b7f4f776e61626c653a2063616c6c6572206973206e6f7420746865206f776e6572600082015250565b6000611c0f60208361169f565b9150611c1a82611bd9565b602082019050919050565b60006020820190508181036000830152611c3e81611c02565b9050919050565b6000611c508261139b565b9150611c5b8361139b565b9250828202611c698161139b565b91508282048414831517611c8057611c7f61171c565b5b5092915050565b6000611c928261139b565b9150611c9d8361139b565b9250828203905081811115611cb557611cb461171c565b5b92915050565b6000611cc68261139b565b91507fffffffffffffffffffffffffffffffffffffffffffffffffffffffffffffffff8203611cf857611cf761171c565b5b60018201905091905056fea2646970667358221220882c533a2fcfb1de07415b8ecb541f908b5d32772e6ca24cbd6d04e7a50fb80b64736f6c634300081b0033",
  "linkReferences": {},
  "deployedLinkReferences": {}
}