{
  "_format": "hh-sol-artifact-1",
  "contractName": "DeveloperRules",
  "sourceName": "contracts/DeveloperRules.sol",
  "abi": [
    {
      "inputs": [
        {
          "internalType": "uint32",
          "name": "timeBetweenWorks_",
          "type": "uint32"
        },
        {
          "internalType": "uint8",
          "name": "maxPenalties_",
          "type": "uint8"
        },
        {
          "internalType": "uint32",
          "name": "securityBlocksToValidation_",
          "type": "uint32"
        }
      ],
      "stateMutability": "nonpayable",
      "type": "constructor"
    },
    {
      "anonymous": false,
      "inputs": [
        {
          "indexed": true,
          "internalType": "address",
          "name": "developerAddress",
          "type": "address"
        },
        {
          "indexed": false,
          "internalType": "uint256",
          "name": "newLevel",
          "type": "uint256"
        },
        {
          "indexed": false,
          "internalType": "uint256",
          "name": "blockNumber",
          "type": "uint256"
        }
      ],
      "name": "DeveloperLevelIncreased",
      "type": "event"
    },
    {
      "anonymous": false,
      "inputs": [
        {
          "indexed": true,
          "internalType": "address",
          "name": "developerAddress",
          "type": "address"
        },
        {
          "indexed": false,
          "internalType": "uint256",
          "name": "levelsRemoved",
          "type": "uint256"
        },
        {
          "indexed": false,
          "internalType": "uint256",
          "name": "newLevel",
          "type": "uint256"
        },
        {
          "indexed": false,
          "internalType": "uint256",
          "name": "blockNumber",
          "type": "uint256"
        }
      ],
      "name": "DeveloperLevelRemoved",
      "type": "event"
    },
    {
      "anonymous": false,
      "inputs": [
        {
          "indexed": true,
          "internalType": "uint256",
          "name": "id",
          "type": "uint256"
        },
        {
          "indexed": true,
          "internalType": "address",
          "name": "developerAddress",
          "type": "address"
        },
        {
          "indexed": false,
          "internalType": "string",
          "name": "name",
          "type": "string"
        },
        {
          "indexed": false,
          "internalType": "uint256",
          "name": "blockNumber",
          "type": "uint256"
        }
      ],
      "name": "DeveloperRegistered",
      "type": "event"
    },
    {
      "anonymous": false,
      "inputs": [
        {
          "indexed": true,
          "internalType": "address",
          "name": "developerAddress",
          "type": "address"
        },
        {
          "indexed": true,
          "internalType": "uint256",
          "name": "era",
          "type": "uint256"
        },
        {
          "indexed": false,
          "internalType": "uint256",
          "name": "blockNumber",
          "type": "uint256"
        }
      ],
      "name": "DeveloperWithdrawalInitiated",
      "type": "event"
    },
    {
      "anonymous": false,
      "inputs": [
        {
          "indexed": true,
          "internalType": "address",
          "name": "previousOwner",
          "type": "address"
        },
        {
          "indexed": true,
          "internalType": "address",
          "name": "newOwner",
          "type": "address"
        }
      ],
      "name": "OwnershipTransferred",
      "type": "event"
    },
    {
      "anonymous": false,
      "inputs": [
        {
          "indexed": true,
          "internalType": "address",
          "name": "developerAddress",
          "type": "address"
        },
        {
          "indexed": true,
          "internalType": "uint256",
          "name": "associatedReportId",
          "type": "uint256"
        },
        {
          "indexed": false,
          "internalType": "uint256",
          "name": "blockNumber",
          "type": "uint256"
        }
      ],
      "name": "PenaltyAdded",
      "type": "event"
    },
    {
      "anonymous": false,
      "inputs": [
        {
          "indexed": true,
          "internalType": "uint256",
          "name": "id",
          "type": "uint256"
        },
        {
          "indexed": true,
          "internalType": "address",
          "name": "developerAddress",
          "type": "address"
        },
        {
          "indexed": false,
          "internalType": "string",
          "name": "description",
          "type": "string"
        },
        {
          "indexed": false,
          "internalType": "uint256",
          "name": "blockNumber",
          "type": "uint256"
        }
      ],
      "name": "ReportAdded",
      "type": "event"
    },
    {
      "anonymous": false,
      "inputs": [
        {
          "indexed": true,
          "internalType": "uint64",
          "name": "reportId",
          "type": "uint64"
        },
        {
          "indexed": true,
          "internalType": "address",
          "name": "developerAddress",
          "type": "address"
        },
        {
          "indexed": false,
          "internalType": "string",
          "name": "justification",
          "type": "string"
        },
        {
          "indexed": false,
          "internalType": "uint256",
          "name": "newPenaltyCount",
          "type": "uint256"
        },
        {
          "indexed": false,
          "internalType": "uint256",
          "name": "blockNumber",
          "type": "uint256"
        }
      ],
      "name": "ReportInvalidated",
      "type": "event"
    },
    {
      "inputs": [],
      "name": "INITIAL_USER_COUNT_THRESHOLD",
      "outputs": [
        {
          "internalType": "uint256",
          "name": "",
          "type": "uint256"
        }
      ],
      "stateMutability": "view",
      "type": "function"
    },
    {
      "inputs": [],
      "name": "MAX_USER_COUNT",
      "outputs": [
        {
          "internalType": "uint16",
          "name": "",
          "type": "uint16"
        }
      ],
      "stateMutability": "view",
      "type": "function"
    },
    {
      "inputs": [
        {
          "internalType": "string",
          "name": "name",
          "type": "string"
        },
        {
          "internalType": "string",
          "name": "proofPhoto",
          "type": "string"
        }
      ],
      "name": "addDeveloper",
      "outputs": [],
      "stateMutability": "nonpayable",
      "type": "function"
    },
    {
      "inputs": [
        {
          "internalType": "address",
          "name": "addr",
          "type": "address"
        },
        {
          "internalType": "uint64",
          "name": "reportId",
          "type": "uint64"
        }
      ],
      "name": "addPenalty",
      "outputs": [
        {
          "internalType": "uint256",
          "name": "",
          "type": "uint256"
        }
      ],
      "stateMutability": "nonpayable",
      "type": "function"
    },
    {
      "inputs": [
        {
          "internalType": "string",
          "name": "description",
          "type": "string"
        },
        {
          "internalType": "string",
          "name": "report",
          "type": "string"
        }
      ],
      "name": "addReport",
      "outputs": [],
      "stateMutability": "nonpayable",
      "type": "function"
    },
    {
      "inputs": [
        {
          "internalType": "uint64",
          "name": "id",
          "type": "uint64"
        },
        {
          "internalType": "string",
          "name": "justification",
          "type": "string"
        }
      ],
      "name": "addReportValidation",
      "outputs": [],
      "stateMutability": "nonpayable",
      "type": "function"
    },
    {
      "inputs": [
        {
          "internalType": "address",
          "name": "",
          "type": "address"
        }
      ],
      "name": "allowedCallers",
      "outputs": [
        {
          "internalType": "bool",
          "name": "",
          "type": "bool"
        }
      ],
      "stateMutability": "view",
      "type": "function"
    },
    {
      "inputs": [
        {
          "internalType": "uint256",
          "name": "totalLevels",
          "type": "uint256"
        },
        {
          "internalType": "uint256",
          "name": "totalUsers",
          "type": "uint256"
        },
        {
          "internalType": "uint256",
          "name": "userLevels",
          "type": "uint256"
        }
      ],
      "name": "canInvite",
      "outputs": [
        {
          "internalType": "bool",
          "name": "",
          "type": "bool"
        }
      ],
      "stateMutability": "pure",
      "type": "function"
    },
    {
      "inputs": [
        {
          "internalType": "address",
          "name": "addr",
          "type": "address"
        }
      ],
      "name": "canPublishReport",
      "outputs": [
        {
          "internalType": "bool",
          "name": "",
          "type": "bool"
        }
      ],
      "stateMutability": "view",
      "type": "function"
    },
    {
      "inputs": [
        {
          "internalType": "address",
          "name": "addr",
          "type": "address"
        }
      ],
      "name": "canSendInvite",
      "outputs": [
        {
          "internalType": "bool",
          "name": "",
          "type": "bool"
        }
      ],
      "stateMutability": "view",
      "type": "function"
    },
    {
      "inputs": [
        {
          "internalType": "uint256",
          "name": "",
          "type": "uint256"
        }
      ],
      "name": "developersAddress",
      "outputs": [
        {
          "internalType": "address",
          "name": "",
          "type": "address"
        }
      ],
      "stateMutability": "view",
      "type": "function"
    },
    {
      "inputs": [
        {
          "internalType": "address",
          "name": "addr",
          "type": "address"
        }
      ],
      "name": "getDeveloper",
      "outputs": [
        {
          "components": [
            {
              "internalType": "uint64",
              "name": "id",
              "type": "uint64"
            },
            {
              "internalType": "address",
              "name": "developerWallet",
              "type": "address"
            },
            {
              "internalType": "string",
              "name": "name",
              "type": "string"
            },
            {
              "internalType": "string",
              "name": "proofPhoto",
              "type": "string"
            },
            {
              "components": [
                {
                  "internalType": "uint256",
                  "name": "level",
                  "type": "uint256"
                },
                {
                  "internalType": "uint256",
                  "name": "currentEra",
                  "type": "uint256"
                }
              ],
              "internalType": "struct Pool",
              "name": "pool",
              "type": "tuple"
            },
            {
              "internalType": "uint256",
              "name": "totalReports",
              "type": "uint256"
            },
            {
              "internalType": "uint256",
              "name": "createdAt",
              "type": "uint256"
            },
            {
              "internalType": "uint256",
              "name": "lastPublishedAt",
              "type": "uint256"
            }
          ],
          "internalType": "struct Developer",
          "name": "developer",
          "type": "tuple"
        }
      ],
      "stateMutability": "view",
      "type": "function"
    },
    {
      "inputs": [
        {
          "internalType": "uint64",
          "name": "id",
          "type": "uint64"
        }
      ],
      "name": "getReport",
      "outputs": [
        {
          "components": [
            {
              "internalType": "uint64",
              "name": "id",
              "type": "uint64"
            },
            {
              "internalType": "uint256",
              "name": "era",
              "type": "uint256"
            },
            {
              "internalType": "address",
              "name": "developer",
              "type": "address"
            },
            {
              "internalType": "string",
              "name": "description",
              "type": "string"
            },
            {
              "internalType": "string",
              "name": "report",
              "type": "string"
            },
            {
              "internalType": "uint256",
              "name": "validationsCount",
              "type": "uint256"
            },
            {
              "internalType": "bool",
              "name": "valid",
              "type": "bool"
            },
            {
              "internalType": "uint256",
              "name": "invalidatedAt",
              "type": "uint256"
            },
            {
              "internalType": "uint256",
              "name": "createdAtBlockNumber",
              "type": "uint256"
            }
          ],
          "internalType": "struct Report",
          "name": "",
          "type": "tuple"
        }
      ],
      "stateMutability": "view",
      "type": "function"
    },
    {
      "inputs": [
        {
          "internalType": "address",
          "name": "addr",
          "type": "address"
        }
      ],
      "name": "getReportsIds",
      "outputs": [
        {
          "internalType": "uint256[]",
          "name": "",
          "type": "uint256[]"
        }
      ],
      "stateMutability": "view",
      "type": "function"
    },
    {
      "inputs": [
        {
          "internalType": "address",
          "name": "caller",
          "type": "address"
        }
      ],
      "name": "isAllowedCaller",
      "outputs": [
        {
          "internalType": "bool",
          "name": "",
          "type": "bool"
        }
      ],
      "stateMutability": "view",
      "type": "function"
    },
    {
      "inputs": [],
      "name": "maxPenalties",
      "outputs": [
        {
          "internalType": "uint8",
          "name": "",
          "type": "uint8"
        }
      ],
      "stateMutability": "view",
      "type": "function"
    },
    {
      "inputs": [
        {
          "internalType": "address",
          "name": "allowed",
          "type": "address"
        }
      ],
      "name": "newAllowedCaller",
      "outputs": [],
      "stateMutability": "nonpayable",
      "type": "function"
    },
    {
      "inputs": [],
      "name": "nextEraIn",
      "outputs": [
        {
          "internalType": "uint256",
          "name": "",
          "type": "uint256"
        }
      ],
      "stateMutability": "view",
      "type": "function"
    },
    {
      "inputs": [],
      "name": "owner",
      "outputs": [
        {
          "internalType": "address",
          "name": "",
          "type": "address"
        }
      ],
      "stateMutability": "view",
      "type": "function"
    },
    {
      "inputs": [
        {
          "internalType": "address",
          "name": "",
          "type": "address"
        },
        {
          "internalType": "uint256",
          "name": "",
          "type": "uint256"
        }
      ],
      "name": "penalties",
      "outputs": [
        {
          "internalType": "uint64",
          "name": "reportId",
          "type": "uint64"
        }
      ],
      "stateMutability": "view",
      "type": "function"
    },
    {
      "inputs": [],
      "name": "poolCurrentEra",
      "outputs": [
        {
          "internalType": "uint256",
          "name": "",
          "type": "uint256"
        }
      ],
      "stateMutability": "view",
      "type": "function"
    },
    {
      "inputs": [
        {
          "internalType": "address",
          "name": "addr",
          "type": "address"
        },
        {
          "internalType": "uint256",
          "name": "levelsToRemove",
          "type": "uint256"
        }
      ],
      "name": "removePoolLevels",
      "outputs": [],
      "stateMutability": "nonpayable",
      "type": "function"
    },
    {
      "inputs": [],
      "name": "renounceOwnership",
      "outputs": [],
      "stateMutability": "nonpayable",
      "type": "function"
    },
    {
      "inputs": [
        {
          "internalType": "uint256",
          "name": "",
          "type": "uint256"
        }
      ],
      "name": "reports",
      "outputs": [
        {
          "internalType": "uint64",
          "name": "id",
          "type": "uint64"
        },
        {
          "internalType": "uint256",
          "name": "era",
          "type": "uint256"
        },
        {
          "internalType": "address",
          "name": "developer",
          "type": "address"
        },
        {
          "internalType": "string",
          "name": "description",
          "type": "string"
        },
        {
          "internalType": "string",
          "name": "report",
          "type": "string"
        },
        {
          "internalType": "uint256",
          "name": "validationsCount",
          "type": "uint256"
        },
        {
          "internalType": "bool",
          "name": "valid",
          "type": "bool"
        },
        {
          "internalType": "uint256",
          "name": "invalidatedAt",
          "type": "uint256"
        },
        {
          "internalType": "uint256",
          "name": "createdAtBlockNumber",
          "type": "uint256"
        }
      ],
      "stateMutability": "view",
      "type": "function"
    },
    {
      "inputs": [],
      "name": "reportsCount",
      "outputs": [
        {
          "internalType": "uint64",
          "name": "",
          "type": "uint64"
        }
      ],
      "stateMutability": "view",
      "type": "function"
    },
    {
      "inputs": [
        {
          "internalType": "address",
          "name": "",
          "type": "address"
        },
        {
          "internalType": "uint256",
          "name": "",
          "type": "uint256"
        }
      ],
      "name": "reportsIds",
      "outputs": [
        {
          "internalType": "uint256",
          "name": "",
          "type": "uint256"
        }
      ],
      "stateMutability": "view",
      "type": "function"
    },
    {
      "inputs": [],
      "name": "reportsTotalCount",
      "outputs": [
        {
          "internalType": "uint64",
          "name": "",
          "type": "uint64"
        }
      ],
      "stateMutability": "view",
      "type": "function"
    },
    {
      "inputs": [],
      "name": "securityBlocksToValidation",
      "outputs": [
        {
          "internalType": "uint32",
          "name": "",
          "type": "uint32"
        }
      ],
      "stateMutability": "view",
      "type": "function"
    },
    {
      "inputs": [
        {
          "components": [
            {
              "internalType": "address",
              "name": "communityRulesAddress",
              "type": "address"
            },
            {
              "internalType": "address",
              "name": "developerPoolAddress",
              "type": "address"
            },
            {
              "internalType": "address",
              "name": "validationRulesAddress",
              "type": "address"
            },
            {
              "internalType": "address",
              "name": "voteRulesAddress",
              "type": "address"
            }
          ],
          "internalType": "struct ContractsDependency",
          "name": "contractDependency",
          "type": "tuple"
        }
      ],
      "name": "setContractAddressDependencies",
      "outputs": [],
      "stateMutability": "nonpayable",
      "type": "function"
    },
    {
      "inputs": [],
      "name": "timeBetweenWorks",
      "outputs": [
        {
          "internalType": "uint32",
          "name": "",
          "type": "uint32"
        }
      ],
      "stateMutability": "view",
      "type": "function"
    },
    {
      "inputs": [
        {
          "internalType": "address",
          "name": "addr",
          "type": "address"
        }
      ],
      "name": "totalPenalties",
      "outputs": [
        {
          "internalType": "uint256",
          "name": "",
          "type": "uint256"
        }
      ],
      "stateMutability": "view",
      "type": "function"
    },
    {
      "inputs": [
        {
          "internalType": "address",
          "name": "newOwner",
          "type": "address"
        }
      ],
      "name": "transferOwnership",
      "outputs": [],
      "stateMutability": "nonpayable",
      "type": "function"
    },
    {
      "inputs": [],
      "name": "withdraw",
      "outputs": [],
      "stateMutability": "nonpayable",
      "type": "function"
    }
  ],
  "bytecode": "0x60e060405234801561001057600080fd5b5060405161324b38038061324b83398101604081905261002f916100c2565b61003833610059565b600160025563ffffffff92831660a05260ff9091166080521660c05261010d565b600080546001600160a01b038381166001600160a01b0319831681178455604051919092169283917f8be0079c531659141344cd1fd0a4f28419497f9722a3daafe3b4186f6b6457e09190a35050565b805163ffffffff811681146100bd57600080fd5b919050565b6000806000606084860312156100d757600080fd5b6100e0846100a9565b9250602084015160ff811681146100f657600080fd5b9150610104604085016100a9565b90509250925092565b60805160a05160c05161310161014a6000396000818161027c01526117560152600081816103690152611334015260006104c101526131016000f3fe608060405234801561001057600080fd5b50600436106101fb5760003560e01c80637a3e00661161011a578063b1e86655116100ad578063c77c1ce61161007c578063c77c1ce614610510578063c942adf714610523578063e05cf1551461054b578063f2fde38b14610553578063fa64d0f41461056657600080fd5b8063b1e86655146104a9578063b24eb769146104bc578063b432fdca146104f5578063be9dc5841461050857600080fd5b80638f93716f116100e95780638f93716f146104445780639e02b7bc146104575780639eaf666f1461046a578063a68012581461047d57600080fd5b80637a3e0066146103c95780637b334154146103dc5780638314e008146103ff5780638da5cb5b1461041f57600080fd5b806357382d38116101925780636b6c7c2d116101615780636b6c7c2d146103645780636ec7053a1461038b578063715018a6146103a757806374f7c429146103af57600080fd5b806357382d3814610306578063582256f1146103295780635fa71c281461033157806367e13ee01461034457600080fd5b806335c11677116101ce57806335c11677146102775780633ccfd60b146102b35780633e0c27f0146102bb57806356c8dc46146102e657600080fd5b8063178c823a1461020057806318ad5c9a146102155780632076267b146102285780632d68402e14610264575b600080fd5b61021361020e3660046128cc565b61058f565b005b610213610223366004612937565b610b93565b610251610236366004612961565b6001600160a01b031660009081526007602052604090205490565b6040519081526020015b60405180910390f35b61021361027236600461297c565b610e95565b61029e7f000000000000000000000000000000000000000000000000000000000000000081565b60405163ffffffff909116815260200161025b565b610213610efa565b6003546102ce906001600160401b031681565b6040516001600160401b03909116815260200161025b565b6102f96102f43660046129fa565b61115a565b60405161025b9190612b06565b610319610314366004612961565b61130d565b604051901515815260200161025b565b610251611370565b6102ce61033f366004612937565b6113f0565b610357610352366004612961565b611428565b60405161025b9190612b19565b61029e7f000000000000000000000000000000000000000000000000000000000000000081565b610394613e8081565b60405161ffff909116815260200161025b565b610213611630565b6003546102ce90600160401b90046001600160401b031681565b6102136103d7366004612bcc565b611642565b6103196103ea366004612961565b60016020526000908152604090205460ff1681565b61041261040d366004612961565b611a8a565b60405161025b9190612c1d565b6000546001600160a01b03165b6040516001600160a01b03909116815260200161025b565b610213610452366004612961565b611af6565b610213610465366004612bcc565b611b25565b610319610478366004612c60565b611e9d565b61031961048b366004612961565b6001600160a01b031660009081526001602052604090205460ff1690565b6102516104b7366004612c8c565b611ed4565b6104e37f000000000000000000000000000000000000000000000000000000000000000081565b60405160ff909116815260200161025b565b610251610503366004612937565b611fd6565b610251600581565b61031961051e366004612961565b612007565b610536610531366004612cc3565b612270565b60405161025b99989796959493929190612cdc565b6102516123e2565b610213610561366004612961565b61242c565b61042c610574366004612cc3565b6008602052600090815260409020546001600160a01b031681565b6105976124a5565b805161012c10156105e05760405162461bcd60e51b815260206004820152600e60248201526d4d6178206368617261637465727360901b60448201526064015b60405180910390fd5b600c546040516356fd539760e11b81523360048201526001600160a01b039091169063adfaa72e90602401602060405180830381865afa158015610628573d6000803e3d6000fd5b505050506040513d601f19601f8201168201806040525081019061064c9190612d50565b6106865760405162461bcd60e51b815260206004820152600b60248201526a2737ba1030903b37ba32b960a91b60448201526064016105d7565b600b54604051630d84466b60e21b81523360048201526001600160a01b039091169063361119ac90602401602060405180830381865afa1580156106ce573d6000803e3d6000fd5b505050506040513d601f19601f820116820180604052508101906106f29190612d50565b6107365760405162461bcd60e51b8152602060048201526015602482015274576169742074696d654265747765656e566f74657360581b60448201526064016105d7565b6001600160401b0380831660009081526005602090815260408083208151610120810183528154909516855260018101549285019290925260028201546001600160a01b03169084015260038101805492939260608401919061079890612d72565b80601f01602080910402602001604051908101604052809291908181526020018280546107c490612d72565b80156108115780601f106107e657610100808354040283529160200191610811565b820191906000526020600020905b8154815290600101906020018083116107f457829003601f168201915b5050505050815260200160048201805461082a90612d72565b80601f016020809104026020016040519081016040528092919081815260200182805461085690612d72565b80156108a35780601f10610878576101008083540402835291602001916108a3565b820191906000526020600020905b81548152906001019060200180831161088657829003601f168201915b505050918352505060058201546020820152600682015460ff16151560408201526007820154606082015260089091015460809091015260c081015190915080156108f8575080602001516108f66123e2565b145b6109445760405162461bcd60e51b815260206004820152601860248201527f54686973207265706f7274206973206e6f742056414c4944000000000000000060448201526064016105d7565b60018160a0018181516109579190612dc2565b9052506001600160401b038381166000908152600560209081526040918290208451815467ffffffffffffffff1916941693909317835583015160018301558201516002820180546001600160a01b0319166001600160a01b03909216919091179055606082015182919060038201906109d19082612e24565b50608082015160048201906109e69082612e24565b5060a0820151600582015560c082015160068201805460ff191691151591909117905560e0820151600782015561010090910151600890910155600b54604080516369bf81c360e01b815290516000926001600160a01b0316916369bf81c39160048083019260209291908290030181865afa158015610a6a573d6000803e3d6000fd5b505050506040513d601f19601f82011682018060405250810190610a8e9190612ee2565b60a08301511080159150610b1d57610aa5826124fc565b915081604001516001600160a01b0316846001600160401b03167fc8f57d3e72d524f64db8af866e01789df98c0b15a9b17be0e5482a282da0d96285610b0486604001516001600160a01b031660009081526007602052604090205490565b43604051610b1493929190612efb565b60405180910390a35b600b54604051630417a69d60e31b81526001600160a01b03909116906320bd34e890610b5190859087903390600401612f20565b600060405180830381600087803b158015610b6b57600080fd5b505af1158015610b7f573d6000803e3d6000fd5b505050505050610b8f6001600255565b5050565b3360009081526001602052604090205460ff16610be75760405162461bcd60e51b81526020600482015260126024820152712737ba1030b63637bbb2b21031b0b63632b960711b60448201526064016105d7565b6001600160a01b03808316600090815260046020908152604080832081516101008101835281546001600160401b0381168252600160401b90049095169285019290925260018201805493949391840191610c4190612d72565b80601f0160208091040260200160405190810160405280929190818152602001828054610c6d90612d72565b8015610cba5780601f10610c8f57610100808354040283529160200191610cba565b820191906000526020600020905b815481529060010190602001808311610c9d57829003601f168201915b50505050508152602001600282018054610cd390612d72565b80601f0160208091040260200160405190810160405280929190818152602001828054610cff90612d72565b8015610d4c5780601f10610d2157610100808354040283529160200191610d4c565b820191906000526020600020905b815481529060010190602001808311610d2f57829003601f168201915b505050918352505060408051808201825260038401548152600484015460208281019190915283015260058301549082015260068201546060820152600790910154608090910152905081610da657608081015151610da8565b815b6001600160a01b03841660009081526004602052604081206003018054909190610dd3908490612f5e565b9091555050600a54604051630c56ae4d60e11b81526001600160a01b03858116600483015260248201859052909116906318ad5c9a90604401600060405180830381600087803b158015610e2657600080fd5b505af1158015610e3a573d6000803e3d6000fd5b50505060808201515160408051858152602081019290925243908201526001600160a01b03851691507f2f77a8d1dc7c7ae55084a7c361d2e2d5a9460147845c3701d0149ad479f948cb9060600160405180910390a2505050565b610e9d61260c565b8051600980546001600160a01b03199081166001600160a01b03938416179091556020830151600a805483169184169190911790556040830151600b80548316918416919091179055606090920151600c80549093169116179055565b610f026124a5565b600954604051631292f8c160e31b81526001600160a01b0390911690639497c60890610f349060049033908201612f93565b602060405180830381865afa158015610f51573d6000803e3d6000fd5b505050506040513d601f19601f82011682018060405250810190610f759190612d50565b610fba5760405162461bcd60e51b81526020600482015260166024820152752837b7b61037b7363c903a37903232bb32b637b832b960511b60448201526064016105d7565b3360009081526004602081905260409182902080820154600a549351637df42f8360e11b8152928301819052909290916001600160a01b039091169063fbe85f0690602401602060405180830381865afa15801561101c573d6000803e3d6000fd5b505050506040513d601f19601f820116820180604052508101906110409190612d50565b61109a5760405162461bcd60e51b815260206004820152602560248201527f4e6f7420656c696769626c6520746f20776974686472617720666f7220746869604482015264732065726160d81b60648201526084016105d7565b6004820180549060006110ac83612fb9565b9091555050600a5460405163f3fef3a360e01b8152336004820152602481018390526001600160a01b039091169063f3fef3a390604401600060405180830381600087803b1580156110fd57600080fd5b505af1158015611111573d6000803e3d6000fd5b50506040514381528392503391507f11d89ae7aaa2574610bec036d7e590ae011e55c9029f09f608a225ffac2058619060200160405180910390a350506111586001600255565b565b6111626127b4565b6001600160401b038083166000908152600560209081526040918290208251610120810184528154909416845260018101549184019190915260028101546001600160a01b0316918301919091526003810180546060840191906111c590612d72565b80601f01602080910402602001604051908101604052809291908181526020018280546111f190612d72565b801561123e5780601f106112135761010080835404028352916020019161123e565b820191906000526020600020905b81548152906001019060200180831161122157829003601f168201915b5050505050815260200160048201805461125790612d72565b80601f016020809104026020016040519081016040528092919081815260200182805461128390612d72565b80156112d05780601f106112a5576101008083540402835291602001916112d0565b820191906000526020600020905b8154815290600101906020018083116112b357829003601f168201915b505050918352505060058201546020820152600682015460ff16151560408201526007820154606082015260089091015460809091015292915050565b6001600160a01b0381166000908152600460205260408120600701548161135a63ffffffff7f00000000000000000000000000000000000000000000000000000000000000001683612dc2565b431190508080611368575081155b949350505050565b600a546000906001600160a01b031663d5ee3eb561138c6123e2565b6040518263ffffffff1660e01b81526004016113aa91815260200190565b602060405180830381865afa1580156113c7573d6000803e3d6000fd5b505050506040513d601f19601f820116820180604052508101906113eb9190612ee2565b905090565b6007602052816000526040600020818154811061140c57600080fd5b6000918252602090912001546001600160401b03169150829050565b61147e604080516101008101825260008082526020808301829052606083850181905280840152835180850190945281845283015290608082019081526020016000815260200160008152602001600081525090565b6001600160a01b0380831660009081526004602090815260409182902082516101008101845281546001600160401b0381168252600160401b90049094169184019190915260018101805491928401916114d790612d72565b80601f016020809104026020016040519081016040528092919081815260200182805461150390612d72565b80156115505780601f1061152557610100808354040283529160200191611550565b820191906000526020600020905b81548152906001019060200180831161153357829003601f168201915b5050505050815260200160028201805461156990612d72565b80601f016020809104026020016040519081016040528092919081815260200182805461159590612d72565b80156115e25780601f106115b7576101008083540402835291602001916115e2565b820191906000526020600020905b8154815290600101906020018083116115c557829003601f168201915b50505091835250506040805180820182526003840154815260048401546020828101919091528301526005830154908201526006820154606082015260079091015460809091015292915050565b61163861260c565b6111586000612666565b61164a6124a5565b815161012c1080159061165f57508051609610155b6116a45760405162461bcd60e51b815260206004820152601660248201527513585e0818da185c9858dd195c9cc81c995858da195960521b60448201526064016105d7565b600954604051631292f8c160e31b81526001600160a01b0390911690639497c608906116d69060049033908201612f93565b602060405180830381865afa1580156116f3573d6000803e3d6000fd5b505050506040513d601f19601f820116820180604052508101906117179190612d50565b6117545760405162461bcd60e51b815260206004820152600e60248201526d27b7363c902232bb32b637b832b960911b60448201526064016105d7565b7f000000000000000000000000000000000000000000000000000000000000000063ffffffff16611783611370565b116117da5760405162461bcd60e51b815260206004820152602160248201527f5761697420756e74696c206e6578742065726120746f20616464207265706f726044820152601d60fa1b60648201526084016105d7565b6117e33361130d565b6118235760405162461bcd60e51b815260206004820152601160248201527010d85b89dd081c1d589b1a5cda081e595d607a1b60448201526064016105d7565b600380546001600160401b031690600061183c83612fd2565b91906101000a8154816001600160401b0302191690836001600160401b03160217905550506003600881819054906101000a90046001600160401b03168092919061188690612fd2565b82546101009290920a6001600160401b038181021990931691831602179091556003543360009081526004602052604081206005018054600160401b90930490931693509091906118d683612fb9565b9190505550604051806101200160405280826001600160401b031681526020016118fe6123e2565b81523360208083019190915260408083018790526060808401879052600060808501819052600160a0860181905260c086018290524360e0909601959095526001600160401b03878116825260058552908390208651815467ffffffffffffffff1916921691909117815592850151938301939093558301516002820180546001600160a01b0319166001600160a01b039092169190911790559082015160038201906119ab9082612e24565b50608082015160048201906119c09082612e24565b5060a0820151600582015560c08201516006808301805460ff19169215159290921790915560e083015160078301556101009092015160089091015533600081815260209283526040812080546001810182559082529290206001600160401b038416920191909155611a32906126b6565b336001600160a01b0316816001600160401b03167f90fa8fc57e68c1801adc5593b96145cb8b0dc559414919b07373a84ddfa281bb8543604051611a77929190612ffd565b60405180910390a350610b8f6001600255565b6001600160a01b038116600090815260066020908152604091829020805483518184028101840190945280845260609392830182828015611aea57602002820191906000526020600020905b815481526020019060010190808311611ad6575b50505050509050919050565b611afe61260c565b6001600160a01b03166000908152600160208190526040909120805460ff19169091179055565b8151603210801590611b3957508051609610155b611b765760405162461bcd60e51b815260206004820152600e60248201526d4d6178206368617261637465727360901b60448201526064016105d7565b600954604051632f22dc7b60e01b8152613e80916001600160a01b031690632f22dc7b90611ba890600490810161301f565b602060405180830381865afa158015611bc5573d6000803e3d6000fd5b505050506040513d601f19601f82011682018060405250810190611be99190612ee2565b1115611c285760405162461bcd60e51b815260206004820152600e60248201526d13585e081d5cd95c881b1a5b5a5d60921b60448201526064016105d7565b60095460405162f5960960e51b81526000916001600160a01b031690631eb2c12090611c5890600490810161301f565b602060405180830381865afa158015611c75573d6000803e3d6000fd5b505050506040513d601f19601f82011682018060405250810190611c99919061302d565b611ca490600161304a565b9050604051806101000160405280826001600160401b03168152602001336001600160a01b03168152602001848152602001838152602001604051806040016040528060008152602001611cf66123e2565b9052815260006020808301829052436040808501919091526060909301829052338252600481529082902083518154928501516001600160a01b0316600160401b026001600160e01b03199093166001600160401b0390911617919091178155908201516001820190611d699082612e24565b5060608201516002820190611d7e9082612e24565b5060808201518051600383015560209081015160048084019190915560a0840151600584015560c0840151600684015560e0909301516007909201919091556001600160401b0383166000908152600890915260409081902080546001600160a01b031916339081179091556009549151639c3eead960e01b81526001600160a01b039290921692639c3eead992611e199291908101613069565b600060405180830381600087803b158015611e3357600080fd5b505af1158015611e47573d6000803e3d6000fd5b50505050336001600160a01b0316816001600160401b03167fffa85be86549e867f33ff3ad03f00922b2f7113b07f58ca22d923ed22fdebb6e8543604051611e90929190612ffd565b60405180910390a3505050565b600060058311611eaf57506001611ecd565b6000611ec66001611ec0878761279c565b906127a8565b8310159150505b9392505050565b3360009081526001602052604081205460ff16611f285760405162461bcd60e51b81526020600482015260126024820152712737ba1030b63637bbb2b21031b0b63632b960711b60448201526064016105d7565b6001600160a01b0383166000818152600760209081526040808320815180840183526001600160401b03888116808352835460018101855593875295859020915191909201805467ffffffffffffffff191691909216179055514381529192917fa84878f2a63d2c2c7fb98e2ab5694bdff1c200cbd72d2ec2fb11aab72e2df951910160405180910390a36001600160a01b0383166000908152600760205260409020545b90505b92915050565b60066020528160005260406000208181548110611ff257600080fd5b90600052602060002001600091509150505481565b6001600160a01b03808216600090815260046020908152604080832081516101008101835281546001600160401b0381168252600160401b900490951692850192909252600182018054939485949093928401919061206590612d72565b80601f016020809104026020016040519081016040528092919081815260200182805461209190612d72565b80156120de5780601f106120b3576101008083540402835291602001916120de565b820191906000526020600020905b8154815290600101906020018083116120c157829003601f168201915b505050505081526020016002820180546120f790612d72565b80601f016020809104026020016040519081016040528092919081815260200182805461212390612d72565b80156121705780601f1061214557610100808354040283529160200191612170565b820191906000526020600020905b81548152906001019060200180831161215357829003601f168201915b50505091835250506040805180820182526003840154815260048401546020828101919091528301526005830154908201526006820154606082015260079091015460809091015280519091506001600160401b03166121d35750600092915050565b60035460095460405162f5960960e51b8152611ecd92600160401b90046001600160401b0316916001600160a01b031690631eb2c1209061221890600490810161301f565b602060405180830381865afa158015612235573d6000803e3d6000fd5b505050506040513d601f19601f82011682018060405250810190612259919061302d565b6001600160401b0316836080015160000151611e9d565b60056020526000908152604090208054600182015460028301546003840180546001600160401b039094169492936001600160a01b0390921692916122b490612d72565b80601f01602080910402602001604051908101604052809291908181526020018280546122e090612d72565b801561232d5780601f106123025761010080835404028352916020019161232d565b820191906000526020600020905b81548152906001019060200180831161231057829003601f168201915b50505050509080600401805461234290612d72565b80601f016020809104026020016040519081016040528092919081815260200182805461236e90612d72565b80156123bb5780601f10612390576101008083540402835291602001916123bb565b820191906000526020600020905b81548152906001019060200180831161239e57829003601f168201915b505050506005830154600684015460078501546008909501549394919360ff909116925089565b600a5460408051637686fbcf60e11b815290516000926001600160a01b03169163ed0df79e9160048083019260209291908290030181865afa1580156113c7573d6000803e3d6000fd5b61243461260c565b6001600160a01b0381166124995760405162461bcd60e51b815260206004820152602660248201527f4f776e61626c653a206e6577206f776e657220697320746865207a65726f206160448201526564647265737360d01b60648201526084016105d7565b6124a281612666565b50565b60028054036124f65760405162461bcd60e51b815260206004820152601f60248201527f5265656e7472616e637947756172643a207265656e7472616e742063616c6c0060448201526064016105d7565b60028055565b6125046127b4565b600380546001600160401b031690600061251d83613086565b82546101009290920a6001600160401b03818102199093169183160217909155600060c085018190524360e0860152845182168152600560209081526040918290208651815467ffffffffffffffff1916941693909317835585015160018301558401516002820180546001600160a01b0319166001600160a01b03909216919091179055606084015184925060038201906125b99082612e24565b50608082015160048201906125ce9082612e24565b5060a0820151600582015560c082015160068201805460ff191691151591909117905560e08201516007820155610100909101516008909101555090565b6000546001600160a01b031633146111585760405162461bcd60e51b815260206004820181905260248201527f4f776e61626c653a2063616c6c6572206973206e6f7420746865206f776e657260448201526064016105d7565b600080546001600160a01b038381166001600160a01b0319831681178455604051919092169283917f8be0079c531659141344cd1fd0a4f28419497f9722a3daafe3b4186f6b6457e09190a35050565b6001600160a01b038116600090815260046020526040812043600782015560038101805491926126e583612fb9565b9091555050600a546040516352b8d3ed60e01b81526001600160a01b03848116600483015260016024830152909116906352b8d3ed90604401600060405180830381600087803b15801561273857600080fd5b505af115801561274c573d6000803e3d6000fd5b505050506003810154604080519182524360208301526001600160a01b038416917f409b9331803c697056d1e0d1cf2188ef4dfa6f8637e3ec609fb230f89d6fa987910160405180910390a25050565b6000611fcd82846130a9565b6000611fcd8284612dc2565b60405180610120016040528060006001600160401b031681526020016000815260200160006001600160a01b0316815260200160608152602001606081526020016000815260200160001515815260200160008152602001600081525090565b6001600160401b03811681146124a257600080fd5b634e487b7160e01b600052604160045260246000fd5b600082601f83011261285057600080fd5b81356001600160401b0381111561286957612869612829565b604051601f8201601f19908116603f011681016001600160401b038111828210171561289757612897612829565b6040528181528382016020018510156128af57600080fd5b816020850160208301376000918101602001919091529392505050565b600080604083850312156128df57600080fd5b82356128ea81612814565b915060208301356001600160401b0381111561290557600080fd5b6129118582860161283f565b9150509250929050565b80356001600160a01b038116811461293257600080fd5b919050565b6000806040838503121561294a57600080fd5b6129538361291b565b946020939093013593505050565b60006020828403121561297357600080fd5b611fcd8261291b565b6000608082840312801561298f57600080fd5b50604051608081016001600160401b03811182821017156129b2576129b2612829565b6040526129be8361291b565b81526129cc6020840161291b565b60208201526129dd6040840161291b565b60408201526129ee6060840161291b565b60608201529392505050565b600060208284031215612a0c57600080fd5b8135611ecd81612814565b6000815180845260005b81811015612a3d57602081850181015186830182015201612a21565b506000602082860101526020601f19601f83011685010191505092915050565b80516001600160401b031682526020810151602083015260006040820151612a9060408501826001600160a01b03169052565b5060608201516101206060850152612aac610120850182612a17565b905060808301518482036080860152612ac58282612a17565b91505060a083015160a085015260c0830151612ae560c086018215159052565b5060e083015160e08501526101008301516101008501528091505092915050565b602081526000611fcd6020830184612a5d565b602081526001600160401b03825116602082015260006020830151612b4960408401826001600160a01b03169052565b5060408301516101206060840152612b65610140840182612a17565b90506060840151601f19848303016080850152612b828282612a17565b9150506080840151612ba160a085018280518252602090810151910152565b5060a084015160e084015260c084015161010084015260e08401516101208401528091505092915050565b60008060408385031215612bdf57600080fd5b82356001600160401b03811115612bf557600080fd5b612c018582860161283f565b92505060208301356001600160401b0381111561290557600080fd5b602080825282518282018190526000918401906040840190835b81811015612c55578351835260209384019390920191600101612c37565b509095945050505050565b600080600060608486031215612c7557600080fd5b505081359360208301359350604090920135919050565b60008060408385031215612c9f57600080fd5b612ca88361291b565b91506020830135612cb881612814565b809150509250929050565b600060208284031215612cd557600080fd5b5035919050565b6001600160401b038a16815288602082015260018060a01b038816604082015261012060608201526000612d14610120830189612a17565b8281036080840152612d268189612a17565b60a0840197909752505092151560c084015260e08301919091526101009091015295945050505050565b600060208284031215612d6257600080fd5b81518015158114611ecd57600080fd5b600181811c90821680612d8657607f821691505b602082108103612da657634e487b7160e01b600052602260045260246000fd5b50919050565b634e487b7160e01b600052601160045260246000fd5b80820180821115611fd057611fd0612dac565b601f821115612e1f57806000526020600020601f840160051c81016020851015612dfc5750805b601f840160051c820191505b81811015612e1c5760008155600101612e08565b50505b505050565b81516001600160401b03811115612e3d57612e3d612829565b612e5181612e4b8454612d72565b84612dd5565b6020601f821160018114612e855760008315612e6d5750848201515b600019600385901b1c1916600184901b178455612e1c565b600084815260208120601f198516915b82811015612eb55787850151825560209485019460019092019101612e95565b5084821015612ed35786840151600019600387901b60f8161c191681555b50505050600190811b01905550565b600060208284031215612ef457600080fd5b5051919050565b606081526000612f0e6060830186612a17565b60208301949094525060400152919050565b606081526000612f336060830186612a5d565b8281036020840152612f458186612a17565b91505060018060a01b0383166040830152949350505050565b81810381811115611fd057611fd0612dac565b60098110612f8f57634e487b7160e01b600052602160045260246000fd5b9052565b60408101612fa18285612f71565b6001600160a01b039290921660209190910152919050565b600060018201612fcb57612fcb612dac565b5060010190565b60006001600160401b0382166001600160401b038103612ff457612ff4612dac565b60010192915050565b6040815260006130106040830185612a17565b90508260208301529392505050565b60208101611fd08284612f71565b60006020828403121561303f57600080fd5b8151611ecd81612814565b6001600160401b038181168382160190811115611fd057611fd0612dac565b6001600160a01b038316815260408101611ecd6020830184612f71565b60006001600160401b0382168061309f5761309f612dac565b6000190192915050565b6000826130c657634e487b7160e01b600052601260045260246000fd5b50049056fea264697066735822122014d47a132dd8c1d6f1dfe310db226852eff99aacd41b8877a05f910a1d9efce664736f6c634300081b0033",
  "linkReferences": {},
  "deployedLinkReferences": {}
}