{
  "_format": "hh-sol-artifact-1",
  "contractName": "DeveloperRules",
  "sourceName": "contracts/DeveloperRules.sol",
  "abi": [
    {
      "inputs": [
        {
          "internalType": "address",
          "name": "communityRulesAddress",
          "type": "address"
        },
        {
          "internalType": "address",
          "name": "developerPoolAddress",
          "type": "address"
        },
        {
          "internalType": "address",
          "name": "validatorRulesAddress",
          "type": "address"
        },
        {
          "internalType": "uint256",
          "name": "timeBetweenWorks_",
          "type": "uint256"
        },
        {
          "internalType": "uint256",
          "name": "maxPenalties_",
          "type": "uint256"
        },
        {
          "internalType": "uint256",
          "name": "securityBlocksToValidatorAnalysis",
          "type": "uint256"
        }
      ],
      "stateMutability": "nonpayable",
      "type": "constructor"
    },
    {
      "anonymous": false,
      "inputs": [
        {
          "indexed": true,
          "internalType": "address",
          "name": "previousOwner",
          "type": "address"
        },
        {
          "indexed": true,
          "internalType": "address",
          "name": "newOwner",
          "type": "address"
        }
      ],
      "name": "OwnershipTransferred",
      "type": "event"
    },
    {
      "inputs": [],
      "name": "MAX_PENALTIES",
      "outputs": [
        {
          "internalType": "uint256",
          "name": "",
          "type": "uint256"
        }
      ],
      "stateMutability": "view",
      "type": "function"
    },
    {
      "inputs": [],
      "name": "SECURITY_BLOCKS_TO_VALIDATOR_ANALYSIS",
      "outputs": [
        {
          "internalType": "uint256",
          "name": "",
          "type": "uint256"
        }
      ],
      "stateMutability": "view",
      "type": "function"
    },
    {
      "inputs": [
        {
          "internalType": "string",
          "name": "name",
          "type": "string"
        },
        {
          "internalType": "string",
          "name": "proofPhoto",
          "type": "string"
        }
      ],
      "name": "addDeveloper",
      "outputs": [],
      "stateMutability": "nonpayable",
      "type": "function"
    },
    {
      "inputs": [
        {
          "internalType": "address",
          "name": "addr",
          "type": "address"
        },
        {
          "internalType": "uint256",
          "name": "reportId",
          "type": "uint256"
        }
      ],
      "name": "addPenalty",
      "outputs": [
        {
          "internalType": "uint256",
          "name": "",
          "type": "uint256"
        }
      ],
      "stateMutability": "nonpayable",
      "type": "function"
    },
    {
      "inputs": [
        {
          "internalType": "string",
          "name": "description",
          "type": "string"
        },
        {
          "internalType": "string",
          "name": "report",
          "type": "string"
        }
      ],
      "name": "addReport",
      "outputs": [],
      "stateMutability": "nonpayable",
      "type": "function"
    },
    {
      "inputs": [
        {
          "internalType": "uint256",
          "name": "id",
          "type": "uint256"
        },
        {
          "internalType": "string",
          "name": "justification",
          "type": "string"
        }
      ],
      "name": "addReportValidation",
      "outputs": [],
      "stateMutability": "nonpayable",
      "type": "function"
    },
    {
      "inputs": [
        {
          "internalType": "address",
          "name": "",
          "type": "address"
        }
      ],
      "name": "allowedCallers",
      "outputs": [
        {
          "internalType": "bool",
          "name": "",
          "type": "bool"
        }
      ],
      "stateMutability": "view",
      "type": "function"
    },
    {
      "inputs": [
        {
          "internalType": "uint256",
          "name": "totalLevels",
          "type": "uint256"
        },
        {
          "internalType": "uint256",
          "name": "totalUsers",
          "type": "uint256"
        },
        {
          "internalType": "uint256",
          "name": "userLevels",
          "type": "uint256"
        }
      ],
      "name": "canInvite",
      "outputs": [
        {
          "internalType": "bool",
          "name": "",
          "type": "bool"
        }
      ],
      "stateMutability": "pure",
      "type": "function"
    },
    {
      "inputs": [
        {
          "internalType": "address",
          "name": "addr",
          "type": "address"
        }
      ],
      "name": "canSendInvite",
      "outputs": [
        {
          "internalType": "bool",
          "name": "",
          "type": "bool"
        }
      ],
      "stateMutability": "view",
      "type": "function"
    },
    {
      "inputs": [
        {
          "internalType": "address",
          "name": "addr",
          "type": "address"
        }
      ],
      "name": "developerExists",
      "outputs": [
        {
          "internalType": "bool",
          "name": "",
          "type": "bool"
        }
      ],
      "stateMutability": "view",
      "type": "function"
    },
    {
      "inputs": [
        {
          "internalType": "address",
          "name": "",
          "type": "address"
        }
      ],
      "name": "developers",
      "outputs": [
        {
          "internalType": "uint256",
          "name": "id",
          "type": "uint256"
        },
        {
          "internalType": "address",
          "name": "developerWallet",
          "type": "address"
        },
        {
          "internalType": "string",
          "name": "name",
          "type": "string"
        },
        {
          "internalType": "string",
          "name": "proofPhoto",
          "type": "string"
        },
        {
          "components": [
            {
              "internalType": "uint256",
              "name": "level",
              "type": "uint256"
            },
            {
              "internalType": "uint256",
              "name": "currentEra",
              "type": "uint256"
            }
          ],
          "internalType": "struct Pool",
          "name": "pool",
          "type": "tuple"
        },
        {
          "internalType": "uint256",
          "name": "totalReports",
          "type": "uint256"
        },
        {
          "internalType": "uint256",
          "name": "createdAt",
          "type": "uint256"
        },
        {
          "internalType": "uint256",
          "name": "lastPublishedAt",
          "type": "uint256"
        }
      ],
      "stateMutability": "view",
      "type": "function"
    },
    {
      "inputs": [
        {
          "internalType": "uint256",
          "name": "",
          "type": "uint256"
        }
      ],
      "name": "developersAddress",
      "outputs": [
        {
          "internalType": "address",
          "name": "",
          "type": "address"
        }
      ],
      "stateMutability": "view",
      "type": "function"
    },
    {
      "inputs": [
        {
          "internalType": "address",
          "name": "addr",
          "type": "address"
        }
      ],
      "name": "getDeveloper",
      "outputs": [
        {
          "components": [
            {
              "internalType": "uint256",
              "name": "id",
              "type": "uint256"
            },
            {
              "internalType": "address",
              "name": "developerWallet",
              "type": "address"
            },
            {
              "internalType": "string",
              "name": "name",
              "type": "string"
            },
            {
              "internalType": "string",
              "name": "proofPhoto",
              "type": "string"
            },
            {
              "components": [
                {
                  "internalType": "uint256",
                  "name": "level",
                  "type": "uint256"
                },
                {
                  "internalType": "uint256",
                  "name": "currentEra",
                  "type": "uint256"
                }
              ],
              "internalType": "struct Pool",
              "name": "pool",
              "type": "tuple"
            },
            {
              "internalType": "uint256",
              "name": "totalReports",
              "type": "uint256"
            },
            {
              "internalType": "uint256",
              "name": "createdAt",
              "type": "uint256"
            },
            {
              "internalType": "uint256",
              "name": "lastPublishedAt",
              "type": "uint256"
            }
          ],
          "internalType": "struct Developer",
          "name": "developer",
          "type": "tuple"
        }
      ],
      "stateMutability": "view",
      "type": "function"
    },
    {
      "inputs": [
        {
          "internalType": "uint256",
          "name": "id",
          "type": "uint256"
        }
      ],
      "name": "getReport",
      "outputs": [
        {
          "components": [
            {
              "internalType": "uint256",
              "name": "id",
              "type": "uint256"
            },
            {
              "internalType": "uint256",
              "name": "era",
              "type": "uint256"
            },
            {
              "internalType": "address",
              "name": "developer",
              "type": "address"
            },
            {
              "internalType": "string",
              "name": "description",
              "type": "string"
            },
            {
              "internalType": "string",
              "name": "report",
              "type": "string"
            },
            {
              "internalType": "uint256",
              "name": "validationsCount",
              "type": "uint256"
            },
            {
              "internalType": "bool",
              "name": "valid",
              "type": "bool"
            },
            {
              "internalType": "uint256",
              "name": "invalidatedAt",
              "type": "uint256"
            },
            {
              "internalType": "uint256",
              "name": "createdAtBlockNumber",
              "type": "uint256"
            }
          ],
          "internalType": "struct Report",
          "name": "",
          "type": "tuple"
        }
      ],
      "stateMutability": "view",
      "type": "function"
    },
    {
      "inputs": [
        {
          "internalType": "address",
          "name": "caller",
          "type": "address"
        }
      ],
      "name": "isAllowedCaller",
      "outputs": [
        {
          "internalType": "bool",
          "name": "",
          "type": "bool"
        }
      ],
      "stateMutability": "view",
      "type": "function"
    },
    {
      "inputs": [
        {
          "internalType": "address",
          "name": "allowed",
          "type": "address"
        }
      ],
      "name": "newAllowedCaller",
      "outputs": [],
      "stateMutability": "nonpayable",
      "type": "function"
    },
    {
      "inputs": [],
      "name": "nextEraIn",
      "outputs": [
        {
          "internalType": "uint256",
          "name": "",
          "type": "uint256"
        }
      ],
      "stateMutability": "view",
      "type": "function"
    },
    {
      "inputs": [],
      "name": "owner",
      "outputs": [
        {
          "internalType": "address",
          "name": "",
          "type": "address"
        }
      ],
      "stateMutability": "view",
      "type": "function"
    },
    {
      "inputs": [
        {
          "internalType": "address",
          "name": "",
          "type": "address"
        },
        {
          "internalType": "uint256",
          "name": "",
          "type": "uint256"
        }
      ],
      "name": "penalties",
      "outputs": [
        {
          "internalType": "uint256",
          "name": "reportId",
          "type": "uint256"
        }
      ],
      "stateMutability": "view",
      "type": "function"
    },
    {
      "inputs": [
        {
          "internalType": "address",
          "name": "addr",
          "type": "address"
        },
        {
          "internalType": "uint256",
          "name": "removeSomeLevels",
          "type": "uint256"
        }
      ],
      "name": "removePoolLevels",
      "outputs": [],
      "stateMutability": "nonpayable",
      "type": "function"
    },
    {
      "inputs": [],
      "name": "renounceOwnership",
      "outputs": [],
      "stateMutability": "nonpayable",
      "type": "function"
    },
    {
      "inputs": [
        {
          "internalType": "uint256",
          "name": "",
          "type": "uint256"
        }
      ],
      "name": "reports",
      "outputs": [
        {
          "internalType": "uint256",
          "name": "id",
          "type": "uint256"
        },
        {
          "internalType": "uint256",
          "name": "era",
          "type": "uint256"
        },
        {
          "internalType": "address",
          "name": "developer",
          "type": "address"
        },
        {
          "internalType": "string",
          "name": "description",
          "type": "string"
        },
        {
          "internalType": "string",
          "name": "report",
          "type": "string"
        },
        {
          "internalType": "uint256",
          "name": "validationsCount",
          "type": "uint256"
        },
        {
          "internalType": "bool",
          "name": "valid",
          "type": "bool"
        },
        {
          "internalType": "uint256",
          "name": "invalidatedAt",
          "type": "uint256"
        },
        {
          "internalType": "uint256",
          "name": "createdAtBlockNumber",
          "type": "uint256"
        }
      ],
      "stateMutability": "view",
      "type": "function"
    },
    {
      "inputs": [],
      "name": "reportsCount",
      "outputs": [
        {
          "internalType": "uint256",
          "name": "",
          "type": "uint256"
        }
      ],
      "stateMutability": "view",
      "type": "function"
    },
    {
      "inputs": [],
      "name": "reportsTotalCount",
      "outputs": [
        {
          "internalType": "uint256",
          "name": "",
          "type": "uint256"
        }
      ],
      "stateMutability": "view",
      "type": "function"
    },
    {
      "inputs": [
        {
          "internalType": "address",
          "name": "addr",
          "type": "address"
        }
      ],
      "name": "totalPenalties",
      "outputs": [
        {
          "internalType": "uint256",
          "name": "",
          "type": "uint256"
        }
      ],
      "stateMutability": "view",
      "type": "function"
    },
    {
      "inputs": [
        {
          "internalType": "address",
          "name": "newOwner",
          "type": "address"
        }
      ],
      "name": "transferOwnership",
      "outputs": [],
      "stateMutability": "nonpayable",
      "type": "function"
    },
    {
      "inputs": [],
      "name": "withdraw",
      "outputs": [],
      "stateMutability": "nonpayable",
      "type": "function"
    }
  ],
  "bytecode": "0x60e060405234801561001057600080fd5b5060405161493038038061493083398181016040528101906100329190610299565b61004e61004361013460201b60201c565b61013c60201b60201c565b85600660006101000a81548173ffffffffffffffffffffffffffffffffffffffff021916908373ffffffffffffffffffffffffffffffffffffffff16021790555084600760006101000a81548173ffffffffffffffffffffffffffffffffffffffff021916908373ffffffffffffffffffffffffffffffffffffffff16021790555083600860006101000a81548173ffffffffffffffffffffffffffffffffffffffff021916908373ffffffffffffffffffffffffffffffffffffffff16021790555082608081815250508160a081815250508060c08181525050505050505050610326565b600033905090565b60008060009054906101000a900473ffffffffffffffffffffffffffffffffffffffff169050816000806101000a81548173ffffffffffffffffffffffffffffffffffffffff021916908373ffffffffffffffffffffffffffffffffffffffff1602179055508173ffffffffffffffffffffffffffffffffffffffff168173ffffffffffffffffffffffffffffffffffffffff167f8be0079c531659141344cd1fd0a4f28419497f9722a3daafe3b4186f6b6457e060405160405180910390a35050565b600080fd5b600073ffffffffffffffffffffffffffffffffffffffff82169050919050565b600061023082610205565b9050919050565b61024081610225565b811461024b57600080fd5b50565b60008151905061025d81610237565b92915050565b6000819050919050565b61027681610263565b811461028157600080fd5b50565b6000815190506102938161026d565b92915050565b60008060008060008060c087890312156102b6576102b5610200565b5b60006102c489828a0161024e565b96505060206102d589828a0161024e565b95505060406102e689828a0161024e565b94505060606102f789828a01610284565b935050608061030889828a01610284565b92505060a061031989828a01610284565b9150509295509295509295565b60805160a05160c0516145d461035c60003960008181611cc30152611ffa015260006123be01526000612c4801526145d46000f3fe608060405234801561001057600080fd5b50600436106101a95760003560e01c8063791b1ecc116100f95780639eaf666f11610097578063c77c1ce611610071578063c77c1ce6146104e9578063c942adf714610519578063f2fde38b14610551578063fa64d0f41461056d576101a9565b80639eaf666f1461046b578063a68012581461049b578063b43f070a146104cb576101a9565b80638da5cb5b116100d35780638da5cb5b146103f75780638f93716f1461041557806397705d60146104315780639e02b7bc1461044f576101a9565b8063791b1ecc1461037b5780637a3e0066146103ab5780637b334154146103c7576101a9565b8063582256f11161016657806367e13ee01161014057806367e13ee014610307578063715018a6146103375780637384fe5f1461034157806374f7c4291461035d576101a9565b8063582256f1146102825780635fa71c28146102a057806361fd5c20146102d0576101a9565b806318ad5c9a146101ae5780631b63a43c146101ca5780632076267b146101fa5780633ccfd60b1461022a5780633e0c27f0146102345780634e7f9b1914610252575b600080fd5b6101c860048036038101906101c39190613214565b61059d565b005b6101e460048036038101906101df9190613214565b610952565b6040516101f19190613263565b60405180910390f35b610214600480360381019061020f919061327e565b610a70565b6040516102219190613263565b60405180910390f35b610232610abc565b005b61023c610f89565b6040516102499190613263565b60405180910390f35b61026c600480360381019061026791906132ab565b610f8f565b604051610279919061346d565b60405180910390f35b61028a611184565b6040516102979190613263565b60405180910390f35b6102ba60048036038101906102b59190613214565b61122e565b6040516102c79190613263565b60405180910390f35b6102ea60048036038101906102e5919061327e565b611265565b6040516102fe989796959493929190613517565b60405180910390f35b610321600480360381019061031c919061327e565b6113fb565b60405161032e919061368b565b60405180910390f35b61033f61161f565b005b61035b600480360381019061035691906137e2565b611633565b005b610365611b8f565b6040516103729190613263565b60405180910390f35b6103956004803603810190610390919061327e565b611b95565b6040516103a2919061384d565b60405180910390f35b6103c560048036038101906103c09190613868565b611be3565b005b6103e160048036038101906103dc919061327e565b611f4d565b6040516103ee919061384d565b60405180910390f35b6103ff611f6d565b60405161040c91906138e0565b60405180910390f35b61042f600480360381019061042a919061327e565b611f96565b005b610439611ff8565b6040516104469190613263565b60405180910390f35b61046960048036038101906104649190613868565b61201c565b005b610485600480360381019061048091906138fb565b61231a565b604051610492919061384d565b60405180910390f35b6104b560048036038101906104b0919061327e565b612366565b6040516104c2919061384d565b60405180910390f35b6104d36123bc565b6040516104e09190613263565b60405180910390f35b61050360048036038101906104fe919061327e565b6123e0565b604051610510919061384d565b60405180910390f35b610533600480360381019061052e91906132ab565b6126ca565b6040516105489998979695949392919061394e565b60405180910390f35b61056b6004803603810190610566919061327e565b612855565b005b610587600480360381019061058291906132ab565b6128d8565b60405161059491906138e0565b60405180910390f35b600160003373ffffffffffffffffffffffffffffffffffffffff1673ffffffffffffffffffffffffffffffffffffffff16815260200190815260200160002060009054906101000a900460ff16610629576040517f08c379a000000000000000000000000000000000000000000000000000000000815260040161062090613a35565b60405180910390fd5b6000600260008473ffffffffffffffffffffffffffffffffffffffff1673ffffffffffffffffffffffffffffffffffffffff16815260200190815260200160002060405180610100016040529081600082015481526020016001820160009054906101000a900473ffffffffffffffffffffffffffffffffffffffff1673ffffffffffffffffffffffffffffffffffffffff1673ffffffffffffffffffffffffffffffffffffffff1681526020016002820180546106e690613a84565b80601f016020809104026020016040519081016040528092919081815260200182805461071290613a84565b801561075f5780601f106107345761010080835404028352916020019161075f565b820191906000526020600020905b81548152906001019060200180831161074257829003601f168201915b5050505050815260200160038201805461077890613a84565b80601f01602080910402602001604051908101604052809291908181526020018280546107a490613a84565b80156107f15780601f106107c6576101008083540402835291602001916107f1565b820191906000526020600020905b8154815290600101906020018083116107d457829003601f168201915b505050505081526020016004820160405180604001604052908160008201548152602001600182015481525050815260200160068201548152602001600782015481526020016008820154815250509050600082116108585780608001516000015161085a565b815b600260008573ffffffffffffffffffffffffffffffffffffffff1673ffffffffffffffffffffffffffffffffffffffff16815260200190815260200160002060040160000160008282546108ae9190613ae4565b92505081905550600760009054906101000a900473ffffffffffffffffffffffffffffffffffffffff1673ffffffffffffffffffffffffffffffffffffffff1663157ffc52846108fc61290b565b856040518463ffffffff1660e01b815260040161091b93929190613b18565b600060405180830381600087803b15801561093557600080fd5b505af1158015610949573d6000803e3d6000fd5b50505050505050565b6000600160003373ffffffffffffffffffffffffffffffffffffffff1673ffffffffffffffffffffffffffffffffffffffff16815260200190815260200160002060009054906101000a900460ff166109e0576040517f08c379a00000000000000000000000000000000000000000000000000000000081526004016109d790613a35565b60405180910390fd5b600460008473ffffffffffffffffffffffffffffffffffffffff1673ffffffffffffffffffffffffffffffffffffffff16815260200190815260200160002060405180602001604052808481525090806001815401808255809150506001900390600052602060002001600090919091909150600082015181600001555050610a6883610a70565b905092915050565b6000600460008373ffffffffffffffffffffffffffffffffffffffff1673ffffffffffffffffffffffffffffffffffffffff168152602001908152602001600020805490509050919050565b600660009054906101000a900473ffffffffffffffffffffffffffffffffffffffff1673ffffffffffffffffffffffffffffffffffffffff16639497c6086004336040518363ffffffff1660e01b8152600401610b1a929190613bc6565b602060405180830381865afa158015610b37573d6000803e3d6000fd5b505050506040513d601f19601f82011682018060405250810190610b5b9190613c1b565b610b9a576040517f08c379a0000000000000000000000000000000000000000000000000000000008152600401610b9190613c94565b60405180910390fd5b6000600260003373ffffffffffffffffffffffffffffffffffffffff1673ffffffffffffffffffffffffffffffffffffffff16815260200190815260200160002060405180610100016040529081600082015481526020016001820160009054906101000a900473ffffffffffffffffffffffffffffffffffffffff1673ffffffffffffffffffffffffffffffffffffffff1673ffffffffffffffffffffffffffffffffffffffff168152602001600282018054610c5790613a84565b80601f0160208091040260200160405190810160405280929190818152602001828054610c8390613a84565b8015610cd05780601f10610ca557610100808354040283529160200191610cd0565b820191906000526020600020905b815481529060010190602001808311610cb357829003601f168201915b50505050508152602001600382018054610ce990613a84565b80601f0160208091040260200160405190810160405280929190818152602001828054610d1590613a84565b8015610d625780601f10610d3757610100808354040283529160200191610d62565b820191906000526020600020905b815481529060010190602001808311610d4557829003601f168201915b50505050508152602001600482016040518060400160405290816000820154815260200160018201548152505081526020016006820154815260200160078201548152602001600882015481525050905060008160800151602001519050600760009054906101000a900473ffffffffffffffffffffffffffffffffffffffff1673ffffffffffffffffffffffffffffffffffffffff1663fbe85f06826040518263ffffffff1660e01b8152600401610e1b9190613263565b602060405180830381865afa158015610e38573d6000803e3d6000fd5b505050506040513d601f19601f82011682018060405250810190610e5c9190613c1b565b610e9b576040517f08c379a0000000000000000000000000000000000000000000000000000000008152600401610e9290613d00565b60405180910390fd5b600260003373ffffffffffffffffffffffffffffffffffffffff1673ffffffffffffffffffffffffffffffffffffffff1681526020019081526020016000206004016001016000815480929190610ef190613d20565b9190505550600760009054906101000a900473ffffffffffffffffffffffffffffffffffffffff1673ffffffffffffffffffffffffffffffffffffffff1663f3fef3a333836040518363ffffffff1660e01b8152600401610f53929190613d68565b600060405180830381600087803b158015610f6d57600080fd5b505af1158015610f81573d6000803e3d6000fd5b505050505050565b60095481565b610f9761308d565b600360008381526020019081526020016000206040518061012001604052908160008201548152602001600182015481526020016002820160009054906101000a900473ffffffffffffffffffffffffffffffffffffffff1673ffffffffffffffffffffffffffffffffffffffff1673ffffffffffffffffffffffffffffffffffffffff16815260200160038201805461103090613a84565b80601f016020809104026020016040519081016040528092919081815260200182805461105c90613a84565b80156110a95780601f1061107e576101008083540402835291602001916110a9565b820191906000526020600020905b81548152906001019060200180831161108c57829003601f168201915b505050505081526020016004820180546110c290613a84565b80601f01602080910402602001604051908101604052809291908181526020018280546110ee90613a84565b801561113b5780601f106111105761010080835404028352916020019161113b565b820191906000526020600020905b81548152906001019060200180831161111e57829003601f168201915b50505050508152602001600582015481526020016006820160009054906101000a900460ff16151515158152602001600782015481526020016008820154815250509050919050565b6000600760009054906101000a900473ffffffffffffffffffffffffffffffffffffffff1673ffffffffffffffffffffffffffffffffffffffff1663d5ee3eb56111cc61290b565b6040518263ffffffff1660e01b81526004016111e89190613263565b602060405180830381865afa158015611205573d6000803e3d6000fd5b505050506040513d601f19601f820116820180604052508101906112299190613dc7565b905090565b6004602052816000526040600020818154811061124a57600080fd5b90600052602060002001600091509150508060000154905081565b60026020528060005260406000206000915090508060000154908060010160009054906101000a900473ffffffffffffffffffffffffffffffffffffffff16908060020180546112b490613a84565b80601f01602080910402602001604051908101604052809291908181526020018280546112e090613a84565b801561132d5780601f106113025761010080835404028352916020019161132d565b820191906000526020600020905b81548152906001019060200180831161131057829003601f168201915b50505050509080600301805461134290613a84565b80601f016020809104026020016040519081016040528092919081815260200182805461136e90613a84565b80156113bb5780601f10611390576101008083540402835291602001916113bb565b820191906000526020600020905b81548152906001019060200180831161139e57829003601f168201915b5050505050908060040160405180604001604052908160008201548152602001600182015481525050908060060154908060070154908060080154905088565b6114036130f1565b600260008373ffffffffffffffffffffffffffffffffffffffff1673ffffffffffffffffffffffffffffffffffffffff16815260200190815260200160002060405180610100016040529081600082015481526020016001820160009054906101000a900473ffffffffffffffffffffffffffffffffffffffff1673ffffffffffffffffffffffffffffffffffffffff1673ffffffffffffffffffffffffffffffffffffffff1681526020016002820180546114be90613a84565b80601f01602080910402602001604051908101604052809291908181526020018280546114ea90613a84565b80156115375780601f1061150c57610100808354040283529160200191611537565b820191906000526020600020905b81548152906001019060200180831161151a57829003601f168201915b5050505050815260200160038201805461155090613a84565b80601f016020809104026020016040519081016040528092919081815260200182805461157c90613a84565b80156115c95780601f1061159e576101008083540402835291602001916115c9565b820191906000526020600020905b8154815290600101906020018083116115ac57829003601f168201915b505050505081526020016004820160405180604001604052908160008201548152602001600182015481525050815260200160068201548152602001600782015481526020016008820154815250509050919050565b6116276129a3565b6116316000612a21565b565b600660009054906101000a900473ffffffffffffffffffffffffffffffffffffffff1673ffffffffffffffffffffffffffffffffffffffff16639497c6086008336040518363ffffffff1660e01b8152600401611691929190613bc6565b602060405180830381865afa1580156116ae573d6000803e3d6000fd5b505050506040513d601f19601f820116820180604052508101906116d29190613c1b565b611711576040517f08c379a000000000000000000000000000000000000000000000000000000000815260040161170890613e40565b60405180910390fd5b6000600360008481526020019081526020016000206040518061012001604052908160008201548152602001600182015481526020016002820160009054906101000a900473ffffffffffffffffffffffffffffffffffffffff1673ffffffffffffffffffffffffffffffffffffffff1673ffffffffffffffffffffffffffffffffffffffff1681526020016003820180546117ac90613a84565b80601f01602080910402602001604051908101604052809291908181526020018280546117d890613a84565b80156118255780601f106117fa57610100808354040283529160200191611825565b820191906000526020600020905b81548152906001019060200180831161180857829003601f168201915b5050505050815260200160048201805461183e90613a84565b80601f016020809104026020016040519081016040528092919081815260200182805461186a90613a84565b80156118b75780601f1061188c576101008083540402835291602001916118b7565b820191906000526020600020905b81548152906001019060200180831161189a57829003601f168201915b50505050508152602001600582015481526020016006820160009054906101000a900460ff161515151581526020016007820154815260200160088201548152505090508060c001518015611916575061190f61290b565b8160200151145b611955576040517f08c379a000000000000000000000000000000000000000000000000000000000815260040161194c90613eac565b60405180910390fd5b60018160a0018181516119689190613ecc565b915081815250508060036000858152602001908152602001600020600082015181600001556020820151816001015560408201518160020160006101000a81548173ffffffffffffffffffffffffffffffffffffffff021916908373ffffffffffffffffffffffffffffffffffffffff16021790555060608201518160030190816119f391906140ac565b506080820151816004019081611a0991906140ac565b5060a0820151816005015560c08201518160060160006101000a81548160ff02191690831515021790555060e0820151816007015561010082015181600801559050506000600860009054906101000a900473ffffffffffffffffffffffffffffffffffffffff1673ffffffffffffffffffffffffffffffffffffffff166384f0f65f6040518163ffffffff1660e01b8152600401602060405180830381865afa158015611abb573d6000803e3d6000fd5b505050506040513d601f19601f82011682018060405250810190611adf9190614193565b8260a00151101590508015611af857611af782612ae5565b5b600860009054906101000a900473ffffffffffffffffffffffffffffffffffffffff1673ffffffffffffffffffffffffffffffffffffffff1663184673338385336040518463ffffffff1660e01b8152600401611b57939291906141c0565b600060405180830381600087803b158015611b7157600080fd5b505af1158015611b85573d6000803e3d6000fd5b5050505050505050565b600a5481565b600080600260008473ffffffffffffffffffffffffffffffffffffffff1673ffffffffffffffffffffffffffffffffffffffff16815260200190815260200160002060000154119050919050565b600660009054906101000a900473ffffffffffffffffffffffffffffffffffffffff1673ffffffffffffffffffffffffffffffffffffffff16639497c6086004336040518363ffffffff1660e01b8152600401611c41929190613bc6565b602060405180830381865afa158015611c5e573d6000803e3d6000fd5b505050506040513d601f19601f82011682018060405250810190611c829190613c1b565b611cc1576040517f08c379a0000000000000000000000000000000000000000000000000000000008152600401611cb890614251565b60405180910390fd5b7f0000000000000000000000000000000000000000000000000000000000000000611cea611184565b11611d2a576040517f08c379a0000000000000000000000000000000000000000000000000000000008152600401611d21906142e3565b60405180910390fd5b611d3333612bfc565b611d72576040517f08c379a0000000000000000000000000000000000000000000000000000000008152600401611d699061434f565b60405180910390fd5b60096000815480929190611d8590613d20565b9190505550600a6000815480929190611d9d90613d20565b91905055506000600a549050600260003373ffffffffffffffffffffffffffffffffffffffff1673ffffffffffffffffffffffffffffffffffffffff1681526020019081526020016000206006016000815480929190611dfc90613d20565b9190505550604051806101200160405280828152602001611e1b61290b565b81526020013373ffffffffffffffffffffffffffffffffffffffff16815260200184815260200183815260200160008152602001600115158152602001600081526020014381525060036000838152602001908152602001600020600082015181600001556020820151816001015560408201518160020160006101000a81548173ffffffffffffffffffffffffffffffffffffffff021916908373ffffffffffffffffffffffffffffffffffffffff1602179055506060820151816003019081611ee691906140ac565b506080820151816004019081611efc91906140ac565b5060a0820151816005015560c08201518160060160006101000a81548160ff02191690831515021790555060e082015181600701556101008201518160080155905050611f4833612c8b565b505050565b60016020528060005260406000206000915054906101000a900460ff1681565b60008060009054906101000a900473ffffffffffffffffffffffffffffffffffffffff16905090565b611f9e6129a3565b60018060008373ffffffffffffffffffffffffffffffffffffffff1673ffffffffffffffffffffffffffffffffffffffff16815260200190815260200160002060006101000a81548160ff02191690831515021790555050565b7f000000000000000000000000000000000000000000000000000000000000000081565b60006001600660009054906101000a900473ffffffffffffffffffffffffffffffffffffffff1673ffffffffffffffffffffffffffffffffffffffff16631eb2c12060046040518263ffffffff1660e01b815260040161207c919061436f565b602060405180830381865afa158015612099573d6000803e3d6000fd5b505050506040513d601f19601f820116820180604052508101906120bd9190614193565b6120c79190613ecc565b90506040518061010001604052808281526020013373ffffffffffffffffffffffffffffffffffffffff16815260200184815260200183815260200160405180604001604052806000815260200161211d61290b565b8152508152602001600081526020014381526020016000815250600260003373ffffffffffffffffffffffffffffffffffffffff1673ffffffffffffffffffffffffffffffffffffffff1681526020019081526020016000206000820151816000015560208201518160010160006101000a81548173ffffffffffffffffffffffffffffffffffffffff021916908373ffffffffffffffffffffffffffffffffffffffff16021790555060408201518160020190816121dc91906140ac565b5060608201518160030190816121f291906140ac565b506080820151816004016000820151816000015560208201518160010155505060a0820151816006015560c0820151816007015560e08201518160080155905050336005600083815260200190815260200160002060006101000a81548173ffffffffffffffffffffffffffffffffffffffff021916908373ffffffffffffffffffffffffffffffffffffffff160217905550600660009054906101000a900473ffffffffffffffffffffffffffffffffffffffff1673ffffffffffffffffffffffffffffffffffffffff16639c3eead93360046040518363ffffffff1660e01b81526004016122e392919061438a565b600060405180830381600087803b1580156122fd57600080fd5b505af1158015612311573d6000803e3d6000fd5b50505050505050565b60006005831161232d576001905061235f565b60006123556001612347868861305990919063ffffffff16565b61306f90919063ffffffff16565b9050808310159150505b9392505050565b6000600160008373ffffffffffffffffffffffffffffffffffffffff1673ffffffffffffffffffffffffffffffffffffffff16815260200190815260200160002060009054906101000a900460ff169050919050565b7f000000000000000000000000000000000000000000000000000000000000000081565b600080600260008473ffffffffffffffffffffffffffffffffffffffff1673ffffffffffffffffffffffffffffffffffffffff16815260200190815260200160002060405180610100016040529081600082015481526020016001820160009054906101000a900473ffffffffffffffffffffffffffffffffffffffff1673ffffffffffffffffffffffffffffffffffffffff1673ffffffffffffffffffffffffffffffffffffffff16815260200160028201805461249e90613a84565b80601f01602080910402602001604051908101604052809291908181526020018280546124ca90613a84565b80156125175780601f106124ec57610100808354040283529160200191612517565b820191906000526020600020905b8154815290600101906020018083116124fa57829003601f168201915b5050505050815260200160038201805461253090613a84565b80601f016020809104026020016040519081016040528092919081815260200182805461255c90613a84565b80156125a95780601f1061257e576101008083540402835291602001916125a9565b820191906000526020600020905b81548152906001019060200180831161258c57829003601f168201915b50505050508152602001600482016040518060400160405290816000820154815260200160018201548152505081526020016006820154815260200160078201548152602001600882015481525050905060008160000151116126105760009150506126c5565b6126c1600a54600660009054906101000a900473ffffffffffffffffffffffffffffffffffffffff1673ffffffffffffffffffffffffffffffffffffffff16631eb2c12060046040518263ffffffff1660e01b8152600401612672919061436f565b602060405180830381865afa15801561268f573d6000803e3d6000fd5b505050506040513d601f19601f820116820180604052508101906126b39190614193565b83608001516000015161231a565b9150505b919050565b60036020528060005260406000206000915090508060000154908060010154908060020160009054906101000a900473ffffffffffffffffffffffffffffffffffffffff169080600301805461271f90613a84565b80601f016020809104026020016040519081016040528092919081815260200182805461274b90613a84565b80156127985780601f1061276d57610100808354040283529160200191612798565b820191906000526020600020905b81548152906001019060200180831161277b57829003601f168201915b5050505050908060040180546127ad90613a84565b80601f01602080910402602001604051908101604052809291908181526020018280546127d990613a84565b80156128265780601f106127fb57610100808354040283529160200191612826565b820191906000526020600020905b81548152906001019060200180831161280957829003601f168201915b5050505050908060050154908060060160009054906101000a900460ff16908060070154908060080154905089565b61285d6129a3565b600073ffffffffffffffffffffffffffffffffffffffff168173ffffffffffffffffffffffffffffffffffffffff16036128cc576040517f08c379a00000000000000000000000000000000000000000000000000000000081526004016128c390614425565b60405180910390fd5b6128d581612a21565b50565b60056020528060005260406000206000915054906101000a900473ffffffffffffffffffffffffffffffffffffffff1681565b6000600760009054906101000a900473ffffffffffffffffffffffffffffffffffffffff1673ffffffffffffffffffffffffffffffffffffffff1663ed0df79e6040518163ffffffff1660e01b8152600401602060405180830381865afa15801561297a573d6000803e3d6000fd5b505050506040513d601f19601f8201168201806040525081019061299e9190614193565b905090565b6129ab613085565b73ffffffffffffffffffffffffffffffffffffffff166129c9611f6d565b73ffffffffffffffffffffffffffffffffffffffff1614612a1f576040517f08c379a0000000000000000000000000000000000000000000000000000000008152600401612a1690614491565b60405180910390fd5b565b60008060009054906101000a900473ffffffffffffffffffffffffffffffffffffffff169050816000806101000a81548173ffffffffffffffffffffffffffffffffffffffff021916908373ffffffffffffffffffffffffffffffffffffffff1602179055508173ffffffffffffffffffffffffffffffffffffffff168173ffffffffffffffffffffffffffffffffffffffff167f8be0079c531659141344cd1fd0a4f28419497f9722a3daafe3b4186f6b6457e060405160405180910390a35050565b60096000815480929190612af8906144b1565b919050555060008160c0019015159081151581525050438160e0018181525050806003600083600001518152602001908152602001600020600082015181600001556020820151816001015560408201518160020160006101000a81548173ffffffffffffffffffffffffffffffffffffffff021916908373ffffffffffffffffffffffffffffffffffffffff1602179055506060820151816003019081612ba091906140ac565b506080820151816004019081612bb691906140ac565b5060a0820151816005015560c08201518160060160006101000a81548160ff02191690831515021790555060e08201518160070155610100820151816008015590505050565b600080600260008473ffffffffffffffffffffffffffffffffffffffff1673ffffffffffffffffffffffffffffffffffffffff16815260200190815260200160002060080154905060007f000000000000000000000000000000000000000000000000000000000000000082612c729190613ecc565b431190508080612c825750600082145b92505050919050565b6000600260008373ffffffffffffffffffffffffffffffffffffffff1673ffffffffffffffffffffffffffffffffffffffff16815260200190815260200160002060405180610100016040529081600082015481526020016001820160009054906101000a900473ffffffffffffffffffffffffffffffffffffffff1673ffffffffffffffffffffffffffffffffffffffff1673ffffffffffffffffffffffffffffffffffffffff168152602001600282018054612d4890613a84565b80601f0160208091040260200160405190810160405280929190818152602001828054612d7490613a84565b8015612dc15780601f10612d9657610100808354040283529160200191612dc1565b820191906000526020600020905b815481529060010190602001808311612da457829003601f168201915b50505050508152602001600382018054612dda90613a84565b80601f0160208091040260200160405190810160405280929190818152602001828054612e0690613a84565b8015612e535780601f10612e2857610100808354040283529160200191612e53565b820191906000526020600020905b815481529060010190602001808311612e3657829003601f168201915b505050505081526020016004820160405180604001604052908160008201548152602001600182015481525050815260200160068201548152602001600782015481526020016008820154815250509050438160e001818152505080608001516000018051809190612ec490613d20565b8152505080600260008473ffffffffffffffffffffffffffffffffffffffff1673ffffffffffffffffffffffffffffffffffffffff1681526020019081526020016000206000820151816000015560208201518160010160006101000a81548173ffffffffffffffffffffffffffffffffffffffff021916908373ffffffffffffffffffffffffffffffffffffffff1602179055506040820151816002019081612f6e91906140ac565b506060820151816003019081612f8491906140ac565b506080820151816004016000820151816000015560208201518160010155505060a0820151816006015560c0820151816007015560e08201518160080155905050600760009054906101000a900473ffffffffffffffffffffffffffffffffffffffff1673ffffffffffffffffffffffffffffffffffffffff166352b8d3ed8360016040518363ffffffff1660e01b8152600401613023929190614515565b600060405180830381600087803b15801561303d57600080fd5b505af1158015613051573d6000803e3d6000fd5b505050505050565b60008183613067919061456d565b905092915050565b6000818361307d9190613ecc565b905092915050565b600033905090565b6040518061012001604052806000815260200160008152602001600073ffffffffffffffffffffffffffffffffffffffff16815260200160608152602001606081526020016000815260200160001515815260200160008152602001600081525090565b60405180610100016040528060008152602001600073ffffffffffffffffffffffffffffffffffffffff1681526020016060815260200160608152602001613137613152565b81526020016000815260200160008152602001600081525090565b604051806040016040528060008152602001600081525090565b6000604051905090565b600080fd5b600080fd5b600073ffffffffffffffffffffffffffffffffffffffff82169050919050565b60006131ab82613180565b9050919050565b6131bb816131a0565b81146131c657600080fd5b50565b6000813590506131d8816131b2565b92915050565b6000819050919050565b6131f1816131de565b81146131fc57600080fd5b50565b60008135905061320e816131e8565b92915050565b6000806040838503121561322b5761322a613176565b5b6000613239858286016131c9565b925050602061324a858286016131ff565b9150509250929050565b61325d816131de565b82525050565b60006020820190506132786000830184613254565b92915050565b60006020828403121561329457613293613176565b5b60006132a2848285016131c9565b91505092915050565b6000602082840312156132c1576132c0613176565b5b60006132cf848285016131ff565b91505092915050565b6132e1816131de565b82525050565b6132f0816131a0565b82525050565b600081519050919050565b600082825260208201905092915050565b60005b83811015613330578082015181840152602081019050613315565b60008484015250505050565b6000601f19601f8301169050919050565b6000613358826132f6565b6133628185613301565b9350613372818560208601613312565b61337b8161333c565b840191505092915050565b60008115159050919050565b61339b81613386565b82525050565b6000610120830160008301516133ba60008601826132d8565b5060208301516133cd60208601826132d8565b5060408301516133e060408601826132e7565b50606083015184820360608601526133f8828261334d565b91505060808301518482036080860152613412828261334d565b91505060a083015161342760a08601826132d8565b5060c083015161343a60c0860182613392565b5060e083015161344d60e08601826132d8565b506101008301516134626101008601826132d8565b508091505092915050565b6000602082019050818103600083015261348781846133a1565b905092915050565b613498816131a0565b82525050565b600082825260208201905092915050565b60006134ba826132f6565b6134c4818561349e565b93506134d4818560208601613312565b6134dd8161333c565b840191505092915050565b6040820160008201516134fe60008501826132d8565b50602082015161351160208501826132d8565b50505050565b60006101208201905061352d600083018b613254565b61353a602083018a61348f565b818103604083015261354c81896134af565b9050818103606083015261356081886134af565b905061356f60808301876134e8565b61357c60c0830186613254565b61358960e0830185613254565b613597610100830184613254565b9998505050505050505050565b6040820160008201516135ba60008501826132d8565b5060208201516135cd60208501826132d8565b50505050565b6000610120830160008301516135ec60008601826132d8565b5060208301516135ff60208601826132e7565b5060408301518482036040860152613617828261334d565b91505060608301518482036060860152613631828261334d565b915050608083015161364660808601826135a4565b5060a083015161365960c08601826132d8565b5060c083015161366c60e08601826132d8565b5060e08301516136806101008601826132d8565b508091505092915050565b600060208201905081810360008301526136a581846135d3565b905092915050565b600080fd5b600080fd5b7f4e487b7100000000000000000000000000000000000000000000000000000000600052604160045260246000fd5b6136ef8261333c565b810181811067ffffffffffffffff8211171561370e5761370d6136b7565b5b80604052505050565b600061372161316c565b905061372d82826136e6565b919050565b600067ffffffffffffffff82111561374d5761374c6136b7565b5b6137568261333c565b9050602081019050919050565b82818337600083830152505050565b600061378561378084613732565b613717565b9050828152602081018484840111156137a1576137a06136b2565b5b6137ac848285613763565b509392505050565b600082601f8301126137c9576137c86136ad565b5b81356137d9848260208601613772565b91505092915050565b600080604083850312156137f9576137f8613176565b5b6000613807858286016131ff565b925050602083013567ffffffffffffffff8111156138285761382761317b565b5b613834858286016137b4565b9150509250929050565b61384781613386565b82525050565b6000602082019050613862600083018461383e565b92915050565b6000806040838503121561387f5761387e613176565b5b600083013567ffffffffffffffff81111561389d5761389c61317b565b5b6138a9858286016137b4565b925050602083013567ffffffffffffffff8111156138ca576138c961317b565b5b6138d6858286016137b4565b9150509250929050565b60006020820190506138f5600083018461348f565b92915050565b60008060006060848603121561391457613913613176565b5b6000613922868287016131ff565b9350506020613933868287016131ff565b9250506040613944868287016131ff565b9150509250925092565b600061012082019050613964600083018c613254565b613971602083018b613254565b61397e604083018a61348f565b818103606083015261399081896134af565b905081810360808301526139a481886134af565b90506139b360a0830187613254565b6139c060c083018661383e565b6139cd60e0830185613254565b6139db610100830184613254565b9a9950505050505050505050565b7f4e6f7420616c6c6f7765642063616c6c65720000000000000000000000000000600082015250565b6000613a1f60128361349e565b9150613a2a826139e9565b602082019050919050565b60006020820190508181036000830152613a4e81613a12565b9050919050565b7f4e487b7100000000000000000000000000000000000000000000000000000000600052602260045260246000fd5b60006002820490506001821680613a9c57607f821691505b602082108103613aaf57613aae613a55565b5b50919050565b7f4e487b7100000000000000000000000000000000000000000000000000000000600052601160045260246000fd5b6000613aef826131de565b9150613afa836131de565b9250828203905081811115613b1257613b11613ab5565b5b92915050565b6000606082019050613b2d600083018661348f565b613b3a6020830185613254565b613b476040830184613254565b949350505050565b7f4e487b7100000000000000000000000000000000000000000000000000000000600052602160045260246000fd5b600a8110613b8f57613b8e613b4f565b5b50565b6000819050613ba082613b7e565b919050565b6000613bb082613b92565b9050919050565b613bc081613ba5565b82525050565b6000604082019050613bdb6000830185613bb7565b613be8602083018461348f565b9392505050565b613bf881613386565b8114613c0357600080fd5b50565b600081519050613c1581613bef565b92915050565b600060208284031215613c3157613c30613176565b5b6000613c3f84828501613c06565b91505092915050565b7f506f6f6c206f6e6c7920746f20646576656c6f70657200000000000000000000600082015250565b6000613c7e60168361349e565b9150613c8982613c48565b602082019050919050565b60006020820190508181036000830152613cad81613c71565b9050919050565b7f43616e277420617070726f766520776974686472617700000000000000000000600082015250565b6000613cea60168361349e565b9150613cf582613cb4565b602082019050919050565b60006020820190508181036000830152613d1981613cdd565b9050919050565b6000613d2b826131de565b91507fffffffffffffffffffffffffffffffffffffffffffffffffffffffffffffffff8203613d5d57613d5c613ab5565b5b600182019050919050565b6000604082019050613d7d600083018561348f565b613d8a6020830184613254565b9392505050565b6000819050919050565b613da481613d91565b8114613daf57600080fd5b50565b600081519050613dc181613d9b565b92915050565b600060208284031215613ddd57613ddc613176565b5b6000613deb84828501613db2565b91505092915050565b7f506c656173652072656769737465722061732076616c696461746f7200000000600082015250565b6000613e2a601c8361349e565b9150613e3582613df4565b602082019050919050565b60006020820190508181036000830152613e5981613e1d565b9050919050565b7f54686973207265706f7274206973206e6f742056414c49440000000000000000600082015250565b6000613e9660188361349e565b9150613ea182613e60565b602082019050919050565b60006020820190508181036000830152613ec581613e89565b9050919050565b6000613ed7826131de565b9150613ee2836131de565b9250828201905080821115613efa57613ef9613ab5565b5b92915050565b60008190508160005260206000209050919050565b60006020601f8301049050919050565b600082821b905092915050565b600060088302613f627fffffffffffffffffffffffffffffffffffffffffffffffffffffffffffffffff82613f25565b613f6c8683613f25565b95508019841693508086168417925050509392505050565b6000819050919050565b6000613fa9613fa4613f9f846131de565b613f84565b6131de565b9050919050565b6000819050919050565b613fc383613f8e565b613fd7613fcf82613fb0565b848454613f32565b825550505050565b600090565b613fec613fdf565b613ff7818484613fba565b505050565b5b8181101561401b57614010600082613fe4565b600181019050613ffd565b5050565b601f8211156140605761403181613f00565b61403a84613f15565b81016020851015614049578190505b61405d61405585613f15565b830182613ffc565b50505b505050565b600082821c905092915050565b600061408360001984600802614065565b1980831691505092915050565b600061409c8383614072565b9150826002028217905092915050565b6140b5826132f6565b67ffffffffffffffff8111156140ce576140cd6136b7565b5b6140d88254613a84565b6140e382828561401f565b600060209050601f8311600181146141165760008415614104578287015190505b61410e8582614090565b865550614176565b601f19841661412486613f00565b60005b8281101561414c57848901518255600182019150602085019450602081019050614127565b868310156141695784890151614165601f891682614072565b8355505b6001600288020188555050505b505050505050565b60008151905061418d816131e8565b92915050565b6000602082840312156141a9576141a8613176565b5b60006141b78482850161417e565b91505092915050565b600060608201905081810360008301526141da81866133a1565b905081810360208301526141ee81856134af565b90506141fd604083018461348f565b949350505050565b7f4f6e6c7920446576656c6f706572000000000000000000000000000000000000600082015250565b600061423b600e8361349e565b915061424682614205565b602082019050919050565b6000602082019050818103600083015261426a8161422e565b9050919050565b7f5761697420756e74696c206e6578742065726120746f20616464207265706f7260008201527f7400000000000000000000000000000000000000000000000000000000000000602082015250565b60006142cd60218361349e565b91506142d882614271565b604082019050919050565b600060208201905081810360008301526142fc816142c0565b9050919050565b7f43616e2774207075626c69736820796574000000000000000000000000000000600082015250565b600061433960118361349e565b915061434482614303565b602082019050919050565b600060208201905081810360008301526143688161432c565b9050919050565b60006020820190506143846000830184613bb7565b92915050565b600060408201905061439f600083018561348f565b6143ac6020830184613bb7565b9392505050565b7f4f776e61626c653a206e6577206f776e657220697320746865207a65726f206160008201527f6464726573730000000000000000000000000000000000000000000000000000602082015250565b600061440f60268361349e565b915061441a826143b3565b604082019050919050565b6000602082019050818103600083015261443e81614402565b9050919050565b7f4f776e61626c653a2063616c6c6572206973206e6f7420746865206f776e6572600082015250565b600061447b60208361349e565b915061448682614445565b602082019050919050565b600060208201905081810360008301526144aa8161446e565b9050919050565b60006144bc826131de565b9150600082036144cf576144ce613ab5565b5b600182039050919050565b6000819050919050565b60006144ff6144fa6144f5846144da565b613f84565b6131de565b9050919050565b61450f816144e4565b82525050565b600060408201905061452a600083018561348f565b6145376020830184614506565b9392505050565b7f4e487b7100000000000000000000000000000000000000000000000000000000600052601260045260246000fd5b6000614578826131de565b9150614583836131de565b9250826145935761459261453e565b5b82820490509291505056fea264697066735822122027363d4e099ac2da176214791fae0cee9a550354ac17ca002b5f6d4a5a9dd92a64736f6c634300081b0033",
  "linkReferences": {},
  "deployedLinkReferences": {}
}