{
  "_format": "hh-sol-artifact-1",
  "contractName": "DeveloperRules",
  "sourceName": "contracts/DeveloperRules.sol",
  "abi": [
    {
      "inputs": [
        {
          "internalType": "uint256",
          "name": "timeBetweenWorks_",
          "type": "uint256"
        },
        {
          "internalType": "uint256",
          "name": "maxPenalties_",
          "type": "uint256"
        },
        {
          "internalType": "uint256",
          "name": "securityBlocksToValidatorAnalysis",
          "type": "uint256"
        }
      ],
      "stateMutability": "nonpayable",
      "type": "constructor"
    },
    {
      "anonymous": false,
      "inputs": [
        {
          "indexed": true,
          "internalType": "address",
          "name": "previousOwner",
          "type": "address"
        },
        {
          "indexed": true,
          "internalType": "address",
          "name": "newOwner",
          "type": "address"
        }
      ],
      "name": "OwnershipTransferred",
      "type": "event"
    },
    {
      "inputs": [],
      "name": "MAX_PENALTIES",
      "outputs": [
        {
          "internalType": "uint256",
          "name": "",
          "type": "uint256"
        }
      ],
      "stateMutability": "view",
      "type": "function"
    },
    {
      "inputs": [],
      "name": "SECURITY_BLOCKS_TO_VALIDATOR_ANALYSIS",
      "outputs": [
        {
          "internalType": "uint256",
          "name": "",
          "type": "uint256"
        }
      ],
      "stateMutability": "view",
      "type": "function"
    },
    {
      "inputs": [
        {
          "internalType": "string",
          "name": "name",
          "type": "string"
        },
        {
          "internalType": "string",
          "name": "proofPhoto",
          "type": "string"
        }
      ],
      "name": "addDeveloper",
      "outputs": [],
      "stateMutability": "nonpayable",
      "type": "function"
    },
    {
      "inputs": [
        {
          "internalType": "address",
          "name": "addr",
          "type": "address"
        },
        {
          "internalType": "uint256",
          "name": "reportId",
          "type": "uint256"
        }
      ],
      "name": "addPenalty",
      "outputs": [
        {
          "internalType": "uint256",
          "name": "",
          "type": "uint256"
        }
      ],
      "stateMutability": "nonpayable",
      "type": "function"
    },
    {
      "inputs": [
        {
          "internalType": "string",
          "name": "description",
          "type": "string"
        },
        {
          "internalType": "string",
          "name": "report",
          "type": "string"
        }
      ],
      "name": "addReport",
      "outputs": [],
      "stateMutability": "nonpayable",
      "type": "function"
    },
    {
      "inputs": [
        {
          "internalType": "uint256",
          "name": "id",
          "type": "uint256"
        },
        {
          "internalType": "string",
          "name": "justification",
          "type": "string"
        }
      ],
      "name": "addReportValidation",
      "outputs": [],
      "stateMutability": "nonpayable",
      "type": "function"
    },
    {
      "inputs": [
        {
          "internalType": "address",
          "name": "",
          "type": "address"
        }
      ],
      "name": "allowedCallers",
      "outputs": [
        {
          "internalType": "bool",
          "name": "",
          "type": "bool"
        }
      ],
      "stateMutability": "view",
      "type": "function"
    },
    {
      "inputs": [
        {
          "internalType": "uint256",
          "name": "totalLevels",
          "type": "uint256"
        },
        {
          "internalType": "uint256",
          "name": "totalUsers",
          "type": "uint256"
        },
        {
          "internalType": "uint256",
          "name": "userLevels",
          "type": "uint256"
        }
      ],
      "name": "canInvite",
      "outputs": [
        {
          "internalType": "bool",
          "name": "",
          "type": "bool"
        }
      ],
      "stateMutability": "pure",
      "type": "function"
    },
    {
      "inputs": [
        {
          "internalType": "address",
          "name": "addr",
          "type": "address"
        }
      ],
      "name": "canSendInvite",
      "outputs": [
        {
          "internalType": "bool",
          "name": "",
          "type": "bool"
        }
      ],
      "stateMutability": "view",
      "type": "function"
    },
    {
      "inputs": [
        {
          "internalType": "address",
          "name": "addr",
          "type": "address"
        }
      ],
      "name": "developerExists",
      "outputs": [
        {
          "internalType": "bool",
          "name": "",
          "type": "bool"
        }
      ],
      "stateMutability": "view",
      "type": "function"
    },
    {
      "inputs": [
        {
          "internalType": "address",
          "name": "",
          "type": "address"
        }
      ],
      "name": "developers",
      "outputs": [
        {
          "internalType": "uint256",
          "name": "id",
          "type": "uint256"
        },
        {
          "internalType": "address",
          "name": "developerWallet",
          "type": "address"
        },
        {
          "internalType": "string",
          "name": "name",
          "type": "string"
        },
        {
          "internalType": "string",
          "name": "proofPhoto",
          "type": "string"
        },
        {
          "components": [
            {
              "internalType": "uint256",
              "name": "level",
              "type": "uint256"
            },
            {
              "internalType": "uint256",
              "name": "currentEra",
              "type": "uint256"
            }
          ],
          "internalType": "struct Pool",
          "name": "pool",
          "type": "tuple"
        },
        {
          "internalType": "uint256",
          "name": "totalReports",
          "type": "uint256"
        },
        {
          "internalType": "uint256",
          "name": "createdAt",
          "type": "uint256"
        },
        {
          "internalType": "uint256",
          "name": "lastPublishedAt",
          "type": "uint256"
        }
      ],
      "stateMutability": "view",
      "type": "function"
    },
    {
      "inputs": [
        {
          "internalType": "uint256",
          "name": "",
          "type": "uint256"
        }
      ],
      "name": "developersAddress",
      "outputs": [
        {
          "internalType": "address",
          "name": "",
          "type": "address"
        }
      ],
      "stateMutability": "view",
      "type": "function"
    },
    {
      "inputs": [
        {
          "internalType": "address",
          "name": "addr",
          "type": "address"
        }
      ],
      "name": "getDeveloper",
      "outputs": [
        {
          "components": [
            {
              "internalType": "uint256",
              "name": "id",
              "type": "uint256"
            },
            {
              "internalType": "address",
              "name": "developerWallet",
              "type": "address"
            },
            {
              "internalType": "string",
              "name": "name",
              "type": "string"
            },
            {
              "internalType": "string",
              "name": "proofPhoto",
              "type": "string"
            },
            {
              "components": [
                {
                  "internalType": "uint256",
                  "name": "level",
                  "type": "uint256"
                },
                {
                  "internalType": "uint256",
                  "name": "currentEra",
                  "type": "uint256"
                }
              ],
              "internalType": "struct Pool",
              "name": "pool",
              "type": "tuple"
            },
            {
              "internalType": "uint256",
              "name": "totalReports",
              "type": "uint256"
            },
            {
              "internalType": "uint256",
              "name": "createdAt",
              "type": "uint256"
            },
            {
              "internalType": "uint256",
              "name": "lastPublishedAt",
              "type": "uint256"
            }
          ],
          "internalType": "struct Developer",
          "name": "developer",
          "type": "tuple"
        }
      ],
      "stateMutability": "view",
      "type": "function"
    },
    {
      "inputs": [
        {
          "internalType": "uint256",
          "name": "id",
          "type": "uint256"
        }
      ],
      "name": "getReport",
      "outputs": [
        {
          "components": [
            {
              "internalType": "uint256",
              "name": "id",
              "type": "uint256"
            },
            {
              "internalType": "uint256",
              "name": "era",
              "type": "uint256"
            },
            {
              "internalType": "address",
              "name": "developer",
              "type": "address"
            },
            {
              "internalType": "string",
              "name": "description",
              "type": "string"
            },
            {
              "internalType": "string",
              "name": "report",
              "type": "string"
            },
            {
              "internalType": "uint256",
              "name": "validationsCount",
              "type": "uint256"
            },
            {
              "internalType": "bool",
              "name": "valid",
              "type": "bool"
            },
            {
              "internalType": "uint256",
              "name": "invalidatedAt",
              "type": "uint256"
            },
            {
              "internalType": "uint256",
              "name": "createdAtBlockNumber",
              "type": "uint256"
            }
          ],
          "internalType": "struct Report",
          "name": "",
          "type": "tuple"
        }
      ],
      "stateMutability": "view",
      "type": "function"
    },
    {
      "inputs": [
        {
          "internalType": "address",
          "name": "addr",
          "type": "address"
        }
      ],
      "name": "getReportsIds",
      "outputs": [
        {
          "internalType": "uint256[]",
          "name": "",
          "type": "uint256[]"
        }
      ],
      "stateMutability": "view",
      "type": "function"
    },
    {
      "inputs": [
        {
          "internalType": "address",
          "name": "caller",
          "type": "address"
        }
      ],
      "name": "isAllowedCaller",
      "outputs": [
        {
          "internalType": "bool",
          "name": "",
          "type": "bool"
        }
      ],
      "stateMutability": "view",
      "type": "function"
    },
    {
      "inputs": [
        {
          "internalType": "address",
          "name": "allowed",
          "type": "address"
        }
      ],
      "name": "newAllowedCaller",
      "outputs": [],
      "stateMutability": "nonpayable",
      "type": "function"
    },
    {
      "inputs": [],
      "name": "nextEraIn",
      "outputs": [
        {
          "internalType": "uint256",
          "name": "",
          "type": "uint256"
        }
      ],
      "stateMutability": "view",
      "type": "function"
    },
    {
      "inputs": [],
      "name": "owner",
      "outputs": [
        {
          "internalType": "address",
          "name": "",
          "type": "address"
        }
      ],
      "stateMutability": "view",
      "type": "function"
    },
    {
      "inputs": [
        {
          "internalType": "address",
          "name": "",
          "type": "address"
        },
        {
          "internalType": "uint256",
          "name": "",
          "type": "uint256"
        }
      ],
      "name": "penalties",
      "outputs": [
        {
          "internalType": "uint256",
          "name": "reportId",
          "type": "uint256"
        }
      ],
      "stateMutability": "view",
      "type": "function"
    },
    {
      "inputs": [],
      "name": "poolCurrentEra",
      "outputs": [
        {
          "internalType": "uint256",
          "name": "",
          "type": "uint256"
        }
      ],
      "stateMutability": "view",
      "type": "function"
    },
    {
      "inputs": [
        {
          "internalType": "address",
          "name": "addr",
          "type": "address"
        },
        {
          "internalType": "uint256",
          "name": "removeSomeLevels",
          "type": "uint256"
        }
      ],
      "name": "removePoolLevels",
      "outputs": [],
      "stateMutability": "nonpayable",
      "type": "function"
    },
    {
      "inputs": [],
      "name": "renounceOwnership",
      "outputs": [],
      "stateMutability": "nonpayable",
      "type": "function"
    },
    {
      "inputs": [
        {
          "internalType": "uint256",
          "name": "",
          "type": "uint256"
        }
      ],
      "name": "reports",
      "outputs": [
        {
          "internalType": "uint256",
          "name": "id",
          "type": "uint256"
        },
        {
          "internalType": "uint256",
          "name": "era",
          "type": "uint256"
        },
        {
          "internalType": "address",
          "name": "developer",
          "type": "address"
        },
        {
          "internalType": "string",
          "name": "description",
          "type": "string"
        },
        {
          "internalType": "string",
          "name": "report",
          "type": "string"
        },
        {
          "internalType": "uint256",
          "name": "validationsCount",
          "type": "uint256"
        },
        {
          "internalType": "bool",
          "name": "valid",
          "type": "bool"
        },
        {
          "internalType": "uint256",
          "name": "invalidatedAt",
          "type": "uint256"
        },
        {
          "internalType": "uint256",
          "name": "createdAtBlockNumber",
          "type": "uint256"
        }
      ],
      "stateMutability": "view",
      "type": "function"
    },
    {
      "inputs": [],
      "name": "reportsCount",
      "outputs": [
        {
          "internalType": "uint256",
          "name": "",
          "type": "uint256"
        }
      ],
      "stateMutability": "view",
      "type": "function"
    },
    {
      "inputs": [
        {
          "internalType": "address",
          "name": "",
          "type": "address"
        },
        {
          "internalType": "uint256",
          "name": "",
          "type": "uint256"
        }
      ],
      "name": "reportsIds",
      "outputs": [
        {
          "internalType": "uint256",
          "name": "",
          "type": "uint256"
        }
      ],
      "stateMutability": "view",
      "type": "function"
    },
    {
      "inputs": [],
      "name": "reportsTotalCount",
      "outputs": [
        {
          "internalType": "uint256",
          "name": "",
          "type": "uint256"
        }
      ],
      "stateMutability": "view",
      "type": "function"
    },
    {
      "inputs": [
        {
          "components": [
            {
              "internalType": "address",
              "name": "communityRulesAddress",
              "type": "address"
            },
            {
              "internalType": "address",
              "name": "developerPoolAddress",
              "type": "address"
            },
            {
              "internalType": "address",
              "name": "validationRulesAddress",
              "type": "address"
            },
            {
              "internalType": "address",
              "name": "voteRulesAddress",
              "type": "address"
            }
          ],
          "internalType": "struct ContractsDependency",
          "name": "contractDependency",
          "type": "tuple"
        }
      ],
      "name": "setContractAddressDependencies",
      "outputs": [],
      "stateMutability": "nonpayable",
      "type": "function"
    },
    {
      "inputs": [
        {
          "internalType": "address",
          "name": "addr",
          "type": "address"
        }
      ],
      "name": "totalPenalties",
      "outputs": [
        {
          "internalType": "uint256",
          "name": "",
          "type": "uint256"
        }
      ],
      "stateMutability": "view",
      "type": "function"
    },
    {
      "inputs": [
        {
          "internalType": "address",
          "name": "newOwner",
          "type": "address"
        }
      ],
      "name": "transferOwnership",
      "outputs": [],
      "stateMutability": "nonpayable",
      "type": "function"
    },
    {
      "inputs": [],
      "name": "withdraw",
      "outputs": [],
      "stateMutability": "nonpayable",
      "type": "function"
    }
  ],
  "bytecode": "0x60e060405234801561001057600080fd5b5060405161514338038061514383398181016040528101906100329190610175565b61004e61004361006e60201b60201c565b61007660201b60201c565b82608081815250508160a081815250508060c081815250505050506101c8565b600033905090565b60008060009054906101000a900473ffffffffffffffffffffffffffffffffffffffff169050816000806101000a81548173ffffffffffffffffffffffffffffffffffffffff021916908373ffffffffffffffffffffffffffffffffffffffff1602179055508173ffffffffffffffffffffffffffffffffffffffff168173ffffffffffffffffffffffffffffffffffffffff167f8be0079c531659141344cd1fd0a4f28419497f9722a3daafe3b4186f6b6457e060405160405180910390a35050565b600080fd5b6000819050919050565b6101528161013f565b811461015d57600080fd5b50565b60008151905061016f81610149565b92915050565b60008060006060848603121561018e5761018d61013a565b5b600061019c86828701610160565b93505060206101ad86828701610160565b92505060406101be86828701610160565b9150509250925092565b60805160a05160c051614f456101fe60003960008181611fd901526124610152600061298a015260006132210152614f456000f3fe608060405234801561001057600080fd5b50600436106101e55760003560e01c80637a3e00661161010f578063a6801258116100a2578063c942adf711610071578063c942adf7146105d1578063e05cf15514610609578063f2fde38b14610627578063fa64d0f414610643576101e5565b8063a680125814610523578063b432fdca14610553578063b43f070a14610583578063c77c1ce6146105a1576101e5565b80638f93716f116100de5780638f93716f1461049d57806397705d60146104b95780639e02b7bc146104d75780639eaf666f146104f3576101e5565b80637a3e0066146104035780637b3341541461041f5780638314e0081461044f5780638da5cb5b1461047f576101e5565b8063582256f111610187578063715018a611610156578063715018a61461038f5780637384fe5f1461039957806374f7c429146103b5578063791b1ecc146103d3576101e5565b8063582256f1146102da5780635fa71c28146102f857806361fd5c201461032857806367e13ee01461035f576101e5565b80632d68402e116101c35780632d68402e146102665780633ccfd60b146102825780633e0c27f01461028c5780634e7f9b19146102aa576101e5565b806318ad5c9a146101ea5780631b63a43c146102065780632076267b14610236575b600080fd5b61020460048036038101906101ff91906137ee565b610673565b005b610220600480360381019061021b91906137ee565b610a28565b60405161022d919061383d565b60405180910390f35b610250600480360381019061024b9190613858565b610b46565b60405161025d919061383d565b60405180910390f35b610280600480360381019061027b919061398e565b610b92565b005b61028a610cb1565b005b61029461117e565b6040516102a1919061383d565b60405180910390f35b6102c460048036038101906102bf91906139bb565b611184565b6040516102d19190613b6c565b60405180910390f35b6102e2611379565b6040516102ef919061383d565b60405180910390f35b610312600480360381019061030d91906137ee565b611423565b60405161031f919061383d565b60405180910390f35b610342600480360381019061033d9190613858565b61145a565b604051610356989796959493929190613c16565b60405180910390f35b61037960048036038101906103749190613858565b6115f0565b6040516103869190613d8a565b60405180910390f35b610397611814565b005b6103b360048036038101906103ae9190613e66565b611828565b005b6103bd611ea5565b6040516103ca919061383d565b60405180910390f35b6103ed60048036038101906103e89190613858565b611eab565b6040516103fa9190613ed1565b60405180910390f35b61041d60048036038101906104189190613eec565b611ef9565b005b61043960048036038101906104349190613858565b61231d565b6040516104469190613ed1565b60405180910390f35b61046960048036038101906104649190613858565b61233d565b6040516104769190614013565b60405180910390f35b6104876123d4565b6040516104949190614035565b60405180910390f35b6104b760048036038101906104b29190613858565b6123fd565b005b6104c161245f565b6040516104ce919061383d565b60405180910390f35b6104f160048036038101906104ec9190613eec565b612483565b005b61050d60048036038101906105089190614050565b6128b5565b60405161051a9190613ed1565b60405180910390f35b61053d60048036038101906105389190613858565b612901565b60405161054a9190613ed1565b60405180910390f35b61056d600480360381019061056891906137ee565b612957565b60405161057a919061383d565b60405180910390f35b61058b612988565b604051610598919061383d565b60405180910390f35b6105bb60048036038101906105b69190613858565b6129ac565b6040516105c89190613ed1565b60405180910390f35b6105eb60048036038101906105e691906139bb565b612c96565b604051610600999897969594939291906140a3565b60405180910390f35b610611612e21565b60405161061e919061383d565b60405180910390f35b610641600480360381019061063c9190613858565b612eb9565b005b61065d600480360381019061065891906139bb565b612f3c565b60405161066a9190614035565b60405180910390f35b600160003373ffffffffffffffffffffffffffffffffffffffff1673ffffffffffffffffffffffffffffffffffffffff16815260200190815260200160002060009054906101000a900460ff166106ff576040517f08c379a00000000000000000000000000000000000000000000000000000000081526004016106f69061418a565b60405180910390fd5b6000600260008473ffffffffffffffffffffffffffffffffffffffff1673ffffffffffffffffffffffffffffffffffffffff16815260200190815260200160002060405180610100016040529081600082015481526020016001820160009054906101000a900473ffffffffffffffffffffffffffffffffffffffff1673ffffffffffffffffffffffffffffffffffffffff1673ffffffffffffffffffffffffffffffffffffffff1681526020016002820180546107bc906141d9565b80601f01602080910402602001604051908101604052809291908181526020018280546107e8906141d9565b80156108355780601f1061080a57610100808354040283529160200191610835565b820191906000526020600020905b81548152906001019060200180831161081857829003601f168201915b5050505050815260200160038201805461084e906141d9565b80601f016020809104026020016040519081016040528092919081815260200182805461087a906141d9565b80156108c75780601f1061089c576101008083540402835291602001916108c7565b820191906000526020600020905b8154815290600101906020018083116108aa57829003601f168201915b5050505050815260200160048201604051806040016040529081600082015481526020016001820154815250508152602001600682015481526020016007820154815260200160088201548152505090506000821161092e57806080015160000151610930565b815b600260008573ffffffffffffffffffffffffffffffffffffffff1673ffffffffffffffffffffffffffffffffffffffff16815260200190815260200160002060040160000160008282546109849190614239565b92505081905550600860009054906101000a900473ffffffffffffffffffffffffffffffffffffffff1673ffffffffffffffffffffffffffffffffffffffff1663157ffc52846109d2612e21565b856040518463ffffffff1660e01b81526004016109f19392919061426d565b600060405180830381600087803b158015610a0b57600080fd5b505af1158015610a1f573d6000803e3d6000fd5b50505050505050565b6000600160003373ffffffffffffffffffffffffffffffffffffffff1673ffffffffffffffffffffffffffffffffffffffff16815260200190815260200160002060009054906101000a900460ff16610ab6576040517f08c379a0000000000000000000000000000000000000000000000000000000008152600401610aad9061418a565b60405180910390fd5b600560008473ffffffffffffffffffffffffffffffffffffffff1673ffffffffffffffffffffffffffffffffffffffff16815260200190815260200160002060405180602001604052808481525090806001815401808255809150506001900390600052602060002001600090919091909150600082015181600001555050610b3e83610b46565b905092915050565b6000600560008373ffffffffffffffffffffffffffffffffffffffff1673ffffffffffffffffffffffffffffffffffffffff168152602001908152602001600020805490509050919050565b610b9a612f6f565b8060000151600760006101000a81548173ffffffffffffffffffffffffffffffffffffffff021916908373ffffffffffffffffffffffffffffffffffffffff1602179055508060200151600860006101000a81548173ffffffffffffffffffffffffffffffffffffffff021916908373ffffffffffffffffffffffffffffffffffffffff1602179055508060400151600960006101000a81548173ffffffffffffffffffffffffffffffffffffffff021916908373ffffffffffffffffffffffffffffffffffffffff1602179055508060600151600a60006101000a81548173ffffffffffffffffffffffffffffffffffffffff021916908373ffffffffffffffffffffffffffffffffffffffff16021790555050565b600760009054906101000a900473ffffffffffffffffffffffffffffffffffffffff1673ffffffffffffffffffffffffffffffffffffffff16639497c6086004336040518363ffffffff1660e01b8152600401610d0f92919061431b565b602060405180830381865afa158015610d2c573d6000803e3d6000fd5b505050506040513d601f19601f82011682018060405250810190610d509190614370565b610d8f576040517f08c379a0000000000000000000000000000000000000000000000000000000008152600401610d86906143e9565b60405180910390fd5b6000600260003373ffffffffffffffffffffffffffffffffffffffff1673ffffffffffffffffffffffffffffffffffffffff16815260200190815260200160002060405180610100016040529081600082015481526020016001820160009054906101000a900473ffffffffffffffffffffffffffffffffffffffff1673ffffffffffffffffffffffffffffffffffffffff1673ffffffffffffffffffffffffffffffffffffffff168152602001600282018054610e4c906141d9565b80601f0160208091040260200160405190810160405280929190818152602001828054610e78906141d9565b8015610ec55780601f10610e9a57610100808354040283529160200191610ec5565b820191906000526020600020905b815481529060010190602001808311610ea857829003601f168201915b50505050508152602001600382018054610ede906141d9565b80601f0160208091040260200160405190810160405280929190818152602001828054610f0a906141d9565b8015610f575780601f10610f2c57610100808354040283529160200191610f57565b820191906000526020600020905b815481529060010190602001808311610f3a57829003601f168201915b50505050508152602001600482016040518060400160405290816000820154815260200160018201548152505081526020016006820154815260200160078201548152602001600882015481525050905060008160800151602001519050600860009054906101000a900473ffffffffffffffffffffffffffffffffffffffff1673ffffffffffffffffffffffffffffffffffffffff1663fbe85f06826040518263ffffffff1660e01b8152600401611010919061383d565b602060405180830381865afa15801561102d573d6000803e3d6000fd5b505050506040513d601f19601f820116820180604052508101906110519190614370565b611090576040517f08c379a000000000000000000000000000000000000000000000000000000000815260040161108790614455565b60405180910390fd5b600260003373ffffffffffffffffffffffffffffffffffffffff1673ffffffffffffffffffffffffffffffffffffffff16815260200190815260200160002060040160010160008154809291906110e690614475565b9190505550600860009054906101000a900473ffffffffffffffffffffffffffffffffffffffff1673ffffffffffffffffffffffffffffffffffffffff1663f3fef3a333836040518363ffffffff1660e01b81526004016111489291906144bd565b600060405180830381600087803b15801561116257600080fd5b505af1158015611176573d6000803e3d6000fd5b505050505050565b600b5481565b61118c613667565b600360008381526020019081526020016000206040518061012001604052908160008201548152602001600182015481526020016002820160009054906101000a900473ffffffffffffffffffffffffffffffffffffffff1673ffffffffffffffffffffffffffffffffffffffff1673ffffffffffffffffffffffffffffffffffffffff168152602001600382018054611225906141d9565b80601f0160208091040260200160405190810160405280929190818152602001828054611251906141d9565b801561129e5780601f106112735761010080835404028352916020019161129e565b820191906000526020600020905b81548152906001019060200180831161128157829003601f168201915b505050505081526020016004820180546112b7906141d9565b80601f01602080910402602001604051908101604052809291908181526020018280546112e3906141d9565b80156113305780601f1061130557610100808354040283529160200191611330565b820191906000526020600020905b81548152906001019060200180831161131357829003601f168201915b50505050508152602001600582015481526020016006820160009054906101000a900460ff16151515158152602001600782015481526020016008820154815250509050919050565b6000600860009054906101000a900473ffffffffffffffffffffffffffffffffffffffff1673ffffffffffffffffffffffffffffffffffffffff1663d5ee3eb56113c1612e21565b6040518263ffffffff1660e01b81526004016113dd919061383d565b602060405180830381865afa1580156113fa573d6000803e3d6000fd5b505050506040513d601f19601f8201168201806040525081019061141e919061451c565b905090565b6005602052816000526040600020818154811061143f57600080fd5b90600052602060002001600091509150508060000154905081565b60026020528060005260406000206000915090508060000154908060010160009054906101000a900473ffffffffffffffffffffffffffffffffffffffff16908060020180546114a9906141d9565b80601f01602080910402602001604051908101604052809291908181526020018280546114d5906141d9565b80156115225780601f106114f757610100808354040283529160200191611522565b820191906000526020600020905b81548152906001019060200180831161150557829003601f168201915b505050505090806003018054611537906141d9565b80601f0160208091040260200160405190810160405280929190818152602001828054611563906141d9565b80156115b05780601f10611585576101008083540402835291602001916115b0565b820191906000526020600020905b81548152906001019060200180831161159357829003601f168201915b5050505050908060040160405180604001604052908160008201548152602001600182015481525050908060060154908060070154908060080154905088565b6115f86136cb565b600260008373ffffffffffffffffffffffffffffffffffffffff1673ffffffffffffffffffffffffffffffffffffffff16815260200190815260200160002060405180610100016040529081600082015481526020016001820160009054906101000a900473ffffffffffffffffffffffffffffffffffffffff1673ffffffffffffffffffffffffffffffffffffffff1673ffffffffffffffffffffffffffffffffffffffff1681526020016002820180546116b3906141d9565b80601f01602080910402602001604051908101604052809291908181526020018280546116df906141d9565b801561172c5780601f106117015761010080835404028352916020019161172c565b820191906000526020600020905b81548152906001019060200180831161170f57829003601f168201915b50505050508152602001600382018054611745906141d9565b80601f0160208091040260200160405190810160405280929190818152602001828054611771906141d9565b80156117be5780601f10611793576101008083540402835291602001916117be565b820191906000526020600020905b8154815290600101906020018083116117a157829003601f168201915b505050505081526020016004820160405180604001604052908160008201548152602001600182015481525050815260200160068201548152602001600782015481526020016008820154815250509050919050565b61181c612f6f565b6118266000612fed565b565b600a60009054906101000a900473ffffffffffffffffffffffffffffffffffffffff1673ffffffffffffffffffffffffffffffffffffffff1663adfaa72e336040518263ffffffff1660e01b81526004016118839190614035565b602060405180830381865afa1580156118a0573d6000803e3d6000fd5b505050506040513d601f19601f820116820180604052508101906118c49190614370565b611903576040517f08c379a00000000000000000000000000000000000000000000000000000000081526004016118fa90614595565b60405180910390fd5b600960009054906101000a900473ffffffffffffffffffffffffffffffffffffffff1673ffffffffffffffffffffffffffffffffffffffff1663361119ac336040518263ffffffff1660e01b815260040161195e9190614035565b602060405180830381865afa15801561197b573d6000803e3d6000fd5b505050506040513d601f19601f8201168201806040525081019061199f9190614370565b6119de576040517f08c379a00000000000000000000000000000000000000000000000000000000081526004016119d590614601565b60405180910390fd5b61012c81511115611a24576040517f08c379a0000000000000000000000000000000000000000000000000000000008152600401611a1b9061466d565b60405180910390fd5b6000600360008481526020019081526020016000206040518061012001604052908160008201548152602001600182015481526020016002820160009054906101000a900473ffffffffffffffffffffffffffffffffffffffff1673ffffffffffffffffffffffffffffffffffffffff1673ffffffffffffffffffffffffffffffffffffffff168152602001600382018054611abf906141d9565b80601f0160208091040260200160405190810160405280929190818152602001828054611aeb906141d9565b8015611b385780601f10611b0d57610100808354040283529160200191611b38565b820191906000526020600020905b815481529060010190602001808311611b1b57829003601f168201915b50505050508152602001600482018054611b51906141d9565b80601f0160208091040260200160405190810160405280929190818152602001828054611b7d906141d9565b8015611bca5780601f10611b9f57610100808354040283529160200191611bca565b820191906000526020600020905b815481529060010190602001808311611bad57829003601f168201915b50505050508152602001600582015481526020016006820160009054906101000a900460ff161515151581526020016007820154815260200160088201548152505090508060c001518015611c2a57508060200151611c27612e21565b11155b611c69576040517f08c379a0000000000000000000000000000000000000000000000000000000008152600401611c60906146d9565b60405180910390fd5b60018160a001818151611c7c91906146f9565b915081815250508060036000858152602001908152602001600020600082015181600001556020820151816001015560408201518160020160006101000a81548173ffffffffffffffffffffffffffffffffffffffff021916908373ffffffffffffffffffffffffffffffffffffffff1602179055506060820151816003019081611d0791906148d9565b506080820151816004019081611d1d91906148d9565b5060a0820151816005015560c08201518160060160006101000a81548160ff02191690831515021790555060e0820151816007015561010082015181600801559050506000600960009054906101000a900473ffffffffffffffffffffffffffffffffffffffff1673ffffffffffffffffffffffffffffffffffffffff166369bf81c36040518163ffffffff1660e01b8152600401602060405180830381865afa158015611dcf573d6000803e3d6000fd5b505050506040513d601f19601f82011682018060405250810190611df391906149c0565b8260a00151101590508015611e0e57611e0b826130b1565b91505b600960009054906101000a900473ffffffffffffffffffffffffffffffffffffffff1673ffffffffffffffffffffffffffffffffffffffff16630ee0a6558385336040518463ffffffff1660e01b8152600401611e6d939291906149ed565b600060405180830381600087803b158015611e8757600080fd5b505af1158015611e9b573d6000803e3d6000fd5b5050505050505050565b600c5481565b600080600260008473ffffffffffffffffffffffffffffffffffffffff1673ffffffffffffffffffffffffffffffffffffffff16815260200190815260200160002060000154119050919050565b600760009054906101000a900473ffffffffffffffffffffffffffffffffffffffff1673ffffffffffffffffffffffffffffffffffffffff16639497c6086004336040518363ffffffff1660e01b8152600401611f5792919061431b565b602060405180830381865afa158015611f74573d6000803e3d6000fd5b505050506040513d601f19601f82011682018060405250810190611f989190614370565b611fd7576040517f08c379a0000000000000000000000000000000000000000000000000000000008152600401611fce90614a7e565b60405180910390fd5b7f0000000000000000000000000000000000000000000000000000000000000000612000611379565b11612040576040517f08c379a000000000000000000000000000000000000000000000000000000000815260040161203790614b10565b60405180910390fd5b612049336131d5565b612088576040517f08c379a000000000000000000000000000000000000000000000000000000000815260040161207f90614b7c565b60405180910390fd5b6101f482511115801561209d57506064815111155b6120dc576040517f08c379a00000000000000000000000000000000000000000000000000000000081526004016120d390614be8565b60405180910390fd5b600b60008154809291906120ef90614475565b9190505550600c600081548092919061210790614475565b91905055506000600c549050600260003373ffffffffffffffffffffffffffffffffffffffff1673ffffffffffffffffffffffffffffffffffffffff168152602001908152602001600020600601600081548092919061216690614475565b9190505550604051806101200160405280828152602001612185612e21565b81526020013373ffffffffffffffffffffffffffffffffffffffff16815260200184815260200183815260200160008152602001600115158152602001600081526020014381525060036000838152602001908152602001600020600082015181600001556020820151816001015560408201518160020160006101000a81548173ffffffffffffffffffffffffffffffffffffffff021916908373ffffffffffffffffffffffffffffffffffffffff160217905550606082015181600301908161225091906148d9565b50608082015181600401908161226691906148d9565b5060a0820151816005015560c08201518160060160006101000a81548160ff02191690831515021790555060e082015181600701556101008201518160080155905050600460003373ffffffffffffffffffffffffffffffffffffffff1673ffffffffffffffffffffffffffffffffffffffff16815260200190815260200160002081908060018154018082558091505060019003906000526020600020016000909190919091505561231833613265565b505050565b60016020528060005260406000206000915054906101000a900460ff1681565b6060600460008373ffffffffffffffffffffffffffffffffffffffff1673ffffffffffffffffffffffffffffffffffffffff1681526020019081526020016000208054806020026020016040519081016040528092919081815260200182805480156123c857602002820191906000526020600020905b8154815260200190600101908083116123b4575b50505050509050919050565b60008060009054906101000a900473ffffffffffffffffffffffffffffffffffffffff16905090565b612405612f6f565b60018060008373ffffffffffffffffffffffffffffffffffffffff1673ffffffffffffffffffffffffffffffffffffffff16815260200190815260200160002060006101000a81548160ff02191690831515021790555050565b7f000000000000000000000000000000000000000000000000000000000000000081565b606482511115801561249757506064815111155b6124d6576040517f08c379a00000000000000000000000000000000000000000000000000000000081526004016124cd90614c54565b60405180910390fd5b613e80600760009054906101000a900473ffffffffffffffffffffffffffffffffffffffff1673ffffffffffffffffffffffffffffffffffffffff16632f22dc7b60046040518263ffffffff1660e01b81526004016125359190614c74565b602060405180830381865afa158015612552573d6000803e3d6000fd5b505050506040513d601f19601f8201168201806040525081019061257691906149c0565b11156125b7576040517f08c379a00000000000000000000000000000000000000000000000000000000081526004016125ae90614cdb565b60405180910390fd5b60006001600760009054906101000a900473ffffffffffffffffffffffffffffffffffffffff1673ffffffffffffffffffffffffffffffffffffffff16631eb2c12060046040518263ffffffff1660e01b81526004016126179190614c74565b602060405180830381865afa158015612634573d6000803e3d6000fd5b505050506040513d601f19601f8201168201806040525081019061265891906149c0565b61266291906146f9565b90506040518061010001604052808281526020013373ffffffffffffffffffffffffffffffffffffffff1681526020018481526020018381526020016040518060400160405280600081526020016126b8612e21565b8152508152602001600081526020014381526020016000815250600260003373ffffffffffffffffffffffffffffffffffffffff1673ffffffffffffffffffffffffffffffffffffffff1681526020019081526020016000206000820151816000015560208201518160010160006101000a81548173ffffffffffffffffffffffffffffffffffffffff021916908373ffffffffffffffffffffffffffffffffffffffff160217905550604082015181600201908161277791906148d9565b50606082015181600301908161278d91906148d9565b506080820151816004016000820151816000015560208201518160010155505060a0820151816006015560c0820151816007015560e08201518160080155905050336006600083815260200190815260200160002060006101000a81548173ffffffffffffffffffffffffffffffffffffffff021916908373ffffffffffffffffffffffffffffffffffffffff160217905550600760009054906101000a900473ffffffffffffffffffffffffffffffffffffffff1673ffffffffffffffffffffffffffffffffffffffff16639c3eead93360046040518363ffffffff1660e01b815260040161287e929190614cfb565b600060405180830381600087803b15801561289857600080fd5b505af11580156128ac573d6000803e3d6000fd5b50505050505050565b6000600583116128c857600190506128fa565b60006128f060016128e2868861363390919063ffffffff16565b61364990919063ffffffff16565b9050808310159150505b9392505050565b6000600160008373ffffffffffffffffffffffffffffffffffffffff1673ffffffffffffffffffffffffffffffffffffffff16815260200190815260200160002060009054906101000a900460ff169050919050565b6004602052816000526040600020818154811061297357600080fd5b90600052602060002001600091509150505481565b7f000000000000000000000000000000000000000000000000000000000000000081565b600080600260008473ffffffffffffffffffffffffffffffffffffffff1673ffffffffffffffffffffffffffffffffffffffff16815260200190815260200160002060405180610100016040529081600082015481526020016001820160009054906101000a900473ffffffffffffffffffffffffffffffffffffffff1673ffffffffffffffffffffffffffffffffffffffff1673ffffffffffffffffffffffffffffffffffffffff168152602001600282018054612a6a906141d9565b80601f0160208091040260200160405190810160405280929190818152602001828054612a96906141d9565b8015612ae35780601f10612ab857610100808354040283529160200191612ae3565b820191906000526020600020905b815481529060010190602001808311612ac657829003601f168201915b50505050508152602001600382018054612afc906141d9565b80601f0160208091040260200160405190810160405280929190818152602001828054612b28906141d9565b8015612b755780601f10612b4a57610100808354040283529160200191612b75565b820191906000526020600020905b815481529060010190602001808311612b5857829003601f168201915b5050505050815260200160048201604051806040016040529081600082015481526020016001820154815250508152602001600682015481526020016007820154815260200160088201548152505090506000816000015111612bdc576000915050612c91565b612c8d600c54600760009054906101000a900473ffffffffffffffffffffffffffffffffffffffff1673ffffffffffffffffffffffffffffffffffffffff16631eb2c12060046040518263ffffffff1660e01b8152600401612c3e9190614c74565b602060405180830381865afa158015612c5b573d6000803e3d6000fd5b505050506040513d601f19601f82011682018060405250810190612c7f91906149c0565b8360800151600001516128b5565b9150505b919050565b60036020528060005260406000206000915090508060000154908060010154908060020160009054906101000a900473ffffffffffffffffffffffffffffffffffffffff1690806003018054612ceb906141d9565b80601f0160208091040260200160405190810160405280929190818152602001828054612d17906141d9565b8015612d645780601f10612d3957610100808354040283529160200191612d64565b820191906000526020600020905b815481529060010190602001808311612d4757829003601f168201915b505050505090806004018054612d79906141d9565b80601f0160208091040260200160405190810160405280929190818152602001828054612da5906141d9565b8015612df25780601f10612dc757610100808354040283529160200191612df2565b820191906000526020600020905b815481529060010190602001808311612dd557829003601f168201915b5050505050908060050154908060060160009054906101000a900460ff16908060070154908060080154905089565b6000600860009054906101000a900473ffffffffffffffffffffffffffffffffffffffff1673ffffffffffffffffffffffffffffffffffffffff1663ed0df79e6040518163ffffffff1660e01b8152600401602060405180830381865afa158015612e90573d6000803e3d6000fd5b505050506040513d601f19601f82011682018060405250810190612eb491906149c0565b905090565b612ec1612f6f565b600073ffffffffffffffffffffffffffffffffffffffff168173ffffffffffffffffffffffffffffffffffffffff1603612f30576040517f08c379a0000000000000000000000000000000000000000000000000000000008152600401612f2790614d96565b60405180910390fd5b612f3981612fed565b50565b60066020528060005260406000206000915054906101000a900473ffffffffffffffffffffffffffffffffffffffff1681565b612f7761365f565b73ffffffffffffffffffffffffffffffffffffffff16612f956123d4565b73ffffffffffffffffffffffffffffffffffffffff1614612feb576040517f08c379a0000000000000000000000000000000000000000000000000000000008152600401612fe290614e02565b60405180910390fd5b565b60008060009054906101000a900473ffffffffffffffffffffffffffffffffffffffff169050816000806101000a81548173ffffffffffffffffffffffffffffffffffffffff021916908373ffffffffffffffffffffffffffffffffffffffff1602179055508173ffffffffffffffffffffffffffffffffffffffff168173ffffffffffffffffffffffffffffffffffffffff167f8be0079c531659141344cd1fd0a4f28419497f9722a3daafe3b4186f6b6457e060405160405180910390a35050565b6130b9613667565b600b60008154809291906130cc90614e22565b919050555060008260c0019015159081151581525050438260e0018181525050816003600084600001518152602001908152602001600020600082015181600001556020820151816001015560408201518160020160006101000a81548173ffffffffffffffffffffffffffffffffffffffff021916908373ffffffffffffffffffffffffffffffffffffffff160217905550606082015181600301908161317491906148d9565b50608082015181600401908161318a91906148d9565b5060a0820151816005015560c08201518160060160006101000a81548160ff02191690831515021790555060e082015181600701556101008201518160080155905050819050919050565b600080600260008473ffffffffffffffffffffffffffffffffffffffff1673ffffffffffffffffffffffffffffffffffffffff16815260200190815260200160002060080154905060007f00000000000000000000000000000000000000000000000000000000000000008261324b91906146f9565b43119050808061325c575060008211155b92505050919050565b6000600260008373ffffffffffffffffffffffffffffffffffffffff1673ffffffffffffffffffffffffffffffffffffffff16815260200190815260200160002060405180610100016040529081600082015481526020016001820160009054906101000a900473ffffffffffffffffffffffffffffffffffffffff1673ffffffffffffffffffffffffffffffffffffffff1673ffffffffffffffffffffffffffffffffffffffff168152602001600282018054613322906141d9565b80601f016020809104026020016040519081016040528092919081815260200182805461334e906141d9565b801561339b5780601f106133705761010080835404028352916020019161339b565b820191906000526020600020905b81548152906001019060200180831161337e57829003601f168201915b505050505081526020016003820180546133b4906141d9565b80601f01602080910402602001604051908101604052809291908181526020018280546133e0906141d9565b801561342d5780601f106134025761010080835404028352916020019161342d565b820191906000526020600020905b81548152906001019060200180831161341057829003601f168201915b505050505081526020016004820160405180604001604052908160008201548152602001600182015481525050815260200160068201548152602001600782015481526020016008820154815250509050438160e00181815250508060800151600001805180919061349e90614475565b8152505080600260008473ffffffffffffffffffffffffffffffffffffffff1673ffffffffffffffffffffffffffffffffffffffff1681526020019081526020016000206000820151816000015560208201518160010160006101000a81548173ffffffffffffffffffffffffffffffffffffffff021916908373ffffffffffffffffffffffffffffffffffffffff160217905550604082015181600201908161354891906148d9565b50606082015181600301908161355e91906148d9565b506080820151816004016000820151816000015560208201518160010155505060a0820151816006015560c0820151816007015560e08201518160080155905050600860009054906101000a900473ffffffffffffffffffffffffffffffffffffffff1673ffffffffffffffffffffffffffffffffffffffff166352b8d3ed8360016040518363ffffffff1660e01b81526004016135fd929190614e86565b600060405180830381600087803b15801561361757600080fd5b505af115801561362b573d6000803e3d6000fd5b505050505050565b600081836136419190614ede565b905092915050565b6000818361365791906146f9565b905092915050565b600033905090565b6040518061012001604052806000815260200160008152602001600073ffffffffffffffffffffffffffffffffffffffff16815260200160608152602001606081526020016000815260200160001515815260200160008152602001600081525090565b60405180610100016040528060008152602001600073ffffffffffffffffffffffffffffffffffffffff168152602001606081526020016060815260200161371161372c565b81526020016000815260200160008152602001600081525090565b604051806040016040528060008152602001600081525090565b6000604051905090565b600080fd5b600080fd5b600073ffffffffffffffffffffffffffffffffffffffff82169050919050565b60006137858261375a565b9050919050565b6137958161377a565b81146137a057600080fd5b50565b6000813590506137b28161378c565b92915050565b6000819050919050565b6137cb816137b8565b81146137d657600080fd5b50565b6000813590506137e8816137c2565b92915050565b6000806040838503121561380557613804613750565b5b6000613813858286016137a3565b9250506020613824858286016137d9565b9150509250929050565b613837816137b8565b82525050565b6000602082019050613852600083018461382e565b92915050565b60006020828403121561386e5761386d613750565b5b600061387c848285016137a3565b91505092915050565b600080fd5b6000601f19601f8301169050919050565b7f4e487b7100000000000000000000000000000000000000000000000000000000600052604160045260246000fd5b6138d38261388a565b810181811067ffffffffffffffff821117156138f2576138f161389b565b5b80604052505050565b6000613905613746565b905061391182826138ca565b919050565b60006080828403121561392c5761392b613885565b5b61393660806138fb565b90506000613946848285016137a3565b600083015250602061395a848285016137a3565b602083015250604061396e848285016137a3565b6040830152506060613982848285016137a3565b60608301525092915050565b6000608082840312156139a4576139a3613750565b5b60006139b284828501613916565b91505092915050565b6000602082840312156139d1576139d0613750565b5b60006139df848285016137d9565b91505092915050565b6139f1816137b8565b82525050565b613a008161377a565b82525050565b600081519050919050565b600082825260208201905092915050565b60005b83811015613a40578082015181840152602081019050613a25565b60008484015250505050565b6000613a5782613a06565b613a618185613a11565b9350613a71818560208601613a22565b613a7a8161388a565b840191505092915050565b60008115159050919050565b613a9a81613a85565b82525050565b600061012083016000830151613ab960008601826139e8565b506020830151613acc60208601826139e8565b506040830151613adf60408601826139f7565b5060608301518482036060860152613af78282613a4c565b91505060808301518482036080860152613b118282613a4c565b91505060a0830151613b2660a08601826139e8565b5060c0830151613b3960c0860182613a91565b5060e0830151613b4c60e08601826139e8565b50610100830151613b616101008601826139e8565b508091505092915050565b60006020820190508181036000830152613b868184613aa0565b905092915050565b613b978161377a565b82525050565b600082825260208201905092915050565b6000613bb982613a06565b613bc38185613b9d565b9350613bd3818560208601613a22565b613bdc8161388a565b840191505092915050565b604082016000820151613bfd60008501826139e8565b506020820151613c1060208501826139e8565b50505050565b600061012082019050613c2c600083018b61382e565b613c39602083018a613b8e565b8181036040830152613c4b8189613bae565b90508181036060830152613c5f8188613bae565b9050613c6e6080830187613be7565b613c7b60c083018661382e565b613c8860e083018561382e565b613c9661010083018461382e565b9998505050505050505050565b604082016000820151613cb960008501826139e8565b506020820151613ccc60208501826139e8565b50505050565b600061012083016000830151613ceb60008601826139e8565b506020830151613cfe60208601826139f7565b5060408301518482036040860152613d168282613a4c565b91505060608301518482036060860152613d308282613a4c565b9150506080830151613d456080860182613ca3565b5060a0830151613d5860c08601826139e8565b5060c0830151613d6b60e08601826139e8565b5060e0830151613d7f6101008601826139e8565b508091505092915050565b60006020820190508181036000830152613da48184613cd2565b905092915050565b600080fd5b600080fd5b600067ffffffffffffffff821115613dd157613dd061389b565b5b613dda8261388a565b9050602081019050919050565b82818337600083830152505050565b6000613e09613e0484613db6565b6138fb565b905082815260208101848484011115613e2557613e24613db1565b5b613e30848285613de7565b509392505050565b600082601f830112613e4d57613e4c613dac565b5b8135613e5d848260208601613df6565b91505092915050565b60008060408385031215613e7d57613e7c613750565b5b6000613e8b858286016137d9565b925050602083013567ffffffffffffffff811115613eac57613eab613755565b5b613eb885828601613e38565b9150509250929050565b613ecb81613a85565b82525050565b6000602082019050613ee66000830184613ec2565b92915050565b60008060408385031215613f0357613f02613750565b5b600083013567ffffffffffffffff811115613f2157613f20613755565b5b613f2d85828601613e38565b925050602083013567ffffffffffffffff811115613f4e57613f4d613755565b5b613f5a85828601613e38565b9150509250929050565b600081519050919050565b600082825260208201905092915050565b6000819050602082019050919050565b6000613f9c83836139e8565b60208301905092915050565b6000602082019050919050565b6000613fc082613f64565b613fca8185613f6f565b9350613fd583613f80565b8060005b83811015614006578151613fed8882613f90565b9750613ff883613fa8565b925050600181019050613fd9565b5085935050505092915050565b6000602082019050818103600083015261402d8184613fb5565b905092915050565b600060208201905061404a6000830184613b8e565b92915050565b60008060006060848603121561406957614068613750565b5b6000614077868287016137d9565b9350506020614088868287016137d9565b9250506040614099868287016137d9565b9150509250925092565b6000610120820190506140b9600083018c61382e565b6140c6602083018b61382e565b6140d3604083018a613b8e565b81810360608301526140e58189613bae565b905081810360808301526140f98188613bae565b905061410860a083018761382e565b61411560c0830186613ec2565b61412260e083018561382e565b61413061010083018461382e565b9a9950505050505050505050565b7f4e6f7420616c6c6f7765642063616c6c65720000000000000000000000000000600082015250565b6000614174601283613b9d565b915061417f8261413e565b602082019050919050565b600060208201905081810360008301526141a381614167565b9050919050565b7f4e487b7100000000000000000000000000000000000000000000000000000000600052602260045260246000fd5b600060028204905060018216806141f157607f821691505b602082108103614204576142036141aa565b5b50919050565b7f4e487b7100000000000000000000000000000000000000000000000000000000600052601160045260246000fd5b6000614244826137b8565b915061424f836137b8565b92508282039050818111156142675761426661420a565b5b92915050565b60006060820190506142826000830186613b8e565b61428f602083018561382e565b61429c604083018461382e565b949350505050565b7f4e487b7100000000000000000000000000000000000000000000000000000000600052602160045260246000fd5b600981106142e4576142e36142a4565b5b50565b60008190506142f5826142d3565b919050565b6000614305826142e7565b9050919050565b614315816142fa565b82525050565b6000604082019050614330600083018561430c565b61433d6020830184613b8e565b9392505050565b61434d81613a85565b811461435857600080fd5b50565b60008151905061436a81614344565b92915050565b60006020828403121561438657614385613750565b5b60006143948482850161435b565b91505092915050565b7f506f6f6c206f6e6c7920746f20646576656c6f70657200000000000000000000600082015250565b60006143d3601683613b9d565b91506143de8261439d565b602082019050919050565b60006020820190508181036000830152614402816143c6565b9050919050565b7f43616e277420617070726f766520776974686472617700000000000000000000600082015250565b600061443f601683613b9d565b915061444a82614409565b602082019050919050565b6000602082019050818103600083015261446e81614432565b9050919050565b6000614480826137b8565b91507fffffffffffffffffffffffffffffffffffffffffffffffffffffffffffffffff82036144b2576144b161420a565b5b600182019050919050565b60006040820190506144d26000830185613b8e565b6144df602083018461382e565b9392505050565b6000819050919050565b6144f9816144e6565b811461450457600080fd5b50565b600081519050614516816144f0565b92915050565b60006020828403121561453257614531613750565b5b600061454084828501614507565b91505092915050565b7f557365722063616e6e6f7420766f746500000000000000000000000000000000600082015250565b600061457f601083613b9d565b915061458a82614549565b602082019050919050565b600060208201905081810360008301526145ae81614572565b9050919050565b7f576169742074696d654265747765656e566f7465730000000000000000000000600082015250565b60006145eb601583613b9d565b91506145f6826145b5565b602082019050919050565b6000602082019050818103600083015261461a816145de565b9050919050565b7f4d61782033303020636861726163746572732072656163686564000000000000600082015250565b6000614657601a83613b9d565b915061466282614621565b602082019050919050565b600060208201905081810360008301526146868161464a565b9050919050565b7f54686973207265706f7274206973206e6f742056414c49440000000000000000600082015250565b60006146c3601883613b9d565b91506146ce8261468d565b602082019050919050565b600060208201905081810360008301526146f2816146b6565b9050919050565b6000614704826137b8565b915061470f836137b8565b92508282019050808211156147275761472661420a565b5b92915050565b60008190508160005260206000209050919050565b60006020601f8301049050919050565b600082821b905092915050565b60006008830261478f7fffffffffffffffffffffffffffffffffffffffffffffffffffffffffffffffff82614752565b6147998683614752565b95508019841693508086168417925050509392505050565b6000819050919050565b60006147d66147d16147cc846137b8565b6147b1565b6137b8565b9050919050565b6000819050919050565b6147f0836147bb565b6148046147fc826147dd565b84845461475f565b825550505050565b600090565b61481961480c565b6148248184846147e7565b505050565b5b818110156148485761483d600082614811565b60018101905061482a565b5050565b601f82111561488d5761485e8161472d565b61486784614742565b81016020851015614876578190505b61488a61488285614742565b830182614829565b50505b505050565b600082821c905092915050565b60006148b060001984600802614892565b1980831691505092915050565b60006148c9838361489f565b9150826002028217905092915050565b6148e282613a06565b67ffffffffffffffff8111156148fb576148fa61389b565b5b61490582546141d9565b61491082828561484c565b600060209050601f8311600181146149435760008415614931578287015190505b61493b85826148bd565b8655506149a3565b601f1984166149518661472d565b60005b8281101561497957848901518255600182019150602085019450602081019050614954565b868310156149965784890151614992601f89168261489f565b8355505b6001600288020188555050505b505050505050565b6000815190506149ba816137c2565b92915050565b6000602082840312156149d6576149d5613750565b5b60006149e4848285016149ab565b91505092915050565b60006060820190508181036000830152614a078186613aa0565b90508181036020830152614a1b8185613bae565b9050614a2a6040830184613b8e565b949350505050565b7f4f6e6c7920446576656c6f706572000000000000000000000000000000000000600082015250565b6000614a68600e83613b9d565b9150614a7382614a32565b602082019050919050565b60006020820190508181036000830152614a9781614a5b565b9050919050565b7f5761697420756e74696c206e6578742065726120746f20616464207265706f7260008201527f7400000000000000000000000000000000000000000000000000000000000000602082015250565b6000614afa602183613b9d565b9150614b0582614a9e565b604082019050919050565b60006020820190508181036000830152614b2981614aed565b9050919050565b7f43616e2774207075626c69736820796574000000000000000000000000000000600082015250565b6000614b66601183613b9d565b9150614b7182614b30565b602082019050919050565b60006020820190508181036000830152614b9581614b59565b9050919050565b7f4d61782063686172616374657273207265616368656400000000000000000000600082015250565b6000614bd2601683613b9d565b9150614bdd82614b9c565b602082019050919050565b60006020820190508181036000830152614c0181614bc5565b9050919050565b7f4d61782031303020636861726163746572730000000000000000000000000000600082015250565b6000614c3e601283613b9d565b9150614c4982614c08565b602082019050919050565b60006020820190508181036000830152614c6d81614c31565b9050919050565b6000602082019050614c89600083018461430c565b92915050565b7f4d6178206c696d69742072656163686564000000000000000000000000000000600082015250565b6000614cc5601183613b9d565b9150614cd082614c8f565b602082019050919050565b60006020820190508181036000830152614cf481614cb8565b9050919050565b6000604082019050614d106000830185613b8e565b614d1d602083018461430c565b9392505050565b7f4f776e61626c653a206e6577206f776e657220697320746865207a65726f206160008201527f6464726573730000000000000000000000000000000000000000000000000000602082015250565b6000614d80602683613b9d565b9150614d8b82614d24565b604082019050919050565b60006020820190508181036000830152614daf81614d73565b9050919050565b7f4f776e61626c653a2063616c6c6572206973206e6f7420746865206f776e6572600082015250565b6000614dec602083613b9d565b9150614df782614db6565b602082019050919050565b60006020820190508181036000830152614e1b81614ddf565b9050919050565b6000614e2d826137b8565b915060008203614e4057614e3f61420a565b5b600182039050919050565b6000819050919050565b6000614e70614e6b614e6684614e4b565b6147b1565b6137b8565b9050919050565b614e8081614e55565b82525050565b6000604082019050614e9b6000830185613b8e565b614ea86020830184614e77565b9392505050565b7f4e487b7100000000000000000000000000000000000000000000000000000000600052601260045260246000fd5b6000614ee9826137b8565b9150614ef4836137b8565b925082614f0457614f03614eaf565b5b82820490509291505056fea2646970667358221220d359fe8e2796ed229cb72625524a2082bfdadab965f0c02525b43f5a85332e7464736f6c634300081b0033",
  "linkReferences": {},
  "deployedLinkReferences": {}
}