{
  "_format": "hh-sol-artifact-1",
  "contractName": "DeveloperRules",
  "sourceName": "contracts/DeveloperRules.sol",
  "abi": [
    {
      "inputs": [
        {
          "internalType": "address",
          "name": "communityRulesAddress",
          "type": "address"
        },
        {
          "internalType": "address",
          "name": "developerPoolAddress",
          "type": "address"
        },
        {
          "internalType": "address",
          "name": "validatorRulesAddress",
          "type": "address"
        },
        {
          "internalType": "uint256",
          "name": "timeBetweenWorks_",
          "type": "uint256"
        },
        {
          "internalType": "uint256",
          "name": "maxPenalties_",
          "type": "uint256"
        },
        {
          "internalType": "uint256",
          "name": "securityBlocksToValidatorAnalysis",
          "type": "uint256"
        }
      ],
      "stateMutability": "nonpayable",
      "type": "constructor"
    },
    {
      "anonymous": false,
      "inputs": [
        {
          "indexed": true,
          "internalType": "address",
          "name": "previousOwner",
          "type": "address"
        },
        {
          "indexed": true,
          "internalType": "address",
          "name": "newOwner",
          "type": "address"
        }
      ],
      "name": "OwnershipTransferred",
      "type": "event"
    },
    {
      "inputs": [],
      "name": "MAX_PENALTIES",
      "outputs": [
        {
          "internalType": "uint256",
          "name": "",
          "type": "uint256"
        }
      ],
      "stateMutability": "view",
      "type": "function"
    },
    {
      "inputs": [],
      "name": "SECURITY_BLOCKS_TO_VALIDATOR_ANALYSIS",
      "outputs": [
        {
          "internalType": "uint256",
          "name": "",
          "type": "uint256"
        }
      ],
      "stateMutability": "view",
      "type": "function"
    },
    {
      "inputs": [
        {
          "internalType": "string",
          "name": "name",
          "type": "string"
        },
        {
          "internalType": "string",
          "name": "proofPhoto",
          "type": "string"
        }
      ],
      "name": "addDeveloper",
      "outputs": [],
      "stateMutability": "nonpayable",
      "type": "function"
    },
    {
      "inputs": [
        {
          "internalType": "address",
          "name": "addr",
          "type": "address"
        },
        {
          "internalType": "uint256",
          "name": "reportId",
          "type": "uint256"
        }
      ],
      "name": "addPenalty",
      "outputs": [
        {
          "internalType": "uint256",
          "name": "",
          "type": "uint256"
        }
      ],
      "stateMutability": "nonpayable",
      "type": "function"
    },
    {
      "inputs": [
        {
          "internalType": "string",
          "name": "description",
          "type": "string"
        },
        {
          "internalType": "string",
          "name": "report",
          "type": "string"
        }
      ],
      "name": "addReport",
      "outputs": [],
      "stateMutability": "nonpayable",
      "type": "function"
    },
    {
      "inputs": [
        {
          "internalType": "uint256",
          "name": "id",
          "type": "uint256"
        },
        {
          "internalType": "string",
          "name": "justification",
          "type": "string"
        }
      ],
      "name": "addReportValidation",
      "outputs": [],
      "stateMutability": "nonpayable",
      "type": "function"
    },
    {
      "inputs": [
        {
          "internalType": "address",
          "name": "",
          "type": "address"
        }
      ],
      "name": "allowedCallers",
      "outputs": [
        {
          "internalType": "bool",
          "name": "",
          "type": "bool"
        }
      ],
      "stateMutability": "view",
      "type": "function"
    },
    {
      "inputs": [
        {
          "internalType": "uint256",
          "name": "totalLevels",
          "type": "uint256"
        },
        {
          "internalType": "uint256",
          "name": "totalUsers",
          "type": "uint256"
        },
        {
          "internalType": "uint256",
          "name": "userLevels",
          "type": "uint256"
        }
      ],
      "name": "canInvite",
      "outputs": [
        {
          "internalType": "bool",
          "name": "",
          "type": "bool"
        }
      ],
      "stateMutability": "pure",
      "type": "function"
    },
    {
      "inputs": [
        {
          "internalType": "address",
          "name": "addr",
          "type": "address"
        }
      ],
      "name": "canSendInvite",
      "outputs": [
        {
          "internalType": "bool",
          "name": "",
          "type": "bool"
        }
      ],
      "stateMutability": "view",
      "type": "function"
    },
    {
      "inputs": [
        {
          "internalType": "address",
          "name": "addr",
          "type": "address"
        }
      ],
      "name": "developerExists",
      "outputs": [
        {
          "internalType": "bool",
          "name": "",
          "type": "bool"
        }
      ],
      "stateMutability": "view",
      "type": "function"
    },
    {
      "inputs": [
        {
          "internalType": "address",
          "name": "",
          "type": "address"
        }
      ],
      "name": "developers",
      "outputs": [
        {
          "internalType": "uint256",
          "name": "id",
          "type": "uint256"
        },
        {
          "internalType": "address",
          "name": "developerWallet",
          "type": "address"
        },
        {
          "internalType": "string",
          "name": "name",
          "type": "string"
        },
        {
          "internalType": "string",
          "name": "proofPhoto",
          "type": "string"
        },
        {
          "components": [
            {
              "internalType": "uint256",
              "name": "level",
              "type": "uint256"
            },
            {
              "internalType": "uint256",
              "name": "currentEra",
              "type": "uint256"
            }
          ],
          "internalType": "struct Pool",
          "name": "pool",
          "type": "tuple"
        },
        {
          "internalType": "uint256",
          "name": "totalReports",
          "type": "uint256"
        },
        {
          "internalType": "uint256",
          "name": "createdAt",
          "type": "uint256"
        },
        {
          "internalType": "uint256",
          "name": "lastPublishedAt",
          "type": "uint256"
        }
      ],
      "stateMutability": "view",
      "type": "function"
    },
    {
      "inputs": [
        {
          "internalType": "uint256",
          "name": "",
          "type": "uint256"
        }
      ],
      "name": "developersAddress",
      "outputs": [
        {
          "internalType": "address",
          "name": "",
          "type": "address"
        }
      ],
      "stateMutability": "view",
      "type": "function"
    },
    {
      "inputs": [
        {
          "internalType": "address",
          "name": "addr",
          "type": "address"
        }
      ],
      "name": "getDeveloper",
      "outputs": [
        {
          "components": [
            {
              "internalType": "uint256",
              "name": "id",
              "type": "uint256"
            },
            {
              "internalType": "address",
              "name": "developerWallet",
              "type": "address"
            },
            {
              "internalType": "string",
              "name": "name",
              "type": "string"
            },
            {
              "internalType": "string",
              "name": "proofPhoto",
              "type": "string"
            },
            {
              "components": [
                {
                  "internalType": "uint256",
                  "name": "level",
                  "type": "uint256"
                },
                {
                  "internalType": "uint256",
                  "name": "currentEra",
                  "type": "uint256"
                }
              ],
              "internalType": "struct Pool",
              "name": "pool",
              "type": "tuple"
            },
            {
              "internalType": "uint256",
              "name": "totalReports",
              "type": "uint256"
            },
            {
              "internalType": "uint256",
              "name": "createdAt",
              "type": "uint256"
            },
            {
              "internalType": "uint256",
              "name": "lastPublishedAt",
              "type": "uint256"
            }
          ],
          "internalType": "struct Developer",
          "name": "developer",
          "type": "tuple"
        }
      ],
      "stateMutability": "view",
      "type": "function"
    },
    {
      "inputs": [
        {
          "internalType": "uint256",
          "name": "id",
          "type": "uint256"
        }
      ],
      "name": "getReport",
      "outputs": [
        {
          "components": [
            {
              "internalType": "uint256",
              "name": "id",
              "type": "uint256"
            },
            {
              "internalType": "uint256",
              "name": "era",
              "type": "uint256"
            },
            {
              "internalType": "address",
              "name": "developer",
              "type": "address"
            },
            {
              "internalType": "uint256",
              "name": "level",
              "type": "uint256"
            },
            {
              "internalType": "string",
              "name": "description",
              "type": "string"
            },
            {
              "internalType": "string",
              "name": "report",
              "type": "string"
            },
            {
              "internalType": "uint256",
              "name": "validationsCount",
              "type": "uint256"
            },
            {
              "internalType": "bool",
              "name": "contributed",
              "type": "bool"
            },
            {
              "internalType": "bool",
              "name": "valid",
              "type": "bool"
            },
            {
              "internalType": "uint256",
              "name": "invalidatedAt",
              "type": "uint256"
            },
            {
              "internalType": "uint256",
              "name": "createdAtBlockNumber",
              "type": "uint256"
            }
          ],
          "internalType": "struct Report",
          "name": "",
          "type": "tuple"
        }
      ],
      "stateMutability": "view",
      "type": "function"
    },
    {
      "inputs": [
        {
          "internalType": "address",
          "name": "caller",
          "type": "address"
        }
      ],
      "name": "isAllowedCaller",
      "outputs": [
        {
          "internalType": "bool",
          "name": "",
          "type": "bool"
        }
      ],
      "stateMutability": "view",
      "type": "function"
    },
    {
      "inputs": [
        {
          "internalType": "address",
          "name": "allowed",
          "type": "address"
        }
      ],
      "name": "newAllowedCaller",
      "outputs": [],
      "stateMutability": "nonpayable",
      "type": "function"
    },
    {
      "inputs": [],
      "name": "nextEraIn",
      "outputs": [
        {
          "internalType": "uint256",
          "name": "",
          "type": "uint256"
        }
      ],
      "stateMutability": "view",
      "type": "function"
    },
    {
      "inputs": [],
      "name": "owner",
      "outputs": [
        {
          "internalType": "address",
          "name": "",
          "type": "address"
        }
      ],
      "stateMutability": "view",
      "type": "function"
    },
    {
      "inputs": [
        {
          "internalType": "address",
          "name": "",
          "type": "address"
        },
        {
          "internalType": "uint256",
          "name": "",
          "type": "uint256"
        }
      ],
      "name": "penalties",
      "outputs": [
        {
          "internalType": "uint256",
          "name": "reportId",
          "type": "uint256"
        }
      ],
      "stateMutability": "view",
      "type": "function"
    },
    {
      "inputs": [
        {
          "internalType": "address",
          "name": "addr",
          "type": "address"
        },
        {
          "internalType": "uint256",
          "name": "removeSomeLevels",
          "type": "uint256"
        }
      ],
      "name": "removePoolLevels",
      "outputs": [],
      "stateMutability": "nonpayable",
      "type": "function"
    },
    {
      "inputs": [],
      "name": "renounceOwnership",
      "outputs": [],
      "stateMutability": "nonpayable",
      "type": "function"
    },
    {
      "inputs": [
        {
          "internalType": "uint256",
          "name": "",
          "type": "uint256"
        }
      ],
      "name": "reports",
      "outputs": [
        {
          "internalType": "uint256",
          "name": "id",
          "type": "uint256"
        },
        {
          "internalType": "uint256",
          "name": "era",
          "type": "uint256"
        },
        {
          "internalType": "address",
          "name": "developer",
          "type": "address"
        },
        {
          "internalType": "uint256",
          "name": "level",
          "type": "uint256"
        },
        {
          "internalType": "string",
          "name": "description",
          "type": "string"
        },
        {
          "internalType": "string",
          "name": "report",
          "type": "string"
        },
        {
          "internalType": "uint256",
          "name": "validationsCount",
          "type": "uint256"
        },
        {
          "internalType": "bool",
          "name": "contributed",
          "type": "bool"
        },
        {
          "internalType": "bool",
          "name": "valid",
          "type": "bool"
        },
        {
          "internalType": "uint256",
          "name": "invalidatedAt",
          "type": "uint256"
        },
        {
          "internalType": "uint256",
          "name": "createdAtBlockNumber",
          "type": "uint256"
        }
      ],
      "stateMutability": "view",
      "type": "function"
    },
    {
      "inputs": [],
      "name": "reportsCount",
      "outputs": [
        {
          "internalType": "uint256",
          "name": "",
          "type": "uint256"
        }
      ],
      "stateMutability": "view",
      "type": "function"
    },
    {
      "inputs": [],
      "name": "reportsTotalCount",
      "outputs": [
        {
          "internalType": "uint256",
          "name": "",
          "type": "uint256"
        }
      ],
      "stateMutability": "view",
      "type": "function"
    },
    {
      "inputs": [
        {
          "internalType": "address",
          "name": "addr",
          "type": "address"
        }
      ],
      "name": "totalPenalties",
      "outputs": [
        {
          "internalType": "uint256",
          "name": "",
          "type": "uint256"
        }
      ],
      "stateMutability": "view",
      "type": "function"
    },
    {
      "inputs": [
        {
          "internalType": "address",
          "name": "newOwner",
          "type": "address"
        }
      ],
      "name": "transferOwnership",
      "outputs": [],
      "stateMutability": "nonpayable",
      "type": "function"
    },
    {
      "inputs": [],
      "name": "withdraw",
      "outputs": [],
      "stateMutability": "nonpayable",
      "type": "function"
    }
  ],
  "bytecode": "0x60e060405234801561001057600080fd5b50604051614ac8380380614ac883398181016040528101906100329190610299565b61004e61004361013460201b60201c565b61013c60201b60201c565b85600660006101000a81548173ffffffffffffffffffffffffffffffffffffffff021916908373ffffffffffffffffffffffffffffffffffffffff16021790555084600760006101000a81548173ffffffffffffffffffffffffffffffffffffffff021916908373ffffffffffffffffffffffffffffffffffffffff16021790555083600860006101000a81548173ffffffffffffffffffffffffffffffffffffffff021916908373ffffffffffffffffffffffffffffffffffffffff16021790555082608081815250508160a081815250508060c08181525050505050505050610326565b600033905090565b60008060009054906101000a900473ffffffffffffffffffffffffffffffffffffffff169050816000806101000a81548173ffffffffffffffffffffffffffffffffffffffff021916908373ffffffffffffffffffffffffffffffffffffffff1602179055508173ffffffffffffffffffffffffffffffffffffffff168173ffffffffffffffffffffffffffffffffffffffff167f8be0079c531659141344cd1fd0a4f28419497f9722a3daafe3b4186f6b6457e060405160405180910390a35050565b600080fd5b600073ffffffffffffffffffffffffffffffffffffffff82169050919050565b600061023082610205565b9050919050565b61024081610225565b811461024b57600080fd5b50565b60008151905061025d81610237565b92915050565b6000819050919050565b61027681610263565b811461028157600080fd5b50565b6000815190506102938161026d565b92915050565b60008060008060008060c087890312156102b6576102b5610200565b5b60006102c489828a0161024e565b96505060206102d589828a0161024e565b95505060406102e689828a0161024e565b94505060606102f789828a01610284565b935050608061030889828a01610284565b92505060a061031989828a01610284565b9150509295509295509295565b60805160a05160c05161476c61035c60003960008181611d3c01526120f3015260006124b701526000612d88015261476c6000f3fe608060405234801561001057600080fd5b50600436106101a95760003560e01c8063791b1ecc116100f95780639eaf666f11610097578063c77c1ce611610071578063c77c1ce6146104e9578063c942adf714610519578063f2fde38b14610553578063fa64d0f41461056f576101a9565b80639eaf666f1461046b578063a68012581461049b578063b43f070a146104cb576101a9565b80638da5cb5b116100d35780638da5cb5b146103f75780638f93716f1461041557806397705d60146104315780639e02b7bc1461044f576101a9565b8063791b1ecc1461037b5780637a3e0066146103ab5780637b334154146103c7576101a9565b8063582256f11161016657806367e13ee01161014057806367e13ee014610307578063715018a6146103375780637384fe5f1461034157806374f7c4291461035d576101a9565b8063582256f1146102825780635fa71c28146102a057806361fd5c20146102d0576101a9565b806318ad5c9a146101ae5780631b63a43c146101ca5780632076267b146101fa5780633ccfd60b1461022a5780633e0c27f0146102345780634e7f9b1914610252575b600080fd5b6101c860048036038101906101c39190613364565b61059f565b005b6101e460048036038101906101df9190613364565b610954565b6040516101f191906133b3565b60405180910390f35b610214600480360381019061020f91906133ce565b610a72565b60405161022191906133b3565b60405180910390f35b610232610abe565b005b61023c610f8b565b60405161024991906133b3565b60405180910390f35b61026c600480360381019061026791906133fb565b610f91565b60405161027991906135e7565b60405180910390f35b61028a6111ab565b60405161029791906133b3565b60405180910390f35b6102ba60048036038101906102b59190613364565b611255565b6040516102c791906133b3565b60405180910390f35b6102ea60048036038101906102e591906133ce565b61128c565b6040516102fe989796959493929190613691565b60405180910390f35b610321600480360381019061031c91906133ce565b611422565b60405161032e9190613805565b60405180910390f35b61033f611646565b005b61035b6004803603810190610356919061395c565b61165a565b005b610365611c08565b60405161037291906133b3565b60405180910390f35b610395600480360381019061039091906133ce565b611c0e565b6040516103a291906139c7565b60405180910390f35b6103c560048036038101906103c091906139e2565b611c5c565b005b6103e160048036038101906103dc91906133ce565b612046565b6040516103ee91906139c7565b60405180910390f35b6103ff612066565b60405161040c9190613a5a565b60405180910390f35b61042f600480360381019061042a91906133ce565b61208f565b005b6104396120f1565b60405161044691906133b3565b60405180910390f35b610469600480360381019061046491906139e2565b612115565b005b61048560048036038101906104809190613a75565b612413565b60405161049291906139c7565b60405180910390f35b6104b560048036038101906104b091906133ce565b61245f565b6040516104c291906139c7565b60405180910390f35b6104d36124b5565b6040516104e091906133b3565b60405180910390f35b61050360048036038101906104fe91906133ce565b6124d9565b60405161051091906139c7565b60405180910390f35b610533600480360381019061052e91906133fb565b6127c3565b60405161054a9b9a99989796959493929190613ac8565b60405180910390f35b61056d600480360381019061056891906133ce565b612967565b005b610589600480360381019061058491906133fb565b6129ea565b6040516105969190613a5a565b60405180910390f35b600160003373ffffffffffffffffffffffffffffffffffffffff1673ffffffffffffffffffffffffffffffffffffffff16815260200190815260200160002060009054906101000a900460ff1661062b576040517f08c379a000000000000000000000000000000000000000000000000000000000815260040161062290613bcd565b60405180910390fd5b6000600260008473ffffffffffffffffffffffffffffffffffffffff1673ffffffffffffffffffffffffffffffffffffffff16815260200190815260200160002060405180610100016040529081600082015481526020016001820160009054906101000a900473ffffffffffffffffffffffffffffffffffffffff1673ffffffffffffffffffffffffffffffffffffffff1673ffffffffffffffffffffffffffffffffffffffff1681526020016002820180546106e890613c1c565b80601f016020809104026020016040519081016040528092919081815260200182805461071490613c1c565b80156107615780601f1061073657610100808354040283529160200191610761565b820191906000526020600020905b81548152906001019060200180831161074457829003601f168201915b5050505050815260200160038201805461077a90613c1c565b80601f01602080910402602001604051908101604052809291908181526020018280546107a690613c1c565b80156107f35780601f106107c8576101008083540402835291602001916107f3565b820191906000526020600020905b8154815290600101906020018083116107d657829003601f168201915b5050505050815260200160048201604051806040016040529081600082015481526020016001820154815250508152602001600682015481526020016007820154815260200160088201548152505090506000821161085a5780608001516000015161085c565b815b600260008573ffffffffffffffffffffffffffffffffffffffff1673ffffffffffffffffffffffffffffffffffffffff16815260200190815260200160002060040160000160008282546108b09190613c7c565b92505081905550600760009054906101000a900473ffffffffffffffffffffffffffffffffffffffff1673ffffffffffffffffffffffffffffffffffffffff1663157ffc52846108fe612a1d565b856040518463ffffffff1660e01b815260040161091d93929190613cb0565b600060405180830381600087803b15801561093757600080fd5b505af115801561094b573d6000803e3d6000fd5b50505050505050565b6000600160003373ffffffffffffffffffffffffffffffffffffffff1673ffffffffffffffffffffffffffffffffffffffff16815260200190815260200160002060009054906101000a900460ff166109e2576040517f08c379a00000000000000000000000000000000000000000000000000000000081526004016109d990613bcd565b60405180910390fd5b600460008473ffffffffffffffffffffffffffffffffffffffff1673ffffffffffffffffffffffffffffffffffffffff16815260200190815260200160002060405180602001604052808481525090806001815401808255809150506001900390600052602060002001600090919091909150600082015181600001555050610a6a83610a72565b905092915050565b6000600460008373ffffffffffffffffffffffffffffffffffffffff1673ffffffffffffffffffffffffffffffffffffffff168152602001908152602001600020805490509050919050565b600660009054906101000a900473ffffffffffffffffffffffffffffffffffffffff1673ffffffffffffffffffffffffffffffffffffffff16639497c6086004336040518363ffffffff1660e01b8152600401610b1c929190613d5e565b602060405180830381865afa158015610b39573d6000803e3d6000fd5b505050506040513d601f19601f82011682018060405250810190610b5d9190613db3565b610b9c576040517f08c379a0000000000000000000000000000000000000000000000000000000008152600401610b9390613e2c565b60405180910390fd5b6000600260003373ffffffffffffffffffffffffffffffffffffffff1673ffffffffffffffffffffffffffffffffffffffff16815260200190815260200160002060405180610100016040529081600082015481526020016001820160009054906101000a900473ffffffffffffffffffffffffffffffffffffffff1673ffffffffffffffffffffffffffffffffffffffff1673ffffffffffffffffffffffffffffffffffffffff168152602001600282018054610c5990613c1c565b80601f0160208091040260200160405190810160405280929190818152602001828054610c8590613c1c565b8015610cd25780601f10610ca757610100808354040283529160200191610cd2565b820191906000526020600020905b815481529060010190602001808311610cb557829003601f168201915b50505050508152602001600382018054610ceb90613c1c565b80601f0160208091040260200160405190810160405280929190818152602001828054610d1790613c1c565b8015610d645780601f10610d3957610100808354040283529160200191610d64565b820191906000526020600020905b815481529060010190602001808311610d4757829003601f168201915b50505050508152602001600482016040518060400160405290816000820154815260200160018201548152505081526020016006820154815260200160078201548152602001600882015481525050905060008160800151602001519050600760009054906101000a900473ffffffffffffffffffffffffffffffffffffffff1673ffffffffffffffffffffffffffffffffffffffff1663fbe85f06826040518263ffffffff1660e01b8152600401610e1d91906133b3565b602060405180830381865afa158015610e3a573d6000803e3d6000fd5b505050506040513d601f19601f82011682018060405250810190610e5e9190613db3565b610e9d576040517f08c379a0000000000000000000000000000000000000000000000000000000008152600401610e9490613e98565b60405180910390fd5b600260003373ffffffffffffffffffffffffffffffffffffffff1673ffffffffffffffffffffffffffffffffffffffff1681526020019081526020016000206004016001016000815480929190610ef390613eb8565b9190505550600760009054906101000a900473ffffffffffffffffffffffffffffffffffffffff1673ffffffffffffffffffffffffffffffffffffffff1663f3fef3a333836040518363ffffffff1660e01b8152600401610f55929190613f00565b600060405180830381600087803b158015610f6f57600080fd5b505af1158015610f83573d6000803e3d6000fd5b505050505050565b60095481565b610f996131cd565b600360008381526020019081526020016000206040518061016001604052908160008201548152602001600182015481526020016002820160009054906101000a900473ffffffffffffffffffffffffffffffffffffffff1673ffffffffffffffffffffffffffffffffffffffff1673ffffffffffffffffffffffffffffffffffffffff1681526020016003820154815260200160048201805461103c90613c1c565b80601f016020809104026020016040519081016040528092919081815260200182805461106890613c1c565b80156110b55780601f1061108a576101008083540402835291602001916110b5565b820191906000526020600020905b81548152906001019060200180831161109857829003601f168201915b505050505081526020016005820180546110ce90613c1c565b80601f01602080910402602001604051908101604052809291908181526020018280546110fa90613c1c565b80156111475780601f1061111c57610100808354040283529160200191611147565b820191906000526020600020905b81548152906001019060200180831161112a57829003601f168201915b50505050508152602001600682015481526020016007820160009054906101000a900460ff161515151581526020016007820160019054906101000a900460ff16151515158152602001600882015481526020016009820154815250509050919050565b6000600760009054906101000a900473ffffffffffffffffffffffffffffffffffffffff1673ffffffffffffffffffffffffffffffffffffffff1663d5ee3eb56111f3612a1d565b6040518263ffffffff1660e01b815260040161120f91906133b3565b602060405180830381865afa15801561122c573d6000803e3d6000fd5b505050506040513d601f19601f820116820180604052508101906112509190613f5f565b905090565b6004602052816000526040600020818154811061127157600080fd5b90600052602060002001600091509150508060000154905081565b60026020528060005260406000206000915090508060000154908060010160009054906101000a900473ffffffffffffffffffffffffffffffffffffffff16908060020180546112db90613c1c565b80601f016020809104026020016040519081016040528092919081815260200182805461130790613c1c565b80156113545780601f1061132957610100808354040283529160200191611354565b820191906000526020600020905b81548152906001019060200180831161133757829003601f168201915b50505050509080600301805461136990613c1c565b80601f016020809104026020016040519081016040528092919081815260200182805461139590613c1c565b80156113e25780601f106113b7576101008083540402835291602001916113e2565b820191906000526020600020905b8154815290600101906020018083116113c557829003601f168201915b5050505050908060040160405180604001604052908160008201548152602001600182015481525050908060060154908060070154908060080154905088565b61142a613241565b600260008373ffffffffffffffffffffffffffffffffffffffff1673ffffffffffffffffffffffffffffffffffffffff16815260200190815260200160002060405180610100016040529081600082015481526020016001820160009054906101000a900473ffffffffffffffffffffffffffffffffffffffff1673ffffffffffffffffffffffffffffffffffffffff1673ffffffffffffffffffffffffffffffffffffffff1681526020016002820180546114e590613c1c565b80601f016020809104026020016040519081016040528092919081815260200182805461151190613c1c565b801561155e5780601f106115335761010080835404028352916020019161155e565b820191906000526020600020905b81548152906001019060200180831161154157829003601f168201915b5050505050815260200160038201805461157790613c1c565b80601f01602080910402602001604051908101604052809291908181526020018280546115a390613c1c565b80156115f05780601f106115c5576101008083540402835291602001916115f0565b820191906000526020600020905b8154815290600101906020018083116115d357829003601f168201915b505050505081526020016004820160405180604001604052908160008201548152602001600182015481525050815260200160068201548152602001600782015481526020016008820154815250509050919050565b61164e612ab5565b6116586000612b33565b565b600660009054906101000a900473ffffffffffffffffffffffffffffffffffffffff1673ffffffffffffffffffffffffffffffffffffffff16639497c6086008336040518363ffffffff1660e01b81526004016116b8929190613d5e565b602060405180830381865afa1580156116d5573d6000803e3d6000fd5b505050506040513d601f19601f820116820180604052508101906116f99190613db3565b611738576040517f08c379a000000000000000000000000000000000000000000000000000000000815260040161172f90613fd8565b60405180910390fd5b6000600360008481526020019081526020016000206040518061016001604052908160008201548152602001600182015481526020016002820160009054906101000a900473ffffffffffffffffffffffffffffffffffffffff1673ffffffffffffffffffffffffffffffffffffffff1673ffffffffffffffffffffffffffffffffffffffff168152602001600382015481526020016004820180546117dd90613c1c565b80601f016020809104026020016040519081016040528092919081815260200182805461180990613c1c565b80156118565780601f1061182b57610100808354040283529160200191611856565b820191906000526020600020905b81548152906001019060200180831161183957829003601f168201915b5050505050815260200160058201805461186f90613c1c565b80601f016020809104026020016040519081016040528092919081815260200182805461189b90613c1c565b80156118e85780601f106118bd576101008083540402835291602001916118e8565b820191906000526020600020905b8154815290600101906020018083116118cb57829003601f168201915b50505050508152602001600682015481526020016007820160009054906101000a900460ff161515151581526020016007820160019054906101000a900460ff161515151581526020016008820154815260200160098201548152505090508061010001518015611963575061195c612a1d565b8160200151145b6119a2576040517f08c379a000000000000000000000000000000000000000000000000000000000815260040161199990614044565b60405180910390fd5b60018160c0018181516119b59190614064565b915081815250508060036000858152602001908152602001600020600082015181600001556020820151816001015560408201518160020160006101000a81548173ffffffffffffffffffffffffffffffffffffffff021916908373ffffffffffffffffffffffffffffffffffffffff160217905550606082015181600301556080820151816004019081611a4a9190614244565b5060a0820151816005019081611a609190614244565b5060c0820151816006015560e08201518160070160006101000a81548160ff0219169083151502179055506101008201518160070160016101000a81548160ff021916908315150217905550610120820151816008015561014082015181600901559050506000600860009054906101000a900473ffffffffffffffffffffffffffffffffffffffff1673ffffffffffffffffffffffffffffffffffffffff166384f0f65f6040518163ffffffff1660e01b8152600401602060405180830381865afa158015611b34573d6000803e3d6000fd5b505050506040513d601f19601f82011682018060405250810190611b58919061432b565b8260c00151101590508015611b7157611b7082612bf7565b5b600860009054906101000a900473ffffffffffffffffffffffffffffffffffffffff1673ffffffffffffffffffffffffffffffffffffffff16632fcd8f0c8385336040518463ffffffff1660e01b8152600401611bd093929190614358565b600060405180830381600087803b158015611bea57600080fd5b505af1158015611bfe573d6000803e3d6000fd5b5050505050505050565b600a5481565b600080600260008473ffffffffffffffffffffffffffffffffffffffff1673ffffffffffffffffffffffffffffffffffffffff16815260200190815260200160002060000154119050919050565b600660009054906101000a900473ffffffffffffffffffffffffffffffffffffffff1673ffffffffffffffffffffffffffffffffffffffff16639497c6086004336040518363ffffffff1660e01b8152600401611cba929190613d5e565b602060405180830381865afa158015611cd7573d6000803e3d6000fd5b505050506040513d601f19601f82011682018060405250810190611cfb9190613db3565b611d3a576040517f08c379a0000000000000000000000000000000000000000000000000000000008152600401611d31906143e9565b60405180910390fd5b7f0000000000000000000000000000000000000000000000000000000000000000611d636111ab565b11611da3576040517f08c379a0000000000000000000000000000000000000000000000000000000008152600401611d9a9061447b565b60405180910390fd5b611dac33612d3c565b611deb576040517f08c379a0000000000000000000000000000000000000000000000000000000008152600401611de2906144e7565b60405180910390fd5b60096000815480929190611dfe90613eb8565b9190505550600a6000815480929190611e1690613eb8565b919050555060006009549050600260003373ffffffffffffffffffffffffffffffffffffffff1673ffffffffffffffffffffffffffffffffffffffff1681526020019081526020016000206006016000815480929190611e7590613eb8565b9190505550604051806101600160405280828152602001611e94612a1d565b81526020013373ffffffffffffffffffffffffffffffffffffffff168152602001600260003373ffffffffffffffffffffffffffffffffffffffff1673ffffffffffffffffffffffffffffffffffffffff16815260200190815260200160002060040160000154815260200184815260200183815260200160008152602001600115158152602001600115158152602001600081526020014381525060036000838152602001908152602001600020600082015181600001556020820151816001015560408201518160020160006101000a81548173ffffffffffffffffffffffffffffffffffffffff021916908373ffffffffffffffffffffffffffffffffffffffff160217905550606082015181600301556080820151816004019081611fbd9190614244565b5060a0820151816005019081611fd39190614244565b5060c0820151816006015560e08201518160070160006101000a81548160ff0219169083151502179055506101008201518160070160016101000a81548160ff0219169083151502179055506101208201518160080155610140820151816009015590505061204133612dcb565b505050565b60016020528060005260406000206000915054906101000a900460ff1681565b60008060009054906101000a900473ffffffffffffffffffffffffffffffffffffffff16905090565b612097612ab5565b60018060008373ffffffffffffffffffffffffffffffffffffffff1673ffffffffffffffffffffffffffffffffffffffff16815260200190815260200160002060006101000a81548160ff02191690831515021790555050565b7f000000000000000000000000000000000000000000000000000000000000000081565b60006001600660009054906101000a900473ffffffffffffffffffffffffffffffffffffffff1673ffffffffffffffffffffffffffffffffffffffff16631eb2c12060046040518263ffffffff1660e01b81526004016121759190614507565b602060405180830381865afa158015612192573d6000803e3d6000fd5b505050506040513d601f19601f820116820180604052508101906121b6919061432b565b6121c09190614064565b90506040518061010001604052808281526020013373ffffffffffffffffffffffffffffffffffffffff168152602001848152602001838152602001604051806040016040528060008152602001612216612a1d565b8152508152602001600081526020014381526020016000815250600260003373ffffffffffffffffffffffffffffffffffffffff1673ffffffffffffffffffffffffffffffffffffffff1681526020019081526020016000206000820151816000015560208201518160010160006101000a81548173ffffffffffffffffffffffffffffffffffffffff021916908373ffffffffffffffffffffffffffffffffffffffff16021790555060408201518160020190816122d59190614244565b5060608201518160030190816122eb9190614244565b506080820151816004016000820151816000015560208201518160010155505060a0820151816006015560c0820151816007015560e08201518160080155905050336005600083815260200190815260200160002060006101000a81548173ffffffffffffffffffffffffffffffffffffffff021916908373ffffffffffffffffffffffffffffffffffffffff160217905550600660009054906101000a900473ffffffffffffffffffffffffffffffffffffffff1673ffffffffffffffffffffffffffffffffffffffff16639c3eead93360046040518363ffffffff1660e01b81526004016123dc929190614522565b600060405180830381600087803b1580156123f657600080fd5b505af115801561240a573d6000803e3d6000fd5b50505050505050565b6000600583116124265760019050612458565b600061244e6001612440868861319990919063ffffffff16565b6131af90919063ffffffff16565b9050808310159150505b9392505050565b6000600160008373ffffffffffffffffffffffffffffffffffffffff1673ffffffffffffffffffffffffffffffffffffffff16815260200190815260200160002060009054906101000a900460ff169050919050565b7f000000000000000000000000000000000000000000000000000000000000000081565b600080600260008473ffffffffffffffffffffffffffffffffffffffff1673ffffffffffffffffffffffffffffffffffffffff16815260200190815260200160002060405180610100016040529081600082015481526020016001820160009054906101000a900473ffffffffffffffffffffffffffffffffffffffff1673ffffffffffffffffffffffffffffffffffffffff1673ffffffffffffffffffffffffffffffffffffffff16815260200160028201805461259790613c1c565b80601f01602080910402602001604051908101604052809291908181526020018280546125c390613c1c565b80156126105780601f106125e557610100808354040283529160200191612610565b820191906000526020600020905b8154815290600101906020018083116125f357829003601f168201915b5050505050815260200160038201805461262990613c1c565b80601f016020809104026020016040519081016040528092919081815260200182805461265590613c1c565b80156126a25780601f10612677576101008083540402835291602001916126a2565b820191906000526020600020905b81548152906001019060200180831161268557829003601f168201915b50505050508152602001600482016040518060400160405290816000820154815260200160018201548152505081526020016006820154815260200160078201548152602001600882015481525050905060008160000151116127095760009150506127be565b6127ba600a54600660009054906101000a900473ffffffffffffffffffffffffffffffffffffffff1673ffffffffffffffffffffffffffffffffffffffff16631eb2c12060046040518263ffffffff1660e01b815260040161276b9190614507565b602060405180830381865afa158015612788573d6000803e3d6000fd5b505050506040513d601f19601f820116820180604052508101906127ac919061432b565b836080015160000151612413565b9150505b919050565b60036020528060005260406000206000915090508060000154908060010154908060020160009054906101000a900473ffffffffffffffffffffffffffffffffffffffff169080600301549080600401805461281e90613c1c565b80601f016020809104026020016040519081016040528092919081815260200182805461284a90613c1c565b80156128975780601f1061286c57610100808354040283529160200191612897565b820191906000526020600020905b81548152906001019060200180831161287a57829003601f168201915b5050505050908060050180546128ac90613c1c565b80601f01602080910402602001604051908101604052809291908181526020018280546128d890613c1c565b80156129255780601f106128fa57610100808354040283529160200191612925565b820191906000526020600020905b81548152906001019060200180831161290857829003601f168201915b5050505050908060060154908060070160009054906101000a900460ff16908060070160019054906101000a900460ff1690806008015490806009015490508b565b61296f612ab5565b600073ffffffffffffffffffffffffffffffffffffffff168173ffffffffffffffffffffffffffffffffffffffff16036129de576040517f08c379a00000000000000000000000000000000000000000000000000000000081526004016129d5906145bd565b60405180910390fd5b6129e781612b33565b50565b60056020528060005260406000206000915054906101000a900473ffffffffffffffffffffffffffffffffffffffff1681565b6000600760009054906101000a900473ffffffffffffffffffffffffffffffffffffffff1673ffffffffffffffffffffffffffffffffffffffff1663ed0df79e6040518163ffffffff1660e01b8152600401602060405180830381865afa158015612a8c573d6000803e3d6000fd5b505050506040513d601f19601f82011682018060405250810190612ab0919061432b565b905090565b612abd6131c5565b73ffffffffffffffffffffffffffffffffffffffff16612adb612066565b73ffffffffffffffffffffffffffffffffffffffff1614612b31576040517f08c379a0000000000000000000000000000000000000000000000000000000008152600401612b2890614629565b60405180910390fd5b565b60008060009054906101000a900473ffffffffffffffffffffffffffffffffffffffff169050816000806101000a81548173ffffffffffffffffffffffffffffffffffffffff021916908373ffffffffffffffffffffffffffffffffffffffff1602179055508173ffffffffffffffffffffffffffffffffffffffff168173ffffffffffffffffffffffffffffffffffffffff167f8be0079c531659141344cd1fd0a4f28419497f9722a3daafe3b4186f6b6457e060405160405180910390a35050565b600a6000815480929190612c0a90614649565b91905055506000816101000190151590811515815250504381610120018181525050806003600083600001518152602001908152602001600020600082015181600001556020820151816001015560408201518160020160006101000a81548173ffffffffffffffffffffffffffffffffffffffff021916908373ffffffffffffffffffffffffffffffffffffffff160217905550606082015181600301556080820151816004019081612cbe9190614244565b5060a0820151816005019081612cd49190614244565b5060c0820151816006015560e08201518160070160006101000a81548160ff0219169083151502179055506101008201518160070160016101000a81548160ff0219169083151502179055506101208201518160080155610140820151816009015590505050565b600080600260008473ffffffffffffffffffffffffffffffffffffffff1673ffffffffffffffffffffffffffffffffffffffff16815260200190815260200160002060080154905060007f000000000000000000000000000000000000000000000000000000000000000082612db29190614064565b431190508080612dc25750600082145b92505050919050565b6000600260008373ffffffffffffffffffffffffffffffffffffffff1673ffffffffffffffffffffffffffffffffffffffff16815260200190815260200160002060405180610100016040529081600082015481526020016001820160009054906101000a900473ffffffffffffffffffffffffffffffffffffffff1673ffffffffffffffffffffffffffffffffffffffff1673ffffffffffffffffffffffffffffffffffffffff168152602001600282018054612e8890613c1c565b80601f0160208091040260200160405190810160405280929190818152602001828054612eb490613c1c565b8015612f015780601f10612ed657610100808354040283529160200191612f01565b820191906000526020600020905b815481529060010190602001808311612ee457829003601f168201915b50505050508152602001600382018054612f1a90613c1c565b80601f0160208091040260200160405190810160405280929190818152602001828054612f4690613c1c565b8015612f935780601f10612f6857610100808354040283529160200191612f93565b820191906000526020600020905b815481529060010190602001808311612f7657829003601f168201915b505050505081526020016004820160405180604001604052908160008201548152602001600182015481525050815260200160068201548152602001600782015481526020016008820154815250509050438160e00181815250508060800151600001805180919061300490613eb8565b8152505080600260008473ffffffffffffffffffffffffffffffffffffffff1673ffffffffffffffffffffffffffffffffffffffff1681526020019081526020016000206000820151816000015560208201518160010160006101000a81548173ffffffffffffffffffffffffffffffffffffffff021916908373ffffffffffffffffffffffffffffffffffffffff16021790555060408201518160020190816130ae9190614244565b5060608201518160030190816130c49190614244565b506080820151816004016000820151816000015560208201518160010155505060a0820151816006015560c0820151816007015560e08201518160080155905050600760009054906101000a900473ffffffffffffffffffffffffffffffffffffffff1673ffffffffffffffffffffffffffffffffffffffff166352b8d3ed8360016040518363ffffffff1660e01b81526004016131639291906146ad565b600060405180830381600087803b15801561317d57600080fd5b505af1158015613191573d6000803e3d6000fd5b505050505050565b600081836131a79190614705565b905092915050565b600081836131bd9190614064565b905092915050565b600033905090565b6040518061016001604052806000815260200160008152602001600073ffffffffffffffffffffffffffffffffffffffff1681526020016000815260200160608152602001606081526020016000815260200160001515815260200160001515815260200160008152602001600081525090565b60405180610100016040528060008152602001600073ffffffffffffffffffffffffffffffffffffffff16815260200160608152602001606081526020016132876132a2565b81526020016000815260200160008152602001600081525090565b604051806040016040528060008152602001600081525090565b6000604051905090565b600080fd5b600080fd5b600073ffffffffffffffffffffffffffffffffffffffff82169050919050565b60006132fb826132d0565b9050919050565b61330b816132f0565b811461331657600080fd5b50565b60008135905061332881613302565b92915050565b6000819050919050565b6133418161332e565b811461334c57600080fd5b50565b60008135905061335e81613338565b92915050565b6000806040838503121561337b5761337a6132c6565b5b600061338985828601613319565b925050602061339a8582860161334f565b9150509250929050565b6133ad8161332e565b82525050565b60006020820190506133c860008301846133a4565b92915050565b6000602082840312156133e4576133e36132c6565b5b60006133f284828501613319565b91505092915050565b600060208284031215613411576134106132c6565b5b600061341f8482850161334f565b91505092915050565b6134318161332e565b82525050565b613440816132f0565b82525050565b600081519050919050565b600082825260208201905092915050565b60005b83811015613480578082015181840152602081019050613465565b60008484015250505050565b6000601f19601f8301169050919050565b60006134a882613446565b6134b28185613451565b93506134c2818560208601613462565b6134cb8161348c565b840191505092915050565b60008115159050919050565b6134eb816134d6565b82525050565b60006101608301600083015161350a6000860182613428565b50602083015161351d6020860182613428565b5060408301516135306040860182613437565b5060608301516135436060860182613428565b506080830151848203608086015261355b828261349d565b91505060a083015184820360a0860152613575828261349d565b91505060c083015161358a60c0860182613428565b5060e083015161359d60e08601826134e2565b506101008301516135b26101008601826134e2565b506101208301516135c7610120860182613428565b506101408301516135dc610140860182613428565b508091505092915050565b6000602082019050818103600083015261360181846134f1565b905092915050565b613612816132f0565b82525050565b600082825260208201905092915050565b600061363482613446565b61363e8185613618565b935061364e818560208601613462565b6136578161348c565b840191505092915050565b6040820160008201516136786000850182613428565b50602082015161368b6020850182613428565b50505050565b6000610120820190506136a7600083018b6133a4565b6136b4602083018a613609565b81810360408301526136c68189613629565b905081810360608301526136da8188613629565b90506136e96080830187613662565b6136f660c08301866133a4565b61370360e08301856133a4565b6137116101008301846133a4565b9998505050505050505050565b6040820160008201516137346000850182613428565b5060208201516137476020850182613428565b50505050565b6000610120830160008301516137666000860182613428565b5060208301516137796020860182613437565b5060408301518482036040860152613791828261349d565b915050606083015184820360608601526137ab828261349d565b91505060808301516137c0608086018261371e565b5060a08301516137d360c0860182613428565b5060c08301516137e660e0860182613428565b5060e08301516137fa610100860182613428565b508091505092915050565b6000602082019050818103600083015261381f818461374d565b905092915050565b600080fd5b600080fd5b7f4e487b7100000000000000000000000000000000000000000000000000000000600052604160045260246000fd5b6138698261348c565b810181811067ffffffffffffffff8211171561388857613887613831565b5b80604052505050565b600061389b6132bc565b90506138a78282613860565b919050565b600067ffffffffffffffff8211156138c7576138c6613831565b5b6138d08261348c565b9050602081019050919050565b82818337600083830152505050565b60006138ff6138fa846138ac565b613891565b90508281526020810184848401111561391b5761391a61382c565b5b6139268482856138dd565b509392505050565b600082601f83011261394357613942613827565b5b81356139538482602086016138ec565b91505092915050565b60008060408385031215613973576139726132c6565b5b60006139818582860161334f565b925050602083013567ffffffffffffffff8111156139a2576139a16132cb565b5b6139ae8582860161392e565b9150509250929050565b6139c1816134d6565b82525050565b60006020820190506139dc60008301846139b8565b92915050565b600080604083850312156139f9576139f86132c6565b5b600083013567ffffffffffffffff811115613a1757613a166132cb565b5b613a238582860161392e565b925050602083013567ffffffffffffffff811115613a4457613a436132cb565b5b613a508582860161392e565b9150509250929050565b6000602082019050613a6f6000830184613609565b92915050565b600080600060608486031215613a8e57613a8d6132c6565b5b6000613a9c8682870161334f565b9350506020613aad8682870161334f565b9250506040613abe8682870161334f565b9150509250925092565b600061016082019050613ade600083018e6133a4565b613aeb602083018d6133a4565b613af8604083018c613609565b613b05606083018b6133a4565b8181036080830152613b17818a613629565b905081810360a0830152613b2b8189613629565b9050613b3a60c08301886133a4565b613b4760e08301876139b8565b613b556101008301866139b8565b613b636101208301856133a4565b613b716101408301846133a4565b9c9b505050505050505050505050565b7f4e6f7420616c6c6f7765642063616c6c65720000000000000000000000000000600082015250565b6000613bb7601283613618565b9150613bc282613b81565b602082019050919050565b60006020820190508181036000830152613be681613baa565b9050919050565b7f4e487b7100000000000000000000000000000000000000000000000000000000600052602260045260246000fd5b60006002820490506001821680613c3457607f821691505b602082108103613c4757613c46613bed565b5b50919050565b7f4e487b7100000000000000000000000000000000000000000000000000000000600052601160045260246000fd5b6000613c878261332e565b9150613c928361332e565b9250828203905081811115613caa57613ca9613c4d565b5b92915050565b6000606082019050613cc56000830186613609565b613cd260208301856133a4565b613cdf60408301846133a4565b949350505050565b7f4e487b7100000000000000000000000000000000000000000000000000000000600052602160045260246000fd5b600a8110613d2757613d26613ce7565b5b50565b6000819050613d3882613d16565b919050565b6000613d4882613d2a565b9050919050565b613d5881613d3d565b82525050565b6000604082019050613d736000830185613d4f565b613d806020830184613609565b9392505050565b613d90816134d6565b8114613d9b57600080fd5b50565b600081519050613dad81613d87565b92915050565b600060208284031215613dc957613dc86132c6565b5b6000613dd784828501613d9e565b91505092915050565b7f506f6f6c206f6e6c7920746f20646576656c6f70657200000000000000000000600082015250565b6000613e16601683613618565b9150613e2182613de0565b602082019050919050565b60006020820190508181036000830152613e4581613e09565b9050919050565b7f43616e277420617070726f766520776974686472617700000000000000000000600082015250565b6000613e82601683613618565b9150613e8d82613e4c565b602082019050919050565b60006020820190508181036000830152613eb181613e75565b9050919050565b6000613ec38261332e565b91507fffffffffffffffffffffffffffffffffffffffffffffffffffffffffffffffff8203613ef557613ef4613c4d565b5b600182019050919050565b6000604082019050613f156000830185613609565b613f2260208301846133a4565b9392505050565b6000819050919050565b613f3c81613f29565b8114613f4757600080fd5b50565b600081519050613f5981613f33565b92915050565b600060208284031215613f7557613f746132c6565b5b6000613f8384828501613f4a565b91505092915050565b7f506c656173652072656769737465722061732076616c696461746f7200000000600082015250565b6000613fc2601c83613618565b9150613fcd82613f8c565b602082019050919050565b60006020820190508181036000830152613ff181613fb5565b9050919050565b7f54686973207265706f7274206973206e6f742056414c49440000000000000000600082015250565b600061402e601883613618565b915061403982613ff8565b602082019050919050565b6000602082019050818103600083015261405d81614021565b9050919050565b600061406f8261332e565b915061407a8361332e565b925082820190508082111561409257614091613c4d565b5b92915050565b60008190508160005260206000209050919050565b60006020601f8301049050919050565b600082821b905092915050565b6000600883026140fa7fffffffffffffffffffffffffffffffffffffffffffffffffffffffffffffffff826140bd565b61410486836140bd565b95508019841693508086168417925050509392505050565b6000819050919050565b600061414161413c6141378461332e565b61411c565b61332e565b9050919050565b6000819050919050565b61415b83614126565b61416f61416782614148565b8484546140ca565b825550505050565b600090565b614184614177565b61418f818484614152565b505050565b5b818110156141b3576141a860008261417c565b600181019050614195565b5050565b601f8211156141f8576141c981614098565b6141d2846140ad565b810160208510156141e1578190505b6141f56141ed856140ad565b830182614194565b50505b505050565b600082821c905092915050565b600061421b600019846008026141fd565b1980831691505092915050565b6000614234838361420a565b9150826002028217905092915050565b61424d82613446565b67ffffffffffffffff81111561426657614265613831565b5b6142708254613c1c565b61427b8282856141b7565b600060209050601f8311600181146142ae576000841561429c578287015190505b6142a68582614228565b86555061430e565b601f1984166142bc86614098565b60005b828110156142e4578489015182556001820191506020850194506020810190506142bf565b8683101561430157848901516142fd601f89168261420a565b8355505b6001600288020188555050505b505050505050565b60008151905061432581613338565b92915050565b600060208284031215614341576143406132c6565b5b600061434f84828501614316565b91505092915050565b6000606082019050818103600083015261437281866134f1565b905081810360208301526143868185613629565b90506143956040830184613609565b949350505050565b7f4f6e6c7920446576656c6f706572000000000000000000000000000000000000600082015250565b60006143d3600e83613618565b91506143de8261439d565b602082019050919050565b60006020820190508181036000830152614402816143c6565b9050919050565b7f5761697420756e74696c206e6578742065726120746f20616464207265706f7260008201527f7400000000000000000000000000000000000000000000000000000000000000602082015250565b6000614465602183613618565b915061447082614409565b604082019050919050565b6000602082019050818103600083015261449481614458565b9050919050565b7f43616e2774207075626c69736820796574000000000000000000000000000000600082015250565b60006144d1601183613618565b91506144dc8261449b565b602082019050919050565b60006020820190508181036000830152614500816144c4565b9050919050565b600060208201905061451c6000830184613d4f565b92915050565b60006040820190506145376000830185613609565b6145446020830184613d4f565b9392505050565b7f4f776e61626c653a206e6577206f776e657220697320746865207a65726f206160008201527f6464726573730000000000000000000000000000000000000000000000000000602082015250565b60006145a7602683613618565b91506145b28261454b565b604082019050919050565b600060208201905081810360008301526145d68161459a565b9050919050565b7f4f776e61626c653a2063616c6c6572206973206e6f7420746865206f776e6572600082015250565b6000614613602083613618565b915061461e826145dd565b602082019050919050565b6000602082019050818103600083015261464281614606565b9050919050565b60006146548261332e565b91506000820361466757614666613c4d565b5b600182039050919050565b6000819050919050565b600061469761469261468d84614672565b61411c565b61332e565b9050919050565b6146a78161467c565b82525050565b60006040820190506146c26000830185613609565b6146cf602083018461469e565b9392505050565b7f4e487b7100000000000000000000000000000000000000000000000000000000600052601260045260246000fd5b60006147108261332e565b915061471b8361332e565b92508261472b5761472a6146d6565b5b82820490509291505056fea264697066735822122024821dcb7e69b49fdf2a410b04f88048235b3d38b8832418256aeba4ef749e6164736f6c634300081b0033",
  "linkReferences": {},
  "deployedLinkReferences": {}
}