{
  "_format": "hh-sol-artifact-1",
  "contractName": "DeveloperRules",
  "sourceName": "contracts/DeveloperRules.sol",
  "abi": [
    {
      "inputs": [
        {
          "internalType": "uint256",
          "name": "timeBetweenWorks_",
          "type": "uint256"
        },
        {
          "internalType": "uint256",
          "name": "maxPenalties_",
          "type": "uint256"
        },
        {
          "internalType": "uint256",
          "name": "securityBlocksToValidatorAnalysis",
          "type": "uint256"
        }
      ],
      "stateMutability": "nonpayable",
      "type": "constructor"
    },
    {
      "anonymous": false,
      "inputs": [
        {
          "indexed": true,
          "internalType": "address",
          "name": "previousOwner",
          "type": "address"
        },
        {
          "indexed": true,
          "internalType": "address",
          "name": "newOwner",
          "type": "address"
        }
      ],
      "name": "OwnershipTransferred",
      "type": "event"
    },
    {
      "inputs": [],
      "name": "MAX_PENALTIES",
      "outputs": [
        {
          "internalType": "uint256",
          "name": "",
          "type": "uint256"
        }
      ],
      "stateMutability": "view",
      "type": "function"
    },
    {
      "inputs": [],
      "name": "SECURITY_BLOCKS_TO_VALIDATOR_ANALYSIS",
      "outputs": [
        {
          "internalType": "uint256",
          "name": "",
          "type": "uint256"
        }
      ],
      "stateMutability": "view",
      "type": "function"
    },
    {
      "inputs": [
        {
          "internalType": "string",
          "name": "name",
          "type": "string"
        },
        {
          "internalType": "string",
          "name": "proofPhoto",
          "type": "string"
        }
      ],
      "name": "addDeveloper",
      "outputs": [],
      "stateMutability": "nonpayable",
      "type": "function"
    },
    {
      "inputs": [
        {
          "internalType": "address",
          "name": "addr",
          "type": "address"
        },
        {
          "internalType": "uint256",
          "name": "reportId",
          "type": "uint256"
        }
      ],
      "name": "addPenalty",
      "outputs": [
        {
          "internalType": "uint256",
          "name": "",
          "type": "uint256"
        }
      ],
      "stateMutability": "nonpayable",
      "type": "function"
    },
    {
      "inputs": [
        {
          "internalType": "string",
          "name": "description",
          "type": "string"
        },
        {
          "internalType": "string",
          "name": "report",
          "type": "string"
        }
      ],
      "name": "addReport",
      "outputs": [],
      "stateMutability": "nonpayable",
      "type": "function"
    },
    {
      "inputs": [
        {
          "internalType": "uint256",
          "name": "id",
          "type": "uint256"
        },
        {
          "internalType": "string",
          "name": "justification",
          "type": "string"
        }
      ],
      "name": "addReportValidation",
      "outputs": [],
      "stateMutability": "nonpayable",
      "type": "function"
    },
    {
      "inputs": [
        {
          "internalType": "address",
          "name": "",
          "type": "address"
        }
      ],
      "name": "allowedCallers",
      "outputs": [
        {
          "internalType": "bool",
          "name": "",
          "type": "bool"
        }
      ],
      "stateMutability": "view",
      "type": "function"
    },
    {
      "inputs": [
        {
          "internalType": "uint256",
          "name": "totalLevels",
          "type": "uint256"
        },
        {
          "internalType": "uint256",
          "name": "totalUsers",
          "type": "uint256"
        },
        {
          "internalType": "uint256",
          "name": "userLevels",
          "type": "uint256"
        }
      ],
      "name": "canInvite",
      "outputs": [
        {
          "internalType": "bool",
          "name": "",
          "type": "bool"
        }
      ],
      "stateMutability": "pure",
      "type": "function"
    },
    {
      "inputs": [
        {
          "internalType": "address",
          "name": "addr",
          "type": "address"
        }
      ],
      "name": "canSendInvite",
      "outputs": [
        {
          "internalType": "bool",
          "name": "",
          "type": "bool"
        }
      ],
      "stateMutability": "view",
      "type": "function"
    },
    {
      "inputs": [
        {
          "internalType": "address",
          "name": "addr",
          "type": "address"
        }
      ],
      "name": "developerExists",
      "outputs": [
        {
          "internalType": "bool",
          "name": "",
          "type": "bool"
        }
      ],
      "stateMutability": "view",
      "type": "function"
    },
    {
      "inputs": [
        {
          "internalType": "address",
          "name": "",
          "type": "address"
        }
      ],
      "name": "developers",
      "outputs": [
        {
          "internalType": "uint256",
          "name": "id",
          "type": "uint256"
        },
        {
          "internalType": "address",
          "name": "developerWallet",
          "type": "address"
        },
        {
          "internalType": "string",
          "name": "name",
          "type": "string"
        },
        {
          "internalType": "string",
          "name": "proofPhoto",
          "type": "string"
        },
        {
          "components": [
            {
              "internalType": "uint256",
              "name": "level",
              "type": "uint256"
            },
            {
              "internalType": "uint256",
              "name": "currentEra",
              "type": "uint256"
            }
          ],
          "internalType": "struct Pool",
          "name": "pool",
          "type": "tuple"
        },
        {
          "internalType": "uint256",
          "name": "totalReports",
          "type": "uint256"
        },
        {
          "internalType": "uint256",
          "name": "createdAt",
          "type": "uint256"
        },
        {
          "internalType": "uint256",
          "name": "lastPublishedAt",
          "type": "uint256"
        }
      ],
      "stateMutability": "view",
      "type": "function"
    },
    {
      "inputs": [
        {
          "internalType": "uint256",
          "name": "",
          "type": "uint256"
        }
      ],
      "name": "developersAddress",
      "outputs": [
        {
          "internalType": "address",
          "name": "",
          "type": "address"
        }
      ],
      "stateMutability": "view",
      "type": "function"
    },
    {
      "inputs": [
        {
          "internalType": "address",
          "name": "addr",
          "type": "address"
        }
      ],
      "name": "getDeveloper",
      "outputs": [
        {
          "components": [
            {
              "internalType": "uint256",
              "name": "id",
              "type": "uint256"
            },
            {
              "internalType": "address",
              "name": "developerWallet",
              "type": "address"
            },
            {
              "internalType": "string",
              "name": "name",
              "type": "string"
            },
            {
              "internalType": "string",
              "name": "proofPhoto",
              "type": "string"
            },
            {
              "components": [
                {
                  "internalType": "uint256",
                  "name": "level",
                  "type": "uint256"
                },
                {
                  "internalType": "uint256",
                  "name": "currentEra",
                  "type": "uint256"
                }
              ],
              "internalType": "struct Pool",
              "name": "pool",
              "type": "tuple"
            },
            {
              "internalType": "uint256",
              "name": "totalReports",
              "type": "uint256"
            },
            {
              "internalType": "uint256",
              "name": "createdAt",
              "type": "uint256"
            },
            {
              "internalType": "uint256",
              "name": "lastPublishedAt",
              "type": "uint256"
            }
          ],
          "internalType": "struct Developer",
          "name": "developer",
          "type": "tuple"
        }
      ],
      "stateMutability": "view",
      "type": "function"
    },
    {
      "inputs": [
        {
          "internalType": "uint256",
          "name": "id",
          "type": "uint256"
        }
      ],
      "name": "getReport",
      "outputs": [
        {
          "components": [
            {
              "internalType": "uint256",
              "name": "id",
              "type": "uint256"
            },
            {
              "internalType": "uint256",
              "name": "era",
              "type": "uint256"
            },
            {
              "internalType": "address",
              "name": "developer",
              "type": "address"
            },
            {
              "internalType": "string",
              "name": "description",
              "type": "string"
            },
            {
              "internalType": "string",
              "name": "report",
              "type": "string"
            },
            {
              "internalType": "uint256",
              "name": "validationsCount",
              "type": "uint256"
            },
            {
              "internalType": "bool",
              "name": "valid",
              "type": "bool"
            },
            {
              "internalType": "uint256",
              "name": "invalidatedAt",
              "type": "uint256"
            },
            {
              "internalType": "uint256",
              "name": "createdAtBlockNumber",
              "type": "uint256"
            }
          ],
          "internalType": "struct Report",
          "name": "",
          "type": "tuple"
        }
      ],
      "stateMutability": "view",
      "type": "function"
    },
    {
      "inputs": [
        {
          "internalType": "address",
          "name": "addr",
          "type": "address"
        }
      ],
      "name": "getReportsIds",
      "outputs": [
        {
          "internalType": "uint256[]",
          "name": "",
          "type": "uint256[]"
        }
      ],
      "stateMutability": "view",
      "type": "function"
    },
    {
      "inputs": [
        {
          "internalType": "address",
          "name": "caller",
          "type": "address"
        }
      ],
      "name": "isAllowedCaller",
      "outputs": [
        {
          "internalType": "bool",
          "name": "",
          "type": "bool"
        }
      ],
      "stateMutability": "view",
      "type": "function"
    },
    {
      "inputs": [
        {
          "internalType": "address",
          "name": "allowed",
          "type": "address"
        }
      ],
      "name": "newAllowedCaller",
      "outputs": [],
      "stateMutability": "nonpayable",
      "type": "function"
    },
    {
      "inputs": [],
      "name": "nextEraIn",
      "outputs": [
        {
          "internalType": "uint256",
          "name": "",
          "type": "uint256"
        }
      ],
      "stateMutability": "view",
      "type": "function"
    },
    {
      "inputs": [],
      "name": "owner",
      "outputs": [
        {
          "internalType": "address",
          "name": "",
          "type": "address"
        }
      ],
      "stateMutability": "view",
      "type": "function"
    },
    {
      "inputs": [
        {
          "internalType": "address",
          "name": "",
          "type": "address"
        },
        {
          "internalType": "uint256",
          "name": "",
          "type": "uint256"
        }
      ],
      "name": "penalties",
      "outputs": [
        {
          "internalType": "uint256",
          "name": "reportId",
          "type": "uint256"
        }
      ],
      "stateMutability": "view",
      "type": "function"
    },
    {
      "inputs": [
        {
          "internalType": "address",
          "name": "addr",
          "type": "address"
        },
        {
          "internalType": "uint256",
          "name": "removeSomeLevels",
          "type": "uint256"
        }
      ],
      "name": "removePoolLevels",
      "outputs": [],
      "stateMutability": "nonpayable",
      "type": "function"
    },
    {
      "inputs": [],
      "name": "renounceOwnership",
      "outputs": [],
      "stateMutability": "nonpayable",
      "type": "function"
    },
    {
      "inputs": [
        {
          "internalType": "uint256",
          "name": "",
          "type": "uint256"
        }
      ],
      "name": "reports",
      "outputs": [
        {
          "internalType": "uint256",
          "name": "id",
          "type": "uint256"
        },
        {
          "internalType": "uint256",
          "name": "era",
          "type": "uint256"
        },
        {
          "internalType": "address",
          "name": "developer",
          "type": "address"
        },
        {
          "internalType": "string",
          "name": "description",
          "type": "string"
        },
        {
          "internalType": "string",
          "name": "report",
          "type": "string"
        },
        {
          "internalType": "uint256",
          "name": "validationsCount",
          "type": "uint256"
        },
        {
          "internalType": "bool",
          "name": "valid",
          "type": "bool"
        },
        {
          "internalType": "uint256",
          "name": "invalidatedAt",
          "type": "uint256"
        },
        {
          "internalType": "uint256",
          "name": "createdAtBlockNumber",
          "type": "uint256"
        }
      ],
      "stateMutability": "view",
      "type": "function"
    },
    {
      "inputs": [],
      "name": "reportsCount",
      "outputs": [
        {
          "internalType": "uint256",
          "name": "",
          "type": "uint256"
        }
      ],
      "stateMutability": "view",
      "type": "function"
    },
    {
      "inputs": [
        {
          "internalType": "address",
          "name": "",
          "type": "address"
        },
        {
          "internalType": "uint256",
          "name": "",
          "type": "uint256"
        }
      ],
      "name": "reportsIds",
      "outputs": [
        {
          "internalType": "uint256",
          "name": "",
          "type": "uint256"
        }
      ],
      "stateMutability": "view",
      "type": "function"
    },
    {
      "inputs": [],
      "name": "reportsTotalCount",
      "outputs": [
        {
          "internalType": "uint256",
          "name": "",
          "type": "uint256"
        }
      ],
      "stateMutability": "view",
      "type": "function"
    },
    {
      "inputs": [
        {
          "components": [
            {
              "internalType": "address",
              "name": "communityRulesAddress",
              "type": "address"
            },
            {
              "internalType": "address",
              "name": "developerPoolAddress",
              "type": "address"
            },
            {
              "internalType": "address",
              "name": "validationRulesAddress",
              "type": "address"
            },
            {
              "internalType": "address",
              "name": "voteRulesAddress",
              "type": "address"
            }
          ],
          "internalType": "struct ContractsDependency",
          "name": "contractDependency",
          "type": "tuple"
        }
      ],
      "name": "setContractAddressDependencies",
      "outputs": [],
      "stateMutability": "nonpayable",
      "type": "function"
    },
    {
      "inputs": [
        {
          "internalType": "address",
          "name": "addr",
          "type": "address"
        }
      ],
      "name": "totalPenalties",
      "outputs": [
        {
          "internalType": "uint256",
          "name": "",
          "type": "uint256"
        }
      ],
      "stateMutability": "view",
      "type": "function"
    },
    {
      "inputs": [
        {
          "internalType": "address",
          "name": "newOwner",
          "type": "address"
        }
      ],
      "name": "transferOwnership",
      "outputs": [],
      "stateMutability": "nonpayable",
      "type": "function"
    },
    {
      "inputs": [],
      "name": "withdraw",
      "outputs": [],
      "stateMutability": "nonpayable",
      "type": "function"
    }
  ],
  "bytecode": "0x60e060405234801561001057600080fd5b5060405161511a38038061511a83398181016040528101906100329190610175565b61004e61004361006e60201b60201c565b61007660201b60201c565b82608081815250508160a081815250508060c081815250505050506101c8565b600033905090565b60008060009054906101000a900473ffffffffffffffffffffffffffffffffffffffff169050816000806101000a81548173ffffffffffffffffffffffffffffffffffffffff021916908373ffffffffffffffffffffffffffffffffffffffff1602179055508173ffffffffffffffffffffffffffffffffffffffff168173ffffffffffffffffffffffffffffffffffffffff167f8be0079c531659141344cd1fd0a4f28419497f9722a3daafe3b4186f6b6457e060405160405180910390a35050565b600080fd5b6000819050919050565b6101528161013f565b811461015d57600080fd5b50565b60008151905061016f81610149565b92915050565b60008060006060848603121561018e5761018d61013a565b5b600061019c86828701610160565b93505060206101ad86828701610160565b92505060406101be86828701610160565b9150509250925092565b60805160a05160c051614f1c6101fe60003960008181611fb0015261243801526000612961015260006131f80152614f1c6000f3fe608060405234801561001057600080fd5b50600436106101da5760003560e01c80637a3e0066116101045780639eaf666f116100a2578063c77c1ce611610071578063c77c1ce614610596578063c942adf7146105c6578063f2fde38b146105fe578063fa64d0f41461061a576101da565b80639eaf666f146104e8578063a680125814610518578063b432fdca14610548578063b43f070a14610578576101da565b80638da5cb5b116100de5780638da5cb5b146104745780638f93716f1461049257806397705d60146104ae5780639e02b7bc146104cc576101da565b80637a3e0066146103f85780637b334154146104145780638314e00814610444576101da565b8063582256f11161017c578063715018a61161014b578063715018a6146103845780637384fe5f1461038e57806374f7c429146103aa578063791b1ecc146103c8576101da565b8063582256f1146102cf5780635fa71c28146102ed57806361fd5c201461031d57806367e13ee014610354576101da565b80632d68402e116101b85780632d68402e1461025b5780633ccfd60b146102775780633e0c27f0146102815780634e7f9b191461029f576101da565b806318ad5c9a146101df5780631b63a43c146101fb5780632076267b1461022b575b600080fd5b6101f960048036038101906101f491906137c5565b61064a565b005b610215600480360381019061021091906137c5565b6109ff565b6040516102229190613814565b60405180910390f35b6102456004803603810190610240919061382f565b610b1d565b6040516102529190613814565b60405180910390f35b61027560048036038101906102709190613965565b610b69565b005b61027f610c88565b005b610289611155565b6040516102969190613814565b60405180910390f35b6102b960048036038101906102b49190613992565b61115b565b6040516102c69190613b43565b60405180910390f35b6102d7611350565b6040516102e49190613814565b60405180910390f35b610307600480360381019061030291906137c5565b6113fa565b6040516103149190613814565b60405180910390f35b6103376004803603810190610332919061382f565b611431565b60405161034b989796959493929190613bed565b60405180910390f35b61036e6004803603810190610369919061382f565b6115c7565b60405161037b9190613d61565b60405180910390f35b61038c6117eb565b005b6103a860048036038101906103a39190613e3d565b6117ff565b005b6103b2611e7c565b6040516103bf9190613814565b60405180910390f35b6103e260048036038101906103dd919061382f565b611e82565b6040516103ef9190613ea8565b60405180910390f35b610412600480360381019061040d9190613ec3565b611ed0565b005b61042e6004803603810190610429919061382f565b6122f4565b60405161043b9190613ea8565b60405180910390f35b61045e6004803603810190610459919061382f565b612314565b60405161046b9190613fea565b60405180910390f35b61047c6123ab565b604051610489919061400c565b60405180910390f35b6104ac60048036038101906104a7919061382f565b6123d4565b005b6104b6612436565b6040516104c39190613814565b60405180910390f35b6104e660048036038101906104e19190613ec3565b61245a565b005b61050260048036038101906104fd9190614027565b61288c565b60405161050f9190613ea8565b60405180910390f35b610532600480360381019061052d919061382f565b6128d8565b60405161053f9190613ea8565b60405180910390f35b610562600480360381019061055d91906137c5565b61292e565b60405161056f9190613814565b60405180910390f35b61058061295f565b60405161058d9190613814565b60405180910390f35b6105b060048036038101906105ab919061382f565b612983565b6040516105bd9190613ea8565b60405180910390f35b6105e060048036038101906105db9190613992565b612c6d565b6040516105f59998979695949392919061407a565b60405180910390f35b6106186004803603810190610613919061382f565b612df8565b005b610634600480360381019061062f9190613992565b612e7b565b604051610641919061400c565b60405180910390f35b600160003373ffffffffffffffffffffffffffffffffffffffff1673ffffffffffffffffffffffffffffffffffffffff16815260200190815260200160002060009054906101000a900460ff166106d6576040517f08c379a00000000000000000000000000000000000000000000000000000000081526004016106cd90614161565b60405180910390fd5b6000600260008473ffffffffffffffffffffffffffffffffffffffff1673ffffffffffffffffffffffffffffffffffffffff16815260200190815260200160002060405180610100016040529081600082015481526020016001820160009054906101000a900473ffffffffffffffffffffffffffffffffffffffff1673ffffffffffffffffffffffffffffffffffffffff1673ffffffffffffffffffffffffffffffffffffffff168152602001600282018054610793906141b0565b80601f01602080910402602001604051908101604052809291908181526020018280546107bf906141b0565b801561080c5780601f106107e15761010080835404028352916020019161080c565b820191906000526020600020905b8154815290600101906020018083116107ef57829003601f168201915b50505050508152602001600382018054610825906141b0565b80601f0160208091040260200160405190810160405280929190818152602001828054610851906141b0565b801561089e5780601f106108735761010080835404028352916020019161089e565b820191906000526020600020905b81548152906001019060200180831161088157829003601f168201915b5050505050815260200160048201604051806040016040529081600082015481526020016001820154815250508152602001600682015481526020016007820154815260200160088201548152505090506000821161090557806080015160000151610907565b815b600260008573ffffffffffffffffffffffffffffffffffffffff1673ffffffffffffffffffffffffffffffffffffffff168152602001908152602001600020600401600001600082825461095b9190614210565b92505081905550600860009054906101000a900473ffffffffffffffffffffffffffffffffffffffff1673ffffffffffffffffffffffffffffffffffffffff1663157ffc52846109a9612eae565b856040518463ffffffff1660e01b81526004016109c893929190614244565b600060405180830381600087803b1580156109e257600080fd5b505af11580156109f6573d6000803e3d6000fd5b50505050505050565b6000600160003373ffffffffffffffffffffffffffffffffffffffff1673ffffffffffffffffffffffffffffffffffffffff16815260200190815260200160002060009054906101000a900460ff16610a8d576040517f08c379a0000000000000000000000000000000000000000000000000000000008152600401610a8490614161565b60405180910390fd5b600560008473ffffffffffffffffffffffffffffffffffffffff1673ffffffffffffffffffffffffffffffffffffffff16815260200190815260200160002060405180602001604052808481525090806001815401808255809150506001900390600052602060002001600090919091909150600082015181600001555050610b1583610b1d565b905092915050565b6000600560008373ffffffffffffffffffffffffffffffffffffffff1673ffffffffffffffffffffffffffffffffffffffff168152602001908152602001600020805490509050919050565b610b71612f46565b8060000151600760006101000a81548173ffffffffffffffffffffffffffffffffffffffff021916908373ffffffffffffffffffffffffffffffffffffffff1602179055508060200151600860006101000a81548173ffffffffffffffffffffffffffffffffffffffff021916908373ffffffffffffffffffffffffffffffffffffffff1602179055508060400151600960006101000a81548173ffffffffffffffffffffffffffffffffffffffff021916908373ffffffffffffffffffffffffffffffffffffffff1602179055508060600151600a60006101000a81548173ffffffffffffffffffffffffffffffffffffffff021916908373ffffffffffffffffffffffffffffffffffffffff16021790555050565b600760009054906101000a900473ffffffffffffffffffffffffffffffffffffffff1673ffffffffffffffffffffffffffffffffffffffff16639497c6086004336040518363ffffffff1660e01b8152600401610ce69291906142f2565b602060405180830381865afa158015610d03573d6000803e3d6000fd5b505050506040513d601f19601f82011682018060405250810190610d279190614347565b610d66576040517f08c379a0000000000000000000000000000000000000000000000000000000008152600401610d5d906143c0565b60405180910390fd5b6000600260003373ffffffffffffffffffffffffffffffffffffffff1673ffffffffffffffffffffffffffffffffffffffff16815260200190815260200160002060405180610100016040529081600082015481526020016001820160009054906101000a900473ffffffffffffffffffffffffffffffffffffffff1673ffffffffffffffffffffffffffffffffffffffff1673ffffffffffffffffffffffffffffffffffffffff168152602001600282018054610e23906141b0565b80601f0160208091040260200160405190810160405280929190818152602001828054610e4f906141b0565b8015610e9c5780601f10610e7157610100808354040283529160200191610e9c565b820191906000526020600020905b815481529060010190602001808311610e7f57829003601f168201915b50505050508152602001600382018054610eb5906141b0565b80601f0160208091040260200160405190810160405280929190818152602001828054610ee1906141b0565b8015610f2e5780601f10610f0357610100808354040283529160200191610f2e565b820191906000526020600020905b815481529060010190602001808311610f1157829003601f168201915b50505050508152602001600482016040518060400160405290816000820154815260200160018201548152505081526020016006820154815260200160078201548152602001600882015481525050905060008160800151602001519050600860009054906101000a900473ffffffffffffffffffffffffffffffffffffffff1673ffffffffffffffffffffffffffffffffffffffff1663fbe85f06826040518263ffffffff1660e01b8152600401610fe79190613814565b602060405180830381865afa158015611004573d6000803e3d6000fd5b505050506040513d601f19601f820116820180604052508101906110289190614347565b611067576040517f08c379a000000000000000000000000000000000000000000000000000000000815260040161105e9061442c565b60405180910390fd5b600260003373ffffffffffffffffffffffffffffffffffffffff1673ffffffffffffffffffffffffffffffffffffffff16815260200190815260200160002060040160010160008154809291906110bd9061444c565b9190505550600860009054906101000a900473ffffffffffffffffffffffffffffffffffffffff1673ffffffffffffffffffffffffffffffffffffffff1663f3fef3a333836040518363ffffffff1660e01b815260040161111f929190614494565b600060405180830381600087803b15801561113957600080fd5b505af115801561114d573d6000803e3d6000fd5b505050505050565b600b5481565b61116361363e565b600360008381526020019081526020016000206040518061012001604052908160008201548152602001600182015481526020016002820160009054906101000a900473ffffffffffffffffffffffffffffffffffffffff1673ffffffffffffffffffffffffffffffffffffffff1673ffffffffffffffffffffffffffffffffffffffff1681526020016003820180546111fc906141b0565b80601f0160208091040260200160405190810160405280929190818152602001828054611228906141b0565b80156112755780601f1061124a57610100808354040283529160200191611275565b820191906000526020600020905b81548152906001019060200180831161125857829003601f168201915b5050505050815260200160048201805461128e906141b0565b80601f01602080910402602001604051908101604052809291908181526020018280546112ba906141b0565b80156113075780601f106112dc57610100808354040283529160200191611307565b820191906000526020600020905b8154815290600101906020018083116112ea57829003601f168201915b50505050508152602001600582015481526020016006820160009054906101000a900460ff16151515158152602001600782015481526020016008820154815250509050919050565b6000600860009054906101000a900473ffffffffffffffffffffffffffffffffffffffff1673ffffffffffffffffffffffffffffffffffffffff1663d5ee3eb5611398612eae565b6040518263ffffffff1660e01b81526004016113b49190613814565b602060405180830381865afa1580156113d1573d6000803e3d6000fd5b505050506040513d601f19601f820116820180604052508101906113f591906144f3565b905090565b6005602052816000526040600020818154811061141657600080fd5b90600052602060002001600091509150508060000154905081565b60026020528060005260406000206000915090508060000154908060010160009054906101000a900473ffffffffffffffffffffffffffffffffffffffff1690806002018054611480906141b0565b80601f01602080910402602001604051908101604052809291908181526020018280546114ac906141b0565b80156114f95780601f106114ce576101008083540402835291602001916114f9565b820191906000526020600020905b8154815290600101906020018083116114dc57829003601f168201915b50505050509080600301805461150e906141b0565b80601f016020809104026020016040519081016040528092919081815260200182805461153a906141b0565b80156115875780601f1061155c57610100808354040283529160200191611587565b820191906000526020600020905b81548152906001019060200180831161156a57829003601f168201915b5050505050908060040160405180604001604052908160008201548152602001600182015481525050908060060154908060070154908060080154905088565b6115cf6136a2565b600260008373ffffffffffffffffffffffffffffffffffffffff1673ffffffffffffffffffffffffffffffffffffffff16815260200190815260200160002060405180610100016040529081600082015481526020016001820160009054906101000a900473ffffffffffffffffffffffffffffffffffffffff1673ffffffffffffffffffffffffffffffffffffffff1673ffffffffffffffffffffffffffffffffffffffff16815260200160028201805461168a906141b0565b80601f01602080910402602001604051908101604052809291908181526020018280546116b6906141b0565b80156117035780601f106116d857610100808354040283529160200191611703565b820191906000526020600020905b8154815290600101906020018083116116e657829003601f168201915b5050505050815260200160038201805461171c906141b0565b80601f0160208091040260200160405190810160405280929190818152602001828054611748906141b0565b80156117955780601f1061176a57610100808354040283529160200191611795565b820191906000526020600020905b81548152906001019060200180831161177857829003601f168201915b505050505081526020016004820160405180604001604052908160008201548152602001600182015481525050815260200160068201548152602001600782015481526020016008820154815250509050919050565b6117f3612f46565b6117fd6000612fc4565b565b600a60009054906101000a900473ffffffffffffffffffffffffffffffffffffffff1673ffffffffffffffffffffffffffffffffffffffff1663adfaa72e336040518263ffffffff1660e01b815260040161185a919061400c565b602060405180830381865afa158015611877573d6000803e3d6000fd5b505050506040513d601f19601f8201168201806040525081019061189b9190614347565b6118da576040517f08c379a00000000000000000000000000000000000000000000000000000000081526004016118d19061456c565b60405180910390fd5b600960009054906101000a900473ffffffffffffffffffffffffffffffffffffffff1673ffffffffffffffffffffffffffffffffffffffff1663361119ac336040518263ffffffff1660e01b8152600401611935919061400c565b602060405180830381865afa158015611952573d6000803e3d6000fd5b505050506040513d601f19601f820116820180604052508101906119769190614347565b6119b5576040517f08c379a00000000000000000000000000000000000000000000000000000000081526004016119ac906145d8565b60405180910390fd5b61012c815111156119fb576040517f08c379a00000000000000000000000000000000000000000000000000000000081526004016119f290614644565b60405180910390fd5b6000600360008481526020019081526020016000206040518061012001604052908160008201548152602001600182015481526020016002820160009054906101000a900473ffffffffffffffffffffffffffffffffffffffff1673ffffffffffffffffffffffffffffffffffffffff1673ffffffffffffffffffffffffffffffffffffffff168152602001600382018054611a96906141b0565b80601f0160208091040260200160405190810160405280929190818152602001828054611ac2906141b0565b8015611b0f5780601f10611ae457610100808354040283529160200191611b0f565b820191906000526020600020905b815481529060010190602001808311611af257829003601f168201915b50505050508152602001600482018054611b28906141b0565b80601f0160208091040260200160405190810160405280929190818152602001828054611b54906141b0565b8015611ba15780601f10611b7657610100808354040283529160200191611ba1565b820191906000526020600020905b815481529060010190602001808311611b8457829003601f168201915b50505050508152602001600582015481526020016006820160009054906101000a900460ff161515151581526020016007820154815260200160088201548152505090508060c001518015611c0157508060200151611bfe612eae565b11155b611c40576040517f08c379a0000000000000000000000000000000000000000000000000000000008152600401611c37906146b0565b60405180910390fd5b60018160a001818151611c5391906146d0565b915081815250508060036000858152602001908152602001600020600082015181600001556020820151816001015560408201518160020160006101000a81548173ffffffffffffffffffffffffffffffffffffffff021916908373ffffffffffffffffffffffffffffffffffffffff1602179055506060820151816003019081611cde91906148b0565b506080820151816004019081611cf491906148b0565b5060a0820151816005015560c08201518160060160006101000a81548160ff02191690831515021790555060e0820151816007015561010082015181600801559050506000600960009054906101000a900473ffffffffffffffffffffffffffffffffffffffff1673ffffffffffffffffffffffffffffffffffffffff166369bf81c36040518163ffffffff1660e01b8152600401602060405180830381865afa158015611da6573d6000803e3d6000fd5b505050506040513d601f19601f82011682018060405250810190611dca9190614997565b8260a00151101590508015611de557611de282613088565b91505b600960009054906101000a900473ffffffffffffffffffffffffffffffffffffffff1673ffffffffffffffffffffffffffffffffffffffff1663184673338385336040518463ffffffff1660e01b8152600401611e44939291906149c4565b600060405180830381600087803b158015611e5e57600080fd5b505af1158015611e72573d6000803e3d6000fd5b5050505050505050565b600c5481565b600080600260008473ffffffffffffffffffffffffffffffffffffffff1673ffffffffffffffffffffffffffffffffffffffff16815260200190815260200160002060000154119050919050565b600760009054906101000a900473ffffffffffffffffffffffffffffffffffffffff1673ffffffffffffffffffffffffffffffffffffffff16639497c6086004336040518363ffffffff1660e01b8152600401611f2e9291906142f2565b602060405180830381865afa158015611f4b573d6000803e3d6000fd5b505050506040513d601f19601f82011682018060405250810190611f6f9190614347565b611fae576040517f08c379a0000000000000000000000000000000000000000000000000000000008152600401611fa590614a55565b60405180910390fd5b7f0000000000000000000000000000000000000000000000000000000000000000611fd7611350565b11612017576040517f08c379a000000000000000000000000000000000000000000000000000000000815260040161200e90614ae7565b60405180910390fd5b612020336131ac565b61205f576040517f08c379a000000000000000000000000000000000000000000000000000000000815260040161205690614b53565b60405180910390fd5b6101f482511115801561207457506064815111155b6120b3576040517f08c379a00000000000000000000000000000000000000000000000000000000081526004016120aa90614bbf565b60405180910390fd5b600b60008154809291906120c69061444c565b9190505550600c60008154809291906120de9061444c565b91905055506000600c549050600260003373ffffffffffffffffffffffffffffffffffffffff1673ffffffffffffffffffffffffffffffffffffffff168152602001908152602001600020600601600081548092919061213d9061444c565b919050555060405180610120016040528082815260200161215c612eae565b81526020013373ffffffffffffffffffffffffffffffffffffffff16815260200184815260200183815260200160008152602001600115158152602001600081526020014381525060036000838152602001908152602001600020600082015181600001556020820151816001015560408201518160020160006101000a81548173ffffffffffffffffffffffffffffffffffffffff021916908373ffffffffffffffffffffffffffffffffffffffff160217905550606082015181600301908161222791906148b0565b50608082015181600401908161223d91906148b0565b5060a0820151816005015560c08201518160060160006101000a81548160ff02191690831515021790555060e082015181600701556101008201518160080155905050600460003373ffffffffffffffffffffffffffffffffffffffff1673ffffffffffffffffffffffffffffffffffffffff1681526020019081526020016000208190806001815401808255809150506001900390600052602060002001600090919091909150556122ef3361323c565b505050565b60016020528060005260406000206000915054906101000a900460ff1681565b6060600460008373ffffffffffffffffffffffffffffffffffffffff1673ffffffffffffffffffffffffffffffffffffffff16815260200190815260200160002080548060200260200160405190810160405280929190818152602001828054801561239f57602002820191906000526020600020905b81548152602001906001019080831161238b575b50505050509050919050565b60008060009054906101000a900473ffffffffffffffffffffffffffffffffffffffff16905090565b6123dc612f46565b60018060008373ffffffffffffffffffffffffffffffffffffffff1673ffffffffffffffffffffffffffffffffffffffff16815260200190815260200160002060006101000a81548160ff02191690831515021790555050565b7f000000000000000000000000000000000000000000000000000000000000000081565b606482511115801561246e57506064815111155b6124ad576040517f08c379a00000000000000000000000000000000000000000000000000000000081526004016124a490614c2b565b60405180910390fd5b613e80600760009054906101000a900473ffffffffffffffffffffffffffffffffffffffff1673ffffffffffffffffffffffffffffffffffffffff16632f22dc7b60046040518263ffffffff1660e01b815260040161250c9190614c4b565b602060405180830381865afa158015612529573d6000803e3d6000fd5b505050506040513d601f19601f8201168201806040525081019061254d9190614997565b111561258e576040517f08c379a000000000000000000000000000000000000000000000000000000000815260040161258590614cb2565b60405180910390fd5b60006001600760009054906101000a900473ffffffffffffffffffffffffffffffffffffffff1673ffffffffffffffffffffffffffffffffffffffff16631eb2c12060046040518263ffffffff1660e01b81526004016125ee9190614c4b565b602060405180830381865afa15801561260b573d6000803e3d6000fd5b505050506040513d601f19601f8201168201806040525081019061262f9190614997565b61263991906146d0565b90506040518061010001604052808281526020013373ffffffffffffffffffffffffffffffffffffffff16815260200184815260200183815260200160405180604001604052806000815260200161268f612eae565b8152508152602001600081526020014381526020016000815250600260003373ffffffffffffffffffffffffffffffffffffffff1673ffffffffffffffffffffffffffffffffffffffff1681526020019081526020016000206000820151816000015560208201518160010160006101000a81548173ffffffffffffffffffffffffffffffffffffffff021916908373ffffffffffffffffffffffffffffffffffffffff160217905550604082015181600201908161274e91906148b0565b50606082015181600301908161276491906148b0565b506080820151816004016000820151816000015560208201518160010155505060a0820151816006015560c0820151816007015560e08201518160080155905050336006600083815260200190815260200160002060006101000a81548173ffffffffffffffffffffffffffffffffffffffff021916908373ffffffffffffffffffffffffffffffffffffffff160217905550600760009054906101000a900473ffffffffffffffffffffffffffffffffffffffff1673ffffffffffffffffffffffffffffffffffffffff16639c3eead93360046040518363ffffffff1660e01b8152600401612855929190614cd2565b600060405180830381600087803b15801561286f57600080fd5b505af1158015612883573d6000803e3d6000fd5b50505050505050565b60006005831161289f57600190506128d1565b60006128c760016128b9868861360a90919063ffffffff16565b61362090919063ffffffff16565b9050808310159150505b9392505050565b6000600160008373ffffffffffffffffffffffffffffffffffffffff1673ffffffffffffffffffffffffffffffffffffffff16815260200190815260200160002060009054906101000a900460ff169050919050565b6004602052816000526040600020818154811061294a57600080fd5b90600052602060002001600091509150505481565b7f000000000000000000000000000000000000000000000000000000000000000081565b600080600260008473ffffffffffffffffffffffffffffffffffffffff1673ffffffffffffffffffffffffffffffffffffffff16815260200190815260200160002060405180610100016040529081600082015481526020016001820160009054906101000a900473ffffffffffffffffffffffffffffffffffffffff1673ffffffffffffffffffffffffffffffffffffffff1673ffffffffffffffffffffffffffffffffffffffff168152602001600282018054612a41906141b0565b80601f0160208091040260200160405190810160405280929190818152602001828054612a6d906141b0565b8015612aba5780601f10612a8f57610100808354040283529160200191612aba565b820191906000526020600020905b815481529060010190602001808311612a9d57829003601f168201915b50505050508152602001600382018054612ad3906141b0565b80601f0160208091040260200160405190810160405280929190818152602001828054612aff906141b0565b8015612b4c5780601f10612b2157610100808354040283529160200191612b4c565b820191906000526020600020905b815481529060010190602001808311612b2f57829003601f168201915b5050505050815260200160048201604051806040016040529081600082015481526020016001820154815250508152602001600682015481526020016007820154815260200160088201548152505090506000816000015111612bb3576000915050612c68565b612c64600c54600760009054906101000a900473ffffffffffffffffffffffffffffffffffffffff1673ffffffffffffffffffffffffffffffffffffffff16631eb2c12060046040518263ffffffff1660e01b8152600401612c159190614c4b565b602060405180830381865afa158015612c32573d6000803e3d6000fd5b505050506040513d601f19601f82011682018060405250810190612c569190614997565b83608001516000015161288c565b9150505b919050565b60036020528060005260406000206000915090508060000154908060010154908060020160009054906101000a900473ffffffffffffffffffffffffffffffffffffffff1690806003018054612cc2906141b0565b80601f0160208091040260200160405190810160405280929190818152602001828054612cee906141b0565b8015612d3b5780601f10612d1057610100808354040283529160200191612d3b565b820191906000526020600020905b815481529060010190602001808311612d1e57829003601f168201915b505050505090806004018054612d50906141b0565b80601f0160208091040260200160405190810160405280929190818152602001828054612d7c906141b0565b8015612dc95780601f10612d9e57610100808354040283529160200191612dc9565b820191906000526020600020905b815481529060010190602001808311612dac57829003601f168201915b5050505050908060050154908060060160009054906101000a900460ff16908060070154908060080154905089565b612e00612f46565b600073ffffffffffffffffffffffffffffffffffffffff168173ffffffffffffffffffffffffffffffffffffffff1603612e6f576040517f08c379a0000000000000000000000000000000000000000000000000000000008152600401612e6690614d6d565b60405180910390fd5b612e7881612fc4565b50565b60066020528060005260406000206000915054906101000a900473ffffffffffffffffffffffffffffffffffffffff1681565b6000600860009054906101000a900473ffffffffffffffffffffffffffffffffffffffff1673ffffffffffffffffffffffffffffffffffffffff1663ed0df79e6040518163ffffffff1660e01b8152600401602060405180830381865afa158015612f1d573d6000803e3d6000fd5b505050506040513d601f19601f82011682018060405250810190612f419190614997565b905090565b612f4e613636565b73ffffffffffffffffffffffffffffffffffffffff16612f6c6123ab565b73ffffffffffffffffffffffffffffffffffffffff1614612fc2576040517f08c379a0000000000000000000000000000000000000000000000000000000008152600401612fb990614dd9565b60405180910390fd5b565b60008060009054906101000a900473ffffffffffffffffffffffffffffffffffffffff169050816000806101000a81548173ffffffffffffffffffffffffffffffffffffffff021916908373ffffffffffffffffffffffffffffffffffffffff1602179055508173ffffffffffffffffffffffffffffffffffffffff168173ffffffffffffffffffffffffffffffffffffffff167f8be0079c531659141344cd1fd0a4f28419497f9722a3daafe3b4186f6b6457e060405160405180910390a35050565b61309061363e565b600b60008154809291906130a390614df9565b919050555060008260c0019015159081151581525050438260e0018181525050816003600084600001518152602001908152602001600020600082015181600001556020820151816001015560408201518160020160006101000a81548173ffffffffffffffffffffffffffffffffffffffff021916908373ffffffffffffffffffffffffffffffffffffffff160217905550606082015181600301908161314b91906148b0565b50608082015181600401908161316191906148b0565b5060a0820151816005015560c08201518160060160006101000a81548160ff02191690831515021790555060e082015181600701556101008201518160080155905050819050919050565b600080600260008473ffffffffffffffffffffffffffffffffffffffff1673ffffffffffffffffffffffffffffffffffffffff16815260200190815260200160002060080154905060007f00000000000000000000000000000000000000000000000000000000000000008261322291906146d0565b431190508080613233575060008211155b92505050919050565b6000600260008373ffffffffffffffffffffffffffffffffffffffff1673ffffffffffffffffffffffffffffffffffffffff16815260200190815260200160002060405180610100016040529081600082015481526020016001820160009054906101000a900473ffffffffffffffffffffffffffffffffffffffff1673ffffffffffffffffffffffffffffffffffffffff1673ffffffffffffffffffffffffffffffffffffffff1681526020016002820180546132f9906141b0565b80601f0160208091040260200160405190810160405280929190818152602001828054613325906141b0565b80156133725780601f1061334757610100808354040283529160200191613372565b820191906000526020600020905b81548152906001019060200180831161335557829003601f168201915b5050505050815260200160038201805461338b906141b0565b80601f01602080910402602001604051908101604052809291908181526020018280546133b7906141b0565b80156134045780601f106133d957610100808354040283529160200191613404565b820191906000526020600020905b8154815290600101906020018083116133e757829003601f168201915b505050505081526020016004820160405180604001604052908160008201548152602001600182015481525050815260200160068201548152602001600782015481526020016008820154815250509050438160e0018181525050806080015160000180518091906134759061444c565b8152505080600260008473ffffffffffffffffffffffffffffffffffffffff1673ffffffffffffffffffffffffffffffffffffffff1681526020019081526020016000206000820151816000015560208201518160010160006101000a81548173ffffffffffffffffffffffffffffffffffffffff021916908373ffffffffffffffffffffffffffffffffffffffff160217905550604082015181600201908161351f91906148b0565b50606082015181600301908161353591906148b0565b506080820151816004016000820151816000015560208201518160010155505060a0820151816006015560c0820151816007015560e08201518160080155905050600860009054906101000a900473ffffffffffffffffffffffffffffffffffffffff1673ffffffffffffffffffffffffffffffffffffffff166352b8d3ed8360016040518363ffffffff1660e01b81526004016135d4929190614e5d565b600060405180830381600087803b1580156135ee57600080fd5b505af1158015613602573d6000803e3d6000fd5b505050505050565b600081836136189190614eb5565b905092915050565b6000818361362e91906146d0565b905092915050565b600033905090565b6040518061012001604052806000815260200160008152602001600073ffffffffffffffffffffffffffffffffffffffff16815260200160608152602001606081526020016000815260200160001515815260200160008152602001600081525090565b60405180610100016040528060008152602001600073ffffffffffffffffffffffffffffffffffffffff16815260200160608152602001606081526020016136e8613703565b81526020016000815260200160008152602001600081525090565b604051806040016040528060008152602001600081525090565b6000604051905090565b600080fd5b600080fd5b600073ffffffffffffffffffffffffffffffffffffffff82169050919050565b600061375c82613731565b9050919050565b61376c81613751565b811461377757600080fd5b50565b60008135905061378981613763565b92915050565b6000819050919050565b6137a28161378f565b81146137ad57600080fd5b50565b6000813590506137bf81613799565b92915050565b600080604083850312156137dc576137db613727565b5b60006137ea8582860161377a565b92505060206137fb858286016137b0565b9150509250929050565b61380e8161378f565b82525050565b60006020820190506138296000830184613805565b92915050565b60006020828403121561384557613844613727565b5b60006138538482850161377a565b91505092915050565b600080fd5b6000601f19601f8301169050919050565b7f4e487b7100000000000000000000000000000000000000000000000000000000600052604160045260246000fd5b6138aa82613861565b810181811067ffffffffffffffff821117156138c9576138c8613872565b5b80604052505050565b60006138dc61371d565b90506138e882826138a1565b919050565b6000608082840312156139035761390261385c565b5b61390d60806138d2565b9050600061391d8482850161377a565b60008301525060206139318482850161377a565b60208301525060406139458482850161377a565b60408301525060606139598482850161377a565b60608301525092915050565b60006080828403121561397b5761397a613727565b5b6000613989848285016138ed565b91505092915050565b6000602082840312156139a8576139a7613727565b5b60006139b6848285016137b0565b91505092915050565b6139c88161378f565b82525050565b6139d781613751565b82525050565b600081519050919050565b600082825260208201905092915050565b60005b83811015613a175780820151818401526020810190506139fc565b60008484015250505050565b6000613a2e826139dd565b613a3881856139e8565b9350613a488185602086016139f9565b613a5181613861565b840191505092915050565b60008115159050919050565b613a7181613a5c565b82525050565b600061012083016000830151613a9060008601826139bf565b506020830151613aa360208601826139bf565b506040830151613ab660408601826139ce565b5060608301518482036060860152613ace8282613a23565b91505060808301518482036080860152613ae88282613a23565b91505060a0830151613afd60a08601826139bf565b5060c0830151613b1060c0860182613a68565b5060e0830151613b2360e08601826139bf565b50610100830151613b386101008601826139bf565b508091505092915050565b60006020820190508181036000830152613b5d8184613a77565b905092915050565b613b6e81613751565b82525050565b600082825260208201905092915050565b6000613b90826139dd565b613b9a8185613b74565b9350613baa8185602086016139f9565b613bb381613861565b840191505092915050565b604082016000820151613bd460008501826139bf565b506020820151613be760208501826139bf565b50505050565b600061012082019050613c03600083018b613805565b613c10602083018a613b65565b8181036040830152613c228189613b85565b90508181036060830152613c368188613b85565b9050613c456080830187613bbe565b613c5260c0830186613805565b613c5f60e0830185613805565b613c6d610100830184613805565b9998505050505050505050565b604082016000820151613c9060008501826139bf565b506020820151613ca360208501826139bf565b50505050565b600061012083016000830151613cc260008601826139bf565b506020830151613cd560208601826139ce565b5060408301518482036040860152613ced8282613a23565b91505060608301518482036060860152613d078282613a23565b9150506080830151613d1c6080860182613c7a565b5060a0830151613d2f60c08601826139bf565b5060c0830151613d4260e08601826139bf565b5060e0830151613d566101008601826139bf565b508091505092915050565b60006020820190508181036000830152613d7b8184613ca9565b905092915050565b600080fd5b600080fd5b600067ffffffffffffffff821115613da857613da7613872565b5b613db182613861565b9050602081019050919050565b82818337600083830152505050565b6000613de0613ddb84613d8d565b6138d2565b905082815260208101848484011115613dfc57613dfb613d88565b5b613e07848285613dbe565b509392505050565b600082601f830112613e2457613e23613d83565b5b8135613e34848260208601613dcd565b91505092915050565b60008060408385031215613e5457613e53613727565b5b6000613e62858286016137b0565b925050602083013567ffffffffffffffff811115613e8357613e8261372c565b5b613e8f85828601613e0f565b9150509250929050565b613ea281613a5c565b82525050565b6000602082019050613ebd6000830184613e99565b92915050565b60008060408385031215613eda57613ed9613727565b5b600083013567ffffffffffffffff811115613ef857613ef761372c565b5b613f0485828601613e0f565b925050602083013567ffffffffffffffff811115613f2557613f2461372c565b5b613f3185828601613e0f565b9150509250929050565b600081519050919050565b600082825260208201905092915050565b6000819050602082019050919050565b6000613f7383836139bf565b60208301905092915050565b6000602082019050919050565b6000613f9782613f3b565b613fa18185613f46565b9350613fac83613f57565b8060005b83811015613fdd578151613fc48882613f67565b9750613fcf83613f7f565b925050600181019050613fb0565b5085935050505092915050565b600060208201905081810360008301526140048184613f8c565b905092915050565b60006020820190506140216000830184613b65565b92915050565b6000806000606084860312156140405761403f613727565b5b600061404e868287016137b0565b935050602061405f868287016137b0565b9250506040614070868287016137b0565b9150509250925092565b600061012082019050614090600083018c613805565b61409d602083018b613805565b6140aa604083018a613b65565b81810360608301526140bc8189613b85565b905081810360808301526140d08188613b85565b90506140df60a0830187613805565b6140ec60c0830186613e99565b6140f960e0830185613805565b614107610100830184613805565b9a9950505050505050505050565b7f4e6f7420616c6c6f7765642063616c6c65720000000000000000000000000000600082015250565b600061414b601283613b74565b915061415682614115565b602082019050919050565b6000602082019050818103600083015261417a8161413e565b9050919050565b7f4e487b7100000000000000000000000000000000000000000000000000000000600052602260045260246000fd5b600060028204905060018216806141c857607f821691505b6020821081036141db576141da614181565b5b50919050565b7f4e487b7100000000000000000000000000000000000000000000000000000000600052601160045260246000fd5b600061421b8261378f565b91506142268361378f565b925082820390508181111561423e5761423d6141e1565b5b92915050565b60006060820190506142596000830186613b65565b6142666020830185613805565b6142736040830184613805565b949350505050565b7f4e487b7100000000000000000000000000000000000000000000000000000000600052602160045260246000fd5b600981106142bb576142ba61427b565b5b50565b60008190506142cc826142aa565b919050565b60006142dc826142be565b9050919050565b6142ec816142d1565b82525050565b600060408201905061430760008301856142e3565b6143146020830184613b65565b9392505050565b61432481613a5c565b811461432f57600080fd5b50565b6000815190506143418161431b565b92915050565b60006020828403121561435d5761435c613727565b5b600061436b84828501614332565b91505092915050565b7f506f6f6c206f6e6c7920746f20646576656c6f70657200000000000000000000600082015250565b60006143aa601683613b74565b91506143b582614374565b602082019050919050565b600060208201905081810360008301526143d98161439d565b9050919050565b7f43616e277420617070726f766520776974686472617700000000000000000000600082015250565b6000614416601683613b74565b9150614421826143e0565b602082019050919050565b6000602082019050818103600083015261444581614409565b9050919050565b60006144578261378f565b91507fffffffffffffffffffffffffffffffffffffffffffffffffffffffffffffffff8203614489576144886141e1565b5b600182019050919050565b60006040820190506144a96000830185613b65565b6144b66020830184613805565b9392505050565b6000819050919050565b6144d0816144bd565b81146144db57600080fd5b50565b6000815190506144ed816144c7565b92915050565b60006020828403121561450957614508613727565b5b6000614517848285016144de565b91505092915050565b7f557365722063616e6e6f7420766f746500000000000000000000000000000000600082015250565b6000614556601083613b74565b915061456182614520565b602082019050919050565b6000602082019050818103600083015261458581614549565b9050919050565b7f576169742074696d654265747765656e566f7465730000000000000000000000600082015250565b60006145c2601583613b74565b91506145cd8261458c565b602082019050919050565b600060208201905081810360008301526145f1816145b5565b9050919050565b7f4d61782033303020636861726163746572732072656163686564000000000000600082015250565b600061462e601a83613b74565b9150614639826145f8565b602082019050919050565b6000602082019050818103600083015261465d81614621565b9050919050565b7f54686973207265706f7274206973206e6f742056414c49440000000000000000600082015250565b600061469a601883613b74565b91506146a582614664565b602082019050919050565b600060208201905081810360008301526146c98161468d565b9050919050565b60006146db8261378f565b91506146e68361378f565b92508282019050808211156146fe576146fd6141e1565b5b92915050565b60008190508160005260206000209050919050565b60006020601f8301049050919050565b600082821b905092915050565b6000600883026147667fffffffffffffffffffffffffffffffffffffffffffffffffffffffffffffffff82614729565b6147708683614729565b95508019841693508086168417925050509392505050565b6000819050919050565b60006147ad6147a86147a38461378f565b614788565b61378f565b9050919050565b6000819050919050565b6147c783614792565b6147db6147d3826147b4565b848454614736565b825550505050565b600090565b6147f06147e3565b6147fb8184846147be565b505050565b5b8181101561481f576148146000826147e8565b600181019050614801565b5050565b601f8211156148645761483581614704565b61483e84614719565b8101602085101561484d578190505b61486161485985614719565b830182614800565b50505b505050565b600082821c905092915050565b600061488760001984600802614869565b1980831691505092915050565b60006148a08383614876565b9150826002028217905092915050565b6148b9826139dd565b67ffffffffffffffff8111156148d2576148d1613872565b5b6148dc82546141b0565b6148e7828285614823565b600060209050601f83116001811461491a5760008415614908578287015190505b6149128582614894565b86555061497a565b601f19841661492886614704565b60005b828110156149505784890151825560018201915060208501945060208101905061492b565b8683101561496d5784890151614969601f891682614876565b8355505b6001600288020188555050505b505050505050565b60008151905061499181613799565b92915050565b6000602082840312156149ad576149ac613727565b5b60006149bb84828501614982565b91505092915050565b600060608201905081810360008301526149de8186613a77565b905081810360208301526149f28185613b85565b9050614a016040830184613b65565b949350505050565b7f4f6e6c7920446576656c6f706572000000000000000000000000000000000000600082015250565b6000614a3f600e83613b74565b9150614a4a82614a09565b602082019050919050565b60006020820190508181036000830152614a6e81614a32565b9050919050565b7f5761697420756e74696c206e6578742065726120746f20616464207265706f7260008201527f7400000000000000000000000000000000000000000000000000000000000000602082015250565b6000614ad1602183613b74565b9150614adc82614a75565b604082019050919050565b60006020820190508181036000830152614b0081614ac4565b9050919050565b7f43616e2774207075626c69736820796574000000000000000000000000000000600082015250565b6000614b3d601183613b74565b9150614b4882614b07565b602082019050919050565b60006020820190508181036000830152614b6c81614b30565b9050919050565b7f4d61782063686172616374657273207265616368656400000000000000000000600082015250565b6000614ba9601683613b74565b9150614bb482614b73565b602082019050919050565b60006020820190508181036000830152614bd881614b9c565b9050919050565b7f4d61782031303020636861726163746572730000000000000000000000000000600082015250565b6000614c15601283613b74565b9150614c2082614bdf565b602082019050919050565b60006020820190508181036000830152614c4481614c08565b9050919050565b6000602082019050614c6060008301846142e3565b92915050565b7f4d6178206c696d69742072656163686564000000000000000000000000000000600082015250565b6000614c9c601183613b74565b9150614ca782614c66565b602082019050919050565b60006020820190508181036000830152614ccb81614c8f565b9050919050565b6000604082019050614ce76000830185613b65565b614cf460208301846142e3565b9392505050565b7f4f776e61626c653a206e6577206f776e657220697320746865207a65726f206160008201527f6464726573730000000000000000000000000000000000000000000000000000602082015250565b6000614d57602683613b74565b9150614d6282614cfb565b604082019050919050565b60006020820190508181036000830152614d8681614d4a565b9050919050565b7f4f776e61626c653a2063616c6c6572206973206e6f7420746865206f776e6572600082015250565b6000614dc3602083613b74565b9150614dce82614d8d565b602082019050919050565b60006020820190508181036000830152614df281614db6565b9050919050565b6000614e048261378f565b915060008203614e1757614e166141e1565b5b600182039050919050565b6000819050919050565b6000614e47614e42614e3d84614e22565b614788565b61378f565b9050919050565b614e5781614e2c565b82525050565b6000604082019050614e726000830185613b65565b614e7f6020830184614e4e565b9392505050565b7f4e487b7100000000000000000000000000000000000000000000000000000000600052601260045260246000fd5b6000614ec08261378f565b9150614ecb8361378f565b925082614edb57614eda614e86565b5b82820490509291505056fea2646970667358221220c490370b96bd9a7207e805f1ae457ed320b171c860eb45ee1950f767dd19325064736f6c634300081b0033",
  "linkReferences": {},
  "deployedLinkReferences": {}
}