{
  "_format": "hh-sol-artifact-1",
  "contractName": "DeveloperRules",
  "sourceName": "contracts/DeveloperRules.sol",
  "abi": [
    {
      "inputs": [
        {
          "internalType": "uint32",
          "name": "timeBetweenWorks_",
          "type": "uint32"
        },
        {
          "internalType": "uint8",
          "name": "maxPenalties_",
          "type": "uint8"
        },
        {
          "internalType": "uint32",
          "name": "securityBlocksToValidation_",
          "type": "uint32"
        }
      ],
      "stateMutability": "nonpayable",
      "type": "constructor"
    },
    {
      "anonymous": false,
      "inputs": [
        {
          "indexed": true,
          "internalType": "address",
          "name": "developerAddress",
          "type": "address"
        },
        {
          "indexed": false,
          "internalType": "uint256",
          "name": "newLevel",
          "type": "uint256"
        },
        {
          "indexed": false,
          "internalType": "uint256",
          "name": "blockNumber",
          "type": "uint256"
        }
      ],
      "name": "DeveloperLevelIncreased",
      "type": "event"
    },
    {
      "anonymous": false,
      "inputs": [
        {
          "indexed": true,
          "internalType": "address",
          "name": "developerAddress",
          "type": "address"
        },
        {
          "indexed": false,
          "internalType": "uint256",
          "name": "levelsRemoved",
          "type": "uint256"
        },
        {
          "indexed": false,
          "internalType": "uint256",
          "name": "newLevel",
          "type": "uint256"
        },
        {
          "indexed": false,
          "internalType": "uint256",
          "name": "blockNumber",
          "type": "uint256"
        }
      ],
      "name": "DeveloperLevelRemoved",
      "type": "event"
    },
    {
      "anonymous": false,
      "inputs": [
        {
          "indexed": true,
          "internalType": "uint256",
          "name": "id",
          "type": "uint256"
        },
        {
          "indexed": true,
          "internalType": "address",
          "name": "developerAddress",
          "type": "address"
        },
        {
          "indexed": false,
          "internalType": "string",
          "name": "name",
          "type": "string"
        },
        {
          "indexed": false,
          "internalType": "uint256",
          "name": "blockNumber",
          "type": "uint256"
        }
      ],
      "name": "DeveloperRegistered",
      "type": "event"
    },
    {
      "anonymous": false,
      "inputs": [
        {
          "indexed": true,
          "internalType": "address",
          "name": "developerAddress",
          "type": "address"
        },
        {
          "indexed": true,
          "internalType": "uint256",
          "name": "era",
          "type": "uint256"
        },
        {
          "indexed": false,
          "internalType": "uint256",
          "name": "blockNumber",
          "type": "uint256"
        }
      ],
      "name": "DeveloperWithdrawalInitiated",
      "type": "event"
    },
    {
      "anonymous": false,
      "inputs": [
        {
          "indexed": true,
          "internalType": "address",
          "name": "previousOwner",
          "type": "address"
        },
        {
          "indexed": true,
          "internalType": "address",
          "name": "newOwner",
          "type": "address"
        }
      ],
      "name": "OwnershipTransferred",
      "type": "event"
    },
    {
      "anonymous": false,
      "inputs": [
        {
          "indexed": true,
          "internalType": "address",
          "name": "developerAddress",
          "type": "address"
        },
        {
          "indexed": true,
          "internalType": "uint256",
          "name": "associatedReportId",
          "type": "uint256"
        },
        {
          "indexed": false,
          "internalType": "uint256",
          "name": "blockNumber",
          "type": "uint256"
        }
      ],
      "name": "PenaltyAdded",
      "type": "event"
    },
    {
      "anonymous": false,
      "inputs": [
        {
          "indexed": true,
          "internalType": "uint256",
          "name": "id",
          "type": "uint256"
        },
        {
          "indexed": true,
          "internalType": "address",
          "name": "developerAddress",
          "type": "address"
        },
        {
          "indexed": false,
          "internalType": "string",
          "name": "description",
          "type": "string"
        },
        {
          "indexed": false,
          "internalType": "uint256",
          "name": "blockNumber",
          "type": "uint256"
        }
      ],
      "name": "ReportAdded",
      "type": "event"
    },
    {
      "anonymous": false,
      "inputs": [
        {
          "indexed": true,
          "internalType": "uint64",
          "name": "reportId",
          "type": "uint64"
        },
        {
          "indexed": true,
          "internalType": "address",
          "name": "developerAddress",
          "type": "address"
        },
        {
          "indexed": false,
          "internalType": "string",
          "name": "justification",
          "type": "string"
        },
        {
          "indexed": false,
          "internalType": "uint256",
          "name": "newPenaltyCount",
          "type": "uint256"
        },
        {
          "indexed": false,
          "internalType": "uint256",
          "name": "blockNumber",
          "type": "uint256"
        }
      ],
      "name": "ReportInvalidated",
      "type": "event"
    },
    {
      "inputs": [],
      "name": "INITIAL_USER_COUNT_THRESHOLD",
      "outputs": [
        {
          "internalType": "uint256",
          "name": "",
          "type": "uint256"
        }
      ],
      "stateMutability": "view",
      "type": "function"
    },
    {
      "inputs": [],
      "name": "MAX_USER_COUNT",
      "outputs": [
        {
          "internalType": "uint16",
          "name": "",
          "type": "uint16"
        }
      ],
      "stateMutability": "view",
      "type": "function"
    },
    {
      "inputs": [
        {
          "internalType": "string",
          "name": "name",
          "type": "string"
        },
        {
          "internalType": "string",
          "name": "proofPhoto",
          "type": "string"
        }
      ],
      "name": "addDeveloper",
      "outputs": [],
      "stateMutability": "nonpayable",
      "type": "function"
    },
    {
      "inputs": [
        {
          "internalType": "address",
          "name": "addr",
          "type": "address"
        },
        {
          "internalType": "uint64",
          "name": "reportId",
          "type": "uint64"
        }
      ],
      "name": "addPenalty",
      "outputs": [
        {
          "internalType": "uint256",
          "name": "",
          "type": "uint256"
        }
      ],
      "stateMutability": "nonpayable",
      "type": "function"
    },
    {
      "inputs": [
        {
          "internalType": "string",
          "name": "description",
          "type": "string"
        },
        {
          "internalType": "string",
          "name": "report",
          "type": "string"
        }
      ],
      "name": "addReport",
      "outputs": [],
      "stateMutability": "nonpayable",
      "type": "function"
    },
    {
      "inputs": [
        {
          "internalType": "uint64",
          "name": "id",
          "type": "uint64"
        },
        {
          "internalType": "string",
          "name": "justification",
          "type": "string"
        }
      ],
      "name": "addReportValidation",
      "outputs": [],
      "stateMutability": "nonpayable",
      "type": "function"
    },
    {
      "inputs": [
        {
          "internalType": "address",
          "name": "",
          "type": "address"
        }
      ],
      "name": "allowedCallers",
      "outputs": [
        {
          "internalType": "bool",
          "name": "",
          "type": "bool"
        }
      ],
      "stateMutability": "view",
      "type": "function"
    },
    {
      "inputs": [
        {
          "internalType": "uint256",
          "name": "totalLevels",
          "type": "uint256"
        },
        {
          "internalType": "uint256",
          "name": "totalUsers",
          "type": "uint256"
        },
        {
          "internalType": "uint256",
          "name": "userLevels",
          "type": "uint256"
        }
      ],
      "name": "canInvite",
      "outputs": [
        {
          "internalType": "bool",
          "name": "",
          "type": "bool"
        }
      ],
      "stateMutability": "pure",
      "type": "function"
    },
    {
      "inputs": [
        {
          "internalType": "address",
          "name": "addr",
          "type": "address"
        }
      ],
      "name": "canPublishReport",
      "outputs": [
        {
          "internalType": "bool",
          "name": "",
          "type": "bool"
        }
      ],
      "stateMutability": "view",
      "type": "function"
    },
    {
      "inputs": [
        {
          "internalType": "address",
          "name": "addr",
          "type": "address"
        }
      ],
      "name": "canSendInvite",
      "outputs": [
        {
          "internalType": "bool",
          "name": "",
          "type": "bool"
        }
      ],
      "stateMutability": "view",
      "type": "function"
    },
    {
      "inputs": [
        {
          "internalType": "uint256",
          "name": "",
          "type": "uint256"
        }
      ],
      "name": "developersAddress",
      "outputs": [
        {
          "internalType": "address",
          "name": "",
          "type": "address"
        }
      ],
      "stateMutability": "view",
      "type": "function"
    },
    {
      "inputs": [
        {
          "internalType": "address",
          "name": "addr",
          "type": "address"
        }
      ],
      "name": "getDeveloper",
      "outputs": [
        {
          "components": [
            {
              "internalType": "uint64",
              "name": "id",
              "type": "uint64"
            },
            {
              "internalType": "address",
              "name": "developerWallet",
              "type": "address"
            },
            {
              "internalType": "string",
              "name": "name",
              "type": "string"
            },
            {
              "internalType": "string",
              "name": "proofPhoto",
              "type": "string"
            },
            {
              "components": [
                {
                  "internalType": "uint256",
                  "name": "level",
                  "type": "uint256"
                },
                {
                  "internalType": "uint256",
                  "name": "currentEra",
                  "type": "uint256"
                }
              ],
              "internalType": "struct Pool",
              "name": "pool",
              "type": "tuple"
            },
            {
              "internalType": "uint256",
              "name": "totalReports",
              "type": "uint256"
            },
            {
              "internalType": "uint256",
              "name": "createdAt",
              "type": "uint256"
            },
            {
              "internalType": "uint256",
              "name": "lastPublishedAt",
              "type": "uint256"
            }
          ],
          "internalType": "struct Developer",
          "name": "developer",
          "type": "tuple"
        }
      ],
      "stateMutability": "view",
      "type": "function"
    },
    {
      "inputs": [
        {
          "internalType": "uint64",
          "name": "id",
          "type": "uint64"
        }
      ],
      "name": "getReport",
      "outputs": [
        {
          "components": [
            {
              "internalType": "uint64",
              "name": "id",
              "type": "uint64"
            },
            {
              "internalType": "uint256",
              "name": "era",
              "type": "uint256"
            },
            {
              "internalType": "address",
              "name": "developer",
              "type": "address"
            },
            {
              "internalType": "string",
              "name": "description",
              "type": "string"
            },
            {
              "internalType": "string",
              "name": "report",
              "type": "string"
            },
            {
              "internalType": "uint256",
              "name": "validationsCount",
              "type": "uint256"
            },
            {
              "internalType": "bool",
              "name": "valid",
              "type": "bool"
            },
            {
              "internalType": "uint256",
              "name": "invalidatedAt",
              "type": "uint256"
            },
            {
              "internalType": "uint256",
              "name": "createdAtBlockNumber",
              "type": "uint256"
            }
          ],
          "internalType": "struct Report",
          "name": "",
          "type": "tuple"
        }
      ],
      "stateMutability": "view",
      "type": "function"
    },
    {
      "inputs": [
        {
          "internalType": "address",
          "name": "addr",
          "type": "address"
        }
      ],
      "name": "getReportsIds",
      "outputs": [
        {
          "internalType": "uint256[]",
          "name": "",
          "type": "uint256[]"
        }
      ],
      "stateMutability": "view",
      "type": "function"
    },
    {
      "inputs": [
        {
          "internalType": "address",
          "name": "caller",
          "type": "address"
        }
      ],
      "name": "isAllowedCaller",
      "outputs": [
        {
          "internalType": "bool",
          "name": "",
          "type": "bool"
        }
      ],
      "stateMutability": "view",
      "type": "function"
    },
    {
      "inputs": [],
      "name": "maxPenalties",
      "outputs": [
        {
          "internalType": "uint8",
          "name": "",
          "type": "uint8"
        }
      ],
      "stateMutability": "view",
      "type": "function"
    },
    {
      "inputs": [
        {
          "internalType": "address",
          "name": "allowed",
          "type": "address"
        }
      ],
      "name": "newAllowedCaller",
      "outputs": [],
      "stateMutability": "nonpayable",
      "type": "function"
    },
    {
      "inputs": [],
      "name": "nextEraIn",
      "outputs": [
        {
          "internalType": "uint256",
          "name": "",
          "type": "uint256"
        }
      ],
      "stateMutability": "view",
      "type": "function"
    },
    {
      "inputs": [],
      "name": "owner",
      "outputs": [
        {
          "internalType": "address",
          "name": "",
          "type": "address"
        }
      ],
      "stateMutability": "view",
      "type": "function"
    },
    {
      "inputs": [
        {
          "internalType": "address",
          "name": "",
          "type": "address"
        },
        {
          "internalType": "uint256",
          "name": "",
          "type": "uint256"
        }
      ],
      "name": "penalties",
      "outputs": [
        {
          "internalType": "uint64",
          "name": "reportId",
          "type": "uint64"
        }
      ],
      "stateMutability": "view",
      "type": "function"
    },
    {
      "inputs": [],
      "name": "poolCurrentEra",
      "outputs": [
        {
          "internalType": "uint256",
          "name": "",
          "type": "uint256"
        }
      ],
      "stateMutability": "view",
      "type": "function"
    },
    {
      "inputs": [
        {
          "internalType": "address",
          "name": "addr",
          "type": "address"
        },
        {
          "internalType": "uint256",
          "name": "levelsToRemove",
          "type": "uint256"
        }
      ],
      "name": "removePoolLevels",
      "outputs": [],
      "stateMutability": "nonpayable",
      "type": "function"
    },
    {
      "inputs": [],
      "name": "renounceOwnership",
      "outputs": [],
      "stateMutability": "nonpayable",
      "type": "function"
    },
    {
      "inputs": [
        {
          "internalType": "uint256",
          "name": "",
          "type": "uint256"
        }
      ],
      "name": "reports",
      "outputs": [
        {
          "internalType": "uint64",
          "name": "id",
          "type": "uint64"
        },
        {
          "internalType": "uint256",
          "name": "era",
          "type": "uint256"
        },
        {
          "internalType": "address",
          "name": "developer",
          "type": "address"
        },
        {
          "internalType": "string",
          "name": "description",
          "type": "string"
        },
        {
          "internalType": "string",
          "name": "report",
          "type": "string"
        },
        {
          "internalType": "uint256",
          "name": "validationsCount",
          "type": "uint256"
        },
        {
          "internalType": "bool",
          "name": "valid",
          "type": "bool"
        },
        {
          "internalType": "uint256",
          "name": "invalidatedAt",
          "type": "uint256"
        },
        {
          "internalType": "uint256",
          "name": "createdAtBlockNumber",
          "type": "uint256"
        }
      ],
      "stateMutability": "view",
      "type": "function"
    },
    {
      "inputs": [],
      "name": "reportsCount",
      "outputs": [
        {
          "internalType": "uint64",
          "name": "",
          "type": "uint64"
        }
      ],
      "stateMutability": "view",
      "type": "function"
    },
    {
      "inputs": [
        {
          "internalType": "address",
          "name": "",
          "type": "address"
        },
        {
          "internalType": "uint256",
          "name": "",
          "type": "uint256"
        }
      ],
      "name": "reportsIds",
      "outputs": [
        {
          "internalType": "uint256",
          "name": "",
          "type": "uint256"
        }
      ],
      "stateMutability": "view",
      "type": "function"
    },
    {
      "inputs": [],
      "name": "reportsTotalCount",
      "outputs": [
        {
          "internalType": "uint64",
          "name": "",
          "type": "uint64"
        }
      ],
      "stateMutability": "view",
      "type": "function"
    },
    {
      "inputs": [],
      "name": "securityBlocksToValidation",
      "outputs": [
        {
          "internalType": "uint32",
          "name": "",
          "type": "uint32"
        }
      ],
      "stateMutability": "view",
      "type": "function"
    },
    {
      "inputs": [
        {
          "internalType": "address",
          "name": "_validationRulesAddress",
          "type": "address"
        }
      ],
      "name": "setContractCall",
      "outputs": [],
      "stateMutability": "nonpayable",
      "type": "function"
    },
    {
      "inputs": [
        {
          "components": [
            {
              "internalType": "address",
              "name": "communityRulesAddress",
              "type": "address"
            },
            {
              "internalType": "address",
              "name": "developerPoolAddress",
              "type": "address"
            },
            {
              "internalType": "address",
              "name": "validationRulesAddress",
              "type": "address"
            },
            {
              "internalType": "address",
              "name": "voteRulesAddress",
              "type": "address"
            }
          ],
          "internalType": "struct ContractsDependency",
          "name": "contractDependency",
          "type": "tuple"
        }
      ],
      "name": "setContractInterfaces",
      "outputs": [],
      "stateMutability": "nonpayable",
      "type": "function"
    },
    {
      "inputs": [],
      "name": "timeBetweenWorks",
      "outputs": [
        {
          "internalType": "uint32",
          "name": "",
          "type": "uint32"
        }
      ],
      "stateMutability": "view",
      "type": "function"
    },
    {
      "inputs": [
        {
          "internalType": "address",
          "name": "addr",
          "type": "address"
        }
      ],
      "name": "totalPenalties",
      "outputs": [
        {
          "internalType": "uint256",
          "name": "",
          "type": "uint256"
        }
      ],
      "stateMutability": "view",
      "type": "function"
    },
    {
      "inputs": [
        {
          "internalType": "address",
          "name": "newOwner",
          "type": "address"
        }
      ],
      "name": "transferOwnership",
      "outputs": [],
      "stateMutability": "nonpayable",
      "type": "function"
    },
    {
      "inputs": [],
      "name": "withdraw",
      "outputs": [],
      "stateMutability": "nonpayable",
      "type": "function"
    }
  ],
  "bytecode": "0x60e060405234801561001057600080fd5b5060405161333338038061333383398101604081905261002f916100c2565b61003833610059565b600160025563ffffffff92831660a05260ff9091166080521660c05261010d565b600080546001600160a01b038381166001600160a01b0319831681178455604051919092169283917f8be0079c531659141344cd1fd0a4f28419497f9722a3daafe3b4186f6b6457e09190a35050565b805163ffffffff811681146100bd57600080fd5b919050565b6000806000606084860312156100d757600080fd5b6100e0846100a9565b9250602084015160ff811681146100f657600080fd5b9150610104604085016100a9565b90509250925092565b60805160a05160c0516131e961014a6000396000818161027401526117950152600081816103610152611349015260006104df01526131e96000f3fe608060405234801561001057600080fd5b50600436106102065760003560e01c80637b3341541161011a578063b1e86655116100ad578063c77c1ce61161007c578063c77c1ce61461052e578063c942adf714610541578063e05cf15514610569578063f2fde38b14610571578063fa64d0f41461058457600080fd5b8063b1e86655146104c7578063b24eb769146104da578063b432fdca14610513578063be9dc5841461052657600080fd5b80638f93716f116100e95780638f93716f146104625780639e02b7bc146104755780639eaf666f14610488578063a68012581461049b57600080fd5b80637b334154146103e75780637c647a621461040a5780638314e0081461041d5780638da5cb5b1461043d57600080fd5b8063582256f11161019d5780636ec7053a1161016c5780636ec7053a14610383578063715018a61461039f57806374f7c429146103a7578063755d4f97146103c15780637a3e0066146103d457600080fd5b8063582256f1146103215780635fa71c281461032957806367e13ee01461033c5780636b6c7c2d1461035c57600080fd5b80633ccfd60b116101d95780633ccfd60b146102ab5780633e0c27f0146102b357806356c8dc46146102de57806357382d38146102fe57600080fd5b8063178c823a1461020b57806318ad5c9a146102205780632076267b1461023357806335c116771461026f575b600080fd5b61021e6102193660046129ae565b6105ad565b005b61021e61022e366004612a19565b610bb1565b61025c610241366004612a43565b6001600160a01b031660009081526007602052604090205490565b6040519081526020015b60405180910390f35b6102967f000000000000000000000000000000000000000000000000000000000000000081565b60405163ffffffff9091168152602001610266565b61021e610f0f565b6003546102c6906001600160401b031681565b6040516001600160401b039091168152602001610266565b6102f16102ec366004612a5e565b61116f565b6040516102669190612b6a565b61031161030c366004612a43565b611322565b6040519015158152602001610266565b61025c611385565b6102c6610337366004612a19565b611405565b61034f61034a366004612a43565b61143d565b6040516102669190612b7d565b6102967f000000000000000000000000000000000000000000000000000000000000000081565b61038c613e8081565b60405161ffff9091168152602001610266565b61021e611645565b6003546102c690600160401b90046001600160401b031681565b61021e6103cf366004612a43565b611657565b61021e6103e2366004612c30565b611681565b6103116103f5366004612a43565b60016020526000908152604090205460ff1681565b61021e610418366004612c81565b611ac9565b61043061042b366004612a43565b611b2e565b6040516102669190612cff565b6000546001600160a01b03165b6040516001600160a01b039091168152602001610266565b61021e610470366004612a43565b611b9a565b61021e610483366004612c30565b611bc9565b610311610496366004612d42565b611f41565b6103116104a9366004612a43565b6001600160a01b031660009081526001602052604090205460ff1690565b61025c6104d5366004612d6e565b611f78565b6105017f000000000000000000000000000000000000000000000000000000000000000081565b60405160ff9091168152602001610266565b61025c610521366004612a19565b6120d0565b61025c600581565b61031161053c366004612a43565b612101565b61055461054f366004612da5565b61236a565b60405161026699989796959493929190612dbe565b61025c6124dc565b61021e61057f366004612a43565b612526565b61044a610592366004612da5565b6008602052600090815260409020546001600160a01b031681565b6105b561259f565b805161012c10156105fe5760405162461bcd60e51b815260206004820152600e60248201526d4d6178206368617261637465727360901b60448201526064015b60405180910390fd5b600c546040516356fd539760e11b81523360048201526001600160a01b039091169063adfaa72e90602401602060405180830381865afa158015610646573d6000803e3d6000fd5b505050506040513d601f19601f8201168201806040525081019061066a9190612e32565b6106a45760405162461bcd60e51b815260206004820152600b60248201526a2737ba1030903b37ba32b960a91b60448201526064016105f5565b600b54604051630d84466b60e21b81523360048201526001600160a01b039091169063361119ac90602401602060405180830381865afa1580156106ec573d6000803e3d6000fd5b505050506040513d601f19601f820116820180604052508101906107109190612e32565b6107545760405162461bcd60e51b8152602060048201526015602482015274576169742074696d654265747765656e566f74657360581b60448201526064016105f5565b6001600160401b0380831660009081526005602090815260408083208151610120810183528154909516855260018101549285019290925260028201546001600160a01b0316908401526003810180549293926060840191906107b690612e54565b80601f01602080910402602001604051908101604052809291908181526020018280546107e290612e54565b801561082f5780601f106108045761010080835404028352916020019161082f565b820191906000526020600020905b81548152906001019060200180831161081257829003601f168201915b5050505050815260200160048201805461084890612e54565b80601f016020809104026020016040519081016040528092919081815260200182805461087490612e54565b80156108c15780601f10610896576101008083540402835291602001916108c1565b820191906000526020600020905b8154815290600101906020018083116108a457829003601f168201915b505050918352505060058201546020820152600682015460ff16151560408201526007820154606082015260089091015460809091015260c08101519091508015610916575080602001516109146124dc565b145b6109625760405162461bcd60e51b815260206004820152601860248201527f54686973207265706f7274206973206e6f742056414c4944000000000000000060448201526064016105f5565b60018160a0018181516109759190612ea4565b9052506001600160401b038381166000908152600560209081526040918290208451815467ffffffffffffffff1916941693909317835583015160018301558201516002820180546001600160a01b0319166001600160a01b03909216919091179055606082015182919060038201906109ef9082612f0c565b5060808201516004820190610a049082612f0c565b5060a0820151600582015560c082015160068201805460ff191691151591909117905560e0820151600782015561010090910151600890910155600b54604080516369bf81c360e01b815290516000926001600160a01b0316916369bf81c39160048083019260209291908290030181865afa158015610a88573d6000803e3d6000fd5b505050506040513d601f19601f82011682018060405250810190610aac9190612fca565b60a08301511080159150610b3b57610ac3826125f6565b915081604001516001600160a01b0316846001600160401b03167fc8f57d3e72d524f64db8af866e01789df98c0b15a9b17be0e5482a282da0d96285610b2286604001516001600160a01b031660009081526007602052604090205490565b43604051610b3293929190612fe3565b60405180910390a35b600b54604051630417a69d60e31b81526001600160a01b03909116906320bd34e890610b6f90859087903390600401613008565b600060405180830381600087803b158015610b8957600080fd5b505af1158015610b9d573d6000803e3d6000fd5b505050505050610bad6001600255565b5050565b3360009081526001602052604090205460ff16610c055760405162461bcd60e51b81526020600482015260126024820152712737ba1030b63637bbb2b21031b0b63632b960711b60448201526064016105f5565b600d546001600160a01b0316338114610c605760405162461bcd60e51b815260206004820152601e60248201527f43616c6c6572206d7573742062652073797374656d20636f6e7472616374000060448201526064016105f5565b6001600160a01b03808416600090815260046020908152604080832081516101008101835281546001600160401b0381168252600160401b90049095169285019290925260018201805493949391840191610cba90612e54565b80601f0160208091040260200160405190810160405280929190818152602001828054610ce690612e54565b8015610d335780601f10610d0857610100808354040283529160200191610d33565b820191906000526020600020905b815481529060010190602001808311610d1657829003601f168201915b50505050508152602001600282018054610d4c90612e54565b80601f0160208091040260200160405190810160405280929190818152602001828054610d7890612e54565b8015610dc55780601f10610d9a57610100808354040283529160200191610dc5565b820191906000526020600020905b815481529060010190602001808311610da857829003601f168201915b505050918352505060408051808201825260038401548152600484015460208281019190915283015260058301549082015260068201546060820152600790910154608090910152905082610e1f57608081015151610e21565b825b6001600160a01b03851660009081526004602052604081206003018054909190610e4c908490613046565b9091555050600a54604051630c56ae4d60e11b81526001600160a01b03868116600483015260248201869052909116906318ad5c9a90604401600060405180830381600087803b158015610e9f57600080fd5b505af1158015610eb3573d6000803e3d6000fd5b50505060808201515160408051868152602081019290925243908201526001600160a01b03861691507f2f77a8d1dc7c7ae55084a7c361d2e2d5a9460147845c3701d0149ad479f948cb9060600160405180910390a250505050565b610f1761259f565b600954604051631292f8c160e31b81526001600160a01b0390911690639497c60890610f49906004903390820161307b565b602060405180830381865afa158015610f66573d6000803e3d6000fd5b505050506040513d601f19601f82011682018060405250810190610f8a9190612e32565b610fcf5760405162461bcd60e51b81526020600482015260166024820152752837b7b61037b7363c903a37903232bb32b637b832b960511b60448201526064016105f5565b3360009081526004602081905260409182902080820154600a549351637df42f8360e11b8152928301819052909290916001600160a01b039091169063fbe85f0690602401602060405180830381865afa158015611031573d6000803e3d6000fd5b505050506040513d601f19601f820116820180604052508101906110559190612e32565b6110af5760405162461bcd60e51b815260206004820152602560248201527f4e6f7420656c696769626c6520746f20776974686472617720666f7220746869604482015264732065726160d81b60648201526084016105f5565b6004820180549060006110c1836130a1565b9091555050600a5460405163f3fef3a360e01b8152336004820152602481018390526001600160a01b039091169063f3fef3a390604401600060405180830381600087803b15801561111257600080fd5b505af1158015611126573d6000803e3d6000fd5b50506040514381528392503391507f11d89ae7aaa2574610bec036d7e590ae011e55c9029f09f608a225ffac2058619060200160405180910390a3505061116d6001600255565b565b611177612896565b6001600160401b038083166000908152600560209081526040918290208251610120810184528154909416845260018101549184019190915260028101546001600160a01b0316918301919091526003810180546060840191906111da90612e54565b80601f016020809104026020016040519081016040528092919081815260200182805461120690612e54565b80156112535780601f1061122857610100808354040283529160200191611253565b820191906000526020600020905b81548152906001019060200180831161123657829003601f168201915b5050505050815260200160048201805461126c90612e54565b80601f016020809104026020016040519081016040528092919081815260200182805461129890612e54565b80156112e55780601f106112ba576101008083540402835291602001916112e5565b820191906000526020600020905b8154815290600101906020018083116112c857829003601f168201915b505050918352505060058201546020820152600682015460ff16151560408201526007820154606082015260089091015460809091015292915050565b6001600160a01b0381166000908152600460205260408120600701548161136f63ffffffff7f00000000000000000000000000000000000000000000000000000000000000001683612ea4565b43119050808061137d575081155b949350505050565b600a546000906001600160a01b031663d5ee3eb56113a16124dc565b6040518263ffffffff1660e01b81526004016113bf91815260200190565b602060405180830381865afa1580156113dc573d6000803e3d6000fd5b505050506040513d601f19601f820116820180604052508101906114009190612fca565b905090565b6007602052816000526040600020818154811061142157600080fd5b6000918252602090912001546001600160401b03169150829050565b611493604080516101008101825260008082526020808301829052606083850181905280840152835180850190945281845283015290608082019081526020016000815260200160008152602001600081525090565b6001600160a01b0380831660009081526004602090815260409182902082516101008101845281546001600160401b0381168252600160401b90049094169184019190915260018101805491928401916114ec90612e54565b80601f016020809104026020016040519081016040528092919081815260200182805461151890612e54565b80156115655780601f1061153a57610100808354040283529160200191611565565b820191906000526020600020905b81548152906001019060200180831161154857829003601f168201915b5050505050815260200160028201805461157e90612e54565b80601f01602080910402602001604051908101604052809291908181526020018280546115aa90612e54565b80156115f75780601f106115cc576101008083540402835291602001916115f7565b820191906000526020600020905b8154815290600101906020018083116115da57829003601f168201915b50505091835250506040805180820182526003840154815260048401546020828101919091528301526005830154908201526006820154606082015260079091015460809091015292915050565b61164d612706565b61116d6000612760565b61165f612706565b600d80546001600160a01b0319166001600160a01b0392909216919091179055565b61168961259f565b815161012c1080159061169e57508051609610155b6116e35760405162461bcd60e51b815260206004820152601660248201527513585e0818da185c9858dd195c9cc81c995858da195960521b60448201526064016105f5565b600954604051631292f8c160e31b81526001600160a01b0390911690639497c60890611715906004903390820161307b565b602060405180830381865afa158015611732573d6000803e3d6000fd5b505050506040513d601f19601f820116820180604052508101906117569190612e32565b6117935760405162461bcd60e51b815260206004820152600e60248201526d27b7363c902232bb32b637b832b960911b60448201526064016105f5565b7f000000000000000000000000000000000000000000000000000000000000000063ffffffff166117c2611385565b116118195760405162461bcd60e51b815260206004820152602160248201527f5761697420756e74696c206e6578742065726120746f20616464207265706f726044820152601d60fa1b60648201526084016105f5565b61182233611322565b6118625760405162461bcd60e51b815260206004820152601160248201527010d85b89dd081c1d589b1a5cda081e595d607a1b60448201526064016105f5565b600380546001600160401b031690600061187b836130ba565b91906101000a8154816001600160401b0302191690836001600160401b03160217905550506003600881819054906101000a90046001600160401b0316809291906118c5906130ba565b82546101009290920a6001600160401b038181021990931691831602179091556003543360009081526004602052604081206005018054600160401b9093049093169350909190611915836130a1565b9190505550604051806101200160405280826001600160401b0316815260200161193d6124dc565b81523360208083019190915260408083018790526060808401879052600060808501819052600160a0860181905260c086018290524360e0909601959095526001600160401b03878116825260058552908390208651815467ffffffffffffffff1916921691909117815592850151938301939093558301516002820180546001600160a01b0319166001600160a01b039092169190911790559082015160038201906119ea9082612f0c565b50608082015160048201906119ff9082612f0c565b5060a0820151600582015560c08201516006808301805460ff19169215159290921790915560e083015160078301556101009092015160089091015533600081815260209283526040812080546001810182559082529290206001600160401b038416920191909155611a71906127b0565b336001600160a01b0316816001600160401b03167f90fa8fc57e68c1801adc5593b96145cb8b0dc559414919b07373a84ddfa281bb8543604051611ab69291906130e5565b60405180910390a350610bad6001600255565b611ad1612706565b8051600980546001600160a01b03199081166001600160a01b03938416179091556020830151600a805483169184169190911790556040830151600b80548316918416919091179055606090920151600c80549093169116179055565b6001600160a01b038116600090815260066020908152604091829020805483518184028101840190945280845260609392830182828015611b8e57602002820191906000526020600020905b815481526020019060010190808311611b7a575b50505050509050919050565b611ba2612706565b6001600160a01b03166000908152600160208190526040909120805460ff19169091179055565b8151603210801590611bdd57508051609610155b611c1a5760405162461bcd60e51b815260206004820152600e60248201526d4d6178206368617261637465727360901b60448201526064016105f5565b600954604051632f22dc7b60e01b8152613e80916001600160a01b031690632f22dc7b90611c4c906004908101613107565b602060405180830381865afa158015611c69573d6000803e3d6000fd5b505050506040513d601f19601f82011682018060405250810190611c8d9190612fca565b1115611ccc5760405162461bcd60e51b815260206004820152600e60248201526d13585e081d5cd95c881b1a5b5a5d60921b60448201526064016105f5565b60095460405162f5960960e51b81526000916001600160a01b031690631eb2c12090611cfc906004908101613107565b602060405180830381865afa158015611d19573d6000803e3d6000fd5b505050506040513d601f19601f82011682018060405250810190611d3d9190613115565b611d48906001613132565b9050604051806101000160405280826001600160401b03168152602001336001600160a01b03168152602001848152602001838152602001604051806040016040528060008152602001611d9a6124dc565b9052815260006020808301829052436040808501919091526060909301829052338252600481529082902083518154928501516001600160a01b0316600160401b026001600160e01b03199093166001600160401b0390911617919091178155908201516001820190611e0d9082612f0c565b5060608201516002820190611e229082612f0c565b5060808201518051600383015560209081015160048084019190915560a0840151600584015560c0840151600684015560e0909301516007909201919091556001600160401b0383166000908152600890915260409081902080546001600160a01b031916339081179091556009549151639c3eead960e01b81526001600160a01b039290921692639c3eead992611ebd9291908101613151565b600060405180830381600087803b158015611ed757600080fd5b505af1158015611eeb573d6000803e3d6000fd5b50505050336001600160a01b0316816001600160401b03167fffa85be86549e867f33ff3ad03f00922b2f7113b07f58ca22d923ed22fdebb6e8543604051611f349291906130e5565b60405180910390a3505050565b600060058311611f5357506001611f71565b6000611f5f848661316e565b611f6a906001612ea4565b8310159150505b9392505050565b3360009081526001602052604081205460ff16611fcc5760405162461bcd60e51b81526020600482015260126024820152712737ba1030b63637bbb2b21031b0b63632b960711b60448201526064016105f5565b600d546001600160a01b03163381146120275760405162461bcd60e51b815260206004820152601e60248201527f43616c6c6572206d7573742062652073797374656d20636f6e7472616374000060448201526064016105f5565b6001600160a01b0384166000818152600760209081526040808320815180840183526001600160401b03898116808352835460018101855593875295859020915191909201805467ffffffffffffffff191691909216179055514381529192917fa84878f2a63d2c2c7fb98e2ab5694bdff1c200cbd72d2ec2fb11aab72e2df951910160405180910390a35050506001600160a01b031660009081526007602052604090205490565b600660205281600052604060002081815481106120ec57600080fd5b90600052602060002001600091509150505481565b6001600160a01b03808216600090815260046020908152604080832081516101008101835281546001600160401b0381168252600160401b900490951692850192909252600182018054939485949093928401919061215f90612e54565b80601f016020809104026020016040519081016040528092919081815260200182805461218b90612e54565b80156121d85780601f106121ad576101008083540402835291602001916121d8565b820191906000526020600020905b8154815290600101906020018083116121bb57829003601f168201915b505050505081526020016002820180546121f190612e54565b80601f016020809104026020016040519081016040528092919081815260200182805461221d90612e54565b801561226a5780601f1061223f5761010080835404028352916020019161226a565b820191906000526020600020905b81548152906001019060200180831161224d57829003601f168201915b50505091835250506040805180820182526003840154815260048401546020828101919091528301526005830154908201526006820154606082015260079091015460809091015280519091506001600160401b03166122cd5750600092915050565b60035460095460405162f5960960e51b8152611f7192600160401b90046001600160401b0316916001600160a01b031690631eb2c12090612312906004908101613107565b602060405180830381865afa15801561232f573d6000803e3d6000fd5b505050506040513d601f19601f820116820180604052508101906123539190613115565b6001600160401b0316836080015160000151611f41565b60056020526000908152604090208054600182015460028301546003840180546001600160401b039094169492936001600160a01b0390921692916123ae90612e54565b80601f01602080910402602001604051908101604052809291908181526020018280546123da90612e54565b80156124275780601f106123fc57610100808354040283529160200191612427565b820191906000526020600020905b81548152906001019060200180831161240a57829003601f168201915b50505050509080600401805461243c90612e54565b80601f016020809104026020016040519081016040528092919081815260200182805461246890612e54565b80156124b55780601f1061248a576101008083540402835291602001916124b5565b820191906000526020600020905b81548152906001019060200180831161249857829003601f168201915b505050506005830154600684015460078501546008909501549394919360ff909116925089565b600a5460408051637686fbcf60e11b815290516000926001600160a01b03169163ed0df79e9160048083019260209291908290030181865afa1580156113dc573d6000803e3d6000fd5b61252e612706565b6001600160a01b0381166125935760405162461bcd60e51b815260206004820152602660248201527f4f776e61626c653a206e6577206f776e657220697320746865207a65726f206160448201526564647265737360d01b60648201526084016105f5565b61259c81612760565b50565b60028054036125f05760405162461bcd60e51b815260206004820152601f60248201527f5265656e7472616e637947756172643a207265656e7472616e742063616c6c0060448201526064016105f5565b60028055565b6125fe612896565b600380546001600160401b031690600061261783613190565b82546101009290920a6001600160401b03818102199093169183160217909155600060c085018190524360e0860152845182168152600560209081526040918290208651815467ffffffffffffffff1916941693909317835585015160018301558401516002820180546001600160a01b0319166001600160a01b03909216919091179055606084015184925060038201906126b39082612f0c565b50608082015160048201906126c89082612f0c565b5060a0820151600582015560c082015160068201805460ff191691151591909117905560e08201516007820155610100909101516008909101555090565b6000546001600160a01b0316331461116d5760405162461bcd60e51b815260206004820181905260248201527f4f776e61626c653a2063616c6c6572206973206e6f7420746865206f776e657260448201526064016105f5565b600080546001600160a01b038381166001600160a01b0319831681178455604051919092169283917f8be0079c531659141344cd1fd0a4f28419497f9722a3daafe3b4186f6b6457e09190a35050565b6001600160a01b038116600090815260046020526040812043600782015560038101805491926127df836130a1565b9091555050600a546040516352b8d3ed60e01b81526001600160a01b03848116600483015260016024830152909116906352b8d3ed90604401600060405180830381600087803b15801561283257600080fd5b505af1158015612846573d6000803e3d6000fd5b505050506003810154604080519182524360208301526001600160a01b038416917f409b9331803c697056d1e0d1cf2188ef4dfa6f8637e3ec609fb230f89d6fa987910160405180910390a25050565b60405180610120016040528060006001600160401b031681526020016000815260200160006001600160a01b0316815260200160608152602001606081526020016000815260200160001515815260200160008152602001600081525090565b6001600160401b038116811461259c57600080fd5b634e487b7160e01b600052604160045260246000fd5b600082601f83011261293257600080fd5b81356001600160401b0381111561294b5761294b61290b565b604051601f8201601f19908116603f011681016001600160401b03811182821017156129795761297961290b565b60405281815283820160200185101561299157600080fd5b816020850160208301376000918101602001919091529392505050565b600080604083850312156129c157600080fd5b82356129cc816128f6565b915060208301356001600160401b038111156129e757600080fd5b6129f385828601612921565b9150509250929050565b80356001600160a01b0381168114612a1457600080fd5b919050565b60008060408385031215612a2c57600080fd5b612a35836129fd565b946020939093013593505050565b600060208284031215612a5557600080fd5b611f71826129fd565b600060208284031215612a7057600080fd5b8135611f71816128f6565b6000815180845260005b81811015612aa157602081850181015186830182015201612a85565b506000602082860101526020601f19601f83011685010191505092915050565b80516001600160401b031682526020810151602083015260006040820151612af460408501826001600160a01b03169052565b5060608201516101206060850152612b10610120850182612a7b565b905060808301518482036080860152612b298282612a7b565b91505060a083015160a085015260c0830151612b4960c086018215159052565b5060e083015160e08501526101008301516101008501528091505092915050565b602081526000611f716020830184612ac1565b602081526001600160401b03825116602082015260006020830151612bad60408401826001600160a01b03169052565b5060408301516101206060840152612bc9610140840182612a7b565b90506060840151601f19848303016080850152612be68282612a7b565b9150506080840151612c0560a085018280518252602090810151910152565b5060a084015160e084015260c084015161010084015260e08401516101208401528091505092915050565b60008060408385031215612c4357600080fd5b82356001600160401b03811115612c5957600080fd5b612c6585828601612921565b92505060208301356001600160401b038111156129e757600080fd5b60006080828403128015612c9457600080fd5b50604051608081016001600160401b0381118282101715612cb757612cb761290b565b604052612cc3836129fd565b8152612cd1602084016129fd565b6020820152612ce2604084016129fd565b6040820152612cf3606084016129fd565b60608201529392505050565b602080825282518282018190526000918401906040840190835b81811015612d37578351835260209384019390920191600101612d19565b509095945050505050565b600080600060608486031215612d5757600080fd5b505081359360208301359350604090920135919050565b60008060408385031215612d8157600080fd5b612d8a836129fd565b91506020830135612d9a816128f6565b809150509250929050565b600060208284031215612db757600080fd5b5035919050565b6001600160401b038a16815288602082015260018060a01b038816604082015261012060608201526000612df6610120830189612a7b565b8281036080840152612e088189612a7b565b60a0840197909752505092151560c084015260e08301919091526101009091015295945050505050565b600060208284031215612e4457600080fd5b81518015158114611f7157600080fd5b600181811c90821680612e6857607f821691505b602082108103612e8857634e487b7160e01b600052602260045260246000fd5b50919050565b634e487b7160e01b600052601160045260246000fd5b80820180821115612eb757612eb7612e8e565b92915050565b601f821115612f0757806000526020600020601f840160051c81016020851015612ee45750805b601f840160051c820191505b81811015612f045760008155600101612ef0565b50505b505050565b81516001600160401b03811115612f2557612f2561290b565b612f3981612f338454612e54565b84612ebd565b6020601f821160018114612f6d5760008315612f555750848201515b600019600385901b1c1916600184901b178455612f04565b600084815260208120601f198516915b82811015612f9d5787850151825560209485019460019092019101612f7d565b5084821015612fbb5786840151600019600387901b60f8161c191681555b50505050600190811b01905550565b600060208284031215612fdc57600080fd5b5051919050565b606081526000612ff66060830186612a7b565b60208301949094525060400152919050565b60608152600061301b6060830186612ac1565b828103602084015261302d8186612a7b565b91505060018060a01b0383166040830152949350505050565b81810381811115612eb757612eb7612e8e565b6009811061307757634e487b7160e01b600052602160045260246000fd5b9052565b604081016130898285613059565b6001600160a01b039290921660209190910152919050565b6000600182016130b3576130b3612e8e565b5060010190565b60006001600160401b0382166001600160401b0381036130dc576130dc612e8e565b60010192915050565b6040815260006130f86040830185612a7b565b90508260208301529392505050565b60208101612eb78284613059565b60006020828403121561312757600080fd5b8151611f71816128f6565b6001600160401b038181168382160190811115612eb757612eb7612e8e565b6001600160a01b038316815260408101611f716020830184613059565b60008261318b57634e487b7160e01b600052601260045260246000fd5b500490565b60006001600160401b038216806131a9576131a9612e8e565b600019019291505056fea264697066735822122045e4f4b05580541744322576f1cdf6cfcad3dd93eae54438405108ca917bc7d164736f6c634300081b0033",
  "linkReferences": {},
  "deployedLinkReferences": {}
}