{
  "_format": "hh-sol-artifact-1",
  "contractName": "DeveloperRules",
  "sourceName": "contracts/DeveloperRules.sol",
  "abi": [
    {
      "inputs": [
        {
          "internalType": "uint32",
          "name": "timeBetweenWorks_",
          "type": "uint32"
        },
        {
          "internalType": "uint8",
          "name": "maxPenalties_",
          "type": "uint8"
        },
        {
          "internalType": "uint32",
          "name": "securityBlocksToValidation_",
          "type": "uint32"
        }
      ],
      "stateMutability": "nonpayable",
      "type": "constructor"
    },
    {
      "inputs": [
        {
          "internalType": "address",
          "name": "owner",
          "type": "address"
        }
      ],
      "name": "OwnableInvalidOwner",
      "type": "error"
    },
    {
      "inputs": [
        {
          "internalType": "address",
          "name": "account",
          "type": "address"
        }
      ],
      "name": "OwnableUnauthorizedAccount",
      "type": "error"
    },
    {
      "inputs": [],
      "name": "ReentrancyGuardReentrantCall",
      "type": "error"
    },
    {
      "anonymous": false,
      "inputs": [
        {
          "indexed": true,
          "internalType": "address",
          "name": "developerAddress",
          "type": "address"
        },
        {
          "indexed": false,
          "internalType": "uint256",
          "name": "newLevel",
          "type": "uint256"
        },
        {
          "indexed": false,
          "internalType": "uint256",
          "name": "blockNumber",
          "type": "uint256"
        }
      ],
      "name": "DeveloperLevelIncreased",
      "type": "event"
    },
    {
      "anonymous": false,
      "inputs": [
        {
          "indexed": true,
          "internalType": "address",
          "name": "developerAddress",
          "type": "address"
        },
        {
          "indexed": false,
          "internalType": "uint256",
          "name": "levelsRemoved",
          "type": "uint256"
        },
        {
          "indexed": false,
          "internalType": "uint256",
          "name": "newLevel",
          "type": "uint256"
        },
        {
          "indexed": false,
          "internalType": "uint256",
          "name": "blockNumber",
          "type": "uint256"
        }
      ],
      "name": "DeveloperLevelRemoved",
      "type": "event"
    },
    {
      "anonymous": false,
      "inputs": [
        {
          "indexed": true,
          "internalType": "uint256",
          "name": "id",
          "type": "uint256"
        },
        {
          "indexed": true,
          "internalType": "address",
          "name": "developerAddress",
          "type": "address"
        },
        {
          "indexed": false,
          "internalType": "string",
          "name": "name",
          "type": "string"
        },
        {
          "indexed": false,
          "internalType": "uint256",
          "name": "blockNumber",
          "type": "uint256"
        }
      ],
      "name": "DeveloperRegistered",
      "type": "event"
    },
    {
      "anonymous": false,
      "inputs": [
        {
          "indexed": true,
          "internalType": "address",
          "name": "developerAddress",
          "type": "address"
        },
        {
          "indexed": true,
          "internalType": "uint256",
          "name": "era",
          "type": "uint256"
        },
        {
          "indexed": false,
          "internalType": "uint256",
          "name": "blockNumber",
          "type": "uint256"
        }
      ],
      "name": "DeveloperWithdrawalInitiated",
      "type": "event"
    },
    {
      "anonymous": false,
      "inputs": [
        {
          "indexed": true,
          "internalType": "address",
          "name": "previousOwner",
          "type": "address"
        },
        {
          "indexed": true,
          "internalType": "address",
          "name": "newOwner",
          "type": "address"
        }
      ],
      "name": "OwnershipTransferred",
      "type": "event"
    },
    {
      "anonymous": false,
      "inputs": [
        {
          "indexed": true,
          "internalType": "address",
          "name": "developerAddress",
          "type": "address"
        },
        {
          "indexed": true,
          "internalType": "uint256",
          "name": "associatedReportId",
          "type": "uint256"
        },
        {
          "indexed": false,
          "internalType": "uint256",
          "name": "blockNumber",
          "type": "uint256"
        }
      ],
      "name": "PenaltyAdded",
      "type": "event"
    },
    {
      "anonymous": false,
      "inputs": [
        {
          "indexed": true,
          "internalType": "uint256",
          "name": "id",
          "type": "uint256"
        },
        {
          "indexed": true,
          "internalType": "address",
          "name": "developerAddress",
          "type": "address"
        },
        {
          "indexed": false,
          "internalType": "string",
          "name": "description",
          "type": "string"
        },
        {
          "indexed": false,
          "internalType": "uint256",
          "name": "blockNumber",
          "type": "uint256"
        }
      ],
      "name": "ReportAdded",
      "type": "event"
    },
    {
      "anonymous": false,
      "inputs": [
        {
          "indexed": true,
          "internalType": "uint64",
          "name": "reportId",
          "type": "uint64"
        },
        {
          "indexed": true,
          "internalType": "address",
          "name": "developerAddress",
          "type": "address"
        },
        {
          "indexed": false,
          "internalType": "string",
          "name": "justification",
          "type": "string"
        },
        {
          "indexed": false,
          "internalType": "uint256",
          "name": "newPenaltyCount",
          "type": "uint256"
        },
        {
          "indexed": false,
          "internalType": "uint256",
          "name": "blockNumber",
          "type": "uint256"
        }
      ],
      "name": "ReportInvalidated",
      "type": "event"
    },
    {
      "inputs": [],
      "name": "INITIAL_USER_COUNT_THRESHOLD",
      "outputs": [
        {
          "internalType": "uint256",
          "name": "",
          "type": "uint256"
        }
      ],
      "stateMutability": "view",
      "type": "function"
    },
    {
      "inputs": [],
      "name": "MAX_USER_COUNT",
      "outputs": [
        {
          "internalType": "uint16",
          "name": "",
          "type": "uint16"
        }
      ],
      "stateMutability": "view",
      "type": "function"
    },
    {
      "inputs": [
        {
          "internalType": "string",
          "name": "name",
          "type": "string"
        },
        {
          "internalType": "string",
          "name": "proofPhoto",
          "type": "string"
        }
      ],
      "name": "addDeveloper",
      "outputs": [],
      "stateMutability": "nonpayable",
      "type": "function"
    },
    {
      "inputs": [
        {
          "internalType": "address",
          "name": "addr",
          "type": "address"
        },
        {
          "internalType": "uint64",
          "name": "reportId",
          "type": "uint64"
        }
      ],
      "name": "addPenalty",
      "outputs": [
        {
          "internalType": "uint256",
          "name": "",
          "type": "uint256"
        }
      ],
      "stateMutability": "nonpayable",
      "type": "function"
    },
    {
      "inputs": [
        {
          "internalType": "string",
          "name": "description",
          "type": "string"
        },
        {
          "internalType": "string",
          "name": "report",
          "type": "string"
        }
      ],
      "name": "addReport",
      "outputs": [],
      "stateMutability": "nonpayable",
      "type": "function"
    },
    {
      "inputs": [
        {
          "internalType": "uint64",
          "name": "id",
          "type": "uint64"
        },
        {
          "internalType": "string",
          "name": "justification",
          "type": "string"
        }
      ],
      "name": "addReportValidation",
      "outputs": [],
      "stateMutability": "nonpayable",
      "type": "function"
    },
    {
      "inputs": [
        {
          "internalType": "address",
          "name": "",
          "type": "address"
        }
      ],
      "name": "allowedCallers",
      "outputs": [
        {
          "internalType": "bool",
          "name": "",
          "type": "bool"
        }
      ],
      "stateMutability": "view",
      "type": "function"
    },
    {
      "inputs": [
        {
          "internalType": "uint256",
          "name": "totalLevels",
          "type": "uint256"
        },
        {
          "internalType": "uint256",
          "name": "totalUsers",
          "type": "uint256"
        },
        {
          "internalType": "uint256",
          "name": "userLevels",
          "type": "uint256"
        }
      ],
      "name": "canInvite",
      "outputs": [
        {
          "internalType": "bool",
          "name": "",
          "type": "bool"
        }
      ],
      "stateMutability": "pure",
      "type": "function"
    },
    {
      "inputs": [
        {
          "internalType": "address",
          "name": "addr",
          "type": "address"
        }
      ],
      "name": "canPublishReport",
      "outputs": [
        {
          "internalType": "bool",
          "name": "",
          "type": "bool"
        }
      ],
      "stateMutability": "view",
      "type": "function"
    },
    {
      "inputs": [
        {
          "internalType": "address",
          "name": "addr",
          "type": "address"
        }
      ],
      "name": "canSendInvite",
      "outputs": [
        {
          "internalType": "bool",
          "name": "",
          "type": "bool"
        }
      ],
      "stateMutability": "view",
      "type": "function"
    },
    {
      "inputs": [
        {
          "internalType": "uint256",
          "name": "",
          "type": "uint256"
        }
      ],
      "name": "developersAddress",
      "outputs": [
        {
          "internalType": "address",
          "name": "",
          "type": "address"
        }
      ],
      "stateMutability": "view",
      "type": "function"
    },
    {
      "inputs": [
        {
          "internalType": "address",
          "name": "addr",
          "type": "address"
        }
      ],
      "name": "getDeveloper",
      "outputs": [
        {
          "components": [
            {
              "internalType": "uint64",
              "name": "id",
              "type": "uint64"
            },
            {
              "internalType": "address",
              "name": "developerWallet",
              "type": "address"
            },
            {
              "internalType": "string",
              "name": "name",
              "type": "string"
            },
            {
              "internalType": "string",
              "name": "proofPhoto",
              "type": "string"
            },
            {
              "components": [
                {
                  "internalType": "uint256",
                  "name": "level",
                  "type": "uint256"
                },
                {
                  "internalType": "uint256",
                  "name": "currentEra",
                  "type": "uint256"
                }
              ],
              "internalType": "struct Pool",
              "name": "pool",
              "type": "tuple"
            },
            {
              "internalType": "uint256",
              "name": "totalReports",
              "type": "uint256"
            },
            {
              "internalType": "uint256",
              "name": "createdAt",
              "type": "uint256"
            },
            {
              "internalType": "uint256",
              "name": "lastPublishedAt",
              "type": "uint256"
            }
          ],
          "internalType": "struct Developer",
          "name": "developer",
          "type": "tuple"
        }
      ],
      "stateMutability": "view",
      "type": "function"
    },
    {
      "inputs": [
        {
          "internalType": "uint64",
          "name": "id",
          "type": "uint64"
        }
      ],
      "name": "getReport",
      "outputs": [
        {
          "components": [
            {
              "internalType": "uint64",
              "name": "id",
              "type": "uint64"
            },
            {
              "internalType": "uint256",
              "name": "era",
              "type": "uint256"
            },
            {
              "internalType": "address",
              "name": "developer",
              "type": "address"
            },
            {
              "internalType": "string",
              "name": "description",
              "type": "string"
            },
            {
              "internalType": "string",
              "name": "report",
              "type": "string"
            },
            {
              "internalType": "uint256",
              "name": "validationsCount",
              "type": "uint256"
            },
            {
              "internalType": "bool",
              "name": "valid",
              "type": "bool"
            },
            {
              "internalType": "uint256",
              "name": "invalidatedAt",
              "type": "uint256"
            },
            {
              "internalType": "uint256",
              "name": "createdAtBlockNumber",
              "type": "uint256"
            }
          ],
          "internalType": "struct Report",
          "name": "",
          "type": "tuple"
        }
      ],
      "stateMutability": "view",
      "type": "function"
    },
    {
      "inputs": [
        {
          "internalType": "address",
          "name": "addr",
          "type": "address"
        }
      ],
      "name": "getReportsIds",
      "outputs": [
        {
          "internalType": "uint256[]",
          "name": "",
          "type": "uint256[]"
        }
      ],
      "stateMutability": "view",
      "type": "function"
    },
    {
      "inputs": [
        {
          "internalType": "address",
          "name": "caller",
          "type": "address"
        }
      ],
      "name": "isAllowedCaller",
      "outputs": [
        {
          "internalType": "bool",
          "name": "",
          "type": "bool"
        }
      ],
      "stateMutability": "view",
      "type": "function"
    },
    {
      "inputs": [],
      "name": "maxPenalties",
      "outputs": [
        {
          "internalType": "uint8",
          "name": "",
          "type": "uint8"
        }
      ],
      "stateMutability": "view",
      "type": "function"
    },
    {
      "inputs": [
        {
          "internalType": "address",
          "name": "allowed",
          "type": "address"
        }
      ],
      "name": "newAllowedCaller",
      "outputs": [],
      "stateMutability": "nonpayable",
      "type": "function"
    },
    {
      "inputs": [],
      "name": "nextEraIn",
      "outputs": [
        {
          "internalType": "uint256",
          "name": "",
          "type": "uint256"
        }
      ],
      "stateMutability": "view",
      "type": "function"
    },
    {
      "inputs": [],
      "name": "owner",
      "outputs": [
        {
          "internalType": "address",
          "name": "",
          "type": "address"
        }
      ],
      "stateMutability": "view",
      "type": "function"
    },
    {
      "inputs": [
        {
          "internalType": "address",
          "name": "",
          "type": "address"
        },
        {
          "internalType": "uint256",
          "name": "",
          "type": "uint256"
        }
      ],
      "name": "penalties",
      "outputs": [
        {
          "internalType": "uint64",
          "name": "reportId",
          "type": "uint64"
        }
      ],
      "stateMutability": "view",
      "type": "function"
    },
    {
      "inputs": [],
      "name": "poolCurrentEra",
      "outputs": [
        {
          "internalType": "uint256",
          "name": "",
          "type": "uint256"
        }
      ],
      "stateMutability": "view",
      "type": "function"
    },
    {
      "inputs": [
        {
          "internalType": "address",
          "name": "addr",
          "type": "address"
        },
        {
          "internalType": "bool",
          "name": "denied",
          "type": "bool"
        }
      ],
      "name": "removePoolLevels",
      "outputs": [],
      "stateMutability": "nonpayable",
      "type": "function"
    },
    {
      "inputs": [],
      "name": "renounceOwnership",
      "outputs": [],
      "stateMutability": "nonpayable",
      "type": "function"
    },
    {
      "inputs": [
        {
          "internalType": "uint256",
          "name": "",
          "type": "uint256"
        }
      ],
      "name": "reports",
      "outputs": [
        {
          "internalType": "uint64",
          "name": "id",
          "type": "uint64"
        },
        {
          "internalType": "uint256",
          "name": "era",
          "type": "uint256"
        },
        {
          "internalType": "address",
          "name": "developer",
          "type": "address"
        },
        {
          "internalType": "string",
          "name": "description",
          "type": "string"
        },
        {
          "internalType": "string",
          "name": "report",
          "type": "string"
        },
        {
          "internalType": "uint256",
          "name": "validationsCount",
          "type": "uint256"
        },
        {
          "internalType": "bool",
          "name": "valid",
          "type": "bool"
        },
        {
          "internalType": "uint256",
          "name": "invalidatedAt",
          "type": "uint256"
        },
        {
          "internalType": "uint256",
          "name": "createdAtBlockNumber",
          "type": "uint256"
        }
      ],
      "stateMutability": "view",
      "type": "function"
    },
    {
      "inputs": [],
      "name": "reportsCount",
      "outputs": [
        {
          "internalType": "uint64",
          "name": "",
          "type": "uint64"
        }
      ],
      "stateMutability": "view",
      "type": "function"
    },
    {
      "inputs": [
        {
          "internalType": "address",
          "name": "",
          "type": "address"
        },
        {
          "internalType": "uint256",
          "name": "",
          "type": "uint256"
        }
      ],
      "name": "reportsIds",
      "outputs": [
        {
          "internalType": "uint256",
          "name": "",
          "type": "uint256"
        }
      ],
      "stateMutability": "view",
      "type": "function"
    },
    {
      "inputs": [],
      "name": "reportsTotalCount",
      "outputs": [
        {
          "internalType": "uint64",
          "name": "",
          "type": "uint64"
        }
      ],
      "stateMutability": "view",
      "type": "function"
    },
    {
      "inputs": [],
      "name": "securityBlocksToValidation",
      "outputs": [
        {
          "internalType": "uint32",
          "name": "",
          "type": "uint32"
        }
      ],
      "stateMutability": "view",
      "type": "function"
    },
    {
      "inputs": [
        {
          "internalType": "address",
          "name": "_validationRulesAddress",
          "type": "address"
        }
      ],
      "name": "setContractCall",
      "outputs": [],
      "stateMutability": "nonpayable",
      "type": "function"
    },
    {
      "inputs": [
        {
          "components": [
            {
              "internalType": "address",
              "name": "communityRulesAddress",
              "type": "address"
            },
            {
              "internalType": "address",
              "name": "developerPoolAddress",
              "type": "address"
            },
            {
              "internalType": "address",
              "name": "validationRulesAddress",
              "type": "address"
            },
            {
              "internalType": "address",
              "name": "voteRulesAddress",
              "type": "address"
            }
          ],
          "internalType": "struct ContractsDependency",
          "name": "contractDependency",
          "type": "tuple"
        }
      ],
      "name": "setContractInterfaces",
      "outputs": [],
      "stateMutability": "nonpayable",
      "type": "function"
    },
    {
      "inputs": [],
      "name": "timeBetweenWorks",
      "outputs": [
        {
          "internalType": "uint32",
          "name": "",
          "type": "uint32"
        }
      ],
      "stateMutability": "view",
      "type": "function"
    },
    {
      "inputs": [
        {
          "internalType": "address",
          "name": "addr",
          "type": "address"
        }
      ],
      "name": "totalPenalties",
      "outputs": [
        {
          "internalType": "uint256",
          "name": "",
          "type": "uint256"
        }
      ],
      "stateMutability": "view",
      "type": "function"
    },
    {
      "inputs": [
        {
          "internalType": "address",
          "name": "newOwner",
          "type": "address"
        }
      ],
      "name": "transferOwnership",
      "outputs": [],
      "stateMutability": "nonpayable",
      "type": "function"
    },
    {
      "inputs": [],
      "name": "withdraw",
      "outputs": [],
      "stateMutability": "nonpayable",
      "type": "function"
    }
  ],
  "bytecode": "0x60e060405234801561001057600080fd5b5060405161340438038061340483398101604081905261002f916100e9565b338061005557604051631e4fbdf760e01b81526000600482015260240160405180910390fd5b61005e81610080565b50600160025563ffffffff92831660a05260ff9091166080521660c052610134565b600080546001600160a01b038381166001600160a01b0319831681178455604051919092169283917f8be0079c531659141344cd1fd0a4f28419497f9722a3daafe3b4186f6b6457e09190a35050565b805163ffffffff811681146100e457600080fd5b919050565b6000806000606084860312156100fe57600080fd5b610107846100d0565b9250602084015160ff8116811461011d57600080fd5b915061012b604085016100d0565b90509250925092565b60805160a05160c05161329361017160003960008181610274015261182f01526000818161036101526113e3015260006104df01526132936000f3fe608060405234801561001057600080fd5b50600436106102065760003560e01c80637b3341541161011a578063b1e86655116100ad578063c77c1ce61161007c578063c77c1ce61461052e578063c942adf714610541578063e05cf15514610569578063f2fde38b14610571578063fa64d0f41461058457600080fd5b8063b1e86655146104c7578063b24eb769146104da578063b432fdca14610513578063be9dc5841461052657600080fd5b80638f93716f116100e95780638f93716f146104625780639e02b7bc146104755780639eaf666f14610488578063a68012581461049b57600080fd5b80637b334154146103e75780637c647a621461040a5780638314e0081461041d5780638da5cb5b1461043d57600080fd5b8063582256f11161019d5780636ec7053a1161016c5780636ec7053a14610383578063715018a61461039f57806374f7c429146103a7578063755d4f97146103c15780637a3e0066146103d457600080fd5b8063582256f1146103215780635fa71c281461032957806367e13ee01461033c5780636b6c7c2d1461035c57600080fd5b80633ccfd60b116101d95780633ccfd60b146102ab5780633e0c27f0146102b357806356c8dc46146102de57806357382d38146102fe57600080fd5b8063178c823a1461020b5780632076267b14610220578063218f23ca1461025c57806335c116771461026f575b600080fd5b61021e610219366004612a2e565b6105ad565b005b61024961022e366004612a99565b6001600160a01b031660009081526007602052604090205490565b6040519081526020015b60405180910390f35b61021e61026a366004612ac2565b610c9b565b6102967f000000000000000000000000000000000000000000000000000000000000000081565b60405163ffffffff9091168152602001610253565b61021e610fa9565b6003546102c6906001600160401b031681565b6040516001600160401b039091168152602001610253565b6102f16102ec366004612af9565b611209565b6040516102539190612c05565b61031161030c366004612a99565b6113bc565b6040519015158152602001610253565b61024961141f565b6102c6610337366004612c18565b61149f565b61034f61034a366004612a99565b6114d7565b6040516102539190612c42565b6102967f000000000000000000000000000000000000000000000000000000000000000081565b61038c613e8081565b60405161ffff9091168152602001610253565b61021e6116df565b6003546102c690600160401b90046001600160401b031681565b61021e6103cf366004612a99565b6116f1565b61021e6103e2366004612cf5565b61171b565b6103116103f5366004612a99565b60016020526000908152604090205460ff1681565b61021e610418366004612d46565b611b64565b61043061042b366004612a99565b611bc9565b6040516102539190612dc4565b6000546001600160a01b03165b6040516001600160a01b039091168152602001610253565b61021e610470366004612a99565b611c35565b61021e610483366004612cf5565b611c64565b610311610496366004612e07565b611fdb565b6103116104a9366004612a99565b6001600160a01b031660009081526001602052604090205460ff1690565b6102496104d5366004612e33565b612013565b6105017f000000000000000000000000000000000000000000000000000000000000000081565b60405160ff9091168152602001610253565b610249610521366004612c18565b61216b565b610249600581565b61031161053c366004612a99565b61219c565b61055461054f366004612e5f565b612405565b60405161025399989796959493929190612e78565b610249612577565b61021e61057f366004612a99565b6125c1565b61044a610592366004612e5f565b6008602052600090815260409020546001600160a01b031681565b6105b56125ff565b805161012c10156105fe5760405162461bcd60e51b815260206004820152600e60248201526d4d6178206368617261637465727360901b60448201526064015b60405180910390fd5b600c546040516356fd539760e11b81523360048201526001600160a01b039091169063adfaa72e90602401602060405180830381865afa158015610646573d6000803e3d6000fd5b505050506040513d601f19601f8201168201806040525081019061066a9190612eec565b6106a45760405162461bcd60e51b815260206004820152600b60248201526a2737ba1030903b37ba32b960a91b60448201526064016105f5565b600b54604051630d84466b60e21b81523360048201526001600160a01b039091169063361119ac90602401602060405180830381865afa1580156106ec573d6000803e3d6000fd5b505050506040513d601f19601f820116820180604052508101906107109190612eec565b6107545760405162461bcd60e51b8152602060048201526015602482015274576169742074696d654265747765656e566f74657360581b60448201526064016105f5565b6001600160401b0382166000908152600e6020908152604080832033845290915290205460ff16156107b85760405162461bcd60e51b815260206004820152600d60248201526c105b1c9958591e481d9bdd1959609a1b60448201526064016105f5565b6001600160401b038083166000818152600e602090815260408083203384528252808320805460ff191660019081179091559383526005825280832081516101208101835281549096168652938401549185019190915260028301546001600160a01b0316908401526003820180549193929160608401919061083a90612f09565b80601f016020809104026020016040519081016040528092919081815260200182805461086690612f09565b80156108b35780601f10610888576101008083540402835291602001916108b3565b820191906000526020600020905b81548152906001019060200180831161089657829003601f168201915b505050505081526020016004820180546108cc90612f09565b80601f01602080910402602001604051908101604052809291908181526020018280546108f890612f09565b80156109455780601f1061091a57610100808354040283529160200191610945565b820191906000526020600020905b81548152906001019060200180831161092857829003601f168201915b505050918352505060058201546020820152600682015460ff16151560408201526007820154606082015260089091015460809091015260c0810151909150801561099a57508060200151610998612577565b145b6109e65760405162461bcd60e51b815260206004820152601860248201527f54686973207265706f7274206973206e6f742056414c4944000000000000000060448201526064016105f5565b60018160a0018181516109f99190612f59565b9052506001600160401b038381166000908152600560209081526040918290208451815467ffffffffffffffff1916941693909317835583015160018301558201516002820180546001600160a01b0319166001600160a01b0390921691909117905560608201518291906003820190610a739082612fc1565b5060808201516004820190610a889082612fc1565b5060a0820151600582015560c082015160068201805460ff191691151591909117905560e0820151600782015561010090910151600890910155600b54604080516369bf81c360e01b815290516000926001600160a01b0316916369bf81c39160048083019260209291908290030181865afa158015610b0c573d6000803e3d6000fd5b505050506040513d601f19601f82011682018060405250810190610b30919061307f565b905060018111610b955760405162461bcd60e51b815260206004820152602a60248201527f56616c69646174696f6e207468726573686f6c642063616e6e6f74206265206c60448201526932b9b9903a3430b7101960b11b60648201526084016105f5565b60a08201518111801590610c2457610bac83612627565b925082604001516001600160a01b0316856001600160401b03167fc8f57d3e72d524f64db8af866e01789df98c0b15a9b17be0e5482a282da0d96286610c0b87604001516001600160a01b031660009081526007602052604090205490565b43604051610c1b93929190613098565b60405180910390a35b600b54604051630417a69d60e31b81526001600160a01b03909116906320bd34e890610c58908690889033906004016130bd565b600060405180830381600087803b158015610c7257600080fd5b505af1158015610c86573d6000803e3d6000fd5b50505050505050610c976001600255565b5050565b3360009081526001602052604090205460ff16610cef5760405162461bcd60e51b81526020600482015260126024820152712737ba1030b63637bbb2b21031b0b63632b960711b60448201526064016105f5565b600d546001600160a01b0316338114610d4a5760405162461bcd60e51b815260206004820152601e60248201527f43616c6c6572206d7573742062652073797374656d20636f6e7472616374000060448201526064016105f5565b6001600160a01b03808416600090815260046020908152604080832081516101008101835281546001600160401b0381168252600160401b90049095169285019290925260018201805493949391840191610da490612f09565b80601f0160208091040260200160405190810160405280929190818152602001828054610dd090612f09565b8015610e1d5780601f10610df257610100808354040283529160200191610e1d565b820191906000526020600020905b815481529060010190602001808311610e0057829003601f168201915b50505050508152602001600282018054610e3690612f09565b80601f0160208091040260200160405190810160405280929190818152602001828054610e6290612f09565b8015610eaf5780601f10610e8457610100808354040283529160200191610eaf565b820191906000526020600020905b815481529060010190602001808311610e9257829003601f168201915b505050918352505060408051808201825260038401548152600484015460208281019190915283015260058301549082015260068201546060820152600790910154608090910152905082610f05576001610f0c565b6080810151515b6001600160a01b03851660009081526004602052604081206003018054909190610f379084906130fb565b9091555050600a546040516310c791e560e11b81526001600160a01b03868116600483015285151560248301529091169063218f23ca90604401600060405180830381600087803b158015610f8b57600080fd5b505af1158015610f9f573d6000803e3d6000fd5b5050505050505050565b610fb16125ff565b600954604051631292f8c160e31b81526001600160a01b0390911690639497c60890610fe39060049033908201613130565b602060405180830381865afa158015611000573d6000803e3d6000fd5b505050506040513d601f19601f820116820180604052508101906110249190612eec565b6110695760405162461bcd60e51b81526020600482015260166024820152752837b7b61037b7363c903a37903232bb32b637b832b960511b60448201526064016105f5565b3360009081526004602081905260409182902080820154600a549351637df42f8360e11b8152928301819052909290916001600160a01b039091169063fbe85f0690602401602060405180830381865afa1580156110cb573d6000803e3d6000fd5b505050506040513d601f19601f820116820180604052508101906110ef9190612eec565b6111495760405162461bcd60e51b815260206004820152602560248201527f4e6f7420656c696769626c6520746f20776974686472617720666f7220746869604482015264732065726160d81b60648201526084016105f5565b60048201805490600061115b83613156565b9091555050600a5460405163f3fef3a360e01b8152336004820152602481018390526001600160a01b039091169063f3fef3a390604401600060405180830381600087803b1580156111ac57600080fd5b505af11580156111c0573d6000803e3d6000fd5b50506040514381528392503391507f11d89ae7aaa2574610bec036d7e590ae011e55c9029f09f608a225ffac2058619060200160405180910390a350506112076001600255565b565b611211612916565b6001600160401b038083166000908152600560209081526040918290208251610120810184528154909416845260018101549184019190915260028101546001600160a01b03169183019190915260038101805460608401919061127490612f09565b80601f01602080910402602001604051908101604052809291908181526020018280546112a090612f09565b80156112ed5780601f106112c2576101008083540402835291602001916112ed565b820191906000526020600020905b8154815290600101906020018083116112d057829003601f168201915b5050505050815260200160048201805461130690612f09565b80601f016020809104026020016040519081016040528092919081815260200182805461133290612f09565b801561137f5780601f106113545761010080835404028352916020019161137f565b820191906000526020600020905b81548152906001019060200180831161136257829003601f168201915b505050918352505060058201546020820152600682015460ff16151560408201526007820154606082015260089091015460809091015292915050565b6001600160a01b0381166000908152600460205260408120600701548161140963ffffffff7f00000000000000000000000000000000000000000000000000000000000000001683612f59565b431190508080611417575081155b949350505050565b600a546000906001600160a01b031663d5ee3eb561143b612577565b6040518263ffffffff1660e01b815260040161145991815260200190565b602060405180830381865afa158015611476573d6000803e3d6000fd5b505050506040513d601f19601f8201168201806040525081019061149a919061307f565b905090565b600760205281600052604060002081815481106114bb57600080fd5b6000918252602090912001546001600160401b03169150829050565b61152d604080516101008101825260008082526020808301829052606083850181905280840152835180850190945281845283015290608082019081526020016000815260200160008152602001600081525090565b6001600160a01b0380831660009081526004602090815260409182902082516101008101845281546001600160401b0381168252600160401b900490941691840191909152600181018054919284019161158690612f09565b80601f01602080910402602001604051908101604052809291908181526020018280546115b290612f09565b80156115ff5780601f106115d4576101008083540402835291602001916115ff565b820191906000526020600020905b8154815290600101906020018083116115e257829003601f168201915b5050505050815260200160028201805461161890612f09565b80601f016020809104026020016040519081016040528092919081815260200182805461164490612f09565b80156116915780601f1061166657610100808354040283529160200191611691565b820191906000526020600020905b81548152906001019060200180831161167457829003601f168201915b50505091835250506040805180820182526003840154815260048401546020828101919091528301526005830154908201526006820154606082015260079091015460809091015292915050565b6116e76127a3565b61120760006127d0565b6116f96127a3565b600d80546001600160a01b0319166001600160a01b0392909216919091179055565b6117236125ff565b815161012c1080159061173857508051609610155b61177d5760405162461bcd60e51b815260206004820152601660248201527513585e0818da185c9858dd195c9cc81c995858da195960521b60448201526064016105f5565b600954604051631292f8c160e31b81526001600160a01b0390911690639497c608906117af9060049033908201613130565b602060405180830381865afa1580156117cc573d6000803e3d6000fd5b505050506040513d601f19601f820116820180604052508101906117f09190612eec565b61182d5760405162461bcd60e51b815260206004820152600e60248201526d27b7363c902232bb32b637b832b960911b60448201526064016105f5565b7f000000000000000000000000000000000000000000000000000000000000000063ffffffff1661185c61141f565b116118b35760405162461bcd60e51b815260206004820152602160248201527f5761697420756e74696c206e6578742065726120746f20616464207265706f726044820152601d60fa1b60648201526084016105f5565b6118bc336113bc565b6118fc5760405162461bcd60e51b815260206004820152601160248201527010d85b89dd081c1d589b1a5cda081e595d607a1b60448201526064016105f5565b600380546001600160401b03169060006119158361316f565b91906101000a8154816001600160401b0302191690836001600160401b03160217905550506003600881819054906101000a90046001600160401b03168092919061195f9061316f565b82546101009290920a6001600160401b038181021990931691831602179091556003543360009081526004602052604081206005018054600160401b90930490931693509091906119af83613156565b9190505550604051806101200160405280826001600160401b031681526020016119d7612577565b81523360208083019190915260408083018790526060808401879052600060808501819052600160a0860181905260c086018290524360e0909601959095526001600160401b03878116825260058552908390208651815467ffffffffffffffff1916921691909117815592850151938301939093558301516002820180546001600160a01b0319166001600160a01b03909216919091179055908201516003820190611a849082612fc1565b5060808201516004820190611a999082612fc1565b5060a0820151600582015560c08201516006808301805460ff19169215159290921790915560e083015160078301556101009092015160089091015533600081815260209283526040812080546001810182559082529290206001600160401b038416920191909155611b0c9082612820565b336001600160a01b0316816001600160401b03167f90fa8fc57e68c1801adc5593b96145cb8b0dc559414919b07373a84ddfa281bb8543604051611b5192919061319a565b60405180910390a350610c976001600255565b611b6c6127a3565b8051600980546001600160a01b03199081166001600160a01b03938416179091556020830151600a805483169184169190911790556040830151600b80548316918416919091179055606090920151600c80549093169116179055565b6001600160a01b038116600090815260066020908152604091829020805483518184028101840190945280845260609392830182828015611c2957602002820191906000526020600020905b815481526020019060010190808311611c15575b50505050509050919050565b611c3d6127a3565b6001600160a01b03166000908152600160208190526040909120805460ff19169091179055565b8151603210801590611c7857508051609610155b611cb55760405162461bcd60e51b815260206004820152600e60248201526d4d6178206368617261637465727360901b60448201526064016105f5565b600954604051632f22dc7b60e01b8152613e80916001600160a01b031690632f22dc7b90611ce79060049081016131bc565b602060405180830381865afa158015611d04573d6000803e3d6000fd5b505050506040513d601f19601f82011682018060405250810190611d28919061307f565b10611d665760405162461bcd60e51b815260206004820152600e60248201526d13585e081d5cd95c881b1a5b5a5d60921b60448201526064016105f5565b60095460405162f5960960e51b81526000916001600160a01b031690631eb2c12090611d969060049081016131bc565b602060405180830381865afa158015611db3573d6000803e3d6000fd5b505050506040513d601f19601f82011682018060405250810190611dd791906131ca565b611de29060016131e7565b9050604051806101000160405280826001600160401b03168152602001336001600160a01b03168152602001848152602001838152602001604051806040016040528060008152602001611e34612577565b9052815260006020808301829052436040808501919091526060909301829052338252600481529082902083518154928501516001600160a01b0316600160401b026001600160e01b03199093166001600160401b0390911617919091178155908201516001820190611ea79082612fc1565b5060608201516002820190611ebc9082612fc1565b5060808201518051600383015560209081015160048084019190915560a0840151600584015560c0840151600684015560e0909301516007909201919091556001600160401b0383166000908152600890915260409081902080546001600160a01b031916339081179091556009549151639c3eead960e01b81526001600160a01b039290921692639c3eead992611f579291908101613206565b600060405180830381600087803b158015611f7157600080fd5b505af1158015611f85573d6000803e3d6000fd5b50505050336001600160a01b0316816001600160401b03167fffa85be86549e867f33ff3ad03f00922b2f7113b07f58ca22d923ed22fdebb6e8543604051611fce92919061319a565b60405180910390a3505050565b600060058311611fed5750600161200c565b82600003611ffd5750600061200c565b836120088484613223565b1190505b9392505050565b3360009081526001602052604081205460ff166120675760405162461bcd60e51b81526020600482015260126024820152712737ba1030b63637bbb2b21031b0b63632b960711b60448201526064016105f5565b600d546001600160a01b03163381146120c25760405162461bcd60e51b815260206004820152601e60248201527f43616c6c6572206d7573742062652073797374656d20636f6e7472616374000060448201526064016105f5565b6001600160a01b0384166000818152600760209081526040808320815180840183526001600160401b03898116808352835460018101855593875295859020915191909201805467ffffffffffffffff191691909216179055514381529192917fa84878f2a63d2c2c7fb98e2ab5694bdff1c200cbd72d2ec2fb11aab72e2df951910160405180910390a35050506001600160a01b031660009081526007602052604090205490565b6006602052816000526040600020818154811061218757600080fd5b90600052602060002001600091509150505481565b6001600160a01b03808216600090815260046020908152604080832081516101008101835281546001600160401b0381168252600160401b90049095169285019290925260018201805493948594909392840191906121fa90612f09565b80601f016020809104026020016040519081016040528092919081815260200182805461222690612f09565b80156122735780601f1061224857610100808354040283529160200191612273565b820191906000526020600020905b81548152906001019060200180831161225657829003601f168201915b5050505050815260200160028201805461228c90612f09565b80601f01602080910402602001604051908101604052809291908181526020018280546122b890612f09565b80156123055780601f106122da57610100808354040283529160200191612305565b820191906000526020600020905b8154815290600101906020018083116122e857829003601f168201915b50505091835250506040805180820182526003840154815260048401546020828101919091528301526005830154908201526006820154606082015260079091015460809091015280519091506001600160401b03166123685750600092915050565b60035460095460405162f5960960e51b815261200c92600160401b90046001600160401b0316916001600160a01b031690631eb2c120906123ad9060049081016131bc565b602060405180830381865afa1580156123ca573d6000803e3d6000fd5b505050506040513d601f19601f820116820180604052508101906123ee91906131ca565b6001600160401b0316836080015160000151611fdb565b60056020526000908152604090208054600182015460028301546003840180546001600160401b039094169492936001600160a01b03909216929161244990612f09565b80601f016020809104026020016040519081016040528092919081815260200182805461247590612f09565b80156124c25780601f10612497576101008083540402835291602001916124c2565b820191906000526020600020905b8154815290600101906020018083116124a557829003601f168201915b5050505050908060040180546124d790612f09565b80601f016020809104026020016040519081016040528092919081815260200182805461250390612f09565b80156125505780601f1061252557610100808354040283529160200191612550565b820191906000526020600020905b81548152906001019060200180831161253357829003601f168201915b505050506005830154600684015460078501546008909501549394919360ff909116925089565b600a5460408051637686fbcf60e11b815290516000926001600160a01b03169163ed0df79e9160048083019260209291908290030181865afa158015611476573d6000803e3d6000fd5b6125c96127a3565b6001600160a01b0381166125f357604051631e4fbdf760e01b8152600060048201526024016105f5565b6125fc816127d0565b50565b600280540361262157604051633ee5aeb560e01b815260040160405180910390fd5b60028055565b61262f612916565b600380546001600160401b03169060006126488361323a565b82546101009290920a6001600160401b03818102199093169183160217909155600060c085018190524360e0860152845182168152600560209081526040918290208651815467ffffffffffffffff1916941693909317835585015160018301558401516002820180546001600160a01b0319166001600160a01b03909216919091179055606084015184925060038201906126e49082612fc1565b50608082015160048201906126f99082612fc1565b5060a0820151600582015560c082015160068201805460ff191691151591909117905560e0820151600782015561010090910151600890910155600a5460408381015190516310c791e560e11b81526001600160a01b0391821660048201526000602482015291169063218f23ca90604401600060405180830381600087803b15801561278557600080fd5b505af1158015612799573d6000803e3d6000fd5b5093949350505050565b6000546001600160a01b031633146112075760405163118cdaa760e01b81523360048201526024016105f5565b600080546001600160a01b038381166001600160a01b0319831681178455604051919092169283917f8be0079c531659141344cd1fd0a4f28419497f9722a3daafe3b4186f6b6457e09190a35050565b6001600160a01b0382166000908152600460205260408120436007820155600381018054919261284f83613156565b9091555050600a546040516338e8490d60e11b81526001600160a01b038581166004830152600160248301526001600160401b0385166044830152909116906371d0921a90606401600060405180830381600087803b1580156128b157600080fd5b505af11580156128c5573d6000803e3d6000fd5b505050506003810154604080519182524360208301526001600160a01b038516917f409b9331803c697056d1e0d1cf2188ef4dfa6f8637e3ec609fb230f89d6fa987910160405180910390a2505050565b60405180610120016040528060006001600160401b031681526020016000815260200160006001600160a01b0316815260200160608152602001606081526020016000815260200160001515815260200160008152602001600081525090565b6001600160401b03811681146125fc57600080fd5b634e487b7160e01b600052604160045260246000fd5b600082601f8301126129b257600080fd5b81356001600160401b038111156129cb576129cb61298b565b604051601f8201601f19908116603f011681016001600160401b03811182821017156129f9576129f961298b565b604052818152838201602001851015612a1157600080fd5b816020850160208301376000918101602001919091529392505050565b60008060408385031215612a4157600080fd5b8235612a4c81612976565b915060208301356001600160401b03811115612a6757600080fd5b612a73858286016129a1565b9150509250929050565b80356001600160a01b0381168114612a9457600080fd5b919050565b600060208284031215612aab57600080fd5b61200c82612a7d565b80151581146125fc57600080fd5b60008060408385031215612ad557600080fd5b612ade83612a7d565b91506020830135612aee81612ab4565b809150509250929050565b600060208284031215612b0b57600080fd5b813561200c81612976565b6000815180845260005b81811015612b3c57602081850181015186830182015201612b20565b506000602082860101526020601f19601f83011685010191505092915050565b80516001600160401b031682526020810151602083015260006040820151612b8f60408501826001600160a01b03169052565b5060608201516101206060850152612bab610120850182612b16565b905060808301518482036080860152612bc48282612b16565b91505060a083015160a085015260c0830151612be460c086018215159052565b5060e083015160e08501526101008301516101008501528091505092915050565b60208152600061200c6020830184612b5c565b60008060408385031215612c2b57600080fd5b612c3483612a7d565b946020939093013593505050565b602081526001600160401b03825116602082015260006020830151612c7260408401826001600160a01b03169052565b5060408301516101206060840152612c8e610140840182612b16565b90506060840151601f19848303016080850152612cab8282612b16565b9150506080840151612cca60a085018280518252602090810151910152565b5060a084015160e084015260c084015161010084015260e08401516101208401528091505092915050565b60008060408385031215612d0857600080fd5b82356001600160401b03811115612d1e57600080fd5b612d2a858286016129a1565b92505060208301356001600160401b03811115612a6757600080fd5b60006080828403128015612d5957600080fd5b50604051608081016001600160401b0381118282101715612d7c57612d7c61298b565b604052612d8883612a7d565b8152612d9660208401612a7d565b6020820152612da760408401612a7d565b6040820152612db860608401612a7d565b60608201529392505050565b602080825282518282018190526000918401906040840190835b81811015612dfc578351835260209384019390920191600101612dde565b509095945050505050565b600080600060608486031215612e1c57600080fd5b505081359360208301359350604090920135919050565b60008060408385031215612e4657600080fd5b612e4f83612a7d565b91506020830135612aee81612976565b600060208284031215612e7157600080fd5b5035919050565b6001600160401b038a16815288602082015260018060a01b038816604082015261012060608201526000612eb0610120830189612b16565b8281036080840152612ec28189612b16565b60a0840197909752505092151560c084015260e08301919091526101009091015295945050505050565b600060208284031215612efe57600080fd5b815161200c81612ab4565b600181811c90821680612f1d57607f821691505b602082108103612f3d57634e487b7160e01b600052602260045260246000fd5b50919050565b634e487b7160e01b600052601160045260246000fd5b80820180821115612f6c57612f6c612f43565b92915050565b601f821115612fbc57806000526020600020601f840160051c81016020851015612f995750805b601f840160051c820191505b81811015612fb95760008155600101612fa5565b50505b505050565b81516001600160401b03811115612fda57612fda61298b565b612fee81612fe88454612f09565b84612f72565b6020601f821160018114613022576000831561300a5750848201515b600019600385901b1c1916600184901b178455612fb9565b600084815260208120601f198516915b828110156130525787850151825560209485019460019092019101613032565b50848210156130705786840151600019600387901b60f8161c191681555b50505050600190811b01905550565b60006020828403121561309157600080fd5b5051919050565b6060815260006130ab6060830186612b16565b60208301949094525060400152919050565b6060815260006130d06060830186612b5c565b82810360208401526130e28186612b16565b91505060018060a01b0383166040830152949350505050565b81810381811115612f6c57612f6c612f43565b6009811061312c57634e487b7160e01b600052602160045260246000fd5b9052565b6040810161313e828561310e565b6001600160a01b039290921660209190910152919050565b60006001820161316857613168612f43565b5060010190565b60006001600160401b0382166001600160401b03810361319157613191612f43565b60010192915050565b6040815260006131ad6040830185612b16565b90508260208301529392505050565b60208101612f6c828461310e565b6000602082840312156131dc57600080fd5b815161200c81612976565b6001600160401b038181168382160190811115612f6c57612f6c612f43565b6001600160a01b03831681526040810161200c602083018461310e565b8082028115828204841417612f6c57612f6c612f43565b60006001600160401b0382168061325357613253612f43565b600019019291505056fea2646970667358221220022e374fb22d1ffa5d90c01f0f6460398dee4b80816dbd260c00f43eaf68468d64736f6c634300081b0033",
  "linkReferences": {},
  "deployedLinkReferences": {}
}