{
  "_format": "hh-sol-artifact-1",
  "contractName": "InspectionRules",
  "sourceName": "contracts/InspectionRules.sol",
  "abi": [
    {
      "inputs": [
        {
          "internalType": "uint256",
          "name": "timeBetweenInspections_",
          "type": "uint256"
        },
        {
          "internalType": "uint256",
          "name": "blocksToExpireAcceptedInspection_",
          "type": "uint256"
        },
        {
          "internalType": "uint256",
          "name": "allowedInitialRequests_",
          "type": "uint256"
        },
        {
          "internalType": "uint256",
          "name": "acceptInspectionDelayBlocks_",
          "type": "uint256"
        },
        {
          "internalType": "uint256",
          "name": "securityBlocksToValidatorAnalysis_",
          "type": "uint256"
        }
      ],
      "stateMutability": "nonpayable",
      "type": "constructor"
    },
    {
      "anonymous": false,
      "inputs": [
        {
          "indexed": true,
          "internalType": "address",
          "name": "previousOwner",
          "type": "address"
        },
        {
          "indexed": true,
          "internalType": "address",
          "name": "newOwner",
          "type": "address"
        }
      ],
      "name": "OwnershipTransferred",
      "type": "event"
    },
    {
      "inputs": [
        {
          "internalType": "uint256",
          "name": "inspectionId",
          "type": "uint256"
        }
      ],
      "name": "acceptInspection",
      "outputs": [],
      "stateMutability": "nonpayable",
      "type": "function"
    },
    {
      "inputs": [],
      "name": "acceptInspectionDelayBlocks",
      "outputs": [
        {
          "internalType": "uint256",
          "name": "",
          "type": "uint256"
        }
      ],
      "stateMutability": "view",
      "type": "function"
    },
    {
      "inputs": [
        {
          "internalType": "uint256",
          "name": "id",
          "type": "uint256"
        },
        {
          "internalType": "string",
          "name": "justification",
          "type": "string"
        }
      ],
      "name": "addInspectionValidation",
      "outputs": [],
      "stateMutability": "nonpayable",
      "type": "function"
    },
    {
      "inputs": [
        {
          "internalType": "address",
          "name": "",
          "type": "address"
        }
      ],
      "name": "allowedCallers",
      "outputs": [
        {
          "internalType": "bool",
          "name": "",
          "type": "bool"
        }
      ],
      "stateMutability": "view",
      "type": "function"
    },
    {
      "inputs": [],
      "name": "allowedInitialRequests",
      "outputs": [
        {
          "internalType": "uint256",
          "name": "",
          "type": "uint256"
        }
      ],
      "stateMutability": "view",
      "type": "function"
    },
    {
      "inputs": [],
      "name": "blocksToExpireAcceptedInspection",
      "outputs": [
        {
          "internalType": "uint256",
          "name": "",
          "type": "uint256"
        }
      ],
      "stateMutability": "view",
      "type": "function"
    },
    {
      "inputs": [
        {
          "internalType": "uint256",
          "name": "inspectionId",
          "type": "uint256"
        }
      ],
      "name": "calculateBlocksToExpire",
      "outputs": [
        {
          "internalType": "uint256",
          "name": "",
          "type": "uint256"
        }
      ],
      "stateMutability": "view",
      "type": "function"
    },
    {
      "inputs": [
        {
          "internalType": "uint256",
          "name": "id",
          "type": "uint256"
        }
      ],
      "name": "getInspection",
      "outputs": [
        {
          "components": [
            {
              "internalType": "uint256",
              "name": "id",
              "type": "uint256"
            },
            {
              "internalType": "enum InspectionStatus",
              "name": "status",
              "type": "uint8"
            },
            {
              "internalType": "address",
              "name": "regenerator",
              "type": "address"
            },
            {
              "internalType": "address",
              "name": "inspector",
              "type": "address"
            },
            {
              "internalType": "uint256",
              "name": "treesResult",
              "type": "uint256"
            },
            {
              "internalType": "uint256",
              "name": "biodiversityResult",
              "type": "uint256"
            },
            {
              "internalType": "uint256",
              "name": "regenerationScore",
              "type": "uint256"
            },
            {
              "internalType": "string",
              "name": "proofPhoto",
              "type": "string"
            },
            {
              "internalType": "string",
              "name": "report",
              "type": "string"
            },
            {
              "internalType": "uint256",
              "name": "validationsCount",
              "type": "uint256"
            },
            {
              "internalType": "uint256",
              "name": "createdAt",
              "type": "uint256"
            },
            {
              "internalType": "uint256",
              "name": "acceptedAt",
              "type": "uint256"
            },
            {
              "internalType": "uint256",
              "name": "inspectedAt",
              "type": "uint256"
            },
            {
              "internalType": "uint256",
              "name": "inspectedAtEra",
              "type": "uint256"
            },
            {
              "internalType": "uint256",
              "name": "invalidatedAt",
              "type": "uint256"
            }
          ],
          "internalType": "struct Inspection",
          "name": "",
          "type": "tuple"
        }
      ],
      "stateMutability": "view",
      "type": "function"
    },
    {
      "inputs": [],
      "name": "getInspectionsHistory",
      "outputs": [
        {
          "internalType": "uint256[]",
          "name": "",
          "type": "uint256[]"
        }
      ],
      "stateMutability": "view",
      "type": "function"
    },
    {
      "inputs": [],
      "name": "inspectionsBiodiversityImpact",
      "outputs": [
        {
          "internalType": "uint256",
          "name": "",
          "type": "uint256"
        }
      ],
      "stateMutability": "view",
      "type": "function"
    },
    {
      "inputs": [],
      "name": "inspectionsCount",
      "outputs": [
        {
          "internalType": "uint256",
          "name": "",
          "type": "uint256"
        }
      ],
      "stateMutability": "view",
      "type": "function"
    },
    {
      "inputs": [],
      "name": "inspectionsTotalCount",
      "outputs": [
        {
          "internalType": "uint256",
          "name": "",
          "type": "uint256"
        }
      ],
      "stateMutability": "view",
      "type": "function"
    },
    {
      "inputs": [],
      "name": "inspectionsTreesImpact",
      "outputs": [
        {
          "internalType": "uint256",
          "name": "",
          "type": "uint256"
        }
      ],
      "stateMutability": "view",
      "type": "function"
    },
    {
      "inputs": [
        {
          "internalType": "address",
          "name": "caller",
          "type": "address"
        }
      ],
      "name": "isAllowedCaller",
      "outputs": [
        {
          "internalType": "bool",
          "name": "",
          "type": "bool"
        }
      ],
      "stateMutability": "view",
      "type": "function"
    },
    {
      "inputs": [
        {
          "internalType": "address",
          "name": "allowed",
          "type": "address"
        }
      ],
      "name": "newAllowedCaller",
      "outputs": [],
      "stateMutability": "nonpayable",
      "type": "function"
    },
    {
      "inputs": [],
      "name": "owner",
      "outputs": [
        {
          "internalType": "address",
          "name": "",
          "type": "address"
        }
      ],
      "stateMutability": "view",
      "type": "function"
    },
    {
      "inputs": [
        {
          "internalType": "uint256",
          "name": "inspectionId",
          "type": "uint256"
        },
        {
          "internalType": "string",
          "name": "proofPhoto",
          "type": "string"
        },
        {
          "internalType": "string",
          "name": "report",
          "type": "string"
        },
        {
          "internalType": "uint256",
          "name": "treesResult",
          "type": "uint256"
        },
        {
          "internalType": "uint256",
          "name": "biodiversityResult",
          "type": "uint256"
        }
      ],
      "name": "realizeInspection",
      "outputs": [],
      "stateMutability": "nonpayable",
      "type": "function"
    },
    {
      "inputs": [],
      "name": "renounceOwnership",
      "outputs": [],
      "stateMutability": "nonpayable",
      "type": "function"
    },
    {
      "inputs": [],
      "name": "requestInspection",
      "outputs": [],
      "stateMutability": "nonpayable",
      "type": "function"
    },
    {
      "inputs": [],
      "name": "securityBlocksToValidatorAnalysis",
      "outputs": [
        {
          "internalType": "uint256",
          "name": "",
          "type": "uint256"
        }
      ],
      "stateMutability": "view",
      "type": "function"
    },
    {
      "inputs": [
        {
          "components": [
            {
              "internalType": "address",
              "name": "communityRulesAddress",
              "type": "address"
            },
            {
              "internalType": "address",
              "name": "regeneratorRulesAddress",
              "type": "address"
            },
            {
              "internalType": "address",
              "name": "validatorRulesAddress",
              "type": "address"
            },
            {
              "internalType": "address",
              "name": "inspectorRulesAddress",
              "type": "address"
            },
            {
              "internalType": "address",
              "name": "regenerationIndexRulesAddress",
              "type": "address"
            },
            {
              "internalType": "address",
              "name": "activistRulesAddress",
              "type": "address"
            }
          ],
          "internalType": "struct ContractsDependency",
          "name": "contractDependency",
          "type": "tuple"
        }
      ],
      "name": "setContractAddressDependencies",
      "outputs": [],
      "stateMutability": "nonpayable",
      "type": "function"
    },
    {
      "inputs": [],
      "name": "timeBetweenInspections",
      "outputs": [
        {
          "internalType": "uint256",
          "name": "",
          "type": "uint256"
        }
      ],
      "stateMutability": "view",
      "type": "function"
    },
    {
      "inputs": [
        {
          "internalType": "address",
          "name": "newOwner",
          "type": "address"
        }
      ],
      "name": "transferOwnership",
      "outputs": [],
      "stateMutability": "nonpayable",
      "type": "function"
    },
    {
      "inputs": [
        {
          "components": [
            {
              "internalType": "uint256",
              "name": "id",
              "type": "uint256"
            },
            {
              "internalType": "address",
              "name": "regeneratorWallet",
              "type": "address"
            },
            {
              "internalType": "string",
              "name": "name",
              "type": "string"
            },
            {
              "internalType": "string",
              "name": "proofPhoto",
              "type": "string"
            },
            {
              "internalType": "uint256",
              "name": "totalArea",
              "type": "uint256"
            },
            {
              "internalType": "bool",
              "name": "pendingInspection",
              "type": "bool"
            },
            {
              "internalType": "uint256",
              "name": "totalInspections",
              "type": "uint256"
            },
            {
              "internalType": "uint256",
              "name": "lastRequestAt",
              "type": "uint256"
            },
            {
              "components": [
                {
                  "internalType": "uint256",
                  "name": "score",
                  "type": "uint256"
                }
              ],
              "internalType": "struct RegenerationScore",
              "name": "regenerationScore",
              "type": "tuple"
            },
            {
              "components": [
                {
                  "internalType": "bool",
                  "name": "onContractPool",
                  "type": "bool"
                },
                {
                  "internalType": "uint256",
                  "name": "currentEra",
                  "type": "uint256"
                }
              ],
              "internalType": "struct Pool",
              "name": "pool",
              "type": "tuple"
            },
            {
              "internalType": "uint256",
              "name": "createdAt",
              "type": "uint256"
            },
            {
              "internalType": "uint256",
              "name": "coordinatesCount",
              "type": "uint256"
            }
          ],
          "internalType": "struct Regenerator",
          "name": "regenerator",
          "type": "tuple"
        }
      ],
      "name": "waitToRequest",
      "outputs": [
        {
          "internalType": "bool",
          "name": "",
          "type": "bool"
        }
      ],
      "stateMutability": "view",
      "type": "function"
    }
  ],
  "bytecode": "0x61012060405234801561001157600080fd5b5060405161582f38038061582f83398181016040528101906100339190610189565b61004f61004461008260201b60201c565b61008a60201b60201c565b84608081815250508360a081815250508260c081815250508160e081815250508061010081815250505050505050610204565b600033905090565b60008060009054906101000a900473ffffffffffffffffffffffffffffffffffffffff169050816000806101000a81548173ffffffffffffffffffffffffffffffffffffffff021916908373ffffffffffffffffffffffffffffffffffffffff1602179055508173ffffffffffffffffffffffffffffffffffffffff168173ffffffffffffffffffffffffffffffffffffffff167f8be0079c531659141344cd1fd0a4f28419497f9722a3daafe3b4186f6b6457e060405160405180910390a35050565b600080fd5b6000819050919050565b61016681610153565b811461017157600080fd5b50565b6000815190506101838161015d565b92915050565b600080600080600060a086880312156101a5576101a461014e565b5b60006101b388828901610174565b95505060206101c488828901610174565b94505060406101d588828901610174565b93505060606101e688828901610174565b92505060806101f788828901610174565b9150509295509295909350565b60805160a05160c05160e051610100516155a8610287600039600081816111a9015261363b01526000818161183a015261353e0152600081816111cf0152611740015260008181610937015281816117c301528181611816015281816134840152818161357a015261365f015260008181611204015261123e01526155a86000f3fe608060405234801561001057600080fd5b50600436106101585760003560e01c80638da5cb5b116100c3578063e42c95511161007c578063e42c955114610391578063e710483d146103af578063e7857502146103cd578063ed8f9321146103e9578063f283667014610407578063f2fde38b1461043757610158565b80638da5cb5b146102bb5780638f93716f146102d95780639df79c92146102f5578063a2b570a414610313578063a680125814610331578063d7c9834e1461036157610158565b8063484000fe11610115578063484000fe1461021f5780635401c1f21461023b5780636b2edc1614610259578063715018a6146102775780637b3341541461028157806386ae2fb1146102b157610158565b80630bbec3c21461015d5780630cfd82c61461017b5780632c1d62e4146101975780632eb92363146101b357806330a93c55146101d15780633dbf1e8f14610201575b600080fd5b610165610453565b60405161017291906138be565b60405180910390f35b61019560048036038101906101909190613a66565b6104e8565b005b6101b160048036038101906101ac9190613b19565b610a91565b005b6101bb6111a7565b6040516101c89190613b84565b60405180910390f35b6101eb60048036038101906101e69190613e25565b6111cb565b6040516101f89190613e7d565b60405180910390f35b61020961123c565b6040516102169190613b84565b60405180910390f35b61023960048036038101906102349190613f38565b611260565b005b610243611409565b6040516102509190613b84565b60405180910390f35b61026161140f565b60405161026e9190613b84565b60405180910390f35b61027f611415565b005b61029b60048036038101906102969190613f65565b611429565b6040516102a89190613e7d565b60405180910390f35b6102b9611449565b005b6102c36116b3565b6040516102d09190613fa1565b60405180910390f35b6102f360048036038101906102ee9190613f65565b6116dc565b005b6102fd61173e565b60405161030a9190613b84565b60405180910390f35b61031b611762565b6040516103289190613b84565b60405180910390f35b61034b60048036038101906103469190613f65565b611768565b6040516103589190613e7d565b60405180910390f35b61037b60048036038101906103769190613fbc565b6117be565b6040516103889190613b84565b60405180910390f35b610399611814565b6040516103a69190613b84565b60405180910390f35b6103b7611838565b6040516103c49190613b84565b60405180910390f35b6103e760048036038101906103e29190613fbc565b61185c565b005b6103f1612202565b6040516103fe9190613b84565b60405180910390f35b610421600480360381019061041c9190613fbc565b612208565b60405161042e9190614238565b60405180910390f35b610451600480360381019061044c9190613f65565b6124a5565b005b6060600360003373ffffffffffffffffffffffffffffffffffffffff1673ffffffffffffffffffffffffffffffffffffffff1681526020019081526020016000208054806020026020016040519081016040528092919081815260200182805480156104de57602002820191906000526020600020905b8154815260200190600101908083116104ca575b5050505050905090565b600060046000878152602001908152602001600020604051806101e0016040529081600082015481526020016001820160009054906101000a900460ff16600481111561053857610537613fe9565b5b600481111561054a57610549613fe9565b5b81526020016001820160019054906101000a900473ffffffffffffffffffffffffffffffffffffffff1673ffffffffffffffffffffffffffffffffffffffff1673ffffffffffffffffffffffffffffffffffffffff1681526020016002820160009054906101000a900473ffffffffffffffffffffffffffffffffffffffff1673ffffffffffffffffffffffffffffffffffffffff1673ffffffffffffffffffffffffffffffffffffffff16815260200160038201548152602001600482015481526020016005820154815260200160068201805461062890614289565b80601f016020809104026020016040519081016040528092919081815260200182805461065490614289565b80156106a15780601f10610676576101008083540402835291602001916106a1565b820191906000526020600020905b81548152906001019060200180831161068457829003601f168201915b505050505081526020016007820180546106ba90614289565b80601f01602080910402602001604051908101604052809291908181526020018280546106e690614289565b80156107335780601f1061070857610100808354040283529160200191610733565b820191906000526020600020905b81548152906001019060200180831161071657829003601f168201915b505050505081526020016008820154815260200160098201548152602001600a8201548152602001600b8201548152602001600c8201548152602001600d820154815250509050600860009054906101000a900473ffffffffffffffffffffffffffffffffffffffff1673ffffffffffffffffffffffffffffffffffffffff16639497c6086002336040518363ffffffff1660e01b81526004016107d8929190614302565b602060405180830381865afa1580156107f5573d6000803e3d6000fd5b505050506040513d601f19601f820116820180604052508101906108199190614340565b610858576040517f08c379a000000000000000000000000000000000000000000000000000000000815260040161084f906143ca565b60405180910390fd5b6001600481111561086c5761086b613fe9565b5b8160200151600481111561088357610882613fe9565b5b146108c3576040517f08c379a00000000000000000000000000000000000000000000000000000000081526004016108ba90614436565b60405180910390fd5b3373ffffffffffffffffffffffffffffffffffffffff16816060015173ffffffffffffffffffffffffffffffffffffffff1614610935576040517f08c379a000000000000000000000000000000000000000000000000000000000815260040161092c906144c8565b60405180910390fd5b7f00000000000000000000000000000000000000000000000000000000000000008161016001516109669190614517565b4311156109a8576040517f08c379a000000000000000000000000000000000000000000000000000000000815260040161099f90614597565b60405180910390fd5b6109b58186868686612528565b6109be81612844565b82600e60008282546109d09190614517565b9250508190555081600f60008282546109e99190614517565b925050819055506001600260003373ffffffffffffffffffffffffffffffffffffffff1673ffffffffffffffffffffffffffffffffffffffff1681526020019081526020016000206000836040015173ffffffffffffffffffffffffffffffffffffffff1673ffffffffffffffffffffffffffffffffffffffff16815260200190815260200160002060006101000a81548160ff021916908315150217905550505050505050565b600860009054906101000a900473ffffffffffffffffffffffffffffffffffffffff1673ffffffffffffffffffffffffffffffffffffffff16639497c6086008336040518363ffffffff1660e01b8152600401610aef929190614302565b602060405180830381865afa158015610b0c573d6000803e3d6000fd5b505050506040513d601f19601f82011682018060405250810190610b309190614340565b610b6f576040517f08c379a0000000000000000000000000000000000000000000000000000000008152600401610b6690614603565b60405180910390fd5b600060046000848152602001908152602001600020604051806101e0016040529081600082015481526020016001820160009054906101000a900460ff166004811115610bbf57610bbe613fe9565b5b6004811115610bd157610bd0613fe9565b5b81526020016001820160019054906101000a900473ffffffffffffffffffffffffffffffffffffffff1673ffffffffffffffffffffffffffffffffffffffff1673ffffffffffffffffffffffffffffffffffffffff1681526020016002820160009054906101000a900473ffffffffffffffffffffffffffffffffffffffff1673ffffffffffffffffffffffffffffffffffffffff1673ffffffffffffffffffffffffffffffffffffffff168152602001600382015481526020016004820154815260200160058201548152602001600682018054610caf90614289565b80601f0160208091040260200160405190810160405280929190818152602001828054610cdb90614289565b8015610d285780601f10610cfd57610100808354040283529160200191610d28565b820191906000526020600020905b815481529060010190602001808311610d0b57829003601f168201915b50505050508152602001600782018054610d4190614289565b80601f0160208091040260200160405190810160405280929190818152602001828054610d6d90614289565b8015610dba5780601f10610d8f57610100808354040283529160200191610dba565b820191906000526020600020905b815481529060010190602001808311610d9d57829003601f168201915b505050505081526020016008820154815260200160098201548152602001600a8201548152602001600b8201548152602001600c8201548152602001600d820154815250509050600760009054906101000a900473ffffffffffffffffffffffffffffffffffffffff1673ffffffffffffffffffffffffffffffffffffffff1663e8f3c27a6040518163ffffffff1660e01b8152600401602060405180830381865afa158015610e6e573d6000803e3d6000fd5b505050506040513d601f19601f82011682018060405250810190610e929190614638565b816101a0015114610ed8576040517f08c379a0000000000000000000000000000000000000000000000000000000008152600401610ecf906146b1565b60405180910390fd5b60018161012001818151610eec9190614517565b915081815250508060046000836000015181526020019081526020016000206000820151816000015560208201518160010160006101000a81548160ff02191690836004811115610f4057610f3f613fe9565b5b021790555060408201518160010160016101000a81548173ffffffffffffffffffffffffffffffffffffffff021916908373ffffffffffffffffffffffffffffffffffffffff16021790555060608201518160020160006101000a81548173ffffffffffffffffffffffffffffffffffffffff021916908373ffffffffffffffffffffffffffffffffffffffff1602179055506080820151816003015560a0820151816004015560c0820151816005015560e0820151816006019081611006919061487d565b5061010082015181600701908161101d919061487d565b506101208201518160080155610140820151816009015561016082015181600a015561018082015181600b01556101a082015181600c01556101c082015181600d01559050506000600960009054906101000a900473ffffffffffffffffffffffffffffffffffffffff1673ffffffffffffffffffffffffffffffffffffffff166384f0f65f6040518163ffffffff1660e01b8152600401602060405180830381865afa1580156110d2573d6000803e3d6000fd5b505050506040513d601f19601f820116820180604052508101906110f69190614638565b8261012001511015905080156111105761110f82612b02565b5b600960009054906101000a900473ffffffffffffffffffffffffffffffffffffffff1673ffffffffffffffffffffffffffffffffffffffff16636f7ffca68385336040518463ffffffff1660e01b815260040161116f93929190614988565b600060405180830381600087803b15801561118957600080fd5b505af115801561119d573d6000803e3d6000fd5b5050505050505050565b7f000000000000000000000000000000000000000000000000000000000000000081565b60007f00000000000000000000000000000000000000000000000000000000000000008260c0015110156112025760019050611237565b7f00000000000000000000000000000000000000000000000000000000000000008260e001516112329190614517565b431190505b919050565b7f000000000000000000000000000000000000000000000000000000000000000081565b611268612d03565b8060000151600860006101000a81548173ffffffffffffffffffffffffffffffffffffffff021916908373ffffffffffffffffffffffffffffffffffffffff1602179055508060200151600760006101000a81548173ffffffffffffffffffffffffffffffffffffffff021916908373ffffffffffffffffffffffffffffffffffffffff1602179055508060400151600960006101000a81548173ffffffffffffffffffffffffffffffffffffffff021916908373ffffffffffffffffffffffffffffffffffffffff1602179055508060600151600660006101000a81548173ffffffffffffffffffffffffffffffffffffffff021916908373ffffffffffffffffffffffffffffffffffffffff1602179055508060800151600b60006101000a81548173ffffffffffffffffffffffffffffffffffffffff021916908373ffffffffffffffffffffffffffffffffffffffff1602179055508060a00151600a60006101000a81548173ffffffffffffffffffffffffffffffffffffffff021916908373ffffffffffffffffffffffffffffffffffffffff16021790555050565b600c5481565b600d5481565b61141d612d03565b6114276000612d81565b565b60016020528060005260406000206000915054906101000a900460ff1681565b6000600760009054906101000a900473ffffffffffffffffffffffffffffffffffffffff1673ffffffffffffffffffffffffffffffffffffffff166365ab21b0336040518263ffffffff1660e01b81526004016114a69190613fa1565b600060405180830381865afa1580156114c3573d6000803e3d6000fd5b505050506040513d6000823e3d601f19601f820116820180604052508101906114ec9190614c38565b9050600860009054906101000a900473ffffffffffffffffffffffffffffffffffffffff1673ffffffffffffffffffffffffffffffffffffffff16639497c6086001336040518363ffffffff1660e01b815260040161154c929190614302565b602060405180830381865afa158015611569573d6000803e3d6000fd5b505050506040513d601f19601f8201168201806040525081019061158d9190614340565b6115cc576040517f08c379a00000000000000000000000000000000000000000000000000000000081526004016115c390614ccd565b60405180910390fd5b8060a0015115611611576040517f08c379a000000000000000000000000000000000000000000000000000000000815260040161160890614d39565b60405180910390fd5b61161a816111cb565b611659576040517f08c379a000000000000000000000000000000000000000000000000000000000815260040161165090614da5565b60405180910390fd5b600c8160c00151106116a0576040517f08c379a000000000000000000000000000000000000000000000000000000000815260040161169790614e11565b60405180910390fd5b6116a8612e45565b6116b06130b5565b50565b60008060009054906101000a900473ffffffffffffffffffffffffffffffffffffffff16905090565b6116e4612d03565b60018060008373ffffffffffffffffffffffffffffffffffffffff1673ffffffffffffffffffffffffffffffffffffffff16815260200190815260200160002060006101000a81548160ff02191690831515021790555050565b7f000000000000000000000000000000000000000000000000000000000000000081565b600f5481565b6000600160008373ffffffffffffffffffffffffffffffffffffffff1673ffffffffffffffffffffffffffffffffffffffff16815260200190815260200160002060009054906101000a900460ff169050919050565b6000437f000000000000000000000000000000000000000000000000000000000000000060046000858152602001908152602001600020600a01546118039190614517565b61180d9190614e31565b9050919050565b7f000000000000000000000000000000000000000000000000000000000000000081565b7f000000000000000000000000000000000000000000000000000000000000000081565b600860009054906101000a900473ffffffffffffffffffffffffffffffffffffffff1673ffffffffffffffffffffffffffffffffffffffff16639497c6086002336040518363ffffffff1660e01b81526004016118ba929190614302565b602060405180830381865afa1580156118d7573d6000803e3d6000fd5b505050506040513d601f19601f820116820180604052508101906118fb9190614340565b61193a576040517f08c379a0000000000000000000000000000000000000000000000000000000008152600401611931906143ca565b60405180910390fd5b600660009054906101000a900473ffffffffffffffffffffffffffffffffffffffff1673ffffffffffffffffffffffffffffffffffffffff16634d5ff1d3336040518263ffffffff1660e01b81526004016119959190613fa1565b602060405180830381865afa1580156119b2573d6000803e3d6000fd5b505050506040513d601f19601f820116820180604052508101906119d69190614340565b611a15576040517f08c379a0000000000000000000000000000000000000000000000000000000008152600401611a0c90614eb1565b60405180910390fd5b600060046000838152602001908152602001600020604051806101e0016040529081600082015481526020016001820160009054906101000a900460ff166004811115611a6557611a64613fe9565b5b6004811115611a7757611a76613fe9565b5b81526020016001820160019054906101000a900473ffffffffffffffffffffffffffffffffffffffff1673ffffffffffffffffffffffffffffffffffffffff1673ffffffffffffffffffffffffffffffffffffffff1681526020016002820160009054906101000a900473ffffffffffffffffffffffffffffffffffffffff1673ffffffffffffffffffffffffffffffffffffffff1673ffffffffffffffffffffffffffffffffffffffff168152602001600382015481526020016004820154815260200160058201548152602001600682018054611b5590614289565b80601f0160208091040260200160405190810160405280929190818152602001828054611b8190614289565b8015611bce5780601f10611ba357610100808354040283529160200191611bce565b820191906000526020600020905b815481529060010190602001808311611bb157829003601f168201915b50505050508152602001600782018054611be790614289565b80601f0160208091040260200160405190810160405280929190818152602001828054611c1390614289565b8015611c605780601f10611c3557610100808354040283529160200191611c60565b820191906000526020600020905b815481529060010190602001808311611c4357829003601f168201915b505050505081526020016008820154815260200160098201548152602001600a8201548152602001600b8201548152602001600c8201548152602001600d820154815250509050600181600001511015611cef576040517f08c379a0000000000000000000000000000000000000000000000000000000008152600401611ce690614f1d565b60405180910390fd5b611cf7613144565b611d36576040517f08c379a0000000000000000000000000000000000000000000000000000000008152600401611d2d90614faf565b60405180910390fd5b600260003373ffffffffffffffffffffffffffffffffffffffff1673ffffffffffffffffffffffffffffffffffffffff1681526020019081526020016000206000826040015173ffffffffffffffffffffffffffffffffffffffff1673ffffffffffffffffffffffffffffffffffffffff16815260200190815260200160002060009054906101000a900460ff1615611e04576040517f08c379a0000000000000000000000000000000000000000000000000000000008152600401611dfb90615041565b60405180910390fd5b60006004811115611e1857611e17613fe9565b5b81602001516004811115611e2f57611e2e613fe9565b5b14611e6f576040517f08c379a0000000000000000000000000000000000000000000000000000000008152600401611e66906150ad565b60405180910390fd5b611e788161353a565b611eb7576040517f08c379a0000000000000000000000000000000000000000000000000000000008152600401611eae90615119565b60405180910390fd5b611ebf613576565b611efe576040517f08c379a0000000000000000000000000000000000000000000000000000000008152600401611ef590615185565b60405180910390fd5b600181602001906004811115611f1757611f16613fe9565b5b90816004811115611f2b57611f2a613fe9565b5b81525050438161016001818152505033816060019073ffffffffffffffffffffffffffffffffffffffff16908173ffffffffffffffffffffffffffffffffffffffff168152505080600460008481526020019081526020016000206000820151816000015560208201518160010160006101000a81548160ff02191690836004811115611fbb57611fba613fe9565b5b021790555060408201518160010160016101000a81548173ffffffffffffffffffffffffffffffffffffffff021916908373ffffffffffffffffffffffffffffffffffffffff16021790555060608201518160020160006101000a81548173ffffffffffffffffffffffffffffffffffffffff021916908373ffffffffffffffffffffffffffffffffffffffff1602179055506080820151816003015560a0820151816004015560c0820151816005015560e0820151816006019081612081919061487d565b50610100820151816007019081612098919061487d565b506101208201518160080155610140820151816009015561016082015181600a015561018082015181600b01556101a082015181600c01556101c082015181600d0155905050600760009054906101000a900473ffffffffffffffffffffffffffffffffffffffff1673ffffffffffffffffffffffffffffffffffffffff16631db6420482604001516040518263ffffffff1660e01b815260040161213d9190613fa1565b600060405180830381600087803b15801561215757600080fd5b505af115801561216b573d6000803e3d6000fd5b50505050600660009054906101000a900473ffffffffffffffffffffffffffffffffffffffff1673ffffffffffffffffffffffffffffffffffffffff1663d518ad5f33846040518363ffffffff1660e01b81526004016121cc9291906151a5565b600060405180830381600087803b1580156121e657600080fd5b505af11580156121fa573d6000803e3d6000fd5b505050505050565b600e5481565b612210613742565b60046000838152602001908152602001600020604051806101e0016040529081600082015481526020016001820160009054906101000a900460ff16600481111561225e5761225d613fe9565b5b60048111156122705761226f613fe9565b5b81526020016001820160019054906101000a900473ffffffffffffffffffffffffffffffffffffffff1673ffffffffffffffffffffffffffffffffffffffff1673ffffffffffffffffffffffffffffffffffffffff1681526020016002820160009054906101000a900473ffffffffffffffffffffffffffffffffffffffff1673ffffffffffffffffffffffffffffffffffffffff1673ffffffffffffffffffffffffffffffffffffffff16815260200160038201548152602001600482015481526020016005820154815260200160068201805461234e90614289565b80601f016020809104026020016040519081016040528092919081815260200182805461237a90614289565b80156123c75780601f1061239c576101008083540402835291602001916123c7565b820191906000526020600020905b8154815290600101906020018083116123aa57829003601f168201915b505050505081526020016007820180546123e090614289565b80601f016020809104026020016040519081016040528092919081815260200182805461240c90614289565b80156124595780601f1061242e57610100808354040283529160200191612459565b820191906000526020600020905b81548152906001019060200180831161243c57829003601f168201915b505050505081526020016008820154815260200160098201548152602001600a8201548152602001600b8201548152602001600c8201548152602001600d820154815250509050919050565b6124ad612d03565b600073ffffffffffffffffffffffffffffffffffffffff168173ffffffffffffffffffffffffffffffffffffffff160361251c576040517f08c379a000000000000000000000000000000000000000000000000000000000815260040161251390615240565b60405180910390fd5b61252581612d81565b50565b60028560200190600481111561254157612540613fe9565b5b9081600481111561255557612554613fe9565b5b8152505081856080018181525050808560a0018181525050600b60009054906101000a900473ffffffffffffffffffffffffffffffffffffffff1673ffffffffffffffffffffffffffffffffffffffff16631cb9a02a83836040518363ffffffff1660e01b81526004016125ca929190615260565b602060405180830381865afa1580156125e7573d6000803e3d6000fd5b505050506040513d601f19601f8201168201806040525081019061260b9190614638565b8560c0018181525050838560e00181905250828561010001819052504385610180018181525050600760009054906101000a900473ffffffffffffffffffffffffffffffffffffffff1673ffffffffffffffffffffffffffffffffffffffff1663e8f3c27a6040518163ffffffff1660e01b8152600401602060405180830381865afa15801561269f573d6000803e3d6000fd5b505050506040513d601f19601f820116820180604052508101906126c39190614638565b856101a00181815250508460046000876000015181526020019081526020016000206000820151816000015560208201518160010160006101000a81548160ff0219169083600481111561271a57612719613fe9565b5b021790555060408201518160010160016101000a81548173ffffffffffffffffffffffffffffffffffffffff021916908373ffffffffffffffffffffffffffffffffffffffff16021790555060608201518160020160006101000a81548173ffffffffffffffffffffffffffffffffffffffff021916908373ffffffffffffffffffffffffffffffffffffffff1602179055506080820151816003015560a0820151816004015560c0820151816005015560e08201518160060190816127e0919061487d565b506101008201518160070190816127f7919061487d565b506101208201518160080155610140820151816009015561016082015181600a015561018082015181600b01556101a082015181600c01556101c082015181600d01559050505050505050565b600081604001519050600082606001519050600a60009054906101000a900473ffffffffffffffffffffffffffffffffffffffff1673ffffffffffffffffffffffffffffffffffffffff16632a27962183600760009054906101000a900473ffffffffffffffffffffffffffffffffffffffff1673ffffffffffffffffffffffffffffffffffffffff166330d91ee1868860c001516040518363ffffffff1660e01b81526004016128f69291906151a5565b6020604051808303816000875af1158015612915573d6000803e3d6000fd5b505050506040513d601f19601f820116820180604052508101906129399190614638565b84600660009054906101000a900473ffffffffffffffffffffffffffffffffffffffff1673ffffffffffffffffffffffffffffffffffffffff1663a1ce8d3a876040518263ffffffff1660e01b81526004016129959190613fa1565b6020604051808303816000875af11580156129b4573d6000803e3d6000fd5b505050506040513d601f19601f820116820180604052508101906129d89190614638565b6040518563ffffffff1660e01b81526004016129f79493929190615289565b600060405180830381600087803b158015612a1157600080fd5b505af1158015612a25573d6000803e3d6000fd5b50505050600360008373ffffffffffffffffffffffffffffffffffffffff1673ffffffffffffffffffffffffffffffffffffffff16815260200190815260200160002083600001519080600181540180825580915050600190039060005260206000200160009091909190915055600360008273ffffffffffffffffffffffffffffffffffffffff1673ffffffffffffffffffffffffffffffffffffffff16815260200190815260200160002083600001519080600181540180825580915050600190039060005260206000200160009091909190915055505050565b8060800151600e6000828254612b189190614e31565b925050819055508060a00151600f6000828254612b359190614e31565b92505081905550600c6000815480929190612b4f906152ce565b9190505550600481602001906004811115612b6d57612b6c613fe9565b5b90816004811115612b8157612b80613fe9565b5b8152505043816101c00181815250508060046000836000015181526020019081526020016000206000820151816000015560208201518160010160006101000a81548160ff02191690836004811115612bdd57612bdc613fe9565b5b021790555060408201518160010160016101000a81548173ffffffffffffffffffffffffffffffffffffffff021916908373ffffffffffffffffffffffffffffffffffffffff16021790555060608201518160020160006101000a81548173ffffffffffffffffffffffffffffffffffffffff021916908373ffffffffffffffffffffffffffffffffffffffff1602179055506080820151816003015560a0820151816004015560c0820151816005015560e0820151816006019081612ca3919061487d565b50610100820151816007019081612cba919061487d565b506101208201518160080155610140820151816009015561016082015181600a015561018082015181600b01556101a082015181600c01556101c082015181600d015590505050565b612d0b613724565b73ffffffffffffffffffffffffffffffffffffffff16612d296116b3565b73ffffffffffffffffffffffffffffffffffffffff1614612d7f576040517f08c379a0000000000000000000000000000000000000000000000000000000008152600401612d7690615343565b60405180910390fd5b565b60008060009054906101000a900473ffffffffffffffffffffffffffffffffffffffff169050816000806101000a81548173ffffffffffffffffffffffffffffffffffffffff021916908373ffffffffffffffffffffffffffffffffffffffff1602179055508173ffffffffffffffffffffffffffffffffffffffff168173ffffffffffffffffffffffffffffffffffffffff167f8be0079c531659141344cd1fd0a4f28419497f9722a3daafe3b4186f6b6457e060405160405180910390a35050565b612e4d613742565b6001600d54612e5c9190614517565b816000018181525050600081602001906004811115612e7e57612e7d613fe9565b5b90816004811115612e9257612e91613fe9565b5b8152505033816040019073ffffffffffffffffffffffffffffffffffffffff16908173ffffffffffffffffffffffffffffffffffffffff16815250506000816060019073ffffffffffffffffffffffffffffffffffffffff16908173ffffffffffffffffffffffffffffffffffffffff168152505043816101400181815250508060046000836000015181526020019081526020016000206000820151816000015560208201518160010160006101000a81548160ff02191690836004811115612f5f57612f5e613fe9565b5b021790555060408201518160010160016101000a81548173ffffffffffffffffffffffffffffffffffffffff021916908373ffffffffffffffffffffffffffffffffffffffff16021790555060608201518160020160006101000a81548173ffffffffffffffffffffffffffffffffffffffff021916908373ffffffffffffffffffffffffffffffffffffffff1602179055506080820151816003015560a0820151816004015560c0820151816005015560e0820151816006019081613025919061487d565b5061010082015181600701908161303c919061487d565b506101208201518160080155610140820151816009015561016082015181600a015561018082015181600b01556101a082015181600c01556101c082015181600d0155905050600c600081548092919061309590615363565b9190505550600d60008154809291906130ad90615363565b919050555050565b600760009054906101000a900473ffffffffffffffffffffffffffffffffffffffff1673ffffffffffffffffffffffffffffffffffffffff166394c3cee9336040518263ffffffff1660e01b81526004016131109190613fa1565b600060405180830381600087803b15801561312a57600080fd5b505af115801561313e573d6000803e3d6000fd5b50505050565b600080600660009054906101000a900473ffffffffffffffffffffffffffffffffffffffff1673ffffffffffffffffffffffffffffffffffffffff1663e8f7dfcf336040518263ffffffff1660e01b81526004016131a29190613fa1565b600060405180830381865afa1580156131bf573d6000803e3d6000fd5b505050506040513d6000823e3d601f19601f820116820180604052508101906131e89190615529565b90506000600460008360e001518152602001908152602001600020604051806101e0016040529081600082015481526020016001820160009054906101000a900460ff16600481111561323e5761323d613fe9565b5b60048111156132505761324f613fe9565b5b81526020016001820160019054906101000a900473ffffffffffffffffffffffffffffffffffffffff1673ffffffffffffffffffffffffffffffffffffffff1673ffffffffffffffffffffffffffffffffffffffff1681526020016002820160009054906101000a900473ffffffffffffffffffffffffffffffffffffffff1673ffffffffffffffffffffffffffffffffffffffff1673ffffffffffffffffffffffffffffffffffffffff16815260200160038201548152602001600482015481526020016005820154815260200160068201805461332e90614289565b80601f016020809104026020016040519081016040528092919081815260200182805461335a90614289565b80156133a75780601f1061337c576101008083540402835291602001916133a7565b820191906000526020600020905b81548152906001019060200180831161338a57829003601f168201915b505050505081526020016007820180546133c090614289565b80601f01602080910402602001604051908101604052809291908181526020018280546133ec90614289565b80156134395780601f1061340e57610100808354040283529160200191613439565b820191906000526020600020905b81548152906001019060200180831161341c57829003601f168201915b505050505081526020016008820154815260200160098201548152602001600a8201548152602001600b8201548152602001600c8201548152602001600d82015481525050905060007f00000000000000000000000000000000000000000000000000000000000000008261016001516134b39190614517565b431190506000600260048111156134cd576134cc613fe9565b5b836020015160048111156134e4576134e3613fe9565b5b148061351757506004808111156134fe576134fd613fe9565b5b8360200151600481111561351557613514613fe9565b5b145b905080806135225750815b80613531575060008460e00151145b94505050505090565b60007f000000000000000000000000000000000000000000000000000000000000000082610140015161356d9190614517565b43119050919050565b60007f0000000000000000000000000000000000000000000000000000000000000000600760009054906101000a900473ffffffffffffffffffffffffffffffffffffffff1673ffffffffffffffffffffffffffffffffffffffff1663582256f16040518163ffffffff1660e01b8152600401602060405180830381865afa158015613606573d6000803e3d6000fd5b505050506040513d601f19601f8201168201806040525081019061362a9190614638565b10156136395760009050613721565b7f000000000000000000000000000000000000000000000000000000000000000061371d7f0000000000000000000000000000000000000000000000000000000000000000600760009054906101000a900473ffffffffffffffffffffffffffffffffffffffff1673ffffffffffffffffffffffffffffffffffffffff1663582256f16040518163ffffffff1660e01b8152600401602060405180830381865afa1580156136eb573d6000803e3d6000fd5b505050506040513d601f19601f8201168201806040525081019061370f9190614638565b61372c90919063ffffffff16565b1190505b90565b600033905090565b6000818361373a9190614e31565b905092915050565b604051806101e00160405280600081526020016000600481111561376957613768613fe9565b5b8152602001600073ffffffffffffffffffffffffffffffffffffffff168152602001600073ffffffffffffffffffffffffffffffffffffffff16815260200160008152602001600081526020016000815260200160608152602001606081526020016000815260200160008152602001600081526020016000815260200160008152602001600081525090565b600081519050919050565b600082825260208201905092915050565b6000819050602082019050919050565b6000819050919050565b61383581613822565b82525050565b6000613847838361382c565b60208301905092915050565b6000602082019050919050565b600061386b826137f6565b6138758185613801565b935061388083613812565b8060005b838110156138b1578151613898888261383b565b97506138a383613853565b925050600181019050613884565b5085935050505092915050565b600060208201905081810360008301526138d88184613860565b905092915050565b6000604051905090565b600080fd5b600080fd5b6138fd81613822565b811461390857600080fd5b50565b60008135905061391a816138f4565b92915050565b600080fd5b600080fd5b6000601f19601f8301169050919050565b7f4e487b7100000000000000000000000000000000000000000000000000000000600052604160045260246000fd5b6139738261392a565b810181811067ffffffffffffffff821117156139925761399161393b565b5b80604052505050565b60006139a56138e0565b90506139b1828261396a565b919050565b600067ffffffffffffffff8211156139d1576139d061393b565b5b6139da8261392a565b9050602081019050919050565b82818337600083830152505050565b6000613a09613a04846139b6565b61399b565b905082815260208101848484011115613a2557613a24613925565b5b613a308482856139e7565b509392505050565b600082601f830112613a4d57613a4c613920565b5b8135613a5d8482602086016139f6565b91505092915050565b600080600080600060a08688031215613a8257613a816138ea565b5b6000613a908882890161390b565b955050602086013567ffffffffffffffff811115613ab157613ab06138ef565b5b613abd88828901613a38565b945050604086013567ffffffffffffffff811115613ade57613add6138ef565b5b613aea88828901613a38565b9350506060613afb8882890161390b565b9250506080613b0c8882890161390b565b9150509295509295909350565b60008060408385031215613b3057613b2f6138ea565b5b6000613b3e8582860161390b565b925050602083013567ffffffffffffffff811115613b5f57613b5e6138ef565b5b613b6b85828601613a38565b9150509250929050565b613b7e81613822565b82525050565b6000602082019050613b996000830184613b75565b92915050565b600080fd5b600080fd5b600073ffffffffffffffffffffffffffffffffffffffff82169050919050565b6000613bd482613ba9565b9050919050565b613be481613bc9565b8114613bef57600080fd5b50565b600081359050613c0181613bdb565b92915050565b60008115159050919050565b613c1c81613c07565b8114613c2757600080fd5b50565b600081359050613c3981613c13565b92915050565b600060208284031215613c5557613c54613b9f565b5b613c5f602061399b565b90506000613c6f8482850161390b565b60008301525092915050565b600060408284031215613c9157613c90613b9f565b5b613c9b604061399b565b90506000613cab84828501613c2a565b6000830152506020613cbf8482850161390b565b60208301525092915050565b60006101a08284031215613ce257613ce1613b9f565b5b613ced61018061399b565b90506000613cfd8482850161390b565b6000830152506020613d1184828501613bf2565b602083015250604082013567ffffffffffffffff811115613d3557613d34613ba4565b5b613d4184828501613a38565b604083015250606082013567ffffffffffffffff811115613d6557613d64613ba4565b5b613d7184828501613a38565b6060830152506080613d858482850161390b565b60808301525060a0613d9984828501613c2a565b60a08301525060c0613dad8482850161390b565b60c08301525060e0613dc18482850161390b565b60e083015250610100613dd684828501613c3f565b61010083015250610120613dec84828501613c7b565b61012083015250610160613e028482850161390b565b61014083015250610180613e188482850161390b565b6101608301525092915050565b600060208284031215613e3b57613e3a6138ea565b5b600082013567ffffffffffffffff811115613e5957613e586138ef565b5b613e6584828501613ccb565b91505092915050565b613e7781613c07565b82525050565b6000602082019050613e926000830184613e6e565b92915050565b600060c08284031215613eae57613ead613b9f565b5b613eb860c061399b565b90506000613ec884828501613bf2565b6000830152506020613edc84828501613bf2565b6020830152506040613ef084828501613bf2565b6040830152506060613f0484828501613bf2565b6060830152506080613f1884828501613bf2565b60808301525060a0613f2c84828501613bf2565b60a08301525092915050565b600060c08284031215613f4e57613f4d6138ea565b5b6000613f5c84828501613e98565b91505092915050565b600060208284031215613f7b57613f7a6138ea565b5b6000613f8984828501613bf2565b91505092915050565b613f9b81613bc9565b82525050565b6000602082019050613fb66000830184613f92565b92915050565b600060208284031215613fd257613fd16138ea565b5b6000613fe08482850161390b565b91505092915050565b7f4e487b7100000000000000000000000000000000000000000000000000000000600052602160045260246000fd5b6005811061402957614028613fe9565b5b50565b600081905061403a82614018565b919050565b600061404a8261402c565b9050919050565b61405a8161403f565b82525050565b61406981613bc9565b82525050565b600081519050919050565b600082825260208201905092915050565b60005b838110156140a957808201518184015260208101905061408e565b60008484015250505050565b60006140c08261406f565b6140ca818561407a565b93506140da81856020860161408b565b6140e38161392a565b840191505092915050565b60006101e083016000830151614107600086018261382c565b50602083015161411a6020860182614051565b50604083015161412d6040860182614060565b5060608301516141406060860182614060565b506080830151614153608086018261382c565b5060a083015161416660a086018261382c565b5060c083015161417960c086018261382c565b5060e083015184820360e086015261419182826140b5565b9150506101008301518482036101008601526141ad82826140b5565b9150506101208301516141c461012086018261382c565b506101408301516141d961014086018261382c565b506101608301516141ee61016086018261382c565b5061018083015161420361018086018261382c565b506101a08301516142186101a086018261382c565b506101c083015161422d6101c086018261382c565b508091505092915050565b6000602082019050818103600083015261425281846140ee565b905092915050565b7f4e487b7100000000000000000000000000000000000000000000000000000000600052602260045260246000fd5b600060028204905060018216806142a157607f821691505b6020821081036142b4576142b361425a565b5b50919050565b600a81106142cb576142ca613fe9565b5b50565b60008190506142dc826142ba565b919050565b60006142ec826142ce565b9050919050565b6142fc816142e1565b82525050565b600060408201905061431760008301856142f3565b6143246020830184613f92565b9392505050565b60008151905061433a81613c13565b92915050565b600060208284031215614356576143556138ea565b5b60006143648482850161432b565b91505092915050565b600082825260208201905092915050565b7f506c6561736520726567697374657220617320696e73706563746f7200000000600082015250565b60006143b4601c8361436d565b91506143bf8261437e565b602082019050919050565b600060208201905081810360008301526143e3816143a7565b9050919050565b7f416363657074207468697320696e7370656374696f6e206265666f7265000000600082015250565b6000614420601d8361436d565b915061442b826143ea565b602082019050919050565b6000602082019050818103600083015261444f81614413565b9050919050565b7f596f752068617665206e6f74206163636570746564207468697320696e73706560008201527f6374696f6e000000000000000000000000000000000000000000000000000000602082015250565b60006144b260258361436d565b91506144bd82614456565b604082019050919050565b600060208201905081810360008301526144e1816144a5565b9050919050565b7f4e487b7100000000000000000000000000000000000000000000000000000000600052601160045260246000fd5b600061452282613822565b915061452d83613822565b9250828201905080821115614545576145446144e8565b5b92915050565b7f496e7370656374696f6e20457870697265640000000000000000000000000000600082015250565b600061458160128361436d565b915061458c8261454b565b602082019050919050565b600060208201905081810360008301526145b081614574565b9050919050565b7f506c656173652072656769737465722061732076616c696461746f7200000000600082015250565b60006145ed601c8361436d565b91506145f8826145b7565b602082019050919050565b6000602082019050818103600083015261461c816145e0565b9050919050565b600081519050614632816138f4565b92915050565b60006020828403121561464e5761464d6138ea565b5b600061465c84828501614623565b91505092915050565b7f43616e206e6f74206164642076616c69646174696f6e20616e796d6f72650000600082015250565b600061469b601e8361436d565b91506146a682614665565b602082019050919050565b600060208201905081810360008301526146ca8161468e565b9050919050565b60008190508160005260206000209050919050565b60006020601f8301049050919050565b600082821b905092915050565b6000600883026147337fffffffffffffffffffffffffffffffffffffffffffffffffffffffffffffffff826146f6565b61473d86836146f6565b95508019841693508086168417925050509392505050565b6000819050919050565b600061477a61477561477084613822565b614755565b613822565b9050919050565b6000819050919050565b6147948361475f565b6147a86147a082614781565b848454614703565b825550505050565b600090565b6147bd6147b0565b6147c881848461478b565b505050565b5b818110156147ec576147e16000826147b5565b6001810190506147ce565b5050565b601f82111561483157614802816146d1565b61480b846146e6565b8101602085101561481a578190505b61482e614826856146e6565b8301826147cd565b50505b505050565b600082821c905092915050565b600061485460001984600802614836565b1980831691505092915050565b600061486d8383614843565b9150826002028217905092915050565b6148868261406f565b67ffffffffffffffff81111561489f5761489e61393b565b5b6148a98254614289565b6148b48282856147f0565b600060209050601f8311600181146148e757600084156148d5578287015190505b6148df8582614861565b865550614947565b601f1984166148f5866146d1565b60005b8281101561491d578489015182556001820191506020850194506020810190506148f8565b8683101561493a5784890151614936601f891682614843565b8355505b6001600288020188555050505b505050505050565b600061495a8261406f565b614964818561436d565b935061497481856020860161408b565b61497d8161392a565b840191505092915050565b600060608201905081810360008301526149a281866140ee565b905081810360208301526149b6818561494f565b90506149c56040830184613f92565b949350505050565b6000815190506149dc81613bdb565b92915050565b60006149f56149f0846139b6565b61399b565b905082815260208101848484011115614a1157614a10613925565b5b614a1c84828561408b565b509392505050565b600082601f830112614a3957614a38613920565b5b8151614a498482602086016149e2565b91505092915050565b600060208284031215614a6857614a67613b9f565b5b614a72602061399b565b90506000614a8284828501614623565b60008301525092915050565b600060408284031215614aa457614aa3613b9f565b5b614aae604061399b565b90506000614abe8482850161432b565b6000830152506020614ad284828501614623565b60208301525092915050565b60006101a08284031215614af557614af4613b9f565b5b614b0061018061399b565b90506000614b1084828501614623565b6000830152506020614b24848285016149cd565b602083015250604082015167ffffffffffffffff811115614b4857614b47613ba4565b5b614b5484828501614a24565b604083015250606082015167ffffffffffffffff811115614b7857614b77613ba4565b5b614b8484828501614a24565b6060830152506080614b9884828501614623565b60808301525060a0614bac8482850161432b565b60a08301525060c0614bc084828501614623565b60c08301525060e0614bd484828501614623565b60e083015250610100614be984828501614a52565b61010083015250610120614bff84828501614a8e565b61012083015250610160614c1584828501614623565b61014083015250610180614c2b84828501614623565b6101608301525092915050565b600060208284031215614c4e57614c4d6138ea565b5b600082015167ffffffffffffffff811115614c6c57614c6b6138ef565b5b614c7884828501614ade565b91505092915050565b7f506c6561736520726567697374657220617320726567656e657261746f720000600082015250565b6000614cb7601e8361436d565b9150614cc282614c81565b602082019050919050565b60006020820190508181036000830152614ce681614caa565b9050919050565b7f5265717565737420616c7265616479204f50454e000000000000000000000000600082015250565b6000614d2360148361436d565b9150614d2e82614ced565b602082019050919050565b60006020820190508181036000830152614d5281614d16565b9050919050565b7f5761697420746f20726571756573740000000000000000000000000000000000600082015250565b6000614d8f600f8361436d565b9150614d9a82614d59565b602082019050919050565b60006020820190508181036000830152614dbe81614d82565b9050919050565b7f596f75206861766520636f6d706c6574656420796f7572206d697373696f6e00600082015250565b6000614dfb601f8361436d565b9150614e0682614dc5565b602082019050919050565b60006020820190508181036000830152614e2a81614dee565b9050919050565b6000614e3c82613822565b9150614e4783613822565b9250828203905081811115614e5f57614e5e6144e8565b5b92915050565b7f4e6f206d6f7265207468616e2033206769766555707320616c6c6f7765640000600082015250565b6000614e9b601e8361436d565b9150614ea682614e65565b602082019050919050565b60006020820190508181036000830152614eca81614e8e565b9050919050565b7f5468697320696e7370656374696f6e20646f206e6f7420657869737400000000600082015250565b6000614f07601c8361436d565b9150614f1282614ed1565b602082019050919050565b60006020820190508181036000830152614f3681614efa565b9050919050565b7f596f7520616c7265616479206861766520616e20696e7370656374696f6e204160008201527f6363657074656400000000000000000000000000000000000000000000000000602082015250565b6000614f9960278361436d565b9150614fa482614f3d565b604082019050919050565b60006020820190508181036000830152614fc881614f8c565b9050919050565b7f416c726561647920696e73706563746564207468697320726567656e6572617460008201527f6f72000000000000000000000000000000000000000000000000000000000000602082015250565b600061502b60228361436d565b915061503682614fcf565b604082019050919050565b6000602082019050818103600083015261505a8161501e565b9050919050565b7f5468697320696e7370656374696f6e206973206e6f74204f50454e0000000000600082015250565b6000615097601b8361436d565b91506150a282615061565b602082019050919050565b600060208201905081810360008301526150c68161508a565b9050919050565b7f5761697420696e7370656374696f6e2064656c617920626c6f636b7300000000600082015250565b6000615103601c8361436d565b915061510e826150cd565b602082019050919050565b60006020820190508181036000830152615132816150f6565b9050919050565b7f5761697420756e74696c206e6578742065726120746f20616363657074000000600082015250565b600061516f601d8361436d565b915061517a82615139565b602082019050919050565b6000602082019050818103600083015261519e81615162565b9050919050565b60006040820190506151ba6000830185613f92565b6151c76020830184613b75565b9392505050565b7f4f776e61626c653a206e6577206f776e657220697320746865207a65726f206160008201527f6464726573730000000000000000000000000000000000000000000000000000602082015250565b600061522a60268361436d565b9150615235826151ce565b604082019050919050565b600060208201905081810360008301526152598161521d565b9050919050565b60006040820190506152756000830185613b75565b6152826020830184613b75565b9392505050565b600060808201905061529e6000830187613f92565b6152ab6020830186613b75565b6152b86040830185613f92565b6152c56060830184613b75565b95945050505050565b60006152d982613822565b9150600082036152ec576152eb6144e8565b5b600182039050919050565b7f4f776e61626c653a2063616c6c6572206973206e6f7420746865206f776e6572600082015250565b600061532d60208361436d565b9150615338826152f7565b602082019050919050565b6000602082019050818103600083015261535c81615320565b9050919050565b600061536e82613822565b91507fffffffffffffffffffffffffffffffffffffffffffffffffffffffffffffffff82036153a05761539f6144e8565b5b600182019050919050565b6000604082840312156153c1576153c0613b9f565b5b6153cb604061399b565b905060006153db84828501614623565b60008301525060206153ef84828501614623565b60208301525092915050565b6000610160828403121561541257615411613b9f565b5b61541d61014061399b565b9050600061542d84828501614623565b6000830152506020615441848285016149cd565b602083015250604082015167ffffffffffffffff81111561546557615464613ba4565b5b61547184828501614a24565b604083015250606082015167ffffffffffffffff81111561549557615494613ba4565b5b6154a184828501614a24565b60608301525060806154b584828501614623565b60808301525060a06154c984828501614623565b60a08301525060c06154dd84828501614623565b60c08301525060e06154f184828501614623565b60e083015250610100615506848285016153ab565b6101008301525061014061551c84828501614623565b6101208301525092915050565b60006020828403121561553f5761553e6138ea565b5b600082015167ffffffffffffffff81111561555d5761555c6138ef565b5b615569848285016153fb565b9150509291505056fea2646970667358221220e16e8263968612134f032fe0cb3f7c145c8fc4f5eb1e096e210104033453964364736f6c634300081b0033",
  "linkReferences": {},
  "deployedLinkReferences": {}
}