{
  "_format": "hh-sol-artifact-1",
  "contractName": "InspectorRules",
  "sourceName": "contracts/InspectorRules.sol",
  "abi": [
    {
      "inputs": [
        {
          "internalType": "address",
          "name": "communityRulesAddress",
          "type": "address"
        },
        {
          "internalType": "address",
          "name": "inspectorPoolAddress",
          "type": "address"
        },
        {
          "internalType": "uint256",
          "name": "maxPenalties_",
          "type": "uint256"
        }
      ],
      "stateMutability": "nonpayable",
      "type": "constructor"
    },
    {
      "anonymous": false,
      "inputs": [
        {
          "indexed": true,
          "internalType": "address",
          "name": "previousOwner",
          "type": "address"
        },
        {
          "indexed": true,
          "internalType": "address",
          "name": "newOwner",
          "type": "address"
        }
      ],
      "name": "OwnershipTransferred",
      "type": "event"
    },
    {
      "inputs": [
        {
          "internalType": "string",
          "name": "name",
          "type": "string"
        },
        {
          "internalType": "string",
          "name": "proofPhoto",
          "type": "string"
        }
      ],
      "name": "addInspector",
      "outputs": [
        {
          "components": [
            {
              "internalType": "uint256",
              "name": "id",
              "type": "uint256"
            },
            {
              "internalType": "address",
              "name": "inspectorWallet",
              "type": "address"
            },
            {
              "internalType": "string",
              "name": "name",
              "type": "string"
            },
            {
              "internalType": "string",
              "name": "proofPhoto",
              "type": "string"
            },
            {
              "internalType": "uint256",
              "name": "totalInspections",
              "type": "uint256"
            },
            {
              "internalType": "uint256",
              "name": "giveUps",
              "type": "uint256"
            },
            {
              "internalType": "uint256",
              "name": "lastAcceptedAt",
              "type": "uint256"
            },
            {
              "internalType": "uint256",
              "name": "lastInspection",
              "type": "uint256"
            },
            {
              "components": [
                {
                  "internalType": "uint256",
                  "name": "level",
                  "type": "uint256"
                },
                {
                  "internalType": "uint256",
                  "name": "currentEra",
                  "type": "uint256"
                }
              ],
              "internalType": "struct Pool",
              "name": "pool",
              "type": "tuple"
            },
            {
              "internalType": "uint256",
              "name": "createdAt",
              "type": "uint256"
            }
          ],
          "internalType": "struct Inspector",
          "name": "",
          "type": "tuple"
        }
      ],
      "stateMutability": "nonpayable",
      "type": "function"
    },
    {
      "inputs": [
        {
          "internalType": "address",
          "name": "addr",
          "type": "address"
        },
        {
          "internalType": "uint256",
          "name": "inspectionId",
          "type": "uint256"
        }
      ],
      "name": "addPenalty",
      "outputs": [
        {
          "internalType": "uint256",
          "name": "",
          "type": "uint256"
        }
      ],
      "stateMutability": "nonpayable",
      "type": "function"
    },
    {
      "inputs": [
        {
          "internalType": "address",
          "name": "addr",
          "type": "address"
        },
        {
          "internalType": "uint256",
          "name": "lastInspectionId",
          "type": "uint256"
        }
      ],
      "name": "afterAcceptInspection",
      "outputs": [],
      "stateMutability": "nonpayable",
      "type": "function"
    },
    {
      "inputs": [
        {
          "internalType": "address",
          "name": "addr",
          "type": "address"
        }
      ],
      "name": "afterRealizeInspection",
      "outputs": [
        {
          "internalType": "uint256",
          "name": "",
          "type": "uint256"
        }
      ],
      "stateMutability": "nonpayable",
      "type": "function"
    },
    {
      "inputs": [
        {
          "internalType": "address",
          "name": "",
          "type": "address"
        }
      ],
      "name": "allowedCallers",
      "outputs": [
        {
          "internalType": "bool",
          "name": "",
          "type": "bool"
        }
      ],
      "stateMutability": "view",
      "type": "function"
    },
    {
      "inputs": [
        {
          "internalType": "address",
          "name": "addr",
          "type": "address"
        }
      ],
      "name": "decrementInspections",
      "outputs": [],
      "stateMutability": "nonpayable",
      "type": "function"
    },
    {
      "inputs": [
        {
          "internalType": "address",
          "name": "addr",
          "type": "address"
        }
      ],
      "name": "getInspector",
      "outputs": [
        {
          "components": [
            {
              "internalType": "uint256",
              "name": "id",
              "type": "uint256"
            },
            {
              "internalType": "address",
              "name": "inspectorWallet",
              "type": "address"
            },
            {
              "internalType": "string",
              "name": "name",
              "type": "string"
            },
            {
              "internalType": "string",
              "name": "proofPhoto",
              "type": "string"
            },
            {
              "internalType": "uint256",
              "name": "totalInspections",
              "type": "uint256"
            },
            {
              "internalType": "uint256",
              "name": "giveUps",
              "type": "uint256"
            },
            {
              "internalType": "uint256",
              "name": "lastAcceptedAt",
              "type": "uint256"
            },
            {
              "internalType": "uint256",
              "name": "lastInspection",
              "type": "uint256"
            },
            {
              "components": [
                {
                  "internalType": "uint256",
                  "name": "level",
                  "type": "uint256"
                },
                {
                  "internalType": "uint256",
                  "name": "currentEra",
                  "type": "uint256"
                }
              ],
              "internalType": "struct Pool",
              "name": "pool",
              "type": "tuple"
            },
            {
              "internalType": "uint256",
              "name": "createdAt",
              "type": "uint256"
            }
          ],
          "internalType": "struct Inspector",
          "name": "",
          "type": "tuple"
        }
      ],
      "stateMutability": "view",
      "type": "function"
    },
    {
      "inputs": [
        {
          "internalType": "address",
          "name": "addr",
          "type": "address"
        }
      ],
      "name": "inspectorExists",
      "outputs": [
        {
          "internalType": "bool",
          "name": "",
          "type": "bool"
        }
      ],
      "stateMutability": "view",
      "type": "function"
    },
    {
      "inputs": [
        {
          "internalType": "uint256",
          "name": "",
          "type": "uint256"
        }
      ],
      "name": "inspectorsAddress",
      "outputs": [
        {
          "internalType": "address",
          "name": "",
          "type": "address"
        }
      ],
      "stateMutability": "view",
      "type": "function"
    },
    {
      "inputs": [
        {
          "internalType": "address",
          "name": "caller",
          "type": "address"
        }
      ],
      "name": "isAllowedCaller",
      "outputs": [
        {
          "internalType": "bool",
          "name": "",
          "type": "bool"
        }
      ],
      "stateMutability": "view",
      "type": "function"
    },
    {
      "inputs": [
        {
          "internalType": "address",
          "name": "addr",
          "type": "address"
        }
      ],
      "name": "isInspectorValid",
      "outputs": [
        {
          "internalType": "bool",
          "name": "",
          "type": "bool"
        }
      ],
      "stateMutability": "view",
      "type": "function"
    },
    {
      "inputs": [],
      "name": "maxPenalties",
      "outputs": [
        {
          "internalType": "uint256",
          "name": "",
          "type": "uint256"
        }
      ],
      "stateMutability": "view",
      "type": "function"
    },
    {
      "inputs": [
        {
          "internalType": "address",
          "name": "allowed",
          "type": "address"
        }
      ],
      "name": "newAllowedCaller",
      "outputs": [],
      "stateMutability": "nonpayable",
      "type": "function"
    },
    {
      "inputs": [],
      "name": "owner",
      "outputs": [
        {
          "internalType": "address",
          "name": "",
          "type": "address"
        }
      ],
      "stateMutability": "view",
      "type": "function"
    },
    {
      "inputs": [
        {
          "internalType": "address",
          "name": "",
          "type": "address"
        },
        {
          "internalType": "uint256",
          "name": "",
          "type": "uint256"
        }
      ],
      "name": "penalties",
      "outputs": [
        {
          "internalType": "uint256",
          "name": "inspectionId",
          "type": "uint256"
        }
      ],
      "stateMutability": "view",
      "type": "function"
    },
    {
      "inputs": [
        {
          "internalType": "address",
          "name": "addr",
          "type": "address"
        },
        {
          "internalType": "uint256",
          "name": "removeSomeLevels",
          "type": "uint256"
        }
      ],
      "name": "removePoolLevels",
      "outputs": [],
      "stateMutability": "nonpayable",
      "type": "function"
    },
    {
      "inputs": [],
      "name": "renounceOwnership",
      "outputs": [],
      "stateMutability": "nonpayable",
      "type": "function"
    },
    {
      "inputs": [
        {
          "internalType": "address",
          "name": "addr",
          "type": "address"
        }
      ],
      "name": "totalPenalties",
      "outputs": [
        {
          "internalType": "uint256",
          "name": "",
          "type": "uint256"
        }
      ],
      "stateMutability": "view",
      "type": "function"
    },
    {
      "inputs": [
        {
          "internalType": "address",
          "name": "newOwner",
          "type": "address"
        }
      ],
      "name": "transferOwnership",
      "outputs": [],
      "stateMutability": "nonpayable",
      "type": "function"
    },
    {
      "inputs": [],
      "name": "withdraw",
      "outputs": [],
      "stateMutability": "nonpayable",
      "type": "function"
    }
  ],
  "bytecode": "0x60a060405234801561001057600080fd5b506040516133c43803806133c483398181016040528101906100329190610245565b61004e6100436100e060201b60201c565b6100e860201b60201c565b82600560006101000a81548173ffffffffffffffffffffffffffffffffffffffff021916908373ffffffffffffffffffffffffffffffffffffffff16021790555081600660006101000a81548173ffffffffffffffffffffffffffffffffffffffff021916908373ffffffffffffffffffffffffffffffffffffffff1602179055508060808181525050505050610298565b600033905090565b60008060009054906101000a900473ffffffffffffffffffffffffffffffffffffffff169050816000806101000a81548173ffffffffffffffffffffffffffffffffffffffff021916908373ffffffffffffffffffffffffffffffffffffffff1602179055508173ffffffffffffffffffffffffffffffffffffffff168173ffffffffffffffffffffffffffffffffffffffff167f8be0079c531659141344cd1fd0a4f28419497f9722a3daafe3b4186f6b6457e060405160405180910390a35050565b600080fd5b600073ffffffffffffffffffffffffffffffffffffffff82169050919050565b60006101dc826101b1565b9050919050565b6101ec816101d1565b81146101f757600080fd5b50565b600081519050610209816101e3565b92915050565b6000819050919050565b6102228161020f565b811461022d57600080fd5b50565b60008151905061023f81610219565b92915050565b60008060006060848603121561025e5761025d6101ac565b5b600061026c868287016101fa565b935050602061027d868287016101fa565b925050604061028e86828701610230565b9150509250925092565b6080516131116102b3600039600061147301526131116000f3fe608060405234801561001057600080fd5b506004361061012c5760003560e01c80638f93716f116100ad578063c3c983d211610071578063c3c983d214610369578063d518ad5f14610385578063da65b13b146103a1578063e8f7dfcf146103d1578063f2fde38b146104015761012c565b80638f93716f1461029f5780639c960450146102bb578063a1ce8d3a146102eb578063a68012581461031b578063b24eb7691461034b5761012c565b80634d5ff1d3116100f45780634d5ff1d3146101e75780635fa71c2814610217578063715018a6146102475780637b334154146102515780638da5cb5b146102815761012c565b80630da0933a1461013157806318ad5c9a146101615780631b63a43c1461017d5780632076267b146101ad5780633ccfd60b146101dd575b600080fd5b61014b60048036038101906101469190612278565b61041d565b60405161015891906122e6565b60405180910390f35b61017b6004803603810190610176919061232d565b610450565b005b6101976004803603810190610192919061232d565b610862565b6040516101a4919061237c565b60405180910390f35b6101c760048036038101906101c29190612397565b610980565b6040516101d4919061237c565b60405180910390f35b6101e56109cc565b005b61020160048036038101906101fc9190612397565b610efa565b60405161020e91906123df565b60405180910390f35b610231600480360381019061022c919061232d565b610f49565b60405161023e919061237c565b60405180910390f35b61024f610f80565b005b61026b60048036038101906102669190612397565b610f94565b60405161027891906123df565b60405180910390f35b610289610fb4565b60405161029691906122e6565b60405180910390f35b6102b960048036038101906102b49190612397565b610fdd565b005b6102d560048036038101906102d09190612540565b61103f565b6040516102e29190612765565b60405180910390f35b61030560048036038101906103009190612397565b611374565b604051610312919061237c565b60405180910390f35b61033560048036038101906103309190612397565b61141b565b60405161034291906123df565b60405180910390f35b610353611471565b604051610360919061237c565b60405180910390f35b610383600480360381019061037e9190612397565b611495565b005b61039f600480360381019061039a919061232d565b611601565b005b6103bb60048036038101906103b69190612397565b6116a4565b6040516103c891906123df565b60405180910390f35b6103eb60048036038101906103e69190612397565b6116fe565b6040516103f89190612765565b60405180910390f35b61041b60048036038101906104169190612397565b611936565b005b60046020528060005260406000206000915054906101000a900473ffffffffffffffffffffffffffffffffffffffff1681565b600160003373ffffffffffffffffffffffffffffffffffffffff1673ffffffffffffffffffffffffffffffffffffffff16815260200190815260200160002060009054906101000a900460ff166104dc576040517f08c379a00000000000000000000000000000000000000000000000000000000081526004016104d3906127e4565b60405180910390fd5b6000600260008473ffffffffffffffffffffffffffffffffffffffff1673ffffffffffffffffffffffffffffffffffffffff16815260200190815260200160002060405180610140016040529081600082015481526020016001820160009054906101000a900473ffffffffffffffffffffffffffffffffffffffff1673ffffffffffffffffffffffffffffffffffffffff1673ffffffffffffffffffffffffffffffffffffffff16815260200160028201805461059990612833565b80601f01602080910402602001604051908101604052809291908181526020018280546105c590612833565b80156106125780601f106105e757610100808354040283529160200191610612565b820191906000526020600020905b8154815290600101906020018083116105f557829003601f168201915b5050505050815260200160038201805461062b90612833565b80601f016020809104026020016040519081016040528092919081815260200182805461065790612833565b80156106a45780601f10610679576101008083540402835291602001916106a4565b820191906000526020600020905b81548152906001019060200180831161068757829003601f168201915b505050505081526020016004820154815260200160058201548152602001600682015481526020016007820154815260200160088201604051806040016040529081600082015481526020016001820154815250508152602001600a8201548152505090506000820361075d576000600260008573ffffffffffffffffffffffffffffffffffffffff1673ffffffffffffffffffffffffffffffffffffffff168152602001908152602001600020600801600001819055505b60008211156107c35781600260008573ffffffffffffffffffffffffffffffffffffffff1673ffffffffffffffffffffffffffffffffffffffff16815260200190815260200160002060080160000160008282546107bb9190612893565b925050819055505b600660009054906101000a900473ffffffffffffffffffffffffffffffffffffffff1673ffffffffffffffffffffffffffffffffffffffff1663157ffc528483610100015160200151856040518463ffffffff1660e01b815260040161082b939291906128c7565b600060405180830381600087803b15801561084557600080fd5b505af1158015610859573d6000803e3d6000fd5b50505050505050565b6000600160003373ffffffffffffffffffffffffffffffffffffffff1673ffffffffffffffffffffffffffffffffffffffff16815260200190815260200160002060009054906101000a900460ff166108f0576040517f08c379a00000000000000000000000000000000000000000000000000000000081526004016108e7906127e4565b60405180910390fd5b600360008473ffffffffffffffffffffffffffffffffffffffff1673ffffffffffffffffffffffffffffffffffffffff1681526020019081526020016000206040518060200160405280848152509080600181540180825580915050600190039060005260206000200160009091909190915060008201518160000155505061097883610980565b905092915050565b6000600360008373ffffffffffffffffffffffffffffffffffffffff1673ffffffffffffffffffffffffffffffffffffffff168152602001908152602001600020805490509050919050565b600560009054906101000a900473ffffffffffffffffffffffffffffffffffffffff1673ffffffffffffffffffffffffffffffffffffffff16639497c6086002336040518363ffffffff1660e01b8152600401610a2a929190612975565b602060405180830381865afa158015610a47573d6000803e3d6000fd5b505050506040513d601f19601f82011682018060405250810190610a6b91906129ca565b610aaa576040517f08c379a0000000000000000000000000000000000000000000000000000000008152600401610aa190612a43565b60405180910390fd5b6000600260003373ffffffffffffffffffffffffffffffffffffffff1673ffffffffffffffffffffffffffffffffffffffff16815260200190815260200160002060405180610140016040529081600082015481526020016001820160009054906101000a900473ffffffffffffffffffffffffffffffffffffffff1673ffffffffffffffffffffffffffffffffffffffff1673ffffffffffffffffffffffffffffffffffffffff168152602001600282018054610b6790612833565b80601f0160208091040260200160405190810160405280929190818152602001828054610b9390612833565b8015610be05780601f10610bb557610100808354040283529160200191610be0565b820191906000526020600020905b815481529060010190602001808311610bc357829003601f168201915b50505050508152602001600382018054610bf990612833565b80601f0160208091040260200160405190810160405280929190818152602001828054610c2590612833565b8015610c725780601f10610c4757610100808354040283529160200191610c72565b820191906000526020600020905b815481529060010190602001808311610c5557829003601f168201915b505050505081526020016004820154815260200160058201548152602001600682015481526020016007820154815260200160088201604051806040016040529081600082015481526020016001820154815250508152602001600a820154815250509050610ce481608001516119b9565b610d23576040517f08c379a0000000000000000000000000000000000000000000000000000000008152600401610d1a90612aaf565b60405180910390fd5b6000816101000151602001519050600660009054906101000a900473ffffffffffffffffffffffffffffffffffffffff1673ffffffffffffffffffffffffffffffffffffffff1663fbe85f06826040518263ffffffff1660e01b8152600401610d8c919061237c565b602060405180830381865afa158015610da9573d6000803e3d6000fd5b505050506040513d601f19601f82011682018060405250810190610dcd91906129ca565b610e0c576040517f08c379a0000000000000000000000000000000000000000000000000000000008152600401610e0390612b1b565b60405180910390fd5b600260003373ffffffffffffffffffffffffffffffffffffffff1673ffffffffffffffffffffffffffffffffffffffff1681526020019081526020016000206008016001016000815480929190610e6290612b3b565b9190505550600660009054906101000a900473ffffffffffffffffffffffffffffffffffffffff1673ffffffffffffffffffffffffffffffffffffffff1663f3fef3a333836040518363ffffffff1660e01b8152600401610ec4929190612b83565b600060405180830381600087803b158015610ede57600080fd5b505af1158015610ef2573d6000803e3d6000fd5b505050505050565b60006003600260008473ffffffffffffffffffffffffffffffffffffffff1673ffffffffffffffffffffffffffffffffffffffff16815260200190815260200160002060050154109050919050565b60036020528160005260406000208181548110610f6557600080fd5b90600052602060002001600091509150508060000154905081565b610f886119c7565b610f926000611a45565b565b60016020528060005260406000206000915054906101000a900460ff1681565b60008060009054906101000a900473ffffffffffffffffffffffffffffffffffffffff16905090565b610fe56119c7565b60018060008373ffffffffffffffffffffffffffffffffffffffff1673ffffffffffffffffffffffffffffffffffffffff16815260200190815260200160002060006101000a81548160ff02191690831515021790555050565b6110476121a5565b60006001600560009054906101000a900473ffffffffffffffffffffffffffffffffffffffff1673ffffffffffffffffffffffffffffffffffffffff16631eb2c12060026040518263ffffffff1660e01b81526004016110a79190612bac565b602060405180830381865afa1580156110c4573d6000803e3d6000fd5b505050506040513d601f19601f820116820180604052508101906110e89190612bdc565b6110f29190612c09565b905060006040518061014001604052808381526020013373ffffffffffffffffffffffffffffffffffffffff16815260200186815260200185815260200160008152602001600081526020016000815260200160008152602001604051806040016040528060008152602001611166611b09565b815250815260200143815250905080600260003373ffffffffffffffffffffffffffffffffffffffff1673ffffffffffffffffffffffffffffffffffffffff1681526020019081526020016000206000820151816000015560208201518160010160006101000a81548173ffffffffffffffffffffffffffffffffffffffff021916908373ffffffffffffffffffffffffffffffffffffffff160217905550604082015181600201908161121a9190612de9565b5060608201518160030190816112309190612de9565b506080820151816004015560a0820151816005015560c0820151816006015560e08201518160070155610100820151816008016000820151816000015560208201518160010155505061012082015181600a0155905050336004600084815260200190815260200160002060006101000a81548173ffffffffffffffffffffffffffffffffffffffff021916908373ffffffffffffffffffffffffffffffffffffffff160217905550600560009054906101000a900473ffffffffffffffffffffffffffffffffffffffff1673ffffffffffffffffffffffffffffffffffffffff16639c3eead93360026040518363ffffffff1660e01b8152600401611337929190612ebb565b600060405180830381600087803b15801561135157600080fd5b505af1158015611365573d6000803e3d6000fd5b50505050809250505092915050565b6000600160003373ffffffffffffffffffffffffffffffffffffffff1673ffffffffffffffffffffffffffffffffffffffff16815260200190815260200160002060009054906101000a900460ff16611402576040517f08c379a00000000000000000000000000000000000000000000000000000000081526004016113f9906127e4565b60405180910390fd5b61140b82611ba1565b61141482611bfc565b9050919050565b6000600160008373ffffffffffffffffffffffffffffffffffffffff1673ffffffffffffffffffffffffffffffffffffffff16815260200190815260200160002060009054906101000a900460ff169050919050565b7f000000000000000000000000000000000000000000000000000000000000000081565b600160003373ffffffffffffffffffffffffffffffffffffffff1673ffffffffffffffffffffffffffffffffffffffff16815260200190815260200160002060009054906101000a900460ff16611521576040517f08c379a0000000000000000000000000000000000000000000000000000000008152600401611518906127e4565b60405180910390fd5b6000600260008373ffffffffffffffffffffffffffffffffffffffff1673ffffffffffffffffffffffffffffffffffffffff16815260200190815260200160002060040154116115a6576040517f08c379a000000000000000000000000000000000000000000000000000000000815260040161159d90612f30565b60405180910390fd5b600260008273ffffffffffffffffffffffffffffffffffffffff1673ffffffffffffffffffffffffffffffffffffffff16815260200190815260200160002060040160008154809291906115f990612f50565b919050555050565b600160003373ffffffffffffffffffffffffffffffffffffffff1673ffffffffffffffffffffffffffffffffffffffff16815260200190815260200160002060009054906101000a900460ff1661168d576040517f08c379a0000000000000000000000000000000000000000000000000000000008152600401611684906127e4565b60405180910390fd5b6116978282611ca9565b6116a082611d3b565b5050565b600080600260008473ffffffffffffffffffffffffffffffffffffffff1673ffffffffffffffffffffffffffffffffffffffff16815260200190815260200160002060020180546116f490612833565b9050119050919050565b6117066121a5565b600260008373ffffffffffffffffffffffffffffffffffffffff1673ffffffffffffffffffffffffffffffffffffffff16815260200190815260200160002060405180610140016040529081600082015481526020016001820160009054906101000a900473ffffffffffffffffffffffffffffffffffffffff1673ffffffffffffffffffffffffffffffffffffffff1673ffffffffffffffffffffffffffffffffffffffff1681526020016002820180546117c190612833565b80601f01602080910402602001604051908101604052809291908181526020018280546117ed90612833565b801561183a5780601f1061180f5761010080835404028352916020019161183a565b820191906000526020600020905b81548152906001019060200180831161181d57829003601f168201915b5050505050815260200160038201805461185390612833565b80601f016020809104026020016040519081016040528092919081815260200182805461187f90612833565b80156118cc5780601f106118a1576101008083540402835291602001916118cc565b820191906000526020600020905b8154815290600101906020018083116118af57829003601f168201915b505050505081526020016004820154815260200160058201548152602001600682015481526020016007820154815260200160088201604051806040016040529081600082015481526020016001820154815250508152602001600a820154815250509050919050565b61193e6119c7565b600073ffffffffffffffffffffffffffffffffffffffff168173ffffffffffffffffffffffffffffffffffffffff16036119ad576040517f08c379a00000000000000000000000000000000000000000000000000000000081526004016119a490612feb565b60405180910390fd5b6119b681611a45565b50565b600060038210159050919050565b6119cf611d96565b73ffffffffffffffffffffffffffffffffffffffff166119ed610fb4565b73ffffffffffffffffffffffffffffffffffffffff1614611a43576040517f08c379a0000000000000000000000000000000000000000000000000000000008152600401611a3a90613057565b60405180910390fd5b565b60008060009054906101000a900473ffffffffffffffffffffffffffffffffffffffff169050816000806101000a81548173ffffffffffffffffffffffffffffffffffffffff021916908373ffffffffffffffffffffffffffffffffffffffff1602179055508173ffffffffffffffffffffffffffffffffffffffff168173ffffffffffffffffffffffffffffffffffffffff167f8be0079c531659141344cd1fd0a4f28419497f9722a3daafe3b4186f6b6457e060405160405180910390a35050565b6000600660009054906101000a900473ffffffffffffffffffffffffffffffffffffffff1673ffffffffffffffffffffffffffffffffffffffff1663ed0df79e6040518163ffffffff1660e01b8152600401602060405180830381865afa158015611b78573d6000803e3d6000fd5b505050506040513d601f19601f82011682018060405250810190611b9c9190612bdc565b905090565b600260008273ffffffffffffffffffffffffffffffffffffffff1673ffffffffffffffffffffffffffffffffffffffff1681526020019081526020016000206005016000815480929190611bf490612f50565b919050555050565b6000600260008373ffffffffffffffffffffffffffffffffffffffff1673ffffffffffffffffffffffffffffffffffffffff1681526020019081526020016000206004016000815480929190611c5190612b3b565b9190505550611c5f82611d9e565b600260008373ffffffffffffffffffffffffffffffffffffffff1673ffffffffffffffffffffffffffffffffffffffff168152602001908152602001600020600401549050919050565b43600260008473ffffffffffffffffffffffffffffffffffffffff1673ffffffffffffffffffffffffffffffffffffffff1681526020019081526020016000206006018190555080600260008473ffffffffffffffffffffffffffffffffffffffff1673ffffffffffffffffffffffffffffffffffffffff168152602001908152602001600020600701819055505050565b600260008273ffffffffffffffffffffffffffffffffffffffff1673ffffffffffffffffffffffffffffffffffffffff1681526020019081526020016000206005016000815480929190611d8e90612b3b565b919050555050565b600033905090565b6000600260008373ffffffffffffffffffffffffffffffffffffffff1673ffffffffffffffffffffffffffffffffffffffff16815260200190815260200160002060405180610140016040529081600082015481526020016001820160009054906101000a900473ffffffffffffffffffffffffffffffffffffffff1673ffffffffffffffffffffffffffffffffffffffff1673ffffffffffffffffffffffffffffffffffffffff168152602001600282018054611e5b90612833565b80601f0160208091040260200160405190810160405280929190818152602001828054611e8790612833565b8015611ed45780601f10611ea957610100808354040283529160200191611ed4565b820191906000526020600020905b815481529060010190602001808311611eb757829003601f168201915b50505050508152602001600382018054611eed90612833565b80601f0160208091040260200160405190810160405280929190818152602001828054611f1990612833565b8015611f665780601f10611f3b57610100808354040283529160200191611f66565b820191906000526020600020905b815481529060010190602001808311611f4957829003601f168201915b505050505081526020016004820154815260200160058201548152602001600682015481526020016007820154815260200160088201604051806040016040529081600082015481526020016001820154815250508152602001600a8201548152505090508061010001516000018051809190611fe290612b3b565b8152505080600260008473ffffffffffffffffffffffffffffffffffffffff1673ffffffffffffffffffffffffffffffffffffffff1681526020019081526020016000206000820151816000015560208201518160010160006101000a81548173ffffffffffffffffffffffffffffffffffffffff021916908373ffffffffffffffffffffffffffffffffffffffff160217905550604082015181600201908161208c9190612de9565b5060608201518160030190816120a29190612de9565b506080820151816004015560a0820151816005015560c0820151816006015560e08201518160070155610100820151816008016000820151816000015560208201518160010155505061012082015181600a015590505061210681608001516119b9565b61211057506121a2565b600660009054906101000a900473ffffffffffffffffffffffffffffffffffffffff1673ffffffffffffffffffffffffffffffffffffffff166352b8d3ed8360016040518363ffffffff1660e01b815260040161216e9291906130b2565b600060405180830381600087803b15801561218857600080fd5b505af115801561219c573d6000803e3d6000fd5b50505050505b50565b60405180610140016040528060008152602001600073ffffffffffffffffffffffffffffffffffffffff168152602001606081526020016060815260200160008152602001600081526020016000815260200160008152602001612207612214565b8152602001600081525090565b604051806040016040528060008152602001600081525090565b6000604051905090565b600080fd5b600080fd5b6000819050919050565b61225581612242565b811461226057600080fd5b50565b6000813590506122728161224c565b92915050565b60006020828403121561228e5761228d612238565b5b600061229c84828501612263565b91505092915050565b600073ffffffffffffffffffffffffffffffffffffffff82169050919050565b60006122d0826122a5565b9050919050565b6122e0816122c5565b82525050565b60006020820190506122fb60008301846122d7565b92915050565b61230a816122c5565b811461231557600080fd5b50565b60008135905061232781612301565b92915050565b6000806040838503121561234457612343612238565b5b600061235285828601612318565b925050602061236385828601612263565b9150509250929050565b61237681612242565b82525050565b6000602082019050612391600083018461236d565b92915050565b6000602082840312156123ad576123ac612238565b5b60006123bb84828501612318565b91505092915050565b60008115159050919050565b6123d9816123c4565b82525050565b60006020820190506123f460008301846123d0565b92915050565b600080fd5b600080fd5b6000601f19601f8301169050919050565b7f4e487b7100000000000000000000000000000000000000000000000000000000600052604160045260246000fd5b61244d82612404565b810181811067ffffffffffffffff8211171561246c5761246b612415565b5b80604052505050565b600061247f61222e565b905061248b8282612444565b919050565b600067ffffffffffffffff8211156124ab576124aa612415565b5b6124b482612404565b9050602081019050919050565b82818337600083830152505050565b60006124e36124de84612490565b612475565b9050828152602081018484840111156124ff576124fe6123ff565b5b61250a8482856124c1565b509392505050565b600082601f830112612527576125266123fa565b5b81356125378482602086016124d0565b91505092915050565b6000806040838503121561255757612556612238565b5b600083013567ffffffffffffffff8111156125755761257461223d565b5b61258185828601612512565b925050602083013567ffffffffffffffff8111156125a2576125a161223d565b5b6125ae85828601612512565b9150509250929050565b6125c181612242565b82525050565b6125d0816122c5565b82525050565b600081519050919050565b600082825260208201905092915050565b60005b838110156126105780820151818401526020810190506125f5565b60008484015250505050565b6000612627826125d6565b61263181856125e1565b93506126418185602086016125f2565b61264a81612404565b840191505092915050565b60408201600082015161266b60008501826125b8565b50602082015161267e60208501826125b8565b50505050565b60006101608301600083015161269d60008601826125b8565b5060208301516126b060208601826125c7565b50604083015184820360408601526126c8828261261c565b915050606083015184820360608601526126e2828261261c565b91505060808301516126f760808601826125b8565b5060a083015161270a60a08601826125b8565b5060c083015161271d60c08601826125b8565b5060e083015161273060e08601826125b8565b50610100830151612745610100860182612655565b5061012083015161275a6101408601826125b8565b508091505092915050565b6000602082019050818103600083015261277f8184612684565b905092915050565b600082825260208201905092915050565b7f4e6f7420616c6c6f7765642063616c6c65720000000000000000000000000000600082015250565b60006127ce601283612787565b91506127d982612798565b602082019050919050565b600060208201905081810360008301526127fd816127c1565b9050919050565b7f4e487b7100000000000000000000000000000000000000000000000000000000600052602260045260246000fd5b6000600282049050600182168061284b57607f821691505b60208210810361285e5761285d612804565b5b50919050565b7f4e487b7100000000000000000000000000000000000000000000000000000000600052601160045260246000fd5b600061289e82612242565b91506128a983612242565b92508282039050818111156128c1576128c0612864565b5b92915050565b60006060820190506128dc60008301866122d7565b6128e9602083018561236d565b6128f6604083018461236d565b949350505050565b7f4e487b7100000000000000000000000000000000000000000000000000000000600052602160045260246000fd5b600a811061293e5761293d6128fe565b5b50565b600081905061294f8261292d565b919050565b600061295f82612941565b9050919050565b61296f81612954565b82525050565b600060408201905061298a6000830185612966565b61299760208301846122d7565b9392505050565b6129a7816123c4565b81146129b257600080fd5b50565b6000815190506129c48161299e565b92915050565b6000602082840312156129e0576129df612238565b5b60006129ee848285016129b5565b91505092915050565b7f506f6f6c206f6e6c7920746f20696e73706563746f7273000000000000000000600082015250565b6000612a2d601783612787565b9150612a38826129f7565b602082019050919050565b60006020820190508181036000830152612a5c81612a20565b9050919050565b7f4d696e696d756d20696e7370656374696f6e7300000000000000000000000000600082015250565b6000612a99601383612787565b9150612aa482612a63565b602082019050919050565b60006020820190508181036000830152612ac881612a8c565b9050919050565b7f43616e277420617070726f766520776974686472617700000000000000000000600082015250565b6000612b05601683612787565b9150612b1082612acf565b602082019050919050565b60006020820190508181036000830152612b3481612af8565b9050919050565b6000612b4682612242565b91507fffffffffffffffffffffffffffffffffffffffffffffffffffffffffffffffff8203612b7857612b77612864565b5b600182019050919050565b6000604082019050612b9860008301856122d7565b612ba5602083018461236d565b9392505050565b6000602082019050612bc16000830184612966565b92915050565b600081519050612bd68161224c565b92915050565b600060208284031215612bf257612bf1612238565b5b6000612c0084828501612bc7565b91505092915050565b6000612c1482612242565b9150612c1f83612242565b9250828201905080821115612c3757612c36612864565b5b92915050565b60008190508160005260206000209050919050565b60006020601f8301049050919050565b600082821b905092915050565b600060088302612c9f7fffffffffffffffffffffffffffffffffffffffffffffffffffffffffffffffff82612c62565b612ca98683612c62565b95508019841693508086168417925050509392505050565b6000819050919050565b6000612ce6612ce1612cdc84612242565b612cc1565b612242565b9050919050565b6000819050919050565b612d0083612ccb565b612d14612d0c82612ced565b848454612c6f565b825550505050565b600090565b612d29612d1c565b612d34818484612cf7565b505050565b5b81811015612d5857612d4d600082612d21565b600181019050612d3a565b5050565b601f821115612d9d57612d6e81612c3d565b612d7784612c52565b81016020851015612d86578190505b612d9a612d9285612c52565b830182612d39565b50505b505050565b600082821c905092915050565b6000612dc060001984600802612da2565b1980831691505092915050565b6000612dd98383612daf565b9150826002028217905092915050565b612df2826125d6565b67ffffffffffffffff811115612e0b57612e0a612415565b5b612e158254612833565b612e20828285612d5c565b600060209050601f831160018114612e535760008415612e41578287015190505b612e4b8582612dcd565b865550612eb3565b601f198416612e6186612c3d565b60005b82811015612e8957848901518255600182019150602085019450602081019050612e64565b86831015612ea65784890151612ea2601f891682612daf565b8355505b6001600288020188555050505b505050505050565b6000604082019050612ed060008301856122d7565b612edd6020830184612966565b9392505050565b7f746f74616c496e7370656374696f6e7320696e76616c69640000000000000000600082015250565b6000612f1a601883612787565b9150612f2582612ee4565b602082019050919050565b60006020820190508181036000830152612f4981612f0d565b9050919050565b6000612f5b82612242565b915060008203612f6e57612f6d612864565b5b600182039050919050565b7f4f776e61626c653a206e6577206f776e657220697320746865207a65726f206160008201527f6464726573730000000000000000000000000000000000000000000000000000602082015250565b6000612fd5602683612787565b9150612fe082612f79565b604082019050919050565b6000602082019050818103600083015261300481612fc8565b9050919050565b7f4f776e61626c653a2063616c6c6572206973206e6f7420746865206f776e6572600082015250565b6000613041602083612787565b915061304c8261300b565b602082019050919050565b6000602082019050818103600083015261307081613034565b9050919050565b6000819050919050565b600061309c61309761309284613077565b612cc1565b612242565b9050919050565b6130ac81613081565b82525050565b60006040820190506130c760008301856122d7565b6130d460208301846130a3565b939250505056fea2646970667358221220fcb3323d80e1e0744fe03025681e395173e889950fe038eede64dc349fe9d7b664736f6c634300081b0033",
  "linkReferences": {},
  "deployedLinkReferences": {}
}