{
  "_format": "hh-sol-artifact-1",
  "contractName": "InspectorRules",
  "sourceName": "contracts/InspectorRules.sol",
  "abi": [
    {
      "inputs": [
        {
          "internalType": "address",
          "name": "communityRulesAddress",
          "type": "address"
        },
        {
          "internalType": "address",
          "name": "inspectorPoolAddress",
          "type": "address"
        },
        {
          "internalType": "uint256",
          "name": "maxPenalties_",
          "type": "uint256"
        }
      ],
      "stateMutability": "nonpayable",
      "type": "constructor"
    },
    {
      "anonymous": false,
      "inputs": [
        {
          "indexed": true,
          "internalType": "address",
          "name": "previousOwner",
          "type": "address"
        },
        {
          "indexed": true,
          "internalType": "address",
          "name": "newOwner",
          "type": "address"
        }
      ],
      "name": "OwnershipTransferred",
      "type": "event"
    },
    {
      "inputs": [
        {
          "internalType": "string",
          "name": "name",
          "type": "string"
        },
        {
          "internalType": "string",
          "name": "proofPhoto",
          "type": "string"
        }
      ],
      "name": "addInspector",
      "outputs": [],
      "stateMutability": "nonpayable",
      "type": "function"
    },
    {
      "inputs": [
        {
          "internalType": "address",
          "name": "addr",
          "type": "address"
        },
        {
          "internalType": "uint256",
          "name": "inspectionId",
          "type": "uint256"
        }
      ],
      "name": "addPenalty",
      "outputs": [
        {
          "internalType": "uint256",
          "name": "",
          "type": "uint256"
        }
      ],
      "stateMutability": "nonpayable",
      "type": "function"
    },
    {
      "inputs": [
        {
          "internalType": "address",
          "name": "addr",
          "type": "address"
        },
        {
          "internalType": "uint256",
          "name": "lastInspectionId",
          "type": "uint256"
        }
      ],
      "name": "afterAcceptInspection",
      "outputs": [],
      "stateMutability": "nonpayable",
      "type": "function"
    },
    {
      "inputs": [
        {
          "internalType": "address",
          "name": "addr",
          "type": "address"
        }
      ],
      "name": "afterRealizeInspection",
      "outputs": [
        {
          "internalType": "uint256",
          "name": "",
          "type": "uint256"
        }
      ],
      "stateMutability": "nonpayable",
      "type": "function"
    },
    {
      "inputs": [
        {
          "internalType": "address",
          "name": "",
          "type": "address"
        }
      ],
      "name": "allowedCallers",
      "outputs": [
        {
          "internalType": "bool",
          "name": "",
          "type": "bool"
        }
      ],
      "stateMutability": "view",
      "type": "function"
    },
    {
      "inputs": [],
      "name": "blocksToAccept",
      "outputs": [
        {
          "internalType": "uint256",
          "name": "",
          "type": "uint256"
        }
      ],
      "stateMutability": "view",
      "type": "function"
    },
    {
      "inputs": [
        {
          "internalType": "address",
          "name": "addr",
          "type": "address"
        }
      ],
      "name": "canAcceptInspection",
      "outputs": [
        {
          "internalType": "bool",
          "name": "",
          "type": "bool"
        }
      ],
      "stateMutability": "view",
      "type": "function"
    },
    {
      "inputs": [
        {
          "internalType": "address",
          "name": "addr",
          "type": "address"
        }
      ],
      "name": "decrementInspections",
      "outputs": [],
      "stateMutability": "nonpayable",
      "type": "function"
    },
    {
      "inputs": [
        {
          "internalType": "address",
          "name": "addr",
          "type": "address"
        }
      ],
      "name": "getInspector",
      "outputs": [
        {
          "components": [
            {
              "internalType": "uint256",
              "name": "id",
              "type": "uint256"
            },
            {
              "internalType": "address",
              "name": "inspectorWallet",
              "type": "address"
            },
            {
              "internalType": "string",
              "name": "name",
              "type": "string"
            },
            {
              "internalType": "string",
              "name": "proofPhoto",
              "type": "string"
            },
            {
              "internalType": "uint256",
              "name": "totalInspections",
              "type": "uint256"
            },
            {
              "internalType": "uint256",
              "name": "giveUps",
              "type": "uint256"
            },
            {
              "internalType": "uint256",
              "name": "lastAcceptedAt",
              "type": "uint256"
            },
            {
              "internalType": "uint256",
              "name": "lastRealizedAt",
              "type": "uint256"
            },
            {
              "internalType": "uint256",
              "name": "lastInspection",
              "type": "uint256"
            },
            {
              "components": [
                {
                  "internalType": "uint256",
                  "name": "level",
                  "type": "uint256"
                },
                {
                  "internalType": "uint256",
                  "name": "currentEra",
                  "type": "uint256"
                }
              ],
              "internalType": "struct Pool",
              "name": "pool",
              "type": "tuple"
            },
            {
              "internalType": "uint256",
              "name": "createdAt",
              "type": "uint256"
            }
          ],
          "internalType": "struct Inspector",
          "name": "",
          "type": "tuple"
        }
      ],
      "stateMutability": "view",
      "type": "function"
    },
    {
      "inputs": [
        {
          "internalType": "address",
          "name": "addr",
          "type": "address"
        }
      ],
      "name": "inspectorExists",
      "outputs": [
        {
          "internalType": "bool",
          "name": "",
          "type": "bool"
        }
      ],
      "stateMutability": "view",
      "type": "function"
    },
    {
      "inputs": [
        {
          "internalType": "uint256",
          "name": "",
          "type": "uint256"
        }
      ],
      "name": "inspectorsAddress",
      "outputs": [
        {
          "internalType": "address",
          "name": "",
          "type": "address"
        }
      ],
      "stateMutability": "view",
      "type": "function"
    },
    {
      "inputs": [
        {
          "internalType": "address",
          "name": "caller",
          "type": "address"
        }
      ],
      "name": "isAllowedCaller",
      "outputs": [
        {
          "internalType": "bool",
          "name": "",
          "type": "bool"
        }
      ],
      "stateMutability": "view",
      "type": "function"
    },
    {
      "inputs": [
        {
          "internalType": "address",
          "name": "addr",
          "type": "address"
        }
      ],
      "name": "isInspectorValid",
      "outputs": [
        {
          "internalType": "bool",
          "name": "",
          "type": "bool"
        }
      ],
      "stateMutability": "view",
      "type": "function"
    },
    {
      "inputs": [],
      "name": "maxPenalties",
      "outputs": [
        {
          "internalType": "uint256",
          "name": "",
          "type": "uint256"
        }
      ],
      "stateMutability": "view",
      "type": "function"
    },
    {
      "inputs": [
        {
          "internalType": "address",
          "name": "allowed",
          "type": "address"
        }
      ],
      "name": "newAllowedCaller",
      "outputs": [],
      "stateMutability": "nonpayable",
      "type": "function"
    },
    {
      "inputs": [],
      "name": "owner",
      "outputs": [
        {
          "internalType": "address",
          "name": "",
          "type": "address"
        }
      ],
      "stateMutability": "view",
      "type": "function"
    },
    {
      "inputs": [
        {
          "internalType": "address",
          "name": "",
          "type": "address"
        },
        {
          "internalType": "uint256",
          "name": "",
          "type": "uint256"
        }
      ],
      "name": "penalties",
      "outputs": [
        {
          "internalType": "uint256",
          "name": "inspectionId",
          "type": "uint256"
        }
      ],
      "stateMutability": "view",
      "type": "function"
    },
    {
      "inputs": [],
      "name": "poolCurrentEra",
      "outputs": [
        {
          "internalType": "uint256",
          "name": "",
          "type": "uint256"
        }
      ],
      "stateMutability": "view",
      "type": "function"
    },
    {
      "inputs": [
        {
          "internalType": "address",
          "name": "addr",
          "type": "address"
        },
        {
          "internalType": "uint256",
          "name": "removeSomeLevels",
          "type": "uint256"
        }
      ],
      "name": "removePoolLevels",
      "outputs": [],
      "stateMutability": "nonpayable",
      "type": "function"
    },
    {
      "inputs": [],
      "name": "renounceOwnership",
      "outputs": [],
      "stateMutability": "nonpayable",
      "type": "function"
    },
    {
      "inputs": [
        {
          "internalType": "address",
          "name": "addr",
          "type": "address"
        }
      ],
      "name": "totalPenalties",
      "outputs": [
        {
          "internalType": "uint256",
          "name": "",
          "type": "uint256"
        }
      ],
      "stateMutability": "view",
      "type": "function"
    },
    {
      "inputs": [
        {
          "internalType": "address",
          "name": "newOwner",
          "type": "address"
        }
      ],
      "name": "transferOwnership",
      "outputs": [],
      "stateMutability": "nonpayable",
      "type": "function"
    },
    {
      "inputs": [],
      "name": "withdraw",
      "outputs": [],
      "stateMutability": "nonpayable",
      "type": "function"
    }
  ],
  "bytecode": "0x60c0604052606460a09081525034801561001857600080fd5b50604051613665380380613665833981810160405281019061003a919061024d565b61005661004b6100e860201b60201c565b6100f060201b60201c565b82600560006101000a81548173ffffffffffffffffffffffffffffffffffffffff021916908373ffffffffffffffffffffffffffffffffffffffff16021790555081600660006101000a81548173ffffffffffffffffffffffffffffffffffffffff021916908373ffffffffffffffffffffffffffffffffffffffff16021790555080608081815250505050506102a0565b600033905090565b60008060009054906101000a900473ffffffffffffffffffffffffffffffffffffffff169050816000806101000a81548173ffffffffffffffffffffffffffffffffffffffff021916908373ffffffffffffffffffffffffffffffffffffffff1602179055508173ffffffffffffffffffffffffffffffffffffffff168173ffffffffffffffffffffffffffffffffffffffff167f8be0079c531659141344cd1fd0a4f28419497f9722a3daafe3b4186f6b6457e060405160405180910390a35050565b600080fd5b600073ffffffffffffffffffffffffffffffffffffffff82169050919050565b60006101e4826101b9565b9050919050565b6101f4816101d9565b81146101ff57600080fd5b50565b600081519050610211816101eb565b92915050565b6000819050919050565b61022a81610217565b811461023557600080fd5b50565b60008151905061024781610221565b92915050565b600080600060608486031215610266576102656101b4565b5b600061027486828701610202565b935050602061028586828701610202565b925050604061029686828701610238565b9150509250925092565b60805160a0516133996102cc60003960008181610f8901526110c10152600061160d01526133996000f3fe608060405234801561001057600080fd5b506004361061014d5760003560e01c80638da5cb5b116100c3578063c3c983d21161007c578063c3c983d2146103c4578063d518ad5f146103e0578063da65b13b146103fc578063e05cf1551461042c578063e8f7dfcf1461044a578063f2fde38b1461047a5761014d565b80638da5cb5b146102f05780638f93716f1461030e5780639c9604501461032a578063a1ce8d3a14610346578063a680125814610376578063b24eb769146103a65761014d565b8063453af17d11610115578063453af17d146102085780634d5ff1d3146102265780635fa71c2814610256578063715018a6146102865780637b334154146102905780637fbbbf1c146102c05761014d565b80630da0933a1461015257806318ad5c9a146101825780631b63a43c1461019e5780632076267b146101ce5780633ccfd60b146101fe575b600080fd5b61016c6004803603810190610167919061247f565b610496565b60405161017991906124ed565b60405180910390f35b61019c60048036038101906101979190612534565b6104c9565b005b6101b860048036038101906101b39190612534565b6108e5565b6040516101c59190612583565b60405180910390f35b6101e860048036038101906101e3919061259e565b610a03565b6040516101f59190612583565b60405180910390f35b610206610a4f565b005b610210610f87565b60405161021d9190612583565b60405180910390f35b610240600480360381019061023b919061259e565b610fab565b60405161024d91906125e6565b60405180910390f35b610270600480360381019061026b9190612534565b610ffa565b60405161027d9190612583565b60405180910390f35b61028e611031565b005b6102aa60048036038101906102a5919061259e565b611045565b6040516102b791906125e6565b60405180910390f35b6102da60048036038101906102d5919061259e565b611065565b6040516102e791906125e6565b60405180910390f35b6102f86110f6565b60405161030591906124ed565b60405180910390f35b6103286004803603810190610323919061259e565b61111f565b005b610344600480360381019061033f9190612747565b611181565b005b610360600480360381019061035b919061259e565b61150e565b60405161036d9190612583565b60405180910390f35b610390600480360381019061038b919061259e565b6115b5565b60405161039d91906125e6565b60405180910390f35b6103ae61160b565b6040516103bb9190612583565b60405180910390f35b6103de60048036038101906103d9919061259e565b61162f565b005b6103fa60048036038101906103f59190612534565b61179b565b005b6104166004803603810190610411919061259e565b61183e565b60405161042391906125e6565b60405180910390f35b610434611898565b6040516104419190612583565b60405180910390f35b610464600480360381019061045f919061259e565b611930565b6040516104719190612981565b60405180910390f35b610494600480360381019061048f919061259e565b611b72565b005b60046020528060005260406000206000915054906101000a900473ffffffffffffffffffffffffffffffffffffffff1681565b600160003373ffffffffffffffffffffffffffffffffffffffff1673ffffffffffffffffffffffffffffffffffffffff16815260200190815260200160002060009054906101000a900460ff16610555576040517f08c379a000000000000000000000000000000000000000000000000000000000815260040161054c90612a00565b60405180910390fd5b6000600260008473ffffffffffffffffffffffffffffffffffffffff1673ffffffffffffffffffffffffffffffffffffffff16815260200190815260200160002060405180610160016040529081600082015481526020016001820160009054906101000a900473ffffffffffffffffffffffffffffffffffffffff1673ffffffffffffffffffffffffffffffffffffffff1673ffffffffffffffffffffffffffffffffffffffff16815260200160028201805461061290612a4f565b80601f016020809104026020016040519081016040528092919081815260200182805461063e90612a4f565b801561068b5780601f106106605761010080835404028352916020019161068b565b820191906000526020600020905b81548152906001019060200180831161066e57829003601f168201915b505050505081526020016003820180546106a490612a4f565b80601f01602080910402602001604051908101604052809291908181526020018280546106d090612a4f565b801561071d5780601f106106f25761010080835404028352916020019161071d565b820191906000526020600020905b81548152906001019060200180831161070057829003601f168201915b50505050508152602001600482015481526020016005820154815260200160068201548152602001600782015481526020016008820154815260200160098201604051806040016040529081600082015481526020016001820154815250508152602001600b820154815250509050600082036107e0576000600260008573ffffffffffffffffffffffffffffffffffffffff1673ffffffffffffffffffffffffffffffffffffffff168152602001908152602001600020600901600001819055505b60008211156108465781600260008573ffffffffffffffffffffffffffffffffffffffff1673ffffffffffffffffffffffffffffffffffffffff168152602001908152602001600020600901600001600082825461083e9190612aaf565b925050819055505b600660009054906101000a900473ffffffffffffffffffffffffffffffffffffffff1673ffffffffffffffffffffffffffffffffffffffff1663157ffc528483610120015160200151856040518463ffffffff1660e01b81526004016108ae93929190612ae3565b600060405180830381600087803b1580156108c857600080fd5b505af11580156108dc573d6000803e3d6000fd5b50505050505050565b6000600160003373ffffffffffffffffffffffffffffffffffffffff1673ffffffffffffffffffffffffffffffffffffffff16815260200190815260200160002060009054906101000a900460ff16610973576040517f08c379a000000000000000000000000000000000000000000000000000000000815260040161096a90612a00565b60405180910390fd5b600360008473ffffffffffffffffffffffffffffffffffffffff1673ffffffffffffffffffffffffffffffffffffffff168152602001908152602001600020604051806020016040528084815250908060018154018082558091505060019003906000526020600020016000909190919091506000820151816000015550506109fb83610a03565b905092915050565b6000600360008373ffffffffffffffffffffffffffffffffffffffff1673ffffffffffffffffffffffffffffffffffffffff168152602001908152602001600020805490509050919050565b600560009054906101000a900473ffffffffffffffffffffffffffffffffffffffff1673ffffffffffffffffffffffffffffffffffffffff16639497c6086002336040518363ffffffff1660e01b8152600401610aad929190612b91565b602060405180830381865afa158015610aca573d6000803e3d6000fd5b505050506040513d601f19601f82011682018060405250810190610aee9190612be6565b610b2d576040517f08c379a0000000000000000000000000000000000000000000000000000000008152600401610b2490612c5f565b60405180910390fd5b6000600260003373ffffffffffffffffffffffffffffffffffffffff1673ffffffffffffffffffffffffffffffffffffffff16815260200190815260200160002060405180610160016040529081600082015481526020016001820160009054906101000a900473ffffffffffffffffffffffffffffffffffffffff1673ffffffffffffffffffffffffffffffffffffffff1673ffffffffffffffffffffffffffffffffffffffff168152602001600282018054610bea90612a4f565b80601f0160208091040260200160405190810160405280929190818152602001828054610c1690612a4f565b8015610c635780601f10610c3857610100808354040283529160200191610c63565b820191906000526020600020905b815481529060010190602001808311610c4657829003601f168201915b50505050508152602001600382018054610c7c90612a4f565b80601f0160208091040260200160405190810160405280929190818152602001828054610ca890612a4f565b8015610cf55780601f10610cca57610100808354040283529160200191610cf5565b820191906000526020600020905b815481529060010190602001808311610cd857829003601f168201915b50505050508152602001600482015481526020016005820154815260200160068201548152602001600782015481526020016008820154815260200160098201604051806040016040529081600082015481526020016001820154815250508152602001600b820154815250509050610d718160800151611bf5565b610db0576040517f08c379a0000000000000000000000000000000000000000000000000000000008152600401610da790612ccb565b60405180910390fd5b6000816101200151602001519050600660009054906101000a900473ffffffffffffffffffffffffffffffffffffffff1673ffffffffffffffffffffffffffffffffffffffff1663fbe85f06826040518263ffffffff1660e01b8152600401610e199190612583565b602060405180830381865afa158015610e36573d6000803e3d6000fd5b505050506040513d601f19601f82011682018060405250810190610e5a9190612be6565b610e99576040517f08c379a0000000000000000000000000000000000000000000000000000000008152600401610e9090612d37565b60405180910390fd5b600260003373ffffffffffffffffffffffffffffffffffffffff1673ffffffffffffffffffffffffffffffffffffffff1681526020019081526020016000206009016001016000815480929190610eef90612d57565b9190505550600660009054906101000a900473ffffffffffffffffffffffffffffffffffffffff1673ffffffffffffffffffffffffffffffffffffffff1663f3fef3a333836040518363ffffffff1660e01b8152600401610f51929190612d9f565b600060405180830381600087803b158015610f6b57600080fd5b505af1158015610f7f573d6000803e3d6000fd5b505050505050565b7f000000000000000000000000000000000000000000000000000000000000000081565b60006003600260008473ffffffffffffffffffffffffffffffffffffffff1673ffffffffffffffffffffffffffffffffffffffff16815260200190815260200160002060050154109050919050565b6003602052816000526040600020818154811061101657600080fd5b90600052602060002001600091509150508060000154905081565b611039611c03565b6110436000611c81565b565b60016020528060005260406000206000915054906101000a900460ff1681565b600080600260008473ffffffffffffffffffffffffffffffffffffffff1673ffffffffffffffffffffffffffffffffffffffff168152602001908152602001600020600701549050600081116110bf5760019150506110f1565b7f0000000000000000000000000000000000000000000000000000000000000000816110eb9190612dc8565b43119150505b919050565b60008060009054906101000a900473ffffffffffffffffffffffffffffffffffffffff16905090565b611127611c03565b60018060008373ffffffffffffffffffffffffffffffffffffffff1673ffffffffffffffffffffffffffffffffffffffff16815260200190815260200160002060006101000a81548160ff02191690831515021790555050565b606482511115801561119557506064815111155b6111d4576040517f08c379a00000000000000000000000000000000000000000000000000000000081526004016111cb90612e48565b60405180910390fd5b60006001600560009054906101000a900473ffffffffffffffffffffffffffffffffffffffff1673ffffffffffffffffffffffffffffffffffffffff16631eb2c12060026040518263ffffffff1660e01b81526004016112349190612e68565b602060405180830381865afa158015611251573d6000803e3d6000fd5b505050506040513d601f19601f820116820180604052508101906112759190612e98565b61127f9190612dc8565b905060006040518061016001604052808381526020013373ffffffffffffffffffffffffffffffffffffffff16815260200185815260200184815260200160008152602001600081526020016000815260200160008152602001600081526020016040518060400160405280600081526020016112fa611898565b815250815260200143815250905080600260003373ffffffffffffffffffffffffffffffffffffffff1673ffffffffffffffffffffffffffffffffffffffff1681526020019081526020016000206000820151816000015560208201518160010160006101000a81548173ffffffffffffffffffffffffffffffffffffffff021916908373ffffffffffffffffffffffffffffffffffffffff16021790555060408201518160020190816113ae9190613071565b5060608201518160030190816113c49190613071565b506080820151816004015560a0820151816005015560c0820151816006015560e082015181600701556101008201518160080155610120820151816009016000820151816000015560208201518160010155505061014082015181600b0155905050336004600084815260200190815260200160002060006101000a81548173ffffffffffffffffffffffffffffffffffffffff021916908373ffffffffffffffffffffffffffffffffffffffff160217905550600560009054906101000a900473ffffffffffffffffffffffffffffffffffffffff1673ffffffffffffffffffffffffffffffffffffffff16639c3eead93360026040518363ffffffff1660e01b81526004016114d6929190613143565b600060405180830381600087803b1580156114f057600080fd5b505af1158015611504573d6000803e3d6000fd5b5050505050505050565b6000600160003373ffffffffffffffffffffffffffffffffffffffff1673ffffffffffffffffffffffffffffffffffffffff16815260200190815260200160002060009054906101000a900460ff1661159c576040517f08c379a000000000000000000000000000000000000000000000000000000000815260040161159390612a00565b60405180910390fd5b6115a582611d45565b6115ae82611da0565b9050919050565b6000600160008373ffffffffffffffffffffffffffffffffffffffff1673ffffffffffffffffffffffffffffffffffffffff16815260200190815260200160002060009054906101000a900460ff169050919050565b7f000000000000000000000000000000000000000000000000000000000000000081565b600160003373ffffffffffffffffffffffffffffffffffffffff1673ffffffffffffffffffffffffffffffffffffffff16815260200190815260200160002060009054906101000a900460ff166116bb576040517f08c379a00000000000000000000000000000000000000000000000000000000081526004016116b290612a00565b60405180910390fd5b6000600260008373ffffffffffffffffffffffffffffffffffffffff1673ffffffffffffffffffffffffffffffffffffffff1681526020019081526020016000206004015411611740576040517f08c379a0000000000000000000000000000000000000000000000000000000008152600401611737906131b8565b60405180910390fd5b600260008273ffffffffffffffffffffffffffffffffffffffff1673ffffffffffffffffffffffffffffffffffffffff1681526020019081526020016000206004016000815480929190611793906131d8565b919050555050565b600160003373ffffffffffffffffffffffffffffffffffffffff1673ffffffffffffffffffffffffffffffffffffffff16815260200190815260200160002060009054906101000a900460ff16611827576040517f08c379a000000000000000000000000000000000000000000000000000000000815260040161181e90612a00565b60405180910390fd5b6118318282611e94565b61183a82611f26565b5050565b600080600260008473ffffffffffffffffffffffffffffffffffffffff1673ffffffffffffffffffffffffffffffffffffffff168152602001908152602001600020600201805461188e90612a4f565b9050119050919050565b6000600660009054906101000a900473ffffffffffffffffffffffffffffffffffffffff1673ffffffffffffffffffffffffffffffffffffffff1663ed0df79e6040518163ffffffff1660e01b8152600401602060405180830381865afa158015611907573d6000803e3d6000fd5b505050506040513d601f19601f8201168201806040525081019061192b9190612e98565b905090565b6119386123a5565b600260008373ffffffffffffffffffffffffffffffffffffffff1673ffffffffffffffffffffffffffffffffffffffff16815260200190815260200160002060405180610160016040529081600082015481526020016001820160009054906101000a900473ffffffffffffffffffffffffffffffffffffffff1673ffffffffffffffffffffffffffffffffffffffff1673ffffffffffffffffffffffffffffffffffffffff1681526020016002820180546119f390612a4f565b80601f0160208091040260200160405190810160405280929190818152602001828054611a1f90612a4f565b8015611a6c5780601f10611a4157610100808354040283529160200191611a6c565b820191906000526020600020905b815481529060010190602001808311611a4f57829003601f168201915b50505050508152602001600382018054611a8590612a4f565b80601f0160208091040260200160405190810160405280929190818152602001828054611ab190612a4f565b8015611afe5780601f10611ad357610100808354040283529160200191611afe565b820191906000526020600020905b815481529060010190602001808311611ae157829003601f168201915b50505050508152602001600482015481526020016005820154815260200160068201548152602001600782015481526020016008820154815260200160098201604051806040016040529081600082015481526020016001820154815250508152602001600b820154815250509050919050565b611b7a611c03565b600073ffffffffffffffffffffffffffffffffffffffff168173ffffffffffffffffffffffffffffffffffffffff1603611be9576040517f08c379a0000000000000000000000000000000000000000000000000000000008152600401611be090613273565b60405180910390fd5b611bf281611c81565b50565b600060038210159050919050565b611c0b611f81565b73ffffffffffffffffffffffffffffffffffffffff16611c296110f6565b73ffffffffffffffffffffffffffffffffffffffff1614611c7f576040517f08c379a0000000000000000000000000000000000000000000000000000000008152600401611c76906132df565b60405180910390fd5b565b60008060009054906101000a900473ffffffffffffffffffffffffffffffffffffffff169050816000806101000a81548173ffffffffffffffffffffffffffffffffffffffff021916908373ffffffffffffffffffffffffffffffffffffffff1602179055508173ffffffffffffffffffffffffffffffffffffffff168173ffffffffffffffffffffffffffffffffffffffff167f8be0079c531659141344cd1fd0a4f28419497f9722a3daafe3b4186f6b6457e060405160405180910390a35050565b600260008273ffffffffffffffffffffffffffffffffffffffff1673ffffffffffffffffffffffffffffffffffffffff1681526020019081526020016000206005016000815480929190611d98906131d8565b919050555050565b6000600260008373ffffffffffffffffffffffffffffffffffffffff1673ffffffffffffffffffffffffffffffffffffffff1681526020019081526020016000206004016000815480929190611df590612d57565b919050555043600260008473ffffffffffffffffffffffffffffffffffffffff1673ffffffffffffffffffffffffffffffffffffffff16815260200190815260200160002060070181905550611e4a82611f89565b600260008373ffffffffffffffffffffffffffffffffffffffff1673ffffffffffffffffffffffffffffffffffffffff168152602001908152602001600020600401549050919050565b43600260008473ffffffffffffffffffffffffffffffffffffffff1673ffffffffffffffffffffffffffffffffffffffff1681526020019081526020016000206006018190555080600260008473ffffffffffffffffffffffffffffffffffffffff1673ffffffffffffffffffffffffffffffffffffffff168152602001908152602001600020600801819055505050565b600260008273ffffffffffffffffffffffffffffffffffffffff1673ffffffffffffffffffffffffffffffffffffffff1681526020019081526020016000206005016000815480929190611f7990612d57565b919050555050565b600033905090565b6000600260008373ffffffffffffffffffffffffffffffffffffffff1673ffffffffffffffffffffffffffffffffffffffff16815260200190815260200160002060405180610160016040529081600082015481526020016001820160009054906101000a900473ffffffffffffffffffffffffffffffffffffffff1673ffffffffffffffffffffffffffffffffffffffff1673ffffffffffffffffffffffffffffffffffffffff16815260200160028201805461204690612a4f565b80601f016020809104026020016040519081016040528092919081815260200182805461207290612a4f565b80156120bf5780601f10612094576101008083540402835291602001916120bf565b820191906000526020600020905b8154815290600101906020018083116120a257829003601f168201915b505050505081526020016003820180546120d890612a4f565b80601f016020809104026020016040519081016040528092919081815260200182805461210490612a4f565b80156121515780601f1061212657610100808354040283529160200191612151565b820191906000526020600020905b81548152906001019060200180831161213457829003601f168201915b50505050508152602001600482015481526020016005820154815260200160068201548152602001600782015481526020016008820154815260200160098201604051806040016040529081600082015481526020016001820154815250508152602001600b82015481525050905080610120015160000180518091906121d790612d57565b8152505080600260008473ffffffffffffffffffffffffffffffffffffffff1673ffffffffffffffffffffffffffffffffffffffff1681526020019081526020016000206000820151816000015560208201518160010160006101000a81548173ffffffffffffffffffffffffffffffffffffffff021916908373ffffffffffffffffffffffffffffffffffffffff16021790555060408201518160020190816122819190613071565b5060608201518160030190816122979190613071565b506080820151816004015560a0820151816005015560c0820151816006015560e082015181600701556101008201518160080155610120820151816009016000820151816000015560208201518160010155505061014082015181600b01559050506123068160800151611bf5565b61231057506123a2565b600660009054906101000a900473ffffffffffffffffffffffffffffffffffffffff1673ffffffffffffffffffffffffffffffffffffffff166352b8d3ed8360016040518363ffffffff1660e01b815260040161236e92919061333a565b600060405180830381600087803b15801561238857600080fd5b505af115801561239c573d6000803e3d6000fd5b50505050505b50565b60405180610160016040528060008152602001600073ffffffffffffffffffffffffffffffffffffffff1681526020016060815260200160608152602001600081526020016000815260200160008152602001600081526020016000815260200161240e61241b565b8152602001600081525090565b604051806040016040528060008152602001600081525090565b6000604051905090565b600080fd5b600080fd5b6000819050919050565b61245c81612449565b811461246757600080fd5b50565b60008135905061247981612453565b92915050565b6000602082840312156124955761249461243f565b5b60006124a38482850161246a565b91505092915050565b600073ffffffffffffffffffffffffffffffffffffffff82169050919050565b60006124d7826124ac565b9050919050565b6124e7816124cc565b82525050565b600060208201905061250260008301846124de565b92915050565b612511816124cc565b811461251c57600080fd5b50565b60008135905061252e81612508565b92915050565b6000806040838503121561254b5761254a61243f565b5b60006125598582860161251f565b925050602061256a8582860161246a565b9150509250929050565b61257d81612449565b82525050565b60006020820190506125986000830184612574565b92915050565b6000602082840312156125b4576125b361243f565b5b60006125c28482850161251f565b91505092915050565b60008115159050919050565b6125e0816125cb565b82525050565b60006020820190506125fb60008301846125d7565b92915050565b600080fd5b600080fd5b6000601f19601f8301169050919050565b7f4e487b7100000000000000000000000000000000000000000000000000000000600052604160045260246000fd5b6126548261260b565b810181811067ffffffffffffffff821117156126735761267261261c565b5b80604052505050565b6000612686612435565b9050612692828261264b565b919050565b600067ffffffffffffffff8211156126b2576126b161261c565b5b6126bb8261260b565b9050602081019050919050565b82818337600083830152505050565b60006126ea6126e584612697565b61267c565b90508281526020810184848401111561270657612705612606565b5b6127118482856126c8565b509392505050565b600082601f83011261272e5761272d612601565b5b813561273e8482602086016126d7565b91505092915050565b6000806040838503121561275e5761275d61243f565b5b600083013567ffffffffffffffff81111561277c5761277b612444565b5b61278885828601612719565b925050602083013567ffffffffffffffff8111156127a9576127a8612444565b5b6127b585828601612719565b9150509250929050565b6127c881612449565b82525050565b6127d7816124cc565b82525050565b600081519050919050565b600082825260208201905092915050565b60005b838110156128175780820151818401526020810190506127fc565b60008484015250505050565b600061282e826127dd565b61283881856127e8565b93506128488185602086016127f9565b6128518161260b565b840191505092915050565b60408201600082015161287260008501826127bf565b50602082015161288560208501826127bf565b50505050565b6000610180830160008301516128a460008601826127bf565b5060208301516128b760208601826127ce565b50604083015184820360408601526128cf8282612823565b915050606083015184820360608601526128e98282612823565b91505060808301516128fe60808601826127bf565b5060a083015161291160a08601826127bf565b5060c083015161292460c08601826127bf565b5060e083015161293760e08601826127bf565b5061010083015161294c6101008601826127bf565b5061012083015161296161012086018261285c565b506101408301516129766101608601826127bf565b508091505092915050565b6000602082019050818103600083015261299b818461288b565b905092915050565b600082825260208201905092915050565b7f4e6f7420616c6c6f7765642063616c6c65720000000000000000000000000000600082015250565b60006129ea6012836129a3565b91506129f5826129b4565b602082019050919050565b60006020820190508181036000830152612a19816129dd565b9050919050565b7f4e487b7100000000000000000000000000000000000000000000000000000000600052602260045260246000fd5b60006002820490506001821680612a6757607f821691505b602082108103612a7a57612a79612a20565b5b50919050565b7f4e487b7100000000000000000000000000000000000000000000000000000000600052601160045260246000fd5b6000612aba82612449565b9150612ac583612449565b9250828203905081811115612add57612adc612a80565b5b92915050565b6000606082019050612af860008301866124de565b612b056020830185612574565b612b126040830184612574565b949350505050565b7f4e487b7100000000000000000000000000000000000000000000000000000000600052602160045260246000fd5b60098110612b5a57612b59612b1a565b5b50565b6000819050612b6b82612b49565b919050565b6000612b7b82612b5d565b9050919050565b612b8b81612b70565b82525050565b6000604082019050612ba66000830185612b82565b612bb360208301846124de565b9392505050565b612bc3816125cb565b8114612bce57600080fd5b50565b600081519050612be081612bba565b92915050565b600060208284031215612bfc57612bfb61243f565b5b6000612c0a84828501612bd1565b91505092915050565b7f506f6f6c206f6e6c7920746f20696e73706563746f7273000000000000000000600082015250565b6000612c496017836129a3565b9150612c5482612c13565b602082019050919050565b60006020820190508181036000830152612c7881612c3c565b9050919050565b7f4d696e696d756d20696e7370656374696f6e7300000000000000000000000000600082015250565b6000612cb56013836129a3565b9150612cc082612c7f565b602082019050919050565b60006020820190508181036000830152612ce481612ca8565b9050919050565b7f43616e277420617070726f766520776974686472617700000000000000000000600082015250565b6000612d216016836129a3565b9150612d2c82612ceb565b602082019050919050565b60006020820190508181036000830152612d5081612d14565b9050919050565b6000612d6282612449565b91507fffffffffffffffffffffffffffffffffffffffffffffffffffffffffffffffff8203612d9457612d93612a80565b5b600182019050919050565b6000604082019050612db460008301856124de565b612dc16020830184612574565b9392505050565b6000612dd382612449565b9150612dde83612449565b9250828201905080821115612df657612df5612a80565b5b92915050565b7f4d61782031303020636861726163746572730000000000000000000000000000600082015250565b6000612e326012836129a3565b9150612e3d82612dfc565b602082019050919050565b60006020820190508181036000830152612e6181612e25565b9050919050565b6000602082019050612e7d6000830184612b82565b92915050565b600081519050612e9281612453565b92915050565b600060208284031215612eae57612ead61243f565b5b6000612ebc84828501612e83565b91505092915050565b60008190508160005260206000209050919050565b60006020601f8301049050919050565b600082821b905092915050565b600060088302612f277fffffffffffffffffffffffffffffffffffffffffffffffffffffffffffffffff82612eea565b612f318683612eea565b95508019841693508086168417925050509392505050565b6000819050919050565b6000612f6e612f69612f6484612449565b612f49565b612449565b9050919050565b6000819050919050565b612f8883612f53565b612f9c612f9482612f75565b848454612ef7565b825550505050565b600090565b612fb1612fa4565b612fbc818484612f7f565b505050565b5b81811015612fe057612fd5600082612fa9565b600181019050612fc2565b5050565b601f82111561302557612ff681612ec5565b612fff84612eda565b8101602085101561300e578190505b61302261301a85612eda565b830182612fc1565b50505b505050565b600082821c905092915050565b60006130486000198460080261302a565b1980831691505092915050565b60006130618383613037565b9150826002028217905092915050565b61307a826127dd565b67ffffffffffffffff8111156130935761309261261c565b5b61309d8254612a4f565b6130a8828285612fe4565b600060209050601f8311600181146130db57600084156130c9578287015190505b6130d38582613055565b86555061313b565b601f1984166130e986612ec5565b60005b82811015613111578489015182556001820191506020850194506020810190506130ec565b8683101561312e578489015161312a601f891682613037565b8355505b6001600288020188555050505b505050505050565b600060408201905061315860008301856124de565b6131656020830184612b82565b9392505050565b7f746f74616c496e7370656374696f6e7320696e76616c69640000000000000000600082015250565b60006131a26018836129a3565b91506131ad8261316c565b602082019050919050565b600060208201905081810360008301526131d181613195565b9050919050565b60006131e382612449565b9150600082036131f6576131f5612a80565b5b600182039050919050565b7f4f776e61626c653a206e6577206f776e657220697320746865207a65726f206160008201527f6464726573730000000000000000000000000000000000000000000000000000602082015250565b600061325d6026836129a3565b915061326882613201565b604082019050919050565b6000602082019050818103600083015261328c81613250565b9050919050565b7f4f776e61626c653a2063616c6c6572206973206e6f7420746865206f776e6572600082015250565b60006132c96020836129a3565b91506132d482613293565b602082019050919050565b600060208201905081810360008301526132f8816132bc565b9050919050565b6000819050919050565b600061332461331f61331a846132ff565b612f49565b612449565b9050919050565b61333481613309565b82525050565b600060408201905061334f60008301856124de565b61335c602083018461332b565b939250505056fea2646970667358221220fe172288b461af1f5ce8a37854b90f32acefa25be3537d3a55f8224c7e7cd54d64736f6c634300081b0033",
  "linkReferences": {},
  "deployedLinkReferences": {}
}