{
  "_format": "hh-sol-artifact-1",
  "contractName": "InspectionRules",
  "sourceName": "contracts/InspectionRules.sol",
  "abi": [
    {
      "inputs": [
        {
          "internalType": "uint32",
          "name": "timeBetweenInspections_",
          "type": "uint32"
        },
        {
          "internalType": "uint32",
          "name": "blocksToExpireAcceptedInspection_",
          "type": "uint32"
        },
        {
          "internalType": "uint8",
          "name": "allowedInitialRequests_",
          "type": "uint8"
        },
        {
          "internalType": "uint32",
          "name": "acceptInspectionDelayBlocks_",
          "type": "uint32"
        },
        {
          "internalType": "uint32",
          "name": "securityBlocksToValidation__",
          "type": "uint32"
        }
      ],
      "stateMutability": "nonpayable",
      "type": "constructor"
    },
    {
      "anonymous": false,
      "inputs": [
        {
          "indexed": true,
          "internalType": "uint256",
          "name": "inspectionId",
          "type": "uint256"
        },
        {
          "indexed": true,
          "internalType": "address",
          "name": "inspectorAddress",
          "type": "address"
        },
        {
          "indexed": false,
          "internalType": "uint256",
          "name": "acceptedAt",
          "type": "uint256"
        }
      ],
      "name": "InspectionAccepted",
      "type": "event"
    },
    {
      "anonymous": false,
      "inputs": [
        {
          "indexed": true,
          "internalType": "uint256",
          "name": "inspectionId",
          "type": "uint256"
        },
        {
          "indexed": true,
          "internalType": "address",
          "name": "inspectorAddress",
          "type": "address"
        },
        {
          "indexed": true,
          "internalType": "address",
          "name": "regeneratorAddress",
          "type": "address"
        },
        {
          "indexed": false,
          "internalType": "uint256",
          "name": "invalidatedAt",
          "type": "uint256"
        }
      ],
      "name": "InspectionInvalidated",
      "type": "event"
    },
    {
      "anonymous": false,
      "inputs": [
        {
          "indexed": true,
          "internalType": "uint256",
          "name": "inspectionId",
          "type": "uint256"
        },
        {
          "indexed": true,
          "internalType": "address",
          "name": "inspectorAddress",
          "type": "address"
        },
        {
          "indexed": true,
          "internalType": "address",
          "name": "regeneratorAddress",
          "type": "address"
        },
        {
          "indexed": false,
          "internalType": "uint32",
          "name": "treesResult",
          "type": "uint32"
        },
        {
          "indexed": false,
          "internalType": "uint32",
          "name": "biodiversityResult",
          "type": "uint32"
        },
        {
          "indexed": false,
          "internalType": "uint32",
          "name": "regenerationScore",
          "type": "uint32"
        },
        {
          "indexed": false,
          "internalType": "uint256",
          "name": "inspectedAt",
          "type": "uint256"
        }
      ],
      "name": "InspectionRealized",
      "type": "event"
    },
    {
      "anonymous": false,
      "inputs": [
        {
          "indexed": true,
          "internalType": "uint256",
          "name": "inspectionId",
          "type": "uint256"
        },
        {
          "indexed": true,
          "internalType": "address",
          "name": "regeneratorAddress",
          "type": "address"
        },
        {
          "indexed": false,
          "internalType": "uint256",
          "name": "createdAt",
          "type": "uint256"
        }
      ],
      "name": "InspectionRequested",
      "type": "event"
    },
    {
      "anonymous": false,
      "inputs": [
        {
          "indexed": true,
          "internalType": "address",
          "name": "previousOwner",
          "type": "address"
        },
        {
          "indexed": true,
          "internalType": "address",
          "name": "newOwner",
          "type": "address"
        }
      ],
      "name": "OwnershipTransferred",
      "type": "event"
    },
    {
      "inputs": [],
      "name": "MAX_BIODIVERSITY_RESULT",
      "outputs": [
        {
          "internalType": "uint32",
          "name": "",
          "type": "uint32"
        }
      ],
      "stateMutability": "view",
      "type": "function"
    },
    {
      "inputs": [],
      "name": "MAX_REGENERATOR_INSPECTIONS",
      "outputs": [
        {
          "internalType": "uint8",
          "name": "",
          "type": "uint8"
        }
      ],
      "stateMutability": "view",
      "type": "function"
    },
    {
      "inputs": [],
      "name": "MAX_TREES_RESULT",
      "outputs": [
        {
          "internalType": "uint32",
          "name": "",
          "type": "uint32"
        }
      ],
      "stateMutability": "view",
      "type": "function"
    },
    {
      "inputs": [
        {
          "internalType": "uint64",
          "name": "inspectionId",
          "type": "uint64"
        }
      ],
      "name": "acceptInspection",
      "outputs": [],
      "stateMutability": "nonpayable",
      "type": "function"
    },
    {
      "inputs": [],
      "name": "acceptInspectionDelayBlocks",
      "outputs": [
        {
          "internalType": "uint32",
          "name": "",
          "type": "uint32"
        }
      ],
      "stateMutability": "view",
      "type": "function"
    },
    {
      "inputs": [
        {
          "components": [
            {
              "internalType": "uint64",
              "name": "id",
              "type": "uint64"
            },
            {
              "internalType": "enum InspectionStatus",
              "name": "status",
              "type": "uint8"
            },
            {
              "internalType": "address",
              "name": "regenerator",
              "type": "address"
            },
            {
              "internalType": "address",
              "name": "inspector",
              "type": "address"
            },
            {
              "internalType": "uint32",
              "name": "treesResult",
              "type": "uint32"
            },
            {
              "internalType": "uint32",
              "name": "biodiversityResult",
              "type": "uint32"
            },
            {
              "internalType": "uint32",
              "name": "regenerationScore",
              "type": "uint32"
            },
            {
              "internalType": "string",
              "name": "proofPhotos",
              "type": "string"
            },
            {
              "internalType": "string",
              "name": "justificationReport",
              "type": "string"
            },
            {
              "internalType": "uint256",
              "name": "validationsCount",
              "type": "uint256"
            },
            {
              "internalType": "uint256",
              "name": "createdAt",
              "type": "uint256"
            },
            {
              "internalType": "uint256",
              "name": "acceptedAt",
              "type": "uint256"
            },
            {
              "internalType": "uint256",
              "name": "inspectedAt",
              "type": "uint256"
            },
            {
              "internalType": "uint256",
              "name": "inspectedAtEra",
              "type": "uint256"
            },
            {
              "internalType": "uint256",
              "name": "invalidatedAt",
              "type": "uint256"
            }
          ],
          "internalType": "struct Inspection",
          "name": "inspection",
          "type": "tuple"
        }
      ],
      "name": "acceptInspectionDelayBlocksPassed",
      "outputs": [
        {
          "internalType": "bool",
          "name": "",
          "type": "bool"
        }
      ],
      "stateMutability": "view",
      "type": "function"
    },
    {
      "inputs": [
        {
          "internalType": "uint64",
          "name": "id",
          "type": "uint64"
        },
        {
          "internalType": "string",
          "name": "justification",
          "type": "string"
        }
      ],
      "name": "addInspectionValidation",
      "outputs": [],
      "stateMutability": "nonpayable",
      "type": "function"
    },
    {
      "inputs": [
        {
          "internalType": "address",
          "name": "",
          "type": "address"
        }
      ],
      "name": "allowedCallers",
      "outputs": [
        {
          "internalType": "bool",
          "name": "",
          "type": "bool"
        }
      ],
      "stateMutability": "view",
      "type": "function"
    },
    {
      "inputs": [],
      "name": "allowedInitialRequests",
      "outputs": [
        {
          "internalType": "uint8",
          "name": "",
          "type": "uint8"
        }
      ],
      "stateMutability": "view",
      "type": "function"
    },
    {
      "inputs": [],
      "name": "alreadyHaveInspectionAccepted",
      "outputs": [
        {
          "internalType": "bool",
          "name": "",
          "type": "bool"
        }
      ],
      "stateMutability": "view",
      "type": "function"
    },
    {
      "inputs": [],
      "name": "blocksToExpireAcceptedInspection",
      "outputs": [
        {
          "internalType": "uint32",
          "name": "",
          "type": "uint32"
        }
      ],
      "stateMutability": "view",
      "type": "function"
    },
    {
      "inputs": [
        {
          "internalType": "uint64",
          "name": "inspectionId",
          "type": "uint64"
        }
      ],
      "name": "calculateBlocksToExpire",
      "outputs": [
        {
          "internalType": "uint256",
          "name": "",
          "type": "uint256"
        }
      ],
      "stateMutability": "view",
      "type": "function"
    },
    {
      "inputs": [
        {
          "internalType": "uint64",
          "name": "id",
          "type": "uint64"
        }
      ],
      "name": "getInspection",
      "outputs": [
        {
          "components": [
            {
              "internalType": "uint64",
              "name": "id",
              "type": "uint64"
            },
            {
              "internalType": "enum InspectionStatus",
              "name": "status",
              "type": "uint8"
            },
            {
              "internalType": "address",
              "name": "regenerator",
              "type": "address"
            },
            {
              "internalType": "address",
              "name": "inspector",
              "type": "address"
            },
            {
              "internalType": "uint32",
              "name": "treesResult",
              "type": "uint32"
            },
            {
              "internalType": "uint32",
              "name": "biodiversityResult",
              "type": "uint32"
            },
            {
              "internalType": "uint32",
              "name": "regenerationScore",
              "type": "uint32"
            },
            {
              "internalType": "string",
              "name": "proofPhotos",
              "type": "string"
            },
            {
              "internalType": "string",
              "name": "justificationReport",
              "type": "string"
            },
            {
              "internalType": "uint256",
              "name": "validationsCount",
              "type": "uint256"
            },
            {
              "internalType": "uint256",
              "name": "createdAt",
              "type": "uint256"
            },
            {
              "internalType": "uint256",
              "name": "acceptedAt",
              "type": "uint256"
            },
            {
              "internalType": "uint256",
              "name": "inspectedAt",
              "type": "uint256"
            },
            {
              "internalType": "uint256",
              "name": "inspectedAtEra",
              "type": "uint256"
            },
            {
              "internalType": "uint256",
              "name": "invalidatedAt",
              "type": "uint256"
            }
          ],
          "internalType": "struct Inspection",
          "name": "",
          "type": "tuple"
        }
      ],
      "stateMutability": "view",
      "type": "function"
    },
    {
      "inputs": [
        {
          "internalType": "address",
          "name": "addr",
          "type": "address"
        }
      ],
      "name": "getInspectionsHistory",
      "outputs": [
        {
          "internalType": "uint64[]",
          "name": "",
          "type": "uint64[]"
        }
      ],
      "stateMutability": "view",
      "type": "function"
    },
    {
      "inputs": [],
      "name": "inspectionsBiodiversityImpact",
      "outputs": [
        {
          "internalType": "uint256",
          "name": "",
          "type": "uint256"
        }
      ],
      "stateMutability": "view",
      "type": "function"
    },
    {
      "inputs": [],
      "name": "inspectionsCount",
      "outputs": [
        {
          "internalType": "uint64",
          "name": "",
          "type": "uint64"
        }
      ],
      "stateMutability": "view",
      "type": "function"
    },
    {
      "inputs": [],
      "name": "inspectionsTotalCount",
      "outputs": [
        {
          "internalType": "uint64",
          "name": "",
          "type": "uint64"
        }
      ],
      "stateMutability": "view",
      "type": "function"
    },
    {
      "inputs": [],
      "name": "inspectionsTreesImpact",
      "outputs": [
        {
          "internalType": "uint256",
          "name": "",
          "type": "uint256"
        }
      ],
      "stateMutability": "view",
      "type": "function"
    },
    {
      "inputs": [
        {
          "internalType": "address",
          "name": "caller",
          "type": "address"
        }
      ],
      "name": "isAllowedCaller",
      "outputs": [
        {
          "internalType": "bool",
          "name": "",
          "type": "bool"
        }
      ],
      "stateMutability": "view",
      "type": "function"
    },
    {
      "inputs": [
        {
          "internalType": "address",
          "name": "allowed",
          "type": "address"
        }
      ],
      "name": "newAllowedCaller",
      "outputs": [],
      "stateMutability": "nonpayable",
      "type": "function"
    },
    {
      "inputs": [],
      "name": "owner",
      "outputs": [
        {
          "internalType": "address",
          "name": "",
          "type": "address"
        }
      ],
      "stateMutability": "view",
      "type": "function"
    },
    {
      "inputs": [
        {
          "internalType": "uint64",
          "name": "inspectionId",
          "type": "uint64"
        },
        {
          "internalType": "string",
          "name": "proofPhotos",
          "type": "string"
        },
        {
          "internalType": "string",
          "name": "justificationReport",
          "type": "string"
        },
        {
          "internalType": "uint32",
          "name": "treesResult",
          "type": "uint32"
        },
        {
          "internalType": "uint32",
          "name": "biodiversityResult",
          "type": "uint32"
        }
      ],
      "name": "realizeInspection",
      "outputs": [],
      "stateMutability": "nonpayable",
      "type": "function"
    },
    {
      "inputs": [],
      "name": "realizedInspectionsCount",
      "outputs": [
        {
          "internalType": "uint64",
          "name": "",
          "type": "uint64"
        }
      ],
      "stateMutability": "view",
      "type": "function"
    },
    {
      "inputs": [],
      "name": "renounceOwnership",
      "outputs": [],
      "stateMutability": "nonpayable",
      "type": "function"
    },
    {
      "inputs": [],
      "name": "requestInspection",
      "outputs": [],
      "stateMutability": "nonpayable",
      "type": "function"
    },
    {
      "inputs": [],
      "name": "securityBlocksToValidation_",
      "outputs": [
        {
          "internalType": "uint32",
          "name": "",
          "type": "uint32"
        }
      ],
      "stateMutability": "view",
      "type": "function"
    },
    {
      "inputs": [
        {
          "components": [
            {
              "internalType": "address",
              "name": "communityRulesAddress",
              "type": "address"
            },
            {
              "internalType": "address",
              "name": "regeneratorRulesAddress",
              "type": "address"
            },
            {
              "internalType": "address",
              "name": "validationRulesAddress",
              "type": "address"
            },
            {
              "internalType": "address",
              "name": "inspectorRulesAddress",
              "type": "address"
            },
            {
              "internalType": "address",
              "name": "regenerationIndexRulesAddress",
              "type": "address"
            },
            {
              "internalType": "address",
              "name": "activistRulesAddress",
              "type": "address"
            },
            {
              "internalType": "address",
              "name": "voteRulesAddress",
              "type": "address"
            }
          ],
          "internalType": "struct ContractsDependency",
          "name": "contractDependency",
          "type": "tuple"
        }
      ],
      "name": "setContractAddressDependencies",
      "outputs": [],
      "stateMutability": "nonpayable",
      "type": "function"
    },
    {
      "inputs": [],
      "name": "timeBetweenInspections",
      "outputs": [
        {
          "internalType": "uint32",
          "name": "",
          "type": "uint32"
        }
      ],
      "stateMutability": "view",
      "type": "function"
    },
    {
      "inputs": [
        {
          "internalType": "address",
          "name": "newOwner",
          "type": "address"
        }
      ],
      "name": "transferOwnership",
      "outputs": [],
      "stateMutability": "nonpayable",
      "type": "function"
    },
    {
      "inputs": [
        {
          "components": [
            {
              "internalType": "uint64",
              "name": "id",
              "type": "uint64"
            },
            {
              "internalType": "address",
              "name": "regeneratorWallet",
              "type": "address"
            },
            {
              "internalType": "string",
              "name": "name",
              "type": "string"
            },
            {
              "internalType": "string",
              "name": "proofPhoto",
              "type": "string"
            },
            {
              "internalType": "uint32",
              "name": "totalArea",
              "type": "uint32"
            },
            {
              "internalType": "bool",
              "name": "pendingInspection",
              "type": "bool"
            },
            {
              "internalType": "uint256",
              "name": "totalInspections",
              "type": "uint256"
            },
            {
              "internalType": "uint256",
              "name": "lastRequestAt",
              "type": "uint256"
            },
            {
              "components": [
                {
                  "internalType": "uint256",
                  "name": "score",
                  "type": "uint256"
                }
              ],
              "internalType": "struct RegenerationScore",
              "name": "regenerationScore",
              "type": "tuple"
            },
            {
              "components": [
                {
                  "internalType": "bool",
                  "name": "onContractPool",
                  "type": "bool"
                },
                {
                  "internalType": "uint256",
                  "name": "currentEra",
                  "type": "uint256"
                }
              ],
              "internalType": "struct Pool",
              "name": "pool",
              "type": "tuple"
            },
            {
              "internalType": "uint256",
              "name": "createdAt",
              "type": "uint256"
            },
            {
              "internalType": "uint256",
              "name": "coordinatesCount",
              "type": "uint256"
            }
          ],
          "internalType": "struct Regenerator",
          "name": "regenerator",
          "type": "tuple"
        }
      ],
      "name": "waitToRequest",
      "outputs": [
        {
          "internalType": "bool",
          "name": "",
          "type": "bool"
        }
      ],
      "stateMutability": "view",
      "type": "function"
    }
  ],
  "bytecode": "0x61012060405234801561001157600080fd5b506040516142e43803806142e4833981016040819052610030916100cf565b61003933610066565b600160025563ffffffff94851660a05292841660c05260ff909116608052821660e052166101005261013c565b600080546001600160a01b038381166001600160a01b0319831681178455604051919092169283917f8be0079c531659141344cd1fd0a4f28419497f9722a3daafe3b4186f6b6457e09190a35050565b805163ffffffff811681146100ca57600080fd5b919050565b600080600080600060a086880312156100e757600080fd5b6100f0866100b6565b94506100fe602087016100b6565b9350604086015160ff8116811461011457600080fd5b9250610122606087016100b6565b9150610130608087016100b6565b90509295509295909350565b60805160a05160c05160e051610100516141256101bf600039600081816101e4015261263a015260008181610476015261088a01526000818161044501528181610510015281816107e701528181611dc40152818161259001526126610152600081816102900152610e3a0152600081816103e90152610e0301526141256000f3fe608060405234801561001057600080fd5b50600436106101da5760003560e01c806386297de911610104578063a6801258116100a2578063e734b81311610071578063e734b81314610498578063ed8f9321146104ab578063ee05057f146104b4578063f2fde38b146104d457600080fd5b8063a680125814610414578063e42c955114610440578063e6e8428e14610467578063e710483d1461047157600080fd5b80638f93716f116100de5780638f93716f146103c857806392f265d7146103db5780639df79c92146103e4578063a2b570a41461040b57600080fd5b806386297de91461039257806386ae2fb1146103a55780638da5cb5b146103ad57600080fd5b80634d3fbe611161017c578063715018a61161014b578063715018a61461033457806379d3da361461033c5780637b3341541461034f5780637b7984681461037257600080fd5b80634d3fbe61146102da5780635401c1f2146102f45780636b2edc16146103075780636ec083761461032157600080fd5b8063180d7944116101b8578063180d7944146102735780633dbf1e8f1461028b5780633eef1a2a146102b257806346ab9708146102c557600080fd5b8063095663d3146101df5780630cda2cce1461022057806316d2bd3414610241575b600080fd5b6102067f000000000000000000000000000000000000000000000000000000000000000081565b60405163ffffffff90911681526020015b60405180910390f35b61023361022e3660046130fd565b6104e7565b604051908152602001610217565b60035461025b90600160401b90046001600160401b031681565b6040516001600160401b039091168152602001610217565b61027b610546565b6040519015158152602001610217565b6102067f000000000000000000000000000000000000000000000000000000000000000081565b61027b6102c0366004613305565b610886565b6102d86102d336600461345d565b6108c7565b005b6102e2600c81565b60405160ff9091168152602001610217565b60035461025b906001600160401b031681565b60035461025b90600160801b90046001600160401b031681565b6102d861032f3660046134f9565b610968565b6102d8610deb565b61027b61034a3660046135c0565b610dff565b61027b61035d3660046136f5565b60016020526000908152604090205460ff1681565b6103856103803660046136f5565b610e6e565b6040516102179190613712565b6102d86103a03660046130fd565b610f0c565b6102d861175e565b6000546040516001600160a01b039091168152602001610217565b6102d86103d63660046136f5565b611983565b61020661012c81565b6102e27f000000000000000000000000000000000000000000000000000000000000000081565b61023360055481565b61027b6104223660046136f5565b6001600160a01b031660009081526001602052604090205460ff1690565b6102067f000000000000000000000000000000000000000000000000000000000000000081565b61020662030d4081565b6102067f000000000000000000000000000000000000000000000000000000000000000081565b6102d86104a636600461375e565b6119b2565b61023360045481565b6104c76104c23660046130fd565b611ffc565b6040516102179190613879565b6102d86104e23660046136f5565b6122bd565b6001600160401b03811660009081526006602081905260408220015443906105369063ffffffff7f000000000000000000000000000000000000000000000000000000000000000016906139ae565b61054091906139c1565b92915050565b60095460405163e8f7dfcf60e01b815233600482015260009182916001600160a01b039091169063e8f7dfcf90602401600060405180830381865afa158015610593573d6000803e3d6000fd5b505050506040513d6000823e601f3d908101601f191682016040526105bb9190810190613a68565b6101008101516001600160401b03908116600090815260066020908152604080832081516101e08101909252805494851682529495509193919290830190600160401b900460ff166003811115610614576106146137ff565b6003811115610625576106256137ff565b815281546001600160a01b03600160481b909104811660208301526001830154908116604083015263ffffffff600160a01b820481166060840152600160c01b820481166080840152600160e01b9091041660a082015260028201805460c09092019161069190613b81565b80601f01602080910402602001604051908101604052809291908181526020018280546106bd90613b81565b801561070a5780601f106106df5761010080835404028352916020019161070a565b820191906000526020600020905b8154815290600101906020018083116106ed57829003601f168201915b5050505050815260200160038201805461072390613b81565b80601f016020809104026020016040519081016040528092919081815260200182805461074f90613b81565b801561079c5780601f106107715761010080835404028352916020019161079c565b820191906000526020600020905b81548152906001019060200180831161077f57829003601f168201915b505050505081526020016004820154815260200160058201548152602001600682015481526020016007820154815260200160088201548152602001600982015481525050905060007f000000000000000000000000000000000000000000000000000000000000000063ffffffff1682610160015161081c91906139ae565b43119050600060028360200151600381111561083a5761083a6137ff565b148061085b5750600383602001516003811115610859576108596137ff565b145b905080806108665750815b8061087d57506101008401516001600160401b0316155b94505050505090565b60007f000000000000000000000000000000000000000000000000000000000000000063ffffffff168261014001516108bf91906139ae565b431192915050565b6108cf612333565b8051600b80546001600160a01b03199081166001600160a01b03938416179091556020830151600a805483169184169190911790556040830151600c8054831691841691909117905560608301516009805483169184169190911790556080830151600f8054831691841691909117905560a0830151600d8054831691841691909117905560c090920151600e80549093169116179055565b61097061238d565b805161012c10156109c15760405162461bcd60e51b815260206004820152601660248201527513585e0818da185c9858dd195c9cc81c995858da195960521b60448201526064015b60405180910390fd5b600e546040516356fd539760e11b81523360048201526001600160a01b039091169063adfaa72e90602401602060405180830381865afa158015610a09573d6000803e3d6000fd5b505050506040513d601f19601f82011682018060405250810190610a2d9190613bc6565b610a675760405162461bcd60e51b815260206004820152600b60248201526a2737ba1030903b37ba32b960a91b60448201526064016109b8565b600c54604051630d84466b60e21b81523360048201526001600160a01b039091169063361119ac90602401602060405180830381865afa158015610aaf573d6000803e3d6000fd5b505050506040513d601f19601f82011682018060405250810190610ad39190613bc6565b610b175760405162461bcd60e51b8152602060048201526015602482015274576169742074696d654265747765656e566f74657360581b60448201526064016109b8565b6001600160401b0382166000908152600660209081526040918290206008810154600a54845163e05cf15560e01b81529451929491936001600160a01b039091169263e05cf1559260048082019392918290030181865afa158015610b80573d6000803e3d6000fd5b505050506040513d601f19601f82011682018060405250810190610ba49190613be3565b14610bea5760405162461bcd60e51b815260206004820152601660248201527543616e27742076616c696461646520616e796d6f726560501b60448201526064016109b8565b805460016001600160401b0390911610801590610c1e575060035481546001600160401b03600160801b9092048216911611155b610c6a5760405162461bcd60e51b815260206004820152601960248201527f496e7370656374696f6e20646f6573206e6f742065786973740000000000000060448201526064016109b8565b60028154600160401b900460ff166003811115610c8957610c896137ff565b14610cd65760405162461bcd60e51b815260206004820152601d60248201527f4f6e6c7920746f20696e7370656374656420696e7370656374696f6e7300000060448201526064016109b8565b6001816004016000828254610ceb91906139ae565b9091555050600c54604080516369bf81c360e01b815290516000926001600160a01b0316916369bf81c39160048083019260209291908290030181865afa158015610d3a573d6000803e3d6000fd5b505050506040513d601f19601f82011682018060405250810190610d5e9190613be3565b60048301541080159150610d7557610d75826123e4565b600c5460405163f73535c960e01b81526001600160a01b039091169063f73535c990610da990859087903390600401613c7f565b600060405180830381600087803b158015610dc357600080fd5b505af1158015610dd7573d6000803e3d6000fd5b505050505050610de76001600255565b5050565b610df3612333565b610dfd600061253c565b565b60007f000000000000000000000000000000000000000000000000000000000000000060ff168260c001511015610e3857506001919050565b7f000000000000000000000000000000000000000000000000000000000000000063ffffffff168260e001516108bf91906139ae565b6001600160a01b038116600090815260076020908152604091829020805483518184028101840190945280845260609392830182828015610f0057602002820191906000526020600020906000905b82829054906101000a90046001600160401b03166001600160401b031681526020019060080190602082600701049283019260010382029150808411610ebd5790505b50505050509050919050565b610f1461238d565b600b54604051631292f8c160e31b81526001600160a01b0390911690639497c60890610f47906002903390600401613daf565b602060405180830381865afa158015610f64573d6000803e3d6000fd5b505050506040513d601f19601f82011682018060405250810190610f889190613bc6565b610fc65760405162461bcd60e51b815260206004820152600f60248201526e4f6e6c7920696e73706563746f727360881b60448201526064016109b8565b600954604051634d5ff1d360e01b81523360048201526001600160a01b0390911690634d5ff1d390602401602060405180830381865afa15801561100e573d6000803e3d6000fd5b505050506040513d601f19601f820116820180604052508101906110329190613bc6565b6110775760405162461bcd60e51b815260206004820152601660248201527513db9b1e480cc819da5d99555c1cc8185b1b1bddd95960521b60448201526064016109b8565b6001600160401b038082166000908152600660205260409020805490916001911610156110e65760405162461bcd60e51b815260206004820152601760248201527f496e7370656374696f6e20646f206e6f7420657869737400000000000000000060448201526064016109b8565b6110ee610546565b61112d5760405162461bcd60e51b815260206004820152601060248201526f105b1c9958591e481858d8d95c1d195960821b60448201526064016109b8565b3360009081526008602090815260408083208454600160481b90046001600160a01b0316845290915290205460ff161561119d5760405162461bcd60e51b8152602060048201526011602482015270105b1c9958591e481a5b9cdc1958dd1959607a1b60448201526064016109b8565b60008154600160401b900460ff1660038111156111bc576111bc6137ff565b146112095760405162461bcd60e51b815260206004820152601760248201527f496e7370656374696f6e206d757374206265204f50454e00000000000000000060448201526064016109b8565b604080516101e0810190915281546001600160401b038116825261141c919083906020830190600160401b900460ff16600381111561124a5761124a6137ff565b600381111561125b5761125b6137ff565b815281546001600160a01b03600160481b909104811660208301526001830154908116604083015263ffffffff600160a01b820481166060840152600160c01b820481166080840152600160e01b9091041660a082015260028201805460c0909201916112c790613b81565b80601f01602080910402602001604051908101604052809291908181526020018280546112f390613b81565b80156113405780601f1061131557610100808354040283529160200191611340565b820191906000526020600020905b81548152906001019060200180831161132357829003601f168201915b5050505050815260200160038201805461135990613b81565b80601f016020809104026020016040519081016040528092919081815260200182805461138590613b81565b80156113d25780601f106113a7576101008083540402835291602001916113d2565b820191906000526020600020905b8154815290600101906020018083116113b557829003601f168201915b505050505081526020016004820154815260200160058201548152602001600682015481526020016007820154815260200160088201548152602001600982015481525050610886565b61145c5760405162461bcd60e51b8152602060048201526011602482015270576169742064656c617920626c6f636b7360781b60448201526064016109b8565b61146461258c565b6114a65760405162461bcd60e51b81526020600482015260136024820152725761697420756e74696c206e6578742065726160681b60448201526064016109b8565b600954604051631feeefc760e21b81523360048201526001600160a01b0390911690637fbbbf1c90602401602060405180830381865afa1580156114ee573d6000803e3d6000fd5b505050506040513d601f19601f820116820180604052508101906115129190613bc6565b61154f5760405162461bcd60e51b815260206004820152600e60248201526d15d85a5d081d1bc81858d8d95c1d60921b60448201526064016109b8565b600b548154604051631292f8c160e31b81526001600160a01b0392831692639497c6089261158e92600192600160481b90920490911690600401613daf565b602060405180830381865afa1580156115ab573d6000803e3d6000fd5b505050506040513d601f19601f820116820180604052508101906115cf9190613bc6565b6116115760405162461bcd60e51b8152602060048201526013602482015272149959d95b995c985d1bdc881a5b9d985b1a59606a1b60448201526064016109b8565b8054600160401b60ff60401b19909116178082554360068301556001820180546001600160a01b03191633179055600a5460405163076d908160e21b81526001600160a01b03600160481b90930483166004820152911690631db6420490602401600060405180830381600087803b15801561168c57600080fd5b505af11580156116a0573d6000803e3d6000fd5b50506009546040516396cd035760e01b81523360048201526001600160401b03861660248201526001600160a01b0390911692506396cd03579150604401600060405180830381600087803b1580156116f857600080fd5b505af115801561170c573d6000803e3d6000fd5b50506040514381523392506001600160401b03851691507ff9556ba762f15e7f3671b8f33a1f662df1a146fa3ec77a706435e6e4572ab8d19060200160405180910390a35061175b6001600255565b50565b61176661238d565b600a5460405163065ab21b60e41b81523360048201526000916001600160a01b0316906365ab21b090602401600060405180830381865afa1580156117af573d6000803e3d6000fd5b505050506040513d6000823e601f3d908101601f191682016040526117d79190810190613e45565b600b54604051631292f8c160e31b81529192506001600160a01b031690639497c6089061180b906001903390600401613daf565b602060405180830381865afa158015611828573d6000803e3d6000fd5b505050506040513d601f19601f8201168201806040525081019061184c9190613bc6565b61188c5760405162461bcd60e51b81526020600482015260116024820152704f6e6c7920726567656e657261746f727360781b60448201526064016109b8565b8060a00151156118cd5760405162461bcd60e51b815260206004820152600c60248201526b2932b8bab2b9ba1027a822a760a11b60448201526064016109b8565b6118d681610dff565b6119145760405162461bcd60e51b815260206004820152600f60248201526e15d85a5d081d1bc81c995c5d595cdd608a1b60448201526064016109b8565b60c0810151600c116119685760405162461bcd60e51b815260206004820152601f60248201527f596f75206861766520636f6d706c6574656420796f7572206d697373696f6e0060448201526064016109b8565b61197061270d565b611978612b9f565b50610dfd6001600255565b61198b612333565b6001600160a01b03166000908152600160208190526040909120805460ff19169091179055565b6119ba61238d565b8351609610156119f95760405162461bcd60e51b815260206004820152600a60248201526909ac2f040d8cadccee8d60b31b60448201526064016109b8565b82516103e81015611a395760405162461bcd60e51b815260206004820152600a60248201526909ac2f040d8cadccee8d60b31b60448201526064016109b8565b6001600160401b03858116600090815260066020908152604080832081516101e08101909252805494851682529293909291830190600160401b900460ff166003811115611a8957611a896137ff565b6003811115611a9a57611a9a6137ff565b815281546001600160a01b03600160481b909104811660208301526001830154908116604083015263ffffffff600160a01b820481166060840152600160c01b820481166080840152600160e01b9091041660a082015260028201805460c090920191611b0690613b81565b80601f0160208091040260200160405190810160405280929190818152602001828054611b3290613b81565b8015611b7f5780601f10611b5457610100808354040283529160200191611b7f565b820191906000526020600020905b815481529060010190602001808311611b6257829003601f168201915b50505050508152602001600382018054611b9890613b81565b80601f0160208091040260200160405190810160405280929190818152602001828054611bc490613b81565b8015611c115780601f10611be657610100808354040283529160200191611c11565b820191906000526020600020905b815481529060010190602001808311611bf457829003601f168201915b5050505050815260200160048201548152602001600582015481526020016006820154815260200160078201548152602001600882015481526020016009820154815250509050600b60009054906101000a90046001600160a01b03166001600160a01b0316639497c6086002336040518363ffffffff1660e01b8152600401611c9c929190613daf565b602060405180830381865afa158015611cb9573d6000803e3d6000fd5b505050506040513d601f19601f82011682018060405250810190611cdd9190613bc6565b611d1b5760405162461bcd60e51b815260206004820152600f60248201526e4f6e6c7920696e73706563746f727360881b60448201526064016109b8565b600181602001516003811115611d3357611d336137ff565b14611d705760405162461bcd60e51b815260206004820152600d60248201526c416363657074206265666f726560981b60448201526064016109b8565b60608101516001600160a01b03163314611dc25760405162461bcd60e51b81526020600482015260136024820152722737ba103cb7bab91034b739b832b1ba34b7b760691b60448201526064016109b8565b7f000000000000000000000000000000000000000000000000000000000000000063ffffffff16816101600151611df991906139ae565b431115611e3d5760405162461bcd60e51b8152602060048201526012602482015271125b9cdc1958dd1a5bdb88115e1c1a5c995960721b60448201526064016109b8565b62030d4063ffffffff841611801590611e5e575061012c63ffffffff831611155b611e9d5760405162461bcd60e51b815260206004820152601060248201526f13585e081c995cdd5b1d081b1a5b5a5d60821b60448201526064016109b8565b611eaa8186868686612bfe565b611eb381612ea2565b8263ffffffff1660046000828254611ecb91906139ae565b925050819055508163ffffffff1660056000828254611eea91906139ae565b9091555050336000908152600860208181526040808420858201516001600160a01b03168552909152909120805460ff19166001179055600380546001600160401b03600160401b9091041691611f4083613f7a565b91906101000a8154816001600160401b0302191690836001600160401b031602179055505080604001516001600160a01b0316336001600160a01b0316876001600160401b03167f2224ef9c9aa3c3be082984f4341bc9e478345a0cdd809d940f034880dfeef86486868660c0015143604051611fe2949392919063ffffffff9485168152928416602084015292166040820152606081019190915260800190565b60405180910390a450611ff56001600255565b5050505050565b61209a604080516101e0810190915260008082526020820190815260200160006001600160a01b0316815260200160006001600160a01b03168152602001600063ffffffff168152602001600063ffffffff168152602001600063ffffffff16815260200160608152602001606081526020016000815260200160008152602001600081526020016000815260200160008152602001600081525090565b6001600160401b0382811660009081526006602090815260409182902082516101e0810190935280549384168352919290830190600160401b900460ff1660038111156120e9576120e96137ff565b60038111156120fa576120fa6137ff565b815281546001600160a01b03600160481b909104811660208301526001830154908116604083015263ffffffff600160a01b820481166060840152600160c01b820481166080840152600160e01b9091041660a082015260028201805460c09092019161216690613b81565b80601f016020809104026020016040519081016040528092919081815260200182805461219290613b81565b80156121df5780601f106121b4576101008083540402835291602001916121df565b820191906000526020600020905b8154815290600101906020018083116121c257829003601f168201915b505050505081526020016003820180546121f890613b81565b80601f016020809104026020016040519081016040528092919081815260200182805461222490613b81565b80156122715780601f1061224657610100808354040283529160200191612271565b820191906000526020600020905b81548152906001019060200180831161225457829003601f168201915b5050505050815260200160048201548152602001600582015481526020016006820154815260200160078201548152602001600882015481526020016009820154815250509050919050565b6122c5612333565b6001600160a01b03811661232a5760405162461bcd60e51b815260206004820152602660248201527f4f776e61626c653a206e6577206f776e657220697320746865207a65726f206160448201526564647265737360d01b60648201526084016109b8565b61175b8161253c565b6000546001600160a01b03163314610dfd5760405162461bcd60e51b815260206004820181905260248201527f4f776e61626c653a2063616c6c6572206973206e6f7420746865206f776e657260448201526064016109b8565b60028054036123de5760405162461bcd60e51b815260206004820152601f60248201527f5265656e7472616e637947756172643a207265656e7472616e742063616c6c0060448201526064016109b8565b60028055565b8060010160149054906101000a900463ffffffff1663ffffffff166004600082825461241091906139c1565b9091555050600181015460058054600160c01b90920463ffffffff169160009061243b9084906139c1565b9091555050600380546001600160401b031690600061245983613fa5565b91906101000a8154816001600160401b0302191690836001600160401b03160217905550506003600881819054906101000a90046001600160401b0316809291906124a390613fa5565b82546101009290920a6001600160401b0381810219909316918316021790915582546803000000000000000060ff60401b1982161780855543600986018190556001860154604051918252600160481b9092046001600160a01b0390811695509091169291909116907f5030472abe84127f1f2b92ab27763256a3d275c0c827c8cffa506c99cd1ed1049060200160405180910390a450565b600080546001600160a01b038381166001600160a01b0319831681178455604051919092169283917f8be0079c531659141344cd1fd0a4f28419497f9722a3daafe3b4186f6b6457e09190a35050565b60007f000000000000000000000000000000000000000000000000000000000000000063ffffffff16600a60009054906101000a90046001600160a01b03166001600160a01b031663582256f16040518163ffffffff1660e01b8152600401602060405180830381865afa158015612608573d6000803e3d6000fd5b505050506040513d601f19601f8201168201806040525081019061262c9190613be3565b10156126385750600090565b7f000000000000000000000000000000000000000000000000000000000000000063ffffffff167f000000000000000000000000000000000000000000000000000000000000000063ffffffff16600a60009054906101000a90046001600160a01b03166001600160a01b031663582256f16040518163ffffffff1660e01b8152600401602060405180830381865afa1580156126d9573d6000803e3d6000fd5b505050506040513d601f19601f820116820180604052508101906126fd9190613be3565b61270791906139c1565b11905090565b60038054600160801b90046001600160401b031690601061272d83613f7a565b82546101009290920a6001600160401b0381810219909316918316021790915560038054600160801b90048216600081815260066020908152604080832081516101e08101909252805496871682529396509194919390840191600160401b900460ff16908111156127a1576127a16137ff565b60038111156127b2576127b26137ff565b815281546001600160a01b03600160481b909104811660208301526001830154908116604083015263ffffffff600160a01b820481166060840152600160c01b820481166080840152600160e01b9091041660a082015260028201805460c09092019161281e90613b81565b80601f016020809104026020016040519081016040528092919081815260200182805461284a90613b81565b80156128975780601f1061286c57610100808354040283529160200191612897565b820191906000526020600020905b81548152906001019060200180831161287a57829003601f168201915b505050505081526020016003820180546128b090613b81565b80601f01602080910402602001604051908101604052809291908181526020018280546128dc90613b81565b80156129295780601f106128fe57610100808354040283529160200191612929565b820191906000526020600020905b81548152906001019060200180831161290c57829003601f168201915b50505091835250506004820154602080830191909152600583015460408301526006830154606083015260078301546080830152600883015460a083015260099092015460c0909101526001600160401b0384168252909150600090820181905250336040808301919091526000606083018190524361014084015282516001600160401b039081168252600660209081529290912083518154921667ffffffffffffffff1983168117825592840151849391929091839168ffffffffffffffffff191617600160401b836003811115612a0557612a056137ff565b021790555060408201518154600160481b600160e81b031916600160481b6001600160a01b03928316021782556060830151600183018054608086015160a087015160c0880151949095166001600160c01b031990921691909117600160a01b63ffffffff92831602176001600160c01b0316600160c01b948216949094026001600160e01b031693909317600160e01b939092169290920217905560e08201516002820190612ab59082614014565b506101008201516003820190612acb9082614014565b5061012082015160048201556101408201516005820155610160820151600682015561018082015160078201556101a082015160088201556101c090910151600990910155600380546001600160401b0316906000612b2983613f7a565b91906101000a8154816001600160401b0302191690836001600160401b0316021790555050336001600160a01b0316826001600160401b03167f30053137f0cf60633be984694dd6295bb2027e571b975e37b0cedeefb92b375d43604051612b9391815260200190565b60405180910390a35050565b600a546040516394c3cee960e01b81523360048201526001600160a01b03909116906394c3cee990602401600060405180830381600087803b158015612be457600080fd5b505af1158015612bf8573d6000803e3d6000fd5b50505050565b6002602086018190525063ffffffff8281166080870181905290821660a08701819052600f5460405163ac2d165360e01b8152600481019390935260248301919091526001600160a01b03169063ac2d165390604401602060405180830381865afa158015612c71573d6000803e3d6000fd5b505050506040513d601f19601f82011682018060405250810190612c9591906140d2565b63ffffffff1660c086015260e08501849052610100850183905243610180860152600a546040805163e05cf15560e01b815290516001600160a01b039092169163e05cf155916004808201926020929091908290030181865afa158015612d00573d6000803e3d6000fd5b505050506040513d601f19601f82011682018060405250810190612d249190613be3565b6101a086015284516001600160401b03908116600090815260066020908152604090912087518154931667ffffffffffffffff1984168117825591880151889391929091839168ffffffffffffffffff1990911617600160401b836003811115612d9057612d906137ff565b021790555060408201518154600160481b600160e81b031916600160481b6001600160a01b03928316021782556060830151600183018054608086015160a087015160c0880151949095166001600160c01b031990921691909117600160a01b63ffffffff92831602176001600160c01b0316600160c01b948216949094026001600160e01b031693909317600160e01b939092169290920217905560e08201516002820190612e409082614014565b506101008201516003820190612e569082614014565b5061012082015160048201556101408201516005820155610160820151600682015561018082015160078201556101a082015160088201556101c0909101516009909101555050505050565b6040818101516060830151600d54600a5460c0860151945162a83a7b60e41b81526001600160a01b03808616600483015263ffffffff9096166024820152939492939183169262b2c9209286929190911690630a83a7b0906044016020604051808303816000875af1158015612f1c573d6000803e3d6000fd5b505050506040513d601f19601f82011682018060405250810190612f409190613be3565b6040516001600160e01b031960e085901b1681526001600160a01b0390921660048301526024820152604401600060405180830381600087803b158015612f8657600080fd5b505af1158015612f9a573d6000803e3d6000fd5b5050600d546009546040516350e7469d60e11b81526001600160a01b038681166004830152928316945063f1a204ce935085929091169063a1ce8d3a906024016020604051808303816000875af1158015612ff9573d6000803e3d6000fd5b505050506040513d601f19601f8201168201806040525081019061301d9190613be3565b6040516001600160e01b031960e085901b1681526001600160a01b0390921660048301526024820152604401600060405180830381600087803b15801561306357600080fd5b505af1158015613077573d6000803e3d6000fd5b5050506001600160a01b0390921660009081526007602090815260408220945185546001810187559583529120600485040180546001600160401b0392831660086003909716969096026101000a9586029290950219909416179092555050565b6001600160401b038116811461175b57600080fd5b80356130f8816130d8565b919050565b60006020828403121561310f57600080fd5b813561311a816130d8565b9392505050565b634e487b7160e01b600052604160045260246000fd5b6040516101e081016001600160401b038111828210171561315a5761315a613121565b60405290565b60405160e081016001600160401b038111828210171561315a5761315a613121565b604051602081016001600160401b038111828210171561315a5761315a613121565b604080519081016001600160401b038111828210171561315a5761315a613121565b60405161018081016001600160401b038111828210171561315a5761315a613121565b60405161016081016001600160401b038111828210171561315a5761315a613121565b604051601f8201601f191681016001600160401b038111828210171561323457613234613121565b604052919050565b8035600481106130f857600080fd5b6001600160a01b038116811461175b57600080fd5b80356130f88161324b565b63ffffffff8116811461175b57600080fd5b80356130f88161326b565b60006001600160401b038211156132a1576132a1613121565b50601f01601f191660200190565b600082601f8301126132c057600080fd5b81356132d36132ce82613288565b61320c565b8181528460208386010111156132e857600080fd5b816020850160208301376000918101602001919091529392505050565b60006020828403121561331757600080fd5b81356001600160401b0381111561332d57600080fd5b82016101e0818503121561334057600080fd5b613348613137565b613351826130ed565b815261335f6020830161323c565b602082015261337060408301613260565b604082015261338160608301613260565b60608201526133926080830161327d565b60808201526133a360a0830161327d565b60a08201526133b460c0830161327d565b60c082015260e08201356001600160401b038111156133d257600080fd5b6133de868285016132af565b60e0830152506101008201356001600160401b038111156133fe57600080fd5b61340a868285016132af565b6101008301525061012082810135908201526101408083013590820152610160808301359082015261018080830135908201526101a080830135908201526101c091820135918101919091529392505050565b600060e082840312801561347057600080fd5b50613479613160565b82356134848161324b565b815260208301356134948161324b565b602082015260408301356134a78161324b565b604082015260608301356134ba8161324b565b60608201526134cb60808401613260565b60808201526134dc60a08401613260565b60a08201526134ed60c08401613260565b60c08201529392505050565b6000806040838503121561350c57600080fd5b8235613517816130d8565b915060208301356001600160401b0381111561353257600080fd5b61353e858286016132af565b9150509250929050565b801515811461175b57600080fd5b80356130f881613548565b60006020828403121561357357600080fd5b61357b613182565b9135825250919050565b60006040828403121561359757600080fd5b61359f6131a4565b905081356135ac81613548565b815260209182013591810191909152919050565b6000602082840312156135d257600080fd5b81356001600160401b038111156135e857600080fd5b82016101a081850312156135fb57600080fd5b6136036131c6565b61360c826130ed565b815261361a60208301613260565b602082015260408201356001600160401b0381111561363857600080fd5b613644868285016132af565b60408301525060608201356001600160401b0381111561366357600080fd5b61366f868285016132af565b6060830152506136816080830161327d565b608082015261369260a08301613556565b60a082015260c0828101359082015260e080830135908201526136b9856101008401613561565b6101008201526136cd856101208401613585565b6101208201526101608281013561014083015261018090920135918101919091529392505050565b60006020828403121561370757600080fd5b813561311a8161324b565b602080825282518282018190526000918401906040840190835b818110156137535783516001600160401b031683526020938401939092019160010161372c565b509095945050505050565b600080600080600060a0868803121561377657600080fd5b8535613781816130d8565b945060208601356001600160401b0381111561379c57600080fd5b6137a8888289016132af565b94505060408601356001600160401b038111156137c457600080fd5b6137d0888289016132af565b93505060608601356137e18161326b565b915060808601356137f18161326b565b809150509295509295909350565b634e487b7160e01b600052602160045260246000fd5b60048110613825576138256137ff565b9052565b60005b8381101561384457818101518382015260200161382c565b50506000910152565b60008151808452613865816020860160208601613829565b601f01601f19169290920160200192915050565b602081526138936020820183516001600160401b03169052565b600060208301516138a76040840182613815565b5060408301516001600160a01b03811660608401525060608301516001600160a01b038116608084015250608083015163ffffffff811660a08401525060a083015163ffffffff811660c08401525060c083015163ffffffff811660e08401525060e08301516101e061010084015261392461020084018261384d565b9050610100840151601f1984830301610120850152613943828261384d565b9150506101208401516101408401526101408401516101608401526101608401516101808401526101808401516101a08401526101a08401516101c08401526101c08401516101e08401528091505092915050565b634e487b7160e01b600052601160045260246000fd5b8082018082111561054057610540613998565b8181038181111561054057610540613998565b80516130f8816130d8565b80516130f88161324b565b600082601f8301126139fb57600080fd5b8151613a096132ce82613288565b818152846020838601011115613a1e57600080fd5b613a2f826020830160208701613829565b949350505050565b600060408284031215613a4957600080fd5b613a516131a4565b825181526020928301519281019290925250919050565b600060208284031215613a7a57600080fd5b81516001600160401b03811115613a9057600080fd5b82016101808185031215613aa357600080fd5b613aab6131e9565b613ab4826139d4565b8152613ac2602083016139df565b602082015260408201516001600160401b03811115613ae057600080fd5b613aec868285016139ea565b60408301525060608201516001600160401b03811115613b0b57600080fd5b613b17868285016139ea565b6060830152506080828101519082015260a0808301519082015260c0808301519082015260e08083015190820152613b5261010083016139d4565b610100820152613b66856101208401613a37565b61012082015261016091909101516101408201529392505050565b600181811c90821680613b9557607f821691505b602082108103613bb557634e487b7160e01b600052602260045260246000fd5b50919050565b80516130f881613548565b600060208284031215613bd857600080fd5b815161311a81613548565b600060208284031215613bf557600080fd5b5051919050565b60008154613c0981613b81565b808552600182168015613c235760018114613c3f57613c76565b60ff1983166020870152602082151560051b8701019350613c76565b84600052602060002060005b83811015613c6d5781546020828a010152600182019150602081019050613c4b565b87016020019450505b50505092915050565b6060815260008454613ca5606084016001600160401b0383166001600160401b03169052565b613cb86080840160ff8360401c16613815565b6001600160a01b03604882901c1660a08401525060018501546001600160a01b03811660c084015260a081901c63ffffffff1660e084015260c081901c63ffffffff1661010084015260e081901c610120840152506101e0610140830152613d27610240830160028701613bfc565b828103605f1901610160840152613d418160038801613bfc565b9050600486015461018084015260058601546101a084015260068601546101c084015260078601546101e0840152600886015461020084015260098601546102208401528281036020840152613d97818661384d565b915050613a2f60408301846001600160a01b03169052565b6040810160098410613dc357613dc36137ff565b9281526001600160a01b039190911660209091015290565b80516130f88161326b565b600060208284031215613df857600080fd5b613e00613182565b9151825250919050565b600060408284031215613e1c57600080fd5b613e246131a4565b90508151613e3181613548565b815260209182015191810191909152919050565b600060208284031215613e5757600080fd5b81516001600160401b03811115613e6d57600080fd5b82016101a08185031215613e8057600080fd5b613e886131c6565b613e91826139d4565b8152613e9f602083016139df565b602082015260408201516001600160401b03811115613ebd57600080fd5b613ec9868285016139ea565b60408301525060608201516001600160401b03811115613ee857600080fd5b613ef4868285016139ea565b606083015250613f0660808301613ddb565b6080820152613f1760a08301613bbb565b60a082015260c0828101519082015260e08083015190820152613f3e856101008401613de6565b610100820152613f52856101208401613e0a565b6101208201526101608281015161014083015261018090920151918101919091529392505050565b60006001600160401b0382166001600160401b038103613f9c57613f9c613998565b60010192915050565b60006001600160401b03821680613fbe57613fbe613998565b6000190192915050565b601f82111561400f57806000526020600020601f840160051c81016020851015613fef5750805b601f840160051c820191505b81811015611ff55760008155600101613ffb565b505050565b81516001600160401b0381111561402d5761402d613121565b6140418161403b8454613b81565b84613fc8565b6020601f821160018114614075576000831561405d5750848201515b600019600385901b1c1916600184901b178455611ff5565b600084815260208120601f198516915b828110156140a55787850151825560209485019460019092019101614085565b50848210156140c35786840151600019600387901b60f8161c191681555b50505050600190811b01905550565b6000602082840312156140e457600080fd5b815161311a8161326b56fea2646970667358221220c194379b26e83797ac11ec161a2c34914626e313f8a2175d6b610171f7e52f9e64736f6c634300081b0033",
  "linkReferences": {},
  "deployedLinkReferences": {}
}