{
  "_format": "hh-sol-artifact-1",
  "contractName": "InspectorRules",
  "sourceName": "contracts/InspectorRules.sol",
  "abi": [
    {
      "inputs": [
        {
          "internalType": "address",
          "name": "communityRulesAddress",
          "type": "address"
        },
        {
          "internalType": "address",
          "name": "inspectorPoolAddress",
          "type": "address"
        },
        {
          "internalType": "uint8",
          "name": "maxPenalties_",
          "type": "uint8"
        }
      ],
      "stateMutability": "nonpayable",
      "type": "constructor"
    },
    {
      "inputs": [
        {
          "internalType": "address",
          "name": "owner",
          "type": "address"
        }
      ],
      "name": "OwnableInvalidOwner",
      "type": "error"
    },
    {
      "inputs": [
        {
          "internalType": "address",
          "name": "account",
          "type": "address"
        }
      ],
      "name": "OwnableUnauthorizedAccount",
      "type": "error"
    },
    {
      "inputs": [],
      "name": "ReentrancyGuardReentrantCall",
      "type": "error"
    },
    {
      "anonymous": false,
      "inputs": [
        {
          "indexed": true,
          "internalType": "address",
          "name": "inspectorAddress",
          "type": "address"
        },
        {
          "indexed": false,
          "internalType": "uint256",
          "name": "newLevel",
          "type": "uint256"
        },
        {
          "indexed": false,
          "internalType": "uint256",
          "name": "blockNumber",
          "type": "uint256"
        }
      ],
      "name": "InspectorLevelIncreased",
      "type": "event"
    },
    {
      "anonymous": false,
      "inputs": [
        {
          "indexed": true,
          "internalType": "address",
          "name": "inspectorAddress",
          "type": "address"
        },
        {
          "indexed": false,
          "internalType": "uint256",
          "name": "levelsRemoved",
          "type": "uint256"
        },
        {
          "indexed": false,
          "internalType": "uint256",
          "name": "newLevel",
          "type": "uint256"
        },
        {
          "indexed": false,
          "internalType": "uint256",
          "name": "blockNumber",
          "type": "uint256"
        }
      ],
      "name": "InspectorLevelRemoved",
      "type": "event"
    },
    {
      "anonymous": false,
      "inputs": [
        {
          "indexed": true,
          "internalType": "uint256",
          "name": "id",
          "type": "uint256"
        },
        {
          "indexed": true,
          "internalType": "address",
          "name": "inspectorAddress",
          "type": "address"
        },
        {
          "indexed": false,
          "internalType": "string",
          "name": "name",
          "type": "string"
        },
        {
          "indexed": false,
          "internalType": "uint256",
          "name": "blockNumber",
          "type": "uint256"
        }
      ],
      "name": "InspectorRegistered",
      "type": "event"
    },
    {
      "anonymous": false,
      "inputs": [
        {
          "indexed": true,
          "internalType": "address",
          "name": "inspectorAddress",
          "type": "address"
        },
        {
          "indexed": true,
          "internalType": "uint256",
          "name": "era",
          "type": "uint256"
        },
        {
          "indexed": false,
          "internalType": "uint256",
          "name": "blockNumber",
          "type": "uint256"
        }
      ],
      "name": "InspectorWithdrawalInitiated",
      "type": "event"
    },
    {
      "anonymous": false,
      "inputs": [
        {
          "indexed": true,
          "internalType": "address",
          "name": "previousOwner",
          "type": "address"
        },
        {
          "indexed": true,
          "internalType": "address",
          "name": "newOwner",
          "type": "address"
        }
      ],
      "name": "OwnershipTransferred",
      "type": "event"
    },
    {
      "inputs": [],
      "name": "BLOCKS_TO_ACCEPT",
      "outputs": [
        {
          "internalType": "uint32",
          "name": "",
          "type": "uint32"
        }
      ],
      "stateMutability": "view",
      "type": "function"
    },
    {
      "inputs": [],
      "name": "MAX_GIVEUPS",
      "outputs": [
        {
          "internalType": "uint8",
          "name": "",
          "type": "uint8"
        }
      ],
      "stateMutability": "view",
      "type": "function"
    },
    {
      "inputs": [],
      "name": "MINIMUM_INSPECTIONS_TO_POOL",
      "outputs": [
        {
          "internalType": "uint8",
          "name": "",
          "type": "uint8"
        }
      ],
      "stateMutability": "view",
      "type": "function"
    },
    {
      "inputs": [
        {
          "internalType": "string",
          "name": "name",
          "type": "string"
        },
        {
          "internalType": "string",
          "name": "proofPhoto",
          "type": "string"
        }
      ],
      "name": "addInspector",
      "outputs": [],
      "stateMutability": "nonpayable",
      "type": "function"
    },
    {
      "inputs": [
        {
          "internalType": "address",
          "name": "addr",
          "type": "address"
        },
        {
          "internalType": "uint64",
          "name": "inspectionId",
          "type": "uint64"
        }
      ],
      "name": "addPenalty",
      "outputs": [
        {
          "internalType": "uint256",
          "name": "",
          "type": "uint256"
        }
      ],
      "stateMutability": "nonpayable",
      "type": "function"
    },
    {
      "inputs": [
        {
          "internalType": "address",
          "name": "addr",
          "type": "address"
        },
        {
          "internalType": "uint64",
          "name": "lastInspectionId",
          "type": "uint64"
        }
      ],
      "name": "afterAcceptInspection",
      "outputs": [],
      "stateMutability": "nonpayable",
      "type": "function"
    },
    {
      "inputs": [
        {
          "internalType": "address",
          "name": "addr",
          "type": "address"
        }
      ],
      "name": "afterRealizeInspection",
      "outputs": [
        {
          "internalType": "uint256",
          "name": "",
          "type": "uint256"
        }
      ],
      "stateMutability": "nonpayable",
      "type": "function"
    },
    {
      "inputs": [
        {
          "internalType": "address",
          "name": "",
          "type": "address"
        }
      ],
      "name": "allowedCallers",
      "outputs": [
        {
          "internalType": "bool",
          "name": "",
          "type": "bool"
        }
      ],
      "stateMutability": "view",
      "type": "function"
    },
    {
      "inputs": [
        {
          "internalType": "address",
          "name": "addr",
          "type": "address"
        }
      ],
      "name": "canAcceptInspection",
      "outputs": [
        {
          "internalType": "bool",
          "name": "",
          "type": "bool"
        }
      ],
      "stateMutability": "view",
      "type": "function"
    },
    {
      "inputs": [
        {
          "internalType": "address",
          "name": "addr",
          "type": "address"
        }
      ],
      "name": "decrementInspections",
      "outputs": [],
      "stateMutability": "nonpayable",
      "type": "function"
    },
    {
      "inputs": [
        {
          "internalType": "address",
          "name": "addr",
          "type": "address"
        }
      ],
      "name": "getInspector",
      "outputs": [
        {
          "components": [
            {
              "internalType": "uint64",
              "name": "id",
              "type": "uint64"
            },
            {
              "internalType": "address",
              "name": "inspectorWallet",
              "type": "address"
            },
            {
              "internalType": "string",
              "name": "name",
              "type": "string"
            },
            {
              "internalType": "string",
              "name": "proofPhoto",
              "type": "string"
            },
            {
              "internalType": "uint256",
              "name": "totalInspections",
              "type": "uint256"
            },
            {
              "internalType": "uint256",
              "name": "giveUps",
              "type": "uint256"
            },
            {
              "internalType": "uint256",
              "name": "lastAcceptedAt",
              "type": "uint256"
            },
            {
              "internalType": "uint256",
              "name": "lastRealizedAt",
              "type": "uint256"
            },
            {
              "internalType": "uint64",
              "name": "lastInspection",
              "type": "uint64"
            },
            {
              "components": [
                {
                  "internalType": "uint256",
                  "name": "level",
                  "type": "uint256"
                },
                {
                  "internalType": "uint256",
                  "name": "currentEra",
                  "type": "uint256"
                }
              ],
              "internalType": "struct Pool",
              "name": "pool",
              "type": "tuple"
            },
            {
              "internalType": "uint256",
              "name": "createdAt",
              "type": "uint256"
            }
          ],
          "internalType": "struct Inspector",
          "name": "",
          "type": "tuple"
        }
      ],
      "stateMutability": "view",
      "type": "function"
    },
    {
      "inputs": [
        {
          "internalType": "uint256",
          "name": "",
          "type": "uint256"
        }
      ],
      "name": "inspectorsAddress",
      "outputs": [
        {
          "internalType": "address",
          "name": "",
          "type": "address"
        }
      ],
      "stateMutability": "view",
      "type": "function"
    },
    {
      "inputs": [
        {
          "internalType": "address",
          "name": "caller",
          "type": "address"
        }
      ],
      "name": "isAllowedCaller",
      "outputs": [
        {
          "internalType": "bool",
          "name": "",
          "type": "bool"
        }
      ],
      "stateMutability": "view",
      "type": "function"
    },
    {
      "inputs": [
        {
          "internalType": "address",
          "name": "addr",
          "type": "address"
        }
      ],
      "name": "isInspectorValid",
      "outputs": [
        {
          "internalType": "bool",
          "name": "",
          "type": "bool"
        }
      ],
      "stateMutability": "view",
      "type": "function"
    },
    {
      "inputs": [],
      "name": "maxPenalties",
      "outputs": [
        {
          "internalType": "uint8",
          "name": "",
          "type": "uint8"
        }
      ],
      "stateMutability": "view",
      "type": "function"
    },
    {
      "inputs": [
        {
          "internalType": "address",
          "name": "allowed",
          "type": "address"
        }
      ],
      "name": "newAllowedCaller",
      "outputs": [],
      "stateMutability": "nonpayable",
      "type": "function"
    },
    {
      "inputs": [],
      "name": "owner",
      "outputs": [
        {
          "internalType": "address",
          "name": "",
          "type": "address"
        }
      ],
      "stateMutability": "view",
      "type": "function"
    },
    {
      "inputs": [
        {
          "internalType": "address",
          "name": "",
          "type": "address"
        },
        {
          "internalType": "uint256",
          "name": "",
          "type": "uint256"
        }
      ],
      "name": "penalties",
      "outputs": [
        {
          "internalType": "uint64",
          "name": "inspectionId",
          "type": "uint64"
        }
      ],
      "stateMutability": "view",
      "type": "function"
    },
    {
      "inputs": [],
      "name": "poolCurrentEra",
      "outputs": [
        {
          "internalType": "uint256",
          "name": "",
          "type": "uint256"
        }
      ],
      "stateMutability": "view",
      "type": "function"
    },
    {
      "inputs": [
        {
          "internalType": "address",
          "name": "addr",
          "type": "address"
        },
        {
          "internalType": "uint256",
          "name": "levelsToRemove",
          "type": "uint256"
        }
      ],
      "name": "removePoolLevels",
      "outputs": [],
      "stateMutability": "nonpayable",
      "type": "function"
    },
    {
      "inputs": [],
      "name": "renounceOwnership",
      "outputs": [],
      "stateMutability": "nonpayable",
      "type": "function"
    },
    {
      "inputs": [
        {
          "internalType": "address",
          "name": "_inspectionRulesAddress",
          "type": "address"
        },
        {
          "internalType": "address",
          "name": "_validationRulesAddress",
          "type": "address"
        }
      ],
      "name": "setContractCall",
      "outputs": [],
      "stateMutability": "nonpayable",
      "type": "function"
    },
    {
      "inputs": [
        {
          "internalType": "address",
          "name": "addr",
          "type": "address"
        }
      ],
      "name": "totalPenalties",
      "outputs": [
        {
          "internalType": "uint256",
          "name": "",
          "type": "uint256"
        }
      ],
      "stateMutability": "view",
      "type": "function"
    },
    {
      "inputs": [
        {
          "internalType": "address",
          "name": "newOwner",
          "type": "address"
        }
      ],
      "name": "transferOwnership",
      "outputs": [],
      "stateMutability": "nonpayable",
      "type": "function"
    },
    {
      "inputs": [],
      "name": "withdraw",
      "outputs": [],
      "stateMutability": "nonpayable",
      "type": "function"
    }
  ],
  "bytecode": "0x60a060405234801561001057600080fd5b50604051611cc4380380611cc483398101604081905261002f9161010b565b338061005557604051631e4fbdf760e01b81526000600482015260240160405180910390fd5b61005e8161009f565b506001600255600680546001600160a01b039485166001600160a01b031991821617909155600780549390941692169190911790915560ff16608052610158565b600080546001600160a01b038381166001600160a01b0319831681178455604051919092169283917f8be0079c531659141344cd1fd0a4f28419497f9722a3daafe3b4186f6b6457e09190a35050565b80516001600160a01b038116811461010657600080fd5b919050565b60008060006060848603121561012057600080fd5b610129846100ef565b9250610137602085016100ef565b9150604084015160ff8116811461014d57600080fd5b809150509250925092565b608051611b5161017360003960006103a70152611b516000f3fe608060405234801561001057600080fd5b50600436106101735760003560e01c80638da5cb5b116100de578063a77963f011610097578063c3c983d211610071578063c3c983d2146103c9578063e05cf155146103dc578063e8f7dfcf146103e4578063f2fde38b1461040457600080fd5b8063a77963f0146102ae578063b1e866551461038f578063b24eb769146103a257600080fd5b80638da5cb5b146103065780638f93716f1461031757806396cd03571461032a5780639c9604501461033d578063a1ce8d3a14610350578063a68012581461036357600080fd5b80634d5ff1d3116101305780634d5ff1d3146102435780635fa71c281461028357806367b769a8146102ae578063715018a6146102c85780637b334154146102d05780637fbbbf1c146102f357600080fd5b8063031a70521461017857806304521ca31461019b5780630da0933a146101b057806318ad5c9a146101f15780632076267b146102045780633ccfd60b1461023b575b600080fd5b61018161177081565b60405163ffffffff90911681526020015b60405180910390f35b6101ae6101a93660046114de565b610417565b005b6101d96101be366004611511565b6005602052600090815260409020546001600160a01b031681565b6040516001600160a01b039091168152602001610192565b6101ae6101ff36600461152a565b61044d565b61022d610212366004611554565b6001600160a01b031660009081526004602052604090205490565b604051908152602001610192565b6101ae6105c1565b610273610251366004611554565b6001600160a01b03166000908152600360208190526040909120600401541090565b6040519015158152602001610192565b61029661029136600461152a565b610871565b6040516001600160401b039091168152602001610192565b6102b6600381565b60405160ff9091168152602001610192565b6101ae6108a9565b6102736102de366004611554565b60016020526000908152604090205460ff1681565b610273610301366004611554565b6108bb565b6000546001600160a01b03166101d9565b6101ae610325366004611554565b6108fa565b6101ae61033836600461158b565b610929565b6101ae61034b366004611665565b6109c7565b61022d61035e366004611554565b610ce3565b610273610371366004611554565b6001600160a01b031660009081526001602052604090205460ff1690565b61022d61039d36600461158b565b610d69565b6102b67f000000000000000000000000000000000000000000000000000000000000000081565b6101ae6103d7366004611554565b610e2c565b61022d610f0d565b6103f76103f2366004611554565b610f80565b6040516101929190611712565b6101ae610412366004611554565b611169565b61041f6111a7565b600880546001600160a01b039384166001600160a01b03199182161790915560098054929093169116179055565b3360009081526001602052604090205460ff166104855760405162461bcd60e51b815260040161047c906117fa565b60405180910390fd5b6009546001600160a01b03163381146104b05760405162461bcd60e51b815260040161047c90611826565b6104b86111d4565b6001600160a01b0383166000908152600360205260409020826104df5760088101546104e1565b825b6008820180546000906104f5908490611873565b9091555050600754604051630c56ae4d60e11b81526001600160a01b03868116600483015260248201869052909116906318ad5c9a90604401600060405180830381600087803b15801561054857600080fd5b505af115801561055c573d6000803e3d6000fd5b505050600882015460408051868152602081019290925243908201526001600160a01b03861691507f101bdaf1b42bde106b9fdbdd4556d0681ace1cbdfe8734ff4fe73d380c713b7c9060600160405180910390a2506105bc6001600255565b505050565b6105c96111d4565b600654604051631292f8c160e31b81526001600160a01b0390911690639497c608906105fc9060029033906004016118ae565b602060405180830381865afa158015610619573d6000803e3d6000fd5b505050506040513d601f19601f8201168201806040525081019061063d91906118d4565b6106895760405162461bcd60e51b815260206004820152601760248201527f506f6f6c206f6e6c7920746f20696e73706563746f7273000000000000000000604482015260640161047c565b33600090815260036020819052604090912080820154909111156106e55760405162461bcd60e51b81526020600482015260136024820152724d696e696d756d20696e7370656374696f6e7360681b604482015260640161047c565b6009810154600754604051637df42f8360e11b8152600481018390526001600160a01b039091169063fbe85f0690602401602060405180830381865afa158015610733573d6000803e3d6000fd5b505050506040513d601f19601f8201168201806040525081019061075791906118d4565b6107b15760405162461bcd60e51b815260206004820152602560248201527f4e6f7420656c696769626c6520746f20776974686472617720666f7220746869604482015264732065726160d81b606482015260840161047c565b6009820180549060006107c3836118f6565b909155505060075460405163f3fef3a360e01b8152336004820152602481018390526001600160a01b039091169063f3fef3a390604401600060405180830381600087803b15801561081457600080fd5b505af1158015610828573d6000803e3d6000fd5b50506040514381528392503391507f840624e970d5fc229e8298cd290e31ee6be9e7c78cf10b6f8176e4178a0323709060200160405180910390a3505061086f6001600255565b565b6004602052816000526040600020818154811061088d57600080fd5b6000918252602090912001546001600160401b03169150829050565b6108b16111a7565b61086f60006111fc565b6001600160a01b038116600090815260036020526040812060060154806108e55750600192915050565b6108f16117708261190f565b43119392505050565b6109026111a7565b6001600160a01b03166000908152600160208190526040909120805460ff19169091179055565b3360009081526001602052604090205460ff166109585760405162461bcd60e51b815260040161047c906117fa565b6008546001600160a01b03163381146109835760405162461bcd60e51b815260040161047c90611826565b6001600160a01b0383166000908152600360205260409020436005820155600701805467ffffffffffffffff19166001600160401b0384161790556105bc8361124c565b81516032108015906109db57508051609610155b610a185760405162461bcd60e51b815260206004820152600e60248201526d4d6178206368617261637465727360901b604482015260640161047c565b60065460405162f5960960e51b81526000916001600160a01b031690631eb2c12090610a4990600290600401611922565b602060405180830381865afa158015610a66573d6000803e3d6000fd5b505050506040513d601f19601f82011682018060405250810190610a8a9190611930565b610a9590600161194d565b9050604051806101600160405280826001600160401b03168152602001336001600160a01b031681526020018481526020018381526020016000815260200160008152602001600081526020016000815260200160006001600160401b03168152602001604051806040016040528060008152602001610b13610f0d565b90528152436020918201523360009081526003825260409081902083518154938501516001600160a01b0316600160401b026001600160e01b03199094166001600160401b03909116179290921782558201516001820190610b7590826119ee565b5060608201516002820190610b8a90826119ee565b506080820151600382015560a082015160048083019190915560c083015160058084019190915560e084015160068085019190915561010085015160078501805467ffffffffffffffff19166001600160401b0392831617905561012086015180516008870155602090810151600987015561014090960151600a90950194909455928516600090815293526040928390208054336001600160a01b0319909116811790915591549251639c3eead960e01b81526001600160a01b0390931692639c3eead992610c5f92909160029101611aac565b600060405180830381600087803b158015610c7957600080fd5b505af1158015610c8d573d6000803e3d6000fd5b50505050336001600160a01b0316816001600160401b03167ff497df17d0f8e81cbbeac1fab2ef010533e6b0010216eb360160fc9021a060fa8543604051610cd6929190611ac9565b60405180910390a3505050565b3360009081526001602052604081205460ff16610d125760405162461bcd60e51b815260040161047c906117fa565b6008546001600160a01b0316338114610d3d5760405162461bcd60e51b815260040161047c90611826565b610d456111d4565b610d4e8361127b565b610d57836112a2565b9150610d636001600255565b50919050565b3360009081526001602052604081205460ff16610d985760405162461bcd60e51b815260040161047c906117fa565b6009546001600160a01b0316338114610dc35760405162461bcd60e51b815260040161047c90611826565b6001600160a01b038416600081815260046020818152604080842081518084019092526001600160401b038981168352815460018101835582875284872093519301805467ffffffffffffffff1916939091169290921790915593909252905254949350505050565b3360009081526001602052604090205460ff16610e5b5760405162461bcd60e51b815260040161047c906117fa565b6008546001600160a01b0316338114610e865760405162461bcd60e51b815260040161047c90611826565b6001600160a01b038216600090815260036020819052604090912090810154610ef15760405162461bcd60e51b815260206004820152601860248201527f746f74616c496e7370656374696f6e7320696e76616c69640000000000000000604482015260640161047c565b600381018054906000610f0383611aeb565b9190505550505050565b60075460408051637686fbcf60e11b815290516000926001600160a01b03169163ed0df79e9160048083019260209291908290030181865afa158015610f57573d6000803e3d6000fd5b505050506040513d601f19601f82011682018060405250810190610f7b9190611b02565b905090565b610f88611432565b6001600160a01b0380831660009081526003602090815260409182902082516101608101845281546001600160401b0381168252600160401b9004909416918401919091526001810180549192840191610fe19061196c565b80601f016020809104026020016040519081016040528092919081815260200182805461100d9061196c565b801561105a5780601f1061102f5761010080835404028352916020019161105a565b820191906000526020600020905b81548152906001019060200180831161103d57829003601f168201915b505050505081526020016002820180546110739061196c565b80601f016020809104026020016040519081016040528092919081815260200182805461109f9061196c565b80156110ec5780601f106110c1576101008083540402835291602001916110ec565b820191906000526020600020905b8154815290600101906020018083116110cf57829003601f168201915b505050918352505060038201546020808301919091526004830154604080840191909152600584015460608401526006840154608084015260078401546001600160401b031660a084015280518082019091526008840154815260098401549181019190915260c0820152600a9091015460e09091015292915050565b6111716111a7565b6001600160a01b03811661119b57604051631e4fbdf760e01b81526000600482015260240161047c565b6111a4816111fc565b50565b6000546001600160a01b0316331461086f5760405163118cdaa760e01b815233600482015260240161047c565b60028054036111f657604051633ee5aeb560e01b815260040160405180910390fd5b60028055565b600080546001600160a01b038381166001600160a01b0319831681178455604051919092169283917f8be0079c531659141344cd1fd0a4f28419497f9722a3daafe3b4186f6b6457e09190a35050565b6001600160a01b0381166000908152600360205260408120600401805491611273836118f6565b919050555050565b6001600160a01b038116600090815260036020526040812060040180549161127383611aeb565b6001600160a01b038116600090815260036020526040812080546001600160401b031682036113135760405162461bcd60e51b815260206004820152601860248201527f496e73706563746f7220646f6573206e6f742065786973740000000000000000604482015260640161047c565b600381018054906000611325836118f6565b9091555050436006820155600881018054906000611342836118f6565b91905055506113508161135a565b6003015492915050565b61136981600301546003111590565b6113705750565b60075481546040516352b8d3ed60e01b81526001600160a01b03600160401b90920482166004820152600160248201529116906352b8d3ed90604401600060405180830381600087803b1580156113c657600080fd5b505af11580156113da573d6000803e3d6000fd5b50508254600884015460408051918252436020830152600160401b9092046001600160a01b031693507fb569f8300b4cf9fad5353ce8ea5c9f82098e5ff03743f0d50d213fc166d3a4e092500160405180910390a250565b60405180610160016040528060006001600160401b0316815260200160006001600160a01b0316815260200160608152602001606081526020016000815260200160008152602001600081526020016000815260200160006001600160401b031681526020016114b5604051806040016040528060008152602001600081525090565b8152602001600081525090565b80356001600160a01b03811681146114d957600080fd5b919050565b600080604083850312156114f157600080fd5b6114fa836114c2565b9150611508602084016114c2565b90509250929050565b60006020828403121561152357600080fd5b5035919050565b6000806040838503121561153d57600080fd5b611546836114c2565b946020939093013593505050565b60006020828403121561156657600080fd5b61156f826114c2565b9392505050565b6001600160401b03811681146111a457600080fd5b6000806040838503121561159e57600080fd5b6115a7836114c2565b915060208301356115b781611576565b809150509250929050565b634e487b7160e01b600052604160045260246000fd5b600082601f8301126115e957600080fd5b81356001600160401b03811115611602576116026115c2565b604051601f8201601f19908116603f011681016001600160401b0381118282101715611630576116306115c2565b60405281815283820160200185101561164857600080fd5b816020850160208301376000918101602001919091529392505050565b6000806040838503121561167857600080fd5b82356001600160401b0381111561168e57600080fd5b61169a858286016115d8565b92505060208301356001600160401b038111156116b657600080fd5b6116c2858286016115d8565b9150509250929050565b6000815180845260005b818110156116f2576020818501810151868301820152016116d6565b506000602082860101526020601f19601f83011685010191505092915050565b6020815261172c6020820183516001600160401b03169052565b6000602083015161174860408401826001600160a01b03169052565b50604083015161018060608401526117646101a08401826116cc565b90506060840151601f1984830301608085015261178182826116cc565b915050608084015160a084015260a084015160c084015260c084015160e084015260e08401516101008401526101008401516117c96101208501826001600160401b03169052565b5061012084015180516101408501526020810151610160850152506101408401516101808401528091505092915050565b6020808252601290820152712737ba1030b63637bbb2b21031b0b63632b960711b604082015260600190565b6020808252601e908201527f43616c6c6572206d7573742062652073797374656d20636f6e74726163740000604082015260600190565b634e487b7160e01b600052601160045260246000fd5b818103818111156118865761188661185d565b92915050565b600981106118aa57634e487b7160e01b600052602160045260246000fd5b9052565b604081016118bc828561188c565b6001600160a01b039290921660209190910152919050565b6000602082840312156118e657600080fd5b8151801515811461156f57600080fd5b6000600182016119085761190861185d565b5060010190565b808201808211156118865761188661185d565b60208101611886828461188c565b60006020828403121561194257600080fd5b815161156f81611576565b6001600160401b0381811683821601908111156118865761188661185d565b600181811c9082168061198057607f821691505b602082108103610d6357634e487b7160e01b600052602260045260246000fd5b601f8211156105bc57806000526020600020601f840160051c810160208510156119c75750805b601f840160051c820191505b818110156119e757600081556001016119d3565b5050505050565b81516001600160401b03811115611a0757611a076115c2565b611a1b81611a15845461196c565b846119a0565b6020601f821160018114611a4f5760008315611a375750848201515b600019600385901b1c1916600184901b1784556119e7565b600084815260208120601f198516915b82811015611a7f5787850151825560209485019460019092019101611a5f565b5084821015611a9d5786840151600019600387901b60f8161c191681555b50505050600190811b01905550565b6001600160a01b03831681526040810161156f602083018461188c565b604081526000611adc60408301856116cc565b90508260208301529392505050565b600081611afa57611afa61185d565b506000190190565b600060208284031215611b1457600080fd5b505191905056fea2646970667358221220fb308815fa9fcf8e1bc100e8f4b9ee17c64cb2d3a92a481c42a9462d3d53e1f664736f6c634300081b0033",
  "linkReferences": {},
  "deployedLinkReferences": {}
}