{
  "_format": "hh-sol-artifact-1",
  "contractName": "InspectorRules",
  "sourceName": "contracts/InspectorRules.sol",
  "abi": [
    {
      "inputs": [
        {
          "internalType": "address",
          "name": "communityRulesAddress",
          "type": "address"
        },
        {
          "internalType": "address",
          "name": "inspectorPoolAddress",
          "type": "address"
        },
        {
          "internalType": "uint8",
          "name": "maxPenalties_",
          "type": "uint8"
        }
      ],
      "stateMutability": "nonpayable",
      "type": "constructor"
    },
    {
      "inputs": [
        {
          "internalType": "address",
          "name": "owner",
          "type": "address"
        }
      ],
      "name": "OwnableInvalidOwner",
      "type": "error"
    },
    {
      "inputs": [
        {
          "internalType": "address",
          "name": "account",
          "type": "address"
        }
      ],
      "name": "OwnableUnauthorizedAccount",
      "type": "error"
    },
    {
      "inputs": [],
      "name": "ReentrancyGuardReentrantCall",
      "type": "error"
    },
    {
      "anonymous": false,
      "inputs": [
        {
          "indexed": true,
          "internalType": "address",
          "name": "inspectorAddress",
          "type": "address"
        },
        {
          "indexed": false,
          "internalType": "uint256",
          "name": "newLevel",
          "type": "uint256"
        },
        {
          "indexed": false,
          "internalType": "uint256",
          "name": "blockNumber",
          "type": "uint256"
        }
      ],
      "name": "InspectorLevelIncreased",
      "type": "event"
    },
    {
      "anonymous": false,
      "inputs": [
        {
          "indexed": true,
          "internalType": "uint256",
          "name": "id",
          "type": "uint256"
        },
        {
          "indexed": true,
          "internalType": "address",
          "name": "inspectorAddress",
          "type": "address"
        },
        {
          "indexed": false,
          "internalType": "string",
          "name": "name",
          "type": "string"
        },
        {
          "indexed": false,
          "internalType": "uint256",
          "name": "blockNumber",
          "type": "uint256"
        }
      ],
      "name": "InspectorRegistered",
      "type": "event"
    },
    {
      "anonymous": false,
      "inputs": [
        {
          "indexed": true,
          "internalType": "address",
          "name": "inspectorAddress",
          "type": "address"
        },
        {
          "indexed": true,
          "internalType": "uint256",
          "name": "era",
          "type": "uint256"
        },
        {
          "indexed": false,
          "internalType": "uint256",
          "name": "blockNumber",
          "type": "uint256"
        }
      ],
      "name": "InspectorWithdrawalInitiated",
      "type": "event"
    },
    {
      "anonymous": false,
      "inputs": [
        {
          "indexed": true,
          "internalType": "address",
          "name": "previousOwner",
          "type": "address"
        },
        {
          "indexed": true,
          "internalType": "address",
          "name": "newOwner",
          "type": "address"
        }
      ],
      "name": "OwnershipTransferred",
      "type": "event"
    },
    {
      "inputs": [],
      "name": "BLOCKS_TO_ACCEPT",
      "outputs": [
        {
          "internalType": "uint32",
          "name": "",
          "type": "uint32"
        }
      ],
      "stateMutability": "view",
      "type": "function"
    },
    {
      "inputs": [],
      "name": "MAX_GIVEUPS",
      "outputs": [
        {
          "internalType": "uint8",
          "name": "",
          "type": "uint8"
        }
      ],
      "stateMutability": "view",
      "type": "function"
    },
    {
      "inputs": [],
      "name": "MINIMUM_INSPECTIONS_TO_POOL",
      "outputs": [
        {
          "internalType": "uint8",
          "name": "",
          "type": "uint8"
        }
      ],
      "stateMutability": "view",
      "type": "function"
    },
    {
      "inputs": [
        {
          "internalType": "string",
          "name": "name",
          "type": "string"
        },
        {
          "internalType": "string",
          "name": "proofPhoto",
          "type": "string"
        }
      ],
      "name": "addInspector",
      "outputs": [],
      "stateMutability": "nonpayable",
      "type": "function"
    },
    {
      "inputs": [
        {
          "internalType": "address",
          "name": "addr",
          "type": "address"
        },
        {
          "internalType": "uint64",
          "name": "inspectionId",
          "type": "uint64"
        }
      ],
      "name": "addPenalty",
      "outputs": [
        {
          "internalType": "uint256",
          "name": "",
          "type": "uint256"
        }
      ],
      "stateMutability": "nonpayable",
      "type": "function"
    },
    {
      "inputs": [
        {
          "internalType": "address",
          "name": "addr",
          "type": "address"
        },
        {
          "internalType": "uint64",
          "name": "lastInspectionId",
          "type": "uint64"
        }
      ],
      "name": "afterAcceptInspection",
      "outputs": [],
      "stateMutability": "nonpayable",
      "type": "function"
    },
    {
      "inputs": [
        {
          "internalType": "address",
          "name": "addr",
          "type": "address"
        },
        {
          "internalType": "uint64",
          "name": "inspectionId",
          "type": "uint64"
        }
      ],
      "name": "afterRealizeInspection",
      "outputs": [
        {
          "internalType": "uint256",
          "name": "",
          "type": "uint256"
        }
      ],
      "stateMutability": "nonpayable",
      "type": "function"
    },
    {
      "inputs": [
        {
          "internalType": "address",
          "name": "",
          "type": "address"
        }
      ],
      "name": "allowedCallers",
      "outputs": [
        {
          "internalType": "bool",
          "name": "",
          "type": "bool"
        }
      ],
      "stateMutability": "view",
      "type": "function"
    },
    {
      "inputs": [
        {
          "internalType": "address",
          "name": "addr",
          "type": "address"
        }
      ],
      "name": "canAcceptInspection",
      "outputs": [
        {
          "internalType": "bool",
          "name": "",
          "type": "bool"
        }
      ],
      "stateMutability": "view",
      "type": "function"
    },
    {
      "inputs": [],
      "name": "communityRules",
      "outputs": [
        {
          "internalType": "contract ICommunityRules",
          "name": "",
          "type": "address"
        }
      ],
      "stateMutability": "view",
      "type": "function"
    },
    {
      "inputs": [
        {
          "internalType": "address",
          "name": "addr",
          "type": "address"
        }
      ],
      "name": "decrementInspections",
      "outputs": [],
      "stateMutability": "nonpayable",
      "type": "function"
    },
    {
      "inputs": [
        {
          "internalType": "address",
          "name": "userAddress",
          "type": "address"
        }
      ],
      "name": "denyInspector",
      "outputs": [],
      "stateMutability": "nonpayable",
      "type": "function"
    },
    {
      "inputs": [
        {
          "internalType": "address",
          "name": "addr",
          "type": "address"
        }
      ],
      "name": "getInspector",
      "outputs": [
        {
          "components": [
            {
              "internalType": "uint64",
              "name": "id",
              "type": "uint64"
            },
            {
              "internalType": "address",
              "name": "inspectorWallet",
              "type": "address"
            },
            {
              "internalType": "string",
              "name": "name",
              "type": "string"
            },
            {
              "internalType": "string",
              "name": "proofPhoto",
              "type": "string"
            },
            {
              "internalType": "uint256",
              "name": "totalInspections",
              "type": "uint256"
            },
            {
              "internalType": "uint256",
              "name": "giveUps",
              "type": "uint256"
            },
            {
              "internalType": "uint256",
              "name": "lastAcceptedAt",
              "type": "uint256"
            },
            {
              "internalType": "uint256",
              "name": "lastRealizedAt",
              "type": "uint256"
            },
            {
              "internalType": "uint64",
              "name": "lastInspection",
              "type": "uint64"
            },
            {
              "components": [
                {
                  "internalType": "uint256",
                  "name": "level",
                  "type": "uint256"
                },
                {
                  "internalType": "uint256",
                  "name": "currentEra",
                  "type": "uint256"
                }
              ],
              "internalType": "struct Pool",
              "name": "pool",
              "type": "tuple"
            },
            {
              "internalType": "uint256",
              "name": "createdAt",
              "type": "uint256"
            }
          ],
          "internalType": "struct Inspector",
          "name": "",
          "type": "tuple"
        }
      ],
      "stateMutability": "view",
      "type": "function"
    },
    {
      "inputs": [],
      "name": "inspectionRulesAddress",
      "outputs": [
        {
          "internalType": "address",
          "name": "",
          "type": "address"
        }
      ],
      "stateMutability": "view",
      "type": "function"
    },
    {
      "inputs": [],
      "name": "inspectorPool",
      "outputs": [
        {
          "internalType": "contract IInspectorPool",
          "name": "",
          "type": "address"
        }
      ],
      "stateMutability": "view",
      "type": "function"
    },
    {
      "inputs": [
        {
          "internalType": "uint256",
          "name": "",
          "type": "uint256"
        }
      ],
      "name": "inspectorsAddress",
      "outputs": [
        {
          "internalType": "address",
          "name": "",
          "type": "address"
        }
      ],
      "stateMutability": "view",
      "type": "function"
    },
    {
      "inputs": [
        {
          "internalType": "address",
          "name": "caller",
          "type": "address"
        }
      ],
      "name": "isAllowedCaller",
      "outputs": [
        {
          "internalType": "bool",
          "name": "",
          "type": "bool"
        }
      ],
      "stateMutability": "view",
      "type": "function"
    },
    {
      "inputs": [
        {
          "internalType": "address",
          "name": "addr",
          "type": "address"
        }
      ],
      "name": "isInspectorValid",
      "outputs": [
        {
          "internalType": "bool",
          "name": "",
          "type": "bool"
        }
      ],
      "stateMutability": "view",
      "type": "function"
    },
    {
      "inputs": [],
      "name": "maxPenalties",
      "outputs": [
        {
          "internalType": "uint8",
          "name": "",
          "type": "uint8"
        }
      ],
      "stateMutability": "view",
      "type": "function"
    },
    {
      "inputs": [
        {
          "internalType": "address",
          "name": "allowed",
          "type": "address"
        }
      ],
      "name": "newAllowedCaller",
      "outputs": [],
      "stateMutability": "nonpayable",
      "type": "function"
    },
    {
      "inputs": [],
      "name": "owner",
      "outputs": [
        {
          "internalType": "address",
          "name": "",
          "type": "address"
        }
      ],
      "stateMutability": "view",
      "type": "function"
    },
    {
      "inputs": [
        {
          "internalType": "address",
          "name": "",
          "type": "address"
        },
        {
          "internalType": "uint256",
          "name": "",
          "type": "uint256"
        }
      ],
      "name": "penalties",
      "outputs": [
        {
          "internalType": "uint64",
          "name": "inspectionId",
          "type": "uint64"
        }
      ],
      "stateMutability": "view",
      "type": "function"
    },
    {
      "inputs": [],
      "name": "poolCurrentEra",
      "outputs": [
        {
          "internalType": "uint256",
          "name": "",
          "type": "uint256"
        }
      ],
      "stateMutability": "view",
      "type": "function"
    },
    {
      "inputs": [
        {
          "internalType": "address",
          "name": "addr",
          "type": "address"
        },
        {
          "internalType": "bool",
          "name": "denied",
          "type": "bool"
        }
      ],
      "name": "removePoolLevels",
      "outputs": [],
      "stateMutability": "nonpayable",
      "type": "function"
    },
    {
      "inputs": [],
      "name": "renounceOwnership",
      "outputs": [],
      "stateMutability": "nonpayable",
      "type": "function"
    },
    {
      "inputs": [
        {
          "internalType": "address",
          "name": "_inspectionRulesAddress",
          "type": "address"
        }
      ],
      "name": "setContractCall",
      "outputs": [],
      "stateMutability": "nonpayable",
      "type": "function"
    },
    {
      "inputs": [
        {
          "internalType": "address",
          "name": "addr",
          "type": "address"
        }
      ],
      "name": "totalPenalties",
      "outputs": [
        {
          "internalType": "uint256",
          "name": "",
          "type": "uint256"
        }
      ],
      "stateMutability": "view",
      "type": "function"
    },
    {
      "inputs": [
        {
          "internalType": "address",
          "name": "newOwner",
          "type": "address"
        }
      ],
      "name": "transferOwnership",
      "outputs": [],
      "stateMutability": "nonpayable",
      "type": "function"
    },
    {
      "inputs": [],
      "name": "withdraw",
      "outputs": [],
      "stateMutability": "nonpayable",
      "type": "function"
    }
  ],
  "bytecode": "0x60a060405234801561001057600080fd5b50604051611fff380380611fff83398101604081905261002f9161010b565b338061005557604051631e4fbdf760e01b81526000600482015260240160405180910390fd5b61005e8161009f565b506001600255600680546001600160a01b039485166001600160a01b031991821617909155600780549390941692169190911790915560ff16608052610158565b600080546001600160a01b038381166001600160a01b0319831681178455604051919092169283917f8be0079c531659141344cd1fd0a4f28419497f9722a3daafe3b4186f6b6457e09190a35050565b80516001600160a01b038116811461010657600080fd5b919050565b60008060006060848603121561012057600080fd5b610129846100ef565b9250610137602085016100ef565b9150604084015160ff8116811461014d57600080fd5b809150509250925092565b608051611e8c61017360003960006104160152611e8c6000f3fe608060405234801561001057600080fd5b50600436106101cf5760003560e01c80638f93716f11610104578063b24eb769116100a2578063d01ac9a611610071578063d01ac9a614610471578063e05cf15514610484578063e8f7dfcf1461048c578063f2fde38b146104ac57600080fd5b8063b24eb76914610411578063bf960e8514610438578063c3c983d21461044b578063ce59654a1461045e57600080fd5b80639c960450116100de5780639c960450146103bf578063a6801258146103d2578063a77963f0146102f7578063b1e86655146103fe57600080fd5b80638f93716f146103865780638fbaf6011461039957806396cd0357146103ac57600080fd5b806367b769a811610171578063755d4f971161014b578063755d4f971461032c5780637b3341541461033f5780637fbbbf1c146103625780638da5cb5b1461037557600080fd5b806367b769a8146102f75780636dd8894a14610311578063715018a61461032457600080fd5b8063218f23ca116101ad578063218f23ca1461026e5780633ccfd60b146102835780634d5ff1d31461028b5780635fa71c28146102cc57600080fd5b8063031a7052146101d45780630da0933a146101f65780632076267b14610237575b600080fd5b6101dc600681565b60405163ffffffff90911681526020015b60405180910390f35b61021f610204366004611773565b6005602052600090815260409020546001600160a01b031681565b6040516001600160a01b0390911681526020016101ed565b6102606102453660046117a1565b6001600160a01b031660009081526004602052604090205490565b6040519081526020016101ed565b61028161027c3660046117d3565b6104bf565b005b6102816105ab565b6102bc6102993660046117a1565b6001600160a01b0316600090815260036020819052604090912060040154111590565b60405190151581526020016101ed565b6102df6102da36600461180c565b61085b565b6040516001600160401b0390911681526020016101ed565b6102ff600381565b60405160ff90911681526020016101ed565b60075461021f906001600160a01b031681565b610281610893565b61028161033a3660046117a1565b6108a5565b6102bc61034d3660046117a1565b60016020526000908152604090205460ff1681565b6102bc6103703660046117a1565b6108cf565b6000546001600160a01b031661021f565b6102816103943660046117a1565b61090d565b60085461021f906001600160a01b031681565b6102816103ba36600461184d565b61093c565b6102816103cd36600461191e565b6109df565b6102bc6103e03660046117a1565b6001600160a01b031660009081526001602052604090205460ff1690565b61026061040c36600461184d565b610cfb565b6102ff7f000000000000000000000000000000000000000000000000000000000000000081565b61026061044636600461184d565b610dd2565b6102816104593660046117a1565b610e47565b60065461021f906001600160a01b031681565b61028161047f3660046117a1565b610f28565b6102606111a9565b61049f61049a3660046117a1565b61121c565b6040516101ed91906119cb565b6102816104ba3660046117a1565b611405565b3360009081526001602052604090205460ff166104f75760405162461bcd60e51b81526004016104ee90611ab3565b60405180910390fd5b6104ff611443565b80610536576001600160a01b0382166000908152600360205260408120600801805460019290610530908490611af5565b90915550505b6007546040516310c791e560e11b81526001600160a01b03848116600483015283151560248301529091169063218f23ca90604401600060405180830381600087803b15801561058557600080fd5b505af1158015610599573d6000803e3d6000fd5b505050506105a76001600255565b5050565b6105b3611443565b600654604051631292f8c160e31b81526001600160a01b0390911690639497c608906105e6906002903390600401611b2a565b602060405180830381865afa158015610603573d6000803e3d6000fd5b505050506040513d601f19601f820116820180604052508101906106279190611b50565b6106735760405162461bcd60e51b815260206004820152601760248201527f506f6f6c206f6e6c7920746f20696e73706563746f727300000000000000000060448201526064016104ee565b33600090815260036020819052604090912080820154909111156106cf5760405162461bcd60e51b81526020600482015260136024820152724d696e696d756d20696e7370656374696f6e7360681b60448201526064016104ee565b6009810154600754604051637df42f8360e11b8152600481018390526001600160a01b039091169063fbe85f0690602401602060405180830381865afa15801561071d573d6000803e3d6000fd5b505050506040513d601f19601f820116820180604052508101906107419190611b50565b61079b5760405162461bcd60e51b815260206004820152602560248201527f4e6f7420656c696769626c6520746f20776974686472617720666f7220746869604482015264732065726160d81b60648201526084016104ee565b6009820180549060006107ad83611b6d565b909155505060075460405163f3fef3a360e01b8152336004820152602481018390526001600160a01b039091169063f3fef3a390604401600060405180830381600087803b1580156107fe57600080fd5b505af1158015610812573d6000803e3d6000fd5b50506040514381528392503391507f840624e970d5fc229e8298cd290e31ee6be9e7c78cf10b6f8176e4178a0323709060200160405180910390a350506108596001600255565b565b6004602052816000526040600020818154811061087757600080fd5b6000918252602090912001546001600160401b03169150829050565b61089b61146b565b6108596000611498565b6108ad61146b565b600880546001600160a01b0319166001600160a01b0392909216919091179055565b6001600160a01b038116600090815260036020526040812060060154806108f95750600192915050565b610904600682611b86565b43119392505050565b61091561146b565b6001600160a01b03166000908152600160208190526040909120805460ff19169091179055565b3360009081526001602052604090205460ff1661096b5760405162461bcd60e51b81526004016104ee90611ab3565b6008546001600160a01b03163381146109965760405162461bcd60e51b81526004016104ee90611b99565b6001600160a01b0383166000908152600360205260409020436005820155600701805467ffffffffffffffff19166001600160401b0384161790556109da836114e8565b505050565b81516032108015906109f357508051609610155b610a305760405162461bcd60e51b815260206004820152600e60248201526d4d6178206368617261637465727360901b60448201526064016104ee565b60065460405162f5960960e51b81526000916001600160a01b031690631eb2c12090610a6190600290600401611bd0565b602060405180830381865afa158015610a7e573d6000803e3d6000fd5b505050506040513d601f19601f82011682018060405250810190610aa29190611bde565b610aad906001611bfb565b9050604051806101600160405280826001600160401b03168152602001336001600160a01b031681526020018481526020018381526020016000815260200160008152602001600081526020016000815260200160006001600160401b03168152602001604051806040016040528060008152602001610b2b6111a9565b90528152436020918201523360009081526003825260409081902083518154938501516001600160a01b0316600160401b026001600160e01b03199094166001600160401b03909116179290921782558201516001820190610b8d9082611ca2565b5060608201516002820190610ba29082611ca2565b506080820151600382015560a082015160048083019190915560c083015160058084019190915560e084015160068085019190915561010085015160078501805467ffffffffffffffff19166001600160401b0392831617905561012086015180516008870155602090810151600987015561014090960151600a90950194909455928516600090815293526040928390208054336001600160a01b0319909116811790915591549251639c3eead960e01b81526001600160a01b0390931692639c3eead992610c7792909160029101611d60565b600060405180830381600087803b158015610c9157600080fd5b505af1158015610ca5573d6000803e3d6000fd5b50505050336001600160a01b0316816001600160401b03167ff497df17d0f8e81cbbeac1fab2ef010533e6b0010216eb360160fc9021a060fa8543604051610cee929190611d7d565b60405180910390a3505050565b3360009081526001602052604081205460ff16610d2a5760405162461bcd60e51b81526004016104ee90611ab3565b6008546001600160a01b0316338114610d555760405162461bcd60e51b81526004016104ee90611b99565b610d5d611443565b6001600160a01b038416600081815260046020818152604080842081518084019092526001600160401b038981168352815460018101835582875284872093519301805467ffffffffffffffff19169390911692909217909155939092529052545b9150610dcb6001600255565b5092915050565b3360009081526001602052604081205460ff16610e015760405162461bcd60e51b81526004016104ee90611ab3565b6008546001600160a01b0316338114610e2c5760405162461bcd60e51b81526004016104ee90611b99565b610e34611443565b610e3d84611517565b610dbf848461153e565b3360009081526001602052604090205460ff16610e765760405162461bcd60e51b81526004016104ee90611ab3565b6008546001600160a01b0316338114610ea15760405162461bcd60e51b81526004016104ee90611b99565b6001600160a01b038216600090815260036020819052604090912090810154610f0c5760405162461bcd60e51b815260206004820152601860248201527f746f74616c496e7370656374696f6e7320696e76616c6964000000000000000060448201526064016104ee565b600381018054906000610f1e83611d9f565b9190505550505050565b3360009081526001602052604090205460ff16610f575760405162461bcd60e51b81526004016104ee90611ab3565b6008546001600160a01b0316338114610f825760405162461bcd60e51b81526004016104ee90611b99565b60065460405163e838dfbb60e01b81526001600160a01b0384811660048301529091169063e838dfbb90602401602060405180830381865afa158015610fcc573d6000803e3d6000fd5b505050506040513d601f19601f82011682018060405250810190610ff09190611b50565b6105a757600654604051634acf78e960e11b81526001600160a01b0384811660048301529091169063959ef1d290602401600060405180830381600087803b15801561103b57600080fd5b505af115801561104f573d6000803e3d6000fd5b505060065460405163158bdc5f60e11b81526001600160a01b038681166004830152600094509091169150632b17b8be90602401608060405180830381865afa1580156110a0573d6000803e3d6000fd5b505050506040513d601f19601f820116820180604052508101906110c49190611db6565b60208101519091506001600160a01b03161561113e576006546020820151604051636101bf2160e01b81526001600160a01b039182166004820152911690636101bf2190602401600060405180830381600087803b15801561112557600080fd5b505af1158015611139573d6000803e3d6000fd5b505050505b6007546040516310c791e560e11b81526001600160a01b038581166004830152600160248301529091169063218f23ca90604401600060405180830381600087803b15801561118c57600080fd5b505af11580156111a0573d6000803e3d6000fd5b50505050505050565b60075460408051637686fbcf60e11b815290516000926001600160a01b03169163ed0df79e9160048083019260209291908290030181865afa1580156111f3573d6000803e3d6000fd5b505050506040513d601f19601f820116820180604052508101906112179190611e3d565b905090565b6112246116e3565b6001600160a01b0380831660009081526003602090815260409182902082516101608101845281546001600160401b0381168252600160401b900490941691840191909152600181018054919284019161127d90611c1a565b80601f01602080910402602001604051908101604052809291908181526020018280546112a990611c1a565b80156112f65780601f106112cb576101008083540402835291602001916112f6565b820191906000526020600020905b8154815290600101906020018083116112d957829003601f168201915b5050505050815260200160028201805461130f90611c1a565b80601f016020809104026020016040519081016040528092919081815260200182805461133b90611c1a565b80156113885780601f1061135d57610100808354040283529160200191611388565b820191906000526020600020905b81548152906001019060200180831161136b57829003601f168201915b505050918352505060038201546020808301919091526004830154604080840191909152600584015460608401526006840154608084015260078401546001600160401b031660a084015280518082019091526008840154815260098401549181019190915260c0820152600a9091015460e09091015292915050565b61140d61146b565b6001600160a01b03811661143757604051631e4fbdf760e01b8152600060048201526024016104ee565b61144081611498565b50565b600280540361146557604051633ee5aeb560e01b815260040160405180910390fd5b60028055565b6000546001600160a01b031633146108595760405163118cdaa760e01b81523360048201526024016104ee565b600080546001600160a01b038381166001600160a01b0319831681178455604051919092169283917f8be0079c531659141344cd1fd0a4f28419497f9722a3daafe3b4186f6b6457e09190a35050565b6001600160a01b038116600090815260036020526040812060040180549161150f83611b6d565b919050555050565b6001600160a01b038116600090815260036020526040812060040180549161150f83611d9f565b6001600160a01b038216600090815260036020526040812080546001600160401b031682036115af5760405162461bcd60e51b815260206004820152601860248201527f496e73706563746f7220646f6573206e6f74206578697374000000000000000060448201526064016104ee565b6003810180549060006115c183611b6d565b90915550504360068201556008810180549060006115de83611b6d565b91905055506115ed81846115fa565b6003015490505b92915050565b61160982600301546003111590565b611611575050565b60075482546040516338e8490d60e11b81526001600160a01b03600160401b90920482166004820152600160248201526001600160401b03841660448201529116906371d0921a90606401600060405180830381600087803b15801561167657600080fd5b505af115801561168a573d6000803e3d6000fd5b50508354600885015460408051918252436020830152600160401b9092046001600160a01b031693507fb569f8300b4cf9fad5353ce8ea5c9f82098e5ff03743f0d50d213fc166d3a4e092500160405180910390a25050565b60405180610160016040528060006001600160401b0316815260200160006001600160a01b0316815260200160608152602001606081526020016000815260200160008152602001600081526020016000815260200160006001600160401b03168152602001611766604051806040016040528060008152602001600081525090565b8152602001600081525090565b60006020828403121561178557600080fd5b5035919050565b6001600160a01b038116811461144057600080fd5b6000602082840312156117b357600080fd5b81356117be8161178c565b9392505050565b801515811461144057600080fd5b600080604083850312156117e657600080fd5b82356117f18161178c565b91506020830135611801816117c5565b809150509250929050565b6000806040838503121561181f57600080fd5b823561182a8161178c565b946020939093013593505050565b6001600160401b038116811461144057600080fd5b6000806040838503121561186057600080fd5b823561186b8161178c565b9150602083013561180181611838565b634e487b7160e01b600052604160045260246000fd5b600082601f8301126118a257600080fd5b81356001600160401b038111156118bb576118bb61187b565b604051601f8201601f19908116603f011681016001600160401b03811182821017156118e9576118e961187b565b60405281815283820160200185101561190157600080fd5b816020850160208301376000918101602001919091529392505050565b6000806040838503121561193157600080fd5b82356001600160401b0381111561194757600080fd5b61195385828601611891565b92505060208301356001600160401b0381111561196f57600080fd5b61197b85828601611891565b9150509250929050565b6000815180845260005b818110156119ab5760208185018101518683018201520161198f565b506000602082860101526020601f19601f83011685010191505092915050565b602081526119e56020820183516001600160401b03169052565b60006020830151611a0160408401826001600160a01b03169052565b5060408301516101806060840152611a1d6101a0840182611985565b90506060840151601f19848303016080850152611a3a8282611985565b915050608084015160a084015260a084015160c084015260c084015160e084015260e0840151610100840152610100840151611a826101208501826001600160401b03169052565b5061012084015180516101408501526020810151610160850152506101408401516101808401528091505092915050565b6020808252601290820152712737ba1030b63637bbb2b21031b0b63632b960711b604082015260600190565b634e487b7160e01b600052601160045260246000fd5b818103818111156115f4576115f4611adf565b60088110611b2657634e487b7160e01b600052602160045260246000fd5b9052565b60408101611b388285611b08565b6001600160a01b039290921660209190910152919050565b600060208284031215611b6257600080fd5b81516117be816117c5565b600060018201611b7f57611b7f611adf565b5060010190565b808201808211156115f4576115f4611adf565b6020808252601e908201527f43616c6c6572206d7573742062652073797374656d20636f6e74726163740000604082015260600190565b602081016115f48284611b08565b600060208284031215611bf057600080fd5b81516117be81611838565b6001600160401b0381811683821601908111156115f4576115f4611adf565b600181811c90821680611c2e57607f821691505b602082108103611c4e57634e487b7160e01b600052602260045260246000fd5b50919050565b601f8211156109da57806000526020600020601f840160051c81016020851015611c7b5750805b601f840160051c820191505b81811015611c9b5760008155600101611c87565b5050505050565b81516001600160401b03811115611cbb57611cbb61187b565b611ccf81611cc98454611c1a565b84611c54565b6020601f821160018114611d035760008315611ceb5750848201515b600019600385901b1c1916600184901b178455611c9b565b600084815260208120601f198516915b82811015611d335787850151825560209485019460019092019101611d13565b5084821015611d515786840151600019600387901b60f8161c191681555b50505050600190811b01905550565b6001600160a01b0383168152604081016117be6020830184611b08565b604081526000611d906040830185611985565b90508260208301529392505050565b600081611dae57611dae611adf565b506000190190565b60006080828403128015611dc957600080fd5b50604051600090608081016001600160401b0381118282101715611def57611def61187b565b6040528351611dfd8161178c565b81526020840151611e0d8161178c565b6020820152604084015160088110611e23578283fd5b604082015260609384015193810193909352509092915050565b600060208284031215611e4f57600080fd5b505191905056fea26469706673582212203c6de4d7a0c7b415b331d7b56858c216be529e91b9e6be78e2a9993c32a4571064736f6c634300081b0033",
  "linkReferences": {},
  "deployedLinkReferences": {}
}