{
  "_format": "hh-sol-artifact-1",
  "contractName": "InspectionRules",
  "sourceName": "contracts/InspectionRules.sol",
  "abi": [
    {
      "inputs": [
        {
          "internalType": "uint32",
          "name": "timeBetweenInspections_",
          "type": "uint32"
        },
        {
          "internalType": "uint32",
          "name": "blocksToExpireAcceptedInspection_",
          "type": "uint32"
        },
        {
          "internalType": "uint8",
          "name": "allowedInitialRequests_",
          "type": "uint8"
        },
        {
          "internalType": "uint32",
          "name": "acceptInspectionDelayBlocks_",
          "type": "uint32"
        },
        {
          "internalType": "uint32",
          "name": "securityBlocksToValidation_",
          "type": "uint32"
        }
      ],
      "stateMutability": "nonpayable",
      "type": "constructor"
    },
    {
      "anonymous": false,
      "inputs": [
        {
          "indexed": true,
          "internalType": "uint256",
          "name": "inspectionId",
          "type": "uint256"
        },
        {
          "indexed": true,
          "internalType": "address",
          "name": "inspectorAddress",
          "type": "address"
        },
        {
          "indexed": false,
          "internalType": "uint256",
          "name": "acceptedAt",
          "type": "uint256"
        }
      ],
      "name": "InspectionAccepted",
      "type": "event"
    },
    {
      "anonymous": false,
      "inputs": [
        {
          "indexed": true,
          "internalType": "uint256",
          "name": "inspectionId",
          "type": "uint256"
        },
        {
          "indexed": true,
          "internalType": "address",
          "name": "inspectorAddress",
          "type": "address"
        },
        {
          "indexed": true,
          "internalType": "address",
          "name": "regeneratorAddress",
          "type": "address"
        },
        {
          "indexed": false,
          "internalType": "uint256",
          "name": "invalidatedAt",
          "type": "uint256"
        }
      ],
      "name": "InspectionInvalidated",
      "type": "event"
    },
    {
      "anonymous": false,
      "inputs": [
        {
          "indexed": true,
          "internalType": "uint256",
          "name": "inspectionId",
          "type": "uint256"
        },
        {
          "indexed": true,
          "internalType": "address",
          "name": "inspectorAddress",
          "type": "address"
        },
        {
          "indexed": true,
          "internalType": "address",
          "name": "regeneratorAddress",
          "type": "address"
        },
        {
          "indexed": false,
          "internalType": "uint32",
          "name": "treesResult",
          "type": "uint32"
        },
        {
          "indexed": false,
          "internalType": "uint32",
          "name": "biodiversityResult",
          "type": "uint32"
        },
        {
          "indexed": false,
          "internalType": "uint32",
          "name": "regenerationScore",
          "type": "uint32"
        },
        {
          "indexed": false,
          "internalType": "uint256",
          "name": "inspectedAt",
          "type": "uint256"
        }
      ],
      "name": "InspectionRealized",
      "type": "event"
    },
    {
      "anonymous": false,
      "inputs": [
        {
          "indexed": true,
          "internalType": "uint256",
          "name": "inspectionId",
          "type": "uint256"
        },
        {
          "indexed": true,
          "internalType": "address",
          "name": "regeneratorAddress",
          "type": "address"
        },
        {
          "indexed": false,
          "internalType": "uint256",
          "name": "createdAt",
          "type": "uint256"
        }
      ],
      "name": "InspectionRequested",
      "type": "event"
    },
    {
      "anonymous": false,
      "inputs": [
        {
          "indexed": true,
          "internalType": "address",
          "name": "previousOwner",
          "type": "address"
        },
        {
          "indexed": true,
          "internalType": "address",
          "name": "newOwner",
          "type": "address"
        }
      ],
      "name": "OwnershipTransferred",
      "type": "event"
    },
    {
      "inputs": [],
      "name": "MAX_BIODIVERSITY_RESULT",
      "outputs": [
        {
          "internalType": "uint32",
          "name": "",
          "type": "uint32"
        }
      ],
      "stateMutability": "view",
      "type": "function"
    },
    {
      "inputs": [],
      "name": "MAX_REGENERATOR_INSPECTIONS",
      "outputs": [
        {
          "internalType": "uint8",
          "name": "",
          "type": "uint8"
        }
      ],
      "stateMutability": "view",
      "type": "function"
    },
    {
      "inputs": [],
      "name": "MAX_TREES_RESULT",
      "outputs": [
        {
          "internalType": "uint32",
          "name": "",
          "type": "uint32"
        }
      ],
      "stateMutability": "view",
      "type": "function"
    },
    {
      "inputs": [
        {
          "internalType": "uint64",
          "name": "inspectionId",
          "type": "uint64"
        }
      ],
      "name": "acceptInspection",
      "outputs": [],
      "stateMutability": "nonpayable",
      "type": "function"
    },
    {
      "inputs": [],
      "name": "acceptInspectionDelayBlocks",
      "outputs": [
        {
          "internalType": "uint32",
          "name": "",
          "type": "uint32"
        }
      ],
      "stateMutability": "view",
      "type": "function"
    },
    {
      "inputs": [
        {
          "components": [
            {
              "internalType": "uint64",
              "name": "id",
              "type": "uint64"
            },
            {
              "internalType": "enum InspectionStatus",
              "name": "status",
              "type": "uint8"
            },
            {
              "internalType": "address",
              "name": "regenerator",
              "type": "address"
            },
            {
              "internalType": "address",
              "name": "inspector",
              "type": "address"
            },
            {
              "internalType": "uint32",
              "name": "treesResult",
              "type": "uint32"
            },
            {
              "internalType": "uint32",
              "name": "biodiversityResult",
              "type": "uint32"
            },
            {
              "internalType": "uint32",
              "name": "regenerationScore",
              "type": "uint32"
            },
            {
              "internalType": "string",
              "name": "proofPhotos",
              "type": "string"
            },
            {
              "internalType": "string",
              "name": "justificationReport",
              "type": "string"
            },
            {
              "internalType": "uint256",
              "name": "validationsCount",
              "type": "uint256"
            },
            {
              "internalType": "uint256",
              "name": "createdAt",
              "type": "uint256"
            },
            {
              "internalType": "uint256",
              "name": "acceptedAt",
              "type": "uint256"
            },
            {
              "internalType": "uint256",
              "name": "inspectedAt",
              "type": "uint256"
            },
            {
              "internalType": "uint256",
              "name": "inspectedAtEra",
              "type": "uint256"
            },
            {
              "internalType": "uint256",
              "name": "invalidatedAt",
              "type": "uint256"
            }
          ],
          "internalType": "struct Inspection",
          "name": "inspection",
          "type": "tuple"
        }
      ],
      "name": "acceptInspectionDelayBlocksPassed",
      "outputs": [
        {
          "internalType": "bool",
          "name": "",
          "type": "bool"
        }
      ],
      "stateMutability": "view",
      "type": "function"
    },
    {
      "inputs": [
        {
          "internalType": "uint64",
          "name": "id",
          "type": "uint64"
        },
        {
          "internalType": "string",
          "name": "justification",
          "type": "string"
        }
      ],
      "name": "addInspectionValidation",
      "outputs": [],
      "stateMutability": "nonpayable",
      "type": "function"
    },
    {
      "inputs": [],
      "name": "allowedInitialRequests",
      "outputs": [
        {
          "internalType": "uint8",
          "name": "",
          "type": "uint8"
        }
      ],
      "stateMutability": "view",
      "type": "function"
    },
    {
      "inputs": [],
      "name": "alreadyHaveInspectionAccepted",
      "outputs": [
        {
          "internalType": "bool",
          "name": "",
          "type": "bool"
        }
      ],
      "stateMutability": "view",
      "type": "function"
    },
    {
      "inputs": [],
      "name": "blocksToExpireAcceptedInspection",
      "outputs": [
        {
          "internalType": "uint32",
          "name": "",
          "type": "uint32"
        }
      ],
      "stateMutability": "view",
      "type": "function"
    },
    {
      "inputs": [
        {
          "internalType": "uint64",
          "name": "inspectionId",
          "type": "uint64"
        }
      ],
      "name": "calculateBlocksToExpire",
      "outputs": [
        {
          "internalType": "uint256",
          "name": "",
          "type": "uint256"
        }
      ],
      "stateMutability": "view",
      "type": "function"
    },
    {
      "inputs": [
        {
          "internalType": "uint64",
          "name": "id",
          "type": "uint64"
        }
      ],
      "name": "getInspection",
      "outputs": [
        {
          "components": [
            {
              "internalType": "uint64",
              "name": "id",
              "type": "uint64"
            },
            {
              "internalType": "enum InspectionStatus",
              "name": "status",
              "type": "uint8"
            },
            {
              "internalType": "address",
              "name": "regenerator",
              "type": "address"
            },
            {
              "internalType": "address",
              "name": "inspector",
              "type": "address"
            },
            {
              "internalType": "uint32",
              "name": "treesResult",
              "type": "uint32"
            },
            {
              "internalType": "uint32",
              "name": "biodiversityResult",
              "type": "uint32"
            },
            {
              "internalType": "uint32",
              "name": "regenerationScore",
              "type": "uint32"
            },
            {
              "internalType": "string",
              "name": "proofPhotos",
              "type": "string"
            },
            {
              "internalType": "string",
              "name": "justificationReport",
              "type": "string"
            },
            {
              "internalType": "uint256",
              "name": "validationsCount",
              "type": "uint256"
            },
            {
              "internalType": "uint256",
              "name": "createdAt",
              "type": "uint256"
            },
            {
              "internalType": "uint256",
              "name": "acceptedAt",
              "type": "uint256"
            },
            {
              "internalType": "uint256",
              "name": "inspectedAt",
              "type": "uint256"
            },
            {
              "internalType": "uint256",
              "name": "inspectedAtEra",
              "type": "uint256"
            },
            {
              "internalType": "uint256",
              "name": "invalidatedAt",
              "type": "uint256"
            }
          ],
          "internalType": "struct Inspection",
          "name": "",
          "type": "tuple"
        }
      ],
      "stateMutability": "view",
      "type": "function"
    },
    {
      "inputs": [
        {
          "internalType": "address",
          "name": "addr",
          "type": "address"
        }
      ],
      "name": "getInspectionsHistory",
      "outputs": [
        {
          "internalType": "uint64[]",
          "name": "",
          "type": "uint64[]"
        }
      ],
      "stateMutability": "view",
      "type": "function"
    },
    {
      "inputs": [],
      "name": "inspectionsBiodiversityImpact",
      "outputs": [
        {
          "internalType": "uint256",
          "name": "",
          "type": "uint256"
        }
      ],
      "stateMutability": "view",
      "type": "function"
    },
    {
      "inputs": [],
      "name": "inspectionsCount",
      "outputs": [
        {
          "internalType": "uint64",
          "name": "",
          "type": "uint64"
        }
      ],
      "stateMutability": "view",
      "type": "function"
    },
    {
      "inputs": [],
      "name": "inspectionsTotalCount",
      "outputs": [
        {
          "internalType": "uint64",
          "name": "",
          "type": "uint64"
        }
      ],
      "stateMutability": "view",
      "type": "function"
    },
    {
      "inputs": [],
      "name": "inspectionsTreesImpact",
      "outputs": [
        {
          "internalType": "uint256",
          "name": "",
          "type": "uint256"
        }
      ],
      "stateMutability": "view",
      "type": "function"
    },
    {
      "inputs": [],
      "name": "owner",
      "outputs": [
        {
          "internalType": "address",
          "name": "",
          "type": "address"
        }
      ],
      "stateMutability": "view",
      "type": "function"
    },
    {
      "inputs": [
        {
          "internalType": "uint64",
          "name": "inspectionId",
          "type": "uint64"
        },
        {
          "internalType": "string",
          "name": "proofPhotos",
          "type": "string"
        },
        {
          "internalType": "string",
          "name": "justificationReport",
          "type": "string"
        },
        {
          "internalType": "uint32",
          "name": "treesResult",
          "type": "uint32"
        },
        {
          "internalType": "uint32",
          "name": "biodiversityResult",
          "type": "uint32"
        }
      ],
      "name": "realizeInspection",
      "outputs": [],
      "stateMutability": "nonpayable",
      "type": "function"
    },
    {
      "inputs": [],
      "name": "realizedInspectionsCount",
      "outputs": [
        {
          "internalType": "uint64",
          "name": "",
          "type": "uint64"
        }
      ],
      "stateMutability": "view",
      "type": "function"
    },
    {
      "inputs": [],
      "name": "renounceOwnership",
      "outputs": [],
      "stateMutability": "nonpayable",
      "type": "function"
    },
    {
      "inputs": [],
      "name": "requestInspection",
      "outputs": [],
      "stateMutability": "nonpayable",
      "type": "function"
    },
    {
      "inputs": [],
      "name": "securityBlocksToValidation",
      "outputs": [
        {
          "internalType": "uint32",
          "name": "",
          "type": "uint32"
        }
      ],
      "stateMutability": "view",
      "type": "function"
    },
    {
      "inputs": [
        {
          "components": [
            {
              "internalType": "address",
              "name": "communityRulesAddress",
              "type": "address"
            },
            {
              "internalType": "address",
              "name": "regeneratorRulesAddress",
              "type": "address"
            },
            {
              "internalType": "address",
              "name": "validationRulesAddress",
              "type": "address"
            },
            {
              "internalType": "address",
              "name": "inspectorRulesAddress",
              "type": "address"
            },
            {
              "internalType": "address",
              "name": "regenerationIndexRulesAddress",
              "type": "address"
            },
            {
              "internalType": "address",
              "name": "activistRulesAddress",
              "type": "address"
            },
            {
              "internalType": "address",
              "name": "voteRulesAddress",
              "type": "address"
            }
          ],
          "internalType": "struct ContractsDependency",
          "name": "contractDependency",
          "type": "tuple"
        }
      ],
      "name": "setContractInterfaces",
      "outputs": [],
      "stateMutability": "nonpayable",
      "type": "function"
    },
    {
      "inputs": [],
      "name": "timeBetweenInspections",
      "outputs": [
        {
          "internalType": "uint32",
          "name": "",
          "type": "uint32"
        }
      ],
      "stateMutability": "view",
      "type": "function"
    },
    {
      "inputs": [
        {
          "internalType": "address",
          "name": "newOwner",
          "type": "address"
        }
      ],
      "name": "transferOwnership",
      "outputs": [],
      "stateMutability": "nonpayable",
      "type": "function"
    },
    {
      "inputs": [
        {
          "components": [
            {
              "internalType": "uint64",
              "name": "id",
              "type": "uint64"
            },
            {
              "internalType": "address",
              "name": "regeneratorWallet",
              "type": "address"
            },
            {
              "internalType": "string",
              "name": "name",
              "type": "string"
            },
            {
              "internalType": "string",
              "name": "proofPhoto",
              "type": "string"
            },
            {
              "internalType": "uint32",
              "name": "totalArea",
              "type": "uint32"
            },
            {
              "internalType": "bool",
              "name": "pendingInspection",
              "type": "bool"
            },
            {
              "internalType": "uint256",
              "name": "totalInspections",
              "type": "uint256"
            },
            {
              "internalType": "uint256",
              "name": "lastRequestAt",
              "type": "uint256"
            },
            {
              "components": [
                {
                  "internalType": "uint256",
                  "name": "score",
                  "type": "uint256"
                }
              ],
              "internalType": "struct RegenerationScore",
              "name": "regenerationScore",
              "type": "tuple"
            },
            {
              "components": [
                {
                  "internalType": "bool",
                  "name": "onContractPool",
                  "type": "bool"
                },
                {
                  "internalType": "uint256",
                  "name": "currentEra",
                  "type": "uint256"
                }
              ],
              "internalType": "struct Pool",
              "name": "pool",
              "type": "tuple"
            },
            {
              "internalType": "uint256",
              "name": "createdAt",
              "type": "uint256"
            },
            {
              "internalType": "uint256",
              "name": "coordinatesCount",
              "type": "uint256"
            }
          ],
          "internalType": "struct Regenerator",
          "name": "regenerator",
          "type": "tuple"
        }
      ],
      "name": "waitToRequest",
      "outputs": [
        {
          "internalType": "bool",
          "name": "",
          "type": "bool"
        }
      ],
      "stateMutability": "view",
      "type": "function"
    }
  ],
  "bytecode": "0x61012060405234801561001157600080fd5b50604051614221380380614221833981016040819052610030916100ce565b61003933610065565b6001805563ffffffff94851660a05292841660c05260ff909116608052821660e052166101005261013b565b600080546001600160a01b038381166001600160a01b0319831681178455604051919092169283917f8be0079c531659141344cd1fd0a4f28419497f9722a3daafe3b4186f6b6457e09190a35050565b805163ffffffff811681146100c957600080fd5b919050565b600080600080600060a086880312156100e657600080fd5b6100ef866100b5565b94506100fd602087016100b5565b9350604086015160ff8116811461011357600080fd5b9250610121606087016100b5565b915061012f608087016100b5565b90509295509295909350565b60805160a05160c05160e051610100516140636101be6000396000818161022301526125770152600081816103e301526107f70152600081816103b20152818161047d0152818161075401528181611cff015281816124cd015261259e01526000818161025f0152610da60152600081816103820152610d6f01526140636000f3fe608060405234801561001057600080fd5b50600436106101a95760003560e01c80637b798468116100f9578063e42c955111610097578063e734b81311610071578063e734b81314610405578063ed8f932114610418578063ee05057f14610421578063f2fde38b1461044157600080fd5b8063e42c9551146103ad578063e6e8428e146103d4578063e710483d146103de57600080fd5b80638da5cb5b116100d35780638da5cb5b1461035957806392f265d7146103745780639df79c921461037d578063a2b570a4146103a457600080fd5b80637b7984681461031e57806386297de91461033e57806386ae2fb11461035157600080fd5b80634d3fbe61116101665780636b2edc16116101405780636b2edc16146102d65780636ec08376146102f0578063715018a61461030357806379d3da361461030b57600080fd5b80634d3fbe61146102945780635401c1f2146102ae57806361a7581b146102c157600080fd5b80630cda2cce146101ae57806316d2bd34146101d4578063180d79441461020657806335c116771461021e5780633dbf1e8f1461025a5780633eef1a2a14610281575b600080fd5b6101c16101bc36600461303b565b610454565b6040519081526020015b60405180910390f35b6002546101ee90600160401b90046001600160401b031681565b6040516001600160401b0390911681526020016101cb565b61020e6104b3565b60405190151581526020016101cb565b6102457f000000000000000000000000000000000000000000000000000000000000000081565b60405163ffffffff90911681526020016101cb565b6102457f000000000000000000000000000000000000000000000000000000000000000081565b61020e61028f366004613243565b6107f3565b61029c600c81565b60405160ff90911681526020016101cb565b6002546101ee906001600160401b031681565b6102d46102cf36600461339b565b610834565b005b6002546101ee90600160801b90046001600160401b031681565b6102d46102fe366004613437565b6108d5565b6102d4610d57565b61020e6103193660046134fe565b610d6b565b61033161032c366004613633565b610dda565b6040516101cb9190613650565b6102d461034c36600461303b565b610e78565b6102d46116c9565b6000546040516001600160a01b0390911681526020016101cb565b61024561012c81565b61029c7f000000000000000000000000000000000000000000000000000000000000000081565b6101c160045481565b6102457f000000000000000000000000000000000000000000000000000000000000000081565b61024562030d4081565b6102457f000000000000000000000000000000000000000000000000000000000000000081565b6102d461041336600461369c565b6118ed565b6101c160035481565b61043461042f36600461303b565b611f37565b6040516101cb91906137b7565b6102d461044f366004613633565b6121f8565b6001600160401b03811660009081526005602052604081206006015443906104a39063ffffffff7f000000000000000000000000000000000000000000000000000000000000000016906138ec565b6104ad91906138ff565b92915050565b60085460405163e8f7dfcf60e01b815233600482015260009182916001600160a01b039091169063e8f7dfcf90602401600060405180830381865afa158015610500573d6000803e3d6000fd5b505050506040513d6000823e601f3d908101601f1916820160405261052891908101906139a6565b6101008101516001600160401b03908116600090815260056020908152604080832081516101e08101909252805494851682529495509193919290830190600160401b900460ff1660038111156105815761058161373d565b60038111156105925761059261373d565b815281546001600160a01b03600160481b909104811660208301526001830154908116604083015263ffffffff600160a01b820481166060840152600160c01b820481166080840152600160e01b9091041660a082015260028201805460c0909201916105fe90613abf565b80601f016020809104026020016040519081016040528092919081815260200182805461062a90613abf565b80156106775780601f1061064c57610100808354040283529160200191610677565b820191906000526020600020905b81548152906001019060200180831161065a57829003601f168201915b5050505050815260200160038201805461069090613abf565b80601f01602080910402602001604051908101604052809291908181526020018280546106bc90613abf565b80156107095780601f106106de57610100808354040283529160200191610709565b820191906000526020600020905b8154815290600101906020018083116106ec57829003601f168201915b505050505081526020016004820154815260200160058201548152602001600682015481526020016007820154815260200160088201548152602001600982015481525050905060007f000000000000000000000000000000000000000000000000000000000000000063ffffffff1682610160015161078991906138ec565b4311905060006002836020015160038111156107a7576107a761373d565b14806107c857506003836020015160038111156107c6576107c661373d565b145b905080806107d35750815b806107ea57506101008401516001600160401b0316155b94505050505090565b60007f000000000000000000000000000000000000000000000000000000000000000063ffffffff1682610140015161082c91906138ec565b431192915050565b61083c61226e565b8051600a80546001600160a01b03199081166001600160a01b039384161790915560208301516009805483169184169190911790556040830151600b8054831691841691909117905560608301516008805483169184169190911790556080830151600e8054831691841691909117905560a0830151600c8054831691841691909117905560c090920151600d80549093169116179055565b6108dd6122c8565b805161012c101561092e5760405162461bcd60e51b815260206004820152601660248201527513585e0818da185c9858dd195c9cc81c995858da195960521b60448201526064015b60405180910390fd5b600d546040516356fd539760e11b81523360048201526001600160a01b039091169063adfaa72e90602401602060405180830381865afa158015610976573d6000803e3d6000fd5b505050506040513d601f19601f8201168201806040525081019061099a9190613b04565b6109d45760405162461bcd60e51b815260206004820152600b60248201526a2737ba1030903b37ba32b960a91b6044820152606401610925565b600b54604051630d84466b60e21b81523360048201526001600160a01b039091169063361119ac90602401602060405180830381865afa158015610a1c573d6000803e3d6000fd5b505050506040513d601f19601f82011682018060405250810190610a409190613b04565b610a845760405162461bcd60e51b8152602060048201526015602482015274576169742074696d654265747765656e566f74657360581b6044820152606401610925565b6001600160401b0382166000908152600560209081526040918290206008810154600954845163e05cf15560e01b81529451929491936001600160a01b039091169263e05cf1559260048082019392918290030181865afa158015610aed573d6000803e3d6000fd5b505050506040513d601f19601f82011682018060405250810190610b119190613b21565b14610b575760405162461bcd60e51b815260206004820152601660248201527543616e27742076616c696461646520616e796d6f726560501b6044820152606401610925565b805460016001600160401b0390911610801590610b8b575060025481546001600160401b03600160801b9092048216911611155b610bd75760405162461bcd60e51b815260206004820152601960248201527f496e7370656374696f6e20646f6573206e6f74206578697374000000000000006044820152606401610925565b60028154600160401b900460ff166003811115610bf657610bf661373d565b14610c435760405162461bcd60e51b815260206004820152601d60248201527f4f6e6c7920746f20696e7370656374656420696e7370656374696f6e730000006044820152606401610925565b6001816004016000828254610c5891906138ec565b9091555050600b54604080516369bf81c360e01b815290516000926001600160a01b0316916369bf81c39160048083019260209291908290030181865afa158015610ca7573d6000803e3d6000fd5b505050506040513d601f19601f82011682018060405250810190610ccb9190613b21565b60048301541080159150610ce257610ce282612321565b600b5460405163f73535c960e01b81526001600160a01b039091169063f73535c990610d1690859087903390600401613bbd565b600060405180830381600087803b158015610d3057600080fd5b505af1158015610d44573d6000803e3d6000fd5b505050505050610d5360018055565b5050565b610d5f61226e565b610d696000612479565b565b60007f000000000000000000000000000000000000000000000000000000000000000060ff168260c001511015610da457506001919050565b7f000000000000000000000000000000000000000000000000000000000000000063ffffffff168260e0015161082c91906138ec565b6001600160a01b038116600090815260066020908152604091829020805483518184028101840190945280845260609392830182828015610e6c57602002820191906000526020600020906000905b82829054906101000a90046001600160401b03166001600160401b031681526020019060080190602082600701049283019260010382029150808411610e295790505b50505050509050919050565b610e806122c8565b600a54604051631292f8c160e31b81526001600160a01b0390911690639497c60890610eb3906002903390600401613ced565b602060405180830381865afa158015610ed0573d6000803e3d6000fd5b505050506040513d601f19601f82011682018060405250810190610ef49190613b04565b610f325760405162461bcd60e51b815260206004820152600f60248201526e4f6e6c7920696e73706563746f727360881b6044820152606401610925565b600854604051634d5ff1d360e01b81523360048201526001600160a01b0390911690634d5ff1d390602401602060405180830381865afa158015610f7a573d6000803e3d6000fd5b505050506040513d601f19601f82011682018060405250810190610f9e9190613b04565b610fe35760405162461bcd60e51b815260206004820152601660248201527513db9b1e480cc819da5d99555c1cc8185b1b1bddd95960521b6044820152606401610925565b6001600160401b038082166000908152600560205260409020805490916001911610156110525760405162461bcd60e51b815260206004820152601760248201527f496e7370656374696f6e20646f206e6f742065786973740000000000000000006044820152606401610925565b61105a6104b3565b6110995760405162461bcd60e51b815260206004820152601060248201526f105b1c9958591e481858d8d95c1d195960821b6044820152606401610925565b3360009081526007602090815260408083208454600160481b90046001600160a01b0316845290915290205460ff16156111095760405162461bcd60e51b8152602060048201526011602482015270105b1c9958591e481a5b9cdc1958dd1959607a1b6044820152606401610925565b60008154600160401b900460ff1660038111156111285761112861373d565b146111755760405162461bcd60e51b815260206004820152601760248201527f496e7370656374696f6e206d757374206265204f50454e0000000000000000006044820152606401610925565b604080516101e0810190915281546001600160401b0381168252611388919083906020830190600160401b900460ff1660038111156111b6576111b661373d565b60038111156111c7576111c761373d565b815281546001600160a01b03600160481b909104811660208301526001830154908116604083015263ffffffff600160a01b820481166060840152600160c01b820481166080840152600160e01b9091041660a082015260028201805460c09092019161123390613abf565b80601f016020809104026020016040519081016040528092919081815260200182805461125f90613abf565b80156112ac5780601f10611281576101008083540402835291602001916112ac565b820191906000526020600020905b81548152906001019060200180831161128f57829003601f168201915b505050505081526020016003820180546112c590613abf565b80601f01602080910402602001604051908101604052809291908181526020018280546112f190613abf565b801561133e5780601f106113135761010080835404028352916020019161133e565b820191906000526020600020905b81548152906001019060200180831161132157829003601f168201915b5050505050815260200160048201548152602001600582015481526020016006820154815260200160078201548152602001600882015481526020016009820154815250506107f3565b6113c85760405162461bcd60e51b8152602060048201526011602482015270576169742064656c617920626c6f636b7360781b6044820152606401610925565b6113d06124c9565b6114125760405162461bcd60e51b81526020600482015260136024820152725761697420756e74696c206e6578742065726160681b6044820152606401610925565b600854604051631feeefc760e21b81523360048201526001600160a01b0390911690637fbbbf1c90602401602060405180830381865afa15801561145a573d6000803e3d6000fd5b505050506040513d601f19601f8201168201806040525081019061147e9190613b04565b6114bb5760405162461bcd60e51b815260206004820152600e60248201526d15d85a5d081d1bc81858d8d95c1d60921b6044820152606401610925565b600a548154604051631292f8c160e31b81526001600160a01b0392831692639497c608926114fa92600192600160481b90920490911690600401613ced565b602060405180830381865afa158015611517573d6000803e3d6000fd5b505050506040513d601f19601f8201168201806040525081019061153b9190613b04565b61157d5760405162461bcd60e51b8152602060048201526013602482015272149959d95b995c985d1bdc881a5b9d985b1a59606a1b6044820152606401610925565b8054600160401b60ff60401b19909116178082554360068301556001820180546001600160a01b0319163317905560095460405163076d908160e21b81526001600160a01b03600160481b90930483166004820152911690631db6420490602401600060405180830381600087803b1580156115f857600080fd5b505af115801561160c573d6000803e3d6000fd5b50506008546040516396cd035760e01b81523360048201526001600160401b03861660248201526001600160a01b0390911692506396cd03579150604401600060405180830381600087803b15801561166457600080fd5b505af1158015611678573d6000803e3d6000fd5b50506040514381523392506001600160401b03851691507ff9556ba762f15e7f3671b8f33a1f662df1a146fa3ec77a706435e6e4572ab8d19060200160405180910390a3506116c660018055565b50565b6116d16122c8565b60095460405163065ab21b60e41b81523360048201526000916001600160a01b0316906365ab21b090602401600060405180830381865afa15801561171a573d6000803e3d6000fd5b505050506040513d6000823e601f3d908101601f191682016040526117429190810190613d83565b600a54604051631292f8c160e31b81529192506001600160a01b031690639497c60890611776906001903390600401613ced565b602060405180830381865afa158015611793573d6000803e3d6000fd5b505050506040513d601f19601f820116820180604052508101906117b79190613b04565b6117f75760405162461bcd60e51b81526020600482015260116024820152704f6e6c7920726567656e657261746f727360781b6044820152606401610925565b8060a00151156118385760405162461bcd60e51b815260206004820152600c60248201526b2932b8bab2b9ba1027a822a760a11b6044820152606401610925565b61184181610d6b565b61187f5760405162461bcd60e51b815260206004820152600f60248201526e15d85a5d081d1bc81c995c5d595cdd608a1b6044820152606401610925565b60c0810151600c116118d35760405162461bcd60e51b815260206004820152601f60248201527f596f75206861766520636f6d706c6574656420796f7572206d697373696f6e006044820152606401610925565b6118db61264a565b6118e3612add565b50610d6960018055565b6118f56122c8565b8351609610156119345760405162461bcd60e51b815260206004820152600a60248201526909ac2f040d8cadccee8d60b31b6044820152606401610925565b82516103e810156119745760405162461bcd60e51b815260206004820152600a60248201526909ac2f040d8cadccee8d60b31b6044820152606401610925565b6001600160401b03858116600090815260056020908152604080832081516101e08101909252805494851682529293909291830190600160401b900460ff1660038111156119c4576119c461373d565b60038111156119d5576119d561373d565b815281546001600160a01b03600160481b909104811660208301526001830154908116604083015263ffffffff600160a01b820481166060840152600160c01b820481166080840152600160e01b9091041660a082015260028201805460c090920191611a4190613abf565b80601f0160208091040260200160405190810160405280929190818152602001828054611a6d90613abf565b8015611aba5780601f10611a8f57610100808354040283529160200191611aba565b820191906000526020600020905b815481529060010190602001808311611a9d57829003601f168201915b50505050508152602001600382018054611ad390613abf565b80601f0160208091040260200160405190810160405280929190818152602001828054611aff90613abf565b8015611b4c5780601f10611b2157610100808354040283529160200191611b4c565b820191906000526020600020905b815481529060010190602001808311611b2f57829003601f168201915b5050505050815260200160048201548152602001600582015481526020016006820154815260200160078201548152602001600882015481526020016009820154815250509050600a60009054906101000a90046001600160a01b03166001600160a01b0316639497c6086002336040518363ffffffff1660e01b8152600401611bd7929190613ced565b602060405180830381865afa158015611bf4573d6000803e3d6000fd5b505050506040513d601f19601f82011682018060405250810190611c189190613b04565b611c565760405162461bcd60e51b815260206004820152600f60248201526e4f6e6c7920696e73706563746f727360881b6044820152606401610925565b600181602001516003811115611c6e57611c6e61373d565b14611cab5760405162461bcd60e51b815260206004820152600d60248201526c416363657074206265666f726560981b6044820152606401610925565b60608101516001600160a01b03163314611cfd5760405162461bcd60e51b81526020600482015260136024820152722737ba103cb7bab91034b739b832b1ba34b7b760691b6044820152606401610925565b7f000000000000000000000000000000000000000000000000000000000000000063ffffffff16816101600151611d3491906138ec565b431115611d785760405162461bcd60e51b8152602060048201526012602482015271125b9cdc1958dd1a5bdb88115e1c1a5c995960721b6044820152606401610925565b62030d4063ffffffff841611801590611d99575061012c63ffffffff831611155b611dd85760405162461bcd60e51b815260206004820152601060248201526f13585e081c995cdd5b1d081b1a5b5a5d60821b6044820152606401610925565b611de58186868686612b3c565b611dee81612de0565b8263ffffffff1660036000828254611e0691906138ec565b925050819055508163ffffffff1660046000828254611e2591906138ec565b9091555050336000908152600760209081526040808320848201516001600160a01b031684529091529020805460ff19166001179055600280546001600160401b03600160401b90910416906008611e7c83613eb8565b91906101000a8154816001600160401b0302191690836001600160401b031602179055505080604001516001600160a01b0316336001600160a01b0316876001600160401b03167f2224ef9c9aa3c3be082984f4341bc9e478345a0cdd809d940f034880dfeef86486868660c0015143604051611f1e949392919063ffffffff9485168152928416602084015292166040820152606081019190915260800190565b60405180910390a450611f3060018055565b5050505050565b611fd5604080516101e0810190915260008082526020820190815260200160006001600160a01b0316815260200160006001600160a01b03168152602001600063ffffffff168152602001600063ffffffff168152602001600063ffffffff16815260200160608152602001606081526020016000815260200160008152602001600081526020016000815260200160008152602001600081525090565b6001600160401b0382811660009081526005602090815260409182902082516101e0810190935280549384168352919290830190600160401b900460ff1660038111156120245761202461373d565b60038111156120355761203561373d565b815281546001600160a01b03600160481b909104811660208301526001830154908116604083015263ffffffff600160a01b820481166060840152600160c01b820481166080840152600160e01b9091041660a082015260028201805460c0909201916120a190613abf565b80601f01602080910402602001604051908101604052809291908181526020018280546120cd90613abf565b801561211a5780601f106120ef5761010080835404028352916020019161211a565b820191906000526020600020905b8154815290600101906020018083116120fd57829003601f168201915b5050505050815260200160038201805461213390613abf565b80601f016020809104026020016040519081016040528092919081815260200182805461215f90613abf565b80156121ac5780601f10612181576101008083540402835291602001916121ac565b820191906000526020600020905b81548152906001019060200180831161218f57829003601f168201915b5050505050815260200160048201548152602001600582015481526020016006820154815260200160078201548152602001600882015481526020016009820154815250509050919050565b61220061226e565b6001600160a01b0381166122655760405162461bcd60e51b815260206004820152602660248201527f4f776e61626c653a206e6577206f776e657220697320746865207a65726f206160448201526564647265737360d01b6064820152608401610925565b6116c681612479565b6000546001600160a01b03163314610d695760405162461bcd60e51b815260206004820181905260248201527f4f776e61626c653a2063616c6c6572206973206e6f7420746865206f776e65726044820152606401610925565b60026001540361231a5760405162461bcd60e51b815260206004820152601f60248201527f5265656e7472616e637947756172643a207265656e7472616e742063616c6c006044820152606401610925565b6002600155565b8060010160149054906101000a900463ffffffff1663ffffffff166003600082825461234d91906138ff565b9091555050600181015460048054600160c01b90920463ffffffff16916000906123789084906138ff565b9091555050600280546001600160401b031690600061239683613ee3565b91906101000a8154816001600160401b0302191690836001600160401b03160217905550506002600881819054906101000a90046001600160401b0316809291906123e090613ee3565b82546101009290920a6001600160401b0381810219909316918316021790915582546803000000000000000060ff60401b1982161780855543600986018190556001860154604051918252600160481b9092046001600160a01b0390811695509091169291909116907f5030472abe84127f1f2b92ab27763256a3d275c0c827c8cffa506c99cd1ed1049060200160405180910390a450565b600080546001600160a01b038381166001600160a01b0319831681178455604051919092169283917f8be0079c531659141344cd1fd0a4f28419497f9722a3daafe3b4186f6b6457e09190a35050565b60007f000000000000000000000000000000000000000000000000000000000000000063ffffffff16600960009054906101000a90046001600160a01b03166001600160a01b031663582256f16040518163ffffffff1660e01b8152600401602060405180830381865afa158015612545573d6000803e3d6000fd5b505050506040513d601f19601f820116820180604052508101906125699190613b21565b10156125755750600090565b7f000000000000000000000000000000000000000000000000000000000000000063ffffffff167f000000000000000000000000000000000000000000000000000000000000000063ffffffff16600960009054906101000a90046001600160a01b03166001600160a01b031663582256f16040518163ffffffff1660e01b8152600401602060405180830381865afa158015612616573d6000803e3d6000fd5b505050506040513d601f19601f8201168201806040525081019061263a9190613b21565b61264491906138ff565b11905090565b60028054600160801b90046001600160401b031690601061266a83613eb8565b82546101009290920a6001600160401b03818102199093169183160217909155600254600160801b90048116600081815260056020908152604080832081516101e0810190925280549586168252939550919391929190830190600160401b900460ff1660038111156126df576126df61373d565b60038111156126f0576126f061373d565b815281546001600160a01b03600160481b909104811660208301526001830154908116604083015263ffffffff600160a01b820481166060840152600160c01b820481166080840152600160e01b9091041660a082015260028201805460c09092019161275c90613abf565b80601f016020809104026020016040519081016040528092919081815260200182805461278890613abf565b80156127d55780601f106127aa576101008083540402835291602001916127d5565b820191906000526020600020905b8154815290600101906020018083116127b857829003601f168201915b505050505081526020016003820180546127ee90613abf565b80601f016020809104026020016040519081016040528092919081815260200182805461281a90613abf565b80156128675780601f1061283c57610100808354040283529160200191612867565b820191906000526020600020905b81548152906001019060200180831161284a57829003601f168201915b50505091835250506004820154602080830191909152600583015460408301526006830154606083015260078301546080830152600883015460a083015260099092015460c0909101526001600160401b0384168252909150600090820181905250336040808301919091526000606083018190524361014084015282516001600160401b039081168252600560209081529290912083518154921667ffffffffffffffff1983168117825592840151849391929091839168ffffffffffffffffff191617600160401b8360038111156129435761294361373d565b021790555060408201518154600160481b600160e81b031916600160481b6001600160a01b03928316021782556060830151600183018054608086015160a087015160c0880151949095166001600160c01b031990921691909117600160a01b63ffffffff92831602176001600160c01b0316600160c01b948216949094026001600160e01b031693909317600160e01b939092169290920217905560e082015160028201906129f39082613f52565b506101008201516003820190612a099082613f52565b5061012082015160048201556101408201516005820155610160820151600682015561018082015160078201556101a082015160088201556101c090910151600990910155600280546001600160401b0316906000612a6783613eb8565b91906101000a8154816001600160401b0302191690836001600160401b0316021790555050336001600160a01b0316826001600160401b03167f30053137f0cf60633be984694dd6295bb2027e571b975e37b0cedeefb92b375d43604051612ad191815260200190565b60405180910390a35050565b6009546040516394c3cee960e01b81523360048201526001600160a01b03909116906394c3cee990602401600060405180830381600087803b158015612b2257600080fd5b505af1158015612b36573d6000803e3d6000fd5b50505050565b6002602086018190525063ffffffff8281166080870181905290821660a08701819052600e5460405163ac2d165360e01b8152600481019390935260248301919091526001600160a01b03169063ac2d165390604401602060405180830381865afa158015612baf573d6000803e3d6000fd5b505050506040513d601f19601f82011682018060405250810190612bd39190614010565b63ffffffff1660c086015260e085018490526101008501839052436101808601526009546040805163e05cf15560e01b815290516001600160a01b039092169163e05cf155916004808201926020929091908290030181865afa158015612c3e573d6000803e3d6000fd5b505050506040513d601f19601f82011682018060405250810190612c629190613b21565b6101a086015284516001600160401b03908116600090815260056020908152604090912087518154931667ffffffffffffffff1984168117825591880151889391929091839168ffffffffffffffffff1990911617600160401b836003811115612cce57612cce61373d565b021790555060408201518154600160481b600160e81b031916600160481b6001600160a01b03928316021782556060830151600183018054608086015160a087015160c0880151949095166001600160c01b031990921691909117600160a01b63ffffffff92831602176001600160c01b0316600160c01b948216949094026001600160e01b031693909317600160e01b939092169290920217905560e08201516002820190612d7e9082613f52565b506101008201516003820190612d949082613f52565b5061012082015160048201556101408201516005820155610160820151600682015561018082015160078201556101a082015160088201556101c0909101516009909101555050505050565b6040818101516060830151600c5460095460c0860151945162a83a7b60e41b81526001600160a01b03808616600483015263ffffffff9096166024820152939492939183169262b2c9209286929190911690630a83a7b0906044016020604051808303816000875af1158015612e5a573d6000803e3d6000fd5b505050506040513d601f19601f82011682018060405250810190612e7e9190613b21565b6040516001600160e01b031960e085901b1681526001600160a01b0390921660048301526024820152604401600060405180830381600087803b158015612ec457600080fd5b505af1158015612ed8573d6000803e3d6000fd5b5050600c546008546040516350e7469d60e11b81526001600160a01b038681166004830152928316945063f1a204ce935085929091169063a1ce8d3a906024016020604051808303816000875af1158015612f37573d6000803e3d6000fd5b505050506040513d601f19601f82011682018060405250810190612f5b9190613b21565b6040516001600160e01b031960e085901b1681526001600160a01b0390921660048301526024820152604401600060405180830381600087803b158015612fa157600080fd5b505af1158015612fb5573d6000803e3d6000fd5b5050506001600160a01b0390921660009081526006602090815260408220945185546001810187559583529120600485040180546001600160401b0392831660086003909716969096026101000a9586029290950219909416179092555050565b6001600160401b03811681146116c657600080fd5b803561303681613016565b919050565b60006020828403121561304d57600080fd5b813561305881613016565b9392505050565b634e487b7160e01b600052604160045260246000fd5b6040516101e081016001600160401b03811182821017156130985761309861305f565b60405290565b60405160e081016001600160401b03811182821017156130985761309861305f565b604051602081016001600160401b03811182821017156130985761309861305f565b604080519081016001600160401b03811182821017156130985761309861305f565b60405161018081016001600160401b03811182821017156130985761309861305f565b60405161016081016001600160401b03811182821017156130985761309861305f565b604051601f8201601f191681016001600160401b03811182821017156131725761317261305f565b604052919050565b80356004811061303657600080fd5b6001600160a01b03811681146116c657600080fd5b803561303681613189565b63ffffffff811681146116c657600080fd5b8035613036816131a9565b60006001600160401b038211156131df576131df61305f565b50601f01601f191660200190565b600082601f8301126131fe57600080fd5b813561321161320c826131c6565b61314a565b81815284602083860101111561322657600080fd5b816020850160208301376000918101602001919091529392505050565b60006020828403121561325557600080fd5b81356001600160401b0381111561326b57600080fd5b82016101e0818503121561327e57600080fd5b613286613075565b61328f8261302b565b815261329d6020830161317a565b60208201526132ae6040830161319e565b60408201526132bf6060830161319e565b60608201526132d0608083016131bb565b60808201526132e160a083016131bb565b60a08201526132f260c083016131bb565b60c082015260e08201356001600160401b0381111561331057600080fd5b61331c868285016131ed565b60e0830152506101008201356001600160401b0381111561333c57600080fd5b613348868285016131ed565b6101008301525061012082810135908201526101408083013590820152610160808301359082015261018080830135908201526101a080830135908201526101c091820135918101919091529392505050565b600060e08284031280156133ae57600080fd5b506133b761309e565b82356133c281613189565b815260208301356133d281613189565b602082015260408301356133e581613189565b604082015260608301356133f881613189565b60608201526134096080840161319e565b608082015261341a60a0840161319e565b60a082015261342b60c0840161319e565b60c08201529392505050565b6000806040838503121561344a57600080fd5b823561345581613016565b915060208301356001600160401b0381111561347057600080fd5b61347c858286016131ed565b9150509250929050565b80151581146116c657600080fd5b803561303681613486565b6000602082840312156134b157600080fd5b6134b96130c0565b9135825250919050565b6000604082840312156134d557600080fd5b6134dd6130e2565b905081356134ea81613486565b815260209182013591810191909152919050565b60006020828403121561351057600080fd5b81356001600160401b0381111561352657600080fd5b82016101a0818503121561353957600080fd5b613541613104565b61354a8261302b565b81526135586020830161319e565b602082015260408201356001600160401b0381111561357657600080fd5b613582868285016131ed565b60408301525060608201356001600160401b038111156135a157600080fd5b6135ad868285016131ed565b6060830152506135bf608083016131bb565b60808201526135d060a08301613494565b60a082015260c0828101359082015260e080830135908201526135f785610100840161349f565b61010082015261360b8561012084016134c3565b6101208201526101608281013561014083015261018090920135918101919091529392505050565b60006020828403121561364557600080fd5b813561305881613189565b602080825282518282018190526000918401906040840190835b818110156136915783516001600160401b031683526020938401939092019160010161366a565b509095945050505050565b600080600080600060a086880312156136b457600080fd5b85356136bf81613016565b945060208601356001600160401b038111156136da57600080fd5b6136e6888289016131ed565b94505060408601356001600160401b0381111561370257600080fd5b61370e888289016131ed565b935050606086013561371f816131a9565b9150608086013561372f816131a9565b809150509295509295909350565b634e487b7160e01b600052602160045260246000fd5b600481106137635761376361373d565b9052565b60005b8381101561378257818101518382015260200161376a565b50506000910152565b600081518084526137a3816020860160208601613767565b601f01601f19169290920160200192915050565b602081526137d16020820183516001600160401b03169052565b600060208301516137e56040840182613753565b5060408301516001600160a01b03811660608401525060608301516001600160a01b038116608084015250608083015163ffffffff811660a08401525060a083015163ffffffff811660c08401525060c083015163ffffffff811660e08401525060e08301516101e061010084015261386261020084018261378b565b9050610100840151601f1984830301610120850152613881828261378b565b9150506101208401516101408401526101408401516101608401526101608401516101808401526101808401516101a08401526101a08401516101c08401526101c08401516101e08401528091505092915050565b634e487b7160e01b600052601160045260246000fd5b808201808211156104ad576104ad6138d6565b818103818111156104ad576104ad6138d6565b805161303681613016565b805161303681613189565b600082601f83011261393957600080fd5b815161394761320c826131c6565b81815284602083860101111561395c57600080fd5b61396d826020830160208701613767565b949350505050565b60006040828403121561398757600080fd5b61398f6130e2565b825181526020928301519281019290925250919050565b6000602082840312156139b857600080fd5b81516001600160401b038111156139ce57600080fd5b820161018081850312156139e157600080fd5b6139e9613127565b6139f282613912565b8152613a006020830161391d565b602082015260408201516001600160401b03811115613a1e57600080fd5b613a2a86828501613928565b60408301525060608201516001600160401b03811115613a4957600080fd5b613a5586828501613928565b6060830152506080828101519082015260a0808301519082015260c0808301519082015260e08083015190820152613a906101008301613912565b610100820152613aa4856101208401613975565b61012082015261016091909101516101408201529392505050565b600181811c90821680613ad357607f821691505b602082108103613af357634e487b7160e01b600052602260045260246000fd5b50919050565b805161303681613486565b600060208284031215613b1657600080fd5b815161305881613486565b600060208284031215613b3357600080fd5b5051919050565b60008154613b4781613abf565b808552600182168015613b615760018114613b7d57613bb4565b60ff1983166020870152602082151560051b8701019350613bb4565b84600052602060002060005b83811015613bab5781546020828a010152600182019150602081019050613b89565b87016020019450505b50505092915050565b6060815260008454613be3606084016001600160401b0383166001600160401b03169052565b613bf66080840160ff8360401c16613753565b6001600160a01b03604882901c1660a08401525060018501546001600160a01b03811660c084015260a081901c63ffffffff1660e084015260c081901c63ffffffff1661010084015260e081901c610120840152506101e0610140830152613c65610240830160028701613b3a565b828103605f1901610160840152613c7f8160038801613b3a565b9050600486015461018084015260058601546101a084015260068601546101c084015260078601546101e0840152600886015461020084015260098601546102208401528281036020840152613cd5818661378b565b91505061396d60408301846001600160a01b03169052565b6040810160098410613d0157613d0161373d565b9281526001600160a01b039190911660209091015290565b8051613036816131a9565b600060208284031215613d3657600080fd5b613d3e6130c0565b9151825250919050565b600060408284031215613d5a57600080fd5b613d626130e2565b90508151613d6f81613486565b815260209182015191810191909152919050565b600060208284031215613d9557600080fd5b81516001600160401b03811115613dab57600080fd5b82016101a08185031215613dbe57600080fd5b613dc6613104565b613dcf82613912565b8152613ddd6020830161391d565b602082015260408201516001600160401b03811115613dfb57600080fd5b613e0786828501613928565b60408301525060608201516001600160401b03811115613e2657600080fd5b613e3286828501613928565b606083015250613e4460808301613d19565b6080820152613e5560a08301613af9565b60a082015260c0828101519082015260e08083015190820152613e7c856101008401613d24565b610100820152613e90856101208401613d48565b6101208201526101608281015161014083015261018090920151918101919091529392505050565b60006001600160401b0382166001600160401b038103613eda57613eda6138d6565b60010192915050565b60006001600160401b03821680613efc57613efc6138d6565b6000190192915050565b601f821115613f4d57806000526020600020601f840160051c81016020851015613f2d5750805b601f840160051c820191505b81811015611f305760008155600101613f39565b505050565b81516001600160401b03811115613f6b57613f6b61305f565b613f7f81613f798454613abf565b84613f06565b6020601f821160018114613fb35760008315613f9b5750848201515b600019600385901b1c1916600184901b178455611f30565b600084815260208120601f198516915b82811015613fe35787850151825560209485019460019092019101613fc3565b50848210156140015786840151600019600387901b60f8161c191681555b50505050600190811b01905550565b60006020828403121561402257600080fd5b8151613058816131a956fea2646970667358221220c1b851fe25b1e472adb7bda5e71299a27199cf218f2938e6852933048e73459264736f6c634300081b0033",
  "linkReferences": {},
  "deployedLinkReferences": {}
}