{
  "_format": "hh-sol-artifact-1",
  "contractName": "InspectorRules",
  "sourceName": "contracts/InspectorRules.sol",
  "abi": [
    {
      "inputs": [
        {
          "internalType": "address",
          "name": "communityRulesAddress",
          "type": "address"
        },
        {
          "internalType": "address",
          "name": "inspectorPoolAddress",
          "type": "address"
        },
        {
          "internalType": "uint8",
          "name": "maxPenalties_",
          "type": "uint8"
        }
      ],
      "stateMutability": "nonpayable",
      "type": "constructor"
    },
    {
      "inputs": [
        {
          "internalType": "address",
          "name": "owner",
          "type": "address"
        }
      ],
      "name": "OwnableInvalidOwner",
      "type": "error"
    },
    {
      "inputs": [
        {
          "internalType": "address",
          "name": "account",
          "type": "address"
        }
      ],
      "name": "OwnableUnauthorizedAccount",
      "type": "error"
    },
    {
      "inputs": [],
      "name": "ReentrancyGuardReentrantCall",
      "type": "error"
    },
    {
      "anonymous": false,
      "inputs": [
        {
          "indexed": true,
          "internalType": "address",
          "name": "inspectorAddress",
          "type": "address"
        },
        {
          "indexed": false,
          "internalType": "uint256",
          "name": "newLevel",
          "type": "uint256"
        },
        {
          "indexed": false,
          "internalType": "uint256",
          "name": "blockNumber",
          "type": "uint256"
        }
      ],
      "name": "InspectorLevelIncreased",
      "type": "event"
    },
    {
      "anonymous": false,
      "inputs": [
        {
          "indexed": true,
          "internalType": "uint256",
          "name": "id",
          "type": "uint256"
        },
        {
          "indexed": true,
          "internalType": "address",
          "name": "inspectorAddress",
          "type": "address"
        },
        {
          "indexed": false,
          "internalType": "string",
          "name": "name",
          "type": "string"
        },
        {
          "indexed": false,
          "internalType": "uint256",
          "name": "blockNumber",
          "type": "uint256"
        }
      ],
      "name": "InspectorRegistered",
      "type": "event"
    },
    {
      "anonymous": false,
      "inputs": [
        {
          "indexed": true,
          "internalType": "address",
          "name": "inspectorAddress",
          "type": "address"
        },
        {
          "indexed": true,
          "internalType": "uint256",
          "name": "era",
          "type": "uint256"
        },
        {
          "indexed": false,
          "internalType": "uint256",
          "name": "blockNumber",
          "type": "uint256"
        }
      ],
      "name": "InspectorWithdrawalInitiated",
      "type": "event"
    },
    {
      "anonymous": false,
      "inputs": [
        {
          "indexed": true,
          "internalType": "address",
          "name": "previousOwner",
          "type": "address"
        },
        {
          "indexed": true,
          "internalType": "address",
          "name": "newOwner",
          "type": "address"
        }
      ],
      "name": "OwnershipTransferred",
      "type": "event"
    },
    {
      "inputs": [],
      "name": "BLOCKS_TO_ACCEPT",
      "outputs": [
        {
          "internalType": "uint32",
          "name": "",
          "type": "uint32"
        }
      ],
      "stateMutability": "view",
      "type": "function"
    },
    {
      "inputs": [],
      "name": "MAX_GIVEUPS",
      "outputs": [
        {
          "internalType": "uint8",
          "name": "",
          "type": "uint8"
        }
      ],
      "stateMutability": "view",
      "type": "function"
    },
    {
      "inputs": [],
      "name": "MINIMUM_INSPECTIONS_TO_POOL",
      "outputs": [
        {
          "internalType": "uint8",
          "name": "",
          "type": "uint8"
        }
      ],
      "stateMutability": "view",
      "type": "function"
    },
    {
      "inputs": [
        {
          "internalType": "string",
          "name": "name",
          "type": "string"
        },
        {
          "internalType": "string",
          "name": "proofPhoto",
          "type": "string"
        }
      ],
      "name": "addInspector",
      "outputs": [],
      "stateMutability": "nonpayable",
      "type": "function"
    },
    {
      "inputs": [
        {
          "internalType": "address",
          "name": "addr",
          "type": "address"
        },
        {
          "internalType": "uint64",
          "name": "inspectionId",
          "type": "uint64"
        }
      ],
      "name": "addPenalty",
      "outputs": [
        {
          "internalType": "uint256",
          "name": "",
          "type": "uint256"
        }
      ],
      "stateMutability": "nonpayable",
      "type": "function"
    },
    {
      "inputs": [
        {
          "internalType": "address",
          "name": "addr",
          "type": "address"
        },
        {
          "internalType": "uint64",
          "name": "lastInspectionId",
          "type": "uint64"
        }
      ],
      "name": "afterAcceptInspection",
      "outputs": [],
      "stateMutability": "nonpayable",
      "type": "function"
    },
    {
      "inputs": [
        {
          "internalType": "address",
          "name": "addr",
          "type": "address"
        },
        {
          "internalType": "uint64",
          "name": "inspectionId",
          "type": "uint64"
        }
      ],
      "name": "afterRealizeInspection",
      "outputs": [
        {
          "internalType": "uint256",
          "name": "",
          "type": "uint256"
        }
      ],
      "stateMutability": "nonpayable",
      "type": "function"
    },
    {
      "inputs": [
        {
          "internalType": "address",
          "name": "",
          "type": "address"
        }
      ],
      "name": "allowedCallers",
      "outputs": [
        {
          "internalType": "bool",
          "name": "",
          "type": "bool"
        }
      ],
      "stateMutability": "view",
      "type": "function"
    },
    {
      "inputs": [
        {
          "internalType": "address",
          "name": "addr",
          "type": "address"
        }
      ],
      "name": "canAcceptInspection",
      "outputs": [
        {
          "internalType": "bool",
          "name": "",
          "type": "bool"
        }
      ],
      "stateMutability": "view",
      "type": "function"
    },
    {
      "inputs": [
        {
          "internalType": "address",
          "name": "addr",
          "type": "address"
        }
      ],
      "name": "decrementInspections",
      "outputs": [],
      "stateMutability": "nonpayable",
      "type": "function"
    },
    {
      "inputs": [
        {
          "internalType": "address",
          "name": "userAddress",
          "type": "address"
        }
      ],
      "name": "denyInspector",
      "outputs": [],
      "stateMutability": "nonpayable",
      "type": "function"
    },
    {
      "inputs": [
        {
          "internalType": "address",
          "name": "addr",
          "type": "address"
        }
      ],
      "name": "getInspector",
      "outputs": [
        {
          "components": [
            {
              "internalType": "uint64",
              "name": "id",
              "type": "uint64"
            },
            {
              "internalType": "address",
              "name": "inspectorWallet",
              "type": "address"
            },
            {
              "internalType": "string",
              "name": "name",
              "type": "string"
            },
            {
              "internalType": "string",
              "name": "proofPhoto",
              "type": "string"
            },
            {
              "internalType": "uint256",
              "name": "totalInspections",
              "type": "uint256"
            },
            {
              "internalType": "uint256",
              "name": "giveUps",
              "type": "uint256"
            },
            {
              "internalType": "uint256",
              "name": "lastAcceptedAt",
              "type": "uint256"
            },
            {
              "internalType": "uint256",
              "name": "lastRealizedAt",
              "type": "uint256"
            },
            {
              "internalType": "uint64",
              "name": "lastInspection",
              "type": "uint64"
            },
            {
              "components": [
                {
                  "internalType": "uint256",
                  "name": "level",
                  "type": "uint256"
                },
                {
                  "internalType": "uint256",
                  "name": "currentEra",
                  "type": "uint256"
                }
              ],
              "internalType": "struct Pool",
              "name": "pool",
              "type": "tuple"
            },
            {
              "internalType": "uint256",
              "name": "createdAt",
              "type": "uint256"
            }
          ],
          "internalType": "struct Inspector",
          "name": "",
          "type": "tuple"
        }
      ],
      "stateMutability": "view",
      "type": "function"
    },
    {
      "inputs": [
        {
          "internalType": "uint256",
          "name": "",
          "type": "uint256"
        }
      ],
      "name": "inspectorsAddress",
      "outputs": [
        {
          "internalType": "address",
          "name": "",
          "type": "address"
        }
      ],
      "stateMutability": "view",
      "type": "function"
    },
    {
      "inputs": [
        {
          "internalType": "address",
          "name": "caller",
          "type": "address"
        }
      ],
      "name": "isAllowedCaller",
      "outputs": [
        {
          "internalType": "bool",
          "name": "",
          "type": "bool"
        }
      ],
      "stateMutability": "view",
      "type": "function"
    },
    {
      "inputs": [
        {
          "internalType": "address",
          "name": "addr",
          "type": "address"
        }
      ],
      "name": "isInspectorValid",
      "outputs": [
        {
          "internalType": "bool",
          "name": "",
          "type": "bool"
        }
      ],
      "stateMutability": "view",
      "type": "function"
    },
    {
      "inputs": [],
      "name": "maxPenalties",
      "outputs": [
        {
          "internalType": "uint8",
          "name": "",
          "type": "uint8"
        }
      ],
      "stateMutability": "view",
      "type": "function"
    },
    {
      "inputs": [
        {
          "internalType": "address",
          "name": "allowed",
          "type": "address"
        }
      ],
      "name": "newAllowedCaller",
      "outputs": [],
      "stateMutability": "nonpayable",
      "type": "function"
    },
    {
      "inputs": [],
      "name": "owner",
      "outputs": [
        {
          "internalType": "address",
          "name": "",
          "type": "address"
        }
      ],
      "stateMutability": "view",
      "type": "function"
    },
    {
      "inputs": [
        {
          "internalType": "address",
          "name": "",
          "type": "address"
        },
        {
          "internalType": "uint256",
          "name": "",
          "type": "uint256"
        }
      ],
      "name": "penalties",
      "outputs": [
        {
          "internalType": "uint64",
          "name": "inspectionId",
          "type": "uint64"
        }
      ],
      "stateMutability": "view",
      "type": "function"
    },
    {
      "inputs": [],
      "name": "poolCurrentEra",
      "outputs": [
        {
          "internalType": "uint256",
          "name": "",
          "type": "uint256"
        }
      ],
      "stateMutability": "view",
      "type": "function"
    },
    {
      "inputs": [
        {
          "internalType": "address",
          "name": "addr",
          "type": "address"
        },
        {
          "internalType": "bool",
          "name": "denied",
          "type": "bool"
        }
      ],
      "name": "removePoolLevels",
      "outputs": [],
      "stateMutability": "nonpayable",
      "type": "function"
    },
    {
      "inputs": [],
      "name": "renounceOwnership",
      "outputs": [],
      "stateMutability": "nonpayable",
      "type": "function"
    },
    {
      "inputs": [
        {
          "internalType": "address",
          "name": "_inspectionRulesAddress",
          "type": "address"
        }
      ],
      "name": "setContractCall",
      "outputs": [],
      "stateMutability": "nonpayable",
      "type": "function"
    },
    {
      "inputs": [
        {
          "internalType": "address",
          "name": "addr",
          "type": "address"
        }
      ],
      "name": "totalPenalties",
      "outputs": [
        {
          "internalType": "uint256",
          "name": "",
          "type": "uint256"
        }
      ],
      "stateMutability": "view",
      "type": "function"
    },
    {
      "inputs": [
        {
          "internalType": "address",
          "name": "newOwner",
          "type": "address"
        }
      ],
      "name": "transferOwnership",
      "outputs": [],
      "stateMutability": "nonpayable",
      "type": "function"
    },
    {
      "inputs": [],
      "name": "withdraw",
      "outputs": [],
      "stateMutability": "nonpayable",
      "type": "function"
    }
  ],
  "bytecode": "0x60a060405234801561001057600080fd5b50604051611f85380380611f8583398101604081905261002f9161010b565b338061005557604051631e4fbdf760e01b81526000600482015260240160405180910390fd5b61005e8161009f565b506001600255600680546001600160a01b039485166001600160a01b031991821617909155600780549390941692169190911790915560ff16608052610158565b600080546001600160a01b038381166001600160a01b0319831681178455604051919092169283917f8be0079c531659141344cd1fd0a4f28419497f9722a3daafe3b4186f6b6457e09190a35050565b80516001600160a01b038116811461010657600080fd5b919050565b60008060006060848603121561012057600080fd5b610129846100ef565b9250610137602085016100ef565b9150604084015160ff8116811461014d57600080fd5b809150509250925092565b608051611e1261017360003960006103af0152611e126000f3fe608060405234801561001057600080fd5b506004361061018e5760003560e01c80638f93716f116100de578063b24eb76911610097578063d01ac9a611610071578063d01ac9a6146103f7578063e05cf1551461040a578063e8f7dfcf14610412578063f2fde38b1461043257600080fd5b8063b24eb769146103aa578063bf960e85146103d1578063c3c983d2146103e457600080fd5b80638f93716f1461033257806396cd0357146103455780639c96045014610358578063a68012581461036b578063a77963f0146102b6578063b1e866551461039757600080fd5b80635fa71c281161014b578063755d4f9711610125578063755d4f97146102d85780637b334154146102eb5780637fbbbf1c1461030e5780638da5cb5b1461032157600080fd5b80635fa71c281461028b57806367b769a8146102b6578063715018a6146102d057600080fd5b8063031a7052146101935780630da0933a146101b55780632076267b146101f6578063218f23ca1461022d5780633ccfd60b146102425780634d5ff1d31461024a575b600080fd5b61019b600681565b60405163ffffffff90911681526020015b60405180910390f35b6101de6101c33660046116f9565b6005602052600090815260409020546001600160a01b031681565b6040516001600160a01b0390911681526020016101ac565b61021f610204366004611727565b6001600160a01b031660009081526004602052604090205490565b6040519081526020016101ac565b61024061023b366004611759565b610445565b005b610240610531565b61027b610258366004611727565b6001600160a01b0316600090815260036020819052604090912060040154111590565b60405190151581526020016101ac565b61029e610299366004611792565b6107e1565b6040516001600160401b0390911681526020016101ac565b6102be600381565b60405160ff90911681526020016101ac565b610240610819565b6102406102e6366004611727565b61082b565b61027b6102f9366004611727565b60016020526000908152604090205460ff1681565b61027b61031c366004611727565b610855565b6000546001600160a01b03166101de565b610240610340366004611727565b610893565b6102406103533660046117d3565b6108c2565b6102406103663660046118a4565b610965565b61027b610379366004611727565b6001600160a01b031660009081526001602052604090205460ff1690565b61021f6103a53660046117d3565b610c81565b6102be7f000000000000000000000000000000000000000000000000000000000000000081565b61021f6103df3660046117d3565b610d58565b6102406103f2366004611727565b610dcd565b610240610405366004611727565b610eae565b61021f61112f565b610425610420366004611727565b6111a2565b6040516101ac9190611951565b610240610440366004611727565b61138b565b3360009081526001602052604090205460ff1661047d5760405162461bcd60e51b815260040161047490611a39565b60405180910390fd5b6104856113c9565b806104bc576001600160a01b03821660009081526003602052604081206008018054600192906104b6908490611a7b565b90915550505b6007546040516310c791e560e11b81526001600160a01b03848116600483015283151560248301529091169063218f23ca90604401600060405180830381600087803b15801561050b57600080fd5b505af115801561051f573d6000803e3d6000fd5b5050505061052d6001600255565b5050565b6105396113c9565b600654604051631292f8c160e31b81526001600160a01b0390911690639497c6089061056c906002903390600401611ab0565b602060405180830381865afa158015610589573d6000803e3d6000fd5b505050506040513d601f19601f820116820180604052508101906105ad9190611ad6565b6105f95760405162461bcd60e51b815260206004820152601760248201527f506f6f6c206f6e6c7920746f20696e73706563746f72730000000000000000006044820152606401610474565b33600090815260036020819052604090912080820154909111156106555760405162461bcd60e51b81526020600482015260136024820152724d696e696d756d20696e7370656374696f6e7360681b6044820152606401610474565b6009810154600754604051637df42f8360e11b8152600481018390526001600160a01b039091169063fbe85f0690602401602060405180830381865afa1580156106a3573d6000803e3d6000fd5b505050506040513d601f19601f820116820180604052508101906106c79190611ad6565b6107215760405162461bcd60e51b815260206004820152602560248201527f4e6f7420656c696769626c6520746f20776974686472617720666f7220746869604482015264732065726160d81b6064820152608401610474565b60098201805490600061073383611af3565b909155505060075460405163f3fef3a360e01b8152336004820152602481018390526001600160a01b039091169063f3fef3a390604401600060405180830381600087803b15801561078457600080fd5b505af1158015610798573d6000803e3d6000fd5b50506040514381528392503391507f840624e970d5fc229e8298cd290e31ee6be9e7c78cf10b6f8176e4178a0323709060200160405180910390a350506107df6001600255565b565b600460205281600052604060002081815481106107fd57600080fd5b6000918252602090912001546001600160401b03169150829050565b6108216113f1565b6107df600061141e565b6108336113f1565b600880546001600160a01b0319166001600160a01b0392909216919091179055565b6001600160a01b0381166000908152600360205260408120600601548061087f5750600192915050565b61088a600682611b0c565b43119392505050565b61089b6113f1565b6001600160a01b03166000908152600160208190526040909120805460ff19169091179055565b3360009081526001602052604090205460ff166108f15760405162461bcd60e51b815260040161047490611a39565b6008546001600160a01b031633811461091c5760405162461bcd60e51b815260040161047490611b1f565b6001600160a01b0383166000908152600360205260409020436005820155600701805467ffffffffffffffff19166001600160401b0384161790556109608361146e565b505050565b815160321080159061097957508051609610155b6109b65760405162461bcd60e51b815260206004820152600e60248201526d4d6178206368617261637465727360901b6044820152606401610474565b60065460405162f5960960e51b81526000916001600160a01b031690631eb2c120906109e790600290600401611b56565b602060405180830381865afa158015610a04573d6000803e3d6000fd5b505050506040513d601f19601f82011682018060405250810190610a289190611b64565b610a33906001611b81565b9050604051806101600160405280826001600160401b03168152602001336001600160a01b031681526020018481526020018381526020016000815260200160008152602001600081526020016000815260200160006001600160401b03168152602001604051806040016040528060008152602001610ab161112f565b90528152436020918201523360009081526003825260409081902083518154938501516001600160a01b0316600160401b026001600160e01b03199094166001600160401b03909116179290921782558201516001820190610b139082611c28565b5060608201516002820190610b289082611c28565b506080820151600382015560a082015160048083019190915560c083015160058084019190915560e084015160068085019190915561010085015160078501805467ffffffffffffffff19166001600160401b0392831617905561012086015180516008870155602090810151600987015561014090960151600a90950194909455928516600090815293526040928390208054336001600160a01b0319909116811790915591549251639c3eead960e01b81526001600160a01b0390931692639c3eead992610bfd92909160029101611ce6565b600060405180830381600087803b158015610c1757600080fd5b505af1158015610c2b573d6000803e3d6000fd5b50505050336001600160a01b0316816001600160401b03167ff497df17d0f8e81cbbeac1fab2ef010533e6b0010216eb360160fc9021a060fa8543604051610c74929190611d03565b60405180910390a3505050565b3360009081526001602052604081205460ff16610cb05760405162461bcd60e51b815260040161047490611a39565b6008546001600160a01b0316338114610cdb5760405162461bcd60e51b815260040161047490611b1f565b610ce36113c9565b6001600160a01b038416600081815260046020818152604080842081518084019092526001600160401b038981168352815460018101835582875284872093519301805467ffffffffffffffff19169390911692909217909155939092529052545b9150610d516001600255565b5092915050565b3360009081526001602052604081205460ff16610d875760405162461bcd60e51b815260040161047490611a39565b6008546001600160a01b0316338114610db25760405162461bcd60e51b815260040161047490611b1f565b610dba6113c9565b610dc38461149d565b610d4584846114c4565b3360009081526001602052604090205460ff16610dfc5760405162461bcd60e51b815260040161047490611a39565b6008546001600160a01b0316338114610e275760405162461bcd60e51b815260040161047490611b1f565b6001600160a01b038216600090815260036020819052604090912090810154610e925760405162461bcd60e51b815260206004820152601860248201527f746f74616c496e7370656374696f6e7320696e76616c696400000000000000006044820152606401610474565b600381018054906000610ea483611d25565b9190505550505050565b3360009081526001602052604090205460ff16610edd5760405162461bcd60e51b815260040161047490611a39565b6008546001600160a01b0316338114610f085760405162461bcd60e51b815260040161047490611b1f565b60065460405163e838dfbb60e01b81526001600160a01b0384811660048301529091169063e838dfbb90602401602060405180830381865afa158015610f52573d6000803e3d6000fd5b505050506040513d601f19601f82011682018060405250810190610f769190611ad6565b61052d57600654604051634acf78e960e11b81526001600160a01b0384811660048301529091169063959ef1d290602401600060405180830381600087803b158015610fc157600080fd5b505af1158015610fd5573d6000803e3d6000fd5b505060065460405163158bdc5f60e11b81526001600160a01b038681166004830152600094509091169150632b17b8be90602401608060405180830381865afa158015611026573d6000803e3d6000fd5b505050506040513d601f19601f8201168201806040525081019061104a9190611d3c565b60208101519091506001600160a01b0316156110c4576006546020820151604051636101bf2160e01b81526001600160a01b039182166004820152911690636101bf2190602401600060405180830381600087803b1580156110ab57600080fd5b505af11580156110bf573d6000803e3d6000fd5b505050505b6007546040516310c791e560e11b81526001600160a01b038581166004830152600160248301529091169063218f23ca90604401600060405180830381600087803b15801561111257600080fd5b505af1158015611126573d6000803e3d6000fd5b50505050505050565b60075460408051637686fbcf60e11b815290516000926001600160a01b03169163ed0df79e9160048083019260209291908290030181865afa158015611179573d6000803e3d6000fd5b505050506040513d601f19601f8201168201806040525081019061119d9190611dc3565b905090565b6111aa611669565b6001600160a01b0380831660009081526003602090815260409182902082516101608101845281546001600160401b0381168252600160401b900490941691840191909152600181018054919284019161120390611ba0565b80601f016020809104026020016040519081016040528092919081815260200182805461122f90611ba0565b801561127c5780601f106112515761010080835404028352916020019161127c565b820191906000526020600020905b81548152906001019060200180831161125f57829003601f168201915b5050505050815260200160028201805461129590611ba0565b80601f01602080910402602001604051908101604052809291908181526020018280546112c190611ba0565b801561130e5780601f106112e35761010080835404028352916020019161130e565b820191906000526020600020905b8154815290600101906020018083116112f157829003601f168201915b505050918352505060038201546020808301919091526004830154604080840191909152600584015460608401526006840154608084015260078401546001600160401b031660a084015280518082019091526008840154815260098401549181019190915260c0820152600a9091015460e09091015292915050565b6113936113f1565b6001600160a01b0381166113bd57604051631e4fbdf760e01b815260006004820152602401610474565b6113c68161141e565b50565b60028054036113eb57604051633ee5aeb560e01b815260040160405180910390fd5b60028055565b6000546001600160a01b031633146107df5760405163118cdaa760e01b8152336004820152602401610474565b600080546001600160a01b038381166001600160a01b0319831681178455604051919092169283917f8be0079c531659141344cd1fd0a4f28419497f9722a3daafe3b4186f6b6457e09190a35050565b6001600160a01b038116600090815260036020526040812060040180549161149583611af3565b919050555050565b6001600160a01b038116600090815260036020526040812060040180549161149583611d25565b6001600160a01b038216600090815260036020526040812080546001600160401b031682036115355760405162461bcd60e51b815260206004820152601860248201527f496e73706563746f7220646f6573206e6f7420657869737400000000000000006044820152606401610474565b60038101805490600061154783611af3565b909155505043600682015560088101805490600061156483611af3565b91905055506115738184611580565b6003015490505b92915050565b61158f82600301546003111590565b611597575050565b60075482546040516338e8490d60e11b81526001600160a01b03600160401b90920482166004820152600160248201526001600160401b03841660448201529116906371d0921a90606401600060405180830381600087803b1580156115fc57600080fd5b505af1158015611610573d6000803e3d6000fd5b50508354600885015460408051918252436020830152600160401b9092046001600160a01b031693507fb569f8300b4cf9fad5353ce8ea5c9f82098e5ff03743f0d50d213fc166d3a4e092500160405180910390a25050565b60405180610160016040528060006001600160401b0316815260200160006001600160a01b0316815260200160608152602001606081526020016000815260200160008152602001600081526020016000815260200160006001600160401b031681526020016116ec604051806040016040528060008152602001600081525090565b8152602001600081525090565b60006020828403121561170b57600080fd5b5035919050565b6001600160a01b03811681146113c657600080fd5b60006020828403121561173957600080fd5b813561174481611712565b9392505050565b80151581146113c657600080fd5b6000806040838503121561176c57600080fd5b823561177781611712565b915060208301356117878161174b565b809150509250929050565b600080604083850312156117a557600080fd5b82356117b081611712565b946020939093013593505050565b6001600160401b03811681146113c657600080fd5b600080604083850312156117e657600080fd5b82356117f181611712565b91506020830135611787816117be565b634e487b7160e01b600052604160045260246000fd5b600082601f83011261182857600080fd5b81356001600160401b0381111561184157611841611801565b604051601f8201601f19908116603f011681016001600160401b038111828210171561186f5761186f611801565b60405281815283820160200185101561188757600080fd5b816020850160208301376000918101602001919091529392505050565b600080604083850312156118b757600080fd5b82356001600160401b038111156118cd57600080fd5b6118d985828601611817565b92505060208301356001600160401b038111156118f557600080fd5b61190185828601611817565b9150509250929050565b6000815180845260005b8181101561193157602081850181015186830182015201611915565b506000602082860101526020601f19601f83011685010191505092915050565b6020815261196b6020820183516001600160401b03169052565b6000602083015161198760408401826001600160a01b03169052565b50604083015161018060608401526119a36101a084018261190b565b90506060840151601f198483030160808501526119c0828261190b565b915050608084015160a084015260a084015160c084015260c084015160e084015260e0840151610100840152610100840151611a086101208501826001600160401b03169052565b5061012084015180516101408501526020810151610160850152506101408401516101808401528091505092915050565b6020808252601290820152712737ba1030b63637bbb2b21031b0b63632b960711b604082015260600190565b634e487b7160e01b600052601160045260246000fd5b8181038181111561157a5761157a611a65565b60088110611aac57634e487b7160e01b600052602160045260246000fd5b9052565b60408101611abe8285611a8e565b6001600160a01b039290921660209190910152919050565b600060208284031215611ae857600080fd5b81516117448161174b565b600060018201611b0557611b05611a65565b5060010190565b8082018082111561157a5761157a611a65565b6020808252601e908201527f43616c6c6572206d7573742062652073797374656d20636f6e74726163740000604082015260600190565b6020810161157a8284611a8e565b600060208284031215611b7657600080fd5b8151611744816117be565b6001600160401b03818116838216019081111561157a5761157a611a65565b600181811c90821680611bb457607f821691505b602082108103611bd457634e487b7160e01b600052602260045260246000fd5b50919050565b601f82111561096057806000526020600020601f840160051c81016020851015611c015750805b601f840160051c820191505b81811015611c215760008155600101611c0d565b5050505050565b81516001600160401b03811115611c4157611c41611801565b611c5581611c4f8454611ba0565b84611bda565b6020601f821160018114611c895760008315611c715750848201515b600019600385901b1c1916600184901b178455611c21565b600084815260208120601f198516915b82811015611cb95787850151825560209485019460019092019101611c99565b5084821015611cd75786840151600019600387901b60f8161c191681555b50505050600190811b01905550565b6001600160a01b0383168152604081016117446020830184611a8e565b604081526000611d16604083018561190b565b90508260208301529392505050565b600081611d3457611d34611a65565b506000190190565b60006080828403128015611d4f57600080fd5b50604051600090608081016001600160401b0381118282101715611d7557611d75611801565b6040528351611d8381611712565b81526020840151611d9381611712565b6020820152604084015160088110611da9578283fd5b604082015260609384015193810193909352509092915050565b600060208284031215611dd557600080fd5b505191905056fea2646970667358221220a8af637cfb34be17daa7308499c02d22d43f8fa8340fa1bc7ce498e27c19890a64736f6c634300081b0033",
  "linkReferences": {},
  "deployedLinkReferences": {}
}