{
  "_format": "hh-sol-artifact-1",
  "contractName": "InspectorRules",
  "sourceName": "contracts/InspectorRules.sol",
  "abi": [
    {
      "inputs": [
        {
          "internalType": "address",
          "name": "communityRulesAddress",
          "type": "address"
        },
        {
          "internalType": "address",
          "name": "inspectorPoolAddress",
          "type": "address"
        },
        {
          "internalType": "uint256",
          "name": "maxPenalties_",
          "type": "uint256"
        }
      ],
      "stateMutability": "nonpayable",
      "type": "constructor"
    },
    {
      "anonymous": false,
      "inputs": [
        {
          "indexed": true,
          "internalType": "address",
          "name": "previousOwner",
          "type": "address"
        },
        {
          "indexed": true,
          "internalType": "address",
          "name": "newOwner",
          "type": "address"
        }
      ],
      "name": "OwnershipTransferred",
      "type": "event"
    },
    {
      "inputs": [
        {
          "internalType": "string",
          "name": "name",
          "type": "string"
        },
        {
          "internalType": "string",
          "name": "proofPhoto",
          "type": "string"
        }
      ],
      "name": "addInspector",
      "outputs": [],
      "stateMutability": "nonpayable",
      "type": "function"
    },
    {
      "inputs": [
        {
          "internalType": "address",
          "name": "addr",
          "type": "address"
        },
        {
          "internalType": "uint256",
          "name": "inspectionId",
          "type": "uint256"
        }
      ],
      "name": "addPenalty",
      "outputs": [
        {
          "internalType": "uint256",
          "name": "",
          "type": "uint256"
        }
      ],
      "stateMutability": "nonpayable",
      "type": "function"
    },
    {
      "inputs": [
        {
          "internalType": "address",
          "name": "addr",
          "type": "address"
        },
        {
          "internalType": "uint256",
          "name": "lastInspectionId",
          "type": "uint256"
        }
      ],
      "name": "afterAcceptInspection",
      "outputs": [],
      "stateMutability": "nonpayable",
      "type": "function"
    },
    {
      "inputs": [
        {
          "internalType": "address",
          "name": "addr",
          "type": "address"
        }
      ],
      "name": "afterRealizeInspection",
      "outputs": [
        {
          "internalType": "uint256",
          "name": "",
          "type": "uint256"
        }
      ],
      "stateMutability": "nonpayable",
      "type": "function"
    },
    {
      "inputs": [
        {
          "internalType": "address",
          "name": "",
          "type": "address"
        }
      ],
      "name": "allowedCallers",
      "outputs": [
        {
          "internalType": "bool",
          "name": "",
          "type": "bool"
        }
      ],
      "stateMutability": "view",
      "type": "function"
    },
    {
      "inputs": [
        {
          "internalType": "address",
          "name": "addr",
          "type": "address"
        }
      ],
      "name": "decrementInspections",
      "outputs": [],
      "stateMutability": "nonpayable",
      "type": "function"
    },
    {
      "inputs": [
        {
          "internalType": "address",
          "name": "addr",
          "type": "address"
        }
      ],
      "name": "getInspector",
      "outputs": [
        {
          "components": [
            {
              "internalType": "uint256",
              "name": "id",
              "type": "uint256"
            },
            {
              "internalType": "address",
              "name": "inspectorWallet",
              "type": "address"
            },
            {
              "internalType": "string",
              "name": "name",
              "type": "string"
            },
            {
              "internalType": "string",
              "name": "proofPhoto",
              "type": "string"
            },
            {
              "internalType": "uint256",
              "name": "totalInspections",
              "type": "uint256"
            },
            {
              "internalType": "uint256",
              "name": "giveUps",
              "type": "uint256"
            },
            {
              "internalType": "uint256",
              "name": "lastAcceptedAt",
              "type": "uint256"
            },
            {
              "internalType": "uint256",
              "name": "lastInspection",
              "type": "uint256"
            },
            {
              "components": [
                {
                  "internalType": "uint256",
                  "name": "level",
                  "type": "uint256"
                },
                {
                  "internalType": "uint256",
                  "name": "currentEra",
                  "type": "uint256"
                }
              ],
              "internalType": "struct Pool",
              "name": "pool",
              "type": "tuple"
            },
            {
              "internalType": "uint256",
              "name": "createdAt",
              "type": "uint256"
            }
          ],
          "internalType": "struct Inspector",
          "name": "",
          "type": "tuple"
        }
      ],
      "stateMutability": "view",
      "type": "function"
    },
    {
      "inputs": [
        {
          "internalType": "address",
          "name": "addr",
          "type": "address"
        }
      ],
      "name": "inspectorExists",
      "outputs": [
        {
          "internalType": "bool",
          "name": "",
          "type": "bool"
        }
      ],
      "stateMutability": "view",
      "type": "function"
    },
    {
      "inputs": [
        {
          "internalType": "uint256",
          "name": "",
          "type": "uint256"
        }
      ],
      "name": "inspectorsAddress",
      "outputs": [
        {
          "internalType": "address",
          "name": "",
          "type": "address"
        }
      ],
      "stateMutability": "view",
      "type": "function"
    },
    {
      "inputs": [
        {
          "internalType": "address",
          "name": "caller",
          "type": "address"
        }
      ],
      "name": "isAllowedCaller",
      "outputs": [
        {
          "internalType": "bool",
          "name": "",
          "type": "bool"
        }
      ],
      "stateMutability": "view",
      "type": "function"
    },
    {
      "inputs": [
        {
          "internalType": "address",
          "name": "addr",
          "type": "address"
        }
      ],
      "name": "isInspectorValid",
      "outputs": [
        {
          "internalType": "bool",
          "name": "",
          "type": "bool"
        }
      ],
      "stateMutability": "view",
      "type": "function"
    },
    {
      "inputs": [],
      "name": "maxPenalties",
      "outputs": [
        {
          "internalType": "uint256",
          "name": "",
          "type": "uint256"
        }
      ],
      "stateMutability": "view",
      "type": "function"
    },
    {
      "inputs": [
        {
          "internalType": "address",
          "name": "allowed",
          "type": "address"
        }
      ],
      "name": "newAllowedCaller",
      "outputs": [],
      "stateMutability": "nonpayable",
      "type": "function"
    },
    {
      "inputs": [],
      "name": "owner",
      "outputs": [
        {
          "internalType": "address",
          "name": "",
          "type": "address"
        }
      ],
      "stateMutability": "view",
      "type": "function"
    },
    {
      "inputs": [
        {
          "internalType": "address",
          "name": "",
          "type": "address"
        },
        {
          "internalType": "uint256",
          "name": "",
          "type": "uint256"
        }
      ],
      "name": "penalties",
      "outputs": [
        {
          "internalType": "uint256",
          "name": "inspectionId",
          "type": "uint256"
        }
      ],
      "stateMutability": "view",
      "type": "function"
    },
    {
      "inputs": [
        {
          "internalType": "address",
          "name": "addr",
          "type": "address"
        },
        {
          "internalType": "uint256",
          "name": "removeSomeLevels",
          "type": "uint256"
        }
      ],
      "name": "removePoolLevels",
      "outputs": [],
      "stateMutability": "nonpayable",
      "type": "function"
    },
    {
      "inputs": [],
      "name": "renounceOwnership",
      "outputs": [],
      "stateMutability": "nonpayable",
      "type": "function"
    },
    {
      "inputs": [
        {
          "internalType": "address",
          "name": "addr",
          "type": "address"
        }
      ],
      "name": "totalPenalties",
      "outputs": [
        {
          "internalType": "uint256",
          "name": "",
          "type": "uint256"
        }
      ],
      "stateMutability": "view",
      "type": "function"
    },
    {
      "inputs": [
        {
          "internalType": "address",
          "name": "newOwner",
          "type": "address"
        }
      ],
      "name": "transferOwnership",
      "outputs": [],
      "stateMutability": "nonpayable",
      "type": "function"
    },
    {
      "inputs": [],
      "name": "withdraw",
      "outputs": [],
      "stateMutability": "nonpayable",
      "type": "function"
    }
  ],
  "bytecode": "0x60a060405234801561001057600080fd5b5060405161346238038061346283398181016040528101906100329190610245565b61004e6100436100e060201b60201c565b6100e860201b60201c565b82600560006101000a81548173ffffffffffffffffffffffffffffffffffffffff021916908373ffffffffffffffffffffffffffffffffffffffff16021790555081600660006101000a81548173ffffffffffffffffffffffffffffffffffffffff021916908373ffffffffffffffffffffffffffffffffffffffff1602179055508060808181525050505050610298565b600033905090565b60008060009054906101000a900473ffffffffffffffffffffffffffffffffffffffff169050816000806101000a81548173ffffffffffffffffffffffffffffffffffffffff021916908373ffffffffffffffffffffffffffffffffffffffff1602179055508173ffffffffffffffffffffffffffffffffffffffff168173ffffffffffffffffffffffffffffffffffffffff167f8be0079c531659141344cd1fd0a4f28419497f9722a3daafe3b4186f6b6457e060405160405180910390a35050565b600080fd5b600073ffffffffffffffffffffffffffffffffffffffff82169050919050565b60006101dc826101b1565b9050919050565b6101ec816101d1565b81146101f757600080fd5b50565b600081519050610209816101e3565b92915050565b6000819050919050565b6102228161020f565b811461022d57600080fd5b50565b60008151905061023f81610219565b92915050565b60008060006060848603121561025e5761025d6101ac565b5b600061026c868287016101fa565b935050602061027d868287016101fa565b925050604061028e86828701610230565b9150509250925092565b6080516131af6102b360003960006114a501526131af6000f3fe608060405234801561001057600080fd5b506004361061012c5760003560e01c80638f93716f116100ad578063c3c983d211610071578063c3c983d214610355578063d518ad5f14610371578063da65b13b1461038d578063e8f7dfcf146103bd578063f2fde38b146103ed5761012c565b80638f93716f1461029f5780639c960450146102bb578063a1ce8d3a146102d7578063a680125814610307578063b24eb769146103375761012c565b80634d5ff1d3116100f45780634d5ff1d3146101e75780635fa71c2814610217578063715018a6146102475780637b334154146102515780638da5cb5b146102815761012c565b80630da0933a1461013157806318ad5c9a146101615780631b63a43c1461017d5780632076267b146101ad5780633ccfd60b146101dd575b600080fd5b61014b600480360381019061014691906122aa565b610409565b6040516101589190612318565b60405180910390f35b61017b6004803603810190610176919061235f565b61043c565b005b6101976004803603810190610192919061235f565b61084e565b6040516101a491906123ae565b60405180910390f35b6101c760048036038101906101c291906123c9565b61096c565b6040516101d491906123ae565b60405180910390f35b6101e56109b8565b005b61020160048036038101906101fc91906123c9565b610ee6565b60405161020e9190612411565b60405180910390f35b610231600480360381019061022c919061235f565b610f35565b60405161023e91906123ae565b60405180910390f35b61024f610f6c565b005b61026b600480360381019061026691906123c9565b610f80565b6040516102789190612411565b60405180910390f35b610289610fa0565b6040516102969190612318565b60405180910390f35b6102b960048036038101906102b491906123c9565b610fc9565b005b6102d560048036038101906102d09190612572565b61102b565b005b6102f160048036038101906102ec91906123c9565b6113a6565b6040516102fe91906123ae565b60405180910390f35b610321600480360381019061031c91906123c9565b61144d565b60405161032e9190612411565b60405180910390f35b61033f6114a3565b60405161034c91906123ae565b60405180910390f35b61036f600480360381019061036a91906123c9565b6114c7565b005b61038b6004803603810190610386919061235f565b611633565b005b6103a760048036038101906103a291906123c9565b6116d6565b6040516103b49190612411565b60405180910390f35b6103d760048036038101906103d291906123c9565b611730565b6040516103e49190612797565b60405180910390f35b610407600480360381019061040291906123c9565b611968565b005b60046020528060005260406000206000915054906101000a900473ffffffffffffffffffffffffffffffffffffffff1681565b600160003373ffffffffffffffffffffffffffffffffffffffff1673ffffffffffffffffffffffffffffffffffffffff16815260200190815260200160002060009054906101000a900460ff166104c8576040517f08c379a00000000000000000000000000000000000000000000000000000000081526004016104bf90612816565b60405180910390fd5b6000600260008473ffffffffffffffffffffffffffffffffffffffff1673ffffffffffffffffffffffffffffffffffffffff16815260200190815260200160002060405180610140016040529081600082015481526020016001820160009054906101000a900473ffffffffffffffffffffffffffffffffffffffff1673ffffffffffffffffffffffffffffffffffffffff1673ffffffffffffffffffffffffffffffffffffffff16815260200160028201805461058590612865565b80601f01602080910402602001604051908101604052809291908181526020018280546105b190612865565b80156105fe5780601f106105d3576101008083540402835291602001916105fe565b820191906000526020600020905b8154815290600101906020018083116105e157829003601f168201915b5050505050815260200160038201805461061790612865565b80601f016020809104026020016040519081016040528092919081815260200182805461064390612865565b80156106905780601f1061066557610100808354040283529160200191610690565b820191906000526020600020905b81548152906001019060200180831161067357829003601f168201915b505050505081526020016004820154815260200160058201548152602001600682015481526020016007820154815260200160088201604051806040016040529081600082015481526020016001820154815250508152602001600a82015481525050905060008203610749576000600260008573ffffffffffffffffffffffffffffffffffffffff1673ffffffffffffffffffffffffffffffffffffffff168152602001908152602001600020600801600001819055505b60008211156107af5781600260008573ffffffffffffffffffffffffffffffffffffffff1673ffffffffffffffffffffffffffffffffffffffff16815260200190815260200160002060080160000160008282546107a791906128c5565b925050819055505b600660009054906101000a900473ffffffffffffffffffffffffffffffffffffffff1673ffffffffffffffffffffffffffffffffffffffff1663157ffc528483610100015160200151856040518463ffffffff1660e01b8152600401610817939291906128f9565b600060405180830381600087803b15801561083157600080fd5b505af1158015610845573d6000803e3d6000fd5b50505050505050565b6000600160003373ffffffffffffffffffffffffffffffffffffffff1673ffffffffffffffffffffffffffffffffffffffff16815260200190815260200160002060009054906101000a900460ff166108dc576040517f08c379a00000000000000000000000000000000000000000000000000000000081526004016108d390612816565b60405180910390fd5b600360008473ffffffffffffffffffffffffffffffffffffffff1673ffffffffffffffffffffffffffffffffffffffff168152602001908152602001600020604051806020016040528084815250908060018154018082558091505060019003906000526020600020016000909190919091506000820151816000015550506109648361096c565b905092915050565b6000600360008373ffffffffffffffffffffffffffffffffffffffff1673ffffffffffffffffffffffffffffffffffffffff168152602001908152602001600020805490509050919050565b600560009054906101000a900473ffffffffffffffffffffffffffffffffffffffff1673ffffffffffffffffffffffffffffffffffffffff16639497c6086002336040518363ffffffff1660e01b8152600401610a169291906129a7565b602060405180830381865afa158015610a33573d6000803e3d6000fd5b505050506040513d601f19601f82011682018060405250810190610a5791906129fc565b610a96576040517f08c379a0000000000000000000000000000000000000000000000000000000008152600401610a8d90612a75565b60405180910390fd5b6000600260003373ffffffffffffffffffffffffffffffffffffffff1673ffffffffffffffffffffffffffffffffffffffff16815260200190815260200160002060405180610140016040529081600082015481526020016001820160009054906101000a900473ffffffffffffffffffffffffffffffffffffffff1673ffffffffffffffffffffffffffffffffffffffff1673ffffffffffffffffffffffffffffffffffffffff168152602001600282018054610b5390612865565b80601f0160208091040260200160405190810160405280929190818152602001828054610b7f90612865565b8015610bcc5780601f10610ba157610100808354040283529160200191610bcc565b820191906000526020600020905b815481529060010190602001808311610baf57829003601f168201915b50505050508152602001600382018054610be590612865565b80601f0160208091040260200160405190810160405280929190818152602001828054610c1190612865565b8015610c5e5780601f10610c3357610100808354040283529160200191610c5e565b820191906000526020600020905b815481529060010190602001808311610c4157829003601f168201915b505050505081526020016004820154815260200160058201548152602001600682015481526020016007820154815260200160088201604051806040016040529081600082015481526020016001820154815250508152602001600a820154815250509050610cd081608001516119eb565b610d0f576040517f08c379a0000000000000000000000000000000000000000000000000000000008152600401610d0690612ae1565b60405180910390fd5b6000816101000151602001519050600660009054906101000a900473ffffffffffffffffffffffffffffffffffffffff1673ffffffffffffffffffffffffffffffffffffffff1663fbe85f06826040518263ffffffff1660e01b8152600401610d7891906123ae565b602060405180830381865afa158015610d95573d6000803e3d6000fd5b505050506040513d601f19601f82011682018060405250810190610db991906129fc565b610df8576040517f08c379a0000000000000000000000000000000000000000000000000000000008152600401610def90612b4d565b60405180910390fd5b600260003373ffffffffffffffffffffffffffffffffffffffff1673ffffffffffffffffffffffffffffffffffffffff1681526020019081526020016000206008016001016000815480929190610e4e90612b6d565b9190505550600660009054906101000a900473ffffffffffffffffffffffffffffffffffffffff1673ffffffffffffffffffffffffffffffffffffffff1663f3fef3a333836040518363ffffffff1660e01b8152600401610eb0929190612bb5565b600060405180830381600087803b158015610eca57600080fd5b505af1158015610ede573d6000803e3d6000fd5b505050505050565b60006003600260008473ffffffffffffffffffffffffffffffffffffffff1673ffffffffffffffffffffffffffffffffffffffff16815260200190815260200160002060050154109050919050565b60036020528160005260406000208181548110610f5157600080fd5b90600052602060002001600091509150508060000154905081565b610f746119f9565b610f7e6000611a77565b565b60016020528060005260406000206000915054906101000a900460ff1681565b60008060009054906101000a900473ffffffffffffffffffffffffffffffffffffffff16905090565b610fd16119f9565b60018060008373ffffffffffffffffffffffffffffffffffffffff1673ffffffffffffffffffffffffffffffffffffffff16815260200190815260200160002060006101000a81548160ff02191690831515021790555050565b606482511115801561103f57506064815111155b61107e576040517f08c379a000000000000000000000000000000000000000000000000000000000815260040161107590612c2a565b60405180910390fd5b60006001600560009054906101000a900473ffffffffffffffffffffffffffffffffffffffff1673ffffffffffffffffffffffffffffffffffffffff16631eb2c12060026040518263ffffffff1660e01b81526004016110de9190612c4a565b602060405180830381865afa1580156110fb573d6000803e3d6000fd5b505050506040513d601f19601f8201168201806040525081019061111f9190612c7a565b6111299190612ca7565b905060006040518061014001604052808381526020013373ffffffffffffffffffffffffffffffffffffffff1681526020018581526020018481526020016000815260200160008152602001600081526020016000815260200160405180604001604052806000815260200161119d611b3b565b815250815260200143815250905080600260003373ffffffffffffffffffffffffffffffffffffffff1673ffffffffffffffffffffffffffffffffffffffff1681526020019081526020016000206000820151816000015560208201518160010160006101000a81548173ffffffffffffffffffffffffffffffffffffffff021916908373ffffffffffffffffffffffffffffffffffffffff16021790555060408201518160020190816112519190612e87565b5060608201518160030190816112679190612e87565b506080820151816004015560a0820151816005015560c0820151816006015560e08201518160070155610100820151816008016000820151816000015560208201518160010155505061012082015181600a0155905050336004600084815260200190815260200160002060006101000a81548173ffffffffffffffffffffffffffffffffffffffff021916908373ffffffffffffffffffffffffffffffffffffffff160217905550600560009054906101000a900473ffffffffffffffffffffffffffffffffffffffff1673ffffffffffffffffffffffffffffffffffffffff16639c3eead93360026040518363ffffffff1660e01b815260040161136e929190612f59565b600060405180830381600087803b15801561138857600080fd5b505af115801561139c573d6000803e3d6000fd5b5050505050505050565b6000600160003373ffffffffffffffffffffffffffffffffffffffff1673ffffffffffffffffffffffffffffffffffffffff16815260200190815260200160002060009054906101000a900460ff16611434576040517f08c379a000000000000000000000000000000000000000000000000000000000815260040161142b90612816565b60405180910390fd5b61143d82611bd3565b61144682611c2e565b9050919050565b6000600160008373ffffffffffffffffffffffffffffffffffffffff1673ffffffffffffffffffffffffffffffffffffffff16815260200190815260200160002060009054906101000a900460ff169050919050565b7f000000000000000000000000000000000000000000000000000000000000000081565b600160003373ffffffffffffffffffffffffffffffffffffffff1673ffffffffffffffffffffffffffffffffffffffff16815260200190815260200160002060009054906101000a900460ff16611553576040517f08c379a000000000000000000000000000000000000000000000000000000000815260040161154a90612816565b60405180910390fd5b6000600260008373ffffffffffffffffffffffffffffffffffffffff1673ffffffffffffffffffffffffffffffffffffffff16815260200190815260200160002060040154116115d8576040517f08c379a00000000000000000000000000000000000000000000000000000000081526004016115cf90612fce565b60405180910390fd5b600260008273ffffffffffffffffffffffffffffffffffffffff1673ffffffffffffffffffffffffffffffffffffffff168152602001908152602001600020600401600081548092919061162b90612fee565b919050555050565b600160003373ffffffffffffffffffffffffffffffffffffffff1673ffffffffffffffffffffffffffffffffffffffff16815260200190815260200160002060009054906101000a900460ff166116bf576040517f08c379a00000000000000000000000000000000000000000000000000000000081526004016116b690612816565b60405180910390fd5b6116c98282611cdb565b6116d282611d6d565b5050565b600080600260008473ffffffffffffffffffffffffffffffffffffffff1673ffffffffffffffffffffffffffffffffffffffff168152602001908152602001600020600201805461172690612865565b9050119050919050565b6117386121d7565b600260008373ffffffffffffffffffffffffffffffffffffffff1673ffffffffffffffffffffffffffffffffffffffff16815260200190815260200160002060405180610140016040529081600082015481526020016001820160009054906101000a900473ffffffffffffffffffffffffffffffffffffffff1673ffffffffffffffffffffffffffffffffffffffff1673ffffffffffffffffffffffffffffffffffffffff1681526020016002820180546117f390612865565b80601f016020809104026020016040519081016040528092919081815260200182805461181f90612865565b801561186c5780601f106118415761010080835404028352916020019161186c565b820191906000526020600020905b81548152906001019060200180831161184f57829003601f168201915b5050505050815260200160038201805461188590612865565b80601f01602080910402602001604051908101604052809291908181526020018280546118b190612865565b80156118fe5780601f106118d3576101008083540402835291602001916118fe565b820191906000526020600020905b8154815290600101906020018083116118e157829003601f168201915b505050505081526020016004820154815260200160058201548152602001600682015481526020016007820154815260200160088201604051806040016040529081600082015481526020016001820154815250508152602001600a820154815250509050919050565b6119706119f9565b600073ffffffffffffffffffffffffffffffffffffffff168173ffffffffffffffffffffffffffffffffffffffff16036119df576040517f08c379a00000000000000000000000000000000000000000000000000000000081526004016119d690613089565b60405180910390fd5b6119e881611a77565b50565b600060038210159050919050565b611a01611dc8565b73ffffffffffffffffffffffffffffffffffffffff16611a1f610fa0565b73ffffffffffffffffffffffffffffffffffffffff1614611a75576040517f08c379a0000000000000000000000000000000000000000000000000000000008152600401611a6c906130f5565b60405180910390fd5b565b60008060009054906101000a900473ffffffffffffffffffffffffffffffffffffffff169050816000806101000a81548173ffffffffffffffffffffffffffffffffffffffff021916908373ffffffffffffffffffffffffffffffffffffffff1602179055508173ffffffffffffffffffffffffffffffffffffffff168173ffffffffffffffffffffffffffffffffffffffff167f8be0079c531659141344cd1fd0a4f28419497f9722a3daafe3b4186f6b6457e060405160405180910390a35050565b6000600660009054906101000a900473ffffffffffffffffffffffffffffffffffffffff1673ffffffffffffffffffffffffffffffffffffffff1663ed0df79e6040518163ffffffff1660e01b8152600401602060405180830381865afa158015611baa573d6000803e3d6000fd5b505050506040513d601f19601f82011682018060405250810190611bce9190612c7a565b905090565b600260008273ffffffffffffffffffffffffffffffffffffffff1673ffffffffffffffffffffffffffffffffffffffff1681526020019081526020016000206005016000815480929190611c2690612fee565b919050555050565b6000600260008373ffffffffffffffffffffffffffffffffffffffff1673ffffffffffffffffffffffffffffffffffffffff1681526020019081526020016000206004016000815480929190611c8390612b6d565b9190505550611c9182611dd0565b600260008373ffffffffffffffffffffffffffffffffffffffff1673ffffffffffffffffffffffffffffffffffffffff168152602001908152602001600020600401549050919050565b43600260008473ffffffffffffffffffffffffffffffffffffffff1673ffffffffffffffffffffffffffffffffffffffff1681526020019081526020016000206006018190555080600260008473ffffffffffffffffffffffffffffffffffffffff1673ffffffffffffffffffffffffffffffffffffffff168152602001908152602001600020600701819055505050565b600260008273ffffffffffffffffffffffffffffffffffffffff1673ffffffffffffffffffffffffffffffffffffffff1681526020019081526020016000206005016000815480929190611dc090612b6d565b919050555050565b600033905090565b6000600260008373ffffffffffffffffffffffffffffffffffffffff1673ffffffffffffffffffffffffffffffffffffffff16815260200190815260200160002060405180610140016040529081600082015481526020016001820160009054906101000a900473ffffffffffffffffffffffffffffffffffffffff1673ffffffffffffffffffffffffffffffffffffffff1673ffffffffffffffffffffffffffffffffffffffff168152602001600282018054611e8d90612865565b80601f0160208091040260200160405190810160405280929190818152602001828054611eb990612865565b8015611f065780601f10611edb57610100808354040283529160200191611f06565b820191906000526020600020905b815481529060010190602001808311611ee957829003601f168201915b50505050508152602001600382018054611f1f90612865565b80601f0160208091040260200160405190810160405280929190818152602001828054611f4b90612865565b8015611f985780601f10611f6d57610100808354040283529160200191611f98565b820191906000526020600020905b815481529060010190602001808311611f7b57829003601f168201915b505050505081526020016004820154815260200160058201548152602001600682015481526020016007820154815260200160088201604051806040016040529081600082015481526020016001820154815250508152602001600a820154815250509050806101000151600001805180919061201490612b6d565b8152505080600260008473ffffffffffffffffffffffffffffffffffffffff1673ffffffffffffffffffffffffffffffffffffffff1681526020019081526020016000206000820151816000015560208201518160010160006101000a81548173ffffffffffffffffffffffffffffffffffffffff021916908373ffffffffffffffffffffffffffffffffffffffff16021790555060408201518160020190816120be9190612e87565b5060608201518160030190816120d49190612e87565b506080820151816004015560a0820151816005015560c0820151816006015560e08201518160070155610100820151816008016000820151816000015560208201518160010155505061012082015181600a015590505061213881608001516119eb565b61214257506121d4565b600660009054906101000a900473ffffffffffffffffffffffffffffffffffffffff1673ffffffffffffffffffffffffffffffffffffffff166352b8d3ed8360016040518363ffffffff1660e01b81526004016121a0929190613150565b600060405180830381600087803b1580156121ba57600080fd5b505af11580156121ce573d6000803e3d6000fd5b50505050505b50565b60405180610140016040528060008152602001600073ffffffffffffffffffffffffffffffffffffffff168152602001606081526020016060815260200160008152602001600081526020016000815260200160008152602001612239612246565b8152602001600081525090565b604051806040016040528060008152602001600081525090565b6000604051905090565b600080fd5b600080fd5b6000819050919050565b61228781612274565b811461229257600080fd5b50565b6000813590506122a48161227e565b92915050565b6000602082840312156122c0576122bf61226a565b5b60006122ce84828501612295565b91505092915050565b600073ffffffffffffffffffffffffffffffffffffffff82169050919050565b6000612302826122d7565b9050919050565b612312816122f7565b82525050565b600060208201905061232d6000830184612309565b92915050565b61233c816122f7565b811461234757600080fd5b50565b60008135905061235981612333565b92915050565b600080604083850312156123765761237561226a565b5b60006123848582860161234a565b925050602061239585828601612295565b9150509250929050565b6123a881612274565b82525050565b60006020820190506123c3600083018461239f565b92915050565b6000602082840312156123df576123de61226a565b5b60006123ed8482850161234a565b91505092915050565b60008115159050919050565b61240b816123f6565b82525050565b60006020820190506124266000830184612402565b92915050565b600080fd5b600080fd5b6000601f19601f8301169050919050565b7f4e487b7100000000000000000000000000000000000000000000000000000000600052604160045260246000fd5b61247f82612436565b810181811067ffffffffffffffff8211171561249e5761249d612447565b5b80604052505050565b60006124b1612260565b90506124bd8282612476565b919050565b600067ffffffffffffffff8211156124dd576124dc612447565b5b6124e682612436565b9050602081019050919050565b82818337600083830152505050565b6000612515612510846124c2565b6124a7565b90508281526020810184848401111561253157612530612431565b5b61253c8482856124f3565b509392505050565b600082601f8301126125595761255861242c565b5b8135612569848260208601612502565b91505092915050565b600080604083850312156125895761258861226a565b5b600083013567ffffffffffffffff8111156125a7576125a661226f565b5b6125b385828601612544565b925050602083013567ffffffffffffffff8111156125d4576125d361226f565b5b6125e085828601612544565b9150509250929050565b6125f381612274565b82525050565b612602816122f7565b82525050565b600081519050919050565b600082825260208201905092915050565b60005b83811015612642578082015181840152602081019050612627565b60008484015250505050565b600061265982612608565b6126638185612613565b9350612673818560208601612624565b61267c81612436565b840191505092915050565b60408201600082015161269d60008501826125ea565b5060208201516126b060208501826125ea565b50505050565b6000610160830160008301516126cf60008601826125ea565b5060208301516126e260208601826125f9565b50604083015184820360408601526126fa828261264e565b91505060608301518482036060860152612714828261264e565b915050608083015161272960808601826125ea565b5060a083015161273c60a08601826125ea565b5060c083015161274f60c08601826125ea565b5060e083015161276260e08601826125ea565b50610100830151612777610100860182612687565b5061012083015161278c6101408601826125ea565b508091505092915050565b600060208201905081810360008301526127b181846126b6565b905092915050565b600082825260208201905092915050565b7f4e6f7420616c6c6f7765642063616c6c65720000000000000000000000000000600082015250565b60006128006012836127b9565b915061280b826127ca565b602082019050919050565b6000602082019050818103600083015261282f816127f3565b9050919050565b7f4e487b7100000000000000000000000000000000000000000000000000000000600052602260045260246000fd5b6000600282049050600182168061287d57607f821691505b6020821081036128905761288f612836565b5b50919050565b7f4e487b7100000000000000000000000000000000000000000000000000000000600052601160045260246000fd5b60006128d082612274565b91506128db83612274565b92508282039050818111156128f3576128f2612896565b5b92915050565b600060608201905061290e6000830186612309565b61291b602083018561239f565b612928604083018461239f565b949350505050565b7f4e487b7100000000000000000000000000000000000000000000000000000000600052602160045260246000fd5b600981106129705761296f612930565b5b50565b60008190506129818261295f565b919050565b600061299182612973565b9050919050565b6129a181612986565b82525050565b60006040820190506129bc6000830185612998565b6129c96020830184612309565b9392505050565b6129d9816123f6565b81146129e457600080fd5b50565b6000815190506129f6816129d0565b92915050565b600060208284031215612a1257612a1161226a565b5b6000612a20848285016129e7565b91505092915050565b7f506f6f6c206f6e6c7920746f20696e73706563746f7273000000000000000000600082015250565b6000612a5f6017836127b9565b9150612a6a82612a29565b602082019050919050565b60006020820190508181036000830152612a8e81612a52565b9050919050565b7f4d696e696d756d20696e7370656374696f6e7300000000000000000000000000600082015250565b6000612acb6013836127b9565b9150612ad682612a95565b602082019050919050565b60006020820190508181036000830152612afa81612abe565b9050919050565b7f43616e277420617070726f766520776974686472617700000000000000000000600082015250565b6000612b376016836127b9565b9150612b4282612b01565b602082019050919050565b60006020820190508181036000830152612b6681612b2a565b9050919050565b6000612b7882612274565b91507fffffffffffffffffffffffffffffffffffffffffffffffffffffffffffffffff8203612baa57612ba9612896565b5b600182019050919050565b6000604082019050612bca6000830185612309565b612bd7602083018461239f565b9392505050565b7f4d61782031303020636861726163746572730000000000000000000000000000600082015250565b6000612c146012836127b9565b9150612c1f82612bde565b602082019050919050565b60006020820190508181036000830152612c4381612c07565b9050919050565b6000602082019050612c5f6000830184612998565b92915050565b600081519050612c748161227e565b92915050565b600060208284031215612c9057612c8f61226a565b5b6000612c9e84828501612c65565b91505092915050565b6000612cb282612274565b9150612cbd83612274565b9250828201905080821115612cd557612cd4612896565b5b92915050565b60008190508160005260206000209050919050565b60006020601f8301049050919050565b600082821b905092915050565b600060088302612d3d7fffffffffffffffffffffffffffffffffffffffffffffffffffffffffffffffff82612d00565b612d478683612d00565b95508019841693508086168417925050509392505050565b6000819050919050565b6000612d84612d7f612d7a84612274565b612d5f565b612274565b9050919050565b6000819050919050565b612d9e83612d69565b612db2612daa82612d8b565b848454612d0d565b825550505050565b600090565b612dc7612dba565b612dd2818484612d95565b505050565b5b81811015612df657612deb600082612dbf565b600181019050612dd8565b5050565b601f821115612e3b57612e0c81612cdb565b612e1584612cf0565b81016020851015612e24578190505b612e38612e3085612cf0565b830182612dd7565b50505b505050565b600082821c905092915050565b6000612e5e60001984600802612e40565b1980831691505092915050565b6000612e778383612e4d565b9150826002028217905092915050565b612e9082612608565b67ffffffffffffffff811115612ea957612ea8612447565b5b612eb38254612865565b612ebe828285612dfa565b600060209050601f831160018114612ef15760008415612edf578287015190505b612ee98582612e6b565b865550612f51565b601f198416612eff86612cdb565b60005b82811015612f2757848901518255600182019150602085019450602081019050612f02565b86831015612f445784890151612f40601f891682612e4d565b8355505b6001600288020188555050505b505050505050565b6000604082019050612f6e6000830185612309565b612f7b6020830184612998565b9392505050565b7f746f74616c496e7370656374696f6e7320696e76616c69640000000000000000600082015250565b6000612fb86018836127b9565b9150612fc382612f82565b602082019050919050565b60006020820190508181036000830152612fe781612fab565b9050919050565b6000612ff982612274565b91506000820361300c5761300b612896565b5b600182039050919050565b7f4f776e61626c653a206e6577206f776e657220697320746865207a65726f206160008201527f6464726573730000000000000000000000000000000000000000000000000000602082015250565b60006130736026836127b9565b915061307e82613017565b604082019050919050565b600060208201905081810360008301526130a281613066565b9050919050565b7f4f776e61626c653a2063616c6c6572206973206e6f7420746865206f776e6572600082015250565b60006130df6020836127b9565b91506130ea826130a9565b602082019050919050565b6000602082019050818103600083015261310e816130d2565b9050919050565b6000819050919050565b600061313a61313561313084613115565b612d5f565b612274565b9050919050565b61314a8161311f565b82525050565b60006040820190506131656000830185612309565b6131726020830184613141565b939250505056fea264697066735822122040ddcee0c25a1e89065e133121f34691a38fc6a39bb4e4ac8f9c00333b17c12864736f6c634300081b0033",
  "linkReferences": {},
  "deployedLinkReferences": {}
}