{
  "_format": "hh-sol-artifact-1",
  "contractName": "InspectorRules",
  "sourceName": "contracts/InspectorRules.sol",
  "abi": [
    {
      "inputs": [
        {
          "internalType": "address",
          "name": "communityRulesAddress",
          "type": "address"
        },
        {
          "internalType": "address",
          "name": "inspectorPoolAddress",
          "type": "address"
        },
        {
          "internalType": "uint8",
          "name": "maxPenalties_",
          "type": "uint8"
        }
      ],
      "stateMutability": "nonpayable",
      "type": "constructor"
    },
    {
      "inputs": [
        {
          "internalType": "address",
          "name": "owner",
          "type": "address"
        }
      ],
      "name": "OwnableInvalidOwner",
      "type": "error"
    },
    {
      "inputs": [
        {
          "internalType": "address",
          "name": "account",
          "type": "address"
        }
      ],
      "name": "OwnableUnauthorizedAccount",
      "type": "error"
    },
    {
      "inputs": [],
      "name": "ReentrancyGuardReentrantCall",
      "type": "error"
    },
    {
      "anonymous": false,
      "inputs": [
        {
          "indexed": true,
          "internalType": "address",
          "name": "inspectorAddress",
          "type": "address"
        },
        {
          "indexed": false,
          "internalType": "uint256",
          "name": "newLevel",
          "type": "uint256"
        },
        {
          "indexed": false,
          "internalType": "uint256",
          "name": "blockNumber",
          "type": "uint256"
        }
      ],
      "name": "InspectorLevelIncreased",
      "type": "event"
    },
    {
      "anonymous": false,
      "inputs": [
        {
          "indexed": true,
          "internalType": "address",
          "name": "inspectorAddress",
          "type": "address"
        },
        {
          "indexed": false,
          "internalType": "uint256",
          "name": "levelsRemoved",
          "type": "uint256"
        },
        {
          "indexed": false,
          "internalType": "uint256",
          "name": "newLevel",
          "type": "uint256"
        },
        {
          "indexed": false,
          "internalType": "uint256",
          "name": "blockNumber",
          "type": "uint256"
        }
      ],
      "name": "InspectorLevelRemoved",
      "type": "event"
    },
    {
      "anonymous": false,
      "inputs": [
        {
          "indexed": true,
          "internalType": "uint256",
          "name": "id",
          "type": "uint256"
        },
        {
          "indexed": true,
          "internalType": "address",
          "name": "inspectorAddress",
          "type": "address"
        },
        {
          "indexed": false,
          "internalType": "string",
          "name": "name",
          "type": "string"
        },
        {
          "indexed": false,
          "internalType": "uint256",
          "name": "blockNumber",
          "type": "uint256"
        }
      ],
      "name": "InspectorRegistered",
      "type": "event"
    },
    {
      "anonymous": false,
      "inputs": [
        {
          "indexed": true,
          "internalType": "address",
          "name": "inspectorAddress",
          "type": "address"
        },
        {
          "indexed": true,
          "internalType": "uint256",
          "name": "era",
          "type": "uint256"
        },
        {
          "indexed": false,
          "internalType": "uint256",
          "name": "blockNumber",
          "type": "uint256"
        }
      ],
      "name": "InspectorWithdrawalInitiated",
      "type": "event"
    },
    {
      "anonymous": false,
      "inputs": [
        {
          "indexed": true,
          "internalType": "address",
          "name": "previousOwner",
          "type": "address"
        },
        {
          "indexed": true,
          "internalType": "address",
          "name": "newOwner",
          "type": "address"
        }
      ],
      "name": "OwnershipTransferred",
      "type": "event"
    },
    {
      "inputs": [],
      "name": "BLOCKS_TO_ACCEPT",
      "outputs": [
        {
          "internalType": "uint32",
          "name": "",
          "type": "uint32"
        }
      ],
      "stateMutability": "view",
      "type": "function"
    },
    {
      "inputs": [],
      "name": "MAX_GIVEUPS",
      "outputs": [
        {
          "internalType": "uint8",
          "name": "",
          "type": "uint8"
        }
      ],
      "stateMutability": "view",
      "type": "function"
    },
    {
      "inputs": [],
      "name": "MINIMUM_INSPECTIONS_TO_POOL",
      "outputs": [
        {
          "internalType": "uint8",
          "name": "",
          "type": "uint8"
        }
      ],
      "stateMutability": "view",
      "type": "function"
    },
    {
      "inputs": [
        {
          "internalType": "string",
          "name": "name",
          "type": "string"
        },
        {
          "internalType": "string",
          "name": "proofPhoto",
          "type": "string"
        }
      ],
      "name": "addInspector",
      "outputs": [],
      "stateMutability": "nonpayable",
      "type": "function"
    },
    {
      "inputs": [
        {
          "internalType": "address",
          "name": "addr",
          "type": "address"
        },
        {
          "internalType": "uint64",
          "name": "inspectionId",
          "type": "uint64"
        }
      ],
      "name": "addPenalty",
      "outputs": [
        {
          "internalType": "uint256",
          "name": "",
          "type": "uint256"
        }
      ],
      "stateMutability": "nonpayable",
      "type": "function"
    },
    {
      "inputs": [
        {
          "internalType": "address",
          "name": "addr",
          "type": "address"
        },
        {
          "internalType": "uint64",
          "name": "lastInspectionId",
          "type": "uint64"
        }
      ],
      "name": "afterAcceptInspection",
      "outputs": [],
      "stateMutability": "nonpayable",
      "type": "function"
    },
    {
      "inputs": [
        {
          "internalType": "address",
          "name": "addr",
          "type": "address"
        },
        {
          "internalType": "uint64",
          "name": "inspectionId",
          "type": "uint64"
        }
      ],
      "name": "afterRealizeInspection",
      "outputs": [
        {
          "internalType": "uint256",
          "name": "",
          "type": "uint256"
        }
      ],
      "stateMutability": "nonpayable",
      "type": "function"
    },
    {
      "inputs": [
        {
          "internalType": "address",
          "name": "",
          "type": "address"
        }
      ],
      "name": "allowedCallers",
      "outputs": [
        {
          "internalType": "bool",
          "name": "",
          "type": "bool"
        }
      ],
      "stateMutability": "view",
      "type": "function"
    },
    {
      "inputs": [
        {
          "internalType": "address",
          "name": "addr",
          "type": "address"
        }
      ],
      "name": "canAcceptInspection",
      "outputs": [
        {
          "internalType": "bool",
          "name": "",
          "type": "bool"
        }
      ],
      "stateMutability": "view",
      "type": "function"
    },
    {
      "inputs": [
        {
          "internalType": "address",
          "name": "addr",
          "type": "address"
        }
      ],
      "name": "decrementInspections",
      "outputs": [],
      "stateMutability": "nonpayable",
      "type": "function"
    },
    {
      "inputs": [
        {
          "internalType": "address",
          "name": "addr",
          "type": "address"
        }
      ],
      "name": "getInspector",
      "outputs": [
        {
          "components": [
            {
              "internalType": "uint64",
              "name": "id",
              "type": "uint64"
            },
            {
              "internalType": "address",
              "name": "inspectorWallet",
              "type": "address"
            },
            {
              "internalType": "string",
              "name": "name",
              "type": "string"
            },
            {
              "internalType": "string",
              "name": "proofPhoto",
              "type": "string"
            },
            {
              "internalType": "uint256",
              "name": "totalInspections",
              "type": "uint256"
            },
            {
              "internalType": "uint256",
              "name": "giveUps",
              "type": "uint256"
            },
            {
              "internalType": "uint256",
              "name": "lastAcceptedAt",
              "type": "uint256"
            },
            {
              "internalType": "uint256",
              "name": "lastRealizedAt",
              "type": "uint256"
            },
            {
              "internalType": "uint64",
              "name": "lastInspection",
              "type": "uint64"
            },
            {
              "components": [
                {
                  "internalType": "uint256",
                  "name": "level",
                  "type": "uint256"
                },
                {
                  "internalType": "uint256",
                  "name": "currentEra",
                  "type": "uint256"
                }
              ],
              "internalType": "struct Pool",
              "name": "pool",
              "type": "tuple"
            },
            {
              "internalType": "uint256",
              "name": "createdAt",
              "type": "uint256"
            }
          ],
          "internalType": "struct Inspector",
          "name": "",
          "type": "tuple"
        }
      ],
      "stateMutability": "view",
      "type": "function"
    },
    {
      "inputs": [
        {
          "internalType": "uint256",
          "name": "",
          "type": "uint256"
        }
      ],
      "name": "inspectorsAddress",
      "outputs": [
        {
          "internalType": "address",
          "name": "",
          "type": "address"
        }
      ],
      "stateMutability": "view",
      "type": "function"
    },
    {
      "inputs": [
        {
          "internalType": "address",
          "name": "caller",
          "type": "address"
        }
      ],
      "name": "isAllowedCaller",
      "outputs": [
        {
          "internalType": "bool",
          "name": "",
          "type": "bool"
        }
      ],
      "stateMutability": "view",
      "type": "function"
    },
    {
      "inputs": [
        {
          "internalType": "address",
          "name": "addr",
          "type": "address"
        }
      ],
      "name": "isInspectorValid",
      "outputs": [
        {
          "internalType": "bool",
          "name": "",
          "type": "bool"
        }
      ],
      "stateMutability": "view",
      "type": "function"
    },
    {
      "inputs": [],
      "name": "maxPenalties",
      "outputs": [
        {
          "internalType": "uint8",
          "name": "",
          "type": "uint8"
        }
      ],
      "stateMutability": "view",
      "type": "function"
    },
    {
      "inputs": [
        {
          "internalType": "address",
          "name": "allowed",
          "type": "address"
        }
      ],
      "name": "newAllowedCaller",
      "outputs": [],
      "stateMutability": "nonpayable",
      "type": "function"
    },
    {
      "inputs": [],
      "name": "owner",
      "outputs": [
        {
          "internalType": "address",
          "name": "",
          "type": "address"
        }
      ],
      "stateMutability": "view",
      "type": "function"
    },
    {
      "inputs": [
        {
          "internalType": "address",
          "name": "",
          "type": "address"
        },
        {
          "internalType": "uint256",
          "name": "",
          "type": "uint256"
        }
      ],
      "name": "penalties",
      "outputs": [
        {
          "internalType": "uint64",
          "name": "inspectionId",
          "type": "uint64"
        }
      ],
      "stateMutability": "view",
      "type": "function"
    },
    {
      "inputs": [],
      "name": "poolCurrentEra",
      "outputs": [
        {
          "internalType": "uint256",
          "name": "",
          "type": "uint256"
        }
      ],
      "stateMutability": "view",
      "type": "function"
    },
    {
      "inputs": [
        {
          "internalType": "address",
          "name": "addr",
          "type": "address"
        },
        {
          "internalType": "bool",
          "name": "denied",
          "type": "bool"
        }
      ],
      "name": "removePoolLevels",
      "outputs": [],
      "stateMutability": "nonpayable",
      "type": "function"
    },
    {
      "inputs": [],
      "name": "renounceOwnership",
      "outputs": [],
      "stateMutability": "nonpayable",
      "type": "function"
    },
    {
      "inputs": [
        {
          "internalType": "address",
          "name": "_inspectionRulesAddress",
          "type": "address"
        },
        {
          "internalType": "address",
          "name": "_validationRulesAddress",
          "type": "address"
        }
      ],
      "name": "setContractCall",
      "outputs": [],
      "stateMutability": "nonpayable",
      "type": "function"
    },
    {
      "inputs": [
        {
          "internalType": "address",
          "name": "addr",
          "type": "address"
        }
      ],
      "name": "totalPenalties",
      "outputs": [
        {
          "internalType": "uint256",
          "name": "",
          "type": "uint256"
        }
      ],
      "stateMutability": "view",
      "type": "function"
    },
    {
      "inputs": [
        {
          "internalType": "address",
          "name": "newOwner",
          "type": "address"
        }
      ],
      "name": "transferOwnership",
      "outputs": [],
      "stateMutability": "nonpayable",
      "type": "function"
    },
    {
      "inputs": [],
      "name": "withdraw",
      "outputs": [],
      "stateMutability": "nonpayable",
      "type": "function"
    }
  ],
  "bytecode": "0x60a060405234801561001057600080fd5b50604051611c95380380611c9583398101604081905261002f9161010b565b338061005557604051631e4fbdf760e01b81526000600482015260240160405180910390fd5b61005e8161009f565b506001600255600680546001600160a01b039485166001600160a01b031991821617909155600780549390941692169190911790915560ff16608052610158565b600080546001600160a01b038381166001600160a01b0319831681178455604051919092169283917f8be0079c531659141344cd1fd0a4f28419497f9722a3daafe3b4186f6b6457e09190a35050565b80516001600160a01b038116811461010657600080fd5b919050565b60008060006060848603121561012057600080fd5b610129846100ef565b9250610137602085016100ef565b9150604084015160ff8116811461014d57600080fd5b809150509250925092565b608051611b2261017360003960006103940152611b226000f3fe608060405234801561001057600080fd5b50600436106101735760003560e01c80638da5cb5b116100de578063b1e8665511610097578063c3c983d211610071578063c3c983d2146103c9578063e05cf155146103dc578063e8f7dfcf146103e4578063f2fde38b1461040457600080fd5b8063b1e866551461037c578063b24eb7691461038f578063bf960e85146103b657600080fd5b80638da5cb5b146103065780638f93716f1461031757806396cd03571461032a5780639c9604501461033d578063a680125814610350578063a77963f0146102ae57600080fd5b80634d5ff1d3116101305780634d5ff1d3146102435780635fa71c281461028357806367b769a8146102ae578063715018a6146102c85780637b334154146102d05780637fbbbf1c146102f357600080fd5b8063031a70521461017857806304521ca31461019b5780630da0933a146101b05780632076267b146101f1578063218f23ca146102285780633ccfd60b1461023b575b600080fd5b61018161177081565b60405163ffffffff90911681526020015b60405180910390f35b6101ae6101a936600461147a565b610417565b005b6101d96101be3660046114ad565b6005602052600090815260409020546001600160a01b031681565b6040516001600160a01b039091168152602001610192565b61021a6101ff3660046114c6565b6001600160a01b031660009081526004602052604090205490565b604051908152602001610192565b6101ae6102363660046114f6565b61044d565b6101ae610546565b6102736102513660046114c6565b6001600160a01b03166000908152600360208190526040909120600401541090565b6040519015158152602001610192565b61029661029136600461152d565b6107f6565b6040516001600160401b039091168152602001610192565b6102b6600381565b60405160ff9091168152602001610192565b6101ae61082e565b6102736102de3660046114c6565b60016020526000908152604090205460ff1681565b6102736103013660046114c6565b610840565b6000546001600160a01b03166101d9565b6101ae6103253660046114c6565b61087f565b6101ae61033836600461156c565b6108ae565b6101ae61034b36600461163b565b610951565b61027361035e3660046114c6565b6001600160a01b031660009081526001602052604090205460ff1690565b61021a61038a36600461156c565b610c6d565b6102b67f000000000000000000000000000000000000000000000000000000000000000081565b61021a6103c436600461156c565b610d32565b6101ae6103d73660046114c6565b610db3565b61021a610e94565b6103f76103f23660046114c6565b610f07565b60405161019291906116e8565b6101ae6104123660046114c6565b6110f0565b61041f61112e565b600880546001600160a01b039384166001600160a01b03199182161790915560098054929093169116179055565b3360009081526001602052604090205460ff166104855760405162461bcd60e51b815260040161047c906117d0565b60405180910390fd5b61048d61115b565b6001600160a01b0382166000908152600360205260409020816104b15760016104b7565b60088101545b6008820180546000906104cb908490611812565b90915550506007546040516310c791e560e11b81526001600160a01b03858116600483015284151560248301529091169063218f23ca90604401600060405180830381600087803b15801561051f57600080fd5b505af1158015610533573d6000803e3d6000fd5b50505050506105426001600255565b5050565b61054e61115b565b600654604051631292f8c160e31b81526001600160a01b0390911690639497c60890610581906002903390600401611847565b602060405180830381865afa15801561059e573d6000803e3d6000fd5b505050506040513d601f19601f820116820180604052508101906105c2919061186d565b61060e5760405162461bcd60e51b815260206004820152601760248201527f506f6f6c206f6e6c7920746f20696e73706563746f7273000000000000000000604482015260640161047c565b336000908152600360208190526040909120808201549091111561066a5760405162461bcd60e51b81526020600482015260136024820152724d696e696d756d20696e7370656374696f6e7360681b604482015260640161047c565b6009810154600754604051637df42f8360e11b8152600481018390526001600160a01b039091169063fbe85f0690602401602060405180830381865afa1580156106b8573d6000803e3d6000fd5b505050506040513d601f19601f820116820180604052508101906106dc919061186d565b6107365760405162461bcd60e51b815260206004820152602560248201527f4e6f7420656c696769626c6520746f20776974686472617720666f7220746869604482015264732065726160d81b606482015260840161047c565b6009820180549060006107488361188a565b909155505060075460405163f3fef3a360e01b8152336004820152602481018390526001600160a01b039091169063f3fef3a390604401600060405180830381600087803b15801561079957600080fd5b505af11580156107ad573d6000803e3d6000fd5b50506040514381528392503391507f840624e970d5fc229e8298cd290e31ee6be9e7c78cf10b6f8176e4178a0323709060200160405180910390a350506107f46001600255565b565b6004602052816000526040600020818154811061081257600080fd5b6000918252602090912001546001600160401b03169150829050565b61083661112e565b6107f46000611183565b6001600160a01b0381166000908152600360205260408120600601548061086a5750600192915050565b610876611770826118a3565b43119392505050565b61088761112e565b6001600160a01b03166000908152600160208190526040909120805460ff19169091179055565b3360009081526001602052604090205460ff166108dd5760405162461bcd60e51b815260040161047c906117d0565b6008546001600160a01b03163381146109085760405162461bcd60e51b815260040161047c906118b6565b6001600160a01b0383166000908152600360205260409020436005820155600701805467ffffffffffffffff19166001600160401b03841617905561094c836111d3565b505050565b815160321080159061096557508051609610155b6109a25760405162461bcd60e51b815260206004820152600e60248201526d4d6178206368617261637465727360901b604482015260640161047c565b60065460405162f5960960e51b81526000916001600160a01b031690631eb2c120906109d3906002906004016118ed565b602060405180830381865afa1580156109f0573d6000803e3d6000fd5b505050506040513d601f19601f82011682018060405250810190610a1491906118fb565b610a1f906001611918565b9050604051806101600160405280826001600160401b03168152602001336001600160a01b031681526020018481526020018381526020016000815260200160008152602001600081526020016000815260200160006001600160401b03168152602001604051806040016040528060008152602001610a9d610e94565b90528152436020918201523360009081526003825260409081902083518154938501516001600160a01b0316600160401b026001600160e01b03199094166001600160401b03909116179290921782558201516001820190610aff90826119bf565b5060608201516002820190610b1490826119bf565b506080820151600382015560a082015160048083019190915560c083015160058084019190915560e084015160068085019190915561010085015160078501805467ffffffffffffffff19166001600160401b0392831617905561012086015180516008870155602090810151600987015561014090960151600a90950194909455928516600090815293526040928390208054336001600160a01b0319909116811790915591549251639c3eead960e01b81526001600160a01b0390931692639c3eead992610be992909160029101611a7d565b600060405180830381600087803b158015610c0357600080fd5b505af1158015610c17573d6000803e3d6000fd5b50505050336001600160a01b0316816001600160401b03167ff497df17d0f8e81cbbeac1fab2ef010533e6b0010216eb360160fc9021a060fa8543604051610c60929190611a9a565b60405180910390a3505050565b3360009081526001602052604081205460ff16610c9c5760405162461bcd60e51b815260040161047c906117d0565b6009546001600160a01b0316338114610cc75760405162461bcd60e51b815260040161047c906118b6565b6001600160a01b038416600081815260046020818152604080842081518084019092526001600160401b038981168352815460018101835582875284872093519301805467ffffffffffffffff191693909116929092179091559390925290525491505b5092915050565b3360009081526001602052604081205460ff16610d615760405162461bcd60e51b815260040161047c906117d0565b6008546001600160a01b0316338114610d8c5760405162461bcd60e51b815260040161047c906118b6565b610d9461115b565b610d9d84611202565b610da78484611229565b9150610d2b6001600255565b3360009081526001602052604090205460ff16610de25760405162461bcd60e51b815260040161047c906117d0565b6008546001600160a01b0316338114610e0d5760405162461bcd60e51b815260040161047c906118b6565b6001600160a01b038216600090815260036020819052604090912090810154610e785760405162461bcd60e51b815260206004820152601860248201527f746f74616c496e7370656374696f6e7320696e76616c69640000000000000000604482015260640161047c565b600381018054906000610e8a83611abc565b9190505550505050565b60075460408051637686fbcf60e11b815290516000926001600160a01b03169163ed0df79e9160048083019260209291908290030181865afa158015610ede573d6000803e3d6000fd5b505050506040513d601f19601f82011682018060405250810190610f029190611ad3565b905090565b610f0f6113ce565b6001600160a01b0380831660009081526003602090815260409182902082516101608101845281546001600160401b0381168252600160401b9004909416918401919091526001810180549192840191610f6890611937565b80601f0160208091040260200160405190810160405280929190818152602001828054610f9490611937565b8015610fe15780601f10610fb657610100808354040283529160200191610fe1565b820191906000526020600020905b815481529060010190602001808311610fc457829003601f168201915b50505050508152602001600282018054610ffa90611937565b80601f016020809104026020016040519081016040528092919081815260200182805461102690611937565b80156110735780601f1061104857610100808354040283529160200191611073565b820191906000526020600020905b81548152906001019060200180831161105657829003601f168201915b505050918352505060038201546020808301919091526004830154604080840191909152600584015460608401526006840154608084015260078401546001600160401b031660a084015280518082019091526008840154815260098401549181019190915260c0820152600a9091015460e09091015292915050565b6110f861112e565b6001600160a01b03811661112257604051631e4fbdf760e01b81526000600482015260240161047c565b61112b81611183565b50565b6000546001600160a01b031633146107f45760405163118cdaa760e01b815233600482015260240161047c565b600280540361117d57604051633ee5aeb560e01b815260040160405180910390fd5b60028055565b600080546001600160a01b038381166001600160a01b0319831681178455604051919092169283917f8be0079c531659141344cd1fd0a4f28419497f9722a3daafe3b4186f6b6457e09190a35050565b6001600160a01b03811660009081526003602052604081206004018054916111fa8361188a565b919050555050565b6001600160a01b03811660009081526003602052604081206004018054916111fa83611abc565b6001600160a01b038216600090815260036020526040812080546001600160401b0316820361129a5760405162461bcd60e51b815260206004820152601860248201527f496e73706563746f7220646f6573206e6f742065786973740000000000000000604482015260640161047c565b6003810180549060006112ac8361188a565b90915550504360068201556008810180549060006112c98361188a565b91905055506112d881846112e5565b6003015490505b92915050565b6112f482600301546003111590565b6112fc575050565b60075482546040516338e8490d60e11b81526001600160a01b03600160401b90920482166004820152600160248201526001600160401b03841660448201529116906371d0921a90606401600060405180830381600087803b15801561136157600080fd5b505af1158015611375573d6000803e3d6000fd5b50508354600885015460408051918252436020830152600160401b9092046001600160a01b031693507fb569f8300b4cf9fad5353ce8ea5c9f82098e5ff03743f0d50d213fc166d3a4e092500160405180910390a25050565b60405180610160016040528060006001600160401b0316815260200160006001600160a01b0316815260200160608152602001606081526020016000815260200160008152602001600081526020016000815260200160006001600160401b03168152602001611451604051806040016040528060008152602001600081525090565b8152602001600081525090565b80356001600160a01b038116811461147557600080fd5b919050565b6000806040838503121561148d57600080fd5b6114968361145e565b91506114a46020840161145e565b90509250929050565b6000602082840312156114bf57600080fd5b5035919050565b6000602082840312156114d857600080fd5b6114e18261145e565b9392505050565b801515811461112b57600080fd5b6000806040838503121561150957600080fd5b6115128361145e565b91506020830135611522816114e8565b809150509250929050565b6000806040838503121561154057600080fd5b6115498361145e565b946020939093013593505050565b6001600160401b038116811461112b57600080fd5b6000806040838503121561157f57600080fd5b6115888361145e565b9150602083013561152281611557565b634e487b7160e01b600052604160045260246000fd5b600082601f8301126115bf57600080fd5b81356001600160401b038111156115d8576115d8611598565b604051601f8201601f19908116603f011681016001600160401b038111828210171561160657611606611598565b60405281815283820160200185101561161e57600080fd5b816020850160208301376000918101602001919091529392505050565b6000806040838503121561164e57600080fd5b82356001600160401b0381111561166457600080fd5b611670858286016115ae565b92505060208301356001600160401b0381111561168c57600080fd5b611698858286016115ae565b9150509250929050565b6000815180845260005b818110156116c8576020818501810151868301820152016116ac565b506000602082860101526020601f19601f83011685010191505092915050565b602081526117026020820183516001600160401b03169052565b6000602083015161171e60408401826001600160a01b03169052565b506040830151610180606084015261173a6101a08401826116a2565b90506060840151601f1984830301608085015261175782826116a2565b915050608084015160a084015260a084015160c084015260c084015160e084015260e084015161010084015261010084015161179f6101208501826001600160401b03169052565b5061012084015180516101408501526020810151610160850152506101408401516101808401528091505092915050565b6020808252601290820152712737ba1030b63637bbb2b21031b0b63632b960711b604082015260600190565b634e487b7160e01b600052601160045260246000fd5b818103818111156112df576112df6117fc565b6008811061184357634e487b7160e01b600052602160045260246000fd5b9052565b604081016118558285611825565b6001600160a01b039290921660209190910152919050565b60006020828403121561187f57600080fd5b81516114e1816114e8565b60006001820161189c5761189c6117fc565b5060010190565b808201808211156112df576112df6117fc565b6020808252601e908201527f43616c6c6572206d7573742062652073797374656d20636f6e74726163740000604082015260600190565b602081016112df8284611825565b60006020828403121561190d57600080fd5b81516114e181611557565b6001600160401b0381811683821601908111156112df576112df6117fc565b600181811c9082168061194b57607f821691505b60208210810361196b57634e487b7160e01b600052602260045260246000fd5b50919050565b601f82111561094c57806000526020600020601f840160051c810160208510156119985750805b601f840160051c820191505b818110156119b857600081556001016119a4565b5050505050565b81516001600160401b038111156119d8576119d8611598565b6119ec816119e68454611937565b84611971565b6020601f821160018114611a205760008315611a085750848201515b600019600385901b1c1916600184901b1784556119b8565b600084815260208120601f198516915b82811015611a505787850151825560209485019460019092019101611a30565b5084821015611a6e5786840151600019600387901b60f8161c191681555b50505050600190811b01905550565b6001600160a01b0383168152604081016114e16020830184611825565b604081526000611aad60408301856116a2565b90508260208301529392505050565b600081611acb57611acb6117fc565b506000190190565b600060208284031215611ae557600080fd5b505191905056fea264697066735822122067671844720ba60f84cf0928eed48aee944479ae7b1a1128f275c09bedcb711664736f6c634300081b0033",
  "linkReferences": {},
  "deployedLinkReferences": {}
}