{
  "_format": "hh-sol-artifact-1",
  "contractName": "InspectorPool",
  "sourceName": "contracts/InspectorPool.sol",
  "abi": [
    {
      "inputs": [
        {
          "internalType": "address",
          "name": "regenerationCreditAddress",
          "type": "address"
        },
        {
          "internalType": "uint256",
          "name": "_halving",
          "type": "uint256"
        },
        {
          "internalType": "uint256",
          "name": "_blocksPerEra",
          "type": "uint256"
        }
      ],
      "stateMutability": "nonpayable",
      "type": "constructor"
    },
    {
      "anonymous": false,
      "inputs": [
        {
          "indexed": true,
          "internalType": "address",
          "name": "previousOwner",
          "type": "address"
        },
        {
          "indexed": true,
          "internalType": "address",
          "name": "newOwner",
          "type": "address"
        }
      ],
      "name": "OwnershipTransferred",
      "type": "event"
    },
    {
      "anonymous": false,
      "inputs": [
        {
          "indexed": true,
          "internalType": "address",
          "name": "user",
          "type": "address"
        },
        {
          "indexed": false,
          "internalType": "uint256",
          "name": "era",
          "type": "uint256"
        },
        {
          "indexed": false,
          "internalType": "uint256",
          "name": "levelsAdded",
          "type": "uint256"
        },
        {
          "indexed": false,
          "internalType": "uint256",
          "name": "newTotalEraLevels",
          "type": "uint256"
        },
        {
          "indexed": false,
          "internalType": "uint256",
          "name": "newEraUserLevels",
          "type": "uint256"
        }
      ],
      "name": "PoolLevelAdded",
      "type": "event"
    },
    {
      "anonymous": false,
      "inputs": [
        {
          "indexed": true,
          "internalType": "address",
          "name": "user",
          "type": "address"
        },
        {
          "indexed": false,
          "internalType": "uint256",
          "name": "era",
          "type": "uint256"
        },
        {
          "indexed": false,
          "internalType": "uint256",
          "name": "levelsRemoved",
          "type": "uint256"
        },
        {
          "indexed": false,
          "internalType": "uint256",
          "name": "newTotalEraLevels",
          "type": "uint256"
        },
        {
          "indexed": false,
          "internalType": "uint256",
          "name": "newEraUserLevels",
          "type": "uint256"
        }
      ],
      "name": "PoolLevelRemoved",
      "type": "event"
    },
    {
      "anonymous": false,
      "inputs": [
        {
          "indexed": true,
          "internalType": "address",
          "name": "user",
          "type": "address"
        },
        {
          "indexed": false,
          "internalType": "uint256",
          "name": "era",
          "type": "uint256"
        },
        {
          "indexed": false,
          "internalType": "uint256",
          "name": "amount",
          "type": "uint256"
        }
      ],
      "name": "TokensWithdrawn",
      "type": "event"
    },
    {
      "inputs": [],
      "name": "BLOCKS_PRECISION",
      "outputs": [
        {
          "internalType": "uint256",
          "name": "",
          "type": "uint256"
        }
      ],
      "stateMutability": "view",
      "type": "function"
    },
    {
      "inputs": [
        {
          "internalType": "address",
          "name": "addr",
          "type": "address"
        },
        {
          "internalType": "uint256",
          "name": "levels",
          "type": "uint256"
        }
      ],
      "name": "addLevel",
      "outputs": [],
      "stateMutability": "nonpayable",
      "type": "function"
    },
    {
      "inputs": [
        {
          "internalType": "address",
          "name": "",
          "type": "address"
        }
      ],
      "name": "allowedCallers",
      "outputs": [
        {
          "internalType": "bool",
          "name": "",
          "type": "bool"
        }
      ],
      "stateMutability": "view",
      "type": "function"
    },
    {
      "inputs": [
        {
          "internalType": "uint256",
          "name": "currentUserEra",
          "type": "uint256"
        }
      ],
      "name": "canWithdraw",
      "outputs": [
        {
          "internalType": "bool",
          "name": "",
          "type": "bool"
        }
      ],
      "stateMutability": "view",
      "type": "function"
    },
    {
      "inputs": [
        {
          "internalType": "uint256",
          "name": "currentUserEra",
          "type": "uint256"
        }
      ],
      "name": "canWithdrawTimes",
      "outputs": [
        {
          "internalType": "uint256",
          "name": "",
          "type": "uint256"
        }
      ],
      "stateMutability": "view",
      "type": "function"
    },
    {
      "inputs": [],
      "name": "currentContractEra",
      "outputs": [
        {
          "internalType": "uint256",
          "name": "",
          "type": "uint256"
        }
      ],
      "stateMutability": "view",
      "type": "function"
    },
    {
      "inputs": [],
      "name": "currentEpoch",
      "outputs": [
        {
          "internalType": "uint256",
          "name": "",
          "type": "uint256"
        }
      ],
      "stateMutability": "view",
      "type": "function"
    },
    {
      "inputs": [
        {
          "internalType": "uint256",
          "name": "",
          "type": "uint256"
        },
        {
          "internalType": "address",
          "name": "",
          "type": "address"
        }
      ],
      "name": "eraLevels",
      "outputs": [
        {
          "internalType": "uint256",
          "name": "",
          "type": "uint256"
        }
      ],
      "stateMutability": "view",
      "type": "function"
    },
    {
      "inputs": [
        {
          "internalType": "uint256",
          "name": "",
          "type": "uint256"
        },
        {
          "internalType": "address",
          "name": "",
          "type": "address"
        }
      ],
      "name": "eraTokens",
      "outputs": [
        {
          "internalType": "uint256",
          "name": "",
          "type": "uint256"
        }
      ],
      "stateMutability": "view",
      "type": "function"
    },
    {
      "inputs": [
        {
          "internalType": "uint256",
          "name": "",
          "type": "uint256"
        }
      ],
      "name": "eras",
      "outputs": [
        {
          "internalType": "uint256",
          "name": "claimsCount",
          "type": "uint256"
        },
        {
          "internalType": "uint256",
          "name": "tokens",
          "type": "uint256"
        },
        {
          "internalType": "uint256",
          "name": "levels",
          "type": "uint256"
        }
      ],
      "stateMutability": "view",
      "type": "function"
    },
    {
      "inputs": [
        {
          "internalType": "uint256",
          "name": "era",
          "type": "uint256"
        }
      ],
      "name": "getEpochForEra",
      "outputs": [
        {
          "internalType": "uint256",
          "name": "",
          "type": "uint256"
        }
      ],
      "stateMutability": "view",
      "type": "function"
    },
    {
      "inputs": [
        {
          "internalType": "uint256",
          "name": "era",
          "type": "uint256"
        }
      ],
      "name": "getEra",
      "outputs": [
        {
          "components": [
            {
              "internalType": "uint256",
              "name": "claimsCount",
              "type": "uint256"
            },
            {
              "internalType": "uint256",
              "name": "tokens",
              "type": "uint256"
            },
            {
              "internalType": "uint256",
              "name": "levels",
              "type": "uint256"
            }
          ],
          "internalType": "struct Era",
          "name": "",
          "type": "tuple"
        }
      ],
      "stateMutability": "view",
      "type": "function"
    },
    {
      "inputs": [
        {
          "internalType": "address",
          "name": "delegate",
          "type": "address"
        },
        {
          "internalType": "uint256",
          "name": "era",
          "type": "uint256"
        }
      ],
      "name": "haveTokensToWithdraw",
      "outputs": [
        {
          "internalType": "bool",
          "name": "",
          "type": "bool"
        }
      ],
      "stateMutability": "view",
      "type": "function"
    },
    {
      "inputs": [
        {
          "internalType": "address",
          "name": "caller",
          "type": "address"
        }
      ],
      "name": "isAllowedCaller",
      "outputs": [
        {
          "internalType": "bool",
          "name": "",
          "type": "bool"
        }
      ],
      "stateMutability": "view",
      "type": "function"
    },
    {
      "inputs": [
        {
          "internalType": "address",
          "name": "allowed",
          "type": "address"
        }
      ],
      "name": "newAllowedCaller",
      "outputs": [],
      "stateMutability": "nonpayable",
      "type": "function"
    },
    {
      "inputs": [
        {
          "internalType": "uint256",
          "name": "targetEra",
          "type": "uint256"
        }
      ],
      "name": "nextEraIn",
      "outputs": [
        {
          "internalType": "int256",
          "name": "",
          "type": "int256"
        }
      ],
      "stateMutability": "view",
      "type": "function"
    },
    {
      "inputs": [],
      "name": "owner",
      "outputs": [
        {
          "internalType": "address",
          "name": "",
          "type": "address"
        }
      ],
      "stateMutability": "view",
      "type": "function"
    },
    {
      "inputs": [
        {
          "internalType": "address",
          "name": "addr",
          "type": "address"
        },
        {
          "internalType": "uint256",
          "name": "levelsToRemove",
          "type": "uint256"
        }
      ],
      "name": "removePoolLevels",
      "outputs": [],
      "stateMutability": "nonpayable",
      "type": "function"
    },
    {
      "inputs": [],
      "name": "renounceOwnership",
      "outputs": [],
      "stateMutability": "nonpayable",
      "type": "function"
    },
    {
      "inputs": [
        {
          "internalType": "address",
          "name": "_inspectorRulesAddress",
          "type": "address"
        }
      ],
      "name": "setContractCall",
      "outputs": [],
      "stateMutability": "nonpayable",
      "type": "function"
    },
    {
      "inputs": [
        {
          "internalType": "uint256",
          "name": "currentEpoch",
          "type": "uint256"
        }
      ],
      "name": "tokensPerEpoch",
      "outputs": [
        {
          "internalType": "uint256",
          "name": "",
          "type": "uint256"
        }
      ],
      "stateMutability": "view",
      "type": "function"
    },
    {
      "inputs": [
        {
          "internalType": "uint256",
          "name": "currentEpoch",
          "type": "uint256"
        },
        {
          "internalType": "uint256",
          "name": "halvingFactor",
          "type": "uint256"
        }
      ],
      "name": "tokensPerEra",
      "outputs": [
        {
          "internalType": "uint256",
          "name": "",
          "type": "uint256"
        }
      ],
      "stateMutability": "view",
      "type": "function"
    },
    {
      "inputs": [
        {
          "internalType": "address",
          "name": "newOwner",
          "type": "address"
        }
      ],
      "name": "transferOwnership",
      "outputs": [],
      "stateMutability": "nonpayable",
      "type": "function"
    },
    {
      "inputs": [
        {
          "internalType": "address",
          "name": "delegate",
          "type": "address"
        },
        {
          "internalType": "uint256",
          "name": "era",
          "type": "uint256"
        }
      ],
      "name": "withdraw",
      "outputs": [],
      "stateMutability": "nonpayable",
      "type": "function"
    }
  ],
  "bytecode": "0x61010060405234801561001157600080fd5b50604051611454380380611454833981016040819052610030916100d4565b6a94e47b8d6817153400000060805260a08190524360c05260e082905261005633610082565b50506001600555600680546001600160a01b0319166001600160a01b0392909216919091179055610117565b600380546001600160a01b038381166001600160a01b0319831681179093556040519116919082907f8be0079c531659141344cd1fd0a4f28419497f9722a3daafe3b4186f6b6457e090600090a35050565b6000806000606084860312156100e957600080fd5b83516001600160a01b038116811461010057600080fd5b602085015160409095015190969495509392505050565b60805160a05160c05160e0516112e861016c600039600081816103ed015261070c0152600081816107d80152610817015260008181610646015281816107ad0152610843015260006104d401526112e86000f3fe608060405234801561001057600080fd5b50600436106101585760003560e01c8063861b4ce1116100c3578063d5ee3eb51161007c578063d5ee3eb514610359578063ed0df79e1461036c578063f2fde38b14610374578063f3fef3a314610387578063fbe85f061461039a578063ff39043c146103ad57600080fd5b8063861b4ce1146102b957806388b3acae146102c15780638da5cb5b146102ec5780638f93716f14610307578063a68012581461031a578063b86c56991461034657600080fd5b8063715018a611610115578063715018a614610216578063720a70bd1461021e578063755d4f9714610268578063766718081461027b5780637721f1b5146102835780637b3341541461029657600080fd5b80630f2dbe601461015d57806318ad5c9a146101855780631f14f4151461019a5780632506b932146101bb5780632eedcb18146101ce57806352b8d3ed14610203575b600080fd5b61017061016b366004610fbd565b6103d8565b60405190151581526020015b60405180910390f35b610198610193366004610fbd565b61041f565b005b6101ad6101a8366004610fe7565b6104ab565b60405190815260200161017c565b6101ad6101c9366004611009565b6104c1565b6101e16101dc366004611009565b6104f8565b604080518251815260208084015190820152918101519082015260600161017c565b610198610211366004610fbd565b610553565b6101986105c7565b61024d61022c366004611009565b60006020819052908152604090208054600182015460029092015490919083565b6040805193845260208401929092529082015260600161017c565b610198610276366004611022565b6105db565b6101ad610605565b6101ad610291366004611009565b610617565b6101706102a4366004611022565b60046020526000908152604090205460ff1681565b6101ad600581565b6101ad6102cf36600461103d565b600160209081526000928352604080842090915290825290205481565b6003546040516001600160a01b03909116815260200161017c565b610198610315366004611022565b61068d565b610170610328366004611022565b6001600160a01b031660009081526004602052604090205460ff1690565b6101ad610354366004611009565b6106b9565b6101ad610367366004611009565b61074b565b6101ad61080f565b610198610382366004611022565b610879565b610198610395366004610fbd565b6108f2565b6101706103a8366004611009565b610b57565b6101ad6103bb36600461103d565b600260209081526000928352604080842090915290825290205481565b600061041683836104116103eb866106b9565b7f00000000000000000000000000000000000000000000000000000000000000006104ab565b610b69565b90505b92915050565b3360009081526004602052604090205460ff166104575760405162461bcd60e51b815260040161044e90611069565b60405180910390fd5b6007546001600160a01b03163381146104825760405162461bcd60e51b815260040161044e90611095565b61048a610b82565b61049c8361049661080f565b84610bdb565b6104a66001600555565b505050565b6000816104b7846104c1565b61041691906110e2565b60006104ce8260026111eb565b610419907f00000000000000000000000000000000000000000000000000000000000000006110e2565b61051c60405180606001604052806000815260200160008152602001600081525090565b5060009081526020818152604091829020825160608101845281548152600182015492810192909252600201549181019190915290565b3360009081526004602052604090205460ff166105825760405162461bcd60e51b815260040161044e90611069565b6007546001600160a01b03163381146105ad5760405162461bcd60e51b815260040161044e90611095565b6105b5610b82565b61049c83836105c261080f565b610d19565b6105cf610def565b6105d96000610e49565b565b6105e3610def565b600780546001600160a01b0319166001600160a01b0392909216919091179055565b600061061261035461080f565b905090565b6000806106238361074b565b905060008113156106375750600092915050565b6000610642826111f7565b90507f00000000000000000000000000000000000000000000000000000000000000006106716005600a6111eb565b61067b9083611213565b61068591906110e2565b949350505050565b610695610def565b6001600160a01b03166000908152600460205260409020805460ff19166001179055565b600080821161070a5760405162461bcd60e51b815260206004820152601a60248201527f457261206d7573742062652067726561746572207468616e2030000000000000604482015260640161044e565b7f000000000000000000000000000000000000000000000000000000000000000061073660018461122a565b61074091906110e2565b61041990600161123d565b60008082116107a65760405162461bcd60e51b815260206004820152602160248201527f54617267657420657261206d7573742062652067726561746572207468616e206044820152600360fc1b606482015260840161044e565b60006107d27f000000000000000000000000000000000000000000000000000000000000000084611213565b6107fc907f000000000000000000000000000000000000000000000000000000000000000061123d565b90506108084382611250565b9392505050565b60008061083c7f00000000000000000000000000000000000000000000000000000000000000004361122a565b90506108687f0000000000000000000000000000000000000000000000000000000000000000826110e2565b61087390600161123d565b91505090565b610881610def565b6001600160a01b0381166108e65760405162461bcd60e51b815260206004820152602660248201527f4f776e61626c653a206e6577206f776e657220697320746865207a65726f206160448201526564647265737360d01b606482015260840161044e565b6108ef81610e49565b50565b3360009081526004602052604090205460ff166109215760405162461bcd60e51b815260040161044e90611069565b6007546001600160a01b031633811461094c5760405162461bcd60e51b815260040161044e90611095565b8161095681610b57565b61099a5760405162461bcd60e51b8152602060048201526015602482015274165bdd4818d85b89dd08185c1c1c9bdd99481e595d605a1b604482015260640161044e565b6109a2610b82565b6109aa61080f565b8311156109ed5760405162461bcd60e51b815260206004820152601160248201527045726120696e207468652066757475726560781b604482015260640161044e565b6000610a058486610a006103eb886106b9565b610e9b565b9050610a12848683610f01565b80600003610a205750610b47565b60065460405163a9059cbb60e01b81526001600160a01b03878116600483015260248201849052600092169063a9059cbb906044016020604051808303816000875af1158015610a74573d6000803e3d6000fd5b505050506040513d601f19601f82011682018060405250810190610a989190611277565b905080610ae05760405162461bcd60e51b8152602060048201526016602482015275115490cc8c0e881d1c985b9cd9995c8819985a5b195960521b604482015260640161044e565b600654604051636215410d60e11b8152306004820152602481018490526001600160a01b039091169063c42a821a90604401600060405180830381600087803b158015610b2c57600080fd5b505af1158015610b40573d6000803e3d6000fd5b5050505050505b610b516001600555565b50505050565b6000610b6161080f565b909110919050565b600080610b77848685610e9b565b151595945050505050565b600260055403610bd45760405162461bcd60e51b815260206004820152601f60248201527f5265656e7472616e637947756172643a207265656e7472616e742063616c6c00604482015260640161044e565b6002600555565b60008281526001602090815260408083206001600160a01b038716845290915281205490819003610c0c5750505050565b6000808311610c3d5760008481526001602090815260408083206001600160a01b0389168452909152902054610c3f565b825b9050806000808681526020019081526020016000206002016000828254610c66919061122a565b909155505060008481526001602090815260408083206001600160a01b038916845290915281208054839290610c9d90849061122a565b909155505060008481526020818152604080832060020154600183528184206001600160a01b038a16808652908452938290205482518981529384018690529183015260608201527f8df21415d734537dcf01ffb77472049844f905c24abd54708d93555ea85239f99060800160405180910390a25050505050565b600081815260208190526040902060020154610d3690839061123d565b60008281526020818152604080832060020193909355600181528282206001600160a01b038716835290529081208054849290610d7490849061123d565b909155505060008181526020818152604080832060020154600183528184206001600160a01b038816808652908452938290205482518681529384018790529183015260608201527ffc6907b3f86e1e63de43e8e6af6345e03bbc9726a0f63eddb4021532417f78b1906080015b60405180910390a2505050565b6003546001600160a01b031633146105d95760405162461bcd60e51b815260206004820181905260248201527f4f776e61626c653a2063616c6c6572206973206e6f7420746865206f776e6572604482015260640161044e565b600380546001600160a01b038381166001600160a01b0319831681179093556040519116919082907f8be0079c531659141344cd1fd0a4f28419497f9722a3daafe3b4186f6b6457e090600090a35050565b60008381526020818152604080832060020154600183528184206001600160a01b0387168552909252822054801580610ed2575081155b15610ee257600092505050610808565b81610eed8583611213565b610ef791906110e2565b9695505050505050565b6000838152602081905260408120805491610f1b83611299565b909155505060008381526020819052604081206001018054839290610f4190849061123d565b909155505060008381526002602090815260408083206001600160a01b0386168085529083529281902084905580518681529182018490527fffe903c0abe6b2dbb2f3474ef43d7a3c1fca49e5a774453423ca8e1952aabffa9101610de2565b80356001600160a01b0381168114610fb857600080fd5b919050565b60008060408385031215610fd057600080fd5b610fd983610fa1565b946020939093013593505050565b60008060408385031215610ffa57600080fd5b50508035926020909101359150565b60006020828403121561101b57600080fd5b5035919050565b60006020828403121561103457600080fd5b61041682610fa1565b6000806040838503121561105057600080fd5b8235915061106060208401610fa1565b90509250929050565b6020808252601290820152712737ba1030b63637bbb2b21031b0b63632b960711b604082015260600190565b6020808252601e908201527f43616c6c6572206d7573742062652073797374656d20636f6e74726163740000604082015260600190565b634e487b7160e01b600052601160045260246000fd5b6000826110ff57634e487b7160e01b600052601260045260246000fd5b500490565b6001815b600184111561113f57808504811115611123576111236110cc565b600184161561113157908102905b60019390931c928002611108565b935093915050565b60008261115657506001610419565b8161116357506000610419565b816001811461117957600281146111835761119f565b6001915050610419565b60ff841115611194576111946110cc565b50506001821b610419565b5060208310610133831016604e8410600b84101617156111c2575081810a610419565b6111cf6000198484611104565b80600019048211156111e3576111e36110cc565b029392505050565b60006104168383611147565b6000600160ff1b820161120c5761120c6110cc565b5060000390565b8082028115828204841417610419576104196110cc565b81810381811115610419576104196110cc565b80820180821115610419576104196110cc565b8181036000831280158383131683831282161715611270576112706110cc565b5092915050565b60006020828403121561128957600080fd5b8151801515811461080857600080fd5b6000600182016112ab576112ab6110cc565b506001019056fea264697066735822122039284e95a58c9195747442b09c8d4e740f76910d17d3e6dbb760d9577d401aab64736f6c634300081b0033",
  "linkReferences": {},
  "deployedLinkReferences": {}
}