{
  "_format": "hh-sol-artifact-1",
  "contractName": "InspectionRules",
  "sourceName": "contracts/InspectionRules.sol",
  "abi": [
    {
      "inputs": [
        {
          "internalType": "uint32",
          "name": "timeBetweenInspections_",
          "type": "uint32"
        },
        {
          "internalType": "uint32",
          "name": "blocksToExpireAcceptedInspection_",
          "type": "uint32"
        },
        {
          "internalType": "uint8",
          "name": "allowedInitialRequests_",
          "type": "uint8"
        },
        {
          "internalType": "uint32",
          "name": "acceptInspectionDelayBlocks_",
          "type": "uint32"
        },
        {
          "internalType": "uint32",
          "name": "securityBlocksToValidation_",
          "type": "uint32"
        }
      ],
      "stateMutability": "nonpayable",
      "type": "constructor"
    },
    {
      "inputs": [
        {
          "internalType": "address",
          "name": "owner",
          "type": "address"
        }
      ],
      "name": "OwnableInvalidOwner",
      "type": "error"
    },
    {
      "inputs": [
        {
          "internalType": "address",
          "name": "account",
          "type": "address"
        }
      ],
      "name": "OwnableUnauthorizedAccount",
      "type": "error"
    },
    {
      "inputs": [],
      "name": "ReentrancyGuardReentrantCall",
      "type": "error"
    },
    {
      "anonymous": false,
      "inputs": [
        {
          "indexed": true,
          "internalType": "uint256",
          "name": "inspectionId",
          "type": "uint256"
        },
        {
          "indexed": true,
          "internalType": "address",
          "name": "inspectorAddress",
          "type": "address"
        },
        {
          "indexed": false,
          "internalType": "uint256",
          "name": "acceptedAt",
          "type": "uint256"
        }
      ],
      "name": "InspectionAccepted",
      "type": "event"
    },
    {
      "anonymous": false,
      "inputs": [
        {
          "indexed": true,
          "internalType": "uint256",
          "name": "inspectionId",
          "type": "uint256"
        },
        {
          "indexed": true,
          "internalType": "address",
          "name": "inspectorAddress",
          "type": "address"
        },
        {
          "indexed": true,
          "internalType": "address",
          "name": "regeneratorAddress",
          "type": "address"
        },
        {
          "indexed": false,
          "internalType": "uint256",
          "name": "invalidatedAt",
          "type": "uint256"
        }
      ],
      "name": "InspectionInvalidated",
      "type": "event"
    },
    {
      "anonymous": false,
      "inputs": [
        {
          "indexed": true,
          "internalType": "uint256",
          "name": "inspectionId",
          "type": "uint256"
        },
        {
          "indexed": true,
          "internalType": "address",
          "name": "inspectorAddress",
          "type": "address"
        },
        {
          "indexed": true,
          "internalType": "address",
          "name": "regeneratorAddress",
          "type": "address"
        },
        {
          "indexed": false,
          "internalType": "uint32",
          "name": "treesResult",
          "type": "uint32"
        },
        {
          "indexed": false,
          "internalType": "uint32",
          "name": "biodiversityResult",
          "type": "uint32"
        },
        {
          "indexed": false,
          "internalType": "uint32",
          "name": "regenerationScore",
          "type": "uint32"
        },
        {
          "indexed": false,
          "internalType": "uint256",
          "name": "inspectedAt",
          "type": "uint256"
        }
      ],
      "name": "InspectionRealized",
      "type": "event"
    },
    {
      "anonymous": false,
      "inputs": [
        {
          "indexed": true,
          "internalType": "uint256",
          "name": "inspectionId",
          "type": "uint256"
        },
        {
          "indexed": true,
          "internalType": "address",
          "name": "regeneratorAddress",
          "type": "address"
        },
        {
          "indexed": false,
          "internalType": "uint256",
          "name": "createdAt",
          "type": "uint256"
        }
      ],
      "name": "InspectionRequested",
      "type": "event"
    },
    {
      "anonymous": false,
      "inputs": [
        {
          "indexed": true,
          "internalType": "address",
          "name": "previousOwner",
          "type": "address"
        },
        {
          "indexed": true,
          "internalType": "address",
          "name": "newOwner",
          "type": "address"
        }
      ],
      "name": "OwnershipTransferred",
      "type": "event"
    },
    {
      "inputs": [],
      "name": "MAX_BIODIVERSITY_RESULT",
      "outputs": [
        {
          "internalType": "uint32",
          "name": "",
          "type": "uint32"
        }
      ],
      "stateMutability": "view",
      "type": "function"
    },
    {
      "inputs": [],
      "name": "MAX_REGENERATOR_INSPECTIONS",
      "outputs": [
        {
          "internalType": "uint8",
          "name": "",
          "type": "uint8"
        }
      ],
      "stateMutability": "view",
      "type": "function"
    },
    {
      "inputs": [
        {
          "internalType": "uint64",
          "name": "inspectionId",
          "type": "uint64"
        }
      ],
      "name": "acceptInspection",
      "outputs": [],
      "stateMutability": "nonpayable",
      "type": "function"
    },
    {
      "inputs": [],
      "name": "acceptInspectionDelayBlocks",
      "outputs": [
        {
          "internalType": "uint32",
          "name": "",
          "type": "uint32"
        }
      ],
      "stateMutability": "view",
      "type": "function"
    },
    {
      "inputs": [
        {
          "components": [
            {
              "internalType": "uint64",
              "name": "id",
              "type": "uint64"
            },
            {
              "internalType": "enum InspectionStatus",
              "name": "status",
              "type": "uint8"
            },
            {
              "internalType": "address",
              "name": "regenerator",
              "type": "address"
            },
            {
              "internalType": "address",
              "name": "inspector",
              "type": "address"
            },
            {
              "internalType": "uint32",
              "name": "treesResult",
              "type": "uint32"
            },
            {
              "internalType": "uint32",
              "name": "biodiversityResult",
              "type": "uint32"
            },
            {
              "internalType": "uint32",
              "name": "regenerationScore",
              "type": "uint32"
            },
            {
              "internalType": "string",
              "name": "proofPhotos",
              "type": "string"
            },
            {
              "internalType": "string",
              "name": "justificationReport",
              "type": "string"
            },
            {
              "internalType": "uint256",
              "name": "validationsCount",
              "type": "uint256"
            },
            {
              "internalType": "uint256",
              "name": "createdAt",
              "type": "uint256"
            },
            {
              "internalType": "uint256",
              "name": "acceptedAt",
              "type": "uint256"
            },
            {
              "internalType": "uint256",
              "name": "inspectedAt",
              "type": "uint256"
            },
            {
              "internalType": "uint256",
              "name": "inspectedAtEra",
              "type": "uint256"
            },
            {
              "internalType": "uint256",
              "name": "invalidatedAt",
              "type": "uint256"
            }
          ],
          "internalType": "struct Inspection",
          "name": "inspection",
          "type": "tuple"
        }
      ],
      "name": "acceptInspectionDelayBlocksPassed",
      "outputs": [
        {
          "internalType": "bool",
          "name": "",
          "type": "bool"
        }
      ],
      "stateMutability": "view",
      "type": "function"
    },
    {
      "inputs": [
        {
          "internalType": "uint64",
          "name": "id",
          "type": "uint64"
        },
        {
          "internalType": "string",
          "name": "justification",
          "type": "string"
        }
      ],
      "name": "addInspectionValidation",
      "outputs": [],
      "stateMutability": "nonpayable",
      "type": "function"
    },
    {
      "inputs": [],
      "name": "allowedInitialRequests",
      "outputs": [
        {
          "internalType": "uint8",
          "name": "",
          "type": "uint8"
        }
      ],
      "stateMutability": "view",
      "type": "function"
    },
    {
      "inputs": [],
      "name": "alreadyHaveInspectionAccepted",
      "outputs": [
        {
          "internalType": "bool",
          "name": "",
          "type": "bool"
        }
      ],
      "stateMutability": "view",
      "type": "function"
    },
    {
      "inputs": [],
      "name": "blocksToExpireAcceptedInspection",
      "outputs": [
        {
          "internalType": "uint32",
          "name": "",
          "type": "uint32"
        }
      ],
      "stateMutability": "view",
      "type": "function"
    },
    {
      "inputs": [
        {
          "internalType": "uint64",
          "name": "inspectionId",
          "type": "uint64"
        }
      ],
      "name": "calculateBlocksToExpire",
      "outputs": [
        {
          "internalType": "uint256",
          "name": "",
          "type": "uint256"
        }
      ],
      "stateMutability": "view",
      "type": "function"
    },
    {
      "inputs": [
        {
          "internalType": "uint64",
          "name": "id",
          "type": "uint64"
        }
      ],
      "name": "getInspection",
      "outputs": [
        {
          "components": [
            {
              "internalType": "uint64",
              "name": "id",
              "type": "uint64"
            },
            {
              "internalType": "enum InspectionStatus",
              "name": "status",
              "type": "uint8"
            },
            {
              "internalType": "address",
              "name": "regenerator",
              "type": "address"
            },
            {
              "internalType": "address",
              "name": "inspector",
              "type": "address"
            },
            {
              "internalType": "uint32",
              "name": "treesResult",
              "type": "uint32"
            },
            {
              "internalType": "uint32",
              "name": "biodiversityResult",
              "type": "uint32"
            },
            {
              "internalType": "uint32",
              "name": "regenerationScore",
              "type": "uint32"
            },
            {
              "internalType": "string",
              "name": "proofPhotos",
              "type": "string"
            },
            {
              "internalType": "string",
              "name": "justificationReport",
              "type": "string"
            },
            {
              "internalType": "uint256",
              "name": "validationsCount",
              "type": "uint256"
            },
            {
              "internalType": "uint256",
              "name": "createdAt",
              "type": "uint256"
            },
            {
              "internalType": "uint256",
              "name": "acceptedAt",
              "type": "uint256"
            },
            {
              "internalType": "uint256",
              "name": "inspectedAt",
              "type": "uint256"
            },
            {
              "internalType": "uint256",
              "name": "inspectedAtEra",
              "type": "uint256"
            },
            {
              "internalType": "uint256",
              "name": "invalidatedAt",
              "type": "uint256"
            }
          ],
          "internalType": "struct Inspection",
          "name": "",
          "type": "tuple"
        }
      ],
      "stateMutability": "view",
      "type": "function"
    },
    {
      "inputs": [
        {
          "internalType": "address",
          "name": "addr",
          "type": "address"
        }
      ],
      "name": "getInspectionsHistory",
      "outputs": [
        {
          "internalType": "uint64[]",
          "name": "",
          "type": "uint64[]"
        }
      ],
      "stateMutability": "view",
      "type": "function"
    },
    {
      "inputs": [],
      "name": "inspectionsBiodiversityImpact",
      "outputs": [
        {
          "internalType": "uint256",
          "name": "",
          "type": "uint256"
        }
      ],
      "stateMutability": "view",
      "type": "function"
    },
    {
      "inputs": [],
      "name": "inspectionsCount",
      "outputs": [
        {
          "internalType": "uint64",
          "name": "",
          "type": "uint64"
        }
      ],
      "stateMutability": "view",
      "type": "function"
    },
    {
      "inputs": [],
      "name": "inspectionsTotalCount",
      "outputs": [
        {
          "internalType": "uint64",
          "name": "",
          "type": "uint64"
        }
      ],
      "stateMutability": "view",
      "type": "function"
    },
    {
      "inputs": [],
      "name": "inspectionsTreesImpact",
      "outputs": [
        {
          "internalType": "uint256",
          "name": "",
          "type": "uint256"
        }
      ],
      "stateMutability": "view",
      "type": "function"
    },
    {
      "inputs": [],
      "name": "owner",
      "outputs": [
        {
          "internalType": "address",
          "name": "",
          "type": "address"
        }
      ],
      "stateMutability": "view",
      "type": "function"
    },
    {
      "inputs": [
        {
          "internalType": "uint64",
          "name": "inspectionId",
          "type": "uint64"
        },
        {
          "internalType": "string",
          "name": "proofPhotos",
          "type": "string"
        },
        {
          "internalType": "string",
          "name": "justificationReport",
          "type": "string"
        },
        {
          "internalType": "uint32",
          "name": "treesResult",
          "type": "uint32"
        },
        {
          "internalType": "uint32",
          "name": "biodiversityResult",
          "type": "uint32"
        }
      ],
      "name": "realizeInspection",
      "outputs": [],
      "stateMutability": "nonpayable",
      "type": "function"
    },
    {
      "inputs": [],
      "name": "realizedInspectionsCount",
      "outputs": [
        {
          "internalType": "uint64",
          "name": "",
          "type": "uint64"
        }
      ],
      "stateMutability": "view",
      "type": "function"
    },
    {
      "inputs": [],
      "name": "renounceOwnership",
      "outputs": [],
      "stateMutability": "nonpayable",
      "type": "function"
    },
    {
      "inputs": [],
      "name": "requestInspection",
      "outputs": [],
      "stateMutability": "nonpayable",
      "type": "function"
    },
    {
      "inputs": [],
      "name": "securityBlocksToValidation",
      "outputs": [
        {
          "internalType": "uint32",
          "name": "",
          "type": "uint32"
        }
      ],
      "stateMutability": "view",
      "type": "function"
    },
    {
      "inputs": [
        {
          "components": [
            {
              "internalType": "address",
              "name": "communityRulesAddress",
              "type": "address"
            },
            {
              "internalType": "address",
              "name": "regeneratorRulesAddress",
              "type": "address"
            },
            {
              "internalType": "address",
              "name": "validationRulesAddress",
              "type": "address"
            },
            {
              "internalType": "address",
              "name": "inspectorRulesAddress",
              "type": "address"
            },
            {
              "internalType": "address",
              "name": "regenerationIndexRulesAddress",
              "type": "address"
            },
            {
              "internalType": "address",
              "name": "activistRulesAddress",
              "type": "address"
            },
            {
              "internalType": "address",
              "name": "voteRulesAddress",
              "type": "address"
            }
          ],
          "internalType": "struct ContractsDependency",
          "name": "contractDependency",
          "type": "tuple"
        }
      ],
      "name": "setContractInterfaces",
      "outputs": [],
      "stateMutability": "nonpayable",
      "type": "function"
    },
    {
      "inputs": [],
      "name": "timeBetweenInspections",
      "outputs": [
        {
          "internalType": "uint32",
          "name": "",
          "type": "uint32"
        }
      ],
      "stateMutability": "view",
      "type": "function"
    },
    {
      "inputs": [
        {
          "internalType": "address",
          "name": "newOwner",
          "type": "address"
        }
      ],
      "name": "transferOwnership",
      "outputs": [],
      "stateMutability": "nonpayable",
      "type": "function"
    },
    {
      "inputs": [
        {
          "components": [
            {
              "internalType": "uint64",
              "name": "id",
              "type": "uint64"
            },
            {
              "internalType": "address",
              "name": "regeneratorWallet",
              "type": "address"
            },
            {
              "internalType": "string",
              "name": "name",
              "type": "string"
            },
            {
              "internalType": "string",
              "name": "proofPhoto",
              "type": "string"
            },
            {
              "internalType": "uint32",
              "name": "totalArea",
              "type": "uint32"
            },
            {
              "internalType": "bool",
              "name": "pendingInspection",
              "type": "bool"
            },
            {
              "internalType": "uint256",
              "name": "totalInspections",
              "type": "uint256"
            },
            {
              "internalType": "uint256",
              "name": "lastRequestAt",
              "type": "uint256"
            },
            {
              "components": [
                {
                  "internalType": "uint256",
                  "name": "score",
                  "type": "uint256"
                }
              ],
              "internalType": "struct RegenerationScore",
              "name": "regenerationScore",
              "type": "tuple"
            },
            {
              "components": [
                {
                  "internalType": "bool",
                  "name": "onContractPool",
                  "type": "bool"
                },
                {
                  "internalType": "uint256",
                  "name": "currentEra",
                  "type": "uint256"
                }
              ],
              "internalType": "struct Pool",
              "name": "pool",
              "type": "tuple"
            },
            {
              "internalType": "uint256",
              "name": "createdAt",
              "type": "uint256"
            },
            {
              "internalType": "uint256",
              "name": "coordinatesCount",
              "type": "uint256"
            },
            {
              "internalType": "bool",
              "name": "isFullyInvalidated",
              "type": "bool"
            }
          ],
          "internalType": "struct Regenerator",
          "name": "regenerator",
          "type": "tuple"
        }
      ],
      "name": "waitToRequest",
      "outputs": [
        {
          "internalType": "bool",
          "name": "",
          "type": "bool"
        }
      ],
      "stateMutability": "view",
      "type": "function"
    }
  ],
  "bytecode": "0x61012060405234801561001157600080fd5b50604051614475380380614475833981016040819052610030916100f5565b338061005657604051631e4fbdf760e01b81526000600482015260240160405180910390fd5b61005f8161008c565b506001805563ffffffff94851660a05292841660c05260ff909116608052821660e0521661010052610162565b600080546001600160a01b038381166001600160a01b0319831681178455604051919092169283917f8be0079c531659141344cd1fd0a4f28419497f9722a3daafe3b4186f6b6457e09190a35050565b805163ffffffff811681146100f057600080fd5b919050565b600080600080600060a0868803121561010d57600080fd5b610116866100dc565b9450610124602087016100dc565b9350604086015160ff8116811461013a57600080fd5b9250610148606087016100dc565b9150610156608087016100dc565b90509295509295909350565b60805160a05160c05160e051610100516142906101e56000396000818161021b015261276b0152600081816103be0152610849015260008181610397015281816104580152818161072f01528181611dc2015281816126c10152612792015260008181610257015261080901526000818161036701526107d201526142906000f3fe608060405234801561001057600080fd5b506004361061018e5760003560e01c80637b798468116100de578063a2b570a411610097578063e734b81311610071578063e734b813146103e0578063ed8f9321146103f3578063ee05057f146103fc578063f2fde38b1461041c57600080fd5b8063a2b570a414610389578063e42c955114610392578063e710483d146103b957600080fd5b80637b7984681461030357806386297de91461032357806386ae2fb1146103365780638da5cb5b1461033e57806392f265d7146103595780639df79c921461036257600080fd5b80633eef1a2a1161014b57806361a7581b1161012557806361a7581b146102b95780636b2edc16146102ce5780636ec08376146102e8578063715018a6146102fb57600080fd5b80633eef1a2a146102795780634d3fbe611461028c5780635401c1f2146102a657600080fd5b80630cda2cce1461019357806316d2bd34146101b9578063180d7944146101eb578063216e13491461020357806335c11677146102165780633dbf1e8f14610252575b600080fd5b6101a66101a136600461323f565b61042f565b6040519081526020015b60405180910390f35b6002546101d390600160401b90046001600160401b031681565b6040516001600160401b0390911681526020016101b0565b6101f361048e565b60405190151581526020016101b0565b6101f36102113660046134b0565b6107ce565b61023d7f000000000000000000000000000000000000000000000000000000000000000081565b60405163ffffffff90911681526020016101b0565b61023d7f000000000000000000000000000000000000000000000000000000000000000081565b6101f3610287366004613604565b610845565b610294600c81565b60405160ff90911681526020016101b0565b6002546101d3906001600160401b031681565b6102cc6102c736600461375c565b61087e565b005b6002546101d390600160801b90046001600160401b031681565b6102cc6102f63660046137f8565b61091f565b6102cc610e89565b610316610311366004613847565b610e9d565b6040516101b09190613864565b6102cc61033136600461323f565b610f3b565b6102cc61178c565b6000546040516001600160a01b0390911681526020016101b0565b61023d61012c81565b6102947f000000000000000000000000000000000000000000000000000000000000000081565b6101a660045481565b61023d7f000000000000000000000000000000000000000000000000000000000000000081565b61023d7f000000000000000000000000000000000000000000000000000000000000000081565b6102cc6103ee3660046138b0565b6119b0565b6101a660035481565b61040f61040a36600461323f565b6120ef565b6040516101b091906139cb565b6102cc61042a366004613847565b6123b0565b6001600160401b038116600090815260056020526040812060060154439061047e9063ffffffff7f00000000000000000000000000000000000000000000000000000000000000001690613b00565b6104889190613b13565b92915050565b60085460405163e8f7dfcf60e01b815233600482015260009182916001600160a01b039091169063e8f7dfcf90602401600060405180830381865afa1580156104db573d6000803e3d6000fd5b505050506040513d6000823e601f3d908101601f191682016040526105039190810190613bba565b6101008101516001600160401b03908116600090815260056020908152604080832081516101e08101909252805494851682529495509193919290830190600160401b900460ff16600381111561055c5761055c613951565b600381111561056d5761056d613951565b815281546001600160a01b03600160481b909104811660208301526001830154908116604083015263ffffffff600160a01b820481166060840152600160c01b820481166080840152600160e01b9091041660a082015260028201805460c0909201916105d990613cd3565b80601f016020809104026020016040519081016040528092919081815260200182805461060590613cd3565b80156106525780601f1061062757610100808354040283529160200191610652565b820191906000526020600020905b81548152906001019060200180831161063557829003601f168201915b5050505050815260200160038201805461066b90613cd3565b80601f016020809104026020016040519081016040528092919081815260200182805461069790613cd3565b80156106e45780601f106106b9576101008083540402835291602001916106e4565b820191906000526020600020905b8154815290600101906020018083116106c757829003601f168201915b505050505081526020016004820154815260200160058201548152602001600682015481526020016007820154815260200160088201548152602001600982015481525050905060007f000000000000000000000000000000000000000000000000000000000000000063ffffffff168261016001516107649190613b00565b43119050600060028360200151600381111561078257610782613951565b14806107a357506003836020015160038111156107a1576107a1613951565b145b905080806107ae5750815b806107c557506101008401516001600160401b0316155b94505050505090565b60007f000000000000000000000000000000000000000000000000000000000000000060ff168260c00151101561080757506001919050565b7f000000000000000000000000000000000000000000000000000000000000000063ffffffff168260e0015161083d9190613b00565b431192915050565b60007f000000000000000000000000000000000000000000000000000000000000000063ffffffff1682610140015161083d9190613b00565b6108866123eb565b8051600a80546001600160a01b03199081166001600160a01b039384161790915560208301516009805483169184169190911790556040830151600b8054831691841691909117905560608301516008805483169184169190911790556080830151600e8054831691841691909117905560a0830151600c8054831691841691909117905560c090920151600d80549093169116179055565b610927612418565b805161012c10156109785760405162461bcd60e51b815260206004820152601660248201527513585e0818da185c9858dd195c9cc81c995858da195960521b60448201526064015b60405180910390fd5b600d546040516356fd539760e11b81523360048201526001600160a01b039091169063adfaa72e90602401602060405180830381865afa1580156109c0573d6000803e3d6000fd5b505050506040513d601f19601f820116820180604052508101906109e49190613d18565b610a1e5760405162461bcd60e51b815260206004820152600b60248201526a2737ba1030903b37ba32b960a91b604482015260640161096f565b600b54604051630d84466b60e21b81523360048201526001600160a01b039091169063361119ac90602401602060405180830381865afa158015610a66573d6000803e3d6000fd5b505050506040513d601f19601f82011682018060405250810190610a8a9190613d18565b610ace5760405162461bcd60e51b8152602060048201526015602482015274576169742074696d654265747765656e566f74657360581b604482015260640161096f565b6001600160401b0382166000908152600f6020908152604080832033845290915290205460ff1615610b325760405162461bcd60e51b815260206004820152600d60248201526c105b1c9958591e481d9bdd1959609a1b604482015260640161096f565b6001600160401b0382166000818152600f602090815260408083203384528252808320805460ff1916600117905592825260058152908290206008810154600954845163e05cf15560e01b81529451929491936001600160a01b03919091169263e05cf1559260048082019392918290030181865afa158015610bb9573d6000803e3d6000fd5b505050506040513d601f19601f82011682018060405250810190610bdd9190613d35565b14610c235760405162461bcd60e51b815260206004820152601660248201527543616e27742076616c696461646520616e796d6f726560501b604482015260640161096f565b805460016001600160401b0390911610801590610c57575060025481546001600160401b03600160801b9092048216911611155b610ca35760405162461bcd60e51b815260206004820152601960248201527f496e7370656374696f6e20646f6573206e6f7420657869737400000000000000604482015260640161096f565b60028154600160401b900460ff166003811115610cc257610cc2613951565b14610d0f5760405162461bcd60e51b815260206004820152601d60248201527f4f6e6c7920746f20696e7370656374656420696e7370656374696f6e73000000604482015260640161096f565b6001816004016000828254610d249190613b00565b9091555050600b54604080516369bf81c360e01b815290516000926001600160a01b0316916369bf81c39160048083019260209291908290030181865afa158015610d73573d6000803e3d6000fd5b505050506040513d601f19601f82011682018060405250810190610d979190613d35565b905060018111610dfc5760405162461bcd60e51b815260206004820152602a60248201527f56616c69646174696f6e207468726573686f6c642063616e6e6f74206265206c60448201526932b9b9903a3430b7101960b11b606482015260840161096f565b60048201548111801590610e1357610e1383612442565b600b5460405163f73535c960e01b81526001600160a01b039091169063f73535c990610e4790869088903390600401613dd1565b600060405180830381600087803b158015610e6157600080fd5b505af1158015610e75573d6000803e3d6000fd5b50505050505050610e8560018055565b5050565b610e916123eb565b610e9b600061266d565b565b6001600160a01b038116600090815260066020908152604091829020805483518184028101840190945280845260609392830182828015610f2f57602002820191906000526020600020906000905b82829054906101000a90046001600160401b03166001600160401b031681526020019060080190602082600701049283019260010382029150808411610eec5790505b50505050509050919050565b610f43612418565b600a54604051631292f8c160e31b81526001600160a01b0390911690639497c60890610f76906002903390600401613f01565b602060405180830381865afa158015610f93573d6000803e3d6000fd5b505050506040513d601f19601f82011682018060405250810190610fb79190613d18565b610ff55760405162461bcd60e51b815260206004820152600f60248201526e4f6e6c7920696e73706563746f727360881b604482015260640161096f565b600854604051634d5ff1d360e01b81523360048201526001600160a01b0390911690634d5ff1d390602401602060405180830381865afa15801561103d573d6000803e3d6000fd5b505050506040513d601f19601f820116820180604052508101906110619190613d18565b6110a65760405162461bcd60e51b815260206004820152601660248201527513db9b1e480cc819da5d99555c1cc8185b1b1bddd95960521b604482015260640161096f565b6001600160401b038082166000908152600560205260409020805490916001911610156111155760405162461bcd60e51b815260206004820152601760248201527f496e7370656374696f6e20646f206e6f74206578697374000000000000000000604482015260640161096f565b61111d61048e565b61115c5760405162461bcd60e51b815260206004820152601060248201526f105b1c9958591e481858d8d95c1d195960821b604482015260640161096f565b3360009081526007602090815260408083208454600160481b90046001600160a01b0316845290915290205460ff16156111cc5760405162461bcd60e51b8152602060048201526011602482015270105b1c9958591e481a5b9cdc1958dd1959607a1b604482015260640161096f565b60008154600160401b900460ff1660038111156111eb576111eb613951565b146112385760405162461bcd60e51b815260206004820152601760248201527f496e7370656374696f6e206d757374206265204f50454e000000000000000000604482015260640161096f565b604080516101e0810190915281546001600160401b038116825261144b919083906020830190600160401b900460ff16600381111561127957611279613951565b600381111561128a5761128a613951565b815281546001600160a01b03600160481b909104811660208301526001830154908116604083015263ffffffff600160a01b820481166060840152600160c01b820481166080840152600160e01b9091041660a082015260028201805460c0909201916112f690613cd3565b80601f016020809104026020016040519081016040528092919081815260200182805461132290613cd3565b801561136f5780601f106113445761010080835404028352916020019161136f565b820191906000526020600020905b81548152906001019060200180831161135257829003601f168201915b5050505050815260200160038201805461138890613cd3565b80601f01602080910402602001604051908101604052809291908181526020018280546113b490613cd3565b80156114015780601f106113d657610100808354040283529160200191611401565b820191906000526020600020905b8154815290600101906020018083116113e457829003601f168201915b505050505081526020016004820154815260200160058201548152602001600682015481526020016007820154815260200160088201548152602001600982015481525050610845565b61148b5760405162461bcd60e51b8152602060048201526011602482015270576169742064656c617920626c6f636b7360781b604482015260640161096f565b6114936126bd565b6114d55760405162461bcd60e51b81526020600482015260136024820152725761697420756e74696c206e6578742065726160681b604482015260640161096f565b600854604051631feeefc760e21b81523360048201526001600160a01b0390911690637fbbbf1c90602401602060405180830381865afa15801561151d573d6000803e3d6000fd5b505050506040513d601f19601f820116820180604052508101906115419190613d18565b61157e5760405162461bcd60e51b815260206004820152600e60248201526d15d85a5d081d1bc81858d8d95c1d60921b604482015260640161096f565b600a548154604051631292f8c160e31b81526001600160a01b0392831692639497c608926115bd92600192600160481b90920490911690600401613f01565b602060405180830381865afa1580156115da573d6000803e3d6000fd5b505050506040513d601f19601f820116820180604052508101906115fe9190613d18565b6116405760405162461bcd60e51b8152602060048201526013602482015272149959d95b995c985d1bdc881a5b9d985b1a59606a1b604482015260640161096f565b8054600160401b60ff60401b19909116178082554360068301556001820180546001600160a01b0319163317905560095460405163076d908160e21b81526001600160a01b03600160481b90930483166004820152911690631db6420490602401600060405180830381600087803b1580156116bb57600080fd5b505af11580156116cf573d6000803e3d6000fd5b50506008546040516396cd035760e01b81523360048201526001600160401b03861660248201526001600160a01b0390911692506396cd03579150604401600060405180830381600087803b15801561172757600080fd5b505af115801561173b573d6000803e3d6000fd5b50506040514381523392506001600160401b03851691507ff9556ba762f15e7f3671b8f33a1f662df1a146fa3ec77a706435e6e4572ab8d19060200160405180910390a35061178960018055565b50565b611794612418565b60095460405163065ab21b60e41b81523360048201526000916001600160a01b0316906365ab21b090602401600060405180830381865afa1580156117dd573d6000803e3d6000fd5b505050506040513d6000823e601f3d908101601f191682016040526118059190810190613f97565b600a54604051631292f8c160e31b81529192506001600160a01b031690639497c60890611839906001903390600401613f01565b602060405180830381865afa158015611856573d6000803e3d6000fd5b505050506040513d601f19601f8201168201806040525081019061187a9190613d18565b6118ba5760405162461bcd60e51b81526020600482015260116024820152704f6e6c7920726567656e657261746f727360781b604482015260640161096f565b8060a00151156118fb5760405162461bcd60e51b815260206004820152600c60248201526b2932b8bab2b9ba1027a822a760a11b604482015260640161096f565b611904816107ce565b6119425760405162461bcd60e51b815260206004820152600f60248201526e15d85a5d081d1bc81c995c5d595cdd608a1b604482015260640161096f565b60c0810151600c116119965760405162461bcd60e51b815260206004820152601f60248201527f596f75206861766520636f6d706c6574656420796f7572206d697373696f6e00604482015260640161096f565b61199e61283e565b6119a6612cd1565b50610e9b60018055565b6119b8612418565b8351609610156119f75760405162461bcd60e51b815260206004820152600a60248201526909ac2f040d8cadccee8d60b31b604482015260640161096f565b82516103e81015611a375760405162461bcd60e51b815260206004820152600a60248201526909ac2f040d8cadccee8d60b31b604482015260640161096f565b6001600160401b03858116600090815260056020908152604080832081516101e08101909252805494851682529293909291830190600160401b900460ff166003811115611a8757611a87613951565b6003811115611a9857611a98613951565b815281546001600160a01b03600160481b909104811660208301526001830154908116604083015263ffffffff600160a01b820481166060840152600160c01b820481166080840152600160e01b9091041660a082015260028201805460c090920191611b0490613cd3565b80601f0160208091040260200160405190810160405280929190818152602001828054611b3090613cd3565b8015611b7d5780601f10611b5257610100808354040283529160200191611b7d565b820191906000526020600020905b815481529060010190602001808311611b6057829003601f168201915b50505050508152602001600382018054611b9690613cd3565b80601f0160208091040260200160405190810160405280929190818152602001828054611bc290613cd3565b8015611c0f5780601f10611be457610100808354040283529160200191611c0f565b820191906000526020600020905b815481529060010190602001808311611bf257829003601f168201915b5050505050815260200160048201548152602001600582015481526020016006820154815260200160078201548152602001600882015481526020016009820154815250509050600a60009054906101000a90046001600160a01b03166001600160a01b0316639497c6086002336040518363ffffffff1660e01b8152600401611c9a929190613f01565b602060405180830381865afa158015611cb7573d6000803e3d6000fd5b505050506040513d601f19601f82011682018060405250810190611cdb9190613d18565b611d195760405162461bcd60e51b815260206004820152600f60248201526e4f6e6c7920696e73706563746f727360881b604482015260640161096f565b600181602001516003811115611d3157611d31613951565b14611d6e5760405162461bcd60e51b815260206004820152600d60248201526c416363657074206265666f726560981b604482015260640161096f565b60608101516001600160a01b03163314611dc05760405162461bcd60e51b81526020600482015260136024820152722737ba103cb7bab91034b739b832b1ba34b7b760691b604482015260640161096f565b7f000000000000000000000000000000000000000000000000000000000000000063ffffffff16816101600151611df79190613b00565b431115611e3b5760405162461bcd60e51b8152602060048201526012602482015271125b9cdc1958dd1a5bdb88115e1c1a5c995960721b604482015260640161096f565b600954604082810151905163065ab21b60e41b81526001600160a01b03918216600482015260009291909116906365ab21b090602401600060405180830381865afa158015611e8e573d6000803e3d6000fd5b505050506040513d6000823e601f3d908101601f19168201604052611eb69190810190613f97565b90506000600460ff16826080015163ffffffff16611ed491906140ce565b9050808563ffffffff161115611f435760405162461bcd60e51b815260206004820152602e60248201527f5472656520636f756e7420657863656564732064656e73697479206c696d697460448201526d20666f722074686973206172656160901b606482015260840161096f565b61012c63ffffffff85161115611f8e5760405162461bcd60e51b815260206004820152601060248201526f13585e081c995cdd5b1d081b1a5b5a5d60821b604482015260640161096f565b611f9b8388888888612d30565b611fa483612fd4565b8463ffffffff1660036000828254611fbc9190613b00565b925050819055508363ffffffff1660046000828254611fdb9190613b00565b9091555050336000908152600760209081526040808320868201516001600160a01b031684529091529020805460ff19166001179055600280546001600160401b03600160401b90910416906008612032836140e5565b91906101000a8154816001600160401b0302191690836001600160401b031602179055505082604001516001600160a01b0316336001600160a01b0316896001600160401b03167f2224ef9c9aa3c3be082984f4341bc9e478345a0cdd809d940f034880dfeef86488888860c00151436040516120d4949392919063ffffffff9485168152928416602084015292166040820152606081019190915260800190565b60405180910390a45050506120e860018055565b5050505050565b61218d604080516101e0810190915260008082526020820190815260200160006001600160a01b0316815260200160006001600160a01b03168152602001600063ffffffff168152602001600063ffffffff168152602001600063ffffffff16815260200160608152602001606081526020016000815260200160008152602001600081526020016000815260200160008152602001600081525090565b6001600160401b0382811660009081526005602090815260409182902082516101e0810190935280549384168352919290830190600160401b900460ff1660038111156121dc576121dc613951565b60038111156121ed576121ed613951565b815281546001600160a01b03600160481b909104811660208301526001830154908116604083015263ffffffff600160a01b820481166060840152600160c01b820481166080840152600160e01b9091041660a082015260028201805460c09092019161225990613cd3565b80601f016020809104026020016040519081016040528092919081815260200182805461228590613cd3565b80156122d25780601f106122a7576101008083540402835291602001916122d2565b820191906000526020600020905b8154815290600101906020018083116122b557829003601f168201915b505050505081526020016003820180546122eb90613cd3565b80601f016020809104026020016040519081016040528092919081815260200182805461231790613cd3565b80156123645780601f1061233957610100808354040283529160200191612364565b820191906000526020600020905b81548152906001019060200180831161234757829003601f168201915b5050505050815260200160048201548152602001600582015481526020016006820154815260200160078201548152602001600882015481526020016009820154815250509050919050565b6123b86123eb565b6001600160a01b0381166123e257604051631e4fbdf760e01b81526000600482015260240161096f565b6117898161266d565b6000546001600160a01b03163314610e9b5760405163118cdaa760e01b815233600482015260240161096f565b60026001540361243b57604051633ee5aeb560e01b815260040160405180910390fd5b6002600155565b8060010160149054906101000a900463ffffffff1663ffffffff166003600082825461246e9190613b13565b9091555050600181015460048054600160c01b90920463ffffffff1691600090612499908490613b13565b9091555050600280546001600160401b03169060006124b783614110565b91906101000a8154816001600160401b0302191690836001600160401b03160217905550506002600881819054906101000a90046001600160401b03168092919061250190614110565b82546101009290920a6001600160401b038181021990931691909216919091021790555080546803000000000000000060ff60401b199091161780825543600980840191909155546040516361e4c1e960e11b81526001600160a01b03600160481b9093048316600482015291169063c3c983d290602401600060405180830381600087803b15801561259357600080fd5b505af11580156125a7573d6000803e3d6000fd5b505060085460018401546040516361e4c1e960e11b81526001600160a01b0391821660048201529116925063c3c983d29150602401600060405180830381600087803b1580156125f657600080fd5b505af115801561260a573d6000803e3d6000fd5b5050825460018401546040514381526001600160a01b03600160481b84048116955090911692506001600160401b03909116907f5030472abe84127f1f2b92ab27763256a3d275c0c827c8cffa506c99cd1ed1049060200160405180910390a450565b600080546001600160a01b038381166001600160a01b0319831681178455604051919092169283917f8be0079c531659141344cd1fd0a4f28419497f9722a3daafe3b4186f6b6457e09190a35050565b60007f000000000000000000000000000000000000000000000000000000000000000063ffffffff16600960009054906101000a90046001600160a01b03166001600160a01b031663582256f16040518163ffffffff1660e01b8152600401602060405180830381865afa158015612739573d6000803e3d6000fd5b505050506040513d601f19601f8201168201806040525081019061275d9190613d35565b10156127695750600090565b7f000000000000000000000000000000000000000000000000000000000000000063ffffffff167f000000000000000000000000000000000000000000000000000000000000000063ffffffff16600960009054906101000a90046001600160a01b03166001600160a01b031663582256f16040518163ffffffff1660e01b8152600401602060405180830381865afa15801561280a573d6000803e3d6000fd5b505050506040513d601f19601f8201168201806040525081019061282e9190613d35565b6128389190613b13565b11905090565b60028054600160801b90046001600160401b031690601061285e836140e5565b82546101009290920a6001600160401b03818102199093169183160217909155600254600160801b90048116600081815260056020908152604080832081516101e0810190925280549586168252939550919391929190830190600160401b900460ff1660038111156128d3576128d3613951565b60038111156128e4576128e4613951565b815281546001600160a01b03600160481b909104811660208301526001830154908116604083015263ffffffff600160a01b820481166060840152600160c01b820481166080840152600160e01b9091041660a082015260028201805460c09092019161295090613cd3565b80601f016020809104026020016040519081016040528092919081815260200182805461297c90613cd3565b80156129c95780601f1061299e576101008083540402835291602001916129c9565b820191906000526020600020905b8154815290600101906020018083116129ac57829003601f168201915b505050505081526020016003820180546129e290613cd3565b80601f0160208091040260200160405190810160405280929190818152602001828054612a0e90613cd3565b8015612a5b5780601f10612a3057610100808354040283529160200191612a5b565b820191906000526020600020905b815481529060010190602001808311612a3e57829003601f168201915b50505091835250506004820154602080830191909152600583015460408301526006830154606083015260078301546080830152600883015460a083015260099092015460c0909101526001600160401b0384168252909150600090820181905250336040808301919091526000606083018190524361014084015282516001600160401b039081168252600560209081529290912083518154921667ffffffffffffffff1983168117825592840151849391929091839168ffffffffffffffffff191617600160401b836003811115612b3757612b37613951565b021790555060408201518154600160481b600160e81b031916600160481b6001600160a01b03928316021782556060830151600183018054608086015160a087015160c0880151949095166001600160c01b031990921691909117600160a01b63ffffffff92831602176001600160c01b0316600160c01b948216949094026001600160e01b031693909317600160e01b939092169290920217905560e08201516002820190612be7908261417f565b506101008201516003820190612bfd908261417f565b5061012082015160048201556101408201516005820155610160820151600682015561018082015160078201556101a082015160088201556101c090910151600990910155600280546001600160401b0316906000612c5b836140e5565b91906101000a8154816001600160401b0302191690836001600160401b0316021790555050336001600160a01b0316826001600160401b03167f30053137f0cf60633be984694dd6295bb2027e571b975e37b0cedeefb92b375d43604051612cc591815260200190565b60405180910390a35050565b6009546040516394c3cee960e01b81523360048201526001600160a01b03909116906394c3cee990602401600060405180830381600087803b158015612d1657600080fd5b505af1158015612d2a573d6000803e3d6000fd5b50505050565b6002602086018190525063ffffffff8281166080870181905290821660a08701819052600e5460405163ac2d165360e01b8152600481019390935260248301919091526001600160a01b03169063ac2d165390604401602060405180830381865afa158015612da3573d6000803e3d6000fd5b505050506040513d601f19601f82011682018060405250810190612dc7919061423d565b63ffffffff1660c086015260e085018490526101008501839052436101808601526009546040805163e05cf15560e01b815290516001600160a01b039092169163e05cf155916004808201926020929091908290030181865afa158015612e32573d6000803e3d6000fd5b505050506040513d601f19601f82011682018060405250810190612e569190613d35565b6101a086015284516001600160401b03908116600090815260056020908152604090912087518154931667ffffffffffffffff1984168117825591880151889391929091839168ffffffffffffffffff1990911617600160401b836003811115612ec257612ec2613951565b021790555060408201518154600160481b600160e81b031916600160481b6001600160a01b03928316021782556060830151600183018054608086015160a087015160c0880151949095166001600160c01b031990921691909117600160a01b63ffffffff92831602176001600160c01b0316600160c01b948216949094026001600160e01b031693909317600160e01b939092169290920217905560e08201516002820190612f72908261417f565b506101008201516003820190612f88908261417f565b5061012082015160048201556101408201516005820155610160820151600682015561018082015160078201556101a082015160088201556101c0909101516009909101555050505050565b6040818101516060830151600c5460095460c086015186519551630f1698bb60e11b81526001600160a01b03808716600483015263ffffffff90921660248201526001600160401b039096166044870152939492939182169262b2c9209286921690631e2d3176906064016020604051808303816000875af115801561305e573d6000803e3d6000fd5b505050506040513d601f19601f820116820180604052508101906130829190613d35565b6040516001600160e01b031960e085901b1681526001600160a01b0390921660048301526024820152604401600060405180830381600087803b1580156130c857600080fd5b505af11580156130dc573d6000803e3d6000fd5b5050600c546008546040516350e7469d60e11b81526001600160a01b038681166004830152928316945063f1a204ce935085929091169063a1ce8d3a906024016020604051808303816000875af115801561313b573d6000803e3d6000fd5b505050506040513d601f19601f8201168201806040525081019061315f9190613d35565b6040516001600160e01b031960e085901b1681526001600160a01b0390921660048301526024820152604401600060405180830381600087803b1580156131a557600080fd5b505af11580156131b9573d6000803e3d6000fd5b5050506001600160a01b0390921660009081526006602090815260408220945185546001810187559583529120600485040180546001600160401b0392831660086003909716969096026101000a9586029290950219909416179092555050565b6001600160401b038116811461178957600080fd5b803561323a8161321a565b919050565b60006020828403121561325157600080fd5b813561325c8161321a565b9392505050565b634e487b7160e01b600052604160045260246000fd5b604051602081016001600160401b038111828210171561329b5761329b613263565b60405290565b604080519081016001600160401b038111828210171561329b5761329b613263565b6040516101a081016001600160401b038111828210171561329b5761329b613263565b6040516101e081016001600160401b038111828210171561329b5761329b613263565b60405160e081016001600160401b038111828210171561329b5761329b613263565b60405161016081016001600160401b038111828210171561329b5761329b613263565b604051601f8201601f191681016001600160401b038111828210171561337657613376613263565b604052919050565b6001600160a01b038116811461178957600080fd5b803561323a8161337e565b60006001600160401b038211156133b7576133b7613263565b50601f01601f191660200190565b600082601f8301126133d657600080fd5b81356133e96133e48261339e565b61334e565b8181528460208386010111156133fe57600080fd5b816020850160208301376000918101602001919091529392505050565b63ffffffff8116811461178957600080fd5b803561323a8161341b565b801515811461178957600080fd5b803561323a81613438565b60006020828403121561346357600080fd5b61346b613279565b9135825250919050565b60006040828403121561348757600080fd5b61348f6132a1565b9050813561349c81613438565b815260209182013591810191909152919050565b6000602082840312156134c257600080fd5b81356001600160401b038111156134d857600080fd5b82016101c081850312156134eb57600080fd5b6134f36132c3565b6134fc8261322f565b815261350a60208301613393565b602082015260408201356001600160401b0381111561352857600080fd5b613534868285016133c5565b60408301525060608201356001600160401b0381111561355357600080fd5b61355f868285016133c5565b6060830152506135716080830161342d565b608082015261358260a08301613446565b60a082015260c0828101359082015260e080830135908201526135a9856101008401613451565b6101008201526135bd856101208401613475565b61012082015261016082810135610140830152610180830135908201526135e76101a08301613446565b610180820152949350505050565b80356004811061323a57600080fd5b60006020828403121561361657600080fd5b81356001600160401b0381111561362c57600080fd5b82016101e0818503121561363f57600080fd5b6136476132e6565b6136508261322f565b815261365e602083016135f5565b602082015261366f60408301613393565b604082015261368060608301613393565b60608201526136916080830161342d565b60808201526136a260a0830161342d565b60a08201526136b360c0830161342d565b60c082015260e08201356001600160401b038111156136d157600080fd5b6136dd868285016133c5565b60e0830152506101008201356001600160401b038111156136fd57600080fd5b613709868285016133c5565b6101008301525061012082810135908201526101408083013590820152610160808301359082015261018080830135908201526101a080830135908201526101c091820135918101919091529392505050565b600060e082840312801561376f57600080fd5b50613778613309565b82356137838161337e565b815260208301356137938161337e565b602082015260408301356137a68161337e565b604082015260608301356137b98161337e565b60608201526137ca60808401613393565b60808201526137db60a08401613393565b60a08201526137ec60c08401613393565b60c08201529392505050565b6000806040838503121561380b57600080fd5b82356138168161321a565b915060208301356001600160401b0381111561383157600080fd5b61383d858286016133c5565b9150509250929050565b60006020828403121561385957600080fd5b813561325c8161337e565b602080825282518282018190526000918401906040840190835b818110156138a55783516001600160401b031683526020938401939092019160010161387e565b509095945050505050565b600080600080600060a086880312156138c857600080fd5b85356138d38161321a565b945060208601356001600160401b038111156138ee57600080fd5b6138fa888289016133c5565b94505060408601356001600160401b0381111561391657600080fd5b613922888289016133c5565b93505060608601356139338161341b565b915060808601356139438161341b565b809150509295509295909350565b634e487b7160e01b600052602160045260246000fd5b6004811061397757613977613951565b9052565b60005b8381101561399657818101518382015260200161397e565b50506000910152565b600081518084526139b781602086016020860161397b565b601f01601f19169290920160200192915050565b602081526139e56020820183516001600160401b03169052565b600060208301516139f96040840182613967565b5060408301516001600160a01b03811660608401525060608301516001600160a01b038116608084015250608083015163ffffffff811660a08401525060a083015163ffffffff811660c08401525060c083015163ffffffff811660e08401525060e08301516101e0610100840152613a7661020084018261399f565b9050610100840151601f1984830301610120850152613a95828261399f565b9150506101208401516101408401526101408401516101608401526101608401516101808401526101808401516101a08401526101a08401516101c08401526101c08401516101e08401528091505092915050565b634e487b7160e01b600052601160045260246000fd5b8082018082111561048857610488613aea565b8181038181111561048857610488613aea565b805161323a8161321a565b805161323a8161337e565b600082601f830112613b4d57600080fd5b8151613b5b6133e48261339e565b818152846020838601011115613b7057600080fd5b613b8182602083016020870161397b565b949350505050565b600060408284031215613b9b57600080fd5b613ba36132a1565b825181526020928301519281019290925250919050565b600060208284031215613bcc57600080fd5b81516001600160401b03811115613be257600080fd5b82016101808185031215613bf557600080fd5b613bfd61332b565b613c0682613b26565b8152613c1460208301613b31565b602082015260408201516001600160401b03811115613c3257600080fd5b613c3e86828501613b3c565b60408301525060608201516001600160401b03811115613c5d57600080fd5b613c6986828501613b3c565b6060830152506080828101519082015260a0808301519082015260c0808301519082015260e08083015190820152613ca46101008301613b26565b610100820152613cb8856101208401613b89565b61012082015261016091909101516101408201529392505050565b600181811c90821680613ce757607f821691505b602082108103613d0757634e487b7160e01b600052602260045260246000fd5b50919050565b805161323a81613438565b600060208284031215613d2a57600080fd5b815161325c81613438565b600060208284031215613d4757600080fd5b5051919050565b60008154613d5b81613cd3565b808552600182168015613d755760018114613d9157613dc8565b60ff1983166020870152602082151560051b8701019350613dc8565b84600052602060002060005b83811015613dbf5781546020828a010152600182019150602081019050613d9d565b87016020019450505b50505092915050565b6060815260008454613df7606084016001600160401b0383166001600160401b03169052565b613e0a6080840160ff8360401c16613967565b6001600160a01b03604882901c1660a08401525060018501546001600160a01b03811660c084015260a081901c63ffffffff1660e084015260c081901c63ffffffff1661010084015260e081901c610120840152506101e0610140830152613e79610240830160028701613d4e565b828103605f1901610160840152613e938160038801613d4e565b9050600486015461018084015260058601546101a084015260068601546101c084015260078601546101e0840152600886015461020084015260098601546102208401528281036020840152613ee9818661399f565b915050613b8160408301846001600160a01b03169052565b6040810160098410613f1557613f15613951565b9281526001600160a01b039190911660209091015290565b805161323a8161341b565b600060208284031215613f4a57600080fd5b613f52613279565b9151825250919050565b600060408284031215613f6e57600080fd5b613f766132a1565b90508151613f8381613438565b815260209182015191810191909152919050565b600060208284031215613fa957600080fd5b81516001600160401b03811115613fbf57600080fd5b82016101c08185031215613fd257600080fd5b613fda6132c3565b613fe382613b26565b8152613ff160208301613b31565b602082015260408201516001600160401b0381111561400f57600080fd5b61401b86828501613b3c565b60408301525060608201516001600160401b0381111561403a57600080fd5b61404686828501613b3c565b60608301525061405860808301613f2d565b608082015261406960a08301613d0d565b60a082015260c0828101519082015260e08083015190820152614090856101008401613f38565b6101008201526140a4856101208401613f5c565b61012082015261016082810151610140830152610180830151908201526135e76101a08301613d0d565b808202811582820484141761048857610488613aea565b60006001600160401b0382166001600160401b03810361410757614107613aea565b60010192915050565b60006001600160401b0382168061412957614129613aea565b6000190192915050565b601f82111561417a57806000526020600020601f840160051c8101602085101561415a5750805b601f840160051c820191505b818110156120e85760008155600101614166565b505050565b81516001600160401b0381111561419857614198613263565b6141ac816141a68454613cd3565b84614133565b6020601f8211600181146141e057600083156141c85750848201515b600019600385901b1c1916600184901b1784556120e8565b600084815260208120601f198516915b8281101561421057878501518255602094850194600190920191016141f0565b508482101561422e5786840151600019600387901b60f8161c191681555b50505050600190811b01905550565b60006020828403121561424f57600080fd5b815161325c8161341b56fea2646970667358221220f9457691da4eeaf339f7eb3da39e441ffd111861c92c6f47ce72cad5d15efc4964736f6c634300081b0033",
  "linkReferences": {},
  "deployedLinkReferences": {}
}