{
  "_format": "hh-sol-artifact-1",
  "contractName": "InspectorRules",
  "sourceName": "contracts/InspectorRules.sol",
  "abi": [
    {
      "inputs": [
        {
          "internalType": "address",
          "name": "communityRulesAddress",
          "type": "address"
        },
        {
          "internalType": "address",
          "name": "inspectorPoolAddress",
          "type": "address"
        },
        {
          "internalType": "uint8",
          "name": "maxPenalties_",
          "type": "uint8"
        }
      ],
      "stateMutability": "nonpayable",
      "type": "constructor"
    },
    {
      "anonymous": false,
      "inputs": [
        {
          "indexed": true,
          "internalType": "address",
          "name": "inspectorAddress",
          "type": "address"
        },
        {
          "indexed": false,
          "internalType": "uint256",
          "name": "newLevel",
          "type": "uint256"
        },
        {
          "indexed": false,
          "internalType": "uint256",
          "name": "blockNumber",
          "type": "uint256"
        }
      ],
      "name": "InspectorLevelIncreased",
      "type": "event"
    },
    {
      "anonymous": false,
      "inputs": [
        {
          "indexed": true,
          "internalType": "address",
          "name": "inspectorAddress",
          "type": "address"
        },
        {
          "indexed": false,
          "internalType": "uint256",
          "name": "levelsRemoved",
          "type": "uint256"
        },
        {
          "indexed": false,
          "internalType": "uint256",
          "name": "newLevel",
          "type": "uint256"
        },
        {
          "indexed": false,
          "internalType": "uint256",
          "name": "blockNumber",
          "type": "uint256"
        }
      ],
      "name": "InspectorLevelRemoved",
      "type": "event"
    },
    {
      "anonymous": false,
      "inputs": [
        {
          "indexed": true,
          "internalType": "uint256",
          "name": "id",
          "type": "uint256"
        },
        {
          "indexed": true,
          "internalType": "address",
          "name": "inspectorAddress",
          "type": "address"
        },
        {
          "indexed": false,
          "internalType": "string",
          "name": "name",
          "type": "string"
        },
        {
          "indexed": false,
          "internalType": "uint256",
          "name": "blockNumber",
          "type": "uint256"
        }
      ],
      "name": "InspectorRegistered",
      "type": "event"
    },
    {
      "anonymous": false,
      "inputs": [
        {
          "indexed": true,
          "internalType": "address",
          "name": "inspectorAddress",
          "type": "address"
        },
        {
          "indexed": true,
          "internalType": "uint256",
          "name": "era",
          "type": "uint256"
        },
        {
          "indexed": false,
          "internalType": "uint256",
          "name": "blockNumber",
          "type": "uint256"
        }
      ],
      "name": "InspectorWithdrawalInitiated",
      "type": "event"
    },
    {
      "anonymous": false,
      "inputs": [
        {
          "indexed": true,
          "internalType": "address",
          "name": "previousOwner",
          "type": "address"
        },
        {
          "indexed": true,
          "internalType": "address",
          "name": "newOwner",
          "type": "address"
        }
      ],
      "name": "OwnershipTransferred",
      "type": "event"
    },
    {
      "inputs": [],
      "name": "BLOCKS_TO_ACCEPT",
      "outputs": [
        {
          "internalType": "uint32",
          "name": "",
          "type": "uint32"
        }
      ],
      "stateMutability": "view",
      "type": "function"
    },
    {
      "inputs": [],
      "name": "MAX_GIVEUPS",
      "outputs": [
        {
          "internalType": "uint8",
          "name": "",
          "type": "uint8"
        }
      ],
      "stateMutability": "view",
      "type": "function"
    },
    {
      "inputs": [],
      "name": "MINIMUM_INSPECTIONS_TO_POOL",
      "outputs": [
        {
          "internalType": "uint8",
          "name": "",
          "type": "uint8"
        }
      ],
      "stateMutability": "view",
      "type": "function"
    },
    {
      "inputs": [
        {
          "internalType": "string",
          "name": "name",
          "type": "string"
        },
        {
          "internalType": "string",
          "name": "proofPhoto",
          "type": "string"
        }
      ],
      "name": "addInspector",
      "outputs": [],
      "stateMutability": "nonpayable",
      "type": "function"
    },
    {
      "inputs": [
        {
          "internalType": "address",
          "name": "addr",
          "type": "address"
        },
        {
          "internalType": "uint64",
          "name": "inspectionId",
          "type": "uint64"
        }
      ],
      "name": "addPenalty",
      "outputs": [
        {
          "internalType": "uint256",
          "name": "",
          "type": "uint256"
        }
      ],
      "stateMutability": "nonpayable",
      "type": "function"
    },
    {
      "inputs": [
        {
          "internalType": "address",
          "name": "addr",
          "type": "address"
        },
        {
          "internalType": "uint64",
          "name": "lastInspectionId",
          "type": "uint64"
        }
      ],
      "name": "afterAcceptInspection",
      "outputs": [],
      "stateMutability": "nonpayable",
      "type": "function"
    },
    {
      "inputs": [
        {
          "internalType": "address",
          "name": "addr",
          "type": "address"
        }
      ],
      "name": "afterRealizeInspection",
      "outputs": [
        {
          "internalType": "uint256",
          "name": "",
          "type": "uint256"
        }
      ],
      "stateMutability": "nonpayable",
      "type": "function"
    },
    {
      "inputs": [
        {
          "internalType": "address",
          "name": "",
          "type": "address"
        }
      ],
      "name": "allowedCallers",
      "outputs": [
        {
          "internalType": "bool",
          "name": "",
          "type": "bool"
        }
      ],
      "stateMutability": "view",
      "type": "function"
    },
    {
      "inputs": [
        {
          "internalType": "address",
          "name": "addr",
          "type": "address"
        }
      ],
      "name": "canAcceptInspection",
      "outputs": [
        {
          "internalType": "bool",
          "name": "",
          "type": "bool"
        }
      ],
      "stateMutability": "view",
      "type": "function"
    },
    {
      "inputs": [
        {
          "internalType": "address",
          "name": "addr",
          "type": "address"
        }
      ],
      "name": "decrementInspections",
      "outputs": [],
      "stateMutability": "nonpayable",
      "type": "function"
    },
    {
      "inputs": [
        {
          "internalType": "address",
          "name": "addr",
          "type": "address"
        }
      ],
      "name": "getInspector",
      "outputs": [
        {
          "components": [
            {
              "internalType": "uint64",
              "name": "id",
              "type": "uint64"
            },
            {
              "internalType": "address",
              "name": "inspectorWallet",
              "type": "address"
            },
            {
              "internalType": "string",
              "name": "name",
              "type": "string"
            },
            {
              "internalType": "string",
              "name": "proofPhoto",
              "type": "string"
            },
            {
              "internalType": "uint256",
              "name": "totalInspections",
              "type": "uint256"
            },
            {
              "internalType": "uint256",
              "name": "giveUps",
              "type": "uint256"
            },
            {
              "internalType": "uint256",
              "name": "lastAcceptedAt",
              "type": "uint256"
            },
            {
              "internalType": "uint256",
              "name": "lastRealizedAt",
              "type": "uint256"
            },
            {
              "internalType": "uint64",
              "name": "lastInspection",
              "type": "uint64"
            },
            {
              "components": [
                {
                  "internalType": "uint256",
                  "name": "level",
                  "type": "uint256"
                },
                {
                  "internalType": "uint256",
                  "name": "currentEra",
                  "type": "uint256"
                }
              ],
              "internalType": "struct Pool",
              "name": "pool",
              "type": "tuple"
            },
            {
              "internalType": "uint256",
              "name": "createdAt",
              "type": "uint256"
            }
          ],
          "internalType": "struct Inspector",
          "name": "",
          "type": "tuple"
        }
      ],
      "stateMutability": "view",
      "type": "function"
    },
    {
      "inputs": [
        {
          "internalType": "uint256",
          "name": "",
          "type": "uint256"
        }
      ],
      "name": "inspectorsAddress",
      "outputs": [
        {
          "internalType": "address",
          "name": "",
          "type": "address"
        }
      ],
      "stateMutability": "view",
      "type": "function"
    },
    {
      "inputs": [
        {
          "internalType": "address",
          "name": "caller",
          "type": "address"
        }
      ],
      "name": "isAllowedCaller",
      "outputs": [
        {
          "internalType": "bool",
          "name": "",
          "type": "bool"
        }
      ],
      "stateMutability": "view",
      "type": "function"
    },
    {
      "inputs": [
        {
          "internalType": "address",
          "name": "addr",
          "type": "address"
        }
      ],
      "name": "isInspectorValid",
      "outputs": [
        {
          "internalType": "bool",
          "name": "",
          "type": "bool"
        }
      ],
      "stateMutability": "view",
      "type": "function"
    },
    {
      "inputs": [],
      "name": "maxPenalties",
      "outputs": [
        {
          "internalType": "uint8",
          "name": "",
          "type": "uint8"
        }
      ],
      "stateMutability": "view",
      "type": "function"
    },
    {
      "inputs": [
        {
          "internalType": "address",
          "name": "allowed",
          "type": "address"
        }
      ],
      "name": "newAllowedCaller",
      "outputs": [],
      "stateMutability": "nonpayable",
      "type": "function"
    },
    {
      "inputs": [],
      "name": "owner",
      "outputs": [
        {
          "internalType": "address",
          "name": "",
          "type": "address"
        }
      ],
      "stateMutability": "view",
      "type": "function"
    },
    {
      "inputs": [
        {
          "internalType": "address",
          "name": "",
          "type": "address"
        },
        {
          "internalType": "uint256",
          "name": "",
          "type": "uint256"
        }
      ],
      "name": "penalties",
      "outputs": [
        {
          "internalType": "uint64",
          "name": "inspectionId",
          "type": "uint64"
        }
      ],
      "stateMutability": "view",
      "type": "function"
    },
    {
      "inputs": [],
      "name": "poolCurrentEra",
      "outputs": [
        {
          "internalType": "uint256",
          "name": "",
          "type": "uint256"
        }
      ],
      "stateMutability": "view",
      "type": "function"
    },
    {
      "inputs": [
        {
          "internalType": "address",
          "name": "addr",
          "type": "address"
        },
        {
          "internalType": "uint256",
          "name": "levelsToRemove",
          "type": "uint256"
        }
      ],
      "name": "removePoolLevels",
      "outputs": [],
      "stateMutability": "nonpayable",
      "type": "function"
    },
    {
      "inputs": [],
      "name": "renounceOwnership",
      "outputs": [],
      "stateMutability": "nonpayable",
      "type": "function"
    },
    {
      "inputs": [
        {
          "internalType": "address",
          "name": "addr",
          "type": "address"
        }
      ],
      "name": "totalPenalties",
      "outputs": [
        {
          "internalType": "uint256",
          "name": "",
          "type": "uint256"
        }
      ],
      "stateMutability": "view",
      "type": "function"
    },
    {
      "inputs": [
        {
          "internalType": "address",
          "name": "newOwner",
          "type": "address"
        }
      ],
      "name": "transferOwnership",
      "outputs": [],
      "stateMutability": "nonpayable",
      "type": "function"
    },
    {
      "inputs": [],
      "name": "withdraw",
      "outputs": [],
      "stateMutability": "nonpayable",
      "type": "function"
    }
  ],
  "bytecode": "0x60a060405234801561001057600080fd5b50604051611b8a380380611b8a83398101604081905261002f916100e4565b61003833610078565b6001600255600680546001600160a01b039485166001600160a01b031991821617909155600780549390941692169190911790915560ff16608052610131565b600080546001600160a01b038381166001600160a01b0319831681178455604051919092169283917f8be0079c531659141344cd1fd0a4f28419497f9722a3daafe3b4186f6b6457e09190a35050565b80516001600160a01b03811681146100df57600080fd5b919050565b6000806000606084860312156100f957600080fd5b610102846100c8565b9250610110602085016100c8565b9150604084015160ff8116811461012657600080fd5b809150509250925092565b608051611a3e61014c60003960006103790152611a3e6000f3fe608060405234801561001057600080fd5b50600436106101585760003560e01c80638f93716f116100c3578063b1e866551161007c578063b1e8665514610361578063b24eb76914610374578063c3c983d21461039b578063e05cf155146103ae578063e8f7dfcf146103b6578063f2fde38b146103d657600080fd5b80638f93716f146102e957806396cd0357146102fc5780639c9604501461030f578063a1ce8d3a14610322578063a680125814610335578063a77963f01461028057600080fd5b80635fa71c28116101155780635fa71c281461025557806367b769a814610280578063715018a61461029a5780637b334154146102a25780637fbbbf1c146102c55780638da5cb5b146102d857600080fd5b8063031a70521461015d5780630da0933a1461018057806318ad5c9a146101c15780632076267b146101d65780633ccfd60b1461020d5780634d5ff1d314610215575b600080fd5b61016661177081565b60405163ffffffff90911681526020015b60405180910390f35b6101a961018e36600461141d565b6005602052600090815260409020546001600160a01b031681565b6040516001600160a01b039091168152602001610177565b6101d46101cf36600461144d565b6103e9565b005b6101ff6101e4366004611477565b6001600160a01b031660009081526004602052604090205490565b604051908152602001610177565b6101d4610531565b610245610223366004611477565b6001600160a01b03166000908152600360208190526040909120600401541090565b6040519015158152602001610177565b61026861026336600461144d565b6107e1565b6040516001600160401b039091168152602001610177565b610288600381565b60405160ff9091168152602001610177565b6101d4610819565b6102456102b0366004611477565b60016020526000908152604090205460ff1681565b6102456102d3366004611477565b61082b565b6000546001600160a01b03166101a9565b6101d46102f7366004611477565b61086a565b6101d461030a3660046114a7565b610899565b6101d461031d366004611581565b61090c565b6101ff610330366004611477565b610c28565b610245610343366004611477565b6001600160a01b031660009081526001602052604090205460ff1690565b6101ff61036f3660046114a7565b610c82565b6102887f000000000000000000000000000000000000000000000000000000000000000081565b6101d46103a9366004611477565b610d1c565b6101ff610dd1565b6103c96103c4366004611477565b610e44565b604051610177919061162e565b6101d46103e4366004611477565b61102d565b3360009081526001602052604090205460ff166104215760405162461bcd60e51b815260040161041890611716565b60405180910390fd5b6104296110a6565b6001600160a01b038216600090815260036020526040902081610450576008810154610452565b815b600882018054600090610466908490611758565b9091555050600754604051630c56ae4d60e11b81526001600160a01b03858116600483015260248201859052909116906318ad5c9a90604401600060405180830381600087803b1580156104b957600080fd5b505af11580156104cd573d6000803e3d6000fd5b505050600882015460408051858152602081019290925243908201526001600160a01b03851691507f101bdaf1b42bde106b9fdbdd4556d0681ace1cbdfe8734ff4fe73d380c713b7c9060600160405180910390a25061052d6001600255565b5050565b6105396110a6565b600654604051631292f8c160e31b81526001600160a01b0390911690639497c6089061056c90600290339060040161178d565b602060405180830381865afa158015610589573d6000803e3d6000fd5b505050506040513d601f19601f820116820180604052508101906105ad91906117b3565b6105f95760405162461bcd60e51b815260206004820152601760248201527f506f6f6c206f6e6c7920746f20696e73706563746f72730000000000000000006044820152606401610418565b33600090815260036020819052604090912080820154909111156106555760405162461bcd60e51b81526020600482015260136024820152724d696e696d756d20696e7370656374696f6e7360681b6044820152606401610418565b6009810154600754604051637df42f8360e11b8152600481018390526001600160a01b039091169063fbe85f0690602401602060405180830381865afa1580156106a3573d6000803e3d6000fd5b505050506040513d601f19601f820116820180604052508101906106c791906117b3565b6107215760405162461bcd60e51b815260206004820152602560248201527f4e6f7420656c696769626c6520746f20776974686472617720666f7220746869604482015264732065726160d81b6064820152608401610418565b600982018054906000610733836117dc565b909155505060075460405163f3fef3a360e01b8152336004820152602481018390526001600160a01b039091169063f3fef3a390604401600060405180830381600087803b15801561078457600080fd5b505af1158015610798573d6000803e3d6000fd5b50506040514381528392503391507f840624e970d5fc229e8298cd290e31ee6be9e7c78cf10b6f8176e4178a0323709060200160405180910390a350506107df6001600255565b565b600460205281600052604060002081815481106107fd57600080fd5b6000918252602090912001546001600160401b03169150829050565b6108216110fd565b6107df6000611157565b6001600160a01b038116600090815260036020526040812060060154806108555750600192915050565b610861611770826117f5565b43119392505050565b6108726110fd565b6001600160a01b03166000908152600160208190526040909120805460ff19169091179055565b3360009081526001602052604090205460ff166108c85760405162461bcd60e51b815260040161041890611716565b6001600160a01b0382166000908152600360205260409020436005820155600701805467ffffffffffffffff19166001600160401b03831617905561052d826111a7565b815160321080159061092057508051609610155b61095d5760405162461bcd60e51b815260206004820152600e60248201526d4d6178206368617261637465727360901b6044820152606401610418565b60065460405162f5960960e51b81526000916001600160a01b031690631eb2c1209061098e90600290600401611808565b602060405180830381865afa1580156109ab573d6000803e3d6000fd5b505050506040513d601f19601f820116820180604052508101906109cf9190611816565b6109da906001611833565b9050604051806101600160405280826001600160401b03168152602001336001600160a01b031681526020018481526020018381526020016000815260200160008152602001600081526020016000815260200160006001600160401b03168152602001604051806040016040528060008152602001610a58610dd1565b90528152436020918201523360009081526003825260409081902083518154938501516001600160a01b0316600160401b026001600160e01b03199094166001600160401b03909116179290921782558201516001820190610aba90826118db565b5060608201516002820190610acf90826118db565b506080820151600382015560a082015160048083019190915560c083015160058084019190915560e084015160068085019190915561010085015160078501805467ffffffffffffffff19166001600160401b0392831617905561012086015180516008870155602090810151600987015561014090960151600a90950194909455928516600090815293526040928390208054336001600160a01b0319909116811790915591549251639c3eead960e01b81526001600160a01b0390931692639c3eead992610ba492909160029101611999565b600060405180830381600087803b158015610bbe57600080fd5b505af1158015610bd2573d6000803e3d6000fd5b50505050336001600160a01b0316816001600160401b03167ff497df17d0f8e81cbbeac1fab2ef010533e6b0010216eb360160fc9021a060fa8543604051610c1b9291906119b6565b60405180910390a3505050565b3360009081526001602052604081205460ff16610c575760405162461bcd60e51b815260040161041890611716565b610c5f6110a6565b610c68826111d6565b610c71826111fd565b9050610c7d6001600255565b919050565b3360009081526001602052604081205460ff16610cb15760405162461bcd60e51b815260040161041890611716565b6001600160a01b038316600081815260046020818152604080842081518084019092526001600160401b038881168352815460018101835582875284872093519301805467ffffffffffffffff19169390911692909217909155939092529052545b90505b92915050565b3360009081526001602052604090205460ff16610d4b5760405162461bcd60e51b815260040161041890611716565b6001600160a01b038116600090815260036020819052604090912090810154610db65760405162461bcd60e51b815260206004820152601860248201527f746f74616c496e7370656374696f6e7320696e76616c696400000000000000006044820152606401610418565b600381018054906000610dc8836119d8565b91905055505050565b60075460408051637686fbcf60e11b815290516000926001600160a01b03169163ed0df79e9160048083019260209291908290030181865afa158015610e1b573d6000803e3d6000fd5b505050506040513d601f19601f82011682018060405250810190610e3f91906119ef565b905090565b610e4c61138d565b6001600160a01b0380831660009081526003602090815260409182902082516101608101845281546001600160401b0381168252600160401b9004909416918401919091526001810180549192840191610ea590611852565b80601f0160208091040260200160405190810160405280929190818152602001828054610ed190611852565b8015610f1e5780601f10610ef357610100808354040283529160200191610f1e565b820191906000526020600020905b815481529060010190602001808311610f0157829003601f168201915b50505050508152602001600282018054610f3790611852565b80601f0160208091040260200160405190810160405280929190818152602001828054610f6390611852565b8015610fb05780601f10610f8557610100808354040283529160200191610fb0565b820191906000526020600020905b815481529060010190602001808311610f9357829003601f168201915b505050918352505060038201546020808301919091526004830154604080840191909152600584015460608401526006840154608084015260078401546001600160401b031660a084015280518082019091526008840154815260098401549181019190915260c0820152600a9091015460e09091015292915050565b6110356110fd565b6001600160a01b03811661109a5760405162461bcd60e51b815260206004820152602660248201527f4f776e61626c653a206e6577206f776e657220697320746865207a65726f206160448201526564647265737360d01b6064820152608401610418565b6110a381611157565b50565b60028054036110f75760405162461bcd60e51b815260206004820152601f60248201527f5265656e7472616e637947756172643a207265656e7472616e742063616c6c006044820152606401610418565b60028055565b6000546001600160a01b031633146107df5760405162461bcd60e51b815260206004820181905260248201527f4f776e61626c653a2063616c6c6572206973206e6f7420746865206f776e65726044820152606401610418565b600080546001600160a01b038381166001600160a01b0319831681178455604051919092169283917f8be0079c531659141344cd1fd0a4f28419497f9722a3daafe3b4186f6b6457e09190a35050565b6001600160a01b03811660009081526003602052604081206004018054916111ce836117dc565b919050555050565b6001600160a01b03811660009081526003602052604081206004018054916111ce836119d8565b6001600160a01b038116600090815260036020526040812080546001600160401b0316820361126e5760405162461bcd60e51b815260206004820152601860248201527f496e73706563746f7220646f6573206e6f7420657869737400000000000000006044820152606401610418565b600381018054906000611280836117dc565b909155505043600682015560088101805490600061129d836117dc565b91905055506112ab816112b5565b6003015492915050565b6112c481600301546003111590565b6112cb5750565b60075481546040516352b8d3ed60e01b81526001600160a01b03600160401b90920482166004820152600160248201529116906352b8d3ed90604401600060405180830381600087803b15801561132157600080fd5b505af1158015611335573d6000803e3d6000fd5b50508254600884015460408051918252436020830152600160401b9092046001600160a01b031693507fb569f8300b4cf9fad5353ce8ea5c9f82098e5ff03743f0d50d213fc166d3a4e092500160405180910390a250565b60405180610160016040528060006001600160401b0316815260200160006001600160a01b0316815260200160608152602001606081526020016000815260200160008152602001600081526020016000815260200160006001600160401b03168152602001611410604051806040016040528060008152602001600081525090565b8152602001600081525090565b60006020828403121561142f57600080fd5b5035919050565b80356001600160a01b0381168114610c7d57600080fd5b6000806040838503121561146057600080fd5b61146983611436565b946020939093013593505050565b60006020828403121561148957600080fd5b610d1382611436565b6001600160401b03811681146110a357600080fd5b600080604083850312156114ba57600080fd5b6114c383611436565b915060208301356114d381611492565b809150509250929050565b634e487b7160e01b600052604160045260246000fd5b600082601f83011261150557600080fd5b81356001600160401b0381111561151e5761151e6114de565b604051601f8201601f19908116603f011681016001600160401b038111828210171561154c5761154c6114de565b60405281815283820160200185101561156457600080fd5b816020850160208301376000918101602001919091529392505050565b6000806040838503121561159457600080fd5b82356001600160401b038111156115aa57600080fd5b6115b6858286016114f4565b92505060208301356001600160401b038111156115d257600080fd5b6115de858286016114f4565b9150509250929050565b6000815180845260005b8181101561160e576020818501810151868301820152016115f2565b506000602082860101526020601f19601f83011685010191505092915050565b602081526116486020820183516001600160401b03169052565b6000602083015161166460408401826001600160a01b03169052565b50604083015161018060608401526116806101a08401826115e8565b90506060840151601f1984830301608085015261169d82826115e8565b915050608084015160a084015260a084015160c084015260c084015160e084015260e08401516101008401526101008401516116e56101208501826001600160401b03169052565b5061012084015180516101408501526020810151610160850152506101408401516101808401528091505092915050565b6020808252601290820152712737ba1030b63637bbb2b21031b0b63632b960711b604082015260600190565b634e487b7160e01b600052601160045260246000fd5b81810381811115610d1657610d16611742565b6009811061178957634e487b7160e01b600052602160045260246000fd5b9052565b6040810161179b828561176b565b6001600160a01b039290921660209190910152919050565b6000602082840312156117c557600080fd5b815180151581146117d557600080fd5b9392505050565b6000600182016117ee576117ee611742565b5060010190565b80820180821115610d1657610d16611742565b60208101610d16828461176b565b60006020828403121561182857600080fd5b81516117d581611492565b6001600160401b038181168382160190811115610d1657610d16611742565b600181811c9082168061186657607f821691505b60208210810361188657634e487b7160e01b600052602260045260246000fd5b50919050565b601f8211156118d657806000526020600020601f840160051c810160208510156118b35750805b601f840160051c820191505b818110156118d357600081556001016118bf565b50505b505050565b81516001600160401b038111156118f4576118f46114de565b611908816119028454611852565b8461188c565b6020601f82116001811461193c57600083156119245750848201515b600019600385901b1c1916600184901b1784556118d3565b600084815260208120601f198516915b8281101561196c578785015182556020948501946001909201910161194c565b508482101561198a5786840151600019600387901b60f8161c191681555b50505050600190811b01905550565b6001600160a01b0383168152604081016117d5602083018461176b565b6040815260006119c960408301856115e8565b90508260208301529392505050565b6000816119e7576119e7611742565b506000190190565b600060208284031215611a0157600080fd5b505191905056fea2646970667358221220bf97027a0a8e7c9bdef7808032fe9502a3f6f1301f5eafff6a57192f1de5205b64736f6c634300081b0033",
  "linkReferences": {},
  "deployedLinkReferences": {}
}