{
  "_format": "hh-sol-artifact-1",
  "contractName": "InspectionRules",
  "sourceName": "contracts/InspectionRules.sol",
  "abi": [
    {
      "inputs": [
        {
          "internalType": "uint256",
          "name": "timeBetweenInspections_",
          "type": "uint256"
        },
        {
          "internalType": "uint256",
          "name": "blocksToExpireAcceptedInspection_",
          "type": "uint256"
        },
        {
          "internalType": "uint256",
          "name": "allowedInitialRequests_",
          "type": "uint256"
        },
        {
          "internalType": "uint256",
          "name": "acceptInspectionDelayBlocks_",
          "type": "uint256"
        },
        {
          "internalType": "uint256",
          "name": "securityBlocksToValidatorAnalysis_",
          "type": "uint256"
        }
      ],
      "stateMutability": "nonpayable",
      "type": "constructor"
    },
    {
      "anonymous": false,
      "inputs": [
        {
          "indexed": true,
          "internalType": "address",
          "name": "previousOwner",
          "type": "address"
        },
        {
          "indexed": true,
          "internalType": "address",
          "name": "newOwner",
          "type": "address"
        }
      ],
      "name": "OwnershipTransferred",
      "type": "event"
    },
    {
      "inputs": [
        {
          "internalType": "uint256",
          "name": "inspectionId",
          "type": "uint256"
        }
      ],
      "name": "acceptInspection",
      "outputs": [],
      "stateMutability": "nonpayable",
      "type": "function"
    },
    {
      "inputs": [],
      "name": "acceptInspectionDelayBlocks",
      "outputs": [
        {
          "internalType": "uint256",
          "name": "",
          "type": "uint256"
        }
      ],
      "stateMutability": "view",
      "type": "function"
    },
    {
      "inputs": [
        {
          "internalType": "uint256",
          "name": "id",
          "type": "uint256"
        },
        {
          "internalType": "string",
          "name": "justification",
          "type": "string"
        }
      ],
      "name": "addInspectionValidation",
      "outputs": [],
      "stateMutability": "nonpayable",
      "type": "function"
    },
    {
      "inputs": [
        {
          "internalType": "address",
          "name": "",
          "type": "address"
        }
      ],
      "name": "allowedCallers",
      "outputs": [
        {
          "internalType": "bool",
          "name": "",
          "type": "bool"
        }
      ],
      "stateMutability": "view",
      "type": "function"
    },
    {
      "inputs": [],
      "name": "allowedInitialRequests",
      "outputs": [
        {
          "internalType": "uint256",
          "name": "",
          "type": "uint256"
        }
      ],
      "stateMutability": "view",
      "type": "function"
    },
    {
      "inputs": [],
      "name": "blocksToExpireAcceptedInspection",
      "outputs": [
        {
          "internalType": "uint256",
          "name": "",
          "type": "uint256"
        }
      ],
      "stateMutability": "view",
      "type": "function"
    },
    {
      "inputs": [
        {
          "internalType": "uint256",
          "name": "inspectionId",
          "type": "uint256"
        }
      ],
      "name": "calculateBlocksToExpire",
      "outputs": [
        {
          "internalType": "uint256",
          "name": "",
          "type": "uint256"
        }
      ],
      "stateMutability": "view",
      "type": "function"
    },
    {
      "inputs": [
        {
          "internalType": "uint256",
          "name": "id",
          "type": "uint256"
        }
      ],
      "name": "getInspection",
      "outputs": [
        {
          "components": [
            {
              "internalType": "uint256",
              "name": "id",
              "type": "uint256"
            },
            {
              "internalType": "enum InspectionStatus",
              "name": "status",
              "type": "uint8"
            },
            {
              "internalType": "address",
              "name": "regenerator",
              "type": "address"
            },
            {
              "internalType": "address",
              "name": "inspector",
              "type": "address"
            },
            {
              "internalType": "uint256",
              "name": "treesResult",
              "type": "uint256"
            },
            {
              "internalType": "uint256",
              "name": "biodiversityResult",
              "type": "uint256"
            },
            {
              "internalType": "uint256",
              "name": "regenerationScore",
              "type": "uint256"
            },
            {
              "internalType": "string",
              "name": "proofPhoto",
              "type": "string"
            },
            {
              "internalType": "string",
              "name": "report",
              "type": "string"
            },
            {
              "internalType": "uint256",
              "name": "validationsCount",
              "type": "uint256"
            },
            {
              "internalType": "uint256",
              "name": "createdAt",
              "type": "uint256"
            },
            {
              "internalType": "uint256",
              "name": "acceptedAt",
              "type": "uint256"
            },
            {
              "internalType": "uint256",
              "name": "inspectedAt",
              "type": "uint256"
            },
            {
              "internalType": "uint256",
              "name": "inspectedAtEra",
              "type": "uint256"
            },
            {
              "internalType": "uint256",
              "name": "invalidatedAt",
              "type": "uint256"
            }
          ],
          "internalType": "struct Inspection",
          "name": "",
          "type": "tuple"
        }
      ],
      "stateMutability": "view",
      "type": "function"
    },
    {
      "inputs": [
        {
          "internalType": "address",
          "name": "addr",
          "type": "address"
        }
      ],
      "name": "getInspectionsHistory",
      "outputs": [
        {
          "internalType": "uint256[]",
          "name": "",
          "type": "uint256[]"
        }
      ],
      "stateMutability": "view",
      "type": "function"
    },
    {
      "inputs": [],
      "name": "inspectionsBiodiversityImpact",
      "outputs": [
        {
          "internalType": "uint256",
          "name": "",
          "type": "uint256"
        }
      ],
      "stateMutability": "view",
      "type": "function"
    },
    {
      "inputs": [],
      "name": "inspectionsCount",
      "outputs": [
        {
          "internalType": "uint256",
          "name": "",
          "type": "uint256"
        }
      ],
      "stateMutability": "view",
      "type": "function"
    },
    {
      "inputs": [],
      "name": "inspectionsTotalCount",
      "outputs": [
        {
          "internalType": "uint256",
          "name": "",
          "type": "uint256"
        }
      ],
      "stateMutability": "view",
      "type": "function"
    },
    {
      "inputs": [],
      "name": "inspectionsTreesImpact",
      "outputs": [
        {
          "internalType": "uint256",
          "name": "",
          "type": "uint256"
        }
      ],
      "stateMutability": "view",
      "type": "function"
    },
    {
      "inputs": [
        {
          "internalType": "address",
          "name": "caller",
          "type": "address"
        }
      ],
      "name": "isAllowedCaller",
      "outputs": [
        {
          "internalType": "bool",
          "name": "",
          "type": "bool"
        }
      ],
      "stateMutability": "view",
      "type": "function"
    },
    {
      "inputs": [
        {
          "internalType": "address",
          "name": "allowed",
          "type": "address"
        }
      ],
      "name": "newAllowedCaller",
      "outputs": [],
      "stateMutability": "nonpayable",
      "type": "function"
    },
    {
      "inputs": [],
      "name": "owner",
      "outputs": [
        {
          "internalType": "address",
          "name": "",
          "type": "address"
        }
      ],
      "stateMutability": "view",
      "type": "function"
    },
    {
      "inputs": [
        {
          "internalType": "uint256",
          "name": "inspectionId",
          "type": "uint256"
        },
        {
          "internalType": "string",
          "name": "proofPhoto",
          "type": "string"
        },
        {
          "internalType": "string",
          "name": "report",
          "type": "string"
        },
        {
          "internalType": "uint256",
          "name": "treesResult",
          "type": "uint256"
        },
        {
          "internalType": "uint256",
          "name": "biodiversityResult",
          "type": "uint256"
        }
      ],
      "name": "realizeInspection",
      "outputs": [],
      "stateMutability": "nonpayable",
      "type": "function"
    },
    {
      "inputs": [],
      "name": "renounceOwnership",
      "outputs": [],
      "stateMutability": "nonpayable",
      "type": "function"
    },
    {
      "inputs": [],
      "name": "requestInspection",
      "outputs": [],
      "stateMutability": "nonpayable",
      "type": "function"
    },
    {
      "inputs": [],
      "name": "securityBlocksToValidatorAnalysis",
      "outputs": [
        {
          "internalType": "uint256",
          "name": "",
          "type": "uint256"
        }
      ],
      "stateMutability": "view",
      "type": "function"
    },
    {
      "inputs": [
        {
          "components": [
            {
              "internalType": "address",
              "name": "communityRulesAddress",
              "type": "address"
            },
            {
              "internalType": "address",
              "name": "regeneratorRulesAddress",
              "type": "address"
            },
            {
              "internalType": "address",
              "name": "validatorRulesAddress",
              "type": "address"
            },
            {
              "internalType": "address",
              "name": "inspectorRulesAddress",
              "type": "address"
            },
            {
              "internalType": "address",
              "name": "regenerationIndexRulesAddress",
              "type": "address"
            },
            {
              "internalType": "address",
              "name": "activistRulesAddress",
              "type": "address"
            }
          ],
          "internalType": "struct ContractsDependency",
          "name": "contractDependency",
          "type": "tuple"
        }
      ],
      "name": "setContractAddressDependencies",
      "outputs": [],
      "stateMutability": "nonpayable",
      "type": "function"
    },
    {
      "inputs": [],
      "name": "timeBetweenInspections",
      "outputs": [
        {
          "internalType": "uint256",
          "name": "",
          "type": "uint256"
        }
      ],
      "stateMutability": "view",
      "type": "function"
    },
    {
      "inputs": [
        {
          "internalType": "address",
          "name": "newOwner",
          "type": "address"
        }
      ],
      "name": "transferOwnership",
      "outputs": [],
      "stateMutability": "nonpayable",
      "type": "function"
    },
    {
      "inputs": [
        {
          "components": [
            {
              "internalType": "uint256",
              "name": "id",
              "type": "uint256"
            },
            {
              "internalType": "address",
              "name": "regeneratorWallet",
              "type": "address"
            },
            {
              "internalType": "string",
              "name": "name",
              "type": "string"
            },
            {
              "internalType": "string",
              "name": "proofPhoto",
              "type": "string"
            },
            {
              "internalType": "uint256",
              "name": "totalArea",
              "type": "uint256"
            },
            {
              "internalType": "bool",
              "name": "pendingInspection",
              "type": "bool"
            },
            {
              "internalType": "uint256",
              "name": "totalInspections",
              "type": "uint256"
            },
            {
              "internalType": "uint256",
              "name": "lastRequestAt",
              "type": "uint256"
            },
            {
              "components": [
                {
                  "internalType": "uint256",
                  "name": "score",
                  "type": "uint256"
                }
              ],
              "internalType": "struct RegenerationScore",
              "name": "regenerationScore",
              "type": "tuple"
            },
            {
              "components": [
                {
                  "internalType": "bool",
                  "name": "onContractPool",
                  "type": "bool"
                },
                {
                  "internalType": "uint256",
                  "name": "currentEra",
                  "type": "uint256"
                }
              ],
              "internalType": "struct Pool",
              "name": "pool",
              "type": "tuple"
            },
            {
              "internalType": "uint256",
              "name": "createdAt",
              "type": "uint256"
            },
            {
              "internalType": "uint256",
              "name": "coordinatesCount",
              "type": "uint256"
            }
          ],
          "internalType": "struct Regenerator",
          "name": "regenerator",
          "type": "tuple"
        }
      ],
      "name": "waitToRequest",
      "outputs": [
        {
          "internalType": "bool",
          "name": "",
          "type": "bool"
        }
      ],
      "stateMutability": "view",
      "type": "function"
    }
  ],
  "bytecode": "0x61012060405234801561001157600080fd5b5060405161584338038061584383398181016040528101906100339190610189565b61004f61004461008260201b60201c565b61008a60201b60201c565b84608081815250508360a081815250508260c081815250508160e081815250508061010081815250505050505050610204565b600033905090565b60008060009054906101000a900473ffffffffffffffffffffffffffffffffffffffff169050816000806101000a81548173ffffffffffffffffffffffffffffffffffffffff021916908373ffffffffffffffffffffffffffffffffffffffff1602179055508173ffffffffffffffffffffffffffffffffffffffff168173ffffffffffffffffffffffffffffffffffffffff167f8be0079c531659141344cd1fd0a4f28419497f9722a3daafe3b4186f6b6457e060405160405180910390a35050565b600080fd5b6000819050919050565b61016681610153565b811461017157600080fd5b50565b6000815190506101838161015d565b92915050565b600080600080600060a086880312156101a5576101a461014e565b5b60006101b388828901610174565b95505060206101c488828901610174565b94505060406101d588828901610174565b93505060606101e688828901610174565b92505060806101f788828901610174565b9150509295509295909350565b60805160a05160c05160e051610100516155bc61028760003960008181611126015261364f01526000818161184e015261355201526000818161114c01526117540152600081816108b4015281816117d70152818161182a015281816134980152818161358e015261367301526000818161118101526111bb01526155bc6000f3fe608060405234801561001057600080fd5b50600436106101585760003560e01c80638da5cb5b116100c3578063e42c95511161007c578063e42c9551146103a3578063e710483d146103c1578063e7857502146103df578063ed8f9321146103fb578063f283667014610419578063f2fde38b1461044957610158565b80638da5cb5b146102cd5780638f93716f146102eb5780639df79c9214610307578063a2b570a414610325578063a680125814610343578063d7c9834e1461037357610158565b80635401c1f2116101155780635401c1f21461021d5780636b2edc161461023b578063715018a6146102595780637b334154146102635780637b7984681461029357806386ae2fb1146102c357610158565b80630cfd82c61461015d5780632c1d62e4146101795780632eb923631461019557806330a93c55146101b35780633dbf1e8f146101e3578063484000fe14610201575b600080fd5b6101776004803603810190610172919061399a565b610465565b005b610193600480360381019061018e9190613a4d565b610a0e565b005b61019d611124565b6040516101aa9190613ab8565b60405180910390f35b6101cd60048036038101906101c89190613d59565b611148565b6040516101da9190613db1565b60405180910390f35b6101eb6111b9565b6040516101f89190613ab8565b60405180910390f35b61021b60048036038101906102169190613e6c565b6111dd565b005b610225611386565b6040516102329190613ab8565b60405180910390f35b61024361138c565b6040516102509190613ab8565b60405180910390f35b610261611392565b005b61027d60048036038101906102789190613e99565b6113a6565b60405161028a9190613db1565b60405180910390f35b6102ad60048036038101906102a89190613e99565b6113c6565b6040516102ba9190613f84565b60405180910390f35b6102cb61145d565b005b6102d56116c7565b6040516102e29190613fb5565b60405180910390f35b61030560048036038101906103009190613e99565b6116f0565b005b61030f611752565b60405161031c9190613ab8565b60405180910390f35b61032d611776565b60405161033a9190613ab8565b60405180910390f35b61035d60048036038101906103589190613e99565b61177c565b60405161036a9190613db1565b60405180910390f35b61038d60048036038101906103889190613fd0565b6117d2565b60405161039a9190613ab8565b60405180910390f35b6103ab611828565b6040516103b89190613ab8565b60405180910390f35b6103c961184c565b6040516103d69190613ab8565b60405180910390f35b6103f960048036038101906103f49190613fd0565b611870565b005b610403612216565b6040516104109190613ab8565b60405180910390f35b610433600480360381019061042e9190613fd0565b61221c565b604051610440919061424c565b60405180910390f35b610463600480360381019061045e9190613e99565b6124b9565b005b600060046000878152602001908152602001600020604051806101e0016040529081600082015481526020016001820160009054906101000a900460ff1660048111156104b5576104b4613ffd565b5b60048111156104c7576104c6613ffd565b5b81526020016001820160019054906101000a900473ffffffffffffffffffffffffffffffffffffffff1673ffffffffffffffffffffffffffffffffffffffff1673ffffffffffffffffffffffffffffffffffffffff1681526020016002820160009054906101000a900473ffffffffffffffffffffffffffffffffffffffff1673ffffffffffffffffffffffffffffffffffffffff1673ffffffffffffffffffffffffffffffffffffffff1681526020016003820154815260200160048201548152602001600582015481526020016006820180546105a59061429d565b80601f01602080910402602001604051908101604052809291908181526020018280546105d19061429d565b801561061e5780601f106105f35761010080835404028352916020019161061e565b820191906000526020600020905b81548152906001019060200180831161060157829003601f168201915b505050505081526020016007820180546106379061429d565b80601f01602080910402602001604051908101604052809291908181526020018280546106639061429d565b80156106b05780601f10610685576101008083540402835291602001916106b0565b820191906000526020600020905b81548152906001019060200180831161069357829003601f168201915b505050505081526020016008820154815260200160098201548152602001600a8201548152602001600b8201548152602001600c8201548152602001600d820154815250509050600860009054906101000a900473ffffffffffffffffffffffffffffffffffffffff1673ffffffffffffffffffffffffffffffffffffffff16639497c6086002336040518363ffffffff1660e01b8152600401610755929190614316565b602060405180830381865afa158015610772573d6000803e3d6000fd5b505050506040513d601f19601f820116820180604052508101906107969190614354565b6107d5576040517f08c379a00000000000000000000000000000000000000000000000000000000081526004016107cc906143de565b60405180910390fd5b600160048111156107e9576107e8613ffd565b5b81602001516004811115610800576107ff613ffd565b5b14610840576040517f08c379a00000000000000000000000000000000000000000000000000000000081526004016108379061444a565b60405180910390fd5b3373ffffffffffffffffffffffffffffffffffffffff16816060015173ffffffffffffffffffffffffffffffffffffffff16146108b2576040517f08c379a00000000000000000000000000000000000000000000000000000000081526004016108a9906144dc565b60405180910390fd5b7f00000000000000000000000000000000000000000000000000000000000000008161016001516108e3919061452b565b431115610925576040517f08c379a000000000000000000000000000000000000000000000000000000000815260040161091c906145ab565b60405180910390fd5b610932818686868661253c565b61093b81612858565b82600e600082825461094d919061452b565b9250508190555081600f6000828254610966919061452b565b925050819055506001600260003373ffffffffffffffffffffffffffffffffffffffff1673ffffffffffffffffffffffffffffffffffffffff1681526020019081526020016000206000836040015173ffffffffffffffffffffffffffffffffffffffff1673ffffffffffffffffffffffffffffffffffffffff16815260200190815260200160002060006101000a81548160ff021916908315150217905550505050505050565b600860009054906101000a900473ffffffffffffffffffffffffffffffffffffffff1673ffffffffffffffffffffffffffffffffffffffff16639497c6086008336040518363ffffffff1660e01b8152600401610a6c929190614316565b602060405180830381865afa158015610a89573d6000803e3d6000fd5b505050506040513d601f19601f82011682018060405250810190610aad9190614354565b610aec576040517f08c379a0000000000000000000000000000000000000000000000000000000008152600401610ae390614617565b60405180910390fd5b600060046000848152602001908152602001600020604051806101e0016040529081600082015481526020016001820160009054906101000a900460ff166004811115610b3c57610b3b613ffd565b5b6004811115610b4e57610b4d613ffd565b5b81526020016001820160019054906101000a900473ffffffffffffffffffffffffffffffffffffffff1673ffffffffffffffffffffffffffffffffffffffff1673ffffffffffffffffffffffffffffffffffffffff1681526020016002820160009054906101000a900473ffffffffffffffffffffffffffffffffffffffff1673ffffffffffffffffffffffffffffffffffffffff1673ffffffffffffffffffffffffffffffffffffffff168152602001600382015481526020016004820154815260200160058201548152602001600682018054610c2c9061429d565b80601f0160208091040260200160405190810160405280929190818152602001828054610c589061429d565b8015610ca55780601f10610c7a57610100808354040283529160200191610ca5565b820191906000526020600020905b815481529060010190602001808311610c8857829003601f168201915b50505050508152602001600782018054610cbe9061429d565b80601f0160208091040260200160405190810160405280929190818152602001828054610cea9061429d565b8015610d375780601f10610d0c57610100808354040283529160200191610d37565b820191906000526020600020905b815481529060010190602001808311610d1a57829003601f168201915b505050505081526020016008820154815260200160098201548152602001600a8201548152602001600b8201548152602001600c8201548152602001600d820154815250509050600760009054906101000a900473ffffffffffffffffffffffffffffffffffffffff1673ffffffffffffffffffffffffffffffffffffffff1663e8f3c27a6040518163ffffffff1660e01b8152600401602060405180830381865afa158015610deb573d6000803e3d6000fd5b505050506040513d601f19601f82011682018060405250810190610e0f919061464c565b816101a0015114610e55576040517f08c379a0000000000000000000000000000000000000000000000000000000008152600401610e4c906146c5565b60405180910390fd5b60018161012001818151610e69919061452b565b915081815250508060046000836000015181526020019081526020016000206000820151816000015560208201518160010160006101000a81548160ff02191690836004811115610ebd57610ebc613ffd565b5b021790555060408201518160010160016101000a81548173ffffffffffffffffffffffffffffffffffffffff021916908373ffffffffffffffffffffffffffffffffffffffff16021790555060608201518160020160006101000a81548173ffffffffffffffffffffffffffffffffffffffff021916908373ffffffffffffffffffffffffffffffffffffffff1602179055506080820151816003015560a0820151816004015560c0820151816005015560e0820151816006019081610f839190614891565b50610100820151816007019081610f9a9190614891565b506101208201518160080155610140820151816009015561016082015181600a015561018082015181600b01556101a082015181600c01556101c082015181600d01559050506000600960009054906101000a900473ffffffffffffffffffffffffffffffffffffffff1673ffffffffffffffffffffffffffffffffffffffff166384f0f65f6040518163ffffffff1660e01b8152600401602060405180830381865afa15801561104f573d6000803e3d6000fd5b505050506040513d601f19601f82011682018060405250810190611073919061464c565b82610120015110159050801561108d5761108c82612b16565b5b600960009054906101000a900473ffffffffffffffffffffffffffffffffffffffff1673ffffffffffffffffffffffffffffffffffffffff16636f7ffca68385336040518463ffffffff1660e01b81526004016110ec9392919061499c565b600060405180830381600087803b15801561110657600080fd5b505af115801561111a573d6000803e3d6000fd5b5050505050505050565b7f000000000000000000000000000000000000000000000000000000000000000081565b60007f00000000000000000000000000000000000000000000000000000000000000008260c00151101561117f57600190506111b4565b7f00000000000000000000000000000000000000000000000000000000000000008260e001516111af919061452b565b431190505b919050565b7f000000000000000000000000000000000000000000000000000000000000000081565b6111e5612d17565b8060000151600860006101000a81548173ffffffffffffffffffffffffffffffffffffffff021916908373ffffffffffffffffffffffffffffffffffffffff1602179055508060200151600760006101000a81548173ffffffffffffffffffffffffffffffffffffffff021916908373ffffffffffffffffffffffffffffffffffffffff1602179055508060400151600960006101000a81548173ffffffffffffffffffffffffffffffffffffffff021916908373ffffffffffffffffffffffffffffffffffffffff1602179055508060600151600660006101000a81548173ffffffffffffffffffffffffffffffffffffffff021916908373ffffffffffffffffffffffffffffffffffffffff1602179055508060800151600b60006101000a81548173ffffffffffffffffffffffffffffffffffffffff021916908373ffffffffffffffffffffffffffffffffffffffff1602179055508060a00151600a60006101000a81548173ffffffffffffffffffffffffffffffffffffffff021916908373ffffffffffffffffffffffffffffffffffffffff16021790555050565b600c5481565b600d5481565b61139a612d17565b6113a46000612d95565b565b60016020528060005260406000206000915054906101000a900460ff1681565b6060600360008373ffffffffffffffffffffffffffffffffffffffff1673ffffffffffffffffffffffffffffffffffffffff16815260200190815260200160002080548060200260200160405190810160405280929190818152602001828054801561145157602002820191906000526020600020905b81548152602001906001019080831161143d575b50505050509050919050565b6000600760009054906101000a900473ffffffffffffffffffffffffffffffffffffffff1673ffffffffffffffffffffffffffffffffffffffff166365ab21b0336040518263ffffffff1660e01b81526004016114ba9190613fb5565b600060405180830381865afa1580156114d7573d6000803e3d6000fd5b505050506040513d6000823e3d601f19601f820116820180604052508101906115009190614c4c565b9050600860009054906101000a900473ffffffffffffffffffffffffffffffffffffffff1673ffffffffffffffffffffffffffffffffffffffff16639497c6086001336040518363ffffffff1660e01b8152600401611560929190614316565b602060405180830381865afa15801561157d573d6000803e3d6000fd5b505050506040513d601f19601f820116820180604052508101906115a19190614354565b6115e0576040517f08c379a00000000000000000000000000000000000000000000000000000000081526004016115d790614ce1565b60405180910390fd5b8060a0015115611625576040517f08c379a000000000000000000000000000000000000000000000000000000000815260040161161c90614d4d565b60405180910390fd5b61162e81611148565b61166d576040517f08c379a000000000000000000000000000000000000000000000000000000000815260040161166490614db9565b60405180910390fd5b600c8160c00151106116b4576040517f08c379a00000000000000000000000000000000000000000000000000000000081526004016116ab90614e25565b60405180910390fd5b6116bc612e59565b6116c46130c9565b50565b60008060009054906101000a900473ffffffffffffffffffffffffffffffffffffffff16905090565b6116f8612d17565b60018060008373ffffffffffffffffffffffffffffffffffffffff1673ffffffffffffffffffffffffffffffffffffffff16815260200190815260200160002060006101000a81548160ff02191690831515021790555050565b7f000000000000000000000000000000000000000000000000000000000000000081565b600f5481565b6000600160008373ffffffffffffffffffffffffffffffffffffffff1673ffffffffffffffffffffffffffffffffffffffff16815260200190815260200160002060009054906101000a900460ff169050919050565b6000437f000000000000000000000000000000000000000000000000000000000000000060046000858152602001908152602001600020600a0154611817919061452b565b6118219190614e45565b9050919050565b7f000000000000000000000000000000000000000000000000000000000000000081565b7f000000000000000000000000000000000000000000000000000000000000000081565b600860009054906101000a900473ffffffffffffffffffffffffffffffffffffffff1673ffffffffffffffffffffffffffffffffffffffff16639497c6086002336040518363ffffffff1660e01b81526004016118ce929190614316565b602060405180830381865afa1580156118eb573d6000803e3d6000fd5b505050506040513d601f19601f8201168201806040525081019061190f9190614354565b61194e576040517f08c379a0000000000000000000000000000000000000000000000000000000008152600401611945906143de565b60405180910390fd5b600660009054906101000a900473ffffffffffffffffffffffffffffffffffffffff1673ffffffffffffffffffffffffffffffffffffffff16634d5ff1d3336040518263ffffffff1660e01b81526004016119a99190613fb5565b602060405180830381865afa1580156119c6573d6000803e3d6000fd5b505050506040513d601f19601f820116820180604052508101906119ea9190614354565b611a29576040517f08c379a0000000000000000000000000000000000000000000000000000000008152600401611a2090614ec5565b60405180910390fd5b600060046000838152602001908152602001600020604051806101e0016040529081600082015481526020016001820160009054906101000a900460ff166004811115611a7957611a78613ffd565b5b6004811115611a8b57611a8a613ffd565b5b81526020016001820160019054906101000a900473ffffffffffffffffffffffffffffffffffffffff1673ffffffffffffffffffffffffffffffffffffffff1673ffffffffffffffffffffffffffffffffffffffff1681526020016002820160009054906101000a900473ffffffffffffffffffffffffffffffffffffffff1673ffffffffffffffffffffffffffffffffffffffff1673ffffffffffffffffffffffffffffffffffffffff168152602001600382015481526020016004820154815260200160058201548152602001600682018054611b699061429d565b80601f0160208091040260200160405190810160405280929190818152602001828054611b959061429d565b8015611be25780601f10611bb757610100808354040283529160200191611be2565b820191906000526020600020905b815481529060010190602001808311611bc557829003601f168201915b50505050508152602001600782018054611bfb9061429d565b80601f0160208091040260200160405190810160405280929190818152602001828054611c279061429d565b8015611c745780601f10611c4957610100808354040283529160200191611c74565b820191906000526020600020905b815481529060010190602001808311611c5757829003601f168201915b505050505081526020016008820154815260200160098201548152602001600a8201548152602001600b8201548152602001600c8201548152602001600d820154815250509050600181600001511015611d03576040517f08c379a0000000000000000000000000000000000000000000000000000000008152600401611cfa90614f31565b60405180910390fd5b611d0b613158565b611d4a576040517f08c379a0000000000000000000000000000000000000000000000000000000008152600401611d4190614fc3565b60405180910390fd5b600260003373ffffffffffffffffffffffffffffffffffffffff1673ffffffffffffffffffffffffffffffffffffffff1681526020019081526020016000206000826040015173ffffffffffffffffffffffffffffffffffffffff1673ffffffffffffffffffffffffffffffffffffffff16815260200190815260200160002060009054906101000a900460ff1615611e18576040517f08c379a0000000000000000000000000000000000000000000000000000000008152600401611e0f90615055565b60405180910390fd5b60006004811115611e2c57611e2b613ffd565b5b81602001516004811115611e4357611e42613ffd565b5b14611e83576040517f08c379a0000000000000000000000000000000000000000000000000000000008152600401611e7a906150c1565b60405180910390fd5b611e8c8161354e565b611ecb576040517f08c379a0000000000000000000000000000000000000000000000000000000008152600401611ec29061512d565b60405180910390fd5b611ed361358a565b611f12576040517f08c379a0000000000000000000000000000000000000000000000000000000008152600401611f0990615199565b60405180910390fd5b600181602001906004811115611f2b57611f2a613ffd565b5b90816004811115611f3f57611f3e613ffd565b5b81525050438161016001818152505033816060019073ffffffffffffffffffffffffffffffffffffffff16908173ffffffffffffffffffffffffffffffffffffffff168152505080600460008481526020019081526020016000206000820151816000015560208201518160010160006101000a81548160ff02191690836004811115611fcf57611fce613ffd565b5b021790555060408201518160010160016101000a81548173ffffffffffffffffffffffffffffffffffffffff021916908373ffffffffffffffffffffffffffffffffffffffff16021790555060608201518160020160006101000a81548173ffffffffffffffffffffffffffffffffffffffff021916908373ffffffffffffffffffffffffffffffffffffffff1602179055506080820151816003015560a0820151816004015560c0820151816005015560e08201518160060190816120959190614891565b506101008201518160070190816120ac9190614891565b506101208201518160080155610140820151816009015561016082015181600a015561018082015181600b01556101a082015181600c01556101c082015181600d0155905050600760009054906101000a900473ffffffffffffffffffffffffffffffffffffffff1673ffffffffffffffffffffffffffffffffffffffff16631db6420482604001516040518263ffffffff1660e01b81526004016121519190613fb5565b600060405180830381600087803b15801561216b57600080fd5b505af115801561217f573d6000803e3d6000fd5b50505050600660009054906101000a900473ffffffffffffffffffffffffffffffffffffffff1673ffffffffffffffffffffffffffffffffffffffff1663d518ad5f33846040518363ffffffff1660e01b81526004016121e09291906151b9565b600060405180830381600087803b1580156121fa57600080fd5b505af115801561220e573d6000803e3d6000fd5b505050505050565b600e5481565b612224613756565b60046000838152602001908152602001600020604051806101e0016040529081600082015481526020016001820160009054906101000a900460ff16600481111561227257612271613ffd565b5b600481111561228457612283613ffd565b5b81526020016001820160019054906101000a900473ffffffffffffffffffffffffffffffffffffffff1673ffffffffffffffffffffffffffffffffffffffff1673ffffffffffffffffffffffffffffffffffffffff1681526020016002820160009054906101000a900473ffffffffffffffffffffffffffffffffffffffff1673ffffffffffffffffffffffffffffffffffffffff1673ffffffffffffffffffffffffffffffffffffffff1681526020016003820154815260200160048201548152602001600582015481526020016006820180546123629061429d565b80601f016020809104026020016040519081016040528092919081815260200182805461238e9061429d565b80156123db5780601f106123b0576101008083540402835291602001916123db565b820191906000526020600020905b8154815290600101906020018083116123be57829003601f168201915b505050505081526020016007820180546123f49061429d565b80601f01602080910402602001604051908101604052809291908181526020018280546124209061429d565b801561246d5780601f106124425761010080835404028352916020019161246d565b820191906000526020600020905b81548152906001019060200180831161245057829003601f168201915b505050505081526020016008820154815260200160098201548152602001600a8201548152602001600b8201548152602001600c8201548152602001600d820154815250509050919050565b6124c1612d17565b600073ffffffffffffffffffffffffffffffffffffffff168173ffffffffffffffffffffffffffffffffffffffff1603612530576040517f08c379a000000000000000000000000000000000000000000000000000000000815260040161252790615254565b60405180910390fd5b61253981612d95565b50565b60028560200190600481111561255557612554613ffd565b5b9081600481111561256957612568613ffd565b5b8152505081856080018181525050808560a0018181525050600b60009054906101000a900473ffffffffffffffffffffffffffffffffffffffff1673ffffffffffffffffffffffffffffffffffffffff16631cb9a02a83836040518363ffffffff1660e01b81526004016125de929190615274565b602060405180830381865afa1580156125fb573d6000803e3d6000fd5b505050506040513d601f19601f8201168201806040525081019061261f919061464c565b8560c0018181525050838560e00181905250828561010001819052504385610180018181525050600760009054906101000a900473ffffffffffffffffffffffffffffffffffffffff1673ffffffffffffffffffffffffffffffffffffffff1663e8f3c27a6040518163ffffffff1660e01b8152600401602060405180830381865afa1580156126b3573d6000803e3d6000fd5b505050506040513d601f19601f820116820180604052508101906126d7919061464c565b856101a00181815250508460046000876000015181526020019081526020016000206000820151816000015560208201518160010160006101000a81548160ff0219169083600481111561272e5761272d613ffd565b5b021790555060408201518160010160016101000a81548173ffffffffffffffffffffffffffffffffffffffff021916908373ffffffffffffffffffffffffffffffffffffffff16021790555060608201518160020160006101000a81548173ffffffffffffffffffffffffffffffffffffffff021916908373ffffffffffffffffffffffffffffffffffffffff1602179055506080820151816003015560a0820151816004015560c0820151816005015560e08201518160060190816127f49190614891565b5061010082015181600701908161280b9190614891565b506101208201518160080155610140820151816009015561016082015181600a015561018082015181600b01556101a082015181600c01556101c082015181600d01559050505050505050565b600081604001519050600082606001519050600a60009054906101000a900473ffffffffffffffffffffffffffffffffffffffff1673ffffffffffffffffffffffffffffffffffffffff16632a27962183600760009054906101000a900473ffffffffffffffffffffffffffffffffffffffff1673ffffffffffffffffffffffffffffffffffffffff166330d91ee1868860c001516040518363ffffffff1660e01b815260040161290a9291906151b9565b6020604051808303816000875af1158015612929573d6000803e3d6000fd5b505050506040513d601f19601f8201168201806040525081019061294d919061464c565b84600660009054906101000a900473ffffffffffffffffffffffffffffffffffffffff1673ffffffffffffffffffffffffffffffffffffffff1663a1ce8d3a876040518263ffffffff1660e01b81526004016129a99190613fb5565b6020604051808303816000875af11580156129c8573d6000803e3d6000fd5b505050506040513d601f19601f820116820180604052508101906129ec919061464c565b6040518563ffffffff1660e01b8152600401612a0b949392919061529d565b600060405180830381600087803b158015612a2557600080fd5b505af1158015612a39573d6000803e3d6000fd5b50505050600360008373ffffffffffffffffffffffffffffffffffffffff1673ffffffffffffffffffffffffffffffffffffffff16815260200190815260200160002083600001519080600181540180825580915050600190039060005260206000200160009091909190915055600360008273ffffffffffffffffffffffffffffffffffffffff1673ffffffffffffffffffffffffffffffffffffffff16815260200190815260200160002083600001519080600181540180825580915050600190039060005260206000200160009091909190915055505050565b8060800151600e6000828254612b2c9190614e45565b925050819055508060a00151600f6000828254612b499190614e45565b92505081905550600c6000815480929190612b63906152e2565b9190505550600481602001906004811115612b8157612b80613ffd565b5b90816004811115612b9557612b94613ffd565b5b8152505043816101c00181815250508060046000836000015181526020019081526020016000206000820151816000015560208201518160010160006101000a81548160ff02191690836004811115612bf157612bf0613ffd565b5b021790555060408201518160010160016101000a81548173ffffffffffffffffffffffffffffffffffffffff021916908373ffffffffffffffffffffffffffffffffffffffff16021790555060608201518160020160006101000a81548173ffffffffffffffffffffffffffffffffffffffff021916908373ffffffffffffffffffffffffffffffffffffffff1602179055506080820151816003015560a0820151816004015560c0820151816005015560e0820151816006019081612cb79190614891565b50610100820151816007019081612cce9190614891565b506101208201518160080155610140820151816009015561016082015181600a015561018082015181600b01556101a082015181600c01556101c082015181600d015590505050565b612d1f613738565b73ffffffffffffffffffffffffffffffffffffffff16612d3d6116c7565b73ffffffffffffffffffffffffffffffffffffffff1614612d93576040517f08c379a0000000000000000000000000000000000000000000000000000000008152600401612d8a90615357565b60405180910390fd5b565b60008060009054906101000a900473ffffffffffffffffffffffffffffffffffffffff169050816000806101000a81548173ffffffffffffffffffffffffffffffffffffffff021916908373ffffffffffffffffffffffffffffffffffffffff1602179055508173ffffffffffffffffffffffffffffffffffffffff168173ffffffffffffffffffffffffffffffffffffffff167f8be0079c531659141344cd1fd0a4f28419497f9722a3daafe3b4186f6b6457e060405160405180910390a35050565b612e61613756565b6001600d54612e70919061452b565b816000018181525050600081602001906004811115612e9257612e91613ffd565b5b90816004811115612ea657612ea5613ffd565b5b8152505033816040019073ffffffffffffffffffffffffffffffffffffffff16908173ffffffffffffffffffffffffffffffffffffffff16815250506000816060019073ffffffffffffffffffffffffffffffffffffffff16908173ffffffffffffffffffffffffffffffffffffffff168152505043816101400181815250508060046000836000015181526020019081526020016000206000820151816000015560208201518160010160006101000a81548160ff02191690836004811115612f7357612f72613ffd565b5b021790555060408201518160010160016101000a81548173ffffffffffffffffffffffffffffffffffffffff021916908373ffffffffffffffffffffffffffffffffffffffff16021790555060608201518160020160006101000a81548173ffffffffffffffffffffffffffffffffffffffff021916908373ffffffffffffffffffffffffffffffffffffffff1602179055506080820151816003015560a0820151816004015560c0820151816005015560e08201518160060190816130399190614891565b506101008201518160070190816130509190614891565b506101208201518160080155610140820151816009015561016082015181600a015561018082015181600b01556101a082015181600c01556101c082015181600d0155905050600c60008154809291906130a990615377565b9190505550600d60008154809291906130c190615377565b919050555050565b600760009054906101000a900473ffffffffffffffffffffffffffffffffffffffff1673ffffffffffffffffffffffffffffffffffffffff166394c3cee9336040518263ffffffff1660e01b81526004016131249190613fb5565b600060405180830381600087803b15801561313e57600080fd5b505af1158015613152573d6000803e3d6000fd5b50505050565b600080600660009054906101000a900473ffffffffffffffffffffffffffffffffffffffff1673ffffffffffffffffffffffffffffffffffffffff1663e8f7dfcf336040518263ffffffff1660e01b81526004016131b69190613fb5565b600060405180830381865afa1580156131d3573d6000803e3d6000fd5b505050506040513d6000823e3d601f19601f820116820180604052508101906131fc919061553d565b90506000600460008360e001518152602001908152602001600020604051806101e0016040529081600082015481526020016001820160009054906101000a900460ff16600481111561325257613251613ffd565b5b600481111561326457613263613ffd565b5b81526020016001820160019054906101000a900473ffffffffffffffffffffffffffffffffffffffff1673ffffffffffffffffffffffffffffffffffffffff1673ffffffffffffffffffffffffffffffffffffffff1681526020016002820160009054906101000a900473ffffffffffffffffffffffffffffffffffffffff1673ffffffffffffffffffffffffffffffffffffffff1673ffffffffffffffffffffffffffffffffffffffff1681526020016003820154815260200160048201548152602001600582015481526020016006820180546133429061429d565b80601f016020809104026020016040519081016040528092919081815260200182805461336e9061429d565b80156133bb5780601f10613390576101008083540402835291602001916133bb565b820191906000526020600020905b81548152906001019060200180831161339e57829003601f168201915b505050505081526020016007820180546133d49061429d565b80601f01602080910402602001604051908101604052809291908181526020018280546134009061429d565b801561344d5780601f106134225761010080835404028352916020019161344d565b820191906000526020600020905b81548152906001019060200180831161343057829003601f168201915b505050505081526020016008820154815260200160098201548152602001600a8201548152602001600b8201548152602001600c8201548152602001600d82015481525050905060007f00000000000000000000000000000000000000000000000000000000000000008261016001516134c7919061452b565b431190506000600260048111156134e1576134e0613ffd565b5b836020015160048111156134f8576134f7613ffd565b5b148061352b575060048081111561351257613511613ffd565b5b8360200151600481111561352957613528613ffd565b5b145b905080806135365750815b80613545575060008460e00151145b94505050505090565b60007f0000000000000000000000000000000000000000000000000000000000000000826101400151613581919061452b565b43119050919050565b60007f0000000000000000000000000000000000000000000000000000000000000000600760009054906101000a900473ffffffffffffffffffffffffffffffffffffffff1673ffffffffffffffffffffffffffffffffffffffff1663582256f16040518163ffffffff1660e01b8152600401602060405180830381865afa15801561361a573d6000803e3d6000fd5b505050506040513d601f19601f8201168201806040525081019061363e919061464c565b101561364d5760009050613735565b7f00000000000000000000000000000000000000000000000000000000000000006137317f0000000000000000000000000000000000000000000000000000000000000000600760009054906101000a900473ffffffffffffffffffffffffffffffffffffffff1673ffffffffffffffffffffffffffffffffffffffff1663582256f16040518163ffffffff1660e01b8152600401602060405180830381865afa1580156136ff573d6000803e3d6000fd5b505050506040513d601f19601f82011682018060405250810190613723919061464c565b61374090919063ffffffff16565b1190505b90565b600033905090565b6000818361374e9190614e45565b905092915050565b604051806101e00160405280600081526020016000600481111561377d5761377c613ffd565b5b8152602001600073ffffffffffffffffffffffffffffffffffffffff168152602001600073ffffffffffffffffffffffffffffffffffffffff16815260200160008152602001600081526020016000815260200160608152602001606081526020016000815260200160008152602001600081526020016000815260200160008152602001600081525090565b6000604051905090565b600080fd5b600080fd5b6000819050919050565b6138318161381e565b811461383c57600080fd5b50565b60008135905061384e81613828565b92915050565b600080fd5b600080fd5b6000601f19601f8301169050919050565b7f4e487b7100000000000000000000000000000000000000000000000000000000600052604160045260246000fd5b6138a78261385e565b810181811067ffffffffffffffff821117156138c6576138c561386f565b5b80604052505050565b60006138d961380a565b90506138e5828261389e565b919050565b600067ffffffffffffffff8211156139055761390461386f565b5b61390e8261385e565b9050602081019050919050565b82818337600083830152505050565b600061393d613938846138ea565b6138cf565b90508281526020810184848401111561395957613958613859565b5b61396484828561391b565b509392505050565b600082601f83011261398157613980613854565b5b813561399184826020860161392a565b91505092915050565b600080600080600060a086880312156139b6576139b5613814565b5b60006139c48882890161383f565b955050602086013567ffffffffffffffff8111156139e5576139e4613819565b5b6139f18882890161396c565b945050604086013567ffffffffffffffff811115613a1257613a11613819565b5b613a1e8882890161396c565b9350506060613a2f8882890161383f565b9250506080613a408882890161383f565b9150509295509295909350565b60008060408385031215613a6457613a63613814565b5b6000613a728582860161383f565b925050602083013567ffffffffffffffff811115613a9357613a92613819565b5b613a9f8582860161396c565b9150509250929050565b613ab28161381e565b82525050565b6000602082019050613acd6000830184613aa9565b92915050565b600080fd5b600080fd5b600073ffffffffffffffffffffffffffffffffffffffff82169050919050565b6000613b0882613add565b9050919050565b613b1881613afd565b8114613b2357600080fd5b50565b600081359050613b3581613b0f565b92915050565b60008115159050919050565b613b5081613b3b565b8114613b5b57600080fd5b50565b600081359050613b6d81613b47565b92915050565b600060208284031215613b8957613b88613ad3565b5b613b9360206138cf565b90506000613ba38482850161383f565b60008301525092915050565b600060408284031215613bc557613bc4613ad3565b5b613bcf60406138cf565b90506000613bdf84828501613b5e565b6000830152506020613bf38482850161383f565b60208301525092915050565b60006101a08284031215613c1657613c15613ad3565b5b613c216101806138cf565b90506000613c318482850161383f565b6000830152506020613c4584828501613b26565b602083015250604082013567ffffffffffffffff811115613c6957613c68613ad8565b5b613c758482850161396c565b604083015250606082013567ffffffffffffffff811115613c9957613c98613ad8565b5b613ca58482850161396c565b6060830152506080613cb98482850161383f565b60808301525060a0613ccd84828501613b5e565b60a08301525060c0613ce18482850161383f565b60c08301525060e0613cf58482850161383f565b60e083015250610100613d0a84828501613b73565b61010083015250610120613d2084828501613baf565b61012083015250610160613d368482850161383f565b61014083015250610180613d4c8482850161383f565b6101608301525092915050565b600060208284031215613d6f57613d6e613814565b5b600082013567ffffffffffffffff811115613d8d57613d8c613819565b5b613d9984828501613bff565b91505092915050565b613dab81613b3b565b82525050565b6000602082019050613dc66000830184613da2565b92915050565b600060c08284031215613de257613de1613ad3565b5b613dec60c06138cf565b90506000613dfc84828501613b26565b6000830152506020613e1084828501613b26565b6020830152506040613e2484828501613b26565b6040830152506060613e3884828501613b26565b6060830152506080613e4c84828501613b26565b60808301525060a0613e6084828501613b26565b60a08301525092915050565b600060c08284031215613e8257613e81613814565b5b6000613e9084828501613dcc565b91505092915050565b600060208284031215613eaf57613eae613814565b5b6000613ebd84828501613b26565b91505092915050565b600081519050919050565b600082825260208201905092915050565b6000819050602082019050919050565b613efb8161381e565b82525050565b6000613f0d8383613ef2565b60208301905092915050565b6000602082019050919050565b6000613f3182613ec6565b613f3b8185613ed1565b9350613f4683613ee2565b8060005b83811015613f77578151613f5e8882613f01565b9750613f6983613f19565b925050600181019050613f4a565b5085935050505092915050565b60006020820190508181036000830152613f9e8184613f26565b905092915050565b613faf81613afd565b82525050565b6000602082019050613fca6000830184613fa6565b92915050565b600060208284031215613fe657613fe5613814565b5b6000613ff48482850161383f565b91505092915050565b7f4e487b7100000000000000000000000000000000000000000000000000000000600052602160045260246000fd5b6005811061403d5761403c613ffd565b5b50565b600081905061404e8261402c565b919050565b600061405e82614040565b9050919050565b61406e81614053565b82525050565b61407d81613afd565b82525050565b600081519050919050565b600082825260208201905092915050565b60005b838110156140bd5780820151818401526020810190506140a2565b60008484015250505050565b60006140d482614083565b6140de818561408e565b93506140ee81856020860161409f565b6140f78161385e565b840191505092915050565b60006101e08301600083015161411b6000860182613ef2565b50602083015161412e6020860182614065565b5060408301516141416040860182614074565b5060608301516141546060860182614074565b5060808301516141676080860182613ef2565b5060a083015161417a60a0860182613ef2565b5060c083015161418d60c0860182613ef2565b5060e083015184820360e08601526141a582826140c9565b9150506101008301518482036101008601526141c182826140c9565b9150506101208301516141d8610120860182613ef2565b506101408301516141ed610140860182613ef2565b50610160830151614202610160860182613ef2565b50610180830151614217610180860182613ef2565b506101a083015161422c6101a0860182613ef2565b506101c08301516142416101c0860182613ef2565b508091505092915050565b600060208201905081810360008301526142668184614102565b905092915050565b7f4e487b7100000000000000000000000000000000000000000000000000000000600052602260045260246000fd5b600060028204905060018216806142b557607f821691505b6020821081036142c8576142c761426e565b5b50919050565b600a81106142df576142de613ffd565b5b50565b60008190506142f0826142ce565b919050565b6000614300826142e2565b9050919050565b614310816142f5565b82525050565b600060408201905061432b6000830185614307565b6143386020830184613fa6565b9392505050565b60008151905061434e81613b47565b92915050565b60006020828403121561436a57614369613814565b5b60006143788482850161433f565b91505092915050565b600082825260208201905092915050565b7f506c6561736520726567697374657220617320696e73706563746f7200000000600082015250565b60006143c8601c83614381565b91506143d382614392565b602082019050919050565b600060208201905081810360008301526143f7816143bb565b9050919050565b7f416363657074207468697320696e7370656374696f6e206265666f7265000000600082015250565b6000614434601d83614381565b915061443f826143fe565b602082019050919050565b6000602082019050818103600083015261446381614427565b9050919050565b7f596f752068617665206e6f74206163636570746564207468697320696e73706560008201527f6374696f6e000000000000000000000000000000000000000000000000000000602082015250565b60006144c6602583614381565b91506144d18261446a565b604082019050919050565b600060208201905081810360008301526144f5816144b9565b9050919050565b7f4e487b7100000000000000000000000000000000000000000000000000000000600052601160045260246000fd5b60006145368261381e565b91506145418361381e565b9250828201905080821115614559576145586144fc565b5b92915050565b7f496e7370656374696f6e20457870697265640000000000000000000000000000600082015250565b6000614595601283614381565b91506145a08261455f565b602082019050919050565b600060208201905081810360008301526145c481614588565b9050919050565b7f506c656173652072656769737465722061732076616c696461746f7200000000600082015250565b6000614601601c83614381565b915061460c826145cb565b602082019050919050565b60006020820190508181036000830152614630816145f4565b9050919050565b60008151905061464681613828565b92915050565b60006020828403121561466257614661613814565b5b600061467084828501614637565b91505092915050565b7f43616e206e6f74206164642076616c69646174696f6e20616e796d6f72650000600082015250565b60006146af601e83614381565b91506146ba82614679565b602082019050919050565b600060208201905081810360008301526146de816146a2565b9050919050565b60008190508160005260206000209050919050565b60006020601f8301049050919050565b600082821b905092915050565b6000600883026147477fffffffffffffffffffffffffffffffffffffffffffffffffffffffffffffffff8261470a565b614751868361470a565b95508019841693508086168417925050509392505050565b6000819050919050565b600061478e6147896147848461381e565b614769565b61381e565b9050919050565b6000819050919050565b6147a883614773565b6147bc6147b482614795565b848454614717565b825550505050565b600090565b6147d16147c4565b6147dc81848461479f565b505050565b5b81811015614800576147f56000826147c9565b6001810190506147e2565b5050565b601f82111561484557614816816146e5565b61481f846146fa565b8101602085101561482e578190505b61484261483a856146fa565b8301826147e1565b50505b505050565b600082821c905092915050565b60006148686000198460080261484a565b1980831691505092915050565b60006148818383614857565b9150826002028217905092915050565b61489a82614083565b67ffffffffffffffff8111156148b3576148b261386f565b5b6148bd825461429d565b6148c8828285614804565b600060209050601f8311600181146148fb57600084156148e9578287015190505b6148f38582614875565b86555061495b565b601f198416614909866146e5565b60005b828110156149315784890151825560018201915060208501945060208101905061490c565b8683101561494e578489015161494a601f891682614857565b8355505b6001600288020188555050505b505050505050565b600061496e82614083565b6149788185614381565b935061498881856020860161409f565b6149918161385e565b840191505092915050565b600060608201905081810360008301526149b68186614102565b905081810360208301526149ca8185614963565b90506149d96040830184613fa6565b949350505050565b6000815190506149f081613b0f565b92915050565b6000614a09614a04846138ea565b6138cf565b905082815260208101848484011115614a2557614a24613859565b5b614a3084828561409f565b509392505050565b600082601f830112614a4d57614a4c613854565b5b8151614a5d8482602086016149f6565b91505092915050565b600060208284031215614a7c57614a7b613ad3565b5b614a8660206138cf565b90506000614a9684828501614637565b60008301525092915050565b600060408284031215614ab857614ab7613ad3565b5b614ac260406138cf565b90506000614ad28482850161433f565b6000830152506020614ae684828501614637565b60208301525092915050565b60006101a08284031215614b0957614b08613ad3565b5b614b146101806138cf565b90506000614b2484828501614637565b6000830152506020614b38848285016149e1565b602083015250604082015167ffffffffffffffff811115614b5c57614b5b613ad8565b5b614b6884828501614a38565b604083015250606082015167ffffffffffffffff811115614b8c57614b8b613ad8565b5b614b9884828501614a38565b6060830152506080614bac84828501614637565b60808301525060a0614bc08482850161433f565b60a08301525060c0614bd484828501614637565b60c08301525060e0614be884828501614637565b60e083015250610100614bfd84828501614a66565b61010083015250610120614c1384828501614aa2565b61012083015250610160614c2984828501614637565b61014083015250610180614c3f84828501614637565b6101608301525092915050565b600060208284031215614c6257614c61613814565b5b600082015167ffffffffffffffff811115614c8057614c7f613819565b5b614c8c84828501614af2565b91505092915050565b7f506c6561736520726567697374657220617320726567656e657261746f720000600082015250565b6000614ccb601e83614381565b9150614cd682614c95565b602082019050919050565b60006020820190508181036000830152614cfa81614cbe565b9050919050565b7f5265717565737420616c7265616479204f50454e000000000000000000000000600082015250565b6000614d37601483614381565b9150614d4282614d01565b602082019050919050565b60006020820190508181036000830152614d6681614d2a565b9050919050565b7f5761697420746f20726571756573740000000000000000000000000000000000600082015250565b6000614da3600f83614381565b9150614dae82614d6d565b602082019050919050565b60006020820190508181036000830152614dd281614d96565b9050919050565b7f596f75206861766520636f6d706c6574656420796f7572206d697373696f6e00600082015250565b6000614e0f601f83614381565b9150614e1a82614dd9565b602082019050919050565b60006020820190508181036000830152614e3e81614e02565b9050919050565b6000614e508261381e565b9150614e5b8361381e565b9250828203905081811115614e7357614e726144fc565b5b92915050565b7f4e6f206d6f7265207468616e2033206769766555707320616c6c6f7765640000600082015250565b6000614eaf601e83614381565b9150614eba82614e79565b602082019050919050565b60006020820190508181036000830152614ede81614ea2565b9050919050565b7f5468697320696e7370656374696f6e20646f206e6f7420657869737400000000600082015250565b6000614f1b601c83614381565b9150614f2682614ee5565b602082019050919050565b60006020820190508181036000830152614f4a81614f0e565b9050919050565b7f596f7520616c7265616479206861766520616e20696e7370656374696f6e204160008201527f6363657074656400000000000000000000000000000000000000000000000000602082015250565b6000614fad602783614381565b9150614fb882614f51565b604082019050919050565b60006020820190508181036000830152614fdc81614fa0565b9050919050565b7f416c726561647920696e73706563746564207468697320726567656e6572617460008201527f6f72000000000000000000000000000000000000000000000000000000000000602082015250565b600061503f602283614381565b915061504a82614fe3565b604082019050919050565b6000602082019050818103600083015261506e81615032565b9050919050565b7f5468697320696e7370656374696f6e206973206e6f74204f50454e0000000000600082015250565b60006150ab601b83614381565b91506150b682615075565b602082019050919050565b600060208201905081810360008301526150da8161509e565b9050919050565b7f5761697420696e7370656374696f6e2064656c617920626c6f636b7300000000600082015250565b6000615117601c83614381565b9150615122826150e1565b602082019050919050565b600060208201905081810360008301526151468161510a565b9050919050565b7f5761697420756e74696c206e6578742065726120746f20616363657074000000600082015250565b6000615183601d83614381565b915061518e8261514d565b602082019050919050565b600060208201905081810360008301526151b281615176565b9050919050565b60006040820190506151ce6000830185613fa6565b6151db6020830184613aa9565b9392505050565b7f4f776e61626c653a206e6577206f776e657220697320746865207a65726f206160008201527f6464726573730000000000000000000000000000000000000000000000000000602082015250565b600061523e602683614381565b9150615249826151e2565b604082019050919050565b6000602082019050818103600083015261526d81615231565b9050919050565b60006040820190506152896000830185613aa9565b6152966020830184613aa9565b9392505050565b60006080820190506152b26000830187613fa6565b6152bf6020830186613aa9565b6152cc6040830185613fa6565b6152d96060830184613aa9565b95945050505050565b60006152ed8261381e565b915060008203615300576152ff6144fc565b5b600182039050919050565b7f4f776e61626c653a2063616c6c6572206973206e6f7420746865206f776e6572600082015250565b6000615341602083614381565b915061534c8261530b565b602082019050919050565b6000602082019050818103600083015261537081615334565b9050919050565b60006153828261381e565b91507fffffffffffffffffffffffffffffffffffffffffffffffffffffffffffffffff82036153b4576153b36144fc565b5b600182019050919050565b6000604082840312156153d5576153d4613ad3565b5b6153df60406138cf565b905060006153ef84828501614637565b600083015250602061540384828501614637565b60208301525092915050565b6000610160828403121561542657615425613ad3565b5b6154316101406138cf565b9050600061544184828501614637565b6000830152506020615455848285016149e1565b602083015250604082015167ffffffffffffffff81111561547957615478613ad8565b5b61548584828501614a38565b604083015250606082015167ffffffffffffffff8111156154a9576154a8613ad8565b5b6154b584828501614a38565b60608301525060806154c984828501614637565b60808301525060a06154dd84828501614637565b60a08301525060c06154f184828501614637565b60c08301525060e061550584828501614637565b60e08301525061010061551a848285016153bf565b6101008301525061014061553084828501614637565b6101208301525092915050565b60006020828403121561555357615552613814565b5b600082015167ffffffffffffffff81111561557157615570613819565b5b61557d8482850161540f565b9150509291505056fea2646970667358221220473192257dafb706e7ab475fd83e80ca155f62cb44cbd83e31e0e7d5bafdd02264736f6c634300081b0033",
  "linkReferences": {},
  "deployedLinkReferences": {}
}