{
  "_format": "hh-sol-artifact-1",
  "contractName": "InspectionRules",
  "sourceName": "contracts/InspectionRules.sol",
  "abi": [
    {
      "inputs": [
        {
          "internalType": "uint32",
          "name": "timeBetweenInspections_",
          "type": "uint32"
        },
        {
          "internalType": "uint32",
          "name": "blocksToExpireAcceptedInspection_",
          "type": "uint32"
        },
        {
          "internalType": "uint8",
          "name": "allowedInitialRequests_",
          "type": "uint8"
        },
        {
          "internalType": "uint32",
          "name": "acceptInspectionDelayBlocks_",
          "type": "uint32"
        },
        {
          "internalType": "uint32",
          "name": "securityBlocksToValidation_",
          "type": "uint32"
        }
      ],
      "stateMutability": "nonpayable",
      "type": "constructor"
    },
    {
      "inputs": [
        {
          "internalType": "address",
          "name": "owner",
          "type": "address"
        }
      ],
      "name": "OwnableInvalidOwner",
      "type": "error"
    },
    {
      "inputs": [
        {
          "internalType": "address",
          "name": "account",
          "type": "address"
        }
      ],
      "name": "OwnableUnauthorizedAccount",
      "type": "error"
    },
    {
      "inputs": [],
      "name": "ReentrancyGuardReentrantCall",
      "type": "error"
    },
    {
      "anonymous": false,
      "inputs": [
        {
          "indexed": true,
          "internalType": "uint256",
          "name": "inspectionId",
          "type": "uint256"
        },
        {
          "indexed": true,
          "internalType": "address",
          "name": "inspectorAddress",
          "type": "address"
        },
        {
          "indexed": false,
          "internalType": "uint256",
          "name": "acceptedAt",
          "type": "uint256"
        }
      ],
      "name": "InspectionAccepted",
      "type": "event"
    },
    {
      "anonymous": false,
      "inputs": [
        {
          "indexed": true,
          "internalType": "uint256",
          "name": "inspectionId",
          "type": "uint256"
        },
        {
          "indexed": true,
          "internalType": "address",
          "name": "inspectorAddress",
          "type": "address"
        },
        {
          "indexed": true,
          "internalType": "address",
          "name": "regeneratorAddress",
          "type": "address"
        },
        {
          "indexed": false,
          "internalType": "uint256",
          "name": "invalidatedAt",
          "type": "uint256"
        }
      ],
      "name": "InspectionInvalidated",
      "type": "event"
    },
    {
      "anonymous": false,
      "inputs": [
        {
          "indexed": true,
          "internalType": "uint256",
          "name": "inspectionId",
          "type": "uint256"
        },
        {
          "indexed": true,
          "internalType": "address",
          "name": "inspectorAddress",
          "type": "address"
        },
        {
          "indexed": true,
          "internalType": "address",
          "name": "regeneratorAddress",
          "type": "address"
        },
        {
          "indexed": false,
          "internalType": "uint32",
          "name": "treesResult",
          "type": "uint32"
        },
        {
          "indexed": false,
          "internalType": "uint32",
          "name": "biodiversityResult",
          "type": "uint32"
        },
        {
          "indexed": false,
          "internalType": "uint32",
          "name": "regenerationScore",
          "type": "uint32"
        },
        {
          "indexed": false,
          "internalType": "uint256",
          "name": "inspectedAt",
          "type": "uint256"
        }
      ],
      "name": "InspectionRealized",
      "type": "event"
    },
    {
      "anonymous": false,
      "inputs": [
        {
          "indexed": true,
          "internalType": "uint256",
          "name": "inspectionId",
          "type": "uint256"
        },
        {
          "indexed": true,
          "internalType": "address",
          "name": "regeneratorAddress",
          "type": "address"
        },
        {
          "indexed": false,
          "internalType": "uint256",
          "name": "createdAt",
          "type": "uint256"
        }
      ],
      "name": "InspectionRequested",
      "type": "event"
    },
    {
      "anonymous": false,
      "inputs": [
        {
          "indexed": true,
          "internalType": "address",
          "name": "_validatorAddress",
          "type": "address"
        },
        {
          "indexed": false,
          "internalType": "uint256",
          "name": "_resourceId",
          "type": "uint256"
        },
        {
          "indexed": false,
          "internalType": "string",
          "name": "_justification",
          "type": "string"
        }
      ],
      "name": "InspectionValidation",
      "type": "event"
    },
    {
      "anonymous": false,
      "inputs": [
        {
          "indexed": true,
          "internalType": "address",
          "name": "previousOwner",
          "type": "address"
        },
        {
          "indexed": true,
          "internalType": "address",
          "name": "newOwner",
          "type": "address"
        }
      ],
      "name": "OwnershipTransferred",
      "type": "event"
    },
    {
      "inputs": [],
      "name": "MAX_BIODIVERSITY_RESULT",
      "outputs": [
        {
          "internalType": "uint32",
          "name": "",
          "type": "uint32"
        }
      ],
      "stateMutability": "view",
      "type": "function"
    },
    {
      "inputs": [],
      "name": "MAX_REGENERATOR_INSPECTIONS",
      "outputs": [
        {
          "internalType": "uint8",
          "name": "",
          "type": "uint8"
        }
      ],
      "stateMutability": "view",
      "type": "function"
    },
    {
      "inputs": [
        {
          "internalType": "uint64",
          "name": "inspectionId",
          "type": "uint64"
        }
      ],
      "name": "acceptInspection",
      "outputs": [],
      "stateMutability": "nonpayable",
      "type": "function"
    },
    {
      "inputs": [],
      "name": "acceptInspectionDelayBlocks",
      "outputs": [
        {
          "internalType": "uint32",
          "name": "",
          "type": "uint32"
        }
      ],
      "stateMutability": "view",
      "type": "function"
    },
    {
      "inputs": [
        {
          "components": [
            {
              "internalType": "uint64",
              "name": "id",
              "type": "uint64"
            },
            {
              "internalType": "enum InspectionStatus",
              "name": "status",
              "type": "uint8"
            },
            {
              "internalType": "address",
              "name": "regenerator",
              "type": "address"
            },
            {
              "internalType": "address",
              "name": "inspector",
              "type": "address"
            },
            {
              "internalType": "uint32",
              "name": "treesResult",
              "type": "uint32"
            },
            {
              "internalType": "uint32",
              "name": "biodiversityResult",
              "type": "uint32"
            },
            {
              "internalType": "uint32",
              "name": "regenerationScore",
              "type": "uint32"
            },
            {
              "internalType": "string",
              "name": "proofPhotos",
              "type": "string"
            },
            {
              "internalType": "string",
              "name": "justificationReport",
              "type": "string"
            },
            {
              "internalType": "uint256",
              "name": "validationsCount",
              "type": "uint256"
            },
            {
              "internalType": "uint256",
              "name": "createdAt",
              "type": "uint256"
            },
            {
              "internalType": "uint256",
              "name": "acceptedAt",
              "type": "uint256"
            },
            {
              "internalType": "uint256",
              "name": "inspectedAt",
              "type": "uint256"
            },
            {
              "internalType": "uint256",
              "name": "inspectedAtEra",
              "type": "uint256"
            },
            {
              "internalType": "uint256",
              "name": "invalidatedAt",
              "type": "uint256"
            }
          ],
          "internalType": "struct Inspection",
          "name": "inspection",
          "type": "tuple"
        }
      ],
      "name": "acceptInspectionDelayBlocksPassed",
      "outputs": [
        {
          "internalType": "bool",
          "name": "",
          "type": "bool"
        }
      ],
      "stateMutability": "view",
      "type": "function"
    },
    {
      "inputs": [],
      "name": "activistRules",
      "outputs": [
        {
          "internalType": "contract IActivistRules",
          "name": "",
          "type": "address"
        }
      ],
      "stateMutability": "view",
      "type": "function"
    },
    {
      "inputs": [
        {
          "internalType": "uint64",
          "name": "id",
          "type": "uint64"
        },
        {
          "internalType": "string",
          "name": "justification",
          "type": "string"
        }
      ],
      "name": "addInspectionValidation",
      "outputs": [],
      "stateMutability": "nonpayable",
      "type": "function"
    },
    {
      "inputs": [],
      "name": "allowedInitialRequests",
      "outputs": [
        {
          "internalType": "uint8",
          "name": "",
          "type": "uint8"
        }
      ],
      "stateMutability": "view",
      "type": "function"
    },
    {
      "inputs": [],
      "name": "alreadyHaveInspectionAccepted",
      "outputs": [
        {
          "internalType": "bool",
          "name": "",
          "type": "bool"
        }
      ],
      "stateMutability": "view",
      "type": "function"
    },
    {
      "inputs": [],
      "name": "blocksToExpireAcceptedInspection",
      "outputs": [
        {
          "internalType": "uint32",
          "name": "",
          "type": "uint32"
        }
      ],
      "stateMutability": "view",
      "type": "function"
    },
    {
      "inputs": [
        {
          "internalType": "uint64",
          "name": "inspectionId",
          "type": "uint64"
        }
      ],
      "name": "calculateBlocksToExpire",
      "outputs": [
        {
          "internalType": "uint256",
          "name": "",
          "type": "uint256"
        }
      ],
      "stateMutability": "view",
      "type": "function"
    },
    {
      "inputs": [],
      "name": "communityRules",
      "outputs": [
        {
          "internalType": "contract ICommunityRules",
          "name": "",
          "type": "address"
        }
      ],
      "stateMutability": "view",
      "type": "function"
    },
    {
      "inputs": [
        {
          "internalType": "uint64",
          "name": "id",
          "type": "uint64"
        }
      ],
      "name": "getInspection",
      "outputs": [
        {
          "components": [
            {
              "internalType": "uint64",
              "name": "id",
              "type": "uint64"
            },
            {
              "internalType": "enum InspectionStatus",
              "name": "status",
              "type": "uint8"
            },
            {
              "internalType": "address",
              "name": "regenerator",
              "type": "address"
            },
            {
              "internalType": "address",
              "name": "inspector",
              "type": "address"
            },
            {
              "internalType": "uint32",
              "name": "treesResult",
              "type": "uint32"
            },
            {
              "internalType": "uint32",
              "name": "biodiversityResult",
              "type": "uint32"
            },
            {
              "internalType": "uint32",
              "name": "regenerationScore",
              "type": "uint32"
            },
            {
              "internalType": "string",
              "name": "proofPhotos",
              "type": "string"
            },
            {
              "internalType": "string",
              "name": "justificationReport",
              "type": "string"
            },
            {
              "internalType": "uint256",
              "name": "validationsCount",
              "type": "uint256"
            },
            {
              "internalType": "uint256",
              "name": "createdAt",
              "type": "uint256"
            },
            {
              "internalType": "uint256",
              "name": "acceptedAt",
              "type": "uint256"
            },
            {
              "internalType": "uint256",
              "name": "inspectedAt",
              "type": "uint256"
            },
            {
              "internalType": "uint256",
              "name": "inspectedAtEra",
              "type": "uint256"
            },
            {
              "internalType": "uint256",
              "name": "invalidatedAt",
              "type": "uint256"
            }
          ],
          "internalType": "struct Inspection",
          "name": "",
          "type": "tuple"
        }
      ],
      "stateMutability": "view",
      "type": "function"
    },
    {
      "inputs": [
        {
          "internalType": "address",
          "name": "addr",
          "type": "address"
        }
      ],
      "name": "getInspectionsHistory",
      "outputs": [
        {
          "internalType": "uint64[]",
          "name": "",
          "type": "uint64[]"
        }
      ],
      "stateMutability": "view",
      "type": "function"
    },
    {
      "inputs": [
        {
          "internalType": "uint256",
          "name": "",
          "type": "uint256"
        }
      ],
      "name": "impactPerEra",
      "outputs": [
        {
          "internalType": "uint256",
          "name": "trees",
          "type": "uint256"
        },
        {
          "internalType": "uint256",
          "name": "biodiversity",
          "type": "uint256"
        }
      ],
      "stateMutability": "view",
      "type": "function"
    },
    {
      "inputs": [
        {
          "internalType": "uint64",
          "name": "",
          "type": "uint64"
        }
      ],
      "name": "inspectionPenalized",
      "outputs": [
        {
          "internalType": "bool",
          "name": "",
          "type": "bool"
        }
      ],
      "stateMutability": "view",
      "type": "function"
    },
    {
      "inputs": [],
      "name": "inspectionsBiodiversityImpact",
      "outputs": [
        {
          "internalType": "uint256",
          "name": "",
          "type": "uint256"
        }
      ],
      "stateMutability": "view",
      "type": "function"
    },
    {
      "inputs": [],
      "name": "inspectionsCount",
      "outputs": [
        {
          "internalType": "uint64",
          "name": "",
          "type": "uint64"
        }
      ],
      "stateMutability": "view",
      "type": "function"
    },
    {
      "inputs": [],
      "name": "inspectionsTotalCount",
      "outputs": [
        {
          "internalType": "uint64",
          "name": "",
          "type": "uint64"
        }
      ],
      "stateMutability": "view",
      "type": "function"
    },
    {
      "inputs": [],
      "name": "inspectionsTreesImpact",
      "outputs": [
        {
          "internalType": "uint256",
          "name": "",
          "type": "uint256"
        }
      ],
      "stateMutability": "view",
      "type": "function"
    },
    {
      "inputs": [],
      "name": "inspectorRules",
      "outputs": [
        {
          "internalType": "contract IInspectorRules",
          "name": "",
          "type": "address"
        }
      ],
      "stateMutability": "view",
      "type": "function"
    },
    {
      "inputs": [
        {
          "components": [
            {
              "internalType": "uint64",
              "name": "id",
              "type": "uint64"
            },
            {
              "internalType": "enum InspectionStatus",
              "name": "status",
              "type": "uint8"
            },
            {
              "internalType": "address",
              "name": "regenerator",
              "type": "address"
            },
            {
              "internalType": "address",
              "name": "inspector",
              "type": "address"
            },
            {
              "internalType": "uint32",
              "name": "treesResult",
              "type": "uint32"
            },
            {
              "internalType": "uint32",
              "name": "biodiversityResult",
              "type": "uint32"
            },
            {
              "internalType": "uint32",
              "name": "regenerationScore",
              "type": "uint32"
            },
            {
              "internalType": "string",
              "name": "proofPhotos",
              "type": "string"
            },
            {
              "internalType": "string",
              "name": "justificationReport",
              "type": "string"
            },
            {
              "internalType": "uint256",
              "name": "validationsCount",
              "type": "uint256"
            },
            {
              "internalType": "uint256",
              "name": "createdAt",
              "type": "uint256"
            },
            {
              "internalType": "uint256",
              "name": "acceptedAt",
              "type": "uint256"
            },
            {
              "internalType": "uint256",
              "name": "inspectedAt",
              "type": "uint256"
            },
            {
              "internalType": "uint256",
              "name": "inspectedAtEra",
              "type": "uint256"
            },
            {
              "internalType": "uint256",
              "name": "invalidatedAt",
              "type": "uint256"
            }
          ],
          "internalType": "struct Inspection",
          "name": "inspection",
          "type": "tuple"
        }
      ],
      "name": "isInspectionExpired",
      "outputs": [
        {
          "internalType": "bool",
          "name": "",
          "type": "bool"
        }
      ],
      "stateMutability": "view",
      "type": "function"
    },
    {
      "inputs": [],
      "name": "lastSettledEra",
      "outputs": [
        {
          "internalType": "uint256",
          "name": "",
          "type": "uint256"
        }
      ],
      "stateMutability": "view",
      "type": "function"
    },
    {
      "inputs": [],
      "name": "owner",
      "outputs": [
        {
          "internalType": "address",
          "name": "",
          "type": "address"
        }
      ],
      "stateMutability": "view",
      "type": "function"
    },
    {
      "inputs": [
        {
          "internalType": "uint64",
          "name": "inspectionId",
          "type": "uint64"
        },
        {
          "internalType": "string",
          "name": "proofPhotos",
          "type": "string"
        },
        {
          "internalType": "string",
          "name": "justificationReport",
          "type": "string"
        },
        {
          "internalType": "uint32",
          "name": "treesResult",
          "type": "uint32"
        },
        {
          "internalType": "uint32",
          "name": "biodiversityResult",
          "type": "uint32"
        }
      ],
      "name": "realizeInspection",
      "outputs": [],
      "stateMutability": "nonpayable",
      "type": "function"
    },
    {
      "inputs": [],
      "name": "realizedInspectionsCount",
      "outputs": [
        {
          "internalType": "uint64",
          "name": "",
          "type": "uint64"
        }
      ],
      "stateMutability": "view",
      "type": "function"
    },
    {
      "inputs": [],
      "name": "regenerationIndexRules",
      "outputs": [
        {
          "internalType": "contract IRegenerationIndexRules",
          "name": "",
          "type": "address"
        }
      ],
      "stateMutability": "view",
      "type": "function"
    },
    {
      "inputs": [],
      "name": "regeneratorRules",
      "outputs": [
        {
          "internalType": "contract IRegeneratorRules",
          "name": "",
          "type": "address"
        }
      ],
      "stateMutability": "view",
      "type": "function"
    },
    {
      "inputs": [],
      "name": "renounceOwnership",
      "outputs": [],
      "stateMutability": "nonpayable",
      "type": "function"
    },
    {
      "inputs": [],
      "name": "requestInspection",
      "outputs": [],
      "stateMutability": "nonpayable",
      "type": "function"
    },
    {
      "inputs": [],
      "name": "securityBlocksToValidation",
      "outputs": [
        {
          "internalType": "uint32",
          "name": "",
          "type": "uint32"
        }
      ],
      "stateMutability": "view",
      "type": "function"
    },
    {
      "inputs": [
        {
          "components": [
            {
              "internalType": "address",
              "name": "communityRulesAddress",
              "type": "address"
            },
            {
              "internalType": "address",
              "name": "regeneratorRulesAddress",
              "type": "address"
            },
            {
              "internalType": "address",
              "name": "validationRulesAddress",
              "type": "address"
            },
            {
              "internalType": "address",
              "name": "inspectorRulesAddress",
              "type": "address"
            },
            {
              "internalType": "address",
              "name": "regenerationIndexRulesAddress",
              "type": "address"
            },
            {
              "internalType": "address",
              "name": "activistRulesAddress",
              "type": "address"
            },
            {
              "internalType": "address",
              "name": "voteRulesAddress",
              "type": "address"
            }
          ],
          "internalType": "struct ContractsDependency",
          "name": "contractDependency",
          "type": "tuple"
        }
      ],
      "name": "setContractInterfaces",
      "outputs": [],
      "stateMutability": "nonpayable",
      "type": "function"
    },
    {
      "inputs": [],
      "name": "timeBetweenInspections",
      "outputs": [
        {
          "internalType": "uint32",
          "name": "",
          "type": "uint32"
        }
      ],
      "stateMutability": "view",
      "type": "function"
    },
    {
      "inputs": [
        {
          "internalType": "address",
          "name": "newOwner",
          "type": "address"
        }
      ],
      "name": "transferOwnership",
      "outputs": [],
      "stateMutability": "nonpayable",
      "type": "function"
    },
    {
      "inputs": [],
      "name": "validationRules",
      "outputs": [
        {
          "internalType": "contract IValidationRules",
          "name": "",
          "type": "address"
        }
      ],
      "stateMutability": "view",
      "type": "function"
    },
    {
      "inputs": [],
      "name": "voteRules",
      "outputs": [
        {
          "internalType": "contract IVoteRules",
          "name": "",
          "type": "address"
        }
      ],
      "stateMutability": "view",
      "type": "function"
    },
    {
      "inputs": [
        {
          "components": [
            {
              "internalType": "uint64",
              "name": "id",
              "type": "uint64"
            },
            {
              "internalType": "address",
              "name": "regeneratorWallet",
              "type": "address"
            },
            {
              "internalType": "string",
              "name": "name",
              "type": "string"
            },
            {
              "internalType": "string",
              "name": "proofPhoto",
              "type": "string"
            },
            {
              "internalType": "uint32",
              "name": "totalArea",
              "type": "uint32"
            },
            {
              "internalType": "bool",
              "name": "pendingInspection",
              "type": "bool"
            },
            {
              "internalType": "uint256",
              "name": "totalInspections",
              "type": "uint256"
            },
            {
              "internalType": "uint256",
              "name": "lastRequestAt",
              "type": "uint256"
            },
            {
              "components": [
                {
                  "internalType": "uint256",
                  "name": "score",
                  "type": "uint256"
                }
              ],
              "internalType": "struct RegenerationScore",
              "name": "regenerationScore",
              "type": "tuple"
            },
            {
              "components": [
                {
                  "internalType": "bool",
                  "name": "onContractPool",
                  "type": "bool"
                },
                {
                  "internalType": "uint256",
                  "name": "currentEra",
                  "type": "uint256"
                }
              ],
              "internalType": "struct Pool",
              "name": "pool",
              "type": "tuple"
            },
            {
              "internalType": "uint256",
              "name": "createdAt",
              "type": "uint256"
            },
            {
              "internalType": "uint256",
              "name": "coordinatesCount",
              "type": "uint256"
            },
            {
              "internalType": "bool",
              "name": "isFullyInvalidated",
              "type": "bool"
            }
          ],
          "internalType": "struct Regenerator",
          "name": "regenerator",
          "type": "tuple"
        }
      ],
      "name": "waitToRequest",
      "outputs": [
        {
          "internalType": "bool",
          "name": "",
          "type": "bool"
        }
      ],
      "stateMutability": "view",
      "type": "function"
    }
  ],
  "bytecode": "0x61012060405234801561001157600080fd5b50604051614c59380380614c59833981016040819052610030916100f5565b338061005657604051631e4fbdf760e01b81526000600482015260240160405180910390fd5b61005f8161008c565b506001805563ffffffff94851660a05292841660c05260ff909116608052821660e0521661010052610162565b600080546001600160a01b038381166001600160a01b0319831681178455604051919092169283917f8be0079c531659141344cd1fd0a4f28419497f9722a3daafe3b4186f6b6457e09190a35050565b805163ffffffff811681146100f057600080fd5b919050565b600080600080600060a0868803121561010d57600080fd5b610116866100dc565b9450610124602087016100dc565b9350604086015160ff8116811461013a57600080fd5b9250610148606087016100dc565b9150610156608087016100dc565b90509295509295909350565b60805160a05160c05160e05161010051614a6d6101ec600039600081816102b40152612fae01526000818161055201526109f001526000818161052b015281816105ff015281816108d60152818161209a015281816124e101528181612f040152612fd50152600081816102f001526109b001526000818161049601526109790152614a6d6000f3fe608060405234801561001057600080fd5b50600436106102275760003560e01c806386ae2fb111610130578063ce59654a116100b8578063e734b8131161007c578063e734b81314610574578063ed8f932114610587578063ee05057f14610590578063f2fde38b146105b0578063fc533ca9146105c357600080fd5b8063ce59654a146104f7578063d62ae3481461050a578063e0d56bde14610513578063e42c955114610526578063e710483d1461054d57600080fd5b806395a29b62116100ff57806395a29b621461047e5780639df79c9214610491578063a2b570a4146104b8578063b90070dd146104c1578063be15277e146104d457600080fd5b806386ae2fb114610420578063896e9ae2146104285780638da5cb5b1461046457806392f265d71461047557600080fd5b806355e7cfe5116101b35780636ec08376116101825780636ec08376146103bf578063715018a6146103d257806376007252146103da5780637b798468146103ed57806386297de91461040d57600080fd5b806355e7cfe51461035257806361a7581b1461037d57806364bbc515146103925780636b2edc16146103a557600080fd5b806335c11677116101fa57806335c11677146102af5780633dbf1e8f146102eb5780633eef1a2a146103125780634d3fbe61146103255780635401c1f21461033f57600080fd5b80630cda2cce1461022c57806316d2bd3414610252578063180d794414610284578063216e13491461029c575b600080fd5b61023f61023a366004613b71565b6105d6565b6040519081526020015b60405180910390f35b60025461026c90600160401b90046001600160401b031681565b6040516001600160401b039091168152602001610249565b61028c610635565b6040519015158152602001610249565b61028c6102aa366004613de2565b610975565b6102d67f000000000000000000000000000000000000000000000000000000000000000081565b60405163ffffffff9091168152602001610249565b6102d67f000000000000000000000000000000000000000000000000000000000000000081565b61028c610320366004613f36565b6109ec565b61032d600681565b60405160ff9091168152602001610249565b60025461026c906001600160401b031681565b600d54610365906001600160a01b031681565b6040516001600160a01b039091168152602001610249565b61039061038b36600461408e565b610a25565b005b600954610365906001600160a01b031681565b60025461026c90600160801b90046001600160401b031681565b6103906103cd36600461412a565b610ac6565b61039061130d565b600c54610365906001600160a01b031681565b6104006103fb366004614179565b611321565b6040516102499190614196565b61039061041b366004613b71565b6113bf565b610390611e5b565b61044f6104363660046141e2565b6011602052600090815260409020805460019091015482565b60408051928352602083019190915201610249565b6000546001600160a01b0316610365565b6102d661012c81565b600f54610365906001600160a01b031681565b61032d7f000000000000000000000000000000000000000000000000000000000000000081565b61023f60045481565b61028c6104cf366004613f36565b612087565b61028c6104e2366004613b71565b60056020526000908152604090205460ff1681565b600b54610365906001600160a01b031681565b61023f60125481565b600e54610365906001600160a01b031681565b6102d67f000000000000000000000000000000000000000000000000000000000000000081565b6102d67f000000000000000000000000000000000000000000000000000000000000000081565b6103906105823660046141fb565b6120cf565b61023f60035481565b6105a361059e366004613b71565b61282a565b6040516102499190614316565b6103906105be366004614179565b612aeb565b600a54610365906001600160a01b031681565b6001600160401b03811660009081526006602081905260408220015443906106259063ffffffff7f0000000000000000000000000000000000000000000000000000000000000000169061444b565b61062f919061445e565b92915050565b60095460405163e8f7dfcf60e01b815233600482015260009182916001600160a01b039091169063e8f7dfcf90602401600060405180830381865afa158015610682573d6000803e3d6000fd5b505050506040513d6000823e601f3d908101601f191682016040526106aa9190810190614505565b6101008101516001600160401b03908116600090815260066020908152604080832081516101e08101909252805494851682529495509193919290830190600160401b900460ff1660038111156107035761070361429c565b60038111156107145761071461429c565b815281546001600160a01b03600160481b909104811660208301526001830154908116604083015263ffffffff600160a01b820481166060840152600160c01b820481166080840152600160e01b9091041660a082015260028201805460c0909201916107809061461e565b80601f01602080910402602001604051908101604052809291908181526020018280546107ac9061461e565b80156107f95780601f106107ce576101008083540402835291602001916107f9565b820191906000526020600020905b8154815290600101906020018083116107dc57829003601f168201915b505050505081526020016003820180546108129061461e565b80601f016020809104026020016040519081016040528092919081815260200182805461083e9061461e565b801561088b5780601f106108605761010080835404028352916020019161088b565b820191906000526020600020905b81548152906001019060200180831161086e57829003601f168201915b505050505081526020016004820154815260200160058201548152602001600682015481526020016007820154815260200160088201548152602001600982015481525050905060007f000000000000000000000000000000000000000000000000000000000000000063ffffffff1682610160015161090b919061444b565b4311905060006002836020015160038111156109295761092961429c565b148061094a57506003836020015160038111156109485761094861429c565b145b905080806109555750815b8061096c57506101008401516001600160401b0316155b94505050505090565b60007f000000000000000000000000000000000000000000000000000000000000000060ff168260c0015110156109ae57506001919050565b7f000000000000000000000000000000000000000000000000000000000000000063ffffffff168260e001516109e4919061444b565b431192915050565b60007f000000000000000000000000000000000000000000000000000000000000000063ffffffff168261014001516109e4919061444b565b610a2d612b26565b8051600b80546001600160a01b03199081166001600160a01b03938416179091556020830151600a805483169184169190911790556040830151600c8054831691841691909117905560608301516009805483169184169190911790556080830151600f8054831691841691909117905560a0830151600d8054831691841691909117905560c090920151600e80549093169116179055565b610ace612b53565b600b5460405163e838dfbb60e01b81523360048201526001600160a01b039091169063e838dfbb90602401602060405180830381865afa158015610b16573d6000803e3d6000fd5b505050506040513d601f19601f82011682018060405250810190610b3a9190614663565b15610b7a5760405162461bcd60e51b815260206004820152600b60248201526a155cd95c8819195b9a595960aa1b60448201526064015b60405180910390fd5b805161012c1015610bc65760405162461bcd60e51b815260206004820152601660248201527513585e0818da185c9858dd195c9cc81c995858da195960521b6044820152606401610b71565b600e546040516356fd539760e11b81523360048201526001600160a01b039091169063adfaa72e90602401602060405180830381865afa158015610c0e573d6000803e3d6000fd5b505050506040513d601f19601f82011682018060405250810190610c329190614663565b610c6c5760405162461bcd60e51b815260206004820152600b60248201526a2737ba1030903b37ba32b960a91b6044820152606401610b71565b600c54604051630d84466b60e21b81523360048201526001600160a01b039091169063361119ac90602401602060405180830381865afa158015610cb4573d6000803e3d6000fd5b505050506040513d601f19601f82011682018060405250810190610cd89190614663565b610d1c5760405162461bcd60e51b8152602060048201526015602482015274576169742074696d654265747765656e566f74657360581b6044820152606401610b71565b3360009081526010602090815260408083206001600160401b038616845290915290205460ff1615610d805760405162461bcd60e51b815260206004820152600d60248201526c105b1c9958591e481d9bdd1959609a1b6044820152606401610b71565b6001600160401b03821660009081526005602052604090205460ff1615610de95760405162461bcd60e51b815260206004820152601960248201527f50656e616c7469657320616c7265616479206170706c696564000000000000006044820152606401610b71565b3360009081526010602090815260408083206001600160401b03861684528252808320805460ff1916600117905560068252918290206008810154600a54845163e05cf15560e01b81529451929491936001600160a01b03919091169263e05cf1559260048082019392918290030181865afa158015610e6d573d6000803e3d6000fd5b505050506040513d601f19601f82011682018060405250810190610e919190614680565b14610ed75760405162461bcd60e51b815260206004820152601660248201527543616e27742076616c696461646520616e796d6f726560501b6044820152606401610b71565b805460016001600160401b0390911610801590610f0b575060025481546001600160401b03600160801b9092048216911611155b610f575760405162461bcd60e51b815260206004820152601960248201527f496e7370656374696f6e20646f6573206e6f74206578697374000000000000006044820152606401610b71565b60028154600160401b900460ff166003811115610f7657610f7661429c565b14610fc35760405162461bcd60e51b815260206004820152601d60248201527f4f6e6c7920746f20696e7370656374656420696e7370656374696f6e730000006044820152606401610b71565b6001816004016000828254610fd8919061444b565b9091555050600c54604080516369bf81c360e01b815290516000926001600160a01b0316916369bf81c39160048083019260209291908290030181865afa158015611027573d6000803e3d6000fd5b505050506040513d601f19601f8201168201806040525081019061104b9190614680565b905060028110156110b15760405162461bcd60e51b815260206004820152602a60248201527f56616c69646174696f6e207468726573686f6c642063616e6e6f74206265206c60448201526932b9b9903a3430b7101960b11b6064820152608401610b71565b8082600401541061125b576001600160401b0384166000908152600560205260409020805460ff191660011790556110e882612b7d565b6009546001830154835460405163b1e8665560e01b81526001600160a01b0392831660048201526001600160401b039091166024820152600092919091169063b1e86655906044016020604051808303816000875af115801561114f573d6000803e3d6000fd5b505050506040513d601f19601f820116820180604052508101906111739190614680565b9050600960009054906101000a90046001600160a01b03166001600160a01b031663b24eb7696040518163ffffffff1660e01b8152600401602060405180830381865afa1580156111c8573d6000803e3d6000fd5b505050506040513d601f19601f820116820180604052508101906111ec9190614699565b60ff16811061125957600954600184015460405163680d64d360e11b81526001600160a01b03918216600482015291169063d01ac9a690602401600060405180830381600087803b15801561124057600080fd5b505af1158015611254573d6000803e3d6000fd5b505050505b505b600c5460405163eb48556b60e01b81523360048201526001600160a01b039091169063eb48556b90602401600060405180830381600087803b1580156112a057600080fd5b505af11580156112b4573d6000803e3d6000fd5b505083546040513393507f804fe88dce417b67dd8890f8cac643949e87d8edcba4e9efb221cbd850c52feb92506112f6916001600160401b03169087906146bc565b60405180910390a2505061130960018055565b5050565b611315612b26565b61131f6000612eb0565b565b6001600160a01b0381166000908152600760209081526040918290208054835181840281018401909452808452606093928301828280156113b357602002820191906000526020600020906000905b82829054906101000a90046001600160401b03166001600160401b0316815260200190600801906020826007010492830192600103820291508084116113705790505b50505050509050919050565b6113c7612b53565b600b54604051631292f8c160e31b81526001600160a01b0390911690639497c608906113fa9060029033906004016146de565b602060405180830381865afa158015611417573d6000803e3d6000fd5b505050506040513d601f19601f8201168201806040525081019061143b9190614663565b6114795760405162461bcd60e51b815260206004820152600f60248201526e4f6e6c7920696e73706563746f727360881b6044820152606401610b71565b600954604051634d5ff1d360e01b81523360048201526001600160a01b0390911690634d5ff1d390602401602060405180830381865afa1580156114c1573d6000803e3d6000fd5b505050506040513d601f19601f820116820180604052508101906114e59190614663565b61152a5760405162461bcd60e51b815260206004820152601660248201527513db9b1e480cc819da5d99555c1cc8185b1b1bddd95960521b6044820152606401610b71565b6001600160401b038082166000908152600660205260409020805490916001911610156115995760405162461bcd60e51b815260206004820152601760248201527f496e7370656374696f6e20646f206e6f742065786973740000000000000000006044820152606401610b71565b6115a1610635565b6115e05760405162461bcd60e51b815260206004820152601060248201526f105b1c9958591e481858d8d95c1d195960821b6044820152606401610b71565b3360009081526008602090815260408083208454600160481b90046001600160a01b0316845290915290205460ff16156116505760405162461bcd60e51b8152602060048201526011602482015270105b1c9958591e481a5b9cdc1958dd1959607a1b6044820152606401610b71565b60008154600160401b900460ff16600381111561166f5761166f61429c565b14806118b0575060018154600160401b900460ff1660038111156116955761169561429c565b1480156118b05750604080516101e0810190915281546001600160401b03811682526118b0919083906020830190600160401b900460ff1660038111156116de576116de61429c565b60038111156116ef576116ef61429c565b815281546001600160a01b03600160481b909104811660208301526001830154908116604083015263ffffffff600160a01b820481166060840152600160c01b820481166080840152600160e01b9091041660a082015260028201805460c09092019161175b9061461e565b80601f01602080910402602001604051908101604052809291908181526020018280546117879061461e565b80156117d45780601f106117a9576101008083540402835291602001916117d4565b820191906000526020600020905b8154815290600101906020018083116117b757829003601f168201915b505050505081526020016003820180546117ed9061461e565b80601f01602080910402602001604051908101604052809291908181526020018280546118199061461e565b80156118665780601f1061183b57610100808354040283529160200191611866565b820191906000526020600020905b81548152906001019060200180831161184957829003601f168201915b505050505081526020016004820154815260200160058201548152602001600682015481526020016007820154815260200160088201548152602001600982015481525050612087565b6119075760405162461bcd60e51b815260206004820152602260248201527f496e7370656374696f6e206d757374206265204f50454e206f72204558504952604482015261115160f21b6064820152608401610b71565b604080516101e0810190915281546001600160401b0381168252611b1a919083906020830190600160401b900460ff1660038111156119485761194861429c565b60038111156119595761195961429c565b815281546001600160a01b03600160481b909104811660208301526001830154908116604083015263ffffffff600160a01b820481166060840152600160c01b820481166080840152600160e01b9091041660a082015260028201805460c0909201916119c59061461e565b80601f01602080910402602001604051908101604052809291908181526020018280546119f19061461e565b8015611a3e5780601f10611a1357610100808354040283529160200191611a3e565b820191906000526020600020905b815481529060010190602001808311611a2157829003601f168201915b50505050508152602001600382018054611a579061461e565b80601f0160208091040260200160405190810160405280929190818152602001828054611a839061461e565b8015611ad05780601f10611aa557610100808354040283529160200191611ad0565b820191906000526020600020905b815481529060010190602001808311611ab357829003601f168201915b5050505050815260200160048201548152602001600582015481526020016006820154815260200160078201548152602001600882015481526020016009820154815250506109ec565b611b5a5760405162461bcd60e51b8152602060048201526011602482015270576169742064656c617920626c6f636b7360781b6044820152606401610b71565b611b62612f00565b611ba45760405162461bcd60e51b81526020600482015260136024820152725761697420756e74696c206e6578742065726160681b6044820152606401610b71565b600954604051631feeefc760e21b81523360048201526001600160a01b0390911690637fbbbf1c90602401602060405180830381865afa158015611bec573d6000803e3d6000fd5b505050506040513d601f19601f82011682018060405250810190611c109190614663565b611c4d5760405162461bcd60e51b815260206004820152600e60248201526d15d85a5d081d1bc81858d8d95c1d60921b6044820152606401610b71565b600b548154604051631292f8c160e31b81526001600160a01b0392831692639497c60892611c8c92600192600160481b909204909116906004016146de565b602060405180830381865afa158015611ca9573d6000803e3d6000fd5b505050506040513d601f19601f82011682018060405250810190611ccd9190614663565b611d0f5760405162461bcd60e51b8152602060048201526013602482015272149959d95b995c985d1bdc881a5b9d985b1a59606a1b6044820152606401610b71565b8054600160401b60ff60401b19909116178082554360068301556001820180546001600160a01b03191633179055600a5460405163076d908160e21b81526001600160a01b03600160481b90930483166004820152911690631db6420490602401600060405180830381600087803b158015611d8a57600080fd5b505af1158015611d9e573d6000803e3d6000fd5b50506009546040516396cd035760e01b81523360048201526001600160401b03861660248201526001600160a01b0390911692506396cd03579150604401600060405180830381600087803b158015611df657600080fd5b505af1158015611e0a573d6000803e3d6000fd5b50506040514381523392506001600160401b03851691507ff9556ba762f15e7f3671b8f33a1f662df1a146fa3ec77a706435e6e4572ab8d19060200160405180910390a350611e5860018055565b50565b611e63612b53565b600a5460405163065ab21b60e41b81523360048201526000916001600160a01b0316906365ab21b090602401600060405180830381865afa158015611eac573d6000803e3d6000fd5b505050506040513d6000823e601f3d908101601f19168201604052611ed49190810190614774565b600b54604051631292f8c160e31b81529192506001600160a01b031690639497c60890611f089060019033906004016146de565b602060405180830381865afa158015611f25573d6000803e3d6000fd5b505050506040513d601f19601f82011682018060405250810190611f499190614663565b611f895760405162461bcd60e51b81526020600482015260116024820152704f6e6c7920726567656e657261746f727360781b6044820152606401610b71565b8060a0015115611fca5760405162461bcd60e51b815260206004820152600c60248201526b2932b8bab2b9ba1027a822a760a11b6044820152606401610b71565b611fd381610975565b6120115760405162461bcd60e51b815260206004820152600f60248201526e15d85a5d081d1bc81c995c5d595cdd608a1b6044820152606401610b71565b60c08101516006116120655760405162461bcd60e51b815260206004820152601f60248201527f596f75206861766520636f6d706c6574656420796f7572206d697373696f6e006044820152606401610b71565b61206d613081565b612075613514565b61207d613573565b5061131f60018055565b60008082610160015111801561062f57507f000000000000000000000000000000000000000000000000000000000000000063ffffffff168261016001516109e4919061444b565b6120d7612b53565b8351609610156121165760405162461bcd60e51b815260206004820152600a60248201526909ac2f040d8cadccee8d60b31b6044820152606401610b71565b82516103e810156121565760405162461bcd60e51b815260206004820152600a60248201526909ac2f040d8cadccee8d60b31b6044820152606401610b71565b6001600160401b03858116600090815260066020908152604080832081516101e08101909252805494851682529293909291830190600160401b900460ff1660038111156121a6576121a661429c565b60038111156121b7576121b761429c565b815281546001600160a01b03600160481b909104811660208301526001830154908116604083015263ffffffff600160a01b820481166060840152600160c01b820481166080840152600160e01b9091041660a082015260028201805460c0909201916122239061461e565b80601f016020809104026020016040519081016040528092919081815260200182805461224f9061461e565b801561229c5780601f106122715761010080835404028352916020019161229c565b820191906000526020600020905b81548152906001019060200180831161227f57829003601f168201915b505050505081526020016003820180546122b59061461e565b80601f01602080910402602001604051908101604052809291908181526020018280546122e19061461e565b801561232e5780601f106123035761010080835404028352916020019161232e565b820191906000526020600020905b81548152906001019060200180831161231157829003601f168201915b5050505050815260200160048201548152602001600582015481526020016006820154815260200160078201548152602001600882015481526020016009820154815250509050600b60009054906101000a90046001600160a01b03166001600160a01b0316639497c6086002336040518363ffffffff1660e01b81526004016123b99291906146de565b602060405180830381865afa1580156123d6573d6000803e3d6000fd5b505050506040513d601f19601f820116820180604052508101906123fa9190614663565b6124385760405162461bcd60e51b815260206004820152600f60248201526e4f6e6c7920696e73706563746f727360881b6044820152606401610b71565b6001816020015160038111156124505761245061429c565b1461248d5760405162461bcd60e51b815260206004820152600d60248201526c416363657074206265666f726560981b6044820152606401610b71565b60608101516001600160a01b031633146124df5760405162461bcd60e51b81526020600482015260136024820152722737ba103cb7bab91034b739b832b1ba34b7b760691b6044820152606401610b71565b7f000000000000000000000000000000000000000000000000000000000000000063ffffffff16816101600151612516919061444b565b43111561255a5760405162461bcd60e51b8152602060048201526012602482015271125b9cdc1958dd1a5bdb88115e1c1a5c995960721b6044820152606401610b71565b600a54604082810151905163065ab21b60e41b81526001600160a01b03918216600482015260009291909116906365ab21b090602401600060405180830381865afa1580156125ad573d6000803e3d6000fd5b505050506040513d6000823e601f3d908101601f191682016040526125d59190810190614774565b90506000600460ff16826080015163ffffffff166125f391906148ab565b9050808563ffffffff1611156126625760405162461bcd60e51b815260206004820152602e60248201527f5472656520636f756e7420657863656564732064656e73697479206c696d697460448201526d20666f722074686973206172656160901b6064820152608401610b71565b61012c63ffffffff851611156126ad5760405162461bcd60e51b815260206004820152601060248201526f13585e081c995cdd5b1d081b1a5b5a5d60821b6044820152606401610b71565b6126ba8388888888613651565b6126c3836138f5565b60c083015163ffffffff161561277a576101a08301516000908152601160205260408120805463ffffffff881692906126fd90849061444b565b90915550506101a08301516000908152601160205260408120600101805463ffffffff8716929061272f90849061444b565b909155505060028054600160401b90046001600160401b0316906008612754836148c2565b91906101000a8154816001600160401b0302191690836001600160401b03160217905550505b33600081815260086020908152604080832087820180516001600160a01b039081168652918452938290208054600160ff19909116179055925160c0880151825163ffffffff8c811682528b8116958201959095529316838301524360608401529051921692916001600160401b038c16917f2224ef9c9aa3c3be082984f4341bc9e478345a0cdd809d940f034880dfeef864919081900360800190a450505061282360018055565b5050505050565b6128c8604080516101e0810190915260008082526020820190815260200160006001600160a01b0316815260200160006001600160a01b03168152602001600063ffffffff168152602001600063ffffffff168152602001600063ffffffff16815260200160608152602001606081526020016000815260200160008152602001600081526020016000815260200160008152602001600081525090565b6001600160401b0382811660009081526006602090815260409182902082516101e0810190935280549384168352919290830190600160401b900460ff1660038111156129175761291761429c565b60038111156129285761292861429c565b815281546001600160a01b03600160481b909104811660208301526001830154908116604083015263ffffffff600160a01b820481166060840152600160c01b820481166080840152600160e01b9091041660a082015260028201805460c0909201916129949061461e565b80601f01602080910402602001604051908101604052809291908181526020018280546129c09061461e565b8015612a0d5780601f106129e257610100808354040283529160200191612a0d565b820191906000526020600020905b8154815290600101906020018083116129f057829003601f168201915b50505050508152602001600382018054612a269061461e565b80601f0160208091040260200160405190810160405280929190818152602001828054612a529061461e565b8015612a9f5780601f10612a7457610100808354040283529160200191612a9f565b820191906000526020600020905b815481529060010190602001808311612a8257829003601f168201915b5050505050815260200160048201548152602001600582015481526020016006820154815260200160078201548152602001600882015481526020016009820154815250509050919050565b612af3612b26565b6001600160a01b038116612b1d57604051631e4fbdf760e01b815260006004820152602401610b71565b611e5881612eb0565b6000546001600160a01b0316331461131f5760405163118cdaa760e01b8152336004820152602401610b71565b600260015403612b7657604051633ee5aeb560e01b815260040160405180910390fd5b6002600155565b6001810154600882015460009081526011602052604081208054600160a01b90930463ffffffff1692909190612bb490849061445e565b9091555050600181810154600883015460009081526011602052604081209092018054600160c01b90920463ffffffff16929091612bf390849061445e565b9091555050600280546001600160401b0316906000612c11836148ed565b91906101000a8154816001600160401b0302191690836001600160401b03160217905550506002600881819054906101000a90046001600160401b031680929190612c5b906148ed565b82546101009290920a6001600160401b038181021990931691909216919091021790555080546803000000000000000060ff60401b1990911617808255436009830155600a546040516361e4c1e960e11b81526001600160a01b03600160481b9093048316600482015291169063c3c983d290602401600060405180830381600087803b158015612ceb57600080fd5b505af1158015612cff573d6000803e3d6000fd5b5050600a5483546001850154604051631214f86f60e11b8152600160481b9092046001600160a01b039081166004840152600160e01b90910463ffffffff1660248301529091169250632429f0de9150604401600060405180830381600087803b158015612d6c57600080fd5b505af1158015612d80573d6000803e3d6000fd5b505060095460018401546040516361e4c1e960e11b81526001600160a01b0391821660048201529116925063c3c983d29150602401600060405180830381600087803b158015612dcf57600080fd5b505af1158015612de3573d6000803e3d6000fd5b505060095460018401546040516310c791e560e11b81526001600160a01b039182166004820152600060248201529116925063218f23ca9150604401600060405180830381600087803b158015612e3957600080fd5b505af1158015612e4d573d6000803e3d6000fd5b5050825460018401546040514381526001600160a01b03600160481b84048116955090911692506001600160401b03909116907f5030472abe84127f1f2b92ab27763256a3d275c0c827c8cffa506c99cd1ed1049060200160405180910390a450565b600080546001600160a01b038381166001600160a01b0319831681178455604051919092169283917f8be0079c531659141344cd1fd0a4f28419497f9722a3daafe3b4186f6b6457e09190a35050565b60007f000000000000000000000000000000000000000000000000000000000000000063ffffffff16600a60009054906101000a90046001600160a01b03166001600160a01b031663582256f16040518163ffffffff1660e01b8152600401602060405180830381865afa158015612f7c573d6000803e3d6000fd5b505050506040513d601f19601f82011682018060405250810190612fa09190614680565b1015612fac5750600090565b7f000000000000000000000000000000000000000000000000000000000000000063ffffffff167f000000000000000000000000000000000000000000000000000000000000000063ffffffff16600a60009054906101000a90046001600160a01b03166001600160a01b031663582256f16040518163ffffffff1660e01b8152600401602060405180830381865afa15801561304d573d6000803e3d6000fd5b505050506040513d601f19601f820116820180604052508101906130719190614680565b61307b919061445e565b11905090565b60028054600160801b90046001600160401b03169060106130a1836148c2565b82546101009290920a6001600160401b03818102199093169183160217909155600254600160801b90048116600081815260066020908152604080832081516101e0810190925280549586168252939550919391929190830190600160401b900460ff1660038111156131165761311661429c565b60038111156131275761312761429c565b815281546001600160a01b03600160481b909104811660208301526001830154908116604083015263ffffffff600160a01b820481166060840152600160c01b820481166080840152600160e01b9091041660a082015260028201805460c0909201916131939061461e565b80601f01602080910402602001604051908101604052809291908181526020018280546131bf9061461e565b801561320c5780601f106131e15761010080835404028352916020019161320c565b820191906000526020600020905b8154815290600101906020018083116131ef57829003601f168201915b505050505081526020016003820180546132259061461e565b80601f01602080910402602001604051908101604052809291908181526020018280546132519061461e565b801561329e5780601f106132735761010080835404028352916020019161329e565b820191906000526020600020905b81548152906001019060200180831161328157829003601f168201915b50505091835250506004820154602080830191909152600583015460408301526006830154606083015260078301546080830152600883015460a083015260099092015460c0909101526001600160401b0384168252909150600090820181905250336040808301919091526000606083018190524361014084015282516001600160401b039081168252600660209081529290912083518154921667ffffffffffffffff1983168117825592840151849391929091839168ffffffffffffffffff191617600160401b83600381111561337a5761337a61429c565b021790555060408201518154600160481b600160e81b031916600160481b6001600160a01b03928316021782556060830151600183018054608086015160a087015160c0880151949095166001600160c01b031990921691909117600160a01b63ffffffff92831602176001600160c01b0316600160c01b948216949094026001600160e01b031693909317600160e01b939092169290920217905560e0820151600282019061342a908261495c565b506101008201516003820190613440908261495c565b5061012082015160048201556101408201516005820155610160820151600682015561018082015160078201556101a082015160088201556101c090910151600990910155600280546001600160401b031690600061349e836148c2565b91906101000a8154816001600160401b0302191690836001600160401b0316021790555050336001600160a01b0316826001600160401b03167f30053137f0cf60633be984694dd6295bb2027e571b975e37b0cedeefb92b375d4360405161350891815260200190565b60405180910390a35050565b600a546040516394c3cee960e01b81523360048201526001600160a01b03909116906394c3cee990602401600060405180830381600087803b15801561355957600080fd5b505af115801561356d573d6000803e3d6000fd5b50505050565b60006012546001613584919061444b565b9050600a60009054906101000a90046001600160a01b03166001600160a01b031663e05cf1556040518163ffffffff1660e01b8152600401602060405180830381865afa1580156135d9573d6000803e3d6000fd5b505050506040513d601f19601f820116820180604052508101906135fd9190614680565b811015611e585760008181526011602052604081208054600380549293919290919061362a90849061444b565b909155505060018101546004805460009061364690849061444b565b909155505050601255565b6002602086018190525063ffffffff8281166080870181905290821660a08701819052600f5460405163ac2d165360e01b8152600481019390935260248301919091526001600160a01b03169063ac2d165390604401602060405180830381865afa1580156136c4573d6000803e3d6000fd5b505050506040513d601f19601f820116820180604052508101906136e89190614a1a565b63ffffffff1660c086015260e08501849052610100850183905243610180860152600a546040805163e05cf15560e01b815290516001600160a01b039092169163e05cf155916004808201926020929091908290030181865afa158015613753573d6000803e3d6000fd5b505050506040513d601f19601f820116820180604052508101906137779190614680565b6101a086015284516001600160401b03908116600090815260066020908152604090912087518154931667ffffffffffffffff1984168117825591880151889391929091839168ffffffffffffffffff1990911617600160401b8360038111156137e3576137e361429c565b021790555060408201518154600160481b600160e81b031916600160481b6001600160a01b03928316021782556060830151600183018054608086015160a087015160c0880151949095166001600160c01b031990921691909117600160a01b63ffffffff92831602176001600160c01b0316600160c01b948216949094026001600160e01b031693909317600160e01b939092169290920217905560e08201516002820190613893908261495c565b5061010082015160038201906138a9908261495c565b5061012082015160048201556101408201516005820155610160820151600682015561018082015160078201556101a082015160088201556101c0909101516009909101555050505050565b6040818101516060830151600d54600a5460c086015186519551630f1698bb60e11b81526001600160a01b03808716600483015263ffffffff90921660248201526001600160401b039096166044870152939492939182169262b2c9209286921690631e2d3176906064016020604051808303816000875af115801561397f573d6000803e3d6000fd5b505050506040513d601f19601f820116820180604052508101906139a39190614680565b6040516001600160e01b031960e085901b1681526001600160a01b0390921660048301526024820152604401600060405180830381600087803b1580156139e957600080fd5b505af11580156139fd573d6000803e3d6000fd5b5050600d54600954865160405163bf960e8560e01b81526001600160a01b0387811660048301526001600160401b039092166024820152928116945063f1a204ce9350859291169063bf960e85906044016020604051808303816000875af1158015613a6d573d6000803e3d6000fd5b505050506040513d601f19601f82011682018060405250810190613a919190614680565b6040516001600160e01b031960e085901b1681526001600160a01b0390921660048301526024820152604401600060405180830381600087803b158015613ad757600080fd5b505af1158015613aeb573d6000803e3d6000fd5b5050506001600160a01b0390921660009081526007602090815260408220945185546001810187559583529120600485040180546001600160401b0392831660086003909716969096026101000a9586029290950219909416179092555050565b6001600160401b0381168114611e5857600080fd5b8035613b6c81613b4c565b919050565b600060208284031215613b8357600080fd5b8135613b8e81613b4c565b9392505050565b634e487b7160e01b600052604160045260246000fd5b604051602081016001600160401b0381118282101715613bcd57613bcd613b95565b60405290565b604080519081016001600160401b0381118282101715613bcd57613bcd613b95565b6040516101a081016001600160401b0381118282101715613bcd57613bcd613b95565b6040516101e081016001600160401b0381118282101715613bcd57613bcd613b95565b60405160e081016001600160401b0381118282101715613bcd57613bcd613b95565b60405161016081016001600160401b0381118282101715613bcd57613bcd613b95565b604051601f8201601f191681016001600160401b0381118282101715613ca857613ca8613b95565b604052919050565b6001600160a01b0381168114611e5857600080fd5b8035613b6c81613cb0565b60006001600160401b03821115613ce957613ce9613b95565b50601f01601f191660200190565b600082601f830112613d0857600080fd5b8135613d1b613d1682613cd0565b613c80565b818152846020838601011115613d3057600080fd5b816020850160208301376000918101602001919091529392505050565b63ffffffff81168114611e5857600080fd5b8035613b6c81613d4d565b8015158114611e5857600080fd5b8035613b6c81613d6a565b600060208284031215613d9557600080fd5b613d9d613bab565b9135825250919050565b600060408284031215613db957600080fd5b613dc1613bd3565b90508135613dce81613d6a565b815260209182013591810191909152919050565b600060208284031215613df457600080fd5b81356001600160401b03811115613e0a57600080fd5b82016101c08185031215613e1d57600080fd5b613e25613bf5565b613e2e82613b61565b8152613e3c60208301613cc5565b602082015260408201356001600160401b03811115613e5a57600080fd5b613e6686828501613cf7565b60408301525060608201356001600160401b03811115613e8557600080fd5b613e9186828501613cf7565b606083015250613ea360808301613d5f565b6080820152613eb460a08301613d78565b60a082015260c0828101359082015260e08083013590820152613edb856101008401613d83565b610100820152613eef856101208401613da7565b6101208201526101608281013561014083015261018083013590820152613f196101a08301613d78565b610180820152949350505050565b803560048110613b6c57600080fd5b600060208284031215613f4857600080fd5b81356001600160401b03811115613f5e57600080fd5b82016101e08185031215613f7157600080fd5b613f79613c18565b613f8282613b61565b8152613f9060208301613f27565b6020820152613fa160408301613cc5565b6040820152613fb260608301613cc5565b6060820152613fc360808301613d5f565b6080820152613fd460a08301613d5f565b60a0820152613fe560c08301613d5f565b60c082015260e08201356001600160401b0381111561400357600080fd5b61400f86828501613cf7565b60e0830152506101008201356001600160401b0381111561402f57600080fd5b61403b86828501613cf7565b6101008301525061012082810135908201526101408083013590820152610160808301359082015261018080830135908201526101a080830135908201526101c091820135918101919091529392505050565b600060e08284031280156140a157600080fd5b506140aa613c3b565b82356140b581613cb0565b815260208301356140c581613cb0565b602082015260408301356140d881613cb0565b604082015260608301356140eb81613cb0565b60608201526140fc60808401613cc5565b608082015261410d60a08401613cc5565b60a082015261411e60c08401613cc5565b60c08201529392505050565b6000806040838503121561413d57600080fd5b823561414881613b4c565b915060208301356001600160401b0381111561416357600080fd5b61416f85828601613cf7565b9150509250929050565b60006020828403121561418b57600080fd5b8135613b8e81613cb0565b602080825282518282018190526000918401906040840190835b818110156141d75783516001600160401b03168352602093840193909201916001016141b0565b509095945050505050565b6000602082840312156141f457600080fd5b5035919050565b600080600080600060a0868803121561421357600080fd5b853561421e81613b4c565b945060208601356001600160401b0381111561423957600080fd5b61424588828901613cf7565b94505060408601356001600160401b0381111561426157600080fd5b61426d88828901613cf7565b935050606086013561427e81613d4d565b9150608086013561428e81613d4d565b809150509295509295909350565b634e487b7160e01b600052602160045260246000fd5b600481106142c2576142c261429c565b9052565b60005b838110156142e15781810151838201526020016142c9565b50506000910152565b600081518084526143028160208601602086016142c6565b601f01601f19169290920160200192915050565b602081526143306020820183516001600160401b03169052565b6000602083015161434460408401826142b2565b5060408301516001600160a01b03811660608401525060608301516001600160a01b038116608084015250608083015163ffffffff811660a08401525060a083015163ffffffff811660c08401525060c083015163ffffffff811660e08401525060e08301516101e06101008401526143c16102008401826142ea565b9050610100840151601f19848303016101208501526143e082826142ea565b9150506101208401516101408401526101408401516101608401526101608401516101808401526101808401516101a08401526101a08401516101c08401526101c08401516101e08401528091505092915050565b634e487b7160e01b600052601160045260246000fd5b8082018082111561062f5761062f614435565b8181038181111561062f5761062f614435565b8051613b6c81613b4c565b8051613b6c81613cb0565b600082601f83011261449857600080fd5b81516144a6613d1682613cd0565b8181528460208386010111156144bb57600080fd5b6144cc8260208301602087016142c6565b949350505050565b6000604082840312156144e657600080fd5b6144ee613bd3565b825181526020928301519281019290925250919050565b60006020828403121561451757600080fd5b81516001600160401b0381111561452d57600080fd5b8201610180818503121561454057600080fd5b614548613c5d565b61455182614471565b815261455f6020830161447c565b602082015260408201516001600160401b0381111561457d57600080fd5b61458986828501614487565b60408301525060608201516001600160401b038111156145a857600080fd5b6145b486828501614487565b6060830152506080828101519082015260a0808301519082015260c0808301519082015260e080830151908201526145ef6101008301614471565b6101008201526146038561012084016144d4565b61012082015261016091909101516101408201529392505050565b600181811c9082168061463257607f821691505b60208210810361465257634e487b7160e01b600052602260045260246000fd5b50919050565b8051613b6c81613d6a565b60006020828403121561467557600080fd5b8151613b8e81613d6a565b60006020828403121561469257600080fd5b5051919050565b6000602082840312156146ab57600080fd5b815160ff81168114613b8e57600080fd5b6001600160401b03831681526040602082015260006144cc60408301846142ea565b60408101600884106146f2576146f261429c565b9281526001600160a01b039190911660209091015290565b8051613b6c81613d4d565b60006020828403121561472757600080fd5b61472f613bab565b9151825250919050565b60006040828403121561474b57600080fd5b614753613bd3565b9050815161476081613d6a565b815260209182015191810191909152919050565b60006020828403121561478657600080fd5b81516001600160401b0381111561479c57600080fd5b82016101c081850312156147af57600080fd5b6147b7613bf5565b6147c082614471565b81526147ce6020830161447c565b602082015260408201516001600160401b038111156147ec57600080fd5b6147f886828501614487565b60408301525060608201516001600160401b0381111561481757600080fd5b61482386828501614487565b6060830152506148356080830161470a565b608082015261484660a08301614658565b60a082015260c0828101519082015260e0808301519082015261486d856101008401614715565b610100820152614881856101208401614739565b6101208201526101608281015161014083015261018083015190820152613f196101a08301614658565b808202811582820484141761062f5761062f614435565b60006001600160401b0382166001600160401b0381036148e4576148e4614435565b60010192915050565b60006001600160401b0382168061490657614906614435565b6000190192915050565b601f82111561495757806000526020600020601f840160051c810160208510156149375750805b601f840160051c820191505b818110156128235760008155600101614943565b505050565b81516001600160401b0381111561497557614975613b95565b61498981614983845461461e565b84614910565b6020601f8211600181146149bd57600083156149a55750848201515b600019600385901b1c1916600184901b178455612823565b600084815260208120601f198516915b828110156149ed57878501518255602094850194600190920191016149cd565b5084821015614a0b5786840151600019600387901b60f8161c191681555b50505050600190811b01905550565b600060208284031215614a2c57600080fd5b8151613b8e81613d4d56fea2646970667358221220f157790ebf94a67028af20739187ea9e1e7a5763ef0c78068b0a3a26e881c45664736f6c634300081b0033",
  "linkReferences": {},
  "deployedLinkReferences": {}
}