{
  "_format": "hh-sol-artifact-1",
  "contractName": "InspectionRules",
  "sourceName": "contracts/InspectionRules.sol",
  "abi": [
    {
      "inputs": [
        {
          "internalType": "uint32",
          "name": "timeBetweenInspections_",
          "type": "uint32"
        },
        {
          "internalType": "uint32",
          "name": "blocksToExpireAcceptedInspection_",
          "type": "uint32"
        },
        {
          "internalType": "uint8",
          "name": "allowedInitialRequests_",
          "type": "uint8"
        },
        {
          "internalType": "uint32",
          "name": "acceptInspectionDelayBlocks_",
          "type": "uint32"
        },
        {
          "internalType": "uint32",
          "name": "securityBlocksToValidation_",
          "type": "uint32"
        }
      ],
      "stateMutability": "nonpayable",
      "type": "constructor"
    },
    {
      "inputs": [
        {
          "internalType": "address",
          "name": "owner",
          "type": "address"
        }
      ],
      "name": "OwnableInvalidOwner",
      "type": "error"
    },
    {
      "inputs": [
        {
          "internalType": "address",
          "name": "account",
          "type": "address"
        }
      ],
      "name": "OwnableUnauthorizedAccount",
      "type": "error"
    },
    {
      "inputs": [],
      "name": "ReentrancyGuardReentrantCall",
      "type": "error"
    },
    {
      "anonymous": false,
      "inputs": [
        {
          "indexed": true,
          "internalType": "uint256",
          "name": "inspectionId",
          "type": "uint256"
        },
        {
          "indexed": true,
          "internalType": "address",
          "name": "inspectorAddress",
          "type": "address"
        },
        {
          "indexed": false,
          "internalType": "uint256",
          "name": "acceptedAt",
          "type": "uint256"
        }
      ],
      "name": "InspectionAccepted",
      "type": "event"
    },
    {
      "anonymous": false,
      "inputs": [
        {
          "indexed": true,
          "internalType": "uint256",
          "name": "inspectionId",
          "type": "uint256"
        },
        {
          "indexed": true,
          "internalType": "address",
          "name": "inspectorAddress",
          "type": "address"
        },
        {
          "indexed": true,
          "internalType": "address",
          "name": "regeneratorAddress",
          "type": "address"
        },
        {
          "indexed": false,
          "internalType": "uint256",
          "name": "invalidatedAt",
          "type": "uint256"
        }
      ],
      "name": "InspectionInvalidated",
      "type": "event"
    },
    {
      "anonymous": false,
      "inputs": [
        {
          "indexed": true,
          "internalType": "uint256",
          "name": "inspectionId",
          "type": "uint256"
        },
        {
          "indexed": true,
          "internalType": "address",
          "name": "inspectorAddress",
          "type": "address"
        },
        {
          "indexed": true,
          "internalType": "address",
          "name": "regeneratorAddress",
          "type": "address"
        },
        {
          "indexed": false,
          "internalType": "uint32",
          "name": "treesResult",
          "type": "uint32"
        },
        {
          "indexed": false,
          "internalType": "uint32",
          "name": "biodiversityResult",
          "type": "uint32"
        },
        {
          "indexed": false,
          "internalType": "uint32",
          "name": "regenerationScore",
          "type": "uint32"
        },
        {
          "indexed": false,
          "internalType": "uint256",
          "name": "inspectedAt",
          "type": "uint256"
        }
      ],
      "name": "InspectionRealized",
      "type": "event"
    },
    {
      "anonymous": false,
      "inputs": [
        {
          "indexed": true,
          "internalType": "uint256",
          "name": "inspectionId",
          "type": "uint256"
        },
        {
          "indexed": true,
          "internalType": "address",
          "name": "regeneratorAddress",
          "type": "address"
        },
        {
          "indexed": false,
          "internalType": "uint256",
          "name": "createdAt",
          "type": "uint256"
        }
      ],
      "name": "InspectionRequested",
      "type": "event"
    },
    {
      "anonymous": false,
      "inputs": [
        {
          "indexed": true,
          "internalType": "address",
          "name": "_validatorAddress",
          "type": "address"
        },
        {
          "indexed": true,
          "internalType": "uint256",
          "name": "_resourceId",
          "type": "uint256"
        },
        {
          "indexed": false,
          "internalType": "string",
          "name": "_justification",
          "type": "string"
        }
      ],
      "name": "InspectionValidation",
      "type": "event"
    },
    {
      "anonymous": false,
      "inputs": [
        {
          "indexed": true,
          "internalType": "address",
          "name": "previousOwner",
          "type": "address"
        },
        {
          "indexed": true,
          "internalType": "address",
          "name": "newOwner",
          "type": "address"
        }
      ],
      "name": "OwnershipTransferred",
      "type": "event"
    },
    {
      "inputs": [],
      "name": "MAX_BIODIVERSITY_RESULT",
      "outputs": [
        {
          "internalType": "uint32",
          "name": "",
          "type": "uint32"
        }
      ],
      "stateMutability": "view",
      "type": "function"
    },
    {
      "inputs": [],
      "name": "MAX_REGENERATOR_INSPECTIONS",
      "outputs": [
        {
          "internalType": "uint8",
          "name": "",
          "type": "uint8"
        }
      ],
      "stateMutability": "view",
      "type": "function"
    },
    {
      "inputs": [
        {
          "internalType": "uint64",
          "name": "inspectionId",
          "type": "uint64"
        }
      ],
      "name": "acceptInspection",
      "outputs": [],
      "stateMutability": "nonpayable",
      "type": "function"
    },
    {
      "inputs": [],
      "name": "acceptInspectionDelayBlocks",
      "outputs": [
        {
          "internalType": "uint32",
          "name": "",
          "type": "uint32"
        }
      ],
      "stateMutability": "view",
      "type": "function"
    },
    {
      "inputs": [
        {
          "components": [
            {
              "internalType": "uint64",
              "name": "id",
              "type": "uint64"
            },
            {
              "internalType": "enum InspectionStatus",
              "name": "status",
              "type": "uint8"
            },
            {
              "internalType": "address",
              "name": "regenerator",
              "type": "address"
            },
            {
              "internalType": "address",
              "name": "inspector",
              "type": "address"
            },
            {
              "internalType": "uint32",
              "name": "treesResult",
              "type": "uint32"
            },
            {
              "internalType": "uint32",
              "name": "biodiversityResult",
              "type": "uint32"
            },
            {
              "internalType": "uint32",
              "name": "regenerationScore",
              "type": "uint32"
            },
            {
              "internalType": "string",
              "name": "proofPhotos",
              "type": "string"
            },
            {
              "internalType": "string",
              "name": "justificationReport",
              "type": "string"
            },
            {
              "internalType": "uint256",
              "name": "validationsCount",
              "type": "uint256"
            },
            {
              "internalType": "uint256",
              "name": "createdAt",
              "type": "uint256"
            },
            {
              "internalType": "uint256",
              "name": "acceptedAt",
              "type": "uint256"
            },
            {
              "internalType": "uint256",
              "name": "inspectedAt",
              "type": "uint256"
            },
            {
              "internalType": "uint256",
              "name": "inspectedAtEra",
              "type": "uint256"
            },
            {
              "internalType": "uint256",
              "name": "invalidatedAt",
              "type": "uint256"
            }
          ],
          "internalType": "struct Inspection",
          "name": "inspection",
          "type": "tuple"
        }
      ],
      "name": "acceptInspectionDelayBlocksPassed",
      "outputs": [
        {
          "internalType": "bool",
          "name": "",
          "type": "bool"
        }
      ],
      "stateMutability": "view",
      "type": "function"
    },
    {
      "inputs": [],
      "name": "activistRules",
      "outputs": [
        {
          "internalType": "contract IActivistRules",
          "name": "",
          "type": "address"
        }
      ],
      "stateMutability": "view",
      "type": "function"
    },
    {
      "inputs": [
        {
          "internalType": "uint64",
          "name": "id",
          "type": "uint64"
        },
        {
          "internalType": "string",
          "name": "justification",
          "type": "string"
        }
      ],
      "name": "addInspectionValidation",
      "outputs": [],
      "stateMutability": "nonpayable",
      "type": "function"
    },
    {
      "inputs": [],
      "name": "allowedInitialRequests",
      "outputs": [
        {
          "internalType": "uint8",
          "name": "",
          "type": "uint8"
        }
      ],
      "stateMutability": "view",
      "type": "function"
    },
    {
      "inputs": [],
      "name": "alreadyHaveInspectionAccepted",
      "outputs": [
        {
          "internalType": "bool",
          "name": "",
          "type": "bool"
        }
      ],
      "stateMutability": "view",
      "type": "function"
    },
    {
      "inputs": [],
      "name": "blocksToExpireAcceptedInspection",
      "outputs": [
        {
          "internalType": "uint32",
          "name": "",
          "type": "uint32"
        }
      ],
      "stateMutability": "view",
      "type": "function"
    },
    {
      "inputs": [
        {
          "internalType": "uint64",
          "name": "inspectionId",
          "type": "uint64"
        }
      ],
      "name": "calculateBlocksToExpire",
      "outputs": [
        {
          "internalType": "uint256",
          "name": "",
          "type": "uint256"
        }
      ],
      "stateMutability": "view",
      "type": "function"
    },
    {
      "inputs": [],
      "name": "communityRules",
      "outputs": [
        {
          "internalType": "contract ICommunityRules",
          "name": "",
          "type": "address"
        }
      ],
      "stateMutability": "view",
      "type": "function"
    },
    {
      "inputs": [
        {
          "internalType": "uint64",
          "name": "id",
          "type": "uint64"
        }
      ],
      "name": "getInspection",
      "outputs": [
        {
          "components": [
            {
              "internalType": "uint64",
              "name": "id",
              "type": "uint64"
            },
            {
              "internalType": "enum InspectionStatus",
              "name": "status",
              "type": "uint8"
            },
            {
              "internalType": "address",
              "name": "regenerator",
              "type": "address"
            },
            {
              "internalType": "address",
              "name": "inspector",
              "type": "address"
            },
            {
              "internalType": "uint32",
              "name": "treesResult",
              "type": "uint32"
            },
            {
              "internalType": "uint32",
              "name": "biodiversityResult",
              "type": "uint32"
            },
            {
              "internalType": "uint32",
              "name": "regenerationScore",
              "type": "uint32"
            },
            {
              "internalType": "string",
              "name": "proofPhotos",
              "type": "string"
            },
            {
              "internalType": "string",
              "name": "justificationReport",
              "type": "string"
            },
            {
              "internalType": "uint256",
              "name": "validationsCount",
              "type": "uint256"
            },
            {
              "internalType": "uint256",
              "name": "createdAt",
              "type": "uint256"
            },
            {
              "internalType": "uint256",
              "name": "acceptedAt",
              "type": "uint256"
            },
            {
              "internalType": "uint256",
              "name": "inspectedAt",
              "type": "uint256"
            },
            {
              "internalType": "uint256",
              "name": "inspectedAtEra",
              "type": "uint256"
            },
            {
              "internalType": "uint256",
              "name": "invalidatedAt",
              "type": "uint256"
            }
          ],
          "internalType": "struct Inspection",
          "name": "",
          "type": "tuple"
        }
      ],
      "stateMutability": "view",
      "type": "function"
    },
    {
      "inputs": [
        {
          "internalType": "address",
          "name": "addr",
          "type": "address"
        }
      ],
      "name": "getInspectionsHistory",
      "outputs": [
        {
          "internalType": "uint64[]",
          "name": "",
          "type": "uint64[]"
        }
      ],
      "stateMutability": "view",
      "type": "function"
    },
    {
      "inputs": [
        {
          "internalType": "uint256",
          "name": "",
          "type": "uint256"
        }
      ],
      "name": "impactPerEra",
      "outputs": [
        {
          "internalType": "uint256",
          "name": "trees",
          "type": "uint256"
        },
        {
          "internalType": "uint256",
          "name": "biodiversity",
          "type": "uint256"
        },
        {
          "internalType": "uint256",
          "name": "realizedInspections",
          "type": "uint256"
        }
      ],
      "stateMutability": "view",
      "type": "function"
    },
    {
      "inputs": [
        {
          "internalType": "uint64",
          "name": "",
          "type": "uint64"
        }
      ],
      "name": "inspectionPenalized",
      "outputs": [
        {
          "internalType": "bool",
          "name": "",
          "type": "bool"
        }
      ],
      "stateMutability": "view",
      "type": "function"
    },
    {
      "inputs": [],
      "name": "inspectionsBiodiversityImpact",
      "outputs": [
        {
          "internalType": "uint256",
          "name": "",
          "type": "uint256"
        }
      ],
      "stateMutability": "view",
      "type": "function"
    },
    {
      "inputs": [],
      "name": "inspectionsCount",
      "outputs": [
        {
          "internalType": "uint64",
          "name": "",
          "type": "uint64"
        }
      ],
      "stateMutability": "view",
      "type": "function"
    },
    {
      "inputs": [],
      "name": "inspectionsTotalCount",
      "outputs": [
        {
          "internalType": "uint64",
          "name": "",
          "type": "uint64"
        }
      ],
      "stateMutability": "view",
      "type": "function"
    },
    {
      "inputs": [],
      "name": "inspectionsTreesImpact",
      "outputs": [
        {
          "internalType": "uint256",
          "name": "",
          "type": "uint256"
        }
      ],
      "stateMutability": "view",
      "type": "function"
    },
    {
      "inputs": [],
      "name": "inspectorRules",
      "outputs": [
        {
          "internalType": "contract IInspectorRules",
          "name": "",
          "type": "address"
        }
      ],
      "stateMutability": "view",
      "type": "function"
    },
    {
      "inputs": [
        {
          "components": [
            {
              "internalType": "uint64",
              "name": "id",
              "type": "uint64"
            },
            {
              "internalType": "enum InspectionStatus",
              "name": "status",
              "type": "uint8"
            },
            {
              "internalType": "address",
              "name": "regenerator",
              "type": "address"
            },
            {
              "internalType": "address",
              "name": "inspector",
              "type": "address"
            },
            {
              "internalType": "uint32",
              "name": "treesResult",
              "type": "uint32"
            },
            {
              "internalType": "uint32",
              "name": "biodiversityResult",
              "type": "uint32"
            },
            {
              "internalType": "uint32",
              "name": "regenerationScore",
              "type": "uint32"
            },
            {
              "internalType": "string",
              "name": "proofPhotos",
              "type": "string"
            },
            {
              "internalType": "string",
              "name": "justificationReport",
              "type": "string"
            },
            {
              "internalType": "uint256",
              "name": "validationsCount",
              "type": "uint256"
            },
            {
              "internalType": "uint256",
              "name": "createdAt",
              "type": "uint256"
            },
            {
              "internalType": "uint256",
              "name": "acceptedAt",
              "type": "uint256"
            },
            {
              "internalType": "uint256",
              "name": "inspectedAt",
              "type": "uint256"
            },
            {
              "internalType": "uint256",
              "name": "inspectedAtEra",
              "type": "uint256"
            },
            {
              "internalType": "uint256",
              "name": "invalidatedAt",
              "type": "uint256"
            }
          ],
          "internalType": "struct Inspection",
          "name": "inspection",
          "type": "tuple"
        }
      ],
      "name": "isInspectionExpired",
      "outputs": [
        {
          "internalType": "bool",
          "name": "",
          "type": "bool"
        }
      ],
      "stateMutability": "view",
      "type": "function"
    },
    {
      "inputs": [],
      "name": "lastSettledEra",
      "outputs": [
        {
          "internalType": "uint256",
          "name": "",
          "type": "uint256"
        }
      ],
      "stateMutability": "view",
      "type": "function"
    },
    {
      "inputs": [],
      "name": "owner",
      "outputs": [
        {
          "internalType": "address",
          "name": "",
          "type": "address"
        }
      ],
      "stateMutability": "view",
      "type": "function"
    },
    {
      "inputs": [
        {
          "internalType": "uint64",
          "name": "inspectionId",
          "type": "uint64"
        },
        {
          "internalType": "string",
          "name": "proofPhotos",
          "type": "string"
        },
        {
          "internalType": "string",
          "name": "justificationReport",
          "type": "string"
        },
        {
          "internalType": "uint32",
          "name": "treesResult",
          "type": "uint32"
        },
        {
          "internalType": "uint32",
          "name": "biodiversityResult",
          "type": "uint32"
        }
      ],
      "name": "realizeInspection",
      "outputs": [],
      "stateMutability": "nonpayable",
      "type": "function"
    },
    {
      "inputs": [],
      "name": "realizedInspectionsCount",
      "outputs": [
        {
          "internalType": "uint256",
          "name": "",
          "type": "uint256"
        }
      ],
      "stateMutability": "view",
      "type": "function"
    },
    {
      "inputs": [],
      "name": "regenerationIndexRules",
      "outputs": [
        {
          "internalType": "contract IRegenerationIndexRules",
          "name": "",
          "type": "address"
        }
      ],
      "stateMutability": "view",
      "type": "function"
    },
    {
      "inputs": [],
      "name": "regeneratorRules",
      "outputs": [
        {
          "internalType": "contract IRegeneratorRules",
          "name": "",
          "type": "address"
        }
      ],
      "stateMutability": "view",
      "type": "function"
    },
    {
      "inputs": [],
      "name": "renounceOwnership",
      "outputs": [],
      "stateMutability": "nonpayable",
      "type": "function"
    },
    {
      "inputs": [],
      "name": "requestInspection",
      "outputs": [],
      "stateMutability": "nonpayable",
      "type": "function"
    },
    {
      "inputs": [],
      "name": "securityBlocksToValidation",
      "outputs": [
        {
          "internalType": "uint32",
          "name": "",
          "type": "uint32"
        }
      ],
      "stateMutability": "view",
      "type": "function"
    },
    {
      "inputs": [
        {
          "components": [
            {
              "internalType": "address",
              "name": "communityRulesAddress",
              "type": "address"
            },
            {
              "internalType": "address",
              "name": "regeneratorRulesAddress",
              "type": "address"
            },
            {
              "internalType": "address",
              "name": "validationRulesAddress",
              "type": "address"
            },
            {
              "internalType": "address",
              "name": "inspectorRulesAddress",
              "type": "address"
            },
            {
              "internalType": "address",
              "name": "regenerationIndexRulesAddress",
              "type": "address"
            },
            {
              "internalType": "address",
              "name": "activistRulesAddress",
              "type": "address"
            },
            {
              "internalType": "address",
              "name": "voteRulesAddress",
              "type": "address"
            }
          ],
          "internalType": "struct ContractsDependency",
          "name": "contractDependency",
          "type": "tuple"
        }
      ],
      "name": "setContractInterfaces",
      "outputs": [],
      "stateMutability": "nonpayable",
      "type": "function"
    },
    {
      "inputs": [],
      "name": "timeBetweenInspections",
      "outputs": [
        {
          "internalType": "uint32",
          "name": "",
          "type": "uint32"
        }
      ],
      "stateMutability": "view",
      "type": "function"
    },
    {
      "inputs": [],
      "name": "totalImpactRegenerators",
      "outputs": [
        {
          "internalType": "uint256",
          "name": "",
          "type": "uint256"
        }
      ],
      "stateMutability": "view",
      "type": "function"
    },
    {
      "inputs": [
        {
          "internalType": "address",
          "name": "newOwner",
          "type": "address"
        }
      ],
      "name": "transferOwnership",
      "outputs": [],
      "stateMutability": "nonpayable",
      "type": "function"
    },
    {
      "inputs": [],
      "name": "validationRules",
      "outputs": [
        {
          "internalType": "contract IValidationRules",
          "name": "",
          "type": "address"
        }
      ],
      "stateMutability": "view",
      "type": "function"
    },
    {
      "inputs": [],
      "name": "voteRules",
      "outputs": [
        {
          "internalType": "contract IVoteRules",
          "name": "",
          "type": "address"
        }
      ],
      "stateMutability": "view",
      "type": "function"
    },
    {
      "inputs": [
        {
          "components": [
            {
              "internalType": "uint64",
              "name": "id",
              "type": "uint64"
            },
            {
              "internalType": "address",
              "name": "regeneratorWallet",
              "type": "address"
            },
            {
              "internalType": "string",
              "name": "name",
              "type": "string"
            },
            {
              "internalType": "string",
              "name": "proofPhoto",
              "type": "string"
            },
            {
              "internalType": "uint32",
              "name": "totalArea",
              "type": "uint32"
            },
            {
              "internalType": "bool",
              "name": "pendingInspection",
              "type": "bool"
            },
            {
              "internalType": "uint256",
              "name": "totalInspections",
              "type": "uint256"
            },
            {
              "internalType": "uint256",
              "name": "lastRequestAt",
              "type": "uint256"
            },
            {
              "components": [
                {
                  "internalType": "uint256",
                  "name": "score",
                  "type": "uint256"
                }
              ],
              "internalType": "struct RegenerationScore",
              "name": "regenerationScore",
              "type": "tuple"
            },
            {
              "components": [
                {
                  "internalType": "bool",
                  "name": "onContractPool",
                  "type": "bool"
                },
                {
                  "internalType": "uint256",
                  "name": "currentEra",
                  "type": "uint256"
                }
              ],
              "internalType": "struct Pool",
              "name": "pool",
              "type": "tuple"
            },
            {
              "internalType": "uint256",
              "name": "createdAt",
              "type": "uint256"
            },
            {
              "internalType": "uint256",
              "name": "coordinatesCount",
              "type": "uint256"
            },
            {
              "internalType": "bool",
              "name": "isFullyInvalidated",
              "type": "bool"
            }
          ],
          "internalType": "struct Regenerator",
          "name": "regenerator",
          "type": "tuple"
        }
      ],
      "name": "waitToRequest",
      "outputs": [
        {
          "internalType": "bool",
          "name": "",
          "type": "bool"
        }
      ],
      "stateMutability": "view",
      "type": "function"
    }
  ],
  "bytecode": "0x61012060405234801561001157600080fd5b50604051614d36380380614d36833981016040819052610030916100f5565b338061005657604051631e4fbdf760e01b81526000600482015260240160405180910390fd5b61005f8161008c565b506001805563ffffffff94851660a05292841660c05260ff909116608052821660e0521661010052610162565b600080546001600160a01b038381166001600160a01b0319831681178455604051919092169283917f8be0079c531659141344cd1fd0a4f28419497f9722a3daafe3b4186f6b6457e09190a35050565b805163ffffffff811681146100f057600080fd5b919050565b600080600080600060a0868803121561010d57600080fd5b610116866100dc565b9450610124602087016100dc565b9350604086015160ff8116811461013a57600080fd5b9250610148606087016100dc565b9150610156608087016100dc565b90509295509295909350565b60805160a05160c05160e05161010051614b4a6101ec600039600081816102960152612fd00152600081816105630152610a0101526000818161053c01528181610610015281816108e7015281816121070152818161254e01528181612f260152612ff70152600081816102d201526109c101526000818161049e015261098a0152614b4a6000f3fe608060405234801561001057600080fd5b50600436106102325760003560e01c8063896e9ae211610130578063ce59654a116100b8578063e734b8131161007c578063e734b81314610585578063ed8f932114610598578063ee05057f146105a1578063f2fde38b146105c1578063fc533ca9146105d457600080fd5b8063ce59654a14610508578063d62ae3481461051b578063e0d56bde14610524578063e42c955114610537578063e710483d1461055e57600080fd5b80639df79c92116100ff5780639df79c9214610499578063a2b570a4146104c0578063a6bae8b0146104c9578063b90070dd146104d2578063be15277e146104e557600080fd5b8063896e9ae2146104225780638da5cb5b1461046c57806392f265d71461047d57806395a29b621461048657600080fd5b806355e7cfe5116101be578063715018a611610182578063715018a6146103cc57806376007252146103d45780637b798468146103e757806386297de91461040757806386ae2fb11461041a57600080fd5b806355e7cfe51461034c57806361a7581b1461037757806364bbc5151461038c5780636b2edc161461039f5780636ec08376146103b957600080fd5b806335c116771161020557806335c11677146102915780633dbf1e8f146102cd5780633eef1a2a146102f45780634d3fbe61146103075780635401c1f21461032157600080fd5b80630cda2cce1461023757806316d2bd341461025d578063180d794414610266578063216e13491461027e575b600080fd5b61024a610245366004613c2d565b6105e7565b6040519081526020015b60405180910390f35b61024a60035481565b61026e610646565b6040519015158152602001610254565b61026e61028c366004613e9e565b610986565b6102b87f000000000000000000000000000000000000000000000000000000000000000081565b60405163ffffffff9091168152602001610254565b6102b87f000000000000000000000000000000000000000000000000000000000000000081565b61026e610302366004613ff2565b6109fd565b61030f600681565b60405160ff9091168152602001610254565b600254610334906001600160401b031681565b6040516001600160401b039091168152602001610254565b600f5461035f906001600160a01b031681565b6040516001600160a01b039091168152602001610254565b61038a61038536600461414a565b610a36565b005b600b5461035f906001600160a01b031681565b60025461033490600160401b90046001600160401b031681565b61038a6103c73660046141e6565b610ad7565b61038a61137a565b600e5461035f906001600160a01b031681565b6103fa6103f5366004614235565b61138e565b6040516102549190614252565b61038a610415366004613c2d565b61142c565b61038a611ec8565b61045161043036600461429e565b60136020526000908152604090208054600182015460029092015490919083565b60408051938452602084019290925290820152606001610254565b6000546001600160a01b031661035f565b6102b861012c81565b60115461035f906001600160a01b031681565b61030f7f000000000000000000000000000000000000000000000000000000000000000081565b61024a60055481565b61024a60065481565b61026e6104e0366004613ff2565b6120f4565b61026e6104f3366004613c2d565b60076020526000908152604090205460ff1681565b600d5461035f906001600160a01b031681565b61024a60145481565b60105461035f906001600160a01b031681565b6102b87f000000000000000000000000000000000000000000000000000000000000000081565b6102b87f000000000000000000000000000000000000000000000000000000000000000081565b61038a6105933660046142b7565b61213c565b61024a60045481565b6105b46105af366004613c2d565b61286f565b60405161025491906143d2565b61038a6105cf366004614235565b612b30565b600c5461035f906001600160a01b031681565b6001600160401b03811660009081526008602052604081206006015443906106369063ffffffff7f00000000000000000000000000000000000000000000000000000000000000001690614507565b610640919061451a565b92915050565b600b5460405163e8f7dfcf60e01b815233600482015260009182916001600160a01b039091169063e8f7dfcf90602401600060405180830381865afa158015610693573d6000803e3d6000fd5b505050506040513d6000823e601f3d908101601f191682016040526106bb91908101906145c1565b6101008101516001600160401b03908116600090815260086020908152604080832081516101e08101909252805494851682529495509193919290830190600160401b900460ff16600381111561071457610714614358565b600381111561072557610725614358565b815281546001600160a01b03600160481b909104811660208301526001830154908116604083015263ffffffff600160a01b820481166060840152600160c01b820481166080840152600160e01b9091041660a082015260028201805460c090920191610791906146da565b80601f01602080910402602001604051908101604052809291908181526020018280546107bd906146da565b801561080a5780601f106107df5761010080835404028352916020019161080a565b820191906000526020600020905b8154815290600101906020018083116107ed57829003601f168201915b50505050508152602001600382018054610823906146da565b80601f016020809104026020016040519081016040528092919081815260200182805461084f906146da565b801561089c5780601f106108715761010080835404028352916020019161089c565b820191906000526020600020905b81548152906001019060200180831161087f57829003601f168201915b505050505081526020016004820154815260200160058201548152602001600682015481526020016007820154815260200160088201548152602001600982015481525050905060007f000000000000000000000000000000000000000000000000000000000000000063ffffffff1682610160015161091c9190614507565b43119050600060028360200151600381111561093a5761093a614358565b148061095b575060038360200151600381111561095957610959614358565b145b905080806109665750815b8061097d57506101008401516001600160401b0316155b94505050505090565b60007f000000000000000000000000000000000000000000000000000000000000000060ff168260c0015110156109bf57506001919050565b7f000000000000000000000000000000000000000000000000000000000000000063ffffffff168260e001516109f59190614507565b431192915050565b60007f000000000000000000000000000000000000000000000000000000000000000063ffffffff168261014001516109f59190614507565b610a3e612b6b565b8051600d80546001600160a01b03199081166001600160a01b03938416179091556020830151600c805483169184169190911790556040830151600e805483169184169190911790556060830151600b80548316918416919091179055608083015160118054831691841691909117905560a0830151600f8054831691841691909117905560c090920151601080549093169116179055565b610adf612b98565b600d5460405163e838dfbb60e01b81523360048201526001600160a01b039091169063e838dfbb90602401602060405180830381865afa158015610b27573d6000803e3d6000fd5b505050506040513d601f19601f82011682018060405250810190610b4b919061471f565b15610b8b5760405162461bcd60e51b815260206004820152600b60248201526a155cd95c8819195b9a595960aa1b60448201526064015b60405180910390fd5b805161012c1015610bd75760405162461bcd60e51b815260206004820152601660248201527513585e0818da185c9858dd195c9cc81c995858da195960521b6044820152606401610b82565b6010546040516356fd539760e11b81523360048201526001600160a01b039091169063adfaa72e90602401602060405180830381865afa158015610c1f573d6000803e3d6000fd5b505050506040513d601f19601f82011682018060405250810190610c43919061471f565b610c7d5760405162461bcd60e51b815260206004820152600b60248201526a2737ba1030903b37ba32b960a91b6044820152606401610b82565b600e54604051630d84466b60e21b81523360048201526001600160a01b039091169063361119ac90602401602060405180830381865afa158015610cc5573d6000803e3d6000fd5b505050506040513d601f19601f82011682018060405250810190610ce9919061471f565b610d2d5760405162461bcd60e51b8152602060048201526015602482015274576169742074696d654265747765656e566f74657360581b6044820152606401610b82565b3360009081526012602090815260408083206001600160401b038616845290915290205460ff1615610d915760405162461bcd60e51b815260206004820152600d60248201526c105b1c9958591e481d9bdd1959609a1b6044820152606401610b82565b6001600160401b03821660009081526007602052604090205460ff1615610dfa5760405162461bcd60e51b815260206004820152601960248201527f50656e616c7469657320616c7265616479206170706c696564000000000000006044820152606401610b82565b3360009081526012602090815260408083206001600160401b03861684528252808320805460ff1916600117905560088083529281902092830154600c54825163e05cf15560e01b8152925191936001600160a01b03919091169263e05cf15592600480830193928290030181865afa158015610e7b573d6000803e3d6000fd5b505050506040513d601f19601f82011682018060405250810190610e9f919061473c565b14610ee55760405162461bcd60e51b815260206004820152601660248201527543616e27742076616c696461646520616e796d6f726560501b6044820152606401610b82565b805460016001600160401b0390911610801590610f19575060025481546001600160401b03600160401b9092048216911611155b610f655760405162461bcd60e51b815260206004820152601960248201527f496e7370656374696f6e20646f6573206e6f74206578697374000000000000006044820152606401610b82565b60028154600160401b900460ff166003811115610f8457610f84614358565b14610fd15760405162461bcd60e51b815260206004820152601d60248201527f4f6e6c7920746f20696e7370656374656420696e7370656374696f6e730000006044820152606401610b82565b6001816004016000828254610fe69190614507565b9091555050600e54604080516369bf81c360e01b815290516000926001600160a01b0316916369bf81c39160048083019260209291908290030181865afa158015611035573d6000803e3d6000fd5b505050506040513d601f19601f82011682018060405250810190611059919061473c565b905060028110156110bf5760405162461bcd60e51b815260206004820152602a60248201527f56616c69646174696f6e207468726573686f6c642063616e6e6f74206265206c60448201526932b9b9903a3430b7101960b11b6064820152608401610b82565b80826004015410611269576001600160401b0384166000908152600760205260409020805460ff191660011790556110f682612bc2565b600b546001830154835460405163b1e8665560e01b81526001600160a01b0392831660048201526001600160401b039091166024820152600092919091169063b1e86655906044016020604051808303816000875af115801561115d573d6000803e3d6000fd5b505050506040513d601f19601f82011682018060405250810190611181919061473c565b9050600b60009054906101000a90046001600160a01b03166001600160a01b031663b24eb7696040518163ffffffff1660e01b8152600401602060405180830381865afa1580156111d6573d6000803e3d6000fd5b505050506040513d601f19601f820116820180604052508101906111fa9190614755565b60ff16811061126757600b54600184015460405163680d64d360e11b81526001600160a01b03918216600482015291169063d01ac9a690602401600060405180830381600087803b15801561124e57600080fd5b505af1158015611262573d6000803e3d6000fd5b505050505b505b600e5460405163eb48556b60e01b81523360048201526001600160a01b039091169063eb48556b90602401600060405180830381600087803b1580156112ae57600080fd5b505af11580156112c2573d6000803e3d6000fd5b5050600e546040516324cc251760e21b81523360048201526001600160a01b039091169250639330945c9150602401600060405180830381600087803b15801561130b57600080fd5b505af115801561131f573d6000803e3d6000fd5b505083546040516001600160401b0390911692503391507f804fe88dce417b67dd8890f8cac643949e87d8edcba4e9efb221cbd850c52feb90611363908790614778565b60405180910390a3505061137660018055565b5050565b611382612b6b565b61138c6000612ed2565b565b6001600160a01b03811660009081526009602090815260409182902080548351818402810184019094528084526060939283018282801561142057602002820191906000526020600020906000905b82829054906101000a90046001600160401b03166001600160401b0316815260200190600801906020826007010492830192600103820291508084116113dd5790505b50505050509050919050565b611434612b98565b600d54604051631292f8c160e31b81526001600160a01b0390911690639497c6089061146790600290339060040161478b565b602060405180830381865afa158015611484573d6000803e3d6000fd5b505050506040513d601f19601f820116820180604052508101906114a8919061471f565b6114e65760405162461bcd60e51b815260206004820152600f60248201526e4f6e6c7920696e73706563746f727360881b6044820152606401610b82565b600b54604051634d5ff1d360e01b81523360048201526001600160a01b0390911690634d5ff1d390602401602060405180830381865afa15801561152e573d6000803e3d6000fd5b505050506040513d601f19601f82011682018060405250810190611552919061471f565b6115975760405162461bcd60e51b815260206004820152601660248201527513db9b1e480cc819da5d99555c1cc8185b1b1bddd95960521b6044820152606401610b82565b6001600160401b038082166000908152600860205260409020805490916001911610156116065760405162461bcd60e51b815260206004820152601760248201527f496e7370656374696f6e20646f206e6f742065786973740000000000000000006044820152606401610b82565b61160e610646565b61164d5760405162461bcd60e51b815260206004820152601060248201526f105b1c9958591e481858d8d95c1d195960821b6044820152606401610b82565b336000908152600a602090815260408083208454600160481b90046001600160a01b0316845290915290205460ff16156116bd5760405162461bcd60e51b8152602060048201526011602482015270105b1c9958591e481a5b9cdc1958dd1959607a1b6044820152606401610b82565b60008154600160401b900460ff1660038111156116dc576116dc614358565b148061191d575060018154600160401b900460ff16600381111561170257611702614358565b14801561191d5750604080516101e0810190915281546001600160401b038116825261191d919083906020830190600160401b900460ff16600381111561174b5761174b614358565b600381111561175c5761175c614358565b815281546001600160a01b03600160481b909104811660208301526001830154908116604083015263ffffffff600160a01b820481166060840152600160c01b820481166080840152600160e01b9091041660a082015260028201805460c0909201916117c8906146da565b80601f01602080910402602001604051908101604052809291908181526020018280546117f4906146da565b80156118415780601f1061181657610100808354040283529160200191611841565b820191906000526020600020905b81548152906001019060200180831161182457829003601f168201915b5050505050815260200160038201805461185a906146da565b80601f0160208091040260200160405190810160405280929190818152602001828054611886906146da565b80156118d35780601f106118a8576101008083540402835291602001916118d3565b820191906000526020600020905b8154815290600101906020018083116118b657829003601f168201915b5050505050815260200160048201548152602001600582015481526020016006820154815260200160078201548152602001600882015481526020016009820154815250506120f4565b6119745760405162461bcd60e51b815260206004820152602260248201527f496e7370656374696f6e206d757374206265204f50454e206f72204558504952604482015261115160f21b6064820152608401610b82565b604080516101e0810190915281546001600160401b0381168252611b87919083906020830190600160401b900460ff1660038111156119b5576119b5614358565b60038111156119c6576119c6614358565b815281546001600160a01b03600160481b909104811660208301526001830154908116604083015263ffffffff600160a01b820481166060840152600160c01b820481166080840152600160e01b9091041660a082015260028201805460c090920191611a32906146da565b80601f0160208091040260200160405190810160405280929190818152602001828054611a5e906146da565b8015611aab5780601f10611a8057610100808354040283529160200191611aab565b820191906000526020600020905b815481529060010190602001808311611a8e57829003601f168201915b50505050508152602001600382018054611ac4906146da565b80601f0160208091040260200160405190810160405280929190818152602001828054611af0906146da565b8015611b3d5780601f10611b1257610100808354040283529160200191611b3d565b820191906000526020600020905b815481529060010190602001808311611b2057829003601f168201915b5050505050815260200160048201548152602001600582015481526020016006820154815260200160078201548152602001600882015481526020016009820154815250506109fd565b611bc75760405162461bcd60e51b8152602060048201526011602482015270576169742064656c617920626c6f636b7360781b6044820152606401610b82565b611bcf612f22565b611c115760405162461bcd60e51b81526020600482015260136024820152725761697420756e74696c206e6578742065726160681b6044820152606401610b82565b600b54604051631feeefc760e21b81523360048201526001600160a01b0390911690637fbbbf1c90602401602060405180830381865afa158015611c59573d6000803e3d6000fd5b505050506040513d601f19601f82011682018060405250810190611c7d919061471f565b611cba5760405162461bcd60e51b815260206004820152600e60248201526d15d85a5d081d1bc81858d8d95c1d60921b6044820152606401610b82565b600d548154604051631292f8c160e31b81526001600160a01b0392831692639497c60892611cf992600192600160481b9092049091169060040161478b565b602060405180830381865afa158015611d16573d6000803e3d6000fd5b505050506040513d601f19601f82011682018060405250810190611d3a919061471f565b611d7c5760405162461bcd60e51b8152602060048201526013602482015272149959d95b995c985d1bdc881a5b9d985b1a59606a1b6044820152606401610b82565b8054600160401b60ff60401b19909116178082554360068301556001820180546001600160a01b03191633179055600c5460405163076d908160e21b81526001600160a01b03600160481b90930483166004820152911690631db6420490602401600060405180830381600087803b158015611df757600080fd5b505af1158015611e0b573d6000803e3d6000fd5b5050600b546040516396cd035760e01b81523360048201526001600160401b03861660248201526001600160a01b0390911692506396cd03579150604401600060405180830381600087803b158015611e6357600080fd5b505af1158015611e77573d6000803e3d6000fd5b50506040514381523392506001600160401b03851691507ff9556ba762f15e7f3671b8f33a1f662df1a146fa3ec77a706435e6e4572ab8d19060200160405180910390a350611ec560018055565b50565b611ed0612b98565b600c5460405163065ab21b60e41b81523360048201526000916001600160a01b0316906365ab21b090602401600060405180830381865afa158015611f19573d6000803e3d6000fd5b505050506040513d6000823e601f3d908101601f19168201604052611f419190810190614821565b600d54604051631292f8c160e31b81529192506001600160a01b031690639497c60890611f7590600190339060040161478b565b602060405180830381865afa158015611f92573d6000803e3d6000fd5b505050506040513d601f19601f82011682018060405250810190611fb6919061471f565b611ff65760405162461bcd60e51b81526020600482015260116024820152704f6e6c7920726567656e657261746f727360781b6044820152606401610b82565b8060a00151156120375760405162461bcd60e51b815260206004820152600c60248201526b2932b8bab2b9ba1027a822a760a11b6044820152606401610b82565b61204081610986565b61207e5760405162461bcd60e51b815260206004820152600f60248201526e15d85a5d081d1bc81c995c5d595cdd608a1b6044820152606401610b82565b60c08101516006116120d25760405162461bcd60e51b815260206004820152601f60248201527f596f75206861766520636f6d706c6574656420796f7572206d697373696f6e006044820152606401610b82565b6120da6130a3565b6120e2613531565b6120ea613590565b5061138c60018055565b60008082610160015111801561064057507f000000000000000000000000000000000000000000000000000000000000000063ffffffff168261016001516109f59190614507565b612144612b98565b8351609610156121835760405162461bcd60e51b815260206004820152600a60248201526909ac2f040d8cadccee8d60b31b6044820152606401610b82565b82516103e810156121c35760405162461bcd60e51b815260206004820152600a60248201526909ac2f040d8cadccee8d60b31b6044820152606401610b82565b6001600160401b03858116600090815260086020908152604080832081516101e08101909252805494851682529293909291830190600160401b900460ff16600381111561221357612213614358565b600381111561222457612224614358565b815281546001600160a01b03600160481b909104811660208301526001830154908116604083015263ffffffff600160a01b820481166060840152600160c01b820481166080840152600160e01b9091041660a082015260028201805460c090920191612290906146da565b80601f01602080910402602001604051908101604052809291908181526020018280546122bc906146da565b80156123095780601f106122de57610100808354040283529160200191612309565b820191906000526020600020905b8154815290600101906020018083116122ec57829003601f168201915b50505050508152602001600382018054612322906146da565b80601f016020809104026020016040519081016040528092919081815260200182805461234e906146da565b801561239b5780601f106123705761010080835404028352916020019161239b565b820191906000526020600020905b81548152906001019060200180831161237e57829003601f168201915b5050505050815260200160048201548152602001600582015481526020016006820154815260200160078201548152602001600882015481526020016009820154815250509050600d60009054906101000a90046001600160a01b03166001600160a01b0316639497c6086002336040518363ffffffff1660e01b815260040161242692919061478b565b602060405180830381865afa158015612443573d6000803e3d6000fd5b505050506040513d601f19601f82011682018060405250810190612467919061471f565b6124a55760405162461bcd60e51b815260206004820152600f60248201526e4f6e6c7920696e73706563746f727360881b6044820152606401610b82565b6001816020015160038111156124bd576124bd614358565b146124fa5760405162461bcd60e51b815260206004820152600d60248201526c416363657074206265666f726560981b6044820152606401610b82565b60608101516001600160a01b0316331461254c5760405162461bcd60e51b81526020600482015260136024820152722737ba103cb7bab91034b739b832b1ba34b7b760691b6044820152606401610b82565b7f000000000000000000000000000000000000000000000000000000000000000063ffffffff168161016001516125839190614507565b4311156125c75760405162461bcd60e51b8152602060048201526012602482015271125b9cdc1958dd1a5bdb88115e1c1a5c995960721b6044820152606401610b82565b600c54604082810151905163065ab21b60e41b81526001600160a01b03918216600482015260009291909116906365ab21b090602401600060405180830381865afa15801561261a573d6000803e3d6000fd5b505050506040513d6000823e601f3d908101601f191682016040526126429190810190614821565b90506000600460ff16826080015163ffffffff166126609190614958565b9050808563ffffffff1611156126cf5760405162461bcd60e51b815260206004820152602e60248201527f5472656520636f756e7420657863656564732064656e73697479206c696d697460448201526d20666f722074686973206172656160901b6064820152608401610b82565b61012c63ffffffff8516111561271a5760405162461bcd60e51b815260206004820152601060248201526f13585e081c995cdd5b1d081b1a5b5a5d60821b6044820152606401610b82565b61272783888888886136fb565b6127308361399f565b60c083015163ffffffff16156127bf576101a08301516000818152601360205260408120805463ffffffff8916929061276a908490614507565b90915550506000818152601360205260408120600101805463ffffffff88169290612796908490614507565b909155505060008181526013602052604081206002018054916127b88361496f565b9190505550505b336000818152600a6020908152604080832087820180516001600160a01b039081168652918452938290208054600160ff19909116179055925160c0880151825163ffffffff8c811682528b8116958201959095529316838301524360608401529051921692916001600160401b038c16917f2224ef9c9aa3c3be082984f4341bc9e478345a0cdd809d940f034880dfeef864919081900360800190a450505061286860018055565b5050505050565b61290d604080516101e0810190915260008082526020820190815260200160006001600160a01b0316815260200160006001600160a01b03168152602001600063ffffffff168152602001600063ffffffff168152602001600063ffffffff16815260200160608152602001606081526020016000815260200160008152602001600081526020016000815260200160008152602001600081525090565b6001600160401b0382811660009081526008602090815260409182902082516101e0810190935280549384168352919290830190600160401b900460ff16600381111561295c5761295c614358565b600381111561296d5761296d614358565b815281546001600160a01b03600160481b909104811660208301526001830154908116604083015263ffffffff600160a01b820481166060840152600160c01b820481166080840152600160e01b9091041660a082015260028201805460c0909201916129d9906146da565b80601f0160208091040260200160405190810160405280929190818152602001828054612a05906146da565b8015612a525780601f10612a2757610100808354040283529160200191612a52565b820191906000526020600020905b815481529060010190602001808311612a3557829003601f168201915b50505050508152602001600382018054612a6b906146da565b80601f0160208091040260200160405190810160405280929190818152602001828054612a97906146da565b8015612ae45780601f10612ab957610100808354040283529160200191612ae4565b820191906000526020600020905b815481529060010190602001808311612ac757829003601f168201915b5050505050815260200160048201548152602001600582015481526020016006820154815260200160078201548152602001600882015481526020016009820154815250509050919050565b612b38612b6b565b6001600160a01b038116612b6257604051631e4fbdf760e01b815260006004820152602401610b82565b611ec581612ed2565b6000546001600160a01b0316331461138c5760405163118cdaa760e01b8152336004820152602401610b82565b600260015403612bbb57604051633ee5aeb560e01b815260040160405180910390fd5b6002600155565b6001810154600882015460009081526013602052604081208054600160a01b90930463ffffffff1692909190612bf990849061451a565b9091555050600181810154600883015460009081526013602052604081209092018054600160c01b90920463ffffffff16929091612c3890849061451a565b909155505060088101546000908152601360205260408120600201805491612c5f83614988565b9091555050600280546001600160401b0316906000612c7d8361499f565b82546101009290920a6001600160401b038181021990931691909216919091021790555080546803000000000000000060ff60401b1990911617808255436009830155600c546040516361e4c1e960e11b81526001600160a01b03600160481b9093048316600482015291169063c3c983d290602401600060405180830381600087803b158015612d0d57600080fd5b505af1158015612d21573d6000803e3d6000fd5b5050600c5483546001850154604051631214f86f60e11b8152600160481b9092046001600160a01b039081166004840152600160e01b90910463ffffffff1660248301529091169250632429f0de9150604401600060405180830381600087803b158015612d8e57600080fd5b505af1158015612da2573d6000803e3d6000fd5b5050600b5460018401546040516361e4c1e960e11b81526001600160a01b0391821660048201529116925063c3c983d29150602401600060405180830381600087803b158015612df157600080fd5b505af1158015612e05573d6000803e3d6000fd5b5050600b5460018401546040516310c791e560e11b81526001600160a01b039182166004820152600060248201529116925063218f23ca9150604401600060405180830381600087803b158015612e5b57600080fd5b505af1158015612e6f573d6000803e3d6000fd5b5050825460018401546040514381526001600160a01b03600160481b84048116955090911692506001600160401b03909116907f5030472abe84127f1f2b92ab27763256a3d275c0c827c8cffa506c99cd1ed1049060200160405180910390a450565b600080546001600160a01b038381166001600160a01b0319831681178455604051919092169283917f8be0079c531659141344cd1fd0a4f28419497f9722a3daafe3b4186f6b6457e09190a35050565b60007f000000000000000000000000000000000000000000000000000000000000000063ffffffff16600c60009054906101000a90046001600160a01b03166001600160a01b031663582256f16040518163ffffffff1660e01b8152600401602060405180830381865afa158015612f9e573d6000803e3d6000fd5b505050506040513d601f19601f82011682018060405250810190612fc2919061473c565b1015612fce5750600090565b7f000000000000000000000000000000000000000000000000000000000000000063ffffffff167f000000000000000000000000000000000000000000000000000000000000000063ffffffff16600c60009054906101000a90046001600160a01b03166001600160a01b031663582256f16040518163ffffffff1660e01b8152600401602060405180830381865afa15801561306f573d6000803e3d6000fd5b505050506040513d601f19601f82011682018060405250810190613093919061473c565b61309d919061451a565b11905090565b60028054600160401b90046001600160401b03169060086130c3836149c2565b82546101009290920a6001600160401b03818102199093169183160217909155600254600160401b908190048216600081815260086020908152604080832081516101e081019092528054968716825293965091949193908401910460ff16600381111561313357613133614358565b600381111561314457613144614358565b815281546001600160a01b03600160481b909104811660208301526001830154908116604083015263ffffffff600160a01b820481166060840152600160c01b820481166080840152600160e01b9091041660a082015260028201805460c0909201916131b0906146da565b80601f01602080910402602001604051908101604052809291908181526020018280546131dc906146da565b80156132295780601f106131fe57610100808354040283529160200191613229565b820191906000526020600020905b81548152906001019060200180831161320c57829003601f168201915b50505050508152602001600382018054613242906146da565b80601f016020809104026020016040519081016040528092919081815260200182805461326e906146da565b80156132bb5780601f10613290576101008083540402835291602001916132bb565b820191906000526020600020905b81548152906001019060200180831161329e57829003601f168201915b50505091835250506004820154602080830191909152600583015460408301526006830154606083015260078301546080830152600883015460a083015260099092015460c0909101526001600160401b0384168252909150600090820181905250336040808301919091526000606083018190524361014084015282516001600160401b039081168252600860209081529290912083518154921667ffffffffffffffff1983168117825592840151849391929091839168ffffffffffffffffff191617600160401b83600381111561339757613397614358565b021790555060408201518154600160481b600160e81b031916600160481b6001600160a01b03928316021782556060830151600183018054608086015160a087015160c0880151949095166001600160c01b031990921691909117600160a01b63ffffffff92831602176001600160c01b0316600160c01b948216949094026001600160e01b031693909317600160e01b939092169290920217905560e082015160028201906134479082614a39565b50610100820151600382019061345d9082614a39565b5061012082015160048201556101408201516005820155610160820151600682015561018082015160078201556101a082015160088201556101c090910151600990910155600280546001600160401b03169060006134bb836149c2565b91906101000a8154816001600160401b0302191690836001600160401b0316021790555050336001600160a01b0316826001600160401b03167f30053137f0cf60633be984694dd6295bb2027e571b975e37b0cedeefb92b375d4360405161352591815260200190565b60405180910390a35050565b600c546040516394c3cee960e01b81523360048201526001600160a01b03909116906394c3cee990602401600060405180830381600087803b15801561357657600080fd5b505af115801561358a573d6000803e3d6000fd5b50505050565b600060145460016135a19190614507565b9050600c60009054906101000a90046001600160a01b03166001600160a01b031663e05cf1556040518163ffffffff1660e01b8152600401602060405180830381865afa1580156135f6573d6000803e3d6000fd5b505050506040513d601f19601f8201168201806040525081019061361a919061473c565b811015611ec557600081815260136020526040812080546004805492939192909190613647908490614507565b9091555050600181015460058054600090613663908490614507565b909155505060028101546003805460009061367f908490614507565b9091555050600c5460408051632483dc7160e11b815290516001600160a01b0390921691634907b8e2916004808201926020929091908290030181865afa1580156136ce573d6000803e3d6000fd5b505050506040513d601f19601f820116820180604052508101906136f2919061473c565b60065550601455565b6002602086018190525063ffffffff8281166080870181905290821660a0870181905260115460405163ac2d165360e01b8152600481019390935260248301919091526001600160a01b03169063ac2d165390604401602060405180830381865afa15801561376e573d6000803e3d6000fd5b505050506040513d601f19601f820116820180604052508101906137929190614af7565b63ffffffff1660c086015260e08501849052610100850183905243610180860152600c546040805163e05cf15560e01b815290516001600160a01b039092169163e05cf155916004808201926020929091908290030181865afa1580156137fd573d6000803e3d6000fd5b505050506040513d601f19601f82011682018060405250810190613821919061473c565b6101a086015284516001600160401b03908116600090815260086020908152604090912087518154931667ffffffffffffffff1984168117825591880151889391929091839168ffffffffffffffffff1990911617600160401b83600381111561388d5761388d614358565b021790555060408201518154600160481b600160e81b031916600160481b6001600160a01b03928316021782556060830151600183018054608086015160a087015160c0880151949095166001600160c01b031990921691909117600160a01b63ffffffff92831602176001600160c01b0316600160c01b948216949094026001600160e01b031693909317600160e01b939092169290920217905560e0820151600282019061393d9082614a39565b5061010082015160038201906139539082614a39565b5061012082015160048201556101408201516005820155610160820151600682015561018082015160078201556101a082015160088201556101c0909101516009909101555050505050565b6040818101516060830151600f54600c5460c086015186519551630f1698bb60e11b81526001600160a01b03808716600483015263ffffffff90921660248201526001600160401b039096166044870152939492939182169262b2c9209286921690631e2d3176906064016020604051808303816000875af1158015613a29573d6000803e3d6000fd5b505050506040513d601f19601f82011682018060405250810190613a4d919061473c565b6040516001600160e01b031960e085901b1681526001600160a01b0390921660048301526024820152604401600060405180830381600087803b158015613a9357600080fd5b505af1158015613aa7573d6000803e3d6000fd5b5050600f54600b5460c08701518751604051630f1698bb60e11b81526001600160a01b03888116600483015263ffffffff90931660248201526001600160401b039091166044820152928116945063f1a204ce93508592911690631e2d3176906064016020604051808303816000875af1158015613b29573d6000803e3d6000fd5b505050506040513d601f19601f82011682018060405250810190613b4d919061473c565b6040516001600160e01b031960e085901b1681526001600160a01b0390921660048301526024820152604401600060405180830381600087803b158015613b9357600080fd5b505af1158015613ba7573d6000803e3d6000fd5b5050506001600160a01b0390921660009081526009602090815260408220945185546001810187559583529120600485040180546001600160401b0392831660086003909716969096026101000a9586029290950219909416179092555050565b6001600160401b0381168114611ec557600080fd5b8035613c2881613c08565b919050565b600060208284031215613c3f57600080fd5b8135613c4a81613c08565b9392505050565b634e487b7160e01b600052604160045260246000fd5b604051602081016001600160401b0381118282101715613c8957613c89613c51565b60405290565b604080519081016001600160401b0381118282101715613c8957613c89613c51565b6040516101a081016001600160401b0381118282101715613c8957613c89613c51565b6040516101e081016001600160401b0381118282101715613c8957613c89613c51565b60405160e081016001600160401b0381118282101715613c8957613c89613c51565b60405161016081016001600160401b0381118282101715613c8957613c89613c51565b604051601f8201601f191681016001600160401b0381118282101715613d6457613d64613c51565b604052919050565b6001600160a01b0381168114611ec557600080fd5b8035613c2881613d6c565b60006001600160401b03821115613da557613da5613c51565b50601f01601f191660200190565b600082601f830112613dc457600080fd5b8135613dd7613dd282613d8c565b613d3c565b818152846020838601011115613dec57600080fd5b816020850160208301376000918101602001919091529392505050565b63ffffffff81168114611ec557600080fd5b8035613c2881613e09565b8015158114611ec557600080fd5b8035613c2881613e26565b600060208284031215613e5157600080fd5b613e59613c67565b9135825250919050565b600060408284031215613e7557600080fd5b613e7d613c8f565b90508135613e8a81613e26565b815260209182013591810191909152919050565b600060208284031215613eb057600080fd5b81356001600160401b03811115613ec657600080fd5b82016101c08185031215613ed957600080fd5b613ee1613cb1565b613eea82613c1d565b8152613ef860208301613d81565b602082015260408201356001600160401b03811115613f1657600080fd5b613f2286828501613db3565b60408301525060608201356001600160401b03811115613f4157600080fd5b613f4d86828501613db3565b606083015250613f5f60808301613e1b565b6080820152613f7060a08301613e34565b60a082015260c0828101359082015260e08083013590820152613f97856101008401613e3f565b610100820152613fab856101208401613e63565b6101208201526101608281013561014083015261018083013590820152613fd56101a08301613e34565b610180820152949350505050565b803560048110613c2857600080fd5b60006020828403121561400457600080fd5b81356001600160401b0381111561401a57600080fd5b82016101e0818503121561402d57600080fd5b614035613cd4565b61403e82613c1d565b815261404c60208301613fe3565b602082015261405d60408301613d81565b604082015261406e60608301613d81565b606082015261407f60808301613e1b565b608082015261409060a08301613e1b565b60a08201526140a160c08301613e1b565b60c082015260e08201356001600160401b038111156140bf57600080fd5b6140cb86828501613db3565b60e0830152506101008201356001600160401b038111156140eb57600080fd5b6140f786828501613db3565b6101008301525061012082810135908201526101408083013590820152610160808301359082015261018080830135908201526101a080830135908201526101c091820135918101919091529392505050565b600060e082840312801561415d57600080fd5b50614166613cf7565b823561417181613d6c565b8152602083013561418181613d6c565b6020820152604083013561419481613d6c565b604082015260608301356141a781613d6c565b60608201526141b860808401613d81565b60808201526141c960a08401613d81565b60a08201526141da60c08401613d81565b60c08201529392505050565b600080604083850312156141f957600080fd5b823561420481613c08565b915060208301356001600160401b0381111561421f57600080fd5b61422b85828601613db3565b9150509250929050565b60006020828403121561424757600080fd5b8135613c4a81613d6c565b602080825282518282018190526000918401906040840190835b818110156142935783516001600160401b031683526020938401939092019160010161426c565b509095945050505050565b6000602082840312156142b057600080fd5b5035919050565b600080600080600060a086880312156142cf57600080fd5b85356142da81613c08565b945060208601356001600160401b038111156142f557600080fd5b61430188828901613db3565b94505060408601356001600160401b0381111561431d57600080fd5b61432988828901613db3565b935050606086013561433a81613e09565b9150608086013561434a81613e09565b809150509295509295909350565b634e487b7160e01b600052602160045260246000fd5b6004811061437e5761437e614358565b9052565b60005b8381101561439d578181015183820152602001614385565b50506000910152565b600081518084526143be816020860160208601614382565b601f01601f19169290920160200192915050565b602081526143ec6020820183516001600160401b03169052565b60006020830151614400604084018261436e565b5060408301516001600160a01b03811660608401525060608301516001600160a01b038116608084015250608083015163ffffffff811660a08401525060a083015163ffffffff811660c08401525060c083015163ffffffff811660e08401525060e08301516101e061010084015261447d6102008401826143a6565b9050610100840151601f198483030161012085015261449c82826143a6565b9150506101208401516101408401526101408401516101608401526101608401516101808401526101808401516101a08401526101a08401516101c08401526101c08401516101e08401528091505092915050565b634e487b7160e01b600052601160045260246000fd5b80820180821115610640576106406144f1565b81810381811115610640576106406144f1565b8051613c2881613c08565b8051613c2881613d6c565b600082601f83011261455457600080fd5b8151614562613dd282613d8c565b81815284602083860101111561457757600080fd5b614588826020830160208701614382565b949350505050565b6000604082840312156145a257600080fd5b6145aa613c8f565b825181526020928301519281019290925250919050565b6000602082840312156145d357600080fd5b81516001600160401b038111156145e957600080fd5b820161018081850312156145fc57600080fd5b614604613d19565b61460d8261452d565b815261461b60208301614538565b602082015260408201516001600160401b0381111561463957600080fd5b61464586828501614543565b60408301525060608201516001600160401b0381111561466457600080fd5b61467086828501614543565b6060830152506080828101519082015260a0808301519082015260c0808301519082015260e080830151908201526146ab610100830161452d565b6101008201526146bf856101208401614590565b61012082015261016091909101516101408201529392505050565b600181811c908216806146ee57607f821691505b60208210810361470e57634e487b7160e01b600052602260045260246000fd5b50919050565b8051613c2881613e26565b60006020828403121561473157600080fd5b8151613c4a81613e26565b60006020828403121561474e57600080fd5b5051919050565b60006020828403121561476757600080fd5b815160ff81168114613c4a57600080fd5b602081526000613c4a60208301846143a6565b604081016008841061479f5761479f614358565b9281526001600160a01b039190911660209091015290565b8051613c2881613e09565b6000602082840312156147d457600080fd5b6147dc613c67565b9151825250919050565b6000604082840312156147f857600080fd5b614800613c8f565b9050815161480d81613e26565b815260209182015191810191909152919050565b60006020828403121561483357600080fd5b81516001600160401b0381111561484957600080fd5b82016101c0818503121561485c57600080fd5b614864613cb1565b61486d8261452d565b815261487b60208301614538565b602082015260408201516001600160401b0381111561489957600080fd5b6148a586828501614543565b60408301525060608201516001600160401b038111156148c457600080fd5b6148d086828501614543565b6060830152506148e2608083016147b7565b60808201526148f360a08301614714565b60a082015260c0828101519082015260e0808301519082015261491a8561010084016147c2565b61010082015261492e8561012084016147e6565b6101208201526101608281015161014083015261018083015190820152613fd56101a08301614714565b8082028115828204841417610640576106406144f1565b600060018201614981576149816144f1565b5060010190565b600081614997576149976144f1565b506000190190565b60006001600160401b038216806149b8576149b86144f1565b6000190192915050565b60006001600160401b0382166001600160401b0381036149e4576149e46144f1565b60010192915050565b601f821115614a3457806000526020600020601f840160051c81016020851015614a145750805b601f840160051c820191505b818110156128685760008155600101614a20565b505050565b81516001600160401b03811115614a5257614a52613c51565b614a6681614a6084546146da565b846149ed565b6020601f821160018114614a9a5760008315614a825750848201515b600019600385901b1c1916600184901b178455612868565b600084815260208120601f198516915b82811015614aca5787850151825560209485019460019092019101614aaa565b5084821015614ae85786840151600019600387901b60f8161c191681555b50505050600190811b01905550565b600060208284031215614b0957600080fd5b8151613c4a81613e0956fea26469706673582212205cf6f591ef216bd872b9c3827d879eab0862b0563d09a4c241b79643116b72b864736f6c634300081b0033",
  "linkReferences": {},
  "deployedLinkReferences": {}
}