{
  "_format": "hh-sol-artifact-1",
  "contractName": "InspectionRules",
  "sourceName": "contracts/InspectionRules.sol",
  "abi": [
    {
      "inputs": [
        {
          "internalType": "uint256",
          "name": "timeBetweenInspections_",
          "type": "uint256"
        },
        {
          "internalType": "uint256",
          "name": "blocksToExpireAcceptedInspection_",
          "type": "uint256"
        },
        {
          "internalType": "uint256",
          "name": "allowedInitialRequests_",
          "type": "uint256"
        },
        {
          "internalType": "uint256",
          "name": "acceptInspectionDelayBlocks_",
          "type": "uint256"
        },
        {
          "internalType": "uint256",
          "name": "securityBlocksToValidatorAnalysis_",
          "type": "uint256"
        }
      ],
      "stateMutability": "nonpayable",
      "type": "constructor"
    },
    {
      "anonymous": false,
      "inputs": [
        {
          "indexed": true,
          "internalType": "address",
          "name": "previousOwner",
          "type": "address"
        },
        {
          "indexed": true,
          "internalType": "address",
          "name": "newOwner",
          "type": "address"
        }
      ],
      "name": "OwnershipTransferred",
      "type": "event"
    },
    {
      "inputs": [
        {
          "internalType": "uint256",
          "name": "inspectionId",
          "type": "uint256"
        }
      ],
      "name": "acceptInspection",
      "outputs": [],
      "stateMutability": "nonpayable",
      "type": "function"
    },
    {
      "inputs": [],
      "name": "acceptInspectionDelayBlocks",
      "outputs": [
        {
          "internalType": "uint256",
          "name": "",
          "type": "uint256"
        }
      ],
      "stateMutability": "view",
      "type": "function"
    },
    {
      "inputs": [
        {
          "internalType": "uint256",
          "name": "id",
          "type": "uint256"
        },
        {
          "internalType": "string",
          "name": "justification",
          "type": "string"
        }
      ],
      "name": "addInspectionValidation",
      "outputs": [],
      "stateMutability": "nonpayable",
      "type": "function"
    },
    {
      "inputs": [
        {
          "internalType": "address",
          "name": "",
          "type": "address"
        }
      ],
      "name": "allowedCallers",
      "outputs": [
        {
          "internalType": "bool",
          "name": "",
          "type": "bool"
        }
      ],
      "stateMutability": "view",
      "type": "function"
    },
    {
      "inputs": [],
      "name": "allowedInitialRequests",
      "outputs": [
        {
          "internalType": "uint256",
          "name": "",
          "type": "uint256"
        }
      ],
      "stateMutability": "view",
      "type": "function"
    },
    {
      "inputs": [],
      "name": "blocksToExpireAcceptedInspection",
      "outputs": [
        {
          "internalType": "uint256",
          "name": "",
          "type": "uint256"
        }
      ],
      "stateMutability": "view",
      "type": "function"
    },
    {
      "inputs": [
        {
          "internalType": "uint256",
          "name": "inspectionId",
          "type": "uint256"
        }
      ],
      "name": "calculateBlocksToExpire",
      "outputs": [
        {
          "internalType": "uint256",
          "name": "",
          "type": "uint256"
        }
      ],
      "stateMutability": "view",
      "type": "function"
    },
    {
      "inputs": [
        {
          "internalType": "uint256",
          "name": "id",
          "type": "uint256"
        }
      ],
      "name": "getInspection",
      "outputs": [
        {
          "components": [
            {
              "internalType": "uint256",
              "name": "id",
              "type": "uint256"
            },
            {
              "internalType": "enum InspectionStatus",
              "name": "status",
              "type": "uint8"
            },
            {
              "internalType": "address",
              "name": "regenerator",
              "type": "address"
            },
            {
              "internalType": "address",
              "name": "inspector",
              "type": "address"
            },
            {
              "internalType": "uint256",
              "name": "regenerationScore",
              "type": "uint256"
            },
            {
              "internalType": "string",
              "name": "proofPhoto",
              "type": "string"
            },
            {
              "internalType": "string",
              "name": "report",
              "type": "string"
            },
            {
              "internalType": "uint256",
              "name": "validationsCount",
              "type": "uint256"
            },
            {
              "internalType": "uint256",
              "name": "createdAt",
              "type": "uint256"
            },
            {
              "internalType": "uint256",
              "name": "acceptedAt",
              "type": "uint256"
            },
            {
              "internalType": "uint256",
              "name": "inspectedAt",
              "type": "uint256"
            },
            {
              "internalType": "uint256",
              "name": "inspectedAtEra",
              "type": "uint256"
            },
            {
              "internalType": "uint256",
              "name": "invalidatedAt",
              "type": "uint256"
            }
          ],
          "internalType": "struct Inspection",
          "name": "",
          "type": "tuple"
        }
      ],
      "stateMutability": "view",
      "type": "function"
    },
    {
      "inputs": [],
      "name": "getInspectionsHistory",
      "outputs": [
        {
          "internalType": "uint256[]",
          "name": "",
          "type": "uint256[]"
        }
      ],
      "stateMutability": "view",
      "type": "function"
    },
    {
      "inputs": [
        {
          "internalType": "uint256",
          "name": "inspectionId",
          "type": "uint256"
        },
        {
          "internalType": "uint256",
          "name": "categoryId",
          "type": "uint256"
        }
      ],
      "name": "getRegenerationInspection",
      "outputs": [
        {
          "components": [
            {
              "internalType": "uint256",
              "name": "categoryId",
              "type": "uint256"
            },
            {
              "internalType": "uint256",
              "name": "indicator",
              "type": "uint256"
            }
          ],
          "internalType": "struct RegenerationInspection",
          "name": "",
          "type": "tuple"
        }
      ],
      "stateMutability": "view",
      "type": "function"
    },
    {
      "inputs": [],
      "name": "inspectionsBiodiversityImpact",
      "outputs": [
        {
          "internalType": "uint256",
          "name": "",
          "type": "uint256"
        }
      ],
      "stateMutability": "view",
      "type": "function"
    },
    {
      "inputs": [],
      "name": "inspectionsCount",
      "outputs": [
        {
          "internalType": "uint256",
          "name": "",
          "type": "uint256"
        }
      ],
      "stateMutability": "view",
      "type": "function"
    },
    {
      "inputs": [],
      "name": "inspectionsTotalCount",
      "outputs": [
        {
          "internalType": "uint256",
          "name": "",
          "type": "uint256"
        }
      ],
      "stateMutability": "view",
      "type": "function"
    },
    {
      "inputs": [],
      "name": "inspectionsTreesImpact",
      "outputs": [
        {
          "internalType": "uint256",
          "name": "",
          "type": "uint256"
        }
      ],
      "stateMutability": "view",
      "type": "function"
    },
    {
      "inputs": [
        {
          "internalType": "address",
          "name": "caller",
          "type": "address"
        }
      ],
      "name": "isAllowedCaller",
      "outputs": [
        {
          "internalType": "bool",
          "name": "",
          "type": "bool"
        }
      ],
      "stateMutability": "view",
      "type": "function"
    },
    {
      "inputs": [
        {
          "internalType": "address",
          "name": "allowed",
          "type": "address"
        }
      ],
      "name": "newAllowedCaller",
      "outputs": [],
      "stateMutability": "nonpayable",
      "type": "function"
    },
    {
      "inputs": [],
      "name": "owner",
      "outputs": [
        {
          "internalType": "address",
          "name": "",
          "type": "address"
        }
      ],
      "stateMutability": "view",
      "type": "function"
    },
    {
      "inputs": [
        {
          "internalType": "uint256",
          "name": "inspectionId",
          "type": "uint256"
        },
        {
          "internalType": "string",
          "name": "proofPhoto",
          "type": "string"
        },
        {
          "internalType": "string",
          "name": "report",
          "type": "string"
        },
        {
          "components": [
            {
              "internalType": "uint256",
              "name": "categoryId",
              "type": "uint256"
            },
            {
              "internalType": "uint256",
              "name": "indicator",
              "type": "uint256"
            }
          ],
          "internalType": "struct RegenerationInspection",
          "name": "treesResult",
          "type": "tuple"
        },
        {
          "components": [
            {
              "internalType": "uint256",
              "name": "categoryId",
              "type": "uint256"
            },
            {
              "internalType": "uint256",
              "name": "indicator",
              "type": "uint256"
            }
          ],
          "internalType": "struct RegenerationInspection",
          "name": "biodiversityResult",
          "type": "tuple"
        }
      ],
      "name": "realizeInspection",
      "outputs": [],
      "stateMutability": "nonpayable",
      "type": "function"
    },
    {
      "inputs": [
        {
          "internalType": "uint256",
          "name": "",
          "type": "uint256"
        },
        {
          "internalType": "uint256",
          "name": "",
          "type": "uint256"
        }
      ],
      "name": "regenerationInspection",
      "outputs": [
        {
          "internalType": "uint256",
          "name": "categoryId",
          "type": "uint256"
        },
        {
          "internalType": "uint256",
          "name": "indicator",
          "type": "uint256"
        }
      ],
      "stateMutability": "view",
      "type": "function"
    },
    {
      "inputs": [],
      "name": "renounceOwnership",
      "outputs": [],
      "stateMutability": "nonpayable",
      "type": "function"
    },
    {
      "inputs": [],
      "name": "requestInspection",
      "outputs": [],
      "stateMutability": "nonpayable",
      "type": "function"
    },
    {
      "inputs": [],
      "name": "securityBlocksToValidatorAnalysis",
      "outputs": [
        {
          "internalType": "uint256",
          "name": "",
          "type": "uint256"
        }
      ],
      "stateMutability": "view",
      "type": "function"
    },
    {
      "inputs": [
        {
          "components": [
            {
              "internalType": "address",
              "name": "communityRulesAddress",
              "type": "address"
            },
            {
              "internalType": "address",
              "name": "regeneratorRulesAddress",
              "type": "address"
            },
            {
              "internalType": "address",
              "name": "validatorRulesAddress",
              "type": "address"
            },
            {
              "internalType": "address",
              "name": "inspectorRulesAddress",
              "type": "address"
            },
            {
              "internalType": "address",
              "name": "regenerationIndexRulesAddress",
              "type": "address"
            },
            {
              "internalType": "address",
              "name": "activistRulesAddress",
              "type": "address"
            }
          ],
          "internalType": "struct ContractsDependency",
          "name": "contractDependency",
          "type": "tuple"
        }
      ],
      "name": "setContractAddressDependencies",
      "outputs": [],
      "stateMutability": "nonpayable",
      "type": "function"
    },
    {
      "inputs": [],
      "name": "timeBetweenInspections",
      "outputs": [
        {
          "internalType": "uint256",
          "name": "",
          "type": "uint256"
        }
      ],
      "stateMutability": "view",
      "type": "function"
    },
    {
      "inputs": [
        {
          "internalType": "address",
          "name": "newOwner",
          "type": "address"
        }
      ],
      "name": "transferOwnership",
      "outputs": [],
      "stateMutability": "nonpayable",
      "type": "function"
    },
    {
      "inputs": [
        {
          "components": [
            {
              "internalType": "uint256",
              "name": "id",
              "type": "uint256"
            },
            {
              "internalType": "address",
              "name": "regeneratorWallet",
              "type": "address"
            },
            {
              "internalType": "string",
              "name": "name",
              "type": "string"
            },
            {
              "internalType": "string",
              "name": "proofPhoto",
              "type": "string"
            },
            {
              "internalType": "uint256",
              "name": "totalArea",
              "type": "uint256"
            },
            {
              "internalType": "bool",
              "name": "pendingInspection",
              "type": "bool"
            },
            {
              "internalType": "uint256",
              "name": "totalInspections",
              "type": "uint256"
            },
            {
              "internalType": "uint256",
              "name": "lastRequestAt",
              "type": "uint256"
            },
            {
              "components": [
                {
                  "internalType": "uint256",
                  "name": "score",
                  "type": "uint256"
                },
                {
                  "internalType": "uint256",
                  "name": "average",
                  "type": "uint256"
                }
              ],
              "internalType": "struct RegenerationScore",
              "name": "regenerationScore",
              "type": "tuple"
            },
            {
              "components": [
                {
                  "internalType": "bool",
                  "name": "onContractPool",
                  "type": "bool"
                },
                {
                  "internalType": "uint256",
                  "name": "currentEra",
                  "type": "uint256"
                }
              ],
              "internalType": "struct Pool",
              "name": "pool",
              "type": "tuple"
            },
            {
              "internalType": "uint256",
              "name": "createdAt",
              "type": "uint256"
            }
          ],
          "internalType": "struct Regenerator",
          "name": "regenerator",
          "type": "tuple"
        }
      ],
      "name": "waitToRequest",
      "outputs": [
        {
          "internalType": "bool",
          "name": "",
          "type": "bool"
        }
      ],
      "stateMutability": "view",
      "type": "function"
    }
  ],
  "bytecode": "0x61012060405234801561001157600080fd5b50604051615b05380380615b0583398181016040528101906100339190610189565b61004f61004461008260201b60201c565b61008a60201b60201c565b84608081815250508360a081815250508260c081815250508160e081815250508061010081815250505050505050610204565b600033905090565b60008060009054906101000a900473ffffffffffffffffffffffffffffffffffffffff169050816000806101000a81548173ffffffffffffffffffffffffffffffffffffffff021916908373ffffffffffffffffffffffffffffffffffffffff1602179055508173ffffffffffffffffffffffffffffffffffffffff168173ffffffffffffffffffffffffffffffffffffffff167f8be0079c531659141344cd1fd0a4f28419497f9722a3daafe3b4186f6b6457e060405160405180910390a35050565b600080fd5b6000819050919050565b61016681610153565b811461017157600080fd5b50565b6000815190506101838161015d565b92915050565b600080600080600060a086880312156101a5576101a461014e565b5b60006101b388828901610174565b95505060206101c488828901610174565b94505060406101d588828901610174565b93505060606101e688828901610174565b92505060806101f788828901610174565b9150509295509295909350565b60805160a05160c05160e0516101005161587e61028760003960008181610c6b015261379e01526000818161197401526136a101526000818161149201526117f60152600081816112ec015281816118cc01528181611950015281816135e7015281816136dd01526137c2015260008181610c8f01526114c7015261587e6000f3fe608060405234801561001057600080fd5b506004361061018e5760003560e01c80638f93716f116100de578063db64911b11610097578063e785750211610071578063e785750214610464578063ed8f932114610480578063f28366701461049e578063f2fde38b146104ce5761018e565b8063db64911b146103f7578063e42c955114610428578063e710483d146104465761018e565b80638f93716f1461030f5780639df79c921461032b578063a2b570a414610349578063a680125814610367578063c25bd46114610397578063d7c9834e146103c75761018e565b80635401c1f21161014b5780637b334154116101255780637b3341541461028757806384da204e146102b757806386ae2fb1146102e75780638da5cb5b146102f15761018e565b80635401c1f2146102415780636b2edc161461025f578063715018a61461027d5761018e565b80630bbec3c2146101935780632c1d62e4146101b15780632eb92363146101cd5780633dbf1e8f146101eb578063484000fe146102095780634ac1a4b014610225575b600080fd5b61019b6104ea565b6040516101a89190613a2d565b60405180910390f35b6101cb60048036038101906101c69190613bd5565b61057f565b005b6101d5610c69565b6040516101e29190613c40565b60405180910390f35b6101f3610c8d565b6040516102009190613c40565b60405180910390f35b610223600480360381019061021e9190613d63565b610cb1565b005b61023f600480360381019061023a9190613de0565b610e5a565b005b61024961144e565b6040516102569190613c40565b60405180910390f35b610267611454565b6040516102749190613c40565b60405180910390f35b61028561145a565b005b6102a1600480360381019061029c9190613e93565b61146e565b6040516102ae9190613edb565b60405180910390f35b6102d160048036038101906102cc9190614106565b61148e565b6040516102de9190613edb565b60405180910390f35b6102ef6114ff565b005b6102f9611769565b604051610306919061415e565b60405180910390f35b61032960048036038101906103249190613e93565b611792565b005b6103336117f4565b6040516103409190613c40565b60405180910390f35b610351611818565b60405161035e9190613c40565b60405180910390f35b610381600480360381019061037c9190613e93565b61181e565b60405161038e9190613edb565b60405180910390f35b6103b160048036038101906103ac9190614179565b611874565b6040516103be91906141e8565b60405180910390f35b6103e160048036038101906103dc9190614203565b6118c7565b6040516103ee9190613c40565b60405180910390f35b610411600480360381019061040c9190614179565b61191d565b60405161041f929190614230565b60405180910390f35b61043061194e565b60405161043d9190613c40565b60405180910390f35b61044e611972565b60405161045b9190613c40565b60405180910390f35b61047e60048036038101906104799190614203565b611996565b005b610488612312565b6040516104959190613c40565b60405180910390f35b6104b860048036038101906104b39190614203565b612318565b6040516104c5919061447e565b60405180910390f35b6104e860048036038101906104e39190613e93565b6125a1565b005b6060600360003373ffffffffffffffffffffffffffffffffffffffff1673ffffffffffffffffffffffffffffffffffffffff16815260200190815260200160002080548060200260200160405190810160405280929190818152602001828054801561057557602002820191906000526020600020905b815481526020019060010190808311610561575b5050505050905090565b600960009054906101000a900473ffffffffffffffffffffffffffffffffffffffff1673ffffffffffffffffffffffffffffffffffffffff16639497c6086008336040518363ffffffff1660e01b81526004016105dd9291906144e8565b602060405180830381865afa1580156105fa573d6000803e3d6000fd5b505050506040513d601f19601f8201168201806040525081019061061e9190614526565b61065d576040517f08c379a0000000000000000000000000000000000000000000000000000000008152600401610654906145b0565b60405180910390fd5b600060046000848152602001908152602001600020604051806101a0016040529081600082015481526020016001820160009054906101000a900460ff1660048111156106ad576106ac614259565b5b60048111156106bf576106be614259565b5b81526020016001820160019054906101000a900473ffffffffffffffffffffffffffffffffffffffff1673ffffffffffffffffffffffffffffffffffffffff1673ffffffffffffffffffffffffffffffffffffffff1681526020016002820160009054906101000a900473ffffffffffffffffffffffffffffffffffffffff1673ffffffffffffffffffffffffffffffffffffffff1673ffffffffffffffffffffffffffffffffffffffff16815260200160038201548152602001600482018054610789906145ff565b80601f01602080910402602001604051908101604052809291908181526020018280546107b5906145ff565b80156108025780601f106107d757610100808354040283529160200191610802565b820191906000526020600020905b8154815290600101906020018083116107e557829003601f168201915b5050505050815260200160058201805461081b906145ff565b80601f0160208091040260200160405190810160405280929190818152602001828054610847906145ff565b80156108945780601f1061086957610100808354040283529160200191610894565b820191906000526020600020905b81548152906001019060200180831161087757829003601f168201915b5050505050815260200160068201548152602001600782015481526020016008820154815260200160098201548152602001600a8201548152602001600b820154815250509050600860009054906101000a900473ffffffffffffffffffffffffffffffffffffffff1673ffffffffffffffffffffffffffffffffffffffff1663e8f3c27a6040518163ffffffff1660e01b8152600401602060405180830381865afa158015610948573d6000803e3d6000fd5b505050506040513d601f19601f8201168201806040525081019061096c9190614645565b816101600151146109b2576040517f08c379a00000000000000000000000000000000000000000000000000000000081526004016109a9906146be565b60405180910390fd5b60018160e0018181516109c5919061470d565b915081815250508060046000836000015181526020019081526020016000206000820151816000015560208201518160010160006101000a81548160ff02191690836004811115610a1957610a18614259565b5b021790555060408201518160010160016101000a81548173ffffffffffffffffffffffffffffffffffffffff021916908373ffffffffffffffffffffffffffffffffffffffff16021790555060608201518160020160006101000a81548173ffffffffffffffffffffffffffffffffffffffff021916908373ffffffffffffffffffffffffffffffffffffffff1602179055506080820151816003015560a0820151816004019081610acb91906148ed565b5060c0820151816005019081610ae191906148ed565b5060e0820151816006015561010082015181600701556101208201518160080155610140820151816009015561016082015181600a015561018082015181600b01559050506000600a60009054906101000a900473ffffffffffffffffffffffffffffffffffffffff1673ffffffffffffffffffffffffffffffffffffffff166384f0f65f6040518163ffffffff1660e01b8152600401602060405180830381865afa158015610b95573d6000803e3d6000fd5b505050506040513d601f19601f82011682018060405250810190610bb99190614645565b8260e00151101590508015610bd257610bd182612624565b5b600a60009054906101000a900473ffffffffffffffffffffffffffffffffffffffff1673ffffffffffffffffffffffffffffffffffffffff1663e2bcbaf58385336040518463ffffffff1660e01b8152600401610c31939291906149f8565b600060405180830381600087803b158015610c4b57600080fd5b505af1158015610c5f573d6000803e3d6000fd5b5050505050505050565b7f000000000000000000000000000000000000000000000000000000000000000081565b7f000000000000000000000000000000000000000000000000000000000000000081565b610cb961285f565b8060000151600960006101000a81548173ffffffffffffffffffffffffffffffffffffffff021916908373ffffffffffffffffffffffffffffffffffffffff1602179055508060200151600860006101000a81548173ffffffffffffffffffffffffffffffffffffffff021916908373ffffffffffffffffffffffffffffffffffffffff1602179055508060400151600a60006101000a81548173ffffffffffffffffffffffffffffffffffffffff021916908373ffffffffffffffffffffffffffffffffffffffff1602179055508060600151600760006101000a81548173ffffffffffffffffffffffffffffffffffffffff021916908373ffffffffffffffffffffffffffffffffffffffff1602179055508060800151600c60006101000a81548173ffffffffffffffffffffffffffffffffffffffff021916908373ffffffffffffffffffffffffffffffffffffffff1602179055508060a00151600b60006101000a81548173ffffffffffffffffffffffffffffffffffffffff021916908373ffffffffffffffffffffffffffffffffffffffff16021790555050565b600060046000878152602001908152602001600020604051806101a0016040529081600082015481526020016001820160009054906101000a900460ff166004811115610eaa57610ea9614259565b5b6004811115610ebc57610ebb614259565b5b81526020016001820160019054906101000a900473ffffffffffffffffffffffffffffffffffffffff1673ffffffffffffffffffffffffffffffffffffffff1673ffffffffffffffffffffffffffffffffffffffff1681526020016002820160009054906101000a900473ffffffffffffffffffffffffffffffffffffffff1673ffffffffffffffffffffffffffffffffffffffff1673ffffffffffffffffffffffffffffffffffffffff16815260200160038201548152602001600482018054610f86906145ff565b80601f0160208091040260200160405190810160405280929190818152602001828054610fb2906145ff565b8015610fff5780601f10610fd457610100808354040283529160200191610fff565b820191906000526020600020905b815481529060010190602001808311610fe257829003601f168201915b50505050508152602001600582018054611018906145ff565b80601f0160208091040260200160405190810160405280929190818152602001828054611044906145ff565b80156110915780601f1061106657610100808354040283529160200191611091565b820191906000526020600020905b81548152906001019060200180831161107457829003601f168201915b5050505050815260200160068201548152602001600782015481526020016008820154815260200160098201548152602001600a8201548152602001600b820154815250509050600183600001511480156110f0575060028260000151145b61112f576040517f08c379a000000000000000000000000000000000000000000000000000000000815260040161112690614aaf565b60405180910390fd5b600960009054906101000a900473ffffffffffffffffffffffffffffffffffffffff1673ffffffffffffffffffffffffffffffffffffffff16639497c6086002336040518363ffffffff1660e01b815260040161118d9291906144e8565b602060405180830381865afa1580156111aa573d6000803e3d6000fd5b505050506040513d601f19601f820116820180604052508101906111ce9190614526565b61120d576040517f08c379a000000000000000000000000000000000000000000000000000000000815260040161120490614b1b565b60405180910390fd5b6001600481111561122157611220614259565b5b8160200151600481111561123857611237614259565b5b14611278576040517f08c379a000000000000000000000000000000000000000000000000000000000815260040161126f90614b87565b60405180910390fd5b3373ffffffffffffffffffffffffffffffffffffffff16816060015173ffffffffffffffffffffffffffffffffffffffff16146112ea576040517f08c379a00000000000000000000000000000000000000000000000000000000081526004016112e190614c19565b60405180910390fd5b7f000000000000000000000000000000000000000000000000000000000000000081610120015161131b919061470d565b43111561135d576040517f08c379a000000000000000000000000000000000000000000000000000000000815260040161135490614c85565b60405180910390fd5b61136a81868686866128dd565b61137381612c50565b8260200151600f6000828254611389919061470d565b925050819055508160200151601060008282546113a6919061470d565b925050819055506001600260003373ffffffffffffffffffffffffffffffffffffffff1673ffffffffffffffffffffffffffffffffffffffff1681526020019081526020016000206000836040015173ffffffffffffffffffffffffffffffffffffffff1673ffffffffffffffffffffffffffffffffffffffff16815260200190815260200160002060006101000a81548160ff021916908315150217905550505050505050565b600d5481565b600e5481565b61146261285f565b61146c6000612f0e565b565b60016020528060005260406000206000915054906101000a900460ff1681565b60007f00000000000000000000000000000000000000000000000000000000000000008260c0015110156114c557600190506114fa565b7f00000000000000000000000000000000000000000000000000000000000000008260e001516114f5919061470d565b431190505b919050565b6000600860009054906101000a900473ffffffffffffffffffffffffffffffffffffffff1673ffffffffffffffffffffffffffffffffffffffff166365ab21b0336040518263ffffffff1660e01b815260040161155c919061415e565b600060405180830381865afa158015611579573d6000803e3d6000fd5b505050506040513d6000823e3d601f19601f820116820180604052508101906115a29190614f0e565b9050600960009054906101000a900473ffffffffffffffffffffffffffffffffffffffff1673ffffffffffffffffffffffffffffffffffffffff16639497c6086001336040518363ffffffff1660e01b81526004016116029291906144e8565b602060405180830381865afa15801561161f573d6000803e3d6000fd5b505050506040513d601f19601f820116820180604052508101906116439190614526565b611682576040517f08c379a000000000000000000000000000000000000000000000000000000000815260040161167990614fa3565b60405180910390fd5b8060a00151156116c7576040517f08c379a00000000000000000000000000000000000000000000000000000000081526004016116be9061500f565b60405180910390fd5b6116d08161148e565b61170f576040517f08c379a00000000000000000000000000000000000000000000000000000000081526004016117069061507b565b60405180910390fd5b600c8160c0015110611756576040517f08c379a000000000000000000000000000000000000000000000000000000000815260040161174d906150e7565b60405180910390fd5b61175e612fd2565b61176661322c565b50565b60008060009054906101000a900473ffffffffffffffffffffffffffffffffffffffff16905090565b61179a61285f565b60018060008373ffffffffffffffffffffffffffffffffffffffff1673ffffffffffffffffffffffffffffffffffffffff16815260200190815260200160002060006101000a81548160ff02191690831515021790555050565b7f000000000000000000000000000000000000000000000000000000000000000081565b60105481565b6000600160008373ffffffffffffffffffffffffffffffffffffffff1673ffffffffffffffffffffffffffffffffffffffff16815260200190815260200160002060009054906101000a900460ff169050919050565b61187c6138a5565b60056000848152602001908152602001600020600083815260200190815260200160002060405180604001604052908160008201548152602001600182015481525050905092915050565b6000437f0000000000000000000000000000000000000000000000000000000000000000600460008581526020019081526020016000206008015461190c919061470d565b6119169190615107565b9050919050565b6005602052816000526040600020602052806000526040600020600091509150508060000154908060010154905082565b7f000000000000000000000000000000000000000000000000000000000000000081565b7f000000000000000000000000000000000000000000000000000000000000000081565b600960009054906101000a900473ffffffffffffffffffffffffffffffffffffffff1673ffffffffffffffffffffffffffffffffffffffff16639497c6086002336040518363ffffffff1660e01b81526004016119f49291906144e8565b602060405180830381865afa158015611a11573d6000803e3d6000fd5b505050506040513d601f19601f82011682018060405250810190611a359190614526565b611a74576040517f08c379a0000000000000000000000000000000000000000000000000000000008152600401611a6b90614b1b565b60405180910390fd5b600760009054906101000a900473ffffffffffffffffffffffffffffffffffffffff1673ffffffffffffffffffffffffffffffffffffffff16634d5ff1d3336040518263ffffffff1660e01b8152600401611acf919061415e565b602060405180830381865afa158015611aec573d6000803e3d6000fd5b505050506040513d601f19601f82011682018060405250810190611b109190614526565b611b4f576040517f08c379a0000000000000000000000000000000000000000000000000000000008152600401611b4690615187565b60405180910390fd5b600060046000838152602001908152602001600020604051806101a0016040529081600082015481526020016001820160009054906101000a900460ff166004811115611b9f57611b9e614259565b5b6004811115611bb157611bb0614259565b5b81526020016001820160019054906101000a900473ffffffffffffffffffffffffffffffffffffffff1673ffffffffffffffffffffffffffffffffffffffff1673ffffffffffffffffffffffffffffffffffffffff1681526020016002820160009054906101000a900473ffffffffffffffffffffffffffffffffffffffff1673ffffffffffffffffffffffffffffffffffffffff1673ffffffffffffffffffffffffffffffffffffffff16815260200160038201548152602001600482018054611c7b906145ff565b80601f0160208091040260200160405190810160405280929190818152602001828054611ca7906145ff565b8015611cf45780601f10611cc957610100808354040283529160200191611cf4565b820191906000526020600020905b815481529060010190602001808311611cd757829003601f168201915b50505050508152602001600582018054611d0d906145ff565b80601f0160208091040260200160405190810160405280929190818152602001828054611d39906145ff565b8015611d865780601f10611d5b57610100808354040283529160200191611d86565b820191906000526020600020905b815481529060010190602001808311611d6957829003601f168201915b5050505050815260200160068201548152602001600782015481526020016008820154815260200160098201548152602001600a8201548152602001600b820154815250509050600181600001511015611e15576040517f08c379a0000000000000000000000000000000000000000000000000000000008152600401611e0c906151f3565b60405180910390fd5b611e1d6132bb565b611e5c576040517f08c379a0000000000000000000000000000000000000000000000000000000008152600401611e5390615285565b60405180910390fd5b600260003373ffffffffffffffffffffffffffffffffffffffff1673ffffffffffffffffffffffffffffffffffffffff1681526020019081526020016000206000826040015173ffffffffffffffffffffffffffffffffffffffff1673ffffffffffffffffffffffffffffffffffffffff16815260200190815260200160002060009054906101000a900460ff1615611f2a576040517f08c379a0000000000000000000000000000000000000000000000000000000008152600401611f2190615317565b60405180910390fd5b60006004811115611f3e57611f3d614259565b5b81602001516004811115611f5557611f54614259565b5b14611f95576040517f08c379a0000000000000000000000000000000000000000000000000000000008152600401611f8c90615383565b60405180910390fd5b611f9e8161369d565b611fdd576040517f08c379a0000000000000000000000000000000000000000000000000000000008152600401611fd4906153ef565b60405180910390fd5b611fe56136d9565b612024576040517f08c379a000000000000000000000000000000000000000000000000000000000815260040161201b9061545b565b60405180910390fd5b60018160200190600481111561203d5761203c614259565b5b9081600481111561205157612050614259565b5b81525050438161012001818152505033816060019073ffffffffffffffffffffffffffffffffffffffff16908173ffffffffffffffffffffffffffffffffffffffff168152505080600460008481526020019081526020016000206000820151816000015560208201518160010160006101000a81548160ff021916908360048111156120e1576120e0614259565b5b021790555060408201518160010160016101000a81548173ffffffffffffffffffffffffffffffffffffffff021916908373ffffffffffffffffffffffffffffffffffffffff16021790555060608201518160020160006101000a81548173ffffffffffffffffffffffffffffffffffffffff021916908373ffffffffffffffffffffffffffffffffffffffff1602179055506080820151816003015560a082015181600401908161219391906148ed565b5060c08201518160050190816121a991906148ed565b5060e0820151816006015561010082015181600701556101208201518160080155610140820151816009015561016082015181600a015561018082015181600b0155905050600860009054906101000a900473ffffffffffffffffffffffffffffffffffffffff1673ffffffffffffffffffffffffffffffffffffffff16631db6420482604001516040518263ffffffff1660e01b815260040161224d919061415e565b600060405180830381600087803b15801561226757600080fd5b505af115801561227b573d6000803e3d6000fd5b50505050600760009054906101000a900473ffffffffffffffffffffffffffffffffffffffff1673ffffffffffffffffffffffffffffffffffffffff1663d518ad5f33846040518363ffffffff1660e01b81526004016122dc92919061547b565b600060405180830381600087803b1580156122f657600080fd5b505af115801561230a573d6000803e3d6000fd5b505050505050565b600f5481565b6123206138bf565b60046000838152602001908152602001600020604051806101a0016040529081600082015481526020016001820160009054906101000a900460ff16600481111561236e5761236d614259565b5b60048111156123805761237f614259565b5b81526020016001820160019054906101000a900473ffffffffffffffffffffffffffffffffffffffff1673ffffffffffffffffffffffffffffffffffffffff1673ffffffffffffffffffffffffffffffffffffffff1681526020016002820160009054906101000a900473ffffffffffffffffffffffffffffffffffffffff1673ffffffffffffffffffffffffffffffffffffffff1673ffffffffffffffffffffffffffffffffffffffff1681526020016003820154815260200160048201805461244a906145ff565b80601f0160208091040260200160405190810160405280929190818152602001828054612476906145ff565b80156124c35780601f10612498576101008083540402835291602001916124c3565b820191906000526020600020905b8154815290600101906020018083116124a657829003601f168201915b505050505081526020016005820180546124dc906145ff565b80601f0160208091040260200160405190810160405280929190818152602001828054612508906145ff565b80156125555780601f1061252a57610100808354040283529160200191612555565b820191906000526020600020905b81548152906001019060200180831161253857829003601f168201915b5050505050815260200160068201548152602001600782015481526020016008820154815260200160098201548152602001600a8201548152602001600b820154815250509050919050565b6125a961285f565b600073ffffffffffffffffffffffffffffffffffffffff168173ffffffffffffffffffffffffffffffffffffffff1603612618576040517f08c379a000000000000000000000000000000000000000000000000000000000815260040161260f90615516565b60405180910390fd5b61262181612f0e565b50565b600560008260000151815260200190815260200160002060006001815260200190815260200160002060010154600f60008282546126629190615107565b92505081905550600560008260000151815260200190815260200160002060006002815260200190815260200160002060010154601060008282546126a79190615107565b92505081905550600d60008154809291906126c190615536565b91905055506004816020019060048111156126df576126de614259565b5b908160048111156126f3576126f2614259565b5b8152505043816101800181815250508060046000836000015181526020019081526020016000206000820151816000015560208201518160010160006101000a81548160ff0219169083600481111561274f5761274e614259565b5b021790555060408201518160010160016101000a81548173ffffffffffffffffffffffffffffffffffffffff021916908373ffffffffffffffffffffffffffffffffffffffff16021790555060608201518160020160006101000a81548173ffffffffffffffffffffffffffffffffffffffff021916908373ffffffffffffffffffffffffffffffffffffffff1602179055506080820151816003015560a082015181600401908161280191906148ed565b5060c082015181600501908161281791906148ed565b5060e0820151816006015561010082015181600701556101208201518160080155610140820151816009015561016082015181600a015561018082015181600b015590505050565b612867613887565b73ffffffffffffffffffffffffffffffffffffffff16612885611769565b73ffffffffffffffffffffffffffffffffffffffff16146128db576040517f08c379a00000000000000000000000000000000000000000000000000000000081526004016128d2906155ab565b60405180910390fd5b565b6002856020019060048111156128f6576128f5614259565b5b9081600481111561290a57612909614259565b5b81525050600c60009054906101000a900473ffffffffffffffffffffffffffffffffffffffff1673ffffffffffffffffffffffffffffffffffffffff16637a22c47483836040518363ffffffff1660e01b815260040161296b9291906155cb565b602060405180830381865afa158015612988573d6000803e3d6000fd5b505050506040513d601f19601f820116820180604052508101906129ac9190614645565b856080018181525050838560a00181905250828560c001819052504385610140018181525050600860009054906101000a900473ffffffffffffffffffffffffffffffffffffffff1673ffffffffffffffffffffffffffffffffffffffff1663e8f3c27a6040518163ffffffff1660e01b8152600401602060405180830381865afa158015612a3f573d6000803e3d6000fd5b505050506040513d601f19601f82011682018060405250810190612a639190614645565b856101600181815250508460046000876000015181526020019081526020016000206000820151816000015560208201518160010160006101000a81548160ff02191690836004811115612aba57612ab9614259565b5b021790555060408201518160010160016101000a81548173ffffffffffffffffffffffffffffffffffffffff021916908373ffffffffffffffffffffffffffffffffffffffff16021790555060608201518160020160006101000a81548173ffffffffffffffffffffffffffffffffffffffff021916908373ffffffffffffffffffffffffffffffffffffffff1602179055506080820151816003015560a0820151816004019081612b6c91906148ed565b5060c0820151816005019081612b8291906148ed565b5060e0820151816006015561010082015181600701556101208201518160080155610140820151816009015561016082015181600a015561018082015181600b0155905050816005600087600001518152602001908152602001600020600060018152602001908152602001600020600082015181600001556020820151816001015590505080600560008760000151815260200190815260200160002060006002815260200190815260200160002060008201518160000155602082015181600101559050505050505050565b600081604001519050600082606001519050600b60009054906101000a900473ffffffffffffffffffffffffffffffffffffffff1673ffffffffffffffffffffffffffffffffffffffff16632a27962183600860009054906101000a900473ffffffffffffffffffffffffffffffffffffffff1673ffffffffffffffffffffffffffffffffffffffff166330d91ee18688608001516040518363ffffffff1660e01b8152600401612d0292919061547b565b6020604051808303816000875af1158015612d21573d6000803e3d6000fd5b505050506040513d601f19601f82011682018060405250810190612d459190614645565b84600760009054906101000a900473ffffffffffffffffffffffffffffffffffffffff1673ffffffffffffffffffffffffffffffffffffffff1663a1ce8d3a876040518263ffffffff1660e01b8152600401612da1919061415e565b6020604051808303816000875af1158015612dc0573d6000803e3d6000fd5b505050506040513d601f19601f82011682018060405250810190612de49190614645565b6040518563ffffffff1660e01b8152600401612e0394939291906155f4565b600060405180830381600087803b158015612e1d57600080fd5b505af1158015612e31573d6000803e3d6000fd5b50505050600360008373ffffffffffffffffffffffffffffffffffffffff1673ffffffffffffffffffffffffffffffffffffffff16815260200190815260200160002083600001519080600181540180825580915050600190039060005260206000200160009091909190915055600360008273ffffffffffffffffffffffffffffffffffffffff1673ffffffffffffffffffffffffffffffffffffffff16815260200190815260200160002083600001519080600181540180825580915050600190039060005260206000200160009091909190915055505050565b60008060009054906101000a900473ffffffffffffffffffffffffffffffffffffffff169050816000806101000a81548173ffffffffffffffffffffffffffffffffffffffff021916908373ffffffffffffffffffffffffffffffffffffffff1602179055508173ffffffffffffffffffffffffffffffffffffffff168173ffffffffffffffffffffffffffffffffffffffff167f8be0079c531659141344cd1fd0a4f28419497f9722a3daafe3b4186f6b6457e060405160405180910390a35050565b612fda6138bf565b6001600e54612fe9919061470d565b81600001818152505060008160200190600481111561300b5761300a614259565b5b9081600481111561301f5761301e614259565b5b8152505033816040019073ffffffffffffffffffffffffffffffffffffffff16908173ffffffffffffffffffffffffffffffffffffffff16815250506000816060019073ffffffffffffffffffffffffffffffffffffffff16908173ffffffffffffffffffffffffffffffffffffffff168152505043816101000181815250508060046000836000015181526020019081526020016000206000820151816000015560208201518160010160006101000a81548160ff021916908360048111156130ec576130eb614259565b5b021790555060408201518160010160016101000a81548173ffffffffffffffffffffffffffffffffffffffff021916908373ffffffffffffffffffffffffffffffffffffffff16021790555060608201518160020160006101000a81548173ffffffffffffffffffffffffffffffffffffffff021916908373ffffffffffffffffffffffffffffffffffffffff1602179055506080820151816003015560a082015181600401908161319e91906148ed565b5060c08201518160050190816131b491906148ed565b5060e0820151816006015561010082015181600701556101208201518160080155610140820151816009015561016082015181600a015561018082015181600b0155905050600d600081548092919061320c90615639565b9190505550600e600081548092919061322490615639565b919050555050565b600860009054906101000a900473ffffffffffffffffffffffffffffffffffffffff1673ffffffffffffffffffffffffffffffffffffffff166394c3cee9336040518263ffffffff1660e01b8152600401613287919061415e565b600060405180830381600087803b1580156132a157600080fd5b505af11580156132b5573d6000803e3d6000fd5b50505050565b600080600760009054906101000a900473ffffffffffffffffffffffffffffffffffffffff1673ffffffffffffffffffffffffffffffffffffffff1663e8f7dfcf336040518263ffffffff1660e01b8152600401613319919061415e565b600060405180830381865afa158015613336573d6000803e3d6000fd5b505050506040513d6000823e3d601f19601f8201168201806040525081019061335f91906157ff565b90506000600460008360e001518152602001908152602001600020604051806101a0016040529081600082015481526020016001820160009054906101000a900460ff1660048111156133b5576133b4614259565b5b60048111156133c7576133c6614259565b5b81526020016001820160019054906101000a900473ffffffffffffffffffffffffffffffffffffffff1673ffffffffffffffffffffffffffffffffffffffff1673ffffffffffffffffffffffffffffffffffffffff1681526020016002820160009054906101000a900473ffffffffffffffffffffffffffffffffffffffff1673ffffffffffffffffffffffffffffffffffffffff1673ffffffffffffffffffffffffffffffffffffffff16815260200160038201548152602001600482018054613491906145ff565b80601f01602080910402602001604051908101604052809291908181526020018280546134bd906145ff565b801561350a5780601f106134df5761010080835404028352916020019161350a565b820191906000526020600020905b8154815290600101906020018083116134ed57829003601f168201915b50505050508152602001600582018054613523906145ff565b80601f016020809104026020016040519081016040528092919081815260200182805461354f906145ff565b801561359c5780601f106135715761010080835404028352916020019161359c565b820191906000526020600020905b81548152906001019060200180831161357f57829003601f168201915b5050505050815260200160068201548152602001600782015481526020016008820154815260200160098201548152602001600a8201548152602001600b82015481525050905060007f0000000000000000000000000000000000000000000000000000000000000000826101200151613616919061470d565b431190506000600260048111156136305761362f614259565b5b8360200151600481111561364757613646614259565b5b148061367a575060048081111561366157613660614259565b5b8360200151600481111561367857613677614259565b5b145b905080806136855750815b80613694575060008460e00151145b94505050505090565b60007f00000000000000000000000000000000000000000000000000000000000000008261010001516136d0919061470d565b43119050919050565b60007f0000000000000000000000000000000000000000000000000000000000000000600860009054906101000a900473ffffffffffffffffffffffffffffffffffffffff1673ffffffffffffffffffffffffffffffffffffffff1663582256f16040518163ffffffff1660e01b8152600401602060405180830381865afa158015613769573d6000803e3d6000fd5b505050506040513d601f19601f8201168201806040525081019061378d9190614645565b101561379c5760009050613884565b7f00000000000000000000000000000000000000000000000000000000000000006138807f0000000000000000000000000000000000000000000000000000000000000000600860009054906101000a900473ffffffffffffffffffffffffffffffffffffffff1673ffffffffffffffffffffffffffffffffffffffff1663582256f16040518163ffffffff1660e01b8152600401602060405180830381865afa15801561384e573d6000803e3d6000fd5b505050506040513d601f19601f820116820180604052508101906138729190614645565b61388f90919063ffffffff16565b1190505b90565b600033905090565b6000818361389d9190615107565b905092915050565b604051806040016040528060008152602001600081525090565b604051806101a0016040528060008152602001600060048111156138e6576138e5614259565b5b8152602001600073ffffffffffffffffffffffffffffffffffffffff168152602001600073ffffffffffffffffffffffffffffffffffffffff1681526020016000815260200160608152602001606081526020016000815260200160008152602001600081526020016000815260200160008152602001600081525090565b600081519050919050565b600082825260208201905092915050565b6000819050602082019050919050565b6000819050919050565b6139a481613991565b82525050565b60006139b6838361399b565b60208301905092915050565b6000602082019050919050565b60006139da82613965565b6139e48185613970565b93506139ef83613981565b8060005b83811015613a20578151613a0788826139aa565b9750613a12836139c2565b9250506001810190506139f3565b5085935050505092915050565b60006020820190508181036000830152613a4781846139cf565b905092915050565b6000604051905090565b600080fd5b600080fd5b613a6c81613991565b8114613a7757600080fd5b50565b600081359050613a8981613a63565b92915050565b600080fd5b600080fd5b6000601f19601f8301169050919050565b7f4e487b7100000000000000000000000000000000000000000000000000000000600052604160045260246000fd5b613ae282613a99565b810181811067ffffffffffffffff82111715613b0157613b00613aaa565b5b80604052505050565b6000613b14613a4f565b9050613b208282613ad9565b919050565b600067ffffffffffffffff821115613b4057613b3f613aaa565b5b613b4982613a99565b9050602081019050919050565b82818337600083830152505050565b6000613b78613b7384613b25565b613b0a565b905082815260208101848484011115613b9457613b93613a94565b5b613b9f848285613b56565b509392505050565b600082601f830112613bbc57613bbb613a8f565b5b8135613bcc848260208601613b65565b91505092915050565b60008060408385031215613bec57613beb613a59565b5b6000613bfa85828601613a7a565b925050602083013567ffffffffffffffff811115613c1b57613c1a613a5e565b5b613c2785828601613ba7565b9150509250929050565b613c3a81613991565b82525050565b6000602082019050613c556000830184613c31565b92915050565b600080fd5b600080fd5b600073ffffffffffffffffffffffffffffffffffffffff82169050919050565b6000613c9082613c65565b9050919050565b613ca081613c85565b8114613cab57600080fd5b50565b600081359050613cbd81613c97565b92915050565b600060c08284031215613cd957613cd8613c5b565b5b613ce360c0613b0a565b90506000613cf384828501613cae565b6000830152506020613d0784828501613cae565b6020830152506040613d1b84828501613cae565b6040830152506060613d2f84828501613cae565b6060830152506080613d4384828501613cae565b60808301525060a0613d5784828501613cae565b60a08301525092915050565b600060c08284031215613d7957613d78613a59565b5b6000613d8784828501613cc3565b91505092915050565b600060408284031215613da657613da5613c5b565b5b613db06040613b0a565b90506000613dc084828501613a7a565b6000830152506020613dd484828501613a7a565b60208301525092915050565b600080600080600060e08688031215613dfc57613dfb613a59565b5b6000613e0a88828901613a7a565b955050602086013567ffffffffffffffff811115613e2b57613e2a613a5e565b5b613e3788828901613ba7565b945050604086013567ffffffffffffffff811115613e5857613e57613a5e565b5b613e6488828901613ba7565b9350506060613e7588828901613d90565b92505060a0613e8688828901613d90565b9150509295509295909350565b600060208284031215613ea957613ea8613a59565b5b6000613eb784828501613cae565b91505092915050565b60008115159050919050565b613ed581613ec0565b82525050565b6000602082019050613ef06000830184613ecc565b92915050565b613eff81613ec0565b8114613f0a57600080fd5b50565b600081359050613f1c81613ef6565b92915050565b600060408284031215613f3857613f37613c5b565b5b613f426040613b0a565b90506000613f5284828501613a7a565b6000830152506020613f6684828501613a7a565b60208301525092915050565b600060408284031215613f8857613f87613c5b565b5b613f926040613b0a565b90506000613fa284828501613f0d565b6000830152506020613fb684828501613a7a565b60208301525092915050565b60006101a08284031215613fd957613fd8613c5b565b5b613fe4610160613b0a565b90506000613ff484828501613a7a565b600083015250602061400884828501613cae565b602083015250604082013567ffffffffffffffff81111561402c5761402b613c60565b5b61403884828501613ba7565b604083015250606082013567ffffffffffffffff81111561405c5761405b613c60565b5b61406884828501613ba7565b606083015250608061407c84828501613a7a565b60808301525060a061409084828501613f0d565b60a08301525060c06140a484828501613a7a565b60c08301525060e06140b884828501613a7a565b60e0830152506101006140cd84828501613f22565b610100830152506101406140e384828501613f72565b610120830152506101806140f984828501613a7a565b6101408301525092915050565b60006020828403121561411c5761411b613a59565b5b600082013567ffffffffffffffff81111561413a57614139613a5e565b5b61414684828501613fc2565b91505092915050565b61415881613c85565b82525050565b6000602082019050614173600083018461414f565b92915050565b600080604083850312156141905761418f613a59565b5b600061419e85828601613a7a565b92505060206141af85828601613a7a565b9150509250929050565b6040820160008201516141cf600085018261399b565b5060208201516141e2602085018261399b565b50505050565b60006040820190506141fd60008301846141b9565b92915050565b60006020828403121561421957614218613a59565b5b600061422784828501613a7a565b91505092915050565b60006040820190506142456000830185613c31565b6142526020830184613c31565b9392505050565b7f4e487b7100000000000000000000000000000000000000000000000000000000600052602160045260246000fd5b6005811061429957614298614259565b5b50565b60008190506142aa82614288565b919050565b60006142ba8261429c565b9050919050565b6142ca816142af565b82525050565b6142d981613c85565b82525050565b600081519050919050565b600082825260208201905092915050565b60005b838110156143195780820151818401526020810190506142fe565b60008484015250505050565b6000614330826142df565b61433a81856142ea565b935061434a8185602086016142fb565b61435381613a99565b840191505092915050565b60006101a083016000830151614377600086018261399b565b50602083015161438a60208601826142c1565b50604083015161439d60408601826142d0565b5060608301516143b060608601826142d0565b5060808301516143c3608086018261399b565b5060a083015184820360a08601526143db8282614325565b91505060c083015184820360c08601526143f58282614325565b91505060e083015161440a60e086018261399b565b5061010083015161441f61010086018261399b565b5061012083015161443461012086018261399b565b5061014083015161444961014086018261399b565b5061016083015161445e61016086018261399b565b5061018083015161447361018086018261399b565b508091505092915050565b60006020820190508181036000830152614498818461435e565b905092915050565b600a81106144b1576144b0614259565b5b50565b60008190506144c2826144a0565b919050565b60006144d2826144b4565b9050919050565b6144e2816144c7565b82525050565b60006040820190506144fd60008301856144d9565b61450a602083018461414f565b9392505050565b60008151905061452081613ef6565b92915050565b60006020828403121561453c5761453b613a59565b5b600061454a84828501614511565b91505092915050565b600082825260208201905092915050565b7f506c656173652072656769737465722061732076616c696461746f7200000000600082015250565b600061459a601c83614553565b91506145a582614564565b602082019050919050565b600060208201905081810360008301526145c98161458d565b9050919050565b7f4e487b7100000000000000000000000000000000000000000000000000000000600052602260045260246000fd5b6000600282049050600182168061461757607f821691505b60208210810361462a576146296145d0565b5b50919050565b60008151905061463f81613a63565b92915050565b60006020828403121561465b5761465a613a59565b5b600061466984828501614630565b91505092915050565b7f43616e206e6f74206164642076616c69646174696f6e20616e796d6f72650000600082015250565b60006146a8601e83614553565b91506146b382614672565b602082019050919050565b600060208201905081810360008301526146d78161469b565b9050919050565b7f4e487b7100000000000000000000000000000000000000000000000000000000600052601160045260246000fd5b600061471882613991565b915061472383613991565b925082820190508082111561473b5761473a6146de565b5b92915050565b60008190508160005260206000209050919050565b60006020601f8301049050919050565b600082821b905092915050565b6000600883026147a37fffffffffffffffffffffffffffffffffffffffffffffffffffffffffffffffff82614766565b6147ad8683614766565b95508019841693508086168417925050509392505050565b6000819050919050565b60006147ea6147e56147e084613991565b6147c5565b613991565b9050919050565b6000819050919050565b614804836147cf565b614818614810826147f1565b848454614773565b825550505050565b600090565b61482d614820565b6148388184846147fb565b505050565b5b8181101561485c57614851600082614825565b60018101905061483e565b5050565b601f8211156148a15761487281614741565b61487b84614756565b8101602085101561488a578190505b61489e61489685614756565b83018261483d565b50505b505050565b600082821c905092915050565b60006148c4600019846008026148a6565b1980831691505092915050565b60006148dd83836148b3565b9150826002028217905092915050565b6148f6826142df565b67ffffffffffffffff81111561490f5761490e613aaa565b5b61491982546145ff565b614924828285614860565b600060209050601f8311600181146149575760008415614945578287015190505b61494f85826148d1565b8655506149b7565b601f19841661496586614741565b60005b8281101561498d57848901518255600182019150602085019450602081019050614968565b868310156149aa57848901516149a6601f8916826148b3565b8355505b6001600288020188555050505b505050505050565b60006149ca826142df565b6149d48185614553565b93506149e48185602086016142fb565b6149ed81613a99565b840191505092915050565b60006060820190508181036000830152614a12818661435e565b90508181036020830152614a2681856149bf565b9050614a35604083018461414f565b949350505050565b7f496e76616c6964207472656573526573756c74206f722062696f64697665727360008201527f697479526573756c740000000000000000000000000000000000000000000000602082015250565b6000614a99602983614553565b9150614aa482614a3d565b604082019050919050565b60006020820190508181036000830152614ac881614a8c565b9050919050565b7f506c6561736520726567697374657220617320696e73706563746f7200000000600082015250565b6000614b05601c83614553565b9150614b1082614acf565b602082019050919050565b60006020820190508181036000830152614b3481614af8565b9050919050565b7f416363657074207468697320696e7370656374696f6e206265666f7265000000600082015250565b6000614b71601d83614553565b9150614b7c82614b3b565b602082019050919050565b60006020820190508181036000830152614ba081614b64565b9050919050565b7f596f752068617665206e6f74206163636570746564207468697320696e73706560008201527f6374696f6e000000000000000000000000000000000000000000000000000000602082015250565b6000614c03602583614553565b9150614c0e82614ba7565b604082019050919050565b60006020820190508181036000830152614c3281614bf6565b9050919050565b7f496e7370656374696f6e20457870697265640000000000000000000000000000600082015250565b6000614c6f601283614553565b9150614c7a82614c39565b602082019050919050565b60006020820190508181036000830152614c9e81614c62565b9050919050565b600081519050614cb481613c97565b92915050565b6000614ccd614cc884613b25565b613b0a565b905082815260208101848484011115614ce957614ce8613a94565b5b614cf48482856142fb565b509392505050565b600082601f830112614d1157614d10613a8f565b5b8151614d21848260208601614cba565b91505092915050565b600060408284031215614d4057614d3f613c5b565b5b614d4a6040613b0a565b90506000614d5a84828501614630565b6000830152506020614d6e84828501614630565b60208301525092915050565b600060408284031215614d9057614d8f613c5b565b5b614d9a6040613b0a565b90506000614daa84828501614511565b6000830152506020614dbe84828501614630565b60208301525092915050565b60006101a08284031215614de157614de0613c5b565b5b614dec610160613b0a565b90506000614dfc84828501614630565b6000830152506020614e1084828501614ca5565b602083015250604082015167ffffffffffffffff811115614e3457614e33613c60565b5b614e4084828501614cfc565b604083015250606082015167ffffffffffffffff811115614e6457614e63613c60565b5b614e7084828501614cfc565b6060830152506080614e8484828501614630565b60808301525060a0614e9884828501614511565b60a08301525060c0614eac84828501614630565b60c08301525060e0614ec084828501614630565b60e083015250610100614ed584828501614d2a565b61010083015250610140614eeb84828501614d7a565b61012083015250610180614f0184828501614630565b6101408301525092915050565b600060208284031215614f2457614f23613a59565b5b600082015167ffffffffffffffff811115614f4257614f41613a5e565b5b614f4e84828501614dca565b91505092915050565b7f506c6561736520726567697374657220617320726567656e657261746f720000600082015250565b6000614f8d601e83614553565b9150614f9882614f57565b602082019050919050565b60006020820190508181036000830152614fbc81614f80565b9050919050565b7f5265717565737420616c7265616479204f50454e000000000000000000000000600082015250565b6000614ff9601483614553565b915061500482614fc3565b602082019050919050565b6000602082019050818103600083015261502881614fec565b9050919050565b7f5761697420746f20726571756573740000000000000000000000000000000000600082015250565b6000615065600f83614553565b91506150708261502f565b602082019050919050565b6000602082019050818103600083015261509481615058565b9050919050565b7f596f75206861766520636f6d706c6574656420796f7572206d697373696f6e00600082015250565b60006150d1601f83614553565b91506150dc8261509b565b602082019050919050565b60006020820190508181036000830152615100816150c4565b9050919050565b600061511282613991565b915061511d83613991565b9250828203905081811115615135576151346146de565b5b92915050565b7f4e6f206d6f7265207468616e2033206769766555707320616c6c6f7765640000600082015250565b6000615171601e83614553565b915061517c8261513b565b602082019050919050565b600060208201905081810360008301526151a081615164565b9050919050565b7f5468697320696e7370656374696f6e20646f206e6f7420657869737400000000600082015250565b60006151dd601c83614553565b91506151e8826151a7565b602082019050919050565b6000602082019050818103600083015261520c816151d0565b9050919050565b7f596f7520616c7265616479206861766520616e20696e7370656374696f6e204160008201527f6363657074656400000000000000000000000000000000000000000000000000602082015250565b600061526f602783614553565b915061527a82615213565b604082019050919050565b6000602082019050818103600083015261529e81615262565b9050919050565b7f416c726561647920696e73706563746564207468697320726567656e6572617460008201527f6f72000000000000000000000000000000000000000000000000000000000000602082015250565b6000615301602283614553565b915061530c826152a5565b604082019050919050565b60006020820190508181036000830152615330816152f4565b9050919050565b7f5468697320696e7370656374696f6e206973206e6f74204f50454e0000000000600082015250565b600061536d601b83614553565b915061537882615337565b602082019050919050565b6000602082019050818103600083015261539c81615360565b9050919050565b7f5761697420696e7370656374696f6e2064656c617920626c6f636b7300000000600082015250565b60006153d9601c83614553565b91506153e4826153a3565b602082019050919050565b60006020820190508181036000830152615408816153cc565b9050919050565b7f5761697420756e74696c206e6578742065726120746f20616363657074000000600082015250565b6000615445601d83614553565b91506154508261540f565b602082019050919050565b6000602082019050818103600083015261547481615438565b9050919050565b6000604082019050615490600083018561414f565b61549d6020830184613c31565b9392505050565b7f4f776e61626c653a206e6577206f776e657220697320746865207a65726f206160008201527f6464726573730000000000000000000000000000000000000000000000000000602082015250565b6000615500602683614553565b915061550b826154a4565b604082019050919050565b6000602082019050818103600083015261552f816154f3565b9050919050565b600061554182613991565b915060008203615554576155536146de565b5b600182039050919050565b7f4f776e61626c653a2063616c6c6572206973206e6f7420746865206f776e6572600082015250565b6000615595602083614553565b91506155a08261555f565b602082019050919050565b600060208201905081810360008301526155c481615588565b9050919050565b60006080820190506155e060008301856141b9565b6155ed60408301846141b9565b9392505050565b6000608082019050615609600083018761414f565b6156166020830186613c31565b615623604083018561414f565b6156306060830184613c31565b95945050505050565b600061564482613991565b91507fffffffffffffffffffffffffffffffffffffffffffffffffffffffffffffffff8203615676576156756146de565b5b600182019050919050565b60006040828403121561569757615696613c5b565b5b6156a16040613b0a565b905060006156b184828501614630565b60008301525060206156c584828501614630565b60208301525092915050565b600061016082840312156156e8576156e7613c5b565b5b6156f3610140613b0a565b9050600061570384828501614630565b600083015250602061571784828501614ca5565b602083015250604082015167ffffffffffffffff81111561573b5761573a613c60565b5b61574784828501614cfc565b604083015250606082015167ffffffffffffffff81111561576b5761576a613c60565b5b61577784828501614cfc565b606083015250608061578b84828501614630565b60808301525060a061579f84828501614630565b60a08301525060c06157b384828501614630565b60c08301525060e06157c784828501614630565b60e0830152506101006157dc84828501615681565b610100830152506101406157f284828501614630565b6101208301525092915050565b60006020828403121561581557615814613a59565b5b600082015167ffffffffffffffff81111561583357615832613a5e565b5b61583f848285016156d1565b9150509291505056fea2646970667358221220c442ac65b63ee3981d4c7fdfdfe5fb02aa9c06a5dbc1a91b2eb96703cd8947d164736f6c634300081b0033",
  "linkReferences": {},
  "deployedLinkReferences": {}
}