{
  "_format": "hh-sol-artifact-1",
  "contractName": "InspectionRules",
  "sourceName": "contracts/InspectionRules.sol",
  "abi": [
    {
      "inputs": [
        {
          "internalType": "uint256",
          "name": "timeBetweenInspections_",
          "type": "uint256"
        },
        {
          "internalType": "uint256",
          "name": "blocksToExpireAcceptedInspection_",
          "type": "uint256"
        },
        {
          "internalType": "uint256",
          "name": "allowedInitialRequests_",
          "type": "uint256"
        },
        {
          "internalType": "uint256",
          "name": "acceptInspectionDelayBlocks_",
          "type": "uint256"
        },
        {
          "internalType": "uint256",
          "name": "securityBlocksToValidatorAnalysis_",
          "type": "uint256"
        }
      ],
      "stateMutability": "nonpayable",
      "type": "constructor"
    },
    {
      "anonymous": false,
      "inputs": [
        {
          "indexed": true,
          "internalType": "address",
          "name": "previousOwner",
          "type": "address"
        },
        {
          "indexed": true,
          "internalType": "address",
          "name": "newOwner",
          "type": "address"
        }
      ],
      "name": "OwnershipTransferred",
      "type": "event"
    },
    {
      "inputs": [
        {
          "internalType": "uint256",
          "name": "inspectionId",
          "type": "uint256"
        }
      ],
      "name": "acceptInspection",
      "outputs": [],
      "stateMutability": "nonpayable",
      "type": "function"
    },
    {
      "inputs": [],
      "name": "acceptInspectionDelayBlocks",
      "outputs": [
        {
          "internalType": "uint256",
          "name": "",
          "type": "uint256"
        }
      ],
      "stateMutability": "view",
      "type": "function"
    },
    {
      "inputs": [
        {
          "internalType": "uint256",
          "name": "id",
          "type": "uint256"
        },
        {
          "internalType": "string",
          "name": "justification",
          "type": "string"
        }
      ],
      "name": "addInspectionValidation",
      "outputs": [],
      "stateMutability": "nonpayable",
      "type": "function"
    },
    {
      "inputs": [
        {
          "internalType": "address",
          "name": "",
          "type": "address"
        }
      ],
      "name": "allowedCallers",
      "outputs": [
        {
          "internalType": "bool",
          "name": "",
          "type": "bool"
        }
      ],
      "stateMutability": "view",
      "type": "function"
    },
    {
      "inputs": [],
      "name": "allowedInitialRequests",
      "outputs": [
        {
          "internalType": "uint256",
          "name": "",
          "type": "uint256"
        }
      ],
      "stateMutability": "view",
      "type": "function"
    },
    {
      "inputs": [],
      "name": "blocksToExpireAcceptedInspection",
      "outputs": [
        {
          "internalType": "uint256",
          "name": "",
          "type": "uint256"
        }
      ],
      "stateMutability": "view",
      "type": "function"
    },
    {
      "inputs": [
        {
          "internalType": "uint256",
          "name": "inspectionId",
          "type": "uint256"
        }
      ],
      "name": "calculateBlocksToExpire",
      "outputs": [
        {
          "internalType": "uint256",
          "name": "",
          "type": "uint256"
        }
      ],
      "stateMutability": "view",
      "type": "function"
    },
    {
      "inputs": [
        {
          "internalType": "uint256",
          "name": "id",
          "type": "uint256"
        }
      ],
      "name": "getInspection",
      "outputs": [
        {
          "components": [
            {
              "internalType": "uint256",
              "name": "id",
              "type": "uint256"
            },
            {
              "internalType": "enum InspectionStatus",
              "name": "status",
              "type": "uint8"
            },
            {
              "internalType": "address",
              "name": "regenerator",
              "type": "address"
            },
            {
              "internalType": "address",
              "name": "inspector",
              "type": "address"
            },
            {
              "internalType": "uint256",
              "name": "treesResult",
              "type": "uint256"
            },
            {
              "internalType": "uint256",
              "name": "biodiversityResult",
              "type": "uint256"
            },
            {
              "internalType": "uint256",
              "name": "regenerationScore",
              "type": "uint256"
            },
            {
              "internalType": "string",
              "name": "proofPhoto",
              "type": "string"
            },
            {
              "internalType": "string",
              "name": "report",
              "type": "string"
            },
            {
              "internalType": "uint256",
              "name": "validationsCount",
              "type": "uint256"
            },
            {
              "internalType": "uint256",
              "name": "createdAt",
              "type": "uint256"
            },
            {
              "internalType": "uint256",
              "name": "acceptedAt",
              "type": "uint256"
            },
            {
              "internalType": "uint256",
              "name": "inspectedAt",
              "type": "uint256"
            },
            {
              "internalType": "uint256",
              "name": "inspectedAtEra",
              "type": "uint256"
            },
            {
              "internalType": "uint256",
              "name": "invalidatedAt",
              "type": "uint256"
            }
          ],
          "internalType": "struct Inspection",
          "name": "",
          "type": "tuple"
        }
      ],
      "stateMutability": "view",
      "type": "function"
    },
    {
      "inputs": [
        {
          "internalType": "address",
          "name": "addr",
          "type": "address"
        }
      ],
      "name": "getInspectionsHistory",
      "outputs": [
        {
          "internalType": "uint256[]",
          "name": "",
          "type": "uint256[]"
        }
      ],
      "stateMutability": "view",
      "type": "function"
    },
    {
      "inputs": [],
      "name": "inspectionsBiodiversityImpact",
      "outputs": [
        {
          "internalType": "uint256",
          "name": "",
          "type": "uint256"
        }
      ],
      "stateMutability": "view",
      "type": "function"
    },
    {
      "inputs": [],
      "name": "inspectionsCount",
      "outputs": [
        {
          "internalType": "uint256",
          "name": "",
          "type": "uint256"
        }
      ],
      "stateMutability": "view",
      "type": "function"
    },
    {
      "inputs": [],
      "name": "inspectionsTotalCount",
      "outputs": [
        {
          "internalType": "uint256",
          "name": "",
          "type": "uint256"
        }
      ],
      "stateMutability": "view",
      "type": "function"
    },
    {
      "inputs": [],
      "name": "inspectionsTreesImpact",
      "outputs": [
        {
          "internalType": "uint256",
          "name": "",
          "type": "uint256"
        }
      ],
      "stateMutability": "view",
      "type": "function"
    },
    {
      "inputs": [
        {
          "internalType": "address",
          "name": "caller",
          "type": "address"
        }
      ],
      "name": "isAllowedCaller",
      "outputs": [
        {
          "internalType": "bool",
          "name": "",
          "type": "bool"
        }
      ],
      "stateMutability": "view",
      "type": "function"
    },
    {
      "inputs": [
        {
          "internalType": "address",
          "name": "allowed",
          "type": "address"
        }
      ],
      "name": "newAllowedCaller",
      "outputs": [],
      "stateMutability": "nonpayable",
      "type": "function"
    },
    {
      "inputs": [],
      "name": "owner",
      "outputs": [
        {
          "internalType": "address",
          "name": "",
          "type": "address"
        }
      ],
      "stateMutability": "view",
      "type": "function"
    },
    {
      "inputs": [
        {
          "internalType": "uint256",
          "name": "inspectionId",
          "type": "uint256"
        },
        {
          "internalType": "string",
          "name": "proofPhoto",
          "type": "string"
        },
        {
          "internalType": "string",
          "name": "report",
          "type": "string"
        },
        {
          "internalType": "uint256",
          "name": "treesResult",
          "type": "uint256"
        },
        {
          "internalType": "uint256",
          "name": "biodiversityResult",
          "type": "uint256"
        }
      ],
      "name": "realizeInspection",
      "outputs": [],
      "stateMutability": "nonpayable",
      "type": "function"
    },
    {
      "inputs": [],
      "name": "renounceOwnership",
      "outputs": [],
      "stateMutability": "nonpayable",
      "type": "function"
    },
    {
      "inputs": [],
      "name": "requestInspection",
      "outputs": [],
      "stateMutability": "nonpayable",
      "type": "function"
    },
    {
      "inputs": [],
      "name": "securityBlocksToValidatorAnalysis",
      "outputs": [
        {
          "internalType": "uint256",
          "name": "",
          "type": "uint256"
        }
      ],
      "stateMutability": "view",
      "type": "function"
    },
    {
      "inputs": [
        {
          "components": [
            {
              "internalType": "address",
              "name": "communityRulesAddress",
              "type": "address"
            },
            {
              "internalType": "address",
              "name": "regeneratorRulesAddress",
              "type": "address"
            },
            {
              "internalType": "address",
              "name": "validationRulesAddress",
              "type": "address"
            },
            {
              "internalType": "address",
              "name": "inspectorRulesAddress",
              "type": "address"
            },
            {
              "internalType": "address",
              "name": "regenerationIndexRulesAddress",
              "type": "address"
            },
            {
              "internalType": "address",
              "name": "activistRulesAddress",
              "type": "address"
            },
            {
              "internalType": "address",
              "name": "voteRulesAddress",
              "type": "address"
            }
          ],
          "internalType": "struct ContractsDependency",
          "name": "contractDependency",
          "type": "tuple"
        }
      ],
      "name": "setContractAddressDependencies",
      "outputs": [],
      "stateMutability": "nonpayable",
      "type": "function"
    },
    {
      "inputs": [],
      "name": "timeBetweenInspections",
      "outputs": [
        {
          "internalType": "uint256",
          "name": "",
          "type": "uint256"
        }
      ],
      "stateMutability": "view",
      "type": "function"
    },
    {
      "inputs": [
        {
          "internalType": "address",
          "name": "newOwner",
          "type": "address"
        }
      ],
      "name": "transferOwnership",
      "outputs": [],
      "stateMutability": "nonpayable",
      "type": "function"
    },
    {
      "inputs": [
        {
          "components": [
            {
              "internalType": "uint256",
              "name": "id",
              "type": "uint256"
            },
            {
              "internalType": "address",
              "name": "regeneratorWallet",
              "type": "address"
            },
            {
              "internalType": "string",
              "name": "name",
              "type": "string"
            },
            {
              "internalType": "string",
              "name": "proofPhoto",
              "type": "string"
            },
            {
              "internalType": "uint256",
              "name": "totalArea",
              "type": "uint256"
            },
            {
              "internalType": "bool",
              "name": "pendingInspection",
              "type": "bool"
            },
            {
              "internalType": "uint256",
              "name": "totalInspections",
              "type": "uint256"
            },
            {
              "internalType": "uint256",
              "name": "lastRequestAt",
              "type": "uint256"
            },
            {
              "components": [
                {
                  "internalType": "uint256",
                  "name": "score",
                  "type": "uint256"
                }
              ],
              "internalType": "struct RegenerationScore",
              "name": "regenerationScore",
              "type": "tuple"
            },
            {
              "components": [
                {
                  "internalType": "bool",
                  "name": "onContractPool",
                  "type": "bool"
                },
                {
                  "internalType": "uint256",
                  "name": "currentEra",
                  "type": "uint256"
                }
              ],
              "internalType": "struct Pool",
              "name": "pool",
              "type": "tuple"
            },
            {
              "internalType": "uint256",
              "name": "createdAt",
              "type": "uint256"
            },
            {
              "internalType": "uint256",
              "name": "coordinatesCount",
              "type": "uint256"
            }
          ],
          "internalType": "struct Regenerator",
          "name": "regenerator",
          "type": "tuple"
        }
      ],
      "name": "waitToRequest",
      "outputs": [
        {
          "internalType": "bool",
          "name": "",
          "type": "bool"
        }
      ],
      "stateMutability": "view",
      "type": "function"
    }
  ],
  "bytecode": "0x61012060405234801561001157600080fd5b50604051615d68380380615d6883398181016040528101906100339190610189565b61004f61004461008260201b60201c565b61008a60201b60201c565b84608081815250508360a081815250508260c081815250508160e081815250508061010081815250505050505050610204565b600033905090565b60008060009054906101000a900473ffffffffffffffffffffffffffffffffffffffff169050816000806101000a81548173ffffffffffffffffffffffffffffffffffffffff021916908373ffffffffffffffffffffffffffffffffffffffff1602179055508173ffffffffffffffffffffffffffffffffffffffff168173ffffffffffffffffffffffffffffffffffffffff167f8be0079c531659141344cd1fd0a4f28419497f9722a3daafe3b4186f6b6457e060405160405180910390a35050565b600080fd5b6000819050919050565b61016681610153565b811461017157600080fd5b50565b6000815190506101838161015d565b92915050565b600080600080600060a086880312156101a5576101a461014e565b5b60006101b388828901610174565b95505060206101c488828901610174565b94505060406101d588828901610174565b93505060606101e688828901610174565b92505060806101f788828901610174565b9150509295509295909350565b60805160a05160c05160e05161010051615ae1610287600039600081816112450152613acd0152600081816119b201526139d001526000818161126b01526118b80152600081816108b40152818161193b0152818161198e0152818161391601528181613a0c0152613af10152600081816112a001526112da0152615ae16000f3fe608060405234801561001057600080fd5b50600436106101585760003560e01c80638da5cb5b116100c3578063e42c95511161007c578063e42c9551146103a3578063e710483d146103c1578063e7857502146103df578063ed8f9321146103fb578063f283667014610419578063f2fde38b1461044957610158565b80638da5cb5b146102cd5780638f93716f146102eb5780639df79c9214610307578063a2b570a414610325578063a680125814610343578063d7c9834e1461037357610158565b80635401c1f2116101155780635401c1f21461021d5780636b2edc161461023b578063715018a6146102595780637b334154146102635780637b7984681461029357806386ae2fb1146102c357610158565b80630cfd82c61461015d5780632c1d62e4146101795780632eb923631461019557806330a93c55146101b35780633dbf1e8f146101e357806346ab970814610201575b600080fd5b61017760048036038101906101729190613e18565b610465565b005b610193600480360381019061018e9190613ecb565b610a0e565b005b61019d611243565b6040516101aa9190613f36565b60405180910390f35b6101cd60048036038101906101c891906141d7565b611267565b6040516101da919061422f565b60405180910390f35b6101eb6112d8565b6040516101f89190613f36565b60405180910390f35b61021b600480360381019061021691906142fe565b6112fc565b005b6102256114ea565b6040516102329190613f36565b60405180910390f35b6102436114f0565b6040516102509190613f36565b60405180910390f35b6102616114f6565b005b61027d6004803603810190610278919061432b565b61150a565b60405161028a919061422f565b60405180910390f35b6102ad60048036038101906102a8919061432b565b61152a565b6040516102ba9190614416565b60405180910390f35b6102cb6115c1565b005b6102d561182b565b6040516102e29190614447565b60405180910390f35b6103056004803603810190610300919061432b565b611854565b005b61030f6118b6565b60405161031c9190613f36565b60405180910390f35b61032d6118da565b60405161033a9190613f36565b60405180910390f35b61035d6004803603810190610358919061432b565b6118e0565b60405161036a919061422f565b60405180910390f35b61038d60048036038101906103889190614462565b611936565b60405161039a9190613f36565b60405180910390f35b6103ab61198c565b6040516103b89190613f36565b60405180910390f35b6103c96119b0565b6040516103d69190613f36565b60405180910390f35b6103f960048036038101906103f49190614462565b6119d4565b005b61040361237a565b6040516104109190613f36565b60405180910390f35b610433600480360381019061042e9190614462565b612380565b60405161044091906146de565b60405180910390f35b610463600480360381019061045e919061432b565b61261d565b005b600060046000878152602001908152602001600020604051806101e0016040529081600082015481526020016001820160009054906101000a900460ff1660048111156104b5576104b461448f565b5b60048111156104c7576104c661448f565b5b81526020016001820160019054906101000a900473ffffffffffffffffffffffffffffffffffffffff1673ffffffffffffffffffffffffffffffffffffffff1673ffffffffffffffffffffffffffffffffffffffff1681526020016002820160009054906101000a900473ffffffffffffffffffffffffffffffffffffffff1673ffffffffffffffffffffffffffffffffffffffff1673ffffffffffffffffffffffffffffffffffffffff1681526020016003820154815260200160048201548152602001600582015481526020016006820180546105a59061472f565b80601f01602080910402602001604051908101604052809291908181526020018280546105d19061472f565b801561061e5780601f106105f35761010080835404028352916020019161061e565b820191906000526020600020905b81548152906001019060200180831161060157829003601f168201915b505050505081526020016007820180546106379061472f565b80601f01602080910402602001604051908101604052809291908181526020018280546106639061472f565b80156106b05780601f10610685576101008083540402835291602001916106b0565b820191906000526020600020905b81548152906001019060200180831161069357829003601f168201915b505050505081526020016008820154815260200160098201548152602001600a8201548152602001600b8201548152602001600c8201548152602001600d820154815250509050600760009054906101000a900473ffffffffffffffffffffffffffffffffffffffff1673ffffffffffffffffffffffffffffffffffffffff16639497c6086002336040518363ffffffff1660e01b81526004016107559291906147a8565b602060405180830381865afa158015610772573d6000803e3d6000fd5b505050506040513d601f19601f8201168201806040525081019061079691906147e6565b6107d5576040517f08c379a00000000000000000000000000000000000000000000000000000000081526004016107cc90614870565b60405180910390fd5b600160048111156107e9576107e861448f565b5b81602001516004811115610800576107ff61448f565b5b14610840576040517f08c379a0000000000000000000000000000000000000000000000000000000008152600401610837906148dc565b60405180910390fd5b3373ffffffffffffffffffffffffffffffffffffffff16816060015173ffffffffffffffffffffffffffffffffffffffff16146108b2576040517f08c379a00000000000000000000000000000000000000000000000000000000081526004016108a99061496e565b60405180910390fd5b7f00000000000000000000000000000000000000000000000000000000000000008161016001516108e391906149bd565b431115610925576040517f08c379a000000000000000000000000000000000000000000000000000000000815260040161091c90614a3d565b60405180910390fd5b61093281868686866126a0565b61093b816129bc565b82600e600082825461094d91906149bd565b9250508190555081600f600082825461096691906149bd565b925050819055506001600260003373ffffffffffffffffffffffffffffffffffffffff1673ffffffffffffffffffffffffffffffffffffffff1681526020019081526020016000206000836040015173ffffffffffffffffffffffffffffffffffffffff1673ffffffffffffffffffffffffffffffffffffffff16815260200190815260200160002060006101000a81548160ff021916908315150217905550505050505050565b600a60009054906101000a900473ffffffffffffffffffffffffffffffffffffffff1673ffffffffffffffffffffffffffffffffffffffff1663adfaa72e336040518263ffffffff1660e01b8152600401610a699190614447565b602060405180830381865afa158015610a86573d6000803e3d6000fd5b505050506040513d601f19601f82011682018060405250810190610aaa91906147e6565b610ae9576040517f08c379a0000000000000000000000000000000000000000000000000000000008152600401610ae090614aa9565b60405180910390fd5b600860009054906101000a900473ffffffffffffffffffffffffffffffffffffffff1673ffffffffffffffffffffffffffffffffffffffff1663361119ac336040518263ffffffff1660e01b8152600401610b449190614447565b602060405180830381865afa158015610b61573d6000803e3d6000fd5b505050506040513d601f19601f82011682018060405250810190610b8591906147e6565b610bc4576040517f08c379a0000000000000000000000000000000000000000000000000000000008152600401610bbb90614b15565b60405180910390fd5b61012c81511115610c0a576040517f08c379a0000000000000000000000000000000000000000000000000000000008152600401610c0190614b81565b60405180910390fd5b600060046000848152602001908152602001600020604051806101e0016040529081600082015481526020016001820160009054906101000a900460ff166004811115610c5a57610c5961448f565b5b6004811115610c6c57610c6b61448f565b5b81526020016001820160019054906101000a900473ffffffffffffffffffffffffffffffffffffffff1673ffffffffffffffffffffffffffffffffffffffff1673ffffffffffffffffffffffffffffffffffffffff1681526020016002820160009054906101000a900473ffffffffffffffffffffffffffffffffffffffff1673ffffffffffffffffffffffffffffffffffffffff1673ffffffffffffffffffffffffffffffffffffffff168152602001600382015481526020016004820154815260200160058201548152602001600682018054610d4a9061472f565b80601f0160208091040260200160405190810160405280929190818152602001828054610d769061472f565b8015610dc35780601f10610d9857610100808354040283529160200191610dc3565b820191906000526020600020905b815481529060010190602001808311610da657829003601f168201915b50505050508152602001600782018054610ddc9061472f565b80601f0160208091040260200160405190810160405280929190818152602001828054610e089061472f565b8015610e555780601f10610e2a57610100808354040283529160200191610e55565b820191906000526020600020905b815481529060010190602001808311610e3857829003601f168201915b505050505081526020016008820154815260200160098201548152602001600a8201548152602001600b8201548152602001600c8201548152602001600d820154815250509050806101a00151600660009054906101000a900473ffffffffffffffffffffffffffffffffffffffff1673ffffffffffffffffffffffffffffffffffffffff1663e8f3c27a6040518163ffffffff1660e01b8152600401602060405180830381865afa158015610f0f573d6000803e3d6000fd5b505050506040513d601f19601f82011682018060405250810190610f339190614bb6565b1115610f74576040517f08c379a0000000000000000000000000000000000000000000000000000000008152600401610f6b90614c2f565b60405180910390fd5b60018161012001818151610f8891906149bd565b915081815250508060046000836000015181526020019081526020016000206000820151816000015560208201518160010160006101000a81548160ff02191690836004811115610fdc57610fdb61448f565b5b021790555060408201518160010160016101000a81548173ffffffffffffffffffffffffffffffffffffffff021916908373ffffffffffffffffffffffffffffffffffffffff16021790555060608201518160020160006101000a81548173ffffffffffffffffffffffffffffffffffffffff021916908373ffffffffffffffffffffffffffffffffffffffff1602179055506080820151816003015560a0820151816004015560c0820151816005015560e08201518160060190816110a29190614dfb565b506101008201518160070190816110b99190614dfb565b506101208201518160080155610140820151816009015561016082015181600a015561018082015181600b01556101a082015181600c01556101c082015181600d01559050506000600860009054906101000a900473ffffffffffffffffffffffffffffffffffffffff1673ffffffffffffffffffffffffffffffffffffffff166369bf81c36040518163ffffffff1660e01b8152600401602060405180830381865afa15801561116e573d6000803e3d6000fd5b505050506040513d601f19601f820116820180604052508101906111929190614bb6565b8261012001511015905080156111ac576111ab82612d04565b5b600860009054906101000a900473ffffffffffffffffffffffffffffffffffffffff1673ffffffffffffffffffffffffffffffffffffffff16636f7ffca68385336040518463ffffffff1660e01b815260040161120b93929190614f06565b600060405180830381600087803b15801561122557600080fd5b505af1158015611239573d6000803e3d6000fd5b5050505050505050565b7f000000000000000000000000000000000000000000000000000000000000000081565b60007f00000000000000000000000000000000000000000000000000000000000000008260c00151101561129e57600190506112d3565b7f00000000000000000000000000000000000000000000000000000000000000008260e001516112ce91906149bd565b431190505b919050565b7f000000000000000000000000000000000000000000000000000000000000000081565b611304612f05565b8060000151600760006101000a81548173ffffffffffffffffffffffffffffffffffffffff021916908373ffffffffffffffffffffffffffffffffffffffff1602179055508060200151600660006101000a81548173ffffffffffffffffffffffffffffffffffffffff021916908373ffffffffffffffffffffffffffffffffffffffff1602179055508060400151600860006101000a81548173ffffffffffffffffffffffffffffffffffffffff021916908373ffffffffffffffffffffffffffffffffffffffff1602179055508060600151600560006101000a81548173ffffffffffffffffffffffffffffffffffffffff021916908373ffffffffffffffffffffffffffffffffffffffff1602179055508060800151600b60006101000a81548173ffffffffffffffffffffffffffffffffffffffff021916908373ffffffffffffffffffffffffffffffffffffffff1602179055508060a00151600960006101000a81548173ffffffffffffffffffffffffffffffffffffffff021916908373ffffffffffffffffffffffffffffffffffffffff1602179055508060c00151600a60006101000a81548173ffffffffffffffffffffffffffffffffffffffff021916908373ffffffffffffffffffffffffffffffffffffffff16021790555050565b600c5481565b600d5481565b6114fe612f05565b6115086000612f83565b565b60016020528060005260406000206000915054906101000a900460ff1681565b6060600360008373ffffffffffffffffffffffffffffffffffffffff1673ffffffffffffffffffffffffffffffffffffffff1681526020019081526020016000208054806020026020016040519081016040528092919081815260200182805480156115b557602002820191906000526020600020905b8154815260200190600101908083116115a1575b50505050509050919050565b6000600660009054906101000a900473ffffffffffffffffffffffffffffffffffffffff1673ffffffffffffffffffffffffffffffffffffffff166365ab21b0336040518263ffffffff1660e01b815260040161161e9190614447565b600060405180830381865afa15801561163b573d6000803e3d6000fd5b505050506040513d6000823e3d601f19601f8201168201806040525081019061166491906151b6565b9050600760009054906101000a900473ffffffffffffffffffffffffffffffffffffffff1673ffffffffffffffffffffffffffffffffffffffff16639497c6086001336040518363ffffffff1660e01b81526004016116c49291906147a8565b602060405180830381865afa1580156116e1573d6000803e3d6000fd5b505050506040513d601f19601f8201168201806040525081019061170591906147e6565b611744576040517f08c379a000000000000000000000000000000000000000000000000000000000815260040161173b9061524b565b60405180910390fd5b8060a0015115611789576040517f08c379a0000000000000000000000000000000000000000000000000000000008152600401611780906152b7565b60405180910390fd5b61179281611267565b6117d1576040517f08c379a00000000000000000000000000000000000000000000000000000000081526004016117c890615323565b60405180910390fd5b600c8160c0015110611818576040517f08c379a000000000000000000000000000000000000000000000000000000000815260040161180f9061538f565b60405180910390fd5b611820613047565b611828613547565b50565b60008060009054906101000a900473ffffffffffffffffffffffffffffffffffffffff16905090565b61185c612f05565b60018060008373ffffffffffffffffffffffffffffffffffffffff1673ffffffffffffffffffffffffffffffffffffffff16815260200190815260200160002060006101000a81548160ff02191690831515021790555050565b7f000000000000000000000000000000000000000000000000000000000000000081565b600f5481565b6000600160008373ffffffffffffffffffffffffffffffffffffffff1673ffffffffffffffffffffffffffffffffffffffff16815260200190815260200160002060009054906101000a900460ff169050919050565b6000437f000000000000000000000000000000000000000000000000000000000000000060046000858152602001908152602001600020600a015461197b91906149bd565b61198591906153af565b9050919050565b7f000000000000000000000000000000000000000000000000000000000000000081565b7f000000000000000000000000000000000000000000000000000000000000000081565b600760009054906101000a900473ffffffffffffffffffffffffffffffffffffffff1673ffffffffffffffffffffffffffffffffffffffff16639497c6086002336040518363ffffffff1660e01b8152600401611a329291906147a8565b602060405180830381865afa158015611a4f573d6000803e3d6000fd5b505050506040513d601f19601f82011682018060405250810190611a7391906147e6565b611ab2576040517f08c379a0000000000000000000000000000000000000000000000000000000008152600401611aa990614870565b60405180910390fd5b600560009054906101000a900473ffffffffffffffffffffffffffffffffffffffff1673ffffffffffffffffffffffffffffffffffffffff16634d5ff1d3336040518263ffffffff1660e01b8152600401611b0d9190614447565b602060405180830381865afa158015611b2a573d6000803e3d6000fd5b505050506040513d601f19601f82011682018060405250810190611b4e91906147e6565b611b8d576040517f08c379a0000000000000000000000000000000000000000000000000000000008152600401611b849061542f565b60405180910390fd5b600060046000838152602001908152602001600020604051806101e0016040529081600082015481526020016001820160009054906101000a900460ff166004811115611bdd57611bdc61448f565b5b6004811115611bef57611bee61448f565b5b81526020016001820160019054906101000a900473ffffffffffffffffffffffffffffffffffffffff1673ffffffffffffffffffffffffffffffffffffffff1673ffffffffffffffffffffffffffffffffffffffff1681526020016002820160009054906101000a900473ffffffffffffffffffffffffffffffffffffffff1673ffffffffffffffffffffffffffffffffffffffff1673ffffffffffffffffffffffffffffffffffffffff168152602001600382015481526020016004820154815260200160058201548152602001600682018054611ccd9061472f565b80601f0160208091040260200160405190810160405280929190818152602001828054611cf99061472f565b8015611d465780601f10611d1b57610100808354040283529160200191611d46565b820191906000526020600020905b815481529060010190602001808311611d2957829003601f168201915b50505050508152602001600782018054611d5f9061472f565b80601f0160208091040260200160405190810160405280929190818152602001828054611d8b9061472f565b8015611dd85780601f10611dad57610100808354040283529160200191611dd8565b820191906000526020600020905b815481529060010190602001808311611dbb57829003601f168201915b505050505081526020016008820154815260200160098201548152602001600a8201548152602001600b8201548152602001600c8201548152602001600d820154815250509050600181600001511015611e67576040517f08c379a0000000000000000000000000000000000000000000000000000000008152600401611e5e9061549b565b60405180910390fd5b611e6f6135d6565b611eae576040517f08c379a0000000000000000000000000000000000000000000000000000000008152600401611ea59061552d565b60405180910390fd5b600260003373ffffffffffffffffffffffffffffffffffffffff1673ffffffffffffffffffffffffffffffffffffffff1681526020019081526020016000206000826040015173ffffffffffffffffffffffffffffffffffffffff1673ffffffffffffffffffffffffffffffffffffffff16815260200190815260200160002060009054906101000a900460ff1615611f7c576040517f08c379a0000000000000000000000000000000000000000000000000000000008152600401611f73906155bf565b60405180910390fd5b60006004811115611f9057611f8f61448f565b5b81602001516004811115611fa757611fa661448f565b5b14611fe7576040517f08c379a0000000000000000000000000000000000000000000000000000000008152600401611fde9061562b565b60405180910390fd5b611ff0816139cc565b61202f576040517f08c379a000000000000000000000000000000000000000000000000000000000815260040161202690615697565b60405180910390fd5b612037613a08565b612076576040517f08c379a000000000000000000000000000000000000000000000000000000000815260040161206d90615703565b60405180910390fd5b60018160200190600481111561208f5761208e61448f565b5b908160048111156120a3576120a261448f565b5b81525050438161016001818152505033816060019073ffffffffffffffffffffffffffffffffffffffff16908173ffffffffffffffffffffffffffffffffffffffff168152505080600460008481526020019081526020016000206000820151816000015560208201518160010160006101000a81548160ff021916908360048111156121335761213261448f565b5b021790555060408201518160010160016101000a81548173ffffffffffffffffffffffffffffffffffffffff021916908373ffffffffffffffffffffffffffffffffffffffff16021790555060608201518160020160006101000a81548173ffffffffffffffffffffffffffffffffffffffff021916908373ffffffffffffffffffffffffffffffffffffffff1602179055506080820151816003015560a0820151816004015560c0820151816005015560e08201518160060190816121f99190614dfb565b506101008201518160070190816122109190614dfb565b506101208201518160080155610140820151816009015561016082015181600a015561018082015181600b01556101a082015181600c01556101c082015181600d0155905050600660009054906101000a900473ffffffffffffffffffffffffffffffffffffffff1673ffffffffffffffffffffffffffffffffffffffff16631db6420482604001516040518263ffffffff1660e01b81526004016122b59190614447565b600060405180830381600087803b1580156122cf57600080fd5b505af11580156122e3573d6000803e3d6000fd5b50505050600560009054906101000a900473ffffffffffffffffffffffffffffffffffffffff1673ffffffffffffffffffffffffffffffffffffffff1663d518ad5f33846040518363ffffffff1660e01b8152600401612344929190615723565b600060405180830381600087803b15801561235e57600080fd5b505af1158015612372573d6000803e3d6000fd5b505050505050565b600e5481565b612388613bd4565b60046000838152602001908152602001600020604051806101e0016040529081600082015481526020016001820160009054906101000a900460ff1660048111156123d6576123d561448f565b5b60048111156123e8576123e761448f565b5b81526020016001820160019054906101000a900473ffffffffffffffffffffffffffffffffffffffff1673ffffffffffffffffffffffffffffffffffffffff1673ffffffffffffffffffffffffffffffffffffffff1681526020016002820160009054906101000a900473ffffffffffffffffffffffffffffffffffffffff1673ffffffffffffffffffffffffffffffffffffffff1673ffffffffffffffffffffffffffffffffffffffff1681526020016003820154815260200160048201548152602001600582015481526020016006820180546124c69061472f565b80601f01602080910402602001604051908101604052809291908181526020018280546124f29061472f565b801561253f5780601f106125145761010080835404028352916020019161253f565b820191906000526020600020905b81548152906001019060200180831161252257829003601f168201915b505050505081526020016007820180546125589061472f565b80601f01602080910402602001604051908101604052809291908181526020018280546125849061472f565b80156125d15780601f106125a6576101008083540402835291602001916125d1565b820191906000526020600020905b8154815290600101906020018083116125b457829003601f168201915b505050505081526020016008820154815260200160098201548152602001600a8201548152602001600b8201548152602001600c8201548152602001600d820154815250509050919050565b612625612f05565b600073ffffffffffffffffffffffffffffffffffffffff168173ffffffffffffffffffffffffffffffffffffffff1603612694576040517f08c379a000000000000000000000000000000000000000000000000000000000815260040161268b906157be565b60405180910390fd5b61269d81612f83565b50565b6002856020019060048111156126b9576126b861448f565b5b908160048111156126cd576126cc61448f565b5b8152505081856080018181525050808560a0018181525050600b60009054906101000a900473ffffffffffffffffffffffffffffffffffffffff1673ffffffffffffffffffffffffffffffffffffffff16631cb9a02a83836040518363ffffffff1660e01b81526004016127429291906157de565b602060405180830381865afa15801561275f573d6000803e3d6000fd5b505050506040513d601f19601f820116820180604052508101906127839190614bb6565b8560c0018181525050838560e00181905250828561010001819052504385610180018181525050600660009054906101000a900473ffffffffffffffffffffffffffffffffffffffff1673ffffffffffffffffffffffffffffffffffffffff1663e8f3c27a6040518163ffffffff1660e01b8152600401602060405180830381865afa158015612817573d6000803e3d6000fd5b505050506040513d601f19601f8201168201806040525081019061283b9190614bb6565b856101a00181815250508460046000876000015181526020019081526020016000206000820151816000015560208201518160010160006101000a81548160ff021916908360048111156128925761289161448f565b5b021790555060408201518160010160016101000a81548173ffffffffffffffffffffffffffffffffffffffff021916908373ffffffffffffffffffffffffffffffffffffffff16021790555060608201518160020160006101000a81548173ffffffffffffffffffffffffffffffffffffffff021916908373ffffffffffffffffffffffffffffffffffffffff1602179055506080820151816003015560a0820151816004015560c0820151816005015560e08201518160060190816129589190614dfb565b5061010082015181600701908161296f9190614dfb565b506101208201518160080155610140820151816009015561016082015181600a015561018082015181600b01556101a082015181600c01556101c082015181600d01559050505050505050565b600081604001519050600082606001519050600960009054906101000a900473ffffffffffffffffffffffffffffffffffffffff1673ffffffffffffffffffffffffffffffffffffffff1662b2c92083600660009054906101000a900473ffffffffffffffffffffffffffffffffffffffff1673ffffffffffffffffffffffffffffffffffffffff166330d91ee1868860c001516040518363ffffffff1660e01b8152600401612a6d929190615723565b6020604051808303816000875af1158015612a8c573d6000803e3d6000fd5b505050506040513d601f19601f82011682018060405250810190612ab09190614bb6565b6040518363ffffffff1660e01b8152600401612acd929190615723565b600060405180830381600087803b158015612ae757600080fd5b505af1158015612afb573d6000803e3d6000fd5b50505050600960009054906101000a900473ffffffffffffffffffffffffffffffffffffffff1673ffffffffffffffffffffffffffffffffffffffff1663f1a204ce82600560009054906101000a900473ffffffffffffffffffffffffffffffffffffffff1673ffffffffffffffffffffffffffffffffffffffff1663a1ce8d3a856040518263ffffffff1660e01b8152600401612b999190614447565b6020604051808303816000875af1158015612bb8573d6000803e3d6000fd5b505050506040513d601f19601f82011682018060405250810190612bdc9190614bb6565b6040518363ffffffff1660e01b8152600401612bf9929190615723565b600060405180830381600087803b158015612c1357600080fd5b505af1158015612c27573d6000803e3d6000fd5b50505050600360008373ffffffffffffffffffffffffffffffffffffffff1673ffffffffffffffffffffffffffffffffffffffff16815260200190815260200160002083600001519080600181540180825580915050600190039060005260206000200160009091909190915055600360008273ffffffffffffffffffffffffffffffffffffffff1673ffffffffffffffffffffffffffffffffffffffff16815260200190815260200160002083600001519080600181540180825580915050600190039060005260206000200160009091909190915055505050565b8060800151600e6000828254612d1a91906153af565b925050819055508060a00151600f6000828254612d3791906153af565b92505081905550600c6000815480929190612d5190615807565b9190505550600481602001906004811115612d6f57612d6e61448f565b5b90816004811115612d8357612d8261448f565b5b8152505043816101c00181815250508060046000836000015181526020019081526020016000206000820151816000015560208201518160010160006101000a81548160ff02191690836004811115612ddf57612dde61448f565b5b021790555060408201518160010160016101000a81548173ffffffffffffffffffffffffffffffffffffffff021916908373ffffffffffffffffffffffffffffffffffffffff16021790555060608201518160020160006101000a81548173ffffffffffffffffffffffffffffffffffffffff021916908373ffffffffffffffffffffffffffffffffffffffff1602179055506080820151816003015560a0820151816004015560c0820151816005015560e0820151816006019081612ea59190614dfb565b50610100820151816007019081612ebc9190614dfb565b506101208201518160080155610140820151816009015561016082015181600a015561018082015181600b01556101a082015181600c01556101c082015181600d015590505050565b612f0d613bb6565b73ffffffffffffffffffffffffffffffffffffffff16612f2b61182b565b73ffffffffffffffffffffffffffffffffffffffff1614612f81576040517f08c379a0000000000000000000000000000000000000000000000000000000008152600401612f789061587c565b60405180910390fd5b565b60008060009054906101000a900473ffffffffffffffffffffffffffffffffffffffff169050816000806101000a81548173ffffffffffffffffffffffffffffffffffffffff021916908373ffffffffffffffffffffffffffffffffffffffff1602179055508173ffffffffffffffffffffffffffffffffffffffff168173ffffffffffffffffffffffffffffffffffffffff167f8be0079c531659141344cd1fd0a4f28419497f9722a3daafe3b4186f6b6457e060405160405180910390a35050565b60006001600d5461305891906149bd565b9050600060046000838152602001908152602001600020604051806101e0016040529081600082015481526020016001820160009054906101000a900460ff1660048111156130aa576130a961448f565b5b60048111156130bc576130bb61448f565b5b81526020016001820160019054906101000a900473ffffffffffffffffffffffffffffffffffffffff1673ffffffffffffffffffffffffffffffffffffffff1673ffffffffffffffffffffffffffffffffffffffff1681526020016002820160009054906101000a900473ffffffffffffffffffffffffffffffffffffffff1673ffffffffffffffffffffffffffffffffffffffff1673ffffffffffffffffffffffffffffffffffffffff16815260200160038201548152602001600482015481526020016005820154815260200160068201805461319a9061472f565b80601f01602080910402602001604051908101604052809291908181526020018280546131c69061472f565b80156132135780601f106131e857610100808354040283529160200191613213565b820191906000526020600020905b8154815290600101906020018083116131f657829003601f168201915b5050505050815260200160078201805461322c9061472f565b80601f01602080910402602001604051908101604052809291908181526020018280546132589061472f565b80156132a55780601f1061327a576101008083540402835291602001916132a5565b820191906000526020600020905b81548152906001019060200180831161328857829003601f168201915b505050505081526020016008820154815260200160098201548152602001600a8201548152602001600b8201548152602001600c8201548152602001600d8201548152505090508181600001818152505060008160200190600481111561330f5761330e61448f565b5b908160048111156133235761332261448f565b5b8152505033816040019073ffffffffffffffffffffffffffffffffffffffff16908173ffffffffffffffffffffffffffffffffffffffff16815250506000816060019073ffffffffffffffffffffffffffffffffffffffff16908173ffffffffffffffffffffffffffffffffffffffff168152505043816101400181815250508060046000836000015181526020019081526020016000206000820151816000015560208201518160010160006101000a81548160ff021916908360048111156133f0576133ef61448f565b5b021790555060408201518160010160016101000a81548173ffffffffffffffffffffffffffffffffffffffff021916908373ffffffffffffffffffffffffffffffffffffffff16021790555060608201518160020160006101000a81548173ffffffffffffffffffffffffffffffffffffffff021916908373ffffffffffffffffffffffffffffffffffffffff1602179055506080820151816003015560a0820151816004015560c0820151816005015560e08201518160060190816134b69190614dfb565b506101008201518160070190816134cd9190614dfb565b506101208201518160080155610140820151816009015561016082015181600a015561018082015181600b01556101a082015181600c01556101c082015181600d0155905050600c60008154809291906135269061589c565b9190505550600d600081548092919061353e9061589c565b91905055505050565b600660009054906101000a900473ffffffffffffffffffffffffffffffffffffffff1673ffffffffffffffffffffffffffffffffffffffff166394c3cee9336040518263ffffffff1660e01b81526004016135a29190614447565b600060405180830381600087803b1580156135bc57600080fd5b505af11580156135d0573d6000803e3d6000fd5b50505050565b600080600560009054906101000a900473ffffffffffffffffffffffffffffffffffffffff1673ffffffffffffffffffffffffffffffffffffffff1663e8f7dfcf336040518263ffffffff1660e01b81526004016136349190614447565b600060405180830381865afa158015613651573d6000803e3d6000fd5b505050506040513d6000823e3d601f19601f8201168201806040525081019061367a9190615a62565b90506000600460008360e001518152602001908152602001600020604051806101e0016040529081600082015481526020016001820160009054906101000a900460ff1660048111156136d0576136cf61448f565b5b60048111156136e2576136e161448f565b5b81526020016001820160019054906101000a900473ffffffffffffffffffffffffffffffffffffffff1673ffffffffffffffffffffffffffffffffffffffff1673ffffffffffffffffffffffffffffffffffffffff1681526020016002820160009054906101000a900473ffffffffffffffffffffffffffffffffffffffff1673ffffffffffffffffffffffffffffffffffffffff1673ffffffffffffffffffffffffffffffffffffffff1681526020016003820154815260200160048201548152602001600582015481526020016006820180546137c09061472f565b80601f01602080910402602001604051908101604052809291908181526020018280546137ec9061472f565b80156138395780601f1061380e57610100808354040283529160200191613839565b820191906000526020600020905b81548152906001019060200180831161381c57829003601f168201915b505050505081526020016007820180546138529061472f565b80601f016020809104026020016040519081016040528092919081815260200182805461387e9061472f565b80156138cb5780601f106138a0576101008083540402835291602001916138cb565b820191906000526020600020905b8154815290600101906020018083116138ae57829003601f168201915b505050505081526020016008820154815260200160098201548152602001600a8201548152602001600b8201548152602001600c8201548152602001600d82015481525050905060007f000000000000000000000000000000000000000000000000000000000000000082610160015161394591906149bd565b4311905060006002600481111561395f5761395e61448f565b5b836020015160048111156139765761397561448f565b5b14806139a957506004808111156139905761398f61448f565b5b836020015160048111156139a7576139a661448f565b5b145b905080806139b45750815b806139c3575060008460e00151145b94505050505090565b60007f00000000000000000000000000000000000000000000000000000000000000008261014001516139ff91906149bd565b43119050919050565b60007f0000000000000000000000000000000000000000000000000000000000000000600660009054906101000a900473ffffffffffffffffffffffffffffffffffffffff1673ffffffffffffffffffffffffffffffffffffffff1663582256f16040518163ffffffff1660e01b8152600401602060405180830381865afa158015613a98573d6000803e3d6000fd5b505050506040513d601f19601f82011682018060405250810190613abc9190614bb6565b1015613acb5760009050613bb3565b7f0000000000000000000000000000000000000000000000000000000000000000613baf7f0000000000000000000000000000000000000000000000000000000000000000600660009054906101000a900473ffffffffffffffffffffffffffffffffffffffff1673ffffffffffffffffffffffffffffffffffffffff1663582256f16040518163ffffffff1660e01b8152600401602060405180830381865afa158015613b7d573d6000803e3d6000fd5b505050506040513d601f19601f82011682018060405250810190613ba19190614bb6565b613bbe90919063ffffffff16565b1190505b90565b600033905090565b60008183613bcc91906153af565b905092915050565b604051806101e001604052806000815260200160006004811115613bfb57613bfa61448f565b5b8152602001600073ffffffffffffffffffffffffffffffffffffffff168152602001600073ffffffffffffffffffffffffffffffffffffffff16815260200160008152602001600081526020016000815260200160608152602001606081526020016000815260200160008152602001600081526020016000815260200160008152602001600081525090565b6000604051905090565b600080fd5b600080fd5b6000819050919050565b613caf81613c9c565b8114613cba57600080fd5b50565b600081359050613ccc81613ca6565b92915050565b600080fd5b600080fd5b6000601f19601f8301169050919050565b7f4e487b7100000000000000000000000000000000000000000000000000000000600052604160045260246000fd5b613d2582613cdc565b810181811067ffffffffffffffff82111715613d4457613d43613ced565b5b80604052505050565b6000613d57613c88565b9050613d638282613d1c565b919050565b600067ffffffffffffffff821115613d8357613d82613ced565b5b613d8c82613cdc565b9050602081019050919050565b82818337600083830152505050565b6000613dbb613db684613d68565b613d4d565b905082815260208101848484011115613dd757613dd6613cd7565b5b613de2848285613d99565b509392505050565b600082601f830112613dff57613dfe613cd2565b5b8135613e0f848260208601613da8565b91505092915050565b600080600080600060a08688031215613e3457613e33613c92565b5b6000613e4288828901613cbd565b955050602086013567ffffffffffffffff811115613e6357613e62613c97565b5b613e6f88828901613dea565b945050604086013567ffffffffffffffff811115613e9057613e8f613c97565b5b613e9c88828901613dea565b9350506060613ead88828901613cbd565b9250506080613ebe88828901613cbd565b9150509295509295909350565b60008060408385031215613ee257613ee1613c92565b5b6000613ef085828601613cbd565b925050602083013567ffffffffffffffff811115613f1157613f10613c97565b5b613f1d85828601613dea565b9150509250929050565b613f3081613c9c565b82525050565b6000602082019050613f4b6000830184613f27565b92915050565b600080fd5b600080fd5b600073ffffffffffffffffffffffffffffffffffffffff82169050919050565b6000613f8682613f5b565b9050919050565b613f9681613f7b565b8114613fa157600080fd5b50565b600081359050613fb381613f8d565b92915050565b60008115159050919050565b613fce81613fb9565b8114613fd957600080fd5b50565b600081359050613feb81613fc5565b92915050565b60006020828403121561400757614006613f51565b5b6140116020613d4d565b9050600061402184828501613cbd565b60008301525092915050565b60006040828403121561404357614042613f51565b5b61404d6040613d4d565b9050600061405d84828501613fdc565b600083015250602061407184828501613cbd565b60208301525092915050565b60006101a0828403121561409457614093613f51565b5b61409f610180613d4d565b905060006140af84828501613cbd565b60008301525060206140c384828501613fa4565b602083015250604082013567ffffffffffffffff8111156140e7576140e6613f56565b5b6140f384828501613dea565b604083015250606082013567ffffffffffffffff81111561411757614116613f56565b5b61412384828501613dea565b606083015250608061413784828501613cbd565b60808301525060a061414b84828501613fdc565b60a08301525060c061415f84828501613cbd565b60c08301525060e061417384828501613cbd565b60e08301525061010061418884828501613ff1565b6101008301525061012061419e8482850161402d565b610120830152506101606141b484828501613cbd565b610140830152506101806141ca84828501613cbd565b6101608301525092915050565b6000602082840312156141ed576141ec613c92565b5b600082013567ffffffffffffffff81111561420b5761420a613c97565b5b6142178482850161407d565b91505092915050565b61422981613fb9565b82525050565b60006020820190506142446000830184614220565b92915050565b600060e082840312156142605761425f613f51565b5b61426a60e0613d4d565b9050600061427a84828501613fa4565b600083015250602061428e84828501613fa4565b60208301525060406142a284828501613fa4565b60408301525060606142b684828501613fa4565b60608301525060806142ca84828501613fa4565b60808301525060a06142de84828501613fa4565b60a08301525060c06142f284828501613fa4565b60c08301525092915050565b600060e0828403121561431457614313613c92565b5b60006143228482850161424a565b91505092915050565b60006020828403121561434157614340613c92565b5b600061434f84828501613fa4565b91505092915050565b600081519050919050565b600082825260208201905092915050565b6000819050602082019050919050565b61438d81613c9c565b82525050565b600061439f8383614384565b60208301905092915050565b6000602082019050919050565b60006143c382614358565b6143cd8185614363565b93506143d883614374565b8060005b838110156144095781516143f08882614393565b97506143fb836143ab565b9250506001810190506143dc565b5085935050505092915050565b6000602082019050818103600083015261443081846143b8565b905092915050565b61444181613f7b565b82525050565b600060208201905061445c6000830184614438565b92915050565b60006020828403121561447857614477613c92565b5b600061448684828501613cbd565b91505092915050565b7f4e487b7100000000000000000000000000000000000000000000000000000000600052602160045260246000fd5b600581106144cf576144ce61448f565b5b50565b60008190506144e0826144be565b919050565b60006144f0826144d2565b9050919050565b614500816144e5565b82525050565b61450f81613f7b565b82525050565b600081519050919050565b600082825260208201905092915050565b60005b8381101561454f578082015181840152602081019050614534565b60008484015250505050565b600061456682614515565b6145708185614520565b9350614580818560208601614531565b61458981613cdc565b840191505092915050565b60006101e0830160008301516145ad6000860182614384565b5060208301516145c060208601826144f7565b5060408301516145d36040860182614506565b5060608301516145e66060860182614506565b5060808301516145f96080860182614384565b5060a083015161460c60a0860182614384565b5060c083015161461f60c0860182614384565b5060e083015184820360e0860152614637828261455b565b915050610100830151848203610100860152614653828261455b565b91505061012083015161466a610120860182614384565b5061014083015161467f610140860182614384565b50610160830151614694610160860182614384565b506101808301516146a9610180860182614384565b506101a08301516146be6101a0860182614384565b506101c08301516146d36101c0860182614384565b508091505092915050565b600060208201905081810360008301526146f88184614594565b905092915050565b7f4e487b7100000000000000000000000000000000000000000000000000000000600052602260045260246000fd5b6000600282049050600182168061474757607f821691505b60208210810361475a57614759614700565b5b50919050565b600981106147715761477061448f565b5b50565b600081905061478282614760565b919050565b600061479282614774565b9050919050565b6147a281614787565b82525050565b60006040820190506147bd6000830185614799565b6147ca6020830184614438565b9392505050565b6000815190506147e081613fc5565b92915050565b6000602082840312156147fc576147fb613c92565b5b600061480a848285016147d1565b91505092915050565b600082825260208201905092915050565b7f506c6561736520726567697374657220617320696e73706563746f7200000000600082015250565b600061485a601c83614813565b915061486582614824565b602082019050919050565b600060208201905081810360008301526148898161484d565b9050919050565b7f416363657074207468697320696e7370656374696f6e206265666f7265000000600082015250565b60006148c6601d83614813565b91506148d182614890565b602082019050919050565b600060208201905081810360008301526148f5816148b9565b9050919050565b7f596f752068617665206e6f74206163636570746564207468697320696e73706560008201527f6374696f6e000000000000000000000000000000000000000000000000000000602082015250565b6000614958602583614813565b9150614963826148fc565b604082019050919050565b600060208201905081810360008301526149878161494b565b9050919050565b7f4e487b7100000000000000000000000000000000000000000000000000000000600052601160045260246000fd5b60006149c882613c9c565b91506149d383613c9c565b92508282019050808211156149eb576149ea61498e565b5b92915050565b7f496e7370656374696f6e20457870697265640000000000000000000000000000600082015250565b6000614a27601283614813565b9150614a32826149f1565b602082019050919050565b60006020820190508181036000830152614a5681614a1a565b9050919050565b7f557365722063616e6e6f7420766f746500000000000000000000000000000000600082015250565b6000614a93601083614813565b9150614a9e82614a5d565b602082019050919050565b60006020820190508181036000830152614ac281614a86565b9050919050565b7f576169742074696d654265747765656e566f7465730000000000000000000000600082015250565b6000614aff601583614813565b9150614b0a82614ac9565b602082019050919050565b60006020820190508181036000830152614b2e81614af2565b9050919050565b7f4d61782033303020636861726163746572732072656163686564000000000000600082015250565b6000614b6b601a83614813565b9150614b7682614b35565b602082019050919050565b60006020820190508181036000830152614b9a81614b5e565b9050919050565b600081519050614bb081613ca6565b92915050565b600060208284031215614bcc57614bcb613c92565b5b6000614bda84828501614ba1565b91505092915050565b7f43616e206e6f74206164642076616c69646174696f6e20616e796d6f72650000600082015250565b6000614c19601e83614813565b9150614c2482614be3565b602082019050919050565b60006020820190508181036000830152614c4881614c0c565b9050919050565b60008190508160005260206000209050919050565b60006020601f8301049050919050565b600082821b905092915050565b600060088302614cb17fffffffffffffffffffffffffffffffffffffffffffffffffffffffffffffffff82614c74565b614cbb8683614c74565b95508019841693508086168417925050509392505050565b6000819050919050565b6000614cf8614cf3614cee84613c9c565b614cd3565b613c9c565b9050919050565b6000819050919050565b614d1283614cdd565b614d26614d1e82614cff565b848454614c81565b825550505050565b600090565b614d3b614d2e565b614d46818484614d09565b505050565b5b81811015614d6a57614d5f600082614d33565b600181019050614d4c565b5050565b601f821115614daf57614d8081614c4f565b614d8984614c64565b81016020851015614d98578190505b614dac614da485614c64565b830182614d4b565b50505b505050565b600082821c905092915050565b6000614dd260001984600802614db4565b1980831691505092915050565b6000614deb8383614dc1565b9150826002028217905092915050565b614e0482614515565b67ffffffffffffffff811115614e1d57614e1c613ced565b5b614e27825461472f565b614e32828285614d6e565b600060209050601f831160018114614e655760008415614e53578287015190505b614e5d8582614ddf565b865550614ec5565b601f198416614e7386614c4f565b60005b82811015614e9b57848901518255600182019150602085019450602081019050614e76565b86831015614eb85784890151614eb4601f891682614dc1565b8355505b6001600288020188555050505b505050505050565b6000614ed882614515565b614ee28185614813565b9350614ef2818560208601614531565b614efb81613cdc565b840191505092915050565b60006060820190508181036000830152614f208186614594565b90508181036020830152614f348185614ecd565b9050614f436040830184614438565b949350505050565b600081519050614f5a81613f8d565b92915050565b6000614f73614f6e84613d68565b613d4d565b905082815260208101848484011115614f8f57614f8e613cd7565b5b614f9a848285614531565b509392505050565b600082601f830112614fb757614fb6613cd2565b5b8151614fc7848260208601614f60565b91505092915050565b600060208284031215614fe657614fe5613f51565b5b614ff06020613d4d565b9050600061500084828501614ba1565b60008301525092915050565b60006040828403121561502257615021613f51565b5b61502c6040613d4d565b9050600061503c848285016147d1565b600083015250602061505084828501614ba1565b60208301525092915050565b60006101a0828403121561507357615072613f51565b5b61507e610180613d4d565b9050600061508e84828501614ba1565b60008301525060206150a284828501614f4b565b602083015250604082015167ffffffffffffffff8111156150c6576150c5613f56565b5b6150d284828501614fa2565b604083015250606082015167ffffffffffffffff8111156150f6576150f5613f56565b5b61510284828501614fa2565b606083015250608061511684828501614ba1565b60808301525060a061512a848285016147d1565b60a08301525060c061513e84828501614ba1565b60c08301525060e061515284828501614ba1565b60e08301525061010061516784828501614fd0565b6101008301525061012061517d8482850161500c565b6101208301525061016061519384828501614ba1565b610140830152506101806151a984828501614ba1565b6101608301525092915050565b6000602082840312156151cc576151cb613c92565b5b600082015167ffffffffffffffff8111156151ea576151e9613c97565b5b6151f68482850161505c565b91505092915050565b7f506c6561736520726567697374657220617320726567656e657261746f720000600082015250565b6000615235601e83614813565b9150615240826151ff565b602082019050919050565b6000602082019050818103600083015261526481615228565b9050919050565b7f5265717565737420616c7265616479204f50454e000000000000000000000000600082015250565b60006152a1601483614813565b91506152ac8261526b565b602082019050919050565b600060208201905081810360008301526152d081615294565b9050919050565b7f5761697420746f20726571756573740000000000000000000000000000000000600082015250565b600061530d600f83614813565b9150615318826152d7565b602082019050919050565b6000602082019050818103600083015261533c81615300565b9050919050565b7f596f75206861766520636f6d706c6574656420796f7572206d697373696f6e00600082015250565b6000615379601f83614813565b915061538482615343565b602082019050919050565b600060208201905081810360008301526153a88161536c565b9050919050565b60006153ba82613c9c565b91506153c583613c9c565b92508282039050818111156153dd576153dc61498e565b5b92915050565b7f4e6f206d6f7265207468616e2033206769766555707320616c6c6f7765640000600082015250565b6000615419601e83614813565b9150615424826153e3565b602082019050919050565b600060208201905081810360008301526154488161540c565b9050919050565b7f5468697320696e7370656374696f6e20646f206e6f7420657869737400000000600082015250565b6000615485601c83614813565b91506154908261544f565b602082019050919050565b600060208201905081810360008301526154b481615478565b9050919050565b7f596f7520616c7265616479206861766520616e20696e7370656374696f6e204160008201527f6363657074656400000000000000000000000000000000000000000000000000602082015250565b6000615517602783614813565b9150615522826154bb565b604082019050919050565b600060208201905081810360008301526155468161550a565b9050919050565b7f416c726561647920696e73706563746564207468697320726567656e6572617460008201527f6f72000000000000000000000000000000000000000000000000000000000000602082015250565b60006155a9602283614813565b91506155b48261554d565b604082019050919050565b600060208201905081810360008301526155d88161559c565b9050919050565b7f5468697320696e7370656374696f6e206973206e6f74204f50454e0000000000600082015250565b6000615615601b83614813565b9150615620826155df565b602082019050919050565b6000602082019050818103600083015261564481615608565b9050919050565b7f5761697420696e7370656374696f6e2064656c617920626c6f636b7300000000600082015250565b6000615681601c83614813565b915061568c8261564b565b602082019050919050565b600060208201905081810360008301526156b081615674565b9050919050565b7f5761697420756e74696c206e6578742065726120746f20616363657074000000600082015250565b60006156ed601d83614813565b91506156f8826156b7565b602082019050919050565b6000602082019050818103600083015261571c816156e0565b9050919050565b60006040820190506157386000830185614438565b6157456020830184613f27565b9392505050565b7f4f776e61626c653a206e6577206f776e657220697320746865207a65726f206160008201527f6464726573730000000000000000000000000000000000000000000000000000602082015250565b60006157a8602683614813565b91506157b38261574c565b604082019050919050565b600060208201905081810360008301526157d78161579b565b9050919050565b60006040820190506157f36000830185613f27565b6158006020830184613f27565b9392505050565b600061581282613c9c565b9150600082036158255761582461498e565b5b600182039050919050565b7f4f776e61626c653a2063616c6c6572206973206e6f7420746865206f776e6572600082015250565b6000615866602083614813565b915061587182615830565b602082019050919050565b6000602082019050818103600083015261589581615859565b9050919050565b60006158a782613c9c565b91507fffffffffffffffffffffffffffffffffffffffffffffffffffffffffffffffff82036158d9576158d861498e565b5b600182019050919050565b6000604082840312156158fa576158f9613f51565b5b6159046040613d4d565b9050600061591484828501614ba1565b600083015250602061592884828501614ba1565b60208301525092915050565b6000610160828403121561594b5761594a613f51565b5b615956610140613d4d565b9050600061596684828501614ba1565b600083015250602061597a84828501614f4b565b602083015250604082015167ffffffffffffffff81111561599e5761599d613f56565b5b6159aa84828501614fa2565b604083015250606082015167ffffffffffffffff8111156159ce576159cd613f56565b5b6159da84828501614fa2565b60608301525060806159ee84828501614ba1565b60808301525060a0615a0284828501614ba1565b60a08301525060c0615a1684828501614ba1565b60c08301525060e0615a2a84828501614ba1565b60e083015250610100615a3f848285016158e4565b61010083015250610140615a5584828501614ba1565b6101208301525092915050565b600060208284031215615a7857615a77613c92565b5b600082015167ffffffffffffffff811115615a9657615a95613c97565b5b615aa284828501615934565b9150509291505056fea2646970667358221220a4a4631fcf8d0498b7c9cf446f0efe5e62097d44eed74b3d4f06f5e1fa74829c64736f6c634300081b0033",
  "linkReferences": {},
  "deployedLinkReferences": {}
}