{
  "_format": "hh-sol-artifact-1",
  "contractName": "InvitationRules",
  "sourceName": "contracts/InvitationRules.sol",
  "abi": [
    {
      "inputs": [
        {
          "internalType": "address",
          "name": "communityRulesAddress",
          "type": "address"
        },
        {
          "internalType": "address",
          "name": "researcherRulesAddress",
          "type": "address"
        },
        {
          "internalType": "address",
          "name": "developerRulesAddress",
          "type": "address"
        },
        {
          "internalType": "address",
          "name": "activistRulesAddress",
          "type": "address"
        },
        {
          "internalType": "address",
          "name": "contributorRulesAddress",
          "type": "address"
        },
        {
          "internalType": "address",
          "name": "validationRulesAddress",
          "type": "address"
        }
      ],
      "stateMutability": "nonpayable",
      "type": "constructor"
    },
    {
      "anonymous": false,
      "inputs": [
        {
          "indexed": true,
          "internalType": "address",
          "name": "previousOwner",
          "type": "address"
        },
        {
          "indexed": true,
          "internalType": "address",
          "name": "newOwner",
          "type": "address"
        }
      ],
      "name": "OwnershipTransferred",
      "type": "event"
    },
    {
      "inputs": [
        {
          "internalType": "enum UserType",
          "name": "",
          "type": "uint8"
        }
      ],
      "name": "canBeInviteds",
      "outputs": [
        {
          "internalType": "enum UserType",
          "name": "",
          "type": "uint8"
        }
      ],
      "stateMutability": "view",
      "type": "function"
    },
    {
      "inputs": [
        {
          "internalType": "address",
          "name": "invited",
          "type": "address"
        },
        {
          "internalType": "enum UserType",
          "name": "userType",
          "type": "uint8"
        }
      ],
      "name": "invite",
      "outputs": [],
      "stateMutability": "nonpayable",
      "type": "function"
    },
    {
      "inputs": [
        {
          "internalType": "address",
          "name": "invited",
          "type": "address"
        },
        {
          "internalType": "enum UserType",
          "name": "userType",
          "type": "uint8"
        }
      ],
      "name": "inviteRegeneratorInspector",
      "outputs": [],
      "stateMutability": "nonpayable",
      "type": "function"
    },
    {
      "inputs": [
        {
          "internalType": "address",
          "name": "",
          "type": "address"
        }
      ],
      "name": "lastInviteBlocks",
      "outputs": [
        {
          "internalType": "uint256",
          "name": "",
          "type": "uint256"
        }
      ],
      "stateMutability": "view",
      "type": "function"
    },
    {
      "inputs": [
        {
          "internalType": "address",
          "name": "invited",
          "type": "address"
        },
        {
          "internalType": "enum UserType",
          "name": "userType",
          "type": "uint8"
        }
      ],
      "name": "onlyOwnerInvite",
      "outputs": [],
      "stateMutability": "nonpayable",
      "type": "function"
    },
    {
      "inputs": [],
      "name": "owner",
      "outputs": [
        {
          "internalType": "address",
          "name": "",
          "type": "address"
        }
      ],
      "stateMutability": "view",
      "type": "function"
    },
    {
      "inputs": [],
      "name": "renounceOwnership",
      "outputs": [],
      "stateMutability": "nonpayable",
      "type": "function"
    },
    {
      "inputs": [
        {
          "internalType": "address",
          "name": "newOwner",
          "type": "address"
        }
      ],
      "name": "transferOwnership",
      "outputs": [],
      "stateMutability": "nonpayable",
      "type": "function"
    }
  ],
  "bytecode": "0x608060405234801561001057600080fd5b50604051611d3f380380611d3f833981810160405281019061003291906105b5565b61004e61004361048660201b60201c565b61048e60201b60201c565b85600360006101000a81548173ffffffffffffffffffffffffffffffffffffffff021916908373ffffffffffffffffffffffffffffffffffffffff16021790555084600460006101000a81548173ffffffffffffffffffffffffffffffffffffffff021916908373ffffffffffffffffffffffffffffffffffffffff16021790555083600560006101000a81548173ffffffffffffffffffffffffffffffffffffffff021916908373ffffffffffffffffffffffffffffffffffffffff16021790555082600660006101000a81548173ffffffffffffffffffffffffffffffffffffffff021916908373ffffffffffffffffffffffffffffffffffffffff16021790555081600760006101000a81548173ffffffffffffffffffffffffffffffffffffffff021916908373ffffffffffffffffffffffffffffffffffffffff16021790555080600860006101000a81548173ffffffffffffffffffffffffffffffffffffffff021916908373ffffffffffffffffffffffffffffffffffffffff160217905550600660026000600660088111156101ee576101ed610642565b5b6008811115610200576101ff610642565b5b815260200190815260200160002060006101000a81548160ff021916908360088111156102305761022f610642565b5b02179055506006600260006002600881111561024f5761024e610642565b5b600881111561026157610260610642565b5b815260200190815260200160002060006101000a81548160ff0219169083600881111561029157610290610642565b5b0217905550600660026000600160088111156102b0576102af610642565b5b60088111156102c2576102c1610642565b5b815260200190815260200160002060006101000a81548160ff021916908360088111156102f2576102f1610642565b5b02179055506004600260006004600881111561031157610310610642565b5b600881111561032357610322610642565b5b815260200190815260200160002060006101000a81548160ff0219169083600881111561035357610352610642565b5b02179055506003600260006003600881111561037257610371610642565b5b600881111561038457610383610642565b5b815260200190815260200160002060006101000a81548160ff021916908360088111156103b4576103b3610642565b5b0217905550600760026000600760088111156103d3576103d2610642565b5b60088111156103e5576103e4610642565b5b815260200190815260200160002060006101000a81548160ff0219169083600881111561041557610414610642565b5b02179055506005600260006005600881111561043457610433610642565b5b600881111561044657610445610642565b5b815260200190815260200160002060006101000a81548160ff0219169083600881111561047657610475610642565b5b0217905550505050505050610671565b600033905090565b60008060009054906101000a900473ffffffffffffffffffffffffffffffffffffffff169050816000806101000a81548173ffffffffffffffffffffffffffffffffffffffff021916908373ffffffffffffffffffffffffffffffffffffffff1602179055508173ffffffffffffffffffffffffffffffffffffffff168173ffffffffffffffffffffffffffffffffffffffff167f8be0079c531659141344cd1fd0a4f28419497f9722a3daafe3b4186f6b6457e060405160405180910390a35050565b600080fd5b600073ffffffffffffffffffffffffffffffffffffffff82169050919050565b600061058282610557565b9050919050565b61059281610577565b811461059d57600080fd5b50565b6000815190506105af81610589565b92915050565b60008060008060008060c087890312156105d2576105d1610552565b5b60006105e089828a016105a0565b96505060206105f189828a016105a0565b955050604061060289828a016105a0565b945050606061061389828a016105a0565b935050608061062489828a016105a0565b92505060a061063589828a016105a0565b9150509295509295509295565b7f4e487b7100000000000000000000000000000000000000000000000000000000600052602160045260246000fd5b6116bf806106806000396000f3fe608060405234801561001057600080fd5b50600436106100885760003560e01c8063b786cf791161005b578063b786cf7914610101578063e78b77771461011d578063f2fde38b14610139578063fc06556b1461015557610088565b80633d87a5e01461008d57806349a26b9d146100bd578063715018a6146100d95780638da5cb5b146100e3575b600080fd5b6100a760048036038101906100a29190610ea9565b610185565b6040516100b49190610eef565b60405180910390f35b6100d760048036038101906100d29190610f2f565b61019d565b005b6100e1610451565b005b6100eb610465565b6040516100f89190610f7e565b60405180910390f35b61011b60048036038101906101169190610f2f565b61048e565b005b61013760048036038101906101329190610f2f565b61052b565b005b610153600480360381019061014e9190610ea9565b6107c1565b005b61016f600480360381019061016a9190610f99565b610844565b60405161017c919061103d565b60405180910390f35b60016020528060005260406000206000915090505481565b6000600360009054906101000a900473ffffffffffffffffffffffffffffffffffffffff1673ffffffffffffffffffffffffffffffffffffffff16636f77926b336040518263ffffffff1660e01b81526004016101fa9190610f7e565b602060405180830381865afa158015610217573d6000803e3d6000fd5b505050506040513d601f19601f8201168201806040525081019061023b919061106d565b905061024681610864565b610285576040517f08c379a000000000000000000000000000000000000000000000000000000000815260040161027c9061111d565b60405180910390fd5b61028e81610bac565b6102cd576040517f08c379a00000000000000000000000000000000000000000000000000000000081526004016102c490611189565b60405180910390fd5b8060088111156102e0576102df610fc6565b5b600260008460088111156102f7576102f6610fc6565b5b600881111561030957610308610fc6565b5b815260200190815260200160002060009054906101000a900460ff16600881111561033757610336610fc6565b5b14610377576040517f08c379a000000000000000000000000000000000000000000000000000000000815260040161036e906111f5565b60405180910390fd5b43600160003373ffffffffffffffffffffffffffffffffffffffff1673ffffffffffffffffffffffffffffffffffffffff16815260200190815260200160002081905550600360009054906101000a900473ffffffffffffffffffffffffffffffffffffffff1673ffffffffffffffffffffffffffffffffffffffff16637ccfdba73385856040518463ffffffff1660e01b815260040161041a93929190611215565b600060405180830381600087803b15801561043457600080fd5b505af1158015610448573d6000803e3d6000fd5b50505050505050565b610459610cf2565b6104636000610d70565b565b60008060009054906101000a900473ffffffffffffffffffffffffffffffffffffffff16905090565b610496610cf2565b600360009054906101000a900473ffffffffffffffffffffffffffffffffffffffff1673ffffffffffffffffffffffffffffffffffffffff16637ccfdba73384846040518463ffffffff1660e01b81526004016104f593929190611215565b600060405180830381600087803b15801561050f57600080fd5b505af1158015610523573d6000803e3d6000fd5b505050505050565b600360009054906101000a900473ffffffffffffffffffffffffffffffffffffffff1673ffffffffffffffffffffffffffffffffffffffff16639497c6086006336040518363ffffffff1660e01b815260040161058992919061124c565b602060405180830381865afa1580156105a6573d6000803e3d6000fd5b505050506040513d601f19601f820116820180604052508101906105ca91906112ad565b610609576040517f08c379a000000000000000000000000000000000000000000000000000000000815260040161060090611326565b60405180910390fd5b6001600881111561061d5761061c610fc6565b5b8160088111156106305761062f610fc6565b5b148061066057506002600881111561064b5761064a610fc6565b5b81600881111561065e5761065d610fc6565b5b145b61069f576040517f08c379a000000000000000000000000000000000000000000000000000000000815260040161069690611392565b60405180910390fd5b6106a96006610bac565b6106e8576040517f08c379a00000000000000000000000000000000000000000000000000000000081526004016106df90611189565b60405180910390fd5b43600160003373ffffffffffffffffffffffffffffffffffffffff1673ffffffffffffffffffffffffffffffffffffffff16815260200190815260200160002081905550600360009054906101000a900473ffffffffffffffffffffffffffffffffffffffff1673ffffffffffffffffffffffffffffffffffffffff16637ccfdba73384846040518463ffffffff1660e01b815260040161078b93929190611215565b600060405180830381600087803b1580156107a557600080fd5b505af11580156107b9573d6000803e3d6000fd5b505050505050565b6107c9610cf2565b600073ffffffffffffffffffffffffffffffffffffffff168173ffffffffffffffffffffffffffffffffffffffff1603610838576040517f08c379a000000000000000000000000000000000000000000000000000000000815260040161082f90611424565b60405180910390fd5b61084181610d70565b50565b60026020528060005260406000206000915054906101000a900460ff1681565b60006006600881111561087a57610879610fc6565b5b82600881111561088d5761088c610fc6565b5b0361093557600660009054906101000a900473ffffffffffffffffffffffffffffffffffffffff1673ffffffffffffffffffffffffffffffffffffffff1663c77c1ce6336040518263ffffffff1660e01b81526004016108ed9190610f7e565b602060405180830381865afa15801561090a573d6000803e3d6000fd5b505050506040513d601f19601f8201168201806040525081019061092e91906112ad565b9050610ba7565b6005600881111561094957610948610fc6565b5b82600881111561095c5761095b610fc6565b5b03610a0457600760009054906101000a900473ffffffffffffffffffffffffffffffffffffffff1673ffffffffffffffffffffffffffffffffffffffff1663c77c1ce6336040518263ffffffff1660e01b81526004016109bc9190610f7e565b602060405180830381865afa1580156109d9573d6000803e3d6000fd5b505050506040513d601f19601f820116820180604052508101906109fd91906112ad565b9050610ba7565b60046008811115610a1857610a17610fc6565b5b826008811115610a2b57610a2a610fc6565b5b03610ad357600560009054906101000a900473ffffffffffffffffffffffffffffffffffffffff1673ffffffffffffffffffffffffffffffffffffffff1663c77c1ce6336040518263ffffffff1660e01b8152600401610a8b9190610f7e565b602060405180830381865afa158015610aa8573d6000803e3d6000fd5b505050506040513d601f19601f82011682018060405250810190610acc91906112ad565b9050610ba7565b60036008811115610ae757610ae6610fc6565b5b826008811115610afa57610af9610fc6565b5b03610ba257600460009054906101000a900473ffffffffffffffffffffffffffffffffffffffff1673ffffffffffffffffffffffffffffffffffffffff1663c77c1ce6336040518263ffffffff1660e01b8152600401610b5a9190610f7e565b602060405180830381865afa158015610b77573d6000803e3d6000fd5b505050506040513d601f19601f82011682018060405250810190610b9b91906112ad565b9050610ba7565b600190505b919050565b600080600360009054906101000a900473ffffffffffffffffffffffffffffffffffffffff1673ffffffffffffffffffffffffffffffffffffffff16639547f953846040518263ffffffff1660e01b8152600401610c0a919061103d565b60a060405180830381865afa158015610c27573d6000803e3d6000fd5b505050506040513d601f19601f82011682018060405250810190610c4b919061158d565b6060015190506000600160003373ffffffffffffffffffffffffffffffffffffffff1673ffffffffffffffffffffffffffffffffffffffff16815260200190815260200160002054111580610cea575080600160003373ffffffffffffffffffffffffffffffffffffffff1673ffffffffffffffffffffffffffffffffffffffff1681526020019081526020016000205443610ce791906115e9565b10155b915050919050565b610cfa610e34565b73ffffffffffffffffffffffffffffffffffffffff16610d18610465565b73ffffffffffffffffffffffffffffffffffffffff1614610d6e576040517f08c379a0000000000000000000000000000000000000000000000000000000008152600401610d6590611669565b60405180910390fd5b565b60008060009054906101000a900473ffffffffffffffffffffffffffffffffffffffff169050816000806101000a81548173ffffffffffffffffffffffffffffffffffffffff021916908373ffffffffffffffffffffffffffffffffffffffff1602179055508173ffffffffffffffffffffffffffffffffffffffff168173ffffffffffffffffffffffffffffffffffffffff167f8be0079c531659141344cd1fd0a4f28419497f9722a3daafe3b4186f6b6457e060405160405180910390a35050565b600033905090565b6000604051905090565b600080fd5b600073ffffffffffffffffffffffffffffffffffffffff82169050919050565b6000610e7682610e4b565b9050919050565b610e8681610e6b565b8114610e9157600080fd5b50565b600081359050610ea381610e7d565b92915050565b600060208284031215610ebf57610ebe610e46565b5b6000610ecd84828501610e94565b91505092915050565b6000819050919050565b610ee981610ed6565b82525050565b6000602082019050610f046000830184610ee0565b92915050565b60098110610f1757600080fd5b50565b600081359050610f2981610f0a565b92915050565b60008060408385031215610f4657610f45610e46565b5b6000610f5485828601610e94565b9250506020610f6585828601610f1a565b9150509250929050565b610f7881610e6b565b82525050565b6000602082019050610f936000830184610f6f565b92915050565b600060208284031215610faf57610fae610e46565b5b6000610fbd84828501610f1a565b91505092915050565b7f4e487b7100000000000000000000000000000000000000000000000000000000600052602160045260246000fd5b6009811061100657611005610fc6565b5b50565b600081905061101782610ff5565b919050565b600061102782611009565b9050919050565b6110378161101c565b82525050565b6000602082019050611052600083018461102e565b92915050565b60008151905061106781610f0a565b92915050565b60006020828403121561108357611082610e46565b5b600061109184828501611058565b91505092915050565b600082825260208201905092915050565b7f4f6e6c79206d6f73742061637469766520757365727320616c6c6f776564207460008201527f6f20696e76697465000000000000000000000000000000000000000000000000602082015250565b600061110760288361109a565b9150611112826110ab565b604082019050919050565b60006020820190508181036000830152611136816110fa565b9050919050565b7f496e766974652064656c6179206e6f7420726561636865640000000000000000600082015250565b600061117360188361109a565b915061117e8261113d565b602082019050919050565b600060208201905081810360008301526111a281611166565b9050919050565b7f43616e277420696e766974652074686973207479706500000000000000000000600082015250565b60006111df60168361109a565b91506111ea826111a9565b602082019050919050565b6000602082019050818103600083015261120e816111d2565b9050919050565b600060608201905061122a6000830186610f6f565b6112376020830185610f6f565b611244604083018461102e565b949350505050565b6000604082019050611261600083018561102e565b61126e6020830184610f6f565b9392505050565b60008115159050919050565b61128a81611275565b811461129557600080fd5b50565b6000815190506112a781611281565b92915050565b6000602082840312156112c3576112c2610e46565b5b60006112d184828501611298565b91505092915050565b7f4f6e6c7920746f20616374697669737473000000000000000000000000000000600082015250565b600061131060118361109a565b915061131b826112da565b602082019050919050565b6000602082019050818103600083015261133f81611303565b9050919050565b7f4f6e6c7920726567656e657261746f7273206f7220696e73706563746f727300600082015250565b600061137c601f8361109a565b915061138782611346565b602082019050919050565b600060208201905081810360008301526113ab8161136f565b9050919050565b7f4f776e61626c653a206e6577206f776e657220697320746865207a65726f206160008201527f6464726573730000000000000000000000000000000000000000000000000000602082015250565b600061140e60268361109a565b9150611419826113b2565b604082019050919050565b6000602082019050818103600083015261143d81611401565b9050919050565b600080fd5b6000601f19601f8301169050919050565b7f4e487b7100000000000000000000000000000000000000000000000000000000600052604160045260246000fd5b61149282611449565b810181811067ffffffffffffffff821117156114b1576114b061145a565b5b80604052505050565b60006114c4610e3c565b90506114d08282611489565b919050565b6114de81610ed6565b81146114e957600080fd5b50565b6000815190506114fb816114d5565b92915050565b600060a0828403121561151757611516611444565b5b61152160a06114ba565b90506000611531848285016114ec565b600083015250602061154584828501611298565b602083015250604061155984828501611298565b604083015250606061156d848285016114ec565b606083015250608061158184828501611298565b60808301525092915050565b600060a082840312156115a3576115a2610e46565b5b60006115b184828501611501565b91505092915050565b7f4e487b7100000000000000000000000000000000000000000000000000000000600052601160045260246000fd5b60006115f482610ed6565b91506115ff83610ed6565b9250828203905081811115611617576116166115ba565b5b92915050565b7f4f776e61626c653a2063616c6c6572206973206e6f7420746865206f776e6572600082015250565b600061165360208361109a565b915061165e8261161d565b602082019050919050565b6000602082019050818103600083015261168281611646565b905091905056fea264697066735822122035ab469fbd8f098659bca7704ce603f7e5b131d36a1e13ca8ca147f01d466be664736f6c634300081b0033",
  "linkReferences": {},
  "deployedLinkReferences": {}
}