{
  "_format": "hh-sol-artifact-1",
  "contractName": "InvitationRules",
  "sourceName": "contracts/InvitationRules.sol",
  "abi": [
    {
      "inputs": [
        {
          "internalType": "address",
          "name": "communityRulesAddress",
          "type": "address"
        },
        {
          "internalType": "address",
          "name": "researcherRulesAddress",
          "type": "address"
        },
        {
          "internalType": "address",
          "name": "developerRulesAddress",
          "type": "address"
        },
        {
          "internalType": "address",
          "name": "activistRulesAddress",
          "type": "address"
        },
        {
          "internalType": "address",
          "name": "contributorRulesAddress",
          "type": "address"
        },
        {
          "internalType": "address",
          "name": "validatorRulesAddress",
          "type": "address"
        }
      ],
      "stateMutability": "nonpayable",
      "type": "constructor"
    },
    {
      "anonymous": false,
      "inputs": [
        {
          "indexed": true,
          "internalType": "address",
          "name": "previousOwner",
          "type": "address"
        },
        {
          "indexed": true,
          "internalType": "address",
          "name": "newOwner",
          "type": "address"
        }
      ],
      "name": "OwnershipTransferred",
      "type": "event"
    },
    {
      "inputs": [
        {
          "internalType": "enum UserType",
          "name": "",
          "type": "uint8"
        }
      ],
      "name": "canBeInviteds",
      "outputs": [
        {
          "internalType": "enum UserType",
          "name": "",
          "type": "uint8"
        }
      ],
      "stateMutability": "view",
      "type": "function"
    },
    {
      "inputs": [
        {
          "internalType": "address",
          "name": "invited",
          "type": "address"
        },
        {
          "internalType": "enum UserType",
          "name": "userType",
          "type": "uint8"
        }
      ],
      "name": "invite",
      "outputs": [],
      "stateMutability": "nonpayable",
      "type": "function"
    },
    {
      "inputs": [
        {
          "internalType": "address",
          "name": "",
          "type": "address"
        }
      ],
      "name": "lastInviteBlocks",
      "outputs": [
        {
          "internalType": "uint256",
          "name": "",
          "type": "uint256"
        }
      ],
      "stateMutability": "view",
      "type": "function"
    },
    {
      "inputs": [
        {
          "internalType": "address",
          "name": "invited",
          "type": "address"
        },
        {
          "internalType": "enum UserType",
          "name": "userType",
          "type": "uint8"
        }
      ],
      "name": "onlyOwnerInvite",
      "outputs": [],
      "stateMutability": "nonpayable",
      "type": "function"
    },
    {
      "inputs": [],
      "name": "owner",
      "outputs": [
        {
          "internalType": "address",
          "name": "",
          "type": "address"
        }
      ],
      "stateMutability": "view",
      "type": "function"
    },
    {
      "inputs": [],
      "name": "renounceOwnership",
      "outputs": [],
      "stateMutability": "nonpayable",
      "type": "function"
    },
    {
      "inputs": [
        {
          "internalType": "address",
          "name": "newOwner",
          "type": "address"
        }
      ],
      "name": "transferOwnership",
      "outputs": [],
      "stateMutability": "nonpayable",
      "type": "function"
    }
  ],
  "bytecode": "0x608060405234801561001057600080fd5b50604051611a9d380380611a9d83398181016040528101906100329190610616565b61004e6100436104e760201b60201c565b6104ef60201b60201c565b85600360006101000a81548173ffffffffffffffffffffffffffffffffffffffff021916908373ffffffffffffffffffffffffffffffffffffffff16021790555084600460006101000a81548173ffffffffffffffffffffffffffffffffffffffff021916908373ffffffffffffffffffffffffffffffffffffffff16021790555083600560006101000a81548173ffffffffffffffffffffffffffffffffffffffff021916908373ffffffffffffffffffffffffffffffffffffffff16021790555082600660006101000a81548173ffffffffffffffffffffffffffffffffffffffff021916908373ffffffffffffffffffffffffffffffffffffffff16021790555081600760006101000a81548173ffffffffffffffffffffffffffffffffffffffff021916908373ffffffffffffffffffffffffffffffffffffffff16021790555080600860006101000a81548173ffffffffffffffffffffffffffffffffffffffff021916908373ffffffffffffffffffffffffffffffffffffffff160217905550600660026000600660098111156101ee576101ed6106a3565b5b6009811115610200576101ff6106a3565b5b815260200190815260200160002060006101000a81548160ff021916908360098111156102305761022f6106a3565b5b02179055506006600260006002600981111561024f5761024e6106a3565b5b6009811115610261576102606106a3565b5b815260200190815260200160002060006101000a81548160ff02191690836009811115610291576102906106a3565b5b0217905550600660026000600160098111156102b0576102af6106a3565b5b60098111156102c2576102c16106a3565b5b815260200190815260200160002060006101000a81548160ff021916908360098111156102f2576102f16106a3565b5b021790555060046002600060046009811115610311576103106106a3565b5b6009811115610323576103226106a3565b5b815260200190815260200160002060006101000a81548160ff02191690836009811115610353576103526106a3565b5b021790555060036002600060036009811115610372576103716106a3565b5b6009811115610384576103836106a3565b5b815260200190815260200160002060006101000a81548160ff021916908360098111156103b4576103b36106a3565b5b0217905550600760026000600760098111156103d3576103d26106a3565b5b60098111156103e5576103e46106a3565b5b815260200190815260200160002060006101000a81548160ff02191690836009811115610415576104146106a3565b5b021790555060056002600060056009811115610434576104336106a3565b5b6009811115610446576104456106a3565b5b815260200190815260200160002060006101000a81548160ff02191690836009811115610476576104756106a3565b5b021790555060086002600060086009811115610495576104946106a3565b5b60098111156104a7576104a66106a3565b5b815260200190815260200160002060006101000a81548160ff021916908360098111156104d7576104d66106a3565b5b02179055505050505050506106d2565b600033905090565b60008060009054906101000a900473ffffffffffffffffffffffffffffffffffffffff169050816000806101000a81548173ffffffffffffffffffffffffffffffffffffffff021916908373ffffffffffffffffffffffffffffffffffffffff1602179055508173ffffffffffffffffffffffffffffffffffffffff168173ffffffffffffffffffffffffffffffffffffffff167f8be0079c531659141344cd1fd0a4f28419497f9722a3daafe3b4186f6b6457e060405160405180910390a35050565b600080fd5b600073ffffffffffffffffffffffffffffffffffffffff82169050919050565b60006105e3826105b8565b9050919050565b6105f3816105d8565b81146105fe57600080fd5b50565b600081519050610610816105ea565b92915050565b60008060008060008060c08789031215610633576106326105b3565b5b600061064189828a01610601565b965050602061065289828a01610601565b955050604061066389828a01610601565b945050606061067489828a01610601565b935050608061068589828a01610601565b92505060a061069689828a01610601565b9150509295509295509295565b7f4e487b7100000000000000000000000000000000000000000000000000000000600052602160045260246000fd5b6113bc806106e16000396000f3fe608060405234801561001057600080fd5b506004361061007d5760003560e01c80638da5cb5b1161005b5780638da5cb5b146100d8578063b786cf79146100f6578063f2fde38b14610112578063fc06556b1461012e5761007d565b80633d87a5e01461008257806349a26b9d146100b2578063715018a6146100ce575b600080fd5b61009c60048036038101906100979190610cbb565b61015e565b6040516100a99190610d01565b60405180910390f35b6100cc60048036038101906100c79190610d41565b610176565b005b6100d661042a565b005b6100e061043e565b6040516100ed9190610d90565b60405180910390f35b610110600480360381019061010b9190610d41565b610467565b005b61012c60048036038101906101279190610cbb565b610504565b005b61014860048036038101906101439190610dab565b610587565b6040516101559190610e4f565b60405180910390f35b60016020528060005260406000206000915090505481565b6000600360009054906101000a900473ffffffffffffffffffffffffffffffffffffffff1673ffffffffffffffffffffffffffffffffffffffff16636f77926b336040518263ffffffff1660e01b81526004016101d39190610d90565b602060405180830381865afa1580156101f0573d6000803e3d6000fd5b505050506040513d601f19601f820116820180604052508101906102149190610e7f565b905061021f816105a7565b61025e576040517f08c379a000000000000000000000000000000000000000000000000000000000815260040161025590610f2f565b60405180910390fd5b610267816109be565b6102a6576040517f08c379a000000000000000000000000000000000000000000000000000000000815260040161029d90610f9b565b60405180910390fd5b8060098111156102b9576102b8610dd8565b5b600260008460098111156102d0576102cf610dd8565b5b60098111156102e2576102e1610dd8565b5b815260200190815260200160002060009054906101000a900460ff1660098111156103105761030f610dd8565b5b14610350576040517f08c379a000000000000000000000000000000000000000000000000000000000815260040161034790611007565b60405180910390fd5b43600160003373ffffffffffffffffffffffffffffffffffffffff1673ffffffffffffffffffffffffffffffffffffffff16815260200190815260200160002081905550600360009054906101000a900473ffffffffffffffffffffffffffffffffffffffff1673ffffffffffffffffffffffffffffffffffffffff16637ccfdba73385856040518463ffffffff1660e01b81526004016103f393929190611027565b600060405180830381600087803b15801561040d57600080fd5b505af1158015610421573d6000803e3d6000fd5b50505050505050565b610432610b04565b61043c6000610b82565b565b60008060009054906101000a900473ffffffffffffffffffffffffffffffffffffffff16905090565b61046f610b04565b600360009054906101000a900473ffffffffffffffffffffffffffffffffffffffff1673ffffffffffffffffffffffffffffffffffffffff16637ccfdba73384846040518463ffffffff1660e01b81526004016104ce93929190611027565b600060405180830381600087803b1580156104e857600080fd5b505af11580156104fc573d6000803e3d6000fd5b505050505050565b61050c610b04565b600073ffffffffffffffffffffffffffffffffffffffff168173ffffffffffffffffffffffffffffffffffffffff160361057b576040517f08c379a0000000000000000000000000000000000000000000000000000000008152600401610572906110d0565b60405180910390fd5b61058481610b82565b50565b60026020528060005260406000206000915054906101000a900460ff1681565b6000600660098111156105bd576105bc610dd8565b5b8260098111156105d0576105cf610dd8565b5b0361067857600660009054906101000a900473ffffffffffffffffffffffffffffffffffffffff1673ffffffffffffffffffffffffffffffffffffffff1663c77c1ce6336040518263ffffffff1660e01b81526004016106309190610d90565b602060405180830381865afa15801561064d573d6000803e3d6000fd5b505050506040513d601f19601f820116820180604052508101906106719190611128565b90506109b9565b6005600981111561068c5761068b610dd8565b5b82600981111561069f5761069e610dd8565b5b0361074757600760009054906101000a900473ffffffffffffffffffffffffffffffffffffffff1673ffffffffffffffffffffffffffffffffffffffff1663c77c1ce6336040518263ffffffff1660e01b81526004016106ff9190610d90565b602060405180830381865afa15801561071c573d6000803e3d6000fd5b505050506040513d601f19601f820116820180604052508101906107409190611128565b90506109b9565b6004600981111561075b5761075a610dd8565b5b82600981111561076e5761076d610dd8565b5b0361081657600560009054906101000a900473ffffffffffffffffffffffffffffffffffffffff1673ffffffffffffffffffffffffffffffffffffffff1663c77c1ce6336040518263ffffffff1660e01b81526004016107ce9190610d90565b602060405180830381865afa1580156107eb573d6000803e3d6000fd5b505050506040513d601f19601f8201168201806040525081019061080f9190611128565b90506109b9565b6003600981111561082a57610829610dd8565b5b82600981111561083d5761083c610dd8565b5b036108e557600460009054906101000a900473ffffffffffffffffffffffffffffffffffffffff1673ffffffffffffffffffffffffffffffffffffffff1663c77c1ce6336040518263ffffffff1660e01b815260040161089d9190610d90565b602060405180830381865afa1580156108ba573d6000803e3d6000fd5b505050506040513d601f19601f820116820180604052508101906108de9190611128565b90506109b9565b600860098111156108f9576108f8610dd8565b5b82600981111561090c5761090b610dd8565b5b036109b457600860009054906101000a900473ffffffffffffffffffffffffffffffffffffffff1673ffffffffffffffffffffffffffffffffffffffff1663c77c1ce6336040518263ffffffff1660e01b815260040161096c9190610d90565b602060405180830381865afa158015610989573d6000803e3d6000fd5b505050506040513d601f19601f820116820180604052508101906109ad9190611128565b90506109b9565b600190505b919050565b600080600360009054906101000a900473ffffffffffffffffffffffffffffffffffffffff1673ffffffffffffffffffffffffffffffffffffffff16639547f953846040518263ffffffff1660e01b8152600401610a1c9190610e4f565b608060405180830381865afa158015610a39573d6000803e3d6000fd5b505050506040513d601f19601f82011682018060405250810190610a5d919061128a565b6060015190506000600160003373ffffffffffffffffffffffffffffffffffffffff1673ffffffffffffffffffffffffffffffffffffffff16815260200190815260200160002054111580610afc575080600160003373ffffffffffffffffffffffffffffffffffffffff1673ffffffffffffffffffffffffffffffffffffffff1681526020019081526020016000205443610af991906112e6565b10155b915050919050565b610b0c610c46565b73ffffffffffffffffffffffffffffffffffffffff16610b2a61043e565b73ffffffffffffffffffffffffffffffffffffffff1614610b80576040517f08c379a0000000000000000000000000000000000000000000000000000000008152600401610b7790611366565b60405180910390fd5b565b60008060009054906101000a900473ffffffffffffffffffffffffffffffffffffffff169050816000806101000a81548173ffffffffffffffffffffffffffffffffffffffff021916908373ffffffffffffffffffffffffffffffffffffffff1602179055508173ffffffffffffffffffffffffffffffffffffffff168173ffffffffffffffffffffffffffffffffffffffff167f8be0079c531659141344cd1fd0a4f28419497f9722a3daafe3b4186f6b6457e060405160405180910390a35050565b600033905090565b6000604051905090565b600080fd5b600073ffffffffffffffffffffffffffffffffffffffff82169050919050565b6000610c8882610c5d565b9050919050565b610c9881610c7d565b8114610ca357600080fd5b50565b600081359050610cb581610c8f565b92915050565b600060208284031215610cd157610cd0610c58565b5b6000610cdf84828501610ca6565b91505092915050565b6000819050919050565b610cfb81610ce8565b82525050565b6000602082019050610d166000830184610cf2565b92915050565b600a8110610d2957600080fd5b50565b600081359050610d3b81610d1c565b92915050565b60008060408385031215610d5857610d57610c58565b5b6000610d6685828601610ca6565b9250506020610d7785828601610d2c565b9150509250929050565b610d8a81610c7d565b82525050565b6000602082019050610da56000830184610d81565b92915050565b600060208284031215610dc157610dc0610c58565b5b6000610dcf84828501610d2c565b91505092915050565b7f4e487b7100000000000000000000000000000000000000000000000000000000600052602160045260246000fd5b600a8110610e1857610e17610dd8565b5b50565b6000819050610e2982610e07565b919050565b6000610e3982610e1b565b9050919050565b610e4981610e2e565b82525050565b6000602082019050610e646000830184610e40565b92915050565b600081519050610e7981610d1c565b92915050565b600060208284031215610e9557610e94610c58565b5b6000610ea384828501610e6a565b91505092915050565b600082825260208201905092915050565b7f4f6e6c79206d6f73742061637469766520757365727320616c6c6f776564207460008201527f6f20696e76697465000000000000000000000000000000000000000000000000602082015250565b6000610f19602883610eac565b9150610f2482610ebd565b604082019050919050565b60006020820190508181036000830152610f4881610f0c565b9050919050565b7f496e766974652064656c6179206e6f7420726561636865640000000000000000600082015250565b6000610f85601883610eac565b9150610f9082610f4f565b602082019050919050565b60006020820190508181036000830152610fb481610f78565b9050919050565b7f43616e277420696e766974652074686973207479706500000000000000000000600082015250565b6000610ff1601683610eac565b9150610ffc82610fbb565b602082019050919050565b6000602082019050818103600083015261102081610fe4565b9050919050565b600060608201905061103c6000830186610d81565b6110496020830185610d81565b6110566040830184610e40565b949350505050565b7f4f776e61626c653a206e6577206f776e657220697320746865207a65726f206160008201527f6464726573730000000000000000000000000000000000000000000000000000602082015250565b60006110ba602683610eac565b91506110c58261105e565b604082019050919050565b600060208201905081810360008301526110e9816110ad565b9050919050565b60008115159050919050565b611105816110f0565b811461111057600080fd5b50565b600081519050611122816110fc565b92915050565b60006020828403121561113e5761113d610c58565b5b600061114c84828501611113565b91505092915050565b600080fd5b6000601f19601f8301169050919050565b7f4e487b7100000000000000000000000000000000000000000000000000000000600052604160045260246000fd5b6111a38261115a565b810181811067ffffffffffffffff821117156111c2576111c161116b565b5b80604052505050565b60006111d5610c4e565b90506111e1828261119a565b919050565b6111ef81610ce8565b81146111fa57600080fd5b50565b60008151905061120c816111e6565b92915050565b60006080828403121561122857611227611155565b5b61123260806111cb565b90506000611242848285016111fd565b600083015250602061125684828501611113565b602083015250604061126a84828501611113565b604083015250606061127e848285016111fd565b60608301525092915050565b6000608082840312156112a05761129f610c58565b5b60006112ae84828501611212565b91505092915050565b7f4e487b7100000000000000000000000000000000000000000000000000000000600052601160045260246000fd5b60006112f182610ce8565b91506112fc83610ce8565b9250828203905081811115611314576113136112b7565b5b92915050565b7f4f776e61626c653a2063616c6c6572206973206e6f7420746865206f776e6572600082015250565b6000611350602083610eac565b915061135b8261131a565b602082019050919050565b6000602082019050818103600083015261137f81611343565b905091905056fea2646970667358221220b245815d0b694dced5a4d4bdd1e2c9fc0ff2d1ae27e616624584148bef927e5b64736f6c634300081b0033",
  "linkReferences": {},
  "deployedLinkReferences": {}
}