{
  "_format": "hh-sol-artifact-1",
  "contractName": "InvitationRules",
  "sourceName": "contracts/InvitationRules.sol",
  "abi": [
    {
      "inputs": [
        {
          "internalType": "address",
          "name": "communityRulesAddress",
          "type": "address"
        },
        {
          "internalType": "address",
          "name": "researcherRulesAddress",
          "type": "address"
        },
        {
          "internalType": "address",
          "name": "developerRulesAddress",
          "type": "address"
        },
        {
          "internalType": "address",
          "name": "activistRulesAddress",
          "type": "address"
        },
        {
          "internalType": "address",
          "name": "contributorRulesAddress",
          "type": "address"
        }
      ],
      "stateMutability": "nonpayable",
      "type": "constructor"
    },
    {
      "inputs": [
        {
          "internalType": "address",
          "name": "owner",
          "type": "address"
        }
      ],
      "name": "OwnableInvalidOwner",
      "type": "error"
    },
    {
      "inputs": [
        {
          "internalType": "address",
          "name": "account",
          "type": "address"
        }
      ],
      "name": "OwnableUnauthorizedAccount",
      "type": "error"
    },
    {
      "inputs": [],
      "name": "ReentrancyGuardReentrantCall",
      "type": "error"
    },
    {
      "anonymous": false,
      "inputs": [
        {
          "indexed": true,
          "internalType": "address",
          "name": "previousOwner",
          "type": "address"
        },
        {
          "indexed": true,
          "internalType": "address",
          "name": "newOwner",
          "type": "address"
        }
      ],
      "name": "OwnershipTransferred",
      "type": "event"
    },
    {
      "anonymous": false,
      "inputs": [
        {
          "indexed": true,
          "internalType": "address",
          "name": "inviter",
          "type": "address"
        },
        {
          "indexed": true,
          "internalType": "address",
          "name": "invited",
          "type": "address"
        },
        {
          "indexed": false,
          "internalType": "enum CommunityTypes.UserType",
          "name": "invitedType",
          "type": "uint8"
        },
        {
          "indexed": false,
          "internalType": "uint256",
          "name": "blockNumber",
          "type": "uint256"
        }
      ],
      "name": "UserInvited",
      "type": "event"
    },
    {
      "inputs": [],
      "name": "ACTIVIST_DELAY_BLOCKS",
      "outputs": [
        {
          "internalType": "uint16",
          "name": "",
          "type": "uint16"
        }
      ],
      "stateMutability": "view",
      "type": "function"
    },
    {
      "inputs": [],
      "name": "activistRules",
      "outputs": [
        {
          "internalType": "contract IActivistRules",
          "name": "",
          "type": "address"
        }
      ],
      "stateMutability": "view",
      "type": "function"
    },
    {
      "inputs": [
        {
          "internalType": "enum CommunityTypes.UserType",
          "name": "",
          "type": "uint8"
        }
      ],
      "name": "canBeInviteds",
      "outputs": [
        {
          "internalType": "enum CommunityTypes.UserType",
          "name": "",
          "type": "uint8"
        }
      ],
      "stateMutability": "view",
      "type": "function"
    },
    {
      "inputs": [],
      "name": "communityRules",
      "outputs": [
        {
          "internalType": "contract ICommunityRules",
          "name": "",
          "type": "address"
        }
      ],
      "stateMutability": "view",
      "type": "function"
    },
    {
      "inputs": [],
      "name": "contributorRules",
      "outputs": [
        {
          "internalType": "contract IContributorRules",
          "name": "",
          "type": "address"
        }
      ],
      "stateMutability": "view",
      "type": "function"
    },
    {
      "inputs": [],
      "name": "developerRules",
      "outputs": [
        {
          "internalType": "contract IDeveloperRules",
          "name": "",
          "type": "address"
        }
      ],
      "stateMutability": "view",
      "type": "function"
    },
    {
      "inputs": [
        {
          "internalType": "address",
          "name": "invited",
          "type": "address"
        },
        {
          "internalType": "enum CommunityTypes.UserType",
          "name": "userType",
          "type": "uint8"
        }
      ],
      "name": "invite",
      "outputs": [],
      "stateMutability": "nonpayable",
      "type": "function"
    },
    {
      "inputs": [
        {
          "internalType": "address",
          "name": "invited",
          "type": "address"
        },
        {
          "internalType": "enum CommunityTypes.UserType",
          "name": "userType",
          "type": "uint8"
        }
      ],
      "name": "inviteRegeneratorInspector",
      "outputs": [],
      "stateMutability": "nonpayable",
      "type": "function"
    },
    {
      "inputs": [
        {
          "internalType": "address",
          "name": "",
          "type": "address"
        }
      ],
      "name": "lastInviteActivist",
      "outputs": [
        {
          "internalType": "uint256",
          "name": "",
          "type": "uint256"
        }
      ],
      "stateMutability": "view",
      "type": "function"
    },
    {
      "inputs": [
        {
          "internalType": "address",
          "name": "",
          "type": "address"
        }
      ],
      "name": "lastInviteBlocks",
      "outputs": [
        {
          "internalType": "uint256",
          "name": "",
          "type": "uint256"
        }
      ],
      "stateMutability": "view",
      "type": "function"
    },
    {
      "inputs": [
        {
          "internalType": "address",
          "name": "invited",
          "type": "address"
        },
        {
          "internalType": "enum CommunityTypes.UserType",
          "name": "userType",
          "type": "uint8"
        }
      ],
      "name": "onlyOwnerInvite",
      "outputs": [],
      "stateMutability": "nonpayable",
      "type": "function"
    },
    {
      "inputs": [],
      "name": "owner",
      "outputs": [
        {
          "internalType": "address",
          "name": "",
          "type": "address"
        }
      ],
      "stateMutability": "view",
      "type": "function"
    },
    {
      "inputs": [],
      "name": "renounceOwnership",
      "outputs": [],
      "stateMutability": "nonpayable",
      "type": "function"
    },
    {
      "inputs": [],
      "name": "researcherRules",
      "outputs": [
        {
          "internalType": "contract IResearcherRules",
          "name": "",
          "type": "address"
        }
      ],
      "stateMutability": "view",
      "type": "function"
    },
    {
      "inputs": [
        {
          "internalType": "address",
          "name": "newOwner",
          "type": "address"
        }
      ],
      "name": "transferOwnership",
      "outputs": [],
      "stateMutability": "nonpayable",
      "type": "function"
    }
  ],
  "bytecode": "0x608060405234801561001057600080fd5b5060405161141a38038061141a83398101604081905261002f91610267565b338061005557604051631e4fbdf760e01b81526000600482015260240160405180910390fd5b61005e816101fb565b5060018055600580546001600160a01b03199081166001600160a01b03978816178255600680548216968816969096178655600780548216958816959095178555600880548216948816949094179093556009805490931691909516179055600460208190527fc59312466997bb42aaaf719ece141047820e6b34531e1670dc1852a453648f0f805460ff1990811685179091557f91da3fd0782e51c6b3986e9e672fd566868e71f3dbc2d6c2cd6fbb3e361af2a780548216851790557fabd6e7cb50984ff9c2f3e18a2660c3353dadf4e3291deeb275dae2cd1e44fe05805482169094179093557f1a1e6821cde7d0159c0d293177871e09677b4e42307c7db3ba94f8648a5a050f8054841690911790557f2e174c10e159ea99b867ce3205125c24a42d128804e4070ed6fcc8cc98166aa0805460039084161790557f04cde762ef08b6b6c5ded8e8c4c0b3f4e5c9ad7342c88fcc93681b4588b73f058054831690931790925560008290527fbeb3bad75134cb432e5707980e3245c52c5998a1125ee30f2f0dbf3925b1e551805490911690911790556102cc565b600080546001600160a01b038381166001600160a01b0319831681178455604051919092169283917f8be0079c531659141344cd1fd0a4f28419497f9722a3daafe3b4186f6b6457e09190a35050565b80516001600160a01b038116811461026257600080fd5b919050565b600080600080600060a0868803121561027f57600080fd5b6102888661024b565b94506102966020870161024b565b93506102a46040870161024b565b92506102b26060870161024b565b91506102c06080870161024b565b90509295509295909350565b61113f806102db6000396000f3fe608060405234801561001057600080fd5b50600436106100f55760003560e01c8063b786cf7911610097578063e78b777711610066578063e78b77771461020d578063f2fde38b14610220578063f873fe5414610233578063fc06556b1461024657600080fd5b8063b786cf79146101ac578063c128414b146101bf578063ce59654a146101da578063e2085013146101ed57600080fd5b8063715018a6116100d3578063715018a61461016d5780637591a90414610175578063859b12f3146101885780638da5cb5b1461019b57600080fd5b80633d87a5e0146100fa57806349a26b9d1461012d57806355e7cfe514610142575b600080fd5b61011a610108366004610e89565b60026020526000908152604090205481565b6040519081526020015b60405180910390f35b61014061013b366004610eb1565b610276565b005b600854610155906001600160a01b031681565b6040516001600160a01b039091168152602001610124565b610140610738565b600754610155906001600160a01b031681565b600654610155906001600160a01b031681565b6000546001600160a01b0316610155565b6101406101ba366004610eb1565b61074c565b6101c7600a81565b60405161ffff9091168152602001610124565b600554610155906001600160a01b031681565b61011a6101fb366004610e89565b60036020526000908152604090205481565b61014061021b366004610eb1565b61080b565b61014061022e366004610e89565b610b14565b600954610155906001600160a01b031681565b610269610254366004610ee8565b60046020526000908152604090205460ff1681565b6040516101249190610f3d565b61027e610b52565b60058054604051630845718d60e21b81523360048201526001600160a01b0390911690632115c63490602401602060405180830381865afa1580156102c7573d6000803e3d6000fd5b505050506040513d601f19601f820116820180604052508101906102eb9190610f4b565b61ffff16106103365760405162461bcd60e51b8152602060048201526012602482015271546f6f206d616e792070656e616c7469657360701b60448201526064015b60405180910390fd5b60055460405163e838dfbb60e01b81523360048201526001600160a01b039091169063e838dfbb90602401602060405180830381865afa15801561037e573d6000803e3d6000fd5b505050506040513d601f19601f820116820180604052508101906103a29190610f7f565b156103dd5760405162461bcd60e51b815260206004820152600b60248201526a155cd95c8819195b9a595960aa1b604482015260640161032d565b600554604051636f77926b60e01b81523360048201526000916001600160a01b031690636f77926b90602401602060405180830381865afa158015610426573d6000803e3d6000fd5b505050506040513d601f19601f8201168201806040525081019061044a9190610f9a565b9050600681600781111561046057610460610f05565b0361050b57600182600781111561047957610479610f05565b141580156104995750600282600781111561049657610496610f05565b14155b61050b5760405162461bcd60e51b815260206004820152603d60248201527f416374697669737473206d7573742075736520696e76697465526567656e657260448201527f61746f72496e73706563746f72282920666f7220746869732074797065000000606482015260840161032d565b61051481610b7c565b6105715760405162461bcd60e51b815260206004820152602860248201527f4f6e6c79206d6f73742061637469766520757365727320616c6c6f77656420746044820152676f20696e7669746560c01b606482015260840161032d565b61057a81610d13565b6105c15760405162461bcd60e51b8152602060048201526018602482015277125b9d9a5d194819195b185e481b9bdd081c995858da195960421b604482015260640161032d565b8060078111156105d3576105d3610f05565b600460008460078111156105e9576105e9610f05565b60078111156105fa576105fa610f05565b815260208101919091526040016000205460ff16600781111561061f5761061f610f05565b146106655760405162461bcd60e51b815260206004820152601660248201527543616e277420696e766974652074686973207479706560501b604482015260640161032d565b33600081815260026020526040908190204390556005549051637ccfdba760e01b81526001600160a01b0390911691637ccfdba7916106ab919087908790600401610fb7565b600060405180830381600087803b1580156106c557600080fd5b505af11580156106d9573d6000803e3d6000fd5b50505050826001600160a01b0316336001600160a01b03167f6916c193b17465fcbf2131052cc1331820567345746f2882cf45d4ab0b1ccf018443604051610722929190610fe4565b60405180910390a35061073460018055565b5050565b610740610db1565b61074a6000610dde565b565b610754610db1565b600554604051637ccfdba760e01b81526001600160a01b0390911690637ccfdba79061078890339086908690600401610fb7565b600060405180830381600087803b1580156107a257600080fd5b505af11580156107b6573d6000803e3d6000fd5b50505050816001600160a01b0316336001600160a01b03167f6916c193b17465fcbf2131052cc1331820567345746f2882cf45d4ab0b1ccf0183436040516107ff929190610fe4565b60405180910390a35050565b610813610b52565b60058054604051630845718d60e21b81523360048201526001600160a01b0390911690632115c63490602401602060405180830381865afa15801561085c573d6000803e3d6000fd5b505050506040513d601f19601f820116820180604052508101906108809190610f4b565b61ffff16106108c65760405162461bcd60e51b8152602060048201526012602482015271546f6f206d616e792070656e616c7469657360701b604482015260640161032d565b600554604051631292f8c160e31b81526001600160a01b0390911690639497c608906108f9906006903390600401610fff565b602060405180830381865afa158015610916573d6000803e3d6000fd5b505050506040513d601f19601f8201168201806040525081019061093a9190610f7f565b61097a5760405162461bcd60e51b81526020600482015260116024820152704f6e6c7920746f2061637469766973747360781b604482015260640161032d565b600181600781111561098e5761098e610f05565b14806109ab575060028160078111156109a9576109a9610f05565b145b6109f75760405162461bcd60e51b815260206004820152601f60248201527f4f6e6c7920726567656e657261746f7273206f7220696e73706563746f727300604482015260640161032d565b6109ff610e2e565b610a465760405162461bcd60e51b8152602060048201526018602482015277125b9d9a5d194819195b185e481b9bdd081c995858da195960421b604482015260640161032d565b33600081815260036020526040908190204390556005549051637ccfdba760e01b81526001600160a01b0390911691637ccfdba791610a8c919086908690600401610fb7565b600060405180830381600087803b158015610aa657600080fd5b505af1158015610aba573d6000803e3d6000fd5b50505050816001600160a01b0316336001600160a01b03167f6916c193b17465fcbf2131052cc1331820567345746f2882cf45d4ab0b1ccf018343604051610b03929190610fe4565b60405180910390a361073460018055565b610b1c610db1565b6001600160a01b038116610b4657604051631e4fbdf760e01b81526000600482015260240161032d565b610b4f81610dde565b50565b600260015403610b7557604051633ee5aeb560e01b815260040160405180910390fd5b6002600155565b60006006826007811115610b9257610b92610f05565b03610c0a576008546040516363be0e7360e11b81523360048201526001600160a01b039091169063c77c1ce6906024015b602060405180830381865afa158015610be0573d6000803e3d6000fd5b505050506040513d601f19601f82011682018060405250810190610c049190610f7f565b92915050565b6005826007811115610c1e57610c1e610f05565b03610c53576009546040516363be0e7360e11b81523360048201526001600160a01b039091169063c77c1ce690602401610bc3565b6004826007811115610c6757610c67610f05565b03610c9c576007546040516363be0e7360e11b81523360048201526001600160a01b039091169063c77c1ce690602401610bc3565b6003826007811115610cb057610cb0610f05565b03610ce5576006546040516363be0e7360e11b81523360048201526001600160a01b039091169063c77c1ce690602401610bc3565b6007826007811115610cf957610cf9610f05565b03610d0657506001919050565b506000919050565b919050565b600554604051639547f95360e01b815260009182916001600160a01b0390911690639547f95390610d48908690600401610f3d565b60a060405180830381865afa158015610d65573d6000803e3d6000fd5b505050506040513d601f19601f82011682018060405250810190610d89919061104a565b6060015133600090815260026020526040902054909150610daa9082610e4e565b9392505050565b6000546001600160a01b0316331461074a5760405163118cdaa760e01b815233600482015260240161032d565b600080546001600160a01b038381166001600160a01b0319831681178455604051919092169283917f8be0079c531659141344cd1fd0a4f28419497f9722a3daafe3b4186f6b6457e09190a35050565b33600090815260036020526040812054610e4990600a610e4e565b905090565b6000821580610daa575063ffffffff8216610e6984436110e8565b10159392505050565b80356001600160a01b0381168114610d0e57600080fd5b600060208284031215610e9b57600080fd5b610daa82610e72565b60088110610b4f57600080fd5b60008060408385031215610ec457600080fd5b610ecd83610e72565b91506020830135610edd81610ea4565b809150509250929050565b600060208284031215610efa57600080fd5b8135610daa81610ea4565b634e487b7160e01b600052602160045260246000fd5b60088110610f3957634e487b7160e01b600052602160045260246000fd5b9052565b60208101610c048284610f1b565b600060208284031215610f5d57600080fd5b815161ffff81168114610daa57600080fd5b80518015158114610d0e57600080fd5b600060208284031215610f9157600080fd5b610daa82610f6f565b600060208284031215610fac57600080fd5b8151610daa81610ea4565b6001600160a01b0384811682528316602082015260608101610fdc6040830184610f1b565b949350505050565b60408101610ff28285610f1b565b8260208301529392505050565b6040810161100d8285610f1b565b6001600160a01b039290921660209190910152919050565b805160ff81168114610d0e57600080fd5b805163ffffffff81168114610d0e57600080fd5b600060a082840312801561105d57600080fd5b5060405160a0810167ffffffffffffffff8111828210171561108f57634e487b7160e01b600052604160045260246000fd5b60405261109b83611025565b81526110a960208401610f6f565b60208201526110ba60408401610f6f565b60408201526110cb60608401611036565b60608201526110dc60808401610f6f565b60808201529392505050565b81810381811115610c0457634e487b7160e01b600052601160045260246000fdfea26469706673582212201b1ef57e5f9dcf7d1e7132d4ba12c860107f3168ff8d107a6270dbf6f162ad5164736f6c634300081b0033",
  "linkReferences": {},
  "deployedLinkReferences": {}
}