{
  "_format": "hh-sol-artifact-1",
  "contractName": "InvitationRules",
  "sourceName": "contracts/InvitationRules.sol",
  "abi": [
    {
      "inputs": [
        {
          "internalType": "address",
          "name": "communityRulesAddress",
          "type": "address"
        },
        {
          "internalType": "address",
          "name": "researcherRulesAddress",
          "type": "address"
        },
        {
          "internalType": "address",
          "name": "developerRulesAddress",
          "type": "address"
        },
        {
          "internalType": "address",
          "name": "activistRulesAddress",
          "type": "address"
        },
        {
          "internalType": "address",
          "name": "contributorRulesAddress",
          "type": "address"
        }
      ],
      "stateMutability": "nonpayable",
      "type": "constructor"
    },
    {
      "inputs": [
        {
          "internalType": "address",
          "name": "owner",
          "type": "address"
        }
      ],
      "name": "OwnableInvalidOwner",
      "type": "error"
    },
    {
      "inputs": [
        {
          "internalType": "address",
          "name": "account",
          "type": "address"
        }
      ],
      "name": "OwnableUnauthorizedAccount",
      "type": "error"
    },
    {
      "inputs": [],
      "name": "ReentrancyGuardReentrantCall",
      "type": "error"
    },
    {
      "anonymous": false,
      "inputs": [
        {
          "indexed": true,
          "internalType": "address",
          "name": "previousOwner",
          "type": "address"
        },
        {
          "indexed": true,
          "internalType": "address",
          "name": "newOwner",
          "type": "address"
        }
      ],
      "name": "OwnershipTransferred",
      "type": "event"
    },
    {
      "anonymous": false,
      "inputs": [
        {
          "indexed": true,
          "internalType": "address",
          "name": "inviter",
          "type": "address"
        },
        {
          "indexed": true,
          "internalType": "address",
          "name": "invited",
          "type": "address"
        },
        {
          "indexed": false,
          "internalType": "enum CommunityTypes.UserType",
          "name": "invitedType",
          "type": "uint8"
        },
        {
          "indexed": false,
          "internalType": "uint256",
          "name": "blockNumber",
          "type": "uint256"
        }
      ],
      "name": "UserInvited",
      "type": "event"
    },
    {
      "inputs": [],
      "name": "ACTIVIST_DELAY_BLOCKS",
      "outputs": [
        {
          "internalType": "uint16",
          "name": "",
          "type": "uint16"
        }
      ],
      "stateMutability": "view",
      "type": "function"
    },
    {
      "inputs": [
        {
          "internalType": "enum CommunityTypes.UserType",
          "name": "",
          "type": "uint8"
        }
      ],
      "name": "canBeInviteds",
      "outputs": [
        {
          "internalType": "enum CommunityTypes.UserType",
          "name": "",
          "type": "uint8"
        }
      ],
      "stateMutability": "view",
      "type": "function"
    },
    {
      "inputs": [
        {
          "internalType": "address",
          "name": "invited",
          "type": "address"
        },
        {
          "internalType": "enum CommunityTypes.UserType",
          "name": "userType",
          "type": "uint8"
        }
      ],
      "name": "invite",
      "outputs": [],
      "stateMutability": "nonpayable",
      "type": "function"
    },
    {
      "inputs": [
        {
          "internalType": "address",
          "name": "invited",
          "type": "address"
        },
        {
          "internalType": "enum CommunityTypes.UserType",
          "name": "userType",
          "type": "uint8"
        }
      ],
      "name": "inviteRegeneratorInspector",
      "outputs": [],
      "stateMutability": "nonpayable",
      "type": "function"
    },
    {
      "inputs": [
        {
          "internalType": "address",
          "name": "",
          "type": "address"
        }
      ],
      "name": "lastInviteActivist",
      "outputs": [
        {
          "internalType": "uint256",
          "name": "",
          "type": "uint256"
        }
      ],
      "stateMutability": "view",
      "type": "function"
    },
    {
      "inputs": [
        {
          "internalType": "address",
          "name": "",
          "type": "address"
        }
      ],
      "name": "lastInviteBlocks",
      "outputs": [
        {
          "internalType": "uint256",
          "name": "",
          "type": "uint256"
        }
      ],
      "stateMutability": "view",
      "type": "function"
    },
    {
      "inputs": [
        {
          "internalType": "address",
          "name": "invited",
          "type": "address"
        },
        {
          "internalType": "enum CommunityTypes.UserType",
          "name": "userType",
          "type": "uint8"
        }
      ],
      "name": "onlyOwnerInvite",
      "outputs": [],
      "stateMutability": "nonpayable",
      "type": "function"
    },
    {
      "inputs": [],
      "name": "owner",
      "outputs": [
        {
          "internalType": "address",
          "name": "",
          "type": "address"
        }
      ],
      "stateMutability": "view",
      "type": "function"
    },
    {
      "inputs": [],
      "name": "renounceOwnership",
      "outputs": [],
      "stateMutability": "nonpayable",
      "type": "function"
    },
    {
      "inputs": [
        {
          "internalType": "address",
          "name": "newOwner",
          "type": "address"
        }
      ],
      "name": "transferOwnership",
      "outputs": [],
      "stateMutability": "nonpayable",
      "type": "function"
    }
  ],
  "bytecode": "0x608060405234801561001057600080fd5b5060405161135638038061135683398101604081905261002f91610267565b338061005557604051631e4fbdf760e01b81526000600482015260240160405180910390fd5b61005e816101fb565b5060018055600580546001600160a01b03199081166001600160a01b03978816178255600680548216968816969096178655600780548216958816959095178555600880548216948816949094179093556009805490931691909516179055600460208190527fc59312466997bb42aaaf719ece141047820e6b34531e1670dc1852a453648f0f805460ff1990811685179091557f91da3fd0782e51c6b3986e9e672fd566868e71f3dbc2d6c2cd6fbb3e361af2a780548216851790557fabd6e7cb50984ff9c2f3e18a2660c3353dadf4e3291deeb275dae2cd1e44fe05805482169094179093557f1a1e6821cde7d0159c0d293177871e09677b4e42307c7db3ba94f8648a5a050f8054841690911790557f2e174c10e159ea99b867ce3205125c24a42d128804e4070ed6fcc8cc98166aa0805460039084161790557f04cde762ef08b6b6c5ded8e8c4c0b3f4e5c9ad7342c88fcc93681b4588b73f058054831690931790925560008290527fbeb3bad75134cb432e5707980e3245c52c5998a1125ee30f2f0dbf3925b1e551805490911690911790556102cc565b600080546001600160a01b038381166001600160a01b0319831681178455604051919092169283917f8be0079c531659141344cd1fd0a4f28419497f9722a3daafe3b4186f6b6457e09190a35050565b80516001600160a01b038116811461026257600080fd5b919050565b600080600080600060a0868803121561027f57600080fd5b6102888661024b565b94506102966020870161024b565b93506102a46040870161024b565b92506102b26060870161024b565b91506102c06080870161024b565b90509295509295909350565b61107b806102db6000396000f3fe608060405234801561001057600080fd5b506004361061009e5760003560e01c8063c128414b11610066578063c128414b14610121578063e20850131461013c578063e78b77771461015c578063f2fde38b1461016f578063fc06556b1461018257600080fd5b80633d87a5e0146100a357806349a26b9d146100d6578063715018a6146100eb5780638da5cb5b146100f3578063b786cf791461010e575b600080fd5b6100c36100b1366004610dc5565b60026020526000908152604090205481565b6040519081526020015b60405180910390f35b6100e96100e4366004610ded565b6101b2565b005b6100e9610674565b6000546040516001600160a01b0390911681526020016100cd565b6100e961011c366004610ded565b610688565b610129600581565b60405161ffff90911681526020016100cd565b6100c361014a366004610dc5565b60036020526000908152604090205481565b6100e961016a366004610ded565b610747565b6100e961017d366004610dc5565b610a50565b6101a5610190366004610e24565b60046020526000908152604090205460ff1681565b6040516100cd9190610e79565b6101ba610a8e565b60058054604051630845718d60e21b81523360048201526001600160a01b0390911690632115c63490602401602060405180830381865afa158015610203573d6000803e3d6000fd5b505050506040513d601f19601f820116820180604052508101906102279190610e87565b61ffff16106102725760405162461bcd60e51b8152602060048201526012602482015271546f6f206d616e792070656e616c7469657360701b60448201526064015b60405180910390fd5b60055460405163e838dfbb60e01b81523360048201526001600160a01b039091169063e838dfbb90602401602060405180830381865afa1580156102ba573d6000803e3d6000fd5b505050506040513d601f19601f820116820180604052508101906102de9190610ebb565b156103195760405162461bcd60e51b815260206004820152600b60248201526a155cd95c8819195b9a595960aa1b6044820152606401610269565b600554604051636f77926b60e01b81523360048201526000916001600160a01b031690636f77926b90602401602060405180830381865afa158015610362573d6000803e3d6000fd5b505050506040513d601f19601f820116820180604052508101906103869190610ed6565b9050600681600781111561039c5761039c610e41565b036104475760018260078111156103b5576103b5610e41565b141580156103d5575060028260078111156103d2576103d2610e41565b14155b6104475760405162461bcd60e51b815260206004820152603d60248201527f416374697669737473206d7573742075736520696e76697465526567656e657260448201527f61746f72496e73706563746f72282920666f72207468697320747970650000006064820152608401610269565b61045081610ab8565b6104ad5760405162461bcd60e51b815260206004820152602860248201527f4f6e6c79206d6f73742061637469766520757365727320616c6c6f77656420746044820152676f20696e7669746560c01b6064820152608401610269565b6104b681610c4f565b6104fd5760405162461bcd60e51b8152602060048201526018602482015277125b9d9a5d194819195b185e481b9bdd081c995858da195960421b6044820152606401610269565b80600781111561050f5761050f610e41565b6004600084600781111561052557610525610e41565b600781111561053657610536610e41565b815260208101919091526040016000205460ff16600781111561055b5761055b610e41565b146105a15760405162461bcd60e51b815260206004820152601660248201527543616e277420696e766974652074686973207479706560501b6044820152606401610269565b33600081815260026020526040908190204390556005549051637ccfdba760e01b81526001600160a01b0390911691637ccfdba7916105e7919087908790600401610ef3565b600060405180830381600087803b15801561060157600080fd5b505af1158015610615573d6000803e3d6000fd5b50505050826001600160a01b0316336001600160a01b03167f6916c193b17465fcbf2131052cc1331820567345746f2882cf45d4ab0b1ccf01844360405161065e929190610f20565b60405180910390a35061067060018055565b5050565b61067c610ced565b6106866000610d1a565b565b610690610ced565b600554604051637ccfdba760e01b81526001600160a01b0390911690637ccfdba7906106c490339086908690600401610ef3565b600060405180830381600087803b1580156106de57600080fd5b505af11580156106f2573d6000803e3d6000fd5b50505050816001600160a01b0316336001600160a01b03167f6916c193b17465fcbf2131052cc1331820567345746f2882cf45d4ab0b1ccf01834360405161073b929190610f20565b60405180910390a35050565b61074f610a8e565b60058054604051630845718d60e21b81523360048201526001600160a01b0390911690632115c63490602401602060405180830381865afa158015610798573d6000803e3d6000fd5b505050506040513d601f19601f820116820180604052508101906107bc9190610e87565b61ffff16106108025760405162461bcd60e51b8152602060048201526012602482015271546f6f206d616e792070656e616c7469657360701b6044820152606401610269565b600554604051631292f8c160e31b81526001600160a01b0390911690639497c60890610835906006903390600401610f3b565b602060405180830381865afa158015610852573d6000803e3d6000fd5b505050506040513d601f19601f820116820180604052508101906108769190610ebb565b6108b65760405162461bcd60e51b81526020600482015260116024820152704f6e6c7920746f2061637469766973747360781b6044820152606401610269565b60018160078111156108ca576108ca610e41565b14806108e7575060028160078111156108e5576108e5610e41565b145b6109335760405162461bcd60e51b815260206004820152601f60248201527f4f6e6c7920726567656e657261746f7273206f7220696e73706563746f7273006044820152606401610269565b61093b610d6a565b6109825760405162461bcd60e51b8152602060048201526018602482015277125b9d9a5d194819195b185e481b9bdd081c995858da195960421b6044820152606401610269565b33600081815260036020526040908190204390556005549051637ccfdba760e01b81526001600160a01b0390911691637ccfdba7916109c8919086908690600401610ef3565b600060405180830381600087803b1580156109e257600080fd5b505af11580156109f6573d6000803e3d6000fd5b50505050816001600160a01b0316336001600160a01b03167f6916c193b17465fcbf2131052cc1331820567345746f2882cf45d4ab0b1ccf018343604051610a3f929190610f20565b60405180910390a361067060018055565b610a58610ced565b6001600160a01b038116610a8257604051631e4fbdf760e01b815260006004820152602401610269565b610a8b81610d1a565b50565b600260015403610ab157604051633ee5aeb560e01b815260040160405180910390fd5b6002600155565b60006006826007811115610ace57610ace610e41565b03610b46576008546040516363be0e7360e11b81523360048201526001600160a01b039091169063c77c1ce6906024015b602060405180830381865afa158015610b1c573d6000803e3d6000fd5b505050506040513d601f19601f82011682018060405250810190610b409190610ebb565b92915050565b6005826007811115610b5a57610b5a610e41565b03610b8f576009546040516363be0e7360e11b81523360048201526001600160a01b039091169063c77c1ce690602401610aff565b6004826007811115610ba357610ba3610e41565b03610bd8576007546040516363be0e7360e11b81523360048201526001600160a01b039091169063c77c1ce690602401610aff565b6003826007811115610bec57610bec610e41565b03610c21576006546040516363be0e7360e11b81523360048201526001600160a01b039091169063c77c1ce690602401610aff565b6007826007811115610c3557610c35610e41565b03610c4257506001919050565b506000919050565b919050565b600554604051639547f95360e01b815260009182916001600160a01b0390911690639547f95390610c84908690600401610e79565b60a060405180830381865afa158015610ca1573d6000803e3d6000fd5b505050506040513d601f19601f82011682018060405250810190610cc59190610f86565b6060015133600090815260026020526040902054909150610ce69082610d8a565b9392505050565b6000546001600160a01b031633146106865760405163118cdaa760e01b8152336004820152602401610269565b600080546001600160a01b038381166001600160a01b0319831681178455604051919092169283917f8be0079c531659141344cd1fd0a4f28419497f9722a3daafe3b4186f6b6457e09190a35050565b33600090815260036020526040812054610d85906005610d8a565b905090565b6000821580610ce6575063ffffffff8216610da58443611024565b10159392505050565b80356001600160a01b0381168114610c4a57600080fd5b600060208284031215610dd757600080fd5b610ce682610dae565b60088110610a8b57600080fd5b60008060408385031215610e0057600080fd5b610e0983610dae565b91506020830135610e1981610de0565b809150509250929050565b600060208284031215610e3657600080fd5b8135610ce681610de0565b634e487b7160e01b600052602160045260246000fd5b60088110610e7557634e487b7160e01b600052602160045260246000fd5b9052565b60208101610b408284610e57565b600060208284031215610e9957600080fd5b815161ffff81168114610ce657600080fd5b80518015158114610c4a57600080fd5b600060208284031215610ecd57600080fd5b610ce682610eab565b600060208284031215610ee857600080fd5b8151610ce681610de0565b6001600160a01b0384811682528316602082015260608101610f186040830184610e57565b949350505050565b60408101610f2e8285610e57565b8260208301529392505050565b60408101610f498285610e57565b6001600160a01b039290921660209190910152919050565b805160ff81168114610c4a57600080fd5b805163ffffffff81168114610c4a57600080fd5b600060a0828403128015610f9957600080fd5b5060405160a0810167ffffffffffffffff81118282101715610fcb57634e487b7160e01b600052604160045260246000fd5b604052610fd783610f61565b8152610fe560208401610eab565b6020820152610ff660408401610eab565b604082015261100760608401610f72565b606082015261101860808401610eab565b60808201529392505050565b81810381811115610b4057634e487b7160e01b600052601160045260246000fdfea264697066735822122049c102dc6744e2799cc9af432e2381e0145056445637bae475d66340788b948164736f6c634300081b0033",
  "linkReferences": {},
  "deployedLinkReferences": {}
}