{
  "_format": "hh-sol-artifact-1",
  "contractName": "InvitationRules",
  "sourceName": "contracts/InvitationRules.sol",
  "abi": [
    {
      "inputs": [
        {
          "internalType": "address",
          "name": "communityRulesAddress",
          "type": "address"
        },
        {
          "internalType": "address",
          "name": "researcherRulesAddress",
          "type": "address"
        },
        {
          "internalType": "address",
          "name": "developerRulesAddress",
          "type": "address"
        },
        {
          "internalType": "address",
          "name": "activistRulesAddress",
          "type": "address"
        },
        {
          "internalType": "address",
          "name": "contributorRulesAddress",
          "type": "address"
        }
      ],
      "stateMutability": "nonpayable",
      "type": "constructor"
    },
    {
      "inputs": [
        {
          "internalType": "address",
          "name": "owner",
          "type": "address"
        }
      ],
      "name": "OwnableInvalidOwner",
      "type": "error"
    },
    {
      "inputs": [
        {
          "internalType": "address",
          "name": "account",
          "type": "address"
        }
      ],
      "name": "OwnableUnauthorizedAccount",
      "type": "error"
    },
    {
      "inputs": [],
      "name": "ReentrancyGuardReentrantCall",
      "type": "error"
    },
    {
      "anonymous": false,
      "inputs": [
        {
          "indexed": true,
          "internalType": "address",
          "name": "previousOwner",
          "type": "address"
        },
        {
          "indexed": true,
          "internalType": "address",
          "name": "newOwner",
          "type": "address"
        }
      ],
      "name": "OwnershipTransferred",
      "type": "event"
    },
    {
      "anonymous": false,
      "inputs": [
        {
          "indexed": true,
          "internalType": "address",
          "name": "inviter",
          "type": "address"
        },
        {
          "indexed": true,
          "internalType": "address",
          "name": "invited",
          "type": "address"
        },
        {
          "indexed": false,
          "internalType": "enum CommunityTypes.UserType",
          "name": "invitedType",
          "type": "uint8"
        },
        {
          "indexed": false,
          "internalType": "uint256",
          "name": "blockNumber",
          "type": "uint256"
        }
      ],
      "name": "UserInvited",
      "type": "event"
    },
    {
      "inputs": [],
      "name": "ACTIVIST_DELAY_BLOCKS",
      "outputs": [
        {
          "internalType": "uint16",
          "name": "",
          "type": "uint16"
        }
      ],
      "stateMutability": "view",
      "type": "function"
    },
    {
      "inputs": [
        {
          "internalType": "enum CommunityTypes.UserType",
          "name": "",
          "type": "uint8"
        }
      ],
      "name": "canBeInviteds",
      "outputs": [
        {
          "internalType": "enum CommunityTypes.UserType",
          "name": "",
          "type": "uint8"
        }
      ],
      "stateMutability": "view",
      "type": "function"
    },
    {
      "inputs": [
        {
          "internalType": "address",
          "name": "invited",
          "type": "address"
        },
        {
          "internalType": "enum CommunityTypes.UserType",
          "name": "userType",
          "type": "uint8"
        }
      ],
      "name": "invite",
      "outputs": [],
      "stateMutability": "nonpayable",
      "type": "function"
    },
    {
      "inputs": [
        {
          "internalType": "address",
          "name": "invited",
          "type": "address"
        },
        {
          "internalType": "enum CommunityTypes.UserType",
          "name": "userType",
          "type": "uint8"
        }
      ],
      "name": "inviteRegeneratorInspector",
      "outputs": [],
      "stateMutability": "nonpayable",
      "type": "function"
    },
    {
      "inputs": [
        {
          "internalType": "address",
          "name": "",
          "type": "address"
        }
      ],
      "name": "lastInviteActivist",
      "outputs": [
        {
          "internalType": "uint256",
          "name": "",
          "type": "uint256"
        }
      ],
      "stateMutability": "view",
      "type": "function"
    },
    {
      "inputs": [
        {
          "internalType": "address",
          "name": "",
          "type": "address"
        }
      ],
      "name": "lastInviteBlocks",
      "outputs": [
        {
          "internalType": "uint256",
          "name": "",
          "type": "uint256"
        }
      ],
      "stateMutability": "view",
      "type": "function"
    },
    {
      "inputs": [
        {
          "internalType": "address",
          "name": "invited",
          "type": "address"
        },
        {
          "internalType": "enum CommunityTypes.UserType",
          "name": "userType",
          "type": "uint8"
        }
      ],
      "name": "onlyOwnerInvite",
      "outputs": [],
      "stateMutability": "nonpayable",
      "type": "function"
    },
    {
      "inputs": [],
      "name": "owner",
      "outputs": [
        {
          "internalType": "address",
          "name": "",
          "type": "address"
        }
      ],
      "stateMutability": "view",
      "type": "function"
    },
    {
      "inputs": [],
      "name": "renounceOwnership",
      "outputs": [],
      "stateMutability": "nonpayable",
      "type": "function"
    },
    {
      "inputs": [
        {
          "internalType": "address",
          "name": "newOwner",
          "type": "address"
        }
      ],
      "name": "transferOwnership",
      "outputs": [],
      "stateMutability": "nonpayable",
      "type": "function"
    }
  ],
  "bytecode": "0x608060405234801561001057600080fd5b5060405161135838038061135883398101604081905261002f91610267565b338061005557604051631e4fbdf760e01b81526000600482015260240160405180910390fd5b61005e816101fb565b5060018055600580546001600160a01b03199081166001600160a01b03978816178255600680548216968816969096178655600780548216958816959095178555600880548216948816949094179093556009805490931691909516179055600460208190527fc59312466997bb42aaaf719ece141047820e6b34531e1670dc1852a453648f0f805460ff1990811685179091557f91da3fd0782e51c6b3986e9e672fd566868e71f3dbc2d6c2cd6fbb3e361af2a780548216851790557fabd6e7cb50984ff9c2f3e18a2660c3353dadf4e3291deeb275dae2cd1e44fe05805482169094179093557f1a1e6821cde7d0159c0d293177871e09677b4e42307c7db3ba94f8648a5a050f8054841690911790557f2e174c10e159ea99b867ce3205125c24a42d128804e4070ed6fcc8cc98166aa0805460039084161790557f04cde762ef08b6b6c5ded8e8c4c0b3f4e5c9ad7342c88fcc93681b4588b73f058054831690931790925560008290527fbeb3bad75134cb432e5707980e3245c52c5998a1125ee30f2f0dbf3925b1e551805490911690911790556102cc565b600080546001600160a01b038381166001600160a01b0319831681178455604051919092169283917f8be0079c531659141344cd1fd0a4f28419497f9722a3daafe3b4186f6b6457e09190a35050565b80516001600160a01b038116811461026257600080fd5b919050565b600080600080600060a0868803121561027f57600080fd5b6102888661024b565b94506102966020870161024b565b93506102a46040870161024b565b92506102b26060870161024b565b91506102c06080870161024b565b90509295509295909350565b61107d806102db6000396000f3fe608060405234801561001057600080fd5b506004361061009e5760003560e01c8063c128414b11610066578063c128414b14610121578063e20850131461013d578063e78b77771461015d578063f2fde38b14610170578063fc06556b1461018357600080fd5b80633d87a5e0146100a357806349a26b9d146100d6578063715018a6146100eb5780638da5cb5b146100f3578063b786cf791461010e575b600080fd5b6100c36100b1366004610dc7565b60026020526000908152604090205481565b6040519081526020015b60405180910390f35b6100e96100e4366004610def565b6101b3565b005b6100e9610675565b6000546040516001600160a01b0390911681526020016100cd565b6100e961011c366004610def565b610689565b61012a6101f481565b60405161ffff90911681526020016100cd565b6100c361014b366004610dc7565b60036020526000908152604090205481565b6100e961016b366004610def565b610748565b6100e961017e366004610dc7565b610a51565b6101a6610191366004610e26565b60046020526000908152604090205460ff1681565b6040516100cd9190610e7b565b6101bb610a8f565b60058054604051630845718d60e21b81523360048201526001600160a01b0390911690632115c63490602401602060405180830381865afa158015610204573d6000803e3d6000fd5b505050506040513d601f19601f820116820180604052508101906102289190610e89565b61ffff16106102735760405162461bcd60e51b8152602060048201526012602482015271546f6f206d616e792070656e616c7469657360701b60448201526064015b60405180910390fd5b60055460405163e838dfbb60e01b81523360048201526001600160a01b039091169063e838dfbb90602401602060405180830381865afa1580156102bb573d6000803e3d6000fd5b505050506040513d601f19601f820116820180604052508101906102df9190610ebd565b1561031a5760405162461bcd60e51b815260206004820152600b60248201526a155cd95c8819195b9a595960aa1b604482015260640161026a565b600554604051636f77926b60e01b81523360048201526000916001600160a01b031690636f77926b90602401602060405180830381865afa158015610363573d6000803e3d6000fd5b505050506040513d601f19601f820116820180604052508101906103879190610ed8565b9050600681600781111561039d5761039d610e43565b036104485760018260078111156103b6576103b6610e43565b141580156103d6575060028260078111156103d3576103d3610e43565b14155b6104485760405162461bcd60e51b815260206004820152603d60248201527f416374697669737473206d7573742075736520696e76697465526567656e657260448201527f61746f72496e73706563746f72282920666f7220746869732074797065000000606482015260840161026a565b61045181610ab9565b6104ae5760405162461bcd60e51b815260206004820152602860248201527f4f6e6c79206d6f73742061637469766520757365727320616c6c6f77656420746044820152676f20696e7669746560c01b606482015260840161026a565b6104b781610c50565b6104fe5760405162461bcd60e51b8152602060048201526018602482015277125b9d9a5d194819195b185e481b9bdd081c995858da195960421b604482015260640161026a565b80600781111561051057610510610e43565b6004600084600781111561052657610526610e43565b600781111561053757610537610e43565b815260208101919091526040016000205460ff16600781111561055c5761055c610e43565b146105a25760405162461bcd60e51b815260206004820152601660248201527543616e277420696e766974652074686973207479706560501b604482015260640161026a565b33600081815260026020526040908190204390556005549051637ccfdba760e01b81526001600160a01b0390911691637ccfdba7916105e8919087908790600401610ef5565b600060405180830381600087803b15801561060257600080fd5b505af1158015610616573d6000803e3d6000fd5b50505050826001600160a01b0316336001600160a01b03167f6916c193b17465fcbf2131052cc1331820567345746f2882cf45d4ab0b1ccf01844360405161065f929190610f22565b60405180910390a35061067160018055565b5050565b61067d610cee565b6106876000610d1b565b565b610691610cee565b600554604051637ccfdba760e01b81526001600160a01b0390911690637ccfdba7906106c590339086908690600401610ef5565b600060405180830381600087803b1580156106df57600080fd5b505af11580156106f3573d6000803e3d6000fd5b50505050816001600160a01b0316336001600160a01b03167f6916c193b17465fcbf2131052cc1331820567345746f2882cf45d4ab0b1ccf01834360405161073c929190610f22565b60405180910390a35050565b610750610a8f565b600554604051630845718d60e21b8152336004820152600a916001600160a01b031690632115c63490602401602060405180830381865afa158015610799573d6000803e3d6000fd5b505050506040513d601f19601f820116820180604052508101906107bd9190610e89565b61ffff16106108035760405162461bcd60e51b8152602060048201526012602482015271546f6f206d616e792070656e616c7469657360701b604482015260640161026a565b600554604051631292f8c160e31b81526001600160a01b0390911690639497c60890610836906006903390600401610f3d565b602060405180830381865afa158015610853573d6000803e3d6000fd5b505050506040513d601f19601f820116820180604052508101906108779190610ebd565b6108b75760405162461bcd60e51b81526020600482015260116024820152704f6e6c7920746f2061637469766973747360781b604482015260640161026a565b60018160078111156108cb576108cb610e43565b14806108e8575060028160078111156108e6576108e6610e43565b145b6109345760405162461bcd60e51b815260206004820152601f60248201527f4f6e6c7920726567656e657261746f7273206f7220696e73706563746f727300604482015260640161026a565b61093c610d6b565b6109835760405162461bcd60e51b8152602060048201526018602482015277125b9d9a5d194819195b185e481b9bdd081c995858da195960421b604482015260640161026a565b33600081815260036020526040908190204390556005549051637ccfdba760e01b81526001600160a01b0390911691637ccfdba7916109c9919086908690600401610ef5565b600060405180830381600087803b1580156109e357600080fd5b505af11580156109f7573d6000803e3d6000fd5b50505050816001600160a01b0316336001600160a01b03167f6916c193b17465fcbf2131052cc1331820567345746f2882cf45d4ab0b1ccf018343604051610a40929190610f22565b60405180910390a361067160018055565b610a59610cee565b6001600160a01b038116610a8357604051631e4fbdf760e01b81526000600482015260240161026a565b610a8c81610d1b565b50565b600260015403610ab257604051633ee5aeb560e01b815260040160405180910390fd5b6002600155565b60006006826007811115610acf57610acf610e43565b03610b47576008546040516363be0e7360e11b81523360048201526001600160a01b039091169063c77c1ce6906024015b602060405180830381865afa158015610b1d573d6000803e3d6000fd5b505050506040513d601f19601f82011682018060405250810190610b419190610ebd565b92915050565b6005826007811115610b5b57610b5b610e43565b03610b90576009546040516363be0e7360e11b81523360048201526001600160a01b039091169063c77c1ce690602401610b00565b6004826007811115610ba457610ba4610e43565b03610bd9576007546040516363be0e7360e11b81523360048201526001600160a01b039091169063c77c1ce690602401610b00565b6003826007811115610bed57610bed610e43565b03610c22576006546040516363be0e7360e11b81523360048201526001600160a01b039091169063c77c1ce690602401610b00565b6007826007811115610c3657610c36610e43565b03610c4357506001919050565b506000919050565b919050565b600554604051639547f95360e01b815260009182916001600160a01b0390911690639547f95390610c85908690600401610e7b565b60a060405180830381865afa158015610ca2573d6000803e3d6000fd5b505050506040513d601f19601f82011682018060405250810190610cc69190610f88565b6060015133600090815260026020526040902054909150610ce79082610d8c565b9392505050565b6000546001600160a01b031633146106875760405163118cdaa760e01b815233600482015260240161026a565b600080546001600160a01b038381166001600160a01b0319831681178455604051919092169283917f8be0079c531659141344cd1fd0a4f28419497f9722a3daafe3b4186f6b6457e09190a35050565b33600090815260036020526040812054610d87906101f4610d8c565b905090565b6000821580610ce7575063ffffffff8216610da78443611026565b10159392505050565b80356001600160a01b0381168114610c4b57600080fd5b600060208284031215610dd957600080fd5b610ce782610db0565b60088110610a8c57600080fd5b60008060408385031215610e0257600080fd5b610e0b83610db0565b91506020830135610e1b81610de2565b809150509250929050565b600060208284031215610e3857600080fd5b8135610ce781610de2565b634e487b7160e01b600052602160045260246000fd5b60088110610e7757634e487b7160e01b600052602160045260246000fd5b9052565b60208101610b418284610e59565b600060208284031215610e9b57600080fd5b815161ffff81168114610ce757600080fd5b80518015158114610c4b57600080fd5b600060208284031215610ecf57600080fd5b610ce782610ead565b600060208284031215610eea57600080fd5b8151610ce781610de2565b6001600160a01b0384811682528316602082015260608101610f1a6040830184610e59565b949350505050565b60408101610f308285610e59565b8260208301529392505050565b60408101610f4b8285610e59565b6001600160a01b039290921660209190910152919050565b805160ff81168114610c4b57600080fd5b805163ffffffff81168114610c4b57600080fd5b600060a0828403128015610f9b57600080fd5b5060405160a0810167ffffffffffffffff81118282101715610fcd57634e487b7160e01b600052604160045260246000fd5b604052610fd983610f63565b8152610fe760208401610ead565b6020820152610ff860408401610ead565b604082015261100960608401610f74565b606082015261101a60808401610ead565b60808201529392505050565b81810381811115610b4157634e487b7160e01b600052601160045260246000fdfea2646970667358221220c43bb7add427213d055394ffd53dd51052496e19e8ad395529afabbd7025846764736f6c634300081b0033",
  "linkReferences": {},
  "deployedLinkReferences": {}
}