{
  "_format": "hh-sol-artifact-1",
  "contractName": "InvitationRules",
  "sourceName": "contracts/InvitationRules.sol",
  "abi": [
    {
      "inputs": [
        {
          "internalType": "address",
          "name": "communityRulesAddress",
          "type": "address"
        },
        {
          "internalType": "address",
          "name": "researcherRulesAddress",
          "type": "address"
        },
        {
          "internalType": "address",
          "name": "developerRulesAddress",
          "type": "address"
        },
        {
          "internalType": "address",
          "name": "activistRulesAddress",
          "type": "address"
        },
        {
          "internalType": "address",
          "name": "contributorRulesAddress",
          "type": "address"
        },
        {
          "internalType": "address",
          "name": "validatorRulesAddress",
          "type": "address"
        }
      ],
      "stateMutability": "nonpayable",
      "type": "constructor"
    },
    {
      "anonymous": false,
      "inputs": [
        {
          "indexed": true,
          "internalType": "address",
          "name": "previousOwner",
          "type": "address"
        },
        {
          "indexed": true,
          "internalType": "address",
          "name": "newOwner",
          "type": "address"
        }
      ],
      "name": "OwnershipTransferred",
      "type": "event"
    },
    {
      "inputs": [
        {
          "internalType": "enum UserType",
          "name": "",
          "type": "uint8"
        }
      ],
      "name": "canBeInviteds",
      "outputs": [
        {
          "internalType": "enum UserType",
          "name": "",
          "type": "uint8"
        }
      ],
      "stateMutability": "view",
      "type": "function"
    },
    {
      "inputs": [
        {
          "internalType": "address",
          "name": "invited",
          "type": "address"
        },
        {
          "internalType": "enum UserType",
          "name": "userType",
          "type": "uint8"
        }
      ],
      "name": "invite",
      "outputs": [],
      "stateMutability": "nonpayable",
      "type": "function"
    },
    {
      "inputs": [
        {
          "internalType": "address",
          "name": "invited",
          "type": "address"
        },
        {
          "internalType": "enum UserType",
          "name": "userType",
          "type": "uint8"
        }
      ],
      "name": "inviteRegeneratorInspector",
      "outputs": [],
      "stateMutability": "nonpayable",
      "type": "function"
    },
    {
      "inputs": [
        {
          "internalType": "address",
          "name": "",
          "type": "address"
        }
      ],
      "name": "lastInviteBlocks",
      "outputs": [
        {
          "internalType": "uint256",
          "name": "",
          "type": "uint256"
        }
      ],
      "stateMutability": "view",
      "type": "function"
    },
    {
      "inputs": [
        {
          "internalType": "address",
          "name": "invited",
          "type": "address"
        },
        {
          "internalType": "enum UserType",
          "name": "userType",
          "type": "uint8"
        }
      ],
      "name": "onlyOwnerInvite",
      "outputs": [],
      "stateMutability": "nonpayable",
      "type": "function"
    },
    {
      "inputs": [],
      "name": "owner",
      "outputs": [
        {
          "internalType": "address",
          "name": "",
          "type": "address"
        }
      ],
      "stateMutability": "view",
      "type": "function"
    },
    {
      "inputs": [],
      "name": "renounceOwnership",
      "outputs": [],
      "stateMutability": "nonpayable",
      "type": "function"
    },
    {
      "inputs": [
        {
          "internalType": "address",
          "name": "newOwner",
          "type": "address"
        }
      ],
      "name": "transferOwnership",
      "outputs": [],
      "stateMutability": "nonpayable",
      "type": "function"
    }
  ],
  "bytecode": "0x608060405234801561001057600080fd5b50604051611e5b380380611e5b83398181016040528101906100329190610616565b61004e6100436104e760201b60201c565b6104ef60201b60201c565b85600360006101000a81548173ffffffffffffffffffffffffffffffffffffffff021916908373ffffffffffffffffffffffffffffffffffffffff16021790555084600460006101000a81548173ffffffffffffffffffffffffffffffffffffffff021916908373ffffffffffffffffffffffffffffffffffffffff16021790555083600560006101000a81548173ffffffffffffffffffffffffffffffffffffffff021916908373ffffffffffffffffffffffffffffffffffffffff16021790555082600660006101000a81548173ffffffffffffffffffffffffffffffffffffffff021916908373ffffffffffffffffffffffffffffffffffffffff16021790555081600760006101000a81548173ffffffffffffffffffffffffffffffffffffffff021916908373ffffffffffffffffffffffffffffffffffffffff16021790555080600860006101000a81548173ffffffffffffffffffffffffffffffffffffffff021916908373ffffffffffffffffffffffffffffffffffffffff160217905550600660026000600660098111156101ee576101ed6106a3565b5b6009811115610200576101ff6106a3565b5b815260200190815260200160002060006101000a81548160ff021916908360098111156102305761022f6106a3565b5b02179055506006600260006002600981111561024f5761024e6106a3565b5b6009811115610261576102606106a3565b5b815260200190815260200160002060006101000a81548160ff02191690836009811115610291576102906106a3565b5b0217905550600660026000600160098111156102b0576102af6106a3565b5b60098111156102c2576102c16106a3565b5b815260200190815260200160002060006101000a81548160ff021916908360098111156102f2576102f16106a3565b5b021790555060046002600060046009811115610311576103106106a3565b5b6009811115610323576103226106a3565b5b815260200190815260200160002060006101000a81548160ff02191690836009811115610353576103526106a3565b5b021790555060036002600060036009811115610372576103716106a3565b5b6009811115610384576103836106a3565b5b815260200190815260200160002060006101000a81548160ff021916908360098111156103b4576103b36106a3565b5b0217905550600760026000600760098111156103d3576103d26106a3565b5b60098111156103e5576103e46106a3565b5b815260200190815260200160002060006101000a81548160ff02191690836009811115610415576104146106a3565b5b021790555060056002600060056009811115610434576104336106a3565b5b6009811115610446576104456106a3565b5b815260200190815260200160002060006101000a81548160ff02191690836009811115610476576104756106a3565b5b021790555060086002600060086009811115610495576104946106a3565b5b60098111156104a7576104a66106a3565b5b815260200190815260200160002060006101000a81548160ff021916908360098111156104d7576104d66106a3565b5b02179055505050505050506106d2565b600033905090565b60008060009054906101000a900473ffffffffffffffffffffffffffffffffffffffff169050816000806101000a81548173ffffffffffffffffffffffffffffffffffffffff021916908373ffffffffffffffffffffffffffffffffffffffff1602179055508173ffffffffffffffffffffffffffffffffffffffff168173ffffffffffffffffffffffffffffffffffffffff167f8be0079c531659141344cd1fd0a4f28419497f9722a3daafe3b4186f6b6457e060405160405180910390a35050565b600080fd5b600073ffffffffffffffffffffffffffffffffffffffff82169050919050565b60006105e3826105b8565b9050919050565b6105f3816105d8565b81146105fe57600080fd5b50565b600081519050610610816105ea565b92915050565b60008060008060008060c08789031215610633576106326105b3565b5b600061064189828a01610601565b965050602061065289828a01610601565b955050604061066389828a01610601565b945050606061067489828a01610601565b935050608061068589828a01610601565b92505060a061069689828a01610601565b9150509295509295509295565b7f4e487b7100000000000000000000000000000000000000000000000000000000600052602160045260246000fd5b61177a806106e16000396000f3fe608060405234801561001057600080fd5b50600436106100885760003560e01c8063b786cf791161005b578063b786cf7914610101578063e78b77771461011d578063f2fde38b14610139578063fc06556b1461015557610088565b80633d87a5e01461008d57806349a26b9d146100bd578063715018a6146100d95780638da5cb5b146100e3575b600080fd5b6100a760048036038101906100a29190610f78565b610185565b6040516100b49190610fbe565b60405180910390f35b6100d760048036038101906100d29190610ffe565b61019d565b005b6100e1610451565b005b6100eb610465565b6040516100f8919061104d565b60405180910390f35b61011b60048036038101906101169190610ffe565b61048e565b005b61013760048036038101906101329190610ffe565b61052b565b005b610153600480360381019061014e9190610f78565b6107c1565b005b61016f600480360381019061016a9190611068565b610844565b60405161017c919061110c565b60405180910390f35b60016020528060005260406000206000915090505481565b6000600360009054906101000a900473ffffffffffffffffffffffffffffffffffffffff1673ffffffffffffffffffffffffffffffffffffffff16636f77926b336040518263ffffffff1660e01b81526004016101fa919061104d565b602060405180830381865afa158015610217573d6000803e3d6000fd5b505050506040513d601f19601f8201168201806040525081019061023b919061113c565b905061024681610864565b610285576040517f08c379a000000000000000000000000000000000000000000000000000000000815260040161027c906111ec565b60405180910390fd5b61028e81610c7b565b6102cd576040517f08c379a00000000000000000000000000000000000000000000000000000000081526004016102c490611258565b60405180910390fd5b8060098111156102e0576102df611095565b5b600260008460098111156102f7576102f6611095565b5b600981111561030957610308611095565b5b815260200190815260200160002060009054906101000a900460ff16600981111561033757610336611095565b5b14610377576040517f08c379a000000000000000000000000000000000000000000000000000000000815260040161036e906112c4565b60405180910390fd5b43600160003373ffffffffffffffffffffffffffffffffffffffff1673ffffffffffffffffffffffffffffffffffffffff16815260200190815260200160002081905550600360009054906101000a900473ffffffffffffffffffffffffffffffffffffffff1673ffffffffffffffffffffffffffffffffffffffff16637ccfdba73385856040518463ffffffff1660e01b815260040161041a939291906112e4565b600060405180830381600087803b15801561043457600080fd5b505af1158015610448573d6000803e3d6000fd5b50505050505050565b610459610dc1565b6104636000610e3f565b565b60008060009054906101000a900473ffffffffffffffffffffffffffffffffffffffff16905090565b610496610dc1565b600360009054906101000a900473ffffffffffffffffffffffffffffffffffffffff1673ffffffffffffffffffffffffffffffffffffffff16637ccfdba73384846040518463ffffffff1660e01b81526004016104f5939291906112e4565b600060405180830381600087803b15801561050f57600080fd5b505af1158015610523573d6000803e3d6000fd5b505050505050565b600360009054906101000a900473ffffffffffffffffffffffffffffffffffffffff1673ffffffffffffffffffffffffffffffffffffffff16639497c6086006336040518363ffffffff1660e01b815260040161058992919061131b565b602060405180830381865afa1580156105a6573d6000803e3d6000fd5b505050506040513d601f19601f820116820180604052508101906105ca919061137c565b610609576040517f08c379a0000000000000000000000000000000000000000000000000000000008152600401610600906113f5565b60405180910390fd5b6001600981111561061d5761061c611095565b5b8160098111156106305761062f611095565b5b148061066057506002600981111561064b5761064a611095565b5b81600981111561065e5761065d611095565b5b145b61069f576040517f08c379a000000000000000000000000000000000000000000000000000000000815260040161069690611461565b60405180910390fd5b6106a96006610c7b565b6106e8576040517f08c379a00000000000000000000000000000000000000000000000000000000081526004016106df90611258565b60405180910390fd5b43600160003373ffffffffffffffffffffffffffffffffffffffff1673ffffffffffffffffffffffffffffffffffffffff16815260200190815260200160002081905550600360009054906101000a900473ffffffffffffffffffffffffffffffffffffffff1673ffffffffffffffffffffffffffffffffffffffff16637ccfdba73384846040518463ffffffff1660e01b815260040161078b939291906112e4565b600060405180830381600087803b1580156107a557600080fd5b505af11580156107b9573d6000803e3d6000fd5b505050505050565b6107c9610dc1565b600073ffffffffffffffffffffffffffffffffffffffff168173ffffffffffffffffffffffffffffffffffffffff1603610838576040517f08c379a000000000000000000000000000000000000000000000000000000000815260040161082f906114f3565b60405180910390fd5b61084181610e3f565b50565b60026020528060005260406000206000915054906101000a900460ff1681565b60006006600981111561087a57610879611095565b5b82600981111561088d5761088c611095565b5b0361093557600660009054906101000a900473ffffffffffffffffffffffffffffffffffffffff1673ffffffffffffffffffffffffffffffffffffffff1663c77c1ce6336040518263ffffffff1660e01b81526004016108ed919061104d565b602060405180830381865afa15801561090a573d6000803e3d6000fd5b505050506040513d601f19601f8201168201806040525081019061092e919061137c565b9050610c76565b6005600981111561094957610948611095565b5b82600981111561095c5761095b611095565b5b03610a0457600760009054906101000a900473ffffffffffffffffffffffffffffffffffffffff1673ffffffffffffffffffffffffffffffffffffffff1663c77c1ce6336040518263ffffffff1660e01b81526004016109bc919061104d565b602060405180830381865afa1580156109d9573d6000803e3d6000fd5b505050506040513d601f19601f820116820180604052508101906109fd919061137c565b9050610c76565b60046009811115610a1857610a17611095565b5b826009811115610a2b57610a2a611095565b5b03610ad357600560009054906101000a900473ffffffffffffffffffffffffffffffffffffffff1673ffffffffffffffffffffffffffffffffffffffff1663c77c1ce6336040518263ffffffff1660e01b8152600401610a8b919061104d565b602060405180830381865afa158015610aa8573d6000803e3d6000fd5b505050506040513d601f19601f82011682018060405250810190610acc919061137c565b9050610c76565b60036009811115610ae757610ae6611095565b5b826009811115610afa57610af9611095565b5b03610ba257600460009054906101000a900473ffffffffffffffffffffffffffffffffffffffff1673ffffffffffffffffffffffffffffffffffffffff1663c77c1ce6336040518263ffffffff1660e01b8152600401610b5a919061104d565b602060405180830381865afa158015610b77573d6000803e3d6000fd5b505050506040513d601f19601f82011682018060405250810190610b9b919061137c565b9050610c76565b60086009811115610bb657610bb5611095565b5b826009811115610bc957610bc8611095565b5b03610c7157600860009054906101000a900473ffffffffffffffffffffffffffffffffffffffff1673ffffffffffffffffffffffffffffffffffffffff1663c77c1ce6336040518263ffffffff1660e01b8152600401610c29919061104d565b602060405180830381865afa158015610c46573d6000803e3d6000fd5b505050506040513d601f19601f82011682018060405250810190610c6a919061137c565b9050610c76565b600190505b919050565b600080600360009054906101000a900473ffffffffffffffffffffffffffffffffffffffff1673ffffffffffffffffffffffffffffffffffffffff16639547f953846040518263ffffffff1660e01b8152600401610cd9919061110c565b608060405180830381865afa158015610cf6573d6000803e3d6000fd5b505050506040513d601f19601f82011682018060405250810190610d1a9190611648565b6060015190506000600160003373ffffffffffffffffffffffffffffffffffffffff1673ffffffffffffffffffffffffffffffffffffffff16815260200190815260200160002054111580610db9575080600160003373ffffffffffffffffffffffffffffffffffffffff1673ffffffffffffffffffffffffffffffffffffffff1681526020019081526020016000205443610db691906116a4565b10155b915050919050565b610dc9610f03565b73ffffffffffffffffffffffffffffffffffffffff16610de7610465565b73ffffffffffffffffffffffffffffffffffffffff1614610e3d576040517f08c379a0000000000000000000000000000000000000000000000000000000008152600401610e3490611724565b60405180910390fd5b565b60008060009054906101000a900473ffffffffffffffffffffffffffffffffffffffff169050816000806101000a81548173ffffffffffffffffffffffffffffffffffffffff021916908373ffffffffffffffffffffffffffffffffffffffff1602179055508173ffffffffffffffffffffffffffffffffffffffff168173ffffffffffffffffffffffffffffffffffffffff167f8be0079c531659141344cd1fd0a4f28419497f9722a3daafe3b4186f6b6457e060405160405180910390a35050565b600033905090565b6000604051905090565b600080fd5b600073ffffffffffffffffffffffffffffffffffffffff82169050919050565b6000610f4582610f1a565b9050919050565b610f5581610f3a565b8114610f6057600080fd5b50565b600081359050610f7281610f4c565b92915050565b600060208284031215610f8e57610f8d610f15565b5b6000610f9c84828501610f63565b91505092915050565b6000819050919050565b610fb881610fa5565b82525050565b6000602082019050610fd36000830184610faf565b92915050565b600a8110610fe657600080fd5b50565b600081359050610ff881610fd9565b92915050565b6000806040838503121561101557611014610f15565b5b600061102385828601610f63565b925050602061103485828601610fe9565b9150509250929050565b61104781610f3a565b82525050565b6000602082019050611062600083018461103e565b92915050565b60006020828403121561107e5761107d610f15565b5b600061108c84828501610fe9565b91505092915050565b7f4e487b7100000000000000000000000000000000000000000000000000000000600052602160045260246000fd5b600a81106110d5576110d4611095565b5b50565b60008190506110e6826110c4565b919050565b60006110f6826110d8565b9050919050565b611106816110eb565b82525050565b600060208201905061112160008301846110fd565b92915050565b60008151905061113681610fd9565b92915050565b60006020828403121561115257611151610f15565b5b600061116084828501611127565b91505092915050565b600082825260208201905092915050565b7f4f6e6c79206d6f73742061637469766520757365727320616c6c6f776564207460008201527f6f20696e76697465000000000000000000000000000000000000000000000000602082015250565b60006111d6602883611169565b91506111e18261117a565b604082019050919050565b60006020820190508181036000830152611205816111c9565b9050919050565b7f496e766974652064656c6179206e6f7420726561636865640000000000000000600082015250565b6000611242601883611169565b915061124d8261120c565b602082019050919050565b6000602082019050818103600083015261127181611235565b9050919050565b7f43616e277420696e766974652074686973207479706500000000000000000000600082015250565b60006112ae601683611169565b91506112b982611278565b602082019050919050565b600060208201905081810360008301526112dd816112a1565b9050919050565b60006060820190506112f9600083018661103e565b611306602083018561103e565b61131360408301846110fd565b949350505050565b600060408201905061133060008301856110fd565b61133d602083018461103e565b9392505050565b60008115159050919050565b61135981611344565b811461136457600080fd5b50565b60008151905061137681611350565b92915050565b60006020828403121561139257611391610f15565b5b60006113a084828501611367565b91505092915050565b7f4f6e6c7920746f20616374697669737473000000000000000000000000000000600082015250565b60006113df601183611169565b91506113ea826113a9565b602082019050919050565b6000602082019050818103600083015261140e816113d2565b9050919050565b7f4f6e6c7920726567656e657261746f7273206f7220696e73706563746f727300600082015250565b600061144b601f83611169565b915061145682611415565b602082019050919050565b6000602082019050818103600083015261147a8161143e565b9050919050565b7f4f776e61626c653a206e6577206f776e657220697320746865207a65726f206160008201527f6464726573730000000000000000000000000000000000000000000000000000602082015250565b60006114dd602683611169565b91506114e882611481565b604082019050919050565b6000602082019050818103600083015261150c816114d0565b9050919050565b600080fd5b6000601f19601f8301169050919050565b7f4e487b7100000000000000000000000000000000000000000000000000000000600052604160045260246000fd5b61156182611518565b810181811067ffffffffffffffff821117156115805761157f611529565b5b80604052505050565b6000611593610f0b565b905061159f8282611558565b919050565b6115ad81610fa5565b81146115b857600080fd5b50565b6000815190506115ca816115a4565b92915050565b6000608082840312156115e6576115e5611513565b5b6115f06080611589565b90506000611600848285016115bb565b600083015250602061161484828501611367565b602083015250604061162884828501611367565b604083015250606061163c848285016115bb565b60608301525092915050565b60006080828403121561165e5761165d610f15565b5b600061166c848285016115d0565b91505092915050565b7f4e487b7100000000000000000000000000000000000000000000000000000000600052601160045260246000fd5b60006116af82610fa5565b91506116ba83610fa5565b92508282039050818111156116d2576116d1611675565b5b92915050565b7f4f776e61626c653a2063616c6c6572206973206e6f7420746865206f776e6572600082015250565b600061170e602083611169565b9150611719826116d8565b602082019050919050565b6000602082019050818103600083015261173d81611701565b905091905056fea2646970667358221220f73af0e1198eca1c605e790f88ebfcc5665862c5ddae2632ce66467783c8c27d64736f6c634300081b0033",
  "linkReferences": {},
  "deployedLinkReferences": {}
}