{
  "_format": "hh-sol-artifact-1",
  "contractName": "RegenerationIndexRules",
  "sourceName": "contracts/RegenerationIndexRules.sol",
  "abi": [
    {
      "inputs": [],
      "stateMutability": "nonpayable",
      "type": "constructor"
    },
    {
      "anonymous": false,
      "inputs": [
        {
          "indexed": true,
          "internalType": "address",
          "name": "previousOwner",
          "type": "address"
        },
        {
          "indexed": true,
          "internalType": "address",
          "name": "newOwner",
          "type": "address"
        }
      ],
      "name": "OwnershipTransferred",
      "type": "event"
    },
    {
      "inputs": [],
      "name": "CATEGORY_COUNTS",
      "outputs": [
        {
          "internalType": "uint8",
          "name": "",
          "type": "uint8"
        }
      ],
      "stateMutability": "view",
      "type": "function"
    },
    {
      "inputs": [
        {
          "internalType": "address",
          "name": "",
          "type": "address"
        }
      ],
      "name": "allowedCallers",
      "outputs": [
        {
          "internalType": "bool",
          "name": "",
          "type": "bool"
        }
      ],
      "stateMutability": "view",
      "type": "function"
    },
    {
      "inputs": [
        {
          "internalType": "uint32",
          "name": "treesResult",
          "type": "uint32"
        },
        {
          "internalType": "uint32",
          "name": "biodiversityResult",
          "type": "uint32"
        }
      ],
      "name": "calculateScore",
      "outputs": [
        {
          "internalType": "uint32",
          "name": "",
          "type": "uint32"
        }
      ],
      "stateMutability": "view",
      "type": "function"
    },
    {
      "inputs": [
        {
          "internalType": "uint8",
          "name": "",
          "type": "uint8"
        }
      ],
      "name": "categories",
      "outputs": [
        {
          "internalType": "uint64",
          "name": "id",
          "type": "uint64"
        },
        {
          "internalType": "string",
          "name": "name",
          "type": "string"
        },
        {
          "internalType": "string",
          "name": "description",
          "type": "string"
        }
      ],
      "stateMutability": "view",
      "type": "function"
    },
    {
      "inputs": [
        {
          "internalType": "uint8",
          "name": "",
          "type": "uint8"
        },
        {
          "internalType": "uint256",
          "name": "",
          "type": "uint256"
        }
      ],
      "name": "categoryRegenerationIndexDescriptions",
      "outputs": [
        {
          "internalType": "uint8",
          "name": "regenerationIndexId",
          "type": "uint8"
        },
        {
          "internalType": "string",
          "name": "description",
          "type": "string"
        }
      ],
      "stateMutability": "view",
      "type": "function"
    },
    {
      "inputs": [
        {
          "internalType": "uint8",
          "name": "categoryId",
          "type": "uint8"
        }
      ],
      "name": "getCategoryRegenerationIndexDescription",
      "outputs": [
        {
          "components": [
            {
              "internalType": "uint8",
              "name": "regenerationIndexId",
              "type": "uint8"
            },
            {
              "internalType": "string",
              "name": "description",
              "type": "string"
            }
          ],
          "internalType": "struct RegenerationIndexDescription[]",
          "name": "",
          "type": "tuple[]"
        }
      ],
      "stateMutability": "view",
      "type": "function"
    },
    {
      "inputs": [
        {
          "internalType": "address",
          "name": "caller",
          "type": "address"
        }
      ],
      "name": "isAllowedCaller",
      "outputs": [
        {
          "internalType": "bool",
          "name": "",
          "type": "bool"
        }
      ],
      "stateMutability": "view",
      "type": "function"
    },
    {
      "inputs": [
        {
          "internalType": "address",
          "name": "allowed",
          "type": "address"
        }
      ],
      "name": "newAllowedCaller",
      "outputs": [],
      "stateMutability": "nonpayable",
      "type": "function"
    },
    {
      "inputs": [],
      "name": "owner",
      "outputs": [
        {
          "internalType": "address",
          "name": "",
          "type": "address"
        }
      ],
      "stateMutability": "view",
      "type": "function"
    },
    {
      "inputs": [
        {
          "internalType": "uint32",
          "name": "",
          "type": "uint32"
        }
      ],
      "name": "regenerationIndex",
      "outputs": [
        {
          "internalType": "string",
          "name": "name",
          "type": "string"
        },
        {
          "internalType": "uint32",
          "name": "value",
          "type": "uint32"
        }
      ],
      "stateMutability": "view",
      "type": "function"
    },
    {
      "inputs": [],
      "name": "renounceOwnership",
      "outputs": [],
      "stateMutability": "nonpayable",
      "type": "function"
    },
    {
      "inputs": [
        {
          "internalType": "address",
          "name": "newOwner",
          "type": "address"
        }
      ],
      "name": "transferOwnership",
      "outputs": [],
      "stateMutability": "nonpayable",
      "type": "function"
    }
  ],
  "bytecode": "0x608060405234801561001057600080fd5b5061001a33610411565b60408051608081018252600e9181019182526d2922a3a2a722a920aa24ab22901b60911b6060820152908152602080820181905260016000526004905280517fabd6e7cb50984ff9c2f3e18a2660c3353dadf4e3291deeb275dae2cd1e44fe059081906100879082610ff5565b50602091820151600191909101805463ffffffff191663ffffffff90921691909117905560408051608081018252600e9181019182526d524547454e45524154495645203560901b60608201529081526010818301526002600052600490915280517f91da3fd0782e51c6b3986e9e672fd566868e71f3dbc2d6c2cd6fbb3e361af2a79081906101179082610ff5565b50602091820151600191909101805463ffffffff191663ffffffff90921691909117905560408051608081018252600e9181019182526d149151d15391549055125591480d60921b60608201529081526008818301526003600052600490915280517f2e174c10e159ea99b867ce3205125c24a42d128804e4070ed6fcc8cc98166aa09081906101a79082610ff5565b50602091820151600191909101805463ffffffff191663ffffffff90921691909117905560408051608081018252600e9181019182526d524547454e45524154495645203360901b60608201529081526004818301819052600081905290915280517f1a1e6821cde7d0159c0d293177871e09677b4e42307c7db3ba94f8648a5a050f9081906102379082610ff5565b50602091820151600191909101805463ffffffff191663ffffffff90921691909117905560408051608081018252600e9181019182526d2922a3a2a722a920aa24ab22901960911b60608201529081526002818301526005600052600490915280517f04cde762ef08b6b6c5ded8e8c4c0b3f4e5c9ad7342c88fcc93681b4588b73f059081906102c79082610ff5565b506020918201516001918201805463ffffffff191663ffffffff90921691909117905560408051608081018252600e9181019182526d524547454e45524154495645203160901b6060820152908152808301919091526006600052600490915280517fc59312466997bb42aaaf719ece141047820e6b34531e1670dc1852a453648f0f9081906103579082610ff5565b50602091820151600191909101805463ffffffff191663ffffffff909216919091179055604080516080810182526006918101918252654e455554524f60d01b6060820152908152600081830181905260079052600490915280517fbeb3bad75134cb432e5707980e3245c52c5998a1125ee30f2f0dbf3925b1e5519081906103e09082610ff5565b50602091909101516001909101805463ffffffff191663ffffffff90921691909117905561040c610461565b6110b3565b600080546001600160a01b038381166001600160a01b0319831681178455604051919092169283917f8be0079c531659141344cd1fd0a4f28419497f9722a3daafe3b4186f6b6457e09190a35050565b6000604051806060016040528060016001600160401b0316815260200160405180604001604052806005815260200164547265657360d81b81525081526020016040518061014001604052806101198152602001611f06610119913990526003602090815260408051808201825260018082528251808401909352600e83526d07472656573203e3d2035303030360941b83850152928101918252600080516020611e78833981519152805493840181556000528051600080516020611e388339815191526002909402938401805460ff191660ff90921691909117815591519394509290916000805160206121fa83398151915201906105629082610ff5565b50506003602090815260408051808201825260028082528251808401909352601f83527f7472656573203e3d203235303030202626207472656573203c2035303030300083850152928101918252600080516020611e78833981519152805460018101825560009190915281519302600080516020611e388339815191528101805460ff9590951660ff1990951694909417845591519093506000805160206121fa833981519152909101906106189082610ff5565b5050600360208181526040805180820182529283528051808201909152601f81527f7472656573203e3d203132353030202626207472656573203c2032353030300081830152908201908152600080516020611e7883398151915280546001810182556000919091528251600080516020611e388339815191526002909202918201805460ff191660ff909216919091178155915192935090916000805160206121fa833981519152909101906106cf9082610ff5565b505060036020908152604080518082018252600481528151808301909252601e82527f7472656573203e3d2036323530202626207472656573203c203132353030000082840152918201908152600080516020611e7883398151915280546001810182556000919091528251600080516020611e388339815191526002909202918201805460ff191660ff909216919091178155915192935090916000805160206121fa833981519152909101906107879082610ff5565b505060036020908152604080518082018252600581528151808301909252601d82527f7472656573203e3d2033313235202626207472656573203c203632353000000082840152918201908152600080516020611e7883398151915280546001810182556000919091528251600080516020611e388339815191526002909202918201805460ff191660ff909216919091178155915192935090916000805160206121fa8339815191529091019061083f9082610ff5565b505060036020908152604080518082018252600681528151808301909252601b82527f7472656573203e3d203230202626207472656573203c2033313235000000000082840152918201908152600080516020611e7883398151915280546001810182556000919091528251600080516020611e388339815191526002909202918201805460ff191660ff909216919091178155915192935090916000805160206121fa833981519152909101906108f79082610ff5565b505060036020908152604080518082018252600781528151808301909252600a82526907472656573203c2032360b41b82840152918201908152600080516020611e7883398151915280546001810182556000919091528251600080516020611e388339815191526002909202918201805460ff191660ff909216919091178155915192935090916000805160206121fa8339815191529091019061099c9082610ff5565b5050506000604051806060016040528060026001600160401b031681526020016040518060400160405280600c81526020016b42696f64697665727369747960a01b8152508152602001604051806101800160405280610146815260200161203f610146913990526003602090815260408051808201825260018082528251808401909352601383527f42696f646976657273697479203e3d203136300000000000000000000000000083850152928101918252600080516020611e5883398151915280549384018155600052805160008051602061201f8339815191526002909402938401805460ff191660ff9092169190911781559151939450929091600080516020611e988339815191520190610ab69082610ff5565b505060026000819052600360209081526040805180820182529283528051606081019091526028808252600080516020611e58833981519152945083830192611ede90830139905281546001808201845560009384526020938490208351600290930201805460ff191660ff909316929092178255928201519192909190820190610b419082610ff5565b5050600260005250600360208181526040805180820182529283528051606081019091526027808252600080516020611e5883398151915293928381019291906121ac90830139905281546001808201845560009384526020938490208351600290930201805460ff191660ff909316929092178255928201519192909190820190610bcd9082610ff5565b505060026000525060036020908152604080518082018252600481528151606081019092526027808352600080516020611e58833981519152939192838301929091906121d390830139905281546001808201845560009384526020938490208351600290930201805460ff191660ff909316929092178255928201519192909190820190610c5c9082610ff5565b505060026000525060036020908152604080518082018252600581528151606081019092526027808352600080516020611e588339815191529391928383019290919061218590830139905281546001808201845560009384526020938490208351600290930201805460ff191660ff909316929092178255928201519192909190820190610ceb9082610ff5565b505060026000525060036020908152604080518082018252600681528151606081019092526026808352600080516020611e5883398151915293919283830192909190611eb890830139905281546001808201845560009384526020938490208351600290930201805460ff191660ff909316929092178255928201519192909190820190610d7a9082610ff5565b505060036020908152604080518082018252600781528151808301909252601082526f42696f646976657273697479203c203560801b82840152918201908152600080516020611e588339815191528054600181018255600091909152825160008051602061201f8339815191526002909202918201805460ff191660ff90921691909117815591519293509091600080516020611e9883398151915290910190610e259082610ff5565b50506001600052506002602090815282517fe90b7bceb6e7df5418fb78d8ee546e97c83a08bbccc01a0644d599ccd2a7c2e080546001600160401b0319166001600160401b03909216919091178155908301518391907fe90b7bceb6e7df5418fb78d8ee546e97c83a08bbccc01a0644d599ccd2a7c2e190610ea79082610ff5565b5060408201516002820190610ebc9082610ff5565b505060026000819052602090815282517f679795a0195a1b76cdebb7c51d74e058aee92919b8c3389af86ef24535e8a28c80546001600160401b0319166001600160401b03909216919091178155908301518392507f679795a0195a1b76cdebb7c51d74e058aee92919b8c3389af86ef24535e8a28d90610f3d9082610ff5565b5060408201516002820190610f529082610ff5565b5050505050565b634e487b7160e01b600052604160045260246000fd5b600181811c90821680610f8357607f821691505b602082108103610fa357634e487b7160e01b600052602260045260246000fd5b50919050565b601f821115610ff057806000526020600020601f840160051c81016020851015610fd05750805b601f840160051c820191505b81811015610f525760008155600101610fdc565b505050565b81516001600160401b0381111561100e5761100e610f59565b6110228161101c8454610f6f565b84610fa9565b6020601f821160018114611056576000831561103e5750848201515b600019600385901b1c1916600184901b178455610f52565b600084815260208120601f198516915b828110156110865787850151825560209485019460019092019101611066565b50848210156110a45786840151600019600387901b60f8161c191681555b50505050600190811b01905550565b610d76806110c26000396000f3fe608060405234801561001057600080fd5b50600436106100b45760003560e01c80638da5cb5b116100715780638da5cb5b1461017c5780638f93716f14610197578063a6801258146101aa578063ac2d1653146101d6578063c26ac7b4146101fe578063f2fde38b1461021f57600080fd5b806307374010146100b9578063536b5b9a146100e35780636a89d6f614610103578063715018a61461011d5780637b334154146101275780637be6277b1461015a575b600080fd5b6100cc6100c7366004610ab5565b610232565b6040516100da929190610b25565b60405180910390f35b6100f66100f1366004610b49565b6102fc565b6040516100da9190610b6b565b61010b600281565b60405160ff90911681526020016100da565b610125610467565b005b61014a610135366004610bea565b60016020526000908152604090205460ff1681565b60405190151581526020016100da565b61016d610168366004610b49565b61047b565b6040516100da93929190610c13565b6000546040516001600160a01b0390911681526020016100da565b6101256101a5366004610bea565b6105b9565b61014a6101b8366004610bea565b6001600160a01b031660009081526001602052604090205460ff1690565b6101e96101e4366004610c66565b6105e8565b60405163ffffffff90911681526020016100da565b61021161020c366004610c99565b6107b9565b6040516100da929190610cb4565b61012561022d366004610bea565b610863565b6003602052816000526040600020818154811061024e57600080fd5b60009182526020909120600290910201805460018201805460ff909216945091925061027990610cdc565b80601f01602080910402602001604051908101604052809291908181526020018280546102a590610cdc565b80156102f25780601f106102c7576101008083540402835291602001916102f2565b820191906000526020600020905b8154815290600101906020018083116102d557829003601f168201915b5050505050905082565b606060008260ff161180156103155750600260ff831611155b61035c5760405162461bcd60e51b8152602060048201526013602482015272125b9d985b1a590818d85d1959dbdc9e481251606a1b60448201526064015b60405180910390fd5b60ff8216600090815260036020908152604080832080548251818502810185019093528083529193909284015b8282101561045c5760008481526020908190206040805180820190915260028502909101805460ff16825260018101805492939192918401916103cb90610cdc565b80601f01602080910402602001604051908101604052809291908181526020018280546103f790610cdc565b80156104445780601f1061041957610100808354040283529160200191610444565b820191906000526020600020905b81548152906001019060200180831161042757829003601f168201915b50505050508152505081526020019060010190610389565b505050509050919050565b61046f6108dc565b6104796000610936565b565b6002602052600090815260409020805460018201805467ffffffffffffffff90921692916104a890610cdc565b80601f01602080910402602001604051908101604052809291908181526020018280546104d490610cdc565b80156105215780601f106104f657610100808354040283529160200191610521565b820191906000526020600020905b81548152906001019060200180831161050457829003601f168201915b50505050509080600201805461053690610cdc565b80601f016020809104026020016040519081016040528092919081815260200182805461056290610cdc565b80156105af5780601f10610584576101008083540402835291602001916105af565b820191906000526020600020905b81548152906001019060200180831161059257829003601f168201915b5050505050905083565b6105c16108dc565b6001600160a01b03166000908152600160208190526040909120805460ff19169091179055565b600080600460006105f886610986565b63ffffffff1663ffffffff16815260200190815260200160002060405180604001604052908160008201805461062d90610cdc565b80601f016020809104026020016040519081016040528092919081815260200182805461065990610cdc565b80156106a65780601f1061067b576101008083540402835291602001916106a6565b820191906000526020600020905b81548152906001019060200180831161068957829003601f168201915b50505091835250506001919091015463ffffffff16602090910152905060006004816106d186610a1e565b63ffffffff1663ffffffff16815260200190815260200160002060405180604001604052908160008201805461070690610cdc565b80601f016020809104026020016040519081016040528092919081815260200182805461073290610cdc565b801561077f5780601f106107545761010080835404028352916020019161077f565b820191906000526020600020905b81548152906001019060200180831161076257829003601f168201915b50505091835250506001919091015463ffffffff1660209182015281810151908401519192506107ae91610d16565b925050505b92915050565b6004602052600090815260409020805481906107d490610cdc565b80601f016020809104026020016040519081016040528092919081815260200182805461080090610cdc565b801561084d5780601f106108225761010080835404028352916020019161084d565b820191906000526020600020905b81548152906001019060200180831161083057829003601f168201915b5050506001909301549192505063ffffffff1682565b61086b6108dc565b6001600160a01b0381166108d05760405162461bcd60e51b815260206004820152602660248201527f4f776e61626c653a206e6577206f776e657220697320746865207a65726f206160448201526564647265737360d01b6064820152608401610353565b6108d981610936565b50565b6000546001600160a01b031633146104795760405162461bcd60e51b815260206004820181905260248201527f4f776e61626c653a2063616c6c6572206973206e6f7420746865206f776e65726044820152606401610353565b600080546001600160a01b038381166001600160a01b0319831681178455604051919092169283917f8be0079c531659141344cd1fd0a4f28419497f9722a3daafe3b4186f6b6457e09190a35050565b600061c35063ffffffff83161061099f57506001919050565b6161a863ffffffff8316106109b657506002919050565b6130d463ffffffff8316106109cd57506003919050565b61186a63ffffffff8316106109e457506004919050565b610c3563ffffffff8316106109fb57506005919050565b601463ffffffff831610610a1157506006919050565b506007919050565b919050565b600060a063ffffffff831610610a3657506001919050565b605063ffffffff831610610a4c57506002919050565b602863ffffffff831610610a6257506003919050565b601463ffffffff831610610a7857506004919050565b600a63ffffffff831610610a8e57506005919050565b600563ffffffff831610610a1157506006919050565b803560ff81168114610a1957600080fd5b60008060408385031215610ac857600080fd5b610ad183610aa4565b946020939093013593505050565b6000815180845260005b81811015610b0557602081850181015186830182015201610ae9565b506000602082860101526020601f19601f83011685010191505092915050565b60ff83168152604060208201526000610b416040830184610adf565b949350505050565b600060208284031215610b5b57600080fd5b610b6482610aa4565b9392505050565b6000602082016020835280845180835260408501915060408160051b86010192506020860160005b82811015610bde57603f19878603018452815160ff81511686526020810151905060406020870152610bc86040870182610adf565b9550506020938401939190910190600101610b93565b50929695505050505050565b600060208284031215610bfc57600080fd5b81356001600160a01b0381168114610b6457600080fd5b67ffffffffffffffff84168152606060208201526000610c366060830185610adf565b8281036040840152610c488185610adf565b9695505050505050565b803563ffffffff81168114610a1957600080fd5b60008060408385031215610c7957600080fd5b610c8283610c52565b9150610c9060208401610c52565b90509250929050565b600060208284031215610cab57600080fd5b610b6482610c52565b604081526000610cc76040830185610adf565b905063ffffffff831660208301529392505050565b600181811c90821680610cf057607f821691505b602082108103610d1057634e487b7160e01b600052602260045260246000fd5b50919050565b63ffffffff81811683821601908111156107b357634e487b7160e01b600052601160045260246000fdfea2646970667358221220851a208061801af8b2c634dc2292d74435665134b8cc4623d95c7c33a06b9da464736f6c634300081b00332c644dcf44e265ba93879b2da89e1b16ab48fc5eb8e31bc16b0612d6da8463f1c3a24b0501bd2c13a7e57f2db4369ec4c223447539fc0724a9d55ac4a06ebd4da15bc60c955c405d20d9149c709e2460f1c2d9a497496a7f46004d1772c3054c19b5847ec9d8983e32da86b2c2bedc7b0bcabd1d214557fda78706fe7ba568cf42696f646976657273697479203e3d20352026262042696f646976657273697479203c20313042696f646976657273697479203e3d2038302026262042696f646976657273697479203c20313630496e64696361746f7220746f206d6561737572652074686520746f74616c20616d6f756e74206f662074726565732c2070616c6d20747265657320616e64206f7468657220706c616e7473206f76657220316d206869676820616e642033636d20696e206469616d6574657220696e2074686520726567656e65726174696e6720617265612e20486f77206d616e792074726565732c2070616c6d20747265657320616e64206f7468657220706c616e7473206f76657220316d206869676820616e642033636d20696e206469616d6574657220746865726520697320696e2074686520726567656e65726174696e6720617265613f204a75737469667920796f757220616e7377657220696e20746865207265706f72742e19b5847ec9d8983e32da86b2c2bedc7b0bcabd1d214557fda78706fe7ba568ce496e64696361746f7220746f206d65617375726520746865206c6576656c206f662062696f646976657273697479206f662074726565732c2070616c6d20747265657320616e64206f7468657220706c616e7473206f76657220316d206869676820616e642033636d20696e206469616d6574657220696e2074686520726567656e65726174696e6720617265612e20486f77206d616e7920646966666572656e7420737065636965732061726520746865726520696e2074686520617265613f204561636820646966666572656e742073706563696573206973206571756976616c656e7420746f206f6e6520706f696e7420616e64206f6e6c7920747265657320616e6420706c616e7473206d616e61676564206f7220706c616e7465642062792074686520726567656e657261746f722073686f756c6420626520636f756e7465642e42696f646976657273697479203e3d2031302026262042696f646976657273697479203c20323042696f646976657273697479203e3d2034302026262042696f646976657273697479203c20383042696f646976657273697479203e3d2032302026262042696f646976657273697479203c2034302c644dcf44e265ba93879b2da89e1b16ab48fc5eb8e31bc16b0612d6da8463f2",
  "linkReferences": {},
  "deployedLinkReferences": {}
}