{
  "_format": "hh-sol-artifact-1",
  "contractName": "RegeneratorRules",
  "sourceName": "contracts/RegeneratorRules.sol",
  "abi": [
    {
      "inputs": [
        {
          "internalType": "address",
          "name": "communityRulesAddress",
          "type": "address"
        },
        {
          "internalType": "address",
          "name": "regeneratorPoolAddress",
          "type": "address"
        }
      ],
      "stateMutability": "nonpayable",
      "type": "constructor"
    },
    {
      "anonymous": false,
      "inputs": [
        {
          "indexed": true,
          "internalType": "address",
          "name": "previousOwner",
          "type": "address"
        },
        {
          "indexed": true,
          "internalType": "address",
          "name": "newOwner",
          "type": "address"
        }
      ],
      "name": "OwnershipTransferred",
      "type": "event"
    },
    {
      "inputs": [
        {
          "internalType": "uint256",
          "name": "totalArea",
          "type": "uint256"
        },
        {
          "internalType": "string",
          "name": "name",
          "type": "string"
        },
        {
          "internalType": "string",
          "name": "proofPhoto",
          "type": "string"
        },
        {
          "components": [
            {
              "internalType": "string",
              "name": "latitude",
              "type": "string"
            },
            {
              "internalType": "string",
              "name": "longitude",
              "type": "string"
            }
          ],
          "internalType": "struct Coordinates[]",
          "name": "_coordinates",
          "type": "tuple[]"
        }
      ],
      "name": "addRegenerator",
      "outputs": [],
      "stateMutability": "nonpayable",
      "type": "function"
    },
    {
      "inputs": [
        {
          "internalType": "address",
          "name": "addr",
          "type": "address"
        }
      ],
      "name": "afterAcceptInspection",
      "outputs": [],
      "stateMutability": "nonpayable",
      "type": "function"
    },
    {
      "inputs": [
        {
          "internalType": "address",
          "name": "addr",
          "type": "address"
        },
        {
          "internalType": "uint256",
          "name": "score",
          "type": "uint256"
        }
      ],
      "name": "afterRealizeInspection",
      "outputs": [
        {
          "internalType": "uint256",
          "name": "",
          "type": "uint256"
        }
      ],
      "stateMutability": "nonpayable",
      "type": "function"
    },
    {
      "inputs": [
        {
          "internalType": "address",
          "name": "addr",
          "type": "address"
        }
      ],
      "name": "afterRequestInspection",
      "outputs": [],
      "stateMutability": "nonpayable",
      "type": "function"
    },
    {
      "inputs": [
        {
          "internalType": "address",
          "name": "",
          "type": "address"
        }
      ],
      "name": "allowedCallers",
      "outputs": [
        {
          "internalType": "bool",
          "name": "",
          "type": "bool"
        }
      ],
      "stateMutability": "view",
      "type": "function"
    },
    {
      "inputs": [
        {
          "internalType": "address",
          "name": "addr",
          "type": "address"
        },
        {
          "internalType": "uint256",
          "name": "",
          "type": "uint256"
        }
      ],
      "name": "coordinates",
      "outputs": [
        {
          "internalType": "string",
          "name": "latitude",
          "type": "string"
        },
        {
          "internalType": "string",
          "name": "longitude",
          "type": "string"
        }
      ],
      "stateMutability": "view",
      "type": "function"
    },
    {
      "inputs": [
        {
          "internalType": "address",
          "name": "addr",
          "type": "address"
        }
      ],
      "name": "decrementInspections",
      "outputs": [],
      "stateMutability": "nonpayable",
      "type": "function"
    },
    {
      "inputs": [
        {
          "internalType": "address",
          "name": "addr",
          "type": "address"
        }
      ],
      "name": "getRegenerator",
      "outputs": [
        {
          "components": [
            {
              "internalType": "uint256",
              "name": "id",
              "type": "uint256"
            },
            {
              "internalType": "address",
              "name": "regeneratorWallet",
              "type": "address"
            },
            {
              "internalType": "string",
              "name": "name",
              "type": "string"
            },
            {
              "internalType": "string",
              "name": "proofPhoto",
              "type": "string"
            },
            {
              "internalType": "uint256",
              "name": "totalArea",
              "type": "uint256"
            },
            {
              "internalType": "bool",
              "name": "pendingInspection",
              "type": "bool"
            },
            {
              "internalType": "uint256",
              "name": "totalInspections",
              "type": "uint256"
            },
            {
              "internalType": "uint256",
              "name": "lastRequestAt",
              "type": "uint256"
            },
            {
              "components": [
                {
                  "internalType": "uint256",
                  "name": "score",
                  "type": "uint256"
                },
                {
                  "internalType": "uint256",
                  "name": "average",
                  "type": "uint256"
                }
              ],
              "internalType": "struct RegenerationScore",
              "name": "regenerationScore",
              "type": "tuple"
            },
            {
              "components": [
                {
                  "internalType": "bool",
                  "name": "onContractPool",
                  "type": "bool"
                },
                {
                  "internalType": "uint256",
                  "name": "currentEra",
                  "type": "uint256"
                }
              ],
              "internalType": "struct Pool",
              "name": "pool",
              "type": "tuple"
            },
            {
              "internalType": "uint256",
              "name": "createdAt",
              "type": "uint256"
            }
          ],
          "internalType": "struct Regenerator",
          "name": "regenerator",
          "type": "tuple"
        }
      ],
      "stateMutability": "view",
      "type": "function"
    },
    {
      "inputs": [
        {
          "internalType": "address",
          "name": "",
          "type": "address"
        }
      ],
      "name": "impactRegenerators",
      "outputs": [
        {
          "internalType": "bool",
          "name": "",
          "type": "bool"
        }
      ],
      "stateMutability": "view",
      "type": "function"
    },
    {
      "inputs": [
        {
          "internalType": "address",
          "name": "caller",
          "type": "address"
        }
      ],
      "name": "isAllowedCaller",
      "outputs": [
        {
          "internalType": "bool",
          "name": "",
          "type": "bool"
        }
      ],
      "stateMutability": "view",
      "type": "function"
    },
    {
      "inputs": [
        {
          "internalType": "address",
          "name": "allowed",
          "type": "address"
        }
      ],
      "name": "newAllowedCaller",
      "outputs": [],
      "stateMutability": "nonpayable",
      "type": "function"
    },
    {
      "inputs": [],
      "name": "nextEraIn",
      "outputs": [
        {
          "internalType": "uint256",
          "name": "",
          "type": "uint256"
        }
      ],
      "stateMutability": "view",
      "type": "function"
    },
    {
      "inputs": [],
      "name": "owner",
      "outputs": [
        {
          "internalType": "address",
          "name": "",
          "type": "address"
        }
      ],
      "stateMutability": "view",
      "type": "function"
    },
    {
      "inputs": [],
      "name": "regenerationArea",
      "outputs": [
        {
          "internalType": "uint256",
          "name": "",
          "type": "uint256"
        }
      ],
      "stateMutability": "view",
      "type": "function"
    },
    {
      "inputs": [],
      "name": "regenerationTotalArea",
      "outputs": [
        {
          "internalType": "uint256",
          "name": "",
          "type": "uint256"
        }
      ],
      "stateMutability": "view",
      "type": "function"
    },
    {
      "inputs": [
        {
          "internalType": "address",
          "name": "addr",
          "type": "address"
        }
      ],
      "name": "regeneratorExists",
      "outputs": [
        {
          "internalType": "bool",
          "name": "",
          "type": "bool"
        }
      ],
      "stateMutability": "view",
      "type": "function"
    },
    {
      "inputs": [],
      "name": "regeneratorPoolEra",
      "outputs": [
        {
          "internalType": "uint256",
          "name": "",
          "type": "uint256"
        }
      ],
      "stateMutability": "view",
      "type": "function"
    },
    {
      "inputs": [
        {
          "internalType": "address",
          "name": "",
          "type": "address"
        }
      ],
      "name": "regenerators",
      "outputs": [
        {
          "internalType": "uint256",
          "name": "id",
          "type": "uint256"
        },
        {
          "internalType": "address",
          "name": "regeneratorWallet",
          "type": "address"
        },
        {
          "internalType": "string",
          "name": "name",
          "type": "string"
        },
        {
          "internalType": "string",
          "name": "proofPhoto",
          "type": "string"
        },
        {
          "internalType": "uint256",
          "name": "totalArea",
          "type": "uint256"
        },
        {
          "internalType": "bool",
          "name": "pendingInspection",
          "type": "bool"
        },
        {
          "internalType": "uint256",
          "name": "totalInspections",
          "type": "uint256"
        },
        {
          "internalType": "uint256",
          "name": "lastRequestAt",
          "type": "uint256"
        },
        {
          "components": [
            {
              "internalType": "uint256",
              "name": "score",
              "type": "uint256"
            },
            {
              "internalType": "uint256",
              "name": "average",
              "type": "uint256"
            }
          ],
          "internalType": "struct RegenerationScore",
          "name": "regenerationScore",
          "type": "tuple"
        },
        {
          "components": [
            {
              "internalType": "bool",
              "name": "onContractPool",
              "type": "bool"
            },
            {
              "internalType": "uint256",
              "name": "currentEra",
              "type": "uint256"
            }
          ],
          "internalType": "struct Pool",
          "name": "pool",
          "type": "tuple"
        },
        {
          "internalType": "uint256",
          "name": "createdAt",
          "type": "uint256"
        }
      ],
      "stateMutability": "view",
      "type": "function"
    },
    {
      "inputs": [
        {
          "internalType": "uint256",
          "name": "",
          "type": "uint256"
        }
      ],
      "name": "regeneratorsAddress",
      "outputs": [
        {
          "internalType": "address",
          "name": "",
          "type": "address"
        }
      ],
      "stateMutability": "view",
      "type": "function"
    },
    {
      "inputs": [
        {
          "internalType": "address",
          "name": "addr",
          "type": "address"
        },
        {
          "internalType": "uint256",
          "name": "removeSomeLevels",
          "type": "uint256"
        }
      ],
      "name": "removePoolLevels",
      "outputs": [],
      "stateMutability": "nonpayable",
      "type": "function"
    },
    {
      "inputs": [],
      "name": "renounceOwnership",
      "outputs": [],
      "stateMutability": "nonpayable",
      "type": "function"
    },
    {
      "inputs": [],
      "name": "totalImpactRegenerators",
      "outputs": [
        {
          "internalType": "uint256",
          "name": "",
          "type": "uint256"
        }
      ],
      "stateMutability": "view",
      "type": "function"
    },
    {
      "inputs": [
        {
          "internalType": "address",
          "name": "newOwner",
          "type": "address"
        }
      ],
      "name": "transferOwnership",
      "outputs": [],
      "stateMutability": "nonpayable",
      "type": "function"
    },
    {
      "inputs": [],
      "name": "withdraw",
      "outputs": [],
      "stateMutability": "nonpayable",
      "type": "function"
    }
  ],
  "bytecode": "0x608060405234801561001057600080fd5b5060405161421f38038061421f83398181016040528101906100329190610206565b61004e6100436100d760201b60201c565b6100df60201b60201c565b81600660006101000a81548173ffffffffffffffffffffffffffffffffffffffff021916908373ffffffffffffffffffffffffffffffffffffffff16021790555080600760006101000a81548173ffffffffffffffffffffffffffffffffffffffff021916908373ffffffffffffffffffffffffffffffffffffffff1602179055505050610246565b600033905090565b60008060009054906101000a900473ffffffffffffffffffffffffffffffffffffffff169050816000806101000a81548173ffffffffffffffffffffffffffffffffffffffff021916908373ffffffffffffffffffffffffffffffffffffffff1602179055508173ffffffffffffffffffffffffffffffffffffffff168173ffffffffffffffffffffffffffffffffffffffff167f8be0079c531659141344cd1fd0a4f28419497f9722a3daafe3b4186f6b6457e060405160405180910390a35050565b600080fd5b600073ffffffffffffffffffffffffffffffffffffffff82169050919050565b60006101d3826101a8565b9050919050565b6101e3816101c8565b81146101ee57600080fd5b50565b600081519050610200816101da565b92915050565b6000806040838503121561021d5761021c6101a3565b5b600061022b858286016101f1565b925050602061023c858286016101f1565b9150509250929050565b613fca806102556000396000f3fe608060405234801561001057600080fd5b50600436106101585760003560e01c806385b5ee9b116100c3578063c3c983d21161007c578063c3c983d2146103d1578063c85a58ff146103ed578063cec6df7f1461041e578063e57637f01461043a578063e8f3c27a1461046a578063f2fde38b1461048857610158565b806385b5ee9b146102fd5780638da5cb5b1461032d5780638f93716f1461034b57806394c3cee914610367578063a680125814610383578063a6bae8b0146103b357610158565b8063442f962511610115578063442f96251461023957806345e0e89a14610257578063582256f11461027557806365ab21b014610293578063715018a6146102c35780637b334154146102cd57610158565b8063037f944d1461015d57806318ad5c9a1461018d5780631db64204146101a95780632b4d8eae146101c557806330d91ee1146101ff5780633ccfd60b1461022f575b600080fd5b61017760048036038101906101729190612d04565b6104a4565b6040516101849190612d4c565b60405180910390f35b6101a760048036038101906101a29190612d9d565b6104f2565b005b6101c360048036038101906101be9190612d04565b610952565b005b6101df60048036038101906101da9190612d04565b6109ec565b6040516101f69b9a99989796959493929190612f07565b60405180910390f35b61021960048036038101906102149190612d9d565b610bd0565b6040516102269190612fc0565b60405180910390f35b610237610c7f565b005b610241611116565b60405161024e9190612fc0565b60405180910390f35b61025f61111c565b60405161026c9190612fc0565b60405180910390f35b61027d611126565b60405161028a9190612fc0565b60405180910390f35b6102ad60048036038101906102a89190612d04565b6111d0565b6040516102ba9190613188565b60405180910390f35b6102cb611452565b005b6102e760048036038101906102e29190612d04565b611466565b6040516102f49190612d4c565b60405180910390f35b61031760048036038101906103129190612d04565b611486565b6040516103249190612d4c565b60405180910390f35b6103356114a6565b60405161034291906131aa565b60405180910390f35b61036560048036038101906103609190612d04565b6114cf565b005b610381600480360381019061037c9190612d04565b611531565b005b61039d60048036038101906103989190612d04565b6115d5565b6040516103aa9190612d4c565b60405180910390f35b6103bb61162b565b6040516103c89190612fc0565b60405180910390f35b6103eb60048036038101906103e69190612d04565b611631565b005b61040760048036038101906104029190612d9d565b611858565b6040516104159291906131c5565b60405180910390f35b610438600480360381019061043391906134a9565b6119a9565b005b610454600480360381019061044f9190613564565b6121ac565b60405161046191906131aa565b60405180910390f35b6104726121df565b60405161047f9190612fc0565b60405180910390f35b6104a2600480360381019061049d9190612d04565b612277565b005b600080600260008473ffffffffffffffffffffffffffffffffffffffff1673ffffffffffffffffffffffffffffffffffffffff16815260200190815260200160002060000154119050919050565b600160003373ffffffffffffffffffffffffffffffffffffffff1673ffffffffffffffffffffffffffffffffffffffff16815260200190815260200160002060009054906101000a900460ff1661057e576040517f08c379a0000000000000000000000000000000000000000000000000000000008152600401610575906135dd565b60405180910390fd5b6000600260008473ffffffffffffffffffffffffffffffffffffffff1673ffffffffffffffffffffffffffffffffffffffff16815260200190815260200160002060405180610160016040529081600082015481526020016001820160009054906101000a900473ffffffffffffffffffffffffffffffffffffffff1673ffffffffffffffffffffffffffffffffffffffff1673ffffffffffffffffffffffffffffffffffffffff16815260200160028201805461063b9061362c565b80601f01602080910402602001604051908101604052809291908181526020018280546106679061362c565b80156106b45780601f10610689576101008083540402835291602001916106b4565b820191906000526020600020905b81548152906001019060200180831161069757829003601f168201915b505050505081526020016003820180546106cd9061362c565b80601f01602080910402602001604051908101604052809291908181526020018280546106f99061362c565b80156107465780601f1061071b57610100808354040283529160200191610746565b820191906000526020600020905b81548152906001019060200180831161072957829003601f168201915b50505050508152602001600482015481526020016005820160009054906101000a900460ff16151515158152602001600682015481526020016007820154815260200160088201604051806040016040529081600082015481526020016001820154815250508152602001600a82016040518060400160405290816000820160009054906101000a900460ff161515151581526020016001820154815250508152602001600c82015481525050905060008203610856576000600260008573ffffffffffffffffffffffffffffffffffffffff1673ffffffffffffffffffffffffffffffffffffffff16815260200190815260200160002060080160000181905550610851836122fa565b6108b3565b81600260008573ffffffffffffffffffffffffffffffffffffffff1673ffffffffffffffffffffffffffffffffffffffff16815260200190815260200160002060080160000160008282546108ab919061368c565b925050819055505b600760009054906101000a900473ffffffffffffffffffffffffffffffffffffffff1673ffffffffffffffffffffffffffffffffffffffff1663157ffc528483610120015160200151856040518463ffffffff1660e01b815260040161091b939291906136c0565b600060405180830381600087803b15801561093557600080fd5b505af1158015610949573d6000803e3d6000fd5b50505050505050565b600160003373ffffffffffffffffffffffffffffffffffffffff1673ffffffffffffffffffffffffffffffffffffffff16815260200190815260200160002060009054906101000a900460ff166109de576040517f08c379a00000000000000000000000000000000000000000000000000000000081526004016109d5906135dd565b60405180910390fd5b6109e9816000612358565b50565b60026020528060005260406000206000915090508060000154908060010160009054906101000a900473ffffffffffffffffffffffffffffffffffffffff1690806002018054610a3b9061362c565b80601f0160208091040260200160405190810160405280929190818152602001828054610a679061362c565b8015610ab45780601f10610a8957610100808354040283529160200191610ab4565b820191906000526020600020905b815481529060010190602001808311610a9757829003601f168201915b505050505090806003018054610ac99061362c565b80601f0160208091040260200160405190810160405280929190818152602001828054610af59061362c565b8015610b425780601f10610b1757610100808354040283529160200191610b42565b820191906000526020600020905b815481529060010190602001808311610b2557829003601f168201915b5050505050908060040154908060050160009054906101000a900460ff169080600601549080600701549080600801604051806040016040529081600082015481526020016001820154815250509080600a016040518060400160405290816000820160009054906101000a900460ff161515151581526020016001820154815250509080600c015490508b565b6000600160003373ffffffffffffffffffffffffffffffffffffffff1673ffffffffffffffffffffffffffffffffffffffff16815260200190815260200160002060009054906101000a900460ff16610c5e576040517f08c379a0000000000000000000000000000000000000000000000000000000008152600401610c55906135dd565b60405180910390fd5b6000610c69846123b6565b9050610c75848461251c565b8091505092915050565b600660009054906101000a900473ffffffffffffffffffffffffffffffffffffffff1673ffffffffffffffffffffffffffffffffffffffff16639497c6086001336040518363ffffffff1660e01b8152600401610cdd92919061376e565b602060405180830381865afa158015610cfa573d6000803e3d6000fd5b505050506040513d601f19601f82011682018060405250810190610d1e91906137c3565b610d5d576040517f08c379a0000000000000000000000000000000000000000000000000000000008152600401610d549061383c565b60405180910390fd5b6000600260003373ffffffffffffffffffffffffffffffffffffffff1673ffffffffffffffffffffffffffffffffffffffff16815260200190815260200160002060405180610160016040529081600082015481526020016001820160009054906101000a900473ffffffffffffffffffffffffffffffffffffffff1673ffffffffffffffffffffffffffffffffffffffff1673ffffffffffffffffffffffffffffffffffffffff168152602001600282018054610e1a9061362c565b80601f0160208091040260200160405190810160405280929190818152602001828054610e469061362c565b8015610e935780601f10610e6857610100808354040283529160200191610e93565b820191906000526020600020905b815481529060010190602001808311610e7657829003601f168201915b50505050508152602001600382018054610eac9061362c565b80601f0160208091040260200160405190810160405280929190818152602001828054610ed89061362c565b8015610f255780601f10610efa57610100808354040283529160200191610f25565b820191906000526020600020905b815481529060010190602001808311610f0857829003601f168201915b50505050508152602001600482015481526020016005820160009054906101000a900460ff16151515158152602001600682015481526020016007820154815260200160088201604051806040016040529081600082015481526020016001820154815250508152602001600a82016040518060400160405290816000820160009054906101000a900460ff161515151581526020016001820154815250508152602001600c820154815250509050610fe18160c00151612a3b565b611020576040517f08c379a0000000000000000000000000000000000000000000000000000000008152600401611017906138a8565b60405180910390fd5b600260003373ffffffffffffffffffffffffffffffffffffffff1673ffffffffffffffffffffffffffffffffffffffff168152602001908152602001600020600a016001016000815480929190611076906138c8565b9190505550600760009054906101000a900473ffffffffffffffffffffffffffffffffffffffff1673ffffffffffffffffffffffffffffffffffffffff1663f3fef3a333836101200151602001516040518363ffffffff1660e01b81526004016110e1929190613910565b600060405180830381600087803b1580156110fb57600080fd5b505af115801561110f573d6000803e3d6000fd5b5050505050565b60095481565b6000600954905090565b6000600760009054906101000a900473ffffffffffffffffffffffffffffffffffffffff1673ffffffffffffffffffffffffffffffffffffffff1663d5ee3eb561116e6121df565b6040518263ffffffff1660e01b815260040161118a9190612fc0565b602060405180830381865afa1580156111a7573d6000803e3d6000fd5b505050506040513d601f19601f820116820180604052508101906111cb919061396f565b905090565b6111d8612bde565b600260008373ffffffffffffffffffffffffffffffffffffffff1673ffffffffffffffffffffffffffffffffffffffff16815260200190815260200160002060405180610160016040529081600082015481526020016001820160009054906101000a900473ffffffffffffffffffffffffffffffffffffffff1673ffffffffffffffffffffffffffffffffffffffff1673ffffffffffffffffffffffffffffffffffffffff1681526020016002820180546112939061362c565b80601f01602080910402602001604051908101604052809291908181526020018280546112bf9061362c565b801561130c5780601f106112e15761010080835404028352916020019161130c565b820191906000526020600020905b8154815290600101906020018083116112ef57829003601f168201915b505050505081526020016003820180546113259061362c565b80601f01602080910402602001604051908101604052809291908181526020018280546113519061362c565b801561139e5780601f106113735761010080835404028352916020019161139e565b820191906000526020600020905b81548152906001019060200180831161138157829003601f168201915b50505050508152602001600482015481526020016005820160009054906101000a900460ff16151515158152602001600682015481526020016007820154815260200160088201604051806040016040529081600082015481526020016001820154815250508152602001600a82016040518060400160405290816000820160009054906101000a900460ff161515151581526020016001820154815250508152602001600c820154815250509050919050565b61145a612a49565b6114646000612ac7565b565b60016020528060005260406000206000915054906101000a900460ff1681565b60056020528060005260406000206000915054906101000a900460ff1681565b60008060009054906101000a900473ffffffffffffffffffffffffffffffffffffffff16905090565b6114d7612a49565b60018060008373ffffffffffffffffffffffffffffffffffffffff1673ffffffffffffffffffffffffffffffffffffffff16815260200190815260200160002060006101000a81548160ff02191690831515021790555050565b600160003373ffffffffffffffffffffffffffffffffffffffff1673ffffffffffffffffffffffffffffffffffffffff16815260200190815260200160002060009054906101000a900460ff166115bd576040517f08c379a00000000000000000000000000000000000000000000000000000000081526004016115b4906135dd565b60405180910390fd5b6115c8816001612358565b6115d28143612b8b565b50565b6000600160008373ffffffffffffffffffffffffffffffffffffffff1673ffffffffffffffffffffffffffffffffffffffff16815260200190815260200160002060009054906101000a900460ff169050919050565b60085481565b600160003373ffffffffffffffffffffffffffffffffffffffff1673ffffffffffffffffffffffffffffffffffffffff16815260200190815260200160002060009054906101000a900460ff166116bd576040517f08c379a00000000000000000000000000000000000000000000000000000000081526004016116b4906135dd565b60405180910390fd5b6000600260008373ffffffffffffffffffffffffffffffffffffffff1673ffffffffffffffffffffffffffffffffffffffff1681526020019081526020016000206006015411611742576040517f08c379a0000000000000000000000000000000000000000000000000000000008152600401611739906139e8565b60405180910390fd5b6001600260008373ffffffffffffffffffffffffffffffffffffffff1673ffffffffffffffffffffffffffffffffffffffff16815260200190815260200160002060060154036117fd576008600081548092919061179f90613a08565b91905055506000600560008373ffffffffffffffffffffffffffffffffffffffff1673ffffffffffffffffffffffffffffffffffffffff16815260200190815260200160002060006101000a81548160ff0219169083151502179055505b600260008273ffffffffffffffffffffffffffffffffffffffff1673ffffffffffffffffffffffffffffffffffffffff168152602001908152602001600020600601600081548092919061185090613a08565b919050555050565b6004602052816000526040600020818154811061187457600080fd5b9060005260206000209060020201600091509150508060000180546118989061362c565b80601f01602080910402602001604051908101604052809291908181526020018280546118c49061362c565b80156119115780601f106118e657610100808354040283529160200191611911565b820191906000526020600020905b8154815290600101906020018083116118f457829003601f168201915b5050505050908060010180546119269061362c565b80601f01602080910402602001604051908101604052809291908181526020018280546119529061362c565b801561199f5780601f106119745761010080835404028352916020019161199f565b820191906000526020600020905b81548152906001019060200180831161198257829003601f168201915b5050505050905082565b60038151101580156119bd5750600a815111155b6119fc576040517f08c379a00000000000000000000000000000000000000000000000000000000081526004016119f390613aa3565b60405180910390fd5b6101f4841015611a41576040517f08c379a0000000000000000000000000000000000000000000000000000000008152600401611a3890613b0f565b60405180910390fd5b6000600260003373ffffffffffffffffffffffffffffffffffffffff1673ffffffffffffffffffffffffffffffffffffffff16815260200190815260200160002060405180610160016040529081600082015481526020016001820160009054906101000a900473ffffffffffffffffffffffffffffffffffffffff1673ffffffffffffffffffffffffffffffffffffffff1673ffffffffffffffffffffffffffffffffffffffff168152602001600282018054611afe9061362c565b80601f0160208091040260200160405190810160405280929190818152602001828054611b2a9061362c565b8015611b775780601f10611b4c57610100808354040283529160200191611b77565b820191906000526020600020905b815481529060010190602001808311611b5a57829003601f168201915b50505050508152602001600382018054611b909061362c565b80601f0160208091040260200160405190810160405280929190818152602001828054611bbc9061362c565b8015611c095780601f10611bde57610100808354040283529160200191611c09565b820191906000526020600020905b815481529060010190602001808311611bec57829003601f168201915b50505050508152602001600482015481526020016005820160009054906101000a900460ff16151515158152602001600682015481526020016007820154815260200160088201604051806040016040529081600082015481526020016001820154815250508152602001600a82016040518060400160405290816000820160009054906101000a900460ff161515151581526020016001820154815250508152602001600c82015481525050905060006001600660009054906101000a900473ffffffffffffffffffffffffffffffffffffffff1673ffffffffffffffffffffffffffffffffffffffff16631eb2c12060016040518263ffffffff1660e01b8152600401611d189190613b2f565b602060405180830381865afa158015611d35573d6000803e3d6000fd5b505050506040513d601f19601f82011682018060405250810190611d599190613b5f565b611d639190613b8c565b90508082600001818152505033826020019073ffffffffffffffffffffffffffffffffffffffff16908173ffffffffffffffffffffffffffffffffffffffff1681525050848260400181905250838260600181905250858260800181815250506040518060400160405280600015158152602001600760009054906101000a900473ffffffffffffffffffffffffffffffffffffffff1673ffffffffffffffffffffffffffffffffffffffff1663ed0df79e6040518163ffffffff1660e01b8152600401602060405180830381865afa158015611e44573d6000803e3d6000fd5b505050506040513d601f19601f82011682018060405250810190611e689190613b5f565b815250826101200181905250438261014001818152505081600260003373ffffffffffffffffffffffffffffffffffffffff1673ffffffffffffffffffffffffffffffffffffffff1681526020019081526020016000206000820151816000015560208201518160010160006101000a81548173ffffffffffffffffffffffffffffffffffffffff021916908373ffffffffffffffffffffffffffffffffffffffff1602179055506040820151816002019081611f259190613d6c565b506060820151816003019081611f3b9190613d6c565b506080820151816004015560a08201518160050160006101000a81548160ff02191690831515021790555060c0820151816006015560e08201518160070155610100820151816008016000820151816000015560208201518160010155505061012082015181600a0160008201518160000160006101000a81548160ff02191690831515021790555060208201518160010155505061014082015181600c0155905050336003600083815260200190815260200160002060006101000a81548173ffffffffffffffffffffffffffffffffffffffff021916908373ffffffffffffffffffffffffffffffffffffffff160217905550600660009054906101000a900473ffffffffffffffffffffffffffffffffffffffff1673ffffffffffffffffffffffffffffffffffffffff16639c3eead93360016040518363ffffffff1660e01b815260040161208e929190613e3e565b600060405180830381600087803b1580156120a857600080fd5b505af11580156120bc573d6000803e3d6000fd5b5050505085600960008282546120d29190613b8c565b9250508190555060005b83518110156121a357600460003373ffffffffffffffffffffffffffffffffffffffff1673ffffffffffffffffffffffffffffffffffffffff16815260200190815260200160002084828151811061213757612136613e67565b5b60200260200101519080600181540180825580915050600190039060005260206000209060020201600090919091909150600082015181600001908161217d9190613d6c565b5060208201518160010190816121939190613d6c565b50505080806001019150506120dc565b50505050505050565b60036020528060005260406000206000915054906101000a900473ffffffffffffffffffffffffffffffffffffffff1681565b6000600760009054906101000a900473ffffffffffffffffffffffffffffffffffffffff1673ffffffffffffffffffffffffffffffffffffffff1663ed0df79e6040518163ffffffff1660e01b8152600401602060405180830381865afa15801561224e573d6000803e3d6000fd5b505050506040513d601f19601f820116820180604052508101906122729190613b5f565b905090565b61227f612a49565b600073ffffffffffffffffffffffffffffffffffffffff168173ffffffffffffffffffffffffffffffffffffffff16036122ee576040517f08c379a00000000000000000000000000000000000000000000000000000000081526004016122e590613f08565b60405180910390fd5b6122f781612ac7565b50565b600260008273ffffffffffffffffffffffffffffffffffffffff1673ffffffffffffffffffffffffffffffffffffffff168152602001908152602001600020600401546009600082825461234e919061368c565b9250508190555050565b80600260008473ffffffffffffffffffffffffffffffffffffffff1673ffffffffffffffffffffffffffffffffffffffff16815260200190815260200160002060050160006101000a81548160ff0219169083151502179055505050565b6000600260008373ffffffffffffffffffffffffffffffffffffffff1673ffffffffffffffffffffffffffffffffffffffff168152602001908152602001600020600601600081548092919061240b906138c8565b9190505550600560008373ffffffffffffffffffffffffffffffffffffffff1673ffffffffffffffffffffffffffffffffffffffff16815260200190815260200160002060009054906101000a900460ff166124d2576001600560008473ffffffffffffffffffffffffffffffffffffffff1673ffffffffffffffffffffffffffffffffffffffff16815260200190815260200160002060006101000a81548160ff021916908315150217905550600860008154809291906124cc906138c8565b91905055505b600260008373ffffffffffffffffffffffffffffffffffffffff1673ffffffffffffffffffffffffffffffffffffffff168152602001908152602001600020600601549050919050565b6000600260008473ffffffffffffffffffffffffffffffffffffffff1673ffffffffffffffffffffffffffffffffffffffff16815260200190815260200160002060405180610160016040529081600082015481526020016001820160009054906101000a900473ffffffffffffffffffffffffffffffffffffffff1673ffffffffffffffffffffffffffffffffffffffff1673ffffffffffffffffffffffffffffffffffffffff1681526020016002820180546125d99061362c565b80601f01602080910402602001604051908101604052809291908181526020018280546126059061362c565b80156126525780601f1061262757610100808354040283529160200191612652565b820191906000526020600020905b81548152906001019060200180831161263557829003601f168201915b5050505050815260200160038201805461266b9061362c565b80601f01602080910402602001604051908101604052809291908181526020018280546126979061362c565b80156126e45780601f106126b9576101008083540402835291602001916126e4565b820191906000526020600020905b8154815290600101906020018083116126c757829003601f168201915b50505050508152602001600482015481526020016005820160009054906101000a900460ff16151515158152602001600682015481526020016007820154815260200160088201604051806040016040529081600082015481526020016001820154815250508152602001600a82016040518060400160405290816000820160009054906101000a900460ff161515151581526020016001820154815250508152602001600c820154815250509050818161010001516000018181516127aa9190613b8c565b9150818152505080600260008573ffffffffffffffffffffffffffffffffffffffff1673ffffffffffffffffffffffffffffffffffffffff1681526020019081526020016000206000820151816000015560208201518160010160006101000a81548173ffffffffffffffffffffffffffffffffffffffff021916908373ffffffffffffffffffffffffffffffffffffffff16021790555060408201518160020190816128579190613d6c565b50606082015181600301908161286d9190613d6c565b506080820151816004015560a08201518160050160006101000a81548160ff02191690831515021790555060c0820151816006015560e08201518160070155610100820151816008016000820151816000015560208201518160010155505061012082015181600a0160008201518160000160006101000a81548160ff02191690831515021790555060208201518160010155505061014082015181600c015590505061291d8160c00151612a3b565b6129275750612a37565b6000829050816101200151600001516129a5576001600260008673ffffffffffffffffffffffffffffffffffffffff1673ffffffffffffffffffffffffffffffffffffffff168152602001908152602001600020600a0160000160006101000a81548160ff0219169083151502179055508161010001516000015190505b600760009054906101000a900473ffffffffffffffffffffffffffffffffffffffff1673ffffffffffffffffffffffffffffffffffffffff166352b8d3ed85836040518363ffffffff1660e01b8152600401612a02929190613910565b600060405180830381600087803b158015612a1c57600080fd5b505af1158015612a30573d6000803e3d6000fd5b5050505050505b5050565b600060038210159050919050565b612a51612bd6565b73ffffffffffffffffffffffffffffffffffffffff16612a6f6114a6565b73ffffffffffffffffffffffffffffffffffffffff1614612ac5576040517f08c379a0000000000000000000000000000000000000000000000000000000008152600401612abc90613f74565b60405180910390fd5b565b60008060009054906101000a900473ffffffffffffffffffffffffffffffffffffffff169050816000806101000a81548173ffffffffffffffffffffffffffffffffffffffff021916908373ffffffffffffffffffffffffffffffffffffffff1602179055508173ffffffffffffffffffffffffffffffffffffffff168173ffffffffffffffffffffffffffffffffffffffff167f8be0079c531659141344cd1fd0a4f28419497f9722a3daafe3b4186f6b6457e060405160405180910390a35050565b80600260008473ffffffffffffffffffffffffffffffffffffffff1673ffffffffffffffffffffffffffffffffffffffff168152602001908152602001600020600701819055505050565b600033905090565b60405180610160016040528060008152602001600073ffffffffffffffffffffffffffffffffffffffff1681526020016060815260200160608152602001600081526020016000151581526020016000815260200160008152602001612c42612c5c565b8152602001612c4f612c76565b8152602001600081525090565b604051806040016040528060008152602001600081525090565b6040518060400160405280600015158152602001600081525090565b6000604051905090565b600080fd5b600080fd5b600073ffffffffffffffffffffffffffffffffffffffff82169050919050565b6000612cd182612ca6565b9050919050565b612ce181612cc6565b8114612cec57600080fd5b50565b600081359050612cfe81612cd8565b92915050565b600060208284031215612d1a57612d19612c9c565b5b6000612d2884828501612cef565b91505092915050565b60008115159050919050565b612d4681612d31565b82525050565b6000602082019050612d616000830184612d3d565b92915050565b6000819050919050565b612d7a81612d67565b8114612d8557600080fd5b50565b600081359050612d9781612d71565b92915050565b60008060408385031215612db457612db3612c9c565b5b6000612dc285828601612cef565b9250506020612dd385828601612d88565b9150509250929050565b612de681612d67565b82525050565b612df581612cc6565b82525050565b600081519050919050565b600082825260208201905092915050565b60005b83811015612e35578082015181840152602081019050612e1a565b60008484015250505050565b6000601f19601f8301169050919050565b6000612e5d82612dfb565b612e678185612e06565b9350612e77818560208601612e17565b612e8081612e41565b840191505092915050565b612e9481612d67565b82525050565b604082016000820151612eb06000850182612e8b565b506020820151612ec36020850182612e8b565b50505050565b612ed281612d31565b82525050565b604082016000820151612eee6000850182612ec9565b506020820151612f016020850182612e8b565b50505050565b60006101a082019050612f1d600083018e612ddd565b612f2a602083018d612dec565b8181036040830152612f3c818c612e52565b90508181036060830152612f50818b612e52565b9050612f5f608083018a612ddd565b612f6c60a0830189612d3d565b612f7960c0830188612ddd565b612f8660e0830187612ddd565b612f94610100830186612e9a565b612fa2610140830185612ed8565b612fb0610180830184612ddd565b9c9b505050505050505050505050565b6000602082019050612fd56000830184612ddd565b92915050565b612fe481612cc6565b82525050565b600082825260208201905092915050565b600061300682612dfb565b6130108185612fea565b9350613020818560208601612e17565b61302981612e41565b840191505092915050565b60408201600082015161304a6000850182612e8b565b50602082015161305d6020850182612e8b565b50505050565b6040820160008201516130796000850182612ec9565b50602082015161308c6020850182612e8b565b50505050565b60006101a0830160008301516130ab6000860182612e8b565b5060208301516130be6020860182612fdb565b50604083015184820360408601526130d68282612ffb565b915050606083015184820360608601526130f08282612ffb565b91505060808301516131056080860182612e8b565b5060a083015161311860a0860182612ec9565b5060c083015161312b60c0860182612e8b565b5060e083015161313e60e0860182612e8b565b50610100830151613153610100860182613034565b50610120830151613168610140860182613063565b5061014083015161317d610180860182612e8b565b508091505092915050565b600060208201905081810360008301526131a28184613092565b905092915050565b60006020820190506131bf6000830184612dec565b92915050565b600060408201905081810360008301526131df8185612e52565b905081810360208301526131f38184612e52565b90509392505050565b600080fd5b600080fd5b7f4e487b7100000000000000000000000000000000000000000000000000000000600052604160045260246000fd5b61323e82612e41565b810181811067ffffffffffffffff8211171561325d5761325c613206565b5b80604052505050565b6000613270612c92565b905061327c8282613235565b919050565b600067ffffffffffffffff82111561329c5761329b613206565b5b6132a582612e41565b9050602081019050919050565b82818337600083830152505050565b60006132d46132cf84613281565b613266565b9050828152602081018484840111156132f0576132ef613201565b5b6132fb8482856132b2565b509392505050565b600082601f830112613318576133176131fc565b5b81356133288482602086016132c1565b91505092915050565b600067ffffffffffffffff82111561334c5761334b613206565b5b602082029050602081019050919050565b600080fd5b600080fd5b600080fd5b60006040828403121561338257613381613362565b5b61338c6040613266565b9050600082013567ffffffffffffffff8111156133ac576133ab613367565b5b6133b884828501613303565b600083015250602082013567ffffffffffffffff8111156133dc576133db613367565b5b6133e884828501613303565b60208301525092915050565b600061340761340284613331565b613266565b9050808382526020820190506020840283018581111561342a5761342961335d565b5b835b8181101561347157803567ffffffffffffffff81111561344f5761344e6131fc565b5b80860161345c898261336c565b8552602085019450505060208101905061342c565b5050509392505050565b600082601f8301126134905761348f6131fc565b5b81356134a08482602086016133f4565b91505092915050565b600080600080608085870312156134c3576134c2612c9c565b5b60006134d187828801612d88565b945050602085013567ffffffffffffffff8111156134f2576134f1612ca1565b5b6134fe87828801613303565b935050604085013567ffffffffffffffff81111561351f5761351e612ca1565b5b61352b87828801613303565b925050606085013567ffffffffffffffff81111561354c5761354b612ca1565b5b6135588782880161347b565b91505092959194509250565b60006020828403121561357a57613579612c9c565b5b600061358884828501612d88565b91505092915050565b7f4e6f7420616c6c6f7765642063616c6c65720000000000000000000000000000600082015250565b60006135c7601283612e06565b91506135d282613591565b602082019050919050565b600060208201905081810360008301526135f6816135ba565b9050919050565b7f4e487b7100000000000000000000000000000000000000000000000000000000600052602260045260246000fd5b6000600282049050600182168061364457607f821691505b602082108103613657576136566135fd565b5b50919050565b7f4e487b7100000000000000000000000000000000000000000000000000000000600052601160045260246000fd5b600061369782612d67565b91506136a283612d67565b92508282039050818111156136ba576136b961365d565b5b92915050565b60006060820190506136d56000830186612dec565b6136e26020830185612ddd565b6136ef6040830184612ddd565b949350505050565b7f4e487b7100000000000000000000000000000000000000000000000000000000600052602160045260246000fd5b600a8110613737576137366136f7565b5b50565b600081905061374882613726565b919050565b60006137588261373a565b9050919050565b6137688161374d565b82525050565b6000604082019050613783600083018561375f565b6137906020830184612dec565b9392505050565b6137a081612d31565b81146137ab57600080fd5b50565b6000815190506137bd81613797565b92915050565b6000602082840312156137d9576137d8612c9c565b5b60006137e7848285016137ae565b91505092915050565b7f4f6e6c7920726567656e657261746f727320706f6f6c00000000000000000000600082015250565b6000613826601683612e06565b9150613831826137f0565b602082019050919050565b6000602082019050818103600083015261385581613819565b9050919050565b7f4d696e696d756d20696e7370656374696f6e7300000000000000000000000000600082015250565b6000613892601383612e06565b915061389d8261385c565b602082019050919050565b600060208201905081810360008301526138c181613885565b9050919050565b60006138d382612d67565b91507fffffffffffffffffffffffffffffffffffffffffffffffffffffffffffffffff82036139055761390461365d565b5b600182019050919050565b60006040820190506139256000830185612dec565b6139326020830184612ddd565b9392505050565b6000819050919050565b61394c81613939565b811461395757600080fd5b50565b60008151905061396981613943565b92915050565b60006020828403121561398557613984612c9c565b5b60006139938482850161395a565b91505092915050565b7f746f74616c496e7370656374696f6e7320696e76616c69640000000000000000600082015250565b60006139d2601883612e06565b91506139dd8261399c565b602082019050919050565b60006020820190508181036000830152613a01816139c5565b9050919050565b6000613a1382612d67565b915060008203613a2657613a2561365d565b5b600182039050919050565b7f4d696e696d756d203320616e64206d6178696d756d20313020636f6f7264696e60008201527f61746520706f696e747300000000000000000000000000000000000000000000602082015250565b6000613a8d602a83612e06565b9150613a9882613a31565b604082019050919050565b60006020820190508181036000830152613abc81613a80565b9050919050565b7f4d696e696d756d2035303020737175617265206d657465727300000000000000600082015250565b6000613af9601983612e06565b9150613b0482613ac3565b602082019050919050565b60006020820190508181036000830152613b2881613aec565b9050919050565b6000602082019050613b44600083018461375f565b92915050565b600081519050613b5981612d71565b92915050565b600060208284031215613b7557613b74612c9c565b5b6000613b8384828501613b4a565b91505092915050565b6000613b9782612d67565b9150613ba283612d67565b9250828201905080821115613bba57613bb961365d565b5b92915050565b60008190508160005260206000209050919050565b60006020601f8301049050919050565b600082821b905092915050565b600060088302613c227fffffffffffffffffffffffffffffffffffffffffffffffffffffffffffffffff82613be5565b613c2c8683613be5565b95508019841693508086168417925050509392505050565b6000819050919050565b6000613c69613c64613c5f84612d67565b613c44565b612d67565b9050919050565b6000819050919050565b613c8383613c4e565b613c97613c8f82613c70565b848454613bf2565b825550505050565b600090565b613cac613c9f565b613cb7818484613c7a565b505050565b5b81811015613cdb57613cd0600082613ca4565b600181019050613cbd565b5050565b601f821115613d2057613cf181613bc0565b613cfa84613bd5565b81016020851015613d09578190505b613d1d613d1585613bd5565b830182613cbc565b50505b505050565b600082821c905092915050565b6000613d4360001984600802613d25565b1980831691505092915050565b6000613d5c8383613d32565b9150826002028217905092915050565b613d7582612dfb565b67ffffffffffffffff811115613d8e57613d8d613206565b5b613d98825461362c565b613da3828285613cdf565b600060209050601f831160018114613dd65760008415613dc4578287015190505b613dce8582613d50565b865550613e36565b601f198416613de486613bc0565b60005b82811015613e0c57848901518255600182019150602085019450602081019050613de7565b86831015613e295784890151613e25601f891682613d32565b8355505b6001600288020188555050505b505050505050565b6000604082019050613e536000830185612dec565b613e60602083018461375f565b9392505050565b7f4e487b7100000000000000000000000000000000000000000000000000000000600052603260045260246000fd5b7f4f776e61626c653a206e6577206f776e657220697320746865207a65726f206160008201527f6464726573730000000000000000000000000000000000000000000000000000602082015250565b6000613ef2602683612e06565b9150613efd82613e96565b604082019050919050565b60006020820190508181036000830152613f2181613ee5565b9050919050565b7f4f776e61626c653a2063616c6c6572206973206e6f7420746865206f776e6572600082015250565b6000613f5e602083612e06565b9150613f6982613f28565b602082019050919050565b60006020820190508181036000830152613f8d81613f51565b905091905056fea2646970667358221220e576661a52bbee6a960abc14c7d51ccf20be3ba5ed6cd7480c46e542726d319a64736f6c634300081b0033",
  "linkReferences": {},
  "deployedLinkReferences": {}
}