{
  "_format": "hh-sol-artifact-1",
  "contractName": "RegeneratorRules",
  "sourceName": "contracts/RegeneratorRules.sol",
  "abi": [
    {
      "inputs": [
        {
          "internalType": "address",
          "name": "communityRulesAddress",
          "type": "address"
        },
        {
          "internalType": "address",
          "name": "regeneratorPoolAddress",
          "type": "address"
        }
      ],
      "stateMutability": "nonpayable",
      "type": "constructor"
    },
    {
      "inputs": [
        {
          "internalType": "address",
          "name": "owner",
          "type": "address"
        }
      ],
      "name": "OwnableInvalidOwner",
      "type": "error"
    },
    {
      "inputs": [
        {
          "internalType": "address",
          "name": "account",
          "type": "address"
        }
      ],
      "name": "OwnableUnauthorizedAccount",
      "type": "error"
    },
    {
      "inputs": [],
      "name": "ReentrancyGuardReentrantCall",
      "type": "error"
    },
    {
      "anonymous": false,
      "inputs": [
        {
          "indexed": true,
          "internalType": "address",
          "name": "previousOwner",
          "type": "address"
        },
        {
          "indexed": true,
          "internalType": "address",
          "name": "newOwner",
          "type": "address"
        }
      ],
      "name": "OwnershipTransferred",
      "type": "event"
    },
    {
      "anonymous": false,
      "inputs": [
        {
          "indexed": true,
          "internalType": "address",
          "name": "regeneratorAddress",
          "type": "address"
        }
      ],
      "name": "RegeneratorCertified",
      "type": "event"
    },
    {
      "anonymous": false,
      "inputs": [
        {
          "indexed": true,
          "internalType": "address",
          "name": "regeneratorAddress",
          "type": "address"
        },
        {
          "indexed": false,
          "internalType": "uint256",
          "name": "blockNumber",
          "type": "uint256"
        }
      ],
      "name": "RegeneratorEnteredPool",
      "type": "event"
    },
    {
      "anonymous": false,
      "inputs": [
        {
          "indexed": true,
          "internalType": "uint256",
          "name": "id",
          "type": "uint256"
        },
        {
          "indexed": true,
          "internalType": "address",
          "name": "regeneratorAddress",
          "type": "address"
        },
        {
          "indexed": false,
          "internalType": "string",
          "name": "name",
          "type": "string"
        },
        {
          "indexed": false,
          "internalType": "uint32",
          "name": "totalArea",
          "type": "uint32"
        },
        {
          "indexed": false,
          "internalType": "uint256",
          "name": "blockNumber",
          "type": "uint256"
        }
      ],
      "name": "RegeneratorRegistered",
      "type": "event"
    },
    {
      "anonymous": false,
      "inputs": [
        {
          "indexed": true,
          "internalType": "address",
          "name": "regeneratorAddress",
          "type": "address"
        },
        {
          "indexed": true,
          "internalType": "uint256",
          "name": "era",
          "type": "uint256"
        },
        {
          "indexed": false,
          "internalType": "uint256",
          "name": "blockNumber",
          "type": "uint256"
        }
      ],
      "name": "RegeneratorWithdrawalInitiated",
      "type": "event"
    },
    {
      "inputs": [],
      "name": "MAXIMUM_INSPECTIONS",
      "outputs": [
        {
          "internalType": "uint8",
          "name": "",
          "type": "uint8"
        }
      ],
      "stateMutability": "view",
      "type": "function"
    },
    {
      "inputs": [],
      "name": "MAX_ACTIVE_REGENERATORS",
      "outputs": [
        {
          "internalType": "uint256",
          "name": "",
          "type": "uint256"
        }
      ],
      "stateMutability": "view",
      "type": "function"
    },
    {
      "inputs": [],
      "name": "MAX_REGENERATION_AREA",
      "outputs": [
        {
          "internalType": "uint32",
          "name": "",
          "type": "uint32"
        }
      ],
      "stateMutability": "view",
      "type": "function"
    },
    {
      "inputs": [],
      "name": "MINIMUM_INSPECTIONS_TO_POOL",
      "outputs": [
        {
          "internalType": "uint8",
          "name": "",
          "type": "uint8"
        }
      ],
      "stateMutability": "view",
      "type": "function"
    },
    {
      "inputs": [],
      "name": "MIN_REGENERATION_AREA",
      "outputs": [
        {
          "internalType": "uint32",
          "name": "",
          "type": "uint32"
        }
      ],
      "stateMutability": "view",
      "type": "function"
    },
    {
      "inputs": [
        {
          "internalType": "uint32",
          "name": "totalArea",
          "type": "uint32"
        },
        {
          "internalType": "string",
          "name": "name",
          "type": "string"
        },
        {
          "internalType": "string",
          "name": "proofPhoto",
          "type": "string"
        },
        {
          "internalType": "string",
          "name": "projectDescription",
          "type": "string"
        },
        {
          "components": [
            {
              "internalType": "string",
              "name": "latitude",
              "type": "string"
            },
            {
              "internalType": "string",
              "name": "longitude",
              "type": "string"
            }
          ],
          "internalType": "struct Coordinates[]",
          "name": "_coordinates",
          "type": "tuple[]"
        }
      ],
      "name": "addRegenerator",
      "outputs": [],
      "stateMutability": "nonpayable",
      "type": "function"
    },
    {
      "inputs": [
        {
          "internalType": "address",
          "name": "addr",
          "type": "address"
        }
      ],
      "name": "afterAcceptInspection",
      "outputs": [],
      "stateMutability": "nonpayable",
      "type": "function"
    },
    {
      "inputs": [
        {
          "internalType": "address",
          "name": "addr",
          "type": "address"
        },
        {
          "internalType": "uint32",
          "name": "score",
          "type": "uint32"
        },
        {
          "internalType": "uint64",
          "name": "inspectionId",
          "type": "uint64"
        }
      ],
      "name": "afterRealizeInspection",
      "outputs": [
        {
          "internalType": "uint256",
          "name": "",
          "type": "uint256"
        }
      ],
      "stateMutability": "nonpayable",
      "type": "function"
    },
    {
      "inputs": [
        {
          "internalType": "address",
          "name": "addr",
          "type": "address"
        }
      ],
      "name": "afterRequestInspection",
      "outputs": [],
      "stateMutability": "nonpayable",
      "type": "function"
    },
    {
      "inputs": [
        {
          "internalType": "address",
          "name": "",
          "type": "address"
        }
      ],
      "name": "allowedCallers",
      "outputs": [
        {
          "internalType": "bool",
          "name": "",
          "type": "bool"
        }
      ],
      "stateMutability": "view",
      "type": "function"
    },
    {
      "inputs": [
        {
          "internalType": "address",
          "name": "",
          "type": "address"
        }
      ],
      "name": "areaPhoto",
      "outputs": [
        {
          "internalType": "string",
          "name": "",
          "type": "string"
        }
      ],
      "stateMutability": "view",
      "type": "function"
    },
    {
      "inputs": [
        {
          "internalType": "address",
          "name": "",
          "type": "address"
        }
      ],
      "name": "certifiedRegenerators",
      "outputs": [
        {
          "internalType": "bool",
          "name": "",
          "type": "bool"
        }
      ],
      "stateMutability": "view",
      "type": "function"
    },
    {
      "inputs": [],
      "name": "communityRules",
      "outputs": [
        {
          "internalType": "contract ICommunityRules",
          "name": "",
          "type": "address"
        }
      ],
      "stateMutability": "view",
      "type": "function"
    },
    {
      "inputs": [
        {
          "internalType": "address",
          "name": "",
          "type": "address"
        },
        {
          "internalType": "uint256",
          "name": "",
          "type": "uint256"
        }
      ],
      "name": "coordinates",
      "outputs": [
        {
          "internalType": "string",
          "name": "latitude",
          "type": "string"
        },
        {
          "internalType": "string",
          "name": "longitude",
          "type": "string"
        }
      ],
      "stateMutability": "view",
      "type": "function"
    },
    {
      "inputs": [
        {
          "internalType": "address",
          "name": "addr",
          "type": "address"
        }
      ],
      "name": "decrementInspections",
      "outputs": [],
      "stateMutability": "nonpayable",
      "type": "function"
    },
    {
      "inputs": [
        {
          "internalType": "address",
          "name": "addr",
          "type": "address"
        }
      ],
      "name": "getCoordinates",
      "outputs": [
        {
          "components": [
            {
              "internalType": "string",
              "name": "latitude",
              "type": "string"
            },
            {
              "internalType": "string",
              "name": "longitude",
              "type": "string"
            }
          ],
          "internalType": "struct Coordinates[]",
          "name": "",
          "type": "tuple[]"
        }
      ],
      "stateMutability": "view",
      "type": "function"
    },
    {
      "inputs": [
        {
          "internalType": "address",
          "name": "addr",
          "type": "address"
        }
      ],
      "name": "getRegenerator",
      "outputs": [
        {
          "components": [
            {
              "internalType": "uint64",
              "name": "id",
              "type": "uint64"
            },
            {
              "internalType": "address",
              "name": "regeneratorWallet",
              "type": "address"
            },
            {
              "internalType": "string",
              "name": "name",
              "type": "string"
            },
            {
              "internalType": "string",
              "name": "proofPhoto",
              "type": "string"
            },
            {
              "internalType": "uint32",
              "name": "totalArea",
              "type": "uint32"
            },
            {
              "internalType": "bool",
              "name": "pendingInspection",
              "type": "bool"
            },
            {
              "internalType": "uint256",
              "name": "totalInspections",
              "type": "uint256"
            },
            {
              "internalType": "uint256",
              "name": "lastRequestAt",
              "type": "uint256"
            },
            {
              "components": [
                {
                  "internalType": "uint256",
                  "name": "score",
                  "type": "uint256"
                }
              ],
              "internalType": "struct RegenerationScore",
              "name": "regenerationScore",
              "type": "tuple"
            },
            {
              "components": [
                {
                  "internalType": "bool",
                  "name": "onContractPool",
                  "type": "bool"
                },
                {
                  "internalType": "uint256",
                  "name": "currentEra",
                  "type": "uint256"
                }
              ],
              "internalType": "struct Pool",
              "name": "pool",
              "type": "tuple"
            },
            {
              "internalType": "uint256",
              "name": "createdAt",
              "type": "uint256"
            },
            {
              "internalType": "uint256",
              "name": "coordinatesCount",
              "type": "uint256"
            },
            {
              "internalType": "bool",
              "name": "isFullyInvalidated",
              "type": "bool"
            }
          ],
          "internalType": "struct Regenerator",
          "name": "regenerator",
          "type": "tuple"
        }
      ],
      "stateMutability": "view",
      "type": "function"
    },
    {
      "inputs": [
        {
          "internalType": "address",
          "name": "",
          "type": "address"
        }
      ],
      "name": "impactRegenerators",
      "outputs": [
        {
          "internalType": "bool",
          "name": "",
          "type": "bool"
        }
      ],
      "stateMutability": "view",
      "type": "function"
    },
    {
      "inputs": [],
      "name": "inspectionRulesAddress",
      "outputs": [
        {
          "internalType": "address",
          "name": "",
          "type": "address"
        }
      ],
      "stateMutability": "view",
      "type": "function"
    },
    {
      "inputs": [
        {
          "internalType": "address",
          "name": "caller",
          "type": "address"
        }
      ],
      "name": "isAllowedCaller",
      "outputs": [
        {
          "internalType": "bool",
          "name": "",
          "type": "bool"
        }
      ],
      "stateMutability": "view",
      "type": "function"
    },
    {
      "inputs": [],
      "name": "isRegistrationAllowed",
      "outputs": [
        {
          "internalType": "bool",
          "name": "",
          "type": "bool"
        }
      ],
      "stateMutability": "view",
      "type": "function"
    },
    {
      "inputs": [
        {
          "internalType": "address",
          "name": "allowed",
          "type": "address"
        }
      ],
      "name": "newAllowedCaller",
      "outputs": [],
      "stateMutability": "nonpayable",
      "type": "function"
    },
    {
      "inputs": [],
      "name": "nextEraIn",
      "outputs": [
        {
          "internalType": "uint256",
          "name": "",
          "type": "uint256"
        }
      ],
      "stateMutability": "view",
      "type": "function"
    },
    {
      "inputs": [],
      "name": "onCertificationRegenerators",
      "outputs": [
        {
          "internalType": "uint256",
          "name": "",
          "type": "uint256"
        }
      ],
      "stateMutability": "view",
      "type": "function"
    },
    {
      "inputs": [],
      "name": "owner",
      "outputs": [
        {
          "internalType": "address",
          "name": "",
          "type": "address"
        }
      ],
      "stateMutability": "view",
      "type": "function"
    },
    {
      "inputs": [],
      "name": "poolCurrentEra",
      "outputs": [
        {
          "internalType": "uint256",
          "name": "",
          "type": "uint256"
        }
      ],
      "stateMutability": "view",
      "type": "function"
    },
    {
      "inputs": [
        {
          "internalType": "address",
          "name": "",
          "type": "address"
        }
      ],
      "name": "projectDescriptions",
      "outputs": [
        {
          "internalType": "string",
          "name": "",
          "type": "string"
        }
      ],
      "stateMutability": "view",
      "type": "function"
    },
    {
      "inputs": [],
      "name": "regenerationArea",
      "outputs": [
        {
          "internalType": "uint256",
          "name": "",
          "type": "uint256"
        }
      ],
      "stateMutability": "view",
      "type": "function"
    },
    {
      "inputs": [],
      "name": "regenerationTotalArea",
      "outputs": [
        {
          "internalType": "uint256",
          "name": "",
          "type": "uint256"
        }
      ],
      "stateMutability": "view",
      "type": "function"
    },
    {
      "inputs": [],
      "name": "regeneratorPool",
      "outputs": [
        {
          "internalType": "contract IRegeneratorPool",
          "name": "",
          "type": "address"
        }
      ],
      "stateMutability": "view",
      "type": "function"
    },
    {
      "inputs": [
        {
          "internalType": "uint256",
          "name": "",
          "type": "uint256"
        }
      ],
      "name": "regeneratorsAddress",
      "outputs": [
        {
          "internalType": "address",
          "name": "",
          "type": "address"
        }
      ],
      "stateMutability": "view",
      "type": "function"
    },
    {
      "inputs": [
        {
          "internalType": "address",
          "name": "addr",
          "type": "address"
        },
        {
          "internalType": "uint256",
          "name": "amountToRemove",
          "type": "uint256"
        }
      ],
      "name": "removeInspectionLevels",
      "outputs": [],
      "stateMutability": "nonpayable",
      "type": "function"
    },
    {
      "inputs": [
        {
          "internalType": "address",
          "name": "addr",
          "type": "address"
        }
      ],
      "name": "removePoolLevels",
      "outputs": [],
      "stateMutability": "nonpayable",
      "type": "function"
    },
    {
      "inputs": [],
      "name": "renounceOwnership",
      "outputs": [],
      "stateMutability": "nonpayable",
      "type": "function"
    },
    {
      "inputs": [
        {
          "internalType": "address",
          "name": "_inspectionRulesAddress",
          "type": "address"
        },
        {
          "internalType": "address",
          "name": "_validationRulesAddress",
          "type": "address"
        }
      ],
      "name": "setContractCall",
      "outputs": [],
      "stateMutability": "nonpayable",
      "type": "function"
    },
    {
      "inputs": [],
      "name": "totalCertifiedRegenerators",
      "outputs": [
        {
          "internalType": "uint256",
          "name": "",
          "type": "uint256"
        }
      ],
      "stateMutability": "view",
      "type": "function"
    },
    {
      "inputs": [
        {
          "internalType": "address",
          "name": "newOwner",
          "type": "address"
        }
      ],
      "name": "transferOwnership",
      "outputs": [],
      "stateMutability": "nonpayable",
      "type": "function"
    },
    {
      "inputs": [
        {
          "internalType": "string",
          "name": "newPhoto",
          "type": "string"
        }
      ],
      "name": "updateAreaPhoto",
      "outputs": [],
      "stateMutability": "nonpayable",
      "type": "function"
    },
    {
      "inputs": [],
      "name": "validationRulesAddress",
      "outputs": [
        {
          "internalType": "address",
          "name": "",
          "type": "address"
        }
      ],
      "stateMutability": "view",
      "type": "function"
    },
    {
      "inputs": [],
      "name": "withdraw",
      "outputs": [],
      "stateMutability": "nonpayable",
      "type": "function"
    }
  ],
  "bytecode": "0x608060405234801561001057600080fd5b5060405161376d38038061376d83398101604081905261002f91610101565b338061005557604051631e4fbdf760e01b81526000600482015260240160405180910390fd5b61005e81610095565b506001600255600b80546001600160a01b039384166001600160a01b031991821617909155600c8054929093169116179055610134565b600080546001600160a01b038381166001600160a01b0319831681178455604051919092169283917f8be0079c531659141344cd1fd0a4f28419497f9722a3daafe3b4186f6b6457e09190a35050565b80516001600160a01b03811681146100fc57600080fd5b919050565b6000806040838503121561011457600080fd5b61011d836100e5565b915061012b602084016100e5565b90509250929050565b61362a806101436000396000f3fe608060405234801561001057600080fd5b50600436106102485760003560e01c80638da5cb5b1161013b578063b9a68b2b116100b8578063e05cf1551161007c578063e05cf1551461054a578063e57637f014610552578063f2fde38b1461057b578063f92f0f8e1461058e578063fd7c9ede146105a157600080fd5b8063b9a68b2b146104e7578063c38d2bff146104fa578063c3c983d214610503578063c85a58ff14610516578063ce59654a1461053757600080fd5b8063a6801258116100ff578063a680125814610458578063a77963f014610484578063aa8d536a1461049e578063ad510572146104b1578063b3c40c36146104c457600080fd5b80638da5cb5b146103ee5780638ee39472146103ff5780638f93716f1461041f5780638fbaf6011461043257806394c3cee91461044557600080fd5b806345e0e89a116101c9578063715018a61161018d578063715018a614610383578063778116101461038b5780637b3341541461039e57806385b5ee9b146103c15780638ca6bee8146103e457600080fd5b806345e0e89a1461032c5780634907b8e214610334578063582256f11461033d57806365ab21b0146103455780636ea7a2e91461036557600080fd5b8063257b4e7c11610210578063257b4e7c146102c657806336d87398146102e65780633974b345146102f05780633ccfd60b1461031b578063442f96251461032357600080fd5b8063025571761461024d57806304521ca31461026a5780631db642041461027f5780631e2d3176146102925780632429f0de146102b3575b600080fd5b6102556105a9565b60405190151581526020015b60405180910390f35b61027d6102783660046129d5565b610638565b005b61027d61028d366004612a08565b61066e565b6102a56102a0366004612a53565b6106e0565b604051908152602001610261565b61027d6102c1366004612a9a565b61087a565b6102d96102d4366004612a08565b610988565b6040516102619190612b0a565b6102a56207a12081565b601154610303906001600160a01b031681565b6040516001600160a01b039091168152602001610261565b61027d610a22565b6102a5600f5481565b600f546102a5565b6102a5600d5481565b6102a5610c02565b610358610353366004612a08565b610c82565b6040516102619190612b1d565b61036e6109c481565b60405163ffffffff9091168152602001610261565b61027d610e9b565b61027d610399366004612ccb565b610ead565b6102556103ac366004612a08565b60016020526000908152604090205460ff1681565b6102556103cf366004612a08565b60076020526000908152604090205460ff1681565b61036e620f424081565b6000546001600160a01b0316610303565b61041261040d366004612a08565b610fbd565b6040516102619190612d07565b61027d61042d366004612a08565b6113de565b601054610303906001600160a01b031681565b61027d610453366004612a08565b61140d565b610255610466366004612a08565b6001600160a01b031660009081526001602052604090205460ff1690565b61048c600381565b60405160ff9091168152602001610261565b6102d96104ac366004612a08565b611496565b600c54610303906001600160a01b031681565b6102556104d2366004612a08565b60086020526000908152604090205460ff1681565b61027d6104f5366004612d93565b6114af565b6102a5600e5481565b61027d610511366004612a08565b611ab3565b610529610524366004612a9a565b611c24565b604051610261929190612e99565b600b54610303906001600160a01b031681565b6102a5611d75565b610303610560366004612ec7565b6004602052600090815260409020546001600160a01b031681565b61027d610589366004612a08565b611dbf565b61027d61059c366004612a08565b611dfd565b61048c600681565b600e54600b54604051632f22dc7b60e01b81526000926207a1209290916001600160a01b0390911690632f22dc7b906105e790600190600401612f02565b602060405180830381865afa158015610604573d6000803e3d6000fd5b505050506040513d601f19601f820116820180604052508101906106289190612f16565b6106329190612f45565b10905090565b610640611f6a565b601080546001600160a01b039384166001600160a01b03199182161790915560118054929093169116179055565b3360009081526001602052604090205460ff166106a65760405162461bcd60e51b815260040161069d90612f58565b60405180910390fd5b6010546001600160a01b03163381146106d15760405162461bcd60e51b815260040161069d90612f84565b6106dc826000611f97565b5050565b3360009081526001602052604081205460ff1661070f5760405162461bcd60e51b815260040161069d90612f58565b6010546001600160a01b031633811461073a5760405162461bcd60e51b815260040161069d90612f84565b610742611fd2565b604063ffffffff851611156107895760405162461bcd60e51b815260206004820152600d60248201526c4d6178696d756d2073636f726560981b604482015260640161069d565b6001600160401b0383166000908152600a602052604090205460ff16156107fe5760405162461bcd60e51b8152602060048201526024808201527f496e7370656374696f6e20726573756c747320616c7265616479207375626d696044820152631d1d195960e21b606482015260840161069d565b6001600160401b0383166000908152600a60205260408120805460ff1916600117905563ffffffff85161561083d5761083686611ffa565b905061085b565b506001600160a01b0385166000908152600360205260409020600401545b610866868686612101565b91506108726001600255565b509392505050565b3360009081526001602052604090205460ff166108a95760405162461bcd60e51b815260040161069d90612f58565b6010546001600160a01b03163381146108d45760405162461bcd60e51b815260040161069d90612f84565b6108dc611fd2565b6001600160a01b03831660009081526003602052604081206006018054849290610907908490612f45565b9091555050600c54604051631af0d89760e01b81526001600160a01b038581166004830152602482018590526000604483015290911690631af0d89790606401600060405180830381600087803b15801561096157600080fd5b505af1158015610975573d6000803e3d6000fd5b505050506109836001600255565b505050565b600960205260009081526040902080546109a190612fbb565b80601f01602080910402602001604051908101604052809291908181526020018280546109cd90612fbb565b8015610a1a5780601f106109ef57610100808354040283529160200191610a1a565b820191906000526020600020905b8154815290600101906020018083116109fd57829003601f168201915b505050505081565b610a2a611fd2565b600b54604051631292f8c160e31b81526001600160a01b0390911690639497c60890610a5d906001903390600401612ff5565b602060405180830381865afa158015610a7a573d6000803e3d6000fd5b505050506040513d601f19601f82011682018060405250810190610a9e919061301b565b610ae35760405162461bcd60e51b815260206004820152601660248201527513db9b1e481c9959d95b995c985d1bdc9cc81c1bdbdb60521b604482015260640161069d565b3360009081526003602052604090206004810154610b02906003111590565b610b445760405162461bcd60e51b81526020600482015260136024820152724d696e696d756d20696e7370656374696f6e7360681b604482015260640161069d565b6008810154610b5481600161303d565b6008830155600c5460405163f3fef3a360e01b8152336004820152602481018390526001600160a01b039091169063f3fef3a390604401600060405180830381600087803b158015610ba557600080fd5b505af1158015610bb9573d6000803e3d6000fd5b50506040514381528392503391507f81f7cfdaaebb3eb89eee117bbfcd1e956d1c8bfa759f5eda2ba6f63551a4db209060200160405180910390a35050610c006001600255565b565b600c546000906001600160a01b031663d5ee3eb5610c1e611d75565b6040518263ffffffff1660e01b8152600401610c3c91815260200190565b602060405180830381865afa158015610c59573d6000803e3d6000fd5b505050506040513d601f19601f82011682018060405250810190610c7d9190612f16565b905090565b610c8a612904565b6001600160a01b0380831660009081526003602090815260409182902082516101a08101845281546001600160401b0381168252600160401b9004909416918401919091526001810180549192840191610ce390612fbb565b80601f0160208091040260200160405190810160405280929190818152602001828054610d0f90612fbb565b8015610d5c5780601f10610d3157610100808354040283529160200191610d5c565b820191906000526020600020905b815481529060010190602001808311610d3f57829003601f168201915b50505050508152602001600282018054610d7590612fbb565b80601f0160208091040260200160405190810160405280929190818152602001828054610da190612fbb565b8015610dee5780601f10610dc357610100808354040283529160200191610dee565b820191906000526020600020905b815481529060010190602001808311610dd157829003601f168201915b5050509183525050600382015463ffffffff811660208084019190915260ff640100000000909204821615156040808501919091526004850154606085015260058501546080850152805180830182526006860154815260a08501528051808201909152600785015483161515815260088501549181019190915260c0830152600983015460e0830152600a830154610100830152600b9092015490911615156101209091015292915050565b610ea3611f6a565b610c006000612296565b805160961015610ef05760405162461bcd60e51b815260206004820152600e60248201526d4d6178206368617261637465727360901b604482015260640161069d565b600b54604051631292f8c160e31b81526001600160a01b0390911690639497c60890610f23906001903390600401612ff5565b602060405180830381865afa158015610f40573d6000803e3d6000fd5b505050506040513d601f19601f82011682018060405250810190610f64919061301b565b610fa45760405162461bcd60e51b81526020600482015260116024820152704f6e6c7920726567656e657261746f727360781b604482015260640161069d565b3360009081526009602052604090206106dc82826130ac565b6001600160a01b03808216600090815260036020908152604080832081516101a08101835281546001600160401b0381168252600160401b90049095169285019290925260018201805460609593928401919061101990612fbb565b80601f016020809104026020016040519081016040528092919081815260200182805461104590612fbb565b80156110925780601f1061106757610100808354040283529160200191611092565b820191906000526020600020905b81548152906001019060200180831161107557829003601f168201915b505050505081526020016002820180546110ab90612fbb565b80601f01602080910402602001604051908101604052809291908181526020018280546110d790612fbb565b80156111245780601f106110f957610100808354040283529160200191611124565b820191906000526020600020905b81548152906001019060200180831161110757829003601f168201915b5050509183525050600382015463ffffffff811660208084019190915260ff640100000000909204821615156040808501919091526004850154606085015260058501546080850152805180830182526006860154815260a08501528051808201909152600785015483161515815260088501549181019190915260c0830152600983015460e0830152600a830154610100830152600b909201549091161515610120909101526101608101519091506000906001600160401b038111156111ee576111ee612c28565b60405190808252806020026020018201604052801561123357816020015b604080518082019091526060808252602082015281526020019060019003908161120c5790505b5061016083015190915060005b818110156113d4576001600160a01b038616600090815260056020526040902080548290811061127257611272613164565b906000526020600020906002020160405180604001604052908160008201805461129b90612fbb565b80601f01602080910402602001604051908101604052809291908181526020018280546112c790612fbb565b80156113145780601f106112e957610100808354040283529160200191611314565b820191906000526020600020905b8154815290600101906020018083116112f757829003601f168201915b5050505050815260200160018201805461132d90612fbb565b80601f016020809104026020016040519081016040528092919081815260200182805461135990612fbb565b80156113a65780601f1061137b576101008083540402835291602001916113a6565b820191906000526020600020905b81548152906001019060200180831161138957829003601f168201915b5050505050815250508382815181106113c1576113c1613164565b6020908102919091010152600101611240565b5090949350505050565b6113e6611f6a565b6001600160a01b03166000908152600160208190526040909120805460ff19169091179055565b3360009081526001602052604090205460ff1661143c5760405162461bcd60e51b815260040161069d90612f58565b6010546001600160a01b03163381146114675760405162461bcd60e51b815260040161069d90612f84565b611472826001611f97565b6106dc82436001600160a01b03909116600090815260036020526040902060050155565b600660205260009081526040902080546109a190612fbb565b84516032108015906114c357508351609610155b80156114d15750825160c810155b6115165760405162461bcd60e51b815260206004820152601660248201527513585e0818da185c9858dd195c9cc81c995858da195960521b604482015260640161069d565b600381108015906115285750600a8111155b6115875760405162461bcd60e51b815260206004820152602a60248201527f4d696e696d756d203320616e64206d6178696d756d20313020636f6f7264696e60448201526961746520706f696e747360b01b606482015260840161069d565b6109c463ffffffff8716108015906115a85750620f424063ffffffff871611155b61160d5760405162461bcd60e51b815260206004820152603060248201527f4d696e696d756d203235303020616e64206d6178696d756d20312e3030302e3060448201526f303020737175617265206d657465727360801b606482015260840161069d565b6116156105a9565b6116725760405162461bcd60e51b815260206004820152602860248201527f5761697420666f7220766163616e63793a204d617820726567656e657261746f6044820152671c9cc81b1a5b5a5d60c21b606482015260840161069d565b61167c82826122e6565b600b5460405162f5960960e51b81526000916001600160a01b031690631eb2c120906116ad90600190600401612f02565b602060405180830381865afa1580156116ca573d6000803e3d6000fd5b505050506040513d601f19601f820116820180604052508101906116ee919061317a565b6116f9906001613197565b9050604051806101a00160405280826001600160401b03168152602001336001600160a01b031681526020018781526020018681526020018863ffffffff16815260200160001515815260200160008152602001600081526020016040518060200160405280600081525081526020016040518060400160405280600015158152602001600c60009054906101000a90046001600160a01b03166001600160a01b031663ed0df79e6040518163ffffffff1660e01b8152600401602060405180830381865afa1580156117d0573d6000803e3d6000fd5b505050506040513d601f19601f820116820180604052508101906117f49190612f16565b9052815243602080830191909152604080830186905260006060909301839052338352600382529182902083518154928501516001600160a01b0316600160401b026001600160e01b03199093166001600160401b039091161791909117815590820151600182019061186790826130ac565b506060820151600282019061187c90826130ac565b50608082015160038201805460a085015115156401000000000264ffffffffff1990911663ffffffff9093169290921791909117905560c082015160048083019190915560e0830151600583015561010083015151600680840191909155610120840151805160078501805491151560ff1992831617905560209182015160088601556101408601516009860155610160860151600a86015561018090950151600b909401805494151594909516939093179093556001600160401b0384166000908152908252604080822080546001600160a01b031916339081179091558252929091522061196c85826130ac565b50600b54604051639c3eead960e01b81526001600160a01b0390911690639c3eead9906119a09033906001906004016131b6565b600060405180830381600087803b1580156119ba57600080fd5b505af11580156119ce573d6000803e3d6000fd5b505050508663ffffffff16600f60008282546119ea919061303d565b90915550600090505b82811015611a5a57336000908152600560205260409020848483818110611a1c57611a1c613164565b9050602002810190611a2e91906131d3565b815460018101835560009283526020909220909160020201611a5082826132f9565b50506001016119f3565b50336001600160a01b0316816001600160401b03167fe7929ab3a316468d25671f32aa731ca41460f5459029b8ed818d4d32152c7f00888a43604051611aa2939291906133db565b60405180910390a350505050505050565b3360009081526001602052604090205460ff16611ae25760405162461bcd60e51b815260040161069d90612f58565b6010546001600160a01b0316338114611b0d5760405162461bcd60e51b815260040161069d90612f84565b6001600160a01b03821660009081526003602052604090206004015480611b765760405162461bcd60e51b815260206004820152601860248201527f746f74616c496e7370656374696f6e7320696e76616c69640000000000000000604482015260640161069d565b80600103611bb457600d8054906000611b8e83613406565b90915550506001600160a01b0383166000908152600760205260409020805460ff191690555b6005198101611bf357600e8054906000611bcd83613406565b90915550506001600160a01b0383166000908152600860205260409020805460ff191690555b6001600160a01b0383166000908152600360205260408120600401805491611c1a83613406565b9190505550505050565b60056020528160005260406000208181548110611c4057600080fd5b906000526020600020906002020160009150915050806000018054611c6490612fbb565b80601f0160208091040260200160405190810160405280929190818152602001828054611c9090612fbb565b8015611cdd5780601f10611cb257610100808354040283529160200191611cdd565b820191906000526020600020905b815481529060010190602001808311611cc057829003601f168201915b505050505090806001018054611cf290612fbb565b80601f0160208091040260200160405190810160405280929190818152602001828054611d1e90612fbb565b8015611d6b5780601f10611d4057610100808354040283529160200191611d6b565b820191906000526020600020905b815481529060010190602001808311611d4e57829003601f168201915b5050505050905082565b600c5460408051637686fbcf60e11b815290516000926001600160a01b03169163ed0df79e9160048083019260209291908290030181865afa158015610c59573d6000803e3d6000fd5b611dc7611f6a565b6001600160a01b038116611df157604051631e4fbdf760e01b81526000600482015260240161069d565b611dfa81612296565b50565b3360009081526001602052604090205460ff16611e2c5760405162461bcd60e51b815260040161069d90612f58565b6011546001600160a01b0316338114611e575760405162461bcd60e51b815260040161069d90612f84565b611e5f611fd2565b6001600160a01b0382166000908152600360205260409020600b81015460ff1615611eda5760405162461bcd60e51b815260206004820152602560248201527f526567656e657261746f7220616c72656164792066756c6c7920696e76616c6960448201526419185d195960da1b606482015260840161069d565b600b8101805460ff19166001179055611ef283612536565b600c54604051631af0d89760e01b81526001600160a01b038581166004830152600060248301526001604483015290911690631af0d89790606401600060405180830381600087803b158015611f4757600080fd5b505af1158015611f5b573d6000803e3d6000fd5b50505050506106dc6001600255565b6000546001600160a01b03163314610c005760405163118cdaa760e01b815233600482015260240161069d565b6001600160a01b0390911660009081526003602081905260409091200180549115156401000000000264ff0000000019909216919091179055565b6002805403611ff457604051633ee5aeb560e01b815260040160405180910390fd5b60028055565b6001600160a01b038116600090815260036020526040812060048101805490836120238361341d565b90915550506001600160a01b03831660009081526007602052604090205460ff1661207f576001600160a01b0383166000908152600760205260408120805460ff19166001179055600d8054916120798361341d565b91905055505b6004810154600519016120f7576001600160a01b0383166000908152600860205260408120805460ff19166001179055600e8054916120bd8361341d565b90915550506040516001600160a01b038416907f93a038d030ae217569bb08e5257262840e0aeafc36b94b7cfb2dc41deabed21690600090a25b6004015492915050565b6001600160a01b0383166000908152600360205260408120805490916001600160401b0390911690036121765760405162461bcd60e51b815260206004820152601a60248201527f526567656e657261746f7220646f6573206e6f74206578697374000000000000604482015260640161069d565b8263ffffffff16816006016000016000828254612193919061303d565b90915550506004810154600311156121ab5750505050565b600781015463ffffffff84169060ff1661221a575060078101805460ff1916600117905560068101546040516001600160a01b038616907fdf477f1abb30c779b76ead783acd2084230ef08ba1570ce9dee934c0c5b93b9d906122119043815260200190565b60405180910390a25b600c546040516338e8490d60e11b81526001600160a01b038781166004830152602482018490526001600160401b0386166044830152909116906371d0921a90606401600060405180830381600087803b15801561227757600080fd5b505af115801561228b573d6000803e3d6000fd5b505050505050505050565b600080546001600160a01b038381166001600160a01b0319831681178455604051919092169283917f8be0079c531659141344cd1fd0a4f28419497f9722a3daafe3b4186f6b6457e09190a35050565b80620f424060005b8281101561252f57600061236386868481811061230d5761230d613164565b905060200281019061231f91906131d3565b61232990806131f3565b8080601f01602080910402602001604051908101604052809392919081815260200183838082843760009201919091525061257492505050565b9050600061239c87878581811061237c5761237c613164565b905060200281019061238e91906131d3565b6123299060208101906131f3565b90506123aa84605919613436565b82121580156123c357506123bf84605a613436565b8213155b6124025760405162461bcd60e51b815260206004820152601060248201526f496e76616c6964206c6174697475646560801b604482015260640161069d565b61240e8460b319613436565b811215801561242757506124238460b4613436565b8113155b6124675760405162461bcd60e51b8152602060048201526011602482015270496e76616c6964206c6f6e67697475646560781b604482015260640161069d565b600061247484600161303d565b90505b8581101561252457600061249689898481811061230d5761230d613164565b905060006124af8a8a8581811061237c5761237c613164565b905081851415806124c05750808414155b61251a5760405162461bcd60e51b815260206004820152602560248201527f4475706c696361746520636f6f7264696e6174657320617265206e6f7420616c6044820152641b1bddd95960da1b606482015260840161069d565b5050600101612477565b5050506001016122ee565b5050505050565b6001600160a01b038116600090815260036020819052604082200154600f805463ffffffff90921692909161256c908490612f45565b909155505050565b805160009082901580159061258a5750601e8151105b6125d65760405162461bcd60e51b815260206004820181905260248201527f496e76616c696420636f6f7264696e61746520737472696e67206c656e677468604482015260640161069d565b6000806000199050600080846000815181106125f4576125f4613164565b01602001516001600160f81b031916602d60f81b03612614575060019050805b815b855181101561276757600086828151811061263357612633613164565b01602001516001600160f81b03191690506000600360fc1b82108015906126685750603960f81b6001600160f81b0319831611155b9050601760f91b6001600160f81b031983161481806126845750805b6126d05760405162461bcd60e51b815260206004820152601f60248201527f496e76616c69642063686172616374657220696e20636f6f7264696e61746500604482015260640161069d565b801561272f5786600019146127275760405162461bcd60e51b815260206004820152601b60248201527f4d756c7469706c6520646f747320696e20636f6f7264696e6174650000000000604482015260640161069d565b83965061275c565b861961275c57612744603060f885901c613466565b61274f89600a613436565b612759919061348d565b97505b505050600101612616565b5082600019146128d5576000808061278086600161303d565b90505b8751811080156127935750600682105b1561287f5760008882815181106127ac576127ac613164565b01602001516001600160f81b0319169050600360fc1b81108015906127df5750603960f81b6001600160f81b0319821611155b6128355760405162461bcd60e51b815260206004820152602160248201527f496e76616c69642063686172616374657220696e20646563696d616c207061726044820152601d60fa1b606482015260840161069d565b612844603060f883901c6134b5565b60ff1661285285600a6134ce565b61285c919061303d565b9350826128688161341d565b9350505080806128779061341d565b915050612783565b508161288c82600a6135cc565b6128969088613436565b6128a0919061348d565b955060068110156128ce576128b6816006612f45565b6128c190600a6135cc565b6128cb9087613436565b95505b50506128e5565b6128e284620f4240613436565b93505b806128f057836128f9565b6128f9846135d8565b979650505050505050565b604051806101a0016040528060006001600160401b0316815260200160006001600160a01b031681526020016060815260200160608152602001600063ffffffff16815260200160001515815260200160008152602001600081526020016129786040518060200160405280600081525090565b815260200161299c6040518060400160405280600015158152602001600081525090565b815260200160008152602001600081526020016000151581525090565b80356001600160a01b03811681146129d057600080fd5b919050565b600080604083850312156129e857600080fd5b6129f1836129b9565b91506129ff602084016129b9565b90509250929050565b600060208284031215612a1a57600080fd5b612a23826129b9565b9392505050565b803563ffffffff811681146129d057600080fd5b6001600160401b0381168114611dfa57600080fd5b600080600060608486031215612a6857600080fd5b612a71846129b9565b9250612a7f60208501612a2a565b91506040840135612a8f81612a3e565b809150509250925092565b60008060408385031215612aad57600080fd5b612ab6836129b9565b946020939093013593505050565b6000815180845260005b81811015612aea57602081850181015186830182015201612ace565b506000602082860101526020601f19601f83011685010191505092915050565b602081526000612a236020830184612ac4565b60208152612b376020820183516001600160401b03169052565b60006020830151612b5360408401826001600160a01b03169052565b5060408301516101c06060840152612b6f6101e0840182612ac4565b90506060840151601f19848303016080850152612b8c8282612ac4565b9150506080840151612ba660a085018263ffffffff169052565b5060a084015180151560c08501525060c084015160e084015260e0840151610100840152610100840151612bde610120850182519052565b50610120840151805115156101408501526020810151610160850152506101408401516101808401526101608401516101a08401526101808401516108726101c085018215159052565b634e487b7160e01b600052604160045260246000fd5b600082601f830112612c4f57600080fd5b81356001600160401b03811115612c6857612c68612c28565b604051601f8201601f19908116603f011681016001600160401b0381118282101715612c9657612c96612c28565b604052818152838201602001851015612cae57600080fd5b816020850160208301376000918101602001919091529392505050565b600060208284031215612cdd57600080fd5b81356001600160401b03811115612cf357600080fd5b612cff84828501612c3e565b949350505050565b6000602082016020835280845180835260408501915060408160051b86010192506020860160005b82811015612d8757603f198786030184528151805160408752612d556040880182612ac4565b9050602082015191508681036020880152612d708183612ac4565b965050506020938401939190910190600101612d2f565b50929695505050505050565b60008060008060008060a08789031215612dac57600080fd5b612db587612a2a565b955060208701356001600160401b03811115612dd057600080fd5b612ddc89828a01612c3e565b95505060408701356001600160401b03811115612df857600080fd5b612e0489828a01612c3e565b94505060608701356001600160401b03811115612e2057600080fd5b612e2c89828a01612c3e565b93505060808701356001600160401b03811115612e4857600080fd5b8701601f81018913612e5957600080fd5b80356001600160401b03811115612e6f57600080fd5b8960208260051b8401011115612e8457600080fd5b60208201935080925050509295509295509295565b604081526000612eac6040830185612ac4565b8281036020840152612ebe8185612ac4565b95945050505050565b600060208284031215612ed957600080fd5b5035919050565b60088110612efe57634e487b7160e01b600052602160045260246000fd5b9052565b60208101612f108284612ee0565b92915050565b600060208284031215612f2857600080fd5b5051919050565b634e487b7160e01b600052601160045260246000fd5b81810381811115612f1057612f10612f2f565b6020808252601290820152712737ba1030b63637bbb2b21031b0b63632b960711b604082015260600190565b6020808252601e908201527f43616c6c6572206d7573742062652073797374656d20636f6e74726163740000604082015260600190565b600181811c90821680612fcf57607f821691505b602082108103612fef57634e487b7160e01b600052602260045260246000fd5b50919050565b604081016130038285612ee0565b6001600160a01b039290921660209190910152919050565b60006020828403121561302d57600080fd5b81518015158114612a2357600080fd5b80820180821115612f1057612f10612f2f565b601f82111561098357806000526020600020601f840160051c810160208510156130775750805b601f840160051c820191505b8181101561252f5760008155600101613083565b600019600383901b1c191660019190911b1790565b81516001600160401b038111156130c5576130c5612c28565b6130d9816130d38454612fbb565b84613050565b6020601f82116001811461310757600083156130f55750848201515b6130ff8482613097565b85555061252f565b600084815260208120601f198516915b828110156131375787850151825560209485019460019092019101613117565b50848210156131555786840151600019600387901b60f8161c191681555b50505050600190811b01905550565b634e487b7160e01b600052603260045260246000fd5b60006020828403121561318c57600080fd5b8151612a2381612a3e565b6001600160401b038181168382160190811115612f1057612f10612f2f565b6001600160a01b038316815260408101612a236020830184612ee0565b60008235603e198336030181126131e957600080fd5b9190910192915050565b6000808335601e1984360301811261320a57600080fd5b8301803591506001600160401b0382111561322457600080fd5b60200191503681900382131561323957600080fd5b9250929050565b6001600160401b0383111561325757613257612c28565b61326b836132658354612fbb565b83613050565b6000601f84116001811461329957600085156132875750838201355b6132918682613097565b84555061252f565b600083815260209020601f19861690835b828110156132ca57868501358255602094850194600190920191016132aa565b50868210156132e75760001960f88860031b161c19848701351681555b505060018560011b0183555050505050565b61330382836131f3565b6001600160401b0381111561331a5761331a612c28565b61332e816133288554612fbb565b85613050565b6000601f82116001811461335c576000831561334a5750838201355b6133548482613097565b8655506133b6565b600085815260209020601f19841690835b8281101561338d578685013582556020948501946001909201910161336d565b50848210156133aa5760001960f88660031b161c19848701351681555b505060018360011b0185555b505050506133c760208301836131f3565b6133d5818360018601613240565b50505050565b6060815260006133ee6060830186612ac4565b63ffffffff9490941660208301525060400152919050565b60008161341557613415612f2f565b506000190190565b60006001820161342f5761342f612f2f565b5060010190565b80820260008212600160ff1b8414161561345257613452612f2f565b8181058314821517612f1057612f10612f2f565b818103600083128015838313168383128216171561348657613486612f2f565b5092915050565b80820182811260008312801582168215821617156134ad576134ad612f2f565b505092915050565b60ff8281168282160390811115612f1057612f10612f2f565b8082028115828204841417612f1057612f10612f2f565b6001815b60018411156135205780850481111561350457613504612f2f565b600184161561351257908102905b60019390931c9280026134e9565b935093915050565b60008261353757506001612f10565b8161354457506000612f10565b816001811461355a576002811461356457613580565b6001915050612f10565b60ff84111561357557613575612f2f565b50506001821b612f10565b5060208310610133831016604e8410600b84101617156135a3575081810a612f10565b6135b060001984846134e5565b80600019048211156135c4576135c4612f2f565b029392505050565b6000612a238383613528565b6000600160ff1b82016135ed576135ed612f2f565b506000039056fea2646970667358221220e3c0d2071e054e4f1bc9c099063573a63979e80200b7db6f2561c7a63fed86ee64736f6c634300081b0033",
  "linkReferences": {},
  "deployedLinkReferences": {}
}