{
  "_format": "hh-sol-artifact-1",
  "contractName": "RegenerationCredit",
  "sourceName": "contracts/RegenerationCredit.sol",
  "abi": [
    {
      "inputs": [
        {
          "internalType": "uint256",
          "name": "totalSupply",
          "type": "uint256"
        }
      ],
      "stateMutability": "nonpayable",
      "type": "constructor"
    },
    {
      "inputs": [
        {
          "internalType": "address",
          "name": "spender",
          "type": "address"
        },
        {
          "internalType": "uint256",
          "name": "allowance",
          "type": "uint256"
        },
        {
          "internalType": "uint256",
          "name": "needed",
          "type": "uint256"
        }
      ],
      "name": "ERC20InsufficientAllowance",
      "type": "error"
    },
    {
      "inputs": [
        {
          "internalType": "address",
          "name": "sender",
          "type": "address"
        },
        {
          "internalType": "uint256",
          "name": "balance",
          "type": "uint256"
        },
        {
          "internalType": "uint256",
          "name": "needed",
          "type": "uint256"
        }
      ],
      "name": "ERC20InsufficientBalance",
      "type": "error"
    },
    {
      "inputs": [
        {
          "internalType": "address",
          "name": "approver",
          "type": "address"
        }
      ],
      "name": "ERC20InvalidApprover",
      "type": "error"
    },
    {
      "inputs": [
        {
          "internalType": "address",
          "name": "receiver",
          "type": "address"
        }
      ],
      "name": "ERC20InvalidReceiver",
      "type": "error"
    },
    {
      "inputs": [
        {
          "internalType": "address",
          "name": "sender",
          "type": "address"
        }
      ],
      "name": "ERC20InvalidSender",
      "type": "error"
    },
    {
      "inputs": [
        {
          "internalType": "address",
          "name": "spender",
          "type": "address"
        }
      ],
      "name": "ERC20InvalidSpender",
      "type": "error"
    },
    {
      "inputs": [
        {
          "internalType": "address",
          "name": "owner",
          "type": "address"
        }
      ],
      "name": "OwnableInvalidOwner",
      "type": "error"
    },
    {
      "inputs": [
        {
          "internalType": "address",
          "name": "account",
          "type": "address"
        }
      ],
      "name": "OwnableUnauthorizedAccount",
      "type": "error"
    },
    {
      "inputs": [],
      "name": "ReentrancyGuardReentrantCall",
      "type": "error"
    },
    {
      "anonymous": false,
      "inputs": [
        {
          "indexed": true,
          "internalType": "address",
          "name": "owner",
          "type": "address"
        },
        {
          "indexed": true,
          "internalType": "address",
          "name": "spender",
          "type": "address"
        },
        {
          "indexed": false,
          "internalType": "uint256",
          "name": "value",
          "type": "uint256"
        }
      ],
      "name": "Approval",
      "type": "event"
    },
    {
      "anonymous": false,
      "inputs": [
        {
          "indexed": true,
          "internalType": "address",
          "name": "previousOwner",
          "type": "address"
        },
        {
          "indexed": true,
          "internalType": "address",
          "name": "newOwner",
          "type": "address"
        }
      ],
      "name": "OwnershipTransferred",
      "type": "event"
    },
    {
      "anonymous": false,
      "inputs": [
        {
          "indexed": true,
          "internalType": "address",
          "name": "from",
          "type": "address"
        },
        {
          "indexed": true,
          "internalType": "address",
          "name": "to",
          "type": "address"
        },
        {
          "indexed": false,
          "internalType": "uint256",
          "name": "amount",
          "type": "uint256"
        }
      ],
      "name": "PoolTransfer",
      "type": "event"
    },
    {
      "anonymous": false,
      "inputs": [
        {
          "indexed": true,
          "internalType": "address",
          "name": "account",
          "type": "address"
        },
        {
          "indexed": false,
          "internalType": "uint256",
          "name": "amount",
          "type": "uint256"
        },
        {
          "indexed": false,
          "internalType": "uint256",
          "name": "newAccountCertifiedTotal",
          "type": "uint256"
        }
      ],
      "name": "TokensCertified",
      "type": "event"
    },
    {
      "anonymous": false,
      "inputs": [
        {
          "indexed": true,
          "internalType": "address",
          "name": "from",
          "type": "address"
        },
        {
          "indexed": true,
          "internalType": "address",
          "name": "to",
          "type": "address"
        },
        {
          "indexed": false,
          "internalType": "uint256",
          "name": "value",
          "type": "uint256"
        }
      ],
      "name": "Transfer",
      "type": "event"
    },
    {
      "inputs": [],
      "name": "DECIMALS",
      "outputs": [
        {
          "internalType": "uint8",
          "name": "",
          "type": "uint8"
        }
      ],
      "stateMutability": "view",
      "type": "function"
    },
    {
      "inputs": [],
      "name": "NAME",
      "outputs": [
        {
          "internalType": "string",
          "name": "",
          "type": "string"
        }
      ],
      "stateMutability": "view",
      "type": "function"
    },
    {
      "inputs": [],
      "name": "SYMBOL",
      "outputs": [
        {
          "internalType": "string",
          "name": "",
          "type": "string"
        }
      ],
      "stateMutability": "view",
      "type": "function"
    },
    {
      "inputs": [
        {
          "internalType": "address",
          "name": "_fundAddress",
          "type": "address"
        },
        {
          "internalType": "uint256",
          "name": "_numTokens",
          "type": "uint256"
        }
      ],
      "name": "addContractPool",
      "outputs": [
        {
          "internalType": "bool",
          "name": "",
          "type": "bool"
        }
      ],
      "stateMutability": "nonpayable",
      "type": "function"
    },
    {
      "inputs": [
        {
          "internalType": "address",
          "name": "owner",
          "type": "address"
        },
        {
          "internalType": "address",
          "name": "spender",
          "type": "address"
        }
      ],
      "name": "allowance",
      "outputs": [
        {
          "internalType": "uint256",
          "name": "",
          "type": "uint256"
        }
      ],
      "stateMutability": "view",
      "type": "function"
    },
    {
      "inputs": [
        {
          "internalType": "address",
          "name": "spender",
          "type": "address"
        },
        {
          "internalType": "uint256",
          "name": "value",
          "type": "uint256"
        }
      ],
      "name": "approve",
      "outputs": [
        {
          "internalType": "bool",
          "name": "",
          "type": "bool"
        }
      ],
      "stateMutability": "nonpayable",
      "type": "function"
    },
    {
      "inputs": [
        {
          "internalType": "address",
          "name": "account",
          "type": "address"
        }
      ],
      "name": "balanceOf",
      "outputs": [
        {
          "internalType": "uint256",
          "name": "",
          "type": "uint256"
        }
      ],
      "stateMutability": "view",
      "type": "function"
    },
    {
      "inputs": [
        {
          "internalType": "uint256",
          "name": "amount",
          "type": "uint256"
        }
      ],
      "name": "burnTokens",
      "outputs": [],
      "stateMutability": "nonpayable",
      "type": "function"
    },
    {
      "inputs": [
        {
          "internalType": "address",
          "name": "",
          "type": "address"
        }
      ],
      "name": "certificate",
      "outputs": [
        {
          "internalType": "uint256",
          "name": "",
          "type": "uint256"
        }
      ],
      "stateMutability": "view",
      "type": "function"
    },
    {
      "inputs": [
        {
          "internalType": "address",
          "name": "poolAddress",
          "type": "address"
        }
      ],
      "name": "contractPool",
      "outputs": [
        {
          "internalType": "bool",
          "name": "",
          "type": "bool"
        }
      ],
      "stateMutability": "view",
      "type": "function"
    },
    {
      "inputs": [],
      "name": "decimals",
      "outputs": [
        {
          "internalType": "uint8",
          "name": "",
          "type": "uint8"
        }
      ],
      "stateMutability": "view",
      "type": "function"
    },
    {
      "inputs": [
        {
          "internalType": "uint256",
          "name": "numTokens",
          "type": "uint256"
        }
      ],
      "name": "decreaseLocked",
      "outputs": [],
      "stateMutability": "nonpayable",
      "type": "function"
    },
    {
      "inputs": [],
      "name": "name",
      "outputs": [
        {
          "internalType": "string",
          "name": "",
          "type": "string"
        }
      ],
      "stateMutability": "view",
      "type": "function"
    },
    {
      "inputs": [
        {
          "internalType": "uint256",
          "name": "amount",
          "type": "uint256"
        },
        {
          "internalType": "uint64",
          "name": "calculatorItemId",
          "type": "uint64"
        }
      ],
      "name": "offset",
      "outputs": [],
      "stateMutability": "nonpayable",
      "type": "function"
    },
    {
      "inputs": [],
      "name": "owner",
      "outputs": [
        {
          "internalType": "address",
          "name": "",
          "type": "address"
        }
      ],
      "stateMutability": "view",
      "type": "function"
    },
    {
      "inputs": [
        {
          "internalType": "uint256",
          "name": "amount",
          "type": "uint256"
        },
        {
          "internalType": "string",
          "name": "description",
          "type": "string"
        },
        {
          "internalType": "string",
          "name": "content",
          "type": "string"
        }
      ],
      "name": "publish",
      "outputs": [],
      "stateMutability": "nonpayable",
      "type": "function"
    },
    {
      "inputs": [],
      "name": "renounceOwnership",
      "outputs": [],
      "stateMutability": "nonpayable",
      "type": "function"
    },
    {
      "inputs": [
        {
          "internalType": "address",
          "name": "supporterRulesAddress",
          "type": "address"
        }
      ],
      "name": "setContractInterfaces",
      "outputs": [],
      "stateMutability": "nonpayable",
      "type": "function"
    },
    {
      "inputs": [],
      "name": "symbol",
      "outputs": [
        {
          "internalType": "string",
          "name": "",
          "type": "string"
        }
      ],
      "stateMutability": "view",
      "type": "function"
    },
    {
      "inputs": [],
      "name": "totalCertified",
      "outputs": [
        {
          "internalType": "uint256",
          "name": "",
          "type": "uint256"
        }
      ],
      "stateMutability": "view",
      "type": "function"
    },
    {
      "inputs": [],
      "name": "totalCertified_",
      "outputs": [
        {
          "internalType": "uint256",
          "name": "",
          "type": "uint256"
        }
      ],
      "stateMutability": "view",
      "type": "function"
    },
    {
      "inputs": [],
      "name": "totalLocked",
      "outputs": [
        {
          "internalType": "uint256",
          "name": "",
          "type": "uint256"
        }
      ],
      "stateMutability": "view",
      "type": "function"
    },
    {
      "inputs": [],
      "name": "totalLocked_",
      "outputs": [
        {
          "internalType": "uint256",
          "name": "",
          "type": "uint256"
        }
      ],
      "stateMutability": "view",
      "type": "function"
    },
    {
      "inputs": [],
      "name": "totalSupply",
      "outputs": [
        {
          "internalType": "uint256",
          "name": "",
          "type": "uint256"
        }
      ],
      "stateMutability": "view",
      "type": "function"
    },
    {
      "inputs": [
        {
          "internalType": "address",
          "name": "to",
          "type": "address"
        },
        {
          "internalType": "uint256",
          "name": "value",
          "type": "uint256"
        }
      ],
      "name": "transfer",
      "outputs": [
        {
          "internalType": "bool",
          "name": "",
          "type": "bool"
        }
      ],
      "stateMutability": "nonpayable",
      "type": "function"
    },
    {
      "inputs": [
        {
          "internalType": "address",
          "name": "from",
          "type": "address"
        },
        {
          "internalType": "address",
          "name": "to",
          "type": "address"
        },
        {
          "internalType": "uint256",
          "name": "value",
          "type": "uint256"
        }
      ],
      "name": "transferFrom",
      "outputs": [
        {
          "internalType": "bool",
          "name": "",
          "type": "bool"
        }
      ],
      "stateMutability": "nonpayable",
      "type": "function"
    },
    {
      "inputs": [
        {
          "internalType": "address",
          "name": "newOwner",
          "type": "address"
        }
      ],
      "name": "transferOwnership",
      "outputs": [],
      "stateMutability": "nonpayable",
      "type": "function"
    }
  ],
  "bytecode": "0x608060405234801561001057600080fd5b5060405161177338038061177383398101604081905261002f916102a4565b336040518060400160405280601381526020017f524547454e45524154494f4e204352454449540000000000000000000000000081525060405180604001604052806002815260200161524360f01b8152508160039081610090919061035c565b50600461009d828261035c565b5050506001600160a01b0381166100cf57604051631e4fbdf760e01b8152600060048201526024015b60405180910390fd5b6100d8816100ee565b5060016006556100e83382610140565b50610441565b600580546001600160a01b038381166001600160a01b0319831681179093556040519116919082907f8be0079c531659141344cd1fd0a4f28419497f9722a3daafe3b4186f6b6457e090600090a35050565b6001600160a01b03821661016a5760405163ec442f0560e01b8152600060048201526024016100c6565b6101766000838361017a565b5050565b6001600160a01b0383166101a557806002600082825461019a919061041a565b909155506102179050565b6001600160a01b038316600090815260208190526040902054818110156101f85760405163391434e360e21b81526001600160a01b038516600482015260248101829052604481018390526064016100c6565b6001600160a01b03841660009081526020819052604090209082900390555b6001600160a01b03821661023357600280548290039055610252565b6001600160a01b03821660009081526020819052604090208054820190555b816001600160a01b0316836001600160a01b03167fddf252ad1be2c89b69c2b068fc378daa952ba7f163c4a11628f55a4df523b3ef8360405161029791815260200190565b60405180910390a3505050565b6000602082840312156102b657600080fd5b5051919050565b634e487b7160e01b600052604160045260246000fd5b600181811c908216806102e757607f821691505b60208210810361030757634e487b7160e01b600052602260045260246000fd5b50919050565b601f82111561035757806000526020600020601f840160051c810160208510156103345750805b601f840160051c820191505b818110156103545760008155600101610340565b50505b505050565b81516001600160401b03811115610375576103756102bd565b6103898161038384546102d3565b8461030d565b6020601f8211600181146103bd57600083156103a55750848201515b600019600385901b1c1916600184901b178455610354565b600084815260208120601f198516915b828110156103ed57878501518255602094850194600190920191016103cd565b508482101561040b5786840151600019600387901b60f8161c191681555b50505050600190811b01905550565b8082018082111561043b57634e487b7160e01b600052601160045260246000fd5b92915050565b611323806104506000396000f3fe608060405234801561001057600080fd5b50600436106101a95760003560e01c80636d1b229d116100f9578063a9059cbb11610097578063e56658e811610071578063e56658e8146103c7578063f0006940146103da578063f2fde38b146103ed578063f76f8d781461040057600080fd5b8063a9059cbb14610373578063b14f0b4314610386578063dd62ed3e1461038e57600080fd5b806378092b0e116100d357806378092b0e1461030b5780638da5cb5b1461031e57806395d89b4114610339578063a3f4df7e1461034157600080fd5b80636d1b229d146102c757806370a08231146102da578063715018a61461030357600080fd5b806323b872dd116101665780633834565d116101405780633834565d1461027757806349d62776146102a35780634d65a846146102ac57806356891412146102bf57600080fd5b806323b872dd146102435780632e0f262514610256578063313ce5671461027057600080fd5b806304c1973a146101ae57806306fdde03146101c3578063095ea7b3146101e15780630ed944c31461020457806318160ddd1461021b5780631affb7b714610223575b600080fd5b6101c16101bc366004610f73565b610421565b005b6101cb6105be565b6040516101d89190610ff6565b60405180910390f35b6101f46101ef36600461102c565b610650565b60405190151581526020016101d8565b61020d60085481565b6040519081526020016101d8565b60025461020d565b61020d610231366004611056565b600a6020526000908152604090205481565b6101f4610251366004611071565b61066a565b61025e601281565b60405160ff90911681526020016101d8565b601261025e565b6101f4610285366004611056565b6001600160a01b031660009081526007602052604090205460ff1690565b61020d60095481565b6101f46102ba36600461102c565b61068e565b60095461020d565b6101c16102d53660046110ae565b6106e6565b61020d6102e8366004611056565b6001600160a01b031660009081526020819052604090205490565b6101c161074e565b6101c1610319366004611056565b610762565b6005546040516001600160a01b0390911681526020016101d8565b6101cb61078c565b6101cb60405180604001604052806013815260200172149151d153915490551253d38810d491511255606a1b81525081565b6101f461038136600461102c565b61079b565b60085461020d565b61020d61039c3660046110c7565b6001600160a01b03918216600090815260016020908152604080832093909416825291909152205490565b6101c16103d53660046110ae565b6107a9565b6101c16103e836600461119f565b6108e6565b6101c16103fb366004611056565b610aca565b6101cb60405180604001604052806002815260200161524360f01b81525081565b610429610b05565b600b5460405163b9cccee360e01b81523360048201526001600160a01b039091169063b9cccee3906024016020604051808303816000875af1158015610473573d6000803e3d6000fd5b505050506040513d601f19601f820116820180604052508101906104979190611211565b6104da5760405162461bcd60e51b815260206004820152600f60248201526e4f6e6c7920737570706f727465727360881b60448201526064015b60405180910390fd5b670de0b6b3a76400008210156105325760405162461bcd60e51b815260206004820152601c60248201527f416d6f756e74206d757374206265206174206c6561737420312052430000000060448201526064016104d1565b61053c3383610b2f565b600b5460405163e5fb509960e01b81523360048201526024810184905267ffffffffffffffff831660448201526001600160a01b039091169063e5fb509990606401600060405180830381600087803b15801561059857600080fd5b505af11580156105ac573d6000803e3d6000fd5b505050506105ba6001600655565b5050565b6060600380546105cd90611233565b80601f01602080910402602001604051908101604052809291908181526020018280546105f990611233565b80156106465780601f1061061b57610100808354040283529160200191610646565b820191906000526020600020905b81548152906001019060200180831161062957829003601f168201915b5050505050905090565b60003361065e818585610bd4565b60019150505b92915050565b600033610678858285610be1565b610683858585610c60565b506001949350505050565b6000610698610cbf565b6001600160a01b0383166000908152600760205260409020805460ff191660011790556106c6338484610c60565b81600960008282546106d89190611283565b909155506001949350505050565b600081116107415760405162461bcd60e51b815260206004820152602260248201527f4275726e20616d6f756e74206d7573742062652067726561746572207468616e604482015261020360f41b60648201526084016104d1565b61074b3382610b2f565b50565b610756610cbf565b6107606000610cec565b565b61076a610cbf565b600b80546001600160a01b0319166001600160a01b0392909216919091179055565b6060600480546105cd90611233565b60003361065e818585610c60565b3360009081526007602052604090205460ff166107fe5760405162461bcd60e51b8152602060048201526013602482015272139bdd08184818dbdb9d1c9858dd081c1bdbdb606a1b60448201526064016104d1565b336000908152602081905260409020548111156108535760405162461bcd60e51b8152602060048201526013602482015272506f6f6c206f7574206f662062616c616e636560681b60448201526064016104d1565b6009548111156108b45760405162461bcd60e51b815260206004820152602660248201527f43616e6e6f74206465637265617365206d6f7265207468616e20746f74616c206044820152651b1bd8dad95960d21b60648201526084016104d1565b3360009081526007602052604090205460ff161561074b5780600960008282546108de9190611296565b909155505050565b6108ee610b05565b600b5460405163b9cccee360e01b81523360048201526001600160a01b039091169063b9cccee3906024016020604051808303816000875af1158015610938573d6000803e3d6000fd5b505050506040513d601f19601f8201168201806040525081019061095c9190611211565b61099a5760405162461bcd60e51b815260206004820152600f60248201526e4f6e6c7920737570706f727465727360881b60448201526064016104d1565b678ac7230489e800008310156109f25760405162461bcd60e51b815260206004820152601d60248201527f416d6f756e74206d757374206265206174206c6561737420313020524300000060448201526064016104d1565b815161025810801590610a085750805161025810155b610a495760405162461bcd60e51b81526020600482015260126024820152714d617820363030206368617261637465727360701b60448201526064016104d1565b610a533384610b2f565b600b5460405163cf78537f60e01b81526001600160a01b039091169063cf78537f90610a899033908790879087906004016112a9565b600060405180830381600087803b158015610aa357600080fd5b505af1158015610ab7573d6000803e3d6000fd5b50505050610ac56001600655565b505050565b610ad2610cbf565b6001600160a01b038116610afc57604051631e4fbdf760e01b8152600060048201526024016104d1565b61074b81610cec565b600260065403610b2857604051633ee5aeb560e01b815260040160405180910390fd5b6002600655565b610b398282610d3e565b6001600160a01b0382166000908152600a602052604081208054839290610b61908490611283565b925050819055508060086000828254610b7a9190611283565b90915550506001600160a01b0382166000818152600a6020908152604091829020548251858152918201527fdcfaa57faef6cafa9ba0201b781740b5b5d63ee6dcee12a25d5cc93c1cc1df16910160405180910390a25050565b610ac58383836001610d74565b6001600160a01b03838116600090815260016020908152604080832093861683529290522054600019811015610c5a5781811015610c4b57604051637dc7a0d960e11b81526001600160a01b038416600482015260248101829052604481018390526064016104d1565b610c5a84848484036000610d74565b50505050565b6001600160a01b038316610c8a57604051634b637e8f60e11b8152600060048201526024016104d1565b6001600160a01b038216610cb45760405163ec442f0560e01b8152600060048201526024016104d1565b610ac5838383610e49565b6005546001600160a01b031633146107605760405163118cdaa760e01b81523360048201526024016104d1565b600580546001600160a01b038381166001600160a01b0319831681179093556040519116919082907f8be0079c531659141344cd1fd0a4f28419497f9722a3daafe3b4186f6b6457e090600090a35050565b6001600160a01b038216610d6857604051634b637e8f60e11b8152600060048201526024016104d1565b6105ba82600083610e49565b6001600160a01b038416610d9e5760405163e602df0560e01b8152600060048201526024016104d1565b6001600160a01b038316610dc857604051634a1406b160e11b8152600060048201526024016104d1565b6001600160a01b0380851660009081526001602090815260408083209387168352929052208290558015610c5a57826001600160a01b0316846001600160a01b03167f8c5be1e5ebec7d5bd14f71427d1e84f3dd0314c0f7b2291e5b200ac8c7c3b92584604051610e3b91815260200190565b60405180910390a350505050565b6001600160a01b038316610e74578060026000828254610e699190611283565b90915550610ee69050565b6001600160a01b03831660009081526020819052604090205481811015610ec75760405163391434e360e21b81526001600160a01b038516600482015260248101829052604481018390526064016104d1565b6001600160a01b03841660009081526020819052604090209082900390555b6001600160a01b038216610f0257600280548290039055610f21565b6001600160a01b03821660009081526020819052604090208054820190555b816001600160a01b0316836001600160a01b03167fddf252ad1be2c89b69c2b068fc378daa952ba7f163c4a11628f55a4df523b3ef83604051610f6691815260200190565b60405180910390a3505050565b60008060408385031215610f8657600080fd5b82359150602083013567ffffffffffffffff81168114610fa557600080fd5b809150509250929050565b6000815180845260005b81811015610fd657602081850181015186830182015201610fba565b506000602082860101526020601f19601f83011685010191505092915050565b6020815260006110096020830184610fb0565b9392505050565b80356001600160a01b038116811461102757600080fd5b919050565b6000806040838503121561103f57600080fd5b61104883611010565b946020939093013593505050565b60006020828403121561106857600080fd5b61100982611010565b60008060006060848603121561108657600080fd5b61108f84611010565b925061109d60208501611010565b929592945050506040919091013590565b6000602082840312156110c057600080fd5b5035919050565b600080604083850312156110da57600080fd5b6110e383611010565b91506110f160208401611010565b90509250929050565b634e487b7160e01b600052604160045260246000fd5b600082601f83011261112157600080fd5b813567ffffffffffffffff81111561113b5761113b6110fa565b604051601f8201601f19908116603f0116810167ffffffffffffffff8111828210171561116a5761116a6110fa565b60405281815283820160200185101561118257600080fd5b816020850160208301376000918101602001919091529392505050565b6000806000606084860312156111b457600080fd5b83359250602084013567ffffffffffffffff8111156111d257600080fd5b6111de86828701611110565b925050604084013567ffffffffffffffff8111156111fb57600080fd5b61120786828701611110565b9150509250925092565b60006020828403121561122357600080fd5b8151801515811461100957600080fd5b600181811c9082168061124757607f821691505b60208210810361126757634e487b7160e01b600052602260045260246000fd5b50919050565b634e487b7160e01b600052601160045260246000fd5b808201808211156106645761066461126d565b818103818111156106645761066461126d565b60018060a01b03851681528360208201526080604082015260006112d06080830185610fb0565b82810360608401526112e28185610fb0565b97965050505050505056fea2646970667358221220957a7c31a94ca4826bcf312cfe1b6ddee26c3eb38a0eb10bdc525fa45340d7fb64736f6c634300081b0033",
  "linkReferences": {},
  "deployedLinkReferences": {}
}