{
  "_format": "hh-sol-artifact-1",
  "contractName": "RegenerationIndexRules",
  "sourceName": "contracts/RegenerationIndexRules.sol",
  "abi": [
    {
      "inputs": [],
      "stateMutability": "nonpayable",
      "type": "constructor"
    },
    {
      "anonymous": false,
      "inputs": [
        {
          "indexed": true,
          "internalType": "address",
          "name": "previousOwner",
          "type": "address"
        },
        {
          "indexed": true,
          "internalType": "address",
          "name": "newOwner",
          "type": "address"
        }
      ],
      "name": "OwnershipTransferred",
      "type": "event"
    },
    {
      "inputs": [
        {
          "internalType": "address",
          "name": "",
          "type": "address"
        }
      ],
      "name": "allowedCallers",
      "outputs": [
        {
          "internalType": "bool",
          "name": "",
          "type": "bool"
        }
      ],
      "stateMutability": "view",
      "type": "function"
    },
    {
      "inputs": [
        {
          "components": [
            {
              "internalType": "uint256",
              "name": "categoryId",
              "type": "uint256"
            },
            {
              "internalType": "uint256",
              "name": "indicator",
              "type": "uint256"
            }
          ],
          "internalType": "struct RegenerationInspection",
          "name": "treesResult",
          "type": "tuple"
        },
        {
          "components": [
            {
              "internalType": "uint256",
              "name": "categoryId",
              "type": "uint256"
            },
            {
              "internalType": "uint256",
              "name": "indicator",
              "type": "uint256"
            }
          ],
          "internalType": "struct RegenerationInspection",
          "name": "biodiversityResult",
          "type": "tuple"
        }
      ],
      "name": "calculateScore",
      "outputs": [
        {
          "internalType": "uint256",
          "name": "",
          "type": "uint256"
        }
      ],
      "stateMutability": "view",
      "type": "function"
    },
    {
      "inputs": [
        {
          "internalType": "uint256",
          "name": "",
          "type": "uint256"
        }
      ],
      "name": "categories",
      "outputs": [
        {
          "internalType": "uint256",
          "name": "id",
          "type": "uint256"
        },
        {
          "internalType": "string",
          "name": "name",
          "type": "string"
        },
        {
          "internalType": "string",
          "name": "description",
          "type": "string"
        }
      ],
      "stateMutability": "view",
      "type": "function"
    },
    {
      "inputs": [],
      "name": "categoryCounts",
      "outputs": [
        {
          "internalType": "uint256",
          "name": "",
          "type": "uint256"
        }
      ],
      "stateMutability": "view",
      "type": "function"
    },
    {
      "inputs": [
        {
          "internalType": "uint256",
          "name": "",
          "type": "uint256"
        },
        {
          "internalType": "uint256",
          "name": "",
          "type": "uint256"
        }
      ],
      "name": "categoryRegenerationIndexDescriptions",
      "outputs": [
        {
          "internalType": "uint256",
          "name": "regenerationIndexId",
          "type": "uint256"
        },
        {
          "internalType": "string",
          "name": "description",
          "type": "string"
        }
      ],
      "stateMutability": "view",
      "type": "function"
    },
    {
      "inputs": [
        {
          "internalType": "uint256",
          "name": "categoryId",
          "type": "uint256"
        }
      ],
      "name": "getCategoryRegenerationIndexDescription",
      "outputs": [
        {
          "components": [
            {
              "internalType": "uint256",
              "name": "regenerationIndexId",
              "type": "uint256"
            },
            {
              "internalType": "string",
              "name": "description",
              "type": "string"
            }
          ],
          "internalType": "struct RegenerationIndexDescription[]",
          "name": "",
          "type": "tuple[]"
        }
      ],
      "stateMutability": "view",
      "type": "function"
    },
    {
      "inputs": [
        {
          "internalType": "address",
          "name": "caller",
          "type": "address"
        }
      ],
      "name": "isAllowedCaller",
      "outputs": [
        {
          "internalType": "bool",
          "name": "",
          "type": "bool"
        }
      ],
      "stateMutability": "view",
      "type": "function"
    },
    {
      "inputs": [
        {
          "internalType": "address",
          "name": "allowed",
          "type": "address"
        }
      ],
      "name": "newAllowedCaller",
      "outputs": [],
      "stateMutability": "nonpayable",
      "type": "function"
    },
    {
      "inputs": [],
      "name": "owner",
      "outputs": [
        {
          "internalType": "address",
          "name": "",
          "type": "address"
        }
      ],
      "stateMutability": "view",
      "type": "function"
    },
    {
      "inputs": [
        {
          "internalType": "uint256",
          "name": "",
          "type": "uint256"
        }
      ],
      "name": "regenerationIndex",
      "outputs": [
        {
          "internalType": "string",
          "name": "name",
          "type": "string"
        },
        {
          "internalType": "uint256",
          "name": "value",
          "type": "uint256"
        }
      ],
      "stateMutability": "view",
      "type": "function"
    },
    {
      "inputs": [],
      "name": "renounceOwnership",
      "outputs": [],
      "stateMutability": "nonpayable",
      "type": "function"
    },
    {
      "inputs": [
        {
          "internalType": "address",
          "name": "newOwner",
          "type": "address"
        }
      ],
      "name": "transferOwnership",
      "outputs": [],
      "stateMutability": "nonpayable",
      "type": "function"
    }
  ],
  "bytecode": "0x608060405234801561001057600080fd5b5061002d6100226103d660201b60201c565b6103de60201b60201c565b60405180604001604052806040518060400160405280600e81526020017f524547454e45524154495645203600000000000000000000000000000000000081525081526020016020815250600460006001815260200190815260200160002060008201518160000190816100a191906111be565b506020820151816001015590505060405180604001604052806040518060400160405280600e81526020017f524547454e455241544956452035000000000000000000000000000000000000815250815260200160108152506004600060028152602001908152602001600020600082015181600001908161012391906111be565b506020820151816001015590505060405180604001604052806040518060400160405280600e81526020017f524547454e45524154495645203400000000000000000000000000000000000081525081526020016008815250600460006003815260200190815260200160002060008201518160000190816101a591906111be565b506020820151816001015590505060405180604001604052806040518060400160405280600e81526020017f524547454e455241544956452033000000000000000000000000000000000000815250815260200160048152506004600060048152602001908152602001600020600082015181600001908161022791906111be565b506020820151816001015590505060405180604001604052806040518060400160405280600e81526020017f524547454e45524154495645203200000000000000000000000000000000000081525081526020016002815250600460006005815260200190815260200160002060008201518160000190816102a991906111be565b506020820151816001015590505060405180604001604052806040518060400160405280600e81526020017f524547454e455241544956452031000000000000000000000000000000000000815250815260200160018152506004600060068152602001908152602001600020600082015181600001908161032b91906111be565b506020820151816001015590505060405180604001604052806040518060400160405280600681526020017f4e455554524f000000000000000000000000000000000000000000000000000081525081526020016000815250600460006007815260200190815260200160002060008201518160000190816103ad91906111be565b50602082015181600101559050506103c96104a260201b60201c565b6002600581905550611290565b600033905090565b60008060009054906101000a900473ffffffffffffffffffffffffffffffffffffffff169050816000806101000a81548173ffffffffffffffffffffffffffffffffffffffff021916908373ffffffffffffffffffffffffffffffffffffffff1602179055508173ffffffffffffffffffffffffffffffffffffffff168173ffffffffffffffffffffffffffffffffffffffff167f8be0079c531659141344cd1fd0a4f28419497f9722a3daafe3b4186f6b6457e060405160405180910390a35050565b60006040518060600160405280600181526020016040518060400160405280600581526020017f5472656573000000000000000000000000000000000000000000000000000000815250815260200160405180610140016040528061010c81526020016127a961010c9139815250905060036000600181526020019081526020016000206040518060400160405280600181526020016040518060400160405280600d81526020017f5472656573203e2032303030300000000000000000000000000000000000000081525081525090806001815401808255809150506001900390600052602060002090600202016000909190919091506000820151816000015560208201518160010190816105b991906111be565b50505060036000600181526020019081526020016000206040518060400160405280600281526020016040518060400160405280601581526020017f3230303030203e205472656573203e2031303030300000000000000000000000815250815250908060018154018082558091505060019003906000526020600020906002020160009091909190915060008201518160000155602082015181600101908161066391906111be565b50505060036000600181526020019081526020016000206040518060400160405280600381526020016040518060400160405280601481526020017f3130303030203e205472656573203e2035303030000000000000000000000000815250815250908060018154018082558091505060019003906000526020600020906002020160009091909190915060008201518160000155602082015181600101908161070d91906111be565b50505060036000600181526020019081526020016000206040518060400160405280600481526020016040518060400160405280601381526020017f35303030203e205472656573203e20313030300000000000000000000000000081525081525090806001815401808255809150506001900390600052602060002090600202016000909190919091506000820151816000015560208201518160010190816107b791906111be565b50505060036000600181526020019081526020016000206040518060400160405280600581526020016040518060400160405280601281526020017f31303030203e205472656573203e203130300000000000000000000000000000815250815250908060018154018082558091505060019003906000526020600020906002020160009091909190915060008201518160000155602082015181600101908161086191906111be565b50505060036000600181526020019081526020016000206040518060400160405280600681526020016040518060400160405280601081526020017f313030203e205472656573203e20313000000000000000000000000000000000815250815250908060018154018082558091505060019003906000526020600020906002020160009091909190915060008201518160000155602082015181600101908161090b91906111be565b50505060036000600181526020019081526020016000206040518060400160405280600781526020016040518060400160405280600a81526020017f5472656573203c2031300000000000000000000000000000000000000000000081525081525090806001815401808255809150506001900390600052602060002090600202016000909190919091506000820151816000015560208201518160010190816109b591906111be565b50505060006040518060600160405280600281526020016040518060400160405280600c81526020017f42696f6469766572736974790000000000000000000000000000000000000000815250815260200160405180610160016040528061013a815260200161266f61013a9139815250905060036000600281526020019081526020016000206040518060400160405280600181526020016040518060400160405280601281526020017f42696f646976657273697479203e2032343000000000000000000000000000008152508152509080600181540180825580915050600190039060005260206000209060020201600090919091909150600082015181600001556020820151816001019081610acf91906111be565b50505060036000600281526020019081526020016000206040518060400160405280600281526020016040518060400160405280601881526020017f323430203e2042696f646976657273697479203e2031323000000000000000008152508152509080600181540180825580915050600190039060005260206000209060020201600090919091909150600082015181600001556020820151816001019081610b7991906111be565b50505060036000600281526020019081526020016000206040518060400160405280600381526020016040518060400160405280601781526020017f313230203e2042696f646976657273697479203e2036300000000000000000008152508152509080600181540180825580915050600190039060005260206000209060020201600090919091909150600082015181600001556020820151816001019081610c2391906111be565b50505060036000600281526020019081526020016000206040518060400160405280600481526020016040518060400160405280601681526020017f3630203e2042696f646976657273697479203e203330000000000000000000008152508152509080600181540180825580915050600190039060005260206000209060020201600090919091909150600082015181600001556020820151816001019081610ccd91906111be565b50505060036000600281526020019081526020016000206040518060400160405280600581526020016040518060400160405280601681526020017f3330203e2042696f646976657273697479203e203135000000000000000000008152508152509080600181540180825580915050600190039060005260206000209060020201600090919091909150600082015181600001556020820151816001019081610d7791906111be565b50505060036000600281526020019081526020016000206040518060400160405280600681526020016040518060400160405280601581526020017f3135203e2042696f646976657273697479203e203500000000000000000000008152508152509080600181540180825580915050600190039060005260206000209060020201600090919091909150600082015181600001556020820151816001019081610e2191906111be565b50505060036000600281526020019081526020016000206040518060400160405280600781526020016040518060400160405280601081526020017f42696f646976657273697479203c2035000000000000000000000000000000008152508152509080600181540180825580915050600190039060005260206000209060020201600090919091909150600082015181600001556020820151816001019081610ecb91906111be565b505050816002600060018152602001908152602001600020600082015181600001556020820151816001019081610f0291906111be565b506040820151816002019081610f1891906111be565b50905050806002600060028152602001908152602001600020600082015181600001556020820151816001019081610f5091906111be565b506040820151816002019081610f6691906111be565b509050505050565b600081519050919050565b7f4e487b7100000000000000000000000000000000000000000000000000000000600052604160045260246000fd5b7f4e487b7100000000000000000000000000000000000000000000000000000000600052602260045260246000fd5b60006002820490506001821680610fef57607f821691505b60208210810361100257611001610fa8565b5b50919050565b60008190508160005260206000209050919050565b60006020601f8301049050919050565b600082821b905092915050565b60006008830261106a7fffffffffffffffffffffffffffffffffffffffffffffffffffffffffffffffff8261102d565b611074868361102d565b95508019841693508086168417925050509392505050565b6000819050919050565b6000819050919050565b60006110bb6110b66110b18461108c565b611096565b61108c565b9050919050565b6000819050919050565b6110d5836110a0565b6110e96110e1826110c2565b84845461103a565b825550505050565b600090565b6110fe6110f1565b6111098184846110cc565b505050565b5b8181101561112d576111226000826110f6565b60018101905061110f565b5050565b601f8211156111725761114381611008565b61114c8461101d565b8101602085101561115b578190505b61116f6111678561101d565b83018261110e565b50505b505050565b600082821c905092915050565b600061119560001984600802611177565b1980831691505092915050565b60006111ae8383611184565b9150826002028217905092915050565b6111c782610f6e565b67ffffffffffffffff8111156111e0576111df610f79565b5b6111ea8254610fd7565b6111f5828285611131565b600060209050601f8311600181146112285760008415611216578287015190505b61122085826111a2565b865550611288565b601f19841661123686611008565b60005b8281101561125e57848901518255600182019150602085019450602081019050611239565b8683101561127b5784890151611277601f891682611184565b8355505b6001600288020188555050505b505050505050565b6113d08061129f6000396000f3fe608060405234801561001057600080fd5b50600436106100b45760003560e01c8063894b6ade11610071578063894b6ade146101a25780638da5cb5b146101d35780638f93716f146101f1578063a68012581461020d578063c6cdbe5e1461023d578063f2fde38b1461026f576100b4565b8063102c044b146100b95780634ee5850e146100ea578063715018a61461011a5780637333afcf146101245780637a22c474146101425780637b33415414610172575b600080fd5b6100d360048036038101906100ce9190610c98565b61028b565b6040516100e1929190610d64565b60405180910390f35b61010460048036038101906100ff9190610c98565b610337565b6040516101119190610eec565b60405180910390f35b610122610445565b005b61012c610459565b6040516101399190610f0e565b60405180910390f35b61015c60048036038101906101579190610ff9565b61045f565b6040516101699190610f0e565b60405180910390f35b61018c60048036038101906101879190611097565b610612565b60405161019991906110df565b60405180910390f35b6101bc60048036038101906101b791906110fa565b610632565b6040516101ca92919061113a565b60405180910390f35b6101db6106fb565b6040516101e89190611179565b60405180910390f35b61020b60048036038101906102069190611097565b610724565b005b61022760048036038101906102229190611097565b610786565b60405161023491906110df565b60405180910390f35b61025760048036038101906102529190610c98565b6107dc565b60405161026693929190611194565b60405180910390f35b61028960048036038101906102849190611097565b610916565b005b60046020528060005260406000206000915090508060000180546102ae90611208565b80601f01602080910402602001604051908101604052809291908181526020018280546102da90611208565b80156103275780601f106102fc57610100808354040283529160200191610327565b820191906000526020600020905b81548152906001019060200180831161030a57829003601f168201915b5050505050908060010154905082565b606060036000838152602001908152602001600020805480602002602001604051908101604052809291908181526020016000905b8282101561043a5783829060005260206000209060020201604051806040016040529081600082015481526020016001820180546103a990611208565b80601f01602080910402602001604051908101604052809291908181526020018280546103d590611208565b80156104225780601f106103f757610100808354040283529160200191610422565b820191906000526020600020905b81548152906001019060200180831161040557829003601f168201915b5050505050815250508152602001906001019061036c565b505050509050919050565b61044d610999565b6104576000610a17565b565b60055481565b600080600460006104738660200151610adb565b815260200190815260200160002060405180604001604052908160008201805461049c90611208565b80601f01602080910402602001604051908101604052809291908181526020018280546104c890611208565b80156105155780601f106104ea57610100808354040283529160200191610515565b820191906000526020600020905b8154815290600101906020018083116104f857829003601f168201915b50505050508152602001600182015481525050905060006004600061053d8660200151610b97565b815260200190815260200160002060405180604001604052908160008201805461056690611208565b80601f016020809104026020016040519081016040528092919081815260200182805461059290611208565b80156105df5780601f106105b4576101008083540402835291602001916105df565b820191906000526020600020905b8154815290600101906020018083116105c257829003601f168201915b505050505081526020016001820154815250509050806020015182602001516106089190611268565b9250505092915050565b60016020528060005260406000206000915054906101000a900460ff1681565b6003602052816000526040600020818154811061064e57600080fd5b90600052602060002090600202016000915091505080600001549080600101805461067890611208565b80601f01602080910402602001604051908101604052809291908181526020018280546106a490611208565b80156106f15780601f106106c6576101008083540402835291602001916106f1565b820191906000526020600020905b8154815290600101906020018083116106d457829003601f168201915b5050505050905082565b60008060009054906101000a900473ffffffffffffffffffffffffffffffffffffffff16905090565b61072c610999565b60018060008373ffffffffffffffffffffffffffffffffffffffff1673ffffffffffffffffffffffffffffffffffffffff16815260200190815260200160002060006101000a81548160ff02191690831515021790555050565b6000600160008373ffffffffffffffffffffffffffffffffffffffff1673ffffffffffffffffffffffffffffffffffffffff16815260200190815260200160002060009054906101000a900460ff169050919050565b600260205280600052604060002060009150905080600001549080600101805461080590611208565b80601f016020809104026020016040519081016040528092919081815260200182805461083190611208565b801561087e5780601f106108535761010080835404028352916020019161087e565b820191906000526020600020905b81548152906001019060200180831161086157829003601f168201915b50505050509080600201805461089390611208565b80601f01602080910402602001604051908101604052809291908181526020018280546108bf90611208565b801561090c5780601f106108e15761010080835404028352916020019161090c565b820191906000526020600020905b8154815290600101906020018083116108ef57829003601f168201915b5050505050905083565b61091e610999565b600073ffffffffffffffffffffffffffffffffffffffff168173ffffffffffffffffffffffffffffffffffffffff160361098d576040517f08c379a00000000000000000000000000000000000000000000000000000000081526004016109849061130e565b60405180910390fd5b61099681610a17565b50565b6109a1610c4b565b73ffffffffffffffffffffffffffffffffffffffff166109bf6106fb565b73ffffffffffffffffffffffffffffffffffffffff1614610a15576040517f08c379a0000000000000000000000000000000000000000000000000000000008152600401610a0c9061137a565b60405180910390fd5b565b60008060009054906101000a900473ffffffffffffffffffffffffffffffffffffffff169050816000806101000a81548173ffffffffffffffffffffffffffffffffffffffff021916908373ffffffffffffffffffffffffffffffffffffffff1602179055508173ffffffffffffffffffffffffffffffffffffffff168173ffffffffffffffffffffffffffffffffffffffff167f8be0079c531659141344cd1fd0a4f28419497f9722a3daafe3b4186f6b6457e060405160405180910390a35050565b6000614e20821115610af05760019050610b92565b61271082118015610b025750614e2082105b15610b105760029050610b92565b61138882118015610b22575061271082105b15610b305760039050610b92565b6103e882118015610b42575061138882105b15610b505760049050610b92565b606482118015610b6157506103e882105b15610b6f5760059050610b92565b600a82118015610b7f5750606482105b15610b8d5760069050610b92565b600790505b919050565b600060f0821115610bab5760019050610c46565b607882118015610bbb575060f082105b15610bc95760029050610c46565b603c82118015610bd95750607882105b15610be75760039050610c46565b601e82118015610bf75750603c82105b15610c055760049050610c46565b600f82118015610c155750601e82105b15610c235760059050610c46565b600582118015610c335750600f82105b15610c415760069050610c46565b600790505b919050565b600033905090565b6000604051905090565b600080fd5b6000819050919050565b610c7581610c62565b8114610c8057600080fd5b50565b600081359050610c9281610c6c565b92915050565b600060208284031215610cae57610cad610c5d565b5b6000610cbc84828501610c83565b91505092915050565b600081519050919050565b600082825260208201905092915050565b60005b83811015610cff578082015181840152602081019050610ce4565b60008484015250505050565b6000601f19601f8301169050919050565b6000610d2782610cc5565b610d318185610cd0565b9350610d41818560208601610ce1565b610d4a81610d0b565b840191505092915050565b610d5e81610c62565b82525050565b60006040820190508181036000830152610d7e8185610d1c565b9050610d8d6020830184610d55565b9392505050565b600081519050919050565b600082825260208201905092915050565b6000819050602082019050919050565b610dc981610c62565b82525050565b600082825260208201905092915050565b6000610deb82610cc5565b610df58185610dcf565b9350610e05818560208601610ce1565b610e0e81610d0b565b840191505092915050565b6000604083016000830151610e316000860182610dc0565b5060208301518482036020860152610e498282610de0565b9150508091505092915050565b6000610e628383610e19565b905092915050565b6000602082019050919050565b6000610e8282610d94565b610e8c8185610d9f565b935083602082028501610e9e85610db0565b8060005b85811015610eda5784840389528151610ebb8582610e56565b9450610ec683610e6a565b925060208a01995050600181019050610ea2565b50829750879550505050505092915050565b60006020820190508181036000830152610f068184610e77565b905092915050565b6000602082019050610f236000830184610d55565b92915050565b600080fd5b7f4e487b7100000000000000000000000000000000000000000000000000000000600052604160045260246000fd5b610f6682610d0b565b810181811067ffffffffffffffff82111715610f8557610f84610f2e565b5b80604052505050565b6000610f98610c53565b9050610fa48282610f5d565b919050565b600060408284031215610fbf57610fbe610f29565b5b610fc96040610f8e565b90506000610fd984828501610c83565b6000830152506020610fed84828501610c83565b60208301525092915050565b600080608083850312156110105761100f610c5d565b5b600061101e85828601610fa9565b925050604061102f85828601610fa9565b9150509250929050565b600073ffffffffffffffffffffffffffffffffffffffff82169050919050565b600061106482611039565b9050919050565b61107481611059565b811461107f57600080fd5b50565b6000813590506110918161106b565b92915050565b6000602082840312156110ad576110ac610c5d565b5b60006110bb84828501611082565b91505092915050565b60008115159050919050565b6110d9816110c4565b82525050565b60006020820190506110f460008301846110d0565b92915050565b6000806040838503121561111157611110610c5d565b5b600061111f85828601610c83565b925050602061113085828601610c83565b9150509250929050565b600060408201905061114f6000830185610d55565b81810360208301526111618184610d1c565b90509392505050565b61117381611059565b82525050565b600060208201905061118e600083018461116a565b92915050565b60006060820190506111a96000830186610d55565b81810360208301526111bb8185610d1c565b905081810360408301526111cf8184610d1c565b9050949350505050565b7f4e487b7100000000000000000000000000000000000000000000000000000000600052602260045260246000fd5b6000600282049050600182168061122057607f821691505b602082108103611233576112326111d9565b5b50919050565b7f4e487b7100000000000000000000000000000000000000000000000000000000600052601160045260246000fd5b600061127382610c62565b915061127e83610c62565b925082820190508082111561129657611295611239565b5b92915050565b7f4f776e61626c653a206e6577206f776e657220697320746865207a65726f206160008201527f6464726573730000000000000000000000000000000000000000000000000000602082015250565b60006112f8602683610cd0565b91506113038261129c565b604082019050919050565b60006020820190508181036000830152611327816112eb565b9050919050565b7f4f776e61626c653a2063616c6c6572206973206e6f7420746865206f776e6572600082015250565b6000611364602083610cd0565b915061136f8261132e565b602082019050919050565b6000602082019050818103600083015261139381611357565b905091905056fea26469706673582212203fb57d02669a76e2b3a19ba26567cc4e60ca0476401e7229a44432dd375bd7ec64736f6c634300081b0033496e64696361746f7220746f206d65617375726520746865206c6576656c206f662062696f646976657273697479206f662074726565732c2070616c6d20747265657320616e64206f7468657220706c616e7473206f7665722035636d206f66206469616d6174657220696e2074686520726567656e65726174696e6720617265612e20486f77206d616e7920646966666572656e7420737065636965732061726520746865726520696e2074686520617265613f204561636820646966666572656e742073706563696573206973206571756976616c656e7420746f206f6e6520706f696e7420616e64206f6e6c7920747265657320616e6420706c616e7473206d616e61676564206f7220706c616e7465642062792074686520726567656e657261746f722073686f756c6420626520636f756e7465642e496e64696361746f7220746f206d6561737572652074686520746f74616c20616d6f756e74206f662074726565732c2070616c6d20747265657320616e64206f7468657220706c616e7473206f7665722035636d20696e206469616d6574657220696e2074686520726567656e65726174696e6720617265612e20486f77206d616e792074726565732c2070616c6d20747265657320616e64206f7468657220706c616e74732077697468206d6f7265207468616e2035636d206f66206469616d657465727320746865726520697320696e2074686520726567656e65726174696e6720617265613f204a75737469667920796f757220616e7377657220696e20746865207265706f72742e",
  "linkReferences": {},
  "deployedLinkReferences": {}
}