{
  "_format": "hh-sol-artifact-1",
  "contractName": "RegeneratorPool",
  "sourceName": "contracts/RegeneratorPool.sol",
  "abi": [
    {
      "inputs": [
        {
          "internalType": "address",
          "name": "regenerationCreditAddress",
          "type": "address"
        },
        {
          "internalType": "uint256",
          "name": "_halving",
          "type": "uint256"
        },
        {
          "internalType": "uint256",
          "name": "_blocksPerEra",
          "type": "uint256"
        }
      ],
      "stateMutability": "nonpayable",
      "type": "constructor"
    },
    {
      "inputs": [
        {
          "internalType": "address",
          "name": "owner",
          "type": "address"
        }
      ],
      "name": "OwnableInvalidOwner",
      "type": "error"
    },
    {
      "inputs": [
        {
          "internalType": "address",
          "name": "account",
          "type": "address"
        }
      ],
      "name": "OwnableUnauthorizedAccount",
      "type": "error"
    },
    {
      "inputs": [],
      "name": "ReentrancyGuardReentrantCall",
      "type": "error"
    },
    {
      "anonymous": false,
      "inputs": [
        {
          "indexed": true,
          "internalType": "address",
          "name": "previousOwner",
          "type": "address"
        },
        {
          "indexed": true,
          "internalType": "address",
          "name": "newOwner",
          "type": "address"
        }
      ],
      "name": "OwnershipTransferred",
      "type": "event"
    },
    {
      "anonymous": false,
      "inputs": [
        {
          "indexed": true,
          "internalType": "address",
          "name": "user",
          "type": "address"
        },
        {
          "indexed": false,
          "internalType": "uint256",
          "name": "era",
          "type": "uint256"
        },
        {
          "indexed": false,
          "internalType": "uint256",
          "name": "levelsAdded",
          "type": "uint256"
        },
        {
          "indexed": false,
          "internalType": "uint256",
          "name": "newTotalEraLevels",
          "type": "uint256"
        },
        {
          "indexed": false,
          "internalType": "uint256",
          "name": "newEraUserLevels",
          "type": "uint256"
        }
      ],
      "name": "PoolLevelAdded",
      "type": "event"
    },
    {
      "anonymous": false,
      "inputs": [
        {
          "indexed": true,
          "internalType": "address",
          "name": "user",
          "type": "address"
        },
        {
          "indexed": false,
          "internalType": "uint256",
          "name": "era",
          "type": "uint256"
        },
        {
          "indexed": false,
          "internalType": "uint256",
          "name": "levelsRemoved",
          "type": "uint256"
        },
        {
          "indexed": false,
          "internalType": "uint256",
          "name": "newTotalEraLevels",
          "type": "uint256"
        },
        {
          "indexed": false,
          "internalType": "uint256",
          "name": "newEraUserLevels",
          "type": "uint256"
        }
      ],
      "name": "PoolLevelRemoved",
      "type": "event"
    },
    {
      "anonymous": false,
      "inputs": [
        {
          "indexed": true,
          "internalType": "address",
          "name": "user",
          "type": "address"
        },
        {
          "indexed": false,
          "internalType": "uint256",
          "name": "era",
          "type": "uint256"
        },
        {
          "indexed": false,
          "internalType": "uint256",
          "name": "amount",
          "type": "uint256"
        }
      ],
      "name": "TokensWithdrawn",
      "type": "event"
    },
    {
      "inputs": [],
      "name": "BLOCKS_PRECISION",
      "outputs": [
        {
          "internalType": "uint256",
          "name": "",
          "type": "uint256"
        }
      ],
      "stateMutability": "view",
      "type": "function"
    },
    {
      "inputs": [],
      "name": "MAX_NEW_LEVELS",
      "outputs": [
        {
          "internalType": "uint256",
          "name": "",
          "type": "uint256"
        }
      ],
      "stateMutability": "view",
      "type": "function"
    },
    {
      "inputs": [
        {
          "internalType": "address",
          "name": "regenerator",
          "type": "address"
        },
        {
          "internalType": "uint256",
          "name": "levels",
          "type": "uint256"
        },
        {
          "internalType": "uint64",
          "name": "inspectionId",
          "type": "uint64"
        }
      ],
      "name": "addLevel",
      "outputs": [],
      "stateMutability": "nonpayable",
      "type": "function"
    },
    {
      "inputs": [
        {
          "internalType": "address",
          "name": "",
          "type": "address"
        }
      ],
      "name": "allowedCallers",
      "outputs": [
        {
          "internalType": "bool",
          "name": "",
          "type": "bool"
        }
      ],
      "stateMutability": "view",
      "type": "function"
    },
    {
      "inputs": [
        {
          "internalType": "uint256",
          "name": "currentUserEra",
          "type": "uint256"
        }
      ],
      "name": "canWithdraw",
      "outputs": [
        {
          "internalType": "bool",
          "name": "",
          "type": "bool"
        }
      ],
      "stateMutability": "view",
      "type": "function"
    },
    {
      "inputs": [
        {
          "internalType": "uint256",
          "name": "currentUserEra",
          "type": "uint256"
        }
      ],
      "name": "canWithdrawTimes",
      "outputs": [
        {
          "internalType": "uint256",
          "name": "",
          "type": "uint256"
        }
      ],
      "stateMutability": "view",
      "type": "function"
    },
    {
      "inputs": [],
      "name": "currentContractEra",
      "outputs": [
        {
          "internalType": "uint256",
          "name": "",
          "type": "uint256"
        }
      ],
      "stateMutability": "view",
      "type": "function"
    },
    {
      "inputs": [],
      "name": "currentEpoch",
      "outputs": [
        {
          "internalType": "uint256",
          "name": "",
          "type": "uint256"
        }
      ],
      "stateMutability": "view",
      "type": "function"
    },
    {
      "inputs": [
        {
          "internalType": "uint256",
          "name": "",
          "type": "uint256"
        },
        {
          "internalType": "address",
          "name": "",
          "type": "address"
        }
      ],
      "name": "eraLevels",
      "outputs": [
        {
          "internalType": "uint256",
          "name": "",
          "type": "uint256"
        }
      ],
      "stateMutability": "view",
      "type": "function"
    },
    {
      "inputs": [
        {
          "internalType": "uint256",
          "name": "",
          "type": "uint256"
        },
        {
          "internalType": "address",
          "name": "",
          "type": "address"
        }
      ],
      "name": "eraTokens",
      "outputs": [
        {
          "internalType": "uint256",
          "name": "",
          "type": "uint256"
        }
      ],
      "stateMutability": "view",
      "type": "function"
    },
    {
      "inputs": [
        {
          "internalType": "uint256",
          "name": "",
          "type": "uint256"
        }
      ],
      "name": "eras",
      "outputs": [
        {
          "internalType": "uint256",
          "name": "claimsCount",
          "type": "uint256"
        },
        {
          "internalType": "uint256",
          "name": "tokens",
          "type": "uint256"
        },
        {
          "internalType": "uint256",
          "name": "levels",
          "type": "uint256"
        }
      ],
      "stateMutability": "view",
      "type": "function"
    },
    {
      "inputs": [
        {
          "internalType": "uint256",
          "name": "era",
          "type": "uint256"
        }
      ],
      "name": "getEpochForEra",
      "outputs": [
        {
          "internalType": "uint256",
          "name": "",
          "type": "uint256"
        }
      ],
      "stateMutability": "view",
      "type": "function"
    },
    {
      "inputs": [
        {
          "internalType": "uint256",
          "name": "era",
          "type": "uint256"
        }
      ],
      "name": "getEra",
      "outputs": [
        {
          "components": [
            {
              "internalType": "uint256",
              "name": "claimsCount",
              "type": "uint256"
            },
            {
              "internalType": "uint256",
              "name": "tokens",
              "type": "uint256"
            },
            {
              "internalType": "uint256",
              "name": "levels",
              "type": "uint256"
            }
          ],
          "internalType": "struct Era",
          "name": "",
          "type": "tuple"
        }
      ],
      "stateMutability": "view",
      "type": "function"
    },
    {
      "inputs": [
        {
          "internalType": "uint64",
          "name": "",
          "type": "uint64"
        }
      ],
      "name": "hasProcessedLevel",
      "outputs": [
        {
          "internalType": "bool",
          "name": "",
          "type": "bool"
        }
      ],
      "stateMutability": "view",
      "type": "function"
    },
    {
      "inputs": [
        {
          "internalType": "uint256",
          "name": "",
          "type": "uint256"
        },
        {
          "internalType": "address",
          "name": "",
          "type": "address"
        }
      ],
      "name": "hasWithdrawn",
      "outputs": [
        {
          "internalType": "bool",
          "name": "",
          "type": "bool"
        }
      ],
      "stateMutability": "view",
      "type": "function"
    },
    {
      "inputs": [
        {
          "internalType": "address",
          "name": "delegate",
          "type": "address"
        },
        {
          "internalType": "uint256",
          "name": "era",
          "type": "uint256"
        }
      ],
      "name": "haveTokensToWithdraw",
      "outputs": [
        {
          "internalType": "bool",
          "name": "",
          "type": "bool"
        }
      ],
      "stateMutability": "view",
      "type": "function"
    },
    {
      "inputs": [
        {
          "internalType": "address",
          "name": "caller",
          "type": "address"
        }
      ],
      "name": "isAllowedCaller",
      "outputs": [
        {
          "internalType": "bool",
          "name": "",
          "type": "bool"
        }
      ],
      "stateMutability": "view",
      "type": "function"
    },
    {
      "inputs": [
        {
          "internalType": "address",
          "name": "allowed",
          "type": "address"
        }
      ],
      "name": "newAllowedCaller",
      "outputs": [],
      "stateMutability": "nonpayable",
      "type": "function"
    },
    {
      "inputs": [
        {
          "internalType": "uint256",
          "name": "targetEra",
          "type": "uint256"
        }
      ],
      "name": "nextEraIn",
      "outputs": [
        {
          "internalType": "int256",
          "name": "",
          "type": "int256"
        }
      ],
      "stateMutability": "view",
      "type": "function"
    },
    {
      "inputs": [],
      "name": "owner",
      "outputs": [
        {
          "internalType": "address",
          "name": "",
          "type": "address"
        }
      ],
      "stateMutability": "view",
      "type": "function"
    },
    {
      "inputs": [
        {
          "internalType": "address",
          "name": "addr",
          "type": "address"
        },
        {
          "internalType": "uint256",
          "name": "amountToRemove",
          "type": "uint256"
        },
        {
          "internalType": "bool",
          "name": "denied",
          "type": "bool"
        }
      ],
      "name": "removePoolLevels",
      "outputs": [],
      "stateMutability": "nonpayable",
      "type": "function"
    },
    {
      "inputs": [],
      "name": "renounceOwnership",
      "outputs": [],
      "stateMutability": "nonpayable",
      "type": "function"
    },
    {
      "inputs": [
        {
          "internalType": "address",
          "name": "_regeneratorRulesAddress",
          "type": "address"
        }
      ],
      "name": "setContractCall",
      "outputs": [],
      "stateMutability": "nonpayable",
      "type": "function"
    },
    {
      "inputs": [
        {
          "internalType": "uint256",
          "name": "currentEpoch",
          "type": "uint256"
        }
      ],
      "name": "tokensPerEpoch",
      "outputs": [
        {
          "internalType": "uint256",
          "name": "",
          "type": "uint256"
        }
      ],
      "stateMutability": "view",
      "type": "function"
    },
    {
      "inputs": [
        {
          "internalType": "uint256",
          "name": "currentEpoch",
          "type": "uint256"
        },
        {
          "internalType": "uint256",
          "name": "halvingFactor",
          "type": "uint256"
        }
      ],
      "name": "tokensPerEra",
      "outputs": [
        {
          "internalType": "uint256",
          "name": "",
          "type": "uint256"
        }
      ],
      "stateMutability": "view",
      "type": "function"
    },
    {
      "inputs": [
        {
          "internalType": "address",
          "name": "newOwner",
          "type": "address"
        }
      ],
      "name": "transferOwnership",
      "outputs": [],
      "stateMutability": "nonpayable",
      "type": "function"
    },
    {
      "inputs": [
        {
          "internalType": "address",
          "name": "delegate",
          "type": "address"
        },
        {
          "internalType": "uint256",
          "name": "era",
          "type": "uint256"
        }
      ],
      "name": "withdraw",
      "outputs": [],
      "stateMutability": "nonpayable",
      "type": "function"
    }
  ],
  "bytecode": "0x61010060405234801561001157600080fd5b506040516116d23803806116d2833981016040819052610030916100fc565b6b026c62ad77dc602dae00000060805260a08190524360c05260e0829052338061007457604051631e4fbdf760e01b81526000600482015260240160405180910390fd5b61007d816100aa565b5050600160065550600780546001600160a01b0319166001600160a01b039290921691909117905561013f565b600480546001600160a01b038381166001600160a01b0319831681179093556040519116919082907f8be0079c531659141344cd1fd0a4f28419497f9722a3daafe3b4186f6b6457e090600090a35050565b60008060006060848603121561011157600080fd5b83516001600160a01b038116811461012857600080fd5b602085015160409095015190969495509392505050565b60805160a05160c05160e05161153e6101946000396000818161049701526108cf01526000818161099b01526109da015260008181610809015281816109700152610a06015260006105b9015261153e6000f3fe608060405234801561001057600080fd5b50600436106101a95760003560e01c8063861b4ce1116100f9578063d5ee3eb511610097578063f2fde38b11610071578063f2fde38b1461041e578063f3fef3a314610431578063fbe85f0614610444578063ff39043c1461045757600080fd5b8063d5ee3eb5146103e0578063e78a82ff146103f3578063ed0df79e1461041657600080fd5b80638f93716f116100d35780638f93716f1461036057806394cec7a714610373578063a6801258146103a1578063b86c5699146103cd57600080fd5b8063861b4ce11461031257806388b3acae1461031a5780638da5cb5b1461034557600080fd5b8063715018a611610166578063755d4f9711610140578063755d4f97146102c157806376671808146102d45780637721f1b5146102dc5780637b334154146102ef57600080fd5b8063715018a61461025c57806371d0921a14610264578063720a70bd1461027757600080fd5b80630f2dbe60146101ae5780631af0d897146101d65780631f14f415146101eb5780632506b9321461020c5780632eedcb181461021f5780634e0be8b514610254575b600080fd5b6101c16101bc36600461115b565b610482565b60405190151581526020015b60405180910390f35b6101e96101e4366004611193565b6104c9565b005b6101fe6101f93660046111d3565b610590565b6040519081526020016101cd565b6101fe61021a3660046111f5565b6105a6565b61023261022d3660046111f5565b6105dd565b60408051825181526020808401519082015291810151908201526060016101cd565b6101fe60c081565b6101e9610638565b6101e9610272366004611226565b61064c565b6102a66102853660046111f5565b60006020819052908152604090208054600182015460029092015490919083565b604080519384526020840192909252908201526060016101cd565b6101e96102cf366004611262565b61079e565b6101fe6107c8565b6101fe6102ea3660046111f5565b6107da565b6101c16102fd366004611262565b60056020526000908152604090205460ff1681565b6101fe600581565b6101fe61032836600461127d565b600160209081526000928352604080842090915290825290205481565b6004546040516001600160a01b0390911681526020016101cd565b6101e961036e366004611262565b610850565b6101c161038136600461127d565b600360209081526000928352604080842090915290825290205460ff1681565b6101c16103af366004611262565b6001600160a01b031660009081526005602052604090205460ff1690565b6101fe6103db3660046111f5565b61087c565b6101fe6103ee3660046111f5565b61090e565b6101c16104013660046112a9565b60096020526000908152604090205460ff1681565b6101fe6109d2565b6101e961042c366004611262565b610a3c565b6101e961043f36600461115b565b610a7a565b6101c16104523660046111f5565b610d7f565b6101fe61046536600461127d565b600260209081526000928352604080842090915290825290205481565b60006104c083836104bb6104958661087c565b7f0000000000000000000000000000000000000000000000000000000000000000610590565b610d91565b90505b92915050565b3360009081526005602052604090205460ff166105015760405162461bcd60e51b81526004016104f8906112c4565b60405180910390fd5b6008546001600160a01b031633811461052c5760405162461bcd60e51b81526004016104f8906112f0565b610534610daa565b600061053e6109d2565b905060008361054d5784610571565b60008281526001602090815260408083206001600160a01b038a1684529091529020545b905061057e868383610dd4565b505061058a6001600655565b50505050565b60008161059c846105a6565b6104c0919061133d565b60006105b3826002611446565b6104c3907f000000000000000000000000000000000000000000000000000000000000000061133d565b61060160405180606001604052806000815260200160008152602001600081525090565b5060009081526020818152604091829020825160608101845281548152600182015492810192909252600201549181019190915290565b610640610ee4565b61064a6000610f11565b565b3360009081526005602052604090205460ff1661067b5760405162461bcd60e51b81526004016104f8906112c4565b6008546001600160a01b03163381146106a65760405162461bcd60e51b81526004016104f8906112f0565b6106ae610daa565b60c08311156106f45760405162461bcd60e51b815260206004820152601260248201527145786365656473206d6178206c6576656c7360701b60448201526064016104f8565b67ffffffffffffffff821660009081526009602052604090205460ff161561075e5760405162461bcd60e51b815260206004820152601760248201527f4576656e7420616c72656164792070726f63657373656400000000000000000060448201526064016104f8565b67ffffffffffffffff82166000908152600960205260409020805460ff19166001179055610794848461078f6109d2565b610f63565b61058a6001600655565b6107a6610ee4565b600880546001600160a01b0319166001600160a01b0392909216919091179055565b60006107d56103db6109d2565b905090565b6000806107e68361090e565b905060008113156107fa5750600092915050565b600061080582611452565b90507f00000000000000000000000000000000000000000000000000000000000000006108346005600a611446565b61083e908361146e565b610848919061133d565b949350505050565b610858610ee4565b6001600160a01b03166000908152600560205260409020805460ff19166001179055565b60008082116108cd5760405162461bcd60e51b815260206004820152601a60248201527f457261206d7573742062652067726561746572207468616e203000000000000060448201526064016104f8565b7f00000000000000000000000000000000000000000000000000000000000000006108f9600184611485565b610903919061133d565b6104c3906001611498565b60008082116109695760405162461bcd60e51b815260206004820152602160248201527f54617267657420657261206d7573742062652067726561746572207468616e206044820152600360fc1b60648201526084016104f8565b60006109957f00000000000000000000000000000000000000000000000000000000000000008461146e565b6109bf907f0000000000000000000000000000000000000000000000000000000000000000611498565b90506109cb43826114ab565b9392505050565b6000806109ff7f000000000000000000000000000000000000000000000000000000000000000043611485565b9050610a2b7f00000000000000000000000000000000000000000000000000000000000000008261133d565b610a36906001611498565b91505090565b610a44610ee4565b6001600160a01b038116610a6e57604051631e4fbdf760e01b8152600060048201526024016104f8565b610a7781610f11565b50565b3360009081526005602052604090205460ff16610aa95760405162461bcd60e51b81526004016104f8906112c4565b6008546001600160a01b0316338114610ad45760405162461bcd60e51b81526004016104f8906112f0565b81610ade81610d7f565b610b225760405162461bcd60e51b8152602060048201526015602482015274165bdd4818d85b89dd08185c1c1c9bdd99481e595d605a1b60448201526064016104f8565b60008381526003602090815260408083206001600160a01b03881684529091529020548390859060ff1615610b995760405162461bcd60e51b815260206004820152601e60248201527f416c72656164792077697468647261776e20666f72207468697320657261000060448201526064016104f8565b610ba1610daa565b610ba96109d2565b851115610bec5760405162461bcd60e51b815260206004820152601160248201527045726120696e207468652066757475726560781b60448201526064016104f8565b60008581526003602090815260408083206001600160a01b038a1684529091528120805460ff19166001179055610c2f8688610c2a6104958361087c565b611039565b9050610c3c86888361109f565b80600003610c4a5750610d6d565b600754604051631caccb1d60e31b8152600481018390526001600160a01b039091169063e56658e890602401600060405180830381600087803b158015610c9057600080fd5b505af1158015610ca4573d6000803e3d6000fd5b505060075460405163a9059cbb60e01b81526001600160a01b038b811660048301526024820186905260009450909116915063a9059cbb906044016020604051808303816000875af1158015610cfe573d6000803e3d6000fd5b505050506040513d601f19601f82011682018060405250810190610d2291906114d2565b905080610d6a5760405162461bcd60e51b8152602060048201526016602482015275115490cc8c0e881d1c985b9cd9995c8819985a5b195960521b60448201526064016104f8565b50505b610d776001600655565b505050505050565b6000610d896109d2565b909110919050565b600080610d9f848685611039565b151595945050505050565b600260065403610dcd57604051633ee5aeb560e01b815260040160405180910390fd5b6002600655565b60008281526001602090815260408083206001600160a01b038716845290915281205490819003610e055750505050565b80821115610e11578091505b60008381526020819052604081206002018054849290610e32908490611485565b909155505060008381526001602090815260408083206001600160a01b038816845290915281208054849290610e69908490611485565b909155505060008381526020818152604080832060020154600183528184206001600160a01b038916808652908452938290205482518881529384018790529183015260608201527f8df21415d734537dcf01ffb77472049844f905c24abd54708d93555ea85239f99060800160405180910390a250505050565b6004546001600160a01b0316331461064a5760405163118cdaa760e01b81523360048201526024016104f8565b600480546001600160a01b038381166001600160a01b0319831681179093556040519116919082907f8be0079c531659141344cd1fd0a4f28419497f9722a3daafe3b4186f6b6457e090600090a35050565b600081815260208190526040902060020154610f80908390611498565b60008281526020818152604080832060020193909355600181528282206001600160a01b038716835290529081208054849290610fbe908490611498565b909155505060008181526020818152604080832060020154600183528184206001600160a01b038816808652908452938290205482518681529384018790529183015260608201527ffc6907b3f86e1e63de43e8e6af6345e03bbc9726a0f63eddb4021532417f78b1906080015b60405180910390a2505050565b60008381526020818152604080832060020154600183528184206001600160a01b0387168552909252822054801580611070575081155b15611080576000925050506109cb565b8161108b858361146e565b611095919061133d565b9695505050505050565b60008381526020819052604081208054916110b9836114ef565b9091555050600083815260208190526040812060010180548392906110df908490611498565b909155505060008381526002602090815260408083206001600160a01b0386168085529083529281902084905580518681529182018490527fffe903c0abe6b2dbb2f3474ef43d7a3c1fca49e5a774453423ca8e1952aabffa910161102c565b80356001600160a01b038116811461115657600080fd5b919050565b6000806040838503121561116e57600080fd5b6111778361113f565b946020939093013593505050565b8015158114610a7757600080fd5b6000806000606084860312156111a857600080fd5b6111b18461113f565b92506020840135915060408401356111c881611185565b809150509250925092565b600080604083850312156111e657600080fd5b50508035926020909101359150565b60006020828403121561120757600080fd5b5035919050565b803567ffffffffffffffff8116811461115657600080fd5b60008060006060848603121561123b57600080fd5b6112448461113f565b9250602084013591506112596040850161120e565b90509250925092565b60006020828403121561127457600080fd5b6104c08261113f565b6000806040838503121561129057600080fd5b823591506112a06020840161113f565b90509250929050565b6000602082840312156112bb57600080fd5b6104c08261120e565b6020808252601290820152712737ba1030b63637bbb2b21031b0b63632b960711b604082015260600190565b6020808252601e908201527f43616c6c6572206d7573742062652073797374656d20636f6e74726163740000604082015260600190565b634e487b7160e01b600052601160045260246000fd5b60008261135a57634e487b7160e01b600052601260045260246000fd5b500490565b6001815b600184111561139a5780850481111561137e5761137e611327565b600184161561138c57908102905b60019390931c928002611363565b935093915050565b6000826113b1575060016104c3565b816113be575060006104c3565b81600181146113d457600281146113de576113fa565b60019150506104c3565b60ff8411156113ef576113ef611327565b50506001821b6104c3565b5060208310610133831016604e8410600b841016171561141d575081810a6104c3565b61142a600019848461135f565b806000190482111561143e5761143e611327565b029392505050565b60006104c083836113a2565b6000600160ff1b820161146757611467611327565b5060000390565b80820281158282048414176104c3576104c3611327565b818103818111156104c3576104c3611327565b808201808211156104c3576104c3611327565b81810360008312801583831316838312821617156114cb576114cb611327565b5092915050565b6000602082840312156114e457600080fd5b81516109cb81611185565b60006001820161150157611501611327565b506001019056fea26469706673582212208f8044e51eca58dbea0601285ad82395ac57d95bbcf0f5f5dc3417505ece790964736f6c634300081b0033",
  "linkReferences": {},
  "deployedLinkReferences": {}
}