{
  "_format": "hh-sol-artifact-1",
  "contractName": "RegenerationCreditImpact",
  "sourceName": "contracts/RegenerationCreditImpact.sol",
  "abi": [
    {
      "inputs": [
        {
          "internalType": "address",
          "name": "regenerationCreditAddress",
          "type": "address"
        },
        {
          "internalType": "address",
          "name": "inspectionRulesAddress",
          "type": "address"
        },
        {
          "internalType": "address",
          "name": "regeneratorRulesAddress",
          "type": "address"
        }
      ],
      "stateMutability": "nonpayable",
      "type": "constructor"
    },
    {
      "inputs": [],
      "name": "CARBON_PER_TREE",
      "outputs": [
        {
          "internalType": "uint256",
          "name": "",
          "type": "uint256"
        }
      ],
      "stateMutability": "view",
      "type": "function"
    },
    {
      "inputs": [],
      "name": "areaPerToken",
      "outputs": [
        {
          "internalType": "uint256",
          "name": "",
          "type": "uint256"
        }
      ],
      "stateMutability": "view",
      "type": "function"
    },
    {
      "inputs": [],
      "name": "biodiversityPerToken",
      "outputs": [
        {
          "internalType": "uint256",
          "name": "",
          "type": "uint256"
        }
      ],
      "stateMutability": "view",
      "type": "function"
    },
    {
      "inputs": [],
      "name": "carbonPerToken",
      "outputs": [
        {
          "internalType": "uint256",
          "name": "",
          "type": "uint256"
        }
      ],
      "stateMutability": "view",
      "type": "function"
    },
    {
      "inputs": [],
      "name": "totalAreaImpact",
      "outputs": [
        {
          "internalType": "uint256",
          "name": "",
          "type": "uint256"
        }
      ],
      "stateMutability": "view",
      "type": "function"
    },
    {
      "inputs": [],
      "name": "totalBiodiversityImpact",
      "outputs": [
        {
          "internalType": "uint256",
          "name": "",
          "type": "uint256"
        }
      ],
      "stateMutability": "view",
      "type": "function"
    },
    {
      "inputs": [],
      "name": "totalCarbonImpact",
      "outputs": [
        {
          "internalType": "uint256",
          "name": "",
          "type": "uint256"
        }
      ],
      "stateMutability": "view",
      "type": "function"
    },
    {
      "inputs": [],
      "name": "totalTreesImpact",
      "outputs": [
        {
          "internalType": "uint256",
          "name": "",
          "type": "uint256"
        }
      ],
      "stateMutability": "view",
      "type": "function"
    },
    {
      "inputs": [],
      "name": "treesPerToken",
      "outputs": [
        {
          "internalType": "uint256",
          "name": "",
          "type": "uint256"
        }
      ],
      "stateMutability": "view",
      "type": "function"
    }
  ],
  "bytecode": "0x6080604052348015600f57600080fd5b50604051610993380380610993833981016040819052602c916088565b600080546001600160a01b039485166001600160a01b03199182161790915560018054938516938216939093179092556002805491909316911617905560c4565b80516001600160a01b0381168114608357600080fd5b919050565b600080600060608486031215609c57600080fd5b60a384606d565b925060af60208501606d565b915060bb60408501606d565b90509250925092565b6108c0806100d36000396000f3fe608060405234801561001057600080fd5b50600436106100935760003560e01c8063940cd0d411610066578063940cd0d4146100ca578063b0bc3d43146100d2578063d90d4a6c146100dc578063ecfdff32146100e4578063f753ddf6146100ec57600080fd5b8063305407101461009857806353eb0419146100b257806364ecc25b146100ba578063787822c3146100c2575b600080fd5b6100a06100f4565b60405190815260200160405180910390f35b6100a0610142565b6100a061017e565b6100a0610372565b6100a061053d565b6100a0620186a081565b6100a0610579565b6100a06105b5565b6100a0610623565b6000806100ff610634565b90508060000361011157600091505090565b61013c816101366ec097ce7bc90715b34b9f100000000061013061017e565b906107aa565b906107bf565b91505090565b60008061014d610634565b90508060000361015f57600091505090565b61013c816101366ec097ce7bc90715b34b9f1000000000610130610372565b600154604080516305b4af4d60e21b815290516000926001600160a01b0316916316d2bd349160048083019260209291908290030181865afa1580156101c8573d6000803e3d6000fd5b505050506040513d601f19601f820116820180604052508101906101ec91906107cb565b67ffffffffffffffff166000036102035750600090565b600154604080516305b4af4d60e21b8152905161036d926001600160a01b0316916316d2bd349160048083019260209291908290030181865afa15801561024e573d6000803e3d6000fd5b505050506040513d601f19601f8201168201806040525081019061027291906107cb565b67ffffffffffffffff16610136600260009054906101000a90046001600160a01b03166001600160a01b031663a6bae8b06040518163ffffffff1660e01b8152600401602060405180830381865afa1580156102d2573d6000803e3d6000fd5b505050506040513d601f19601f820116820180604052508101906102f691906107fc565b600160009054906101000a90046001600160a01b03166001600160a01b031663a2b570a46040518163ffffffff1660e01b8152600401602060405180830381865afa158015610349573d6000803e3d6000fd5b505050506040513d601f19601f8201168201806040525081019061013091906107fc565b905090565b600154604080516305b4af4d60e21b815290516000926001600160a01b0316916316d2bd349160048083019260209291908290030181865afa1580156103bc573d6000803e3d6000fd5b505050506040513d601f19601f820116820180604052508101906103e091906107cb565b67ffffffffffffffff166000036103f75750600090565b600154604080516305b4af4d60e21b8152905161036d926001600160a01b0316916316d2bd349160048083019260209291908290030181865afa158015610442573d6000803e3d6000fd5b505050506040513d601f19601f8201168201806040525081019061046691906107cb565b67ffffffffffffffff16610136600260009054906101000a90046001600160a01b03166001600160a01b031663a6bae8b06040518163ffffffff1660e01b8152600401602060405180830381865afa1580156104c6573d6000803e3d6000fd5b505050506040513d601f19601f820116820180604052508101906104ea91906107fc565b600160009054906101000a90046001600160a01b03166001600160a01b031663ed8f93216040518163ffffffff1660e01b8152600401602060405180830381865afa158015610349573d6000803e3d6000fd5b600080610548610634565b90508060000361055a57600091505090565b61013c816101366ec097ce7bc90715b34b9f10000000006101306105b5565b600080610584610634565b90508060000361059657600091505090565b61013c816101366ec097ce7bc90715b34b9f1000000000610130610623565b6002546040805163442f962560e01b815290516000926001600160a01b03169163442f96259160048083019260209291908290030181865afa1580156105ff573d6000803e3d6000fd5b505050506040513d601f19601f8201168201806040525081019061036d91906107fc565b600061036d620186a0610130610372565b60008060009054906101000a90046001600160a01b03166001600160a01b03166349d627766040518163ffffffff1660e01b8152600401602060405180830381865afa158015610688573d6000803e3d6000fd5b505050506040513d601f19601f820116820180604052508101906106ac91906107fc565b60008054906101000a90046001600160a01b03166001600160a01b0316630ed944c36040518163ffffffff1660e01b8152600401602060405180830381865afa1580156106fd573d6000803e3d6000fd5b505050506040513d601f19601f8201168201806040525081019061072191906107fc565b60008054906101000a90046001600160a01b03166001600160a01b03166318160ddd6040518163ffffffff1660e01b8152600401602060405180830381865afa158015610772573d6000803e3d6000fd5b505050506040513d601f19601f8201168201806040525081019061079691906107fc565b6107a0919061082b565b61036d919061083e565b60006107b68284610851565b90505b92915050565b60006107b68284610868565b6000602082840312156107dd57600080fd5b815167ffffffffffffffff811681146107f557600080fd5b9392505050565b60006020828403121561080e57600080fd5b5051919050565b634e487b7160e01b600052601160045260246000fd5b808201808211156107b9576107b9610815565b818103818111156107b9576107b9610815565b80820281158282048414176107b9576107b9610815565b60008261088557634e487b7160e01b600052601260045260246000fd5b50049056fea264697066735822122014df0477a5b4592ffd38d07357bfdf430cb1dceab71b1386a798cdd341783e7a64736f6c634300081b0033",
  "linkReferences": {},
  "deployedLinkReferences": {}
}