{
  "_format": "hh-sol-artifact-1",
  "contractName": "RegenerationCredit",
  "sourceName": "contracts/RegenerationCredit.sol",
  "abi": [
    {
      "inputs": [
        {
          "internalType": "uint256",
          "name": "totalSupply",
          "type": "uint256"
        }
      ],
      "stateMutability": "nonpayable",
      "type": "constructor"
    },
    {
      "anonymous": false,
      "inputs": [
        {
          "indexed": true,
          "internalType": "address",
          "name": "owner",
          "type": "address"
        },
        {
          "indexed": true,
          "internalType": "address",
          "name": "spender",
          "type": "address"
        },
        {
          "indexed": false,
          "internalType": "uint256",
          "name": "value",
          "type": "uint256"
        }
      ],
      "name": "Approval",
      "type": "event"
    },
    {
      "anonymous": false,
      "inputs": [
        {
          "indexed": true,
          "internalType": "address",
          "name": "previousOwner",
          "type": "address"
        },
        {
          "indexed": true,
          "internalType": "address",
          "name": "newOwner",
          "type": "address"
        }
      ],
      "name": "OwnershipTransferred",
      "type": "event"
    },
    {
      "anonymous": false,
      "inputs": [
        {
          "indexed": true,
          "internalType": "address",
          "name": "from",
          "type": "address"
        },
        {
          "indexed": true,
          "internalType": "address",
          "name": "to",
          "type": "address"
        },
        {
          "indexed": false,
          "internalType": "uint256",
          "name": "amount",
          "type": "uint256"
        }
      ],
      "name": "PoolTransfer",
      "type": "event"
    },
    {
      "anonymous": false,
      "inputs": [
        {
          "indexed": true,
          "internalType": "address",
          "name": "account",
          "type": "address"
        },
        {
          "indexed": false,
          "internalType": "uint256",
          "name": "amount",
          "type": "uint256"
        },
        {
          "indexed": false,
          "internalType": "uint256",
          "name": "newAccountCertifiedTotal",
          "type": "uint256"
        }
      ],
      "name": "TokensCertified",
      "type": "event"
    },
    {
      "anonymous": false,
      "inputs": [
        {
          "indexed": true,
          "internalType": "address",
          "name": "from",
          "type": "address"
        },
        {
          "indexed": true,
          "internalType": "address",
          "name": "to",
          "type": "address"
        },
        {
          "indexed": false,
          "internalType": "uint256",
          "name": "value",
          "type": "uint256"
        }
      ],
      "name": "Transfer",
      "type": "event"
    },
    {
      "inputs": [],
      "name": "DECIMALS",
      "outputs": [
        {
          "internalType": "uint8",
          "name": "",
          "type": "uint8"
        }
      ],
      "stateMutability": "view",
      "type": "function"
    },
    {
      "inputs": [],
      "name": "NAME",
      "outputs": [
        {
          "internalType": "string",
          "name": "",
          "type": "string"
        }
      ],
      "stateMutability": "view",
      "type": "function"
    },
    {
      "inputs": [],
      "name": "SYMBOL",
      "outputs": [
        {
          "internalType": "string",
          "name": "",
          "type": "string"
        }
      ],
      "stateMutability": "view",
      "type": "function"
    },
    {
      "inputs": [
        {
          "internalType": "address",
          "name": "_fundAddress",
          "type": "address"
        },
        {
          "internalType": "uint256",
          "name": "_numTokens",
          "type": "uint256"
        }
      ],
      "name": "addContractPool",
      "outputs": [
        {
          "internalType": "bool",
          "name": "",
          "type": "bool"
        }
      ],
      "stateMutability": "nonpayable",
      "type": "function"
    },
    {
      "inputs": [
        {
          "internalType": "address",
          "name": "owner",
          "type": "address"
        },
        {
          "internalType": "address",
          "name": "spender",
          "type": "address"
        }
      ],
      "name": "allowance",
      "outputs": [
        {
          "internalType": "uint256",
          "name": "",
          "type": "uint256"
        }
      ],
      "stateMutability": "view",
      "type": "function"
    },
    {
      "inputs": [
        {
          "internalType": "address",
          "name": "spender",
          "type": "address"
        },
        {
          "internalType": "uint256",
          "name": "amount",
          "type": "uint256"
        }
      ],
      "name": "approve",
      "outputs": [
        {
          "internalType": "bool",
          "name": "",
          "type": "bool"
        }
      ],
      "stateMutability": "nonpayable",
      "type": "function"
    },
    {
      "inputs": [
        {
          "internalType": "address",
          "name": "account",
          "type": "address"
        }
      ],
      "name": "balanceOf",
      "outputs": [
        {
          "internalType": "uint256",
          "name": "",
          "type": "uint256"
        }
      ],
      "stateMutability": "view",
      "type": "function"
    },
    {
      "inputs": [
        {
          "internalType": "uint256",
          "name": "amount",
          "type": "uint256"
        }
      ],
      "name": "burnTokens",
      "outputs": [],
      "stateMutability": "nonpayable",
      "type": "function"
    },
    {
      "inputs": [
        {
          "internalType": "address",
          "name": "",
          "type": "address"
        }
      ],
      "name": "certificate",
      "outputs": [
        {
          "internalType": "uint256",
          "name": "",
          "type": "uint256"
        }
      ],
      "stateMutability": "view",
      "type": "function"
    },
    {
      "inputs": [
        {
          "internalType": "address",
          "name": "poolAddress",
          "type": "address"
        }
      ],
      "name": "contractPool",
      "outputs": [
        {
          "internalType": "bool",
          "name": "",
          "type": "bool"
        }
      ],
      "stateMutability": "view",
      "type": "function"
    },
    {
      "inputs": [],
      "name": "decimals",
      "outputs": [
        {
          "internalType": "uint8",
          "name": "",
          "type": "uint8"
        }
      ],
      "stateMutability": "view",
      "type": "function"
    },
    {
      "inputs": [
        {
          "internalType": "address",
          "name": "spender",
          "type": "address"
        },
        {
          "internalType": "uint256",
          "name": "subtractedValue",
          "type": "uint256"
        }
      ],
      "name": "decreaseAllowance",
      "outputs": [
        {
          "internalType": "bool",
          "name": "",
          "type": "bool"
        }
      ],
      "stateMutability": "nonpayable",
      "type": "function"
    },
    {
      "inputs": [
        {
          "internalType": "address",
          "name": "spender",
          "type": "address"
        },
        {
          "internalType": "uint256",
          "name": "addedValue",
          "type": "uint256"
        }
      ],
      "name": "increaseAllowance",
      "outputs": [
        {
          "internalType": "bool",
          "name": "",
          "type": "bool"
        }
      ],
      "stateMutability": "nonpayable",
      "type": "function"
    },
    {
      "inputs": [],
      "name": "name",
      "outputs": [
        {
          "internalType": "string",
          "name": "",
          "type": "string"
        }
      ],
      "stateMutability": "view",
      "type": "function"
    },
    {
      "inputs": [
        {
          "internalType": "uint256",
          "name": "amount",
          "type": "uint256"
        },
        {
          "internalType": "uint64",
          "name": "calculatorItemId",
          "type": "uint64"
        }
      ],
      "name": "offset",
      "outputs": [],
      "stateMutability": "nonpayable",
      "type": "function"
    },
    {
      "inputs": [],
      "name": "owner",
      "outputs": [
        {
          "internalType": "address",
          "name": "",
          "type": "address"
        }
      ],
      "stateMutability": "view",
      "type": "function"
    },
    {
      "inputs": [
        {
          "internalType": "address",
          "name": "tokenOwner",
          "type": "address"
        },
        {
          "internalType": "address",
          "name": "receiver",
          "type": "address"
        },
        {
          "internalType": "uint256",
          "name": "numTokens",
          "type": "uint256"
        }
      ],
      "name": "poolTransfer",
      "outputs": [],
      "stateMutability": "nonpayable",
      "type": "function"
    },
    {
      "inputs": [
        {
          "internalType": "uint256",
          "name": "amount",
          "type": "uint256"
        },
        {
          "internalType": "string",
          "name": "description",
          "type": "string"
        },
        {
          "internalType": "string",
          "name": "content",
          "type": "string"
        }
      ],
      "name": "publish",
      "outputs": [],
      "stateMutability": "nonpayable",
      "type": "function"
    },
    {
      "inputs": [],
      "name": "renounceOwnership",
      "outputs": [],
      "stateMutability": "nonpayable",
      "type": "function"
    },
    {
      "inputs": [
        {
          "internalType": "address",
          "name": "supporterRulesAddress",
          "type": "address"
        }
      ],
      "name": "setContractDependencies",
      "outputs": [],
      "stateMutability": "nonpayable",
      "type": "function"
    },
    {
      "inputs": [],
      "name": "symbol",
      "outputs": [
        {
          "internalType": "string",
          "name": "",
          "type": "string"
        }
      ],
      "stateMutability": "view",
      "type": "function"
    },
    {
      "inputs": [],
      "name": "totalCertified",
      "outputs": [
        {
          "internalType": "uint256",
          "name": "",
          "type": "uint256"
        }
      ],
      "stateMutability": "view",
      "type": "function"
    },
    {
      "inputs": [],
      "name": "totalCertified_",
      "outputs": [
        {
          "internalType": "uint256",
          "name": "",
          "type": "uint256"
        }
      ],
      "stateMutability": "view",
      "type": "function"
    },
    {
      "inputs": [],
      "name": "totalLocked",
      "outputs": [
        {
          "internalType": "uint256",
          "name": "",
          "type": "uint256"
        }
      ],
      "stateMutability": "view",
      "type": "function"
    },
    {
      "inputs": [],
      "name": "totalLocked_",
      "outputs": [
        {
          "internalType": "uint256",
          "name": "",
          "type": "uint256"
        }
      ],
      "stateMutability": "view",
      "type": "function"
    },
    {
      "inputs": [],
      "name": "totalSupply",
      "outputs": [
        {
          "internalType": "uint256",
          "name": "",
          "type": "uint256"
        }
      ],
      "stateMutability": "view",
      "type": "function"
    },
    {
      "inputs": [
        {
          "internalType": "address",
          "name": "to",
          "type": "address"
        },
        {
          "internalType": "uint256",
          "name": "amount",
          "type": "uint256"
        }
      ],
      "name": "transfer",
      "outputs": [
        {
          "internalType": "bool",
          "name": "",
          "type": "bool"
        }
      ],
      "stateMutability": "nonpayable",
      "type": "function"
    },
    {
      "inputs": [
        {
          "internalType": "address",
          "name": "from",
          "type": "address"
        },
        {
          "internalType": "address",
          "name": "to",
          "type": "address"
        },
        {
          "internalType": "uint256",
          "name": "amount",
          "type": "uint256"
        }
      ],
      "name": "transferFrom",
      "outputs": [
        {
          "internalType": "bool",
          "name": "",
          "type": "bool"
        }
      ],
      "stateMutability": "nonpayable",
      "type": "function"
    },
    {
      "inputs": [
        {
          "internalType": "address",
          "name": "newOwner",
          "type": "address"
        }
      ],
      "name": "transferOwnership",
      "outputs": [],
      "stateMutability": "nonpayable",
      "type": "function"
    }
  ],
  "bytecode": "0x608060405234801561001057600080fd5b50604051611abb380380611abb83398101604081905261002f916101e8565b6040518060400160405280601381526020017f524547454e45524154494f4e204352454449540000000000000000000000000081525060405180604001604052806002815260200161524360f01b815250816003908161008f919061029f565b50600461009c828261029f565b5050506100b56100b06100ca60201b60201c565b6100ce565b60016006556100c43382610120565b50610384565b3390565b600580546001600160a01b038381166001600160a01b0319831681179093556040519116919082907f8be0079c531659141344cd1fd0a4f28419497f9722a3daafe3b4186f6b6457e090600090a35050565b6001600160a01b03821661017a5760405162461bcd60e51b815260206004820152601f60248201527f45524332303a206d696e7420746f20746865207a65726f206164647265737300604482015260640160405180910390fd5b806002600082825461018c919061035d565b90915550506001600160a01b038216600081815260208181526040808320805486019055518481527fddf252ad1be2c89b69c2b068fc378daa952ba7f163c4a11628f55a4df523b3ef910160405180910390a35050565b505050565b6000602082840312156101fa57600080fd5b5051919050565b634e487b7160e01b600052604160045260246000fd5b600181811c9082168061022b57607f821691505b60208210810361024b57634e487b7160e01b600052602260045260246000fd5b50919050565b601f8211156101e357806000526020600020601f840160051c810160208510156102785750805b601f840160051c820191505b818110156102985760008155600101610284565b5050505050565b81516001600160401b038111156102b8576102b8610201565b6102cc816102c68454610217565b84610251565b6020601f82116001811461030057600083156102e85750848201515b600019600385901b1c1916600184901b178455610298565b600084815260208120601f198516915b828110156103305787850151825560209485019460019092019101610310565b508482101561034e5786840151600019600387901b60f8161c191681555b50505050600190811b01905550565b8082018082111561037e57634e487b7160e01b600052601160045260246000fd5b92915050565b611728806103936000396000f3fe608060405234801561001057600080fd5b50600436106101cf5760003560e01c80635689141211610104578063a457c2d7116100a2578063dd62ed3e11610071578063dd62ed3e146103ed578063f000694014610400578063f2fde38b14610413578063f76f8d781461042657600080fd5b8063a457c2d7146103ac578063a9059cbb146103bf578063b14f0b43146103d2578063b3f39ced146103da57600080fd5b8063715018a6116100de578063715018a61461034f5780638da5cb5b1461035757806395d89b4114610372578063a3f4df7e1461037a57600080fd5b8063568914121461030b5780636d1b229d1461031357806370a082311461032657600080fd5b806323b872dd116101715780633834565d1161014b5780633834565d146102b057806339509351146102dc57806349d62776146102ef5780634d65a846146102f857600080fd5b806323b872dd1461027c5780632e0f26251461028f578063313ce567146102a957600080fd5b80630ed944c3116101ad5780630ed944c31461022a57806318160ddd14610241578063192e30f8146102495780631affb7b71461025c57600080fd5b806304c1973a146101d457806306fdde03146101e9578063095ea7b314610207575b600080fd5b6101e76101e236600461135d565b610447565b005b6101f1610672565b6040516101fe91906113e0565b60405180910390f35b61021a61021536600461140f565b610704565b60405190151581526020016101fe565b61023360085481565b6040519081526020016101fe565b600254610233565b6101e761025736600461143b565b61071e565b61023361026a36600461147c565b600a6020526000908152604090205481565b61021a61028a36600461143b565b610858565b610297601281565b60405160ff90911681526020016101fe565b6012610297565b61021a6102be36600461147c565b6001600160a01b031660009081526007602052604090205460ff1690565b61021a6102ea36600461140f565b61087c565b61023360095481565b61021a61030636600461140f565b61089e565b600954610233565b6101e7610321366004611499565b6108f6565b61023361033436600461147c565b6001600160a01b031660009081526020819052604090205490565b6101e761095e565b6005546040516001600160a01b0390911681526020016101fe565b6101f1610972565b6101f160405180604001604052806013815260200172149151d153915490551253d38810d491511255606a1b81525081565b61021a6103ba36600461140f565b610981565b61021a6103cd36600461140f565b6109fc565b600854610233565b6101e76103e836600461147c565b610a0a565b6102336103fb3660046114b2565b610a34565b6101e761040e366004611585565b610a5f565b6101e761042136600461147c565b610cd1565b6101f160405180604001604052806002815260200161524360f01b81525081565b61044f610d47565b600b5460405163b9cccee360e01b81523360048201526001600160a01b039091169063b9cccee3906024016020604051808303816000875af1158015610499573d6000803e3d6000fd5b505050506040513d601f19601f820116820180604052508101906104bd91906115f7565b6105005760405162461bcd60e51b815260206004820152600f60248201526e4f6e6c7920737570706f727465727360881b60448201526064015b60405180910390fd5b670de0b6b3a76400008210156105585760405162461bcd60e51b815260206004820152601c60248201527f416d6f756e74206d757374206265206174206c6561737420312052430000000060448201526064016104f7565b600b54604051632d87134760e01b815233600482015260248101849052600091829182916001600160a01b031690632d871347906044016060604051808303816000875af11580156105ae573d6000803e3d6000fd5b505050506040513d601f19601f820116820180604052508101906105d29190611619565b9250925092506105e281836109fc565b506105ed3384610da0565b600b5460405163e5fb509960e01b81523360048201526024810185905267ffffffffffffffff861660448201526001600160a01b039091169063e5fb509990606401600060405180830381600087803b15801561064957600080fd5b505af115801561065d573d6000803e3d6000fd5b5050505050505061066e6001600655565b5050565b60606003805461068190611653565b80601f01602080910402602001604051908101604052809291908181526020018280546106ad90611653565b80156106fa5780601f106106cf576101008083540402835291602001916106fa565b820191906000526020600020905b8154815290600101906020018083116106dd57829003601f168201915b5050505050905090565b600033610712818585610e45565b60019150505b92915050565b3360009081526007602052604090205460ff166107735760405162461bcd60e51b8152602060048201526013602482015272139bdd08184818dbdb9d1c9858dd081c1bdbdb606a1b60448201526064016104f7565b6001600160a01b0383166000908152602081905260409020548111156107db5760405162461bcd60e51b815260206004820152601860248201527f596f7520646f6e2774206861766520524320546f6b656e73000000000000000060448201526064016104f7565b6001600160a01b03831660009081526007602052604090205460ff1615610806576009805482900390555b816001600160a01b0316836001600160a01b03167f87f7534ef381864c1b415d34dde9d66c08f2233e0a724d7b0f2f3b231273f1f68360405161084b91815260200190565b60405180910390a3505050565b600033610866858285610f61565b610871858585610fdb565b506001949350505050565b60003361071281858561088f8383610a34565b610899919061168d565b610e45565b60006108a861117f565b6001600160a01b0383166000908152600760205260409020805460ff191660011790556108d6338484610fdb565b81600960008282546108e8919061168d565b909155506001949350505050565b600081116109515760405162461bcd60e51b815260206004820152602260248201527f4275726e20616d6f756e74206d7573742062652067726561746572207468616e604482015261020360f41b60648201526084016104f7565b61095b3382610da0565b50565b61096661117f565b61097060006111d9565b565b60606004805461068190611653565b6000338161098f8286610a34565b9050838110156109ef5760405162461bcd60e51b815260206004820152602560248201527f45524332303a2064656372656173656420616c6c6f77616e63652062656c6f77604482015264207a65726f60d81b60648201526084016104f7565b6108718286868403610e45565b600033610712818585610fdb565b610a1261117f565b600b80546001600160a01b0319166001600160a01b0392909216919091179055565b6001600160a01b03918216600090815260016020908152604080832093909416825291909152205490565b610a67610d47565b600b5460405163b9cccee360e01b81523360048201526001600160a01b039091169063b9cccee3906024016020604051808303816000875af1158015610ab1573d6000803e3d6000fd5b505050506040513d601f19601f82011682018060405250810190610ad591906115f7565b610b135760405162461bcd60e51b815260206004820152600f60248201526e4f6e6c7920737570706f727465727360881b60448201526064016104f7565b670de0b6b3a7640000831015610b6b5760405162461bcd60e51b815260206004820152601c60248201527f416d6f756e74206d757374206265206174206c6561737420312052430000000060448201526064016104f7565b815161025810801590610b815750805161025810155b610bc25760405162461bcd60e51b81526020600482015260126024820152714d617820363030206368617261637465727360701b60448201526064016104f7565b600b54604051632d87134760e01b815233600482015260248101859052600091829182916001600160a01b031690632d871347906044016060604051808303816000875af1158015610c18573d6000803e3d6000fd5b505050506040513d601f19601f82011682018060405250810190610c3c9190611619565b925092509250610c4c81836109fc565b50610c573384610da0565b600b5460405163cf78537f60e01b81526001600160a01b039091169063cf78537f90610c8d90339087908a908a906004016116ae565b600060405180830381600087803b158015610ca757600080fd5b505af1158015610cbb573d6000803e3d6000fd5b50505050505050610ccc6001600655565b505050565b610cd961117f565b6001600160a01b038116610d3e5760405162461bcd60e51b815260206004820152602660248201527f4f776e61626c653a206e6577206f776e657220697320746865207a65726f206160448201526564647265737360d01b60648201526084016104f7565b61095b816111d9565b600260065403610d995760405162461bcd60e51b815260206004820152601f60248201527f5265656e7472616e637947756172643a207265656e7472616e742063616c6c0060448201526064016104f7565b6002600655565b610daa828261122b565b6001600160a01b0382166000908152600a602052604081208054839290610dd290849061168d565b925050819055508060086000828254610deb919061168d565b90915550506001600160a01b0382166000818152600a6020908152604091829020548251858152918201527fdcfaa57faef6cafa9ba0201b781740b5b5d63ee6dcee12a25d5cc93c1cc1df16910160405180910390a25050565b6001600160a01b038316610ea75760405162461bcd60e51b8152602060048201526024808201527f45524332303a20617070726f76652066726f6d20746865207a65726f206164646044820152637265737360e01b60648201526084016104f7565b6001600160a01b038216610f085760405162461bcd60e51b815260206004820152602260248201527f45524332303a20617070726f766520746f20746865207a65726f206164647265604482015261737360f01b60648201526084016104f7565b6001600160a01b0383811660008181526001602090815260408083209487168084529482529182902085905590518481527f8c5be1e5ebec7d5bd14f71427d1e84f3dd0314c0f7b2291e5b200ac8c7c3b925910161084b565b6000610f6d8484610a34565b90506000198114610fd55781811015610fc85760405162461bcd60e51b815260206004820152601d60248201527f45524332303a20696e73756666696369656e7420616c6c6f77616e636500000060448201526064016104f7565b610fd58484848403610e45565b50505050565b6001600160a01b03831661103f5760405162461bcd60e51b815260206004820152602560248201527f45524332303a207472616e736665722066726f6d20746865207a65726f206164604482015264647265737360d81b60648201526084016104f7565b6001600160a01b0382166110a15760405162461bcd60e51b815260206004820152602360248201527f45524332303a207472616e7366657220746f20746865207a65726f206164647260448201526265737360e81b60648201526084016104f7565b6001600160a01b038316600090815260208190526040902054818110156111195760405162461bcd60e51b815260206004820152602660248201527f45524332303a207472616e7366657220616d6f756e7420657863656564732062604482015265616c616e636560d01b60648201526084016104f7565b6001600160a01b03848116600081815260208181526040808320878703905593871680835291849020805487019055925185815290927fddf252ad1be2c89b69c2b068fc378daa952ba7f163c4a11628f55a4df523b3ef910160405180910390a3610fd5565b6005546001600160a01b031633146109705760405162461bcd60e51b815260206004820181905260248201527f4f776e61626c653a2063616c6c6572206973206e6f7420746865206f776e657260448201526064016104f7565b600580546001600160a01b038381166001600160a01b0319831681179093556040519116919082907f8be0079c531659141344cd1fd0a4f28419497f9722a3daafe3b4186f6b6457e090600090a35050565b6001600160a01b03821661128b5760405162461bcd60e51b815260206004820152602160248201527f45524332303a206275726e2066726f6d20746865207a65726f206164647265736044820152607360f81b60648201526084016104f7565b6001600160a01b038216600090815260208190526040902054818110156112ff5760405162461bcd60e51b815260206004820152602260248201527f45524332303a206275726e20616d6f756e7420657863656564732062616c616e604482015261636560f01b60648201526084016104f7565b6001600160a01b0383166000818152602081815260408083208686039055600280548790039055518581529192917fddf252ad1be2c89b69c2b068fc378daa952ba7f163c4a11628f55a4df523b3ef910160405180910390a3505050565b6000806040838503121561137057600080fd5b82359150602083013567ffffffffffffffff8116811461138f57600080fd5b809150509250929050565b6000815180845260005b818110156113c0576020818501810151868301820152016113a4565b506000602082860101526020601f19601f83011685010191505092915050565b6020815260006113f3602083018461139a565b9392505050565b6001600160a01b038116811461095b57600080fd5b6000806040838503121561142257600080fd5b823561142d816113fa565b946020939093013593505050565b60008060006060848603121561145057600080fd5b833561145b816113fa565b9250602084013561146b816113fa565b929592945050506040919091013590565b60006020828403121561148e57600080fd5b81356113f3816113fa565b6000602082840312156114ab57600080fd5b5035919050565b600080604083850312156114c557600080fd5b82356114d0816113fa565b9150602083013561138f816113fa565b634e487b7160e01b600052604160045260246000fd5b600082601f83011261150757600080fd5b813567ffffffffffffffff811115611521576115216114e0565b604051601f8201601f19908116603f0116810167ffffffffffffffff81118282101715611550576115506114e0565b60405281815283820160200185101561156857600080fd5b816020850160208301376000918101602001919091529392505050565b60008060006060848603121561159a57600080fd5b83359250602084013567ffffffffffffffff8111156115b857600080fd5b6115c4868287016114f6565b925050604084013567ffffffffffffffff8111156115e157600080fd5b6115ed868287016114f6565b9150509250925092565b60006020828403121561160957600080fd5b815180151581146113f357600080fd5b60008060006060848603121561162e57600080fd5b8351602085015160408601519194509250611648816113fa565b809150509250925092565b600181811c9082168061166757607f821691505b60208210810361168757634e487b7160e01b600052602260045260246000fd5b50919050565b8082018082111561071857634e487b7160e01b600052601160045260246000fd5b60018060a01b03851681528360208201526080604082015260006116d5608083018561139a565b82810360608401526116e7818561139a565b97965050505050505056fea26469706673582212209f5f21cfd175f7a6f9428681dbf2bf5aa01dfebca307aa3efd042c70f690016c64736f6c634300081b0033",
  "linkReferences": {},
  "deployedLinkReferences": {}
}