{
  "_format": "hh-sol-artifact-1",
  "contractName": "RegeneratorRules",
  "sourceName": "contracts/RegeneratorRules.sol",
  "abi": [
    {
      "inputs": [
        {
          "internalType": "address",
          "name": "communityRulesAddress",
          "type": "address"
        },
        {
          "internalType": "address",
          "name": "regeneratorPoolAddress",
          "type": "address"
        }
      ],
      "stateMutability": "nonpayable",
      "type": "constructor"
    },
    {
      "inputs": [
        {
          "internalType": "address",
          "name": "owner",
          "type": "address"
        }
      ],
      "name": "OwnableInvalidOwner",
      "type": "error"
    },
    {
      "inputs": [
        {
          "internalType": "address",
          "name": "account",
          "type": "address"
        }
      ],
      "name": "OwnableUnauthorizedAccount",
      "type": "error"
    },
    {
      "inputs": [],
      "name": "ReentrancyGuardReentrantCall",
      "type": "error"
    },
    {
      "anonymous": false,
      "inputs": [
        {
          "indexed": true,
          "internalType": "address",
          "name": "previousOwner",
          "type": "address"
        },
        {
          "indexed": true,
          "internalType": "address",
          "name": "newOwner",
          "type": "address"
        }
      ],
      "name": "OwnershipTransferred",
      "type": "event"
    },
    {
      "anonymous": false,
      "inputs": [
        {
          "indexed": true,
          "internalType": "address",
          "name": "regeneratorAddress",
          "type": "address"
        },
        {
          "indexed": false,
          "internalType": "uint256",
          "name": "blockNumber",
          "type": "uint256"
        }
      ],
      "name": "RegeneratorEnteredPool",
      "type": "event"
    },
    {
      "anonymous": false,
      "inputs": [
        {
          "indexed": true,
          "internalType": "uint256",
          "name": "id",
          "type": "uint256"
        },
        {
          "indexed": true,
          "internalType": "address",
          "name": "regeneratorAddress",
          "type": "address"
        },
        {
          "indexed": false,
          "internalType": "string",
          "name": "name",
          "type": "string"
        },
        {
          "indexed": false,
          "internalType": "uint32",
          "name": "totalArea",
          "type": "uint32"
        },
        {
          "indexed": false,
          "internalType": "uint256",
          "name": "blockNumber",
          "type": "uint256"
        }
      ],
      "name": "RegeneratorRegistered",
      "type": "event"
    },
    {
      "anonymous": false,
      "inputs": [
        {
          "indexed": true,
          "internalType": "address",
          "name": "regeneratorAddress",
          "type": "address"
        },
        {
          "indexed": true,
          "internalType": "uint256",
          "name": "era",
          "type": "uint256"
        },
        {
          "indexed": false,
          "internalType": "uint256",
          "name": "blockNumber",
          "type": "uint256"
        }
      ],
      "name": "RegeneratorWithdrawalInitiated",
      "type": "event"
    },
    {
      "inputs": [],
      "name": "MAX_REGENERATION_AREA",
      "outputs": [
        {
          "internalType": "uint32",
          "name": "",
          "type": "uint32"
        }
      ],
      "stateMutability": "view",
      "type": "function"
    },
    {
      "inputs": [],
      "name": "MINIMUM_INSPECTIONS_TO_POOL",
      "outputs": [
        {
          "internalType": "uint8",
          "name": "",
          "type": "uint8"
        }
      ],
      "stateMutability": "view",
      "type": "function"
    },
    {
      "inputs": [],
      "name": "MIN_REGENERATION_AREA",
      "outputs": [
        {
          "internalType": "uint32",
          "name": "",
          "type": "uint32"
        }
      ],
      "stateMutability": "view",
      "type": "function"
    },
    {
      "inputs": [
        {
          "internalType": "uint32",
          "name": "totalArea",
          "type": "uint32"
        },
        {
          "internalType": "string",
          "name": "name",
          "type": "string"
        },
        {
          "internalType": "string",
          "name": "proofPhoto",
          "type": "string"
        },
        {
          "internalType": "string",
          "name": "projectDescription",
          "type": "string"
        },
        {
          "components": [
            {
              "internalType": "string",
              "name": "latitude",
              "type": "string"
            },
            {
              "internalType": "string",
              "name": "longitude",
              "type": "string"
            }
          ],
          "internalType": "struct Coordinates[]",
          "name": "_coordinates",
          "type": "tuple[]"
        }
      ],
      "name": "addRegenerator",
      "outputs": [],
      "stateMutability": "nonpayable",
      "type": "function"
    },
    {
      "inputs": [
        {
          "internalType": "address",
          "name": "addr",
          "type": "address"
        }
      ],
      "name": "afterAcceptInspection",
      "outputs": [],
      "stateMutability": "nonpayable",
      "type": "function"
    },
    {
      "inputs": [
        {
          "internalType": "address",
          "name": "addr",
          "type": "address"
        },
        {
          "internalType": "uint32",
          "name": "score",
          "type": "uint32"
        },
        {
          "internalType": "uint64",
          "name": "inspectionId",
          "type": "uint64"
        }
      ],
      "name": "afterRealizeInspection",
      "outputs": [
        {
          "internalType": "uint256",
          "name": "",
          "type": "uint256"
        }
      ],
      "stateMutability": "nonpayable",
      "type": "function"
    },
    {
      "inputs": [
        {
          "internalType": "address",
          "name": "addr",
          "type": "address"
        }
      ],
      "name": "afterRequestInspection",
      "outputs": [],
      "stateMutability": "nonpayable",
      "type": "function"
    },
    {
      "inputs": [
        {
          "internalType": "address",
          "name": "",
          "type": "address"
        }
      ],
      "name": "allowedCallers",
      "outputs": [
        {
          "internalType": "bool",
          "name": "",
          "type": "bool"
        }
      ],
      "stateMutability": "view",
      "type": "function"
    },
    {
      "inputs": [
        {
          "internalType": "address",
          "name": "",
          "type": "address"
        }
      ],
      "name": "areaPhoto",
      "outputs": [
        {
          "internalType": "string",
          "name": "",
          "type": "string"
        }
      ],
      "stateMutability": "view",
      "type": "function"
    },
    {
      "inputs": [
        {
          "internalType": "address",
          "name": "",
          "type": "address"
        },
        {
          "internalType": "uint256",
          "name": "",
          "type": "uint256"
        }
      ],
      "name": "coordinates",
      "outputs": [
        {
          "internalType": "string",
          "name": "latitude",
          "type": "string"
        },
        {
          "internalType": "string",
          "name": "longitude",
          "type": "string"
        }
      ],
      "stateMutability": "view",
      "type": "function"
    },
    {
      "inputs": [
        {
          "internalType": "address",
          "name": "addr",
          "type": "address"
        }
      ],
      "name": "decrementInspections",
      "outputs": [],
      "stateMutability": "nonpayable",
      "type": "function"
    },
    {
      "inputs": [
        {
          "internalType": "address",
          "name": "addr",
          "type": "address"
        }
      ],
      "name": "getCoordinates",
      "outputs": [
        {
          "components": [
            {
              "internalType": "string",
              "name": "latitude",
              "type": "string"
            },
            {
              "internalType": "string",
              "name": "longitude",
              "type": "string"
            }
          ],
          "internalType": "struct Coordinates[]",
          "name": "",
          "type": "tuple[]"
        }
      ],
      "stateMutability": "view",
      "type": "function"
    },
    {
      "inputs": [
        {
          "internalType": "address",
          "name": "addr",
          "type": "address"
        }
      ],
      "name": "getRegenerator",
      "outputs": [
        {
          "components": [
            {
              "internalType": "uint64",
              "name": "id",
              "type": "uint64"
            },
            {
              "internalType": "address",
              "name": "regeneratorWallet",
              "type": "address"
            },
            {
              "internalType": "string",
              "name": "name",
              "type": "string"
            },
            {
              "internalType": "string",
              "name": "proofPhoto",
              "type": "string"
            },
            {
              "internalType": "uint32",
              "name": "totalArea",
              "type": "uint32"
            },
            {
              "internalType": "bool",
              "name": "pendingInspection",
              "type": "bool"
            },
            {
              "internalType": "uint256",
              "name": "totalInspections",
              "type": "uint256"
            },
            {
              "internalType": "uint256",
              "name": "lastRequestAt",
              "type": "uint256"
            },
            {
              "components": [
                {
                  "internalType": "uint256",
                  "name": "score",
                  "type": "uint256"
                }
              ],
              "internalType": "struct RegenerationScore",
              "name": "regenerationScore",
              "type": "tuple"
            },
            {
              "components": [
                {
                  "internalType": "bool",
                  "name": "onContractPool",
                  "type": "bool"
                },
                {
                  "internalType": "uint256",
                  "name": "currentEra",
                  "type": "uint256"
                }
              ],
              "internalType": "struct Pool",
              "name": "pool",
              "type": "tuple"
            },
            {
              "internalType": "uint256",
              "name": "createdAt",
              "type": "uint256"
            },
            {
              "internalType": "uint256",
              "name": "coordinatesCount",
              "type": "uint256"
            },
            {
              "internalType": "bool",
              "name": "isFullyInvalidated",
              "type": "bool"
            }
          ],
          "internalType": "struct Regenerator",
          "name": "regenerator",
          "type": "tuple"
        }
      ],
      "stateMutability": "view",
      "type": "function"
    },
    {
      "inputs": [
        {
          "internalType": "address",
          "name": "",
          "type": "address"
        }
      ],
      "name": "impactRegenerators",
      "outputs": [
        {
          "internalType": "bool",
          "name": "",
          "type": "bool"
        }
      ],
      "stateMutability": "view",
      "type": "function"
    },
    {
      "inputs": [
        {
          "internalType": "address",
          "name": "caller",
          "type": "address"
        }
      ],
      "name": "isAllowedCaller",
      "outputs": [
        {
          "internalType": "bool",
          "name": "",
          "type": "bool"
        }
      ],
      "stateMutability": "view",
      "type": "function"
    },
    {
      "inputs": [
        {
          "internalType": "address",
          "name": "allowed",
          "type": "address"
        }
      ],
      "name": "newAllowedCaller",
      "outputs": [],
      "stateMutability": "nonpayable",
      "type": "function"
    },
    {
      "inputs": [],
      "name": "nextEraIn",
      "outputs": [
        {
          "internalType": "uint256",
          "name": "",
          "type": "uint256"
        }
      ],
      "stateMutability": "view",
      "type": "function"
    },
    {
      "inputs": [],
      "name": "owner",
      "outputs": [
        {
          "internalType": "address",
          "name": "",
          "type": "address"
        }
      ],
      "stateMutability": "view",
      "type": "function"
    },
    {
      "inputs": [],
      "name": "poolCurrentEra",
      "outputs": [
        {
          "internalType": "uint256",
          "name": "",
          "type": "uint256"
        }
      ],
      "stateMutability": "view",
      "type": "function"
    },
    {
      "inputs": [
        {
          "internalType": "address",
          "name": "",
          "type": "address"
        }
      ],
      "name": "projectDescriptions",
      "outputs": [
        {
          "internalType": "string",
          "name": "",
          "type": "string"
        }
      ],
      "stateMutability": "view",
      "type": "function"
    },
    {
      "inputs": [],
      "name": "regenerationArea",
      "outputs": [
        {
          "internalType": "uint256",
          "name": "",
          "type": "uint256"
        }
      ],
      "stateMutability": "view",
      "type": "function"
    },
    {
      "inputs": [],
      "name": "regenerationTotalArea",
      "outputs": [
        {
          "internalType": "uint256",
          "name": "",
          "type": "uint256"
        }
      ],
      "stateMutability": "view",
      "type": "function"
    },
    {
      "inputs": [
        {
          "internalType": "uint256",
          "name": "",
          "type": "uint256"
        }
      ],
      "name": "regeneratorsAddress",
      "outputs": [
        {
          "internalType": "address",
          "name": "",
          "type": "address"
        }
      ],
      "stateMutability": "view",
      "type": "function"
    },
    {
      "inputs": [
        {
          "internalType": "address",
          "name": "addr",
          "type": "address"
        },
        {
          "internalType": "uint256",
          "name": "amountToRemove",
          "type": "uint256"
        }
      ],
      "name": "removeInspectionLevels",
      "outputs": [],
      "stateMutability": "nonpayable",
      "type": "function"
    },
    {
      "inputs": [
        {
          "internalType": "address",
          "name": "addr",
          "type": "address"
        },
        {
          "internalType": "bool",
          "name": "denied",
          "type": "bool"
        }
      ],
      "name": "removePoolLevels",
      "outputs": [],
      "stateMutability": "nonpayable",
      "type": "function"
    },
    {
      "inputs": [],
      "name": "renounceOwnership",
      "outputs": [],
      "stateMutability": "nonpayable",
      "type": "function"
    },
    {
      "inputs": [
        {
          "internalType": "address",
          "name": "_inspectionRulesAddress",
          "type": "address"
        },
        {
          "internalType": "address",
          "name": "_validationRulesAddress",
          "type": "address"
        }
      ],
      "name": "setContractCall",
      "outputs": [],
      "stateMutability": "nonpayable",
      "type": "function"
    },
    {
      "inputs": [],
      "name": "totalImpactRegenerators",
      "outputs": [
        {
          "internalType": "uint256",
          "name": "",
          "type": "uint256"
        }
      ],
      "stateMutability": "view",
      "type": "function"
    },
    {
      "inputs": [
        {
          "internalType": "address",
          "name": "newOwner",
          "type": "address"
        }
      ],
      "name": "transferOwnership",
      "outputs": [],
      "stateMutability": "nonpayable",
      "type": "function"
    },
    {
      "inputs": [
        {
          "internalType": "string",
          "name": "newPhoto",
          "type": "string"
        }
      ],
      "name": "updateAreaPhoto",
      "outputs": [],
      "stateMutability": "nonpayable",
      "type": "function"
    },
    {
      "inputs": [],
      "name": "withdraw",
      "outputs": [],
      "stateMutability": "nonpayable",
      "type": "function"
    }
  ],
  "bytecode": "0x608060405234801561001057600080fd5b5060405161360a38038061360a83398101604081905261002f91610101565b338061005557604051631e4fbdf760e01b81526000600482015260240160405180910390fd5b61005e81610095565b506001600255600b80546001600160a01b039384166001600160a01b031991821617909155600c8054929093169116179055610134565b600080546001600160a01b038381166001600160a01b0319831681178455604051919092169283917f8be0079c531659141344cd1fd0a4f28419497f9722a3daafe3b4186f6b6457e09190a35050565b80516001600160a01b03811681146100fc57600080fd5b919050565b6000806040838503121561011457600080fd5b61011d836100e5565b915061012b602084016100e5565b90509250929050565b6134c7806101436000396000f3fe608060405234801561001057600080fd5b50600436106101e55760003560e01c806385b5ee9b1161010f578063a77963f0116100a2578063c85a58ff11610071578063c85a58ff1461044b578063e05cf1551461046c578063e57637f014610474578063f2fde38b1461049d57600080fd5b8063a77963f0146103f8578063aa8d536a14610412578063b9a68b2b14610425578063c3c983d21461043857600080fd5b80638f93716f116100de5780638f93716f1461039d57806394c3cee9146103b0578063a6801258146103c3578063a6bae8b0146103ef57600080fd5b806385b5ee9b1461032b5780638ca6bee81461034e5780638da5cb5b146103585780638ee394721461037d57600080fd5b8063442f9625116101875780636ea7a2e9116101565780636ea7a2e9146102bf578063715018a6146102dd57806377811610146102e55780637b334154146102f857600080fd5b8063442f96251461028657806345e0e89a1461028f578063582256f11461029757806365ab21b01461029f57600080fd5b8063218f23ca116101c3578063218f23ca146102385780632429f0de1461024b578063257b4e7c1461025e5780633ccfd60b1461027e57600080fd5b806304521ca3146101ea5780631db64204146101ff5780631e2d317614610212575b600080fd5b6101fd6101f8366004612767565b6104b0565b005b6101fd61020d36600461279a565b6104e6565b6102256102203660046127e5565b610558565b6040519081526020015b60405180910390f35b6101fd61024636600461283a565b6106c3565b6101fd610259366004612871565b610852565b61027161026c36600461279a565b61095b565b60405161022f91906128e1565b6101fd6109f5565b610225600e5481565b600e54610225565b610225610bd5565b6102b26102ad36600461279a565b610c55565b60405161022f91906128f4565b6102c86101f481565b60405163ffffffff909116815260200161022f565b6101fd610e6e565b6101fd6102f3366004612aa2565b610e80565b61031b61030636600461279a565b60016020526000908152604090205460ff1681565b604051901515815260200161022f565b61031b61033936600461279a565b60076020526000908152604090205460ff1681565b6102c86207a12081565b6000546001600160a01b03165b6040516001600160a01b03909116815260200161022f565b61039061038b36600461279a565b610f90565b60405161022f9190612ade565b6101fd6103ab36600461279a565b6113b1565b6101fd6103be36600461279a565b6113e0565b61031b6103d136600461279a565b6001600160a01b031660009081526001602052604090205460ff1690565b610225600d5481565b610400600381565b60405160ff909116815260200161022f565b61027161042036600461279a565b611469565b6101fd610433366004612b6a565b611482565b6101fd61044636600461279a565b611a1e565b61045e610459366004612871565b611b50565b60405161022f929190612c70565b610225611ca1565b610365610482366004612c9e565b6004602052600090815260409020546001600160a01b031681565b6101fd6104ab36600461279a565b611ceb565b6104b8611d29565b600f80546001600160a01b039384166001600160a01b03199182161790915560108054929093169116179055565b3360009081526001602052604090205460ff1661051e5760405162461bcd60e51b815260040161051590612cb7565b60405180910390fd5b600f546001600160a01b03163381146105495760405162461bcd60e51b815260040161051590612ce3565b610554826000611d56565b5050565b3360009081526001602052604081205460ff166105875760405162461bcd60e51b815260040161051590612cb7565b600f546001600160a01b03163381146105b25760405162461bcd60e51b815260040161051590612ce3565b6105ba611d91565b604063ffffffff851611156106015760405162461bcd60e51b815260206004820152600d60248201526c4d6178696d756d2073636f726560981b6044820152606401610515565b6001600160401b03831660009081526009602052604090205460ff16156106765760405162461bcd60e51b8152602060048201526024808201527f496e7370656374696f6e20726573756c747320616c7265616479207375626d696044820152631d1d195960e21b6064820152608401610515565b6001600160401b0383166000908152600960205260408120805460ff191660011790556106a286611db9565b90506106af868686611e48565b91506106bb6001600255565b509392505050565b3360009081526001602052604090205460ff166106f25760405162461bcd60e51b815260040161051590612cb7565b6010546001600160a01b031633811461071d5760405162461bcd60e51b815260040161051590612ce3565b610725611d91565b6001600160a01b0383166000908152600360205260409020600b81015460ff16156107a05760405162461bcd60e51b815260206004820152602560248201527f526567656e657261746f7220616c72656164792066756c6c7920696e76616c6960448201526419185d195960da1b6064820152608401610515565b600b8101805460ff191660011790556001600160a01b0384166000908152600360205260408120600601556107d484611fdd565b600c54604051631af0d89760e01b81526001600160a01b03868116600483015260006024830152851515604483015290911690631af0d89790606401600060405180830381600087803b15801561082a57600080fd5b505af115801561083e573d6000803e3d6000fd5b505050505061084d6001600255565b505050565b3360009081526001602052604090205460ff166108815760405162461bcd60e51b815260040161051590612cb7565b600f546001600160a01b03163381146108ac5760405162461bcd60e51b815260040161051590612ce3565b6108b4611d91565b6001600160a01b038316600090815260036020526040812060060180548492906108df908490612d30565b9091555050600c54604051631af0d89760e01b81526001600160a01b038581166004830152602482018590526000604483015290911690631af0d89790606401600060405180830381600087803b15801561093957600080fd5b505af115801561094d573d6000803e3d6000fd5b5050505061084d6001600255565b6008602052600090815260409020805461097490612d49565b80601f01602080910402602001604051908101604052809291908181526020018280546109a090612d49565b80156109ed5780601f106109c2576101008083540402835291602001916109ed565b820191906000526020600020905b8154815290600101906020018083116109d057829003601f168201915b505050505081565b6109fd611d91565b600b54604051631292f8c160e31b81526001600160a01b0390911690639497c60890610a30906001903390600401612da5565b602060405180830381865afa158015610a4d573d6000803e3d6000fd5b505050506040513d601f19601f82011682018060405250810190610a719190612dcb565b610ab65760405162461bcd60e51b815260206004820152601660248201527513db9b1e481c9959d95b995c985d1bdc9cc81c1bdbdb60521b6044820152606401610515565b3360009081526003602052604090206004810154610ad5906003111590565b610b175760405162461bcd60e51b81526020600482015260136024820152724d696e696d756d20696e7370656374696f6e7360681b6044820152606401610515565b6008810154610b27816001612de8565b6008830155600c5460405163f3fef3a360e01b8152336004820152602481018390526001600160a01b039091169063f3fef3a390604401600060405180830381600087803b158015610b7857600080fd5b505af1158015610b8c573d6000803e3d6000fd5b50506040514381528392503391507f81f7cfdaaebb3eb89eee117bbfcd1e956d1c8bfa759f5eda2ba6f63551a4db209060200160405180910390a35050610bd36001600255565b565b600c546000906001600160a01b031663d5ee3eb5610bf1611ca1565b6040518263ffffffff1660e01b8152600401610c0f91815260200190565b602060405180830381865afa158015610c2c573d6000803e3d6000fd5b505050506040513d601f19601f82011682018060405250810190610c509190612dfb565b905090565b610c5d612696565b6001600160a01b0380831660009081526003602090815260409182902082516101a08101845281546001600160401b0381168252600160401b9004909416918401919091526001810180549192840191610cb690612d49565b80601f0160208091040260200160405190810160405280929190818152602001828054610ce290612d49565b8015610d2f5780601f10610d0457610100808354040283529160200191610d2f565b820191906000526020600020905b815481529060010190602001808311610d1257829003601f168201915b50505050508152602001600282018054610d4890612d49565b80601f0160208091040260200160405190810160405280929190818152602001828054610d7490612d49565b8015610dc15780601f10610d9657610100808354040283529160200191610dc1565b820191906000526020600020905b815481529060010190602001808311610da457829003601f168201915b5050509183525050600382015463ffffffff811660208084019190915260ff640100000000909204821615156040808501919091526004850154606085015260058501546080850152805180830182526006860154815260a08501528051808201909152600785015483161515815260088501549181019190915260c0830152600983015460e0830152600a830154610100830152600b9092015490911615156101209091015292915050565b610e76611d29565b610bd3600061201b565b805160961015610ec35760405162461bcd60e51b815260206004820152600e60248201526d4d6178206368617261637465727360901b6044820152606401610515565b600b54604051631292f8c160e31b81526001600160a01b0390911690639497c60890610ef6906001903390600401612da5565b602060405180830381865afa158015610f13573d6000803e3d6000fd5b505050506040513d601f19601f82011682018060405250810190610f379190612dcb565b610f775760405162461bcd60e51b81526020600482015260116024820152704f6e6c7920726567656e657261746f727360781b6044820152606401610515565b3360009081526008602052604090206105548282612e77565b6001600160a01b03808216600090815260036020908152604080832081516101a08101835281546001600160401b0381168252600160401b900490951692850192909252600182018054606095939284019190610fec90612d49565b80601f016020809104026020016040519081016040528092919081815260200182805461101890612d49565b80156110655780601f1061103a57610100808354040283529160200191611065565b820191906000526020600020905b81548152906001019060200180831161104857829003601f168201915b5050505050815260200160028201805461107e90612d49565b80601f01602080910402602001604051908101604052809291908181526020018280546110aa90612d49565b80156110f75780601f106110cc576101008083540402835291602001916110f7565b820191906000526020600020905b8154815290600101906020018083116110da57829003601f168201915b5050509183525050600382015463ffffffff811660208084019190915260ff640100000000909204821615156040808501919091526004850154606085015260058501546080850152805180830182526006860154815260a08501528051808201909152600785015483161515815260088501549181019190915260c0830152600983015460e0830152600a830154610100830152600b909201549091161515610120909101526101608101519091506000906001600160401b038111156111c1576111c16129ff565b60405190808252806020026020018201604052801561120657816020015b60408051808201909152606080825260208201528152602001906001900390816111df5790505b5061016083015190915060005b818110156113a7576001600160a01b038616600090815260056020526040902080548290811061124557611245612f2f565b906000526020600020906002020160405180604001604052908160008201805461126e90612d49565b80601f016020809104026020016040519081016040528092919081815260200182805461129a90612d49565b80156112e75780601f106112bc576101008083540402835291602001916112e7565b820191906000526020600020905b8154815290600101906020018083116112ca57829003601f168201915b5050505050815260200160018201805461130090612d49565b80601f016020809104026020016040519081016040528092919081815260200182805461132c90612d49565b80156113795780601f1061134e57610100808354040283529160200191611379565b820191906000526020600020905b81548152906001019060200180831161135c57829003601f168201915b50505050508152505083828151811061139457611394612f2f565b6020908102919091010152600101611213565b5090949350505050565b6113b9611d29565b6001600160a01b03166000908152600160208190526040909120805460ff19169091179055565b3360009081526001602052604090205460ff1661140f5760405162461bcd60e51b815260040161051590612cb7565b600f546001600160a01b031633811461143a5760405162461bcd60e51b815260040161051590612ce3565b611445826001611d56565b61055482436001600160a01b03909116600090815260036020526040902060050155565b6006602052600090815260409020805461097490612d49565b845160321080159061149657508351609610155b80156114a45750825160c810155b6114e95760405162461bcd60e51b815260206004820152601660248201527513585e0818da185c9858dd195c9cc81c995858da195960521b6044820152606401610515565b600381108015906114fb5750600a8111155b61155a5760405162461bcd60e51b815260206004820152602a60248201527f4d696e696d756d203320616e64206d6178696d756d20313020636f6f7264696e60448201526961746520706f696e747360b01b6064820152608401610515565b6101f463ffffffff87161080159061157b57506207a12063ffffffff871611155b6115dd5760405162461bcd60e51b815260206004820152602d60248201527f4d696e696d756d2035303020616e64206d6178696d756d203530302e3030302060448201526c737175617265206d657465727360981b6064820152608401610515565b6115e7828261206b565b600b5460405162f5960960e51b81526000916001600160a01b031690631eb2c1209061161890600190600401612f45565b602060405180830381865afa158015611635573d6000803e3d6000fd5b505050506040513d601f19601f820116820180604052508101906116599190612f53565b611664906001612f70565b9050604051806101a00160405280826001600160401b03168152602001336001600160a01b031681526020018781526020018681526020018863ffffffff16815260200160001515815260200160008152602001600081526020016040518060200160405280600081525081526020016040518060400160405280600015158152602001600c60009054906101000a90046001600160a01b03166001600160a01b031663ed0df79e6040518163ffffffff1660e01b8152600401602060405180830381865afa15801561173b573d6000803e3d6000fd5b505050506040513d601f19601f8201168201806040525081019061175f9190612dfb565b9052815243602080830191909152604080830186905260006060909301839052338352600382529182902083518154928501516001600160a01b0316600160401b026001600160e01b03199093166001600160401b03909116179190911781559082015160018201906117d29082612e77565b50606082015160028201906117e79082612e77565b50608082015160038201805460a085015115156401000000000264ffffffffff1990911663ffffffff9093169290921791909117905560c082015160048083019190915560e0830151600583015561010083015151600680840191909155610120840151805160078501805491151560ff1992831617905560209182015160088601556101408601516009860155610160860151600a86015561018090950151600b909401805494151594909516939093179093556001600160401b0384166000908152908252604080822080546001600160a01b03191633908117909155825292909152206118d78582612e77565b50600b54604051639c3eead960e01b81526001600160a01b0390911690639c3eead99061190b903390600190600401612f8f565b600060405180830381600087803b15801561192557600080fd5b505af1158015611939573d6000803e3d6000fd5b505050508663ffffffff16600e60008282546119559190612de8565b90915550600090505b828110156119c55733600090815260056020526040902084848381811061198757611987612f2f565b90506020028101906119999190612fac565b8154600181018355600092835260209092209091600202016119bb82826130d2565b505060010161195e565b50336001600160a01b0316816001600160401b03167fe7929ab3a316468d25671f32aa731ca41460f5459029b8ed818d4d32152c7f00888a43604051611a0d939291906131b4565b60405180910390a350505050505050565b3360009081526001602052604090205460ff16611a4d5760405162461bcd60e51b815260040161051590612cb7565b600f546001600160a01b0316338114611a785760405162461bcd60e51b815260040161051590612ce3565b6001600160a01b03821660009081526003602052604090206004015480611ae15760405162461bcd60e51b815260206004820152601860248201527f746f74616c496e7370656374696f6e7320696e76616c696400000000000000006044820152606401610515565b80600103611b1f57600d8054906000611af9836131df565b90915550506001600160a01b0383166000908152600760205260409020805460ff191690555b6001600160a01b0383166000908152600360205260408120600401805491611b46836131df565b9190505550505050565b60056020528160005260406000208181548110611b6c57600080fd5b906000526020600020906002020160009150915050806000018054611b9090612d49565b80601f0160208091040260200160405190810160405280929190818152602001828054611bbc90612d49565b8015611c095780601f10611bde57610100808354040283529160200191611c09565b820191906000526020600020905b815481529060010190602001808311611bec57829003601f168201915b505050505090806001018054611c1e90612d49565b80601f0160208091040260200160405190810160405280929190818152602001828054611c4a90612d49565b8015611c975780601f10611c6c57610100808354040283529160200191611c97565b820191906000526020600020905b815481529060010190602001808311611c7a57829003601f168201915b5050505050905082565b600c5460408051637686fbcf60e11b815290516000926001600160a01b03169163ed0df79e9160048083019260209291908290030181865afa158015610c2c573d6000803e3d6000fd5b611cf3611d29565b6001600160a01b038116611d1d57604051631e4fbdf760e01b815260006004820152602401610515565b611d268161201b565b50565b6000546001600160a01b03163314610bd35760405163118cdaa760e01b8152336004820152602401610515565b6001600160a01b0390911660009081526003602081905260409091200180549115156401000000000264ff0000000019909216919091179055565b6002805403611db357604051633ee5aeb560e01b815260040160405180910390fd5b60028055565b6001600160a01b03811660009081526003602052604081206004810180549083611de2836131f6565b90915550506001600160a01b03831660009081526007602052604090205460ff16611e3e576001600160a01b0383166000908152600760205260408120805460ff19166001179055600d805491611e38836131f6565b91905055505b6004015492915050565b6001600160a01b0383166000908152600360205260408120805490916001600160401b039091169003611ebd5760405162461bcd60e51b815260206004820152601a60248201527f526567656e657261746f7220646f6573206e6f742065786973740000000000006044820152606401610515565b8263ffffffff16816006016000016000828254611eda9190612de8565b9091555050600481015460031115611ef25750505050565b600781015463ffffffff84169060ff16611f61575060078101805460ff1916600117905560068101546040516001600160a01b038616907fdf477f1abb30c779b76ead783acd2084230ef08ba1570ce9dee934c0c5b93b9d90611f589043815260200190565b60405180910390a25b600c546040516338e8490d60e11b81526001600160a01b038781166004830152602482018490526001600160401b0386166044830152909116906371d0921a90606401600060405180830381600087803b158015611fbe57600080fd5b505af1158015611fd2573d6000803e3d6000fd5b505050505050505050565b6001600160a01b038116600090815260036020819052604082200154600e805463ffffffff909216929091612013908490612d30565b909155505050565b600080546001600160a01b038381166001600160a01b0319831681178455604051919092169283917f8be0079c531659141344cd1fd0a4f28419497f9722a3daafe3b4186f6b6457e09190a35050565b60005b8181101561084d576000612083826001612de8565b90505b82811015612185578383828181106120a0576120a0612f2f565b90506020028101906120b29190612fac565b6040516020016120c2919061327d565b604051602081830303815290604052805190602001208484848181106120ea576120ea612f2f565b90506020028101906120fc9190612fac565b60405160200161210c919061327d565b604051602081830303815290604052805190602001200361217d5760405162461bcd60e51b815260206004820152602560248201527f4475706c696361746520636f6f7264696e6174657320617265206e6f7420616c6044820152641b1bddd95960da1b6064820152608401610515565b600101612086565b5060006121f384848481811061219d5761219d612f2f565b90506020028101906121af9190612fac565b6121b99080612fcc565b8080601f01602080910402602001604051908101604052809392919081815260200183838082843760009201919091525061230692505050565b9050600061222c85858581811061220c5761220c612f2f565b905060200281019061221e9190612fac565b6121b9906020810190612fcc565b9050620f424061223e816059196132d3565b8312158015612257575061225381605a6132d3565b8313155b6122965760405162461bcd60e51b815260206004820152601060248201526f496e76616c6964206c6174697475646560801b6044820152606401610515565b6122a28160b3196132d3565b82121580156122bb57506122b78160b46132d3565b8213155b6122fb5760405162461bcd60e51b8152602060048201526011602482015270496e76616c6964206c6f6e67697475646560781b6044820152606401610515565b50505060010161206e565b805160009082901580159061231c5750601e8151105b6123685760405162461bcd60e51b815260206004820181905260248201527f496e76616c696420636f6f7264696e61746520737472696e67206c656e6774686044820152606401610515565b60008060001990506000808460008151811061238657612386612f2f565b01602001516001600160f81b031916602d60f81b036123a6575060019050805b815b85518110156124f95760008682815181106123c5576123c5612f2f565b01602001516001600160f81b03191690506000600360fc1b82108015906123fa5750603960f81b6001600160f81b0319831611155b9050601760f91b6001600160f81b031983161481806124165750805b6124625760405162461bcd60e51b815260206004820152601f60248201527f496e76616c69642063686172616374657220696e20636f6f7264696e617465006044820152606401610515565b80156124c15786600019146124b95760405162461bcd60e51b815260206004820152601b60248201527f4d756c7469706c6520646f747320696e20636f6f7264696e61746500000000006044820152606401610515565b8396506124ee565b86196124ee576124d6603060f885901c613303565b6124e189600a6132d3565b6124eb919061332a565b97505b5050506001016123a8565b5082600019146126675760008080612512866001612de8565b90505b8751811080156125255750600682105b1561261157600088828151811061253e5761253e612f2f565b01602001516001600160f81b0319169050600360fc1b81108015906125715750603960f81b6001600160f81b0319821611155b6125c75760405162461bcd60e51b815260206004820152602160248201527f496e76616c69642063686172616374657220696e20646563696d616c207061726044820152601d60fa1b6064820152608401610515565b6125d6603060f883901c613352565b60ff166125e485600a61336b565b6125ee9190612de8565b9350826125fa816131f6565b935050508080612609906131f6565b915050612515565b508161261e82600a613469565b61262890886132d3565b612632919061332a565b9550600681101561266057612648816006612d30565b61265390600a613469565b61265d90876132d3565b95505b5050612677565b61267484620f42406132d3565b93505b80612682578361268b565b61268b84613475565b979650505050505050565b604051806101a0016040528060006001600160401b0316815260200160006001600160a01b031681526020016060815260200160608152602001600063ffffffff168152602001600015158152602001600081526020016000815260200161270a6040518060200160405280600081525090565b815260200161272e6040518060400160405280600015158152602001600081525090565b815260200160008152602001600081526020016000151581525090565b80356001600160a01b038116811461276257600080fd5b919050565b6000806040838503121561277a57600080fd5b6127838361274b565b91506127916020840161274b565b90509250929050565b6000602082840312156127ac57600080fd5b6127b58261274b565b9392505050565b803563ffffffff8116811461276257600080fd5b6001600160401b0381168114611d2657600080fd5b6000806000606084860312156127fa57600080fd5b6128038461274b565b9250612811602085016127bc565b91506040840135612821816127d0565b809150509250925092565b8015158114611d2657600080fd5b6000806040838503121561284d57600080fd5b6128568361274b565b915060208301356128668161282c565b809150509250929050565b6000806040838503121561288457600080fd5b61288d8361274b565b946020939093013593505050565b6000815180845260005b818110156128c1576020818501810151868301820152016128a5565b506000602082860101526020601f19601f83011685010191505092915050565b6020815260006127b5602083018461289b565b6020815261290e6020820183516001600160401b03169052565b6000602083015161292a60408401826001600160a01b03169052565b5060408301516101c060608401526129466101e084018261289b565b90506060840151601f19848303016080850152612963828261289b565b915050608084015161297d60a085018263ffffffff169052565b5060a084015180151560c08501525060c084015160e084015260e08401516101008401526101008401516129b5610120850182519052565b50610120840151805115156101408501526020810151610160850152506101408401516101808401526101608401516101a08401526101808401516106bb6101c085018215159052565b634e487b7160e01b600052604160045260246000fd5b600082601f830112612a2657600080fd5b81356001600160401b03811115612a3f57612a3f6129ff565b604051601f8201601f19908116603f011681016001600160401b0381118282101715612a6d57612a6d6129ff565b604052818152838201602001851015612a8557600080fd5b816020850160208301376000918101602001919091529392505050565b600060208284031215612ab457600080fd5b81356001600160401b03811115612aca57600080fd5b612ad684828501612a15565b949350505050565b6000602082016020835280845180835260408501915060408160051b86010192506020860160005b82811015612b5e57603f198786030184528151805160408752612b2c604088018261289b565b9050602082015191508681036020880152612b47818361289b565b965050506020938401939190910190600101612b06565b50929695505050505050565b60008060008060008060a08789031215612b8357600080fd5b612b8c876127bc565b955060208701356001600160401b03811115612ba757600080fd5b612bb389828a01612a15565b95505060408701356001600160401b03811115612bcf57600080fd5b612bdb89828a01612a15565b94505060608701356001600160401b03811115612bf757600080fd5b612c0389828a01612a15565b93505060808701356001600160401b03811115612c1f57600080fd5b8701601f81018913612c3057600080fd5b80356001600160401b03811115612c4657600080fd5b8960208260051b8401011115612c5b57600080fd5b60208201935080925050509295509295509295565b604081526000612c83604083018561289b565b8281036020840152612c95818561289b565b95945050505050565b600060208284031215612cb057600080fd5b5035919050565b6020808252601290820152712737ba1030b63637bbb2b21031b0b63632b960711b604082015260600190565b6020808252601e908201527f43616c6c6572206d7573742062652073797374656d20636f6e74726163740000604082015260600190565b634e487b7160e01b600052601160045260246000fd5b81810381811115612d4357612d43612d1a565b92915050565b600181811c90821680612d5d57607f821691505b602082108103612d7d57634e487b7160e01b600052602260045260246000fd5b50919050565b60088110612da157634e487b7160e01b600052602160045260246000fd5b9052565b60408101612db38285612d83565b6001600160a01b039290921660209190910152919050565b600060208284031215612ddd57600080fd5b81516127b58161282c565b80820180821115612d4357612d43612d1a565b600060208284031215612e0d57600080fd5b5051919050565b601f82111561084d57806000526020600020601f840160051c81016020851015612e3b5750805b601f840160051c820191505b81811015612e5b5760008155600101612e47565b5050505050565b600019600383901b1c191660019190911b1790565b81516001600160401b03811115612e9057612e906129ff565b612ea481612e9e8454612d49565b84612e14565b6020601f821160018114612ed25760008315612ec05750848201515b612eca8482612e62565b855550612e5b565b600084815260208120601f198516915b82811015612f025787850151825560209485019460019092019101612ee2565b5084821015612f205786840151600019600387901b60f8161c191681555b50505050600190811b01905550565b634e487b7160e01b600052603260045260246000fd5b60208101612d438284612d83565b600060208284031215612f6557600080fd5b81516127b5816127d0565b6001600160401b038181168382160190811115612d4357612d43612d1a565b6001600160a01b0383168152604081016127b56020830184612d83565b60008235603e19833603018112612fc257600080fd5b9190910192915050565b6000808335601e19843603018112612fe357600080fd5b8301803591506001600160401b03821115612ffd57600080fd5b60200191503681900382131561301257600080fd5b9250929050565b6001600160401b03831115613030576130306129ff565b6130448361303e8354612d49565b83612e14565b6000601f84116001811461307257600085156130605750838201355b61306a8682612e62565b845550612e5b565b600083815260209020601f19861690835b828110156130a35786850135825560209485019460019092019101613083565b50868210156130c05760001960f88860031b161c19848701351681555b505060018560011b0183555050505050565b6130dc8283612fcc565b6001600160401b038111156130f3576130f36129ff565b613107816131018554612d49565b85612e14565b6000601f82116001811461313557600083156131235750838201355b61312d8482612e62565b86555061318f565b600085815260209020601f19841690835b828110156131665786850135825560209485019460019092019101613146565b50848210156131835760001960f88660031b161c19848701351681555b505060018360011b0185555b505050506131a06020830183612fcc565b6131ae818360018601613019565b50505050565b6060815260006131c7606083018661289b565b63ffffffff9490941660208301525060400152919050565b6000816131ee576131ee612d1a565b506000190190565b60006001820161320857613208612d1a565b5060010190565b6000808335601e1984360301811261322657600080fd5b83016020810192503590506001600160401b0381111561324557600080fd5b80360382131561301257600080fd5b81835281816020850137506000828201602090810191909152601f909101601f19169091010190565b60208152600061328d838461320f565b604060208501526132a2606085018284613254565b9150506132b2602085018561320f565b848303601f190160408601526132c9838284613254565b9695505050505050565b80820260008212600160ff1b841416156132ef576132ef612d1a565b8181058314821517612d4357612d43612d1a565b818103600083128015838313168383128216171561332357613323612d1a565b5092915050565b808201828112600083128015821682158216171561334a5761334a612d1a565b505092915050565b60ff8281168282160390811115612d4357612d43612d1a565b8082028115828204841417612d4357612d43612d1a565b6001815b60018411156133bd578085048111156133a1576133a1612d1a565b60018416156133af57908102905b60019390931c928002613386565b935093915050565b6000826133d457506001612d43565b816133e157506000612d43565b81600181146133f757600281146134015761341d565b6001915050612d43565b60ff84111561341257613412612d1a565b50506001821b612d43565b5060208310610133831016604e8410600b8410161715613440575081810a612d43565b61344d6000198484613382565b806000190482111561346157613461612d1a565b029392505050565b60006127b583836133c5565b6000600160ff1b820161348a5761348a612d1a565b506000039056fea2646970667358221220e5835d554205819ac1df6bf08dad2fe97f74f9ec1fdf7f354fe2962e94ed162d64736f6c634300081b0033",
  "linkReferences": {},
  "deployedLinkReferences": {}
}