{
  "_format": "hh-sol-artifact-1",
  "contractName": "RegeneratorPool",
  "sourceName": "contracts/RegeneratorPool.sol",
  "abi": [
    {
      "inputs": [
        {
          "internalType": "address",
          "name": "regenerationCreditAddress",
          "type": "address"
        },
        {
          "internalType": "uint256",
          "name": "_halving",
          "type": "uint256"
        },
        {
          "internalType": "uint256",
          "name": "_blocksPerEra",
          "type": "uint256"
        }
      ],
      "stateMutability": "nonpayable",
      "type": "constructor"
    },
    {
      "anonymous": false,
      "inputs": [
        {
          "indexed": true,
          "internalType": "address",
          "name": "previousOwner",
          "type": "address"
        },
        {
          "indexed": true,
          "internalType": "address",
          "name": "newOwner",
          "type": "address"
        }
      ],
      "name": "OwnershipTransferred",
      "type": "event"
    },
    {
      "inputs": [],
      "name": "BLOCKS_PRECISION",
      "outputs": [
        {
          "internalType": "uint256",
          "name": "",
          "type": "uint256"
        }
      ],
      "stateMutability": "view",
      "type": "function"
    },
    {
      "inputs": [
        {
          "internalType": "address",
          "name": "regenerator",
          "type": "address"
        },
        {
          "internalType": "uint256",
          "name": "levels",
          "type": "uint256"
        }
      ],
      "name": "addLevel",
      "outputs": [],
      "stateMutability": "nonpayable",
      "type": "function"
    },
    {
      "inputs": [
        {
          "internalType": "address",
          "name": "",
          "type": "address"
        }
      ],
      "name": "allowedCallers",
      "outputs": [
        {
          "internalType": "bool",
          "name": "",
          "type": "bool"
        }
      ],
      "stateMutability": "view",
      "type": "function"
    },
    {
      "inputs": [
        {
          "internalType": "uint256",
          "name": "currentUserEra",
          "type": "uint256"
        }
      ],
      "name": "canWithdraw",
      "outputs": [
        {
          "internalType": "bool",
          "name": "",
          "type": "bool"
        }
      ],
      "stateMutability": "view",
      "type": "function"
    },
    {
      "inputs": [
        {
          "internalType": "uint256",
          "name": "currentUserEra",
          "type": "uint256"
        }
      ],
      "name": "canWithdrawTimes",
      "outputs": [
        {
          "internalType": "uint256",
          "name": "",
          "type": "uint256"
        }
      ],
      "stateMutability": "view",
      "type": "function"
    },
    {
      "inputs": [],
      "name": "currentContractEra",
      "outputs": [
        {
          "internalType": "uint256",
          "name": "",
          "type": "uint256"
        }
      ],
      "stateMutability": "view",
      "type": "function"
    },
    {
      "inputs": [],
      "name": "currentEpoch",
      "outputs": [
        {
          "internalType": "uint256",
          "name": "",
          "type": "uint256"
        }
      ],
      "stateMutability": "view",
      "type": "function"
    },
    {
      "inputs": [
        {
          "internalType": "uint256",
          "name": "era",
          "type": "uint256"
        }
      ],
      "name": "currentUserEpoch",
      "outputs": [
        {
          "internalType": "uint256",
          "name": "",
          "type": "uint256"
        }
      ],
      "stateMutability": "view",
      "type": "function"
    },
    {
      "inputs": [
        {
          "internalType": "uint256",
          "name": "",
          "type": "uint256"
        },
        {
          "internalType": "address",
          "name": "",
          "type": "address"
        }
      ],
      "name": "eraLevels",
      "outputs": [
        {
          "internalType": "uint256",
          "name": "",
          "type": "uint256"
        }
      ],
      "stateMutability": "view",
      "type": "function"
    },
    {
      "inputs": [
        {
          "internalType": "uint256",
          "name": "",
          "type": "uint256"
        },
        {
          "internalType": "address",
          "name": "",
          "type": "address"
        }
      ],
      "name": "eraTokens",
      "outputs": [
        {
          "internalType": "uint256",
          "name": "",
          "type": "uint256"
        }
      ],
      "stateMutability": "view",
      "type": "function"
    },
    {
      "inputs": [
        {
          "internalType": "uint256",
          "name": "",
          "type": "uint256"
        }
      ],
      "name": "eras",
      "outputs": [
        {
          "internalType": "uint256",
          "name": "users",
          "type": "uint256"
        },
        {
          "internalType": "uint256",
          "name": "tokens",
          "type": "uint256"
        },
        {
          "internalType": "uint256",
          "name": "levels",
          "type": "uint256"
        }
      ],
      "stateMutability": "view",
      "type": "function"
    },
    {
      "inputs": [
        {
          "internalType": "uint256",
          "name": "era",
          "type": "uint256"
        }
      ],
      "name": "getEra",
      "outputs": [
        {
          "components": [
            {
              "internalType": "uint256",
              "name": "users",
              "type": "uint256"
            },
            {
              "internalType": "uint256",
              "name": "tokens",
              "type": "uint256"
            },
            {
              "internalType": "uint256",
              "name": "levels",
              "type": "uint256"
            }
          ],
          "internalType": "struct Era",
          "name": "",
          "type": "tuple"
        }
      ],
      "stateMutability": "view",
      "type": "function"
    },
    {
      "inputs": [
        {
          "internalType": "address",
          "name": "caller",
          "type": "address"
        }
      ],
      "name": "isAllowedCaller",
      "outputs": [
        {
          "internalType": "bool",
          "name": "",
          "type": "bool"
        }
      ],
      "stateMutability": "view",
      "type": "function"
    },
    {
      "inputs": [
        {
          "internalType": "address",
          "name": "allowed",
          "type": "address"
        }
      ],
      "name": "newAllowedCaller",
      "outputs": [],
      "stateMutability": "nonpayable",
      "type": "function"
    },
    {
      "inputs": [
        {
          "internalType": "uint256",
          "name": "currentUserEra",
          "type": "uint256"
        }
      ],
      "name": "nextEraIn",
      "outputs": [
        {
          "internalType": "int256",
          "name": "",
          "type": "int256"
        }
      ],
      "stateMutability": "view",
      "type": "function"
    },
    {
      "inputs": [],
      "name": "owner",
      "outputs": [
        {
          "internalType": "address",
          "name": "",
          "type": "address"
        }
      ],
      "stateMutability": "view",
      "type": "function"
    },
    {
      "inputs": [
        {
          "internalType": "address",
          "name": "regenerator",
          "type": "address"
        },
        {
          "internalType": "uint256",
          "name": "levels",
          "type": "uint256"
        }
      ],
      "name": "removeLevel",
      "outputs": [],
      "stateMutability": "nonpayable",
      "type": "function"
    },
    {
      "inputs": [
        {
          "internalType": "address",
          "name": "addr",
          "type": "address"
        },
        {
          "internalType": "uint256",
          "name": "era",
          "type": "uint256"
        },
        {
          "internalType": "uint256",
          "name": "removeSomeLevels",
          "type": "uint256"
        }
      ],
      "name": "removePoolLevels",
      "outputs": [],
      "stateMutability": "nonpayable",
      "type": "function"
    },
    {
      "inputs": [],
      "name": "renounceOwnership",
      "outputs": [],
      "stateMutability": "nonpayable",
      "type": "function"
    },
    {
      "inputs": [
        {
          "internalType": "uint256",
          "name": "currentEpoch",
          "type": "uint256"
        }
      ],
      "name": "tokensPerEpoch",
      "outputs": [
        {
          "internalType": "uint256",
          "name": "",
          "type": "uint256"
        }
      ],
      "stateMutability": "view",
      "type": "function"
    },
    {
      "inputs": [
        {
          "internalType": "uint256",
          "name": "currentEpoch",
          "type": "uint256"
        },
        {
          "internalType": "uint256",
          "name": "halving",
          "type": "uint256"
        }
      ],
      "name": "tokensPerEra",
      "outputs": [
        {
          "internalType": "uint256",
          "name": "",
          "type": "uint256"
        }
      ],
      "stateMutability": "view",
      "type": "function"
    },
    {
      "inputs": [
        {
          "internalType": "address",
          "name": "newOwner",
          "type": "address"
        }
      ],
      "name": "transferOwnership",
      "outputs": [],
      "stateMutability": "nonpayable",
      "type": "function"
    },
    {
      "inputs": [
        {
          "internalType": "address",
          "name": "delegate",
          "type": "address"
        },
        {
          "internalType": "uint256",
          "name": "era",
          "type": "uint256"
        }
      ],
      "name": "withdraw",
      "outputs": [],
      "stateMutability": "nonpayable",
      "type": "function"
    }
  ],
  "bytecode": "0x61010060405234801561001157600080fd5b5060405161206e38038061206e83398181016040528101906100339190610246565b80826b026c62ad77dc602dae00000080608081815250505061006761005c6100d760201b60201c565b6100df60201b60201c565b8160a0818152505061007d6101a560201b60201c565b60c081815250508060e08181525050505082600560006101000a81548173ffffffffffffffffffffffffffffffffffffffff021916908373ffffffffffffffffffffffffffffffffffffffff160217905550505050610299565b600033905090565b6000600360009054906101000a900473ffffffffffffffffffffffffffffffffffffffff16905081600360006101000a81548173ffffffffffffffffffffffffffffffffffffffff021916908373ffffffffffffffffffffffffffffffffffffffff1602179055508173ffffffffffffffffffffffffffffffffffffffff168173ffffffffffffffffffffffffffffffffffffffff167f8be0079c531659141344cd1fd0a4f28419497f9722a3daafe3b4186f6b6457e060405160405180910390a35050565b600043905090565b600080fd5b600073ffffffffffffffffffffffffffffffffffffffff82169050919050565b60006101dd826101b2565b9050919050565b6101ed816101d2565b81146101f857600080fd5b50565b60008151905061020a816101e4565b92915050565b6000819050919050565b61022381610210565b811461022e57600080fd5b50565b6000815190506102408161021a565b92915050565b60008060006060848603121561025f5761025e6101ad565b5b600061026d868287016101fb565b935050602061027e86828701610231565b925050604061028f86828701610231565b9150509250925092565b60805160a05160c05160e051611d796102f5600039600081816107a5015281816109ab0152610c53015260008181610a260152610a90015260008181610813015281816109fb0152610a6c015260006105930152611d796000f3fe608060405234801561001057600080fd5b506004361061014d5760003560e01c8063861b4ce1116100c3578063d5ee3eb51161007c578063d5ee3eb5146103d8578063ed0df79e14610408578063f2fde38b14610426578063f3fef3a314610442578063fbe85f061461045e578063ff39043c1461048e5761014d565b8063861b4ce1146102f057806388b3acae1461030e5780638da5cb5b1461033e5780638f93716f1461035c578063a680125814610378578063b3cc6d99146103a85761014d565b80636d72494d116101155780636d72494d1461021a578063715018a614610236578063720a70bd1461024057806376671808146102725780637721f1b5146102905780637b334154146102c05761014d565b8063157ffc52146101525780631f14f4151461016e5780632506b9321461019e5780632eedcb18146101ce57806352b8d3ed146101fe575b600080fd5b61016c60048036038101906101679190611411565b6104be565b005b61018860048036038101906101839190611464565b61055a565b60405161019591906114b3565b60405180910390f35b6101b860048036038101906101b391906114ce565b61057f565b6040516101c591906114b3565b60405180910390f35b6101e860048036038101906101e391906114ce565b6105c7565b6040516101f5919061154c565b60405180910390f35b61021860048036038101906102139190611567565b610611565b005b610234600480360381019061022f9190611567565b6106b3565b005b61023e61075b565b005b61025a600480360381019061025591906114ce565b61076f565b604051610269939291906115a7565b60405180910390f35b61027a610799565b60405161028791906114b3565b60405180910390f35b6102aa60048036038101906102a591906114ce565b6107ed565b6040516102b791906114b3565b60405180910390f35b6102da60048036038101906102d591906115de565b610872565b6040516102e79190611626565b60405180910390f35b6102f8610892565b60405161030591906114b3565b60405180910390f35b61032860048036038101906103239190611641565b610897565b60405161033591906114b3565b60405180910390f35b6103466108bc565b6040516103539190611690565b60405180910390f35b610376600480360381019061037191906115de565b6108e6565b005b610392600480360381019061038d91906115de565b610949565b60405161039f9190611626565b60405180910390f35b6103c260048036038101906103bd91906114ce565b61099f565b6040516103cf91906114b3565b60405180910390f35b6103f260048036038101906103ed91906114ce565b6109ee565b6040516103ff91906116c4565b60405180910390f35b610410610a60565b60405161041d91906114b3565b60405180910390f35b610440600480360381019061043b91906115de565b610ae6565b005b61045c60048036038101906104579190611567565b610b69565b005b610478600480360381019061047391906114ce565b610d2f565b6040516104859190611626565b60405180910390f35b6104a860048036038101906104a39190611641565b610d42565b6040516104b591906114b3565b60405180910390f35b600460003373ffffffffffffffffffffffffffffffffffffffff1673ffffffffffffffffffffffffffffffffffffffff16815260200190815260200160002060009054906101000a900460ff1661054a576040517f08c379a00000000000000000000000000000000000000000000000000000000081526004016105419061173c565b60405180910390fd5b610555838383610d67565b505050565b6000610577826105698561057f565b610df090919063ffffffff16565b905092915050565b60006105c082600261059191906118be565b7f0000000000000000000000000000000000000000000000000000000000000000610df090919063ffffffff16565b9050919050565b6105cf611357565b60008083815260200190815260200160002060405180606001604052908160008201548152602001600182015481526020016002820154815250509050919050565b600460003373ffffffffffffffffffffffffffffffffffffffff1673ffffffffffffffffffffffffffffffffffffffff16815260200190815260200160002060009054906101000a900460ff1661069d576040517f08c379a00000000000000000000000000000000000000000000000000000000081526004016106949061173c565b60405180910390fd5b6106af82826106aa610a60565b610e06565b5050565b600460003373ffffffffffffffffffffffffffffffffffffffff1673ffffffffffffffffffffffffffffffffffffffff16815260200190815260200160002060009054906101000a900460ff1661073f576040517f08c379a00000000000000000000000000000000000000000000000000000000081526004016107369061173c565b60405180910390fd5b6000610749610a60565b9050610756838284610d67565b505050565b610763610eb3565b61076d6000610f31565b565b60006020528060005260406000206000915090508060000154908060010154908060020154905083565b60006107e860016107da7f00000000000000000000000000000000000000000000000000000000000000006107cc610a60565b610df090919063ffffffff16565b610ff790919063ffffffff16565b905090565b6000806107f9836109ee565b9050600081131561080e57600091505061086d565b6108697f000000000000000000000000000000000000000000000000000000000000000061085b6005600a61084391906118be565b8461084d90611909565b61100d90919063ffffffff16565b610df090919063ffffffff16565b9150505b919050565b60046020528060005260406000206000915054906101000a900460ff1681565b600581565b6001602052816000526040600020602052806000526040600020600091509150505481565b6000600360009054906101000a900473ffffffffffffffffffffffffffffffffffffffff16905090565b6108ee610eb3565b6001600460008373ffffffffffffffffffffffffffffffffffffffff1673ffffffffffffffffffffffffffffffffffffffff16815260200190815260200160002060006101000a81548160ff02191690831515021790555050565b6000600460008373ffffffffffffffffffffffffffffffffffffffff1673ffffffffffffffffffffffffffffffffffffffff16815260200190815260200160002060009054906101000a900460ff169050919050565b60006109e760016109d97f000000000000000000000000000000000000000000000000000000000000000085610df090919063ffffffff16565b610ff790919063ffffffff16565b9050919050565b60006109f8611023565b827f0000000000000000000000000000000000000000000000000000000000000000610a249190611951565b7f0000000000000000000000000000000000000000000000000000000000000000610a4f91906119c9565b610a599190611a0d565b9050919050565b6000610ae16001610ad37f0000000000000000000000000000000000000000000000000000000000000000610ac57f0000000000000000000000000000000000000000000000000000000000000000610ab7611023565b61102b90919063ffffffff16565b610df090919063ffffffff16565b610ff790919063ffffffff16565b905090565b610aee610eb3565b600073ffffffffffffffffffffffffffffffffffffffff168173ffffffffffffffffffffffffffffffffffffffff1603610b5d576040517f08c379a0000000000000000000000000000000000000000000000000000000008152600401610b5490611ac2565b60405180910390fd5b610b6681610f31565b50565b600460003373ffffffffffffffffffffffffffffffffffffffff1673ffffffffffffffffffffffffffffffffffffffff16815260200190815260200160002060009054906101000a900460ff16610bf5576040517f08c379a0000000000000000000000000000000000000000000000000000000008152600401610bec9061173c565b60405180910390fd5b80610bff81610d2f565b610c3e576040517f08c379a0000000000000000000000000000000000000000000000000000000008152600401610c3590611b2e565b60405180910390fd5b6000610c7c8385610c77610c518761099f565b7f000000000000000000000000000000000000000000000000000000000000000061055a565b611041565b9050610c898385836110f5565b60008103610c975750610d2a565b600560009054906101000a900473ffffffffffffffffffffffffffffffffffffffff1673ffffffffffffffffffffffffffffffffffffffff1663a2c7670e3086846040518463ffffffff1660e01b8152600401610cf693929190611b4e565b600060405180830381600087803b158015610d1057600080fd5b505af1158015610d24573d6000803e3d6000fd5b50505050505b505050565b6000610d39610a60565b82109050919050565b6002602052816000526040600020602052806000526040600020600091509150505481565b60006001600084815260200190815260200160002060008573ffffffffffffffffffffffffffffffffffffffff1673ffffffffffffffffffffffffffffffffffffffff16815260200190815260200160002054905060008103610dca5750610deb565b6000808311610dd95781610ddb565b825b9050610de88585836111a6565b50505b505050565b60008183610dfe9190611bb4565b905092915050565b610e2e8260008084815260200190815260200160002060020154610ff790919063ffffffff16565b60008083815260200190815260200160002060020181905550816001600083815260200190815260200160002060008573ffffffffffffffffffffffffffffffffffffffff1673ffffffffffffffffffffffffffffffffffffffff1681526020019081526020016000206000828254610ea79190611be5565b92505081905550505050565b610ebb61134f565b73ffffffffffffffffffffffffffffffffffffffff16610ed96108bc565b73ffffffffffffffffffffffffffffffffffffffff1614610f2f576040517f08c379a0000000000000000000000000000000000000000000000000000000008152600401610f2690611c65565b60405180910390fd5b565b6000600360009054906101000a900473ffffffffffffffffffffffffffffffffffffffff16905081600360006101000a81548173ffffffffffffffffffffffffffffffffffffffff021916908373ffffffffffffffffffffffffffffffffffffffff1602179055508173ffffffffffffffffffffffffffffffffffffffff168173ffffffffffffffffffffffffffffffffffffffff167f8be0079c531659141344cd1fd0a4f28419497f9722a3daafe3b4186f6b6457e060405160405180910390a35050565b600081836110059190611be5565b905092915050565b6000818361101b9190611c85565b905092915050565b600043905090565b600081836110399190611cc7565b905092915050565b60008060008086815260200190815260200160002060020154905060006001600087815260200190815260200160002060008673ffffffffffffffffffffffffffffffffffffffff1673ffffffffffffffffffffffffffffffffffffffff168152602001908152602001600020549050600081036110c4576000925050506110ee565b6110e9826110db868461100d90919063ffffffff16565b610df090919063ffffffff16565b925050505b9392505050565b600080848152602001908152602001600020600001600081548092919061111b90611cfb565b91905055508060008085815260200190815260200160002060010160008282546111459190611be5565b92505081905550806002600085815260200190815260200160002060008473ffffffffffffffffffffffffffffffffffffffff1673ffffffffffffffffffffffffffffffffffffffff16815260200190815260200160002081905550505050565b6001600083815260200190815260200160002060008473ffffffffffffffffffffffffffffffffffffffff1673ffffffffffffffffffffffffffffffffffffffff16815260200190815260200160002054811115611252576001600083815260200190815260200160002060008473ffffffffffffffffffffffffffffffffffffffff1673ffffffffffffffffffffffffffffffffffffffff1681526020019081526020016000205490505b61127a816000808581526020019081526020016000206002015461102b90919063ffffffff16565b600080848152602001908152602001600020600201819055506112f6816001600085815260200190815260200160002060008673ffffffffffffffffffffffffffffffffffffffff1673ffffffffffffffffffffffffffffffffffffffff1681526020019081526020016000205461102b90919063ffffffff16565b6001600084815260200190815260200160002060008573ffffffffffffffffffffffffffffffffffffffff1673ffffffffffffffffffffffffffffffffffffffff16815260200190815260200160002081905550505050565b600033905090565b60405180606001604052806000815260200160008152602001600081525090565b600080fd5b600073ffffffffffffffffffffffffffffffffffffffff82169050919050565b60006113a88261137d565b9050919050565b6113b88161139d565b81146113c357600080fd5b50565b6000813590506113d5816113af565b92915050565b6000819050919050565b6113ee816113db565b81146113f957600080fd5b50565b60008135905061140b816113e5565b92915050565b60008060006060848603121561142a57611429611378565b5b6000611438868287016113c6565b9350506020611449868287016113fc565b925050604061145a868287016113fc565b9150509250925092565b6000806040838503121561147b5761147a611378565b5b6000611489858286016113fc565b925050602061149a858286016113fc565b9150509250929050565b6114ad816113db565b82525050565b60006020820190506114c860008301846114a4565b92915050565b6000602082840312156114e4576114e3611378565b5b60006114f2848285016113fc565b91505092915050565b611504816113db565b82525050565b60608201600082015161152060008501826114fb565b50602082015161153360208501826114fb565b50604082015161154660408501826114fb565b50505050565b6000606082019050611561600083018461150a565b92915050565b6000806040838503121561157e5761157d611378565b5b600061158c858286016113c6565b925050602061159d858286016113fc565b9150509250929050565b60006060820190506115bc60008301866114a4565b6115c960208301856114a4565b6115d660408301846114a4565b949350505050565b6000602082840312156115f4576115f3611378565b5b6000611602848285016113c6565b91505092915050565b60008115159050919050565b6116208161160b565b82525050565b600060208201905061163b6000830184611617565b92915050565b6000806040838503121561165857611657611378565b5b6000611666858286016113fc565b9250506020611677858286016113c6565b9150509250929050565b61168a8161139d565b82525050565b60006020820190506116a56000830184611681565b92915050565b6000819050919050565b6116be816116ab565b82525050565b60006020820190506116d960008301846116b5565b92915050565b600082825260208201905092915050565b7f4e6f7420616c6c6f7765642063616c6c65720000000000000000000000000000600082015250565b60006117266012836116df565b9150611731826116f0565b602082019050919050565b6000602082019050818103600083015261175581611719565b9050919050565b7f4e487b7100000000000000000000000000000000000000000000000000000000600052601160045260246000fd5b60008160011c9050919050565b6000808291508390505b60018511156117e2578086048111156117be576117bd61175c565b5b60018516156117cd5780820291505b80810290506117db8561178b565b94506117a2565b94509492505050565b6000826117fb57600190506118b7565b8161180957600090506118b7565b816001811461181f576002811461182957611858565b60019150506118b7565b60ff84111561183b5761183a61175c565b5b8360020a9150848211156118525761185161175c565b5b506118b7565b5060208310610133831016604e8410600b841016171561188d5782820a9050838111156118885761188761175c565b5b6118b7565b61189a8484846001611798565b925090508184048111156118b1576118b061175c565b5b81810290505b9392505050565b60006118c9826113db565b91506118d4836113db565b92506119017fffffffffffffffffffffffffffffffffffffffffffffffffffffffffffffffff84846117eb565b905092915050565b6000611914826116ab565b91507f800000000000000000000000000000000000000000000000000000000000000082036119465761194561175c565b5b816000039050919050565b600061195c826116ab565b9150611967836116ab565b9250828202611975816116ab565b91507f800000000000000000000000000000000000000000000000000000000000000084146000841216156119ad576119ac61175c565b5b82820584148315176119c2576119c161175c565b5b5092915050565b60006119d4826116ab565b91506119df836116ab565b925082820190508281121560008312168382126000841215161715611a0757611a0661175c565b5b92915050565b6000611a18826116ab565b9150611a23836116ab565b9250828203905081811260008412168282136000851215161715611a4a57611a4961175c565b5b92915050565b7f4f776e61626c653a206e6577206f776e657220697320746865207a65726f206160008201527f6464726573730000000000000000000000000000000000000000000000000000602082015250565b6000611aac6026836116df565b9150611ab782611a50565b604082019050919050565b60006020820190508181036000830152611adb81611a9f565b9050919050565b7f596f752063616e277420617070726f7665207965740000000000000000000000600082015250565b6000611b186015836116df565b9150611b2382611ae2565b602082019050919050565b60006020820190508181036000830152611b4781611b0b565b9050919050565b6000606082019050611b636000830186611681565b611b706020830185611681565b611b7d60408301846114a4565b949350505050565b7f4e487b7100000000000000000000000000000000000000000000000000000000600052601260045260246000fd5b6000611bbf826113db565b9150611bca836113db565b925082611bda57611bd9611b85565b5b828204905092915050565b6000611bf0826113db565b9150611bfb836113db565b9250828201905080821115611c1357611c1261175c565b5b92915050565b7f4f776e61626c653a2063616c6c6572206973206e6f7420746865206f776e6572600082015250565b6000611c4f6020836116df565b9150611c5a82611c19565b602082019050919050565b60006020820190508181036000830152611c7e81611c42565b9050919050565b6000611c90826113db565b9150611c9b836113db565b9250828202611ca9816113db565b91508282048414831517611cc057611cbf61175c565b5b5092915050565b6000611cd2826113db565b9150611cdd836113db565b9250828203905081811115611cf557611cf461175c565b5b92915050565b6000611d06826113db565b91507fffffffffffffffffffffffffffffffffffffffffffffffffffffffffffffffff8203611d3857611d3761175c565b5b60018201905091905056fea26469706673582212206fa0a43674581ba31bf6c1148f601c3d27e1291d6793438c99f2d5245e92d80164736f6c634300081b0033",
  "linkReferences": {},
  "deployedLinkReferences": {}
}