{
  "_format": "hh-sol-artifact-1",
  "contractName": "RegeneratorRules",
  "sourceName": "contracts/RegeneratorRules.sol",
  "abi": [
    {
      "inputs": [
        {
          "internalType": "address",
          "name": "communityRulesAddress",
          "type": "address"
        },
        {
          "internalType": "address",
          "name": "regeneratorPoolAddress",
          "type": "address"
        }
      ],
      "stateMutability": "nonpayable",
      "type": "constructor"
    },
    {
      "inputs": [
        {
          "internalType": "address",
          "name": "owner",
          "type": "address"
        }
      ],
      "name": "OwnableInvalidOwner",
      "type": "error"
    },
    {
      "inputs": [
        {
          "internalType": "address",
          "name": "account",
          "type": "address"
        }
      ],
      "name": "OwnableUnauthorizedAccount",
      "type": "error"
    },
    {
      "inputs": [],
      "name": "ReentrancyGuardReentrantCall",
      "type": "error"
    },
    {
      "anonymous": false,
      "inputs": [
        {
          "indexed": true,
          "internalType": "address",
          "name": "previousOwner",
          "type": "address"
        },
        {
          "indexed": true,
          "internalType": "address",
          "name": "newOwner",
          "type": "address"
        }
      ],
      "name": "OwnershipTransferred",
      "type": "event"
    },
    {
      "anonymous": false,
      "inputs": [
        {
          "indexed": true,
          "internalType": "address",
          "name": "regeneratorAddress",
          "type": "address"
        }
      ],
      "name": "RegeneratorCertified",
      "type": "event"
    },
    {
      "anonymous": false,
      "inputs": [
        {
          "indexed": true,
          "internalType": "address",
          "name": "regeneratorAddress",
          "type": "address"
        },
        {
          "indexed": false,
          "internalType": "uint256",
          "name": "blockNumber",
          "type": "uint256"
        }
      ],
      "name": "RegeneratorEnteredPool",
      "type": "event"
    },
    {
      "anonymous": false,
      "inputs": [
        {
          "indexed": true,
          "internalType": "uint256",
          "name": "id",
          "type": "uint256"
        },
        {
          "indexed": true,
          "internalType": "address",
          "name": "regeneratorAddress",
          "type": "address"
        },
        {
          "indexed": false,
          "internalType": "string",
          "name": "name",
          "type": "string"
        },
        {
          "indexed": false,
          "internalType": "uint32",
          "name": "totalArea",
          "type": "uint32"
        },
        {
          "indexed": false,
          "internalType": "uint256",
          "name": "blockNumber",
          "type": "uint256"
        }
      ],
      "name": "RegeneratorRegistered",
      "type": "event"
    },
    {
      "anonymous": false,
      "inputs": [
        {
          "indexed": true,
          "internalType": "address",
          "name": "regeneratorAddress",
          "type": "address"
        },
        {
          "indexed": true,
          "internalType": "uint256",
          "name": "era",
          "type": "uint256"
        },
        {
          "indexed": false,
          "internalType": "uint256",
          "name": "blockNumber",
          "type": "uint256"
        }
      ],
      "name": "RegeneratorWithdrawalInitiated",
      "type": "event"
    },
    {
      "inputs": [],
      "name": "MAXIMUM_INSPECTIONS",
      "outputs": [
        {
          "internalType": "uint8",
          "name": "",
          "type": "uint8"
        }
      ],
      "stateMutability": "view",
      "type": "function"
    },
    {
      "inputs": [],
      "name": "MAX_ACTIVE_REGENERATORS",
      "outputs": [
        {
          "internalType": "uint256",
          "name": "",
          "type": "uint256"
        }
      ],
      "stateMutability": "view",
      "type": "function"
    },
    {
      "inputs": [],
      "name": "MAX_REGENERATION_AREA",
      "outputs": [
        {
          "internalType": "uint32",
          "name": "",
          "type": "uint32"
        }
      ],
      "stateMutability": "view",
      "type": "function"
    },
    {
      "inputs": [],
      "name": "MINIMUM_INSPECTIONS_TO_POOL",
      "outputs": [
        {
          "internalType": "uint8",
          "name": "",
          "type": "uint8"
        }
      ],
      "stateMutability": "view",
      "type": "function"
    },
    {
      "inputs": [],
      "name": "MIN_REGENERATION_AREA",
      "outputs": [
        {
          "internalType": "uint32",
          "name": "",
          "type": "uint32"
        }
      ],
      "stateMutability": "view",
      "type": "function"
    },
    {
      "inputs": [
        {
          "internalType": "uint32",
          "name": "totalArea",
          "type": "uint32"
        },
        {
          "internalType": "string",
          "name": "name",
          "type": "string"
        },
        {
          "internalType": "string",
          "name": "proofPhoto",
          "type": "string"
        },
        {
          "internalType": "string",
          "name": "projectDescription",
          "type": "string"
        },
        {
          "components": [
            {
              "internalType": "string",
              "name": "latitude",
              "type": "string"
            },
            {
              "internalType": "string",
              "name": "longitude",
              "type": "string"
            }
          ],
          "internalType": "struct Coordinates[]",
          "name": "_coordinates",
          "type": "tuple[]"
        }
      ],
      "name": "addRegenerator",
      "outputs": [],
      "stateMutability": "nonpayable",
      "type": "function"
    },
    {
      "inputs": [
        {
          "internalType": "address",
          "name": "addr",
          "type": "address"
        }
      ],
      "name": "afterAcceptInspection",
      "outputs": [],
      "stateMutability": "nonpayable",
      "type": "function"
    },
    {
      "inputs": [
        {
          "internalType": "address",
          "name": "addr",
          "type": "address"
        },
        {
          "internalType": "uint32",
          "name": "score",
          "type": "uint32"
        },
        {
          "internalType": "uint64",
          "name": "inspectionId",
          "type": "uint64"
        }
      ],
      "name": "afterRealizeInspection",
      "outputs": [
        {
          "internalType": "uint256",
          "name": "",
          "type": "uint256"
        }
      ],
      "stateMutability": "nonpayable",
      "type": "function"
    },
    {
      "inputs": [
        {
          "internalType": "address",
          "name": "addr",
          "type": "address"
        }
      ],
      "name": "afterRequestInspection",
      "outputs": [],
      "stateMutability": "nonpayable",
      "type": "function"
    },
    {
      "inputs": [
        {
          "internalType": "address",
          "name": "",
          "type": "address"
        }
      ],
      "name": "allowedCallers",
      "outputs": [
        {
          "internalType": "bool",
          "name": "",
          "type": "bool"
        }
      ],
      "stateMutability": "view",
      "type": "function"
    },
    {
      "inputs": [
        {
          "internalType": "address",
          "name": "",
          "type": "address"
        }
      ],
      "name": "areaPhoto",
      "outputs": [
        {
          "internalType": "string",
          "name": "",
          "type": "string"
        }
      ],
      "stateMutability": "view",
      "type": "function"
    },
    {
      "inputs": [
        {
          "internalType": "address",
          "name": "",
          "type": "address"
        }
      ],
      "name": "certifiedRegenerators",
      "outputs": [
        {
          "internalType": "bool",
          "name": "",
          "type": "bool"
        }
      ],
      "stateMutability": "view",
      "type": "function"
    },
    {
      "inputs": [
        {
          "internalType": "address",
          "name": "",
          "type": "address"
        },
        {
          "internalType": "uint256",
          "name": "",
          "type": "uint256"
        }
      ],
      "name": "coordinates",
      "outputs": [
        {
          "internalType": "string",
          "name": "latitude",
          "type": "string"
        },
        {
          "internalType": "string",
          "name": "longitude",
          "type": "string"
        }
      ],
      "stateMutability": "view",
      "type": "function"
    },
    {
      "inputs": [
        {
          "internalType": "address",
          "name": "addr",
          "type": "address"
        }
      ],
      "name": "decrementInspections",
      "outputs": [],
      "stateMutability": "nonpayable",
      "type": "function"
    },
    {
      "inputs": [
        {
          "internalType": "address",
          "name": "addr",
          "type": "address"
        }
      ],
      "name": "getCoordinates",
      "outputs": [
        {
          "components": [
            {
              "internalType": "string",
              "name": "latitude",
              "type": "string"
            },
            {
              "internalType": "string",
              "name": "longitude",
              "type": "string"
            }
          ],
          "internalType": "struct Coordinates[]",
          "name": "",
          "type": "tuple[]"
        }
      ],
      "stateMutability": "view",
      "type": "function"
    },
    {
      "inputs": [
        {
          "internalType": "address",
          "name": "addr",
          "type": "address"
        }
      ],
      "name": "getRegenerator",
      "outputs": [
        {
          "components": [
            {
              "internalType": "uint64",
              "name": "id",
              "type": "uint64"
            },
            {
              "internalType": "address",
              "name": "regeneratorWallet",
              "type": "address"
            },
            {
              "internalType": "string",
              "name": "name",
              "type": "string"
            },
            {
              "internalType": "string",
              "name": "proofPhoto",
              "type": "string"
            },
            {
              "internalType": "uint32",
              "name": "totalArea",
              "type": "uint32"
            },
            {
              "internalType": "bool",
              "name": "pendingInspection",
              "type": "bool"
            },
            {
              "internalType": "uint256",
              "name": "totalInspections",
              "type": "uint256"
            },
            {
              "internalType": "uint256",
              "name": "lastRequestAt",
              "type": "uint256"
            },
            {
              "components": [
                {
                  "internalType": "uint256",
                  "name": "score",
                  "type": "uint256"
                }
              ],
              "internalType": "struct RegenerationScore",
              "name": "regenerationScore",
              "type": "tuple"
            },
            {
              "components": [
                {
                  "internalType": "bool",
                  "name": "onContractPool",
                  "type": "bool"
                },
                {
                  "internalType": "uint256",
                  "name": "currentEra",
                  "type": "uint256"
                }
              ],
              "internalType": "struct Pool",
              "name": "pool",
              "type": "tuple"
            },
            {
              "internalType": "uint256",
              "name": "createdAt",
              "type": "uint256"
            },
            {
              "internalType": "uint256",
              "name": "coordinatesCount",
              "type": "uint256"
            },
            {
              "internalType": "bool",
              "name": "isFullyInvalidated",
              "type": "bool"
            }
          ],
          "internalType": "struct Regenerator",
          "name": "regenerator",
          "type": "tuple"
        }
      ],
      "stateMutability": "view",
      "type": "function"
    },
    {
      "inputs": [
        {
          "internalType": "address",
          "name": "",
          "type": "address"
        }
      ],
      "name": "impactRegenerators",
      "outputs": [
        {
          "internalType": "bool",
          "name": "",
          "type": "bool"
        }
      ],
      "stateMutability": "view",
      "type": "function"
    },
    {
      "inputs": [
        {
          "internalType": "address",
          "name": "caller",
          "type": "address"
        }
      ],
      "name": "isAllowedCaller",
      "outputs": [
        {
          "internalType": "bool",
          "name": "",
          "type": "bool"
        }
      ],
      "stateMutability": "view",
      "type": "function"
    },
    {
      "inputs": [],
      "name": "isRegistrationAllowed",
      "outputs": [
        {
          "internalType": "bool",
          "name": "",
          "type": "bool"
        }
      ],
      "stateMutability": "view",
      "type": "function"
    },
    {
      "inputs": [
        {
          "internalType": "address",
          "name": "allowed",
          "type": "address"
        }
      ],
      "name": "newAllowedCaller",
      "outputs": [],
      "stateMutability": "nonpayable",
      "type": "function"
    },
    {
      "inputs": [],
      "name": "nextEraIn",
      "outputs": [
        {
          "internalType": "uint256",
          "name": "",
          "type": "uint256"
        }
      ],
      "stateMutability": "view",
      "type": "function"
    },
    {
      "inputs": [],
      "name": "owner",
      "outputs": [
        {
          "internalType": "address",
          "name": "",
          "type": "address"
        }
      ],
      "stateMutability": "view",
      "type": "function"
    },
    {
      "inputs": [],
      "name": "poolCurrentEra",
      "outputs": [
        {
          "internalType": "uint256",
          "name": "",
          "type": "uint256"
        }
      ],
      "stateMutability": "view",
      "type": "function"
    },
    {
      "inputs": [
        {
          "internalType": "address",
          "name": "",
          "type": "address"
        }
      ],
      "name": "projectDescriptions",
      "outputs": [
        {
          "internalType": "string",
          "name": "",
          "type": "string"
        }
      ],
      "stateMutability": "view",
      "type": "function"
    },
    {
      "inputs": [],
      "name": "regenerationArea",
      "outputs": [
        {
          "internalType": "uint256",
          "name": "",
          "type": "uint256"
        }
      ],
      "stateMutability": "view",
      "type": "function"
    },
    {
      "inputs": [],
      "name": "regenerationTotalArea",
      "outputs": [
        {
          "internalType": "uint256",
          "name": "",
          "type": "uint256"
        }
      ],
      "stateMutability": "view",
      "type": "function"
    },
    {
      "inputs": [
        {
          "internalType": "uint256",
          "name": "",
          "type": "uint256"
        }
      ],
      "name": "regeneratorsAddress",
      "outputs": [
        {
          "internalType": "address",
          "name": "",
          "type": "address"
        }
      ],
      "stateMutability": "view",
      "type": "function"
    },
    {
      "inputs": [
        {
          "internalType": "address",
          "name": "addr",
          "type": "address"
        },
        {
          "internalType": "uint256",
          "name": "amountToRemove",
          "type": "uint256"
        }
      ],
      "name": "removeInspectionLevels",
      "outputs": [],
      "stateMutability": "nonpayable",
      "type": "function"
    },
    {
      "inputs": [
        {
          "internalType": "address",
          "name": "addr",
          "type": "address"
        }
      ],
      "name": "removePoolLevels",
      "outputs": [],
      "stateMutability": "nonpayable",
      "type": "function"
    },
    {
      "inputs": [],
      "name": "renounceOwnership",
      "outputs": [],
      "stateMutability": "nonpayable",
      "type": "function"
    },
    {
      "inputs": [
        {
          "internalType": "address",
          "name": "_inspectionRulesAddress",
          "type": "address"
        },
        {
          "internalType": "address",
          "name": "_validationRulesAddress",
          "type": "address"
        }
      ],
      "name": "setContractCall",
      "outputs": [],
      "stateMutability": "nonpayable",
      "type": "function"
    },
    {
      "inputs": [],
      "name": "totalCertifiedRegenerators",
      "outputs": [
        {
          "internalType": "uint256",
          "name": "",
          "type": "uint256"
        }
      ],
      "stateMutability": "view",
      "type": "function"
    },
    {
      "inputs": [],
      "name": "totalImpactRegenerators",
      "outputs": [
        {
          "internalType": "uint256",
          "name": "",
          "type": "uint256"
        }
      ],
      "stateMutability": "view",
      "type": "function"
    },
    {
      "inputs": [
        {
          "internalType": "address",
          "name": "newOwner",
          "type": "address"
        }
      ],
      "name": "transferOwnership",
      "outputs": [],
      "stateMutability": "nonpayable",
      "type": "function"
    },
    {
      "inputs": [
        {
          "internalType": "string",
          "name": "newPhoto",
          "type": "string"
        }
      ],
      "name": "updateAreaPhoto",
      "outputs": [],
      "stateMutability": "nonpayable",
      "type": "function"
    },
    {
      "inputs": [],
      "name": "withdraw",
      "outputs": [],
      "stateMutability": "nonpayable",
      "type": "function"
    }
  ],
  "bytecode": "0x608060405234801561001057600080fd5b506040516137d83803806137d883398101604081905261002f91610101565b338061005557604051631e4fbdf760e01b81526000600482015260240160405180910390fd5b61005e81610095565b506001600255600c80546001600160a01b039384166001600160a01b031991821617909155600d8054929093169116179055610134565b600080546001600160a01b038381166001600160a01b0319831681178455604051919092169283917f8be0079c531659141344cd1fd0a4f28419497f9722a3daafe3b4186f6b6457e09190a35050565b80516001600160a01b03811681146100fc57600080fd5b919050565b6000806040838503121561011457600080fd5b61011d836100e5565b915061012b602084016100e5565b90509250929050565b613695806101436000396000f3fe608060405234801561001057600080fd5b506004361061021c5760003560e01c80638da5cb5b11610125578063b9a68b2b116100ad578063e05cf1551161007c578063e05cf155146104ce578063e57637f0146104d6578063f2fde38b146104ff578063f92f0f8e14610512578063fd7c9ede1461052557600080fd5b8063b9a68b2b1461047e578063c38d2bff14610491578063c3c983d21461049a578063c85a58ff146104ad57600080fd5b8063a6801258116100f4578063a6801258146103f9578063a6bae8b014610425578063a77963f01461042e578063aa8d536a14610448578063b3c40c361461045b57600080fd5b80638da5cb5b1461038e5780638ee39472146103b35780638f93716f146103d357806394c3cee9146103e657600080fd5b806345e0e89a116101a8578063715018a611610177578063715018a614610323578063778116101461032b5780637b3341541461033e57806385b5ee9b146103615780638ca6bee81461038457600080fd5b806345e0e89a146102d5578063582256f1146102dd57806365ab21b0146102e55780636ea7a2e91461030557600080fd5b80632429f0de116101ef5780632429f0de14610287578063257b4e7c1461029a57806336d87398146102ba5780633ccfd60b146102c4578063442f9625146102cc57600080fd5b8063025571761461022157806304521ca31461023e5780631db64204146102535780631e2d317614610266575b600080fd5b61022961052d565b60405190151581526020015b60405180910390f35b61025161024c366004612975565b6105bc565b005b6102516102613660046129a8565b6105f2565b6102796102743660046129f3565b610664565b604051908152602001610235565b610251610295366004612a3a565b6107cf565b6102ad6102a83660046129a8565b6108dd565b6040516102359190612aaa565b6102796207a12081565b610251610977565b61027960105481565b601054610279565b610279610b57565b6102f86102f33660046129a8565b610bd7565b6040516102359190612abd565b61030e6109c481565b60405163ffffffff9091168152602001610235565b610251610df0565b610251610339366004612c6b565b610e02565b61022961034c3660046129a8565b60016020526000908152604090205460ff1681565b61022961036f3660046129a8565b60076020526000908152604090205460ff1681565b61030e620f424081565b6000546001600160a01b03165b6040516001600160a01b039091168152602001610235565b6103c66103c13660046129a8565b610f12565b6040516102359190612ca7565b6102516103e13660046129a8565b611333565b6102516103f43660046129a8565b611362565b6102296104073660046129a8565b6001600160a01b031660009081526001602052604090205460ff1690565b610279600e5481565b610436600381565b60405160ff9091168152602001610235565b6102ad6104563660046129a8565b6113eb565b6102296104693660046129a8565b60086020526000908152604090205460ff1681565b61025161048c366004612d33565b611404565b610279600f5481565b6102516104a83660046129a8565b611a08565b6104c06104bb366004612a3a565b611b79565b604051610235929190612e39565b610279611cca565b61039b6104e4366004612e67565b6004602052600090815260409020546001600160a01b031681565b61025161050d3660046129a8565b611d14565b6102516105203660046129a8565b611d52565b610436600681565b600f54600c54604051632f22dc7b60e01b81526000926207a1209290916001600160a01b0390911690632f22dc7b9061056b90600190600401612ea2565b602060405180830381865afa158015610588573d6000803e3d6000fd5b505050506040513d601f19601f820116820180604052508101906105ac9190612eb6565b6105b69190612ee5565b10905090565b6105c4611ebf565b601180546001600160a01b039384166001600160a01b03199182161790915560128054929093169116179055565b3360009081526001602052604090205460ff1661062a5760405162461bcd60e51b815260040161062190612ef8565b60405180910390fd5b6011546001600160a01b03163381146106555760405162461bcd60e51b815260040161062190612f24565b610660826000611eec565b5050565b3360009081526001602052604081205460ff166106935760405162461bcd60e51b815260040161062190612ef8565b6011546001600160a01b03163381146106be5760405162461bcd60e51b815260040161062190612f24565b6106c6611f27565b604063ffffffff8516111561070d5760405162461bcd60e51b815260206004820152600d60248201526c4d6178696d756d2073636f726560981b6044820152606401610621565b6001600160401b0383166000908152600a602052604090205460ff16156107825760405162461bcd60e51b8152602060048201526024808201527f496e7370656374696f6e20726573756c747320616c7265616479207375626d696044820152631d1d195960e21b6064820152608401610621565b6001600160401b0383166000908152600a60205260408120805460ff191660011790556107ae86611f4f565b90506107bb868686612056565b91506107c76001600255565b509392505050565b3360009081526001602052604090205460ff166107fe5760405162461bcd60e51b815260040161062190612ef8565b6011546001600160a01b03163381146108295760405162461bcd60e51b815260040161062190612f24565b610831611f27565b6001600160a01b0383166000908152600360205260408120600601805484929061085c908490612ee5565b9091555050600d54604051631af0d89760e01b81526001600160a01b038581166004830152602482018590526000604483015290911690631af0d89790606401600060405180830381600087803b1580156108b657600080fd5b505af11580156108ca573d6000803e3d6000fd5b505050506108d86001600255565b505050565b600960205260009081526040902080546108f690612f5b565b80601f016020809104026020016040519081016040528092919081815260200182805461092290612f5b565b801561096f5780601f106109445761010080835404028352916020019161096f565b820191906000526020600020905b81548152906001019060200180831161095257829003601f168201915b505050505081565b61097f611f27565b600c54604051631292f8c160e31b81526001600160a01b0390911690639497c608906109b2906001903390600401612f95565b602060405180830381865afa1580156109cf573d6000803e3d6000fd5b505050506040513d601f19601f820116820180604052508101906109f39190612fbb565b610a385760405162461bcd60e51b815260206004820152601660248201527513db9b1e481c9959d95b995c985d1bdc9cc81c1bdbdb60521b6044820152606401610621565b3360009081526003602052604090206004810154610a57906003111590565b610a995760405162461bcd60e51b81526020600482015260136024820152724d696e696d756d20696e7370656374696f6e7360681b6044820152606401610621565b6008810154610aa9816001612fdd565b6008830155600d5460405163f3fef3a360e01b8152336004820152602481018390526001600160a01b039091169063f3fef3a390604401600060405180830381600087803b158015610afa57600080fd5b505af1158015610b0e573d6000803e3d6000fd5b50506040514381528392503391507f81f7cfdaaebb3eb89eee117bbfcd1e956d1c8bfa759f5eda2ba6f63551a4db209060200160405180910390a35050610b556001600255565b565b600d546000906001600160a01b031663d5ee3eb5610b73611cca565b6040518263ffffffff1660e01b8152600401610b9191815260200190565b602060405180830381865afa158015610bae573d6000803e3d6000fd5b505050506040513d601f19601f82011682018060405250810190610bd29190612eb6565b905090565b610bdf6128a4565b6001600160a01b0380831660009081526003602090815260409182902082516101a08101845281546001600160401b0381168252600160401b9004909416918401919091526001810180549192840191610c3890612f5b565b80601f0160208091040260200160405190810160405280929190818152602001828054610c6490612f5b565b8015610cb15780601f10610c8657610100808354040283529160200191610cb1565b820191906000526020600020905b815481529060010190602001808311610c9457829003601f168201915b50505050508152602001600282018054610cca90612f5b565b80601f0160208091040260200160405190810160405280929190818152602001828054610cf690612f5b565b8015610d435780601f10610d1857610100808354040283529160200191610d43565b820191906000526020600020905b815481529060010190602001808311610d2657829003601f168201915b5050509183525050600382015463ffffffff811660208084019190915260ff640100000000909204821615156040808501919091526004850154606085015260058501546080850152805180830182526006860154815260a08501528051808201909152600785015483161515815260088501549181019190915260c0830152600983015460e0830152600a830154610100830152600b9092015490911615156101209091015292915050565b610df8611ebf565b610b5560006121eb565b805160961015610e455760405162461bcd60e51b815260206004820152600e60248201526d4d6178206368617261637465727360901b6044820152606401610621565b600c54604051631292f8c160e31b81526001600160a01b0390911690639497c60890610e78906001903390600401612f95565b602060405180830381865afa158015610e95573d6000803e3d6000fd5b505050506040513d601f19601f82011682018060405250810190610eb99190612fbb565b610ef95760405162461bcd60e51b81526020600482015260116024820152704f6e6c7920726567656e657261746f727360781b6044820152606401610621565b3360009081526009602052604090206106608282613053565b6001600160a01b03808216600090815260036020908152604080832081516101a08101835281546001600160401b0381168252600160401b900490951692850192909252600182018054606095939284019190610f6e90612f5b565b80601f0160208091040260200160405190810160405280929190818152602001828054610f9a90612f5b565b8015610fe75780601f10610fbc57610100808354040283529160200191610fe7565b820191906000526020600020905b815481529060010190602001808311610fca57829003601f168201915b5050505050815260200160028201805461100090612f5b565b80601f016020809104026020016040519081016040528092919081815260200182805461102c90612f5b565b80156110795780601f1061104e57610100808354040283529160200191611079565b820191906000526020600020905b81548152906001019060200180831161105c57829003601f168201915b5050509183525050600382015463ffffffff811660208084019190915260ff640100000000909204821615156040808501919091526004850154606085015260058501546080850152805180830182526006860154815260a08501528051808201909152600785015483161515815260088501549181019190915260c0830152600983015460e0830152600a830154610100830152600b909201549091161515610120909101526101608101519091506000906001600160401b0381111561114357611143612bc8565b60405190808252806020026020018201604052801561118857816020015b60408051808201909152606080825260208201528152602001906001900390816111615790505b5061016083015190915060005b81811015611329576001600160a01b03861660009081526005602052604090208054829081106111c7576111c761310b565b90600052602060002090600202016040518060400160405290816000820180546111f090612f5b565b80601f016020809104026020016040519081016040528092919081815260200182805461121c90612f5b565b80156112695780601f1061123e57610100808354040283529160200191611269565b820191906000526020600020905b81548152906001019060200180831161124c57829003601f168201915b5050505050815260200160018201805461128290612f5b565b80601f01602080910402602001604051908101604052809291908181526020018280546112ae90612f5b565b80156112fb5780601f106112d0576101008083540402835291602001916112fb565b820191906000526020600020905b8154815290600101906020018083116112de57829003601f168201915b5050505050815250508382815181106113165761131661310b565b6020908102919091010152600101611195565b5090949350505050565b61133b611ebf565b6001600160a01b03166000908152600160208190526040909120805460ff19169091179055565b3360009081526001602052604090205460ff166113915760405162461bcd60e51b815260040161062190612ef8565b6011546001600160a01b03163381146113bc5760405162461bcd60e51b815260040161062190612f24565b6113c7826001611eec565b61066082436001600160a01b03909116600090815260036020526040902060050155565b600660205260009081526040902080546108f690612f5b565b845160321080159061141857508351609610155b80156114265750825160c810155b61146b5760405162461bcd60e51b815260206004820152601660248201527513585e0818da185c9858dd195c9cc81c995858da195960521b6044820152606401610621565b6003811080159061147d5750600a8111155b6114dc5760405162461bcd60e51b815260206004820152602a60248201527f4d696e696d756d203320616e64206d6178696d756d20313020636f6f7264696e60448201526961746520706f696e747360b01b6064820152608401610621565b6109c463ffffffff8716108015906114fd5750620f424063ffffffff871611155b6115625760405162461bcd60e51b815260206004820152603060248201527f4d696e696d756d203235303020616e64206d6178696d756d20312e3030302e3060448201526f303020737175617265206d657465727360801b6064820152608401610621565b61156a61052d565b6115c75760405162461bcd60e51b815260206004820152602860248201527f5761697420666f7220766163616e63793a204d617820726567656e657261746f6044820152671c9cc81b1a5b5a5d60c21b6064820152608401610621565b6115d1828261223b565b600c5460405162f5960960e51b81526000916001600160a01b031690631eb2c1209061160290600190600401612ea2565b602060405180830381865afa15801561161f573d6000803e3d6000fd5b505050506040513d601f19601f820116820180604052508101906116439190613121565b61164e90600161313e565b9050604051806101a00160405280826001600160401b03168152602001336001600160a01b031681526020018781526020018681526020018863ffffffff16815260200160001515815260200160008152602001600081526020016040518060200160405280600081525081526020016040518060400160405280600015158152602001600d60009054906101000a90046001600160a01b03166001600160a01b031663ed0df79e6040518163ffffffff1660e01b8152600401602060405180830381865afa158015611725573d6000803e3d6000fd5b505050506040513d601f19601f820116820180604052508101906117499190612eb6565b9052815243602080830191909152604080830186905260006060909301839052338352600382529182902083518154928501516001600160a01b0316600160401b026001600160e01b03199093166001600160401b03909116179190911781559082015160018201906117bc9082613053565b50606082015160028201906117d19082613053565b50608082015160038201805460a085015115156401000000000264ffffffffff1990911663ffffffff9093169290921791909117905560c082015160048083019190915560e0830151600583015561010083015151600680840191909155610120840151805160078501805491151560ff1992831617905560209182015160088601556101408601516009860155610160860151600a86015561018090950151600b909401805494151594909516939093179093556001600160401b0384166000908152908252604080822080546001600160a01b03191633908117909155825292909152206118c18582613053565b50600c54604051639c3eead960e01b81526001600160a01b0390911690639c3eead9906118f590339060019060040161315d565b600060405180830381600087803b15801561190f57600080fd5b505af1158015611923573d6000803e3d6000fd5b505050508663ffffffff166010600082825461193f9190612fdd565b90915550600090505b828110156119af573360009081526005602052604090208484838181106119715761197161310b565b9050602002810190611983919061317a565b8154600181018355600092835260209092209091600202016119a582826132a0565b5050600101611948565b50336001600160a01b0316816001600160401b03167fe7929ab3a316468d25671f32aa731ca41460f5459029b8ed818d4d32152c7f00888a436040516119f793929190613382565b60405180910390a350505050505050565b3360009081526001602052604090205460ff16611a375760405162461bcd60e51b815260040161062190612ef8565b6011546001600160a01b0316338114611a625760405162461bcd60e51b815260040161062190612f24565b6001600160a01b03821660009081526003602052604090206004015480611acb5760405162461bcd60e51b815260206004820152601860248201527f746f74616c496e7370656374696f6e7320696e76616c696400000000000000006044820152606401610621565b80600103611b0957600e8054906000611ae3836133ad565b90915550506001600160a01b0383166000908152600760205260409020805460ff191690555b6005198101611b4857600f8054906000611b22836133ad565b90915550506001600160a01b0383166000908152600860205260409020805460ff191690555b6001600160a01b0383166000908152600360205260408120600401805491611b6f836133ad565b9190505550505050565b60056020528160005260406000208181548110611b9557600080fd5b906000526020600020906002020160009150915050806000018054611bb990612f5b565b80601f0160208091040260200160405190810160405280929190818152602001828054611be590612f5b565b8015611c325780601f10611c0757610100808354040283529160200191611c32565b820191906000526020600020905b815481529060010190602001808311611c1557829003601f168201915b505050505090806001018054611c4790612f5b565b80601f0160208091040260200160405190810160405280929190818152602001828054611c7390612f5b565b8015611cc05780601f10611c9557610100808354040283529160200191611cc0565b820191906000526020600020905b815481529060010190602001808311611ca357829003601f168201915b5050505050905082565b600d5460408051637686fbcf60e11b815290516000926001600160a01b03169163ed0df79e9160048083019260209291908290030181865afa158015610bae573d6000803e3d6000fd5b611d1c611ebf565b6001600160a01b038116611d4657604051631e4fbdf760e01b815260006004820152602401610621565b611d4f816121eb565b50565b3360009081526001602052604090205460ff16611d815760405162461bcd60e51b815260040161062190612ef8565b6012546001600160a01b0316338114611dac5760405162461bcd60e51b815260040161062190612f24565b611db4611f27565b6001600160a01b0382166000908152600360205260409020600b81015460ff1615611e2f5760405162461bcd60e51b815260206004820152602560248201527f526567656e657261746f7220616c72656164792066756c6c7920696e76616c6960448201526419185d195960da1b6064820152608401610621565b600b8101805460ff19166001179055611e47836124d6565b600d54604051631af0d89760e01b81526001600160a01b038581166004830152600060248301526001604483015290911690631af0d89790606401600060405180830381600087803b158015611e9c57600080fd5b505af1158015611eb0573d6000803e3d6000fd5b50505050506106606001600255565b6000546001600160a01b03163314610b555760405163118cdaa760e01b8152336004820152602401610621565b6001600160a01b0390911660009081526003602081905260409091200180549115156401000000000264ff0000000019909216919091179055565b6002805403611f4957604051633ee5aeb560e01b815260040160405180910390fd5b60028055565b6001600160a01b03811660009081526003602052604081206004810180549083611f78836133c4565b90915550506001600160a01b03831660009081526007602052604090205460ff16611fd4576001600160a01b0383166000908152600760205260408120805460ff19166001179055600e805491611fce836133c4565b91905055505b60048101546005190161204c576001600160a01b0383166000908152600860205260408120805460ff19166001179055600f805491612012836133c4565b90915550506040516001600160a01b038416907f93a038d030ae217569bb08e5257262840e0aeafc36b94b7cfb2dc41deabed21690600090a25b6004015492915050565b6001600160a01b0383166000908152600360205260408120805490916001600160401b0390911690036120cb5760405162461bcd60e51b815260206004820152601a60248201527f526567656e657261746f7220646f6573206e6f742065786973740000000000006044820152606401610621565b8263ffffffff168160060160000160008282546120e89190612fdd565b90915550506004810154600311156121005750505050565b600781015463ffffffff84169060ff1661216f575060078101805460ff1916600117905560068101546040516001600160a01b038616907fdf477f1abb30c779b76ead783acd2084230ef08ba1570ce9dee934c0c5b93b9d906121669043815260200190565b60405180910390a25b600d546040516338e8490d60e11b81526001600160a01b038781166004830152602482018490526001600160401b0386166044830152909116906371d0921a90606401600060405180830381600087803b1580156121cc57600080fd5b505af11580156121e0573d6000803e3d6000fd5b505050505050505050565b600080546001600160a01b038381166001600160a01b0319831681178455604051919092169283917f8be0079c531659141344cd1fd0a4f28419497f9722a3daafe3b4186f6b6457e09190a35050565b60005b818110156108d8576000612253826001612fdd565b90505b82811015612355578383828181106122705761227061310b565b9050602002810190612282919061317a565b604051602001612292919061344b565b604051602081830303815290604052805190602001208484848181106122ba576122ba61310b565b90506020028101906122cc919061317a565b6040516020016122dc919061344b565b604051602081830303815290604052805190602001200361234d5760405162461bcd60e51b815260206004820152602560248201527f4475706c696361746520636f6f7264696e6174657320617265206e6f7420616c6044820152641b1bddd95960da1b6064820152608401610621565b600101612256565b5060006123c384848481811061236d5761236d61310b565b905060200281019061237f919061317a565b612389908061319a565b8080601f01602080910402602001604051908101604052809392919081815260200183838082843760009201919091525061251492505050565b905060006123fc8585858181106123dc576123dc61310b565b90506020028101906123ee919061317a565b61238990602081019061319a565b9050620f424061240e816059196134a1565b8312158015612427575061242381605a6134a1565b8313155b6124665760405162461bcd60e51b815260206004820152601060248201526f496e76616c6964206c6174697475646560801b6044820152606401610621565b6124728160b3196134a1565b821215801561248b57506124878160b46134a1565b8213155b6124cb5760405162461bcd60e51b8152602060048201526011602482015270496e76616c6964206c6f6e67697475646560781b6044820152606401610621565b50505060010161223e565b6001600160a01b0381166000908152600360208190526040822001546010805463ffffffff90921692909161250c908490612ee5565b909155505050565b805160009082901580159061252a5750601e8151105b6125765760405162461bcd60e51b815260206004820181905260248201527f496e76616c696420636f6f7264696e61746520737472696e67206c656e6774686044820152606401610621565b6000806000199050600080846000815181106125945761259461310b565b01602001516001600160f81b031916602d60f81b036125b4575060019050805b815b85518110156127075760008682815181106125d3576125d361310b565b01602001516001600160f81b03191690506000600360fc1b82108015906126085750603960f81b6001600160f81b0319831611155b9050601760f91b6001600160f81b031983161481806126245750805b6126705760405162461bcd60e51b815260206004820152601f60248201527f496e76616c69642063686172616374657220696e20636f6f7264696e617465006044820152606401610621565b80156126cf5786600019146126c75760405162461bcd60e51b815260206004820152601b60248201527f4d756c7469706c6520646f747320696e20636f6f7264696e61746500000000006044820152606401610621565b8396506126fc565b86196126fc576126e4603060f885901c6134d1565b6126ef89600a6134a1565b6126f991906134f8565b97505b5050506001016125b6565b5082600019146128755760008080612720866001612fdd565b90505b8751811080156127335750600682105b1561281f57600088828151811061274c5761274c61310b565b01602001516001600160f81b0319169050600360fc1b811080159061277f5750603960f81b6001600160f81b0319821611155b6127d55760405162461bcd60e51b815260206004820152602160248201527f496e76616c69642063686172616374657220696e20646563696d616c207061726044820152601d60fa1b6064820152608401610621565b6127e4603060f883901c613520565b60ff166127f285600a613539565b6127fc9190612fdd565b935082612808816133c4565b935050508080612817906133c4565b915050612723565b508161282c82600a613637565b61283690886134a1565b61284091906134f8565b9550600681101561286e57612856816006612ee5565b61286190600a613637565b61286b90876134a1565b95505b5050612885565b61288284620f42406134a1565b93505b806128905783612899565b61289984613643565b979650505050505050565b604051806101a0016040528060006001600160401b0316815260200160006001600160a01b031681526020016060815260200160608152602001600063ffffffff16815260200160001515815260200160008152602001600081526020016129186040518060200160405280600081525090565b815260200161293c6040518060400160405280600015158152602001600081525090565b815260200160008152602001600081526020016000151581525090565b80356001600160a01b038116811461297057600080fd5b919050565b6000806040838503121561298857600080fd5b61299183612959565b915061299f60208401612959565b90509250929050565b6000602082840312156129ba57600080fd5b6129c382612959565b9392505050565b803563ffffffff8116811461297057600080fd5b6001600160401b0381168114611d4f57600080fd5b600080600060608486031215612a0857600080fd5b612a1184612959565b9250612a1f602085016129ca565b91506040840135612a2f816129de565b809150509250925092565b60008060408385031215612a4d57600080fd5b612a5683612959565b946020939093013593505050565b6000815180845260005b81811015612a8a57602081850181015186830182015201612a6e565b506000602082860101526020601f19601f83011685010191505092915050565b6020815260006129c36020830184612a64565b60208152612ad76020820183516001600160401b03169052565b60006020830151612af360408401826001600160a01b03169052565b5060408301516101c06060840152612b0f6101e0840182612a64565b90506060840151601f19848303016080850152612b2c8282612a64565b9150506080840151612b4660a085018263ffffffff169052565b5060a084015180151560c08501525060c084015160e084015260e0840151610100840152610100840151612b7e610120850182519052565b50610120840151805115156101408501526020810151610160850152506101408401516101808401526101608401516101a08401526101808401516107c76101c085018215159052565b634e487b7160e01b600052604160045260246000fd5b600082601f830112612bef57600080fd5b81356001600160401b03811115612c0857612c08612bc8565b604051601f8201601f19908116603f011681016001600160401b0381118282101715612c3657612c36612bc8565b604052818152838201602001851015612c4e57600080fd5b816020850160208301376000918101602001919091529392505050565b600060208284031215612c7d57600080fd5b81356001600160401b03811115612c9357600080fd5b612c9f84828501612bde565b949350505050565b6000602082016020835280845180835260408501915060408160051b86010192506020860160005b82811015612d2757603f198786030184528151805160408752612cf56040880182612a64565b9050602082015191508681036020880152612d108183612a64565b965050506020938401939190910190600101612ccf565b50929695505050505050565b60008060008060008060a08789031215612d4c57600080fd5b612d55876129ca565b955060208701356001600160401b03811115612d7057600080fd5b612d7c89828a01612bde565b95505060408701356001600160401b03811115612d9857600080fd5b612da489828a01612bde565b94505060608701356001600160401b03811115612dc057600080fd5b612dcc89828a01612bde565b93505060808701356001600160401b03811115612de857600080fd5b8701601f81018913612df957600080fd5b80356001600160401b03811115612e0f57600080fd5b8960208260051b8401011115612e2457600080fd5b60208201935080925050509295509295509295565b604081526000612e4c6040830185612a64565b8281036020840152612e5e8185612a64565b95945050505050565b600060208284031215612e7957600080fd5b5035919050565b60088110612e9e57634e487b7160e01b600052602160045260246000fd5b9052565b60208101612eb08284612e80565b92915050565b600060208284031215612ec857600080fd5b5051919050565b634e487b7160e01b600052601160045260246000fd5b81810381811115612eb057612eb0612ecf565b6020808252601290820152712737ba1030b63637bbb2b21031b0b63632b960711b604082015260600190565b6020808252601e908201527f43616c6c6572206d7573742062652073797374656d20636f6e74726163740000604082015260600190565b600181811c90821680612f6f57607f821691505b602082108103612f8f57634e487b7160e01b600052602260045260246000fd5b50919050565b60408101612fa38285612e80565b6001600160a01b039290921660209190910152919050565b600060208284031215612fcd57600080fd5b815180151581146129c357600080fd5b80820180821115612eb057612eb0612ecf565b601f8211156108d857806000526020600020601f840160051c810160208510156130175750805b601f840160051c820191505b818110156130375760008155600101613023565b5050505050565b600019600383901b1c191660019190911b1790565b81516001600160401b0381111561306c5761306c612bc8565b6130808161307a8454612f5b565b84612ff0565b6020601f8211600181146130ae576000831561309c5750848201515b6130a6848261303e565b855550613037565b600084815260208120601f198516915b828110156130de57878501518255602094850194600190920191016130be565b50848210156130fc5786840151600019600387901b60f8161c191681555b50505050600190811b01905550565b634e487b7160e01b600052603260045260246000fd5b60006020828403121561313357600080fd5b81516129c3816129de565b6001600160401b038181168382160190811115612eb057612eb0612ecf565b6001600160a01b0383168152604081016129c36020830184612e80565b60008235603e1983360301811261319057600080fd5b9190910192915050565b6000808335601e198436030181126131b157600080fd5b8301803591506001600160401b038211156131cb57600080fd5b6020019150368190038213156131e057600080fd5b9250929050565b6001600160401b038311156131fe576131fe612bc8565b6132128361320c8354612f5b565b83612ff0565b6000601f841160018114613240576000851561322e5750838201355b613238868261303e565b845550613037565b600083815260209020601f19861690835b828110156132715786850135825560209485019460019092019101613251565b508682101561328e5760001960f88860031b161c19848701351681555b505060018560011b0183555050505050565b6132aa828361319a565b6001600160401b038111156132c1576132c1612bc8565b6132d5816132cf8554612f5b565b85612ff0565b6000601f82116001811461330357600083156132f15750838201355b6132fb848261303e565b86555061335d565b600085815260209020601f19841690835b828110156133345786850135825560209485019460019092019101613314565b50848210156133515760001960f88660031b161c19848701351681555b505060018360011b0185555b5050505061336e602083018361319a565b61337c8183600186016131e7565b50505050565b6060815260006133956060830186612a64565b63ffffffff9490941660208301525060400152919050565b6000816133bc576133bc612ecf565b506000190190565b6000600182016133d6576133d6612ecf565b5060010190565b6000808335601e198436030181126133f457600080fd5b83016020810192503590506001600160401b0381111561341357600080fd5b8036038213156131e057600080fd5b81835281816020850137506000828201602090810191909152601f909101601f19169091010190565b60208152600061345b83846133dd565b60406020850152613470606085018284613422565b91505061348060208501856133dd565b848303601f19016040860152613497838284613422565b9695505050505050565b80820260008212600160ff1b841416156134bd576134bd612ecf565b8181058314821517612eb057612eb0612ecf565b81810360008312801583831316838312821617156134f1576134f1612ecf565b5092915050565b808201828112600083128015821682158216171561351857613518612ecf565b505092915050565b60ff8281168282160390811115612eb057612eb0612ecf565b8082028115828204841417612eb057612eb0612ecf565b6001815b600184111561358b5780850481111561356f5761356f612ecf565b600184161561357d57908102905b60019390931c928002613554565b935093915050565b6000826135a257506001612eb0565b816135af57506000612eb0565b81600181146135c557600281146135cf576135eb565b6001915050612eb0565b60ff8411156135e0576135e0612ecf565b50506001821b612eb0565b5060208310610133831016604e8410600b841016171561360e575081810a612eb0565b61361b6000198484613550565b806000190482111561362f5761362f612ecf565b029392505050565b60006129c38383613593565b6000600160ff1b820161365857613658612ecf565b506000039056fea2646970667358221220bdae3499391f98ac19590b1ea092cfc0853ffe1fcfcb24abe82883952130a33d64736f6c634300081b0033",
  "linkReferences": {},
  "deployedLinkReferences": {}
}