{
  "_format": "hh-sol-artifact-1",
  "contractName": "RegeneratorPool",
  "sourceName": "contracts/RegeneratorPool.sol",
  "abi": [
    {
      "inputs": [
        {
          "internalType": "address",
          "name": "regenerationCreditAddress",
          "type": "address"
        },
        {
          "internalType": "uint256",
          "name": "_halving",
          "type": "uint256"
        },
        {
          "internalType": "uint256",
          "name": "_blocksPerEra",
          "type": "uint256"
        }
      ],
      "stateMutability": "nonpayable",
      "type": "constructor"
    },
    {
      "anonymous": false,
      "inputs": [
        {
          "indexed": true,
          "internalType": "address",
          "name": "previousOwner",
          "type": "address"
        },
        {
          "indexed": true,
          "internalType": "address",
          "name": "newOwner",
          "type": "address"
        }
      ],
      "name": "OwnershipTransferred",
      "type": "event"
    },
    {
      "anonymous": false,
      "inputs": [
        {
          "indexed": true,
          "internalType": "address",
          "name": "user",
          "type": "address"
        },
        {
          "indexed": false,
          "internalType": "uint256",
          "name": "era",
          "type": "uint256"
        },
        {
          "indexed": false,
          "internalType": "uint256",
          "name": "levelsAdded",
          "type": "uint256"
        },
        {
          "indexed": false,
          "internalType": "uint256",
          "name": "newTotalEraLevels",
          "type": "uint256"
        },
        {
          "indexed": false,
          "internalType": "uint256",
          "name": "newEraUserLevels",
          "type": "uint256"
        }
      ],
      "name": "PoolLevelAdded",
      "type": "event"
    },
    {
      "anonymous": false,
      "inputs": [
        {
          "indexed": true,
          "internalType": "address",
          "name": "user",
          "type": "address"
        },
        {
          "indexed": false,
          "internalType": "uint256",
          "name": "era",
          "type": "uint256"
        },
        {
          "indexed": false,
          "internalType": "uint256",
          "name": "levelsRemoved",
          "type": "uint256"
        },
        {
          "indexed": false,
          "internalType": "uint256",
          "name": "newTotalEraLevels",
          "type": "uint256"
        },
        {
          "indexed": false,
          "internalType": "uint256",
          "name": "newEraUserLevels",
          "type": "uint256"
        }
      ],
      "name": "PoolLevelRemoved",
      "type": "event"
    },
    {
      "anonymous": false,
      "inputs": [
        {
          "indexed": true,
          "internalType": "address",
          "name": "user",
          "type": "address"
        },
        {
          "indexed": false,
          "internalType": "uint256",
          "name": "era",
          "type": "uint256"
        },
        {
          "indexed": false,
          "internalType": "uint256",
          "name": "amount",
          "type": "uint256"
        }
      ],
      "name": "TokensWithdrawn",
      "type": "event"
    },
    {
      "inputs": [],
      "name": "BLOCKS_PRECISION",
      "outputs": [
        {
          "internalType": "uint256",
          "name": "",
          "type": "uint256"
        }
      ],
      "stateMutability": "view",
      "type": "function"
    },
    {
      "inputs": [
        {
          "internalType": "address",
          "name": "regenerator",
          "type": "address"
        },
        {
          "internalType": "uint256",
          "name": "levels",
          "type": "uint256"
        }
      ],
      "name": "addLevel",
      "outputs": [],
      "stateMutability": "nonpayable",
      "type": "function"
    },
    {
      "inputs": [
        {
          "internalType": "address",
          "name": "",
          "type": "address"
        }
      ],
      "name": "allowedCallers",
      "outputs": [
        {
          "internalType": "bool",
          "name": "",
          "type": "bool"
        }
      ],
      "stateMutability": "view",
      "type": "function"
    },
    {
      "inputs": [
        {
          "internalType": "uint256",
          "name": "currentUserEra",
          "type": "uint256"
        }
      ],
      "name": "canWithdraw",
      "outputs": [
        {
          "internalType": "bool",
          "name": "",
          "type": "bool"
        }
      ],
      "stateMutability": "view",
      "type": "function"
    },
    {
      "inputs": [
        {
          "internalType": "uint256",
          "name": "currentUserEra",
          "type": "uint256"
        }
      ],
      "name": "canWithdrawTimes",
      "outputs": [
        {
          "internalType": "uint256",
          "name": "",
          "type": "uint256"
        }
      ],
      "stateMutability": "view",
      "type": "function"
    },
    {
      "inputs": [],
      "name": "currentContractEra",
      "outputs": [
        {
          "internalType": "uint256",
          "name": "",
          "type": "uint256"
        }
      ],
      "stateMutability": "view",
      "type": "function"
    },
    {
      "inputs": [],
      "name": "currentEpoch",
      "outputs": [
        {
          "internalType": "uint256",
          "name": "",
          "type": "uint256"
        }
      ],
      "stateMutability": "view",
      "type": "function"
    },
    {
      "inputs": [
        {
          "internalType": "uint256",
          "name": "",
          "type": "uint256"
        },
        {
          "internalType": "address",
          "name": "",
          "type": "address"
        }
      ],
      "name": "eraLevels",
      "outputs": [
        {
          "internalType": "uint256",
          "name": "",
          "type": "uint256"
        }
      ],
      "stateMutability": "view",
      "type": "function"
    },
    {
      "inputs": [
        {
          "internalType": "uint256",
          "name": "",
          "type": "uint256"
        },
        {
          "internalType": "address",
          "name": "",
          "type": "address"
        }
      ],
      "name": "eraTokens",
      "outputs": [
        {
          "internalType": "uint256",
          "name": "",
          "type": "uint256"
        }
      ],
      "stateMutability": "view",
      "type": "function"
    },
    {
      "inputs": [
        {
          "internalType": "uint256",
          "name": "",
          "type": "uint256"
        }
      ],
      "name": "eras",
      "outputs": [
        {
          "internalType": "uint256",
          "name": "claimsCount",
          "type": "uint256"
        },
        {
          "internalType": "uint256",
          "name": "tokens",
          "type": "uint256"
        },
        {
          "internalType": "uint256",
          "name": "levels",
          "type": "uint256"
        }
      ],
      "stateMutability": "view",
      "type": "function"
    },
    {
      "inputs": [
        {
          "internalType": "uint256",
          "name": "era",
          "type": "uint256"
        }
      ],
      "name": "getEpochForEra",
      "outputs": [
        {
          "internalType": "uint256",
          "name": "",
          "type": "uint256"
        }
      ],
      "stateMutability": "view",
      "type": "function"
    },
    {
      "inputs": [
        {
          "internalType": "uint256",
          "name": "era",
          "type": "uint256"
        }
      ],
      "name": "getEra",
      "outputs": [
        {
          "components": [
            {
              "internalType": "uint256",
              "name": "claimsCount",
              "type": "uint256"
            },
            {
              "internalType": "uint256",
              "name": "tokens",
              "type": "uint256"
            },
            {
              "internalType": "uint256",
              "name": "levels",
              "type": "uint256"
            }
          ],
          "internalType": "struct Era",
          "name": "",
          "type": "tuple"
        }
      ],
      "stateMutability": "view",
      "type": "function"
    },
    {
      "inputs": [
        {
          "internalType": "address",
          "name": "delegate",
          "type": "address"
        },
        {
          "internalType": "uint256",
          "name": "era",
          "type": "uint256"
        }
      ],
      "name": "haveTokensToWithdraw",
      "outputs": [
        {
          "internalType": "bool",
          "name": "",
          "type": "bool"
        }
      ],
      "stateMutability": "view",
      "type": "function"
    },
    {
      "inputs": [
        {
          "internalType": "address",
          "name": "caller",
          "type": "address"
        }
      ],
      "name": "isAllowedCaller",
      "outputs": [
        {
          "internalType": "bool",
          "name": "",
          "type": "bool"
        }
      ],
      "stateMutability": "view",
      "type": "function"
    },
    {
      "inputs": [
        {
          "internalType": "address",
          "name": "allowed",
          "type": "address"
        }
      ],
      "name": "newAllowedCaller",
      "outputs": [],
      "stateMutability": "nonpayable",
      "type": "function"
    },
    {
      "inputs": [
        {
          "internalType": "uint256",
          "name": "targetEra",
          "type": "uint256"
        }
      ],
      "name": "nextEraIn",
      "outputs": [
        {
          "internalType": "int256",
          "name": "",
          "type": "int256"
        }
      ],
      "stateMutability": "view",
      "type": "function"
    },
    {
      "inputs": [],
      "name": "owner",
      "outputs": [
        {
          "internalType": "address",
          "name": "",
          "type": "address"
        }
      ],
      "stateMutability": "view",
      "type": "function"
    },
    {
      "inputs": [
        {
          "internalType": "address",
          "name": "addr",
          "type": "address"
        },
        {
          "internalType": "uint256",
          "name": "levelsToRemove",
          "type": "uint256"
        }
      ],
      "name": "removePoolLevels",
      "outputs": [],
      "stateMutability": "nonpayable",
      "type": "function"
    },
    {
      "inputs": [],
      "name": "renounceOwnership",
      "outputs": [],
      "stateMutability": "nonpayable",
      "type": "function"
    },
    {
      "inputs": [
        {
          "internalType": "uint256",
          "name": "currentEpoch",
          "type": "uint256"
        }
      ],
      "name": "tokensPerEpoch",
      "outputs": [
        {
          "internalType": "uint256",
          "name": "",
          "type": "uint256"
        }
      ],
      "stateMutability": "view",
      "type": "function"
    },
    {
      "inputs": [
        {
          "internalType": "uint256",
          "name": "currentEpoch",
          "type": "uint256"
        },
        {
          "internalType": "uint256",
          "name": "halvingFactor",
          "type": "uint256"
        }
      ],
      "name": "tokensPerEra",
      "outputs": [
        {
          "internalType": "uint256",
          "name": "",
          "type": "uint256"
        }
      ],
      "stateMutability": "view",
      "type": "function"
    },
    {
      "inputs": [
        {
          "internalType": "address",
          "name": "newOwner",
          "type": "address"
        }
      ],
      "name": "transferOwnership",
      "outputs": [],
      "stateMutability": "nonpayable",
      "type": "function"
    },
    {
      "inputs": [
        {
          "internalType": "address",
          "name": "delegate",
          "type": "address"
        },
        {
          "internalType": "uint256",
          "name": "era",
          "type": "uint256"
        }
      ],
      "name": "withdraw",
      "outputs": [],
      "stateMutability": "nonpayable",
      "type": "function"
    }
  ],
  "bytecode": "0x61010060405234801561001157600080fd5b5060405161136e38038061136e833981016040819052610030916100d6565b6b026c62ad77dc602dae000000608052808261004b33610084565b60a08290524360c05260e0525050600160055550600680546001600160a01b0319166001600160a01b0392909216919091179055610119565b600380546001600160a01b038381166001600160a01b0319831681179093556040519116919082907f8be0079c531659141344cd1fd0a4f28419497f9722a3daafe3b4186f6b6457e090600090a35050565b6000806000606084860312156100eb57600080fd5b83516001600160a01b038116811461010257600080fd5b602085015160409095015190969495509392505050565b60805160a05160c05160e05161120061016e600039600081816103cf015261066d01526000818161072801526107690152600081816105a901528181610702015261079a0152600061048801526112006000f3fe608060405234801561001057600080fd5b506004361061014d5760003560e01c8063861b4ce1116100c3578063d5ee3eb51161007c578063d5ee3eb51461033b578063ed0df79e1461034e578063f2fde38b14610356578063f3fef3a314610369578063fbe85f061461037c578063ff39043c1461038f57600080fd5b8063861b4ce11461029b57806388b3acae146102a35780638da5cb5b146102ce5780638f93716f146102e9578063a6801258146102fc578063b86c56991461032857600080fd5b806352b8d3ed1161011557806352b8d3ed146101f8578063715018a61461020b578063720a70bd14610213578063766718081461025d5780637721f1b5146102655780637b3341541461027857600080fd5b80630f2dbe601461015257806318ad5c9a1461017a5780631f14f4151461018f5780632506b932146101b05780632eedcb18146101c3575b600080fd5b610165610160366004610f0c565b6103ba565b60405190151581526020015b60405180910390f35b61018d610188366004610f0c565b610401565b005b6101a261019d366004610f36565b610461565b604051908152602001610171565b6101a26101be366004610f58565b610476565b6101d66101d1366004610f58565b6104ad565b6040805182518152602080840151908201529181015190820152606001610171565b61018d610206366004610f0c565b610508565b61018d610551565b610242610221366004610f58565b60006020819052908152604090208054600182015460029092015490919083565b60408051938452602084019290925290820152606001610171565b6101a2610565565b6101a2610273366004610f58565b610577565b610165610286366004610f71565b60046020526000908152604090205460ff1681565b6101a2600581565b6101a26102b1366004610f8c565b600160209081526000928352604080842090915290825290205481565b6003546040516001600160a01b039091168152602001610171565b61018d6102f7366004610f71565b6105e6565b61016561030a366004610f71565b6001600160a01b031660009081526004602052604090205460ff1690565b6101a2610336366004610f58565b610612565b6101a2610349366004610f58565b61069c565b6101a2610760565b61018d610364366004610f71565b6107c4565b61018d610377366004610f0c565b61083d565b61016561038a366004610f58565b610a7e565b6101a261039d366004610f8c565b600260209081526000928352604080842090915290825290205481565b60006103f883836103f36103cd86610612565b7f0000000000000000000000000000000000000000000000000000000000000000610461565b610a90565b90505b92915050565b3360009081526004602052604090205460ff166104395760405162461bcd60e51b815260040161043090610fb8565b60405180910390fd5b610441610aa9565b6104538261044d610760565b83610b02565b61045d6001600555565b5050565b60006103f88261047085610476565b90610c40565b60006103fb6104868360026110e1565b7f000000000000000000000000000000000000000000000000000000000000000090610c40565b6104d160405180606001604052806000815260200160008152602001600081525090565b5060009081526020818152604091829020825160608101845281548152600182015492810192909252600201549181019190915290565b3360009081526004602052604090205460ff166105375760405162461bcd60e51b815260040161043090610fb8565b61053f610aa9565b610453828261054c610760565b610c4c565b610559610d21565b6105636000610d7b565b565b6000610572610336610760565b905090565b6000806105838361069c565b905060008113156105975750600092915050565b60006105a2826110ed565b90506105de7f00000000000000000000000000000000000000000000000000000000000000006104706105d76005600a6110e1565b8490610dcd565b949350505050565b6105ee610d21565b6001600160a01b03166000908152600460205260409020805460ff19166001179055565b60008082116106635760405162461bcd60e51b815260206004820152601a60248201527f457261206d7573742062652067726561746572207468616e20300000000000006044820152606401610430565b6103fb60016106967f00000000000000000000000000000000000000000000000000000000000000006104708684610dd9565b90610de5565b60008082116106f75760405162461bcd60e51b815260206004820152602160248201527f54617267657420657261206d7573742062652067726561746572207468616e206044820152600360fc1b6064820152608401610430565b600061074d610726847f0000000000000000000000000000000000000000000000000000000000000000610dcd565b7f000000000000000000000000000000000000000000000000000000000000000090610de5565b90506107594382611109565b9392505050565b60008061078d437f0000000000000000000000000000000000000000000000000000000000000000610dd9565b90506107be6001610696837f0000000000000000000000000000000000000000000000000000000000000000610c40565b91505090565b6107cc610d21565b6001600160a01b0381166108315760405162461bcd60e51b815260206004820152602660248201527f4f776e61626c653a206e6577206f776e657220697320746865207a65726f206160448201526564647265737360d01b6064820152608401610430565b61083a81610d7b565b50565b3360009081526004602052604090205460ff1661086c5760405162461bcd60e51b815260040161043090610fb8565b8061087681610a7e565b6108ba5760405162461bcd60e51b8152602060048201526015602482015274165bdd4818d85b89dd08185c1c1c9bdd99481e595d605a1b6044820152606401610430565b6108c2610aa9565b6108ca610760565b82111561090d5760405162461bcd60e51b815260206004820152601160248201527045726120696e207468652066757475726560781b6044820152606401610430565b600061092583856109206103cd87610612565b610df1565b9050610932838583610e50565b806000036109405750610a6f565b60065460405163a9059cbb60e01b81526001600160a01b03868116600483015260248201849052600092169063a9059cbb906044016020604051808303816000875af1158015610994573d6000803e3d6000fd5b505050506040513d601f19601f820116820180604052508101906109b89190611130565b905080610a005760405162461bcd60e51b8152602060048201526016602482015275115490cc8c0e881d1c985b9cd9995c8819985a5b195960521b6044820152606401610430565b600654604051630325c61f60e31b81523060048201526001600160a01b038781166024830152604482018590529091169063192e30f890606401600060405180830381600087803b158015610a5457600080fd5b505af1158015610a68573d6000803e3d6000fd5b5050505050505b610a796001600555565b505050565b6000610a88610760565b909110919050565b600080610a9e848685610df1565b151595945050505050565b600260055403610afb5760405162461bcd60e51b815260206004820152601f60248201527f5265656e7472616e637947756172643a207265656e7472616e742063616c6c006044820152606401610430565b6002600555565b60008281526001602090815260408083206001600160a01b038716845290915281205490819003610b335750505050565b6000808311610b645760008481526001602090815260408083206001600160a01b0389168452909152902054610b66565b825b9050806000808681526020019081526020016000206002016000828254610b8d9190611152565b909155505060008481526001602090815260408083206001600160a01b038916845290915281208054839290610bc4908490611152565b909155505060008481526020818152604080832060020154600183528184206001600160a01b038a16808652908452938290205482518981529384018690529183015260608201527f8df21415d734537dcf01ffb77472049844f905c24abd54708d93555ea85239f99060800160405180910390a25050505050565b60006103f88284611165565b600081815260208190526040902060020154610c689083610de5565b60008281526020818152604080832060020193909355600181528282206001600160a01b038716835290529081208054849290610ca6908490611187565b909155505060008181526020818152604080832060020154600183528184206001600160a01b038816808652908452938290205482518681529384018790529183015260608201527ffc6907b3f86e1e63de43e8e6af6345e03bbc9726a0f63eddb4021532417f78b1906080015b60405180910390a2505050565b6003546001600160a01b031633146105635760405162461bcd60e51b815260206004820181905260248201527f4f776e61626c653a2063616c6c6572206973206e6f7420746865206f776e65726044820152606401610430565b600380546001600160a01b038381166001600160a01b0319831681179093556040519116919082907f8be0079c531659141344cd1fd0a4f28419497f9722a3daafe3b4186f6b6457e090600090a35050565b60006103f8828461119a565b60006103f88284611152565b60006103f88284611187565b60008381526020818152604080832060020154600183528184206001600160a01b0387168552909252822054801580610e28575081155b15610e3857600092505050610759565b610e46826104708387610dcd565b9695505050505050565b6000838152602081905260408120805491610e6a836111b1565b909155505060008381526020819052604081206001018054839290610e90908490611187565b909155505060008381526002602090815260408083206001600160a01b0386168085529083529281902084905580518681529182018490527fffe903c0abe6b2dbb2f3474ef43d7a3c1fca49e5a774453423ca8e1952aabffa9101610d14565b80356001600160a01b0381168114610f0757600080fd5b919050565b60008060408385031215610f1f57600080fd5b610f2883610ef0565b946020939093013593505050565b60008060408385031215610f4957600080fd5b50508035926020909101359150565b600060208284031215610f6a57600080fd5b5035919050565b600060208284031215610f8357600080fd5b6103f882610ef0565b60008060408385031215610f9f57600080fd5b82359150610faf60208401610ef0565b90509250929050565b6020808252601290820152712737ba1030b63637bbb2b21031b0b63632b960711b604082015260600190565b634e487b7160e01b600052601160045260246000fd5b6001815b60018411156110355780850481111561101957611019610fe4565b600184161561102757908102905b60019390931c928002610ffe565b935093915050565b60008261104c575060016103fb565b81611059575060006103fb565b816001811461106f576002811461107957611095565b60019150506103fb565b60ff84111561108a5761108a610fe4565b50506001821b6103fb565b5060208310610133831016604e8410600b84101617156110b8575081810a6103fb565b6110c56000198484610ffa565b80600019048211156110d9576110d9610fe4565b029392505050565b60006103f8838361103d565b6000600160ff1b820161110257611102610fe4565b5060000390565b818103600083128015838313168383128216171561112957611129610fe4565b5092915050565b60006020828403121561114257600080fd5b8151801515811461075957600080fd5b818103818111156103fb576103fb610fe4565b60008261118257634e487b7160e01b600052601260045260246000fd5b500490565b808201808211156103fb576103fb610fe4565b80820281158282048414176103fb576103fb610fe4565b6000600182016111c3576111c3610fe4565b506001019056fea2646970667358221220f10e8648f314bbc25156ad0e4f0c39037c43c3ddb540d244306494982df65f8564736f6c634300081b0033",
  "linkReferences": {},
  "deployedLinkReferences": {}
}