{
  "_format": "hh-sol-artifact-1",
  "contractName": "RegeneratorRules",
  "sourceName": "contracts/RegeneratorRules.sol",
  "abi": [
    {
      "inputs": [
        {
          "internalType": "address",
          "name": "communityRulesAddress",
          "type": "address"
        },
        {
          "internalType": "address",
          "name": "regeneratorPoolAddress",
          "type": "address"
        }
      ],
      "stateMutability": "nonpayable",
      "type": "constructor"
    },
    {
      "anonymous": false,
      "inputs": [
        {
          "indexed": true,
          "internalType": "address",
          "name": "previousOwner",
          "type": "address"
        },
        {
          "indexed": true,
          "internalType": "address",
          "name": "newOwner",
          "type": "address"
        }
      ],
      "name": "OwnershipTransferred",
      "type": "event"
    },
    {
      "inputs": [
        {
          "internalType": "uint256",
          "name": "totalArea",
          "type": "uint256"
        },
        {
          "internalType": "string",
          "name": "name",
          "type": "string"
        },
        {
          "internalType": "string",
          "name": "proofPhoto",
          "type": "string"
        },
        {
          "components": [
            {
              "internalType": "string",
              "name": "latitude",
              "type": "string"
            },
            {
              "internalType": "string",
              "name": "longitude",
              "type": "string"
            }
          ],
          "internalType": "struct Coordinates[]",
          "name": "_coordinates",
          "type": "tuple[]"
        }
      ],
      "name": "addRegenerator",
      "outputs": [],
      "stateMutability": "nonpayable",
      "type": "function"
    },
    {
      "inputs": [
        {
          "internalType": "address",
          "name": "addr",
          "type": "address"
        }
      ],
      "name": "afterAcceptInspection",
      "outputs": [],
      "stateMutability": "nonpayable",
      "type": "function"
    },
    {
      "inputs": [
        {
          "internalType": "address",
          "name": "addr",
          "type": "address"
        },
        {
          "internalType": "uint256",
          "name": "score",
          "type": "uint256"
        }
      ],
      "name": "afterRealizeInspection",
      "outputs": [
        {
          "internalType": "uint256",
          "name": "",
          "type": "uint256"
        }
      ],
      "stateMutability": "nonpayable",
      "type": "function"
    },
    {
      "inputs": [
        {
          "internalType": "address",
          "name": "addr",
          "type": "address"
        }
      ],
      "name": "afterRequestInspection",
      "outputs": [],
      "stateMutability": "nonpayable",
      "type": "function"
    },
    {
      "inputs": [
        {
          "internalType": "address",
          "name": "",
          "type": "address"
        }
      ],
      "name": "allowedCallers",
      "outputs": [
        {
          "internalType": "bool",
          "name": "",
          "type": "bool"
        }
      ],
      "stateMutability": "view",
      "type": "function"
    },
    {
      "inputs": [
        {
          "internalType": "address",
          "name": "",
          "type": "address"
        }
      ],
      "name": "areaPhoto",
      "outputs": [
        {
          "internalType": "string",
          "name": "",
          "type": "string"
        }
      ],
      "stateMutability": "view",
      "type": "function"
    },
    {
      "inputs": [
        {
          "internalType": "address",
          "name": "",
          "type": "address"
        },
        {
          "internalType": "uint256",
          "name": "",
          "type": "uint256"
        }
      ],
      "name": "coordinates",
      "outputs": [
        {
          "internalType": "string",
          "name": "latitude",
          "type": "string"
        },
        {
          "internalType": "string",
          "name": "longitude",
          "type": "string"
        }
      ],
      "stateMutability": "view",
      "type": "function"
    },
    {
      "inputs": [
        {
          "internalType": "address",
          "name": "addr",
          "type": "address"
        }
      ],
      "name": "decrementInspections",
      "outputs": [],
      "stateMutability": "nonpayable",
      "type": "function"
    },
    {
      "inputs": [
        {
          "internalType": "address",
          "name": "addr",
          "type": "address"
        }
      ],
      "name": "getRegenerator",
      "outputs": [
        {
          "components": [
            {
              "internalType": "uint256",
              "name": "id",
              "type": "uint256"
            },
            {
              "internalType": "address",
              "name": "regeneratorWallet",
              "type": "address"
            },
            {
              "internalType": "string",
              "name": "name",
              "type": "string"
            },
            {
              "internalType": "string",
              "name": "proofPhoto",
              "type": "string"
            },
            {
              "internalType": "uint256",
              "name": "totalArea",
              "type": "uint256"
            },
            {
              "internalType": "bool",
              "name": "pendingInspection",
              "type": "bool"
            },
            {
              "internalType": "uint256",
              "name": "totalInspections",
              "type": "uint256"
            },
            {
              "internalType": "uint256",
              "name": "lastRequestAt",
              "type": "uint256"
            },
            {
              "components": [
                {
                  "internalType": "uint256",
                  "name": "score",
                  "type": "uint256"
                }
              ],
              "internalType": "struct RegenerationScore",
              "name": "regenerationScore",
              "type": "tuple"
            },
            {
              "components": [
                {
                  "internalType": "bool",
                  "name": "onContractPool",
                  "type": "bool"
                },
                {
                  "internalType": "uint256",
                  "name": "currentEra",
                  "type": "uint256"
                }
              ],
              "internalType": "struct Pool",
              "name": "pool",
              "type": "tuple"
            },
            {
              "internalType": "uint256",
              "name": "createdAt",
              "type": "uint256"
            },
            {
              "internalType": "uint256",
              "name": "coordinatesCount",
              "type": "uint256"
            }
          ],
          "internalType": "struct Regenerator",
          "name": "regenerator",
          "type": "tuple"
        }
      ],
      "stateMutability": "view",
      "type": "function"
    },
    {
      "inputs": [
        {
          "internalType": "address",
          "name": "",
          "type": "address"
        }
      ],
      "name": "impactRegenerators",
      "outputs": [
        {
          "internalType": "bool",
          "name": "",
          "type": "bool"
        }
      ],
      "stateMutability": "view",
      "type": "function"
    },
    {
      "inputs": [
        {
          "internalType": "address",
          "name": "caller",
          "type": "address"
        }
      ],
      "name": "isAllowedCaller",
      "outputs": [
        {
          "internalType": "bool",
          "name": "",
          "type": "bool"
        }
      ],
      "stateMutability": "view",
      "type": "function"
    },
    {
      "inputs": [
        {
          "internalType": "address",
          "name": "allowed",
          "type": "address"
        }
      ],
      "name": "newAllowedCaller",
      "outputs": [],
      "stateMutability": "nonpayable",
      "type": "function"
    },
    {
      "inputs": [],
      "name": "nextEraIn",
      "outputs": [
        {
          "internalType": "uint256",
          "name": "",
          "type": "uint256"
        }
      ],
      "stateMutability": "view",
      "type": "function"
    },
    {
      "inputs": [],
      "name": "owner",
      "outputs": [
        {
          "internalType": "address",
          "name": "",
          "type": "address"
        }
      ],
      "stateMutability": "view",
      "type": "function"
    },
    {
      "inputs": [],
      "name": "regenerationArea",
      "outputs": [
        {
          "internalType": "uint256",
          "name": "",
          "type": "uint256"
        }
      ],
      "stateMutability": "view",
      "type": "function"
    },
    {
      "inputs": [],
      "name": "regenerationTotalArea",
      "outputs": [
        {
          "internalType": "uint256",
          "name": "",
          "type": "uint256"
        }
      ],
      "stateMutability": "view",
      "type": "function"
    },
    {
      "inputs": [
        {
          "internalType": "address",
          "name": "addr",
          "type": "address"
        }
      ],
      "name": "regeneratorExists",
      "outputs": [
        {
          "internalType": "bool",
          "name": "",
          "type": "bool"
        }
      ],
      "stateMutability": "view",
      "type": "function"
    },
    {
      "inputs": [],
      "name": "regeneratorPoolEra",
      "outputs": [
        {
          "internalType": "uint256",
          "name": "",
          "type": "uint256"
        }
      ],
      "stateMutability": "view",
      "type": "function"
    },
    {
      "inputs": [
        {
          "internalType": "address",
          "name": "",
          "type": "address"
        }
      ],
      "name": "regenerators",
      "outputs": [
        {
          "internalType": "uint256",
          "name": "id",
          "type": "uint256"
        },
        {
          "internalType": "address",
          "name": "regeneratorWallet",
          "type": "address"
        },
        {
          "internalType": "string",
          "name": "name",
          "type": "string"
        },
        {
          "internalType": "string",
          "name": "proofPhoto",
          "type": "string"
        },
        {
          "internalType": "uint256",
          "name": "totalArea",
          "type": "uint256"
        },
        {
          "internalType": "bool",
          "name": "pendingInspection",
          "type": "bool"
        },
        {
          "internalType": "uint256",
          "name": "totalInspections",
          "type": "uint256"
        },
        {
          "internalType": "uint256",
          "name": "lastRequestAt",
          "type": "uint256"
        },
        {
          "components": [
            {
              "internalType": "uint256",
              "name": "score",
              "type": "uint256"
            }
          ],
          "internalType": "struct RegenerationScore",
          "name": "regenerationScore",
          "type": "tuple"
        },
        {
          "components": [
            {
              "internalType": "bool",
              "name": "onContractPool",
              "type": "bool"
            },
            {
              "internalType": "uint256",
              "name": "currentEra",
              "type": "uint256"
            }
          ],
          "internalType": "struct Pool",
          "name": "pool",
          "type": "tuple"
        },
        {
          "internalType": "uint256",
          "name": "createdAt",
          "type": "uint256"
        },
        {
          "internalType": "uint256",
          "name": "coordinatesCount",
          "type": "uint256"
        }
      ],
      "stateMutability": "view",
      "type": "function"
    },
    {
      "inputs": [
        {
          "internalType": "uint256",
          "name": "",
          "type": "uint256"
        }
      ],
      "name": "regeneratorsAddress",
      "outputs": [
        {
          "internalType": "address",
          "name": "",
          "type": "address"
        }
      ],
      "stateMutability": "view",
      "type": "function"
    },
    {
      "inputs": [
        {
          "internalType": "address",
          "name": "addr",
          "type": "address"
        },
        {
          "internalType": "uint256",
          "name": "removeSomeLevels",
          "type": "uint256"
        }
      ],
      "name": "removePoolLevels",
      "outputs": [],
      "stateMutability": "nonpayable",
      "type": "function"
    },
    {
      "inputs": [],
      "name": "renounceOwnership",
      "outputs": [],
      "stateMutability": "nonpayable",
      "type": "function"
    },
    {
      "inputs": [],
      "name": "totalImpactRegenerators",
      "outputs": [
        {
          "internalType": "uint256",
          "name": "",
          "type": "uint256"
        }
      ],
      "stateMutability": "view",
      "type": "function"
    },
    {
      "inputs": [
        {
          "internalType": "address",
          "name": "newOwner",
          "type": "address"
        }
      ],
      "name": "transferOwnership",
      "outputs": [],
      "stateMutability": "nonpayable",
      "type": "function"
    },
    {
      "inputs": [
        {
          "internalType": "string",
          "name": "newPhoto",
          "type": "string"
        }
      ],
      "name": "updateAreaPhoto",
      "outputs": [],
      "stateMutability": "nonpayable",
      "type": "function"
    },
    {
      "inputs": [],
      "name": "withdraw",
      "outputs": [],
      "stateMutability": "nonpayable",
      "type": "function"
    }
  ],
  "bytecode": "0x608060405234801561001057600080fd5b5060405161465338038061465383398181016040528101906100329190610206565b61004e6100436100d760201b60201c565b6100df60201b60201c565b81600760006101000a81548173ffffffffffffffffffffffffffffffffffffffff021916908373ffffffffffffffffffffffffffffffffffffffff16021790555080600860006101000a81548173ffffffffffffffffffffffffffffffffffffffff021916908373ffffffffffffffffffffffffffffffffffffffff1602179055505050610246565b600033905090565b60008060009054906101000a900473ffffffffffffffffffffffffffffffffffffffff169050816000806101000a81548173ffffffffffffffffffffffffffffffffffffffff021916908373ffffffffffffffffffffffffffffffffffffffff1602179055508173ffffffffffffffffffffffffffffffffffffffff168173ffffffffffffffffffffffffffffffffffffffff167f8be0079c531659141344cd1fd0a4f28419497f9722a3daafe3b4186f6b6457e060405160405180910390a35050565b600080fd5b600073ffffffffffffffffffffffffffffffffffffffff82169050919050565b60006101d3826101a8565b9050919050565b6101e3816101c8565b81146101ee57600080fd5b50565b600081519050610200816101da565b92915050565b6000806040838503121561021d5761021c6101a3565b5b600061022b858286016101f1565b925050602061023c858286016101f1565b9150509250929050565b6143fe806102556000396000f3fe608060405234801561001057600080fd5b506004361061018e5760003560e01c80637b334154116100de578063a6bae8b011610097578063cec6df7f11610071578063cec6df7f146104a1578063e57637f0146104bd578063e8f3c27a146104ed578063f2fde38b1461050b5761018e565b8063a6bae8b014610436578063c3c983d214610454578063c85a58ff146104705761018e565b80637b3341541461035057806385b5ee9b146103805780638da5cb5b146103b05780638f93716f146103ce57806394c3cee9146103ea578063a6801258146104065761018e565b80633ccfd60b1161014b578063582256f111610125578063582256f1146102dc57806365ab21b0146102fa578063715018a61461032a57806377811610146103345761018e565b80633ccfd60b14610296578063442f9625146102a057806345e0e89a146102be5761018e565b8063037f944d1461019357806318ad5c9a146101c35780631db64204146101df578063257b4e7c146101fb5780632b4d8eae1461022b57806330d91ee114610266575b600080fd5b6101ad60048036038101906101a89190612ff7565b610527565b6040516101ba919061303f565b60405180910390f35b6101dd60048036038101906101d89190613090565b610575565b005b6101f960048036038101906101f49190612ff7565b6109d5565b005b61021560048036038101906102109190612ff7565b610a6f565b6040516102229190613160565b60405180910390f35b61024560048036038101906102409190612ff7565b610b0f565b60405161025d9c9b9a99989796959493929190613209565b60405180910390f35b610280600480360381019061027b9190613090565b610cef565b60405161028d91906132d1565b60405180910390f35b61029e610d9e565b005b6102a8611235565b6040516102b591906132d1565b60405180910390f35b6102c661123b565b6040516102d391906132d1565b60405180910390f35b6102e4611245565b6040516102f191906132d1565b60405180910390f35b610314600480360381019061030f9190612ff7565b6112ef565b604051610321919061349b565b60405180910390f35b610332611571565b005b61034e600480360381019061034991906135f2565b611585565b005b61036a60048036038101906103659190612ff7565b6116f8565b604051610377919061303f565b60405180910390f35b61039a60048036038101906103959190612ff7565b611718565b6040516103a7919061303f565b60405180910390f35b6103b8611738565b6040516103c5919061363b565b60405180910390f35b6103e860048036038101906103e39190612ff7565b611761565b005b61040460048036038101906103ff9190612ff7565b6117c3565b005b610420600480360381019061041b9190612ff7565b611867565b60405161042d919061303f565b60405180910390f35b61043e6118bd565b60405161044b91906132d1565b60405180910390f35b61046e60048036038101906104699190612ff7565b6118c3565b005b61048a60048036038101906104859190613090565b611aea565b604051610498929190613656565b60405180910390f35b6104bb60048036038101906104b69190613805565b611c3b565b005b6104d760048036038101906104d291906138c0565b61249e565b6040516104e4919061363b565b60405180910390f35b6104f56124d1565b60405161050291906132d1565b60405180910390f35b61052560048036038101906105209190612ff7565b612569565b005b600080600260008473ffffffffffffffffffffffffffffffffffffffff1673ffffffffffffffffffffffffffffffffffffffff16815260200190815260200160002060000154119050919050565b600160003373ffffffffffffffffffffffffffffffffffffffff1673ffffffffffffffffffffffffffffffffffffffff16815260200190815260200160002060009054906101000a900460ff16610601576040517f08c379a00000000000000000000000000000000000000000000000000000000081526004016105f890613939565b60405180910390fd5b6000600260008473ffffffffffffffffffffffffffffffffffffffff1673ffffffffffffffffffffffffffffffffffffffff16815260200190815260200160002060405180610180016040529081600082015481526020016001820160009054906101000a900473ffffffffffffffffffffffffffffffffffffffff1673ffffffffffffffffffffffffffffffffffffffff1673ffffffffffffffffffffffffffffffffffffffff1681526020016002820180546106be90613988565b80601f01602080910402602001604051908101604052809291908181526020018280546106ea90613988565b80156107375780601f1061070c57610100808354040283529160200191610737565b820191906000526020600020905b81548152906001019060200180831161071a57829003601f168201915b5050505050815260200160038201805461075090613988565b80601f016020809104026020016040519081016040528092919081815260200182805461077c90613988565b80156107c95780601f1061079e576101008083540402835291602001916107c9565b820191906000526020600020905b8154815290600101906020018083116107ac57829003601f168201915b50505050508152602001600482015481526020016005820160009054906101000a900460ff161515151581526020016006820154815260200160078201548152602001600882016040518060200160405290816000820154815250508152602001600982016040518060400160405290816000820160009054906101000a900460ff161515151581526020016001820154815250508152602001600b8201548152602001600c820154815250509050600082036108d9576000600260008573ffffffffffffffffffffffffffffffffffffffff1673ffffffffffffffffffffffffffffffffffffffff168152602001908152602001600020600801600001819055506108d4836125ec565b610936565b81600260008573ffffffffffffffffffffffffffffffffffffffff1673ffffffffffffffffffffffffffffffffffffffff168152602001908152602001600020600801600001600082825461092e91906139e8565b925050819055505b600860009054906101000a900473ffffffffffffffffffffffffffffffffffffffff1673ffffffffffffffffffffffffffffffffffffffff1663157ffc528483610120015160200151856040518463ffffffff1660e01b815260040161099e93929190613a1c565b600060405180830381600087803b1580156109b857600080fd5b505af11580156109cc573d6000803e3d6000fd5b50505050505050565b600160003373ffffffffffffffffffffffffffffffffffffffff1673ffffffffffffffffffffffffffffffffffffffff16815260200190815260200160002060009054906101000a900460ff16610a61576040517f08c379a0000000000000000000000000000000000000000000000000000000008152600401610a5890613939565b60405180910390fd5b610a6c81600061264a565b50565b60066020528060005260406000206000915090508054610a8e90613988565b80601f0160208091040260200160405190810160405280929190818152602001828054610aba90613988565b8015610b075780601f10610adc57610100808354040283529160200191610b07565b820191906000526020600020905b815481529060010190602001808311610aea57829003601f168201915b505050505081565b60026020528060005260406000206000915090508060000154908060010160009054906101000a900473ffffffffffffffffffffffffffffffffffffffff1690806002018054610b5e90613988565b80601f0160208091040260200160405190810160405280929190818152602001828054610b8a90613988565b8015610bd75780601f10610bac57610100808354040283529160200191610bd7565b820191906000526020600020905b815481529060010190602001808311610bba57829003601f168201915b505050505090806003018054610bec90613988565b80601f0160208091040260200160405190810160405280929190818152602001828054610c1890613988565b8015610c655780601f10610c3a57610100808354040283529160200191610c65565b820191906000526020600020905b815481529060010190602001808311610c4857829003601f168201915b5050505050908060040154908060050160009054906101000a900460ff16908060060154908060070154908060080160405180602001604052908160008201548152505090806009016040518060400160405290816000820160009054906101000a900460ff161515151581526020016001820154815250509080600b01549080600c015490508c565b6000600160003373ffffffffffffffffffffffffffffffffffffffff1673ffffffffffffffffffffffffffffffffffffffff16815260200190815260200160002060009054906101000a900460ff16610d7d576040517f08c379a0000000000000000000000000000000000000000000000000000000008152600401610d7490613939565b60405180910390fd5b6000610d88846126a8565b9050610d94848461280e565b8091505092915050565b600760009054906101000a900473ffffffffffffffffffffffffffffffffffffffff1673ffffffffffffffffffffffffffffffffffffffff16639497c6086001336040518363ffffffff1660e01b8152600401610dfc929190613aca565b602060405180830381865afa158015610e19573d6000803e3d6000fd5b505050506040513d601f19601f82011682018060405250810190610e3d9190613b1f565b610e7c576040517f08c379a0000000000000000000000000000000000000000000000000000000008152600401610e7390613b98565b60405180910390fd5b6000600260003373ffffffffffffffffffffffffffffffffffffffff1673ffffffffffffffffffffffffffffffffffffffff16815260200190815260200160002060405180610180016040529081600082015481526020016001820160009054906101000a900473ffffffffffffffffffffffffffffffffffffffff1673ffffffffffffffffffffffffffffffffffffffff1673ffffffffffffffffffffffffffffffffffffffff168152602001600282018054610f3990613988565b80601f0160208091040260200160405190810160405280929190818152602001828054610f6590613988565b8015610fb25780601f10610f8757610100808354040283529160200191610fb2565b820191906000526020600020905b815481529060010190602001808311610f9557829003601f168201915b50505050508152602001600382018054610fcb90613988565b80601f0160208091040260200160405190810160405280929190818152602001828054610ff790613988565b80156110445780601f1061101957610100808354040283529160200191611044565b820191906000526020600020905b81548152906001019060200180831161102757829003601f168201915b50505050508152602001600482015481526020016005820160009054906101000a900460ff161515151581526020016006820154815260200160078201548152602001600882016040518060200160405290816000820154815250508152602001600982016040518060400160405290816000820160009054906101000a900460ff161515151581526020016001820154815250508152602001600b8201548152602001600c8201548152505090506111008160c00151612d2e565b61113f576040517f08c379a000000000000000000000000000000000000000000000000000000000815260040161113690613c04565b60405180910390fd5b600260003373ffffffffffffffffffffffffffffffffffffffff1673ffffffffffffffffffffffffffffffffffffffff168152602001908152602001600020600901600101600081548092919061119590613c24565b9190505550600860009054906101000a900473ffffffffffffffffffffffffffffffffffffffff1673ffffffffffffffffffffffffffffffffffffffff1663f3fef3a333836101200151602001516040518363ffffffff1660e01b8152600401611200929190613c6c565b600060405180830381600087803b15801561121a57600080fd5b505af115801561122e573d6000803e3d6000fd5b5050505050565b600a5481565b6000600a54905090565b6000600860009054906101000a900473ffffffffffffffffffffffffffffffffffffffff1673ffffffffffffffffffffffffffffffffffffffff1663d5ee3eb561128d6124d1565b6040518263ffffffff1660e01b81526004016112a991906132d1565b602060405180830381865afa1580156112c6573d6000803e3d6000fd5b505050506040513d601f19601f820116820180604052508101906112ea9190613ccb565b905090565b6112f7612ed1565b600260008373ffffffffffffffffffffffffffffffffffffffff1673ffffffffffffffffffffffffffffffffffffffff16815260200190815260200160002060405180610180016040529081600082015481526020016001820160009054906101000a900473ffffffffffffffffffffffffffffffffffffffff1673ffffffffffffffffffffffffffffffffffffffff1673ffffffffffffffffffffffffffffffffffffffff1681526020016002820180546113b290613988565b80601f01602080910402602001604051908101604052809291908181526020018280546113de90613988565b801561142b5780601f106114005761010080835404028352916020019161142b565b820191906000526020600020905b81548152906001019060200180831161140e57829003601f168201915b5050505050815260200160038201805461144490613988565b80601f016020809104026020016040519081016040528092919081815260200182805461147090613988565b80156114bd5780601f10611492576101008083540402835291602001916114bd565b820191906000526020600020905b8154815290600101906020018083116114a057829003601f168201915b50505050508152602001600482015481526020016005820160009054906101000a900460ff161515151581526020016006820154815260200160078201548152602001600882016040518060200160405290816000820154815250508152602001600982016040518060400160405290816000820160009054906101000a900460ff161515151581526020016001820154815250508152602001600b8201548152602001600c820154815250509050919050565b611579612d3c565b6115836000612dba565b565b600760009054906101000a900473ffffffffffffffffffffffffffffffffffffffff1673ffffffffffffffffffffffffffffffffffffffff16639497c6086001336040518363ffffffff1660e01b81526004016115e3929190613aca565b602060405180830381865afa158015611600573d6000803e3d6000fd5b505050506040513d601f19601f820116820180604052508101906116249190613b1f565b611663576040517f08c379a000000000000000000000000000000000000000000000000000000000815260040161165a90613d44565b60405180910390fd5b6064815111156116a8576040517f08c379a000000000000000000000000000000000000000000000000000000000815260040161169f90613db0565b60405180910390fd5b80600660003373ffffffffffffffffffffffffffffffffffffffff1673ffffffffffffffffffffffffffffffffffffffff16815260200190815260200160002090816116f49190613f7c565b5050565b60016020528060005260406000206000915054906101000a900460ff1681565b60056020528060005260406000206000915054906101000a900460ff1681565b60008060009054906101000a900473ffffffffffffffffffffffffffffffffffffffff16905090565b611769612d3c565b60018060008373ffffffffffffffffffffffffffffffffffffffff1673ffffffffffffffffffffffffffffffffffffffff16815260200190815260200160002060006101000a81548160ff02191690831515021790555050565b600160003373ffffffffffffffffffffffffffffffffffffffff1673ffffffffffffffffffffffffffffffffffffffff16815260200190815260200160002060009054906101000a900460ff1661184f576040517f08c379a000000000000000000000000000000000000000000000000000000000815260040161184690613939565b60405180910390fd5b61185a81600161264a565b6118648143612e7e565b50565b6000600160008373ffffffffffffffffffffffffffffffffffffffff1673ffffffffffffffffffffffffffffffffffffffff16815260200190815260200160002060009054906101000a900460ff169050919050565b60095481565b600160003373ffffffffffffffffffffffffffffffffffffffff1673ffffffffffffffffffffffffffffffffffffffff16815260200190815260200160002060009054906101000a900460ff1661194f576040517f08c379a000000000000000000000000000000000000000000000000000000000815260040161194690613939565b60405180910390fd5b6000600260008373ffffffffffffffffffffffffffffffffffffffff1673ffffffffffffffffffffffffffffffffffffffff16815260200190815260200160002060060154116119d4576040517f08c379a00000000000000000000000000000000000000000000000000000000081526004016119cb9061409a565b60405180910390fd5b6001600260008373ffffffffffffffffffffffffffffffffffffffff1673ffffffffffffffffffffffffffffffffffffffff1681526020019081526020016000206006015403611a8f5760096000815480929190611a31906140ba565b91905055506000600560008373ffffffffffffffffffffffffffffffffffffffff1673ffffffffffffffffffffffffffffffffffffffff16815260200190815260200160002060006101000a81548160ff0219169083151502179055505b600260008273ffffffffffffffffffffffffffffffffffffffff1673ffffffffffffffffffffffffffffffffffffffff1681526020019081526020016000206006016000815480929190611ae2906140ba565b919050555050565b60046020528160005260406000208181548110611b0657600080fd5b906000526020600020906002020160009150915050806000018054611b2a90613988565b80601f0160208091040260200160405190810160405280929190818152602001828054611b5690613988565b8015611ba35780601f10611b7857610100808354040283529160200191611ba3565b820191906000526020600020905b815481529060010190602001808311611b8657829003601f168201915b505050505090806001018054611bb890613988565b80601f0160208091040260200160405190810160405280929190818152602001828054611be490613988565b8015611c315780601f10611c0657610100808354040283529160200191611c31565b820191906000526020600020905b815481529060010190602001808311611c1457829003601f168201915b5050505050905082565b6064835111158015611c4f57506064825111155b611c8e576040517f08c379a0000000000000000000000000000000000000000000000000000000008152600401611c8590613db0565b60405180910390fd5b6003815110158015611ca25750600a815111155b611ce1576040517f08c379a0000000000000000000000000000000000000000000000000000000008152600401611cd890614155565b60405180910390fd5b6101f4841015611d26576040517f08c379a0000000000000000000000000000000000000000000000000000000008152600401611d1d906141c1565b60405180910390fd5b6000600260003373ffffffffffffffffffffffffffffffffffffffff1673ffffffffffffffffffffffffffffffffffffffff16815260200190815260200160002060405180610180016040529081600082015481526020016001820160009054906101000a900473ffffffffffffffffffffffffffffffffffffffff1673ffffffffffffffffffffffffffffffffffffffff1673ffffffffffffffffffffffffffffffffffffffff168152602001600282018054611de390613988565b80601f0160208091040260200160405190810160405280929190818152602001828054611e0f90613988565b8015611e5c5780601f10611e3157610100808354040283529160200191611e5c565b820191906000526020600020905b815481529060010190602001808311611e3f57829003601f168201915b50505050508152602001600382018054611e7590613988565b80601f0160208091040260200160405190810160405280929190818152602001828054611ea190613988565b8015611eee5780601f10611ec357610100808354040283529160200191611eee565b820191906000526020600020905b815481529060010190602001808311611ed157829003601f168201915b50505050508152602001600482015481526020016005820160009054906101000a900460ff161515151581526020016006820154815260200160078201548152602001600882016040518060200160405290816000820154815250508152602001600982016040518060400160405290816000820160009054906101000a900460ff161515151581526020016001820154815250508152602001600b8201548152602001600c82015481525050905060006001600760009054906101000a900473ffffffffffffffffffffffffffffffffffffffff1673ffffffffffffffffffffffffffffffffffffffff16631eb2c12060016040518263ffffffff1660e01b8152600401611ffd91906141e1565b602060405180830381865afa15801561201a573d6000803e3d6000fd5b505050506040513d601f19601f8201168201806040525081019061203e9190614211565b612048919061423e565b90508082600001818152505033826020019073ffffffffffffffffffffffffffffffffffffffff16908173ffffffffffffffffffffffffffffffffffffffff1681525050848260400181905250838260600181905250858260800181815250506040518060400160405280600015158152602001600860009054906101000a900473ffffffffffffffffffffffffffffffffffffffff1673ffffffffffffffffffffffffffffffffffffffff1663ed0df79e6040518163ffffffff1660e01b8152600401602060405180830381865afa158015612129573d6000803e3d6000fd5b505050506040513d601f19601f8201168201806040525081019061214d9190614211565b815250826101200181905250438261014001818152505082518261016001818152505081600260003373ffffffffffffffffffffffffffffffffffffffff1673ffffffffffffffffffffffffffffffffffffffff1681526020019081526020016000206000820151816000015560208201518160010160006101000a81548173ffffffffffffffffffffffffffffffffffffffff021916908373ffffffffffffffffffffffffffffffffffffffff16021790555060408201518160020190816122169190613f7c565b50606082015181600301908161222c9190613f7c565b506080820151816004015560a08201518160050160006101000a81548160ff02191690831515021790555060c0820151816006015560e08201518160070155610100820151816008016000820151816000015550506101208201518160090160008201518160000160006101000a81548160ff02191690831515021790555060208201518160010155505061014082015181600b015561016082015181600c0155905050336003600083815260200190815260200160002060006101000a81548173ffffffffffffffffffffffffffffffffffffffff021916908373ffffffffffffffffffffffffffffffffffffffff160217905550600760009054906101000a900473ffffffffffffffffffffffffffffffffffffffff1673ffffffffffffffffffffffffffffffffffffffff16639c3eead93360016040518363ffffffff1660e01b8152600401612380929190614272565b600060405180830381600087803b15801561239a57600080fd5b505af11580156123ae573d6000803e3d6000fd5b5050505085600a60008282546123c4919061423e565b9250508190555060005b835181101561249557600460003373ffffffffffffffffffffffffffffffffffffffff1673ffffffffffffffffffffffffffffffffffffffff1681526020019081526020016000208482815181106124295761242861429b565b5b60200260200101519080600181540180825580915050600190039060005260206000209060020201600090919091909150600082015181600001908161246f9190613f7c565b5060208201518160010190816124859190613f7c565b50505080806001019150506123ce565b50505050505050565b60036020528060005260406000206000915054906101000a900473ffffffffffffffffffffffffffffffffffffffff1681565b6000600860009054906101000a900473ffffffffffffffffffffffffffffffffffffffff1673ffffffffffffffffffffffffffffffffffffffff1663ed0df79e6040518163ffffffff1660e01b8152600401602060405180830381865afa158015612540573d6000803e3d6000fd5b505050506040513d601f19601f820116820180604052508101906125649190614211565b905090565b612571612d3c565b600073ffffffffffffffffffffffffffffffffffffffff168173ffffffffffffffffffffffffffffffffffffffff16036125e0576040517f08c379a00000000000000000000000000000000000000000000000000000000081526004016125d79061433c565b60405180910390fd5b6125e981612dba565b50565b600260008273ffffffffffffffffffffffffffffffffffffffff1673ffffffffffffffffffffffffffffffffffffffff16815260200190815260200160002060040154600a600082825461264091906139e8565b9250508190555050565b80600260008473ffffffffffffffffffffffffffffffffffffffff1673ffffffffffffffffffffffffffffffffffffffff16815260200190815260200160002060050160006101000a81548160ff0219169083151502179055505050565b6000600260008373ffffffffffffffffffffffffffffffffffffffff1673ffffffffffffffffffffffffffffffffffffffff16815260200190815260200160002060060160008154809291906126fd90613c24565b9190505550600560008373ffffffffffffffffffffffffffffffffffffffff1673ffffffffffffffffffffffffffffffffffffffff16815260200190815260200160002060009054906101000a900460ff166127c4576001600560008473ffffffffffffffffffffffffffffffffffffffff1673ffffffffffffffffffffffffffffffffffffffff16815260200190815260200160002060006101000a81548160ff021916908315150217905550600960008154809291906127be90613c24565b91905055505b600260008373ffffffffffffffffffffffffffffffffffffffff1673ffffffffffffffffffffffffffffffffffffffff168152602001908152602001600020600601549050919050565b6000600260008473ffffffffffffffffffffffffffffffffffffffff1673ffffffffffffffffffffffffffffffffffffffff16815260200190815260200160002060405180610180016040529081600082015481526020016001820160009054906101000a900473ffffffffffffffffffffffffffffffffffffffff1673ffffffffffffffffffffffffffffffffffffffff1673ffffffffffffffffffffffffffffffffffffffff1681526020016002820180546128cb90613988565b80601f01602080910402602001604051908101604052809291908181526020018280546128f790613988565b80156129445780601f1061291957610100808354040283529160200191612944565b820191906000526020600020905b81548152906001019060200180831161292757829003601f168201915b5050505050815260200160038201805461295d90613988565b80601f016020809104026020016040519081016040528092919081815260200182805461298990613988565b80156129d65780601f106129ab576101008083540402835291602001916129d6565b820191906000526020600020905b8154815290600101906020018083116129b957829003601f168201915b50505050508152602001600482015481526020016005820160009054906101000a900460ff161515151581526020016006820154815260200160078201548152602001600882016040518060200160405290816000820154815250508152602001600982016040518060400160405290816000820160009054906101000a900460ff161515151581526020016001820154815250508152602001600b8201548152602001600c82015481525050905081816101000151600001818151612a9c919061423e565b9150818152505080600260008573ffffffffffffffffffffffffffffffffffffffff1673ffffffffffffffffffffffffffffffffffffffff1681526020019081526020016000206000820151816000015560208201518160010160006101000a81548173ffffffffffffffffffffffffffffffffffffffff021916908373ffffffffffffffffffffffffffffffffffffffff1602179055506040820151816002019081612b499190613f7c565b506060820151816003019081612b5f9190613f7c565b506080820151816004015560a08201518160050160006101000a81548160ff02191690831515021790555060c0820151816006015560e08201518160070155610100820151816008016000820151816000015550506101208201518160090160008201518160000160006101000a81548160ff02191690831515021790555060208201518160010155505061014082015181600b015561016082015181600c0155905050612c108160c00151612d2e565b612c1a5750612d2a565b600082905081610120015160000151612c98576001600260008673ffffffffffffffffffffffffffffffffffffffff1673ffffffffffffffffffffffffffffffffffffffff16815260200190815260200160002060090160000160006101000a81548160ff0219169083151502179055508161010001516000015190505b600860009054906101000a900473ffffffffffffffffffffffffffffffffffffffff1673ffffffffffffffffffffffffffffffffffffffff166352b8d3ed85836040518363ffffffff1660e01b8152600401612cf5929190613c6c565b600060405180830381600087803b158015612d0f57600080fd5b505af1158015612d23573d6000803e3d6000fd5b5050505050505b5050565b600060038210159050919050565b612d44612ec9565b73ffffffffffffffffffffffffffffffffffffffff16612d62611738565b73ffffffffffffffffffffffffffffffffffffffff1614612db8576040517f08c379a0000000000000000000000000000000000000000000000000000000008152600401612daf906143a8565b60405180910390fd5b565b60008060009054906101000a900473ffffffffffffffffffffffffffffffffffffffff169050816000806101000a81548173ffffffffffffffffffffffffffffffffffffffff021916908373ffffffffffffffffffffffffffffffffffffffff1602179055508173ffffffffffffffffffffffffffffffffffffffff168173ffffffffffffffffffffffffffffffffffffffff167f8be0079c531659141344cd1fd0a4f28419497f9722a3daafe3b4186f6b6457e060405160405180910390a35050565b80600260008473ffffffffffffffffffffffffffffffffffffffff1673ffffffffffffffffffffffffffffffffffffffff168152602001908152602001600020600701819055505050565b600033905090565b60405180610180016040528060008152602001600073ffffffffffffffffffffffffffffffffffffffff1681526020016060815260200160608152602001600081526020016000151581526020016000815260200160008152602001612f35612f56565b8152602001612f42612f69565b815260200160008152602001600081525090565b6040518060200160405280600081525090565b6040518060400160405280600015158152602001600081525090565b6000604051905090565b600080fd5b600080fd5b600073ffffffffffffffffffffffffffffffffffffffff82169050919050565b6000612fc482612f99565b9050919050565b612fd481612fb9565b8114612fdf57600080fd5b50565b600081359050612ff181612fcb565b92915050565b60006020828403121561300d5761300c612f8f565b5b600061301b84828501612fe2565b91505092915050565b60008115159050919050565b61303981613024565b82525050565b60006020820190506130546000830184613030565b92915050565b6000819050919050565b61306d8161305a565b811461307857600080fd5b50565b60008135905061308a81613064565b92915050565b600080604083850312156130a7576130a6612f8f565b5b60006130b585828601612fe2565b92505060206130c68582860161307b565b9150509250929050565b600081519050919050565b600082825260208201905092915050565b60005b8381101561310a5780820151818401526020810190506130ef565b60008484015250505050565b6000601f19601f8301169050919050565b6000613132826130d0565b61313c81856130db565b935061314c8185602086016130ec565b61315581613116565b840191505092915050565b6000602082019050818103600083015261317a8184613127565b905092915050565b61318b8161305a565b82525050565b61319a81612fb9565b82525050565b6131a98161305a565b82525050565b6020820160008201516131c560008501826131a0565b50505050565b6131d481613024565b82525050565b6040820160008201516131f060008501826131cb565b50602082015161320360208501826131a0565b50505050565b60006101a08201905061321f600083018f613182565b61322c602083018e613191565b818103604083015261323e818d613127565b90508181036060830152613252818c613127565b9050613261608083018b613182565b61326e60a083018a613030565b61327b60c0830189613182565b61328860e0830188613182565b6132966101008301876131af565b6132a46101208301866131da565b6132b2610160830185613182565b6132c0610180830184613182565b9d9c50505050505050505050505050565b60006020820190506132e66000830184613182565b92915050565b6132f581612fb9565b82525050565b600082825260208201905092915050565b6000613317826130d0565b61332181856132fb565b93506133318185602086016130ec565b61333a81613116565b840191505092915050565b60208201600082015161335b60008501826131a0565b50505050565b60408201600082015161337760008501826131cb565b50602082015161338a60208501826131a0565b50505050565b60006101a0830160008301516133a960008601826131a0565b5060208301516133bc60208601826132ec565b50604083015184820360408601526133d4828261330c565b915050606083015184820360608601526133ee828261330c565b915050608083015161340360808601826131a0565b5060a083015161341660a08601826131cb565b5060c083015161342960c08601826131a0565b5060e083015161343c60e08601826131a0565b50610100830151613451610100860182613345565b50610120830151613466610120860182613361565b5061014083015161347b6101608601826131a0565b506101608301516134906101808601826131a0565b508091505092915050565b600060208201905081810360008301526134b58184613390565b905092915050565b600080fd5b600080fd5b7f4e487b7100000000000000000000000000000000000000000000000000000000600052604160045260246000fd5b6134ff82613116565b810181811067ffffffffffffffff8211171561351e5761351d6134c7565b5b80604052505050565b6000613531612f85565b905061353d82826134f6565b919050565b600067ffffffffffffffff82111561355d5761355c6134c7565b5b61356682613116565b9050602081019050919050565b82818337600083830152505050565b600061359561359084613542565b613527565b9050828152602081018484840111156135b1576135b06134c2565b5b6135bc848285613573565b509392505050565b600082601f8301126135d9576135d86134bd565b5b81356135e9848260208601613582565b91505092915050565b60006020828403121561360857613607612f8f565b5b600082013567ffffffffffffffff81111561362657613625612f94565b5b613632848285016135c4565b91505092915050565b60006020820190506136506000830184613191565b92915050565b600060408201905081810360008301526136708185613127565b905081810360208301526136848184613127565b90509392505050565b600067ffffffffffffffff8211156136a8576136a76134c7565b5b602082029050602081019050919050565b600080fd5b600080fd5b600080fd5b6000604082840312156136de576136dd6136be565b5b6136e86040613527565b9050600082013567ffffffffffffffff811115613708576137076136c3565b5b613714848285016135c4565b600083015250602082013567ffffffffffffffff811115613738576137376136c3565b5b613744848285016135c4565b60208301525092915050565b600061376361375e8461368d565b613527565b90508083825260208201905060208402830185811115613786576137856136b9565b5b835b818110156137cd57803567ffffffffffffffff8111156137ab576137aa6134bd565b5b8086016137b889826136c8565b85526020850194505050602081019050613788565b5050509392505050565b600082601f8301126137ec576137eb6134bd565b5b81356137fc848260208601613750565b91505092915050565b6000806000806080858703121561381f5761381e612f8f565b5b600061382d8782880161307b565b945050602085013567ffffffffffffffff81111561384e5761384d612f94565b5b61385a878288016135c4565b935050604085013567ffffffffffffffff81111561387b5761387a612f94565b5b613887878288016135c4565b925050606085013567ffffffffffffffff8111156138a8576138a7612f94565b5b6138b4878288016137d7565b91505092959194509250565b6000602082840312156138d6576138d5612f8f565b5b60006138e48482850161307b565b91505092915050565b7f4e6f7420616c6c6f7765642063616c6c65720000000000000000000000000000600082015250565b60006139236012836130db565b915061392e826138ed565b602082019050919050565b6000602082019050818103600083015261395281613916565b9050919050565b7f4e487b7100000000000000000000000000000000000000000000000000000000600052602260045260246000fd5b600060028204905060018216806139a057607f821691505b6020821081036139b3576139b2613959565b5b50919050565b7f4e487b7100000000000000000000000000000000000000000000000000000000600052601160045260246000fd5b60006139f38261305a565b91506139fe8361305a565b9250828203905081811115613a1657613a156139b9565b5b92915050565b6000606082019050613a316000830186613191565b613a3e6020830185613182565b613a4b6040830184613182565b949350505050565b7f4e487b7100000000000000000000000000000000000000000000000000000000600052602160045260246000fd5b60098110613a9357613a92613a53565b5b50565b6000819050613aa482613a82565b919050565b6000613ab482613a96565b9050919050565b613ac481613aa9565b82525050565b6000604082019050613adf6000830185613abb565b613aec6020830184613191565b9392505050565b613afc81613024565b8114613b0757600080fd5b50565b600081519050613b1981613af3565b92915050565b600060208284031215613b3557613b34612f8f565b5b6000613b4384828501613b0a565b91505092915050565b7f4f6e6c7920726567656e657261746f727320706f6f6c00000000000000000000600082015250565b6000613b826016836130db565b9150613b8d82613b4c565b602082019050919050565b60006020820190508181036000830152613bb181613b75565b9050919050565b7f4d696e696d756d20696e7370656374696f6e7300000000000000000000000000600082015250565b6000613bee6013836130db565b9150613bf982613bb8565b602082019050919050565b60006020820190508181036000830152613c1d81613be1565b9050919050565b6000613c2f8261305a565b91507fffffffffffffffffffffffffffffffffffffffffffffffffffffffffffffffff8203613c6157613c606139b9565b5b600182019050919050565b6000604082019050613c816000830185613191565b613c8e6020830184613182565b9392505050565b6000819050919050565b613ca881613c95565b8114613cb357600080fd5b50565b600081519050613cc581613c9f565b92915050565b600060208284031215613ce157613ce0612f8f565b5b6000613cef84828501613cb6565b91505092915050565b7f4f6e6c7920726567656e657261746f7273000000000000000000000000000000600082015250565b6000613d2e6011836130db565b9150613d3982613cf8565b602082019050919050565b60006020820190508181036000830152613d5d81613d21565b9050919050565b7f4d61782031303020636861726163746572730000000000000000000000000000600082015250565b6000613d9a6012836130db565b9150613da582613d64565b602082019050919050565b60006020820190508181036000830152613dc981613d8d565b9050919050565b60008190508160005260206000209050919050565b60006020601f8301049050919050565b600082821b905092915050565b600060088302613e327fffffffffffffffffffffffffffffffffffffffffffffffffffffffffffffffff82613df5565b613e3c8683613df5565b95508019841693508086168417925050509392505050565b6000819050919050565b6000613e79613e74613e6f8461305a565b613e54565b61305a565b9050919050565b6000819050919050565b613e9383613e5e565b613ea7613e9f82613e80565b848454613e02565b825550505050565b600090565b613ebc613eaf565b613ec7818484613e8a565b505050565b5b81811015613eeb57613ee0600082613eb4565b600181019050613ecd565b5050565b601f821115613f3057613f0181613dd0565b613f0a84613de5565b81016020851015613f19578190505b613f2d613f2585613de5565b830182613ecc565b50505b505050565b600082821c905092915050565b6000613f5360001984600802613f35565b1980831691505092915050565b6000613f6c8383613f42565b9150826002028217905092915050565b613f85826130d0565b67ffffffffffffffff811115613f9e57613f9d6134c7565b5b613fa88254613988565b613fb3828285613eef565b600060209050601f831160018114613fe65760008415613fd4578287015190505b613fde8582613f60565b865550614046565b601f198416613ff486613dd0565b60005b8281101561401c57848901518255600182019150602085019450602081019050613ff7565b868310156140395784890151614035601f891682613f42565b8355505b6001600288020188555050505b505050505050565b7f746f74616c496e7370656374696f6e7320696e76616c69640000000000000000600082015250565b60006140846018836130db565b915061408f8261404e565b602082019050919050565b600060208201905081810360008301526140b381614077565b9050919050565b60006140c58261305a565b9150600082036140d8576140d76139b9565b5b600182039050919050565b7f4d696e696d756d203320616e64206d6178696d756d20313020636f6f7264696e60008201527f61746520706f696e747300000000000000000000000000000000000000000000602082015250565b600061413f602a836130db565b915061414a826140e3565b604082019050919050565b6000602082019050818103600083015261416e81614132565b9050919050565b7f4d696e696d756d2035303020737175617265206d657465727300000000000000600082015250565b60006141ab6019836130db565b91506141b682614175565b602082019050919050565b600060208201905081810360008301526141da8161419e565b9050919050565b60006020820190506141f66000830184613abb565b92915050565b60008151905061420b81613064565b92915050565b60006020828403121561422757614226612f8f565b5b6000614235848285016141fc565b91505092915050565b60006142498261305a565b91506142548361305a565b925082820190508082111561426c5761426b6139b9565b5b92915050565b60006040820190506142876000830185613191565b6142946020830184613abb565b9392505050565b7f4e487b7100000000000000000000000000000000000000000000000000000000600052603260045260246000fd5b7f4f776e61626c653a206e6577206f776e657220697320746865207a65726f206160008201527f6464726573730000000000000000000000000000000000000000000000000000602082015250565b60006143266026836130db565b9150614331826142ca565b604082019050919050565b6000602082019050818103600083015261435581614319565b9050919050565b7f4f776e61626c653a2063616c6c6572206973206e6f7420746865206f776e6572600082015250565b60006143926020836130db565b915061439d8261435c565b602082019050919050565b600060208201905081810360008301526143c181614385565b905091905056fea2646970667358221220f4a4ff10aefe2de2b7067cf5ec64f0af489a9ffd6186517d5580f5d89e1f6c3764736f6c634300081b0033",
  "linkReferences": {},
  "deployedLinkReferences": {}
}