{
  "_format": "hh-sol-artifact-1",
  "contractName": "RegeneratorRules",
  "sourceName": "contracts/RegeneratorRules.sol",
  "abi": [
    {
      "inputs": [
        {
          "internalType": "address",
          "name": "communityRulesAddress",
          "type": "address"
        },
        {
          "internalType": "address",
          "name": "regeneratorPoolAddress",
          "type": "address"
        }
      ],
      "stateMutability": "nonpayable",
      "type": "constructor"
    },
    {
      "inputs": [
        {
          "internalType": "address",
          "name": "owner",
          "type": "address"
        }
      ],
      "name": "OwnableInvalidOwner",
      "type": "error"
    },
    {
      "inputs": [
        {
          "internalType": "address",
          "name": "account",
          "type": "address"
        }
      ],
      "name": "OwnableUnauthorizedAccount",
      "type": "error"
    },
    {
      "inputs": [],
      "name": "ReentrancyGuardReentrantCall",
      "type": "error"
    },
    {
      "anonymous": false,
      "inputs": [
        {
          "indexed": true,
          "internalType": "address",
          "name": "previousOwner",
          "type": "address"
        },
        {
          "indexed": true,
          "internalType": "address",
          "name": "newOwner",
          "type": "address"
        }
      ],
      "name": "OwnershipTransferred",
      "type": "event"
    },
    {
      "anonymous": false,
      "inputs": [
        {
          "indexed": true,
          "internalType": "address",
          "name": "regeneratorAddress",
          "type": "address"
        },
        {
          "indexed": false,
          "internalType": "uint256",
          "name": "blockNumber",
          "type": "uint256"
        }
      ],
      "name": "RegeneratorEnteredPool",
      "type": "event"
    },
    {
      "anonymous": false,
      "inputs": [
        {
          "indexed": true,
          "internalType": "uint256",
          "name": "id",
          "type": "uint256"
        },
        {
          "indexed": true,
          "internalType": "address",
          "name": "regeneratorAddress",
          "type": "address"
        },
        {
          "indexed": false,
          "internalType": "string",
          "name": "name",
          "type": "string"
        },
        {
          "indexed": false,
          "internalType": "uint32",
          "name": "totalArea",
          "type": "uint32"
        },
        {
          "indexed": false,
          "internalType": "uint256",
          "name": "blockNumber",
          "type": "uint256"
        }
      ],
      "name": "RegeneratorRegistered",
      "type": "event"
    },
    {
      "anonymous": false,
      "inputs": [
        {
          "indexed": true,
          "internalType": "address",
          "name": "regeneratorAddress",
          "type": "address"
        },
        {
          "indexed": true,
          "internalType": "uint256",
          "name": "era",
          "type": "uint256"
        },
        {
          "indexed": false,
          "internalType": "uint256",
          "name": "blockNumber",
          "type": "uint256"
        }
      ],
      "name": "RegeneratorWithdrawalInitiated",
      "type": "event"
    },
    {
      "inputs": [],
      "name": "MAX_REGENERATION_AREA",
      "outputs": [
        {
          "internalType": "uint32",
          "name": "",
          "type": "uint32"
        }
      ],
      "stateMutability": "view",
      "type": "function"
    },
    {
      "inputs": [],
      "name": "MINIMUM_INSPECTIONS_TO_POOL",
      "outputs": [
        {
          "internalType": "uint8",
          "name": "",
          "type": "uint8"
        }
      ],
      "stateMutability": "view",
      "type": "function"
    },
    {
      "inputs": [],
      "name": "MIN_REGENERATION_AREA",
      "outputs": [
        {
          "internalType": "uint32",
          "name": "",
          "type": "uint32"
        }
      ],
      "stateMutability": "view",
      "type": "function"
    },
    {
      "inputs": [
        {
          "internalType": "uint32",
          "name": "totalArea",
          "type": "uint32"
        },
        {
          "internalType": "string",
          "name": "name",
          "type": "string"
        },
        {
          "internalType": "string",
          "name": "proofPhoto",
          "type": "string"
        },
        {
          "internalType": "string",
          "name": "projectDescription",
          "type": "string"
        },
        {
          "components": [
            {
              "internalType": "string",
              "name": "latitude",
              "type": "string"
            },
            {
              "internalType": "string",
              "name": "longitude",
              "type": "string"
            }
          ],
          "internalType": "struct Coordinates[]",
          "name": "_coordinates",
          "type": "tuple[]"
        }
      ],
      "name": "addRegenerator",
      "outputs": [],
      "stateMutability": "nonpayable",
      "type": "function"
    },
    {
      "inputs": [
        {
          "internalType": "address",
          "name": "addr",
          "type": "address"
        }
      ],
      "name": "afterAcceptInspection",
      "outputs": [],
      "stateMutability": "nonpayable",
      "type": "function"
    },
    {
      "inputs": [
        {
          "internalType": "address",
          "name": "addr",
          "type": "address"
        },
        {
          "internalType": "uint32",
          "name": "score",
          "type": "uint32"
        },
        {
          "internalType": "uint64",
          "name": "inspectionId",
          "type": "uint64"
        }
      ],
      "name": "afterRealizeInspection",
      "outputs": [
        {
          "internalType": "uint256",
          "name": "",
          "type": "uint256"
        }
      ],
      "stateMutability": "nonpayable",
      "type": "function"
    },
    {
      "inputs": [
        {
          "internalType": "address",
          "name": "addr",
          "type": "address"
        }
      ],
      "name": "afterRequestInspection",
      "outputs": [],
      "stateMutability": "nonpayable",
      "type": "function"
    },
    {
      "inputs": [
        {
          "internalType": "address",
          "name": "",
          "type": "address"
        }
      ],
      "name": "allowedCallers",
      "outputs": [
        {
          "internalType": "bool",
          "name": "",
          "type": "bool"
        }
      ],
      "stateMutability": "view",
      "type": "function"
    },
    {
      "inputs": [
        {
          "internalType": "address",
          "name": "",
          "type": "address"
        }
      ],
      "name": "areaPhoto",
      "outputs": [
        {
          "internalType": "string",
          "name": "",
          "type": "string"
        }
      ],
      "stateMutability": "view",
      "type": "function"
    },
    {
      "inputs": [
        {
          "internalType": "address",
          "name": "",
          "type": "address"
        },
        {
          "internalType": "uint256",
          "name": "",
          "type": "uint256"
        }
      ],
      "name": "coordinates",
      "outputs": [
        {
          "internalType": "string",
          "name": "latitude",
          "type": "string"
        },
        {
          "internalType": "string",
          "name": "longitude",
          "type": "string"
        }
      ],
      "stateMutability": "view",
      "type": "function"
    },
    {
      "inputs": [
        {
          "internalType": "address",
          "name": "addr",
          "type": "address"
        }
      ],
      "name": "decrementInspections",
      "outputs": [],
      "stateMutability": "nonpayable",
      "type": "function"
    },
    {
      "inputs": [
        {
          "internalType": "address",
          "name": "addr",
          "type": "address"
        }
      ],
      "name": "getCoordinates",
      "outputs": [
        {
          "components": [
            {
              "internalType": "string",
              "name": "latitude",
              "type": "string"
            },
            {
              "internalType": "string",
              "name": "longitude",
              "type": "string"
            }
          ],
          "internalType": "struct Coordinates[]",
          "name": "",
          "type": "tuple[]"
        }
      ],
      "stateMutability": "view",
      "type": "function"
    },
    {
      "inputs": [
        {
          "internalType": "address",
          "name": "addr",
          "type": "address"
        }
      ],
      "name": "getRegenerator",
      "outputs": [
        {
          "components": [
            {
              "internalType": "uint64",
              "name": "id",
              "type": "uint64"
            },
            {
              "internalType": "address",
              "name": "regeneratorWallet",
              "type": "address"
            },
            {
              "internalType": "string",
              "name": "name",
              "type": "string"
            },
            {
              "internalType": "string",
              "name": "proofPhoto",
              "type": "string"
            },
            {
              "internalType": "uint32",
              "name": "totalArea",
              "type": "uint32"
            },
            {
              "internalType": "bool",
              "name": "pendingInspection",
              "type": "bool"
            },
            {
              "internalType": "uint256",
              "name": "totalInspections",
              "type": "uint256"
            },
            {
              "internalType": "uint256",
              "name": "lastRequestAt",
              "type": "uint256"
            },
            {
              "components": [
                {
                  "internalType": "uint256",
                  "name": "score",
                  "type": "uint256"
                }
              ],
              "internalType": "struct RegenerationScore",
              "name": "regenerationScore",
              "type": "tuple"
            },
            {
              "components": [
                {
                  "internalType": "bool",
                  "name": "onContractPool",
                  "type": "bool"
                },
                {
                  "internalType": "uint256",
                  "name": "currentEra",
                  "type": "uint256"
                }
              ],
              "internalType": "struct Pool",
              "name": "pool",
              "type": "tuple"
            },
            {
              "internalType": "uint256",
              "name": "createdAt",
              "type": "uint256"
            },
            {
              "internalType": "uint256",
              "name": "coordinatesCount",
              "type": "uint256"
            },
            {
              "internalType": "bool",
              "name": "isFullyInvalidated",
              "type": "bool"
            }
          ],
          "internalType": "struct Regenerator",
          "name": "regenerator",
          "type": "tuple"
        }
      ],
      "stateMutability": "view",
      "type": "function"
    },
    {
      "inputs": [
        {
          "internalType": "address",
          "name": "",
          "type": "address"
        }
      ],
      "name": "impactRegenerators",
      "outputs": [
        {
          "internalType": "bool",
          "name": "",
          "type": "bool"
        }
      ],
      "stateMutability": "view",
      "type": "function"
    },
    {
      "inputs": [
        {
          "internalType": "address",
          "name": "caller",
          "type": "address"
        }
      ],
      "name": "isAllowedCaller",
      "outputs": [
        {
          "internalType": "bool",
          "name": "",
          "type": "bool"
        }
      ],
      "stateMutability": "view",
      "type": "function"
    },
    {
      "inputs": [
        {
          "internalType": "address",
          "name": "allowed",
          "type": "address"
        }
      ],
      "name": "newAllowedCaller",
      "outputs": [],
      "stateMutability": "nonpayable",
      "type": "function"
    },
    {
      "inputs": [],
      "name": "nextEraIn",
      "outputs": [
        {
          "internalType": "uint256",
          "name": "",
          "type": "uint256"
        }
      ],
      "stateMutability": "view",
      "type": "function"
    },
    {
      "inputs": [],
      "name": "owner",
      "outputs": [
        {
          "internalType": "address",
          "name": "",
          "type": "address"
        }
      ],
      "stateMutability": "view",
      "type": "function"
    },
    {
      "inputs": [],
      "name": "poolCurrentEra",
      "outputs": [
        {
          "internalType": "uint256",
          "name": "",
          "type": "uint256"
        }
      ],
      "stateMutability": "view",
      "type": "function"
    },
    {
      "inputs": [
        {
          "internalType": "address",
          "name": "",
          "type": "address"
        }
      ],
      "name": "projectDescriptions",
      "outputs": [
        {
          "internalType": "string",
          "name": "",
          "type": "string"
        }
      ],
      "stateMutability": "view",
      "type": "function"
    },
    {
      "inputs": [],
      "name": "regenerationArea",
      "outputs": [
        {
          "internalType": "uint256",
          "name": "",
          "type": "uint256"
        }
      ],
      "stateMutability": "view",
      "type": "function"
    },
    {
      "inputs": [],
      "name": "regenerationTotalArea",
      "outputs": [
        {
          "internalType": "uint256",
          "name": "",
          "type": "uint256"
        }
      ],
      "stateMutability": "view",
      "type": "function"
    },
    {
      "inputs": [
        {
          "internalType": "uint256",
          "name": "",
          "type": "uint256"
        }
      ],
      "name": "regeneratorsAddress",
      "outputs": [
        {
          "internalType": "address",
          "name": "",
          "type": "address"
        }
      ],
      "stateMutability": "view",
      "type": "function"
    },
    {
      "inputs": [
        {
          "internalType": "address",
          "name": "addr",
          "type": "address"
        },
        {
          "internalType": "uint256",
          "name": "levelsToRemove",
          "type": "uint256"
        }
      ],
      "name": "removePoolLevels",
      "outputs": [],
      "stateMutability": "nonpayable",
      "type": "function"
    },
    {
      "inputs": [],
      "name": "renounceOwnership",
      "outputs": [],
      "stateMutability": "nonpayable",
      "type": "function"
    },
    {
      "inputs": [
        {
          "internalType": "address",
          "name": "_inspectionRulesAddress",
          "type": "address"
        },
        {
          "internalType": "address",
          "name": "_validationRulesAddress",
          "type": "address"
        }
      ],
      "name": "setContractCall",
      "outputs": [],
      "stateMutability": "nonpayable",
      "type": "function"
    },
    {
      "inputs": [],
      "name": "totalImpactRegenerators",
      "outputs": [
        {
          "internalType": "uint256",
          "name": "",
          "type": "uint256"
        }
      ],
      "stateMutability": "view",
      "type": "function"
    },
    {
      "inputs": [
        {
          "internalType": "address",
          "name": "newOwner",
          "type": "address"
        }
      ],
      "name": "transferOwnership",
      "outputs": [],
      "stateMutability": "nonpayable",
      "type": "function"
    },
    {
      "inputs": [
        {
          "internalType": "string",
          "name": "newPhoto",
          "type": "string"
        }
      ],
      "name": "updateAreaPhoto",
      "outputs": [],
      "stateMutability": "nonpayable",
      "type": "function"
    },
    {
      "inputs": [],
      "name": "withdraw",
      "outputs": [],
      "stateMutability": "nonpayable",
      "type": "function"
    }
  ],
  "bytecode": "0x608060405234801561001057600080fd5b50604051612b2a380380612b2a83398101604081905261002f91610101565b338061005557604051631e4fbdf760e01b81526000600482015260240160405180910390fd5b61005e81610095565b506001600255600a80546001600160a01b039384166001600160a01b031991821617909155600b8054929093169116179055610134565b600080546001600160a01b038381166001600160a01b0319831681178455604051919092169283917f8be0079c531659141344cd1fd0a4f28419497f9722a3daafe3b4186f6b6457e09190a35050565b80516001600160a01b03811681146100fc57600080fd5b919050565b6000806040838503121561011457600080fd5b61011d836100e5565b915061012b602084016100e5565b90509250929050565b6129e7806101436000396000f3fe608060405234801561001057600080fd5b50600436106101da5760003560e01c80638ca6bee811610104578063a77963f0116100a2578063c85a58ff11610071578063c85a58ff1461042d578063e05cf1551461044e578063e57637f014610456578063f2fde38b1461047f57600080fd5b8063a77963f0146103da578063aa8d536a146103f4578063b9a68b2b14610407578063c3c983d21461041a57600080fd5b80638f93716f116100de5780638f93716f1461037f57806394c3cee914610392578063a6801258146103a5578063a6bae8b0146103d157600080fd5b80638ca6bee8146103305780638da5cb5b1461033a5780638ee394721461035f57600080fd5b806345e0e89a1161017c578063715018a61161014b578063715018a6146102bf57806377811610146102c75780637b334154146102da57806385b5ee9b1461030d57600080fd5b806345e0e89a14610271578063582256f11461027957806365ab21b0146102815780636ea7a2e9146102a157600080fd5b80631e2d3176116101b85780631e2d31761461021a578063257b4e7c146102405780633ccfd60b14610260578063442f96251461026857600080fd5b806304521ca3146101df57806318ad5c9a146101f45780631db6420414610207575b600080fd5b6101f26101ed36600461205e565b610492565b005b6101f2610202366004612091565b6104c8565b6101f26102153660046120bb565b6106aa565b61022d610228366004612106565b610713565b6040519081526020015b60405180910390f35b61025361024e3660046120bb565b61087d565b6040516102379190612193565b6101f2610917565b61022d600d5481565b600d5461022d565b61022d610af7565b61029461028f3660046120bb565b610b77565b60405161023791906121a6565b6102aa6101f481565b60405163ffffffff9091168152602001610237565b6101f2610d90565b6101f26102d536600461238e565b610da2565b6102fd6102e83660046120bb565b60016020526000908152604090205460ff1681565b6040519015158152602001610237565b6102fd61031b3660046120bb565b60076020526000908152604090205460ff1681565b6102aa6207a12081565b6000546001600160a01b03165b6040516001600160a01b039091168152602001610237565b61037261036d3660046120bb565b610eb2565b60405161023791906123ca565b6101f261038d3660046120bb565b6112d3565b6101f26103a03660046120bb565b611302565b6102fd6103b33660046120bb565b6001600160a01b031660009081526001602052604090205460ff1690565b61022d600c5481565b6103e2600381565b60405160ff9091168152602001610237565b6102536104023660046120bb565b61138b565b6101f2610415366004612456565b6113a4565b6101f26104283660046120bb565b611951565b61044061043b366004612091565b611a83565b604051610237929190612624565b61022d611bd4565b610347610464366004612652565b6004602052600090815260409020546001600160a01b031681565b6101f261048d3660046120bb565b611c1e565b61049a611c5c565b600e80546001600160a01b039384166001600160a01b031991821617909155600f8054929093169116179055565b3360009081526001602052604090205460ff166105005760405162461bcd60e51b81526004016104f79061266b565b60405180910390fd5b600f546001600160a01b031633811461052b5760405162461bcd60e51b81526004016104f790612697565b610533611c89565b6001600160a01b0383166000908152600360205260408120908390036105ef57600b81015460ff16156105b65760405162461bcd60e51b815260206004820152602560248201527f526567656e657261746f7220616c72656164792066756c6c7920696e76616c6960448201526419185d195960da1b60648201526084016104f7565b600b8101805460ff191660011790556001600160a01b0384166000908152600360205260408120600601556105ea84611cb1565b610634565b600681015483111561060357600681015492505b6001600160a01b0384166000908152600360205260408120600601805485929061062e9084906126e4565b90915550505b600b54604051630c56ae4d60e11b81526001600160a01b03868116600483015260248201869052909116906318ad5c9a90604401600060405180830381600087803b15801561068257600080fd5b505af1158015610696573d6000803e3d6000fd5b50505050506106a56001600255565b505050565b3360009081526001602052604090205460ff166106d95760405162461bcd60e51b81526004016104f79061266b565b600e546001600160a01b03163381146107045760405162461bcd60e51b81526004016104f790612697565b61070f826000611cef565b5050565b3360009081526001602052604081205460ff166107425760405162461bcd60e51b81526004016104f79061266b565b600e546001600160a01b031633811461076d5760405162461bcd60e51b81526004016104f790612697565b610775611c89565b604063ffffffff851611156107bc5760405162461bcd60e51b815260206004820152600d60248201526c4d6178696d756d2073636f726560981b60448201526064016104f7565b6001600160401b03831660009081526009602052604090205460ff16156108315760405162461bcd60e51b8152602060048201526024808201527f496e7370656374696f6e20726573756c747320616c7265616479207375626d696044820152631d1d195960e21b60648201526084016104f7565b6001600160401b0383166000908152600960205260408120805460ff1916600117905561085d86611d2a565b90506108698686611db9565b91506108756001600255565b509392505050565b60086020526000908152604090208054610896906126fd565b80601f01602080910402602001604051908101604052809291908181526020018280546108c2906126fd565b801561090f5780601f106108e45761010080835404028352916020019161090f565b820191906000526020600020905b8154815290600101906020018083116108f257829003601f168201915b505050505081565b61091f611c89565b600a54604051631292f8c160e31b81526001600160a01b0390911690639497c60890610952906001903390600401612759565b602060405180830381865afa15801561096f573d6000803e3d6000fd5b505050506040513d601f19601f82011682018060405250810190610993919061277f565b6109d85760405162461bcd60e51b815260206004820152601660248201527513db9b1e481c9959d95b995c985d1bdc9cc81c1bdbdb60521b60448201526064016104f7565b33600090815260036020526040902060048101546109f7906003111590565b610a395760405162461bcd60e51b81526020600482015260136024820152724d696e696d756d20696e7370656374696f6e7360681b60448201526064016104f7565b6008810154610a498160016127a1565b6008830155600b5460405163f3fef3a360e01b8152336004820152602481018390526001600160a01b039091169063f3fef3a390604401600060405180830381600087803b158015610a9a57600080fd5b505af1158015610aae573d6000803e3d6000fd5b50506040514381528392503391507f81f7cfdaaebb3eb89eee117bbfcd1e956d1c8bfa759f5eda2ba6f63551a4db209060200160405180910390a35050610af56001600255565b565b600b546000906001600160a01b031663d5ee3eb5610b13611bd4565b6040518263ffffffff1660e01b8152600401610b3191815260200190565b602060405180830381865afa158015610b4e573d6000803e3d6000fd5b505050506040513d601f19601f82011682018060405250810190610b7291906127b4565b905090565b610b7f611f8d565b6001600160a01b0380831660009081526003602090815260409182902082516101a08101845281546001600160401b0381168252600160401b9004909416918401919091526001810180549192840191610bd8906126fd565b80601f0160208091040260200160405190810160405280929190818152602001828054610c04906126fd565b8015610c515780601f10610c2657610100808354040283529160200191610c51565b820191906000526020600020905b815481529060010190602001808311610c3457829003601f168201915b50505050508152602001600282018054610c6a906126fd565b80601f0160208091040260200160405190810160405280929190818152602001828054610c96906126fd565b8015610ce35780601f10610cb857610100808354040283529160200191610ce3565b820191906000526020600020905b815481529060010190602001808311610cc657829003601f168201915b5050509183525050600382015463ffffffff811660208084019190915260ff640100000000909204821615156040808501919091526004850154606085015260058501546080850152805180830182526006860154815260a08501528051808201909152600785015483161515815260088501549181019190915260c0830152600983015460e0830152600a830154610100830152600b9092015490911615156101209091015292915050565b610d98611c5c565b610af56000611f3d565b805160961015610de55760405162461bcd60e51b815260206004820152600e60248201526d4d6178206368617261637465727360901b60448201526064016104f7565b600a54604051631292f8c160e31b81526001600160a01b0390911690639497c60890610e18906001903390600401612759565b602060405180830381865afa158015610e35573d6000803e3d6000fd5b505050506040513d601f19601f82011682018060405250810190610e59919061277f565b610e995760405162461bcd60e51b81526020600482015260116024820152704f6e6c7920726567656e657261746f727360781b60448201526064016104f7565b33600090815260086020526040902061070f828261281b565b6001600160a01b03808216600090815260036020908152604080832081516101a08101835281546001600160401b0381168252600160401b900490951692850192909252600182018054606095939284019190610f0e906126fd565b80601f0160208091040260200160405190810160405280929190818152602001828054610f3a906126fd565b8015610f875780601f10610f5c57610100808354040283529160200191610f87565b820191906000526020600020905b815481529060010190602001808311610f6a57829003601f168201915b50505050508152602001600282018054610fa0906126fd565b80601f0160208091040260200160405190810160405280929190818152602001828054610fcc906126fd565b80156110195780601f10610fee57610100808354040283529160200191611019565b820191906000526020600020905b815481529060010190602001808311610ffc57829003601f168201915b5050509183525050600382015463ffffffff811660208084019190915260ff640100000000909204821615156040808501919091526004850154606085015260058501546080850152805180830182526006860154815260a08501528051808201909152600785015483161515815260088501549181019190915260c0830152600983015460e0830152600a830154610100830152600b909201549091161515610120909101526101608101519091506000906001600160401b038111156110e3576110e36122b1565b60405190808252806020026020018201604052801561112857816020015b60408051808201909152606080825260208201528152602001906001900390816111015790505b5061016083015190915060005b818110156112c9576001600160a01b0386166000908152600560205260409020805482908110611167576111676128d9565b9060005260206000209060020201604051806040016040529081600082018054611190906126fd565b80601f01602080910402602001604051908101604052809291908181526020018280546111bc906126fd565b80156112095780601f106111de57610100808354040283529160200191611209565b820191906000526020600020905b8154815290600101906020018083116111ec57829003601f168201915b50505050508152602001600182018054611222906126fd565b80601f016020809104026020016040519081016040528092919081815260200182805461124e906126fd565b801561129b5780601f106112705761010080835404028352916020019161129b565b820191906000526020600020905b81548152906001019060200180831161127e57829003601f168201915b5050505050815250508382815181106112b6576112b66128d9565b6020908102919091010152600101611135565b5090949350505050565b6112db611c5c565b6001600160a01b03166000908152600160208190526040909120805460ff19169091179055565b3360009081526001602052604090205460ff166113315760405162461bcd60e51b81526004016104f79061266b565b600e546001600160a01b031633811461135c5760405162461bcd60e51b81526004016104f790612697565b611367826001611cef565b61070f82436001600160a01b03909116600090815260036020526040902060050155565b60066020526000908152604090208054610896906126fd565b83516032108015906113b857508251609610155b80156113c65750815160c810155b61140b5760405162461bcd60e51b815260206004820152601660248201527513585e0818da185c9858dd195c9cc81c995858da195960521b60448201526064016104f7565b805160031180159061141f57508051600a10155b61147e5760405162461bcd60e51b815260206004820152602a60248201527f4d696e696d756d203320616e64206d6178696d756d20313020636f6f7264696e60448201526961746520706f696e747360b01b60648201526084016104f7565b6101f463ffffffff86161080159061149f57506207a12063ffffffff861611155b6115015760405162461bcd60e51b815260206004820152602d60248201527f4d696e696d756d2035303020616e64206d6178696d756d203530302e3030302060448201526c737175617265206d657465727360981b60648201526084016104f7565b600a5460405162f5960960e51b81526000916001600160a01b031690631eb2c12090611532906001906004016128ef565b602060405180830381865afa15801561154f573d6000803e3d6000fd5b505050506040513d601f19601f8201168201806040525081019061157391906128fd565b61157e90600161291a565b9050604051806101a00160405280826001600160401b03168152602001336001600160a01b031681526020018681526020018581526020018763ffffffff16815260200160001515815260200160008152602001600081526020016040518060200160405280600081525081526020016040518060400160405280600015158152602001600b60009054906101000a90046001600160a01b03166001600160a01b031663ed0df79e6040518163ffffffff1660e01b8152600401602060405180830381865afa158015611655573d6000803e3d6000fd5b505050506040513d601f19601f8201168201806040525081019061167991906127b4565b9052815243602080830191909152845160408084019190915260006060909301839052338352600382529182902083518154928501516001600160a01b0316600160401b026001600160e01b03199093166001600160401b03909116179190911781559082015160018201906116ef908261281b565b5060608201516002820190611704908261281b565b50608082015160038201805460a085015115156401000000000264ffffffffff1990911663ffffffff9093169290921791909117905560c082015160048083019190915560e0830151600583015561010083015151600680840191909155610120840151805160078501805491151560ff1992831617905560209182015160088601556101408601516009860155610160860151600a86015561018090950151600b909401805494151594909516939093179093556001600160401b0384166000908152908252604080822080546001600160a01b03191633908117909155825292909152206117f4848261281b565b50600a54604051639c3eead960e01b81526001600160a01b0390911690639c3eead990611828903390600190600401612939565b600060405180830381600087803b15801561184257600080fd5b505af1158015611856573d6000803e3d6000fd5b505050508563ffffffff16600d600082825461187291906127a1565b90915550600090505b82518110156118f95733600090815260056020526040902083518490839081106118a7576118a76128d9565b602090810291909101810151825460018101845560009384529190922082516002909202019081906118d9908261281b565b50602082015160018201906118ee908261281b565b50505060010161187b565b50336001600160a01b0316816001600160401b03167fe7929ab3a316468d25671f32aa731ca41460f5459029b8ed818d4d32152c7f0087894360405161194193929190612956565b60405180910390a3505050505050565b3360009081526001602052604090205460ff166119805760405162461bcd60e51b81526004016104f79061266b565b600e546001600160a01b03163381146119ab5760405162461bcd60e51b81526004016104f790612697565b6001600160a01b03821660009081526003602052604090206004015480611a145760405162461bcd60e51b815260206004820152601860248201527f746f74616c496e7370656374696f6e7320696e76616c6964000000000000000060448201526064016104f7565b80600103611a5257600c8054906000611a2c83612981565b90915550506001600160a01b0383166000908152600760205260409020805460ff191690555b6001600160a01b0383166000908152600360205260408120600401805491611a7983612981565b9190505550505050565b60056020528160005260406000208181548110611a9f57600080fd5b906000526020600020906002020160009150915050806000018054611ac3906126fd565b80601f0160208091040260200160405190810160405280929190818152602001828054611aef906126fd565b8015611b3c5780601f10611b1157610100808354040283529160200191611b3c565b820191906000526020600020905b815481529060010190602001808311611b1f57829003601f168201915b505050505090806001018054611b51906126fd565b80601f0160208091040260200160405190810160405280929190818152602001828054611b7d906126fd565b8015611bca5780601f10611b9f57610100808354040283529160200191611bca565b820191906000526020600020905b815481529060010190602001808311611bad57829003601f168201915b5050505050905082565b600b5460408051637686fbcf60e11b815290516000926001600160a01b03169163ed0df79e9160048083019260209291908290030181865afa158015610b4e573d6000803e3d6000fd5b611c26611c5c565b6001600160a01b038116611c5057604051631e4fbdf760e01b8152600060048201526024016104f7565b611c5981611f3d565b50565b6000546001600160a01b03163314610af55760405163118cdaa760e01b81523360048201526024016104f7565b6002805403611cab57604051633ee5aeb560e01b815260040160405180910390fd5b60028055565b6001600160a01b038116600090815260036020819052604082200154600d805463ffffffff909216929091611ce79084906126e4565b909155505050565b6001600160a01b0390911660009081526003602081905260409091200180549115156401000000000264ff0000000019909216919091179055565b6001600160a01b03811660009081526003602052604081206004810180549083611d5383612998565b90915550506001600160a01b03831660009081526007602052604090205460ff16611daf576001600160a01b0383166000908152600760205260408120805460ff19166001179055600c805491611da983612998565b91905055505b6004015492915050565b6001600160a01b0382166000908152600360205260408120805490916001600160401b039091169003611e2e5760405162461bcd60e51b815260206004820152601a60248201527f526567656e657261746f7220646f6573206e6f7420657869737400000000000060448201526064016104f7565b8163ffffffff16816006016000016000828254611e4b91906127a1565b9091555050600481015460031115611e6257505050565b600781015463ffffffff83169060ff16611ed1575060078101805460ff1916600117905560068101546040516001600160a01b038516907fdf477f1abb30c779b76ead783acd2084230ef08ba1570ce9dee934c0c5b93b9d90611ec89043815260200190565b60405180910390a25b600b546040516352b8d3ed60e01b81526001600160a01b03868116600483015260248201849052909116906352b8d3ed90604401600060405180830381600087803b158015611f1f57600080fd5b505af1158015611f33573d6000803e3d6000fd5b5050505050505050565b600080546001600160a01b038381166001600160a01b0319831681178455604051919092169283917f8be0079c531659141344cd1fd0a4f28419497f9722a3daafe3b4186f6b6457e09190a35050565b604051806101a0016040528060006001600160401b0316815260200160006001600160a01b031681526020016060815260200160608152602001600063ffffffff16815260200160001515815260200160008152602001600081526020016120016040518060200160405280600081525090565b81526020016120256040518060400160405280600015158152602001600081525090565b815260200160008152602001600081526020016000151581525090565b80356001600160a01b038116811461205957600080fd5b919050565b6000806040838503121561207157600080fd5b61207a83612042565b915061208860208401612042565b90509250929050565b600080604083850312156120a457600080fd5b6120ad83612042565b946020939093013593505050565b6000602082840312156120cd57600080fd5b6120d682612042565b9392505050565b803563ffffffff8116811461205957600080fd5b6001600160401b0381168114611c5957600080fd5b60008060006060848603121561211b57600080fd5b61212484612042565b9250612132602085016120dd565b91506040840135612142816120f1565b809150509250925092565b6000815180845260005b8181101561217357602081850181015186830182015201612157565b506000602082860101526020601f19601f83011685010191505092915050565b6020815260006120d6602083018461214d565b602081526121c06020820183516001600160401b03169052565b600060208301516121dc60408401826001600160a01b03169052565b5060408301516101c060608401526121f86101e084018261214d565b90506060840151601f19848303016080850152612215828261214d565b915050608084015161222f60a085018263ffffffff169052565b5060a084015180151560c08501525060c084015160e084015260e0840151610100840152610100840151612267610120850182519052565b50610120840151805115156101408501526020810151610160850152506101408401516101808401526101608401516101a08401526101808401516108756101c085018215159052565b634e487b7160e01b600052604160045260246000fd5b604080519081016001600160401b03811182821017156122e9576122e96122b1565b60405290565b604051601f8201601f191681016001600160401b0381118282101715612317576123176122b1565b604052919050565b600082601f83011261233057600080fd5b81356001600160401b03811115612349576123496122b1565b61235c601f8201601f19166020016122ef565b81815284602083860101111561237157600080fd5b816020850160208301376000918101602001919091529392505050565b6000602082840312156123a057600080fd5b81356001600160401b038111156123b657600080fd5b6123c28482850161231f565b949350505050565b6000602082016020835280845180835260408501915060408160051b86010192506020860160005b8281101561244a57603f198786030184528151805160408752612418604088018261214d565b9050602082015191508681036020880152612433818361214d565b9650505060209384019391909101906001016123f2565b50929695505050505050565b600080600080600060a0868803121561246e57600080fd5b612477866120dd565b945060208601356001600160401b0381111561249257600080fd5b61249e8882890161231f565b94505060408601356001600160401b038111156124ba57600080fd5b6124c68882890161231f565b93505060608601356001600160401b038111156124e257600080fd5b6124ee8882890161231f565b92505060808601356001600160401b0381111561250a57600080fd5b8601601f8101881361251b57600080fd5b80356001600160401b03811115612534576125346122b1565b8060051b612544602082016122ef565b9182526020818401810192908101908b84111561256057600080fd5b6020850192505b838310156126125782356001600160401b0381111561258557600080fd5b85016040818e03601f1901121561259b57600080fd5b6125a36122c7565b60208201356001600160401b038111156125bc57600080fd5b6125cb8f60208386010161231f565b82525060408201356001600160401b038111156125e757600080fd5b6125f68f60208386010161231f565b6020830152508084525050602082019150602083019250612567565b80955050505050509295509295909350565b604081526000612637604083018561214d565b8281036020840152612649818561214d565b95945050505050565b60006020828403121561266457600080fd5b5035919050565b6020808252601290820152712737ba1030b63637bbb2b21031b0b63632b960711b604082015260600190565b6020808252601e908201527f43616c6c6572206d7573742062652073797374656d20636f6e74726163740000604082015260600190565b634e487b7160e01b600052601160045260246000fd5b818103818111156126f7576126f76126ce565b92915050565b600181811c9082168061271157607f821691505b60208210810361273157634e487b7160e01b600052602260045260246000fd5b50919050565b6009811061275557634e487b7160e01b600052602160045260246000fd5b9052565b604081016127678285612737565b6001600160a01b039290921660209190910152919050565b60006020828403121561279157600080fd5b815180151581146120d657600080fd5b808201808211156126f7576126f76126ce565b6000602082840312156127c657600080fd5b5051919050565b601f8211156106a557806000526020600020601f840160051c810160208510156127f45750805b601f840160051c820191505b818110156128145760008155600101612800565b5050505050565b81516001600160401b03811115612834576128346122b1565b6128488161284284546126fd565b846127cd565b6020601f82116001811461287c57600083156128645750848201515b600019600385901b1c1916600184901b178455612814565b600084815260208120601f198516915b828110156128ac578785015182556020948501946001909201910161288c565b50848210156128ca5786840151600019600387901b60f8161c191681555b50505050600190811b01905550565b634e487b7160e01b600052603260045260246000fd5b602081016126f78284612737565b60006020828403121561290f57600080fd5b81516120d6816120f1565b6001600160401b0381811683821601908111156126f7576126f76126ce565b6001600160a01b0383168152604081016120d66020830184612737565b606081526000612969606083018661214d565b63ffffffff9490941660208301525060400152919050565b600081612990576129906126ce565b506000190190565b6000600182016129aa576129aa6126ce565b506001019056fea2646970667358221220c8e5237eed2fe493276a2a941efdaa3ec7001f1ace924456d2c5d06dc92a813364736f6c634300081b0033",
  "linkReferences": {},
  "deployedLinkReferences": {}
}