{
  "_format": "hh-sol-artifact-1",
  "contractName": "RegenerationIndexRules",
  "sourceName": "contracts/RegenerationIndexRules.sol",
  "abi": [
    {
      "inputs": [],
      "stateMutability": "nonpayable",
      "type": "constructor"
    },
    {
      "anonymous": false,
      "inputs": [
        {
          "indexed": true,
          "internalType": "address",
          "name": "previousOwner",
          "type": "address"
        },
        {
          "indexed": true,
          "internalType": "address",
          "name": "newOwner",
          "type": "address"
        }
      ],
      "name": "OwnershipTransferred",
      "type": "event"
    },
    {
      "inputs": [
        {
          "internalType": "address",
          "name": "",
          "type": "address"
        }
      ],
      "name": "allowedCallers",
      "outputs": [
        {
          "internalType": "bool",
          "name": "",
          "type": "bool"
        }
      ],
      "stateMutability": "view",
      "type": "function"
    },
    {
      "inputs": [
        {
          "internalType": "uint256",
          "name": "treesResult",
          "type": "uint256"
        },
        {
          "internalType": "uint256",
          "name": "biodiversityResult",
          "type": "uint256"
        }
      ],
      "name": "calculateScore",
      "outputs": [
        {
          "internalType": "uint256",
          "name": "",
          "type": "uint256"
        }
      ],
      "stateMutability": "view",
      "type": "function"
    },
    {
      "inputs": [
        {
          "internalType": "uint256",
          "name": "",
          "type": "uint256"
        }
      ],
      "name": "categories",
      "outputs": [
        {
          "internalType": "uint256",
          "name": "id",
          "type": "uint256"
        },
        {
          "internalType": "string",
          "name": "name",
          "type": "string"
        },
        {
          "internalType": "string",
          "name": "description",
          "type": "string"
        }
      ],
      "stateMutability": "view",
      "type": "function"
    },
    {
      "inputs": [],
      "name": "categoryCounts",
      "outputs": [
        {
          "internalType": "uint256",
          "name": "",
          "type": "uint256"
        }
      ],
      "stateMutability": "view",
      "type": "function"
    },
    {
      "inputs": [
        {
          "internalType": "uint256",
          "name": "",
          "type": "uint256"
        },
        {
          "internalType": "uint256",
          "name": "",
          "type": "uint256"
        }
      ],
      "name": "categoryRegenerationIndexDescriptions",
      "outputs": [
        {
          "internalType": "uint256",
          "name": "regenerationIndexId",
          "type": "uint256"
        },
        {
          "internalType": "string",
          "name": "description",
          "type": "string"
        }
      ],
      "stateMutability": "view",
      "type": "function"
    },
    {
      "inputs": [
        {
          "internalType": "uint256",
          "name": "categoryId",
          "type": "uint256"
        }
      ],
      "name": "getCategoryRegenerationIndexDescription",
      "outputs": [
        {
          "components": [
            {
              "internalType": "uint256",
              "name": "regenerationIndexId",
              "type": "uint256"
            },
            {
              "internalType": "string",
              "name": "description",
              "type": "string"
            }
          ],
          "internalType": "struct RegenerationIndexDescription[]",
          "name": "",
          "type": "tuple[]"
        }
      ],
      "stateMutability": "view",
      "type": "function"
    },
    {
      "inputs": [
        {
          "internalType": "address",
          "name": "caller",
          "type": "address"
        }
      ],
      "name": "isAllowedCaller",
      "outputs": [
        {
          "internalType": "bool",
          "name": "",
          "type": "bool"
        }
      ],
      "stateMutability": "view",
      "type": "function"
    },
    {
      "inputs": [
        {
          "internalType": "address",
          "name": "allowed",
          "type": "address"
        }
      ],
      "name": "newAllowedCaller",
      "outputs": [],
      "stateMutability": "nonpayable",
      "type": "function"
    },
    {
      "inputs": [],
      "name": "owner",
      "outputs": [
        {
          "internalType": "address",
          "name": "",
          "type": "address"
        }
      ],
      "stateMutability": "view",
      "type": "function"
    },
    {
      "inputs": [
        {
          "internalType": "uint256",
          "name": "",
          "type": "uint256"
        }
      ],
      "name": "regenerationIndex",
      "outputs": [
        {
          "internalType": "string",
          "name": "name",
          "type": "string"
        },
        {
          "internalType": "uint256",
          "name": "value",
          "type": "uint256"
        }
      ],
      "stateMutability": "view",
      "type": "function"
    },
    {
      "inputs": [],
      "name": "renounceOwnership",
      "outputs": [],
      "stateMutability": "nonpayable",
      "type": "function"
    },
    {
      "inputs": [
        {
          "internalType": "address",
          "name": "newOwner",
          "type": "address"
        }
      ],
      "name": "transferOwnership",
      "outputs": [],
      "stateMutability": "nonpayable",
      "type": "function"
    }
  ],
  "bytecode": "0x608060405234801561001057600080fd5b5061002d6100226103d660201b60201c565b6103de60201b60201c565b60405180604001604052806040518060400160405280600e81526020017f524547454e45524154495645203600000000000000000000000000000000000081525081526020016020815250600460006001815260200190815260200160002060008201518160000190816100a191906111be565b506020820151816001015590505060405180604001604052806040518060400160405280600e81526020017f524547454e455241544956452035000000000000000000000000000000000000815250815260200160108152506004600060028152602001908152602001600020600082015181600001908161012391906111be565b506020820151816001015590505060405180604001604052806040518060400160405280600e81526020017f524547454e45524154495645203400000000000000000000000000000000000081525081526020016008815250600460006003815260200190815260200160002060008201518160000190816101a591906111be565b506020820151816001015590505060405180604001604052806040518060400160405280600e81526020017f524547454e455241544956452033000000000000000000000000000000000000815250815260200160048152506004600060048152602001908152602001600020600082015181600001908161022791906111be565b506020820151816001015590505060405180604001604052806040518060400160405280600e81526020017f524547454e45524154495645203200000000000000000000000000000000000081525081526020016002815250600460006005815260200190815260200160002060008201518160000190816102a991906111be565b506020820151816001015590505060405180604001604052806040518060400160405280600e81526020017f524547454e455241544956452031000000000000000000000000000000000000815250815260200160018152506004600060068152602001908152602001600020600082015181600001908161032b91906111be565b506020820151816001015590505060405180604001604052806040518060400160405280600681526020017f4e455554524f000000000000000000000000000000000000000000000000000081525081526020016000815250600460006007815260200190815260200160002060008201518160000190816103ad91906111be565b50602082015181600101559050506103c96104a260201b60201c565b6002600581905550611290565b600033905090565b60008060009054906101000a900473ffffffffffffffffffffffffffffffffffffffff169050816000806101000a81548173ffffffffffffffffffffffffffffffffffffffff021916908373ffffffffffffffffffffffffffffffffffffffff1602179055508173ffffffffffffffffffffffffffffffffffffffff168173ffffffffffffffffffffffffffffffffffffffff167f8be0079c531659141344cd1fd0a4f28419497f9722a3daafe3b4186f6b6457e060405160405180910390a35050565b60006040518060600160405280600181526020016040518060400160405280600581526020017f54726565730000000000000000000000000000000000000000000000000000008152508152602001604051806101400160405280610118815260200161254d6101189139815250905060036000600181526020019081526020016000206040518060400160405280600181526020016040518060400160405280600d81526020017f5472656573203e2032303030300000000000000000000000000000000000000081525081525090806001815401808255809150506001900390600052602060002090600202016000909190919091506000820151816000015560208201518160010190816105b991906111be565b50505060036000600181526020019081526020016000206040518060400160405280600281526020016040518060400160405280601581526020017f3230303030203e205472656573203e2031303030300000000000000000000000815250815250908060018154018082558091505060019003906000526020600020906002020160009091909190915060008201518160000155602082015181600101908161066391906111be565b50505060036000600181526020019081526020016000206040518060400160405280600381526020016040518060400160405280601481526020017f3130303030203e205472656573203e2035303030000000000000000000000000815250815250908060018154018082558091505060019003906000526020600020906002020160009091909190915060008201518160000155602082015181600101908161070d91906111be565b50505060036000600181526020019081526020016000206040518060400160405280600481526020016040518060400160405280601381526020017f35303030203e205472656573203e20313030300000000000000000000000000081525081525090806001815401808255809150506001900390600052602060002090600202016000909190919091506000820151816000015560208201518160010190816107b791906111be565b50505060036000600181526020019081526020016000206040518060400160405280600581526020016040518060400160405280601281526020017f31303030203e205472656573203e203130300000000000000000000000000000815250815250908060018154018082558091505060019003906000526020600020906002020160009091909190915060008201518160000155602082015181600101908161086191906111be565b50505060036000600181526020019081526020016000206040518060400160405280600681526020016040518060400160405280601081526020017f313030203e205472656573203e20313000000000000000000000000000000000815250815250908060018154018082558091505060019003906000526020600020906002020160009091909190915060008201518160000155602082015181600101908161090b91906111be565b50505060036000600181526020019081526020016000206040518060400160405280600781526020016040518060400160405280600a81526020017f5472656573203c2031300000000000000000000000000000000000000000000081525081525090806001815401808255809150506001900390600052602060002090600202016000909190919091506000820151816000015560208201518160010190816109b591906111be565b50505060006040518060600160405280600281526020016040518060400160405280600c81526020017f42696f6469766572736974790000000000000000000000000000000000000000815250815260200160405180610180016040528061014681526020016126656101469139815250905060036000600281526020019081526020016000206040518060400160405280600181526020016040518060400160405280601281526020017f42696f646976657273697479203e2032343000000000000000000000000000008152508152509080600181540180825580915050600190039060005260206000209060020201600090919091909150600082015181600001556020820151816001019081610acf91906111be565b50505060036000600281526020019081526020016000206040518060400160405280600281526020016040518060400160405280601881526020017f323430203e2042696f646976657273697479203e2031323000000000000000008152508152509080600181540180825580915050600190039060005260206000209060020201600090919091909150600082015181600001556020820151816001019081610b7991906111be565b50505060036000600281526020019081526020016000206040518060400160405280600381526020016040518060400160405280601781526020017f313230203e2042696f646976657273697479203e2036300000000000000000008152508152509080600181540180825580915050600190039060005260206000209060020201600090919091909150600082015181600001556020820151816001019081610c2391906111be565b50505060036000600281526020019081526020016000206040518060400160405280600481526020016040518060400160405280601681526020017f3630203e2042696f646976657273697479203e203330000000000000000000008152508152509080600181540180825580915050600190039060005260206000209060020201600090919091909150600082015181600001556020820151816001019081610ccd91906111be565b50505060036000600281526020019081526020016000206040518060400160405280600581526020016040518060400160405280601681526020017f3330203e2042696f646976657273697479203e203135000000000000000000008152508152509080600181540180825580915050600190039060005260206000209060020201600090919091909150600082015181600001556020820151816001019081610d7791906111be565b50505060036000600281526020019081526020016000206040518060400160405280600681526020016040518060400160405280601581526020017f3135203e2042696f646976657273697479203e203500000000000000000000008152508152509080600181540180825580915050600190039060005260206000209060020201600090919091909150600082015181600001556020820151816001019081610e2191906111be565b50505060036000600281526020019081526020016000206040518060400160405280600781526020016040518060400160405280601081526020017f42696f646976657273697479203c2035000000000000000000000000000000008152508152509080600181540180825580915050600190039060005260206000209060020201600090919091909150600082015181600001556020820151816001019081610ecb91906111be565b505050816002600060018152602001908152602001600020600082015181600001556020820151816001019081610f0291906111be565b506040820151816002019081610f1891906111be565b50905050806002600060028152602001908152602001600020600082015181600001556020820151816001019081610f5091906111be565b506040820151816002019081610f6691906111be565b509050505050565b600081519050919050565b7f4e487b7100000000000000000000000000000000000000000000000000000000600052604160045260246000fd5b7f4e487b7100000000000000000000000000000000000000000000000000000000600052602260045260246000fd5b60006002820490506001821680610fef57607f821691505b60208210810361100257611001610fa8565b5b50919050565b60008190508160005260206000209050919050565b60006020601f8301049050919050565b600082821b905092915050565b60006008830261106a7fffffffffffffffffffffffffffffffffffffffffffffffffffffffffffffffff8261102d565b611074868361102d565b95508019841693508086168417925050509392505050565b6000819050919050565b6000819050919050565b60006110bb6110b66110b18461108c565b611096565b61108c565b9050919050565b6000819050919050565b6110d5836110a0565b6110e96110e1826110c2565b84845461103a565b825550505050565b600090565b6110fe6110f1565b6111098184846110cc565b505050565b5b8181101561112d576111226000826110f6565b60018101905061110f565b5050565b601f8211156111725761114381611008565b61114c8461101d565b8101602085101561115b578190505b61116f6111678561101d565b83018261110e565b50505b505050565b600082821c905092915050565b600061119560001984600802611177565b1980831691505092915050565b60006111ae8383611184565b9150826002028217905092915050565b6111c782610f6e565b67ffffffffffffffff8111156111e0576111df610f79565b5b6111ea8254610fd7565b6111f5828285611131565b600060209050601f8311600181146112285760008415611216578287015190505b61122085826111a2565b865550611288565b601f19841661123686611008565b60005b8281101561125e57848901518255600182019150602085019450602081019050611239565b8683101561127b5784890151611277601f891682611184565b8355505b6001600288020188555050505b505050505050565b6112ae8061129f6000396000f3fe608060405234801561001057600080fd5b50600436106100b45760003560e01c8063894b6ade11610071578063894b6ade146101a25780638da5cb5b146101d35780638f93716f146101f1578063a68012581461020d578063c6cdbe5e1461023d578063f2fde38b1461026f576100b4565b8063102c044b146100b95780631cb9a02a146100ea5780634ee5850e1461011a578063715018a61461014a5780637333afcf146101545780637b33415414610172575b600080fd5b6100d360048036038101906100ce9190610c86565b61028b565b6040516100e1929190610d52565b60405180910390f35b61010460048036038101906100ff9190610d82565b610337565b6040516101119190610dc2565b60405180910390f35b610134600480360381019061012f9190610c86565b6104e2565b6040516101419190610f35565b60405180910390f35b6101526105f0565b005b61015c610604565b6040516101699190610dc2565b60405180910390f35b61018c60048036038101906101879190610fb5565b61060a565b6040516101999190610ffd565b60405180910390f35b6101bc60048036038101906101b79190610d82565b61062a565b6040516101ca929190611018565b60405180910390f35b6101db6106f3565b6040516101e89190611057565b60405180910390f35b61020b60048036038101906102069190610fb5565b61071c565b005b61022760048036038101906102229190610fb5565b61077e565b6040516102349190610ffd565b60405180910390f35b61025760048036038101906102529190610c86565b6107d4565b60405161026693929190611072565b60405180910390f35b61028960048036038101906102849190610fb5565b61090e565b005b60046020528060005260406000206000915090508060000180546102ae906110e6565b80601f01602080910402602001604051908101604052809291908181526020018280546102da906110e6565b80156103275780601f106102fc57610100808354040283529160200191610327565b820191906000526020600020905b81548152906001019060200180831161030a57829003601f168201915b5050505050908060010154905082565b6000806004600061034786610991565b8152602001908152602001600020604051806040016040529081600082018054610370906110e6565b80601f016020809104026020016040519081016040528092919081815260200182805461039c906110e6565b80156103e95780601f106103be576101008083540402835291602001916103e9565b820191906000526020600020905b8154815290600101906020018083116103cc57829003601f168201915b50505050508152602001600182015481525050905060006004600061040d86610a4d565b8152602001908152602001600020604051806040016040529081600082018054610436906110e6565b80601f0160208091040260200160405190810160405280929190818152602001828054610462906110e6565b80156104af5780601f10610484576101008083540402835291602001916104af565b820191906000526020600020905b81548152906001019060200180831161049257829003601f168201915b505050505081526020016001820154815250509050806020015182602001516104d89190611146565b9250505092915050565b606060036000838152602001908152602001600020805480602002602001604051908101604052809291908181526020016000905b828210156105e5578382906000526020600020906002020160405180604001604052908160008201548152602001600182018054610554906110e6565b80601f0160208091040260200160405190810160405280929190818152602001828054610580906110e6565b80156105cd5780601f106105a2576101008083540402835291602001916105cd565b820191906000526020600020905b8154815290600101906020018083116105b057829003601f168201915b50505050508152505081526020019060010190610517565b505050509050919050565b6105f8610b01565b6106026000610b7f565b565b60055481565b60016020528060005260406000206000915054906101000a900460ff1681565b6003602052816000526040600020818154811061064657600080fd5b906000526020600020906002020160009150915050806000015490806001018054610670906110e6565b80601f016020809104026020016040519081016040528092919081815260200182805461069c906110e6565b80156106e95780601f106106be576101008083540402835291602001916106e9565b820191906000526020600020905b8154815290600101906020018083116106cc57829003601f168201915b5050505050905082565b60008060009054906101000a900473ffffffffffffffffffffffffffffffffffffffff16905090565b610724610b01565b60018060008373ffffffffffffffffffffffffffffffffffffffff1673ffffffffffffffffffffffffffffffffffffffff16815260200190815260200160002060006101000a81548160ff02191690831515021790555050565b6000600160008373ffffffffffffffffffffffffffffffffffffffff1673ffffffffffffffffffffffffffffffffffffffff16815260200190815260200160002060009054906101000a900460ff169050919050565b60026020528060005260406000206000915090508060000154908060010180546107fd906110e6565b80601f0160208091040260200160405190810160405280929190818152602001828054610829906110e6565b80156108765780601f1061084b57610100808354040283529160200191610876565b820191906000526020600020905b81548152906001019060200180831161085957829003601f168201915b50505050509080600201805461088b906110e6565b80601f01602080910402602001604051908101604052809291908181526020018280546108b7906110e6565b80156109045780601f106108d957610100808354040283529160200191610904565b820191906000526020600020905b8154815290600101906020018083116108e757829003601f168201915b5050505050905083565b610916610b01565b600073ffffffffffffffffffffffffffffffffffffffff168173ffffffffffffffffffffffffffffffffffffffff1603610985576040517f08c379a000000000000000000000000000000000000000000000000000000000815260040161097c906111ec565b60405180910390fd5b61098e81610b7f565b50565b6000614e208211156109a65760019050610a48565b612710821180156109b85750614e2082105b156109c65760029050610a48565b611388821180156109d8575061271082105b156109e65760039050610a48565b6103e8821180156109f8575061138882105b15610a065760049050610a48565b606482118015610a1757506103e882105b15610a255760059050610a48565b600a82118015610a355750606482105b15610a435760069050610a48565b600790505b919050565b600060f0821115610a615760019050610afc565b607882118015610a71575060f082105b15610a7f5760029050610afc565b603c82118015610a8f5750607882105b15610a9d5760039050610afc565b601e82118015610aad5750603c82105b15610abb5760049050610afc565b600f82118015610acb5750601e82105b15610ad95760059050610afc565b600582118015610ae95750600f82105b15610af75760069050610afc565b600790505b919050565b610b09610c43565b73ffffffffffffffffffffffffffffffffffffffff16610b276106f3565b73ffffffffffffffffffffffffffffffffffffffff1614610b7d576040517f08c379a0000000000000000000000000000000000000000000000000000000008152600401610b7490611258565b60405180910390fd5b565b60008060009054906101000a900473ffffffffffffffffffffffffffffffffffffffff169050816000806101000a81548173ffffffffffffffffffffffffffffffffffffffff021916908373ffffffffffffffffffffffffffffffffffffffff1602179055508173ffffffffffffffffffffffffffffffffffffffff168173ffffffffffffffffffffffffffffffffffffffff167f8be0079c531659141344cd1fd0a4f28419497f9722a3daafe3b4186f6b6457e060405160405180910390a35050565b600033905090565b600080fd5b6000819050919050565b610c6381610c50565b8114610c6e57600080fd5b50565b600081359050610c8081610c5a565b92915050565b600060208284031215610c9c57610c9b610c4b565b5b6000610caa84828501610c71565b91505092915050565b600081519050919050565b600082825260208201905092915050565b60005b83811015610ced578082015181840152602081019050610cd2565b60008484015250505050565b6000601f19601f8301169050919050565b6000610d1582610cb3565b610d1f8185610cbe565b9350610d2f818560208601610ccf565b610d3881610cf9565b840191505092915050565b610d4c81610c50565b82525050565b60006040820190508181036000830152610d6c8185610d0a565b9050610d7b6020830184610d43565b9392505050565b60008060408385031215610d9957610d98610c4b565b5b6000610da785828601610c71565b9250506020610db885828601610c71565b9150509250929050565b6000602082019050610dd76000830184610d43565b92915050565b600081519050919050565b600082825260208201905092915050565b6000819050602082019050919050565b610e1281610c50565b82525050565b600082825260208201905092915050565b6000610e3482610cb3565b610e3e8185610e18565b9350610e4e818560208601610ccf565b610e5781610cf9565b840191505092915050565b6000604083016000830151610e7a6000860182610e09565b5060208301518482036020860152610e928282610e29565b9150508091505092915050565b6000610eab8383610e62565b905092915050565b6000602082019050919050565b6000610ecb82610ddd565b610ed58185610de8565b935083602082028501610ee785610df9565b8060005b85811015610f235784840389528151610f048582610e9f565b9450610f0f83610eb3565b925060208a01995050600181019050610eeb565b50829750879550505050505092915050565b60006020820190508181036000830152610f4f8184610ec0565b905092915050565b600073ffffffffffffffffffffffffffffffffffffffff82169050919050565b6000610f8282610f57565b9050919050565b610f9281610f77565b8114610f9d57600080fd5b50565b600081359050610faf81610f89565b92915050565b600060208284031215610fcb57610fca610c4b565b5b6000610fd984828501610fa0565b91505092915050565b60008115159050919050565b610ff781610fe2565b82525050565b60006020820190506110126000830184610fee565b92915050565b600060408201905061102d6000830185610d43565b818103602083015261103f8184610d0a565b90509392505050565b61105181610f77565b82525050565b600060208201905061106c6000830184611048565b92915050565b60006060820190506110876000830186610d43565b81810360208301526110998185610d0a565b905081810360408301526110ad8184610d0a565b9050949350505050565b7f4e487b7100000000000000000000000000000000000000000000000000000000600052602260045260246000fd5b600060028204905060018216806110fe57607f821691505b602082108103611111576111106110b7565b5b50919050565b7f4e487b7100000000000000000000000000000000000000000000000000000000600052601160045260246000fd5b600061115182610c50565b915061115c83610c50565b925082820190508082111561117457611173611117565b5b92915050565b7f4f776e61626c653a206e6577206f776e657220697320746865207a65726f206160008201527f6464726573730000000000000000000000000000000000000000000000000000602082015250565b60006111d6602683610cbe565b91506111e18261117a565b604082019050919050565b60006020820190508181036000830152611205816111c9565b9050919050565b7f4f776e61626c653a2063616c6c6572206973206e6f7420746865206f776e6572600082015250565b6000611242602083610cbe565b915061124d8261120c565b602082019050919050565b6000602082019050818103600083015261127181611235565b905091905056fea2646970667358221220fa0e08763721171157f8d8d63d78dda40ba44f26f9941f78417dd97d7745e3de64736f6c634300081b0033496e64696361746f7220746f206d6561737572652074686520746f74616c20616d6f756e74206f662074726565732c2070616c6d20747265657320616e64206f7468657220706c616e7473206f76657220316d206869676820616e642033636d20696e206469616d6574657220696e2074686520726567656e65726174696e6720617265612e20486f77206d616e792074726565732c2070616c6d20747265657320616e64206f7468657220706c616e74732077697468206d6f7265207468616e2035636d206f66206469616d657465727320746865726520697320696e2074686520726567656e65726174696e6720617265613f204a75737469667920796f757220616e7377657220696e20746865207265706f72742e496e64696361746f7220746f206d65617375726520746865206c6576656c206f662062696f646976657273697479206f662074726565732c2070616c6d20747265657320616e64206f7468657220706c616e7473206f76657220316d206869676820616e642033636d20696e206469616d6574657220696e2074686520726567656e65726174696e6720617265612e20486f77206d616e7920646966666572656e7420737065636965732061726520746865726520696e2074686520617265613f204561636820646966666572656e742073706563696573206973206571756976616c656e7420746f206f6e6520706f696e7420616e64206f6e6c7920747265657320616e6420706c616e7473206d616e61676564206f7220706c616e7465642062792074686520726567656e657261746f722073686f756c6420626520636f756e7465642e",
  "linkReferences": {},
  "deployedLinkReferences": {}
}