{
  "_format": "hh-sol-artifact-1",
  "contractName": "RegenerationCredit",
  "sourceName": "contracts/RegenerationCredit.sol",
  "abi": [
    {
      "inputs": [
        {
          "internalType": "uint256",
          "name": "total",
          "type": "uint256"
        }
      ],
      "stateMutability": "nonpayable",
      "type": "constructor"
    },
    {
      "anonymous": false,
      "inputs": [
        {
          "indexed": true,
          "internalType": "address",
          "name": "owner",
          "type": "address"
        },
        {
          "indexed": true,
          "internalType": "address",
          "name": "spender",
          "type": "address"
        },
        {
          "indexed": false,
          "internalType": "uint256",
          "name": "value",
          "type": "uint256"
        }
      ],
      "name": "Approval",
      "type": "event"
    },
    {
      "anonymous": false,
      "inputs": [
        {
          "indexed": true,
          "internalType": "address",
          "name": "previousOwner",
          "type": "address"
        },
        {
          "indexed": true,
          "internalType": "address",
          "name": "newOwner",
          "type": "address"
        }
      ],
      "name": "OwnershipTransferred",
      "type": "event"
    },
    {
      "anonymous": false,
      "inputs": [
        {
          "indexed": true,
          "internalType": "address",
          "name": "from",
          "type": "address"
        },
        {
          "indexed": true,
          "internalType": "address",
          "name": "to",
          "type": "address"
        },
        {
          "indexed": false,
          "internalType": "uint256",
          "name": "value",
          "type": "uint256"
        }
      ],
      "name": "Transfer",
      "type": "event"
    },
    {
      "inputs": [],
      "name": "DECIMALS",
      "outputs": [
        {
          "internalType": "uint8",
          "name": "",
          "type": "uint8"
        }
      ],
      "stateMutability": "view",
      "type": "function"
    },
    {
      "inputs": [],
      "name": "NAME",
      "outputs": [
        {
          "internalType": "string",
          "name": "",
          "type": "string"
        }
      ],
      "stateMutability": "view",
      "type": "function"
    },
    {
      "inputs": [],
      "name": "SYMBOL",
      "outputs": [
        {
          "internalType": "string",
          "name": "",
          "type": "string"
        }
      ],
      "stateMutability": "view",
      "type": "function"
    },
    {
      "inputs": [
        {
          "internalType": "address",
          "name": "_fundAddress",
          "type": "address"
        },
        {
          "internalType": "uint256",
          "name": "_numTokens",
          "type": "uint256"
        }
      ],
      "name": "addContractPool",
      "outputs": [
        {
          "internalType": "bool",
          "name": "",
          "type": "bool"
        }
      ],
      "stateMutability": "nonpayable",
      "type": "function"
    },
    {
      "inputs": [
        {
          "internalType": "address",
          "name": "owner",
          "type": "address"
        },
        {
          "internalType": "address",
          "name": "delegate",
          "type": "address"
        }
      ],
      "name": "allowance",
      "outputs": [
        {
          "internalType": "uint256",
          "name": "",
          "type": "uint256"
        }
      ],
      "stateMutability": "view",
      "type": "function"
    },
    {
      "inputs": [
        {
          "internalType": "address",
          "name": "delegate",
          "type": "address"
        },
        {
          "internalType": "uint256",
          "name": "numTokens",
          "type": "uint256"
        }
      ],
      "name": "approve",
      "outputs": [
        {
          "internalType": "bool",
          "name": "",
          "type": "bool"
        }
      ],
      "stateMutability": "nonpayable",
      "type": "function"
    },
    {
      "inputs": [
        {
          "internalType": "address",
          "name": "tokenOwner",
          "type": "address"
        }
      ],
      "name": "balanceOf",
      "outputs": [
        {
          "internalType": "uint256",
          "name": "",
          "type": "uint256"
        }
      ],
      "stateMutability": "view",
      "type": "function"
    },
    {
      "inputs": [
        {
          "internalType": "uint256",
          "name": "amount",
          "type": "uint256"
        }
      ],
      "name": "burnTokens",
      "outputs": [],
      "stateMutability": "nonpayable",
      "type": "function"
    },
    {
      "inputs": [
        {
          "internalType": "address",
          "name": "tokenOwner",
          "type": "address"
        },
        {
          "internalType": "uint256",
          "name": "amount",
          "type": "uint256"
        }
      ],
      "name": "burnTokensWith",
      "outputs": [],
      "stateMutability": "nonpayable",
      "type": "function"
    },
    {
      "inputs": [
        {
          "internalType": "address",
          "name": "",
          "type": "address"
        }
      ],
      "name": "certificate",
      "outputs": [
        {
          "internalType": "uint256",
          "name": "",
          "type": "uint256"
        }
      ],
      "stateMutability": "view",
      "type": "function"
    },
    {
      "inputs": [
        {
          "internalType": "address",
          "name": "contractFundsAddress",
          "type": "address"
        }
      ],
      "name": "contractPool",
      "outputs": [
        {
          "internalType": "bool",
          "name": "",
          "type": "bool"
        }
      ],
      "stateMutability": "view",
      "type": "function"
    },
    {
      "inputs": [],
      "name": "decimals",
      "outputs": [
        {
          "internalType": "uint8",
          "name": "",
          "type": "uint8"
        }
      ],
      "stateMutability": "view",
      "type": "function"
    },
    {
      "inputs": [
        {
          "internalType": "address",
          "name": "spender",
          "type": "address"
        },
        {
          "internalType": "uint256",
          "name": "subtractedValue",
          "type": "uint256"
        }
      ],
      "name": "decreaseAllowance",
      "outputs": [
        {
          "internalType": "bool",
          "name": "",
          "type": "bool"
        }
      ],
      "stateMutability": "nonpayable",
      "type": "function"
    },
    {
      "inputs": [
        {
          "internalType": "address",
          "name": "spender",
          "type": "address"
        },
        {
          "internalType": "uint256",
          "name": "addedValue",
          "type": "uint256"
        }
      ],
      "name": "increaseAllowance",
      "outputs": [
        {
          "internalType": "bool",
          "name": "",
          "type": "bool"
        }
      ],
      "stateMutability": "nonpayable",
      "type": "function"
    },
    {
      "inputs": [],
      "name": "name",
      "outputs": [
        {
          "internalType": "string",
          "name": "",
          "type": "string"
        }
      ],
      "stateMutability": "pure",
      "type": "function"
    },
    {
      "inputs": [],
      "name": "owner",
      "outputs": [
        {
          "internalType": "address",
          "name": "",
          "type": "address"
        }
      ],
      "stateMutability": "view",
      "type": "function"
    },
    {
      "inputs": [],
      "name": "renounceOwnership",
      "outputs": [],
      "stateMutability": "nonpayable",
      "type": "function"
    },
    {
      "inputs": [],
      "name": "symbol",
      "outputs": [
        {
          "internalType": "string",
          "name": "",
          "type": "string"
        }
      ],
      "stateMutability": "view",
      "type": "function"
    },
    {
      "inputs": [],
      "name": "totalCertified",
      "outputs": [
        {
          "internalType": "uint256",
          "name": "",
          "type": "uint256"
        }
      ],
      "stateMutability": "view",
      "type": "function"
    },
    {
      "inputs": [],
      "name": "totalCertified_",
      "outputs": [
        {
          "internalType": "uint256",
          "name": "",
          "type": "uint256"
        }
      ],
      "stateMutability": "view",
      "type": "function"
    },
    {
      "inputs": [],
      "name": "totalLocked",
      "outputs": [
        {
          "internalType": "uint256",
          "name": "",
          "type": "uint256"
        }
      ],
      "stateMutability": "view",
      "type": "function"
    },
    {
      "inputs": [],
      "name": "totalLocked_",
      "outputs": [
        {
          "internalType": "uint256",
          "name": "",
          "type": "uint256"
        }
      ],
      "stateMutability": "view",
      "type": "function"
    },
    {
      "inputs": [],
      "name": "totalSupply",
      "outputs": [
        {
          "internalType": "uint256",
          "name": "",
          "type": "uint256"
        }
      ],
      "stateMutability": "view",
      "type": "function"
    },
    {
      "inputs": [],
      "name": "totalSupply_",
      "outputs": [
        {
          "internalType": "uint256",
          "name": "",
          "type": "uint256"
        }
      ],
      "stateMutability": "view",
      "type": "function"
    },
    {
      "inputs": [
        {
          "internalType": "address",
          "name": "receiver",
          "type": "address"
        },
        {
          "internalType": "uint256",
          "name": "numTokens",
          "type": "uint256"
        }
      ],
      "name": "transfer",
      "outputs": [
        {
          "internalType": "bool",
          "name": "",
          "type": "bool"
        }
      ],
      "stateMutability": "nonpayable",
      "type": "function"
    },
    {
      "inputs": [
        {
          "internalType": "address",
          "name": "owner",
          "type": "address"
        },
        {
          "internalType": "address",
          "name": "buyer",
          "type": "address"
        },
        {
          "internalType": "uint256",
          "name": "numTokens",
          "type": "uint256"
        }
      ],
      "name": "transferFrom",
      "outputs": [
        {
          "internalType": "bool",
          "name": "",
          "type": "bool"
        }
      ],
      "stateMutability": "nonpayable",
      "type": "function"
    },
    {
      "inputs": [
        {
          "internalType": "address",
          "name": "newOwner",
          "type": "address"
        }
      ],
      "name": "transferOwnership",
      "outputs": [],
      "stateMutability": "nonpayable",
      "type": "function"
    },
    {
      "inputs": [
        {
          "internalType": "address",
          "name": "tokenOwner",
          "type": "address"
        },
        {
          "internalType": "address",
          "name": "receiver",
          "type": "address"
        },
        {
          "internalType": "uint256",
          "name": "numTokens",
          "type": "uint256"
        }
      ],
      "name": "transferWith",
      "outputs": [
        {
          "internalType": "bool",
          "name": "",
          "type": "bool"
        }
      ],
      "stateMutability": "nonpayable",
      "type": "function"
    }
  ],
  "bytecode": "0x608060405234801561001057600080fd5b5060405161294c38038061294c83398181016040528101906100329190610238565b6040518060400160405280601381526020017f524547454e45524154494f4e20435245444954000000000000000000000000008152506040518060400160405280600281526020017f524300000000000000000000000000000000000000000000000000000000000081525081600390816100ad91906104ab565b5080600490816100bd91906104ab565b5050506100dc6100d161012f60201b60201c565b61013760201b60201c565b80600a81905550600a54600660003373ffffffffffffffffffffffffffffffffffffffff1673ffffffffffffffffffffffffffffffffffffffff168152602001908152602001600020819055505061057d565b600033905090565b6000600560009054906101000a900473ffffffffffffffffffffffffffffffffffffffff16905081600560006101000a81548173ffffffffffffffffffffffffffffffffffffffff021916908373ffffffffffffffffffffffffffffffffffffffff1602179055508173ffffffffffffffffffffffffffffffffffffffff168173ffffffffffffffffffffffffffffffffffffffff167f8be0079c531659141344cd1fd0a4f28419497f9722a3daafe3b4186f6b6457e060405160405180910390a35050565b600080fd5b6000819050919050565b61021581610202565b811461022057600080fd5b50565b6000815190506102328161020c565b92915050565b60006020828403121561024e5761024d6101fd565b5b600061025c84828501610223565b91505092915050565b600081519050919050565b7f4e487b7100000000000000000000000000000000000000000000000000000000600052604160045260246000fd5b7f4e487b7100000000000000000000000000000000000000000000000000000000600052602260045260246000fd5b600060028204905060018216806102e657607f821691505b6020821081036102f9576102f861029f565b5b50919050565b60008190508160005260206000209050919050565b60006020601f8301049050919050565b600082821b905092915050565b6000600883026103617fffffffffffffffffffffffffffffffffffffffffffffffffffffffffffffffff82610324565b61036b8683610324565b95508019841693508086168417925050509392505050565b6000819050919050565b60006103a86103a361039e84610202565b610383565b610202565b9050919050565b6000819050919050565b6103c28361038d565b6103d66103ce826103af565b848454610331565b825550505050565b600090565b6103eb6103de565b6103f68184846103b9565b505050565b5b8181101561041a5761040f6000826103e3565b6001810190506103fc565b5050565b601f82111561045f57610430816102ff565b61043984610314565b81016020851015610448578190505b61045c61045485610314565b8301826103fb565b50505b505050565b600082821c905092915050565b600061048260001984600802610464565b1980831691505092915050565b600061049b8383610471565b9150826002028217905092915050565b6104b482610265565b67ffffffffffffffff8111156104cd576104cc610270565b5b6104d782546102ce565b6104e282828561041e565b600060209050601f8311600181146105155760008415610503578287015190505b61050d858261048f565b865550610575565b601f198416610523866102ff565b60005b8281101561054b57848901518255600182019150602085019450602081019050610526565b868310156105685784890151610564601f891682610471565b8355505b6001600288020188555050505b505050505050565b6123c08061058c6000396000f3fe608060405234801561001057600080fd5b50600436106101c45760003560e01c80636d1b229d116100f9578063a457c2d711610097578063b34b4d0011610071578063b34b4d0014610537578063dd62ed3e14610553578063f2fde38b14610583578063f76f8d781461059f576101c4565b8063a457c2d7146104b9578063a9059cbb146104e9578063b14f0b4314610519576101c4565b80638da5cb5b116100d35780638da5cb5b1461042f57806395d89b411461044d578063a2c7670e1461046b578063a3f4df7e1461049b576101c4565b80636d1b229d146103d957806370a08231146103f5578063715018a614610425576101c4565b8063313ce567116101665780633950935111610140578063395093511461033d57806349d627761461036d5780634d65a8461461038b57806356891412146103bb576101c4565b8063313ce567146102d1578063324536eb146102ef5780633834565d1461030d576101c4565b806318160ddd116101a257806318160ddd146102355780631affb7b71461025357806323b872dd146102835780632e0f2625146102b3576101c4565b806306fdde03146101c9578063095ea7b3146101e75780630ed944c314610217575b600080fd5b6101d16105bd565b6040516101de9190611aae565b60405180910390f35b61020160048036038101906101fc9190611b69565b6105fa565b60405161020e9190611bc4565b60405180910390f35b61021f6106ec565b60405161022c9190611bee565b60405180910390f35b61023d6106f2565b60405161024a9190611bee565b60405180910390f35b61026d60048036038101906102689190611c09565b6106fc565b60405161027a9190611bee565b60405180910390f35b61029d60048036038101906102989190611c36565b610714565b6040516102aa9190611bc4565b60405180910390f35b6102bb610b00565b6040516102c89190611ca5565b60405180910390f35b6102d9610b05565b6040516102e69190611ca5565b60405180910390f35b6102f7610b0e565b6040516103049190611bee565b60405180910390f35b61032760048036038101906103229190611c09565b610b14565b6040516103349190611bc4565b60405180910390f35b61035760048036038101906103529190611b69565b610b6a565b6040516103649190611bc4565b60405180910390f35b610375610ba1565b6040516103829190611bee565b60405180910390f35b6103a560048036038101906103a09190611b69565b610ba7565b6040516103b29190611bc4565b60405180910390f35b6103c3610c37565b6040516103d09190611bee565b60405180910390f35b6103f360048036038101906103ee9190611cc0565b610c41565b005b61040f600480360381019061040a9190611c09565b610c4e565b60405161041c9190611bee565b60405180910390f35b61042d610c97565b005b610437610cab565b6040516104449190611cfc565b60405180910390f35b610455610cd5565b6040516104629190611aae565b60405180910390f35b61048560048036038101906104809190611c36565b610d67565b6040516104929190611bc4565b60405180910390f35b6104a3611030565b6040516104b09190611aae565b60405180910390f35b6104d360048036038101906104ce9190611b69565b611069565b6040516104e09190611bc4565b60405180910390f35b61050360048036038101906104fe9190611b69565b6110e0565b6040516105109190611bc4565b60405180910390f35b6105216112fd565b60405161052e9190611bee565b60405180910390f35b610551600480360381019061054c9190611b69565b611307565b005b61056d60048036038101906105689190611d17565b61135d565b60405161057a9190611bee565b60405180910390f35b61059d60048036038101906105989190611c09565b6113e4565b005b6105a7611467565b6040516105b49190611aae565b60405180910390f35b60606040518060400160405280601381526020017f524547454e45524154494f4e2043524544495400000000000000000000000000815250905090565b600081600760003373ffffffffffffffffffffffffffffffffffffffff1673ffffffffffffffffffffffffffffffffffffffff16815260200190815260200160002060008573ffffffffffffffffffffffffffffffffffffffff1673ffffffffffffffffffffffffffffffffffffffff168152602001908152602001600020819055508273ffffffffffffffffffffffffffffffffffffffff163373ffffffffffffffffffffffffffffffffffffffff167f8c5be1e5ebec7d5bd14f71427d1e84f3dd0314c0f7b2291e5b200ac8c7c3b925846040516106da9190611bee565b60405180910390a36001905092915050565b600b5481565b6000600a54905090565b60086020528060005260406000206000915090505481565b6000600660008573ffffffffffffffffffffffffffffffffffffffff1673ffffffffffffffffffffffffffffffffffffffff16815260200190815260200160002054821115610798576040517f08c379a000000000000000000000000000000000000000000000000000000000815260040161078f90611da3565b60405180910390fd5b600760008573ffffffffffffffffffffffffffffffffffffffff1673ffffffffffffffffffffffffffffffffffffffff16815260200190815260200160002060003373ffffffffffffffffffffffffffffffffffffffff1673ffffffffffffffffffffffffffffffffffffffff16815260200190815260200160002054821115610857576040517f08c379a000000000000000000000000000000000000000000000000000000000815260040161084e90611e0f565b60405180910390fd5b6108a982600660008773ffffffffffffffffffffffffffffffffffffffff1673ffffffffffffffffffffffffffffffffffffffff168152602001908152602001600020546114a090919063ffffffff16565b600660008673ffffffffffffffffffffffffffffffffffffffff1673ffffffffffffffffffffffffffffffffffffffff1681526020019081526020016000208190555061097b82600760008773ffffffffffffffffffffffffffffffffffffffff1673ffffffffffffffffffffffffffffffffffffffff16815260200190815260200160002060003373ffffffffffffffffffffffffffffffffffffffff1673ffffffffffffffffffffffffffffffffffffffff168152602001908152602001600020546114a090919063ffffffff16565b600760008673ffffffffffffffffffffffffffffffffffffffff1673ffffffffffffffffffffffffffffffffffffffff16815260200190815260200160002060003373ffffffffffffffffffffffffffffffffffffffff1673ffffffffffffffffffffffffffffffffffffffff16815260200190815260200160002081905550610a4d82600660008673ffffffffffffffffffffffffffffffffffffffff1673ffffffffffffffffffffffffffffffffffffffff168152602001908152602001600020546114b690919063ffffffff16565b600660008573ffffffffffffffffffffffffffffffffffffffff1673ffffffffffffffffffffffffffffffffffffffff168152602001908152602001600020819055508273ffffffffffffffffffffffffffffffffffffffff168473ffffffffffffffffffffffffffffffffffffffff167fddf252ad1be2c89b69c2b068fc378daa952ba7f163c4a11628f55a4df523b3ef84604051610aed9190611bee565b60405180910390a3600190509392505050565b601281565b60006012905090565b600a5481565b6000600960008373ffffffffffffffffffffffffffffffffffffffff1673ffffffffffffffffffffffffffffffffffffffff16815260200190815260200160002060009054906101000a900460ff169050919050565b600080610b756114cc565b9050610b96818585610b87858961135d565b610b919190611e5e565b6114d4565b600191505092915050565b600c5481565b6000610bb161169d565b6001600960008573ffffffffffffffffffffffffffffffffffffffff1673ffffffffffffffffffffffffffffffffffffffff16815260200190815260200160002060006101000a81548160ff021916908315150217905550610c1383836110e0565b5081600c6000828254610c269190611e5e565b925050819055506001905092915050565b6000600c54905090565b610c4b338261171b565b50565b6000600660008373ffffffffffffffffffffffffffffffffffffffff1673ffffffffffffffffffffffffffffffffffffffff168152602001908152602001600020549050919050565b610c9f61169d565b610ca96000611798565b565b6000600560009054906101000a900473ffffffffffffffffffffffffffffffffffffffff16905090565b606060048054610ce490611ec1565b80601f0160208091040260200160405190810160405280929190818152602001828054610d1090611ec1565b8015610d5d5780601f10610d3257610100808354040283529160200191610d5d565b820191906000526020600020905b815481529060010190602001808311610d4057829003601f168201915b5050505050905090565b6000610d7233610b14565b610db1576040517f08c379a0000000000000000000000000000000000000000000000000000000008152600401610da890611f3e565b60405180910390fd5b600660008573ffffffffffffffffffffffffffffffffffffffff1673ffffffffffffffffffffffffffffffffffffffff16815260200190815260200160002054821115610e33576040517f08c379a0000000000000000000000000000000000000000000000000000000008152600401610e2a90611faa565b60405180910390fd5b610e8582600660008773ffffffffffffffffffffffffffffffffffffffff1673ffffffffffffffffffffffffffffffffffffffff168152602001908152602001600020546114a090919063ffffffff16565b600660008673ffffffffffffffffffffffffffffffffffffffff1673ffffffffffffffffffffffffffffffffffffffff16815260200190815260200160002081905550610f1a82600660008673ffffffffffffffffffffffffffffffffffffffff1673ffffffffffffffffffffffffffffffffffffffff168152602001908152602001600020546114b690919063ffffffff16565b600660008573ffffffffffffffffffffffffffffffffffffffff1673ffffffffffffffffffffffffffffffffffffffff168152602001908152602001600020819055508273ffffffffffffffffffffffffffffffffffffffff168473ffffffffffffffffffffffffffffffffffffffff167fddf252ad1be2c89b69c2b068fc378daa952ba7f163c4a11628f55a4df523b3ef84604051610fba9190611bee565b60405180910390a3600960008573ffffffffffffffffffffffffffffffffffffffff1673ffffffffffffffffffffffffffffffffffffffff16815260200190815260200160002060009054906101000a900460ff16156110255781600c600082825403925050819055505b600190509392505050565b6040518060400160405280601381526020017f524547454e45524154494f4e204352454449540000000000000000000000000081525081565b6000806110746114cc565b90506000611082828661135d565b9050838110156110c7576040517f08c379a00000000000000000000000000000000000000000000000000000000081526004016110be9061203c565b60405180910390fd5b6110d482868684036114d4565b60019250505092915050565b6000600660003373ffffffffffffffffffffffffffffffffffffffff1673ffffffffffffffffffffffffffffffffffffffff16815260200190815260200160002054821115611164576040517f08c379a000000000000000000000000000000000000000000000000000000000815260040161115b90611da3565b60405180910390fd5b6111b682600660003373ffffffffffffffffffffffffffffffffffffffff1673ffffffffffffffffffffffffffffffffffffffff168152602001908152602001600020546114a090919063ffffffff16565b600660003373ffffffffffffffffffffffffffffffffffffffff1673ffffffffffffffffffffffffffffffffffffffff1681526020019081526020016000208190555061124b82600660008673ffffffffffffffffffffffffffffffffffffffff1673ffffffffffffffffffffffffffffffffffffffff168152602001908152602001600020546114b690919063ffffffff16565b600660008573ffffffffffffffffffffffffffffffffffffffff1673ffffffffffffffffffffffffffffffffffffffff168152602001908152602001600020819055508273ffffffffffffffffffffffffffffffffffffffff163373ffffffffffffffffffffffffffffffffffffffff167fddf252ad1be2c89b69c2b068fc378daa952ba7f163c4a11628f55a4df523b3ef846040516112eb9190611bee565b60405180910390a36001905092915050565b6000600b54905090565b61131033610b14565b61134f576040517f08c379a000000000000000000000000000000000000000000000000000000000815260040161134690611f3e565b60405180910390fd5b611359828261171b565b5050565b6000600760008473ffffffffffffffffffffffffffffffffffffffff1673ffffffffffffffffffffffffffffffffffffffff16815260200190815260200160002060008373ffffffffffffffffffffffffffffffffffffffff1673ffffffffffffffffffffffffffffffffffffffff16815260200190815260200160002054905092915050565b6113ec61169d565b600073ffffffffffffffffffffffffffffffffffffffff168173ffffffffffffffffffffffffffffffffffffffff160361145b576040517f08c379a0000000000000000000000000000000000000000000000000000000008152600401611452906120ce565b60405180910390fd5b61146481611798565b50565b6040518060400160405280600281526020017f524300000000000000000000000000000000000000000000000000000000000081525081565b600081836114ae91906120ee565b905092915050565b600081836114c49190611e5e565b905092915050565b600033905090565b600073ffffffffffffffffffffffffffffffffffffffff168373ffffffffffffffffffffffffffffffffffffffff1603611543576040517f08c379a000000000000000000000000000000000000000000000000000000000815260040161153a90612194565b60405180910390fd5b600073ffffffffffffffffffffffffffffffffffffffff168273ffffffffffffffffffffffffffffffffffffffff16036115b2576040517f08c379a00000000000000000000000000000000000000000000000000000000081526004016115a990612226565b60405180910390fd5b80600160008573ffffffffffffffffffffffffffffffffffffffff1673ffffffffffffffffffffffffffffffffffffffff16815260200190815260200160002060008473ffffffffffffffffffffffffffffffffffffffff1673ffffffffffffffffffffffffffffffffffffffff168152602001908152602001600020819055508173ffffffffffffffffffffffffffffffffffffffff168373ffffffffffffffffffffffffffffffffffffffff167f8c5be1e5ebec7d5bd14f71427d1e84f3dd0314c0f7b2291e5b200ac8c7c3b925836040516116909190611bee565b60405180910390a3505050565b6116a56114cc565b73ffffffffffffffffffffffffffffffffffffffff166116c3610cab565b73ffffffffffffffffffffffffffffffffffffffff1614611719576040517f08c379a000000000000000000000000000000000000000000000000000000000815260040161171090612292565b60405180910390fd5b565b611725828261185e565b80600860008473ffffffffffffffffffffffffffffffffffffffff1673ffffffffffffffffffffffffffffffffffffffff16815260200190815260200160002060008282546117749190611e5e565b9250508190555080600b600082825461178d9190611e5e565b925050819055505050565b6000600560009054906101000a900473ffffffffffffffffffffffffffffffffffffffff16905081600560006101000a81548173ffffffffffffffffffffffffffffffffffffffff021916908373ffffffffffffffffffffffffffffffffffffffff1602179055508173ffffffffffffffffffffffffffffffffffffffff168173ffffffffffffffffffffffffffffffffffffffff167f8be0079c531659141344cd1fd0a4f28419497f9722a3daafe3b4186f6b6457e060405160405180910390a35050565b600073ffffffffffffffffffffffffffffffffffffffff168273ffffffffffffffffffffffffffffffffffffffff16036118cd576040517f08c379a00000000000000000000000000000000000000000000000000000000081526004016118c4906122fe565b60405180910390fd5b6000600660008473ffffffffffffffffffffffffffffffffffffffff1673ffffffffffffffffffffffffffffffffffffffff16815260200190815260200160002054905081811015611954576040517f08c379a000000000000000000000000000000000000000000000000000000000815260040161194b9061236a565b60405180910390fd5b818103600660008573ffffffffffffffffffffffffffffffffffffffff1673ffffffffffffffffffffffffffffffffffffffff1681526020019081526020016000208190555081600a60008282546119ac91906120ee565b92505081905550600073ffffffffffffffffffffffffffffffffffffffff168373ffffffffffffffffffffffffffffffffffffffff167fddf252ad1be2c89b69c2b068fc378daa952ba7f163c4a11628f55a4df523b3ef84604051611a119190611bee565b60405180910390a3505050565b600081519050919050565b600082825260208201905092915050565b60005b83811015611a58578082015181840152602081019050611a3d565b60008484015250505050565b6000601f19601f8301169050919050565b6000611a8082611a1e565b611a8a8185611a29565b9350611a9a818560208601611a3a565b611aa381611a64565b840191505092915050565b60006020820190508181036000830152611ac88184611a75565b905092915050565b600080fd5b600073ffffffffffffffffffffffffffffffffffffffff82169050919050565b6000611b0082611ad5565b9050919050565b611b1081611af5565b8114611b1b57600080fd5b50565b600081359050611b2d81611b07565b92915050565b6000819050919050565b611b4681611b33565b8114611b5157600080fd5b50565b600081359050611b6381611b3d565b92915050565b60008060408385031215611b8057611b7f611ad0565b5b6000611b8e85828601611b1e565b9250506020611b9f85828601611b54565b9150509250929050565b60008115159050919050565b611bbe81611ba9565b82525050565b6000602082019050611bd96000830184611bb5565b92915050565b611be881611b33565b82525050565b6000602082019050611c036000830184611bdf565b92915050565b600060208284031215611c1f57611c1e611ad0565b5b6000611c2d84828501611b1e565b91505092915050565b600080600060608486031215611c4f57611c4e611ad0565b5b6000611c5d86828701611b1e565b9350506020611c6e86828701611b1e565b9250506040611c7f86828701611b54565b9150509250925092565b600060ff82169050919050565b611c9f81611c89565b82525050565b6000602082019050611cba6000830184611c96565b92915050565b600060208284031215611cd657611cd5611ad0565b5b6000611ce484828501611b54565b91505092915050565b611cf681611af5565b82525050565b6000602082019050611d116000830184611ced565b92915050565b60008060408385031215611d2e57611d2d611ad0565b5b6000611d3c85828601611b1e565b9250506020611d4d85828601611b1e565b9150509250929050565b7f496e73756666696369656e742062616c616e63652e0000000000000000000000600082015250565b6000611d8d601583611a29565b9150611d9882611d57565b602082019050919050565b60006020820190508181036000830152611dbc81611d80565b9050919050565b7f496e73756666696369656e7420616c6c6f77616e63652e000000000000000000600082015250565b6000611df9601783611a29565b9150611e0482611dc3565b602082019050919050565b60006020820190508181036000830152611e2881611dec565b9050919050565b7f4e487b7100000000000000000000000000000000000000000000000000000000600052601160045260246000fd5b6000611e6982611b33565b9150611e7483611b33565b9250828201905080821115611e8c57611e8b611e2f565b5b92915050565b7f4e487b7100000000000000000000000000000000000000000000000000000000600052602260045260246000fd5b60006002820490506001821680611ed957607f821691505b602082108103611eec57611eeb611e92565b5b50919050565b7f4e6f74206120636f6e747261637420706f6f6c00000000000000000000000000600082015250565b6000611f28601383611a29565b9150611f3382611ef2565b602082019050919050565b60006020820190508181036000830152611f5781611f1b565b9050919050565b7f596f7520646f6e2774206861766520524320546f6b656e730000000000000000600082015250565b6000611f94601883611a29565b9150611f9f82611f5e565b602082019050919050565b60006020820190508181036000830152611fc381611f87565b9050919050565b7f45524332303a2064656372656173656420616c6c6f77616e63652062656c6f7760008201527f207a65726f000000000000000000000000000000000000000000000000000000602082015250565b6000612026602583611a29565b915061203182611fca565b604082019050919050565b6000602082019050818103600083015261205581612019565b9050919050565b7f4f776e61626c653a206e6577206f776e657220697320746865207a65726f206160008201527f6464726573730000000000000000000000000000000000000000000000000000602082015250565b60006120b8602683611a29565b91506120c38261205c565b604082019050919050565b600060208201905081810360008301526120e7816120ab565b9050919050565b60006120f982611b33565b915061210483611b33565b925082820390508181111561211c5761211b611e2f565b5b92915050565b7f45524332303a20617070726f76652066726f6d20746865207a65726f2061646460008201527f7265737300000000000000000000000000000000000000000000000000000000602082015250565b600061217e602483611a29565b915061218982612122565b604082019050919050565b600060208201905081810360008301526121ad81612171565b9050919050565b7f45524332303a20617070726f766520746f20746865207a65726f20616464726560008201527f7373000000000000000000000000000000000000000000000000000000000000602082015250565b6000612210602283611a29565b915061221b826121b4565b604082019050919050565b6000602082019050818103600083015261223f81612203565b9050919050565b7f4f776e61626c653a2063616c6c6572206973206e6f7420746865206f776e6572600082015250565b600061227c602083611a29565b915061228782612246565b602082019050919050565b600060208201905081810360008301526122ab8161226f565b9050919050565b7f4275726e2066726f6d20746865207a65726f2061646472657373000000000000600082015250565b60006122e8601a83611a29565b91506122f3826122b2565b602082019050919050565b60006020820190508181036000830152612317816122db565b9050919050565b7f4275726e20616d6f756e7420657863656564732062616c616e63650000000000600082015250565b6000612354601b83611a29565b915061235f8261231e565b602082019050919050565b6000602082019050818103600083015261238381612347565b905091905056fea2646970667358221220dbeb6f2717870613c6a9a8fca5dc0307991c91d76dafd0a613c2ecb23f148f0c64736f6c634300081b0033",
  "linkReferences": {},
  "deployedLinkReferences": {}
}