{
  "_format": "hh-sol-artifact-1",
  "contractName": "RegeneratorPool",
  "sourceName": "contracts/RegeneratorPool.sol",
  "abi": [
    {
      "inputs": [
        {
          "internalType": "address",
          "name": "regenerationCreditAddress",
          "type": "address"
        },
        {
          "internalType": "uint256",
          "name": "_halving",
          "type": "uint256"
        },
        {
          "internalType": "uint256",
          "name": "_blocksPerEra",
          "type": "uint256"
        }
      ],
      "stateMutability": "nonpayable",
      "type": "constructor"
    },
    {
      "anonymous": false,
      "inputs": [
        {
          "indexed": true,
          "internalType": "address",
          "name": "previousOwner",
          "type": "address"
        },
        {
          "indexed": true,
          "internalType": "address",
          "name": "newOwner",
          "type": "address"
        }
      ],
      "name": "OwnershipTransferred",
      "type": "event"
    },
    {
      "inputs": [],
      "name": "BLOCKS_PRECISION",
      "outputs": [
        {
          "internalType": "uint256",
          "name": "",
          "type": "uint256"
        }
      ],
      "stateMutability": "view",
      "type": "function"
    },
    {
      "inputs": [
        {
          "internalType": "address",
          "name": "regenerator",
          "type": "address"
        },
        {
          "internalType": "uint256",
          "name": "levels",
          "type": "uint256"
        }
      ],
      "name": "addLevel",
      "outputs": [],
      "stateMutability": "nonpayable",
      "type": "function"
    },
    {
      "inputs": [
        {
          "internalType": "address",
          "name": "",
          "type": "address"
        }
      ],
      "name": "allowedCallers",
      "outputs": [
        {
          "internalType": "bool",
          "name": "",
          "type": "bool"
        }
      ],
      "stateMutability": "view",
      "type": "function"
    },
    {
      "inputs": [
        {
          "internalType": "uint256",
          "name": "currentUserEra",
          "type": "uint256"
        }
      ],
      "name": "canWithdraw",
      "outputs": [
        {
          "internalType": "bool",
          "name": "",
          "type": "bool"
        }
      ],
      "stateMutability": "view",
      "type": "function"
    },
    {
      "inputs": [
        {
          "internalType": "uint256",
          "name": "currentUserEra",
          "type": "uint256"
        }
      ],
      "name": "canWithdrawTimes",
      "outputs": [
        {
          "internalType": "uint256",
          "name": "",
          "type": "uint256"
        }
      ],
      "stateMutability": "view",
      "type": "function"
    },
    {
      "inputs": [],
      "name": "currentContractEra",
      "outputs": [
        {
          "internalType": "uint256",
          "name": "",
          "type": "uint256"
        }
      ],
      "stateMutability": "view",
      "type": "function"
    },
    {
      "inputs": [],
      "name": "currentEpoch",
      "outputs": [
        {
          "internalType": "uint256",
          "name": "",
          "type": "uint256"
        }
      ],
      "stateMutability": "view",
      "type": "function"
    },
    {
      "inputs": [
        {
          "internalType": "uint256",
          "name": "era",
          "type": "uint256"
        }
      ],
      "name": "currentUserEpoch",
      "outputs": [
        {
          "internalType": "uint256",
          "name": "",
          "type": "uint256"
        }
      ],
      "stateMutability": "view",
      "type": "function"
    },
    {
      "inputs": [
        {
          "internalType": "uint256",
          "name": "",
          "type": "uint256"
        },
        {
          "internalType": "address",
          "name": "",
          "type": "address"
        }
      ],
      "name": "eraLevels",
      "outputs": [
        {
          "internalType": "uint256",
          "name": "",
          "type": "uint256"
        }
      ],
      "stateMutability": "view",
      "type": "function"
    },
    {
      "inputs": [
        {
          "internalType": "uint256",
          "name": "",
          "type": "uint256"
        },
        {
          "internalType": "address",
          "name": "",
          "type": "address"
        }
      ],
      "name": "eraTokens",
      "outputs": [
        {
          "internalType": "uint256",
          "name": "",
          "type": "uint256"
        }
      ],
      "stateMutability": "view",
      "type": "function"
    },
    {
      "inputs": [
        {
          "internalType": "uint256",
          "name": "",
          "type": "uint256"
        }
      ],
      "name": "eras",
      "outputs": [
        {
          "internalType": "uint256",
          "name": "users",
          "type": "uint256"
        },
        {
          "internalType": "uint256",
          "name": "tokens",
          "type": "uint256"
        },
        {
          "internalType": "uint256",
          "name": "levels",
          "type": "uint256"
        }
      ],
      "stateMutability": "view",
      "type": "function"
    },
    {
      "inputs": [
        {
          "internalType": "uint256",
          "name": "era",
          "type": "uint256"
        }
      ],
      "name": "getEra",
      "outputs": [
        {
          "components": [
            {
              "internalType": "uint256",
              "name": "users",
              "type": "uint256"
            },
            {
              "internalType": "uint256",
              "name": "tokens",
              "type": "uint256"
            },
            {
              "internalType": "uint256",
              "name": "levels",
              "type": "uint256"
            }
          ],
          "internalType": "struct Era",
          "name": "",
          "type": "tuple"
        }
      ],
      "stateMutability": "view",
      "type": "function"
    },
    {
      "inputs": [
        {
          "internalType": "address",
          "name": "caller",
          "type": "address"
        }
      ],
      "name": "isAllowedCaller",
      "outputs": [
        {
          "internalType": "bool",
          "name": "",
          "type": "bool"
        }
      ],
      "stateMutability": "view",
      "type": "function"
    },
    {
      "inputs": [
        {
          "internalType": "address",
          "name": "allowed",
          "type": "address"
        }
      ],
      "name": "newAllowedCaller",
      "outputs": [],
      "stateMutability": "nonpayable",
      "type": "function"
    },
    {
      "inputs": [
        {
          "internalType": "uint256",
          "name": "currentUserEra",
          "type": "uint256"
        }
      ],
      "name": "nextEraIn",
      "outputs": [
        {
          "internalType": "int256",
          "name": "",
          "type": "int256"
        }
      ],
      "stateMutability": "view",
      "type": "function"
    },
    {
      "inputs": [],
      "name": "owner",
      "outputs": [
        {
          "internalType": "address",
          "name": "",
          "type": "address"
        }
      ],
      "stateMutability": "view",
      "type": "function"
    },
    {
      "inputs": [
        {
          "internalType": "address",
          "name": "regenerator",
          "type": "address"
        },
        {
          "internalType": "uint256",
          "name": "levels",
          "type": "uint256"
        }
      ],
      "name": "removeLevel",
      "outputs": [],
      "stateMutability": "nonpayable",
      "type": "function"
    },
    {
      "inputs": [
        {
          "internalType": "address",
          "name": "addr",
          "type": "address"
        },
        {
          "internalType": "uint256",
          "name": "era",
          "type": "uint256"
        },
        {
          "internalType": "uint256",
          "name": "removeSomeLevels",
          "type": "uint256"
        }
      ],
      "name": "removePoolLevels",
      "outputs": [],
      "stateMutability": "nonpayable",
      "type": "function"
    },
    {
      "inputs": [],
      "name": "renounceOwnership",
      "outputs": [],
      "stateMutability": "nonpayable",
      "type": "function"
    },
    {
      "inputs": [
        {
          "internalType": "uint256",
          "name": "currentEpoch",
          "type": "uint256"
        }
      ],
      "name": "tokensPerEpoch",
      "outputs": [
        {
          "internalType": "uint256",
          "name": "",
          "type": "uint256"
        }
      ],
      "stateMutability": "view",
      "type": "function"
    },
    {
      "inputs": [
        {
          "internalType": "uint256",
          "name": "currentEpoch",
          "type": "uint256"
        },
        {
          "internalType": "uint256",
          "name": "halving",
          "type": "uint256"
        }
      ],
      "name": "tokensPerEra",
      "outputs": [
        {
          "internalType": "uint256",
          "name": "",
          "type": "uint256"
        }
      ],
      "stateMutability": "view",
      "type": "function"
    },
    {
      "inputs": [
        {
          "internalType": "address",
          "name": "newOwner",
          "type": "address"
        }
      ],
      "name": "transferOwnership",
      "outputs": [],
      "stateMutability": "nonpayable",
      "type": "function"
    },
    {
      "inputs": [
        {
          "internalType": "address",
          "name": "delegate",
          "type": "address"
        },
        {
          "internalType": "uint256",
          "name": "era",
          "type": "uint256"
        }
      ],
      "name": "withdraw",
      "outputs": [],
      "stateMutability": "nonpayable",
      "type": "function"
    }
  ],
  "bytecode": "0x61010060405234801561001157600080fd5b506040516120d93803806120d983398181016040528101906100339190610246565b80826b026c62ad77dc602dae00000080608081815250505061006761005c6100d760201b60201c565b6100df60201b60201c565b8160a0818152505061007d6101a560201b60201c565b60c081815250508060e08181525050505082600560006101000a81548173ffffffffffffffffffffffffffffffffffffffff021916908373ffffffffffffffffffffffffffffffffffffffff160217905550505050610299565b600033905090565b6000600360009054906101000a900473ffffffffffffffffffffffffffffffffffffffff16905081600360006101000a81548173ffffffffffffffffffffffffffffffffffffffff021916908373ffffffffffffffffffffffffffffffffffffffff1602179055508173ffffffffffffffffffffffffffffffffffffffff168173ffffffffffffffffffffffffffffffffffffffff167f8be0079c531659141344cd1fd0a4f28419497f9722a3daafe3b4186f6b6457e060405160405180910390a35050565b600043905090565b600080fd5b600073ffffffffffffffffffffffffffffffffffffffff82169050919050565b60006101dd826101b2565b9050919050565b6101ed816101d2565b81146101f857600080fd5b50565b60008151905061020a816101e4565b92915050565b6000819050919050565b61022381610210565b811461022e57600080fd5b50565b6000815190506102408161021a565b92915050565b60008060006060848603121561025f5761025e6101ad565b5b600061026d868287016101fb565b935050602061027e86828701610231565b925050604061028f86828701610231565b9150509250925092565b60805160a05160c05160e051611de46102f5600039600081816107a5015281816109ab0152610c53015260008181610a260152610a90015260008181610813015281816109fb0152610a6c015260006105930152611de46000f3fe608060405234801561001057600080fd5b506004361061014d5760003560e01c8063861b4ce1116100c3578063d5ee3eb51161007c578063d5ee3eb5146103d8578063ed0df79e14610408578063f2fde38b14610426578063f3fef3a314610442578063fbe85f061461045e578063ff39043c1461048e5761014d565b8063861b4ce1146102f057806388b3acae1461030e5780638da5cb5b1461033e5780638f93716f1461035c578063a680125814610378578063b3cc6d99146103a85761014d565b80636d72494d116101155780636d72494d1461021a578063715018a614610236578063720a70bd1461024057806376671808146102725780637721f1b5146102905780637b334154146102c05761014d565b8063157ffc52146101525780631f14f4151461016e5780632506b9321461019e5780632eedcb18146101ce57806352b8d3ed146101fe575b600080fd5b61016c60048036038101906101679190611423565b6104be565b005b61018860048036038101906101839190611476565b61055a565b60405161019591906114c5565b60405180910390f35b6101b860048036038101906101b391906114e0565b61057f565b6040516101c591906114c5565b60405180910390f35b6101e860048036038101906101e391906114e0565b6105c7565b6040516101f5919061155e565b60405180910390f35b61021860048036038101906102139190611579565b610611565b005b610234600480360381019061022f9190611579565b6106b3565b005b61023e61075b565b005b61025a600480360381019061025591906114e0565b61076f565b604051610269939291906115b9565b60405180910390f35b61027a610799565b60405161028791906114c5565b60405180910390f35b6102aa60048036038101906102a591906114e0565b6107ed565b6040516102b791906114c5565b60405180910390f35b6102da60048036038101906102d591906115f0565b610872565b6040516102e79190611638565b60405180910390f35b6102f8610892565b60405161030591906114c5565b60405180910390f35b61032860048036038101906103239190611653565b610897565b60405161033591906114c5565b60405180910390f35b6103466108bc565b60405161035391906116a2565b60405180910390f35b610376600480360381019061037191906115f0565b6108e6565b005b610392600480360381019061038d91906115f0565b610949565b60405161039f9190611638565b60405180910390f35b6103c260048036038101906103bd91906114e0565b61099f565b6040516103cf91906114c5565b60405180910390f35b6103f260048036038101906103ed91906114e0565b6109ee565b6040516103ff91906116d6565b60405180910390f35b610410610a60565b60405161041d91906114c5565b60405180910390f35b610440600480360381019061043b91906115f0565b610ae6565b005b61045c60048036038101906104579190611579565b610b69565b005b610478600480360381019061047391906114e0565b610d41565b6040516104859190611638565b60405180910390f35b6104a860048036038101906104a39190611653565b610d54565b6040516104b591906114c5565b60405180910390f35b600460003373ffffffffffffffffffffffffffffffffffffffff1673ffffffffffffffffffffffffffffffffffffffff16815260200190815260200160002060009054906101000a900460ff1661054a576040517f08c379a00000000000000000000000000000000000000000000000000000000081526004016105419061174e565b60405180910390fd5b610555838383610d79565b505050565b6000610577826105698561057f565b610e0290919063ffffffff16565b905092915050565b60006105c082600261059191906118d0565b7f0000000000000000000000000000000000000000000000000000000000000000610e0290919063ffffffff16565b9050919050565b6105cf611369565b60008083815260200190815260200160002060405180606001604052908160008201548152602001600182015481526020016002820154815250509050919050565b600460003373ffffffffffffffffffffffffffffffffffffffff1673ffffffffffffffffffffffffffffffffffffffff16815260200190815260200160002060009054906101000a900460ff1661069d576040517f08c379a00000000000000000000000000000000000000000000000000000000081526004016106949061174e565b60405180910390fd5b6106af82826106aa610a60565b610e18565b5050565b600460003373ffffffffffffffffffffffffffffffffffffffff1673ffffffffffffffffffffffffffffffffffffffff16815260200190815260200160002060009054906101000a900460ff1661073f576040517f08c379a00000000000000000000000000000000000000000000000000000000081526004016107369061174e565b60405180910390fd5b6000610749610a60565b9050610756838284610d79565b505050565b610763610ec5565b61076d6000610f43565b565b60006020528060005260406000206000915090508060000154908060010154908060020154905083565b60006107e860016107da7f00000000000000000000000000000000000000000000000000000000000000006107cc610a60565b610e0290919063ffffffff16565b61100990919063ffffffff16565b905090565b6000806107f9836109ee565b9050600081131561080e57600091505061086d565b6108697f000000000000000000000000000000000000000000000000000000000000000061085b6005600a61084391906118d0565b8461084d9061191b565b61101f90919063ffffffff16565b610e0290919063ffffffff16565b9150505b919050565b60046020528060005260406000206000915054906101000a900460ff1681565b600581565b6001602052816000526040600020602052806000526040600020600091509150505481565b6000600360009054906101000a900473ffffffffffffffffffffffffffffffffffffffff16905090565b6108ee610ec5565b6001600460008373ffffffffffffffffffffffffffffffffffffffff1673ffffffffffffffffffffffffffffffffffffffff16815260200190815260200160002060006101000a81548160ff02191690831515021790555050565b6000600460008373ffffffffffffffffffffffffffffffffffffffff1673ffffffffffffffffffffffffffffffffffffffff16815260200190815260200160002060009054906101000a900460ff169050919050565b60006109e760016109d97f000000000000000000000000000000000000000000000000000000000000000085610e0290919063ffffffff16565b61100990919063ffffffff16565b9050919050565b60006109f8611035565b827f0000000000000000000000000000000000000000000000000000000000000000610a249190611963565b7f0000000000000000000000000000000000000000000000000000000000000000610a4f91906119db565b610a599190611a1f565b9050919050565b6000610ae16001610ad37f0000000000000000000000000000000000000000000000000000000000000000610ac57f0000000000000000000000000000000000000000000000000000000000000000610ab7611035565b61103d90919063ffffffff16565b610e0290919063ffffffff16565b61100990919063ffffffff16565b905090565b610aee610ec5565b600073ffffffffffffffffffffffffffffffffffffffff168173ffffffffffffffffffffffffffffffffffffffff1603610b5d576040517f08c379a0000000000000000000000000000000000000000000000000000000008152600401610b5490611ad4565b60405180910390fd5b610b6681610f43565b50565b600460003373ffffffffffffffffffffffffffffffffffffffff1673ffffffffffffffffffffffffffffffffffffffff16815260200190815260200160002060009054906101000a900460ff16610bf5576040517f08c379a0000000000000000000000000000000000000000000000000000000008152600401610bec9061174e565b60405180910390fd5b80610bff81610d41565b610c3e576040517f08c379a0000000000000000000000000000000000000000000000000000000008152600401610c3590611b40565b60405180910390fd5b6000610c7c8385610c77610c518761099f565b7f000000000000000000000000000000000000000000000000000000000000000061055a565b611053565b9050610c89838583611107565b60008103610c975750610d3c565b600560009054906101000a900473ffffffffffffffffffffffffffffffffffffffff1673ffffffffffffffffffffffffffffffffffffffff1663a2c7670e3086846040518463ffffffff1660e01b8152600401610cf693929190611b60565b6020604051808303816000875af1158015610d15573d6000803e3d6000fd5b505050506040513d601f19601f82011682018060405250810190610d399190611bc3565b50505b505050565b6000610d4b610a60565b82109050919050565b6002602052816000526040600020602052806000526040600020600091509150505481565b60006001600084815260200190815260200160002060008573ffffffffffffffffffffffffffffffffffffffff1673ffffffffffffffffffffffffffffffffffffffff16815260200190815260200160002054905060008103610ddc5750610dfd565b6000808311610deb5781610ded565b825b9050610dfa8585836111b8565b50505b505050565b60008183610e109190611c1f565b905092915050565b610e40826000808481526020019081526020016000206002015461100990919063ffffffff16565b60008083815260200190815260200160002060020181905550816001600083815260200190815260200160002060008573ffffffffffffffffffffffffffffffffffffffff1673ffffffffffffffffffffffffffffffffffffffff1681526020019081526020016000206000828254610eb99190611c50565b92505081905550505050565b610ecd611361565b73ffffffffffffffffffffffffffffffffffffffff16610eeb6108bc565b73ffffffffffffffffffffffffffffffffffffffff1614610f41576040517f08c379a0000000000000000000000000000000000000000000000000000000008152600401610f3890611cd0565b60405180910390fd5b565b6000600360009054906101000a900473ffffffffffffffffffffffffffffffffffffffff16905081600360006101000a81548173ffffffffffffffffffffffffffffffffffffffff021916908373ffffffffffffffffffffffffffffffffffffffff1602179055508173ffffffffffffffffffffffffffffffffffffffff168173ffffffffffffffffffffffffffffffffffffffff167f8be0079c531659141344cd1fd0a4f28419497f9722a3daafe3b4186f6b6457e060405160405180910390a35050565b600081836110179190611c50565b905092915050565b6000818361102d9190611cf0565b905092915050565b600043905090565b6000818361104b9190611d32565b905092915050565b60008060008086815260200190815260200160002060020154905060006001600087815260200190815260200160002060008673ffffffffffffffffffffffffffffffffffffffff1673ffffffffffffffffffffffffffffffffffffffff168152602001908152602001600020549050600081036110d657600092505050611100565b6110fb826110ed868461101f90919063ffffffff16565b610e0290919063ffffffff16565b925050505b9392505050565b600080848152602001908152602001600020600001600081548092919061112d90611d66565b91905055508060008085815260200190815260200160002060010160008282546111579190611c50565b92505081905550806002600085815260200190815260200160002060008473ffffffffffffffffffffffffffffffffffffffff1673ffffffffffffffffffffffffffffffffffffffff16815260200190815260200160002081905550505050565b6001600083815260200190815260200160002060008473ffffffffffffffffffffffffffffffffffffffff1673ffffffffffffffffffffffffffffffffffffffff16815260200190815260200160002054811115611264576001600083815260200190815260200160002060008473ffffffffffffffffffffffffffffffffffffffff1673ffffffffffffffffffffffffffffffffffffffff1681526020019081526020016000205490505b61128c816000808581526020019081526020016000206002015461103d90919063ffffffff16565b60008084815260200190815260200160002060020181905550611308816001600085815260200190815260200160002060008673ffffffffffffffffffffffffffffffffffffffff1673ffffffffffffffffffffffffffffffffffffffff1681526020019081526020016000205461103d90919063ffffffff16565b6001600084815260200190815260200160002060008573ffffffffffffffffffffffffffffffffffffffff1673ffffffffffffffffffffffffffffffffffffffff16815260200190815260200160002081905550505050565b600033905090565b60405180606001604052806000815260200160008152602001600081525090565b600080fd5b600073ffffffffffffffffffffffffffffffffffffffff82169050919050565b60006113ba8261138f565b9050919050565b6113ca816113af565b81146113d557600080fd5b50565b6000813590506113e7816113c1565b92915050565b6000819050919050565b611400816113ed565b811461140b57600080fd5b50565b60008135905061141d816113f7565b92915050565b60008060006060848603121561143c5761143b61138a565b5b600061144a868287016113d8565b935050602061145b8682870161140e565b925050604061146c8682870161140e565b9150509250925092565b6000806040838503121561148d5761148c61138a565b5b600061149b8582860161140e565b92505060206114ac8582860161140e565b9150509250929050565b6114bf816113ed565b82525050565b60006020820190506114da60008301846114b6565b92915050565b6000602082840312156114f6576114f561138a565b5b60006115048482850161140e565b91505092915050565b611516816113ed565b82525050565b606082016000820151611532600085018261150d565b506020820151611545602085018261150d565b506040820151611558604085018261150d565b50505050565b6000606082019050611573600083018461151c565b92915050565b600080604083850312156115905761158f61138a565b5b600061159e858286016113d8565b92505060206115af8582860161140e565b9150509250929050565b60006060820190506115ce60008301866114b6565b6115db60208301856114b6565b6115e860408301846114b6565b949350505050565b6000602082840312156116065761160561138a565b5b6000611614848285016113d8565b91505092915050565b60008115159050919050565b6116328161161d565b82525050565b600060208201905061164d6000830184611629565b92915050565b6000806040838503121561166a5761166961138a565b5b60006116788582860161140e565b9250506020611689858286016113d8565b9150509250929050565b61169c816113af565b82525050565b60006020820190506116b76000830184611693565b92915050565b6000819050919050565b6116d0816116bd565b82525050565b60006020820190506116eb60008301846116c7565b92915050565b600082825260208201905092915050565b7f4e6f7420616c6c6f7765642063616c6c65720000000000000000000000000000600082015250565b60006117386012836116f1565b915061174382611702565b602082019050919050565b600060208201905081810360008301526117678161172b565b9050919050565b7f4e487b7100000000000000000000000000000000000000000000000000000000600052601160045260246000fd5b60008160011c9050919050565b6000808291508390505b60018511156117f4578086048111156117d0576117cf61176e565b5b60018516156117df5780820291505b80810290506117ed8561179d565b94506117b4565b94509492505050565b60008261180d57600190506118c9565b8161181b57600090506118c9565b8160018114611831576002811461183b5761186a565b60019150506118c9565b60ff84111561184d5761184c61176e565b5b8360020a9150848211156118645761186361176e565b5b506118c9565b5060208310610133831016604e8410600b841016171561189f5782820a90508381111561189a5761189961176e565b5b6118c9565b6118ac84848460016117aa565b925090508184048111156118c3576118c261176e565b5b81810290505b9392505050565b60006118db826113ed565b91506118e6836113ed565b92506119137fffffffffffffffffffffffffffffffffffffffffffffffffffffffffffffffff84846117fd565b905092915050565b6000611926826116bd565b91507f800000000000000000000000000000000000000000000000000000000000000082036119585761195761176e565b5b816000039050919050565b600061196e826116bd565b9150611979836116bd565b9250828202611987816116bd565b91507f800000000000000000000000000000000000000000000000000000000000000084146000841216156119bf576119be61176e565b5b82820584148315176119d4576119d361176e565b5b5092915050565b60006119e6826116bd565b91506119f1836116bd565b925082820190508281121560008312168382126000841215161715611a1957611a1861176e565b5b92915050565b6000611a2a826116bd565b9150611a35836116bd565b9250828203905081811260008412168282136000851215161715611a5c57611a5b61176e565b5b92915050565b7f4f776e61626c653a206e6577206f776e657220697320746865207a65726f206160008201527f6464726573730000000000000000000000000000000000000000000000000000602082015250565b6000611abe6026836116f1565b9150611ac982611a62565b604082019050919050565b60006020820190508181036000830152611aed81611ab1565b9050919050565b7f596f752063616e277420617070726f7665207965740000000000000000000000600082015250565b6000611b2a6015836116f1565b9150611b3582611af4565b602082019050919050565b60006020820190508181036000830152611b5981611b1d565b9050919050565b6000606082019050611b756000830186611693565b611b826020830185611693565b611b8f60408301846114b6565b949350505050565b611ba08161161d565b8114611bab57600080fd5b50565b600081519050611bbd81611b97565b92915050565b600060208284031215611bd957611bd861138a565b5b6000611be784828501611bae565b91505092915050565b7f4e487b7100000000000000000000000000000000000000000000000000000000600052601260045260246000fd5b6000611c2a826113ed565b9150611c35836113ed565b925082611c4557611c44611bf0565b5b828204905092915050565b6000611c5b826113ed565b9150611c66836113ed565b9250828201905080821115611c7e57611c7d61176e565b5b92915050565b7f4f776e61626c653a2063616c6c6572206973206e6f7420746865206f776e6572600082015250565b6000611cba6020836116f1565b9150611cc582611c84565b602082019050919050565b60006020820190508181036000830152611ce981611cad565b9050919050565b6000611cfb826113ed565b9150611d06836113ed565b9250828202611d14816113ed565b91508282048414831517611d2b57611d2a61176e565b5b5092915050565b6000611d3d826113ed565b9150611d48836113ed565b9250828203905081811115611d6057611d5f61176e565b5b92915050565b6000611d71826113ed565b91507fffffffffffffffffffffffffffffffffffffffffffffffffffffffffffffffff8203611da357611da261176e565b5b60018201905091905056fea2646970667358221220e8a15773968bde3931aff9d11deb1c2f5042cc24110cf71676c1d42db144a93364736f6c634300081b0033",
  "linkReferences": {},
  "deployedLinkReferences": {}
}