{
  "_format": "hh-sol-artifact-1",
  "contractName": "RegeneratorRules",
  "sourceName": "contracts/RegeneratorRules.sol",
  "abi": [
    {
      "inputs": [
        {
          "internalType": "address",
          "name": "communityRulesAddress",
          "type": "address"
        },
        {
          "internalType": "address",
          "name": "regeneratorPoolAddress",
          "type": "address"
        }
      ],
      "stateMutability": "nonpayable",
      "type": "constructor"
    },
    {
      "anonymous": false,
      "inputs": [
        {
          "indexed": true,
          "internalType": "address",
          "name": "previousOwner",
          "type": "address"
        },
        {
          "indexed": true,
          "internalType": "address",
          "name": "newOwner",
          "type": "address"
        }
      ],
      "name": "OwnershipTransferred",
      "type": "event"
    },
    {
      "inputs": [
        {
          "internalType": "uint256",
          "name": "totalArea",
          "type": "uint256"
        },
        {
          "internalType": "string",
          "name": "name",
          "type": "string"
        },
        {
          "internalType": "string",
          "name": "proofPhoto",
          "type": "string"
        },
        {
          "components": [
            {
              "internalType": "string",
              "name": "latitude",
              "type": "string"
            },
            {
              "internalType": "string",
              "name": "longitude",
              "type": "string"
            }
          ],
          "internalType": "struct Coordinates[]",
          "name": "_coordinates",
          "type": "tuple[]"
        }
      ],
      "name": "addRegenerator",
      "outputs": [],
      "stateMutability": "nonpayable",
      "type": "function"
    },
    {
      "inputs": [
        {
          "internalType": "address",
          "name": "addr",
          "type": "address"
        }
      ],
      "name": "afterAcceptInspection",
      "outputs": [],
      "stateMutability": "nonpayable",
      "type": "function"
    },
    {
      "inputs": [
        {
          "internalType": "address",
          "name": "addr",
          "type": "address"
        },
        {
          "internalType": "uint256",
          "name": "score",
          "type": "uint256"
        }
      ],
      "name": "afterRealizeInspection",
      "outputs": [
        {
          "internalType": "uint256",
          "name": "",
          "type": "uint256"
        }
      ],
      "stateMutability": "nonpayable",
      "type": "function"
    },
    {
      "inputs": [
        {
          "internalType": "address",
          "name": "addr",
          "type": "address"
        }
      ],
      "name": "afterRequestInspection",
      "outputs": [],
      "stateMutability": "nonpayable",
      "type": "function"
    },
    {
      "inputs": [
        {
          "internalType": "address",
          "name": "",
          "type": "address"
        }
      ],
      "name": "allowedCallers",
      "outputs": [
        {
          "internalType": "bool",
          "name": "",
          "type": "bool"
        }
      ],
      "stateMutability": "view",
      "type": "function"
    },
    {
      "inputs": [
        {
          "internalType": "address",
          "name": "",
          "type": "address"
        },
        {
          "internalType": "uint256",
          "name": "",
          "type": "uint256"
        }
      ],
      "name": "coordinates",
      "outputs": [
        {
          "internalType": "string",
          "name": "latitude",
          "type": "string"
        },
        {
          "internalType": "string",
          "name": "longitude",
          "type": "string"
        }
      ],
      "stateMutability": "view",
      "type": "function"
    },
    {
      "inputs": [
        {
          "internalType": "address",
          "name": "addr",
          "type": "address"
        }
      ],
      "name": "decrementInspections",
      "outputs": [],
      "stateMutability": "nonpayable",
      "type": "function"
    },
    {
      "inputs": [
        {
          "internalType": "address",
          "name": "addr",
          "type": "address"
        }
      ],
      "name": "getRegenerator",
      "outputs": [
        {
          "components": [
            {
              "internalType": "uint256",
              "name": "id",
              "type": "uint256"
            },
            {
              "internalType": "address",
              "name": "regeneratorWallet",
              "type": "address"
            },
            {
              "internalType": "string",
              "name": "name",
              "type": "string"
            },
            {
              "internalType": "string",
              "name": "proofPhoto",
              "type": "string"
            },
            {
              "internalType": "uint256",
              "name": "totalArea",
              "type": "uint256"
            },
            {
              "internalType": "bool",
              "name": "pendingInspection",
              "type": "bool"
            },
            {
              "internalType": "uint256",
              "name": "totalInspections",
              "type": "uint256"
            },
            {
              "internalType": "uint256",
              "name": "lastRequestAt",
              "type": "uint256"
            },
            {
              "components": [
                {
                  "internalType": "uint256",
                  "name": "score",
                  "type": "uint256"
                }
              ],
              "internalType": "struct RegenerationScore",
              "name": "regenerationScore",
              "type": "tuple"
            },
            {
              "components": [
                {
                  "internalType": "bool",
                  "name": "onContractPool",
                  "type": "bool"
                },
                {
                  "internalType": "uint256",
                  "name": "currentEra",
                  "type": "uint256"
                }
              ],
              "internalType": "struct Pool",
              "name": "pool",
              "type": "tuple"
            },
            {
              "internalType": "uint256",
              "name": "createdAt",
              "type": "uint256"
            },
            {
              "internalType": "uint256",
              "name": "coordinatesCount",
              "type": "uint256"
            }
          ],
          "internalType": "struct Regenerator",
          "name": "regenerator",
          "type": "tuple"
        }
      ],
      "stateMutability": "view",
      "type": "function"
    },
    {
      "inputs": [
        {
          "internalType": "address",
          "name": "",
          "type": "address"
        }
      ],
      "name": "impactRegenerators",
      "outputs": [
        {
          "internalType": "bool",
          "name": "",
          "type": "bool"
        }
      ],
      "stateMutability": "view",
      "type": "function"
    },
    {
      "inputs": [
        {
          "internalType": "address",
          "name": "caller",
          "type": "address"
        }
      ],
      "name": "isAllowedCaller",
      "outputs": [
        {
          "internalType": "bool",
          "name": "",
          "type": "bool"
        }
      ],
      "stateMutability": "view",
      "type": "function"
    },
    {
      "inputs": [
        {
          "internalType": "address",
          "name": "allowed",
          "type": "address"
        }
      ],
      "name": "newAllowedCaller",
      "outputs": [],
      "stateMutability": "nonpayable",
      "type": "function"
    },
    {
      "inputs": [],
      "name": "nextEraIn",
      "outputs": [
        {
          "internalType": "uint256",
          "name": "",
          "type": "uint256"
        }
      ],
      "stateMutability": "view",
      "type": "function"
    },
    {
      "inputs": [],
      "name": "owner",
      "outputs": [
        {
          "internalType": "address",
          "name": "",
          "type": "address"
        }
      ],
      "stateMutability": "view",
      "type": "function"
    },
    {
      "inputs": [],
      "name": "regenerationArea",
      "outputs": [
        {
          "internalType": "uint256",
          "name": "",
          "type": "uint256"
        }
      ],
      "stateMutability": "view",
      "type": "function"
    },
    {
      "inputs": [],
      "name": "regenerationTotalArea",
      "outputs": [
        {
          "internalType": "uint256",
          "name": "",
          "type": "uint256"
        }
      ],
      "stateMutability": "view",
      "type": "function"
    },
    {
      "inputs": [
        {
          "internalType": "address",
          "name": "addr",
          "type": "address"
        }
      ],
      "name": "regeneratorExists",
      "outputs": [
        {
          "internalType": "bool",
          "name": "",
          "type": "bool"
        }
      ],
      "stateMutability": "view",
      "type": "function"
    },
    {
      "inputs": [],
      "name": "regeneratorPoolEra",
      "outputs": [
        {
          "internalType": "uint256",
          "name": "",
          "type": "uint256"
        }
      ],
      "stateMutability": "view",
      "type": "function"
    },
    {
      "inputs": [
        {
          "internalType": "address",
          "name": "",
          "type": "address"
        }
      ],
      "name": "regenerators",
      "outputs": [
        {
          "internalType": "uint256",
          "name": "id",
          "type": "uint256"
        },
        {
          "internalType": "address",
          "name": "regeneratorWallet",
          "type": "address"
        },
        {
          "internalType": "string",
          "name": "name",
          "type": "string"
        },
        {
          "internalType": "string",
          "name": "proofPhoto",
          "type": "string"
        },
        {
          "internalType": "uint256",
          "name": "totalArea",
          "type": "uint256"
        },
        {
          "internalType": "bool",
          "name": "pendingInspection",
          "type": "bool"
        },
        {
          "internalType": "uint256",
          "name": "totalInspections",
          "type": "uint256"
        },
        {
          "internalType": "uint256",
          "name": "lastRequestAt",
          "type": "uint256"
        },
        {
          "components": [
            {
              "internalType": "uint256",
              "name": "score",
              "type": "uint256"
            }
          ],
          "internalType": "struct RegenerationScore",
          "name": "regenerationScore",
          "type": "tuple"
        },
        {
          "components": [
            {
              "internalType": "bool",
              "name": "onContractPool",
              "type": "bool"
            },
            {
              "internalType": "uint256",
              "name": "currentEra",
              "type": "uint256"
            }
          ],
          "internalType": "struct Pool",
          "name": "pool",
          "type": "tuple"
        },
        {
          "internalType": "uint256",
          "name": "createdAt",
          "type": "uint256"
        },
        {
          "internalType": "uint256",
          "name": "coordinatesCount",
          "type": "uint256"
        }
      ],
      "stateMutability": "view",
      "type": "function"
    },
    {
      "inputs": [
        {
          "internalType": "uint256",
          "name": "",
          "type": "uint256"
        }
      ],
      "name": "regeneratorsAddress",
      "outputs": [
        {
          "internalType": "address",
          "name": "",
          "type": "address"
        }
      ],
      "stateMutability": "view",
      "type": "function"
    },
    {
      "inputs": [
        {
          "internalType": "address",
          "name": "addr",
          "type": "address"
        },
        {
          "internalType": "uint256",
          "name": "removeSomeLevels",
          "type": "uint256"
        }
      ],
      "name": "removePoolLevels",
      "outputs": [],
      "stateMutability": "nonpayable",
      "type": "function"
    },
    {
      "inputs": [],
      "name": "renounceOwnership",
      "outputs": [],
      "stateMutability": "nonpayable",
      "type": "function"
    },
    {
      "inputs": [],
      "name": "totalImpactRegenerators",
      "outputs": [
        {
          "internalType": "uint256",
          "name": "",
          "type": "uint256"
        }
      ],
      "stateMutability": "view",
      "type": "function"
    },
    {
      "inputs": [
        {
          "internalType": "address",
          "name": "newOwner",
          "type": "address"
        }
      ],
      "name": "transferOwnership",
      "outputs": [],
      "stateMutability": "nonpayable",
      "type": "function"
    },
    {
      "inputs": [],
      "name": "withdraw",
      "outputs": [],
      "stateMutability": "nonpayable",
      "type": "function"
    }
  ],
  "bytecode": "0x608060405234801561001057600080fd5b5060405161422838038061422883398181016040528101906100329190610206565b61004e6100436100d760201b60201c565b6100df60201b60201c565b81600660006101000a81548173ffffffffffffffffffffffffffffffffffffffff021916908373ffffffffffffffffffffffffffffffffffffffff16021790555080600760006101000a81548173ffffffffffffffffffffffffffffffffffffffff021916908373ffffffffffffffffffffffffffffffffffffffff1602179055505050610246565b600033905090565b60008060009054906101000a900473ffffffffffffffffffffffffffffffffffffffff169050816000806101000a81548173ffffffffffffffffffffffffffffffffffffffff021916908373ffffffffffffffffffffffffffffffffffffffff1602179055508173ffffffffffffffffffffffffffffffffffffffff168173ffffffffffffffffffffffffffffffffffffffff167f8be0079c531659141344cd1fd0a4f28419497f9722a3daafe3b4186f6b6457e060405160405180910390a35050565b600080fd5b600073ffffffffffffffffffffffffffffffffffffffff82169050919050565b60006101d3826101a8565b9050919050565b6101e3816101c8565b81146101ee57600080fd5b50565b600081519050610200816101da565b92915050565b6000806040838503121561021d5761021c6101a3565b5b600061022b858286016101f1565b925050602061023c858286016101f1565b9150509250929050565b613fd3806102556000396000f3fe608060405234801561001057600080fd5b50600436106101585760003560e01c806385b5ee9b116100c3578063c3c983d21161007c578063c3c983d2146103d2578063c85a58ff146103ee578063cec6df7f1461041f578063e57637f01461043b578063e8f3c27a1461046b578063f2fde38b1461048957610158565b806385b5ee9b146102fe5780638da5cb5b1461032e5780638f93716f1461034c57806394c3cee914610368578063a680125814610384578063a6bae8b0146103b457610158565b8063442f962511610115578063442f96251461023a57806345e0e89a14610258578063582256f11461027657806365ab21b014610294578063715018a6146102c45780637b334154146102ce57610158565b8063037f944d1461015d57806318ad5c9a1461018d5780631db64204146101a95780632b4d8eae146101c557806330d91ee1146102005780633ccfd60b14610230575b600080fd5b61017760048036038101906101729190612d0f565b6104a5565b6040516101849190612d57565b60405180910390f35b6101a760048036038101906101a29190612da8565b6104f3565b005b6101c360048036038101906101be9190612d0f565b610953565b005b6101df60048036038101906101da9190612d0f565b6109ed565b6040516101f79c9b9a99989796959493929190612eff565b60405180910390f35b61021a60048036038101906102159190612da8565b610bcd565b6040516102279190612fc7565b60405180910390f35b610238610c7c565b005b610242611113565b60405161024f9190612fc7565b60405180910390f35b610260611119565b60405161026d9190612fc7565b60405180910390f35b61027e611123565b60405161028b9190612fc7565b60405180910390f35b6102ae60048036038101906102a99190612d0f565b6111cd565b6040516102bb9190613191565b60405180910390f35b6102cc61144f565b005b6102e860048036038101906102e39190612d0f565b611463565b6040516102f59190612d57565b60405180910390f35b61031860048036038101906103139190612d0f565b611483565b6040516103259190612d57565b60405180910390f35b6103366114a3565b60405161034391906131b3565b60405180910390f35b61036660048036038101906103619190612d0f565b6114cc565b005b610382600480360381019061037d9190612d0f565b61152e565b005b61039e60048036038101906103999190612d0f565b6115d2565b6040516103ab9190612d57565b60405180910390f35b6103bc611628565b6040516103c99190612fc7565b60405180910390f35b6103ec60048036038101906103e79190612d0f565b61162e565b005b61040860048036038101906104039190612da8565b611855565b6040516104169291906131ce565b60405180910390f35b610439600480360381019061043491906134b2565b6119a6565b005b6104556004803603810190610450919061356d565b6121b6565b60405161046291906131b3565b60405180910390f35b6104736121e9565b6040516104809190612fc7565b60405180910390f35b6104a3600480360381019061049e9190612d0f565b612281565b005b600080600260008473ffffffffffffffffffffffffffffffffffffffff1673ffffffffffffffffffffffffffffffffffffffff16815260200190815260200160002060000154119050919050565b600160003373ffffffffffffffffffffffffffffffffffffffff1673ffffffffffffffffffffffffffffffffffffffff16815260200190815260200160002060009054906101000a900460ff1661057f576040517f08c379a0000000000000000000000000000000000000000000000000000000008152600401610576906135e6565b60405180910390fd5b6000600260008473ffffffffffffffffffffffffffffffffffffffff1673ffffffffffffffffffffffffffffffffffffffff16815260200190815260200160002060405180610180016040529081600082015481526020016001820160009054906101000a900473ffffffffffffffffffffffffffffffffffffffff1673ffffffffffffffffffffffffffffffffffffffff1673ffffffffffffffffffffffffffffffffffffffff16815260200160028201805461063c90613635565b80601f016020809104026020016040519081016040528092919081815260200182805461066890613635565b80156106b55780601f1061068a576101008083540402835291602001916106b5565b820191906000526020600020905b81548152906001019060200180831161069857829003601f168201915b505050505081526020016003820180546106ce90613635565b80601f01602080910402602001604051908101604052809291908181526020018280546106fa90613635565b80156107475780601f1061071c57610100808354040283529160200191610747565b820191906000526020600020905b81548152906001019060200180831161072a57829003601f168201915b50505050508152602001600482015481526020016005820160009054906101000a900460ff161515151581526020016006820154815260200160078201548152602001600882016040518060200160405290816000820154815250508152602001600982016040518060400160405290816000820160009054906101000a900460ff161515151581526020016001820154815250508152602001600b8201548152602001600c82015481525050905060008203610857576000600260008573ffffffffffffffffffffffffffffffffffffffff1673ffffffffffffffffffffffffffffffffffffffff1681526020019081526020016000206008016000018190555061085283612304565b6108b4565b81600260008573ffffffffffffffffffffffffffffffffffffffff1673ffffffffffffffffffffffffffffffffffffffff16815260200190815260200160002060080160000160008282546108ac9190613695565b925050819055505b600760009054906101000a900473ffffffffffffffffffffffffffffffffffffffff1673ffffffffffffffffffffffffffffffffffffffff1663157ffc528483610120015160200151856040518463ffffffff1660e01b815260040161091c939291906136c9565b600060405180830381600087803b15801561093657600080fd5b505af115801561094a573d6000803e3d6000fd5b50505050505050565b600160003373ffffffffffffffffffffffffffffffffffffffff1673ffffffffffffffffffffffffffffffffffffffff16815260200190815260200160002060009054906101000a900460ff166109df576040517f08c379a00000000000000000000000000000000000000000000000000000000081526004016109d6906135e6565b60405180910390fd5b6109ea816000612362565b50565b60026020528060005260406000206000915090508060000154908060010160009054906101000a900473ffffffffffffffffffffffffffffffffffffffff1690806002018054610a3c90613635565b80601f0160208091040260200160405190810160405280929190818152602001828054610a6890613635565b8015610ab55780601f10610a8a57610100808354040283529160200191610ab5565b820191906000526020600020905b815481529060010190602001808311610a9857829003601f168201915b505050505090806003018054610aca90613635565b80601f0160208091040260200160405190810160405280929190818152602001828054610af690613635565b8015610b435780601f10610b1857610100808354040283529160200191610b43565b820191906000526020600020905b815481529060010190602001808311610b2657829003601f168201915b5050505050908060040154908060050160009054906101000a900460ff16908060060154908060070154908060080160405180602001604052908160008201548152505090806009016040518060400160405290816000820160009054906101000a900460ff161515151581526020016001820154815250509080600b01549080600c015490508c565b6000600160003373ffffffffffffffffffffffffffffffffffffffff1673ffffffffffffffffffffffffffffffffffffffff16815260200190815260200160002060009054906101000a900460ff16610c5b576040517f08c379a0000000000000000000000000000000000000000000000000000000008152600401610c52906135e6565b60405180910390fd5b6000610c66846123c0565b9050610c728484612526565b8091505092915050565b600660009054906101000a900473ffffffffffffffffffffffffffffffffffffffff1673ffffffffffffffffffffffffffffffffffffffff16639497c6086001336040518363ffffffff1660e01b8152600401610cda929190613777565b602060405180830381865afa158015610cf7573d6000803e3d6000fd5b505050506040513d601f19601f82011682018060405250810190610d1b91906137cc565b610d5a576040517f08c379a0000000000000000000000000000000000000000000000000000000008152600401610d5190613845565b60405180910390fd5b6000600260003373ffffffffffffffffffffffffffffffffffffffff1673ffffffffffffffffffffffffffffffffffffffff16815260200190815260200160002060405180610180016040529081600082015481526020016001820160009054906101000a900473ffffffffffffffffffffffffffffffffffffffff1673ffffffffffffffffffffffffffffffffffffffff1673ffffffffffffffffffffffffffffffffffffffff168152602001600282018054610e1790613635565b80601f0160208091040260200160405190810160405280929190818152602001828054610e4390613635565b8015610e905780601f10610e6557610100808354040283529160200191610e90565b820191906000526020600020905b815481529060010190602001808311610e7357829003601f168201915b50505050508152602001600382018054610ea990613635565b80601f0160208091040260200160405190810160405280929190818152602001828054610ed590613635565b8015610f225780601f10610ef757610100808354040283529160200191610f22565b820191906000526020600020905b815481529060010190602001808311610f0557829003601f168201915b50505050508152602001600482015481526020016005820160009054906101000a900460ff161515151581526020016006820154815260200160078201548152602001600882016040518060200160405290816000820154815250508152602001600982016040518060400160405290816000820160009054906101000a900460ff161515151581526020016001820154815250508152602001600b8201548152602001600c820154815250509050610fde8160c00151612a46565b61101d576040517f08c379a0000000000000000000000000000000000000000000000000000000008152600401611014906138b1565b60405180910390fd5b600260003373ffffffffffffffffffffffffffffffffffffffff1673ffffffffffffffffffffffffffffffffffffffff1681526020019081526020016000206009016001016000815480929190611073906138d1565b9190505550600760009054906101000a900473ffffffffffffffffffffffffffffffffffffffff1673ffffffffffffffffffffffffffffffffffffffff1663f3fef3a333836101200151602001516040518363ffffffff1660e01b81526004016110de929190613919565b600060405180830381600087803b1580156110f857600080fd5b505af115801561110c573d6000803e3d6000fd5b5050505050565b60095481565b6000600954905090565b6000600760009054906101000a900473ffffffffffffffffffffffffffffffffffffffff1673ffffffffffffffffffffffffffffffffffffffff1663d5ee3eb561116b6121e9565b6040518263ffffffff1660e01b81526004016111879190612fc7565b602060405180830381865afa1580156111a4573d6000803e3d6000fd5b505050506040513d601f19601f820116820180604052508101906111c89190613978565b905090565b6111d5612be9565b600260008373ffffffffffffffffffffffffffffffffffffffff1673ffffffffffffffffffffffffffffffffffffffff16815260200190815260200160002060405180610180016040529081600082015481526020016001820160009054906101000a900473ffffffffffffffffffffffffffffffffffffffff1673ffffffffffffffffffffffffffffffffffffffff1673ffffffffffffffffffffffffffffffffffffffff16815260200160028201805461129090613635565b80601f01602080910402602001604051908101604052809291908181526020018280546112bc90613635565b80156113095780601f106112de57610100808354040283529160200191611309565b820191906000526020600020905b8154815290600101906020018083116112ec57829003601f168201915b5050505050815260200160038201805461132290613635565b80601f016020809104026020016040519081016040528092919081815260200182805461134e90613635565b801561139b5780601f106113705761010080835404028352916020019161139b565b820191906000526020600020905b81548152906001019060200180831161137e57829003601f168201915b50505050508152602001600482015481526020016005820160009054906101000a900460ff161515151581526020016006820154815260200160078201548152602001600882016040518060200160405290816000820154815250508152602001600982016040518060400160405290816000820160009054906101000a900460ff161515151581526020016001820154815250508152602001600b8201548152602001600c820154815250509050919050565b611457612a54565b6114616000612ad2565b565b60016020528060005260406000206000915054906101000a900460ff1681565b60056020528060005260406000206000915054906101000a900460ff1681565b60008060009054906101000a900473ffffffffffffffffffffffffffffffffffffffff16905090565b6114d4612a54565b60018060008373ffffffffffffffffffffffffffffffffffffffff1673ffffffffffffffffffffffffffffffffffffffff16815260200190815260200160002060006101000a81548160ff02191690831515021790555050565b600160003373ffffffffffffffffffffffffffffffffffffffff1673ffffffffffffffffffffffffffffffffffffffff16815260200190815260200160002060009054906101000a900460ff166115ba576040517f08c379a00000000000000000000000000000000000000000000000000000000081526004016115b1906135e6565b60405180910390fd5b6115c5816001612362565b6115cf8143612b96565b50565b6000600160008373ffffffffffffffffffffffffffffffffffffffff1673ffffffffffffffffffffffffffffffffffffffff16815260200190815260200160002060009054906101000a900460ff169050919050565b60085481565b600160003373ffffffffffffffffffffffffffffffffffffffff1673ffffffffffffffffffffffffffffffffffffffff16815260200190815260200160002060009054906101000a900460ff166116ba576040517f08c379a00000000000000000000000000000000000000000000000000000000081526004016116b1906135e6565b60405180910390fd5b6000600260008373ffffffffffffffffffffffffffffffffffffffff1673ffffffffffffffffffffffffffffffffffffffff168152602001908152602001600020600601541161173f576040517f08c379a0000000000000000000000000000000000000000000000000000000008152600401611736906139f1565b60405180910390fd5b6001600260008373ffffffffffffffffffffffffffffffffffffffff1673ffffffffffffffffffffffffffffffffffffffff16815260200190815260200160002060060154036117fa576008600081548092919061179c90613a11565b91905055506000600560008373ffffffffffffffffffffffffffffffffffffffff1673ffffffffffffffffffffffffffffffffffffffff16815260200190815260200160002060006101000a81548160ff0219169083151502179055505b600260008273ffffffffffffffffffffffffffffffffffffffff1673ffffffffffffffffffffffffffffffffffffffff168152602001908152602001600020600601600081548092919061184d90613a11565b919050555050565b6004602052816000526040600020818154811061187157600080fd5b90600052602060002090600202016000915091505080600001805461189590613635565b80601f01602080910402602001604051908101604052809291908181526020018280546118c190613635565b801561190e5780601f106118e35761010080835404028352916020019161190e565b820191906000526020600020905b8154815290600101906020018083116118f157829003601f168201915b50505050509080600101805461192390613635565b80601f016020809104026020016040519081016040528092919081815260200182805461194f90613635565b801561199c5780601f106119715761010080835404028352916020019161199c565b820191906000526020600020905b81548152906001019060200180831161197f57829003601f168201915b5050505050905082565b60038151101580156119ba5750600a815111155b6119f9576040517f08c379a00000000000000000000000000000000000000000000000000000000081526004016119f090613aac565b60405180910390fd5b6101f4841015611a3e576040517f08c379a0000000000000000000000000000000000000000000000000000000008152600401611a3590613b18565b60405180910390fd5b6000600260003373ffffffffffffffffffffffffffffffffffffffff1673ffffffffffffffffffffffffffffffffffffffff16815260200190815260200160002060405180610180016040529081600082015481526020016001820160009054906101000a900473ffffffffffffffffffffffffffffffffffffffff1673ffffffffffffffffffffffffffffffffffffffff1673ffffffffffffffffffffffffffffffffffffffff168152602001600282018054611afb90613635565b80601f0160208091040260200160405190810160405280929190818152602001828054611b2790613635565b8015611b745780601f10611b4957610100808354040283529160200191611b74565b820191906000526020600020905b815481529060010190602001808311611b5757829003601f168201915b50505050508152602001600382018054611b8d90613635565b80601f0160208091040260200160405190810160405280929190818152602001828054611bb990613635565b8015611c065780601f10611bdb57610100808354040283529160200191611c06565b820191906000526020600020905b815481529060010190602001808311611be957829003601f168201915b50505050508152602001600482015481526020016005820160009054906101000a900460ff161515151581526020016006820154815260200160078201548152602001600882016040518060200160405290816000820154815250508152602001600982016040518060400160405290816000820160009054906101000a900460ff161515151581526020016001820154815250508152602001600b8201548152602001600c82015481525050905060006001600660009054906101000a900473ffffffffffffffffffffffffffffffffffffffff1673ffffffffffffffffffffffffffffffffffffffff16631eb2c12060016040518263ffffffff1660e01b8152600401611d159190613b38565b602060405180830381865afa158015611d32573d6000803e3d6000fd5b505050506040513d601f19601f82011682018060405250810190611d569190613b68565b611d609190613b95565b90508082600001818152505033826020019073ffffffffffffffffffffffffffffffffffffffff16908173ffffffffffffffffffffffffffffffffffffffff1681525050848260400181905250838260600181905250858260800181815250506040518060400160405280600015158152602001600760009054906101000a900473ffffffffffffffffffffffffffffffffffffffff1673ffffffffffffffffffffffffffffffffffffffff1663ed0df79e6040518163ffffffff1660e01b8152600401602060405180830381865afa158015611e41573d6000803e3d6000fd5b505050506040513d601f19601f82011682018060405250810190611e659190613b68565b815250826101200181905250438261014001818152505082518261016001818152505081600260003373ffffffffffffffffffffffffffffffffffffffff1673ffffffffffffffffffffffffffffffffffffffff1681526020019081526020016000206000820151816000015560208201518160010160006101000a81548173ffffffffffffffffffffffffffffffffffffffff021916908373ffffffffffffffffffffffffffffffffffffffff1602179055506040820151816002019081611f2e9190613d75565b506060820151816003019081611f449190613d75565b506080820151816004015560a08201518160050160006101000a81548160ff02191690831515021790555060c0820151816006015560e08201518160070155610100820151816008016000820151816000015550506101208201518160090160008201518160000160006101000a81548160ff02191690831515021790555060208201518160010155505061014082015181600b015561016082015181600c0155905050336003600083815260200190815260200160002060006101000a81548173ffffffffffffffffffffffffffffffffffffffff021916908373ffffffffffffffffffffffffffffffffffffffff160217905550600660009054906101000a900473ffffffffffffffffffffffffffffffffffffffff1673ffffffffffffffffffffffffffffffffffffffff16639c3eead93360016040518363ffffffff1660e01b8152600401612098929190613e47565b600060405180830381600087803b1580156120b257600080fd5b505af11580156120c6573d6000803e3d6000fd5b5050505085600960008282546120dc9190613b95565b9250508190555060005b83518110156121ad57600460003373ffffffffffffffffffffffffffffffffffffffff1673ffffffffffffffffffffffffffffffffffffffff16815260200190815260200160002084828151811061214157612140613e70565b5b6020026020010151908060018154018082558091505060019003906000526020600020906002020160009091909190915060008201518160000190816121879190613d75565b50602082015181600101908161219d9190613d75565b50505080806001019150506120e6565b50505050505050565b60036020528060005260406000206000915054906101000a900473ffffffffffffffffffffffffffffffffffffffff1681565b6000600760009054906101000a900473ffffffffffffffffffffffffffffffffffffffff1673ffffffffffffffffffffffffffffffffffffffff1663ed0df79e6040518163ffffffff1660e01b8152600401602060405180830381865afa158015612258573d6000803e3d6000fd5b505050506040513d601f19601f8201168201806040525081019061227c9190613b68565b905090565b612289612a54565b600073ffffffffffffffffffffffffffffffffffffffff168173ffffffffffffffffffffffffffffffffffffffff16036122f8576040517f08c379a00000000000000000000000000000000000000000000000000000000081526004016122ef90613f11565b60405180910390fd5b61230181612ad2565b50565b600260008273ffffffffffffffffffffffffffffffffffffffff1673ffffffffffffffffffffffffffffffffffffffff16815260200190815260200160002060040154600960008282546123589190613695565b9250508190555050565b80600260008473ffffffffffffffffffffffffffffffffffffffff1673ffffffffffffffffffffffffffffffffffffffff16815260200190815260200160002060050160006101000a81548160ff0219169083151502179055505050565b6000600260008373ffffffffffffffffffffffffffffffffffffffff1673ffffffffffffffffffffffffffffffffffffffff1681526020019081526020016000206006016000815480929190612415906138d1565b9190505550600560008373ffffffffffffffffffffffffffffffffffffffff1673ffffffffffffffffffffffffffffffffffffffff16815260200190815260200160002060009054906101000a900460ff166124dc576001600560008473ffffffffffffffffffffffffffffffffffffffff1673ffffffffffffffffffffffffffffffffffffffff16815260200190815260200160002060006101000a81548160ff021916908315150217905550600860008154809291906124d6906138d1565b91905055505b600260008373ffffffffffffffffffffffffffffffffffffffff1673ffffffffffffffffffffffffffffffffffffffff168152602001908152602001600020600601549050919050565b6000600260008473ffffffffffffffffffffffffffffffffffffffff1673ffffffffffffffffffffffffffffffffffffffff16815260200190815260200160002060405180610180016040529081600082015481526020016001820160009054906101000a900473ffffffffffffffffffffffffffffffffffffffff1673ffffffffffffffffffffffffffffffffffffffff1673ffffffffffffffffffffffffffffffffffffffff1681526020016002820180546125e390613635565b80601f016020809104026020016040519081016040528092919081815260200182805461260f90613635565b801561265c5780601f106126315761010080835404028352916020019161265c565b820191906000526020600020905b81548152906001019060200180831161263f57829003601f168201915b5050505050815260200160038201805461267590613635565b80601f01602080910402602001604051908101604052809291908181526020018280546126a190613635565b80156126ee5780601f106126c3576101008083540402835291602001916126ee565b820191906000526020600020905b8154815290600101906020018083116126d157829003601f168201915b50505050508152602001600482015481526020016005820160009054906101000a900460ff161515151581526020016006820154815260200160078201548152602001600882016040518060200160405290816000820154815250508152602001600982016040518060400160405290816000820160009054906101000a900460ff161515151581526020016001820154815250508152602001600b8201548152602001600c820154815250509050818161010001516000018181516127b49190613b95565b9150818152505080600260008573ffffffffffffffffffffffffffffffffffffffff1673ffffffffffffffffffffffffffffffffffffffff1681526020019081526020016000206000820151816000015560208201518160010160006101000a81548173ffffffffffffffffffffffffffffffffffffffff021916908373ffffffffffffffffffffffffffffffffffffffff16021790555060408201518160020190816128619190613d75565b5060608201518160030190816128779190613d75565b506080820151816004015560a08201518160050160006101000a81548160ff02191690831515021790555060c0820151816006015560e08201518160070155610100820151816008016000820151816000015550506101208201518160090160008201518160000160006101000a81548160ff02191690831515021790555060208201518160010155505061014082015181600b015561016082015181600c01559050506129288160c00151612a46565b6129325750612a42565b6000829050816101200151600001516129b0576001600260008673ffffffffffffffffffffffffffffffffffffffff1673ffffffffffffffffffffffffffffffffffffffff16815260200190815260200160002060090160000160006101000a81548160ff0219169083151502179055508161010001516000015190505b600760009054906101000a900473ffffffffffffffffffffffffffffffffffffffff1673ffffffffffffffffffffffffffffffffffffffff166352b8d3ed85836040518363ffffffff1660e01b8152600401612a0d929190613919565b600060405180830381600087803b158015612a2757600080fd5b505af1158015612a3b573d6000803e3d6000fd5b5050505050505b5050565b600060038210159050919050565b612a5c612be1565b73ffffffffffffffffffffffffffffffffffffffff16612a7a6114a3565b73ffffffffffffffffffffffffffffffffffffffff1614612ad0576040517f08c379a0000000000000000000000000000000000000000000000000000000008152600401612ac790613f7d565b60405180910390fd5b565b60008060009054906101000a900473ffffffffffffffffffffffffffffffffffffffff169050816000806101000a81548173ffffffffffffffffffffffffffffffffffffffff021916908373ffffffffffffffffffffffffffffffffffffffff1602179055508173ffffffffffffffffffffffffffffffffffffffff168173ffffffffffffffffffffffffffffffffffffffff167f8be0079c531659141344cd1fd0a4f28419497f9722a3daafe3b4186f6b6457e060405160405180910390a35050565b80600260008473ffffffffffffffffffffffffffffffffffffffff1673ffffffffffffffffffffffffffffffffffffffff168152602001908152602001600020600701819055505050565b600033905090565b60405180610180016040528060008152602001600073ffffffffffffffffffffffffffffffffffffffff1681526020016060815260200160608152602001600081526020016000151581526020016000815260200160008152602001612c4d612c6e565b8152602001612c5a612c81565b815260200160008152602001600081525090565b6040518060200160405280600081525090565b6040518060400160405280600015158152602001600081525090565b6000604051905090565b600080fd5b600080fd5b600073ffffffffffffffffffffffffffffffffffffffff82169050919050565b6000612cdc82612cb1565b9050919050565b612cec81612cd1565b8114612cf757600080fd5b50565b600081359050612d0981612ce3565b92915050565b600060208284031215612d2557612d24612ca7565b5b6000612d3384828501612cfa565b91505092915050565b60008115159050919050565b612d5181612d3c565b82525050565b6000602082019050612d6c6000830184612d48565b92915050565b6000819050919050565b612d8581612d72565b8114612d9057600080fd5b50565b600081359050612da281612d7c565b92915050565b60008060408385031215612dbf57612dbe612ca7565b5b6000612dcd85828601612cfa565b9250506020612dde85828601612d93565b9150509250929050565b612df181612d72565b82525050565b612e0081612cd1565b82525050565b600081519050919050565b600082825260208201905092915050565b60005b83811015612e40578082015181840152602081019050612e25565b60008484015250505050565b6000601f19601f8301169050919050565b6000612e6882612e06565b612e728185612e11565b9350612e82818560208601612e22565b612e8b81612e4c565b840191505092915050565b612e9f81612d72565b82525050565b602082016000820151612ebb6000850182612e96565b50505050565b612eca81612d3c565b82525050565b604082016000820151612ee66000850182612ec1565b506020820151612ef96020850182612e96565b50505050565b60006101a082019050612f15600083018f612de8565b612f22602083018e612df7565b8181036040830152612f34818d612e5d565b90508181036060830152612f48818c612e5d565b9050612f57608083018b612de8565b612f6460a083018a612d48565b612f7160c0830189612de8565b612f7e60e0830188612de8565b612f8c610100830187612ea5565b612f9a610120830186612ed0565b612fa8610160830185612de8565b612fb6610180830184612de8565b9d9c50505050505050505050505050565b6000602082019050612fdc6000830184612de8565b92915050565b612feb81612cd1565b82525050565b600082825260208201905092915050565b600061300d82612e06565b6130178185612ff1565b9350613027818560208601612e22565b61303081612e4c565b840191505092915050565b6020820160008201516130516000850182612e96565b50505050565b60408201600082015161306d6000850182612ec1565b5060208201516130806020850182612e96565b50505050565b60006101a08301600083015161309f6000860182612e96565b5060208301516130b26020860182612fe2565b50604083015184820360408601526130ca8282613002565b915050606083015184820360608601526130e48282613002565b91505060808301516130f96080860182612e96565b5060a083015161310c60a0860182612ec1565b5060c083015161311f60c0860182612e96565b5060e083015161313260e0860182612e96565b5061010083015161314761010086018261303b565b5061012083015161315c610120860182613057565b50610140830151613171610160860182612e96565b50610160830151613186610180860182612e96565b508091505092915050565b600060208201905081810360008301526131ab8184613086565b905092915050565b60006020820190506131c86000830184612df7565b92915050565b600060408201905081810360008301526131e88185612e5d565b905081810360208301526131fc8184612e5d565b90509392505050565b600080fd5b600080fd5b7f4e487b7100000000000000000000000000000000000000000000000000000000600052604160045260246000fd5b61324782612e4c565b810181811067ffffffffffffffff821117156132665761326561320f565b5b80604052505050565b6000613279612c9d565b9050613285828261323e565b919050565b600067ffffffffffffffff8211156132a5576132a461320f565b5b6132ae82612e4c565b9050602081019050919050565b82818337600083830152505050565b60006132dd6132d88461328a565b61326f565b9050828152602081018484840111156132f9576132f861320a565b5b6133048482856132bb565b509392505050565b600082601f83011261332157613320613205565b5b81356133318482602086016132ca565b91505092915050565b600067ffffffffffffffff8211156133555761335461320f565b5b602082029050602081019050919050565b600080fd5b600080fd5b600080fd5b60006040828403121561338b5761338a61336b565b5b613395604061326f565b9050600082013567ffffffffffffffff8111156133b5576133b4613370565b5b6133c18482850161330c565b600083015250602082013567ffffffffffffffff8111156133e5576133e4613370565b5b6133f18482850161330c565b60208301525092915050565b600061341061340b8461333a565b61326f565b9050808382526020820190506020840283018581111561343357613432613366565b5b835b8181101561347a57803567ffffffffffffffff81111561345857613457613205565b5b8086016134658982613375565b85526020850194505050602081019050613435565b5050509392505050565b600082601f83011261349957613498613205565b5b81356134a98482602086016133fd565b91505092915050565b600080600080608085870312156134cc576134cb612ca7565b5b60006134da87828801612d93565b945050602085013567ffffffffffffffff8111156134fb576134fa612cac565b5b6135078782880161330c565b935050604085013567ffffffffffffffff81111561352857613527612cac565b5b6135348782880161330c565b925050606085013567ffffffffffffffff81111561355557613554612cac565b5b61356187828801613484565b91505092959194509250565b60006020828403121561358357613582612ca7565b5b600061359184828501612d93565b91505092915050565b7f4e6f7420616c6c6f7765642063616c6c65720000000000000000000000000000600082015250565b60006135d0601283612e11565b91506135db8261359a565b602082019050919050565b600060208201905081810360008301526135ff816135c3565b9050919050565b7f4e487b7100000000000000000000000000000000000000000000000000000000600052602260045260246000fd5b6000600282049050600182168061364d57607f821691505b6020821081036136605761365f613606565b5b50919050565b7f4e487b7100000000000000000000000000000000000000000000000000000000600052601160045260246000fd5b60006136a082612d72565b91506136ab83612d72565b92508282039050818111156136c3576136c2613666565b5b92915050565b60006060820190506136de6000830186612df7565b6136eb6020830185612de8565b6136f86040830184612de8565b949350505050565b7f4e487b7100000000000000000000000000000000000000000000000000000000600052602160045260246000fd5b600a81106137405761373f613700565b5b50565b60008190506137518261372f565b919050565b600061376182613743565b9050919050565b61377181613756565b82525050565b600060408201905061378c6000830185613768565b6137996020830184612df7565b9392505050565b6137a981612d3c565b81146137b457600080fd5b50565b6000815190506137c6816137a0565b92915050565b6000602082840312156137e2576137e1612ca7565b5b60006137f0848285016137b7565b91505092915050565b7f4f6e6c7920726567656e657261746f727320706f6f6c00000000000000000000600082015250565b600061382f601683612e11565b915061383a826137f9565b602082019050919050565b6000602082019050818103600083015261385e81613822565b9050919050565b7f4d696e696d756d20696e7370656374696f6e7300000000000000000000000000600082015250565b600061389b601383612e11565b91506138a682613865565b602082019050919050565b600060208201905081810360008301526138ca8161388e565b9050919050565b60006138dc82612d72565b91507fffffffffffffffffffffffffffffffffffffffffffffffffffffffffffffffff820361390e5761390d613666565b5b600182019050919050565b600060408201905061392e6000830185612df7565b61393b6020830184612de8565b9392505050565b6000819050919050565b61395581613942565b811461396057600080fd5b50565b6000815190506139728161394c565b92915050565b60006020828403121561398e5761398d612ca7565b5b600061399c84828501613963565b91505092915050565b7f746f74616c496e7370656374696f6e7320696e76616c69640000000000000000600082015250565b60006139db601883612e11565b91506139e6826139a5565b602082019050919050565b60006020820190508181036000830152613a0a816139ce565b9050919050565b6000613a1c82612d72565b915060008203613a2f57613a2e613666565b5b600182039050919050565b7f4d696e696d756d203320616e64206d6178696d756d20313020636f6f7264696e60008201527f61746520706f696e747300000000000000000000000000000000000000000000602082015250565b6000613a96602a83612e11565b9150613aa182613a3a565b604082019050919050565b60006020820190508181036000830152613ac581613a89565b9050919050565b7f4d696e696d756d2035303020737175617265206d657465727300000000000000600082015250565b6000613b02601983612e11565b9150613b0d82613acc565b602082019050919050565b60006020820190508181036000830152613b3181613af5565b9050919050565b6000602082019050613b4d6000830184613768565b92915050565b600081519050613b6281612d7c565b92915050565b600060208284031215613b7e57613b7d612ca7565b5b6000613b8c84828501613b53565b91505092915050565b6000613ba082612d72565b9150613bab83612d72565b9250828201905080821115613bc357613bc2613666565b5b92915050565b60008190508160005260206000209050919050565b60006020601f8301049050919050565b600082821b905092915050565b600060088302613c2b7fffffffffffffffffffffffffffffffffffffffffffffffffffffffffffffffff82613bee565b613c358683613bee565b95508019841693508086168417925050509392505050565b6000819050919050565b6000613c72613c6d613c6884612d72565b613c4d565b612d72565b9050919050565b6000819050919050565b613c8c83613c57565b613ca0613c9882613c79565b848454613bfb565b825550505050565b600090565b613cb5613ca8565b613cc0818484613c83565b505050565b5b81811015613ce457613cd9600082613cad565b600181019050613cc6565b5050565b601f821115613d2957613cfa81613bc9565b613d0384613bde565b81016020851015613d12578190505b613d26613d1e85613bde565b830182613cc5565b50505b505050565b600082821c905092915050565b6000613d4c60001984600802613d2e565b1980831691505092915050565b6000613d658383613d3b565b9150826002028217905092915050565b613d7e82612e06565b67ffffffffffffffff811115613d9757613d9661320f565b5b613da18254613635565b613dac828285613ce8565b600060209050601f831160018114613ddf5760008415613dcd578287015190505b613dd78582613d59565b865550613e3f565b601f198416613ded86613bc9565b60005b82811015613e1557848901518255600182019150602085019450602081019050613df0565b86831015613e325784890151613e2e601f891682613d3b565b8355505b6001600288020188555050505b505050505050565b6000604082019050613e5c6000830185612df7565b613e696020830184613768565b9392505050565b7f4e487b7100000000000000000000000000000000000000000000000000000000600052603260045260246000fd5b7f4f776e61626c653a206e6577206f776e657220697320746865207a65726f206160008201527f6464726573730000000000000000000000000000000000000000000000000000602082015250565b6000613efb602683612e11565b9150613f0682613e9f565b604082019050919050565b60006020820190508181036000830152613f2a81613eee565b9050919050565b7f4f776e61626c653a2063616c6c6572206973206e6f7420746865206f776e6572600082015250565b6000613f67602083612e11565b9150613f7282613f31565b602082019050919050565b60006020820190508181036000830152613f9681613f5a565b905091905056fea2646970667358221220a52194cdd7f08368a0e920e31cce0c377889635f9a3b4678c453becbd5554af264736f6c634300081b0033",
  "linkReferences": {},
  "deployedLinkReferences": {}
}