{
  "_format": "hh-sol-artifact-1",
  "contractName": "RegeneratorRules",
  "sourceName": "contracts/RegeneratorRules.sol",
  "abi": [
    {
      "inputs": [
        {
          "internalType": "address",
          "name": "communityRulesAddress",
          "type": "address"
        },
        {
          "internalType": "address",
          "name": "regeneratorPoolAddress",
          "type": "address"
        }
      ],
      "stateMutability": "nonpayable",
      "type": "constructor"
    },
    {
      "anonymous": false,
      "inputs": [
        {
          "indexed": true,
          "internalType": "address",
          "name": "previousOwner",
          "type": "address"
        },
        {
          "indexed": true,
          "internalType": "address",
          "name": "newOwner",
          "type": "address"
        }
      ],
      "name": "OwnershipTransferred",
      "type": "event"
    },
    {
      "anonymous": false,
      "inputs": [
        {
          "indexed": true,
          "internalType": "address",
          "name": "regeneratorAddress",
          "type": "address"
        },
        {
          "indexed": false,
          "internalType": "uint256",
          "name": "blockNumber",
          "type": "uint256"
        }
      ],
      "name": "RegeneratorEnteredPool",
      "type": "event"
    },
    {
      "anonymous": false,
      "inputs": [
        {
          "indexed": true,
          "internalType": "uint256",
          "name": "id",
          "type": "uint256"
        },
        {
          "indexed": true,
          "internalType": "address",
          "name": "regeneratorAddress",
          "type": "address"
        },
        {
          "indexed": false,
          "internalType": "string",
          "name": "name",
          "type": "string"
        },
        {
          "indexed": false,
          "internalType": "uint32",
          "name": "totalArea",
          "type": "uint32"
        },
        {
          "indexed": false,
          "internalType": "uint256",
          "name": "blockNumber",
          "type": "uint256"
        }
      ],
      "name": "RegeneratorRegistered",
      "type": "event"
    },
    {
      "anonymous": false,
      "inputs": [
        {
          "indexed": true,
          "internalType": "address",
          "name": "regeneratorAddress",
          "type": "address"
        },
        {
          "indexed": true,
          "internalType": "uint256",
          "name": "era",
          "type": "uint256"
        },
        {
          "indexed": false,
          "internalType": "uint256",
          "name": "blockNumber",
          "type": "uint256"
        }
      ],
      "name": "RegeneratorWithdrawalInitiated",
      "type": "event"
    },
    {
      "inputs": [],
      "name": "MAX_REGENERATION_AREA",
      "outputs": [
        {
          "internalType": "uint32",
          "name": "",
          "type": "uint32"
        }
      ],
      "stateMutability": "view",
      "type": "function"
    },
    {
      "inputs": [],
      "name": "MINIMUM_INSPECTIONS_TO_POOL",
      "outputs": [
        {
          "internalType": "uint8",
          "name": "",
          "type": "uint8"
        }
      ],
      "stateMutability": "view",
      "type": "function"
    },
    {
      "inputs": [],
      "name": "MIN_REGENERATION_AREA",
      "outputs": [
        {
          "internalType": "uint32",
          "name": "",
          "type": "uint32"
        }
      ],
      "stateMutability": "view",
      "type": "function"
    },
    {
      "inputs": [
        {
          "internalType": "uint32",
          "name": "totalArea",
          "type": "uint32"
        },
        {
          "internalType": "string",
          "name": "name",
          "type": "string"
        },
        {
          "internalType": "string",
          "name": "proofPhoto",
          "type": "string"
        },
        {
          "internalType": "string",
          "name": "projectDescription",
          "type": "string"
        },
        {
          "components": [
            {
              "internalType": "string",
              "name": "latitude",
              "type": "string"
            },
            {
              "internalType": "string",
              "name": "longitude",
              "type": "string"
            }
          ],
          "internalType": "struct Coordinates[]",
          "name": "_coordinates",
          "type": "tuple[]"
        }
      ],
      "name": "addRegenerator",
      "outputs": [],
      "stateMutability": "nonpayable",
      "type": "function"
    },
    {
      "inputs": [
        {
          "internalType": "address",
          "name": "addr",
          "type": "address"
        }
      ],
      "name": "afterAcceptInspection",
      "outputs": [],
      "stateMutability": "nonpayable",
      "type": "function"
    },
    {
      "inputs": [
        {
          "internalType": "address",
          "name": "addr",
          "type": "address"
        },
        {
          "internalType": "uint32",
          "name": "score",
          "type": "uint32"
        }
      ],
      "name": "afterRealizeInspection",
      "outputs": [
        {
          "internalType": "uint256",
          "name": "",
          "type": "uint256"
        }
      ],
      "stateMutability": "nonpayable",
      "type": "function"
    },
    {
      "inputs": [
        {
          "internalType": "address",
          "name": "addr",
          "type": "address"
        }
      ],
      "name": "afterRequestInspection",
      "outputs": [],
      "stateMutability": "nonpayable",
      "type": "function"
    },
    {
      "inputs": [
        {
          "internalType": "address",
          "name": "",
          "type": "address"
        }
      ],
      "name": "allowedCallers",
      "outputs": [
        {
          "internalType": "bool",
          "name": "",
          "type": "bool"
        }
      ],
      "stateMutability": "view",
      "type": "function"
    },
    {
      "inputs": [
        {
          "internalType": "address",
          "name": "",
          "type": "address"
        }
      ],
      "name": "areaPhoto",
      "outputs": [
        {
          "internalType": "string",
          "name": "",
          "type": "string"
        }
      ],
      "stateMutability": "view",
      "type": "function"
    },
    {
      "inputs": [
        {
          "internalType": "address",
          "name": "",
          "type": "address"
        },
        {
          "internalType": "uint256",
          "name": "",
          "type": "uint256"
        }
      ],
      "name": "coordinates",
      "outputs": [
        {
          "internalType": "string",
          "name": "latitude",
          "type": "string"
        },
        {
          "internalType": "string",
          "name": "longitude",
          "type": "string"
        }
      ],
      "stateMutability": "view",
      "type": "function"
    },
    {
      "inputs": [
        {
          "internalType": "address",
          "name": "addr",
          "type": "address"
        }
      ],
      "name": "decrementInspections",
      "outputs": [],
      "stateMutability": "nonpayable",
      "type": "function"
    },
    {
      "inputs": [
        {
          "internalType": "address",
          "name": "addr",
          "type": "address"
        }
      ],
      "name": "getCoordinates",
      "outputs": [
        {
          "components": [
            {
              "internalType": "string",
              "name": "latitude",
              "type": "string"
            },
            {
              "internalType": "string",
              "name": "longitude",
              "type": "string"
            }
          ],
          "internalType": "struct Coordinates[]",
          "name": "",
          "type": "tuple[]"
        }
      ],
      "stateMutability": "view",
      "type": "function"
    },
    {
      "inputs": [
        {
          "internalType": "address",
          "name": "addr",
          "type": "address"
        }
      ],
      "name": "getRegenerator",
      "outputs": [
        {
          "components": [
            {
              "internalType": "uint64",
              "name": "id",
              "type": "uint64"
            },
            {
              "internalType": "address",
              "name": "regeneratorWallet",
              "type": "address"
            },
            {
              "internalType": "string",
              "name": "name",
              "type": "string"
            },
            {
              "internalType": "string",
              "name": "proofPhoto",
              "type": "string"
            },
            {
              "internalType": "uint32",
              "name": "totalArea",
              "type": "uint32"
            },
            {
              "internalType": "bool",
              "name": "pendingInspection",
              "type": "bool"
            },
            {
              "internalType": "uint256",
              "name": "totalInspections",
              "type": "uint256"
            },
            {
              "internalType": "uint256",
              "name": "lastRequestAt",
              "type": "uint256"
            },
            {
              "components": [
                {
                  "internalType": "uint256",
                  "name": "score",
                  "type": "uint256"
                }
              ],
              "internalType": "struct RegenerationScore",
              "name": "regenerationScore",
              "type": "tuple"
            },
            {
              "components": [
                {
                  "internalType": "bool",
                  "name": "onContractPool",
                  "type": "bool"
                },
                {
                  "internalType": "uint256",
                  "name": "currentEra",
                  "type": "uint256"
                }
              ],
              "internalType": "struct Pool",
              "name": "pool",
              "type": "tuple"
            },
            {
              "internalType": "uint256",
              "name": "createdAt",
              "type": "uint256"
            },
            {
              "internalType": "uint256",
              "name": "coordinatesCount",
              "type": "uint256"
            }
          ],
          "internalType": "struct Regenerator",
          "name": "regenerator",
          "type": "tuple"
        }
      ],
      "stateMutability": "view",
      "type": "function"
    },
    {
      "inputs": [
        {
          "internalType": "address",
          "name": "",
          "type": "address"
        }
      ],
      "name": "impactRegenerators",
      "outputs": [
        {
          "internalType": "bool",
          "name": "",
          "type": "bool"
        }
      ],
      "stateMutability": "view",
      "type": "function"
    },
    {
      "inputs": [
        {
          "internalType": "address",
          "name": "caller",
          "type": "address"
        }
      ],
      "name": "isAllowedCaller",
      "outputs": [
        {
          "internalType": "bool",
          "name": "",
          "type": "bool"
        }
      ],
      "stateMutability": "view",
      "type": "function"
    },
    {
      "inputs": [
        {
          "internalType": "address",
          "name": "allowed",
          "type": "address"
        }
      ],
      "name": "newAllowedCaller",
      "outputs": [],
      "stateMutability": "nonpayable",
      "type": "function"
    },
    {
      "inputs": [],
      "name": "nextEraIn",
      "outputs": [
        {
          "internalType": "uint256",
          "name": "",
          "type": "uint256"
        }
      ],
      "stateMutability": "view",
      "type": "function"
    },
    {
      "inputs": [],
      "name": "owner",
      "outputs": [
        {
          "internalType": "address",
          "name": "",
          "type": "address"
        }
      ],
      "stateMutability": "view",
      "type": "function"
    },
    {
      "inputs": [],
      "name": "poolCurrentEra",
      "outputs": [
        {
          "internalType": "uint256",
          "name": "",
          "type": "uint256"
        }
      ],
      "stateMutability": "view",
      "type": "function"
    },
    {
      "inputs": [
        {
          "internalType": "address",
          "name": "",
          "type": "address"
        }
      ],
      "name": "projectDescriptions",
      "outputs": [
        {
          "internalType": "string",
          "name": "",
          "type": "string"
        }
      ],
      "stateMutability": "view",
      "type": "function"
    },
    {
      "inputs": [],
      "name": "regenerationArea",
      "outputs": [
        {
          "internalType": "uint256",
          "name": "",
          "type": "uint256"
        }
      ],
      "stateMutability": "view",
      "type": "function"
    },
    {
      "inputs": [],
      "name": "regenerationTotalArea",
      "outputs": [
        {
          "internalType": "uint256",
          "name": "",
          "type": "uint256"
        }
      ],
      "stateMutability": "view",
      "type": "function"
    },
    {
      "inputs": [
        {
          "internalType": "uint256",
          "name": "",
          "type": "uint256"
        }
      ],
      "name": "regeneratorsAddress",
      "outputs": [
        {
          "internalType": "address",
          "name": "",
          "type": "address"
        }
      ],
      "stateMutability": "view",
      "type": "function"
    },
    {
      "inputs": [
        {
          "internalType": "address",
          "name": "addr",
          "type": "address"
        },
        {
          "internalType": "uint256",
          "name": "levelsToRemove",
          "type": "uint256"
        }
      ],
      "name": "removePoolLevels",
      "outputs": [],
      "stateMutability": "nonpayable",
      "type": "function"
    },
    {
      "inputs": [],
      "name": "renounceOwnership",
      "outputs": [],
      "stateMutability": "nonpayable",
      "type": "function"
    },
    {
      "inputs": [],
      "name": "totalImpactRegenerators",
      "outputs": [
        {
          "internalType": "uint256",
          "name": "",
          "type": "uint256"
        }
      ],
      "stateMutability": "view",
      "type": "function"
    },
    {
      "inputs": [
        {
          "internalType": "address",
          "name": "newOwner",
          "type": "address"
        }
      ],
      "name": "transferOwnership",
      "outputs": [],
      "stateMutability": "nonpayable",
      "type": "function"
    },
    {
      "inputs": [
        {
          "internalType": "string",
          "name": "newPhoto",
          "type": "string"
        }
      ],
      "name": "updateAreaPhoto",
      "outputs": [],
      "stateMutability": "nonpayable",
      "type": "function"
    },
    {
      "inputs": [],
      "name": "withdraw",
      "outputs": [],
      "stateMutability": "nonpayable",
      "type": "function"
    }
  ],
  "bytecode": "0x608060405234801561001057600080fd5b506040516127f53803806127f583398101604081905261002f916100da565b6100383361006e565b6001600255600980546001600160a01b039384166001600160a01b031991821617909155600a805492909316911617905561010d565b600080546001600160a01b038381166001600160a01b0319831681178455604051919092169283917f8be0079c531659141344cd1fd0a4f28419497f9722a3daafe3b4186f6b6457e09190a35050565b80516001600160a01b03811681146100d557600080fd5b919050565b600080604083850312156100ed57600080fd5b6100f6836100be565b9150610104602084016100be565b90509250929050565b6126d98061011c6000396000f3fe608060405234801561001057600080fd5b50600436106101cf5760003560e01c80638ca6bee811610104578063a77963f0116100a2578063c85a58ff11610071578063c85a58ff1461040f578063e05cf15514610430578063e57637f014610438578063f2fde38b1461046157600080fd5b8063a77963f0146103bc578063aa8d536a146103d6578063b9a68b2b146103e9578063c3c983d2146103fc57600080fd5b80638f93716f116100de5780638f93716f1461036157806394c3cee914610374578063a680125814610387578063a6bae8b0146103b357600080fd5b80638ca6bee8146103125780638da5cb5b1461031c5780638ee394721461034157600080fd5b8063582256f111610171578063715018a61161014b578063715018a6146102a157806377811610146102a95780637b334154146102bc57806385b5ee9b146102ef57600080fd5b8063582256f11461025b57806365ab21b0146102635780636ea7a2e91461028357600080fd5b8063257b4e7c116101ad578063257b4e7c146102225780633ccfd60b14610242578063442f96251461024a57806345e0e89a1461025357600080fd5b80630a83a7b0146101d457806318ad5c9a146101fa5780631db642041461020f575b600080fd5b6101e76101e2366004611dfc565b610474565b6040519081526020015b60405180910390f35b61020d610208366004611e2f565b6104cc565b005b61020d61021d366004611e59565b6105da565b610235610230366004611e59565b610617565b6040516101f19190611ec1565b61020d6106b1565b6101e7600c5481565b600c546101e7565b6101e7610891565b610276610271366004611e59565b610911565b6040516101f19190611ed4565b61028c6101f481565b60405163ffffffff90911681526020016101f1565b61020d610b18565b61020d6102b73660046120b0565b610b2a565b6102df6102ca366004611e59565b60016020526000908152604090205460ff1681565b60405190151581526020016101f1565b6102df6102fd366004611e59565b60076020526000908152604090205460ff1681565b61028c6207a12081565b6000546001600160a01b03165b6040516001600160a01b0390911681526020016101f1565b61035461034f366004611e59565b610c3a565b6040516101f191906120ec565b61020d61036f366004611e59565b611049565b61020d610382366004611e59565b611078565b6102df610395366004611e59565b6001600160a01b031660009081526001602052604090205460ff1690565b6101e7600b5481565b6103c4600381565b60405160ff90911681526020016101f1565b6102356103e4366004611e59565b6110d6565b61020d6103f7366004612178565b6110ef565b61020d61040a366004611e59565b61167c565b61042261041d366004611e2f565b611782565b6040516101f1929190612346565b6101e76118d3565b610329610446366004612374565b6004602052600090815260409020546001600160a01b031681565b61020d61046f366004611e59565b61191d565b3360009081526001602052604081205460ff166104ac5760405162461bcd60e51b81526004016104a39061238d565b60405180910390fd5b60006104b784611993565b90506104c38484611a22565b90505b92915050565b3360009081526001602052604090205460ff166104fb5760405162461bcd60e51b81526004016104a39061238d565b610503611ba6565b80600003610535576001600160a01b03821660009081526003602052604081206006015561053082611bfd565b610566565b6001600160a01b038216600090815260036020526040812060060180548392906105609084906123cf565b90915550505b600a54604051630c56ae4d60e11b81526001600160a01b03848116600483015260248201849052909116906318ad5c9a90604401600060405180830381600087803b1580156105b457600080fd5b505af11580156105c8573d6000803e3d6000fd5b505050506105d66001600255565b5050565b3360009081526001602052604090205460ff166106095760405162461bcd60e51b81526004016104a39061238d565b610614816000611c3b565b50565b60086020526000908152604090208054610630906123e2565b80601f016020809104026020016040519081016040528092919081815260200182805461065c906123e2565b80156106a95780601f1061067e576101008083540402835291602001916106a9565b820191906000526020600020905b81548152906001019060200180831161068c57829003601f168201915b505050505081565b6106b9611ba6565b600954604051631292f8c160e31b81526001600160a01b0390911690639497c608906106ec90600190339060040161243e565b602060405180830381865afa158015610709573d6000803e3d6000fd5b505050506040513d601f19601f8201168201806040525081019061072d9190612464565b6107725760405162461bcd60e51b815260206004820152601660248201527513db9b1e481c9959d95b995c985d1bdc9cc81c1bdbdb60521b60448201526064016104a3565b3360009081526003602052604090206004810154610791906003111590565b6107d35760405162461bcd60e51b81526020600482015260136024820152724d696e696d756d20696e7370656374696f6e7360681b60448201526064016104a3565b60088101546107e3816001612486565b6008830155600a5460405163f3fef3a360e01b8152336004820152602481018390526001600160a01b039091169063f3fef3a390604401600060405180830381600087803b15801561083457600080fd5b505af1158015610848573d6000803e3d6000fd5b50506040514381528392503391507f81f7cfdaaebb3eb89eee117bbfcd1e956d1c8bfa759f5eda2ba6f63551a4db209060200160405180910390a3505061088f6001600255565b565b600a546000906001600160a01b031663d5ee3eb56108ad6118d3565b6040518263ffffffff1660e01b81526004016108cb91815260200190565b602060405180830381865afa1580156108e8573d6000803e3d6000fd5b505050506040513d601f19601f8201168201806040525081019061090c9190612499565b905090565b610919611d20565b6001600160a01b0380831660009081526003602090815260409182902082516101808101845281546001600160401b0381168252600160401b9004909416918401919091526001810180549192840191610972906123e2565b80601f016020809104026020016040519081016040528092919081815260200182805461099e906123e2565b80156109eb5780601f106109c0576101008083540402835291602001916109eb565b820191906000526020600020905b8154815290600101906020018083116109ce57829003601f168201915b50505050508152602001600282018054610a04906123e2565b80601f0160208091040260200160405190810160405280929190818152602001828054610a30906123e2565b8015610a7d5780601f10610a5257610100808354040283529160200191610a7d565b820191906000526020600020905b815481529060010190602001808311610a6057829003601f168201915b5050509183525050600382015463ffffffff811660208084019190915260ff640100000000909204821615156040808501919091526004850154606085015260058501546080850152805180830182526006860154815260a0850152805180820190915260078501549092161515825260088401549082015260c0820152600982015460e0820152600a909101546101009091015292915050565b610b20611c76565b61088f6000611cd0565b805160961015610b6d5760405162461bcd60e51b815260206004820152600e60248201526d4d6178206368617261637465727360901b60448201526064016104a3565b600954604051631292f8c160e31b81526001600160a01b0390911690639497c60890610ba090600190339060040161243e565b602060405180830381865afa158015610bbd573d6000803e3d6000fd5b505050506040513d601f19601f82011682018060405250810190610be19190612464565b610c215760405162461bcd60e51b81526020600482015260116024820152704f6e6c7920726567656e657261746f727360781b60448201526064016104a3565b3360009081526008602052604090206105d68282612501565b6001600160a01b03808216600090815260036020908152604080832081516101808101835281546001600160401b0381168252600160401b900490951692850192909252600182018054606095939284019190610c96906123e2565b80601f0160208091040260200160405190810160405280929190818152602001828054610cc2906123e2565b8015610d0f5780601f10610ce457610100808354040283529160200191610d0f565b820191906000526020600020905b815481529060010190602001808311610cf257829003601f168201915b50505050508152602001600282018054610d28906123e2565b80601f0160208091040260200160405190810160405280929190818152602001828054610d54906123e2565b8015610da15780601f10610d7657610100808354040283529160200191610da1565b820191906000526020600020905b815481529060010190602001808311610d8457829003601f168201915b5050509183525050600382015463ffffffff811660208084019190915260ff640100000000909204821615156040808501919091526004850154606085015260058501546080850152805180830182526006860154815260a0850152805180820190915260078501549092161515825260088401549082015260c0820152600982015460e0820152600a90910154610100909101526101608101519091506000906001600160401b03811115610e5957610e59611fd3565b604051908082528060200260200182016040528015610e9e57816020015b6040805180820190915260608082526020820152815260200190600190039081610e775790505b5061016083015190915060005b8181101561103f576001600160a01b0386166000908152600560205260409020805482908110610edd57610edd6125bf565b9060005260206000209060020201604051806040016040529081600082018054610f06906123e2565b80601f0160208091040260200160405190810160405280929190818152602001828054610f32906123e2565b8015610f7f5780601f10610f5457610100808354040283529160200191610f7f565b820191906000526020600020905b815481529060010190602001808311610f6257829003601f168201915b50505050508152602001600182018054610f98906123e2565b80601f0160208091040260200160405190810160405280929190818152602001828054610fc4906123e2565b80156110115780601f10610fe657610100808354040283529160200191611011565b820191906000526020600020905b815481529060010190602001808311610ff457829003601f168201915b50505050508152505083828151811061102c5761102c6125bf565b6020908102919091010152600101610eab565b5090949350505050565b611051611c76565b6001600160a01b03166000908152600160208190526040909120805460ff19169091179055565b3360009081526001602052604090205460ff166110a75760405162461bcd60e51b81526004016104a39061238d565b6110b2816001611c3b565b61061481436001600160a01b03909116600090815260036020526040902060050155565b60066020526000908152604090208054610630906123e2565b835160321080159061110357508251609610155b80156111115750815160c810155b6111565760405162461bcd60e51b815260206004820152601660248201527513585e0818da185c9858dd195c9cc81c995858da195960521b60448201526064016104a3565b805160031180159061116a57508051600a10155b6111c95760405162461bcd60e51b815260206004820152602a60248201527f4d696e696d756d203320616e64206d6178696d756d20313020636f6f7264696e60448201526961746520706f696e747360b01b60648201526084016104a3565b6101f463ffffffff8616108015906111ea57506207a12063ffffffff861611155b61124c5760405162461bcd60e51b815260206004820152602d60248201527f4d696e696d756d2035303020616e64206d6178696d756d203530302e3030302060448201526c737175617265206d657465727360981b60648201526084016104a3565b60095460405162f5960960e51b81526000916001600160a01b031690631eb2c1209061127d906001906004016125d5565b602060405180830381865afa15801561129a573d6000803e3d6000fd5b505050506040513d601f19601f820116820180604052508101906112be91906125e3565b6112c990600161260c565b9050604051806101800160405280826001600160401b03168152602001336001600160a01b031681526020018681526020018581526020018763ffffffff16815260200160001515815260200160008152602001600081526020016040518060200160405280600081525081526020016040518060400160405280600015158152602001600a60009054906101000a90046001600160a01b03166001600160a01b031663ed0df79e6040518163ffffffff1660e01b8152600401602060405180830381865afa1580156113a0573d6000803e3d6000fd5b505050506040513d601f19601f820116820180604052508101906113c49190612499565b90528152600060208083018290528551604093840152338252600381529082902083518154928501516001600160a01b0316600160401b026001600160e01b03199093166001600160401b039091161791909117815590820151600182019061142d9082612501565b50606082015160028201906114429082612501565b50608082015160038201805460a085015115156401000000000264ffffffffff1990911663ffffffff9093169290921791909117905560c082015160048083019190915560e0830151600583015561010083015151600680840191909155610120840151805160078501805491151560ff199092169190911790556020908101516008850155610140850151600985015561016090940151600a909301929092556001600160401b0384166000908152908352604080822080546001600160a01b03191633908117909155825291909252902061151f8482612501565b50600954604051639c3eead960e01b81526001600160a01b0390911690639c3eead99061155390339060019060040161262b565b600060405180830381600087803b15801561156d57600080fd5b505af1158015611581573d6000803e3d6000fd5b505050508563ffffffff16600c600082825461159d9190612486565b90915550600090505b82518110156116245733600090815260056020526040902083518490839081106115d2576115d26125bf565b602090810291909101810151825460018101845560009384529190922082516002909202019081906116049082612501565b50602082015160018201906116199082612501565b5050506001016115a6565b50336001600160a01b0316816001600160401b03167fe7929ab3a316468d25671f32aa731ca41460f5459029b8ed818d4d32152c7f0087894360405161166c93929190612648565b60405180910390a3505050505050565b3360009081526001602052604090205460ff166116ab5760405162461bcd60e51b81526004016104a39061238d565b6001600160a01b038116600090815260036020526040902060040154806117145760405162461bcd60e51b815260206004820152601860248201527f746f74616c496e7370656374696f6e7320696e76616c6964000000000000000060448201526064016104a3565b8060010361175257600b805490600061172c83612673565b90915550506001600160a01b0382166000908152600760205260409020805460ff191690555b6001600160a01b038216600090815260036020526040812060040180549161177983612673565b91905055505050565b6005602052816000526040600020818154811061179e57600080fd5b9060005260206000209060020201600091509150508060000180546117c2906123e2565b80601f01602080910402602001604051908101604052809291908181526020018280546117ee906123e2565b801561183b5780601f106118105761010080835404028352916020019161183b565b820191906000526020600020905b81548152906001019060200180831161181e57829003601f168201915b505050505090806001018054611850906123e2565b80601f016020809104026020016040519081016040528092919081815260200182805461187c906123e2565b80156118c95780601f1061189e576101008083540402835291602001916118c9565b820191906000526020600020905b8154815290600101906020018083116118ac57829003601f168201915b5050505050905082565b600a5460408051637686fbcf60e11b815290516000926001600160a01b03169163ed0df79e9160048083019260209291908290030181865afa1580156108e8573d6000803e3d6000fd5b611925611c76565b6001600160a01b03811661198a5760405162461bcd60e51b815260206004820152602660248201527f4f776e61626c653a206e6577206f776e657220697320746865207a65726f206160448201526564647265737360d01b60648201526084016104a3565b61061481611cd0565b6001600160a01b038116600090815260036020526040812060048101805490836119bc8361268a565b90915550506001600160a01b03831660009081526007602052604090205460ff16611a18576001600160a01b0383166000908152600760205260408120805460ff19166001179055600b805491611a128361268a565b91905055505b6004015492915050565b6001600160a01b0382166000908152600360205260408120805490916001600160401b039091169003611a975760405162461bcd60e51b815260206004820152601a60248201527f526567656e657261746f7220646f6573206e6f7420657869737400000000000060448201526064016104a3565b8163ffffffff16816006016000016000828254611ab49190612486565b9091555050600481015460031115611acb57505050565b600781015463ffffffff83169060ff16611b3a575060078101805460ff1916600117905560068101546040516001600160a01b038516907fdf477f1abb30c779b76ead783acd2084230ef08ba1570ce9dee934c0c5b93b9d90611b319043815260200190565b60405180910390a25b600a546040516352b8d3ed60e01b81526001600160a01b03868116600483015260248201849052909116906352b8d3ed90604401600060405180830381600087803b158015611b8857600080fd5b505af1158015611b9c573d6000803e3d6000fd5b5050505050505050565b6002805403611bf75760405162461bcd60e51b815260206004820152601f60248201527f5265656e7472616e637947756172643a207265656e7472616e742063616c6c0060448201526064016104a3565b60028055565b6001600160a01b038116600090815260036020819052604082200154600c805463ffffffff909216929091611c339084906123cf565b909155505050565b6001600160a01b0390911660009081526003602081905260409091200180549115156401000000000264ff0000000019909216919091179055565b6000546001600160a01b0316331461088f5760405162461bcd60e51b815260206004820181905260248201527f4f776e61626c653a2063616c6c6572206973206e6f7420746865206f776e657260448201526064016104a3565b600080546001600160a01b038381166001600160a01b0319831681178455604051919092169283917f8be0079c531659141344cd1fd0a4f28419497f9722a3daafe3b4186f6b6457e09190a35050565b60405180610180016040528060006001600160401b0316815260200160006001600160a01b031681526020016060815260200160608152602001600063ffffffff1681526020016000151581526020016000815260200160008152602001611d946040518060200160405280600081525090565b8152602001611db86040518060400160405280600015158152602001600081525090565b815260200160008152602001600081525090565b80356001600160a01b0381168114611de357600080fd5b919050565b803563ffffffff81168114611de357600080fd5b60008060408385031215611e0f57600080fd5b611e1883611dcc565b9150611e2660208401611de8565b90509250929050565b60008060408385031215611e4257600080fd5b611e4b83611dcc565b946020939093013593505050565b600060208284031215611e6b57600080fd5b611e7482611dcc565b9392505050565b6000815180845260005b81811015611ea157602081850181015186830182015201611e85565b506000602082860101526020601f19601f83011685010191505092915050565b602081526000611e746020830184611e7b565b60208152611eee6020820183516001600160401b03169052565b60006020830151611f0a60408401826001600160a01b03169052565b5060408301516101a06060840152611f266101c0840182611e7b565b90506060840151601f19848303016080850152611f438282611e7b565b9150506080840151611f5d60a085018263ffffffff169052565b5060a084015180151560c08501525060c084015160e084015260e0840151610100840152610100840151611f95610120850182519052565b5061012084015180511515610140850152602081015161016085015250610140840151610180840152610160909301516101a0909201919091525090565b634e487b7160e01b600052604160045260246000fd5b604080519081016001600160401b038111828210171561200b5761200b611fd3565b60405290565b604051601f8201601f191681016001600160401b038111828210171561203957612039611fd3565b604052919050565b600082601f83011261205257600080fd5b81356001600160401b0381111561206b5761206b611fd3565b61207e601f8201601f1916602001612011565b81815284602083860101111561209357600080fd5b816020850160208301376000918101602001919091529392505050565b6000602082840312156120c257600080fd5b81356001600160401b038111156120d857600080fd5b6120e484828501612041565b949350505050565b6000602082016020835280845180835260408501915060408160051b86010192506020860160005b8281101561216c57603f19878603018452815180516040875261213a6040880182611e7b565b90506020820151915086810360208801526121558183611e7b565b965050506020938401939190910190600101612114565b50929695505050505050565b600080600080600060a0868803121561219057600080fd5b61219986611de8565b945060208601356001600160401b038111156121b457600080fd5b6121c088828901612041565b94505060408601356001600160401b038111156121dc57600080fd5b6121e888828901612041565b93505060608601356001600160401b0381111561220457600080fd5b61221088828901612041565b92505060808601356001600160401b0381111561222c57600080fd5b8601601f8101881361223d57600080fd5b80356001600160401b0381111561225657612256611fd3565b8060051b61226660208201612011565b9182526020818401810192908101908b84111561228257600080fd5b6020850192505b838310156123345782356001600160401b038111156122a757600080fd5b85016040818e03601f190112156122bd57600080fd5b6122c5611fe9565b60208201356001600160401b038111156122de57600080fd5b6122ed8f602083860101612041565b82525060408201356001600160401b0381111561230957600080fd5b6123188f602083860101612041565b6020830152508084525050602082019150602083019250612289565b80955050505050509295509295909350565b6040815260006123596040830185611e7b565b828103602084015261236b8185611e7b565b95945050505050565b60006020828403121561238657600080fd5b5035919050565b6020808252601290820152712737ba1030b63637bbb2b21031b0b63632b960711b604082015260600190565b634e487b7160e01b600052601160045260246000fd5b818103818111156104c6576104c66123b9565b600181811c908216806123f657607f821691505b60208210810361241657634e487b7160e01b600052602260045260246000fd5b50919050565b6009811061243a57634e487b7160e01b600052602160045260246000fd5b9052565b6040810161244c828561241c565b6001600160a01b039290921660209190910152919050565b60006020828403121561247657600080fd5b815180151581146104c357600080fd5b808201808211156104c6576104c66123b9565b6000602082840312156124ab57600080fd5b5051919050565b601f8211156124fc57806000526020600020601f840160051c810160208510156124d95750805b601f840160051c820191505b818110156124f957600081556001016124e5565b50505b505050565b81516001600160401b0381111561251a5761251a611fd3565b61252e8161252884546123e2565b846124b2565b6020601f821160018114612562576000831561254a5750848201515b600019600385901b1c1916600184901b1784556124f9565b600084815260208120601f198516915b828110156125925787850151825560209485019460019092019101612572565b50848210156125b05786840151600019600387901b60f8161c191681555b50505050600190811b01905550565b634e487b7160e01b600052603260045260246000fd5b602081016104c6828461241c565b6000602082840312156125f557600080fd5b81516001600160401b03811681146104c357600080fd5b6001600160401b0381811683821601908111156104c6576104c66123b9565b6001600160a01b038316815260408101611e74602083018461241c565b60608152600061265b6060830186611e7b565b63ffffffff9490941660208301525060400152919050565b600081612682576126826123b9565b506000190190565b60006001820161269c5761269c6123b9565b506001019056fea26469706673582212204ef78734a5c35969c11e567a93c10e9c7b47767cbcde0166085f4ba5aed75b4564736f6c634300081b0033",
  "linkReferences": {},
  "deployedLinkReferences": {}
}