{
  "_format": "hh-sol-artifact-1",
  "contractName": "RegeneratorRules",
  "sourceName": "contracts/RegeneratorRules.sol",
  "abi": [
    {
      "inputs": [
        {
          "internalType": "address",
          "name": "communityRulesAddress",
          "type": "address"
        },
        {
          "internalType": "address",
          "name": "regeneratorPoolAddress",
          "type": "address"
        }
      ],
      "stateMutability": "nonpayable",
      "type": "constructor"
    },
    {
      "inputs": [
        {
          "internalType": "address",
          "name": "owner",
          "type": "address"
        }
      ],
      "name": "OwnableInvalidOwner",
      "type": "error"
    },
    {
      "inputs": [
        {
          "internalType": "address",
          "name": "account",
          "type": "address"
        }
      ],
      "name": "OwnableUnauthorizedAccount",
      "type": "error"
    },
    {
      "inputs": [],
      "name": "ReentrancyGuardReentrantCall",
      "type": "error"
    },
    {
      "anonymous": false,
      "inputs": [
        {
          "indexed": true,
          "internalType": "address",
          "name": "previousOwner",
          "type": "address"
        },
        {
          "indexed": true,
          "internalType": "address",
          "name": "newOwner",
          "type": "address"
        }
      ],
      "name": "OwnershipTransferred",
      "type": "event"
    },
    {
      "anonymous": false,
      "inputs": [
        {
          "indexed": true,
          "internalType": "address",
          "name": "regeneratorAddress",
          "type": "address"
        }
      ],
      "name": "RegeneratorCertified",
      "type": "event"
    },
    {
      "anonymous": false,
      "inputs": [
        {
          "indexed": true,
          "internalType": "address",
          "name": "regeneratorAddress",
          "type": "address"
        },
        {
          "indexed": false,
          "internalType": "uint256",
          "name": "blockNumber",
          "type": "uint256"
        }
      ],
      "name": "RegeneratorEnteredPool",
      "type": "event"
    },
    {
      "anonymous": false,
      "inputs": [
        {
          "indexed": true,
          "internalType": "uint256",
          "name": "id",
          "type": "uint256"
        },
        {
          "indexed": true,
          "internalType": "address",
          "name": "regeneratorAddress",
          "type": "address"
        },
        {
          "indexed": false,
          "internalType": "string",
          "name": "name",
          "type": "string"
        },
        {
          "indexed": false,
          "internalType": "uint32",
          "name": "totalArea",
          "type": "uint32"
        },
        {
          "indexed": false,
          "internalType": "uint256",
          "name": "blockNumber",
          "type": "uint256"
        }
      ],
      "name": "RegeneratorRegistered",
      "type": "event"
    },
    {
      "anonymous": false,
      "inputs": [
        {
          "indexed": true,
          "internalType": "address",
          "name": "regeneratorAddress",
          "type": "address"
        },
        {
          "indexed": true,
          "internalType": "uint256",
          "name": "era",
          "type": "uint256"
        },
        {
          "indexed": false,
          "internalType": "uint256",
          "name": "blockNumber",
          "type": "uint256"
        }
      ],
      "name": "RegeneratorWithdrawalInitiated",
      "type": "event"
    },
    {
      "inputs": [],
      "name": "MAXIMUM_INSPECTIONS",
      "outputs": [
        {
          "internalType": "uint8",
          "name": "",
          "type": "uint8"
        }
      ],
      "stateMutability": "view",
      "type": "function"
    },
    {
      "inputs": [],
      "name": "MAX_ACTIVE_REGENERATORS",
      "outputs": [
        {
          "internalType": "uint256",
          "name": "",
          "type": "uint256"
        }
      ],
      "stateMutability": "view",
      "type": "function"
    },
    {
      "inputs": [],
      "name": "MAX_REGENERATION_AREA",
      "outputs": [
        {
          "internalType": "uint32",
          "name": "",
          "type": "uint32"
        }
      ],
      "stateMutability": "view",
      "type": "function"
    },
    {
      "inputs": [],
      "name": "MINIMUM_INSPECTIONS_TO_POOL",
      "outputs": [
        {
          "internalType": "uint8",
          "name": "",
          "type": "uint8"
        }
      ],
      "stateMutability": "view",
      "type": "function"
    },
    {
      "inputs": [],
      "name": "MIN_REGENERATION_AREA",
      "outputs": [
        {
          "internalType": "uint32",
          "name": "",
          "type": "uint32"
        }
      ],
      "stateMutability": "view",
      "type": "function"
    },
    {
      "inputs": [
        {
          "internalType": "uint32",
          "name": "totalArea",
          "type": "uint32"
        },
        {
          "internalType": "string",
          "name": "name",
          "type": "string"
        },
        {
          "internalType": "string",
          "name": "proofPhoto",
          "type": "string"
        },
        {
          "internalType": "string",
          "name": "projectDescription",
          "type": "string"
        },
        {
          "components": [
            {
              "internalType": "string",
              "name": "latitude",
              "type": "string"
            },
            {
              "internalType": "string",
              "name": "longitude",
              "type": "string"
            }
          ],
          "internalType": "struct Coordinates[]",
          "name": "_coordinates",
          "type": "tuple[]"
        }
      ],
      "name": "addRegenerator",
      "outputs": [],
      "stateMutability": "nonpayable",
      "type": "function"
    },
    {
      "inputs": [
        {
          "internalType": "address",
          "name": "addr",
          "type": "address"
        }
      ],
      "name": "afterAcceptInspection",
      "outputs": [],
      "stateMutability": "nonpayable",
      "type": "function"
    },
    {
      "inputs": [
        {
          "internalType": "address",
          "name": "addr",
          "type": "address"
        },
        {
          "internalType": "uint32",
          "name": "score",
          "type": "uint32"
        },
        {
          "internalType": "uint64",
          "name": "inspectionId",
          "type": "uint64"
        }
      ],
      "name": "afterRealizeInspection",
      "outputs": [
        {
          "internalType": "uint256",
          "name": "",
          "type": "uint256"
        }
      ],
      "stateMutability": "nonpayable",
      "type": "function"
    },
    {
      "inputs": [
        {
          "internalType": "address",
          "name": "addr",
          "type": "address"
        }
      ],
      "name": "afterRequestInspection",
      "outputs": [],
      "stateMutability": "nonpayable",
      "type": "function"
    },
    {
      "inputs": [
        {
          "internalType": "address",
          "name": "",
          "type": "address"
        }
      ],
      "name": "allowedCallers",
      "outputs": [
        {
          "internalType": "bool",
          "name": "",
          "type": "bool"
        }
      ],
      "stateMutability": "view",
      "type": "function"
    },
    {
      "inputs": [
        {
          "internalType": "address",
          "name": "",
          "type": "address"
        }
      ],
      "name": "areaPhoto",
      "outputs": [
        {
          "internalType": "string",
          "name": "",
          "type": "string"
        }
      ],
      "stateMutability": "view",
      "type": "function"
    },
    {
      "inputs": [
        {
          "internalType": "address",
          "name": "",
          "type": "address"
        }
      ],
      "name": "certifiedRegenerators",
      "outputs": [
        {
          "internalType": "bool",
          "name": "",
          "type": "bool"
        }
      ],
      "stateMutability": "view",
      "type": "function"
    },
    {
      "inputs": [],
      "name": "communityRules",
      "outputs": [
        {
          "internalType": "contract ICommunityRules",
          "name": "",
          "type": "address"
        }
      ],
      "stateMutability": "view",
      "type": "function"
    },
    {
      "inputs": [
        {
          "internalType": "address",
          "name": "",
          "type": "address"
        },
        {
          "internalType": "uint256",
          "name": "",
          "type": "uint256"
        }
      ],
      "name": "coordinates",
      "outputs": [
        {
          "internalType": "string",
          "name": "latitude",
          "type": "string"
        },
        {
          "internalType": "string",
          "name": "longitude",
          "type": "string"
        }
      ],
      "stateMutability": "view",
      "type": "function"
    },
    {
      "inputs": [
        {
          "internalType": "address",
          "name": "addr",
          "type": "address"
        }
      ],
      "name": "decrementInspections",
      "outputs": [],
      "stateMutability": "nonpayable",
      "type": "function"
    },
    {
      "inputs": [
        {
          "internalType": "address",
          "name": "addr",
          "type": "address"
        }
      ],
      "name": "getCoordinates",
      "outputs": [
        {
          "components": [
            {
              "internalType": "string",
              "name": "latitude",
              "type": "string"
            },
            {
              "internalType": "string",
              "name": "longitude",
              "type": "string"
            }
          ],
          "internalType": "struct Coordinates[]",
          "name": "",
          "type": "tuple[]"
        }
      ],
      "stateMutability": "view",
      "type": "function"
    },
    {
      "inputs": [
        {
          "internalType": "address",
          "name": "addr",
          "type": "address"
        }
      ],
      "name": "getRegenerator",
      "outputs": [
        {
          "components": [
            {
              "internalType": "uint64",
              "name": "id",
              "type": "uint64"
            },
            {
              "internalType": "address",
              "name": "regeneratorWallet",
              "type": "address"
            },
            {
              "internalType": "string",
              "name": "name",
              "type": "string"
            },
            {
              "internalType": "string",
              "name": "proofPhoto",
              "type": "string"
            },
            {
              "internalType": "uint32",
              "name": "totalArea",
              "type": "uint32"
            },
            {
              "internalType": "bool",
              "name": "pendingInspection",
              "type": "bool"
            },
            {
              "internalType": "uint256",
              "name": "totalInspections",
              "type": "uint256"
            },
            {
              "internalType": "uint256",
              "name": "lastRequestAt",
              "type": "uint256"
            },
            {
              "components": [
                {
                  "internalType": "uint256",
                  "name": "score",
                  "type": "uint256"
                }
              ],
              "internalType": "struct RegenerationScore",
              "name": "regenerationScore",
              "type": "tuple"
            },
            {
              "components": [
                {
                  "internalType": "bool",
                  "name": "onContractPool",
                  "type": "bool"
                },
                {
                  "internalType": "uint256",
                  "name": "currentEra",
                  "type": "uint256"
                }
              ],
              "internalType": "struct Pool",
              "name": "pool",
              "type": "tuple"
            },
            {
              "internalType": "uint256",
              "name": "createdAt",
              "type": "uint256"
            },
            {
              "internalType": "uint256",
              "name": "coordinatesCount",
              "type": "uint256"
            },
            {
              "internalType": "bool",
              "name": "isFullyInvalidated",
              "type": "bool"
            }
          ],
          "internalType": "struct Regenerator",
          "name": "regenerator",
          "type": "tuple"
        }
      ],
      "stateMutability": "view",
      "type": "function"
    },
    {
      "inputs": [
        {
          "internalType": "address",
          "name": "",
          "type": "address"
        }
      ],
      "name": "impactRegenerators",
      "outputs": [
        {
          "internalType": "bool",
          "name": "",
          "type": "bool"
        }
      ],
      "stateMutability": "view",
      "type": "function"
    },
    {
      "inputs": [],
      "name": "inspectionRulesAddress",
      "outputs": [
        {
          "internalType": "address",
          "name": "",
          "type": "address"
        }
      ],
      "stateMutability": "view",
      "type": "function"
    },
    {
      "inputs": [
        {
          "internalType": "address",
          "name": "caller",
          "type": "address"
        }
      ],
      "name": "isAllowedCaller",
      "outputs": [
        {
          "internalType": "bool",
          "name": "",
          "type": "bool"
        }
      ],
      "stateMutability": "view",
      "type": "function"
    },
    {
      "inputs": [],
      "name": "isRegistrationAllowed",
      "outputs": [
        {
          "internalType": "bool",
          "name": "",
          "type": "bool"
        }
      ],
      "stateMutability": "view",
      "type": "function"
    },
    {
      "inputs": [
        {
          "internalType": "address",
          "name": "allowed",
          "type": "address"
        }
      ],
      "name": "newAllowedCaller",
      "outputs": [],
      "stateMutability": "nonpayable",
      "type": "function"
    },
    {
      "inputs": [],
      "name": "nextEraIn",
      "outputs": [
        {
          "internalType": "uint256",
          "name": "",
          "type": "uint256"
        }
      ],
      "stateMutability": "view",
      "type": "function"
    },
    {
      "inputs": [],
      "name": "onCertificationRegenerators",
      "outputs": [
        {
          "internalType": "uint256",
          "name": "",
          "type": "uint256"
        }
      ],
      "stateMutability": "view",
      "type": "function"
    },
    {
      "inputs": [],
      "name": "owner",
      "outputs": [
        {
          "internalType": "address",
          "name": "",
          "type": "address"
        }
      ],
      "stateMutability": "view",
      "type": "function"
    },
    {
      "inputs": [],
      "name": "poolCurrentEra",
      "outputs": [
        {
          "internalType": "uint256",
          "name": "",
          "type": "uint256"
        }
      ],
      "stateMutability": "view",
      "type": "function"
    },
    {
      "inputs": [
        {
          "internalType": "address",
          "name": "",
          "type": "address"
        }
      ],
      "name": "projectDescriptions",
      "outputs": [
        {
          "internalType": "string",
          "name": "",
          "type": "string"
        }
      ],
      "stateMutability": "view",
      "type": "function"
    },
    {
      "inputs": [],
      "name": "regenerationArea",
      "outputs": [
        {
          "internalType": "uint256",
          "name": "",
          "type": "uint256"
        }
      ],
      "stateMutability": "view",
      "type": "function"
    },
    {
      "inputs": [],
      "name": "regenerationTotalArea",
      "outputs": [
        {
          "internalType": "uint256",
          "name": "",
          "type": "uint256"
        }
      ],
      "stateMutability": "view",
      "type": "function"
    },
    {
      "inputs": [],
      "name": "regeneratorPool",
      "outputs": [
        {
          "internalType": "contract IRegeneratorPool",
          "name": "",
          "type": "address"
        }
      ],
      "stateMutability": "view",
      "type": "function"
    },
    {
      "inputs": [
        {
          "internalType": "uint256",
          "name": "",
          "type": "uint256"
        }
      ],
      "name": "regeneratorsAddress",
      "outputs": [
        {
          "internalType": "address",
          "name": "",
          "type": "address"
        }
      ],
      "stateMutability": "view",
      "type": "function"
    },
    {
      "inputs": [
        {
          "internalType": "address",
          "name": "addr",
          "type": "address"
        },
        {
          "internalType": "uint256",
          "name": "amountToRemove",
          "type": "uint256"
        }
      ],
      "name": "removeInspectionLevels",
      "outputs": [],
      "stateMutability": "nonpayable",
      "type": "function"
    },
    {
      "inputs": [
        {
          "internalType": "address",
          "name": "addr",
          "type": "address"
        }
      ],
      "name": "removePoolLevels",
      "outputs": [],
      "stateMutability": "nonpayable",
      "type": "function"
    },
    {
      "inputs": [],
      "name": "renounceOwnership",
      "outputs": [],
      "stateMutability": "nonpayable",
      "type": "function"
    },
    {
      "inputs": [
        {
          "internalType": "address",
          "name": "_inspectionRulesAddress",
          "type": "address"
        },
        {
          "internalType": "address",
          "name": "_validationRulesAddress",
          "type": "address"
        }
      ],
      "name": "setContractCall",
      "outputs": [],
      "stateMutability": "nonpayable",
      "type": "function"
    },
    {
      "inputs": [],
      "name": "totalCertifiedRegenerators",
      "outputs": [
        {
          "internalType": "uint256",
          "name": "",
          "type": "uint256"
        }
      ],
      "stateMutability": "view",
      "type": "function"
    },
    {
      "inputs": [
        {
          "internalType": "address",
          "name": "newOwner",
          "type": "address"
        }
      ],
      "name": "transferOwnership",
      "outputs": [],
      "stateMutability": "nonpayable",
      "type": "function"
    },
    {
      "inputs": [
        {
          "internalType": "string",
          "name": "newPhoto",
          "type": "string"
        }
      ],
      "name": "updateAreaPhoto",
      "outputs": [],
      "stateMutability": "nonpayable",
      "type": "function"
    },
    {
      "inputs": [],
      "name": "validationRulesAddress",
      "outputs": [
        {
          "internalType": "address",
          "name": "",
          "type": "address"
        }
      ],
      "stateMutability": "view",
      "type": "function"
    },
    {
      "inputs": [],
      "name": "withdraw",
      "outputs": [],
      "stateMutability": "nonpayable",
      "type": "function"
    }
  ],
  "bytecode": "0x608060405234801561001057600080fd5b5060405161373e38038061373e83398101604081905261002f91610101565b338061005557604051631e4fbdf760e01b81526000600482015260240160405180910390fd5b61005e81610095565b506001600255600b80546001600160a01b039384166001600160a01b031991821617909155600c8054929093169116179055610134565b600080546001600160a01b038381166001600160a01b0319831681178455604051919092169283917f8be0079c531659141344cd1fd0a4f28419497f9722a3daafe3b4186f6b6457e09190a35050565b80516001600160a01b03811681146100fc57600080fd5b919050565b6000806040838503121561011457600080fd5b61011d836100e5565b915061012b602084016100e5565b90509250929050565b6135fb806101436000396000f3fe608060405234801561001057600080fd5b50600436106102485760003560e01c80638da5cb5b1161013b578063b9a68b2b116100b8578063e05cf1551161007c578063e05cf1551461054a578063e57637f014610552578063f2fde38b1461057b578063f92f0f8e1461058e578063fd7c9ede146105a157600080fd5b8063b9a68b2b146104e7578063c38d2bff146104fa578063c3c983d214610503578063c85a58ff14610516578063ce59654a1461053757600080fd5b8063a6801258116100ff578063a680125814610458578063a77963f014610484578063aa8d536a1461049e578063ad510572146104b1578063b3c40c36146104c457600080fd5b80638da5cb5b146103ee5780638ee39472146103ff5780638f93716f1461041f5780638fbaf6011461043257806394c3cee91461044557600080fd5b806345e0e89a116101c9578063715018a61161018d578063715018a614610383578063778116101461038b5780637b3341541461039e57806385b5ee9b146103c15780638ca6bee8146103e457600080fd5b806345e0e89a1461032c5780634907b8e214610334578063582256f11461033d57806365ab21b0146103455780636ea7a2e91461036557600080fd5b8063257b4e7c11610210578063257b4e7c146102c657806336d87398146102e65780633974b345146102f05780633ccfd60b1461031b578063442f96251461032357600080fd5b8063025571761461024d57806304521ca31461026a5780631db642041461027f5780631e2d3176146102925780632429f0de146102b3575b600080fd5b6102556105a9565b60405190151581526020015b60405180910390f35b61027d6102783660046129a6565b610638565b005b61027d61028d3660046129d9565b61066e565b6102a56102a0366004612a24565b6106e0565b604051908152602001610261565b61027d6102c1366004612a6b565b61084b565b6102d96102d43660046129d9565b610959565b6040516102619190612adb565b6102a56207a12081565b601154610303906001600160a01b031681565b6040516001600160a01b039091168152602001610261565b61027d6109f3565b6102a5600f5481565b600f546102a5565b6102a5600d5481565b6102a5610bd3565b6103586103533660046129d9565b610c53565b6040516102619190612aee565b61036e6109c481565b60405163ffffffff9091168152602001610261565b61027d610e6c565b61027d610399366004612c9c565b610e7e565b6102556103ac3660046129d9565b60016020526000908152604090205460ff1681565b6102556103cf3660046129d9565b60076020526000908152604090205460ff1681565b61036e620f424081565b6000546001600160a01b0316610303565b61041261040d3660046129d9565b610f8e565b6040516102619190612cd8565b61027d61042d3660046129d9565b6113af565b601054610303906001600160a01b031681565b61027d6104533660046129d9565b6113de565b6102556104663660046129d9565b6001600160a01b031660009081526001602052604090205460ff1690565b61048c600381565b60405160ff9091168152602001610261565b6102d96104ac3660046129d9565b611467565b600c54610303906001600160a01b031681565b6102556104d23660046129d9565b60086020526000908152604090205460ff1681565b61027d6104f5366004612d64565b611480565b6102a5600e5481565b61027d6105113660046129d9565b611a84565b610529610524366004612a6b565b611bf5565b604051610261929190612e6a565b600b54610303906001600160a01b031681565b6102a5611d46565b610303610560366004612e98565b6004602052600090815260409020546001600160a01b031681565b61027d6105893660046129d9565b611d90565b61027d61059c3660046129d9565b611dce565b61048c600681565b600e54600b54604051632f22dc7b60e01b81526000926207a1209290916001600160a01b0390911690632f22dc7b906105e790600190600401612ed3565b602060405180830381865afa158015610604573d6000803e3d6000fd5b505050506040513d601f19601f820116820180604052508101906106289190612ee7565b6106329190612f16565b10905090565b610640611f3b565b601080546001600160a01b039384166001600160a01b03199182161790915560118054929093169116179055565b3360009081526001602052604090205460ff166106a65760405162461bcd60e51b815260040161069d90612f29565b60405180910390fd5b6010546001600160a01b03163381146106d15760405162461bcd60e51b815260040161069d90612f55565b6106dc826000611f68565b5050565b3360009081526001602052604081205460ff1661070f5760405162461bcd60e51b815260040161069d90612f29565b6010546001600160a01b031633811461073a5760405162461bcd60e51b815260040161069d90612f55565b610742611fa3565b604063ffffffff851611156107895760405162461bcd60e51b815260206004820152600d60248201526c4d6178696d756d2073636f726560981b604482015260640161069d565b6001600160401b0383166000908152600a602052604090205460ff16156107fe5760405162461bcd60e51b8152602060048201526024808201527f496e7370656374696f6e20726573756c747320616c7265616479207375626d696044820152631d1d195960e21b606482015260840161069d565b6001600160401b0383166000908152600a60205260408120805460ff1916600117905561082a86611fcb565b90506108378686866120d2565b91506108436001600255565b509392505050565b3360009081526001602052604090205460ff1661087a5760405162461bcd60e51b815260040161069d90612f29565b6010546001600160a01b03163381146108a55760405162461bcd60e51b815260040161069d90612f55565b6108ad611fa3565b6001600160a01b038316600090815260036020526040812060060180548492906108d8908490612f16565b9091555050600c54604051631af0d89760e01b81526001600160a01b038581166004830152602482018590526000604483015290911690631af0d89790606401600060405180830381600087803b15801561093257600080fd5b505af1158015610946573d6000803e3d6000fd5b505050506109546001600255565b505050565b6009602052600090815260409020805461097290612f8c565b80601f016020809104026020016040519081016040528092919081815260200182805461099e90612f8c565b80156109eb5780601f106109c0576101008083540402835291602001916109eb565b820191906000526020600020905b8154815290600101906020018083116109ce57829003601f168201915b505050505081565b6109fb611fa3565b600b54604051631292f8c160e31b81526001600160a01b0390911690639497c60890610a2e906001903390600401612fc6565b602060405180830381865afa158015610a4b573d6000803e3d6000fd5b505050506040513d601f19601f82011682018060405250810190610a6f9190612fec565b610ab45760405162461bcd60e51b815260206004820152601660248201527513db9b1e481c9959d95b995c985d1bdc9cc81c1bdbdb60521b604482015260640161069d565b3360009081526003602052604090206004810154610ad3906003111590565b610b155760405162461bcd60e51b81526020600482015260136024820152724d696e696d756d20696e7370656374696f6e7360681b604482015260640161069d565b6008810154610b2581600161300e565b6008830155600c5460405163f3fef3a360e01b8152336004820152602481018390526001600160a01b039091169063f3fef3a390604401600060405180830381600087803b158015610b7657600080fd5b505af1158015610b8a573d6000803e3d6000fd5b50506040514381528392503391507f81f7cfdaaebb3eb89eee117bbfcd1e956d1c8bfa759f5eda2ba6f63551a4db209060200160405180910390a35050610bd16001600255565b565b600c546000906001600160a01b031663d5ee3eb5610bef611d46565b6040518263ffffffff1660e01b8152600401610c0d91815260200190565b602060405180830381865afa158015610c2a573d6000803e3d6000fd5b505050506040513d601f19601f82011682018060405250810190610c4e9190612ee7565b905090565b610c5b6128d5565b6001600160a01b0380831660009081526003602090815260409182902082516101a08101845281546001600160401b0381168252600160401b9004909416918401919091526001810180549192840191610cb490612f8c565b80601f0160208091040260200160405190810160405280929190818152602001828054610ce090612f8c565b8015610d2d5780601f10610d0257610100808354040283529160200191610d2d565b820191906000526020600020905b815481529060010190602001808311610d1057829003601f168201915b50505050508152602001600282018054610d4690612f8c565b80601f0160208091040260200160405190810160405280929190818152602001828054610d7290612f8c565b8015610dbf5780601f10610d9457610100808354040283529160200191610dbf565b820191906000526020600020905b815481529060010190602001808311610da257829003601f168201915b5050509183525050600382015463ffffffff811660208084019190915260ff640100000000909204821615156040808501919091526004850154606085015260058501546080850152805180830182526006860154815260a08501528051808201909152600785015483161515815260088501549181019190915260c0830152600983015460e0830152600a830154610100830152600b9092015490911615156101209091015292915050565b610e74611f3b565b610bd16000612267565b805160961015610ec15760405162461bcd60e51b815260206004820152600e60248201526d4d6178206368617261637465727360901b604482015260640161069d565b600b54604051631292f8c160e31b81526001600160a01b0390911690639497c60890610ef4906001903390600401612fc6565b602060405180830381865afa158015610f11573d6000803e3d6000fd5b505050506040513d601f19601f82011682018060405250810190610f359190612fec565b610f755760405162461bcd60e51b81526020600482015260116024820152704f6e6c7920726567656e657261746f727360781b604482015260640161069d565b3360009081526009602052604090206106dc828261307d565b6001600160a01b03808216600090815260036020908152604080832081516101a08101835281546001600160401b0381168252600160401b900490951692850192909252600182018054606095939284019190610fea90612f8c565b80601f016020809104026020016040519081016040528092919081815260200182805461101690612f8c565b80156110635780601f1061103857610100808354040283529160200191611063565b820191906000526020600020905b81548152906001019060200180831161104657829003601f168201915b5050505050815260200160028201805461107c90612f8c565b80601f01602080910402602001604051908101604052809291908181526020018280546110a890612f8c565b80156110f55780601f106110ca576101008083540402835291602001916110f5565b820191906000526020600020905b8154815290600101906020018083116110d857829003601f168201915b5050509183525050600382015463ffffffff811660208084019190915260ff640100000000909204821615156040808501919091526004850154606085015260058501546080850152805180830182526006860154815260a08501528051808201909152600785015483161515815260088501549181019190915260c0830152600983015460e0830152600a830154610100830152600b909201549091161515610120909101526101608101519091506000906001600160401b038111156111bf576111bf612bf9565b60405190808252806020026020018201604052801561120457816020015b60408051808201909152606080825260208201528152602001906001900390816111dd5790505b5061016083015190915060005b818110156113a5576001600160a01b038616600090815260056020526040902080548290811061124357611243613135565b906000526020600020906002020160405180604001604052908160008201805461126c90612f8c565b80601f016020809104026020016040519081016040528092919081815260200182805461129890612f8c565b80156112e55780601f106112ba576101008083540402835291602001916112e5565b820191906000526020600020905b8154815290600101906020018083116112c857829003601f168201915b505050505081526020016001820180546112fe90612f8c565b80601f016020809104026020016040519081016040528092919081815260200182805461132a90612f8c565b80156113775780601f1061134c57610100808354040283529160200191611377565b820191906000526020600020905b81548152906001019060200180831161135a57829003601f168201915b50505050508152505083828151811061139257611392613135565b6020908102919091010152600101611211565b5090949350505050565b6113b7611f3b565b6001600160a01b03166000908152600160208190526040909120805460ff19169091179055565b3360009081526001602052604090205460ff1661140d5760405162461bcd60e51b815260040161069d90612f29565b6010546001600160a01b03163381146114385760405162461bcd60e51b815260040161069d90612f55565b611443826001611f68565b6106dc82436001600160a01b03909116600090815260036020526040902060050155565b6006602052600090815260409020805461097290612f8c565b845160321080159061149457508351609610155b80156114a25750825160c810155b6114e75760405162461bcd60e51b815260206004820152601660248201527513585e0818da185c9858dd195c9cc81c995858da195960521b604482015260640161069d565b600381108015906114f95750600a8111155b6115585760405162461bcd60e51b815260206004820152602a60248201527f4d696e696d756d203320616e64206d6178696d756d20313020636f6f7264696e60448201526961746520706f696e747360b01b606482015260840161069d565b6109c463ffffffff8716108015906115795750620f424063ffffffff871611155b6115de5760405162461bcd60e51b815260206004820152603060248201527f4d696e696d756d203235303020616e64206d6178696d756d20312e3030302e3060448201526f303020737175617265206d657465727360801b606482015260840161069d565b6115e66105a9565b6116435760405162461bcd60e51b815260206004820152602860248201527f5761697420666f7220766163616e63793a204d617820726567656e657261746f6044820152671c9cc81b1a5b5a5d60c21b606482015260840161069d565b61164d82826122b7565b600b5460405162f5960960e51b81526000916001600160a01b031690631eb2c1209061167e90600190600401612ed3565b602060405180830381865afa15801561169b573d6000803e3d6000fd5b505050506040513d601f19601f820116820180604052508101906116bf919061314b565b6116ca906001613168565b9050604051806101a00160405280826001600160401b03168152602001336001600160a01b031681526020018781526020018681526020018863ffffffff16815260200160001515815260200160008152602001600081526020016040518060200160405280600081525081526020016040518060400160405280600015158152602001600c60009054906101000a90046001600160a01b03166001600160a01b031663ed0df79e6040518163ffffffff1660e01b8152600401602060405180830381865afa1580156117a1573d6000803e3d6000fd5b505050506040513d601f19601f820116820180604052508101906117c59190612ee7565b9052815243602080830191909152604080830186905260006060909301839052338352600382529182902083518154928501516001600160a01b0316600160401b026001600160e01b03199093166001600160401b0390911617919091178155908201516001820190611838908261307d565b506060820151600282019061184d908261307d565b50608082015160038201805460a085015115156401000000000264ffffffffff1990911663ffffffff9093169290921791909117905560c082015160048083019190915560e0830151600583015561010083015151600680840191909155610120840151805160078501805491151560ff1992831617905560209182015160088601556101408601516009860155610160860151600a86015561018090950151600b909401805494151594909516939093179093556001600160401b0384166000908152908252604080822080546001600160a01b031916339081179091558252929091522061193d858261307d565b50600b54604051639c3eead960e01b81526001600160a01b0390911690639c3eead990611971903390600190600401613187565b600060405180830381600087803b15801561198b57600080fd5b505af115801561199f573d6000803e3d6000fd5b505050508663ffffffff16600f60008282546119bb919061300e565b90915550600090505b82811015611a2b573360009081526005602052604090208484838181106119ed576119ed613135565b90506020028101906119ff91906131a4565b815460018101835560009283526020909220909160020201611a2182826132ca565b50506001016119c4565b50336001600160a01b0316816001600160401b03167fe7929ab3a316468d25671f32aa731ca41460f5459029b8ed818d4d32152c7f00888a43604051611a73939291906133ac565b60405180910390a350505050505050565b3360009081526001602052604090205460ff16611ab35760405162461bcd60e51b815260040161069d90612f29565b6010546001600160a01b0316338114611ade5760405162461bcd60e51b815260040161069d90612f55565b6001600160a01b03821660009081526003602052604090206004015480611b475760405162461bcd60e51b815260206004820152601860248201527f746f74616c496e7370656374696f6e7320696e76616c69640000000000000000604482015260640161069d565b80600103611b8557600d8054906000611b5f836133d7565b90915550506001600160a01b0383166000908152600760205260409020805460ff191690555b6005198101611bc457600e8054906000611b9e836133d7565b90915550506001600160a01b0383166000908152600860205260409020805460ff191690555b6001600160a01b0383166000908152600360205260408120600401805491611beb836133d7565b9190505550505050565b60056020528160005260406000208181548110611c1157600080fd5b906000526020600020906002020160009150915050806000018054611c3590612f8c565b80601f0160208091040260200160405190810160405280929190818152602001828054611c6190612f8c565b8015611cae5780601f10611c8357610100808354040283529160200191611cae565b820191906000526020600020905b815481529060010190602001808311611c9157829003601f168201915b505050505090806001018054611cc390612f8c565b80601f0160208091040260200160405190810160405280929190818152602001828054611cef90612f8c565b8015611d3c5780601f10611d1157610100808354040283529160200191611d3c565b820191906000526020600020905b815481529060010190602001808311611d1f57829003601f168201915b5050505050905082565b600c5460408051637686fbcf60e11b815290516000926001600160a01b03169163ed0df79e9160048083019260209291908290030181865afa158015610c2a573d6000803e3d6000fd5b611d98611f3b565b6001600160a01b038116611dc257604051631e4fbdf760e01b81526000600482015260240161069d565b611dcb81612267565b50565b3360009081526001602052604090205460ff16611dfd5760405162461bcd60e51b815260040161069d90612f29565b6011546001600160a01b0316338114611e285760405162461bcd60e51b815260040161069d90612f55565b611e30611fa3565b6001600160a01b0382166000908152600360205260409020600b81015460ff1615611eab5760405162461bcd60e51b815260206004820152602560248201527f526567656e657261746f7220616c72656164792066756c6c7920696e76616c6960448201526419185d195960da1b606482015260840161069d565b600b8101805460ff19166001179055611ec383612507565b600c54604051631af0d89760e01b81526001600160a01b038581166004830152600060248301526001604483015290911690631af0d89790606401600060405180830381600087803b158015611f1857600080fd5b505af1158015611f2c573d6000803e3d6000fd5b50505050506106dc6001600255565b6000546001600160a01b03163314610bd15760405163118cdaa760e01b815233600482015260240161069d565b6001600160a01b0390911660009081526003602081905260409091200180549115156401000000000264ff0000000019909216919091179055565b6002805403611fc557604051633ee5aeb560e01b815260040160405180910390fd5b60028055565b6001600160a01b03811660009081526003602052604081206004810180549083611ff4836133ee565b90915550506001600160a01b03831660009081526007602052604090205460ff16612050576001600160a01b0383166000908152600760205260408120805460ff19166001179055600d80549161204a836133ee565b91905055505b6004810154600519016120c8576001600160a01b0383166000908152600860205260408120805460ff19166001179055600e80549161208e836133ee565b90915550506040516001600160a01b038416907f93a038d030ae217569bb08e5257262840e0aeafc36b94b7cfb2dc41deabed21690600090a25b6004015492915050565b6001600160a01b0383166000908152600360205260408120805490916001600160401b0390911690036121475760405162461bcd60e51b815260206004820152601a60248201527f526567656e657261746f7220646f6573206e6f74206578697374000000000000604482015260640161069d565b8263ffffffff16816006016000016000828254612164919061300e565b909155505060048101546003111561217c5750505050565b600781015463ffffffff84169060ff166121eb575060078101805460ff1916600117905560068101546040516001600160a01b038616907fdf477f1abb30c779b76ead783acd2084230ef08ba1570ce9dee934c0c5b93b9d906121e29043815260200190565b60405180910390a25b600c546040516338e8490d60e11b81526001600160a01b038781166004830152602482018490526001600160401b0386166044830152909116906371d0921a90606401600060405180830381600087803b15801561224857600080fd5b505af115801561225c573d6000803e3d6000fd5b505050505050505050565b600080546001600160a01b038381166001600160a01b0319831681178455604051919092169283917f8be0079c531659141344cd1fd0a4f28419497f9722a3daafe3b4186f6b6457e09190a35050565b80620f424060005b828110156125005760006123348686848181106122de576122de613135565b90506020028101906122f091906131a4565b6122fa90806131c4565b8080601f01602080910402602001604051908101604052809392919081815260200183838082843760009201919091525061254592505050565b9050600061236d87878581811061234d5761234d613135565b905060200281019061235f91906131a4565b6122fa9060208101906131c4565b905061237b84605919613407565b8212158015612394575061239084605a613407565b8213155b6123d35760405162461bcd60e51b815260206004820152601060248201526f496e76616c6964206c6174697475646560801b604482015260640161069d565b6123df8460b319613407565b81121580156123f857506123f48460b4613407565b8113155b6124385760405162461bcd60e51b8152602060048201526011602482015270496e76616c6964206c6f6e67697475646560781b604482015260640161069d565b600061244584600161300e565b90505b858110156124f55760006124678989848181106122de576122de613135565b905060006124808a8a8581811061234d5761234d613135565b905081851415806124915750808414155b6124eb5760405162461bcd60e51b815260206004820152602560248201527f4475706c696361746520636f6f7264696e6174657320617265206e6f7420616c6044820152641b1bddd95960da1b606482015260840161069d565b5050600101612448565b5050506001016122bf565b5050505050565b6001600160a01b038116600090815260036020819052604082200154600f805463ffffffff90921692909161253d908490612f16565b909155505050565b805160009082901580159061255b5750601e8151105b6125a75760405162461bcd60e51b815260206004820181905260248201527f496e76616c696420636f6f7264696e61746520737472696e67206c656e677468604482015260640161069d565b6000806000199050600080846000815181106125c5576125c5613135565b01602001516001600160f81b031916602d60f81b036125e5575060019050805b815b855181101561273857600086828151811061260457612604613135565b01602001516001600160f81b03191690506000600360fc1b82108015906126395750603960f81b6001600160f81b0319831611155b9050601760f91b6001600160f81b031983161481806126555750805b6126a15760405162461bcd60e51b815260206004820152601f60248201527f496e76616c69642063686172616374657220696e20636f6f7264696e61746500604482015260640161069d565b80156127005786600019146126f85760405162461bcd60e51b815260206004820152601b60248201527f4d756c7469706c6520646f747320696e20636f6f7264696e6174650000000000604482015260640161069d565b83965061272d565b861961272d57612715603060f885901c613437565b61272089600a613407565b61272a919061345e565b97505b5050506001016125e7565b5082600019146128a6576000808061275186600161300e565b90505b8751811080156127645750600682105b1561285057600088828151811061277d5761277d613135565b01602001516001600160f81b0319169050600360fc1b81108015906127b05750603960f81b6001600160f81b0319821611155b6128065760405162461bcd60e51b815260206004820152602160248201527f496e76616c69642063686172616374657220696e20646563696d616c207061726044820152601d60fa1b606482015260840161069d565b612815603060f883901c613486565b60ff1661282385600a61349f565b61282d919061300e565b935082612839816133ee565b935050508080612848906133ee565b915050612754565b508161285d82600a61359d565b6128679088613407565b612871919061345e565b9550600681101561289f57612887816006612f16565b61289290600a61359d565b61289c9087613407565b95505b50506128b6565b6128b384620f4240613407565b93505b806128c157836128ca565b6128ca846135a9565b979650505050505050565b604051806101a0016040528060006001600160401b0316815260200160006001600160a01b031681526020016060815260200160608152602001600063ffffffff16815260200160001515815260200160008152602001600081526020016129496040518060200160405280600081525090565b815260200161296d6040518060400160405280600015158152602001600081525090565b815260200160008152602001600081526020016000151581525090565b80356001600160a01b03811681146129a157600080fd5b919050565b600080604083850312156129b957600080fd5b6129c28361298a565b91506129d06020840161298a565b90509250929050565b6000602082840312156129eb57600080fd5b6129f48261298a565b9392505050565b803563ffffffff811681146129a157600080fd5b6001600160401b0381168114611dcb57600080fd5b600080600060608486031215612a3957600080fd5b612a428461298a565b9250612a50602085016129fb565b91506040840135612a6081612a0f565b809150509250925092565b60008060408385031215612a7e57600080fd5b612a878361298a565b946020939093013593505050565b6000815180845260005b81811015612abb57602081850181015186830182015201612a9f565b506000602082860101526020601f19601f83011685010191505092915050565b6020815260006129f46020830184612a95565b60208152612b086020820183516001600160401b03169052565b60006020830151612b2460408401826001600160a01b03169052565b5060408301516101c06060840152612b406101e0840182612a95565b90506060840151601f19848303016080850152612b5d8282612a95565b9150506080840151612b7760a085018263ffffffff169052565b5060a084015180151560c08501525060c084015160e084015260e0840151610100840152610100840151612baf610120850182519052565b50610120840151805115156101408501526020810151610160850152506101408401516101808401526101608401516101a08401526101808401516108436101c085018215159052565b634e487b7160e01b600052604160045260246000fd5b600082601f830112612c2057600080fd5b81356001600160401b03811115612c3957612c39612bf9565b604051601f8201601f19908116603f011681016001600160401b0381118282101715612c6757612c67612bf9565b604052818152838201602001851015612c7f57600080fd5b816020850160208301376000918101602001919091529392505050565b600060208284031215612cae57600080fd5b81356001600160401b03811115612cc457600080fd5b612cd084828501612c0f565b949350505050565b6000602082016020835280845180835260408501915060408160051b86010192506020860160005b82811015612d5857603f198786030184528151805160408752612d266040880182612a95565b9050602082015191508681036020880152612d418183612a95565b965050506020938401939190910190600101612d00565b50929695505050505050565b60008060008060008060a08789031215612d7d57600080fd5b612d86876129fb565b955060208701356001600160401b03811115612da157600080fd5b612dad89828a01612c0f565b95505060408701356001600160401b03811115612dc957600080fd5b612dd589828a01612c0f565b94505060608701356001600160401b03811115612df157600080fd5b612dfd89828a01612c0f565b93505060808701356001600160401b03811115612e1957600080fd5b8701601f81018913612e2a57600080fd5b80356001600160401b03811115612e4057600080fd5b8960208260051b8401011115612e5557600080fd5b60208201935080925050509295509295509295565b604081526000612e7d6040830185612a95565b8281036020840152612e8f8185612a95565b95945050505050565b600060208284031215612eaa57600080fd5b5035919050565b60088110612ecf57634e487b7160e01b600052602160045260246000fd5b9052565b60208101612ee18284612eb1565b92915050565b600060208284031215612ef957600080fd5b5051919050565b634e487b7160e01b600052601160045260246000fd5b81810381811115612ee157612ee1612f00565b6020808252601290820152712737ba1030b63637bbb2b21031b0b63632b960711b604082015260600190565b6020808252601e908201527f43616c6c6572206d7573742062652073797374656d20636f6e74726163740000604082015260600190565b600181811c90821680612fa057607f821691505b602082108103612fc057634e487b7160e01b600052602260045260246000fd5b50919050565b60408101612fd48285612eb1565b6001600160a01b039290921660209190910152919050565b600060208284031215612ffe57600080fd5b815180151581146129f457600080fd5b80820180821115612ee157612ee1612f00565b601f82111561095457806000526020600020601f840160051c810160208510156130485750805b601f840160051c820191505b818110156125005760008155600101613054565b600019600383901b1c191660019190911b1790565b81516001600160401b0381111561309657613096612bf9565b6130aa816130a48454612f8c565b84613021565b6020601f8211600181146130d857600083156130c65750848201515b6130d08482613068565b855550612500565b600084815260208120601f198516915b8281101561310857878501518255602094850194600190920191016130e8565b50848210156131265786840151600019600387901b60f8161c191681555b50505050600190811b01905550565b634e487b7160e01b600052603260045260246000fd5b60006020828403121561315d57600080fd5b81516129f481612a0f565b6001600160401b038181168382160190811115612ee157612ee1612f00565b6001600160a01b0383168152604081016129f46020830184612eb1565b60008235603e198336030181126131ba57600080fd5b9190910192915050565b6000808335601e198436030181126131db57600080fd5b8301803591506001600160401b038211156131f557600080fd5b60200191503681900382131561320a57600080fd5b9250929050565b6001600160401b0383111561322857613228612bf9565b61323c836132368354612f8c565b83613021565b6000601f84116001811461326a57600085156132585750838201355b6132628682613068565b845550612500565b600083815260209020601f19861690835b8281101561329b578685013582556020948501946001909201910161327b565b50868210156132b85760001960f88860031b161c19848701351681555b505060018560011b0183555050505050565b6132d482836131c4565b6001600160401b038111156132eb576132eb612bf9565b6132ff816132f98554612f8c565b85613021565b6000601f82116001811461332d576000831561331b5750838201355b6133258482613068565b865550613387565b600085815260209020601f19841690835b8281101561335e578685013582556020948501946001909201910161333e565b508482101561337b5760001960f88660031b161c19848701351681555b505060018360011b0185555b5050505061339860208301836131c4565b6133a6818360018601613211565b50505050565b6060815260006133bf6060830186612a95565b63ffffffff9490941660208301525060400152919050565b6000816133e6576133e6612f00565b506000190190565b60006001820161340057613400612f00565b5060010190565b80820260008212600160ff1b8414161561342357613423612f00565b8181058314821517612ee157612ee1612f00565b818103600083128015838313168383128216171561345757613457612f00565b5092915050565b808201828112600083128015821682158216171561347e5761347e612f00565b505092915050565b60ff8281168282160390811115612ee157612ee1612f00565b8082028115828204841417612ee157612ee1612f00565b6001815b60018411156134f1578085048111156134d5576134d5612f00565b60018416156134e357908102905b60019390931c9280026134ba565b935093915050565b60008261350857506001612ee1565b8161351557506000612ee1565b816001811461352b576002811461353557613551565b6001915050612ee1565b60ff84111561354657613546612f00565b50506001821b612ee1565b5060208310610133831016604e8410600b8410161715613574575081810a612ee1565b61358160001984846134b6565b806000190482111561359557613595612f00565b029392505050565b60006129f483836134f9565b6000600160ff1b82016135be576135be612f00565b506000039056fea2646970667358221220d6c26326c963a3ce05024727cba84b8964e764096b13dd9ec32559bedf2b3ae264736f6c634300081b0033",
  "linkReferences": {},
  "deployedLinkReferences": {}
}