{
  "_format": "hh-sol-artifact-1",
  "contractName": "RegeneratorRules",
  "sourceName": "contracts/RegeneratorRules.sol",
  "abi": [
    {
      "inputs": [
        {
          "internalType": "address",
          "name": "communityRulesAddress",
          "type": "address"
        },
        {
          "internalType": "address",
          "name": "regeneratorPoolAddress",
          "type": "address"
        }
      ],
      "stateMutability": "nonpayable",
      "type": "constructor"
    },
    {
      "inputs": [
        {
          "internalType": "address",
          "name": "owner",
          "type": "address"
        }
      ],
      "name": "OwnableInvalidOwner",
      "type": "error"
    },
    {
      "inputs": [
        {
          "internalType": "address",
          "name": "account",
          "type": "address"
        }
      ],
      "name": "OwnableUnauthorizedAccount",
      "type": "error"
    },
    {
      "inputs": [],
      "name": "ReentrancyGuardReentrantCall",
      "type": "error"
    },
    {
      "anonymous": false,
      "inputs": [
        {
          "indexed": true,
          "internalType": "address",
          "name": "previousOwner",
          "type": "address"
        },
        {
          "indexed": true,
          "internalType": "address",
          "name": "newOwner",
          "type": "address"
        }
      ],
      "name": "OwnershipTransferred",
      "type": "event"
    },
    {
      "anonymous": false,
      "inputs": [
        {
          "indexed": true,
          "internalType": "address",
          "name": "regeneratorAddress",
          "type": "address"
        },
        {
          "indexed": false,
          "internalType": "uint256",
          "name": "blockNumber",
          "type": "uint256"
        }
      ],
      "name": "RegeneratorEnteredPool",
      "type": "event"
    },
    {
      "anonymous": false,
      "inputs": [
        {
          "indexed": true,
          "internalType": "uint256",
          "name": "id",
          "type": "uint256"
        },
        {
          "indexed": true,
          "internalType": "address",
          "name": "regeneratorAddress",
          "type": "address"
        },
        {
          "indexed": false,
          "internalType": "string",
          "name": "name",
          "type": "string"
        },
        {
          "indexed": false,
          "internalType": "uint32",
          "name": "totalArea",
          "type": "uint32"
        },
        {
          "indexed": false,
          "internalType": "uint256",
          "name": "blockNumber",
          "type": "uint256"
        }
      ],
      "name": "RegeneratorRegistered",
      "type": "event"
    },
    {
      "anonymous": false,
      "inputs": [
        {
          "indexed": true,
          "internalType": "address",
          "name": "regeneratorAddress",
          "type": "address"
        },
        {
          "indexed": true,
          "internalType": "uint256",
          "name": "era",
          "type": "uint256"
        },
        {
          "indexed": false,
          "internalType": "uint256",
          "name": "blockNumber",
          "type": "uint256"
        }
      ],
      "name": "RegeneratorWithdrawalInitiated",
      "type": "event"
    },
    {
      "inputs": [],
      "name": "MAX_REGENERATION_AREA",
      "outputs": [
        {
          "internalType": "uint32",
          "name": "",
          "type": "uint32"
        }
      ],
      "stateMutability": "view",
      "type": "function"
    },
    {
      "inputs": [],
      "name": "MINIMUM_INSPECTIONS_TO_POOL",
      "outputs": [
        {
          "internalType": "uint8",
          "name": "",
          "type": "uint8"
        }
      ],
      "stateMutability": "view",
      "type": "function"
    },
    {
      "inputs": [],
      "name": "MIN_REGENERATION_AREA",
      "outputs": [
        {
          "internalType": "uint32",
          "name": "",
          "type": "uint32"
        }
      ],
      "stateMutability": "view",
      "type": "function"
    },
    {
      "inputs": [
        {
          "internalType": "uint32",
          "name": "totalArea",
          "type": "uint32"
        },
        {
          "internalType": "string",
          "name": "name",
          "type": "string"
        },
        {
          "internalType": "string",
          "name": "proofPhoto",
          "type": "string"
        },
        {
          "internalType": "string",
          "name": "projectDescription",
          "type": "string"
        },
        {
          "components": [
            {
              "internalType": "string",
              "name": "latitude",
              "type": "string"
            },
            {
              "internalType": "string",
              "name": "longitude",
              "type": "string"
            }
          ],
          "internalType": "struct Coordinates[]",
          "name": "_coordinates",
          "type": "tuple[]"
        }
      ],
      "name": "addRegenerator",
      "outputs": [],
      "stateMutability": "nonpayable",
      "type": "function"
    },
    {
      "inputs": [
        {
          "internalType": "address",
          "name": "addr",
          "type": "address"
        }
      ],
      "name": "afterAcceptInspection",
      "outputs": [],
      "stateMutability": "nonpayable",
      "type": "function"
    },
    {
      "inputs": [
        {
          "internalType": "address",
          "name": "addr",
          "type": "address"
        },
        {
          "internalType": "uint32",
          "name": "score",
          "type": "uint32"
        },
        {
          "internalType": "uint64",
          "name": "inspectionId",
          "type": "uint64"
        }
      ],
      "name": "afterRealizeInspection",
      "outputs": [
        {
          "internalType": "uint256",
          "name": "",
          "type": "uint256"
        }
      ],
      "stateMutability": "nonpayable",
      "type": "function"
    },
    {
      "inputs": [
        {
          "internalType": "address",
          "name": "addr",
          "type": "address"
        }
      ],
      "name": "afterRequestInspection",
      "outputs": [],
      "stateMutability": "nonpayable",
      "type": "function"
    },
    {
      "inputs": [
        {
          "internalType": "address",
          "name": "",
          "type": "address"
        }
      ],
      "name": "allowedCallers",
      "outputs": [
        {
          "internalType": "bool",
          "name": "",
          "type": "bool"
        }
      ],
      "stateMutability": "view",
      "type": "function"
    },
    {
      "inputs": [
        {
          "internalType": "address",
          "name": "",
          "type": "address"
        }
      ],
      "name": "areaPhoto",
      "outputs": [
        {
          "internalType": "string",
          "name": "",
          "type": "string"
        }
      ],
      "stateMutability": "view",
      "type": "function"
    },
    {
      "inputs": [
        {
          "internalType": "address",
          "name": "",
          "type": "address"
        },
        {
          "internalType": "uint256",
          "name": "",
          "type": "uint256"
        }
      ],
      "name": "coordinates",
      "outputs": [
        {
          "internalType": "string",
          "name": "latitude",
          "type": "string"
        },
        {
          "internalType": "string",
          "name": "longitude",
          "type": "string"
        }
      ],
      "stateMutability": "view",
      "type": "function"
    },
    {
      "inputs": [
        {
          "internalType": "address",
          "name": "addr",
          "type": "address"
        }
      ],
      "name": "decrementInspections",
      "outputs": [],
      "stateMutability": "nonpayable",
      "type": "function"
    },
    {
      "inputs": [
        {
          "internalType": "address",
          "name": "addr",
          "type": "address"
        }
      ],
      "name": "getCoordinates",
      "outputs": [
        {
          "components": [
            {
              "internalType": "string",
              "name": "latitude",
              "type": "string"
            },
            {
              "internalType": "string",
              "name": "longitude",
              "type": "string"
            }
          ],
          "internalType": "struct Coordinates[]",
          "name": "",
          "type": "tuple[]"
        }
      ],
      "stateMutability": "view",
      "type": "function"
    },
    {
      "inputs": [
        {
          "internalType": "address",
          "name": "addr",
          "type": "address"
        }
      ],
      "name": "getRegenerator",
      "outputs": [
        {
          "components": [
            {
              "internalType": "uint64",
              "name": "id",
              "type": "uint64"
            },
            {
              "internalType": "address",
              "name": "regeneratorWallet",
              "type": "address"
            },
            {
              "internalType": "string",
              "name": "name",
              "type": "string"
            },
            {
              "internalType": "string",
              "name": "proofPhoto",
              "type": "string"
            },
            {
              "internalType": "uint32",
              "name": "totalArea",
              "type": "uint32"
            },
            {
              "internalType": "bool",
              "name": "pendingInspection",
              "type": "bool"
            },
            {
              "internalType": "uint256",
              "name": "totalInspections",
              "type": "uint256"
            },
            {
              "internalType": "uint256",
              "name": "lastRequestAt",
              "type": "uint256"
            },
            {
              "components": [
                {
                  "internalType": "uint256",
                  "name": "score",
                  "type": "uint256"
                }
              ],
              "internalType": "struct RegenerationScore",
              "name": "regenerationScore",
              "type": "tuple"
            },
            {
              "components": [
                {
                  "internalType": "bool",
                  "name": "onContractPool",
                  "type": "bool"
                },
                {
                  "internalType": "uint256",
                  "name": "currentEra",
                  "type": "uint256"
                }
              ],
              "internalType": "struct Pool",
              "name": "pool",
              "type": "tuple"
            },
            {
              "internalType": "uint256",
              "name": "createdAt",
              "type": "uint256"
            },
            {
              "internalType": "uint256",
              "name": "coordinatesCount",
              "type": "uint256"
            },
            {
              "internalType": "bool",
              "name": "isFullyInvalidated",
              "type": "bool"
            }
          ],
          "internalType": "struct Regenerator",
          "name": "regenerator",
          "type": "tuple"
        }
      ],
      "stateMutability": "view",
      "type": "function"
    },
    {
      "inputs": [
        {
          "internalType": "address",
          "name": "",
          "type": "address"
        }
      ],
      "name": "impactRegenerators",
      "outputs": [
        {
          "internalType": "bool",
          "name": "",
          "type": "bool"
        }
      ],
      "stateMutability": "view",
      "type": "function"
    },
    {
      "inputs": [
        {
          "internalType": "address",
          "name": "caller",
          "type": "address"
        }
      ],
      "name": "isAllowedCaller",
      "outputs": [
        {
          "internalType": "bool",
          "name": "",
          "type": "bool"
        }
      ],
      "stateMutability": "view",
      "type": "function"
    },
    {
      "inputs": [
        {
          "internalType": "address",
          "name": "allowed",
          "type": "address"
        }
      ],
      "name": "newAllowedCaller",
      "outputs": [],
      "stateMutability": "nonpayable",
      "type": "function"
    },
    {
      "inputs": [],
      "name": "nextEraIn",
      "outputs": [
        {
          "internalType": "uint256",
          "name": "",
          "type": "uint256"
        }
      ],
      "stateMutability": "view",
      "type": "function"
    },
    {
      "inputs": [],
      "name": "owner",
      "outputs": [
        {
          "internalType": "address",
          "name": "",
          "type": "address"
        }
      ],
      "stateMutability": "view",
      "type": "function"
    },
    {
      "inputs": [],
      "name": "poolCurrentEra",
      "outputs": [
        {
          "internalType": "uint256",
          "name": "",
          "type": "uint256"
        }
      ],
      "stateMutability": "view",
      "type": "function"
    },
    {
      "inputs": [
        {
          "internalType": "address",
          "name": "",
          "type": "address"
        }
      ],
      "name": "projectDescriptions",
      "outputs": [
        {
          "internalType": "string",
          "name": "",
          "type": "string"
        }
      ],
      "stateMutability": "view",
      "type": "function"
    },
    {
      "inputs": [],
      "name": "regenerationArea",
      "outputs": [
        {
          "internalType": "uint256",
          "name": "",
          "type": "uint256"
        }
      ],
      "stateMutability": "view",
      "type": "function"
    },
    {
      "inputs": [],
      "name": "regenerationTotalArea",
      "outputs": [
        {
          "internalType": "uint256",
          "name": "",
          "type": "uint256"
        }
      ],
      "stateMutability": "view",
      "type": "function"
    },
    {
      "inputs": [
        {
          "internalType": "uint256",
          "name": "",
          "type": "uint256"
        }
      ],
      "name": "regeneratorsAddress",
      "outputs": [
        {
          "internalType": "address",
          "name": "",
          "type": "address"
        }
      ],
      "stateMutability": "view",
      "type": "function"
    },
    {
      "inputs": [
        {
          "internalType": "address",
          "name": "addr",
          "type": "address"
        },
        {
          "internalType": "uint256",
          "name": "amountToRemove",
          "type": "uint256"
        }
      ],
      "name": "removeInspectionLevels",
      "outputs": [],
      "stateMutability": "nonpayable",
      "type": "function"
    },
    {
      "inputs": [
        {
          "internalType": "address",
          "name": "addr",
          "type": "address"
        },
        {
          "internalType": "bool",
          "name": "denied",
          "type": "bool"
        }
      ],
      "name": "removePoolLevels",
      "outputs": [],
      "stateMutability": "nonpayable",
      "type": "function"
    },
    {
      "inputs": [],
      "name": "renounceOwnership",
      "outputs": [],
      "stateMutability": "nonpayable",
      "type": "function"
    },
    {
      "inputs": [
        {
          "internalType": "address",
          "name": "_inspectionRulesAddress",
          "type": "address"
        },
        {
          "internalType": "address",
          "name": "_validationRulesAddress",
          "type": "address"
        }
      ],
      "name": "setContractCall",
      "outputs": [],
      "stateMutability": "nonpayable",
      "type": "function"
    },
    {
      "inputs": [],
      "name": "totalImpactRegenerators",
      "outputs": [
        {
          "internalType": "uint256",
          "name": "",
          "type": "uint256"
        }
      ],
      "stateMutability": "view",
      "type": "function"
    },
    {
      "inputs": [
        {
          "internalType": "address",
          "name": "newOwner",
          "type": "address"
        }
      ],
      "name": "transferOwnership",
      "outputs": [],
      "stateMutability": "nonpayable",
      "type": "function"
    },
    {
      "inputs": [
        {
          "internalType": "string",
          "name": "newPhoto",
          "type": "string"
        }
      ],
      "name": "updateAreaPhoto",
      "outputs": [],
      "stateMutability": "nonpayable",
      "type": "function"
    },
    {
      "inputs": [],
      "name": "withdraw",
      "outputs": [],
      "stateMutability": "nonpayable",
      "type": "function"
    }
  ],
  "bytecode": "0x608060405234801561001057600080fd5b50604051612c59380380612c5983398101604081905261002f91610101565b338061005557604051631e4fbdf760e01b81526000600482015260240160405180910390fd5b61005e81610095565b506001600255600a80546001600160a01b039384166001600160a01b031991821617909155600b8054929093169116179055610134565b600080546001600160a01b038381166001600160a01b0319831681178455604051919092169283917f8be0079c531659141344cd1fd0a4f28419497f9722a3daafe3b4186f6b6457e09190a35050565b80516001600160a01b03811681146100fc57600080fd5b919050565b6000806040838503121561011457600080fd5b61011d836100e5565b915061012b602084016100e5565b90509250929050565b612b16806101436000396000f3fe608060405234801561001057600080fd5b50600436106101e55760003560e01c806385b5ee9b1161010f578063a77963f0116100a2578063c85a58ff11610071578063c85a58ff1461044b578063e05cf1551461046c578063e57637f014610474578063f2fde38b1461049d57600080fd5b8063a77963f0146103f8578063aa8d536a14610412578063b9a68b2b14610425578063c3c983d21461043857600080fd5b80638f93716f116100de5780638f93716f1461039d57806394c3cee9146103b0578063a6801258146103c3578063a6bae8b0146103ef57600080fd5b806385b5ee9b1461032b5780638ca6bee81461034e5780638da5cb5b146103585780638ee394721461037d57600080fd5b8063442f9625116101875780636ea7a2e9116101565780636ea7a2e9146102bf578063715018a6146102dd57806377811610146102e55780637b334154146102f857600080fd5b8063442f96251461028657806345e0e89a1461028f578063582256f11461029757806365ab21b01461029f57600080fd5b8063218f23ca116101c3578063218f23ca146102385780632429f0de1461024b578063257b4e7c1461025e5780633ccfd60b1461027e57600080fd5b806304521ca3146101ea5780631db64204146101ff5780631e2d317614610212575b600080fd5b6101fd6101f836600461214d565b6104b0565b005b6101fd61020d366004612180565b6104e6565b6102256102203660046121cb565b610558565b6040519081526020015b60405180910390f35b6101fd610246366004612220565b6106c3565b6101fd610259366004612257565b610852565b61027161026c366004612180565b61095b565b60405161022f91906122c7565b6101fd6109f5565b610225600d5481565b600d54610225565b610225610bd5565b6102b26102ad366004612180565b610c55565b60405161022f91906122da565b6102c86101f481565b60405163ffffffff909116815260200161022f565b6101fd610e6e565b6101fd6102f33660046124c2565b610e80565b61031b610306366004612180565b60016020526000908152604090205460ff1681565b604051901515815260200161022f565b61031b610339366004612180565b60076020526000908152604090205460ff1681565b6102c86207a12081565b6000546001600160a01b03165b6040516001600160a01b03909116815260200161022f565b61039061038b366004612180565b610f90565b60405161022f91906124fe565b6101fd6103ab366004612180565b6113b1565b6101fd6103be366004612180565b6113e0565b61031b6103d1366004612180565b6001600160a01b031660009081526001602052604090205460ff1690565b610225600c5481565b610400600381565b60405160ff909116815260200161022f565b610271610420366004612180565b611469565b6101fd61043336600461258a565b611482565b6101fd610446366004612180565b611a2f565b61045e610459366004612257565b611b61565b60405161022f929190612758565b610225611cb2565b610365610482366004612786565b6004602052600090815260409020546001600160a01b031681565b6101fd6104ab366004612180565b611cfc565b6104b8611d3a565b600e80546001600160a01b039384166001600160a01b031991821617909155600f8054929093169116179055565b3360009081526001602052604090205460ff1661051e5760405162461bcd60e51b81526004016105159061279f565b60405180910390fd5b600e546001600160a01b03163381146105495760405162461bcd60e51b8152600401610515906127cb565b610554826000611d67565b5050565b3360009081526001602052604081205460ff166105875760405162461bcd60e51b81526004016105159061279f565b600e546001600160a01b03163381146105b25760405162461bcd60e51b8152600401610515906127cb565b6105ba611da2565b604063ffffffff851611156106015760405162461bcd60e51b815260206004820152600d60248201526c4d6178696d756d2073636f726560981b6044820152606401610515565b6001600160401b03831660009081526009602052604090205460ff16156106765760405162461bcd60e51b8152602060048201526024808201527f496e7370656374696f6e20726573756c747320616c7265616479207375626d696044820152631d1d195960e21b6064820152608401610515565b6001600160401b0383166000908152600960205260408120805460ff191660011790556106a286611dca565b90506106af868686611e59565b91506106bb6001600255565b509392505050565b3360009081526001602052604090205460ff166106f25760405162461bcd60e51b81526004016105159061279f565b600f546001600160a01b031633811461071d5760405162461bcd60e51b8152600401610515906127cb565b610725611da2565b6001600160a01b0383166000908152600360205260409020600b81015460ff16156107a05760405162461bcd60e51b815260206004820152602560248201527f526567656e657261746f7220616c72656164792066756c6c7920696e76616c6960448201526419185d195960da1b6064820152608401610515565b600b8101805460ff191660011790556001600160a01b0384166000908152600360205260408120600601556107d484611fee565b600b54604051631af0d89760e01b81526001600160a01b03868116600483015260006024830152851515604483015290911690631af0d89790606401600060405180830381600087803b15801561082a57600080fd5b505af115801561083e573d6000803e3d6000fd5b505050505061084d6001600255565b505050565b3360009081526001602052604090205460ff166108815760405162461bcd60e51b81526004016105159061279f565b600e546001600160a01b03163381146108ac5760405162461bcd60e51b8152600401610515906127cb565b6108b4611da2565b6001600160a01b038316600090815260036020526040812060060180548492906108df908490612818565b9091555050600b54604051631af0d89760e01b81526001600160a01b038581166004830152602482018590526000604483015290911690631af0d89790606401600060405180830381600087803b15801561093957600080fd5b505af115801561094d573d6000803e3d6000fd5b5050505061084d6001600255565b6008602052600090815260409020805461097490612831565b80601f01602080910402602001604051908101604052809291908181526020018280546109a090612831565b80156109ed5780601f106109c2576101008083540402835291602001916109ed565b820191906000526020600020905b8154815290600101906020018083116109d057829003601f168201915b505050505081565b6109fd611da2565b600a54604051631292f8c160e31b81526001600160a01b0390911690639497c60890610a3090600190339060040161288d565b602060405180830381865afa158015610a4d573d6000803e3d6000fd5b505050506040513d601f19601f82011682018060405250810190610a7191906128b3565b610ab65760405162461bcd60e51b815260206004820152601660248201527513db9b1e481c9959d95b995c985d1bdc9cc81c1bdbdb60521b6044820152606401610515565b3360009081526003602052604090206004810154610ad5906003111590565b610b175760405162461bcd60e51b81526020600482015260136024820152724d696e696d756d20696e7370656374696f6e7360681b6044820152606401610515565b6008810154610b278160016128d0565b6008830155600b5460405163f3fef3a360e01b8152336004820152602481018390526001600160a01b039091169063f3fef3a390604401600060405180830381600087803b158015610b7857600080fd5b505af1158015610b8c573d6000803e3d6000fd5b50506040514381528392503391507f81f7cfdaaebb3eb89eee117bbfcd1e956d1c8bfa759f5eda2ba6f63551a4db209060200160405180910390a35050610bd36001600255565b565b600b546000906001600160a01b031663d5ee3eb5610bf1611cb2565b6040518263ffffffff1660e01b8152600401610c0f91815260200190565b602060405180830381865afa158015610c2c573d6000803e3d6000fd5b505050506040513d601f19601f82011682018060405250810190610c5091906128e3565b905090565b610c5d61207c565b6001600160a01b0380831660009081526003602090815260409182902082516101a08101845281546001600160401b0381168252600160401b9004909416918401919091526001810180549192840191610cb690612831565b80601f0160208091040260200160405190810160405280929190818152602001828054610ce290612831565b8015610d2f5780601f10610d0457610100808354040283529160200191610d2f565b820191906000526020600020905b815481529060010190602001808311610d1257829003601f168201915b50505050508152602001600282018054610d4890612831565b80601f0160208091040260200160405190810160405280929190818152602001828054610d7490612831565b8015610dc15780601f10610d9657610100808354040283529160200191610dc1565b820191906000526020600020905b815481529060010190602001808311610da457829003601f168201915b5050509183525050600382015463ffffffff811660208084019190915260ff640100000000909204821615156040808501919091526004850154606085015260058501546080850152805180830182526006860154815260a08501528051808201909152600785015483161515815260088501549181019190915260c0830152600983015460e0830152600a830154610100830152600b9092015490911615156101209091015292915050565b610e76611d3a565b610bd3600061202c565b805160961015610ec35760405162461bcd60e51b815260206004820152600e60248201526d4d6178206368617261637465727360901b6044820152606401610515565b600a54604051631292f8c160e31b81526001600160a01b0390911690639497c60890610ef690600190339060040161288d565b602060405180830381865afa158015610f13573d6000803e3d6000fd5b505050506040513d601f19601f82011682018060405250810190610f3791906128b3565b610f775760405162461bcd60e51b81526020600482015260116024820152704f6e6c7920726567656e657261746f727360781b6044820152606401610515565b336000908152600860205260409020610554828261294a565b6001600160a01b03808216600090815260036020908152604080832081516101a08101835281546001600160401b0381168252600160401b900490951692850192909252600182018054606095939284019190610fec90612831565b80601f016020809104026020016040519081016040528092919081815260200182805461101890612831565b80156110655780601f1061103a57610100808354040283529160200191611065565b820191906000526020600020905b81548152906001019060200180831161104857829003601f168201915b5050505050815260200160028201805461107e90612831565b80601f01602080910402602001604051908101604052809291908181526020018280546110aa90612831565b80156110f75780601f106110cc576101008083540402835291602001916110f7565b820191906000526020600020905b8154815290600101906020018083116110da57829003601f168201915b5050509183525050600382015463ffffffff811660208084019190915260ff640100000000909204821615156040808501919091526004850154606085015260058501546080850152805180830182526006860154815260a08501528051808201909152600785015483161515815260088501549181019190915260c0830152600983015460e0830152600a830154610100830152600b909201549091161515610120909101526101608101519091506000906001600160401b038111156111c1576111c16123e5565b60405190808252806020026020018201604052801561120657816020015b60408051808201909152606080825260208201528152602001906001900390816111df5790505b5061016083015190915060005b818110156113a7576001600160a01b038616600090815260056020526040902080548290811061124557611245612a08565b906000526020600020906002020160405180604001604052908160008201805461126e90612831565b80601f016020809104026020016040519081016040528092919081815260200182805461129a90612831565b80156112e75780601f106112bc576101008083540402835291602001916112e7565b820191906000526020600020905b8154815290600101906020018083116112ca57829003601f168201915b5050505050815260200160018201805461130090612831565b80601f016020809104026020016040519081016040528092919081815260200182805461132c90612831565b80156113795780601f1061134e57610100808354040283529160200191611379565b820191906000526020600020905b81548152906001019060200180831161135c57829003601f168201915b50505050508152505083828151811061139457611394612a08565b6020908102919091010152600101611213565b5090949350505050565b6113b9611d3a565b6001600160a01b03166000908152600160208190526040909120805460ff19169091179055565b3360009081526001602052604090205460ff1661140f5760405162461bcd60e51b81526004016105159061279f565b600e546001600160a01b031633811461143a5760405162461bcd60e51b8152600401610515906127cb565b611445826001611d67565b61055482436001600160a01b03909116600090815260036020526040902060050155565b6006602052600090815260409020805461097490612831565b835160321080159061149657508251609610155b80156114a45750815160c810155b6114e95760405162461bcd60e51b815260206004820152601660248201527513585e0818da185c9858dd195c9cc81c995858da195960521b6044820152606401610515565b80516003118015906114fd57508051600a10155b61155c5760405162461bcd60e51b815260206004820152602a60248201527f4d696e696d756d203320616e64206d6178696d756d20313020636f6f7264696e60448201526961746520706f696e747360b01b6064820152608401610515565b6101f463ffffffff86161080159061157d57506207a12063ffffffff861611155b6115df5760405162461bcd60e51b815260206004820152602d60248201527f4d696e696d756d2035303020616e64206d6178696d756d203530302e3030302060448201526c737175617265206d657465727360981b6064820152608401610515565b600a5460405162f5960960e51b81526000916001600160a01b031690631eb2c1209061161090600190600401612a1e565b602060405180830381865afa15801561162d573d6000803e3d6000fd5b505050506040513d601f19601f820116820180604052508101906116519190612a2c565b61165c906001612a49565b9050604051806101a00160405280826001600160401b03168152602001336001600160a01b031681526020018681526020018581526020018763ffffffff16815260200160001515815260200160008152602001600081526020016040518060200160405280600081525081526020016040518060400160405280600015158152602001600b60009054906101000a90046001600160a01b03166001600160a01b031663ed0df79e6040518163ffffffff1660e01b8152600401602060405180830381865afa158015611733573d6000803e3d6000fd5b505050506040513d601f19601f8201168201806040525081019061175791906128e3565b9052815243602080830191909152845160408084019190915260006060909301839052338352600382529182902083518154928501516001600160a01b0316600160401b026001600160e01b03199093166001600160401b03909116179190911781559082015160018201906117cd908261294a565b50606082015160028201906117e2908261294a565b50608082015160038201805460a085015115156401000000000264ffffffffff1990911663ffffffff9093169290921791909117905560c082015160048083019190915560e0830151600583015561010083015151600680840191909155610120840151805160078501805491151560ff1992831617905560209182015160088601556101408601516009860155610160860151600a86015561018090950151600b909401805494151594909516939093179093556001600160401b0384166000908152908252604080822080546001600160a01b03191633908117909155825292909152206118d2848261294a565b50600a54604051639c3eead960e01b81526001600160a01b0390911690639c3eead990611906903390600190600401612a68565b600060405180830381600087803b15801561192057600080fd5b505af1158015611934573d6000803e3d6000fd5b505050508563ffffffff16600d600082825461195091906128d0565b90915550600090505b82518110156119d757336000908152600560205260409020835184908390811061198557611985612a08565b602090810291909101810151825460018101845560009384529190922082516002909202019081906119b7908261294a565b50602082015160018201906119cc908261294a565b505050600101611959565b50336001600160a01b0316816001600160401b03167fe7929ab3a316468d25671f32aa731ca41460f5459029b8ed818d4d32152c7f00878943604051611a1f93929190612a85565b60405180910390a3505050505050565b3360009081526001602052604090205460ff16611a5e5760405162461bcd60e51b81526004016105159061279f565b600e546001600160a01b0316338114611a895760405162461bcd60e51b8152600401610515906127cb565b6001600160a01b03821660009081526003602052604090206004015480611af25760405162461bcd60e51b815260206004820152601860248201527f746f74616c496e7370656374696f6e7320696e76616c696400000000000000006044820152606401610515565b80600103611b3057600c8054906000611b0a83612ab0565b90915550506001600160a01b0383166000908152600760205260409020805460ff191690555b6001600160a01b0383166000908152600360205260408120600401805491611b5783612ab0565b9190505550505050565b60056020528160005260406000208181548110611b7d57600080fd5b906000526020600020906002020160009150915050806000018054611ba190612831565b80601f0160208091040260200160405190810160405280929190818152602001828054611bcd90612831565b8015611c1a5780601f10611bef57610100808354040283529160200191611c1a565b820191906000526020600020905b815481529060010190602001808311611bfd57829003601f168201915b505050505090806001018054611c2f90612831565b80601f0160208091040260200160405190810160405280929190818152602001828054611c5b90612831565b8015611ca85780601f10611c7d57610100808354040283529160200191611ca8565b820191906000526020600020905b815481529060010190602001808311611c8b57829003601f168201915b5050505050905082565b600b5460408051637686fbcf60e11b815290516000926001600160a01b03169163ed0df79e9160048083019260209291908290030181865afa158015610c2c573d6000803e3d6000fd5b611d04611d3a565b6001600160a01b038116611d2e57604051631e4fbdf760e01b815260006004820152602401610515565b611d378161202c565b50565b6000546001600160a01b03163314610bd35760405163118cdaa760e01b8152336004820152602401610515565b6001600160a01b0390911660009081526003602081905260409091200180549115156401000000000264ff0000000019909216919091179055565b6002805403611dc457604051633ee5aeb560e01b815260040160405180910390fd5b60028055565b6001600160a01b03811660009081526003602052604081206004810180549083611df383612ac7565b90915550506001600160a01b03831660009081526007602052604090205460ff16611e4f576001600160a01b0383166000908152600760205260408120805460ff19166001179055600c805491611e4983612ac7565b91905055505b6004015492915050565b6001600160a01b0383166000908152600360205260408120805490916001600160401b039091169003611ece5760405162461bcd60e51b815260206004820152601a60248201527f526567656e657261746f7220646f6573206e6f742065786973740000000000006044820152606401610515565b8263ffffffff16816006016000016000828254611eeb91906128d0565b9091555050600481015460031115611f035750505050565b600781015463ffffffff84169060ff16611f72575060078101805460ff1916600117905560068101546040516001600160a01b038616907fdf477f1abb30c779b76ead783acd2084230ef08ba1570ce9dee934c0c5b93b9d90611f699043815260200190565b60405180910390a25b600b546040516338e8490d60e11b81526001600160a01b038781166004830152602482018490526001600160401b0386166044830152909116906371d0921a90606401600060405180830381600087803b158015611fcf57600080fd5b505af1158015611fe3573d6000803e3d6000fd5b505050505050505050565b6001600160a01b038116600090815260036020819052604082200154600d805463ffffffff909216929091612024908490612818565b909155505050565b600080546001600160a01b038381166001600160a01b0319831681178455604051919092169283917f8be0079c531659141344cd1fd0a4f28419497f9722a3daafe3b4186f6b6457e09190a35050565b604051806101a0016040528060006001600160401b0316815260200160006001600160a01b031681526020016060815260200160608152602001600063ffffffff16815260200160001515815260200160008152602001600081526020016120f06040518060200160405280600081525090565b81526020016121146040518060400160405280600015158152602001600081525090565b815260200160008152602001600081526020016000151581525090565b80356001600160a01b038116811461214857600080fd5b919050565b6000806040838503121561216057600080fd5b61216983612131565b915061217760208401612131565b90509250929050565b60006020828403121561219257600080fd5b61219b82612131565b9392505050565b803563ffffffff8116811461214857600080fd5b6001600160401b0381168114611d3757600080fd5b6000806000606084860312156121e057600080fd5b6121e984612131565b92506121f7602085016121a2565b91506040840135612207816121b6565b809150509250925092565b8015158114611d3757600080fd5b6000806040838503121561223357600080fd5b61223c83612131565b9150602083013561224c81612212565b809150509250929050565b6000806040838503121561226a57600080fd5b61227383612131565b946020939093013593505050565b6000815180845260005b818110156122a75760208185018101518683018201520161228b565b506000602082860101526020601f19601f83011685010191505092915050565b60208152600061219b6020830184612281565b602081526122f46020820183516001600160401b03169052565b6000602083015161231060408401826001600160a01b03169052565b5060408301516101c0606084015261232c6101e0840182612281565b90506060840151601f198483030160808501526123498282612281565b915050608084015161236360a085018263ffffffff169052565b5060a084015180151560c08501525060c084015160e084015260e084015161010084015261010084015161239b610120850182519052565b50610120840151805115156101408501526020810151610160850152506101408401516101808401526101608401516101a08401526101808401516106bb6101c085018215159052565b634e487b7160e01b600052604160045260246000fd5b604080519081016001600160401b038111828210171561241d5761241d6123e5565b60405290565b604051601f8201601f191681016001600160401b038111828210171561244b5761244b6123e5565b604052919050565b600082601f83011261246457600080fd5b81356001600160401b0381111561247d5761247d6123e5565b612490601f8201601f1916602001612423565b8181528460208386010111156124a557600080fd5b816020850160208301376000918101602001919091529392505050565b6000602082840312156124d457600080fd5b81356001600160401b038111156124ea57600080fd5b6124f684828501612453565b949350505050565b6000602082016020835280845180835260408501915060408160051b86010192506020860160005b8281101561257e57603f19878603018452815180516040875261254c6040880182612281565b90506020820151915086810360208801526125678183612281565b965050506020938401939190910190600101612526565b50929695505050505050565b600080600080600060a086880312156125a257600080fd5b6125ab866121a2565b945060208601356001600160401b038111156125c657600080fd5b6125d288828901612453565b94505060408601356001600160401b038111156125ee57600080fd5b6125fa88828901612453565b93505060608601356001600160401b0381111561261657600080fd5b61262288828901612453565b92505060808601356001600160401b0381111561263e57600080fd5b8601601f8101881361264f57600080fd5b80356001600160401b03811115612668576126686123e5565b8060051b61267860208201612423565b9182526020818401810192908101908b84111561269457600080fd5b6020850192505b838310156127465782356001600160401b038111156126b957600080fd5b85016040818e03601f190112156126cf57600080fd5b6126d76123fb565b60208201356001600160401b038111156126f057600080fd5b6126ff8f602083860101612453565b82525060408201356001600160401b0381111561271b57600080fd5b61272a8f602083860101612453565b602083015250808452505060208201915060208301925061269b565b80955050505050509295509295909350565b60408152600061276b6040830185612281565b828103602084015261277d8185612281565b95945050505050565b60006020828403121561279857600080fd5b5035919050565b6020808252601290820152712737ba1030b63637bbb2b21031b0b63632b960711b604082015260600190565b6020808252601e908201527f43616c6c6572206d7573742062652073797374656d20636f6e74726163740000604082015260600190565b634e487b7160e01b600052601160045260246000fd5b8181038181111561282b5761282b612802565b92915050565b600181811c9082168061284557607f821691505b60208210810361286557634e487b7160e01b600052602260045260246000fd5b50919050565b6009811061288957634e487b7160e01b600052602160045260246000fd5b9052565b6040810161289b828561286b565b6001600160a01b039290921660209190910152919050565b6000602082840312156128c557600080fd5b815161219b81612212565b8082018082111561282b5761282b612802565b6000602082840312156128f557600080fd5b5051919050565b601f82111561084d57806000526020600020601f840160051c810160208510156129235750805b601f840160051c820191505b81811015612943576000815560010161292f565b5050505050565b81516001600160401b03811115612963576129636123e5565b612977816129718454612831565b846128fc565b6020601f8211600181146129ab57600083156129935750848201515b600019600385901b1c1916600184901b178455612943565b600084815260208120601f198516915b828110156129db57878501518255602094850194600190920191016129bb565b50848210156129f95786840151600019600387901b60f8161c191681555b50505050600190811b01905550565b634e487b7160e01b600052603260045260246000fd5b6020810161282b828461286b565b600060208284031215612a3e57600080fd5b815161219b816121b6565b6001600160401b03818116838216019081111561282b5761282b612802565b6001600160a01b03831681526040810161219b602083018461286b565b606081526000612a986060830186612281565b63ffffffff9490941660208301525060400152919050565b600081612abf57612abf612802565b506000190190565b600060018201612ad957612ad9612802565b506001019056fea2646970667358221220028615e1dae5a26d7eb3bc387cf4ac20d1d1b38e7c3168df02e4a2e8f45f8e0364736f6c634300081b0033",
  "linkReferences": {},
  "deployedLinkReferences": {}
}