{
  "_format": "hh-sol-artifact-1",
  "contractName": "ResearcherRules",
  "sourceName": "contracts/ResearcherRules.sol",
  "abi": [
    {
      "inputs": [
        {
          "internalType": "uint32",
          "name": "timeBetweenWorks_",
          "type": "uint32"
        },
        {
          "internalType": "uint8",
          "name": "maxPenalties_",
          "type": "uint8"
        },
        {
          "internalType": "uint32",
          "name": "securityBlocksToValidation_",
          "type": "uint32"
        }
      ],
      "stateMutability": "nonpayable",
      "type": "constructor"
    },
    {
      "inputs": [
        {
          "internalType": "address",
          "name": "owner",
          "type": "address"
        }
      ],
      "name": "OwnableInvalidOwner",
      "type": "error"
    },
    {
      "inputs": [
        {
          "internalType": "address",
          "name": "account",
          "type": "address"
        }
      ],
      "name": "OwnableUnauthorizedAccount",
      "type": "error"
    },
    {
      "inputs": [],
      "name": "ReentrancyGuardReentrantCall",
      "type": "error"
    },
    {
      "anonymous": false,
      "inputs": [
        {
          "indexed": true,
          "internalType": "address",
          "name": "previousOwner",
          "type": "address"
        },
        {
          "indexed": true,
          "internalType": "address",
          "name": "newOwner",
          "type": "address"
        }
      ],
      "name": "OwnershipTransferred",
      "type": "event"
    },
    {
      "anonymous": false,
      "inputs": [
        {
          "indexed": true,
          "internalType": "uint256",
          "name": "researchId",
          "type": "uint256"
        },
        {
          "indexed": true,
          "internalType": "address",
          "name": "invalidatedBy",
          "type": "address"
        },
        {
          "indexed": false,
          "internalType": "string",
          "name": "justification",
          "type": "string"
        }
      ],
      "name": "ResearchInvalidated",
      "type": "event"
    },
    {
      "anonymous": false,
      "inputs": [
        {
          "indexed": true,
          "internalType": "uint256",
          "name": "researchId",
          "type": "uint256"
        },
        {
          "indexed": true,
          "internalType": "address",
          "name": "researcher",
          "type": "address"
        },
        {
          "indexed": false,
          "internalType": "uint256",
          "name": "publishedAt",
          "type": "uint256"
        }
      ],
      "name": "ResearchPublished",
      "type": "event"
    },
    {
      "anonymous": false,
      "inputs": [
        {
          "indexed": true,
          "internalType": "address",
          "name": "_validatorAddress",
          "type": "address"
        },
        {
          "indexed": false,
          "internalType": "uint256",
          "name": "_resourceId",
          "type": "uint256"
        },
        {
          "indexed": false,
          "internalType": "string",
          "name": "_justification",
          "type": "string"
        }
      ],
      "name": "ResearchValidation",
      "type": "event"
    },
    {
      "anonymous": false,
      "inputs": [
        {
          "indexed": true,
          "internalType": "address",
          "name": "researcherAddress",
          "type": "address"
        },
        {
          "indexed": false,
          "internalType": "uint256",
          "name": "researcherId",
          "type": "uint256"
        },
        {
          "indexed": false,
          "internalType": "string",
          "name": "name",
          "type": "string"
        }
      ],
      "name": "ResearcherRegistered",
      "type": "event"
    },
    {
      "inputs": [],
      "name": "INITIAL_USER_COUNT_THRESHOLD",
      "outputs": [
        {
          "internalType": "uint256",
          "name": "",
          "type": "uint256"
        }
      ],
      "stateMutability": "view",
      "type": "function"
    },
    {
      "inputs": [],
      "name": "MAX_USER_COUNT",
      "outputs": [
        {
          "internalType": "uint16",
          "name": "",
          "type": "uint16"
        }
      ],
      "stateMutability": "view",
      "type": "function"
    },
    {
      "inputs": [
        {
          "internalType": "string",
          "name": "item",
          "type": "string"
        },
        {
          "internalType": "string",
          "name": "thesis",
          "type": "string"
        },
        {
          "internalType": "string",
          "name": "unit",
          "type": "string"
        },
        {
          "internalType": "uint256",
          "name": "carbonImpact",
          "type": "uint256"
        }
      ],
      "name": "addCalculatorItem",
      "outputs": [],
      "stateMutability": "nonpayable",
      "type": "function"
    },
    {
      "inputs": [
        {
          "internalType": "string",
          "name": "title",
          "type": "string"
        },
        {
          "internalType": "string",
          "name": "research",
          "type": "string"
        },
        {
          "internalType": "string",
          "name": "projectURL",
          "type": "string"
        }
      ],
      "name": "addEvaluationMethod",
      "outputs": [],
      "stateMutability": "nonpayable",
      "type": "function"
    },
    {
      "inputs": [
        {
          "internalType": "string",
          "name": "title",
          "type": "string"
        },
        {
          "internalType": "string",
          "name": "thesis",
          "type": "string"
        },
        {
          "internalType": "string",
          "name": "file",
          "type": "string"
        }
      ],
      "name": "addResearch",
      "outputs": [],
      "stateMutability": "nonpayable",
      "type": "function"
    },
    {
      "inputs": [
        {
          "internalType": "uint64",
          "name": "id",
          "type": "uint64"
        },
        {
          "internalType": "string",
          "name": "justification",
          "type": "string"
        }
      ],
      "name": "addResearchValidation",
      "outputs": [],
      "stateMutability": "nonpayable",
      "type": "function"
    },
    {
      "inputs": [
        {
          "internalType": "string",
          "name": "name",
          "type": "string"
        },
        {
          "internalType": "string",
          "name": "proofPhoto",
          "type": "string"
        }
      ],
      "name": "addResearcher",
      "outputs": [],
      "stateMutability": "nonpayable",
      "type": "function"
    },
    {
      "inputs": [
        {
          "internalType": "address",
          "name": "",
          "type": "address"
        }
      ],
      "name": "allowedCallers",
      "outputs": [
        {
          "internalType": "bool",
          "name": "",
          "type": "bool"
        }
      ],
      "stateMutability": "view",
      "type": "function"
    },
    {
      "inputs": [
        {
          "internalType": "uint64",
          "name": "",
          "type": "uint64"
        }
      ],
      "name": "calculatorItems",
      "outputs": [
        {
          "internalType": "uint64",
          "name": "id",
          "type": "uint64"
        },
        {
          "internalType": "address",
          "name": "createdBy",
          "type": "address"
        },
        {
          "internalType": "string",
          "name": "item",
          "type": "string"
        },
        {
          "internalType": "string",
          "name": "thesis",
          "type": "string"
        },
        {
          "internalType": "string",
          "name": "unit",
          "type": "string"
        },
        {
          "internalType": "uint256",
          "name": "carbonImpact",
          "type": "uint256"
        },
        {
          "internalType": "uint256",
          "name": "createdAtBlock",
          "type": "uint256"
        }
      ],
      "stateMutability": "view",
      "type": "function"
    },
    {
      "inputs": [],
      "name": "calculatorItemsCount",
      "outputs": [
        {
          "internalType": "uint64",
          "name": "",
          "type": "uint64"
        }
      ],
      "stateMutability": "view",
      "type": "function"
    },
    {
      "inputs": [
        {
          "internalType": "uint256",
          "name": "totalLevels",
          "type": "uint256"
        },
        {
          "internalType": "uint256",
          "name": "totalUsers",
          "type": "uint256"
        },
        {
          "internalType": "uint256",
          "name": "userLevels",
          "type": "uint256"
        }
      ],
      "name": "canInvite",
      "outputs": [
        {
          "internalType": "bool",
          "name": "",
          "type": "bool"
        }
      ],
      "stateMutability": "pure",
      "type": "function"
    },
    {
      "inputs": [
        {
          "internalType": "address",
          "name": "addr",
          "type": "address"
        }
      ],
      "name": "canPublishCalculatorItem",
      "outputs": [
        {
          "internalType": "bool",
          "name": "",
          "type": "bool"
        }
      ],
      "stateMutability": "view",
      "type": "function"
    },
    {
      "inputs": [
        {
          "internalType": "address",
          "name": "addr",
          "type": "address"
        }
      ],
      "name": "canPublishResearch",
      "outputs": [
        {
          "internalType": "bool",
          "name": "",
          "type": "bool"
        }
      ],
      "stateMutability": "view",
      "type": "function"
    },
    {
      "inputs": [
        {
          "internalType": "address",
          "name": "addr",
          "type": "address"
        }
      ],
      "name": "canSendInvite",
      "outputs": [
        {
          "internalType": "bool",
          "name": "",
          "type": "bool"
        }
      ],
      "stateMutability": "view",
      "type": "function"
    },
    {
      "inputs": [
        {
          "internalType": "uint256",
          "name": "",
          "type": "uint256"
        }
      ],
      "name": "evaluationMethods",
      "outputs": [
        {
          "internalType": "uint64",
          "name": "id",
          "type": "uint64"
        },
        {
          "internalType": "address",
          "name": "createdBy",
          "type": "address"
        },
        {
          "internalType": "string",
          "name": "title",
          "type": "string"
        },
        {
          "internalType": "string",
          "name": "research",
          "type": "string"
        },
        {
          "internalType": "string",
          "name": "projectURL",
          "type": "string"
        },
        {
          "internalType": "uint256",
          "name": "createdAtBlock",
          "type": "uint256"
        }
      ],
      "stateMutability": "view",
      "type": "function"
    },
    {
      "inputs": [],
      "name": "evaluationMethodsCount",
      "outputs": [
        {
          "internalType": "uint64",
          "name": "",
          "type": "uint64"
        }
      ],
      "stateMutability": "view",
      "type": "function"
    },
    {
      "inputs": [
        {
          "internalType": "uint64",
          "name": "id",
          "type": "uint64"
        }
      ],
      "name": "getCalculatorItem",
      "outputs": [
        {
          "components": [
            {
              "internalType": "uint64",
              "name": "id",
              "type": "uint64"
            },
            {
              "internalType": "address",
              "name": "createdBy",
              "type": "address"
            },
            {
              "internalType": "string",
              "name": "item",
              "type": "string"
            },
            {
              "internalType": "string",
              "name": "thesis",
              "type": "string"
            },
            {
              "internalType": "string",
              "name": "unit",
              "type": "string"
            },
            {
              "internalType": "uint256",
              "name": "carbonImpact",
              "type": "uint256"
            },
            {
              "internalType": "uint256",
              "name": "createdAtBlock",
              "type": "uint256"
            }
          ],
          "internalType": "struct CalculatorItem",
          "name": "",
          "type": "tuple"
        }
      ],
      "stateMutability": "view",
      "type": "function"
    },
    {
      "inputs": [
        {
          "internalType": "uint64",
          "name": "id",
          "type": "uint64"
        }
      ],
      "name": "getResearch",
      "outputs": [
        {
          "components": [
            {
              "internalType": "uint64",
              "name": "id",
              "type": "uint64"
            },
            {
              "internalType": "uint256",
              "name": "era",
              "type": "uint256"
            },
            {
              "internalType": "address",
              "name": "createdBy",
              "type": "address"
            },
            {
              "internalType": "string",
              "name": "title",
              "type": "string"
            },
            {
              "internalType": "string",
              "name": "thesis",
              "type": "string"
            },
            {
              "internalType": "string",
              "name": "file",
              "type": "string"
            },
            {
              "internalType": "uint256",
              "name": "validationsCount",
              "type": "uint256"
            },
            {
              "internalType": "bool",
              "name": "valid",
              "type": "bool"
            },
            {
              "internalType": "uint256",
              "name": "invalidatedAt",
              "type": "uint256"
            },
            {
              "internalType": "uint256",
              "name": "createdAtBlock",
              "type": "uint256"
            }
          ],
          "internalType": "struct Research",
          "name": "",
          "type": "tuple"
        }
      ],
      "stateMutability": "view",
      "type": "function"
    },
    {
      "inputs": [
        {
          "internalType": "address",
          "name": "addr",
          "type": "address"
        }
      ],
      "name": "getResearcher",
      "outputs": [
        {
          "components": [
            {
              "internalType": "uint64",
              "name": "id",
              "type": "uint64"
            },
            {
              "internalType": "address",
              "name": "researcherWallet",
              "type": "address"
            },
            {
              "internalType": "string",
              "name": "name",
              "type": "string"
            },
            {
              "components": [
                {
                  "internalType": "uint256",
                  "name": "level",
                  "type": "uint256"
                },
                {
                  "internalType": "uint256",
                  "name": "currentEra",
                  "type": "uint256"
                }
              ],
              "internalType": "struct Pool",
              "name": "pool",
              "type": "tuple"
            },
            {
              "internalType": "string",
              "name": "proofPhoto",
              "type": "string"
            },
            {
              "internalType": "uint256",
              "name": "publishedResearches",
              "type": "uint256"
            },
            {
              "internalType": "uint256",
              "name": "lastPublishedAt",
              "type": "uint256"
            },
            {
              "internalType": "uint256",
              "name": "publishedItems",
              "type": "uint256"
            },
            {
              "internalType": "uint256",
              "name": "lastCalculatorItemAt",
              "type": "uint256"
            },
            {
              "internalType": "uint256",
              "name": "createdAt",
              "type": "uint256"
            },
            {
              "internalType": "bool",
              "name": "canPublishMethod",
              "type": "bool"
            }
          ],
          "internalType": "struct Researcher",
          "name": "",
          "type": "tuple"
        }
      ],
      "stateMutability": "view",
      "type": "function"
    },
    {
      "inputs": [
        {
          "internalType": "address",
          "name": "caller",
          "type": "address"
        }
      ],
      "name": "isAllowedCaller",
      "outputs": [
        {
          "internalType": "bool",
          "name": "",
          "type": "bool"
        }
      ],
      "stateMutability": "view",
      "type": "function"
    },
    {
      "inputs": [],
      "name": "maxPenalties",
      "outputs": [
        {
          "internalType": "uint8",
          "name": "",
          "type": "uint8"
        }
      ],
      "stateMutability": "view",
      "type": "function"
    },
    {
      "inputs": [
        {
          "internalType": "address",
          "name": "allowed",
          "type": "address"
        }
      ],
      "name": "newAllowedCaller",
      "outputs": [],
      "stateMutability": "nonpayable",
      "type": "function"
    },
    {
      "inputs": [],
      "name": "nextEraIn",
      "outputs": [
        {
          "internalType": "uint256",
          "name": "",
          "type": "uint256"
        }
      ],
      "stateMutability": "view",
      "type": "function"
    },
    {
      "inputs": [],
      "name": "owner",
      "outputs": [
        {
          "internalType": "address",
          "name": "",
          "type": "address"
        }
      ],
      "stateMutability": "view",
      "type": "function"
    },
    {
      "inputs": [
        {
          "internalType": "address",
          "name": "",
          "type": "address"
        },
        {
          "internalType": "uint256",
          "name": "",
          "type": "uint256"
        }
      ],
      "name": "penalties",
      "outputs": [
        {
          "internalType": "uint256",
          "name": "researchId",
          "type": "uint256"
        }
      ],
      "stateMutability": "view",
      "type": "function"
    },
    {
      "inputs": [],
      "name": "poolCurrentEra",
      "outputs": [
        {
          "internalType": "uint256",
          "name": "",
          "type": "uint256"
        }
      ],
      "stateMutability": "view",
      "type": "function"
    },
    {
      "inputs": [
        {
          "internalType": "address",
          "name": "addr",
          "type": "address"
        }
      ],
      "name": "removePoolLevels",
      "outputs": [],
      "stateMutability": "nonpayable",
      "type": "function"
    },
    {
      "inputs": [],
      "name": "renounceOwnership",
      "outputs": [],
      "stateMutability": "nonpayable",
      "type": "function"
    },
    {
      "inputs": [
        {
          "internalType": "uint64",
          "name": "",
          "type": "uint64"
        }
      ],
      "name": "researchPenalized",
      "outputs": [
        {
          "internalType": "bool",
          "name": "",
          "type": "bool"
        }
      ],
      "stateMutability": "view",
      "type": "function"
    },
    {
      "inputs": [
        {
          "internalType": "uint256",
          "name": "",
          "type": "uint256"
        }
      ],
      "name": "researchersAddress",
      "outputs": [
        {
          "internalType": "address",
          "name": "",
          "type": "address"
        }
      ],
      "stateMutability": "view",
      "type": "function"
    },
    {
      "inputs": [
        {
          "internalType": "uint256",
          "name": "",
          "type": "uint256"
        }
      ],
      "name": "researches",
      "outputs": [
        {
          "internalType": "uint64",
          "name": "id",
          "type": "uint64"
        },
        {
          "internalType": "uint256",
          "name": "era",
          "type": "uint256"
        },
        {
          "internalType": "address",
          "name": "createdBy",
          "type": "address"
        },
        {
          "internalType": "string",
          "name": "title",
          "type": "string"
        },
        {
          "internalType": "string",
          "name": "thesis",
          "type": "string"
        },
        {
          "internalType": "string",
          "name": "file",
          "type": "string"
        },
        {
          "internalType": "uint256",
          "name": "validationsCount",
          "type": "uint256"
        },
        {
          "internalType": "bool",
          "name": "valid",
          "type": "bool"
        },
        {
          "internalType": "uint256",
          "name": "invalidatedAt",
          "type": "uint256"
        },
        {
          "internalType": "uint256",
          "name": "createdAtBlock",
          "type": "uint256"
        }
      ],
      "stateMutability": "view",
      "type": "function"
    },
    {
      "inputs": [],
      "name": "researchesCount",
      "outputs": [
        {
          "internalType": "uint64",
          "name": "",
          "type": "uint64"
        }
      ],
      "stateMutability": "view",
      "type": "function"
    },
    {
      "inputs": [
        {
          "internalType": "address",
          "name": "",
          "type": "address"
        },
        {
          "internalType": "uint256",
          "name": "",
          "type": "uint256"
        }
      ],
      "name": "researchesIds",
      "outputs": [
        {
          "internalType": "uint256",
          "name": "",
          "type": "uint256"
        }
      ],
      "stateMutability": "view",
      "type": "function"
    },
    {
      "inputs": [],
      "name": "researchesTotalCount",
      "outputs": [
        {
          "internalType": "uint64",
          "name": "",
          "type": "uint64"
        }
      ],
      "stateMutability": "view",
      "type": "function"
    },
    {
      "inputs": [],
      "name": "securityBlocksToValidation",
      "outputs": [
        {
          "internalType": "uint32",
          "name": "",
          "type": "uint32"
        }
      ],
      "stateMutability": "view",
      "type": "function"
    },
    {
      "inputs": [
        {
          "internalType": "address",
          "name": "_validationRulesAddress",
          "type": "address"
        }
      ],
      "name": "setContractCall",
      "outputs": [],
      "stateMutability": "nonpayable",
      "type": "function"
    },
    {
      "inputs": [
        {
          "components": [
            {
              "internalType": "address",
              "name": "communityRulesAddress",
              "type": "address"
            },
            {
              "internalType": "address",
              "name": "researcherPoolAddress",
              "type": "address"
            },
            {
              "internalType": "address",
              "name": "validationRulesAddress",
              "type": "address"
            },
            {
              "internalType": "address",
              "name": "voteRulesAddress",
              "type": "address"
            }
          ],
          "internalType": "struct ContractsDependency",
          "name": "contractDependency",
          "type": "tuple"
        }
      ],
      "name": "setContractInterfaces",
      "outputs": [],
      "stateMutability": "nonpayable",
      "type": "function"
    },
    {
      "inputs": [],
      "name": "timeBetweenWorks",
      "outputs": [
        {
          "internalType": "uint32",
          "name": "",
          "type": "uint32"
        }
      ],
      "stateMutability": "view",
      "type": "function"
    },
    {
      "inputs": [
        {
          "internalType": "address",
          "name": "addr",
          "type": "address"
        }
      ],
      "name": "totalPenalties",
      "outputs": [
        {
          "internalType": "uint256",
          "name": "",
          "type": "uint256"
        }
      ],
      "stateMutability": "view",
      "type": "function"
    },
    {
      "inputs": [
        {
          "internalType": "address",
          "name": "newOwner",
          "type": "address"
        }
      ],
      "name": "transferOwnership",
      "outputs": [],
      "stateMutability": "nonpayable",
      "type": "function"
    },
    {
      "inputs": [],
      "name": "withdraw",
      "outputs": [],
      "stateMutability": "nonpayable",
      "type": "function"
    }
  ],
  "bytecode": "0x60e060405234801561001057600080fd5b5060405161430038038061430083398101604081905261002f916100e9565b338061005557604051631e4fbdf760e01b81526000600482015260240160405180910390fd5b61005e81610080565b50600160025563ffffffff92831660a05260ff9091166080521660c052610134565b600080546001600160a01b038381166001600160a01b0319831681178455604051919092169283917f8be0079c531659141344cd1fd0a4f28419497f9722a3daafe3b4186f6b6457e09190a35050565b805163ffffffff811681146100e457600080fd5b919050565b6000806000606084860312156100fe57600080fd5b610107846100d0565b9250602084015160ff8116811461011d57600080fd5b915061012b604085016100d0565b90509250925092565b60805160a05160c051614188610178600039600081816103700152612b4d015260008181610471015261308e01526000818161058f01526111a201526141886000f3fe608060405234801561001057600080fd5b50600436106102535760003560e01c8063715018a611610146578063b702523b116100c3578063e05cf15511610087578063e05cf1551461063f578063e7eba4c214610647578063e8a6a92214610667578063eb5870921461067a578063f2fde38b1461069d578063f92f0f8e146106b057600080fd5b8063b702523b146105c3578063b932c8b7146105d6578063be18bc80146105ff578063be9dc58414610624578063c77c1ce61461062c57600080fd5b80638da5cb5b1161010a5780638da5cb5b146105135780638f93716f146105385780639eaf666f1461054b578063a68012581461055e578063b24eb7691461058a57600080fd5b8063715018a6146104af57806372e2e6cc146104b7578063755d4f97146104ca5780637b334154146104dd5780637c647a621461050057600080fd5b8063406458f2116101d45780635f7d0704116101985780635f7d07041461041d5780635fa71c28146104465780636750d523146104595780636b6c7c2d1461046c5780636ec7053a1461049357600080fd5b8063406458f2146103af5780634714b572146103c257806352d3ea9d146103e8578063582256f1146104025780635a52293a1461040a57600080fd5b806320d817131161021b57806320d81713146103235780633270f4ad1461033857806332980c9b1461034b57806335c116771461036b5780633ccfd60b146103a757600080fd5b80630884a672146102585780630eaf485c1461028057806311868d0b146102b25780631f701ee0146102d25780632076267b146102ec575b600080fd5b61026b6102663660046135b7565b6106c3565b60405190151581526020015b60405180910390f35b60035461029a90600160801b90046001600160401b031681565b6040516001600160401b039091168152602001610277565b6102c56102c03660046135e9565b6106ee565b604051610277919061364c565b60035461029a90600160c01b90046001600160401b031681565b6103156102fa3660046135b7565b6001600160a01b031660009081526009602052604090205490565b604051908152602001610277565b6103366103313660046137b5565b610959565b005b610336610346366004613804565b611281565b61035e6103593660046135e9565b6114fd565b604051610277919061389d565b6103927f000000000000000000000000000000000000000000000000000000000000000081565b60405163ffffffff9091168152602001610277565b6103366117a4565b60035461029a906001600160401b031681565b6103d56103d03660046135e9565b6119a6565b6040516102779796959493929190613978565b60035461029a90600160401b90046001600160401b031681565b610315611b8f565b6103156104183660046139e8565b611c0f565b61043061042b366004613a14565b611c40565b6040516102779a99989796959493929190613a2d565b6103156104543660046139e8565b611e40565b61026b6104673660046135b7565b611e6f565b6103927f000000000000000000000000000000000000000000000000000000000000000081565b61049c613e8081565b60405161ffff9091168152602001610277565b610336611e94565b6103366104c5366004613ab7565b611ea6565b6103366104d83660046135b7565b61211b565b61026b6104eb3660046135b7565b60016020526000908152604090205460ff1681565b61033661050e366004613b48565b612145565b6000546001600160a01b03165b6040516001600160a01b039091168152602001610277565b6103366105463660046135b7565b6121aa565b61026b610559366004613bb1565b6121d9565b61026b61056c3660046135b7565b6001600160a01b031660009081526001602052604090205460ff1690565b6105b17f000000000000000000000000000000000000000000000000000000000000000081565b60405160ff9091168152602001610277565b6103366105d1366004613bdd565b612211565b6105206105e4366004613a14565b600b602052600090815260409020546001600160a01b031681565b61061261060d366004613a14565b61259b565b60405161027796959493929190613c2e565b610315600581565b61026b61063a3660046135b7565b61277e565b610315612845565b61065a6106553660046135b7565b61288f565b6040516102779190613c9b565b610336610675366004613ab7565b612a74565b61026b6106883660046135e9565b600a6020526000908152604090205460ff1681565b6103366106ab3660046135b7565b612f1a565b6103366106be3660046135b7565b612f58565b6001600160a01b0381166000908152600460205260408120600601546106e890613072565b92915050565b6107406040518060e0016040528060006001600160401b0316815260200160006001600160a01b0316815260200160608152602001606081526020016060815260200160008152602001600081525090565b6001600160401b03828116600090815260076020908152604091829020825160e08101845281549485168152600160401b9094046001600160a01b031691840191909152600181018054919284019161079890613d7a565b80601f01602080910402602001604051908101604052809291908181526020018280546107c490613d7a565b80156108115780601f106107e657610100808354040283529160200191610811565b820191906000526020600020905b8154815290600101906020018083116107f457829003601f168201915b5050505050815260200160028201805461082a90613d7a565b80601f016020809104026020016040519081016040528092919081815260200182805461085690613d7a565b80156108a35780601f10610878576101008083540402835291602001916108a3565b820191906000526020600020905b81548152906001019060200180831161088657829003601f168201915b505050505081526020016003820180546108bc90613d7a565b80601f01602080910402602001604051908101604052809291908181526020018280546108e890613d7a565b80156109355780601f1061090a57610100808354040283529160200191610935565b820191906000526020600020905b81548152906001019060200180831161091857829003601f168201915b50505050508152602001600482015481526020016005820154815250509050919050565b6109616130bc565b600c5460405163e838dfbb60e01b81523360048201526001600160a01b039091169063e838dfbb90602401602060405180830381865afa1580156109a9573d6000803e3d6000fd5b505050506040513d601f19601f820116820180604052508101906109cd9190613db4565b15610a0d5760405162461bcd60e51b815260206004820152600b60248201526a155cd95c8819195b9a595960aa1b60448201526064015b60405180910390fd5b805161012c1015610a305760405162461bcd60e51b8152600401610a0490613dd6565b600f546040516356fd539760e11b81523360048201526001600160a01b039091169063adfaa72e90602401602060405180830381865afa158015610a78573d6000803e3d6000fd5b505050506040513d601f19601f82011682018060405250810190610a9c9190613db4565b610ad65760405162461bcd60e51b815260206004820152600b60248201526a2737ba1030903b37ba32b960a91b6044820152606401610a04565b600e54604051630d84466b60e21b81523360048201526001600160a01b039091169063361119ac90602401602060405180830381865afa158015610b1e573d6000803e3d6000fd5b505050506040513d601f19601f82011682018060405250810190610b429190613db4565b610b865760405162461bcd60e51b8152602060048201526015602482015274576169742074696d654265747765656e566f74657360581b6044820152606401610a04565b6001600160401b038216600090815260116020908152604080832033845290915290205460ff1615610bea5760405162461bcd60e51b815260206004820152600d60248201526c105b1c9958591e481d9bdd1959609a1b6044820152606401610a04565b6001600160401b0382166000908152600a602052604090205460ff1615610c535760405162461bcd60e51b815260206004820152601960248201527f50656e616c7469657320616c7265616479206170706c696564000000000000006044820152606401610a04565b6001600160401b0380831660008181526011602090815260408083203384528252808320805460ff191660019081179091559383526005825280832081516101408101835281549096168652938401549185019190915260028301546001600160a01b03169084015260038201805491939291606084019190610cd590613d7a565b80601f0160208091040260200160405190810160405280929190818152602001828054610d0190613d7a565b8015610d4e5780601f10610d2357610100808354040283529160200191610d4e565b820191906000526020600020905b815481529060010190602001808311610d3157829003601f168201915b50505050508152602001600482018054610d6790613d7a565b80601f0160208091040260200160405190810160405280929190818152602001828054610d9390613d7a565b8015610de05780601f10610db557610100808354040283529160200191610de0565b820191906000526020600020905b815481529060010190602001808311610dc357829003601f168201915b50505050508152602001600582018054610df990613d7a565b80601f0160208091040260200160405190810160405280929190818152602001828054610e2590613d7a565b8015610e725780601f10610e4757610100808354040283529160200191610e72565b820191906000526020600020905b815481529060010190602001808311610e5557829003601f168201915b505050918352505060068201546020820152600782015460ff16151560408201526008820154606082015260099091015460809091015260e08101519091508015610ec757508060200151610ec5612845565b145b610f085760405162461bcd60e51b815260206004820152601260248201527114995cd9585c98da081b9bdd08159053125160721b6044820152606401610a04565b60018160c001818151610f1b9190613e14565b9052506001600160401b038381166000908152600560209081526040918290208451815467ffffffffffffffff1916941693909317835583015160018301558201516002820180546001600160a01b0319166001600160a01b0390921691909117905560608201518291906003820190610f959082613e6e565b5060808201516004820190610faa9082613e6e565b5060a08201516005820190610fbf9082613e6e565b5060c0820151600682015560e082015160078201805460ff1916911515919091179055610100820151600882015561012090910151600990910155600e54604080516369bf81c360e01b815290516000926001600160a01b0316916369bf81c39160048083019260209291908290030181865afa158015611044573d6000803e3d6000fd5b505050506040513d601f19601f820116820180604052508101906110689190613f2c565b9050600181116110cd5760405162461bcd60e51b815260206004820152602a60248201527f56616c69646174696f6e207468726573686f6c642063616e6e6f74206265206c60448201526932b9b9903a3430b7101960b11b6064820152608401610a04565b808260c00151106111d7576001600160401b0384166000908152600a60205260409020805460ff19166001179055611104826130e4565b336001600160a01b0316846001600160401b03167fec82afd035df5f6da576aafb10163adedd64aa9955e7843369f1151fe7bcc627856040516111479190613f45565b60405180910390a36040828101516001600160a01b031660008181526009602081815284832085518083019096526001600160401b038a168652805460018101825581855282852096519601959095559290915290525460ff7f00000000000000000000000000000000000000000000000000000000000000001681106111d5576111d583604001516132a4565b505b600e5460405163eb48556b60e01b81523360048201526001600160a01b039091169063eb48556b90602401600060405180830381600087803b15801561121c57600080fd5b505af1158015611230573d6000803e3d6000fd5b505083516040513393507fa60b3cba17d47d019e43ed78d18b7dbcdb3356746136e92739e184014baed95b925061126991908790613f58565b60405180910390a2505061127d6001600255565b5050565b83516023108015906112965750825161012c10155b80156112a457508151601410155b6112c05760405162461bcd60e51b8152600401610a0490613dd6565b600c54604051631292f8c160e31b81526001600160a01b0390911690639497c608906112f3906003903390600401613fa4565b602060405180830381865afa158015611310573d6000803e3d6000fd5b505050506040513d601f19601f820116820180604052508101906113349190613db4565b6113505760405162461bcd60e51b8152600401610a0490613fca565b61135933611e6f565b6113995760405162461bcd60e51b815260206004820152601160248201527010d85b89dd081c1d589b1a5cda081e595d607a1b6044820152606401610a04565b6003546000906113ba90600160801b90046001600160401b03166001613ff4565b6040805160e0810182526001600160401b038084168083523360208085019182528486018c8152606086018c9052608086018b905260a086018a90524360c087015260009384526007909152949091208351815492516001600160a01b0316600160401b026001600160e01b031990931693169290921717815591519293509160018201906114499082613e6e565b506060820151600282019061145e9082613e6e565b50608082015160038201906114739082613e6e565b5060a0820151600482015560c09091015160059091015560038054600160801b90046001600160401b03169060106114aa83614013565b82546001600160401b039182166101009390930a9283029190920219909116179055503360009081526004602052604081204360088201556007018054916114f18361403e565b91905055505050505050565b61156760405180610140016040528060006001600160401b031681526020016000815260200160006001600160a01b031681526020016060815260200160608152602001606081526020016000815260200160001515815260200160008152602001600081525090565b6001600160401b038083166000908152600560209081526040918290208251610140810184528154909416845260018101549184019190915260028101546001600160a01b0316918301919091526003810180546060840191906115ca90613d7a565b80601f01602080910402602001604051908101604052809291908181526020018280546115f690613d7a565b80156116435780601f1061161857610100808354040283529160200191611643565b820191906000526020600020905b81548152906001019060200180831161162657829003601f168201915b5050505050815260200160048201805461165c90613d7a565b80601f016020809104026020016040519081016040528092919081815260200182805461168890613d7a565b80156116d55780601f106116aa576101008083540402835291602001916116d5565b820191906000526020600020905b8154815290600101906020018083116116b857829003601f168201915b505050505081526020016005820180546116ee90613d7a565b80601f016020809104026020016040519081016040528092919081815260200182805461171a90613d7a565b80156117675780601f1061173c57610100808354040283529160200191611767565b820191906000526020600020905b81548152906001019060200180831161174a57829003601f168201915b505050918352505060068201546020820152600782015460ff16151560408201526008820154606082015260099091015460809091015292915050565b6117ac6130bc565b600c54604051631292f8c160e31b81526001600160a01b0390911690639497c608906117df906003903390600401613fa4565b602060405180830381865afa1580156117fc573d6000803e3d6000fd5b505050506040513d601f19601f820116820180604052508101906118209190613db4565b61183c5760405162461bcd60e51b8152600401610a0490613fca565b336000908152600460208190526040918290206003810154600d549351637df42f8360e11b8152928301819052909290916001600160a01b039091169063fbe85f0690602401602060405180830381865afa15801561189f573d6000803e3d6000fd5b505050506040513d601f19601f820116820180604052508101906118c39190613db4565b61191d5760405162461bcd60e51b815260206004820152602560248201527f4e6f7420656c696769626c6520746f20776974686472617720666f7220746869604482015264732065726160d81b6064820152608401610a04565b60038201805490600061192f8361403e565b9091555050600d5460405163f3fef3a360e01b8152336004820152602481018390526001600160a01b039091169063f3fef3a390604401600060405180830381600087803b15801561198057600080fd5b505af1158015611994573d6000803e3d6000fd5b5050505050506119a46001600255565b565b600760205260009081526040902080546001820180546001600160401b03831693600160401b9093046001600160a01b03169291906119e490613d7a565b80601f0160208091040260200160405190810160405280929190818152602001828054611a1090613d7a565b8015611a5d5780601f10611a3257610100808354040283529160200191611a5d565b820191906000526020600020905b815481529060010190602001808311611a4057829003601f168201915b505050505090806002018054611a7290613d7a565b80601f0160208091040260200160405190810160405280929190818152602001828054611a9e90613d7a565b8015611aeb5780601f10611ac057610100808354040283529160200191611aeb565b820191906000526020600020905b815481529060010190602001808311611ace57829003601f168201915b505050505090806003018054611b0090613d7a565b80601f0160208091040260200160405190810160405280929190818152602001828054611b2c90613d7a565b8015611b795780601f10611b4e57610100808354040283529160200191611b79565b820191906000526020600020905b815481529060010190602001808311611b5c57829003601f168201915b5050505050908060040154908060050154905087565b600d546000906001600160a01b031663d5ee3eb5611bab612845565b6040518263ffffffff1660e01b8152600401611bc991815260200190565b602060405180830381865afa158015611be6573d6000803e3d6000fd5b505050506040513d601f19601f82011682018060405250810190611c0a9190613f2c565b905090565b60066020528160005260406000208181548110611c2b57600080fd5b90600052602060002001600091509150505481565b60056020526000908152604090208054600182015460028301546003840180546001600160401b039094169492936001600160a01b039092169291611c8490613d7a565b80601f0160208091040260200160405190810160405280929190818152602001828054611cb090613d7a565b8015611cfd5780601f10611cd257610100808354040283529160200191611cfd565b820191906000526020600020905b815481529060010190602001808311611ce057829003601f168201915b505050505090806004018054611d1290613d7a565b80601f0160208091040260200160405190810160405280929190818152602001828054611d3e90613d7a565b8015611d8b5780601f10611d6057610100808354040283529160200191611d8b565b820191906000526020600020905b815481529060010190602001808311611d6e57829003601f168201915b505050505090806005018054611da090613d7a565b80601f0160208091040260200160405190810160405280929190818152602001828054611dcc90613d7a565b8015611e195780601f10611dee57610100808354040283529160200191611e19565b820191906000526020600020905b815481529060010190602001808311611dfc57829003601f168201915b505050506006830154600784015460088501546009909501549394919360ff90911692508a565b60096020528160005260406000208181548110611e5c57600080fd5b6000918252602090912001549150829050565b6001600160a01b0381166000908152600460205260408120600801546106e890613072565b611e9c61349c565b6119a460006134c9565b8251606410801590611ebb5750815161012c10155b8015611ec957508051609610155b611ee55760405162461bcd60e51b8152600401610a0490613dd6565b600c54604051631292f8c160e31b81526001600160a01b0390911690639497c60890611f18906003903390600401613fa4565b602060405180830381865afa158015611f35573d6000803e3d6000fd5b505050506040513d601f19601f82011682018060405250810190611f599190613db4565b611f755760405162461bcd60e51b8152600401610a0490613fca565b336000908152600460205260409020600a015460ff16611fd75760405162461bcd60e51b815260206004820152601760248201527f4f6e6c79206f6e65206d6574686f6420616c6c6f7765640000000000000000006044820152606401610a04565b600354600090611ff890600160c01b90046001600160401b03166001613ff4565b6040805160c0810182526001600160401b038084168083523360208085019182528486018b8152606086018b9052608086018a90524360a087015260009384526008909152949091208351815492516001600160a01b0316600160401b026001600160e01b031990931693169290921717815591519293509160018201906120809082613e6e565b50606082015160028201906120959082613e6e565b50608082015160038201906120aa9082613e6e565b5060a0919091015160049091015560038054600160c01b90046001600160401b03169060186120d883614013565b82546001600160401b039182166101009390930a92830291909202199091161790555050336000908152600460205260409020600a01805460ff19169055505050565b61212361349c565b601080546001600160a01b0319166001600160a01b0392909216919091179055565b61214d61349c565b8051600c80546001600160a01b03199081166001600160a01b03938416179091556020830151600d805483169184169190911790556040830151600e80548316918416919091179055606090920151600f80549093169116179055565b6121b261349c565b6001600160a01b03166000908152600160208190526040909120805460ff19169091179055565b6000600583116121eb5750600161220a565b826000036121fb5750600061220a565b836122068484614057565b1190505b9392505050565b815160321080159061222557508051609610155b6122415760405162461bcd60e51b8152600401610a0490613dd6565b600c54604051632f22dc7b60e01b8152613e80916001600160a01b031690632f22dc7b906122749060039060040161406e565b602060405180830381865afa158015612291573d6000803e3d6000fd5b505050506040513d601f19601f820116820180604052508101906122b59190613f2c565b106122f35760405162461bcd60e51b815260206004820152600e60248201526d13585e081d5cd95c881b1a5b5a5d60921b6044820152606401610a04565b600c5460405162f5960960e51b81526000916001600160a01b031690631eb2c120906123249060039060040161406e565b602060405180830381865afa158015612341573d6000803e3d6000fd5b505050506040513d601f19601f82011682018060405250810190612365919061407c565b612370906001613ff4565b9050604051806101600160405280826001600160401b03168152602001336001600160a01b031681526020018481526020016040518060400160405280600081526020016123bc612845565b90528152602080820185905260006040808401829052606084018290526080840182905260a084018290524360c0850152600160e0909401849052338252600483529081902084518154938601516001600160a01b0316600160401b026001600160e01b03199094166001600160401b039091161792909217825583015190918201906124499082613e6e565b50606082015180516002830155602001516003820155608082015160048201906124739082613e6e565b5060a0820151600582015560c0820151600682015560e082015160078201556101008201516008820155610120820151600982015561014090910151600a909101805460ff19169115159190911790556001600160401b0381166000908152600b6020526040908190208054336001600160a01b03199091168117909155600c549151639c3eead960e01b81526001600160a01b0390921691639c3eead99161252191600390600401614099565b600060405180830381600087803b15801561253b57600080fd5b505af115801561254f573d6000803e3d6000fd5b50505050336001600160a01b03167fd9e252c4299740928760c15af4c9d6fee5a786293f1f330440036039a6ed533a828560405161258e929190613f58565b60405180910390a2505050565b600860205260009081526040902080546001820180546001600160401b03831693600160401b9093046001600160a01b03169291906125d990613d7a565b80601f016020809104026020016040519081016040528092919081815260200182805461260590613d7a565b80156126525780601f1061262757610100808354040283529160200191612652565b820191906000526020600020905b81548152906001019060200180831161263557829003601f168201915b50505050509080600201805461266790613d7a565b80601f016020809104026020016040519081016040528092919081815260200182805461269390613d7a565b80156126e05780601f106126b5576101008083540402835291602001916126e0565b820191906000526020600020905b8154815290600101906020018083116126c357829003601f168201915b5050505050908060030180546126f590613d7a565b80601f016020809104026020016040519081016040528092919081815260200182805461272190613d7a565b801561276e5780601f106127435761010080835404028352916020019161276e565b820191906000526020600020905b81548152906001019060200180831161275157829003601f168201915b5050505050908060040154905086565b60008061278a8361288f565b80519091506001600160401b03166127a55750600092915050565b60038054600c5460405162f5960960e51b815261220a93600160401b9093046001600160401b0316926001600160a01b0390921691631eb2c120916127ed919060040161406e565b602060405180830381865afa15801561280a573d6000803e3d6000fd5b505050506040513d601f19601f8201168201806040525081019061282e919061407c565b6001600160401b03168360600151600001516121d9565b600d5460408051637686fbcf60e11b815290516000926001600160a01b03169163ed0df79e9160048083019260209291908290030181865afa158015611be6573d6000803e3d6000fd5b612897613519565b6001600160a01b0380831660009081526004602090815260409182902082516101608101845281546001600160401b0381168252600160401b90049094169184019190915260018101805491928401916128f090613d7a565b80601f016020809104026020016040519081016040528092919081815260200182805461291c90613d7a565b80156129695780601f1061293e57610100808354040283529160200191612969565b820191906000526020600020905b81548152906001019060200180831161294c57829003601f168201915b50505050508152602001600282016040518060400160405290816000820154815260200160018201548152505081526020016004820180546129aa90613d7a565b80601f01602080910402602001604051908101604052809291908181526020018280546129d690613d7a565b8015612a235780601f106129f857610100808354040283529160200191612a23565b820191906000526020600020905b815481529060010190602001808311612a0657829003601f168201915b505050918352505060058201546020820152600682015460408201526007820154606082015260088201546080820152600982015460a0820152600a9091015460ff16151560c09091015292915050565b612a7c6130bc565b8251606410801590612a915750815161012c10155b8015612a9f57508051609610155b612abb5760405162461bcd60e51b8152600401610a0490613dd6565b600c54604051631292f8c160e31b81526001600160a01b0390911690639497c60890612aee906003903390600401613fa4565b602060405180830381865afa158015612b0b573d6000803e3d6000fd5b505050506040513d601f19601f82011682018060405250810190612b2f9190613db4565b612b4b5760405162461bcd60e51b8152600401610a0490613fca565b7f000000000000000000000000000000000000000000000000000000000000000063ffffffff16612b7a611b8f565b11612bbd5760405162461bcd60e51b81526020600482015260136024820152725761697420756e74696c206e6578742065726160681b6044820152606401610a04565b612bc6336106c3565b612c065760405162461bcd60e51b815260206004820152601160248201527010d85b89dd081c1d589b1a5cda081e595d607a1b6044820152606401610a04565b600380546001600160401b0316906000612c1f83614013565b91906101000a8154816001600160401b0302191690836001600160401b03160217905550506003600881819054906101000a90046001600160401b031680929190612c6990614013565b91906101000a8154816001600160401b0302191690836001600160401b03160217905550506000600360089054906101000a90046001600160401b03169050604051806101400160405280826001600160401b03168152602001612ccb612845565b8152336020808301919091526040808301889052606080840188905260808401879052600060a08501819052600160c0860181905260e0860182905243610100909601959095526001600160401b03878116825260058552908390208651815467ffffffffffffffff1916921691909117815592850151938301939093558301516002820180546001600160a01b0319166001600160a01b03909216919091179055908201516003820190612d809082613e6e565b5060808201516004820190612d959082613e6e565b5060a08201516005820190612daa9082613e6e565b5060c0820151600682015560e082015160078201805460ff19169115159190911790556101008201516008820155610120909101516009909101553360009081526004602052604081206005810180549192612e058361403e565b90915550504360068083019190915533600090815260209182526040812080546001810182559082529181206001600160401b03851692019190915560028201805491612e518361403e565b9091555050600d546040516338e8490d60e11b8152336004820152600160248201526001600160401b03841660448201526001600160a01b03909116906371d0921a90606401600060405180830381600087803b158015612eb157600080fd5b505af1158015612ec5573d6000803e3d6000fd5b50506040514381523392506001600160401b03851691507fe4c1c9646dc792c06d1b46cbe82f47bc6843a8dee984ecab0e2e4fb1280f1fed9060200160405180910390a35050612f156001600255565b505050565b612f2261349c565b6001600160a01b038116612f4c57604051631e4fbdf760e01b815260006004820152602401610a04565b612f55816134c9565b50565b3360009081526001602052604090205460ff16612fac5760405162461bcd60e51b81526020600482015260126024820152712737ba1030b63637bbb2b21031b0b63632b960711b6044820152606401610a04565b6010546001600160a01b03163381146130075760405162461bcd60e51b815260206004820152601e60248201527f43616c6c6572206d7573742062652073797374656d20636f6e747261637400006044820152606401610a04565b600d546040516310c791e560e11b81526001600160a01b038481166004830152600160248301529091169063218f23ca906044015b600060405180830381600087803b15801561305657600080fd5b505af115801561306a573d6000803e3d6000fd5b505050505050565b60008160000361308457506001919050565b6130b463ffffffff7f00000000000000000000000000000000000000000000000000000000000000001683613e14565b431192915050565b60028054036130de57604051633ee5aeb560e01b815260040160405180910390fd5b60028055565b600380546001600160401b03169060006130fd836140b6565b825461010092830a6001600160401b03818102199092169282160291909117909255600060e085018190524391850191909152835182168152600560209081526040918290208551815467ffffffffffffffff1916941693909317835584015160018301558301516002820180546001600160a01b0319166001600160a01b039092169190911790556060830151839250600382019061319d9082613e6e565b50608082015160048201906131b29082613e6e565b5060a082015160058201906131c79082613e6e565b5060c0820151600682015560e082015160078201805460ff19169115159190911790556101008201516008820155610120909101516009909101556040818101516001600160a01b0316600090815260046020529081206002018054600192906132329084906140d9565b9091555050600d5460408281015190516310c791e560e11b81526001600160a01b0391821660048201526000602482015291169063218f23ca90604401600060405180830381600087803b15801561328957600080fd5b505af115801561329d573d6000803e3d6000fd5b5050505050565b600c5460405163e838dfbb60e01b81526001600160a01b0383811660048301529091169063e838dfbb90602401602060405180830381865afa1580156132ee573d6000803e3d6000fd5b505050506040513d601f19601f820116820180604052508101906133129190613db4565b1561331a5750565b600c54604051634acf78e960e11b81526001600160a01b0383811660048301529091169063959ef1d290602401600060405180830381600087803b15801561336157600080fd5b505af1158015613375573d6000803e3d6000fd5b5050600c5460405163158bdc5f60e11b81526001600160a01b038581166004830152600094509091169150632b17b8be90602401608060405180830381865afa1580156133c6573d6000803e3d6000fd5b505050506040513d601f19601f820116820180604052508101906133ea91906140ec565b60208101519091506001600160a01b03161561300757600c546020820151604051636101bf2160e01b81526001600160a01b039182166004820152911690636101bf2190602401600060405180830381600087803b15801561344b57600080fd5b505af115801561345f573d6000803e3d6000fd5b5050600d546040516310c791e560e11b81526001600160a01b03868116600483015260016024830152909116925063218f23ca915060440161303c565b6000546001600160a01b031633146119a45760405163118cdaa760e01b8152336004820152602401610a04565b600080546001600160a01b038381166001600160a01b0319831681178455604051919092169283917f8be0079c531659141344cd1fd0a4f28419497f9722a3daafe3b4186f6b6457e09190a35050565b60405180610160016040528060006001600160401b0316815260200160006001600160a01b0316815260200160608152602001613569604051806040016040528060008152602001600081525090565b81526020016060815260200160008152602001600081526020016000815260200160008152602001600081526020016000151581525090565b6001600160a01b0381168114612f5557600080fd5b6000602082840312156135c957600080fd5b813561220a816135a2565b6001600160401b0381168114612f5557600080fd5b6000602082840312156135fb57600080fd5b813561220a816135d4565b6000815180845260005b8181101561362c57602081850181015186830182015201613610565b506000602082860101526020601f19601f83011685010191505092915050565b602081526001600160401b03825116602082015260018060a01b0360208301511660408201526000604083015160e0606084015261368e610100840182613606565b90506060840151601f198483030160808501526136ab8282613606565b9150506080840151601f198483030160a08501526136c98282613606565b91505060a084015160c084015260c084015160e08401528091505092915050565b634e487b7160e01b600052604160045260246000fd5b604051608081016001600160401b0381118282101715613722576137226136ea565b60405290565b600082601f83011261373957600080fd5b81356001600160401b03811115613752576137526136ea565b604051601f8201601f19908116603f011681016001600160401b0381118282101715613780576137806136ea565b60405281815283820160200185101561379857600080fd5b816020850160208301376000918101602001919091529392505050565b600080604083850312156137c857600080fd5b82356137d3816135d4565b915060208301356001600160401b038111156137ee57600080fd5b6137fa85828601613728565b9150509250929050565b6000806000806080858703121561381a57600080fd5b84356001600160401b0381111561383057600080fd5b61383c87828801613728565b94505060208501356001600160401b0381111561385857600080fd5b61386487828801613728565b93505060408501356001600160401b0381111561388057600080fd5b61388c87828801613728565b949793965093946060013593505050565b602081526138b76020820183516001600160401b03169052565b60208201516040820152600060408301516138dd60608401826001600160a01b03169052565b50606083015161014060808401526138f9610160840182613606565b90506080840151601f198483030160a08501526139168282613606565b91505060a0840151601f198483030160c08501526139348282613606565b91505060c084015160e084015260e084015161395561010085018215159052565b506101008401516101208401526101208401516101408401528091505092915050565b6001600160401b03881681526001600160a01b038716602082015260e0604082018190526000906139ab90830188613606565b82810360608401526139bd8188613606565b905082810360808401526139d18187613606565b60a0840195909552505060c0015295945050505050565b600080604083850312156139fb57600080fd5b8235613a06816135a2565b946020939093013593505050565b600060208284031215613a2657600080fd5b5035919050565b6001600160401b038b16815289602082015260018060a01b038916604082015261014060608201526000613a6561014083018a613606565b8281036080840152613a77818a613606565b905082810360a0840152613a8b8189613606565b60c0840197909752505092151560e0840152610100830191909152610120909101529695505050505050565b600080600060608486031215613acc57600080fd5b83356001600160401b03811115613ae257600080fd5b613aee86828701613728565b93505060208401356001600160401b03811115613b0a57600080fd5b613b1686828701613728565b92505060408401356001600160401b03811115613b3257600080fd5b613b3e86828701613728565b9150509250925092565b60006080828403128015613b5b57600080fd5b50613b64613700565b8235613b6f816135a2565b81526020830135613b7f816135a2565b60208201526040830135613b92816135a2565b60408201526060830135613ba5816135a2565b60608201529392505050565b600080600060608486031215613bc657600080fd5b505081359360208301359350604090920135919050565b60008060408385031215613bf057600080fd5b82356001600160401b03811115613c0657600080fd5b613c1285828601613728565b92505060208301356001600160401b038111156137ee57600080fd5b6001600160401b03871681526001600160a01b038616602082015260c060408201819052600090613c6190830187613606565b8281036060840152613c738187613606565b90508281036080840152613c878186613606565b9150508260a0830152979650505050505050565b60208152613cb56020820183516001600160401b03169052565b60006020830151613cd160408401826001600160a01b03169052565b5060408301516101806060840152613ced6101a0840182613606565b606085015180516080860152602081015160a0860152909150506080840151838203601f190160c0850152613d228282613606565b91505060a084015160e084015260c084015161010084015260e0840151610120840152610100840151610140840152610120840151610160840152610140840151613d7261018085018215159052565b509392505050565b600181811c90821680613d8e57607f821691505b602082108103613dae57634e487b7160e01b600052602260045260246000fd5b50919050565b600060208284031215613dc657600080fd5b8151801515811461220a57600080fd5b6020808252600e908201526d4d6178206368617261637465727360901b604082015260600190565b634e487b7160e01b600052601160045260246000fd5b808201808211156106e8576106e8613dfe565b601f821115612f1557806000526020600020601f840160051c81016020851015613e4e5750805b601f840160051c820191505b8181101561329d5760008155600101613e5a565b81516001600160401b03811115613e8757613e876136ea565b613e9b81613e958454613d7a565b84613e27565b6020601f821160018114613ecf5760008315613eb75750848201515b600019600385901b1c1916600184901b17845561329d565b600084815260208120601f198516915b82811015613eff5787850151825560209485019460019092019101613edf565b5084821015613f1d5786840151600019600387901b60f8161c191681555b50505050600190811b01905550565b600060208284031215613f3e57600080fd5b5051919050565b60208152600061220a6020830184613606565b6001600160401b0383168152604060208201526000613f7a6040830184613606565b949350505050565b60088110613fa057634e487b7160e01b600052602160045260246000fd5b9052565b60408101613fb28285613f82565b6001600160a01b039290921660209190910152919050565b60208082526010908201526f4f6e6c7920726573656172636865727360801b604082015260600190565b6001600160401b0381811683821601908111156106e8576106e8613dfe565b60006001600160401b0382166001600160401b03810361403557614035613dfe565b60010192915050565b60006001820161405057614050613dfe565b5060010190565b80820281158282048414176106e8576106e8613dfe565b602081016106e88284613f82565b60006020828403121561408e57600080fd5b815161220a816135d4565b6001600160a01b03831681526040810161220a6020830184613f82565b60006001600160401b038216806140cf576140cf613dfe565b6000190192915050565b818103818111156106e8576106e8613dfe565b600060808284031280156140ff57600080fd5b50614108613700565b8251614113816135a2565b81526020830151614123816135a2565b602082015260408301516008811061413a57600080fd5b6040820152606092830151928101929092525091905056fea264697066735822122076da715e5e56bd28debc8e079a03392e97be9e8403a74cb21e6ae055565e849364736f6c634300081b0033",
  "linkReferences": {},
  "deployedLinkReferences": {}
}