{
  "_format": "hh-sol-artifact-1",
  "contractName": "ResearcherRules",
  "sourceName": "contracts/ResearcherRules.sol",
  "abi": [
    {
      "inputs": [
        {
          "internalType": "uint32",
          "name": "timeBetweenWorks_",
          "type": "uint32"
        },
        {
          "internalType": "uint8",
          "name": "maxPenalties_",
          "type": "uint8"
        },
        {
          "internalType": "uint32",
          "name": "securityBlocksToValidation_",
          "type": "uint32"
        }
      ],
      "stateMutability": "nonpayable",
      "type": "constructor"
    },
    {
      "inputs": [
        {
          "internalType": "address",
          "name": "owner",
          "type": "address"
        }
      ],
      "name": "OwnableInvalidOwner",
      "type": "error"
    },
    {
      "inputs": [
        {
          "internalType": "address",
          "name": "account",
          "type": "address"
        }
      ],
      "name": "OwnableUnauthorizedAccount",
      "type": "error"
    },
    {
      "inputs": [],
      "name": "ReentrancyGuardReentrantCall",
      "type": "error"
    },
    {
      "anonymous": false,
      "inputs": [
        {
          "indexed": true,
          "internalType": "address",
          "name": "previousOwner",
          "type": "address"
        },
        {
          "indexed": true,
          "internalType": "address",
          "name": "newOwner",
          "type": "address"
        }
      ],
      "name": "OwnershipTransferred",
      "type": "event"
    },
    {
      "anonymous": false,
      "inputs": [
        {
          "indexed": true,
          "internalType": "uint256",
          "name": "researchId",
          "type": "uint256"
        },
        {
          "indexed": true,
          "internalType": "address",
          "name": "invalidatedBy",
          "type": "address"
        },
        {
          "indexed": false,
          "internalType": "string",
          "name": "justification",
          "type": "string"
        }
      ],
      "name": "ResearchInvalidated",
      "type": "event"
    },
    {
      "anonymous": false,
      "inputs": [
        {
          "indexed": true,
          "internalType": "uint256",
          "name": "researchId",
          "type": "uint256"
        },
        {
          "indexed": true,
          "internalType": "address",
          "name": "researcher",
          "type": "address"
        },
        {
          "indexed": false,
          "internalType": "uint256",
          "name": "publishedAt",
          "type": "uint256"
        }
      ],
      "name": "ResearchPublished",
      "type": "event"
    },
    {
      "anonymous": false,
      "inputs": [
        {
          "indexed": true,
          "internalType": "address",
          "name": "_validatorAddress",
          "type": "address"
        },
        {
          "indexed": true,
          "internalType": "uint256",
          "name": "_resourceId",
          "type": "uint256"
        },
        {
          "indexed": false,
          "internalType": "string",
          "name": "_justification",
          "type": "string"
        }
      ],
      "name": "ResearchValidation",
      "type": "event"
    },
    {
      "anonymous": false,
      "inputs": [
        {
          "indexed": true,
          "internalType": "address",
          "name": "researcherAddress",
          "type": "address"
        },
        {
          "indexed": false,
          "internalType": "uint256",
          "name": "researcherId",
          "type": "uint256"
        },
        {
          "indexed": false,
          "internalType": "string",
          "name": "name",
          "type": "string"
        }
      ],
      "name": "ResearcherRegistered",
      "type": "event"
    },
    {
      "inputs": [],
      "name": "INITIAL_USER_COUNT_THRESHOLD",
      "outputs": [
        {
          "internalType": "uint256",
          "name": "",
          "type": "uint256"
        }
      ],
      "stateMutability": "view",
      "type": "function"
    },
    {
      "inputs": [],
      "name": "MAX_USER_COUNT",
      "outputs": [
        {
          "internalType": "uint16",
          "name": "",
          "type": "uint16"
        }
      ],
      "stateMutability": "view",
      "type": "function"
    },
    {
      "inputs": [
        {
          "internalType": "string",
          "name": "item",
          "type": "string"
        },
        {
          "internalType": "string",
          "name": "thesis",
          "type": "string"
        },
        {
          "internalType": "string",
          "name": "unit",
          "type": "string"
        },
        {
          "internalType": "uint256",
          "name": "carbonImpact",
          "type": "uint256"
        }
      ],
      "name": "addCalculatorItem",
      "outputs": [],
      "stateMutability": "nonpayable",
      "type": "function"
    },
    {
      "inputs": [
        {
          "internalType": "string",
          "name": "title",
          "type": "string"
        },
        {
          "internalType": "string",
          "name": "research",
          "type": "string"
        },
        {
          "internalType": "string",
          "name": "projectURL",
          "type": "string"
        }
      ],
      "name": "addEvaluationMethod",
      "outputs": [],
      "stateMutability": "nonpayable",
      "type": "function"
    },
    {
      "inputs": [
        {
          "internalType": "string",
          "name": "title",
          "type": "string"
        },
        {
          "internalType": "string",
          "name": "thesis",
          "type": "string"
        },
        {
          "internalType": "string",
          "name": "file",
          "type": "string"
        }
      ],
      "name": "addResearch",
      "outputs": [],
      "stateMutability": "nonpayable",
      "type": "function"
    },
    {
      "inputs": [
        {
          "internalType": "uint64",
          "name": "id",
          "type": "uint64"
        },
        {
          "internalType": "string",
          "name": "justification",
          "type": "string"
        }
      ],
      "name": "addResearchValidation",
      "outputs": [],
      "stateMutability": "nonpayable",
      "type": "function"
    },
    {
      "inputs": [
        {
          "internalType": "string",
          "name": "name",
          "type": "string"
        },
        {
          "internalType": "string",
          "name": "proofPhoto",
          "type": "string"
        }
      ],
      "name": "addResearcher",
      "outputs": [],
      "stateMutability": "nonpayable",
      "type": "function"
    },
    {
      "inputs": [
        {
          "internalType": "address",
          "name": "",
          "type": "address"
        }
      ],
      "name": "allowedCallers",
      "outputs": [
        {
          "internalType": "bool",
          "name": "",
          "type": "bool"
        }
      ],
      "stateMutability": "view",
      "type": "function"
    },
    {
      "inputs": [
        {
          "internalType": "uint64",
          "name": "",
          "type": "uint64"
        }
      ],
      "name": "calculatorItems",
      "outputs": [
        {
          "internalType": "uint64",
          "name": "id",
          "type": "uint64"
        },
        {
          "internalType": "address",
          "name": "createdBy",
          "type": "address"
        },
        {
          "internalType": "string",
          "name": "item",
          "type": "string"
        },
        {
          "internalType": "string",
          "name": "thesis",
          "type": "string"
        },
        {
          "internalType": "string",
          "name": "unit",
          "type": "string"
        },
        {
          "internalType": "uint256",
          "name": "carbonImpact",
          "type": "uint256"
        },
        {
          "internalType": "uint256",
          "name": "createdAtBlock",
          "type": "uint256"
        }
      ],
      "stateMutability": "view",
      "type": "function"
    },
    {
      "inputs": [],
      "name": "calculatorItemsCount",
      "outputs": [
        {
          "internalType": "uint64",
          "name": "",
          "type": "uint64"
        }
      ],
      "stateMutability": "view",
      "type": "function"
    },
    {
      "inputs": [
        {
          "internalType": "uint256",
          "name": "totalLevels",
          "type": "uint256"
        },
        {
          "internalType": "uint256",
          "name": "totalUsers",
          "type": "uint256"
        },
        {
          "internalType": "uint256",
          "name": "userLevels",
          "type": "uint256"
        }
      ],
      "name": "canInvite",
      "outputs": [
        {
          "internalType": "bool",
          "name": "",
          "type": "bool"
        }
      ],
      "stateMutability": "pure",
      "type": "function"
    },
    {
      "inputs": [
        {
          "internalType": "address",
          "name": "addr",
          "type": "address"
        }
      ],
      "name": "canPublishCalculatorItem",
      "outputs": [
        {
          "internalType": "bool",
          "name": "",
          "type": "bool"
        }
      ],
      "stateMutability": "view",
      "type": "function"
    },
    {
      "inputs": [
        {
          "internalType": "address",
          "name": "addr",
          "type": "address"
        }
      ],
      "name": "canPublishResearch",
      "outputs": [
        {
          "internalType": "bool",
          "name": "",
          "type": "bool"
        }
      ],
      "stateMutability": "view",
      "type": "function"
    },
    {
      "inputs": [
        {
          "internalType": "address",
          "name": "addr",
          "type": "address"
        }
      ],
      "name": "canSendInvite",
      "outputs": [
        {
          "internalType": "bool",
          "name": "",
          "type": "bool"
        }
      ],
      "stateMutability": "view",
      "type": "function"
    },
    {
      "inputs": [],
      "name": "communityRules",
      "outputs": [
        {
          "internalType": "contract ICommunityRules",
          "name": "",
          "type": "address"
        }
      ],
      "stateMutability": "view",
      "type": "function"
    },
    {
      "inputs": [
        {
          "internalType": "uint256",
          "name": "",
          "type": "uint256"
        }
      ],
      "name": "evaluationMethods",
      "outputs": [
        {
          "internalType": "uint64",
          "name": "id",
          "type": "uint64"
        },
        {
          "internalType": "address",
          "name": "createdBy",
          "type": "address"
        },
        {
          "internalType": "string",
          "name": "title",
          "type": "string"
        },
        {
          "internalType": "string",
          "name": "research",
          "type": "string"
        },
        {
          "internalType": "string",
          "name": "projectURL",
          "type": "string"
        },
        {
          "internalType": "uint256",
          "name": "createdAtBlock",
          "type": "uint256"
        }
      ],
      "stateMutability": "view",
      "type": "function"
    },
    {
      "inputs": [],
      "name": "evaluationMethodsCount",
      "outputs": [
        {
          "internalType": "uint64",
          "name": "",
          "type": "uint64"
        }
      ],
      "stateMutability": "view",
      "type": "function"
    },
    {
      "inputs": [
        {
          "internalType": "uint64",
          "name": "id",
          "type": "uint64"
        }
      ],
      "name": "getCalculatorItem",
      "outputs": [
        {
          "components": [
            {
              "internalType": "uint64",
              "name": "id",
              "type": "uint64"
            },
            {
              "internalType": "address",
              "name": "createdBy",
              "type": "address"
            },
            {
              "internalType": "string",
              "name": "item",
              "type": "string"
            },
            {
              "internalType": "string",
              "name": "thesis",
              "type": "string"
            },
            {
              "internalType": "string",
              "name": "unit",
              "type": "string"
            },
            {
              "internalType": "uint256",
              "name": "carbonImpact",
              "type": "uint256"
            },
            {
              "internalType": "uint256",
              "name": "createdAtBlock",
              "type": "uint256"
            }
          ],
          "internalType": "struct CalculatorItem",
          "name": "",
          "type": "tuple"
        }
      ],
      "stateMutability": "view",
      "type": "function"
    },
    {
      "inputs": [
        {
          "internalType": "uint64",
          "name": "id",
          "type": "uint64"
        }
      ],
      "name": "getResearch",
      "outputs": [
        {
          "components": [
            {
              "internalType": "uint64",
              "name": "id",
              "type": "uint64"
            },
            {
              "internalType": "uint256",
              "name": "era",
              "type": "uint256"
            },
            {
              "internalType": "address",
              "name": "createdBy",
              "type": "address"
            },
            {
              "internalType": "string",
              "name": "title",
              "type": "string"
            },
            {
              "internalType": "string",
              "name": "thesis",
              "type": "string"
            },
            {
              "internalType": "string",
              "name": "file",
              "type": "string"
            },
            {
              "internalType": "uint256",
              "name": "validationsCount",
              "type": "uint256"
            },
            {
              "internalType": "bool",
              "name": "valid",
              "type": "bool"
            },
            {
              "internalType": "uint256",
              "name": "invalidatedAt",
              "type": "uint256"
            },
            {
              "internalType": "uint256",
              "name": "createdAtBlock",
              "type": "uint256"
            }
          ],
          "internalType": "struct Research",
          "name": "",
          "type": "tuple"
        }
      ],
      "stateMutability": "view",
      "type": "function"
    },
    {
      "inputs": [
        {
          "internalType": "address",
          "name": "addr",
          "type": "address"
        }
      ],
      "name": "getResearcher",
      "outputs": [
        {
          "components": [
            {
              "internalType": "uint64",
              "name": "id",
              "type": "uint64"
            },
            {
              "internalType": "address",
              "name": "researcherWallet",
              "type": "address"
            },
            {
              "internalType": "string",
              "name": "name",
              "type": "string"
            },
            {
              "components": [
                {
                  "internalType": "uint256",
                  "name": "level",
                  "type": "uint256"
                },
                {
                  "internalType": "uint256",
                  "name": "currentEra",
                  "type": "uint256"
                }
              ],
              "internalType": "struct Pool",
              "name": "pool",
              "type": "tuple"
            },
            {
              "internalType": "string",
              "name": "proofPhoto",
              "type": "string"
            },
            {
              "internalType": "uint256",
              "name": "publishedResearches",
              "type": "uint256"
            },
            {
              "internalType": "uint256",
              "name": "lastPublishedAt",
              "type": "uint256"
            },
            {
              "internalType": "uint256",
              "name": "publishedItems",
              "type": "uint256"
            },
            {
              "internalType": "uint256",
              "name": "lastCalculatorItemAt",
              "type": "uint256"
            },
            {
              "internalType": "uint256",
              "name": "createdAt",
              "type": "uint256"
            },
            {
              "internalType": "bool",
              "name": "canPublishMethod",
              "type": "bool"
            }
          ],
          "internalType": "struct Researcher",
          "name": "",
          "type": "tuple"
        }
      ],
      "stateMutability": "view",
      "type": "function"
    },
    {
      "inputs": [
        {
          "internalType": "address",
          "name": "addr",
          "type": "address"
        }
      ],
      "name": "getResearchesIds",
      "outputs": [
        {
          "internalType": "uint256[]",
          "name": "",
          "type": "uint256[]"
        }
      ],
      "stateMutability": "view",
      "type": "function"
    },
    {
      "inputs": [
        {
          "internalType": "address",
          "name": "caller",
          "type": "address"
        }
      ],
      "name": "isAllowedCaller",
      "outputs": [
        {
          "internalType": "bool",
          "name": "",
          "type": "bool"
        }
      ],
      "stateMutability": "view",
      "type": "function"
    },
    {
      "inputs": [],
      "name": "maxPenalties",
      "outputs": [
        {
          "internalType": "uint8",
          "name": "",
          "type": "uint8"
        }
      ],
      "stateMutability": "view",
      "type": "function"
    },
    {
      "inputs": [
        {
          "internalType": "address",
          "name": "allowed",
          "type": "address"
        }
      ],
      "name": "newAllowedCaller",
      "outputs": [],
      "stateMutability": "nonpayable",
      "type": "function"
    },
    {
      "inputs": [],
      "name": "nextEraIn",
      "outputs": [
        {
          "internalType": "uint256",
          "name": "",
          "type": "uint256"
        }
      ],
      "stateMutability": "view",
      "type": "function"
    },
    {
      "inputs": [],
      "name": "owner",
      "outputs": [
        {
          "internalType": "address",
          "name": "",
          "type": "address"
        }
      ],
      "stateMutability": "view",
      "type": "function"
    },
    {
      "inputs": [
        {
          "internalType": "address",
          "name": "",
          "type": "address"
        },
        {
          "internalType": "uint256",
          "name": "",
          "type": "uint256"
        }
      ],
      "name": "penalties",
      "outputs": [
        {
          "internalType": "uint256",
          "name": "researchId",
          "type": "uint256"
        }
      ],
      "stateMutability": "view",
      "type": "function"
    },
    {
      "inputs": [],
      "name": "poolCurrentEra",
      "outputs": [
        {
          "internalType": "uint256",
          "name": "",
          "type": "uint256"
        }
      ],
      "stateMutability": "view",
      "type": "function"
    },
    {
      "inputs": [
        {
          "internalType": "address",
          "name": "addr",
          "type": "address"
        }
      ],
      "name": "removePoolLevels",
      "outputs": [],
      "stateMutability": "nonpayable",
      "type": "function"
    },
    {
      "inputs": [],
      "name": "renounceOwnership",
      "outputs": [],
      "stateMutability": "nonpayable",
      "type": "function"
    },
    {
      "inputs": [
        {
          "internalType": "uint64",
          "name": "",
          "type": "uint64"
        }
      ],
      "name": "researchPenalized",
      "outputs": [
        {
          "internalType": "bool",
          "name": "",
          "type": "bool"
        }
      ],
      "stateMutability": "view",
      "type": "function"
    },
    {
      "inputs": [],
      "name": "researcherPool",
      "outputs": [
        {
          "internalType": "contract IResearcherPool",
          "name": "",
          "type": "address"
        }
      ],
      "stateMutability": "view",
      "type": "function"
    },
    {
      "inputs": [
        {
          "internalType": "uint256",
          "name": "",
          "type": "uint256"
        }
      ],
      "name": "researchersAddress",
      "outputs": [
        {
          "internalType": "address",
          "name": "",
          "type": "address"
        }
      ],
      "stateMutability": "view",
      "type": "function"
    },
    {
      "inputs": [
        {
          "internalType": "uint256",
          "name": "",
          "type": "uint256"
        }
      ],
      "name": "researches",
      "outputs": [
        {
          "internalType": "uint64",
          "name": "id",
          "type": "uint64"
        },
        {
          "internalType": "uint256",
          "name": "era",
          "type": "uint256"
        },
        {
          "internalType": "address",
          "name": "createdBy",
          "type": "address"
        },
        {
          "internalType": "string",
          "name": "title",
          "type": "string"
        },
        {
          "internalType": "string",
          "name": "thesis",
          "type": "string"
        },
        {
          "internalType": "string",
          "name": "file",
          "type": "string"
        },
        {
          "internalType": "uint256",
          "name": "validationsCount",
          "type": "uint256"
        },
        {
          "internalType": "bool",
          "name": "valid",
          "type": "bool"
        },
        {
          "internalType": "uint256",
          "name": "invalidatedAt",
          "type": "uint256"
        },
        {
          "internalType": "uint256",
          "name": "createdAtBlock",
          "type": "uint256"
        }
      ],
      "stateMutability": "view",
      "type": "function"
    },
    {
      "inputs": [],
      "name": "researchesCount",
      "outputs": [
        {
          "internalType": "uint64",
          "name": "",
          "type": "uint64"
        }
      ],
      "stateMutability": "view",
      "type": "function"
    },
    {
      "inputs": [
        {
          "internalType": "address",
          "name": "",
          "type": "address"
        },
        {
          "internalType": "uint256",
          "name": "",
          "type": "uint256"
        }
      ],
      "name": "researchesIds",
      "outputs": [
        {
          "internalType": "uint256",
          "name": "",
          "type": "uint256"
        }
      ],
      "stateMutability": "view",
      "type": "function"
    },
    {
      "inputs": [],
      "name": "researchesTotalCount",
      "outputs": [
        {
          "internalType": "uint64",
          "name": "",
          "type": "uint64"
        }
      ],
      "stateMutability": "view",
      "type": "function"
    },
    {
      "inputs": [],
      "name": "securityBlocksToValidation",
      "outputs": [
        {
          "internalType": "uint32",
          "name": "",
          "type": "uint32"
        }
      ],
      "stateMutability": "view",
      "type": "function"
    },
    {
      "inputs": [
        {
          "internalType": "address",
          "name": "_validationRulesAddress",
          "type": "address"
        }
      ],
      "name": "setContractCall",
      "outputs": [],
      "stateMutability": "nonpayable",
      "type": "function"
    },
    {
      "inputs": [
        {
          "components": [
            {
              "internalType": "address",
              "name": "communityRulesAddress",
              "type": "address"
            },
            {
              "internalType": "address",
              "name": "researcherPoolAddress",
              "type": "address"
            },
            {
              "internalType": "address",
              "name": "validationRulesAddress",
              "type": "address"
            },
            {
              "internalType": "address",
              "name": "voteRulesAddress",
              "type": "address"
            }
          ],
          "internalType": "struct ContractsDependency",
          "name": "contractDependency",
          "type": "tuple"
        }
      ],
      "name": "setContractInterfaces",
      "outputs": [],
      "stateMutability": "nonpayable",
      "type": "function"
    },
    {
      "inputs": [],
      "name": "timeBetweenWorks",
      "outputs": [
        {
          "internalType": "uint32",
          "name": "",
          "type": "uint32"
        }
      ],
      "stateMutability": "view",
      "type": "function"
    },
    {
      "inputs": [],
      "name": "totalActiveLevels",
      "outputs": [
        {
          "internalType": "uint256",
          "name": "",
          "type": "uint256"
        }
      ],
      "stateMutability": "view",
      "type": "function"
    },
    {
      "inputs": [
        {
          "internalType": "address",
          "name": "addr",
          "type": "address"
        }
      ],
      "name": "totalPenalties",
      "outputs": [
        {
          "internalType": "uint256",
          "name": "",
          "type": "uint256"
        }
      ],
      "stateMutability": "view",
      "type": "function"
    },
    {
      "inputs": [
        {
          "internalType": "address",
          "name": "newOwner",
          "type": "address"
        }
      ],
      "name": "transferOwnership",
      "outputs": [],
      "stateMutability": "nonpayable",
      "type": "function"
    },
    {
      "inputs": [],
      "name": "validationRules",
      "outputs": [
        {
          "internalType": "contract IValidationRules",
          "name": "",
          "type": "address"
        }
      ],
      "stateMutability": "view",
      "type": "function"
    },
    {
      "inputs": [],
      "name": "voteRules",
      "outputs": [
        {
          "internalType": "contract IVoteRules",
          "name": "",
          "type": "address"
        }
      ],
      "stateMutability": "view",
      "type": "function"
    },
    {
      "inputs": [],
      "name": "withdraw",
      "outputs": [],
      "stateMutability": "nonpayable",
      "type": "function"
    }
  ],
  "bytecode": "0x60e060405234801561001057600080fd5b5060405161456b38038061456b83398101604081905261002f916100e9565b338061005557604051631e4fbdf760e01b81526000600482015260240160405180910390fd5b61005e81610080565b50600160025563ffffffff92831660a05260ff9091166080521660c052610134565b600080546001600160a01b038381166001600160a01b0319831681178455604051919092169283917f8be0079c531659141344cd1fd0a4f28419497f9722a3daafe3b4186f6b6457e09190a35050565b805163ffffffff811681146100e457600080fd5b919050565b6000806000606084860312156100fe57600080fd5b610107846100d0565b9250602084015160ff8116811461011d57600080fd5b915061012b604085016100d0565b90509250925092565b60805160a05160c0516143f3610178600039600081816103ab0152612d060152600081816104ac01526132520152600081816105fd015261125601526143f36000f3fe608060405234801561001057600080fd5b50600436106102955760003560e01c80637600725211610167578063b932c8b7116100ce578063e0d56bde11610087578063e0d56bde146106e8578063e7eba4c2146106fb578063e8a6a9221461071b578063eb5870921461072e578063f2fde38b14610751578063f92f0f8e1461076457600080fd5b8063b932c8b714610664578063be18bc801461068d578063be9dc584146106b2578063c77c1ce6146106ba578063ce59654a146106cd578063e05cf155146106e057600080fd5b806394a7444e1161012057806394a7444e146105b05780639eaf666f146105b9578063a6801258146105cc578063b24eb769146105f8578063b4de0ff414610631578063b702523b1461065157600080fd5b806376007252146105185780637b334154146105435780637c647a62146105665780637f4b0515146105795780638da5cb5b1461058c5780638f93716f1461059d57600080fd5b80634714b5721161020b5780636750d523116101c45780636750d523146104945780636b6c7c2d146104a75780636ec7053a146104ce578063715018a6146104ea57806372e2e6cc146104f2578063755d4f971461050557600080fd5b80634714b572146103fd57806352d3ea9d14610423578063582256f11461043d5780635a52293a146104455780635f7d0704146104585780635fa71c281461048157600080fd5b806320d817131161025d57806320d817131461035e5780633270f4ad1461037357806332980c9b1461038657806335c11677146103a65780633ccfd60b146103e2578063406458f2146103ea57600080fd5b80630884a6721461029a5780630eaf485c146102c257806311868d0b146102ed5780631f701ee01461030d5780632076267b14610327575b600080fd5b6102ad6102a83660046137c8565b610777565b60405190151581526020015b60405180910390f35b6005546102d5906001600160401b031681565b6040516001600160401b0390911681526020016102b9565b6103006102fb3660046137fa565b6107a2565b6040516102b9919061385d565b6005546102d590600160401b90046001600160401b031681565b6103506103353660046137c8565b6001600160a01b03166000908152600b602052604090205490565b6040519081526020016102b9565b61037161036c3660046139c6565b610a0d565b005b610371610381366004613a15565b6113a4565b6103996103943660046137fa565b611668565b6040516102b99190613aae565b6103cd7f000000000000000000000000000000000000000000000000000000000000000081565b60405163ffffffff90911681526020016102b9565b61037161190f565b6003546102d5906001600160401b031681565b61041061040b3660046137fa565b611b10565b6040516102b99796959493929190613b89565b6003546102d590600160401b90046001600160401b031681565b610350611cf9565b610350610453366004613bf9565b611d79565b61046b610466366004613c25565b611daa565b6040516102b99a99989796959493929190613c3e565b61035061048f366004613bf9565b611faa565b6102ad6104a23660046137c8565b611fd9565b6103cd7f000000000000000000000000000000000000000000000000000000000000000081565b6104d7613e8081565b60405161ffff90911681526020016102b9565b610371611ffe565b610371610500366004613cc8565b612010565b6103716105133660046137c8565b612285565b60105461052b906001600160a01b031681565b6040516001600160a01b0390911681526020016102b9565b6102ad6105513660046137c8565b60016020526000908152604090205460ff1681565b610371610574366004613d59565b6122af565b600f5461052b906001600160a01b031681565b6000546001600160a01b031661052b565b6103716105ab3660046137c8565b612314565b61035060045481565b6102ad6105c7366004613dc2565b612343565b6102ad6105da3660046137c8565b6001600160a01b031660009081526001602052604090205460ff1690565b61061f7f000000000000000000000000000000000000000000000000000000000000000081565b60405160ff90911681526020016102b9565b61064461063f3660046137c8565b61237b565b6040516102b99190613dee565b61037161065f366004613e31565b6123e7565b61052b610672366004613c25565b600d602052600090815260409020546001600160a01b031681565b6106a061069b366004613c25565b612771565b6040516102b996959493929190613e82565b610350600581565b6102ad6106c83660046137c8565b612954565b600e5461052b906001600160a01b031681565b6103506129fe565b60115461052b906001600160a01b031681565b61070e6107093660046137c8565b612a48565b6040516102b99190613eef565b610371610729366004613cc8565b612c2d565b6102ad61073c3660046137fa565b600c6020526000908152604090205460ff1681565b61037161075f3660046137c8565b6130de565b6103716107723660046137c8565b61311c565b6001600160a01b03811660009081526006602081905260408220015461079c90613236565b92915050565b6107f46040518060e0016040528060006001600160401b0316815260200160006001600160a01b0316815260200160608152602001606081526020016060815260200160008152602001600081525090565b6001600160401b03828116600090815260096020908152604091829020825160e08101845281549485168152600160401b9094046001600160a01b031691840191909152600181018054919284019161084c90613fce565b80601f016020809104026020016040519081016040528092919081815260200182805461087890613fce565b80156108c55780601f1061089a576101008083540402835291602001916108c5565b820191906000526020600020905b8154815290600101906020018083116108a857829003601f168201915b505050505081526020016002820180546108de90613fce565b80601f016020809104026020016040519081016040528092919081815260200182805461090a90613fce565b80156109575780601f1061092c57610100808354040283529160200191610957565b820191906000526020600020905b81548152906001019060200180831161093a57829003601f168201915b5050505050815260200160038201805461097090613fce565b80601f016020809104026020016040519081016040528092919081815260200182805461099c90613fce565b80156109e95780601f106109be576101008083540402835291602001916109e9565b820191906000526020600020905b8154815290600101906020018083116109cc57829003601f168201915b50505050508152602001600482015481526020016005820154815250509050919050565b610a15613280565b600e5460405163e838dfbb60e01b81523360048201526001600160a01b039091169063e838dfbb90602401602060405180830381865afa158015610a5d573d6000803e3d6000fd5b505050506040513d601f19601f82011682018060405250810190610a819190614008565b15610ac15760405162461bcd60e51b815260206004820152600b60248201526a155cd95c8819195b9a595960aa1b60448201526064015b60405180910390fd5b805161012c1015610ae45760405162461bcd60e51b8152600401610ab89061402a565b6011546040516356fd539760e11b81523360048201526001600160a01b039091169063adfaa72e90602401602060405180830381865afa158015610b2c573d6000803e3d6000fd5b505050506040513d601f19601f82011682018060405250810190610b509190614008565b610b8a5760405162461bcd60e51b815260206004820152600b60248201526a2737ba1030903b37ba32b960a91b6044820152606401610ab8565b601054604051630d84466b60e21b81523360048201526001600160a01b039091169063361119ac90602401602060405180830381865afa158015610bd2573d6000803e3d6000fd5b505050506040513d601f19601f82011682018060405250810190610bf69190614008565b610c3a5760405162461bcd60e51b8152602060048201526015602482015274576169742074696d654265747765656e566f74657360581b6044820152606401610ab8565b6001600160401b038216600090815260136020908152604080832033845290915290205460ff1615610c9e5760405162461bcd60e51b815260206004820152600d60248201526c105b1c9958591e481d9bdd1959609a1b6044820152606401610ab8565b6001600160401b0382166000908152600c602052604090205460ff1615610d075760405162461bcd60e51b815260206004820152601960248201527f50656e616c7469657320616c7265616479206170706c696564000000000000006044820152606401610ab8565b6001600160401b0380831660008181526013602090815260408083203384528252808320805460ff191660019081179091559383526007825280832081516101408101835281549096168652938401549185019190915260028301546001600160a01b03169084015260038201805491939291606084019190610d8990613fce565b80601f0160208091040260200160405190810160405280929190818152602001828054610db590613fce565b8015610e025780601f10610dd757610100808354040283529160200191610e02565b820191906000526020600020905b815481529060010190602001808311610de557829003601f168201915b50505050508152602001600482018054610e1b90613fce565b80601f0160208091040260200160405190810160405280929190818152602001828054610e4790613fce565b8015610e945780601f10610e6957610100808354040283529160200191610e94565b820191906000526020600020905b815481529060010190602001808311610e7757829003601f168201915b50505050508152602001600582018054610ead90613fce565b80601f0160208091040260200160405190810160405280929190818152602001828054610ed990613fce565b8015610f265780601f10610efb57610100808354040283529160200191610f26565b820191906000526020600020905b815481529060010190602001808311610f0957829003601f168201915b505050918352505060068201546020820152600782015460ff16151560408201526008820154606082015260099091015460809091015260e08101519091508015610f7b57508060200151610f796129fe565b145b610fbc5760405162461bcd60e51b815260206004820152601260248201527114995cd9585c98da081b9bdd08159053125160721b6044820152606401610ab8565b60018160c001818151610fcf9190614068565b9052506001600160401b038381166000908152600760209081526040918290208451815467ffffffffffffffff1916941693909317835583015160018301558201516002820180546001600160a01b0319166001600160a01b039092169190911790556060820151829190600382019061104990826140c2565b506080820151600482019061105e90826140c2565b5060a0820151600582019061107390826140c2565b5060c0820151600682015560e082015160078201805460ff1916911515919091179055610100820151600882015561012090910151600990910155601054604080516369bf81c360e01b815290516000926001600160a01b0316916369bf81c39160048083019260209291908290030181865afa1580156110f8573d6000803e3d6000fd5b505050506040513d601f19601f8201168201806040525081019061111c9190614180565b9050600181116111815760405162461bcd60e51b815260206004820152602a60248201527f56616c69646174696f6e207468726573686f6c642063616e6e6f74206265206c60448201526932b9b9903a3430b7101960b11b6064820152608401610ab8565b808260c001511061128b576001600160401b0384166000908152600c60205260409020805460ff191660011790556111b8826132a8565b336001600160a01b0316846001600160401b03167fec82afd035df5f6da576aafb10163adedd64aa9955e7843369f1151fe7bcc627856040516111fb9190614199565b60405180910390a36040828101516001600160a01b03166000818152600b602081815284832085518083019096526001600160401b038a168652805460018101825581855282852096519601959095559290915290525460ff7f0000000000000000000000000000000000000000000000000000000000000000168110611289576112898360400151613481565b505b60105460405163eb48556b60e01b81523360048201526001600160a01b039091169063eb48556b90602401600060405180830381600087803b1580156112d057600080fd5b505af11580156112e4573d6000803e3d6000fd5b50506010546040516324cc251760e21b81523360048201526001600160a01b039091169250639330945c9150602401600060405180830381600087803b15801561132d57600080fd5b505af1158015611341573d6000803e3d6000fd5b5050505081600001516001600160401b0316336001600160a01b03167fa60b3cba17d47d019e43ed78d18b7dbcdb3356746136e92739e184014baed95b8560405161138c9190614199565b60405180910390a350506113a06001600255565b5050565b83516023108015906113b95750825161012c10155b80156113c757508151601410155b6113e35760405162461bcd60e51b8152600401610ab89061402a565b600e54604051631292f8c160e31b81526001600160a01b0390911690639497c608906114169060039033906004016141ce565b602060405180830381865afa158015611433573d6000803e3d6000fd5b505050506040513d601f19601f820116820180604052508101906114579190614008565b6114735760405162461bcd60e51b8152600401610ab8906141f4565b61147c33611fd9565b6114bc5760405162461bcd60e51b815260206004820152601160248201527010d85b89dd081c1d589b1a5cda081e595d607a1b6044820152606401610ab8565b600181101580156114d05750620f42408111155b6115145760405162461bcd60e51b8152602060048201526015602482015274125b9d985b1a590818d85c989bdb881a5b5c1858dd605a1b6044820152606401610ab8565b60055460009061152e906001600160401b0316600161421e565b6040805160e0810182526001600160401b038084168083523360208085019182528486018c8152606086018c9052608086018b905260a086018a90524360c087015260009384526009909152949091208351815492516001600160a01b0316600160401b026001600160e01b031990931693169290921717815591519293509160018201906115bd90826140c2565b50606082015160028201906115d290826140c2565b50608082015160038201906115e790826140c2565b5060a0820151600482015560c09091015160059182015580546001600160401b03169060006116158361423d565b82546001600160401b039182166101009390930a92830291909202199091161790555033600090815260066020526040812043600882015560070180549161165c83614268565b91905055505050505050565b6116d260405180610140016040528060006001600160401b031681526020016000815260200160006001600160a01b031681526020016060815260200160608152602001606081526020016000815260200160001515815260200160008152602001600081525090565b6001600160401b038083166000908152600760209081526040918290208251610140810184528154909416845260018101549184019190915260028101546001600160a01b03169183019190915260038101805460608401919061173590613fce565b80601f016020809104026020016040519081016040528092919081815260200182805461176190613fce565b80156117ae5780601f10611783576101008083540402835291602001916117ae565b820191906000526020600020905b81548152906001019060200180831161179157829003601f168201915b505050505081526020016004820180546117c790613fce565b80601f01602080910402602001604051908101604052809291908181526020018280546117f390613fce565b80156118405780601f1061181557610100808354040283529160200191611840565b820191906000526020600020905b81548152906001019060200180831161182357829003601f168201915b5050505050815260200160058201805461185990613fce565b80601f016020809104026020016040519081016040528092919081815260200182805461188590613fce565b80156118d25780601f106118a7576101008083540402835291602001916118d2565b820191906000526020600020905b8154815290600101906020018083116118b557829003601f168201915b505050918352505060068201546020820152600782015460ff16151560408201526008820154606082015260099091015460809091015292915050565b611917613280565b600e54604051631292f8c160e31b81526001600160a01b0390911690639497c6089061194a9060039033906004016141ce565b602060405180830381865afa158015611967573d6000803e3d6000fd5b505050506040513d601f19601f8201168201806040525081019061198b9190614008565b6119a75760405162461bcd60e51b8152600401610ab8906141f4565b33600090815260066020526040908190206003810154600f549251637df42f8360e11b815260048101829052919290916001600160a01b039091169063fbe85f0690602401602060405180830381865afa158015611a09573d6000803e3d6000fd5b505050506040513d601f19601f82011682018060405250810190611a2d9190614008565b611a875760405162461bcd60e51b815260206004820152602560248201527f4e6f7420656c696769626c6520746f20776974686472617720666f7220746869604482015264732065726160d81b6064820152608401610ab8565b600382018054906000611a9983614268565b9091555050600f5460405163f3fef3a360e01b8152336004820152602481018390526001600160a01b039091169063f3fef3a390604401600060405180830381600087803b158015611aea57600080fd5b505af1158015611afe573d6000803e3d6000fd5b505050505050611b0e6001600255565b565b600960205260009081526040902080546001820180546001600160401b03831693600160401b9093046001600160a01b0316929190611b4e90613fce565b80601f0160208091040260200160405190810160405280929190818152602001828054611b7a90613fce565b8015611bc75780601f10611b9c57610100808354040283529160200191611bc7565b820191906000526020600020905b815481529060010190602001808311611baa57829003601f168201915b505050505090806002018054611bdc90613fce565b80601f0160208091040260200160405190810160405280929190818152602001828054611c0890613fce565b8015611c555780601f10611c2a57610100808354040283529160200191611c55565b820191906000526020600020905b815481529060010190602001808311611c3857829003601f168201915b505050505090806003018054611c6a90613fce565b80601f0160208091040260200160405190810160405280929190818152602001828054611c9690613fce565b8015611ce35780601f10611cb857610100808354040283529160200191611ce3565b820191906000526020600020905b815481529060010190602001808311611cc657829003601f168201915b5050505050908060040154908060050154905087565b600f546000906001600160a01b031663d5ee3eb5611d156129fe565b6040518263ffffffff1660e01b8152600401611d3391815260200190565b602060405180830381865afa158015611d50573d6000803e3d6000fd5b505050506040513d601f19601f82011682018060405250810190611d749190614180565b905090565b60086020528160005260406000208181548110611d9557600080fd5b90600052602060002001600091509150505481565b60076020526000908152604090208054600182015460028301546003840180546001600160401b039094169492936001600160a01b039092169291611dee90613fce565b80601f0160208091040260200160405190810160405280929190818152602001828054611e1a90613fce565b8015611e675780601f10611e3c57610100808354040283529160200191611e67565b820191906000526020600020905b815481529060010190602001808311611e4a57829003601f168201915b505050505090806004018054611e7c90613fce565b80601f0160208091040260200160405190810160405280929190818152602001828054611ea890613fce565b8015611ef55780601f10611eca57610100808354040283529160200191611ef5565b820191906000526020600020905b815481529060010190602001808311611ed857829003601f168201915b505050505090806005018054611f0a90613fce565b80601f0160208091040260200160405190810160405280929190818152602001828054611f3690613fce565b8015611f835780601f10611f5857610100808354040283529160200191611f83565b820191906000526020600020905b815481529060010190602001808311611f6657829003601f168201915b505050506006830154600784015460088501546009909501549394919360ff90911692508a565b600b6020528160005260406000208181548110611fc657600080fd5b6000918252602090912001549150829050565b6001600160a01b03811660009081526006602052604081206008015461079c90613236565b6120066136ad565b611b0e60006136da565b82516064108015906120255750815161012c10155b801561203357508051609610155b61204f5760405162461bcd60e51b8152600401610ab89061402a565b600e54604051631292f8c160e31b81526001600160a01b0390911690639497c608906120829060039033906004016141ce565b602060405180830381865afa15801561209f573d6000803e3d6000fd5b505050506040513d601f19601f820116820180604052508101906120c39190614008565b6120df5760405162461bcd60e51b8152600401610ab8906141f4565b336000908152600660205260409020600a015460ff166121415760405162461bcd60e51b815260206004820152601760248201527f4f6e6c79206f6e65206d6574686f6420616c6c6f7765640000000000000000006044820152606401610ab8565b60055460009061216290600160401b90046001600160401b0316600161421e565b6040805160c0810182526001600160401b038084168083523360208085019182528486018b8152606086018b9052608086018a90524360a08701526000938452600a909152949091208351815492516001600160a01b0316600160401b026001600160e01b031990931693169290921717815591519293509160018201906121ea90826140c2565b50606082015160028201906121ff90826140c2565b506080820151600382019061221490826140c2565b5060a0919091015160049091015560058054600160401b90046001600160401b03169060086122428361423d565b82546001600160401b039182166101009390930a92830291909202199091161790555050336000908152600660205260409020600a01805460ff19169055505050565b61228d6136ad565b601280546001600160a01b0319166001600160a01b0392909216919091179055565b6122b76136ad565b8051600e80546001600160a01b03199081166001600160a01b03938416179091556020830151600f805483169184169190911790556040830151601080548316918416919091179055606090920151601180549093169116179055565b61231c6136ad565b6001600160a01b03166000908152600160208190526040909120805460ff19169091179055565b60008260000361235557506000612374565b6005831161236557506001612374565b836123708484614281565b1190505b9392505050565b6001600160a01b0381166000908152600860209081526040918290208054835181840281018401909452808452606093928301828280156123db57602002820191906000526020600020905b8154815260200190600101908083116123c7575b50505050509050919050565b81516032108015906123fb57508051609610155b6124175760405162461bcd60e51b8152600401610ab89061402a565b600e54604051632f22dc7b60e01b8152613e80916001600160a01b031690632f22dc7b9061244a90600390600401614298565b602060405180830381865afa158015612467573d6000803e3d6000fd5b505050506040513d601f19601f8201168201806040525081019061248b9190614180565b106124c95760405162461bcd60e51b815260206004820152600e60248201526d13585e081d5cd95c881b1a5b5a5d60921b6044820152606401610ab8565b600e5460405162f5960960e51b81526000916001600160a01b031690631eb2c120906124fa90600390600401614298565b602060405180830381865afa158015612517573d6000803e3d6000fd5b505050506040513d601f19601f8201168201806040525081019061253b91906142a6565b61254690600161421e565b9050604051806101600160405280826001600160401b03168152602001336001600160a01b031681526020018481526020016040518060400160405280600081526020016125926129fe565b90528152602080820185905260006040808401829052606084018290526080840182905260a084018290524360c0850152600160e0909401849052338252600683529081902084518154938601516001600160a01b0316600160401b026001600160e01b03199094166001600160401b0390911617929092178255830151909182019061261f90826140c2565b506060820151805160028301556020015160038201556080820151600482019061264990826140c2565b5060a0820151600582015560c0820151600682015560e082015160078201556101008201516008820155610120820151600982015561014090910151600a909101805460ff19169115159190911790556001600160401b0381166000908152600d6020526040908190208054336001600160a01b03199091168117909155600e549151639c3eead960e01b81526001600160a01b0390921691639c3eead9916126f7916003906004016142c3565b600060405180830381600087803b15801561271157600080fd5b505af1158015612725573d6000803e3d6000fd5b50505050336001600160a01b03167fd9e252c4299740928760c15af4c9d6fee5a786293f1f330440036039a6ed533a82856040516127649291906142e0565b60405180910390a2505050565b600a60205260009081526040902080546001820180546001600160401b03831693600160401b9093046001600160a01b03169291906127af90613fce565b80601f01602080910402602001604051908101604052809291908181526020018280546127db90613fce565b80156128285780601f106127fd57610100808354040283529160200191612828565b820191906000526020600020905b81548152906001019060200180831161280b57829003601f168201915b50505050509080600201805461283d90613fce565b80601f016020809104026020016040519081016040528092919081815260200182805461286990613fce565b80156128b65780601f1061288b576101008083540402835291602001916128b6565b820191906000526020600020905b81548152906001019060200180831161289957829003601f168201915b5050505050908060030180546128cb90613fce565b80601f01602080910402602001604051908101604052809291908181526020018280546128f790613fce565b80156129445780601f1061291957610100808354040283529160200191612944565b820191906000526020600020905b81548152906001019060200180831161292757829003601f168201915b5050505050908060040154905086565b60008061296083612a48565b80519091506001600160401b031661297b5750600092915050565b60048054600e54604051632f22dc7b60e01b8152612374936001600160a01b0390921691632f22dc7b916129b29160039101614298565b602060405180830381865afa1580156129cf573d6000803e3d6000fd5b505050506040513d601f19601f820116820180604052508101906129f39190614180565b606084015151612343565b600f5460408051637686fbcf60e11b815290516000926001600160a01b03169163ed0df79e9160048083019260209291908290030181865afa158015611d50573d6000803e3d6000fd5b612a5061372a565b6001600160a01b0380831660009081526006602090815260409182902082516101608101845281546001600160401b0381168252600160401b9004909416918401919091526001810180549192840191612aa990613fce565b80601f0160208091040260200160405190810160405280929190818152602001828054612ad590613fce565b8015612b225780601f10612af757610100808354040283529160200191612b22565b820191906000526020600020905b815481529060010190602001808311612b0557829003601f168201915b5050505050815260200160028201604051806040016040529081600082015481526020016001820154815250508152602001600482018054612b6390613fce565b80601f0160208091040260200160405190810160405280929190818152602001828054612b8f90613fce565b8015612bdc5780601f10612bb157610100808354040283529160200191612bdc565b820191906000526020600020905b815481529060010190602001808311612bbf57829003601f168201915b505050918352505060058201546020820152600682015460408201526007820154606082015260088201546080820152600982015460a0820152600a9091015460ff16151560c09091015292915050565b612c35613280565b8251606410801590612c4a5750815161012c10155b8015612c5857508051609610155b612c745760405162461bcd60e51b8152600401610ab89061402a565b600e54604051631292f8c160e31b81526001600160a01b0390911690639497c60890612ca79060039033906004016141ce565b602060405180830381865afa158015612cc4573d6000803e3d6000fd5b505050506040513d601f19601f82011682018060405250810190612ce89190614008565b612d045760405162461bcd60e51b8152600401610ab8906141f4565b7f000000000000000000000000000000000000000000000000000000000000000063ffffffff16612d33611cf9565b11612d765760405162461bcd60e51b81526020600482015260136024820152725761697420756e74696c206e6578742065726160681b6044820152606401610ab8565b612d7f33610777565b612dbf5760405162461bcd60e51b815260206004820152601160248201527010d85b89dd081c1d589b1a5cda081e595d607a1b6044820152606401610ab8565b600380546001600160401b0316906000612dd88361423d565b91906101000a8154816001600160401b0302191690836001600160401b03160217905550506003600881819054906101000a90046001600160401b031680929190612e229061423d565b91906101000a8154816001600160401b0302191690836001600160401b031602179055505060046000815480929190612e5a90614268565b9091555050600354604080516101408101909152600160401b9091046001600160401b03168082529060208101612e8f6129fe565b8152336020808301919091526040808301889052606080840188905260808401879052600060a08501819052600160c0860181905260e0860182905243610100909601959095526001600160401b03878116825260078552908390208651815467ffffffffffffffff1916921691909117815592850151938301939093558301516002820180546001600160a01b0319166001600160a01b03909216919091179055908201516003820190612f4490826140c2565b5060808201516004820190612f5990826140c2565b5060a08201516005820190612f6e90826140c2565b5060c082015160068281019190915560e083015160078301805460ff1916911515919091179055610100830151600883015561012090920151600990910155336000908152602091909152604081206005810180549192612fce83614268565b9091555050436006820155336000908152600860209081526040822080546001810182559083529082206001600160401b0385169101556002820180549161301583614268565b9091555050600f546040516338e8490d60e11b8152336004820152600160248201526001600160401b03841660448201526001600160a01b03909116906371d0921a90606401600060405180830381600087803b15801561307557600080fd5b505af1158015613089573d6000803e3d6000fd5b50506040514381523392506001600160401b03851691507fe4c1c9646dc792c06d1b46cbe82f47bc6843a8dee984ecab0e2e4fb1280f1fed9060200160405180910390a350506130d96001600255565b505050565b6130e66136ad565b6001600160a01b03811661311057604051631e4fbdf760e01b815260006004820152602401610ab8565b613119816136da565b50565b3360009081526001602052604090205460ff166131705760405162461bcd60e51b81526020600482015260126024820152712737ba1030b63637bbb2b21031b0b63632b960711b6044820152606401610ab8565b6012546001600160a01b03163381146131cb5760405162461bcd60e51b815260206004820152601e60248201527f43616c6c6572206d7573742062652073797374656d20636f6e747261637400006044820152606401610ab8565b600f546040516310c791e560e11b81526001600160a01b038481166004830152600160248301529091169063218f23ca906044015b600060405180830381600087803b15801561321a57600080fd5b505af115801561322e573d6000803e3d6000fd5b505050505050565b60008160000361324857506001919050565b61327863ffffffff7f00000000000000000000000000000000000000000000000000000000000000001683614068565b431192915050565b60028054036132a257604051633ee5aeb560e01b815260040160405180910390fd5b60028055565b600380546001600160401b03169060006132c18361430a565b825461010092830a6001600160401b03818102199092169282160291909117909255600060e085018190524391850191909152835182168152600760209081526040918290208551815467ffffffffffffffff1916941693909317835584015160018301558301516002820180546001600160a01b0319166001600160a01b039092169190911790556060830151839250600382019061336190826140c2565b506080820151600482019061337690826140c2565b5060a0820151600582019061338b90826140c2565b5060c082015160068281019190915560e083015160078301805460ff19169115159190911790556101008301516008830155610120909201516009909101556040828101516001600160a01b0316600090815260209290925281206002018054600192906133fa90849061432d565b90915550506004805490600061340f83614340565b9091555050600f5460408281015190516310c791e560e11b81526001600160a01b0391821660048201526000602482015291169063218f23ca90604401600060405180830381600087803b15801561346657600080fd5b505af115801561347a573d6000803e3d6000fd5b5050505050565b600e5460405163e838dfbb60e01b81526001600160a01b0383811660048301529091169063e838dfbb90602401602060405180830381865afa1580156134cb573d6000803e3d6000fd5b505050506040513d601f19601f820116820180604052508101906134ef9190614008565b156134f75750565b6001600160a01b038116600090815260066020526040812060020154600480549192909161352690849061432d565b9091555050600e54604051634acf78e960e11b81526001600160a01b0383811660048301529091169063959ef1d290602401600060405180830381600087803b15801561357257600080fd5b505af1158015613586573d6000803e3d6000fd5b5050600e5460405163158bdc5f60e11b81526001600160a01b038581166004830152600094509091169150632b17b8be90602401608060405180830381865afa1580156135d7573d6000803e3d6000fd5b505050506040513d601f19601f820116820180604052508101906135fb9190614357565b60208101519091506001600160a01b0316156131cb57600e546020820151604051636101bf2160e01b81526001600160a01b039182166004820152911690636101bf2190602401600060405180830381600087803b15801561365c57600080fd5b505af1158015613670573d6000803e3d6000fd5b5050600f546040516310c791e560e11b81526001600160a01b03868116600483015260016024830152909116925063218f23ca9150604401613200565b6000546001600160a01b03163314611b0e5760405163118cdaa760e01b8152336004820152602401610ab8565b600080546001600160a01b038381166001600160a01b0319831681178455604051919092169283917f8be0079c531659141344cd1fd0a4f28419497f9722a3daafe3b4186f6b6457e09190a35050565b60405180610160016040528060006001600160401b0316815260200160006001600160a01b031681526020016060815260200161377a604051806040016040528060008152602001600081525090565b81526020016060815260200160008152602001600081526020016000815260200160008152602001600081526020016000151581525090565b6001600160a01b038116811461311957600080fd5b6000602082840312156137da57600080fd5b8135612374816137b3565b6001600160401b038116811461311957600080fd5b60006020828403121561380c57600080fd5b8135612374816137e5565b6000815180845260005b8181101561383d57602081850181015186830182015201613821565b506000602082860101526020601f19601f83011685010191505092915050565b602081526001600160401b03825116602082015260018060a01b0360208301511660408201526000604083015160e0606084015261389f610100840182613817565b90506060840151601f198483030160808501526138bc8282613817565b9150506080840151601f198483030160a08501526138da8282613817565b91505060a084015160c084015260c084015160e08401528091505092915050565b634e487b7160e01b600052604160045260246000fd5b604051608081016001600160401b0381118282101715613933576139336138fb565b60405290565b600082601f83011261394a57600080fd5b81356001600160401b03811115613963576139636138fb565b604051601f8201601f19908116603f011681016001600160401b0381118282101715613991576139916138fb565b6040528181528382016020018510156139a957600080fd5b816020850160208301376000918101602001919091529392505050565b600080604083850312156139d957600080fd5b82356139e4816137e5565b915060208301356001600160401b038111156139ff57600080fd5b613a0b85828601613939565b9150509250929050565b60008060008060808587031215613a2b57600080fd5b84356001600160401b03811115613a4157600080fd5b613a4d87828801613939565b94505060208501356001600160401b03811115613a6957600080fd5b613a7587828801613939565b93505060408501356001600160401b03811115613a9157600080fd5b613a9d87828801613939565b949793965093946060013593505050565b60208152613ac86020820183516001600160401b03169052565b6020820151604082015260006040830151613aee60608401826001600160a01b03169052565b5060608301516101406080840152613b0a610160840182613817565b90506080840151601f198483030160a0850152613b278282613817565b91505060a0840151601f198483030160c0850152613b458282613817565b91505060c084015160e084015260e0840151613b6661010085018215159052565b506101008401516101208401526101208401516101408401528091505092915050565b6001600160401b03881681526001600160a01b038716602082015260e060408201819052600090613bbc90830188613817565b8281036060840152613bce8188613817565b90508281036080840152613be28187613817565b60a0840195909552505060c0015295945050505050565b60008060408385031215613c0c57600080fd5b8235613c17816137b3565b946020939093013593505050565b600060208284031215613c3757600080fd5b5035919050565b6001600160401b038b16815289602082015260018060a01b038916604082015261014060608201526000613c7661014083018a613817565b8281036080840152613c88818a613817565b905082810360a0840152613c9c8189613817565b60c0840197909752505092151560e0840152610100830191909152610120909101529695505050505050565b600080600060608486031215613cdd57600080fd5b83356001600160401b03811115613cf357600080fd5b613cff86828701613939565b93505060208401356001600160401b03811115613d1b57600080fd5b613d2786828701613939565b92505060408401356001600160401b03811115613d4357600080fd5b613d4f86828701613939565b9150509250925092565b60006080828403128015613d6c57600080fd5b50613d75613911565b8235613d80816137b3565b81526020830135613d90816137b3565b60208201526040830135613da3816137b3565b60408201526060830135613db6816137b3565b60608201529392505050565b600080600060608486031215613dd757600080fd5b505081359360208301359350604090920135919050565b602080825282518282018190526000918401906040840190835b81811015613e26578351835260209384019390920191600101613e08565b509095945050505050565b60008060408385031215613e4457600080fd5b82356001600160401b03811115613e5a57600080fd5b613e6685828601613939565b92505060208301356001600160401b038111156139ff57600080fd5b6001600160401b03871681526001600160a01b038616602082015260c060408201819052600090613eb590830187613817565b8281036060840152613ec78187613817565b90508281036080840152613edb8186613817565b9150508260a0830152979650505050505050565b60208152613f096020820183516001600160401b03169052565b60006020830151613f2560408401826001600160a01b03169052565b5060408301516101806060840152613f416101a0840182613817565b606085015180516080860152602081015160a0860152909150506080840151838203601f190160c0850152613f768282613817565b91505060a084015160e084015260c084015161010084015260e0840151610120840152610100840151610140840152610120840151610160840152610140840151613fc661018085018215159052565b509392505050565b600181811c90821680613fe257607f821691505b60208210810361400257634e487b7160e01b600052602260045260246000fd5b50919050565b60006020828403121561401a57600080fd5b8151801515811461237457600080fd5b6020808252600e908201526d4d6178206368617261637465727360901b604082015260600190565b634e487b7160e01b600052601160045260246000fd5b8082018082111561079c5761079c614052565b601f8211156130d957806000526020600020601f840160051c810160208510156140a25750805b601f840160051c820191505b8181101561347a57600081556001016140ae565b81516001600160401b038111156140db576140db6138fb565b6140ef816140e98454613fce565b8461407b565b6020601f821160018114614123576000831561410b5750848201515b600019600385901b1c1916600184901b17845561347a565b600084815260208120601f198516915b828110156141535787850151825560209485019460019092019101614133565b50848210156141715786840151600019600387901b60f8161c191681555b50505050600190811b01905550565b60006020828403121561419257600080fd5b5051919050565b6020815260006123746020830184613817565b600881106141ca57634e487b7160e01b600052602160045260246000fd5b9052565b604081016141dc82856141ac565b6001600160a01b039290921660209190910152919050565b60208082526010908201526f4f6e6c7920726573656172636865727360801b604082015260600190565b6001600160401b03818116838216019081111561079c5761079c614052565b60006001600160401b0382166001600160401b03810361425f5761425f614052565b60010192915050565b60006001820161427a5761427a614052565b5060010190565b808202811582820484141761079c5761079c614052565b6020810161079c82846141ac565b6000602082840312156142b857600080fd5b8151612374816137e5565b6001600160a01b03831681526040810161237460208301846141ac565b6001600160401b03831681526040602082015260006143026040830184613817565b949350505050565b60006001600160401b0382168061432357614323614052565b6000190192915050565b8181038181111561079c5761079c614052565b60008161434f5761434f614052565b506000190190565b6000608082840312801561436a57600080fd5b50614373613911565b825161437e816137b3565b8152602083015161438e816137b3565b60208201526040830151600881106143a557600080fd5b6040820152606092830151928101929092525091905056fea2646970667358221220c976eee31c18669bb68be366e3e143641054be83067cc8ab3e4f62430f11417964736f6c634300081b0033",
  "linkReferences": {},
  "deployedLinkReferences": {}
}