{
  "_format": "hh-sol-artifact-1",
  "contractName": "ResearcherRules",
  "sourceName": "contracts/ResearcherRules.sol",
  "abi": [
    {
      "inputs": [
        {
          "internalType": "uint32",
          "name": "timeBetweenWorks_",
          "type": "uint32"
        },
        {
          "internalType": "uint8",
          "name": "maxPenalties_",
          "type": "uint8"
        },
        {
          "internalType": "uint32",
          "name": "securityBlocksToValidation_",
          "type": "uint32"
        }
      ],
      "stateMutability": "nonpayable",
      "type": "constructor"
    },
    {
      "inputs": [
        {
          "internalType": "address",
          "name": "owner",
          "type": "address"
        }
      ],
      "name": "OwnableInvalidOwner",
      "type": "error"
    },
    {
      "inputs": [
        {
          "internalType": "address",
          "name": "account",
          "type": "address"
        }
      ],
      "name": "OwnableUnauthorizedAccount",
      "type": "error"
    },
    {
      "inputs": [],
      "name": "ReentrancyGuardReentrantCall",
      "type": "error"
    },
    {
      "anonymous": false,
      "inputs": [
        {
          "indexed": true,
          "internalType": "address",
          "name": "previousOwner",
          "type": "address"
        },
        {
          "indexed": true,
          "internalType": "address",
          "name": "newOwner",
          "type": "address"
        }
      ],
      "name": "OwnershipTransferred",
      "type": "event"
    },
    {
      "anonymous": false,
      "inputs": [
        {
          "indexed": true,
          "internalType": "uint256",
          "name": "researchId",
          "type": "uint256"
        },
        {
          "indexed": true,
          "internalType": "address",
          "name": "invalidatedBy",
          "type": "address"
        },
        {
          "indexed": false,
          "internalType": "string",
          "name": "justification",
          "type": "string"
        }
      ],
      "name": "ResearchInvalidated",
      "type": "event"
    },
    {
      "anonymous": false,
      "inputs": [
        {
          "indexed": true,
          "internalType": "uint256",
          "name": "researchId",
          "type": "uint256"
        },
        {
          "indexed": true,
          "internalType": "address",
          "name": "researcher",
          "type": "address"
        },
        {
          "indexed": false,
          "internalType": "uint256",
          "name": "publishedAt",
          "type": "uint256"
        }
      ],
      "name": "ResearchPublished",
      "type": "event"
    },
    {
      "anonymous": false,
      "inputs": [
        {
          "indexed": true,
          "internalType": "address",
          "name": "researcherAddress",
          "type": "address"
        },
        {
          "indexed": false,
          "internalType": "uint256",
          "name": "researcherId",
          "type": "uint256"
        },
        {
          "indexed": false,
          "internalType": "string",
          "name": "name",
          "type": "string"
        }
      ],
      "name": "ResearcherRegistered",
      "type": "event"
    },
    {
      "inputs": [],
      "name": "INITIAL_USER_COUNT_THRESHOLD",
      "outputs": [
        {
          "internalType": "uint256",
          "name": "",
          "type": "uint256"
        }
      ],
      "stateMutability": "view",
      "type": "function"
    },
    {
      "inputs": [],
      "name": "MAX_USER_COUNT",
      "outputs": [
        {
          "internalType": "uint16",
          "name": "",
          "type": "uint16"
        }
      ],
      "stateMutability": "view",
      "type": "function"
    },
    {
      "inputs": [
        {
          "internalType": "string",
          "name": "item",
          "type": "string"
        },
        {
          "internalType": "string",
          "name": "thesis",
          "type": "string"
        },
        {
          "internalType": "string",
          "name": "unit",
          "type": "string"
        },
        {
          "internalType": "uint256",
          "name": "carbonImpact",
          "type": "uint256"
        }
      ],
      "name": "addCalculatorItem",
      "outputs": [],
      "stateMutability": "nonpayable",
      "type": "function"
    },
    {
      "inputs": [
        {
          "internalType": "string",
          "name": "title",
          "type": "string"
        },
        {
          "internalType": "string",
          "name": "research",
          "type": "string"
        },
        {
          "internalType": "string",
          "name": "projectURL",
          "type": "string"
        }
      ],
      "name": "addEvaluationMethod",
      "outputs": [],
      "stateMutability": "nonpayable",
      "type": "function"
    },
    {
      "inputs": [
        {
          "internalType": "address",
          "name": "addr",
          "type": "address"
        },
        {
          "internalType": "uint64",
          "name": "researchId",
          "type": "uint64"
        }
      ],
      "name": "addPenalty",
      "outputs": [
        {
          "internalType": "uint256",
          "name": "",
          "type": "uint256"
        }
      ],
      "stateMutability": "nonpayable",
      "type": "function"
    },
    {
      "inputs": [
        {
          "internalType": "string",
          "name": "title",
          "type": "string"
        },
        {
          "internalType": "string",
          "name": "thesis",
          "type": "string"
        },
        {
          "internalType": "string",
          "name": "file",
          "type": "string"
        }
      ],
      "name": "addResearch",
      "outputs": [],
      "stateMutability": "nonpayable",
      "type": "function"
    },
    {
      "inputs": [
        {
          "internalType": "uint64",
          "name": "id",
          "type": "uint64"
        },
        {
          "internalType": "string",
          "name": "justification",
          "type": "string"
        }
      ],
      "name": "addResearchValidation",
      "outputs": [],
      "stateMutability": "nonpayable",
      "type": "function"
    },
    {
      "inputs": [
        {
          "internalType": "string",
          "name": "name",
          "type": "string"
        },
        {
          "internalType": "string",
          "name": "proofPhoto",
          "type": "string"
        }
      ],
      "name": "addResearcher",
      "outputs": [],
      "stateMutability": "nonpayable",
      "type": "function"
    },
    {
      "inputs": [
        {
          "internalType": "address",
          "name": "",
          "type": "address"
        }
      ],
      "name": "allowedCallers",
      "outputs": [
        {
          "internalType": "bool",
          "name": "",
          "type": "bool"
        }
      ],
      "stateMutability": "view",
      "type": "function"
    },
    {
      "inputs": [
        {
          "internalType": "uint64",
          "name": "",
          "type": "uint64"
        }
      ],
      "name": "calculatorItems",
      "outputs": [
        {
          "internalType": "uint64",
          "name": "id",
          "type": "uint64"
        },
        {
          "internalType": "address",
          "name": "createdBy",
          "type": "address"
        },
        {
          "internalType": "string",
          "name": "item",
          "type": "string"
        },
        {
          "internalType": "string",
          "name": "thesis",
          "type": "string"
        },
        {
          "internalType": "string",
          "name": "unit",
          "type": "string"
        },
        {
          "internalType": "uint256",
          "name": "carbonImpact",
          "type": "uint256"
        },
        {
          "internalType": "uint256",
          "name": "createdAtBlock",
          "type": "uint256"
        }
      ],
      "stateMutability": "view",
      "type": "function"
    },
    {
      "inputs": [],
      "name": "calculatorItemsCount",
      "outputs": [
        {
          "internalType": "uint64",
          "name": "",
          "type": "uint64"
        }
      ],
      "stateMutability": "view",
      "type": "function"
    },
    {
      "inputs": [
        {
          "internalType": "uint256",
          "name": "totalLevels",
          "type": "uint256"
        },
        {
          "internalType": "uint256",
          "name": "totalUsers",
          "type": "uint256"
        },
        {
          "internalType": "uint256",
          "name": "userLevels",
          "type": "uint256"
        }
      ],
      "name": "canInvite",
      "outputs": [
        {
          "internalType": "bool",
          "name": "",
          "type": "bool"
        }
      ],
      "stateMutability": "pure",
      "type": "function"
    },
    {
      "inputs": [
        {
          "internalType": "address",
          "name": "addr",
          "type": "address"
        }
      ],
      "name": "canPublishCalculatorItem",
      "outputs": [
        {
          "internalType": "bool",
          "name": "",
          "type": "bool"
        }
      ],
      "stateMutability": "view",
      "type": "function"
    },
    {
      "inputs": [
        {
          "internalType": "address",
          "name": "addr",
          "type": "address"
        }
      ],
      "name": "canPublishResearch",
      "outputs": [
        {
          "internalType": "bool",
          "name": "",
          "type": "bool"
        }
      ],
      "stateMutability": "view",
      "type": "function"
    },
    {
      "inputs": [
        {
          "internalType": "address",
          "name": "addr",
          "type": "address"
        }
      ],
      "name": "canSendInvite",
      "outputs": [
        {
          "internalType": "bool",
          "name": "",
          "type": "bool"
        }
      ],
      "stateMutability": "view",
      "type": "function"
    },
    {
      "inputs": [
        {
          "internalType": "uint256",
          "name": "",
          "type": "uint256"
        }
      ],
      "name": "evaluationMethods",
      "outputs": [
        {
          "internalType": "uint64",
          "name": "id",
          "type": "uint64"
        },
        {
          "internalType": "address",
          "name": "createdBy",
          "type": "address"
        },
        {
          "internalType": "string",
          "name": "title",
          "type": "string"
        },
        {
          "internalType": "string",
          "name": "research",
          "type": "string"
        },
        {
          "internalType": "string",
          "name": "projectURL",
          "type": "string"
        },
        {
          "internalType": "uint256",
          "name": "createdAtBlock",
          "type": "uint256"
        }
      ],
      "stateMutability": "view",
      "type": "function"
    },
    {
      "inputs": [],
      "name": "evaluationMethodsCount",
      "outputs": [
        {
          "internalType": "uint64",
          "name": "",
          "type": "uint64"
        }
      ],
      "stateMutability": "view",
      "type": "function"
    },
    {
      "inputs": [
        {
          "internalType": "uint64",
          "name": "id",
          "type": "uint64"
        }
      ],
      "name": "getCalculatorItem",
      "outputs": [
        {
          "components": [
            {
              "internalType": "uint64",
              "name": "id",
              "type": "uint64"
            },
            {
              "internalType": "address",
              "name": "createdBy",
              "type": "address"
            },
            {
              "internalType": "string",
              "name": "item",
              "type": "string"
            },
            {
              "internalType": "string",
              "name": "thesis",
              "type": "string"
            },
            {
              "internalType": "string",
              "name": "unit",
              "type": "string"
            },
            {
              "internalType": "uint256",
              "name": "carbonImpact",
              "type": "uint256"
            },
            {
              "internalType": "uint256",
              "name": "createdAtBlock",
              "type": "uint256"
            }
          ],
          "internalType": "struct CalculatorItem",
          "name": "",
          "type": "tuple"
        }
      ],
      "stateMutability": "view",
      "type": "function"
    },
    {
      "inputs": [
        {
          "internalType": "uint64",
          "name": "id",
          "type": "uint64"
        }
      ],
      "name": "getResearch",
      "outputs": [
        {
          "components": [
            {
              "internalType": "uint64",
              "name": "id",
              "type": "uint64"
            },
            {
              "internalType": "uint256",
              "name": "era",
              "type": "uint256"
            },
            {
              "internalType": "address",
              "name": "createdBy",
              "type": "address"
            },
            {
              "internalType": "string",
              "name": "title",
              "type": "string"
            },
            {
              "internalType": "string",
              "name": "thesis",
              "type": "string"
            },
            {
              "internalType": "string",
              "name": "file",
              "type": "string"
            },
            {
              "internalType": "uint256",
              "name": "validationsCount",
              "type": "uint256"
            },
            {
              "internalType": "bool",
              "name": "valid",
              "type": "bool"
            },
            {
              "internalType": "uint256",
              "name": "invalidatedAt",
              "type": "uint256"
            },
            {
              "internalType": "uint256",
              "name": "createdAtBlock",
              "type": "uint256"
            }
          ],
          "internalType": "struct Research",
          "name": "",
          "type": "tuple"
        }
      ],
      "stateMutability": "view",
      "type": "function"
    },
    {
      "inputs": [
        {
          "internalType": "address",
          "name": "addr",
          "type": "address"
        }
      ],
      "name": "getResearcher",
      "outputs": [
        {
          "components": [
            {
              "internalType": "uint64",
              "name": "id",
              "type": "uint64"
            },
            {
              "internalType": "address",
              "name": "researcherWallet",
              "type": "address"
            },
            {
              "internalType": "string",
              "name": "name",
              "type": "string"
            },
            {
              "components": [
                {
                  "internalType": "uint256",
                  "name": "level",
                  "type": "uint256"
                },
                {
                  "internalType": "uint256",
                  "name": "currentEra",
                  "type": "uint256"
                }
              ],
              "internalType": "struct Pool",
              "name": "pool",
              "type": "tuple"
            },
            {
              "internalType": "string",
              "name": "proofPhoto",
              "type": "string"
            },
            {
              "internalType": "uint256",
              "name": "publishedResearches",
              "type": "uint256"
            },
            {
              "internalType": "uint256",
              "name": "lastPublishedAt",
              "type": "uint256"
            },
            {
              "internalType": "uint256",
              "name": "publishedItems",
              "type": "uint256"
            },
            {
              "internalType": "uint256",
              "name": "lastCalculatorItemAt",
              "type": "uint256"
            },
            {
              "internalType": "uint256",
              "name": "createdAt",
              "type": "uint256"
            },
            {
              "internalType": "bool",
              "name": "canPublishMethod",
              "type": "bool"
            }
          ],
          "internalType": "struct Researcher",
          "name": "",
          "type": "tuple"
        }
      ],
      "stateMutability": "view",
      "type": "function"
    },
    {
      "inputs": [
        {
          "internalType": "address",
          "name": "caller",
          "type": "address"
        }
      ],
      "name": "isAllowedCaller",
      "outputs": [
        {
          "internalType": "bool",
          "name": "",
          "type": "bool"
        }
      ],
      "stateMutability": "view",
      "type": "function"
    },
    {
      "inputs": [],
      "name": "maxPenalties",
      "outputs": [
        {
          "internalType": "uint8",
          "name": "",
          "type": "uint8"
        }
      ],
      "stateMutability": "view",
      "type": "function"
    },
    {
      "inputs": [
        {
          "internalType": "address",
          "name": "allowed",
          "type": "address"
        }
      ],
      "name": "newAllowedCaller",
      "outputs": [],
      "stateMutability": "nonpayable",
      "type": "function"
    },
    {
      "inputs": [],
      "name": "nextEraIn",
      "outputs": [
        {
          "internalType": "uint256",
          "name": "",
          "type": "uint256"
        }
      ],
      "stateMutability": "view",
      "type": "function"
    },
    {
      "inputs": [],
      "name": "owner",
      "outputs": [
        {
          "internalType": "address",
          "name": "",
          "type": "address"
        }
      ],
      "stateMutability": "view",
      "type": "function"
    },
    {
      "inputs": [
        {
          "internalType": "address",
          "name": "",
          "type": "address"
        },
        {
          "internalType": "uint256",
          "name": "",
          "type": "uint256"
        }
      ],
      "name": "penalties",
      "outputs": [
        {
          "internalType": "uint256",
          "name": "researchId",
          "type": "uint256"
        }
      ],
      "stateMutability": "view",
      "type": "function"
    },
    {
      "inputs": [],
      "name": "poolCurrentEra",
      "outputs": [
        {
          "internalType": "uint256",
          "name": "",
          "type": "uint256"
        }
      ],
      "stateMutability": "view",
      "type": "function"
    },
    {
      "inputs": [
        {
          "internalType": "address",
          "name": "addr",
          "type": "address"
        },
        {
          "internalType": "bool",
          "name": "denied",
          "type": "bool"
        }
      ],
      "name": "removePoolLevels",
      "outputs": [],
      "stateMutability": "nonpayable",
      "type": "function"
    },
    {
      "inputs": [],
      "name": "renounceOwnership",
      "outputs": [],
      "stateMutability": "nonpayable",
      "type": "function"
    },
    {
      "inputs": [
        {
          "internalType": "uint256",
          "name": "",
          "type": "uint256"
        }
      ],
      "name": "researchersAddress",
      "outputs": [
        {
          "internalType": "address",
          "name": "",
          "type": "address"
        }
      ],
      "stateMutability": "view",
      "type": "function"
    },
    {
      "inputs": [
        {
          "internalType": "uint256",
          "name": "",
          "type": "uint256"
        }
      ],
      "name": "researches",
      "outputs": [
        {
          "internalType": "uint64",
          "name": "id",
          "type": "uint64"
        },
        {
          "internalType": "uint256",
          "name": "era",
          "type": "uint256"
        },
        {
          "internalType": "address",
          "name": "createdBy",
          "type": "address"
        },
        {
          "internalType": "string",
          "name": "title",
          "type": "string"
        },
        {
          "internalType": "string",
          "name": "thesis",
          "type": "string"
        },
        {
          "internalType": "string",
          "name": "file",
          "type": "string"
        },
        {
          "internalType": "uint256",
          "name": "validationsCount",
          "type": "uint256"
        },
        {
          "internalType": "bool",
          "name": "valid",
          "type": "bool"
        },
        {
          "internalType": "uint256",
          "name": "invalidatedAt",
          "type": "uint256"
        },
        {
          "internalType": "uint256",
          "name": "createdAtBlock",
          "type": "uint256"
        }
      ],
      "stateMutability": "view",
      "type": "function"
    },
    {
      "inputs": [],
      "name": "researchesCount",
      "outputs": [
        {
          "internalType": "uint64",
          "name": "",
          "type": "uint64"
        }
      ],
      "stateMutability": "view",
      "type": "function"
    },
    {
      "inputs": [
        {
          "internalType": "address",
          "name": "",
          "type": "address"
        },
        {
          "internalType": "uint256",
          "name": "",
          "type": "uint256"
        }
      ],
      "name": "researchesIds",
      "outputs": [
        {
          "internalType": "uint256",
          "name": "",
          "type": "uint256"
        }
      ],
      "stateMutability": "view",
      "type": "function"
    },
    {
      "inputs": [],
      "name": "researchesTotalCount",
      "outputs": [
        {
          "internalType": "uint64",
          "name": "",
          "type": "uint64"
        }
      ],
      "stateMutability": "view",
      "type": "function"
    },
    {
      "inputs": [],
      "name": "securityBlocksToValidation",
      "outputs": [
        {
          "internalType": "uint32",
          "name": "",
          "type": "uint32"
        }
      ],
      "stateMutability": "view",
      "type": "function"
    },
    {
      "inputs": [
        {
          "internalType": "address",
          "name": "_validationRulesAddress",
          "type": "address"
        }
      ],
      "name": "setContractCall",
      "outputs": [],
      "stateMutability": "nonpayable",
      "type": "function"
    },
    {
      "inputs": [
        {
          "components": [
            {
              "internalType": "address",
              "name": "communityRulesAddress",
              "type": "address"
            },
            {
              "internalType": "address",
              "name": "researcherPoolAddress",
              "type": "address"
            },
            {
              "internalType": "address",
              "name": "validationRulesAddress",
              "type": "address"
            },
            {
              "internalType": "address",
              "name": "voteRulesAddress",
              "type": "address"
            }
          ],
          "internalType": "struct ContractsDependency",
          "name": "contractDependency",
          "type": "tuple"
        }
      ],
      "name": "setContractInterfaces",
      "outputs": [],
      "stateMutability": "nonpayable",
      "type": "function"
    },
    {
      "inputs": [],
      "name": "timeBetweenWorks",
      "outputs": [
        {
          "internalType": "uint32",
          "name": "",
          "type": "uint32"
        }
      ],
      "stateMutability": "view",
      "type": "function"
    },
    {
      "inputs": [
        {
          "internalType": "address",
          "name": "addr",
          "type": "address"
        }
      ],
      "name": "totalPenalties",
      "outputs": [
        {
          "internalType": "uint256",
          "name": "",
          "type": "uint256"
        }
      ],
      "stateMutability": "view",
      "type": "function"
    },
    {
      "inputs": [
        {
          "internalType": "address",
          "name": "newOwner",
          "type": "address"
        }
      ],
      "name": "transferOwnership",
      "outputs": [],
      "stateMutability": "nonpayable",
      "type": "function"
    },
    {
      "inputs": [],
      "name": "withdraw",
      "outputs": [],
      "stateMutability": "nonpayable",
      "type": "function"
    }
  ],
  "bytecode": "0x60e060405234801561001057600080fd5b5060405161423c38038061423c83398101604081905261002f916100e9565b338061005557604051631e4fbdf760e01b81526000600482015260240160405180910390fd5b61005e81610080565b50600160025563ffffffff92831660a05260ff9091166080521660c052610134565b600080546001600160a01b038381166001600160a01b0319831681178455604051919092169283917f8be0079c531659141344cd1fd0a4f28419497f9722a3daafe3b4186f6b6457e09190a35050565b805163ffffffff811681146100e457600080fd5b919050565b6000806000606084860312156100fe57600080fd5b610107846100d0565b9250602084015160ff8116811461011d57600080fd5b915061012b604085016100d0565b90509250925092565b60805160a05160c0516140cb610171600039600081816103830152612d35015260008181610484015261315c015260006105b501526140cb6000f3fe608060405234801561001057600080fd5b50600436106102535760003560e01c80636ec7053a11610146578063b1e86655116100c3578063be9dc58411610087578063be9dc5841461064a578063c77c1ce614610652578063e05cf15514610665578063e7eba4c21461066d578063e8a6a9221461068d578063f2fde38b146106a057600080fd5b8063b1e866551461059d578063b24eb769146105b0578063b702523b146105e9578063b932c8b7146105fc578063be18bc801461062557600080fd5b80637c647a621161010a5780637c647a62146105135780638da5cb5b146105265780638f93716f1461054b5780639eaf666f1461055e578063a68012581461057157600080fd5b80636ec7053a146104a6578063715018a6146104c257806372e2e6cc146104ca578063755d4f97146104dd5780637b334154146104f057600080fd5b80633ccfd60b116101d45780635a52293a116101985780635a52293a1461041d5780635f7d0704146104305780635fa71c28146104595780636750d5231461046c5780636b6c7c2d1461047f57600080fd5b80633ccfd60b146103ba578063406458f2146103c25780634714b572146103d557806352d3ea9d146103fb578063582256f11461041557600080fd5b806320d817131161021b57806320d8171314610323578063218f23ca146103385780633270f4ad1461034b57806332980c9b1461035e57806335c116771461037e57600080fd5b80630884a672146102585780630eaf485c1461028057806311868d0b146102b25780631f701ee0146102d25780632076267b146102ec575b600080fd5b61026b6102663660046134d1565b6106b3565b60405190151581526020015b60405180910390f35b60035461029a90600160801b90046001600160401b031681565b6040516001600160401b039091168152602001610277565b6102c56102c0366004613501565b6106de565b6040516102779190613564565b60035461029a90600160c01b90046001600160401b031681565b6103156102fa3660046134d1565b6001600160a01b031660009081526009602052604090205490565b604051908152602001610277565b6103366103313660046136a5565b610949565b005b610336610346366004613702565b61108d565b610336610359366004613739565b6113c6565b61037161036c366004613501565b611642565b6040516102779190613897565b6103a57f000000000000000000000000000000000000000000000000000000000000000081565b60405163ffffffff9091168152602001610277565b610336611887565b60035461029a906001600160401b031681565b6103e86103e3366004613501565b611a89565b60405161027797969594939291906138aa565b60035461029a90600160401b90046001600160401b031681565b610315611c72565b61031561042b36600461391a565b611cf2565b61044361043e366004613944565b611d23565b6040516102779a9998979695949392919061395d565b61031561046736600461391a565b611f23565b61026b61047a3660046134d1565b611f52565b6103a57f000000000000000000000000000000000000000000000000000000000000000081565b6104af613e8081565b60405161ffff9091168152602001610277565b610336611f77565b6103366104d83660046139e7565b611f89565b6103366104eb3660046134d1565b6121fe565b61026b6104fe3660046134d1565b60016020526000908152604090205460ff1681565b610336610521366004613a78565b612228565b6000546001600160a01b03165b6040516001600160a01b039091168152602001610277565b6103366105593660046134d1565b61228d565b61026b61056c366004613af6565b6122bc565b61026b61057f3660046134d1565b6001600160a01b031660009081526001602052604090205460ff1690565b6103156105ab366004613b22565b6122f4565b6105d77f000000000000000000000000000000000000000000000000000000000000000081565b60405160ff9091168152602001610277565b6103366105f7366004613b4e565b6123f8565b61053361060a366004613944565b600a602052600090815260409020546001600160a01b031681565b610638610633366004613944565b612783565b60405161027796959493929190613b9f565b610315600581565b61026b6106603660046134d1565b612966565b610315612a2d565b61068061067b3660046134d1565b612a77565b6040516102779190613c0c565b61033661069b3660046139e7565b612c5c565b6103366106ae3660046134d1565b613102565b6001600160a01b0381166000908152600460205260408120600601546106d890613140565b92915050565b6107306040518060e0016040528060006001600160401b0316815260200160006001600160a01b0316815260200160608152602001606081526020016060815260200160008152602001600081525090565b6001600160401b03828116600090815260076020908152604091829020825160e08101845281549485168152600160401b9094046001600160a01b031691840191909152600181018054919284019161078890613ceb565b80601f01602080910402602001604051908101604052809291908181526020018280546107b490613ceb565b80156108015780601f106107d657610100808354040283529160200191610801565b820191906000526020600020905b8154815290600101906020018083116107e457829003601f168201915b5050505050815260200160028201805461081a90613ceb565b80601f016020809104026020016040519081016040528092919081815260200182805461084690613ceb565b80156108935780601f1061086857610100808354040283529160200191610893565b820191906000526020600020905b81548152906001019060200180831161087657829003601f168201915b505050505081526020016003820180546108ac90613ceb565b80601f01602080910402602001604051908101604052809291908181526020018280546108d890613ceb565b80156109255780601f106108fa57610100808354040283529160200191610925565b820191906000526020600020905b81548152906001019060200180831161090857829003601f168201915b50505050508152602001600482015481526020016005820154815250509050919050565b61095161318a565b805161012c101561097d5760405162461bcd60e51b815260040161097490613d25565b60405180910390fd5b600e546040516356fd539760e11b81523360048201526001600160a01b039091169063adfaa72e90602401602060405180830381865afa1580156109c5573d6000803e3d6000fd5b505050506040513d601f19601f820116820180604052508101906109e99190613d4d565b610a235760405162461bcd60e51b815260206004820152600b60248201526a2737ba1030903b37ba32b960a91b6044820152606401610974565b600d54604051630d84466b60e21b81523360048201526001600160a01b039091169063361119ac90602401602060405180830381865afa158015610a6b573d6000803e3d6000fd5b505050506040513d601f19601f82011682018060405250810190610a8f9190613d4d565b610ad35760405162461bcd60e51b8152602060048201526015602482015274576169742074696d654265747765656e566f74657360581b6044820152606401610974565b6001600160401b038216600090815260106020908152604080832033845290915290205460ff1615610b375760405162461bcd60e51b815260206004820152600d60248201526c105b1c9958591e481d9bdd1959609a1b6044820152606401610974565b6001600160401b0380831660008181526010602090815260408083203384528252808320805460ff191660019081179091559383526005825280832081516101408101835281549096168652938401549185019190915260028301546001600160a01b03169084015260038201805491939291606084019190610bb990613ceb565b80601f0160208091040260200160405190810160405280929190818152602001828054610be590613ceb565b8015610c325780601f10610c0757610100808354040283529160200191610c32565b820191906000526020600020905b815481529060010190602001808311610c1557829003601f168201915b50505050508152602001600482018054610c4b90613ceb565b80601f0160208091040260200160405190810160405280929190818152602001828054610c7790613ceb565b8015610cc45780601f10610c9957610100808354040283529160200191610cc4565b820191906000526020600020905b815481529060010190602001808311610ca757829003601f168201915b50505050508152602001600582018054610cdd90613ceb565b80601f0160208091040260200160405190810160405280929190818152602001828054610d0990613ceb565b8015610d565780601f10610d2b57610100808354040283529160200191610d56565b820191906000526020600020905b815481529060010190602001808311610d3957829003601f168201915b505050918352505060068201546020820152600782015460ff16151560408201526008820154606082015260099091015460809091015260e08101519091508015610dab57508060200151610da9612a2d565b145b610dec5760405162461bcd60e51b815260206004820152601260248201527114995cd9585c98da081b9bdd08159053125160721b6044820152606401610974565b60018160c001818151610dff9190613d80565b9052506001600160401b038381166000908152600560209081526040918290208451815467ffffffffffffffff1916941693909317835583015160018301558201516002820180546001600160a01b0319166001600160a01b0390921691909117905560608201518291906003820190610e799082613de1565b5060808201516004820190610e8e9082613de1565b5060a08201516005820190610ea39082613de1565b5060c0820151600682015560e082015160078201805460ff1916911515919091179055610100820151600882015561012090910151600990910155600d54604080516369bf81c360e01b815290516000926001600160a01b0316916369bf81c39160048083019260209291908290030181865afa158015610f28573d6000803e3d6000fd5b505050506040513d601f19601f82011682018060405250810190610f4c9190613e9f565b905060018111610fb15760405162461bcd60e51b815260206004820152602a60248201527f56616c69646174696f6e207468726573686f6c642063616e6e6f74206265206c60448201526932b9b9903a3430b7101960b11b6064820152608401610974565b60c0820151811180159061101657610fc8836131b2565b9250336001600160a01b0316856001600160401b03167fec82afd035df5f6da576aafb10163adedd64aa9955e7843369f1151fe7bcc6278660405161100d9190613eb8565b60405180910390a35b600d5460405163513d5dfd60e01b81526001600160a01b039091169063513d5dfd9061104a90869088903390600401613ecb565b600060405180830381600087803b15801561106457600080fd5b505af1158015611078573d6000803e3d6000fd5b505050505050506110896001600255565b5050565b3360009081526001602052604090205460ff166110e15760405162461bcd60e51b81526020600482015260126024820152712737ba1030b63637bbb2b21031b0b63632b960711b6044820152606401610974565b600f546001600160a01b031633811461113c5760405162461bcd60e51b815260206004820152601e60248201527f43616c6c6572206d7573742062652073797374656d20636f6e747261637400006044820152606401610974565b6001600160a01b03808416600090815260046020908152604080832081516101608101835281546001600160401b0381168252600160401b9004909516928501929092526001820180549394939184019161119690613ceb565b80601f01602080910402602001604051908101604052809291908181526020018280546111c290613ceb565b801561120f5780601f106111e45761010080835404028352916020019161120f565b820191906000526020600020905b8154815290600101906020018083116111f257829003601f168201915b505050505081526020016002820160405180604001604052908160008201548152602001600182015481525050815260200160048201805461125090613ceb565b80601f016020809104026020016040519081016040528092919081815260200182805461127c90613ceb565b80156112c95780601f1061129e576101008083540402835291602001916112c9565b820191906000526020600020905b8154815290600101906020018083116112ac57829003601f168201915b505050918352505060058201546020820152600682015460408201526007820154606082015260088201546080820152600982015460a0820152600a9091015460ff16151560c090910152905082611322576001611329565b6060810151515b6001600160a01b03851660009081526004602052604081206002018054909190611354908490613f09565b9091555050600c546040516310c791e560e11b81526001600160a01b03868116600483015285151560248301529091169063218f23ca90604401600060405180830381600087803b1580156113a857600080fd5b505af11580156113bc573d6000803e3d6000fd5b5050505050505050565b83516023108015906113db5750825161012c10155b80156113e957508151601410155b6114055760405162461bcd60e51b815260040161097490613d25565b600b54604051631292f8c160e31b81526001600160a01b0390911690639497c60890611438906003903390600401613f3e565b602060405180830381865afa158015611455573d6000803e3d6000fd5b505050506040513d601f19601f820116820180604052508101906114799190613d4d565b6114955760405162461bcd60e51b815260040161097490613f64565b61149e33611f52565b6114de5760405162461bcd60e51b815260206004820152601160248201527010d85b89dd081c1d589b1a5cda081e595d607a1b6044820152606401610974565b6003546000906114ff90600160801b90046001600160401b03166001613f8e565b6040805160e0810182526001600160401b038084168083523360208085019182528486018c8152606086018c9052608086018b905260a086018a90524360c087015260009384526007909152949091208351815492516001600160a01b0316600160401b026001600160e01b0319909316931692909217178155915192935091600182019061158e9082613de1565b50606082015160028201906115a39082613de1565b50608082015160038201906115b89082613de1565b5060a0820151600482015560c09091015160059091015560038054600160801b90046001600160401b03169060106115ef83613fad565b82546001600160401b039182166101009390930a92830291909202199091161790555033600090815260046020526040812043600882015560070180549161163683613fd8565b91905055505050505050565b61164a6133c5565b6001600160401b038083166000908152600560209081526040918290208251610140810184528154909416845260018101549184019190915260028101546001600160a01b0316918301919091526003810180546060840191906116ad90613ceb565b80601f01602080910402602001604051908101604052809291908181526020018280546116d990613ceb565b80156117265780601f106116fb57610100808354040283529160200191611726565b820191906000526020600020905b81548152906001019060200180831161170957829003601f168201915b5050505050815260200160048201805461173f90613ceb565b80601f016020809104026020016040519081016040528092919081815260200182805461176b90613ceb565b80156117b85780601f1061178d576101008083540402835291602001916117b8565b820191906000526020600020905b81548152906001019060200180831161179b57829003601f168201915b505050505081526020016005820180546117d190613ceb565b80601f01602080910402602001604051908101604052809291908181526020018280546117fd90613ceb565b801561184a5780601f1061181f5761010080835404028352916020019161184a565b820191906000526020600020905b81548152906001019060200180831161182d57829003601f168201915b505050918352505060068201546020820152600782015460ff16151560408201526008820154606082015260099091015460809091015292915050565b61188f61318a565b600b54604051631292f8c160e31b81526001600160a01b0390911690639497c608906118c2906003903390600401613f3e565b602060405180830381865afa1580156118df573d6000803e3d6000fd5b505050506040513d601f19601f820116820180604052508101906119039190613d4d565b61191f5760405162461bcd60e51b815260040161097490613f64565b336000908152600460208190526040918290206003810154600c549351637df42f8360e11b8152928301819052909290916001600160a01b039091169063fbe85f0690602401602060405180830381865afa158015611982573d6000803e3d6000fd5b505050506040513d601f19601f820116820180604052508101906119a69190613d4d565b611a005760405162461bcd60e51b815260206004820152602560248201527f4e6f7420656c696769626c6520746f20776974686472617720666f7220746869604482015264732065726160d81b6064820152608401610974565b600382018054906000611a1283613fd8565b9091555050600c5460405163f3fef3a360e01b8152336004820152602481018390526001600160a01b039091169063f3fef3a390604401600060405180830381600087803b158015611a6357600080fd5b505af1158015611a77573d6000803e3d6000fd5b505050505050611a876001600255565b565b600760205260009081526040902080546001820180546001600160401b03831693600160401b9093046001600160a01b0316929190611ac790613ceb565b80601f0160208091040260200160405190810160405280929190818152602001828054611af390613ceb565b8015611b405780601f10611b1557610100808354040283529160200191611b40565b820191906000526020600020905b815481529060010190602001808311611b2357829003601f168201915b505050505090806002018054611b5590613ceb565b80601f0160208091040260200160405190810160405280929190818152602001828054611b8190613ceb565b8015611bce5780601f10611ba357610100808354040283529160200191611bce565b820191906000526020600020905b815481529060010190602001808311611bb157829003601f168201915b505050505090806003018054611be390613ceb565b80601f0160208091040260200160405190810160405280929190818152602001828054611c0f90613ceb565b8015611c5c5780601f10611c3157610100808354040283529160200191611c5c565b820191906000526020600020905b815481529060010190602001808311611c3f57829003601f168201915b5050505050908060040154908060050154905087565b600c546000906001600160a01b031663d5ee3eb5611c8e612a2d565b6040518263ffffffff1660e01b8152600401611cac91815260200190565b602060405180830381865afa158015611cc9573d6000803e3d6000fd5b505050506040513d601f19601f82011682018060405250810190611ced9190613e9f565b905090565b60066020528160005260406000208181548110611d0e57600080fd5b90600052602060002001600091509150505481565b60056020526000908152604090208054600182015460028301546003840180546001600160401b039094169492936001600160a01b039092169291611d6790613ceb565b80601f0160208091040260200160405190810160405280929190818152602001828054611d9390613ceb565b8015611de05780601f10611db557610100808354040283529160200191611de0565b820191906000526020600020905b815481529060010190602001808311611dc357829003601f168201915b505050505090806004018054611df590613ceb565b80601f0160208091040260200160405190810160405280929190818152602001828054611e2190613ceb565b8015611e6e5780601f10611e4357610100808354040283529160200191611e6e565b820191906000526020600020905b815481529060010190602001808311611e5157829003601f168201915b505050505090806005018054611e8390613ceb565b80601f0160208091040260200160405190810160405280929190818152602001828054611eaf90613ceb565b8015611efc5780601f10611ed157610100808354040283529160200191611efc565b820191906000526020600020905b815481529060010190602001808311611edf57829003601f168201915b505050506006830154600784015460088501546009909501549394919360ff90911692508a565b60096020528160005260406000208181548110611f3f57600080fd5b6000918252602090912001549150829050565b6001600160a01b0381166000908152600460205260408120600801546106d890613140565b611f7f613348565b611a876000613375565b8251606410801590611f9e5750815161012c10155b8015611fac57508051609610155b611fc85760405162461bcd60e51b815260040161097490613d25565b600b54604051631292f8c160e31b81526001600160a01b0390911690639497c60890611ffb906003903390600401613f3e565b602060405180830381865afa158015612018573d6000803e3d6000fd5b505050506040513d601f19601f8201168201806040525081019061203c9190613d4d565b6120585760405162461bcd60e51b815260040161097490613f64565b336000908152600460205260409020600a015460ff166120ba5760405162461bcd60e51b815260206004820152601760248201527f4f6e6c79206f6e65206d6574686f6420616c6c6f7765640000000000000000006044820152606401610974565b6003546000906120db90600160c01b90046001600160401b03166001613f8e565b6040805160c0810182526001600160401b038084168083523360208085019182528486018b8152606086018b9052608086018a90524360a087015260009384526008909152949091208351815492516001600160a01b0316600160401b026001600160e01b031990931693169290921717815591519293509160018201906121639082613de1565b50606082015160028201906121789082613de1565b506080820151600382019061218d9082613de1565b5060a0919091015160049091015560038054600160c01b90046001600160401b03169060186121bb83613fad565b82546001600160401b039182166101009390930a92830291909202199091161790555050336000908152600460205260409020600a01805460ff19169055505050565b612206613348565b600f80546001600160a01b0319166001600160a01b0392909216919091179055565b612230613348565b8051600b80546001600160a01b03199081166001600160a01b03938416179091556020830151600c805483169184169190911790556040830151600d80548316918416919091179055606090920151600e80549093169116179055565b612295613348565b6001600160a01b03166000908152600160208190526040909120805460ff19169091179055565b6000600583116122ce575060016122ed565b826000036122de575060006122ed565b836122e98484613ff1565b1190505b9392505050565b3360009081526001602052604081205460ff166123485760405162461bcd60e51b81526020600482015260126024820152712737ba1030b63637bbb2b21031b0b63632b960711b6044820152606401610974565b600f546001600160a01b03163381146123a35760405162461bcd60e51b815260206004820152601e60248201527f43616c6c6572206d7573742062652073797374656d20636f6e747261637400006044820152606401610974565b6001600160a01b038416600081815260096020818152604080842081518084019092526001600160401b038916825280546001810182558186528386209251920191909155939092529052545b949350505050565b815160321080159061240c57508051609610155b6124285760405162461bcd60e51b815260040161097490613d25565b600b54604051632f22dc7b60e01b8152613e80916001600160a01b031690632f22dc7b9061245b90600390600401614008565b602060405180830381865afa158015612478573d6000803e3d6000fd5b505050506040513d601f19601f8201168201806040525081019061249c9190613e9f565b106124da5760405162461bcd60e51b815260206004820152600e60248201526d13585e081d5cd95c881b1a5b5a5d60921b6044820152606401610974565b600b5460405162f5960960e51b81526000916001600160a01b031690631eb2c1209061250b90600390600401614008565b602060405180830381865afa158015612528573d6000803e3d6000fd5b505050506040513d601f19601f8201168201806040525081019061254c9190614016565b612557906001613f8e565b9050604051806101600160405280826001600160401b03168152602001336001600160a01b031681526020018481526020016040518060400160405280600081526020016125a3612a2d565b90528152602080820185905260006040808401829052606084018290526080840182905260a084018290524360c0850152600160e0909401849052338252600483529081902084518154938601516001600160a01b0316600160401b026001600160e01b03199094166001600160401b039091161792909217825583015190918201906126309082613de1565b506060820151805160028301556020015160038201556080820151600482019061265a9082613de1565b5060a0820151600582015560c0820151600682015560e082015160078201556101008201516008820155610120820151600982015561014090910151600a918201805460ff19169115159190911790556001600160401b03821660009081526020919091526040908190208054336001600160a01b03199091168117909155600b549151639c3eead960e01b81526001600160a01b0390921691639c3eead99161270991600390600401614033565b600060405180830381600087803b15801561272357600080fd5b505af1158015612737573d6000803e3d6000fd5b50505050336001600160a01b03167fd9e252c4299740928760c15af4c9d6fee5a786293f1f330440036039a6ed533a8285604051612776929190614050565b60405180910390a2505050565b600860205260009081526040902080546001820180546001600160401b03831693600160401b9093046001600160a01b03169291906127c190613ceb565b80601f01602080910402602001604051908101604052809291908181526020018280546127ed90613ceb565b801561283a5780601f1061280f5761010080835404028352916020019161283a565b820191906000526020600020905b81548152906001019060200180831161281d57829003601f168201915b50505050509080600201805461284f90613ceb565b80601f016020809104026020016040519081016040528092919081815260200182805461287b90613ceb565b80156128c85780601f1061289d576101008083540402835291602001916128c8565b820191906000526020600020905b8154815290600101906020018083116128ab57829003601f168201915b5050505050908060030180546128dd90613ceb565b80601f016020809104026020016040519081016040528092919081815260200182805461290990613ceb565b80156129565780601f1061292b57610100808354040283529160200191612956565b820191906000526020600020905b81548152906001019060200180831161293957829003601f168201915b5050505050908060040154905086565b60008061297283612a77565b80519091506001600160401b031661298d5750600092915050565b60038054600b5460405162f5960960e51b81526122ed93600160401b9093046001600160401b0316926001600160a01b0390921691631eb2c120916129d59190600401614008565b602060405180830381865afa1580156129f2573d6000803e3d6000fd5b505050506040513d601f19601f82011682018060405250810190612a169190614016565b6001600160401b03168360600151600001516122bc565b600c5460408051637686fbcf60e11b815290516000926001600160a01b03169163ed0df79e9160048083019260209291908290030181865afa158015611cc9573d6000803e3d6000fd5b612a7f61342c565b6001600160a01b0380831660009081526004602090815260409182902082516101608101845281546001600160401b0381168252600160401b9004909416918401919091526001810180549192840191612ad890613ceb565b80601f0160208091040260200160405190810160405280929190818152602001828054612b0490613ceb565b8015612b515780601f10612b2657610100808354040283529160200191612b51565b820191906000526020600020905b815481529060010190602001808311612b3457829003601f168201915b5050505050815260200160028201604051806040016040529081600082015481526020016001820154815250508152602001600482018054612b9290613ceb565b80601f0160208091040260200160405190810160405280929190818152602001828054612bbe90613ceb565b8015612c0b5780601f10612be057610100808354040283529160200191612c0b565b820191906000526020600020905b815481529060010190602001808311612bee57829003601f168201915b505050918352505060058201546020820152600682015460408201526007820154606082015260088201546080820152600982015460a0820152600a9091015460ff16151560c09091015292915050565b612c6461318a565b8251606410801590612c795750815161012c10155b8015612c8757508051609610155b612ca35760405162461bcd60e51b815260040161097490613d25565b600b54604051631292f8c160e31b81526001600160a01b0390911690639497c60890612cd6906003903390600401613f3e565b602060405180830381865afa158015612cf3573d6000803e3d6000fd5b505050506040513d601f19601f82011682018060405250810190612d179190613d4d565b612d335760405162461bcd60e51b815260040161097490613f64565b7f000000000000000000000000000000000000000000000000000000000000000063ffffffff16612d62611c72565b11612da55760405162461bcd60e51b81526020600482015260136024820152725761697420756e74696c206e6578742065726160681b6044820152606401610974565b612dae336106b3565b612dee5760405162461bcd60e51b815260206004820152601160248201527010d85b89dd081c1d589b1a5cda081e595d607a1b6044820152606401610974565b600380546001600160401b0316906000612e0783613fad565b91906101000a8154816001600160401b0302191690836001600160401b03160217905550506003600881819054906101000a90046001600160401b031680929190612e5190613fad565b91906101000a8154816001600160401b0302191690836001600160401b03160217905550506000600360089054906101000a90046001600160401b03169050604051806101400160405280826001600160401b03168152602001612eb3612a2d565b8152336020808301919091526040808301889052606080840188905260808401879052600060a08501819052600160c0860181905260e0860182905243610100909601959095526001600160401b03878116825260058552908390208651815467ffffffffffffffff1916921691909117815592850151938301939093558301516002820180546001600160a01b0319166001600160a01b03909216919091179055908201516003820190612f689082613de1565b5060808201516004820190612f7d9082613de1565b5060a08201516005820190612f929082613de1565b5060c0820151600682015560e082015160078201805460ff19169115159190911790556101008201516008820155610120909101516009909101553360009081526004602052604081206005810180549192612fed83613fd8565b90915550504360068083019190915533600090815260209182526040812080546001810182559082529181206001600160401b0385169201919091556002820180549161303983613fd8565b9091555050600c546040516338e8490d60e11b8152336004820152600160248201526001600160401b03841660448201526001600160a01b03909116906371d0921a90606401600060405180830381600087803b15801561309957600080fd5b505af11580156130ad573d6000803e3d6000fd5b50506040514381523392506001600160401b03851691507fe4c1c9646dc792c06d1b46cbe82f47bc6843a8dee984ecab0e2e4fb1280f1fed9060200160405180910390a350506130fd6001600255565b505050565b61310a613348565b6001600160a01b03811661313457604051631e4fbdf760e01b815260006004820152602401610974565b61313d81613375565b50565b60008160000361315257506001919050565b61318263ffffffff7f00000000000000000000000000000000000000000000000000000000000000001683613d80565b431192915050565b60028054036131ac57604051633ee5aeb560e01b815260040160405180910390fd5b60028055565b6131ba6133c5565b600380546001600160401b03169060006131d383614072565b825461010092830a6001600160401b03818102199092169282160291909117909255600060e086018190524391860191909152845182168152600560209081526040918290208651815467ffffffffffffffff1916941693909317835585015160018301558401516002820180546001600160a01b0319166001600160a01b03909216919091179055606084015184925060038201906132739082613de1565b50608082015160048201906132889082613de1565b5060a0820151600582019061329d9082613de1565b5060c0820151600682015560e082015160078201805460ff1916911515919091179055610100820151600882015561012090910151600990910155600c5460408381015190516310c791e560e11b81526001600160a01b0391821660048201526000602482015291169063218f23ca90604401600060405180830381600087803b15801561332a57600080fd5b505af115801561333e573d6000803e3d6000fd5b5093949350505050565b6000546001600160a01b03163314611a875760405163118cdaa760e01b8152336004820152602401610974565b600080546001600160a01b038381166001600160a01b0319831681178455604051919092169283917f8be0079c531659141344cd1fd0a4f28419497f9722a3daafe3b4186f6b6457e09190a35050565b60405180610140016040528060006001600160401b031681526020016000815260200160006001600160a01b031681526020016060815260200160608152602001606081526020016000815260200160001515815260200160008152602001600081525090565b60405180610160016040528060006001600160401b0316815260200160006001600160a01b031681526020016060815260200161347c604051806040016040528060008152602001600081525090565b81526020016060815260200160008152602001600081526020016000815260200160008152602001600081526020016000151581525090565b80356001600160a01b03811681146134cc57600080fd5b919050565b6000602082840312156134e357600080fd5b6122ed826134b5565b6001600160401b038116811461313d57600080fd5b60006020828403121561351357600080fd5b81356122ed816134ec565b6000815180845260005b8181101561354457602081850181015186830182015201613528565b506000602082860101526020601f19601f83011685010191505092915050565b602081526001600160401b03825116602082015260018060a01b0360208301511660408201526000604083015160e060608401526135a661010084018261351e565b90506060840151601f198483030160808501526135c3828261351e565b9150506080840151601f198483030160a08501526135e1828261351e565b91505060a084015160c084015260c084015160e08401528091505092915050565b634e487b7160e01b600052604160045260246000fd5b600082601f83011261362957600080fd5b81356001600160401b0381111561364257613642613602565b604051601f8201601f19908116603f011681016001600160401b038111828210171561367057613670613602565b60405281815283820160200185101561368857600080fd5b816020850160208301376000918101602001919091529392505050565b600080604083850312156136b857600080fd5b82356136c3816134ec565b915060208301356001600160401b038111156136de57600080fd5b6136ea85828601613618565b9150509250929050565b801515811461313d57600080fd5b6000806040838503121561371557600080fd5b61371e836134b5565b9150602083013561372e816136f4565b809150509250929050565b6000806000806080858703121561374f57600080fd5b84356001600160401b0381111561376557600080fd5b61377187828801613618565b94505060208501356001600160401b0381111561378d57600080fd5b61379987828801613618565b93505060408501356001600160401b038111156137b557600080fd5b6137c187828801613618565b949793965093946060013593505050565b80516001600160401b03168252602081015160208301526000604082015161380560408501826001600160a01b03169052565b506060820151610140606085015261382161014085018261351e565b90506080830151848203608086015261383a828261351e565b91505060a083015184820360a0860152613854828261351e565b91505060c083015160c085015260e083015161387460e086018215159052565b506101008301516101008501526101208301516101208501528091505092915050565b6020815260006122ed60208301846137d2565b6001600160401b03881681526001600160a01b038716602082015260e0604082018190526000906138dd9083018861351e565b82810360608401526138ef818861351e565b90508281036080840152613903818761351e565b60a0840195909552505060c0015295945050505050565b6000806040838503121561392d57600080fd5b613936836134b5565b946020939093013593505050565b60006020828403121561395657600080fd5b5035919050565b6001600160401b038b16815289602082015260018060a01b03891660408201526101406060820152600061399561014083018a61351e565b82810360808401526139a7818a61351e565b905082810360a08401526139bb818961351e565b60c0840197909752505092151560e0840152610100830191909152610120909101529695505050505050565b6000806000606084860312156139fc57600080fd5b83356001600160401b03811115613a1257600080fd5b613a1e86828701613618565b93505060208401356001600160401b03811115613a3a57600080fd5b613a4686828701613618565b92505060408401356001600160401b03811115613a6257600080fd5b613a6e86828701613618565b9150509250925092565b60006080828403128015613a8b57600080fd5b50604051608081016001600160401b0381118282101715613aae57613aae613602565b604052613aba836134b5565b8152613ac8602084016134b5565b6020820152613ad9604084016134b5565b6040820152613aea606084016134b5565b60608201529392505050565b600080600060608486031215613b0b57600080fd5b505081359360208301359350604090920135919050565b60008060408385031215613b3557600080fd5b613b3e836134b5565b9150602083013561372e816134ec565b60008060408385031215613b6157600080fd5b82356001600160401b03811115613b7757600080fd5b613b8385828601613618565b92505060208301356001600160401b038111156136de57600080fd5b6001600160401b03871681526001600160a01b038616602082015260c060408201819052600090613bd29083018761351e565b8281036060840152613be4818761351e565b90508281036080840152613bf8818661351e565b9150508260a0830152979650505050505050565b60208152613c266020820183516001600160401b03169052565b60006020830151613c4260408401826001600160a01b03169052565b5060408301516101806060840152613c5e6101a084018261351e565b606085015180516080860152602081015160a0860152909150506080840151838203601f190160c0850152613c93828261351e565b91505060a084015160e084015260c084015161010084015260e0840151610120840152610100840151610140840152610120840151610160840152610140840151613ce361018085018215159052565b509392505050565b600181811c90821680613cff57607f821691505b602082108103613d1f57634e487b7160e01b600052602260045260246000fd5b50919050565b6020808252600e908201526d4d6178206368617261637465727360901b604082015260600190565b600060208284031215613d5f57600080fd5b81516122ed816136f4565b634e487b7160e01b600052601160045260246000fd5b808201808211156106d8576106d8613d6a565b601f8211156130fd57806000526020600020601f840160051c81016020851015613dba5750805b601f840160051c820191505b81811015613dda5760008155600101613dc6565b5050505050565b81516001600160401b03811115613dfa57613dfa613602565b613e0e81613e088454613ceb565b84613d93565b6020601f821160018114613e425760008315613e2a5750848201515b600019600385901b1c1916600184901b178455613dda565b600084815260208120601f198516915b82811015613e725787850151825560209485019460019092019101613e52565b5084821015613e905786840151600019600387901b60f8161c191681555b50505050600190811b01905550565b600060208284031215613eb157600080fd5b5051919050565b6020815260006122ed602083018461351e565b606081526000613ede60608301866137d2565b8281036020840152613ef0818661351e565b91505060018060a01b0383166040830152949350505050565b818103818111156106d8576106d8613d6a565b60088110613f3a57634e487b7160e01b600052602160045260246000fd5b9052565b60408101613f4c8285613f1c565b6001600160a01b039290921660209190910152919050565b60208082526010908201526f4f6e6c7920726573656172636865727360801b604082015260600190565b6001600160401b0381811683821601908111156106d8576106d8613d6a565b60006001600160401b0382166001600160401b038103613fcf57613fcf613d6a565b60010192915050565b600060018201613fea57613fea613d6a565b5060010190565b80820281158282048414176106d8576106d8613d6a565b602081016106d88284613f1c565b60006020828403121561402857600080fd5b81516122ed816134ec565b6001600160a01b0383168152604081016122ed6020830184613f1c565b6001600160401b03831681526040602082015260006123f0604083018461351e565b60006001600160401b0382168061408b5761408b613d6a565b600019019291505056fea2646970667358221220ff0d31cf404bb4c3be61f771d7f0b8212f822767765ad757fb444412586c50a664736f6c634300081b0033",
  "linkReferences": {},
  "deployedLinkReferences": {}
}