{
  "_format": "hh-sol-artifact-1",
  "contractName": "ResearcherRules",
  "sourceName": "contracts/ResearcherRules.sol",
  "abi": [
    {
      "inputs": [
        {
          "internalType": "address",
          "name": "communityRulesAddress",
          "type": "address"
        },
        {
          "internalType": "address",
          "name": "researcherPoolAddress",
          "type": "address"
        },
        {
          "internalType": "address",
          "name": "validatorRulesAddress",
          "type": "address"
        },
        {
          "internalType": "uint256",
          "name": "timeBetweenWorks_",
          "type": "uint256"
        },
        {
          "internalType": "uint256",
          "name": "maxPenalties_",
          "type": "uint256"
        },
        {
          "internalType": "uint256",
          "name": "securityBlocksToValidatorAnalysis",
          "type": "uint256"
        }
      ],
      "stateMutability": "nonpayable",
      "type": "constructor"
    },
    {
      "anonymous": false,
      "inputs": [
        {
          "indexed": true,
          "internalType": "address",
          "name": "previousOwner",
          "type": "address"
        },
        {
          "indexed": true,
          "internalType": "address",
          "name": "newOwner",
          "type": "address"
        }
      ],
      "name": "OwnershipTransferred",
      "type": "event"
    },
    {
      "inputs": [],
      "name": "MAX_PENALTIES",
      "outputs": [
        {
          "internalType": "uint256",
          "name": "",
          "type": "uint256"
        }
      ],
      "stateMutability": "view",
      "type": "function"
    },
    {
      "inputs": [],
      "name": "SECURITY_BLOCKS_TO_VALIDATOR_ANALYSIS",
      "outputs": [
        {
          "internalType": "uint256",
          "name": "",
          "type": "uint256"
        }
      ],
      "stateMutability": "view",
      "type": "function"
    },
    {
      "inputs": [
        {
          "internalType": "string",
          "name": "title",
          "type": "string"
        },
        {
          "internalType": "string",
          "name": "unit",
          "type": "string"
        },
        {
          "internalType": "string",
          "name": "justification",
          "type": "string"
        },
        {
          "internalType": "uint256",
          "name": "carbonImpact",
          "type": "uint256"
        }
      ],
      "name": "addCalculatorItem",
      "outputs": [],
      "stateMutability": "nonpayable",
      "type": "function"
    },
    {
      "inputs": [
        {
          "internalType": "address",
          "name": "addr",
          "type": "address"
        },
        {
          "internalType": "uint256",
          "name": "researchId",
          "type": "uint256"
        }
      ],
      "name": "addPenalty",
      "outputs": [
        {
          "internalType": "uint256",
          "name": "",
          "type": "uint256"
        }
      ],
      "stateMutability": "nonpayable",
      "type": "function"
    },
    {
      "inputs": [
        {
          "internalType": "string",
          "name": "photo",
          "type": "string"
        },
        {
          "internalType": "string",
          "name": "popularName",
          "type": "string"
        },
        {
          "internalType": "string",
          "name": "scientificName",
          "type": "string"
        },
        {
          "internalType": "string",
          "name": "family",
          "type": "string"
        },
        {
          "internalType": "string",
          "name": "botanicalDescription",
          "type": "string"
        },
        {
          "internalType": "string",
          "name": "sunLight",
          "type": "string"
        },
        {
          "internalType": "string",
          "name": "biome",
          "type": "string"
        },
        {
          "internalType": "string",
          "name": "extraInfo",
          "type": "string"
        }
      ],
      "name": "addPlant",
      "outputs": [],
      "stateMutability": "nonpayable",
      "type": "function"
    },
    {
      "inputs": [
        {
          "internalType": "string",
          "name": "title",
          "type": "string"
        },
        {
          "internalType": "string",
          "name": "thesis",
          "type": "string"
        },
        {
          "internalType": "string",
          "name": "file",
          "type": "string"
        }
      ],
      "name": "addResearch",
      "outputs": [],
      "stateMutability": "nonpayable",
      "type": "function"
    },
    {
      "inputs": [
        {
          "internalType": "uint256",
          "name": "id",
          "type": "uint256"
        },
        {
          "internalType": "string",
          "name": "justification",
          "type": "string"
        }
      ],
      "name": "addResearchValidation",
      "outputs": [],
      "stateMutability": "nonpayable",
      "type": "function"
    },
    {
      "inputs": [
        {
          "internalType": "string",
          "name": "name",
          "type": "string"
        },
        {
          "internalType": "string",
          "name": "proofPhoto",
          "type": "string"
        }
      ],
      "name": "addResearcher",
      "outputs": [
        {
          "components": [
            {
              "internalType": "uint256",
              "name": "id",
              "type": "uint256"
            },
            {
              "internalType": "address",
              "name": "researcherWallet",
              "type": "address"
            },
            {
              "internalType": "string",
              "name": "name",
              "type": "string"
            },
            {
              "components": [
                {
                  "internalType": "uint256",
                  "name": "level",
                  "type": "uint256"
                },
                {
                  "internalType": "uint256",
                  "name": "currentEra",
                  "type": "uint256"
                }
              ],
              "internalType": "struct Pool",
              "name": "pool",
              "type": "tuple"
            },
            {
              "internalType": "string",
              "name": "proofPhoto",
              "type": "string"
            },
            {
              "internalType": "uint256",
              "name": "publishedResearches",
              "type": "uint256"
            },
            {
              "internalType": "uint256",
              "name": "lastPublishedAt",
              "type": "uint256"
            },
            {
              "internalType": "uint256",
              "name": "lastCalculatorItemAt",
              "type": "uint256"
            },
            {
              "internalType": "uint256",
              "name": "createdAt",
              "type": "uint256"
            }
          ],
          "internalType": "struct Researcher",
          "name": "",
          "type": "tuple"
        }
      ],
      "stateMutability": "nonpayable",
      "type": "function"
    },
    {
      "inputs": [
        {
          "internalType": "address",
          "name": "",
          "type": "address"
        }
      ],
      "name": "allowedCallers",
      "outputs": [
        {
          "internalType": "bool",
          "name": "",
          "type": "bool"
        }
      ],
      "stateMutability": "view",
      "type": "function"
    },
    {
      "inputs": [
        {
          "internalType": "uint256",
          "name": "",
          "type": "uint256"
        }
      ],
      "name": "calculatorItems",
      "outputs": [
        {
          "internalType": "uint256",
          "name": "id",
          "type": "uint256"
        },
        {
          "internalType": "address",
          "name": "createdBy",
          "type": "address"
        },
        {
          "internalType": "string",
          "name": "title",
          "type": "string"
        },
        {
          "internalType": "string",
          "name": "unit",
          "type": "string"
        },
        {
          "internalType": "string",
          "name": "justification",
          "type": "string"
        },
        {
          "internalType": "uint256",
          "name": "carbonImpact",
          "type": "uint256"
        }
      ],
      "stateMutability": "view",
      "type": "function"
    },
    {
      "inputs": [],
      "name": "calculatorItemsCount",
      "outputs": [
        {
          "internalType": "uint256",
          "name": "",
          "type": "uint256"
        }
      ],
      "stateMutability": "view",
      "type": "function"
    },
    {
      "inputs": [
        {
          "internalType": "uint256",
          "name": "totalLevels",
          "type": "uint256"
        },
        {
          "internalType": "uint256",
          "name": "totalUsers",
          "type": "uint256"
        },
        {
          "internalType": "uint256",
          "name": "userLevels",
          "type": "uint256"
        }
      ],
      "name": "canInvite",
      "outputs": [
        {
          "internalType": "bool",
          "name": "",
          "type": "bool"
        }
      ],
      "stateMutability": "pure",
      "type": "function"
    },
    {
      "inputs": [
        {
          "internalType": "address",
          "name": "addr",
          "type": "address"
        }
      ],
      "name": "canSendInvite",
      "outputs": [
        {
          "internalType": "bool",
          "name": "",
          "type": "bool"
        }
      ],
      "stateMutability": "view",
      "type": "function"
    },
    {
      "inputs": [
        {
          "internalType": "uint256",
          "name": "id",
          "type": "uint256"
        }
      ],
      "name": "getCalculatorItem",
      "outputs": [
        {
          "components": [
            {
              "internalType": "uint256",
              "name": "id",
              "type": "uint256"
            },
            {
              "internalType": "address",
              "name": "createdBy",
              "type": "address"
            },
            {
              "internalType": "string",
              "name": "title",
              "type": "string"
            },
            {
              "internalType": "string",
              "name": "unit",
              "type": "string"
            },
            {
              "internalType": "string",
              "name": "justification",
              "type": "string"
            },
            {
              "internalType": "uint256",
              "name": "carbonImpact",
              "type": "uint256"
            }
          ],
          "internalType": "struct CalculatorItem",
          "name": "",
          "type": "tuple"
        }
      ],
      "stateMutability": "view",
      "type": "function"
    },
    {
      "inputs": [
        {
          "internalType": "uint256",
          "name": "id",
          "type": "uint256"
        }
      ],
      "name": "getPlant",
      "outputs": [
        {
          "components": [
            {
              "internalType": "uint256",
              "name": "id",
              "type": "uint256"
            },
            {
              "internalType": "address",
              "name": "createdBy",
              "type": "address"
            },
            {
              "internalType": "string",
              "name": "photo",
              "type": "string"
            },
            {
              "internalType": "string",
              "name": "popularName",
              "type": "string"
            },
            {
              "internalType": "string",
              "name": "scientificName",
              "type": "string"
            },
            {
              "internalType": "string",
              "name": "family",
              "type": "string"
            },
            {
              "internalType": "string",
              "name": "botanicalDescription",
              "type": "string"
            },
            {
              "internalType": "string",
              "name": "sunLight",
              "type": "string"
            },
            {
              "internalType": "string",
              "name": "biome",
              "type": "string"
            },
            {
              "internalType": "string",
              "name": "extraInfo",
              "type": "string"
            }
          ],
          "internalType": "struct Plant",
          "name": "",
          "type": "tuple"
        }
      ],
      "stateMutability": "view",
      "type": "function"
    },
    {
      "inputs": [
        {
          "internalType": "uint256",
          "name": "id",
          "type": "uint256"
        }
      ],
      "name": "getResearch",
      "outputs": [
        {
          "components": [
            {
              "internalType": "uint256",
              "name": "id",
              "type": "uint256"
            },
            {
              "internalType": "uint256",
              "name": "era",
              "type": "uint256"
            },
            {
              "internalType": "address",
              "name": "createdBy",
              "type": "address"
            },
            {
              "internalType": "string",
              "name": "title",
              "type": "string"
            },
            {
              "internalType": "string",
              "name": "thesis",
              "type": "string"
            },
            {
              "internalType": "string",
              "name": "file",
              "type": "string"
            },
            {
              "internalType": "uint256",
              "name": "validationsCount",
              "type": "uint256"
            },
            {
              "internalType": "bool",
              "name": "valid",
              "type": "bool"
            },
            {
              "internalType": "uint256",
              "name": "invalidatedAt",
              "type": "uint256"
            },
            {
              "internalType": "uint256",
              "name": "createdAtBlock",
              "type": "uint256"
            }
          ],
          "internalType": "struct Research",
          "name": "",
          "type": "tuple"
        }
      ],
      "stateMutability": "view",
      "type": "function"
    },
    {
      "inputs": [
        {
          "internalType": "address",
          "name": "addr",
          "type": "address"
        }
      ],
      "name": "getResearcher",
      "outputs": [
        {
          "components": [
            {
              "internalType": "uint256",
              "name": "id",
              "type": "uint256"
            },
            {
              "internalType": "address",
              "name": "researcherWallet",
              "type": "address"
            },
            {
              "internalType": "string",
              "name": "name",
              "type": "string"
            },
            {
              "components": [
                {
                  "internalType": "uint256",
                  "name": "level",
                  "type": "uint256"
                },
                {
                  "internalType": "uint256",
                  "name": "currentEra",
                  "type": "uint256"
                }
              ],
              "internalType": "struct Pool",
              "name": "pool",
              "type": "tuple"
            },
            {
              "internalType": "string",
              "name": "proofPhoto",
              "type": "string"
            },
            {
              "internalType": "uint256",
              "name": "publishedResearches",
              "type": "uint256"
            },
            {
              "internalType": "uint256",
              "name": "lastPublishedAt",
              "type": "uint256"
            },
            {
              "internalType": "uint256",
              "name": "lastCalculatorItemAt",
              "type": "uint256"
            },
            {
              "internalType": "uint256",
              "name": "createdAt",
              "type": "uint256"
            }
          ],
          "internalType": "struct Researcher",
          "name": "",
          "type": "tuple"
        }
      ],
      "stateMutability": "view",
      "type": "function"
    },
    {
      "inputs": [
        {
          "internalType": "address",
          "name": "caller",
          "type": "address"
        }
      ],
      "name": "isAllowedCaller",
      "outputs": [
        {
          "internalType": "bool",
          "name": "",
          "type": "bool"
        }
      ],
      "stateMutability": "view",
      "type": "function"
    },
    {
      "inputs": [
        {
          "internalType": "address",
          "name": "allowed",
          "type": "address"
        }
      ],
      "name": "newAllowedCaller",
      "outputs": [],
      "stateMutability": "nonpayable",
      "type": "function"
    },
    {
      "inputs": [],
      "name": "nextEraIn",
      "outputs": [
        {
          "internalType": "uint256",
          "name": "",
          "type": "uint256"
        }
      ],
      "stateMutability": "view",
      "type": "function"
    },
    {
      "inputs": [],
      "name": "owner",
      "outputs": [
        {
          "internalType": "address",
          "name": "",
          "type": "address"
        }
      ],
      "stateMutability": "view",
      "type": "function"
    },
    {
      "inputs": [
        {
          "internalType": "address",
          "name": "",
          "type": "address"
        },
        {
          "internalType": "uint256",
          "name": "",
          "type": "uint256"
        }
      ],
      "name": "penalties",
      "outputs": [
        {
          "internalType": "uint256",
          "name": "researchId",
          "type": "uint256"
        }
      ],
      "stateMutability": "view",
      "type": "function"
    },
    {
      "inputs": [
        {
          "internalType": "uint256",
          "name": "",
          "type": "uint256"
        }
      ],
      "name": "plantCatalog",
      "outputs": [
        {
          "internalType": "uint256",
          "name": "id",
          "type": "uint256"
        },
        {
          "internalType": "address",
          "name": "createdBy",
          "type": "address"
        },
        {
          "internalType": "string",
          "name": "photo",
          "type": "string"
        },
        {
          "internalType": "string",
          "name": "popularName",
          "type": "string"
        },
        {
          "internalType": "string",
          "name": "scientificName",
          "type": "string"
        },
        {
          "internalType": "string",
          "name": "family",
          "type": "string"
        },
        {
          "internalType": "string",
          "name": "botanicalDescription",
          "type": "string"
        },
        {
          "internalType": "string",
          "name": "sunLight",
          "type": "string"
        },
        {
          "internalType": "string",
          "name": "biome",
          "type": "string"
        },
        {
          "internalType": "string",
          "name": "extraInfo",
          "type": "string"
        }
      ],
      "stateMutability": "view",
      "type": "function"
    },
    {
      "inputs": [],
      "name": "plantsCount",
      "outputs": [
        {
          "internalType": "uint256",
          "name": "",
          "type": "uint256"
        }
      ],
      "stateMutability": "view",
      "type": "function"
    },
    {
      "inputs": [
        {
          "internalType": "address",
          "name": "addr",
          "type": "address"
        },
        {
          "internalType": "uint256",
          "name": "removeSomeLevels",
          "type": "uint256"
        }
      ],
      "name": "removePoolLevels",
      "outputs": [],
      "stateMutability": "nonpayable",
      "type": "function"
    },
    {
      "inputs": [],
      "name": "renounceOwnership",
      "outputs": [],
      "stateMutability": "nonpayable",
      "type": "function"
    },
    {
      "inputs": [
        {
          "internalType": "address",
          "name": "addr",
          "type": "address"
        }
      ],
      "name": "researcherExists",
      "outputs": [
        {
          "internalType": "bool",
          "name": "",
          "type": "bool"
        }
      ],
      "stateMutability": "view",
      "type": "function"
    },
    {
      "inputs": [
        {
          "internalType": "uint256",
          "name": "",
          "type": "uint256"
        }
      ],
      "name": "researchersAddress",
      "outputs": [
        {
          "internalType": "address",
          "name": "",
          "type": "address"
        }
      ],
      "stateMutability": "view",
      "type": "function"
    },
    {
      "inputs": [
        {
          "internalType": "uint256",
          "name": "",
          "type": "uint256"
        }
      ],
      "name": "researches",
      "outputs": [
        {
          "internalType": "uint256",
          "name": "id",
          "type": "uint256"
        },
        {
          "internalType": "uint256",
          "name": "era",
          "type": "uint256"
        },
        {
          "internalType": "address",
          "name": "createdBy",
          "type": "address"
        },
        {
          "internalType": "string",
          "name": "title",
          "type": "string"
        },
        {
          "internalType": "string",
          "name": "thesis",
          "type": "string"
        },
        {
          "internalType": "string",
          "name": "file",
          "type": "string"
        },
        {
          "internalType": "uint256",
          "name": "validationsCount",
          "type": "uint256"
        },
        {
          "internalType": "bool",
          "name": "valid",
          "type": "bool"
        },
        {
          "internalType": "uint256",
          "name": "invalidatedAt",
          "type": "uint256"
        },
        {
          "internalType": "uint256",
          "name": "createdAtBlock",
          "type": "uint256"
        }
      ],
      "stateMutability": "view",
      "type": "function"
    },
    {
      "inputs": [],
      "name": "researchesCount",
      "outputs": [
        {
          "internalType": "uint256",
          "name": "",
          "type": "uint256"
        }
      ],
      "stateMutability": "view",
      "type": "function"
    },
    {
      "inputs": [],
      "name": "researchesTotalCount",
      "outputs": [
        {
          "internalType": "uint256",
          "name": "",
          "type": "uint256"
        }
      ],
      "stateMutability": "view",
      "type": "function"
    },
    {
      "inputs": [
        {
          "internalType": "address",
          "name": "addr",
          "type": "address"
        }
      ],
      "name": "totalPenalties",
      "outputs": [
        {
          "internalType": "uint256",
          "name": "",
          "type": "uint256"
        }
      ],
      "stateMutability": "view",
      "type": "function"
    },
    {
      "inputs": [
        {
          "internalType": "address",
          "name": "newOwner",
          "type": "address"
        }
      ],
      "name": "transferOwnership",
      "outputs": [],
      "stateMutability": "nonpayable",
      "type": "function"
    },
    {
      "inputs": [],
      "name": "withdraw",
      "outputs": [],
      "stateMutability": "nonpayable",
      "type": "function"
    }
  ],
  "bytecode": "0x60e060405234801561001057600080fd5b5060405161628b38038061628b83398181016040528101906100329190610299565b61004e61004361013460201b60201c565b61013c60201b60201c565b85600860006101000a81548173ffffffffffffffffffffffffffffffffffffffff021916908373ffffffffffffffffffffffffffffffffffffffff16021790555084600960006101000a81548173ffffffffffffffffffffffffffffffffffffffff021916908373ffffffffffffffffffffffffffffffffffffffff16021790555083600a60006101000a81548173ffffffffffffffffffffffffffffffffffffffff021916908373ffffffffffffffffffffffffffffffffffffffff16021790555082608081815250508160a081815250508060c08181525050505050505050610326565b600033905090565b60008060009054906101000a900473ffffffffffffffffffffffffffffffffffffffff169050816000806101000a81548173ffffffffffffffffffffffffffffffffffffffff021916908373ffffffffffffffffffffffffffffffffffffffff1602179055508173ffffffffffffffffffffffffffffffffffffffff168173ffffffffffffffffffffffffffffffffffffffff167f8be0079c531659141344cd1fd0a4f28419497f9722a3daafe3b4186f6b6457e060405160405180910390a35050565b600080fd5b600073ffffffffffffffffffffffffffffffffffffffff82169050919050565b600061023082610205565b9050919050565b61024081610225565b811461024b57600080fd5b50565b60008151905061025d81610237565b92915050565b6000819050919050565b61027681610263565b811461028157600080fd5b50565b6000815190506102938161026d565b92915050565b60008060008060008060c087890312156102b6576102b5610200565b5b60006102c489828a0161024e565b96505060206102d589828a0161024e565b95505060406102e689828a0161024e565b94505060606102f789828a01610284565b935050608061030889828a01610284565b92505060a061031989828a01610284565b9150509295509295509295565b60805160a05160c051615f2861036360003960008181612942015261364001526000612c55015260008181613ff401526143200152615f286000f3fe608060405234801561001057600080fd5b50600436106102065760003560e01c80637b3341541161011a578063b43f070a116100ad578063e3e02ba71161007c578063e3e02ba714610652578063e7eba4c214610682578063e8a6a922146106b2578063ed0b1f5f146106ce578063f2fde38b146106fe57610206565b8063b43f070a146105a4578063b702523b146105c2578063b932c8b7146105f2578063c77c1ce61461062257610206565b806397705d60116100e957806397705d60146104f65780639eaf666f14610514578063a58273c814610544578063a68012581461057457610206565b80637b334154146104705780638b2b80e2146104a05780638da5cb5b146104bc5780638f93716f146104da57610206565b80633ccfd60b1161019d5780635f1f65871161016c5780635f1f6587146103aa5780635f7d0704146103df5780635fa71c2814610418578063693f612e14610448578063715018a61461046657610206565b80633ccfd60b14610346578063406458f21461035057806352d3ea9d1461036e578063582256f11461038c57610206565b80631e6dffc2116101d95780631e6dffc2146102ae5780632076267b146102de5780633270f4ad1461030e578063381c9b191461032a57610206565b80630eaf485c1461020b5780631552529b1461022957806318ad5c9a146102625780631b63a43c1461027e575b600080fd5b61021361071a565b6040516102209190614526565b60405180910390f35b610243600480360381019061023e9190614581565b610720565b6040516102599a9998979695949392919061467f565b60405180910390f35b61027c6004803603810190610277919061477f565b610bd4565b005b6102986004803603810190610293919061477f565b610f93565b6040516102a59190614526565b60405180910390f35b6102c860048036038101906102c391906147bf565b6110b1565b6040516102d59190614807565b60405180910390f35b6102f860048036038101906102f391906147bf565b61110b565b6040516103059190614526565b60405180910390f35b61032860048036038101906103239190614957565b611157565b005b610344600480360381019061033f9190614a12565b611616565b005b61034e6118a5565b005b610358611d7c565b6040516103659190614526565b60405180910390f35b610376611d82565b6040516103839190614526565b60405180910390f35b610394611d88565b6040516103a19190614526565b60405180910390f35b6103c460048036038101906103bf9190614581565b611e32565b6040516103d696959493929190614ba8565b60405180910390f35b6103f960048036038101906103f49190614581565b612026565b60405161040f9a99989796959493929190614c1e565b60405180910390f35b610432600480360381019061042d919061477f565b61223f565b60405161043f9190614526565b60405180910390f35b610450612276565b60405161045d9190614526565b60405180910390f35b61046e61227c565b005b61048a600480360381019061048591906147bf565b612290565b6040516104979190614807565b60405180910390f35b6104ba60048036038101906104b59190614ccf565b6122b0565b005b6104c46128b5565b6040516104d19190614d2b565b60405180910390f35b6104f460048036038101906104ef91906147bf565b6128de565b005b6104fe612940565b60405161050b9190614526565b60405180910390f35b61052e60048036038101906105299190614d46565b612964565b60405161053b9190614807565b60405180910390f35b61055e60048036038101906105599190614581565b6129b0565b60405161056b9190614e98565b60405180910390f35b61058e600480360381019061058991906147bf565b612bfd565b60405161059b9190614807565b60405180910390f35b6105ac612c53565b6040516105b99190614526565b60405180910390f35b6105dc60048036038101906105d79190614eba565b612c77565b6040516105e9919061502e565b60405180910390f35b61060c60048036038101906106079190614581565b612f9a565b6040516106199190614d2b565b60405180910390f35b61063c600480360381019061063791906147bf565b612fcd565b6040516106499190614807565b60405180910390f35b61066c60048036038101906106679190614581565b6130ab565b6040516106799190615147565b60405180910390f35b61069c600480360381019061069791906147bf565b613332565b6040516106a9919061502e565b60405180910390f35b6106cc60048036038101906106c79190615169565b613560565b005b6106e860048036038101906106e39190614581565b6139ad565b6040516106f5919061531b565b60405180910390f35b610718600480360381019061071391906147bf565b613ecb565b005b600d5481565b60056020528060005260406000206000915090508060000154908060010160009054906101000a900473ffffffffffffffffffffffffffffffffffffffff169080600201805461076f9061536c565b80601f016020809104026020016040519081016040528092919081815260200182805461079b9061536c565b80156107e85780601f106107bd576101008083540402835291602001916107e8565b820191906000526020600020905b8154815290600101906020018083116107cb57829003601f168201915b5050505050908060030180546107fd9061536c565b80601f01602080910402602001604051908101604052809291908181526020018280546108299061536c565b80156108765780601f1061084b57610100808354040283529160200191610876565b820191906000526020600020905b81548152906001019060200180831161085957829003601f168201915b50505050509080600401805461088b9061536c565b80601f01602080910402602001604051908101604052809291908181526020018280546108b79061536c565b80156109045780601f106108d957610100808354040283529160200191610904565b820191906000526020600020905b8154815290600101906020018083116108e757829003601f168201915b5050505050908060050180546109199061536c565b80601f01602080910402602001604051908101604052809291908181526020018280546109459061536c565b80156109925780601f1061096757610100808354040283529160200191610992565b820191906000526020600020905b81548152906001019060200180831161097557829003601f168201915b5050505050908060060180546109a79061536c565b80601f01602080910402602001604051908101604052809291908181526020018280546109d39061536c565b8015610a205780601f106109f557610100808354040283529160200191610a20565b820191906000526020600020905b815481529060010190602001808311610a0357829003601f168201915b505050505090806007018054610a359061536c565b80601f0160208091040260200160405190810160405280929190818152602001828054610a619061536c565b8015610aae5780601f10610a8357610100808354040283529160200191610aae565b820191906000526020600020905b815481529060010190602001808311610a9157829003601f168201915b505050505090806008018054610ac39061536c565b80601f0160208091040260200160405190810160405280929190818152602001828054610aef9061536c565b8015610b3c5780601f10610b1157610100808354040283529160200191610b3c565b820191906000526020600020905b815481529060010190602001808311610b1f57829003601f168201915b505050505090806009018054610b519061536c565b80601f0160208091040260200160405190810160405280929190818152602001828054610b7d9061536c565b8015610bca5780601f10610b9f57610100808354040283529160200191610bca565b820191906000526020600020905b815481529060010190602001808311610bad57829003601f168201915b505050505090508a565b600160003373ffffffffffffffffffffffffffffffffffffffff1673ffffffffffffffffffffffffffffffffffffffff16815260200190815260200160002060009054906101000a900460ff16610c60576040517f08c379a0000000000000000000000000000000000000000000000000000000008152600401610c57906153e9565b60405180910390fd5b6000600260008473ffffffffffffffffffffffffffffffffffffffff1673ffffffffffffffffffffffffffffffffffffffff16815260200190815260200160002060405180610120016040529081600082015481526020016001820160009054906101000a900473ffffffffffffffffffffffffffffffffffffffff1673ffffffffffffffffffffffffffffffffffffffff1673ffffffffffffffffffffffffffffffffffffffff168152602001600282018054610d1d9061536c565b80601f0160208091040260200160405190810160405280929190818152602001828054610d499061536c565b8015610d965780601f10610d6b57610100808354040283529160200191610d96565b820191906000526020600020905b815481529060010190602001808311610d7957829003601f168201915b5050505050815260200160038201604051806040016040529081600082015481526020016001820154815250508152602001600582018054610dd79061536c565b80601f0160208091040260200160405190810160405280929190818152602001828054610e039061536c565b8015610e505780601f10610e2557610100808354040283529160200191610e50565b820191906000526020600020905b815481529060010190602001808311610e3357829003601f168201915b50505050508152602001600682015481526020016007820154815260200160088201548152602001600982015481525050905060008211610e9957806060015160000151610e9b565b815b600260008573ffffffffffffffffffffffffffffffffffffffff1673ffffffffffffffffffffffffffffffffffffffff1681526020019081526020016000206003016000016000828254610eef9190615438565b92505081905550600960009054906101000a900473ffffffffffffffffffffffffffffffffffffffff1673ffffffffffffffffffffffffffffffffffffffff1663157ffc5284610f3d613f4e565b856040518463ffffffff1660e01b8152600401610f5c9392919061546c565b600060405180830381600087803b158015610f7657600080fd5b505af1158015610f8a573d6000803e3d6000fd5b50505050505050565b6000600160003373ffffffffffffffffffffffffffffffffffffffff1673ffffffffffffffffffffffffffffffffffffffff16815260200190815260200160002060009054906101000a900460ff16611021576040517f08c379a0000000000000000000000000000000000000000000000000000000008152600401611018906153e9565b60405180910390fd5b600660008473ffffffffffffffffffffffffffffffffffffffff1673ffffffffffffffffffffffffffffffffffffffff168152602001908152602001600020604051806020016040528084815250908060018154018082558091505060019003906000526020600020016000909190919091506000820151816000015550506110a98361110b565b905092915050565b600080600260008473ffffffffffffffffffffffffffffffffffffffff1673ffffffffffffffffffffffffffffffffffffffff16815260200190815260200160002060020180546111019061536c565b9050119050919050565b6000600660008373ffffffffffffffffffffffffffffffffffffffff1673ffffffffffffffffffffffffffffffffffffffff168152602001908152602001600020805490509050919050565b600860009054906101000a900473ffffffffffffffffffffffffffffffffffffffff1673ffffffffffffffffffffffffffffffffffffffff16639497c6086003336040518363ffffffff1660e01b81526004016111b592919061551a565b602060405180830381865afa1580156111d2573d6000803e3d6000fd5b505050506040513d601f19601f820116820180604052508101906111f6919061556f565b611235576040517f08c379a000000000000000000000000000000000000000000000000000000000815260040161122c906155e8565b60405180910390fd5b6000600260003373ffffffffffffffffffffffffffffffffffffffff1673ffffffffffffffffffffffffffffffffffffffff16815260200190815260200160002060405180610120016040529081600082015481526020016001820160009054906101000a900473ffffffffffffffffffffffffffffffffffffffff1673ffffffffffffffffffffffffffffffffffffffff1673ffffffffffffffffffffffffffffffffffffffff1681526020016002820180546112f29061536c565b80601f016020809104026020016040519081016040528092919081815260200182805461131e9061536c565b801561136b5780601f106113405761010080835404028352916020019161136b565b820191906000526020600020905b81548152906001019060200180831161134e57829003601f168201915b50505050508152602001600382016040518060400160405290816000820154815260200160018201548152505081526020016005820180546113ac9061536c565b80601f01602080910402602001604051908101604052809291908181526020018280546113d89061536c565b80156114255780601f106113fa57610100808354040283529160200191611425565b820191906000526020600020905b81548152906001019060200180831161140857829003601f168201915b50505050508152602001600682015481526020016007820154815260200160088201548152602001600982015481525050905061146181613fe6565b6114a0576040517f08c379a000000000000000000000000000000000000000000000000000000000815260040161149790615654565b60405180910390fd5b60006001600d546114b19190615674565b905060006040518060c001604052808381526020013373ffffffffffffffffffffffffffffffffffffffff16815260200188815260200187815260200186815260200185815250905080600460008481526020019081526020016000206000820151816000015560208201518160010160006101000a81548173ffffffffffffffffffffffffffffffffffffffff021916908373ffffffffffffffffffffffffffffffffffffffff16021790555060408201518160020190816115749190615854565b50606082015181600301908161158a9190615854565b5060808201518160040190816115a09190615854565b5060a08201518160050155905050600d60008154809291906115c190615926565b919050555043600260003373ffffffffffffffffffffffffffffffffffffffff1673ffffffffffffffffffffffffffffffffffffffff1681526020019081526020016000206008018190555050505050505050565b600860009054906101000a900473ffffffffffffffffffffffffffffffffffffffff1673ffffffffffffffffffffffffffffffffffffffff16639497c6086003336040518363ffffffff1660e01b815260040161167492919061551a565b602060405180830381865afa158015611691573d6000803e3d6000fd5b505050506040513d601f19601f820116820180604052508101906116b5919061556f565b6116f4576040517f08c379a00000000000000000000000000000000000000000000000000000000081526004016116eb906155e8565b60405180910390fd5b60006001600e546117059190615674565b905060006040518061014001604052808381526020013373ffffffffffffffffffffffffffffffffffffffff1681526020018b81526020018a815260200189815260200188815260200187815260200186815260200185815260200184815250905080600560008481526020019081526020016000206000820151816000015560208201518160010160006101000a81548173ffffffffffffffffffffffffffffffffffffffff021916908373ffffffffffffffffffffffffffffffffffffffff16021790555060408201518160020190816117e19190615854565b5060608201518160030190816117f79190615854565b50608082015181600401908161180d9190615854565b5060a08201518160050190816118239190615854565b5060c08201518160060190816118399190615854565b5060e082015181600701908161184f9190615854565b506101008201518160080190816118669190615854565b5061012082015181600901908161187d9190615854565b50905050600e600081548092919061189490615926565b919050555050505050505050505050565b600860009054906101000a900473ffffffffffffffffffffffffffffffffffffffff1673ffffffffffffffffffffffffffffffffffffffff16639497c6086003336040518363ffffffff1660e01b815260040161190392919061551a565b602060405180830381865afa158015611920573d6000803e3d6000fd5b505050506040513d601f19601f82011682018060405250810190611944919061556f565b611983576040517f08c379a000000000000000000000000000000000000000000000000000000000815260040161197a906159ba565b60405180910390fd5b6000600260003373ffffffffffffffffffffffffffffffffffffffff1673ffffffffffffffffffffffffffffffffffffffff16815260200190815260200160002060405180610120016040529081600082015481526020016001820160009054906101000a900473ffffffffffffffffffffffffffffffffffffffff1673ffffffffffffffffffffffffffffffffffffffff1673ffffffffffffffffffffffffffffffffffffffff168152602001600282018054611a409061536c565b80601f0160208091040260200160405190810160405280929190818152602001828054611a6c9061536c565b8015611ab95780601f10611a8e57610100808354040283529160200191611ab9565b820191906000526020600020905b815481529060010190602001808311611a9c57829003601f168201915b5050505050815260200160038201604051806040016040529081600082015481526020016001820154815250508152602001600582018054611afa9061536c565b80601f0160208091040260200160405190810160405280929190818152602001828054611b269061536c565b8015611b735780601f10611b4857610100808354040283529160200191611b73565b820191906000526020600020905b815481529060010190602001808311611b5657829003601f168201915b50505050508152602001600682015481526020016007820154815260200160088201548152602001600982015481525050905060008160600151602001519050600960009054906101000a900473ffffffffffffffffffffffffffffffffffffffff1673ffffffffffffffffffffffffffffffffffffffff1663fbe85f06826040518263ffffffff1660e01b8152600401611c0e9190614526565b602060405180830381865afa158015611c2b573d6000803e3d6000fd5b505050506040513d601f19601f82011682018060405250810190611c4f919061556f565b611c8e576040517f08c379a0000000000000000000000000000000000000000000000000000000008152600401611c8590615a26565b60405180910390fd5b600260003373ffffffffffffffffffffffffffffffffffffffff1673ffffffffffffffffffffffffffffffffffffffff1681526020019081526020016000206003016001016000815480929190611ce490615926565b9190505550600960009054906101000a900473ffffffffffffffffffffffffffffffffffffffff1673ffffffffffffffffffffffffffffffffffffffff1663f3fef3a333836040518363ffffffff1660e01b8152600401611d46929190615a46565b600060405180830381600087803b158015611d6057600080fd5b505af1158015611d74573d6000803e3d6000fd5b505050505050565b600b5481565b600c5481565b6000600960009054906101000a900473ffffffffffffffffffffffffffffffffffffffff1673ffffffffffffffffffffffffffffffffffffffff1663d5ee3eb5611dd0613f4e565b6040518263ffffffff1660e01b8152600401611dec9190614526565b602060405180830381865afa158015611e09573d6000803e3d6000fd5b505050506040513d601f19601f82011682018060405250810190611e2d9190615aa5565b905090565b60046020528060005260406000206000915090508060000154908060010160009054906101000a900473ffffffffffffffffffffffffffffffffffffffff1690806002018054611e819061536c565b80601f0160208091040260200160405190810160405280929190818152602001828054611ead9061536c565b8015611efa5780601f10611ecf57610100808354040283529160200191611efa565b820191906000526020600020905b815481529060010190602001808311611edd57829003601f168201915b505050505090806003018054611f0f9061536c565b80601f0160208091040260200160405190810160405280929190818152602001828054611f3b9061536c565b8015611f885780601f10611f5d57610100808354040283529160200191611f88565b820191906000526020600020905b815481529060010190602001808311611f6b57829003601f168201915b505050505090806004018054611f9d9061536c565b80601f0160208091040260200160405190810160405280929190818152602001828054611fc99061536c565b80156120165780601f10611feb57610100808354040283529160200191612016565b820191906000526020600020905b815481529060010190602001808311611ff957829003601f168201915b5050505050908060050154905086565b60036020528060005260406000206000915090508060000154908060010154908060020160009054906101000a900473ffffffffffffffffffffffffffffffffffffffff169080600301805461207b9061536c565b80601f01602080910402602001604051908101604052809291908181526020018280546120a79061536c565b80156120f45780601f106120c9576101008083540402835291602001916120f4565b820191906000526020600020905b8154815290600101906020018083116120d757829003601f168201915b5050505050908060040180546121099061536c565b80601f01602080910402602001604051908101604052809291908181526020018280546121359061536c565b80156121825780601f1061215757610100808354040283529160200191612182565b820191906000526020600020905b81548152906001019060200180831161216557829003601f168201915b5050505050908060050180546121979061536c565b80601f01602080910402602001604051908101604052809291908181526020018280546121c39061536c565b80156122105780601f106121e557610100808354040283529160200191612210565b820191906000526020600020905b8154815290600101906020018083116121f357829003601f168201915b5050505050908060060154908060070160009054906101000a900460ff1690806008015490806009015490508a565b6006602052816000526040600020818154811061225b57600080fd5b90600052602060002001600091509150508060000154905081565b600e5481565b612284614037565b61228e60006140b5565b565b60016020528060005260406000206000915054906101000a900460ff1681565b600860009054906101000a900473ffffffffffffffffffffffffffffffffffffffff1673ffffffffffffffffffffffffffffffffffffffff16639497c6086008336040518363ffffffff1660e01b815260040161230e92919061551a565b602060405180830381865afa15801561232b573d6000803e3d6000fd5b505050506040513d601f19601f8201168201806040525081019061234f919061556f565b61238e576040517f08c379a000000000000000000000000000000000000000000000000000000000815260040161238590615b1e565b60405180910390fd5b6000600360008481526020019081526020016000206040518061014001604052908160008201548152602001600182015481526020016002820160009054906101000a900473ffffffffffffffffffffffffffffffffffffffff1673ffffffffffffffffffffffffffffffffffffffff1673ffffffffffffffffffffffffffffffffffffffff1681526020016003820180546124299061536c565b80601f01602080910402602001604051908101604052809291908181526020018280546124559061536c565b80156124a25780601f10612477576101008083540402835291602001916124a2565b820191906000526020600020905b81548152906001019060200180831161248557829003601f168201915b505050505081526020016004820180546124bb9061536c565b80601f01602080910402602001604051908101604052809291908181526020018280546124e79061536c565b80156125345780601f1061250957610100808354040283529160200191612534565b820191906000526020600020905b81548152906001019060200180831161251757829003601f168201915b5050505050815260200160058201805461254d9061536c565b80601f01602080910402602001604051908101604052809291908181526020018280546125799061536c565b80156125c65780601f1061259b576101008083540402835291602001916125c6565b820191906000526020600020905b8154815290600101906020018083116125a957829003601f168201915b50505050508152602001600682015481526020016007820160009054906101000a900460ff161515151581526020016008820154815260200160098201548152505090508060e001518015612625575061261e613f4e565b8160200151145b612664576040517f08c379a000000000000000000000000000000000000000000000000000000000815260040161265b90615b8a565b60405180910390fd5b60018160c0018181516126779190615674565b915081815250508060036000858152602001908152602001600020600082015181600001556020820151816001015560408201518160020160006101000a81548173ffffffffffffffffffffffffffffffffffffffff021916908373ffffffffffffffffffffffffffffffffffffffff16021790555060608201518160030190816127029190615854565b5060808201518160040190816127189190615854565b5060a082015181600501908161272e9190615854565b5060c0820151816006015560e08201518160070160006101000a81548160ff021916908315150217905550610100820151816008015561012082015181600901559050506000600a60009054906101000a900473ffffffffffffffffffffffffffffffffffffffff1673ffffffffffffffffffffffffffffffffffffffff166384f0f65f6040518163ffffffff1660e01b8152600401602060405180830381865afa1580156127e1573d6000803e3d6000fd5b505050506040513d601f19601f820116820180604052508101906128059190615bbf565b8260c0015110159050801561281e5761281d82614179565b5b600a60009054906101000a900473ffffffffffffffffffffffffffffffffffffffff1673ffffffffffffffffffffffffffffffffffffffff1663e5899bc38385336040518463ffffffff1660e01b815260040161287d93929190615bec565b600060405180830381600087803b15801561289757600080fd5b505af11580156128ab573d6000803e3d6000fd5b5050505050505050565b60008060009054906101000a900473ffffffffffffffffffffffffffffffffffffffff16905090565b6128e6614037565b60018060008373ffffffffffffffffffffffffffffffffffffffff1673ffffffffffffffffffffffffffffffffffffffff16815260200190815260200160002060006101000a81548160ff02191690831515021790555050565b7f000000000000000000000000000000000000000000000000000000000000000081565b60006005831161297757600190506129a9565b600061299f600161299186886142a890919063ffffffff16565b6142be90919063ffffffff16565b9050808310159150505b9392505050565b6129b861436b565b600460008381526020019081526020016000206040518060c0016040529081600082015481526020016001820160009054906101000a900473ffffffffffffffffffffffffffffffffffffffff1673ffffffffffffffffffffffffffffffffffffffff1673ffffffffffffffffffffffffffffffffffffffff168152602001600282018054612a469061536c565b80601f0160208091040260200160405190810160405280929190818152602001828054612a729061536c565b8015612abf5780601f10612a9457610100808354040283529160200191612abf565b820191906000526020600020905b815481529060010190602001808311612aa257829003601f168201915b50505050508152602001600382018054612ad89061536c565b80601f0160208091040260200160405190810160405280929190818152602001828054612b049061536c565b8015612b515780601f10612b2657610100808354040283529160200191612b51565b820191906000526020600020905b815481529060010190602001808311612b3457829003601f168201915b50505050508152602001600482018054612b6a9061536c565b80601f0160208091040260200160405190810160405280929190818152602001828054612b969061536c565b8015612be35780601f10612bb857610100808354040283529160200191612be3565b820191906000526020600020905b815481529060010190602001808311612bc657829003601f168201915b505050505081526020016005820154815250509050919050565b6000600160008373ffffffffffffffffffffffffffffffffffffffff1673ffffffffffffffffffffffffffffffffffffffff16815260200190815260200160002060009054906101000a900460ff169050919050565b7f000000000000000000000000000000000000000000000000000000000000000081565b612c7f6143b7565b60006001600860009054906101000a900473ffffffffffffffffffffffffffffffffffffffff1673ffffffffffffffffffffffffffffffffffffffff16631eb2c12060036040518263ffffffff1660e01b8152600401612cdf9190615c31565b602060405180830381865afa158015612cfc573d6000803e3d6000fd5b505050506040513d601f19601f82011682018060405250810190612d209190615bbf565b612d2a9190615674565b905060006040518061012001604052808381526020013373ffffffffffffffffffffffffffffffffffffffff168152602001868152602001604051806040016040528060008152602001612d7c613f4e565b815250815260200185815260200160008152602001600081526020016000815260200143815250905080600260003373ffffffffffffffffffffffffffffffffffffffff1673ffffffffffffffffffffffffffffffffffffffff1681526020019081526020016000206000820151816000015560208201518160010160006101000a81548173ffffffffffffffffffffffffffffffffffffffff021916908373ffffffffffffffffffffffffffffffffffffffff1602179055506040820151816002019081612e4b9190615854565b50606082015181600301600082015181600001556020820151816001015550506080820151816005019081612e809190615854565b5060a0820151816006015560c0820151816007015560e082015181600801556101008201518160090155905050336007600084815260200190815260200160002060006101000a81548173ffffffffffffffffffffffffffffffffffffffff021916908373ffffffffffffffffffffffffffffffffffffffff160217905550600860009054906101000a900473ffffffffffffffffffffffffffffffffffffffff1673ffffffffffffffffffffffffffffffffffffffff16639c3eead93360036040518363ffffffff1660e01b8152600401612f5d929190615c4c565b600060405180830381600087803b158015612f7757600080fd5b505af1158015612f8b573d6000803e3d6000fd5b50505050809250505092915050565b60076020528060005260406000206000915054906101000a900473ffffffffffffffffffffffffffffffffffffffff1681565b600080612fd983613332565b90506000816000015111612ff15760009150506130a6565b6130a2600c54600860009054906101000a900473ffffffffffffffffffffffffffffffffffffffff1673ffffffffffffffffffffffffffffffffffffffff16631eb2c12060036040518263ffffffff1660e01b81526004016130539190615c31565b602060405180830381865afa158015613070573d6000803e3d6000fd5b505050506040513d601f19601f820116820180604052508101906130949190615bbf565b836060015160000151612964565b9150505b919050565b6130b361441f565b600360008381526020019081526020016000206040518061014001604052908160008201548152602001600182015481526020016002820160009054906101000a900473ffffffffffffffffffffffffffffffffffffffff1673ffffffffffffffffffffffffffffffffffffffff1673ffffffffffffffffffffffffffffffffffffffff16815260200160038201805461314c9061536c565b80601f01602080910402602001604051908101604052809291908181526020018280546131789061536c565b80156131c55780601f1061319a576101008083540402835291602001916131c5565b820191906000526020600020905b8154815290600101906020018083116131a857829003601f168201915b505050505081526020016004820180546131de9061536c565b80601f016020809104026020016040519081016040528092919081815260200182805461320a9061536c565b80156132575780601f1061322c57610100808354040283529160200191613257565b820191906000526020600020905b81548152906001019060200180831161323a57829003601f168201915b505050505081526020016005820180546132709061536c565b80601f016020809104026020016040519081016040528092919081815260200182805461329c9061536c565b80156132e95780601f106132be576101008083540402835291602001916132e9565b820191906000526020600020905b8154815290600101906020018083116132cc57829003601f168201915b50505050508152602001600682015481526020016007820160009054906101000a900460ff16151515158152602001600882015481526020016009820154815250509050919050565b61333a6143b7565b600260008373ffffffffffffffffffffffffffffffffffffffff1673ffffffffffffffffffffffffffffffffffffffff16815260200190815260200160002060405180610120016040529081600082015481526020016001820160009054906101000a900473ffffffffffffffffffffffffffffffffffffffff1673ffffffffffffffffffffffffffffffffffffffff1673ffffffffffffffffffffffffffffffffffffffff1681526020016002820180546133f59061536c565b80601f01602080910402602001604051908101604052809291908181526020018280546134219061536c565b801561346e5780601f106134435761010080835404028352916020019161346e565b820191906000526020600020905b81548152906001019060200180831161345157829003601f168201915b50505050508152602001600382016040518060400160405290816000820154815260200160018201548152505081526020016005820180546134af9061536c565b80601f01602080910402602001604051908101604052809291908181526020018280546134db9061536c565b80156135285780601f106134fd57610100808354040283529160200191613528565b820191906000526020600020905b81548152906001019060200180831161350b57829003601f168201915b505050505081526020016006820154815260200160078201548152602001600882015481526020016009820154815250509050919050565b600860009054906101000a900473ffffffffffffffffffffffffffffffffffffffff1673ffffffffffffffffffffffffffffffffffffffff16639497c6086003336040518363ffffffff1660e01b81526004016135be92919061551a565b602060405180830381865afa1580156135db573d6000803e3d6000fd5b505050506040513d601f19601f820116820180604052508101906135ff919061556f565b61363e576040517f08c379a0000000000000000000000000000000000000000000000000000000008152600401613635906155e8565b60405180910390fd5b7f0000000000000000000000000000000000000000000000000000000000000000613667611d88565b116136a7576040517f08c379a000000000000000000000000000000000000000000000000000000000815260040161369e90615ce7565b60405180910390fd5b6136b0336142d4565b6136ef576040517f08c379a00000000000000000000000000000000000000000000000000000000081526004016136e690615654565b60405180910390fd5b6000600260003373ffffffffffffffffffffffffffffffffffffffff1673ffffffffffffffffffffffffffffffffffffffff168152602001908152602001600020905060006001600b546137439190615674565b90506000604051806101400160405280838152602001613761613f4e565b81526020013373ffffffffffffffffffffffffffffffffffffffff16815260200187815260200186815260200185815260200160008152602001600115158152602001600081526020014381525090508060036000848152602001908152602001600020600082015181600001556020820151816001015560408201518160020160006101000a81548173ffffffffffffffffffffffffffffffffffffffff021916908373ffffffffffffffffffffffffffffffffffffffff16021790555060608201518160030190816138359190615854565b50608082015181600401908161384b9190615854565b5060a08201518160050190816138619190615854565b5060c0820151816006015560e08201518160070160006101000a81548160ff02191690831515021790555061010082015181600801556101208201518160090155905050600b60008154809291906138b890615926565b9190505550600c60008154809291906138d090615926565b91905055508260060160008154809291906138ea90615926565b919050555043836007018190555082600301600001600081548092919061391090615926565b9190505550600960009054906101000a900473ffffffffffffffffffffffffffffffffffffffff1673ffffffffffffffffffffffffffffffffffffffff166352b8d3ed3360016040518363ffffffff1660e01b8152600401613973929190615d42565b600060405180830381600087803b15801561398d57600080fd5b505af11580156139a1573d6000803e3d6000fd5b50505050505050505050565b6139b561448a565b6005600083815260200190815260200160002060405180610140016040529081600082015481526020016001820160009054906101000a900473ffffffffffffffffffffffffffffffffffffffff1673ffffffffffffffffffffffffffffffffffffffff1673ffffffffffffffffffffffffffffffffffffffff168152602001600282018054613a449061536c565b80601f0160208091040260200160405190810160405280929190818152602001828054613a709061536c565b8015613abd5780601f10613a9257610100808354040283529160200191613abd565b820191906000526020600020905b815481529060010190602001808311613aa057829003601f168201915b50505050508152602001600382018054613ad69061536c565b80601f0160208091040260200160405190810160405280929190818152602001828054613b029061536c565b8015613b4f5780601f10613b2457610100808354040283529160200191613b4f565b820191906000526020600020905b815481529060010190602001808311613b3257829003601f168201915b50505050508152602001600482018054613b689061536c565b80601f0160208091040260200160405190810160405280929190818152602001828054613b949061536c565b8015613be15780601f10613bb657610100808354040283529160200191613be1565b820191906000526020600020905b815481529060010190602001808311613bc457829003601f168201915b50505050508152602001600582018054613bfa9061536c565b80601f0160208091040260200160405190810160405280929190818152602001828054613c269061536c565b8015613c735780601f10613c4857610100808354040283529160200191613c73565b820191906000526020600020905b815481529060010190602001808311613c5657829003601f168201915b50505050508152602001600682018054613c8c9061536c565b80601f0160208091040260200160405190810160405280929190818152602001828054613cb89061536c565b8015613d055780601f10613cda57610100808354040283529160200191613d05565b820191906000526020600020905b815481529060010190602001808311613ce857829003601f168201915b50505050508152602001600782018054613d1e9061536c565b80601f0160208091040260200160405190810160405280929190818152602001828054613d4a9061536c565b8015613d975780601f10613d6c57610100808354040283529160200191613d97565b820191906000526020600020905b815481529060010190602001808311613d7a57829003601f168201915b50505050508152602001600882018054613db09061536c565b80601f0160208091040260200160405190810160405280929190818152602001828054613ddc9061536c565b8015613e295780601f10613dfe57610100808354040283529160200191613e29565b820191906000526020600020905b815481529060010190602001808311613e0c57829003601f168201915b50505050508152602001600982018054613e429061536c565b80601f0160208091040260200160405190810160405280929190818152602001828054613e6e9061536c565b8015613ebb5780601f10613e9057610100808354040283529160200191613ebb565b820191906000526020600020905b815481529060010190602001808311613e9e57829003601f168201915b5050505050815250509050919050565b613ed3614037565b600073ffffffffffffffffffffffffffffffffffffffff168173ffffffffffffffffffffffffffffffffffffffff1603613f42576040517f08c379a0000000000000000000000000000000000000000000000000000000008152600401613f3990615ddd565b60405180910390fd5b613f4b816140b5565b50565b6000600960009054906101000a900473ffffffffffffffffffffffffffffffffffffffff1673ffffffffffffffffffffffffffffffffffffffff1663ed0df79e6040518163ffffffff1660e01b8152600401602060405180830381865afa158015613fbd573d6000803e3d6000fd5b505050506040513d601f19601f82011682018060405250810190613fe19190615bbf565b905090565b6000808260e00151905060007f00000000000000000000000000000000000000000000000000000000000000008261401e9190615674565b43119050808061402e5750600082145b92505050919050565b61403f614363565b73ffffffffffffffffffffffffffffffffffffffff1661405d6128b5565b73ffffffffffffffffffffffffffffffffffffffff16146140b3576040517f08c379a00000000000000000000000000000000000000000000000000000000081526004016140aa90615e49565b60405180910390fd5b565b60008060009054906101000a900473ffffffffffffffffffffffffffffffffffffffff169050816000806101000a81548173ffffffffffffffffffffffffffffffffffffffff021916908373ffffffffffffffffffffffffffffffffffffffff1602179055508173ffffffffffffffffffffffffffffffffffffffff168173ffffffffffffffffffffffffffffffffffffffff167f8be0079c531659141344cd1fd0a4f28419497f9722a3daafe3b4186f6b6457e060405160405180910390a35050565b600c600081548092919061418c90615e69565b919050555060008160e00190151590811515815250504381610100018181525050806003600083600001518152602001908152602001600020600082015181600001556020820151816001015560408201518160020160006101000a81548173ffffffffffffffffffffffffffffffffffffffff021916908373ffffffffffffffffffffffffffffffffffffffff16021790555060608201518160030190816142359190615854565b50608082015181600401908161424b9190615854565b5060a08201518160050190816142619190615854565b5060c0820151816006015560e08201518160070160006101000a81548160ff0219169083151502179055506101008201518160080155610120820151816009015590505050565b600081836142b69190615ec1565b905092915050565b600081836142cc9190615674565b905092915050565b600080600260008473ffffffffffffffffffffffffffffffffffffffff1673ffffffffffffffffffffffffffffffffffffffff16815260200190815260200160002060070154905060007f00000000000000000000000000000000000000000000000000000000000000008261434a9190615674565b43119050808061435a5750600082145b92505050919050565b600033905090565b6040518060c0016040528060008152602001600073ffffffffffffffffffffffffffffffffffffffff168152602001606081526020016060815260200160608152602001600081525090565b60405180610120016040528060008152602001600073ffffffffffffffffffffffffffffffffffffffff168152602001606081526020016143f66144f3565b815260200160608152602001600081526020016000815260200160008152602001600081525090565b6040518061014001604052806000815260200160008152602001600073ffffffffffffffffffffffffffffffffffffffff1681526020016060815260200160608152602001606081526020016000815260200160001515815260200160008152602001600081525090565b60405180610140016040528060008152602001600073ffffffffffffffffffffffffffffffffffffffff16815260200160608152602001606081526020016060815260200160608152602001606081526020016060815260200160608152602001606081525090565b604051806040016040528060008152602001600081525090565b6000819050919050565b6145208161450d565b82525050565b600060208201905061453b6000830184614517565b92915050565b6000604051905090565b600080fd5b600080fd5b61455e8161450d565b811461456957600080fd5b50565b60008135905061457b81614555565b92915050565b6000602082840312156145975761459661454b565b5b60006145a58482850161456c565b91505092915050565b600073ffffffffffffffffffffffffffffffffffffffff82169050919050565b60006145d9826145ae565b9050919050565b6145e9816145ce565b82525050565b600081519050919050565b600082825260208201905092915050565b60005b8381101561462957808201518184015260208101905061460e565b60008484015250505050565b6000601f19601f8301169050919050565b6000614651826145ef565b61465b81856145fa565b935061466b81856020860161460b565b61467481614635565b840191505092915050565b600061014082019050614695600083018d614517565b6146a2602083018c6145e0565b81810360408301526146b4818b614646565b905081810360608301526146c8818a614646565b905081810360808301526146dc8189614646565b905081810360a08301526146f08188614646565b905081810360c08301526147048187614646565b905081810360e08301526147188186614646565b905081810361010083015261472d8185614646565b90508181036101208301526147428184614646565b90509b9a5050505050505050505050565b61475c816145ce565b811461476757600080fd5b50565b60008135905061477981614753565b92915050565b600080604083850312156147965761479561454b565b5b60006147a48582860161476a565b92505060206147b58582860161456c565b9150509250929050565b6000602082840312156147d5576147d461454b565b5b60006147e38482850161476a565b91505092915050565b60008115159050919050565b614801816147ec565b82525050565b600060208201905061481c60008301846147f8565b92915050565b600080fd5b600080fd5b7f4e487b7100000000000000000000000000000000000000000000000000000000600052604160045260246000fd5b61486482614635565b810181811067ffffffffffffffff821117156148835761488261482c565b5b80604052505050565b6000614896614541565b90506148a2828261485b565b919050565b600067ffffffffffffffff8211156148c2576148c161482c565b5b6148cb82614635565b9050602081019050919050565b82818337600083830152505050565b60006148fa6148f5846148a7565b61488c565b90508281526020810184848401111561491657614915614827565b5b6149218482856148d8565b509392505050565b600082601f83011261493e5761493d614822565b5b813561494e8482602086016148e7565b91505092915050565b600080600080608085870312156149715761497061454b565b5b600085013567ffffffffffffffff81111561498f5761498e614550565b5b61499b87828801614929565b945050602085013567ffffffffffffffff8111156149bc576149bb614550565b5b6149c887828801614929565b935050604085013567ffffffffffffffff8111156149e9576149e8614550565b5b6149f587828801614929565b9250506060614a068782880161456c565b91505092959194509250565b600080600080600080600080610100898b031215614a3357614a3261454b565b5b600089013567ffffffffffffffff811115614a5157614a50614550565b5b614a5d8b828c01614929565b985050602089013567ffffffffffffffff811115614a7e57614a7d614550565b5b614a8a8b828c01614929565b975050604089013567ffffffffffffffff811115614aab57614aaa614550565b5b614ab78b828c01614929565b965050606089013567ffffffffffffffff811115614ad857614ad7614550565b5b614ae48b828c01614929565b955050608089013567ffffffffffffffff811115614b0557614b04614550565b5b614b118b828c01614929565b94505060a089013567ffffffffffffffff811115614b3257614b31614550565b5b614b3e8b828c01614929565b93505060c089013567ffffffffffffffff811115614b5f57614b5e614550565b5b614b6b8b828c01614929565b92505060e089013567ffffffffffffffff811115614b8c57614b8b614550565b5b614b988b828c01614929565b9150509295985092959890939650565b600060c082019050614bbd6000830189614517565b614bca60208301886145e0565b8181036040830152614bdc8187614646565b90508181036060830152614bf08186614646565b90508181036080830152614c048185614646565b9050614c1360a0830184614517565b979650505050505050565b600061014082019050614c34600083018d614517565b614c41602083018c614517565b614c4e604083018b6145e0565b8181036060830152614c60818a614646565b90508181036080830152614c748189614646565b905081810360a0830152614c888188614646565b9050614c9760c0830187614517565b614ca460e08301866147f8565b614cb2610100830185614517565b614cc0610120830184614517565b9b9a5050505050505050505050565b60008060408385031215614ce657614ce561454b565b5b6000614cf48582860161456c565b925050602083013567ffffffffffffffff811115614d1557614d14614550565b5b614d2185828601614929565b9150509250929050565b6000602082019050614d4060008301846145e0565b92915050565b600080600060608486031215614d5f57614d5e61454b565b5b6000614d6d8682870161456c565b9350506020614d7e8682870161456c565b9250506040614d8f8682870161456c565b9150509250925092565b614da28161450d565b82525050565b614db1816145ce565b82525050565b600082825260208201905092915050565b6000614dd3826145ef565b614ddd8185614db7565b9350614ded81856020860161460b565b614df681614635565b840191505092915050565b600060c083016000830151614e196000860182614d99565b506020830151614e2c6020860182614da8565b5060408301518482036040860152614e448282614dc8565b91505060608301518482036060860152614e5e8282614dc8565b91505060808301518482036080860152614e788282614dc8565b91505060a0830151614e8d60a0860182614d99565b508091505092915050565b60006020820190508181036000830152614eb28184614e01565b905092915050565b60008060408385031215614ed157614ed061454b565b5b600083013567ffffffffffffffff811115614eef57614eee614550565b5b614efb85828601614929565b925050602083013567ffffffffffffffff811115614f1c57614f1b614550565b5b614f2885828601614929565b9150509250929050565b604082016000820151614f486000850182614d99565b506020820151614f5b6020850182614d99565b50505050565b600061014083016000830151614f7a6000860182614d99565b506020830151614f8d6020860182614da8565b5060408301518482036040860152614fa58282614dc8565b9150506060830151614fba6060860182614f32565b50608083015184820360a0860152614fd28282614dc8565b91505060a0830151614fe760c0860182614d99565b5060c0830151614ffa60e0860182614d99565b5060e083015161500e610100860182614d99565b50610100830151615023610120860182614d99565b508091505092915050565b600060208201905081810360008301526150488184614f61565b905092915050565b615059816147ec565b82525050565b6000610140830160008301516150786000860182614d99565b50602083015161508b6020860182614d99565b50604083015161509e6040860182614da8565b50606083015184820360608601526150b68282614dc8565b915050608083015184820360808601526150d08282614dc8565b91505060a083015184820360a08601526150ea8282614dc8565b91505060c08301516150ff60c0860182614d99565b5060e083015161511260e0860182615050565b50610100830151615127610100860182614d99565b5061012083015161513c610120860182614d99565b508091505092915050565b60006020820190508181036000830152615161818461505f565b905092915050565b6000806000606084860312156151825761518161454b565b5b600084013567ffffffffffffffff8111156151a05761519f614550565b5b6151ac86828701614929565b935050602084013567ffffffffffffffff8111156151cd576151cc614550565b5b6151d986828701614929565b925050604084013567ffffffffffffffff8111156151fa576151f9614550565b5b61520686828701614929565b9150509250925092565b6000610140830160008301516152296000860182614d99565b50602083015161523c6020860182614da8565b50604083015184820360408601526152548282614dc8565b9150506060830151848203606086015261526e8282614dc8565b915050608083015184820360808601526152888282614dc8565b91505060a083015184820360a08601526152a28282614dc8565b91505060c083015184820360c08601526152bc8282614dc8565b91505060e083015184820360e08601526152d68282614dc8565b9150506101008301518482036101008601526152f28282614dc8565b91505061012083015184820361012086015261530e8282614dc8565b9150508091505092915050565b600060208201905081810360008301526153358184615210565b905092915050565b7f4e487b7100000000000000000000000000000000000000000000000000000000600052602260045260246000fd5b6000600282049050600182168061538457607f821691505b6020821081036153975761539661533d565b5b50919050565b7f4e6f7420616c6c6f7765642063616c6c65720000000000000000000000000000600082015250565b60006153d36012836145fa565b91506153de8261539d565b602082019050919050565b60006020820190508181036000830152615402816153c6565b9050919050565b7f4e487b7100000000000000000000000000000000000000000000000000000000600052601160045260246000fd5b60006154438261450d565b915061544e8361450d565b925082820390508181111561546657615465615409565b5b92915050565b600060608201905061548160008301866145e0565b61548e6020830185614517565b61549b6040830184614517565b949350505050565b7f4e487b7100000000000000000000000000000000000000000000000000000000600052602160045260246000fd5b600a81106154e3576154e26154a3565b5b50565b60008190506154f4826154d2565b919050565b6000615504826154e6565b9050919050565b615514816154f9565b82525050565b600060408201905061552f600083018561550b565b61553c60208301846145e0565b9392505050565b61554c816147ec565b811461555757600080fd5b50565b60008151905061556981615543565b92915050565b6000602082840312156155855761558461454b565b5b60006155938482850161555a565b91505092915050565b7f4f6e6c7920616c6c6f77656420746f2072657365617263686572730000000000600082015250565b60006155d2601b836145fa565b91506155dd8261559c565b602082019050919050565b60006020820190508181036000830152615601816155c5565b9050919050565b7f43616e2774207075626c69736820796574000000000000000000000000000000600082015250565b600061563e6011836145fa565b915061564982615608565b602082019050919050565b6000602082019050818103600083015261566d81615631565b9050919050565b600061567f8261450d565b915061568a8361450d565b92508282019050808211156156a2576156a1615409565b5b92915050565b60008190508160005260206000209050919050565b60006020601f8301049050919050565b600082821b905092915050565b60006008830261570a7fffffffffffffffffffffffffffffffffffffffffffffffffffffffffffffffff826156cd565b61571486836156cd565b95508019841693508086168417925050509392505050565b6000819050919050565b600061575161574c6157478461450d565b61572c565b61450d565b9050919050565b6000819050919050565b61576b83615736565b61577f61577782615758565b8484546156da565b825550505050565b600090565b615794615787565b61579f818484615762565b505050565b5b818110156157c3576157b860008261578c565b6001810190506157a5565b5050565b601f821115615808576157d9816156a8565b6157e2846156bd565b810160208510156157f1578190505b6158056157fd856156bd565b8301826157a4565b50505b505050565b600082821c905092915050565b600061582b6000198460080261580d565b1980831691505092915050565b6000615844838361581a565b9150826002028217905092915050565b61585d826145ef565b67ffffffffffffffff8111156158765761587561482c565b5b615880825461536c565b61588b8282856157c7565b600060209050601f8311600181146158be57600084156158ac578287015190505b6158b68582615838565b86555061591e565b601f1984166158cc866156a8565b60005b828110156158f4578489015182556001820191506020850194506020810190506158cf565b86831015615911578489015161590d601f89168261581a565b8355505b6001600288020188555050505b505050505050565b60006159318261450d565b91507fffffffffffffffffffffffffffffffffffffffffffffffffffffffffffffffff820361596357615962615409565b5b600182019050919050565b7f506f6f6c206f6e6c7920746f2072657365617263686572730000000000000000600082015250565b60006159a46018836145fa565b91506159af8261596e565b602082019050919050565b600060208201905081810360008301526159d381615997565b9050919050565b7f43616e277420617070726f766520776974686472617700000000000000000000600082015250565b6000615a106016836145fa565b9150615a1b826159da565b602082019050919050565b60006020820190508181036000830152615a3f81615a03565b9050919050565b6000604082019050615a5b60008301856145e0565b615a686020830184614517565b9392505050565b6000819050919050565b615a8281615a6f565b8114615a8d57600080fd5b50565b600081519050615a9f81615a79565b92915050565b600060208284031215615abb57615aba61454b565b5b6000615ac984828501615a90565b91505092915050565b7f506c656173652072656769737465722061732076616c696461746f7200000000600082015250565b6000615b08601c836145fa565b9150615b1382615ad2565b602082019050919050565b60006020820190508181036000830152615b3781615afb565b9050919050565b7f54686973207265736561726368206973206e6f742056414c4944000000000000600082015250565b6000615b74601a836145fa565b9150615b7f82615b3e565b602082019050919050565b60006020820190508181036000830152615ba381615b67565b9050919050565b600081519050615bb981614555565b92915050565b600060208284031215615bd557615bd461454b565b5b6000615be384828501615baa565b91505092915050565b60006060820190508181036000830152615c06818661505f565b90508181036020830152615c1a8185614646565b9050615c2960408301846145e0565b949350505050565b6000602082019050615c46600083018461550b565b92915050565b6000604082019050615c6160008301856145e0565b615c6e602083018461550b565b9392505050565b7f5761697420756e74696c206e6578742065726120746f2061646420726573656160008201527f7263680000000000000000000000000000000000000000000000000000000000602082015250565b6000615cd16023836145fa565b9150615cdc82615c75565b604082019050919050565b60006020820190508181036000830152615d0081615cc4565b9050919050565b6000819050919050565b6000615d2c615d27615d2284615d07565b61572c565b61450d565b9050919050565b615d3c81615d11565b82525050565b6000604082019050615d5760008301856145e0565b615d646020830184615d33565b9392505050565b7f4f776e61626c653a206e6577206f776e657220697320746865207a65726f206160008201527f6464726573730000000000000000000000000000000000000000000000000000602082015250565b6000615dc76026836145fa565b9150615dd282615d6b565b604082019050919050565b60006020820190508181036000830152615df681615dba565b9050919050565b7f4f776e61626c653a2063616c6c6572206973206e6f7420746865206f776e6572600082015250565b6000615e336020836145fa565b9150615e3e82615dfd565b602082019050919050565b60006020820190508181036000830152615e6281615e26565b9050919050565b6000615e748261450d565b915060008203615e8757615e86615409565b5b600182039050919050565b7f4e487b7100000000000000000000000000000000000000000000000000000000600052601260045260246000fd5b6000615ecc8261450d565b9150615ed78361450d565b925082615ee757615ee6615e92565b5b82820490509291505056fea2646970667358221220c6a72c1368882ee658cf55861a11f4ee92a46542cfbb7e799c4bfe81f56a4d5f64736f6c634300081b0033",
  "linkReferences": {},
  "deployedLinkReferences": {}
}