{
  "_format": "hh-sol-artifact-1",
  "contractName": "ResearcherRules",
  "sourceName": "contracts/ResearcherRules.sol",
  "abi": [
    {
      "inputs": [
        {
          "internalType": "uint32",
          "name": "timeBetweenWorks_",
          "type": "uint32"
        },
        {
          "internalType": "uint8",
          "name": "maxPenalties_",
          "type": "uint8"
        },
        {
          "internalType": "uint32",
          "name": "securityBlocksToValidation_",
          "type": "uint32"
        }
      ],
      "stateMutability": "nonpayable",
      "type": "constructor"
    },
    {
      "inputs": [
        {
          "internalType": "address",
          "name": "owner",
          "type": "address"
        }
      ],
      "name": "OwnableInvalidOwner",
      "type": "error"
    },
    {
      "inputs": [
        {
          "internalType": "address",
          "name": "account",
          "type": "address"
        }
      ],
      "name": "OwnableUnauthorizedAccount",
      "type": "error"
    },
    {
      "inputs": [],
      "name": "ReentrancyGuardReentrantCall",
      "type": "error"
    },
    {
      "anonymous": false,
      "inputs": [
        {
          "indexed": true,
          "internalType": "address",
          "name": "previousOwner",
          "type": "address"
        },
        {
          "indexed": true,
          "internalType": "address",
          "name": "newOwner",
          "type": "address"
        }
      ],
      "name": "OwnershipTransferred",
      "type": "event"
    },
    {
      "anonymous": false,
      "inputs": [
        {
          "indexed": true,
          "internalType": "uint256",
          "name": "researchId",
          "type": "uint256"
        },
        {
          "indexed": true,
          "internalType": "address",
          "name": "invalidatedBy",
          "type": "address"
        },
        {
          "indexed": false,
          "internalType": "string",
          "name": "justification",
          "type": "string"
        }
      ],
      "name": "ResearchInvalidated",
      "type": "event"
    },
    {
      "anonymous": false,
      "inputs": [
        {
          "indexed": true,
          "internalType": "uint256",
          "name": "researchId",
          "type": "uint256"
        },
        {
          "indexed": true,
          "internalType": "address",
          "name": "researcher",
          "type": "address"
        },
        {
          "indexed": false,
          "internalType": "uint256",
          "name": "publishedAt",
          "type": "uint256"
        }
      ],
      "name": "ResearchPublished",
      "type": "event"
    },
    {
      "anonymous": false,
      "inputs": [
        {
          "indexed": true,
          "internalType": "address",
          "name": "_validatorAddress",
          "type": "address"
        },
        {
          "indexed": false,
          "internalType": "uint256",
          "name": "_resourceId",
          "type": "uint256"
        },
        {
          "indexed": false,
          "internalType": "string",
          "name": "_justification",
          "type": "string"
        }
      ],
      "name": "ResearchValidation",
      "type": "event"
    },
    {
      "anonymous": false,
      "inputs": [
        {
          "indexed": true,
          "internalType": "address",
          "name": "researcherAddress",
          "type": "address"
        },
        {
          "indexed": false,
          "internalType": "uint256",
          "name": "researcherId",
          "type": "uint256"
        },
        {
          "indexed": false,
          "internalType": "string",
          "name": "name",
          "type": "string"
        }
      ],
      "name": "ResearcherRegistered",
      "type": "event"
    },
    {
      "inputs": [],
      "name": "INITIAL_USER_COUNT_THRESHOLD",
      "outputs": [
        {
          "internalType": "uint256",
          "name": "",
          "type": "uint256"
        }
      ],
      "stateMutability": "view",
      "type": "function"
    },
    {
      "inputs": [],
      "name": "MAX_USER_COUNT",
      "outputs": [
        {
          "internalType": "uint16",
          "name": "",
          "type": "uint16"
        }
      ],
      "stateMutability": "view",
      "type": "function"
    },
    {
      "inputs": [
        {
          "internalType": "string",
          "name": "item",
          "type": "string"
        },
        {
          "internalType": "string",
          "name": "thesis",
          "type": "string"
        },
        {
          "internalType": "string",
          "name": "unit",
          "type": "string"
        },
        {
          "internalType": "uint256",
          "name": "carbonImpact",
          "type": "uint256"
        }
      ],
      "name": "addCalculatorItem",
      "outputs": [],
      "stateMutability": "nonpayable",
      "type": "function"
    },
    {
      "inputs": [
        {
          "internalType": "string",
          "name": "title",
          "type": "string"
        },
        {
          "internalType": "string",
          "name": "research",
          "type": "string"
        },
        {
          "internalType": "string",
          "name": "projectURL",
          "type": "string"
        }
      ],
      "name": "addEvaluationMethod",
      "outputs": [],
      "stateMutability": "nonpayable",
      "type": "function"
    },
    {
      "inputs": [
        {
          "internalType": "string",
          "name": "title",
          "type": "string"
        },
        {
          "internalType": "string",
          "name": "thesis",
          "type": "string"
        },
        {
          "internalType": "string",
          "name": "file",
          "type": "string"
        }
      ],
      "name": "addResearch",
      "outputs": [],
      "stateMutability": "nonpayable",
      "type": "function"
    },
    {
      "inputs": [
        {
          "internalType": "uint64",
          "name": "id",
          "type": "uint64"
        },
        {
          "internalType": "string",
          "name": "justification",
          "type": "string"
        }
      ],
      "name": "addResearchValidation",
      "outputs": [],
      "stateMutability": "nonpayable",
      "type": "function"
    },
    {
      "inputs": [
        {
          "internalType": "string",
          "name": "name",
          "type": "string"
        },
        {
          "internalType": "string",
          "name": "proofPhoto",
          "type": "string"
        }
      ],
      "name": "addResearcher",
      "outputs": [],
      "stateMutability": "nonpayable",
      "type": "function"
    },
    {
      "inputs": [
        {
          "internalType": "address",
          "name": "",
          "type": "address"
        }
      ],
      "name": "allowedCallers",
      "outputs": [
        {
          "internalType": "bool",
          "name": "",
          "type": "bool"
        }
      ],
      "stateMutability": "view",
      "type": "function"
    },
    {
      "inputs": [
        {
          "internalType": "uint64",
          "name": "",
          "type": "uint64"
        }
      ],
      "name": "calculatorItems",
      "outputs": [
        {
          "internalType": "uint64",
          "name": "id",
          "type": "uint64"
        },
        {
          "internalType": "address",
          "name": "createdBy",
          "type": "address"
        },
        {
          "internalType": "string",
          "name": "item",
          "type": "string"
        },
        {
          "internalType": "string",
          "name": "thesis",
          "type": "string"
        },
        {
          "internalType": "string",
          "name": "unit",
          "type": "string"
        },
        {
          "internalType": "uint256",
          "name": "carbonImpact",
          "type": "uint256"
        },
        {
          "internalType": "uint256",
          "name": "createdAtBlock",
          "type": "uint256"
        }
      ],
      "stateMutability": "view",
      "type": "function"
    },
    {
      "inputs": [],
      "name": "calculatorItemsCount",
      "outputs": [
        {
          "internalType": "uint64",
          "name": "",
          "type": "uint64"
        }
      ],
      "stateMutability": "view",
      "type": "function"
    },
    {
      "inputs": [
        {
          "internalType": "uint256",
          "name": "totalLevels",
          "type": "uint256"
        },
        {
          "internalType": "uint256",
          "name": "totalUsers",
          "type": "uint256"
        },
        {
          "internalType": "uint256",
          "name": "userLevels",
          "type": "uint256"
        }
      ],
      "name": "canInvite",
      "outputs": [
        {
          "internalType": "bool",
          "name": "",
          "type": "bool"
        }
      ],
      "stateMutability": "pure",
      "type": "function"
    },
    {
      "inputs": [
        {
          "internalType": "address",
          "name": "addr",
          "type": "address"
        }
      ],
      "name": "canPublishCalculatorItem",
      "outputs": [
        {
          "internalType": "bool",
          "name": "",
          "type": "bool"
        }
      ],
      "stateMutability": "view",
      "type": "function"
    },
    {
      "inputs": [
        {
          "internalType": "address",
          "name": "addr",
          "type": "address"
        }
      ],
      "name": "canPublishResearch",
      "outputs": [
        {
          "internalType": "bool",
          "name": "",
          "type": "bool"
        }
      ],
      "stateMutability": "view",
      "type": "function"
    },
    {
      "inputs": [
        {
          "internalType": "address",
          "name": "addr",
          "type": "address"
        }
      ],
      "name": "canSendInvite",
      "outputs": [
        {
          "internalType": "bool",
          "name": "",
          "type": "bool"
        }
      ],
      "stateMutability": "view",
      "type": "function"
    },
    {
      "inputs": [],
      "name": "communityRules",
      "outputs": [
        {
          "internalType": "contract ICommunityRules",
          "name": "",
          "type": "address"
        }
      ],
      "stateMutability": "view",
      "type": "function"
    },
    {
      "inputs": [
        {
          "internalType": "uint256",
          "name": "",
          "type": "uint256"
        }
      ],
      "name": "evaluationMethods",
      "outputs": [
        {
          "internalType": "uint64",
          "name": "id",
          "type": "uint64"
        },
        {
          "internalType": "address",
          "name": "createdBy",
          "type": "address"
        },
        {
          "internalType": "string",
          "name": "title",
          "type": "string"
        },
        {
          "internalType": "string",
          "name": "research",
          "type": "string"
        },
        {
          "internalType": "string",
          "name": "projectURL",
          "type": "string"
        },
        {
          "internalType": "uint256",
          "name": "createdAtBlock",
          "type": "uint256"
        }
      ],
      "stateMutability": "view",
      "type": "function"
    },
    {
      "inputs": [],
      "name": "evaluationMethodsCount",
      "outputs": [
        {
          "internalType": "uint64",
          "name": "",
          "type": "uint64"
        }
      ],
      "stateMutability": "view",
      "type": "function"
    },
    {
      "inputs": [
        {
          "internalType": "uint64",
          "name": "id",
          "type": "uint64"
        }
      ],
      "name": "getCalculatorItem",
      "outputs": [
        {
          "components": [
            {
              "internalType": "uint64",
              "name": "id",
              "type": "uint64"
            },
            {
              "internalType": "address",
              "name": "createdBy",
              "type": "address"
            },
            {
              "internalType": "string",
              "name": "item",
              "type": "string"
            },
            {
              "internalType": "string",
              "name": "thesis",
              "type": "string"
            },
            {
              "internalType": "string",
              "name": "unit",
              "type": "string"
            },
            {
              "internalType": "uint256",
              "name": "carbonImpact",
              "type": "uint256"
            },
            {
              "internalType": "uint256",
              "name": "createdAtBlock",
              "type": "uint256"
            }
          ],
          "internalType": "struct CalculatorItem",
          "name": "",
          "type": "tuple"
        }
      ],
      "stateMutability": "view",
      "type": "function"
    },
    {
      "inputs": [
        {
          "internalType": "uint64",
          "name": "id",
          "type": "uint64"
        }
      ],
      "name": "getResearch",
      "outputs": [
        {
          "components": [
            {
              "internalType": "uint64",
              "name": "id",
              "type": "uint64"
            },
            {
              "internalType": "uint256",
              "name": "era",
              "type": "uint256"
            },
            {
              "internalType": "address",
              "name": "createdBy",
              "type": "address"
            },
            {
              "internalType": "string",
              "name": "title",
              "type": "string"
            },
            {
              "internalType": "string",
              "name": "thesis",
              "type": "string"
            },
            {
              "internalType": "string",
              "name": "file",
              "type": "string"
            },
            {
              "internalType": "uint256",
              "name": "validationsCount",
              "type": "uint256"
            },
            {
              "internalType": "bool",
              "name": "valid",
              "type": "bool"
            },
            {
              "internalType": "uint256",
              "name": "invalidatedAt",
              "type": "uint256"
            },
            {
              "internalType": "uint256",
              "name": "createdAtBlock",
              "type": "uint256"
            }
          ],
          "internalType": "struct Research",
          "name": "",
          "type": "tuple"
        }
      ],
      "stateMutability": "view",
      "type": "function"
    },
    {
      "inputs": [
        {
          "internalType": "address",
          "name": "addr",
          "type": "address"
        }
      ],
      "name": "getResearcher",
      "outputs": [
        {
          "components": [
            {
              "internalType": "uint64",
              "name": "id",
              "type": "uint64"
            },
            {
              "internalType": "address",
              "name": "researcherWallet",
              "type": "address"
            },
            {
              "internalType": "string",
              "name": "name",
              "type": "string"
            },
            {
              "components": [
                {
                  "internalType": "uint256",
                  "name": "level",
                  "type": "uint256"
                },
                {
                  "internalType": "uint256",
                  "name": "currentEra",
                  "type": "uint256"
                }
              ],
              "internalType": "struct Pool",
              "name": "pool",
              "type": "tuple"
            },
            {
              "internalType": "string",
              "name": "proofPhoto",
              "type": "string"
            },
            {
              "internalType": "uint256",
              "name": "publishedResearches",
              "type": "uint256"
            },
            {
              "internalType": "uint256",
              "name": "lastPublishedAt",
              "type": "uint256"
            },
            {
              "internalType": "uint256",
              "name": "publishedItems",
              "type": "uint256"
            },
            {
              "internalType": "uint256",
              "name": "lastCalculatorItemAt",
              "type": "uint256"
            },
            {
              "internalType": "uint256",
              "name": "createdAt",
              "type": "uint256"
            },
            {
              "internalType": "bool",
              "name": "canPublishMethod",
              "type": "bool"
            }
          ],
          "internalType": "struct Researcher",
          "name": "",
          "type": "tuple"
        }
      ],
      "stateMutability": "view",
      "type": "function"
    },
    {
      "inputs": [
        {
          "internalType": "address",
          "name": "addr",
          "type": "address"
        }
      ],
      "name": "getResearchesIds",
      "outputs": [
        {
          "internalType": "uint256[]",
          "name": "",
          "type": "uint256[]"
        }
      ],
      "stateMutability": "view",
      "type": "function"
    },
    {
      "inputs": [
        {
          "internalType": "address",
          "name": "caller",
          "type": "address"
        }
      ],
      "name": "isAllowedCaller",
      "outputs": [
        {
          "internalType": "bool",
          "name": "",
          "type": "bool"
        }
      ],
      "stateMutability": "view",
      "type": "function"
    },
    {
      "inputs": [],
      "name": "maxPenalties",
      "outputs": [
        {
          "internalType": "uint8",
          "name": "",
          "type": "uint8"
        }
      ],
      "stateMutability": "view",
      "type": "function"
    },
    {
      "inputs": [
        {
          "internalType": "address",
          "name": "allowed",
          "type": "address"
        }
      ],
      "name": "newAllowedCaller",
      "outputs": [],
      "stateMutability": "nonpayable",
      "type": "function"
    },
    {
      "inputs": [],
      "name": "nextEraIn",
      "outputs": [
        {
          "internalType": "uint256",
          "name": "",
          "type": "uint256"
        }
      ],
      "stateMutability": "view",
      "type": "function"
    },
    {
      "inputs": [],
      "name": "owner",
      "outputs": [
        {
          "internalType": "address",
          "name": "",
          "type": "address"
        }
      ],
      "stateMutability": "view",
      "type": "function"
    },
    {
      "inputs": [
        {
          "internalType": "address",
          "name": "",
          "type": "address"
        },
        {
          "internalType": "uint256",
          "name": "",
          "type": "uint256"
        }
      ],
      "name": "penalties",
      "outputs": [
        {
          "internalType": "uint256",
          "name": "researchId",
          "type": "uint256"
        }
      ],
      "stateMutability": "view",
      "type": "function"
    },
    {
      "inputs": [],
      "name": "poolCurrentEra",
      "outputs": [
        {
          "internalType": "uint256",
          "name": "",
          "type": "uint256"
        }
      ],
      "stateMutability": "view",
      "type": "function"
    },
    {
      "inputs": [
        {
          "internalType": "address",
          "name": "addr",
          "type": "address"
        }
      ],
      "name": "removePoolLevels",
      "outputs": [],
      "stateMutability": "nonpayable",
      "type": "function"
    },
    {
      "inputs": [],
      "name": "renounceOwnership",
      "outputs": [],
      "stateMutability": "nonpayable",
      "type": "function"
    },
    {
      "inputs": [
        {
          "internalType": "uint64",
          "name": "",
          "type": "uint64"
        }
      ],
      "name": "researchPenalized",
      "outputs": [
        {
          "internalType": "bool",
          "name": "",
          "type": "bool"
        }
      ],
      "stateMutability": "view",
      "type": "function"
    },
    {
      "inputs": [],
      "name": "researcherPool",
      "outputs": [
        {
          "internalType": "contract IResearcherPool",
          "name": "",
          "type": "address"
        }
      ],
      "stateMutability": "view",
      "type": "function"
    },
    {
      "inputs": [
        {
          "internalType": "uint256",
          "name": "",
          "type": "uint256"
        }
      ],
      "name": "researchersAddress",
      "outputs": [
        {
          "internalType": "address",
          "name": "",
          "type": "address"
        }
      ],
      "stateMutability": "view",
      "type": "function"
    },
    {
      "inputs": [
        {
          "internalType": "uint256",
          "name": "",
          "type": "uint256"
        }
      ],
      "name": "researches",
      "outputs": [
        {
          "internalType": "uint64",
          "name": "id",
          "type": "uint64"
        },
        {
          "internalType": "uint256",
          "name": "era",
          "type": "uint256"
        },
        {
          "internalType": "address",
          "name": "createdBy",
          "type": "address"
        },
        {
          "internalType": "string",
          "name": "title",
          "type": "string"
        },
        {
          "internalType": "string",
          "name": "thesis",
          "type": "string"
        },
        {
          "internalType": "string",
          "name": "file",
          "type": "string"
        },
        {
          "internalType": "uint256",
          "name": "validationsCount",
          "type": "uint256"
        },
        {
          "internalType": "bool",
          "name": "valid",
          "type": "bool"
        },
        {
          "internalType": "uint256",
          "name": "invalidatedAt",
          "type": "uint256"
        },
        {
          "internalType": "uint256",
          "name": "createdAtBlock",
          "type": "uint256"
        }
      ],
      "stateMutability": "view",
      "type": "function"
    },
    {
      "inputs": [],
      "name": "researchesCount",
      "outputs": [
        {
          "internalType": "uint64",
          "name": "",
          "type": "uint64"
        }
      ],
      "stateMutability": "view",
      "type": "function"
    },
    {
      "inputs": [
        {
          "internalType": "address",
          "name": "",
          "type": "address"
        },
        {
          "internalType": "uint256",
          "name": "",
          "type": "uint256"
        }
      ],
      "name": "researchesIds",
      "outputs": [
        {
          "internalType": "uint256",
          "name": "",
          "type": "uint256"
        }
      ],
      "stateMutability": "view",
      "type": "function"
    },
    {
      "inputs": [],
      "name": "researchesTotalCount",
      "outputs": [
        {
          "internalType": "uint64",
          "name": "",
          "type": "uint64"
        }
      ],
      "stateMutability": "view",
      "type": "function"
    },
    {
      "inputs": [],
      "name": "securityBlocksToValidation",
      "outputs": [
        {
          "internalType": "uint32",
          "name": "",
          "type": "uint32"
        }
      ],
      "stateMutability": "view",
      "type": "function"
    },
    {
      "inputs": [
        {
          "internalType": "address",
          "name": "_validationRulesAddress",
          "type": "address"
        }
      ],
      "name": "setContractCall",
      "outputs": [],
      "stateMutability": "nonpayable",
      "type": "function"
    },
    {
      "inputs": [
        {
          "components": [
            {
              "internalType": "address",
              "name": "communityRulesAddress",
              "type": "address"
            },
            {
              "internalType": "address",
              "name": "researcherPoolAddress",
              "type": "address"
            },
            {
              "internalType": "address",
              "name": "validationRulesAddress",
              "type": "address"
            },
            {
              "internalType": "address",
              "name": "voteRulesAddress",
              "type": "address"
            }
          ],
          "internalType": "struct ContractsDependency",
          "name": "contractDependency",
          "type": "tuple"
        }
      ],
      "name": "setContractInterfaces",
      "outputs": [],
      "stateMutability": "nonpayable",
      "type": "function"
    },
    {
      "inputs": [],
      "name": "timeBetweenWorks",
      "outputs": [
        {
          "internalType": "uint32",
          "name": "",
          "type": "uint32"
        }
      ],
      "stateMutability": "view",
      "type": "function"
    },
    {
      "inputs": [],
      "name": "totalActiveLevels",
      "outputs": [
        {
          "internalType": "uint256",
          "name": "",
          "type": "uint256"
        }
      ],
      "stateMutability": "view",
      "type": "function"
    },
    {
      "inputs": [
        {
          "internalType": "address",
          "name": "addr",
          "type": "address"
        }
      ],
      "name": "totalPenalties",
      "outputs": [
        {
          "internalType": "uint256",
          "name": "",
          "type": "uint256"
        }
      ],
      "stateMutability": "view",
      "type": "function"
    },
    {
      "inputs": [
        {
          "internalType": "address",
          "name": "newOwner",
          "type": "address"
        }
      ],
      "name": "transferOwnership",
      "outputs": [],
      "stateMutability": "nonpayable",
      "type": "function"
    },
    {
      "inputs": [],
      "name": "validationRules",
      "outputs": [
        {
          "internalType": "contract IValidationRules",
          "name": "",
          "type": "address"
        }
      ],
      "stateMutability": "view",
      "type": "function"
    },
    {
      "inputs": [],
      "name": "voteRules",
      "outputs": [
        {
          "internalType": "contract IVoteRules",
          "name": "",
          "type": "address"
        }
      ],
      "stateMutability": "view",
      "type": "function"
    },
    {
      "inputs": [],
      "name": "withdraw",
      "outputs": [],
      "stateMutability": "nonpayable",
      "type": "function"
    }
  ],
  "bytecode": "0x60e060405234801561001057600080fd5b506040516144fc3803806144fc83398101604081905261002f916100e9565b338061005557604051631e4fbdf760e01b81526000600482015260240160405180910390fd5b61005e81610080565b50600160025563ffffffff92831660a05260ff9091166080521660c052610134565b600080546001600160a01b038381166001600160a01b0319831681178455604051919092169283917f8be0079c531659141344cd1fd0a4f28419497f9722a3daafe3b4186f6b6457e09190a35050565b805163ffffffff811681146100e457600080fd5b919050565b6000806000606084860312156100fe57600080fd5b610107846100d0565b9250602084015160ff8116811461011d57600080fd5b915061012b604085016100d0565b90509250925092565b60805160a05160c051614384610178600039600081816103ab0152612c970152600081816104ac01526131e30152600081816105fd015261125601526143846000f3fe608060405234801561001057600080fd5b50600436106102955760003560e01c80637600725211610167578063b932c8b7116100ce578063e0d56bde11610087578063e0d56bde146106e8578063e7eba4c2146106fb578063e8a6a9221461071b578063eb5870921461072e578063f2fde38b14610751578063f92f0f8e1461076457600080fd5b8063b932c8b714610664578063be18bc801461068d578063be9dc584146106b2578063c77c1ce6146106ba578063ce59654a146106cd578063e05cf155146106e057600080fd5b806394a7444e1161012057806394a7444e146105b05780639eaf666f146105b9578063a6801258146105cc578063b24eb769146105f8578063b4de0ff414610631578063b702523b1461065157600080fd5b806376007252146105185780637b334154146105435780637c647a62146105665780637f4b0515146105795780638da5cb5b1461058c5780638f93716f1461059d57600080fd5b80634714b5721161020b5780636750d523116101c45780636750d523146104945780636b6c7c2d146104a75780636ec7053a146104ce578063715018a6146104ea57806372e2e6cc146104f2578063755d4f971461050557600080fd5b80634714b572146103fd57806352d3ea9d14610423578063582256f11461043d5780635a52293a146104455780635f7d0704146104585780635fa71c281461048157600080fd5b806320d817131161025d57806320d817131461035e5780633270f4ad1461037357806332980c9b1461038657806335c11677146103a65780633ccfd60b146103e2578063406458f2146103ea57600080fd5b80630884a6721461029a5780630eaf485c146102c257806311868d0b146102ed5780631f701ee01461030d5780632076267b14610327575b600080fd5b6102ad6102a8366004613759565b610777565b60405190151581526020015b60405180910390f35b6005546102d5906001600160401b031681565b6040516001600160401b0390911681526020016102b9565b6103006102fb36600461378b565b6107a2565b6040516102b991906137ee565b6005546102d590600160401b90046001600160401b031681565b610350610335366004613759565b6001600160a01b03166000908152600b602052604090205490565b6040519081526020016102b9565b61037161036c366004613957565b610a0d565b005b6103716103813660046139a6565b611335565b61039961039436600461378b565b6115f9565b6040516102b99190613a3f565b6103cd7f000000000000000000000000000000000000000000000000000000000000000081565b60405163ffffffff90911681526020016102b9565b6103716118a0565b6003546102d5906001600160401b031681565b61041061040b36600461378b565b611aa1565b6040516102b99796959493929190613b1a565b6003546102d590600160401b90046001600160401b031681565b610350611c8a565b610350610453366004613b8a565b611d0a565b61046b610466366004613bb6565b611d3b565b6040516102b99a99989796959493929190613bcf565b61035061048f366004613b8a565b611f3b565b6102ad6104a2366004613759565b611f6a565b6103cd7f000000000000000000000000000000000000000000000000000000000000000081565b6104d7613e8081565b60405161ffff90911681526020016102b9565b610371611f8f565b610371610500366004613c59565b611fa1565b610371610513366004613759565b612216565b60105461052b906001600160a01b031681565b6040516001600160a01b0390911681526020016102b9565b6102ad610551366004613759565b60016020526000908152604090205460ff1681565b610371610574366004613cea565b612240565b600f5461052b906001600160a01b031681565b6000546001600160a01b031661052b565b6103716105ab366004613759565b6122a5565b61035060045481565b6102ad6105c7366004613d53565b6122d4565b6102ad6105da366004613759565b6001600160a01b031660009081526001602052604090205460ff1690565b61061f7f000000000000000000000000000000000000000000000000000000000000000081565b60405160ff90911681526020016102b9565b61064461063f366004613759565b61230c565b6040516102b99190613d7f565b61037161065f366004613dc2565b612378565b61052b610672366004613bb6565b600d602052600090815260409020546001600160a01b031681565b6106a061069b366004613bb6565b612702565b6040516102b996959493929190613e13565b610350600581565b6102ad6106c8366004613759565b6128e5565b600e5461052b906001600160a01b031681565b61035061298f565b60115461052b906001600160a01b031681565b61070e610709366004613759565b6129d9565b6040516102b99190613e80565b610371610729366004613c59565b612bbe565b6102ad61073c36600461378b565b600c6020526000908152604090205460ff1681565b61037161075f366004613759565b61306f565b610371610772366004613759565b6130ad565b6001600160a01b03811660009081526006602081905260408220015461079c906131c7565b92915050565b6107f46040518060e0016040528060006001600160401b0316815260200160006001600160a01b0316815260200160608152602001606081526020016060815260200160008152602001600081525090565b6001600160401b03828116600090815260096020908152604091829020825160e08101845281549485168152600160401b9094046001600160a01b031691840191909152600181018054919284019161084c90613f5f565b80601f016020809104026020016040519081016040528092919081815260200182805461087890613f5f565b80156108c55780601f1061089a576101008083540402835291602001916108c5565b820191906000526020600020905b8154815290600101906020018083116108a857829003601f168201915b505050505081526020016002820180546108de90613f5f565b80601f016020809104026020016040519081016040528092919081815260200182805461090a90613f5f565b80156109575780601f1061092c57610100808354040283529160200191610957565b820191906000526020600020905b81548152906001019060200180831161093a57829003601f168201915b5050505050815260200160038201805461097090613f5f565b80601f016020809104026020016040519081016040528092919081815260200182805461099c90613f5f565b80156109e95780601f106109be576101008083540402835291602001916109e9565b820191906000526020600020905b8154815290600101906020018083116109cc57829003601f168201915b50505050508152602001600482015481526020016005820154815250509050919050565b610a15613211565b600e5460405163e838dfbb60e01b81523360048201526001600160a01b039091169063e838dfbb90602401602060405180830381865afa158015610a5d573d6000803e3d6000fd5b505050506040513d601f19601f82011682018060405250810190610a819190613f99565b15610ac15760405162461bcd60e51b815260206004820152600b60248201526a155cd95c8819195b9a595960aa1b60448201526064015b60405180910390fd5b805161012c1015610ae45760405162461bcd60e51b8152600401610ab890613fbb565b6011546040516356fd539760e11b81523360048201526001600160a01b039091169063adfaa72e90602401602060405180830381865afa158015610b2c573d6000803e3d6000fd5b505050506040513d601f19601f82011682018060405250810190610b509190613f99565b610b8a5760405162461bcd60e51b815260206004820152600b60248201526a2737ba1030903b37ba32b960a91b6044820152606401610ab8565b601054604051630d84466b60e21b81523360048201526001600160a01b039091169063361119ac90602401602060405180830381865afa158015610bd2573d6000803e3d6000fd5b505050506040513d601f19601f82011682018060405250810190610bf69190613f99565b610c3a5760405162461bcd60e51b8152602060048201526015602482015274576169742074696d654265747765656e566f74657360581b6044820152606401610ab8565b6001600160401b038216600090815260136020908152604080832033845290915290205460ff1615610c9e5760405162461bcd60e51b815260206004820152600d60248201526c105b1c9958591e481d9bdd1959609a1b6044820152606401610ab8565b6001600160401b0382166000908152600c602052604090205460ff1615610d075760405162461bcd60e51b815260206004820152601960248201527f50656e616c7469657320616c7265616479206170706c696564000000000000006044820152606401610ab8565b6001600160401b0380831660008181526013602090815260408083203384528252808320805460ff191660019081179091559383526007825280832081516101408101835281549096168652938401549185019190915260028301546001600160a01b03169084015260038201805491939291606084019190610d8990613f5f565b80601f0160208091040260200160405190810160405280929190818152602001828054610db590613f5f565b8015610e025780601f10610dd757610100808354040283529160200191610e02565b820191906000526020600020905b815481529060010190602001808311610de557829003601f168201915b50505050508152602001600482018054610e1b90613f5f565b80601f0160208091040260200160405190810160405280929190818152602001828054610e4790613f5f565b8015610e945780601f10610e6957610100808354040283529160200191610e94565b820191906000526020600020905b815481529060010190602001808311610e7757829003601f168201915b50505050508152602001600582018054610ead90613f5f565b80601f0160208091040260200160405190810160405280929190818152602001828054610ed990613f5f565b8015610f265780601f10610efb57610100808354040283529160200191610f26565b820191906000526020600020905b815481529060010190602001808311610f0957829003601f168201915b505050918352505060068201546020820152600782015460ff16151560408201526008820154606082015260099091015460809091015260e08101519091508015610f7b57508060200151610f7961298f565b145b610fbc5760405162461bcd60e51b815260206004820152601260248201527114995cd9585c98da081b9bdd08159053125160721b6044820152606401610ab8565b60018160c001818151610fcf9190613ff9565b9052506001600160401b038381166000908152600760209081526040918290208451815467ffffffffffffffff1916941693909317835583015160018301558201516002820180546001600160a01b0319166001600160a01b03909216919091179055606082015182919060038201906110499082614053565b506080820151600482019061105e9082614053565b5060a082015160058201906110739082614053565b5060c0820151600682015560e082015160078201805460ff1916911515919091179055610100820151600882015561012090910151600990910155601054604080516369bf81c360e01b815290516000926001600160a01b0316916369bf81c39160048083019260209291908290030181865afa1580156110f8573d6000803e3d6000fd5b505050506040513d601f19601f8201168201806040525081019061111c9190614111565b9050600181116111815760405162461bcd60e51b815260206004820152602a60248201527f56616c69646174696f6e207468726573686f6c642063616e6e6f74206265206c60448201526932b9b9903a3430b7101960b11b6064820152608401610ab8565b808260c001511061128b576001600160401b0384166000908152600c60205260409020805460ff191660011790556111b882613239565b336001600160a01b0316846001600160401b03167fec82afd035df5f6da576aafb10163adedd64aa9955e7843369f1151fe7bcc627856040516111fb919061412a565b60405180910390a36040828101516001600160a01b03166000818152600b602081815284832085518083019096526001600160401b038a168652805460018101825581855282852096519601959095559290915290525460ff7f0000000000000000000000000000000000000000000000000000000000000000168110611289576112898360400151613412565b505b60105460405163eb48556b60e01b81523360048201526001600160a01b039091169063eb48556b90602401600060405180830381600087803b1580156112d057600080fd5b505af11580156112e4573d6000803e3d6000fd5b505083516040513393507fa60b3cba17d47d019e43ed78d18b7dbcdb3356746136e92739e184014baed95b925061131d9190879061413d565b60405180910390a250506113316001600255565b5050565b835160231080159061134a5750825161012c10155b801561135857508151601410155b6113745760405162461bcd60e51b8152600401610ab890613fbb565b600e54604051631292f8c160e31b81526001600160a01b0390911690639497c608906113a7906003903390600401614189565b602060405180830381865afa1580156113c4573d6000803e3d6000fd5b505050506040513d601f19601f820116820180604052508101906113e89190613f99565b6114045760405162461bcd60e51b8152600401610ab8906141af565b61140d33611f6a565b61144d5760405162461bcd60e51b815260206004820152601160248201527010d85b89dd081c1d589b1a5cda081e595d607a1b6044820152606401610ab8565b600181101580156114615750620f42408111155b6114a55760405162461bcd60e51b8152602060048201526015602482015274125b9d985b1a590818d85c989bdb881a5b5c1858dd605a1b6044820152606401610ab8565b6005546000906114bf906001600160401b031660016141d9565b6040805160e0810182526001600160401b038084168083523360208085019182528486018c8152606086018c9052608086018b905260a086018a90524360c087015260009384526009909152949091208351815492516001600160a01b0316600160401b026001600160e01b0319909316931692909217178155915192935091600182019061154e9082614053565b50606082015160028201906115639082614053565b50608082015160038201906115789082614053565b5060a0820151600482015560c09091015160059182015580546001600160401b03169060006115a6836141f8565b82546001600160401b039182166101009390930a9283029190920219909116179055503360009081526006602052604081204360088201556007018054916115ed83614223565b91905055505050505050565b61166360405180610140016040528060006001600160401b031681526020016000815260200160006001600160a01b031681526020016060815260200160608152602001606081526020016000815260200160001515815260200160008152602001600081525090565b6001600160401b038083166000908152600760209081526040918290208251610140810184528154909416845260018101549184019190915260028101546001600160a01b0316918301919091526003810180546060840191906116c690613f5f565b80601f01602080910402602001604051908101604052809291908181526020018280546116f290613f5f565b801561173f5780601f106117145761010080835404028352916020019161173f565b820191906000526020600020905b81548152906001019060200180831161172257829003601f168201915b5050505050815260200160048201805461175890613f5f565b80601f016020809104026020016040519081016040528092919081815260200182805461178490613f5f565b80156117d15780601f106117a6576101008083540402835291602001916117d1565b820191906000526020600020905b8154815290600101906020018083116117b457829003601f168201915b505050505081526020016005820180546117ea90613f5f565b80601f016020809104026020016040519081016040528092919081815260200182805461181690613f5f565b80156118635780601f1061183857610100808354040283529160200191611863565b820191906000526020600020905b81548152906001019060200180831161184657829003601f168201915b505050918352505060068201546020820152600782015460ff16151560408201526008820154606082015260099091015460809091015292915050565b6118a8613211565b600e54604051631292f8c160e31b81526001600160a01b0390911690639497c608906118db906003903390600401614189565b602060405180830381865afa1580156118f8573d6000803e3d6000fd5b505050506040513d601f19601f8201168201806040525081019061191c9190613f99565b6119385760405162461bcd60e51b8152600401610ab8906141af565b33600090815260066020526040908190206003810154600f549251637df42f8360e11b815260048101829052919290916001600160a01b039091169063fbe85f0690602401602060405180830381865afa15801561199a573d6000803e3d6000fd5b505050506040513d601f19601f820116820180604052508101906119be9190613f99565b611a185760405162461bcd60e51b815260206004820152602560248201527f4e6f7420656c696769626c6520746f20776974686472617720666f7220746869604482015264732065726160d81b6064820152608401610ab8565b600382018054906000611a2a83614223565b9091555050600f5460405163f3fef3a360e01b8152336004820152602481018390526001600160a01b039091169063f3fef3a390604401600060405180830381600087803b158015611a7b57600080fd5b505af1158015611a8f573d6000803e3d6000fd5b505050505050611a9f6001600255565b565b600960205260009081526040902080546001820180546001600160401b03831693600160401b9093046001600160a01b0316929190611adf90613f5f565b80601f0160208091040260200160405190810160405280929190818152602001828054611b0b90613f5f565b8015611b585780601f10611b2d57610100808354040283529160200191611b58565b820191906000526020600020905b815481529060010190602001808311611b3b57829003601f168201915b505050505090806002018054611b6d90613f5f565b80601f0160208091040260200160405190810160405280929190818152602001828054611b9990613f5f565b8015611be65780601f10611bbb57610100808354040283529160200191611be6565b820191906000526020600020905b815481529060010190602001808311611bc957829003601f168201915b505050505090806003018054611bfb90613f5f565b80601f0160208091040260200160405190810160405280929190818152602001828054611c2790613f5f565b8015611c745780601f10611c4957610100808354040283529160200191611c74565b820191906000526020600020905b815481529060010190602001808311611c5757829003601f168201915b5050505050908060040154908060050154905087565b600f546000906001600160a01b031663d5ee3eb5611ca661298f565b6040518263ffffffff1660e01b8152600401611cc491815260200190565b602060405180830381865afa158015611ce1573d6000803e3d6000fd5b505050506040513d601f19601f82011682018060405250810190611d059190614111565b905090565b60086020528160005260406000208181548110611d2657600080fd5b90600052602060002001600091509150505481565b60076020526000908152604090208054600182015460028301546003840180546001600160401b039094169492936001600160a01b039092169291611d7f90613f5f565b80601f0160208091040260200160405190810160405280929190818152602001828054611dab90613f5f565b8015611df85780601f10611dcd57610100808354040283529160200191611df8565b820191906000526020600020905b815481529060010190602001808311611ddb57829003601f168201915b505050505090806004018054611e0d90613f5f565b80601f0160208091040260200160405190810160405280929190818152602001828054611e3990613f5f565b8015611e865780601f10611e5b57610100808354040283529160200191611e86565b820191906000526020600020905b815481529060010190602001808311611e6957829003601f168201915b505050505090806005018054611e9b90613f5f565b80601f0160208091040260200160405190810160405280929190818152602001828054611ec790613f5f565b8015611f145780601f10611ee957610100808354040283529160200191611f14565b820191906000526020600020905b815481529060010190602001808311611ef757829003601f168201915b505050506006830154600784015460088501546009909501549394919360ff90911692508a565b600b6020528160005260406000208181548110611f5757600080fd5b6000918252602090912001549150829050565b6001600160a01b03811660009081526006602052604081206008015461079c906131c7565b611f9761363e565b611a9f600061366b565b8251606410801590611fb65750815161012c10155b8015611fc457508051609610155b611fe05760405162461bcd60e51b8152600401610ab890613fbb565b600e54604051631292f8c160e31b81526001600160a01b0390911690639497c60890612013906003903390600401614189565b602060405180830381865afa158015612030573d6000803e3d6000fd5b505050506040513d601f19601f820116820180604052508101906120549190613f99565b6120705760405162461bcd60e51b8152600401610ab8906141af565b336000908152600660205260409020600a015460ff166120d25760405162461bcd60e51b815260206004820152601760248201527f4f6e6c79206f6e65206d6574686f6420616c6c6f7765640000000000000000006044820152606401610ab8565b6005546000906120f390600160401b90046001600160401b031660016141d9565b6040805160c0810182526001600160401b038084168083523360208085019182528486018b8152606086018b9052608086018a90524360a08701526000938452600a909152949091208351815492516001600160a01b0316600160401b026001600160e01b0319909316931692909217178155915192935091600182019061217b9082614053565b50606082015160028201906121909082614053565b50608082015160038201906121a59082614053565b5060a0919091015160049091015560058054600160401b90046001600160401b03169060086121d3836141f8565b82546001600160401b039182166101009390930a92830291909202199091161790555050336000908152600660205260409020600a01805460ff19169055505050565b61221e61363e565b601280546001600160a01b0319166001600160a01b0392909216919091179055565b61224861363e565b8051600e80546001600160a01b03199081166001600160a01b03938416179091556020830151600f805483169184169190911790556040830151601080548316918416919091179055606090920151601180549093169116179055565b6122ad61363e565b6001600160a01b03166000908152600160208190526040909120805460ff19169091179055565b6000826000036122e657506000612305565b600583116122f657506001612305565b83612301848461423c565b1190505b9392505050565b6001600160a01b03811660009081526008602090815260409182902080548351818402810184019094528084526060939283018282801561236c57602002820191906000526020600020905b815481526020019060010190808311612358575b50505050509050919050565b815160321080159061238c57508051609610155b6123a85760405162461bcd60e51b8152600401610ab890613fbb565b600e54604051632f22dc7b60e01b8152613e80916001600160a01b031690632f22dc7b906123db90600390600401614253565b602060405180830381865afa1580156123f8573d6000803e3d6000fd5b505050506040513d601f19601f8201168201806040525081019061241c9190614111565b1061245a5760405162461bcd60e51b815260206004820152600e60248201526d13585e081d5cd95c881b1a5b5a5d60921b6044820152606401610ab8565b600e5460405162f5960960e51b81526000916001600160a01b031690631eb2c1209061248b90600390600401614253565b602060405180830381865afa1580156124a8573d6000803e3d6000fd5b505050506040513d601f19601f820116820180604052508101906124cc9190614261565b6124d79060016141d9565b9050604051806101600160405280826001600160401b03168152602001336001600160a01b0316815260200184815260200160405180604001604052806000815260200161252361298f565b90528152602080820185905260006040808401829052606084018290526080840182905260a084018290524360c0850152600160e0909401849052338252600683529081902084518154938601516001600160a01b0316600160401b026001600160e01b03199094166001600160401b039091161792909217825583015190918201906125b09082614053565b50606082015180516002830155602001516003820155608082015160048201906125da9082614053565b5060a0820151600582015560c0820151600682015560e082015160078201556101008201516008820155610120820151600982015561014090910151600a909101805460ff19169115159190911790556001600160401b0381166000908152600d6020526040908190208054336001600160a01b03199091168117909155600e549151639c3eead960e01b81526001600160a01b0390921691639c3eead9916126889160039060040161427e565b600060405180830381600087803b1580156126a257600080fd5b505af11580156126b6573d6000803e3d6000fd5b50505050336001600160a01b03167fd9e252c4299740928760c15af4c9d6fee5a786293f1f330440036039a6ed533a82856040516126f592919061413d565b60405180910390a2505050565b600a60205260009081526040902080546001820180546001600160401b03831693600160401b9093046001600160a01b031692919061274090613f5f565b80601f016020809104026020016040519081016040528092919081815260200182805461276c90613f5f565b80156127b95780601f1061278e576101008083540402835291602001916127b9565b820191906000526020600020905b81548152906001019060200180831161279c57829003601f168201915b5050505050908060020180546127ce90613f5f565b80601f01602080910402602001604051908101604052809291908181526020018280546127fa90613f5f565b80156128475780601f1061281c57610100808354040283529160200191612847565b820191906000526020600020905b81548152906001019060200180831161282a57829003601f168201915b50505050509080600301805461285c90613f5f565b80601f016020809104026020016040519081016040528092919081815260200182805461288890613f5f565b80156128d55780601f106128aa576101008083540402835291602001916128d5565b820191906000526020600020905b8154815290600101906020018083116128b857829003601f168201915b5050505050908060040154905086565b6000806128f1836129d9565b80519091506001600160401b031661290c5750600092915050565b60048054600e54604051632f22dc7b60e01b8152612305936001600160a01b0390921691632f22dc7b916129439160039101614253565b602060405180830381865afa158015612960573d6000803e3d6000fd5b505050506040513d601f19601f820116820180604052508101906129849190614111565b6060840151516122d4565b600f5460408051637686fbcf60e11b815290516000926001600160a01b03169163ed0df79e9160048083019260209291908290030181865afa158015611ce1573d6000803e3d6000fd5b6129e16136bb565b6001600160a01b0380831660009081526006602090815260409182902082516101608101845281546001600160401b0381168252600160401b9004909416918401919091526001810180549192840191612a3a90613f5f565b80601f0160208091040260200160405190810160405280929190818152602001828054612a6690613f5f565b8015612ab35780601f10612a8857610100808354040283529160200191612ab3565b820191906000526020600020905b815481529060010190602001808311612a9657829003601f168201915b5050505050815260200160028201604051806040016040529081600082015481526020016001820154815250508152602001600482018054612af490613f5f565b80601f0160208091040260200160405190810160405280929190818152602001828054612b2090613f5f565b8015612b6d5780601f10612b4257610100808354040283529160200191612b6d565b820191906000526020600020905b815481529060010190602001808311612b5057829003601f168201915b505050918352505060058201546020820152600682015460408201526007820154606082015260088201546080820152600982015460a0820152600a9091015460ff16151560c09091015292915050565b612bc6613211565b8251606410801590612bdb5750815161012c10155b8015612be957508051609610155b612c055760405162461bcd60e51b8152600401610ab890613fbb565b600e54604051631292f8c160e31b81526001600160a01b0390911690639497c60890612c38906003903390600401614189565b602060405180830381865afa158015612c55573d6000803e3d6000fd5b505050506040513d601f19601f82011682018060405250810190612c799190613f99565b612c955760405162461bcd60e51b8152600401610ab8906141af565b7f000000000000000000000000000000000000000000000000000000000000000063ffffffff16612cc4611c8a565b11612d075760405162461bcd60e51b81526020600482015260136024820152725761697420756e74696c206e6578742065726160681b6044820152606401610ab8565b612d1033610777565b612d505760405162461bcd60e51b815260206004820152601160248201527010d85b89dd081c1d589b1a5cda081e595d607a1b6044820152606401610ab8565b600380546001600160401b0316906000612d69836141f8565b91906101000a8154816001600160401b0302191690836001600160401b03160217905550506003600881819054906101000a90046001600160401b031680929190612db3906141f8565b91906101000a8154816001600160401b0302191690836001600160401b031602179055505060046000815480929190612deb90614223565b9091555050600354604080516101408101909152600160401b9091046001600160401b03168082529060208101612e2061298f565b8152336020808301919091526040808301889052606080840188905260808401879052600060a08501819052600160c0860181905260e0860182905243610100909601959095526001600160401b03878116825260078552908390208651815467ffffffffffffffff1916921691909117815592850151938301939093558301516002820180546001600160a01b0319166001600160a01b03909216919091179055908201516003820190612ed59082614053565b5060808201516004820190612eea9082614053565b5060a08201516005820190612eff9082614053565b5060c082015160068281019190915560e083015160078301805460ff1916911515919091179055610100830151600883015561012090920151600990910155336000908152602091909152604081206005810180549192612f5f83614223565b9091555050436006820155336000908152600860209081526040822080546001810182559083529082206001600160401b03851691015560028201805491612fa683614223565b9091555050600f546040516338e8490d60e11b8152336004820152600160248201526001600160401b03841660448201526001600160a01b03909116906371d0921a90606401600060405180830381600087803b15801561300657600080fd5b505af115801561301a573d6000803e3d6000fd5b50506040514381523392506001600160401b03851691507fe4c1c9646dc792c06d1b46cbe82f47bc6843a8dee984ecab0e2e4fb1280f1fed9060200160405180910390a3505061306a6001600255565b505050565b61307761363e565b6001600160a01b0381166130a157604051631e4fbdf760e01b815260006004820152602401610ab8565b6130aa8161366b565b50565b3360009081526001602052604090205460ff166131015760405162461bcd60e51b81526020600482015260126024820152712737ba1030b63637bbb2b21031b0b63632b960711b6044820152606401610ab8565b6012546001600160a01b031633811461315c5760405162461bcd60e51b815260206004820152601e60248201527f43616c6c6572206d7573742062652073797374656d20636f6e747261637400006044820152606401610ab8565b600f546040516310c791e560e11b81526001600160a01b038481166004830152600160248301529091169063218f23ca906044015b600060405180830381600087803b1580156131ab57600080fd5b505af11580156131bf573d6000803e3d6000fd5b505050505050565b6000816000036131d957506001919050565b61320963ffffffff7f00000000000000000000000000000000000000000000000000000000000000001683613ff9565b431192915050565b600280540361323357604051633ee5aeb560e01b815260040160405180910390fd5b60028055565b600380546001600160401b03169060006132528361429b565b825461010092830a6001600160401b03818102199092169282160291909117909255600060e085018190524391850191909152835182168152600760209081526040918290208551815467ffffffffffffffff1916941693909317835584015160018301558301516002820180546001600160a01b0319166001600160a01b03909216919091179055606083015183925060038201906132f29082614053565b50608082015160048201906133079082614053565b5060a0820151600582019061331c9082614053565b5060c082015160068281019190915560e083015160078301805460ff19169115159190911790556101008301516008830155610120909201516009909101556040828101516001600160a01b03166000908152602092909252812060020180546001929061338b9084906142be565b9091555050600480549060006133a0836142d1565b9091555050600f5460408281015190516310c791e560e11b81526001600160a01b0391821660048201526000602482015291169063218f23ca90604401600060405180830381600087803b1580156133f757600080fd5b505af115801561340b573d6000803e3d6000fd5b5050505050565b600e5460405163e838dfbb60e01b81526001600160a01b0383811660048301529091169063e838dfbb90602401602060405180830381865afa15801561345c573d6000803e3d6000fd5b505050506040513d601f19601f820116820180604052508101906134809190613f99565b156134885750565b6001600160a01b03811660009081526006602052604081206002015460048054919290916134b79084906142be565b9091555050600e54604051634acf78e960e11b81526001600160a01b0383811660048301529091169063959ef1d290602401600060405180830381600087803b15801561350357600080fd5b505af1158015613517573d6000803e3d6000fd5b5050600e5460405163158bdc5f60e11b81526001600160a01b038581166004830152600094509091169150632b17b8be90602401608060405180830381865afa158015613568573d6000803e3d6000fd5b505050506040513d601f19601f8201168201806040525081019061358c91906142e8565b60208101519091506001600160a01b03161561315c57600e546020820151604051636101bf2160e01b81526001600160a01b039182166004820152911690636101bf2190602401600060405180830381600087803b1580156135ed57600080fd5b505af1158015613601573d6000803e3d6000fd5b5050600f546040516310c791e560e11b81526001600160a01b03868116600483015260016024830152909116925063218f23ca9150604401613191565b6000546001600160a01b03163314611a9f5760405163118cdaa760e01b8152336004820152602401610ab8565b600080546001600160a01b038381166001600160a01b0319831681178455604051919092169283917f8be0079c531659141344cd1fd0a4f28419497f9722a3daafe3b4186f6b6457e09190a35050565b60405180610160016040528060006001600160401b0316815260200160006001600160a01b031681526020016060815260200161370b604051806040016040528060008152602001600081525090565b81526020016060815260200160008152602001600081526020016000815260200160008152602001600081526020016000151581525090565b6001600160a01b03811681146130aa57600080fd5b60006020828403121561376b57600080fd5b813561230581613744565b6001600160401b03811681146130aa57600080fd5b60006020828403121561379d57600080fd5b813561230581613776565b6000815180845260005b818110156137ce576020818501810151868301820152016137b2565b506000602082860101526020601f19601f83011685010191505092915050565b602081526001600160401b03825116602082015260018060a01b0360208301511660408201526000604083015160e060608401526138306101008401826137a8565b90506060840151601f1984830301608085015261384d82826137a8565b9150506080840151601f198483030160a085015261386b82826137a8565b91505060a084015160c084015260c084015160e08401528091505092915050565b634e487b7160e01b600052604160045260246000fd5b604051608081016001600160401b03811182821017156138c4576138c461388c565b60405290565b600082601f8301126138db57600080fd5b81356001600160401b038111156138f4576138f461388c565b604051601f8201601f19908116603f011681016001600160401b03811182821017156139225761392261388c565b60405281815283820160200185101561393a57600080fd5b816020850160208301376000918101602001919091529392505050565b6000806040838503121561396a57600080fd5b823561397581613776565b915060208301356001600160401b0381111561399057600080fd5b61399c858286016138ca565b9150509250929050565b600080600080608085870312156139bc57600080fd5b84356001600160401b038111156139d257600080fd5b6139de878288016138ca565b94505060208501356001600160401b038111156139fa57600080fd5b613a06878288016138ca565b93505060408501356001600160401b03811115613a2257600080fd5b613a2e878288016138ca565b949793965093946060013593505050565b60208152613a596020820183516001600160401b03169052565b6020820151604082015260006040830151613a7f60608401826001600160a01b03169052565b5060608301516101406080840152613a9b6101608401826137a8565b90506080840151601f198483030160a0850152613ab882826137a8565b91505060a0840151601f198483030160c0850152613ad682826137a8565b91505060c084015160e084015260e0840151613af761010085018215159052565b506101008401516101208401526101208401516101408401528091505092915050565b6001600160401b03881681526001600160a01b038716602082015260e060408201819052600090613b4d908301886137a8565b8281036060840152613b5f81886137a8565b90508281036080840152613b7381876137a8565b60a0840195909552505060c0015295945050505050565b60008060408385031215613b9d57600080fd5b8235613ba881613744565b946020939093013593505050565b600060208284031215613bc857600080fd5b5035919050565b6001600160401b038b16815289602082015260018060a01b038916604082015261014060608201526000613c0761014083018a6137a8565b8281036080840152613c19818a6137a8565b905082810360a0840152613c2d81896137a8565b60c0840197909752505092151560e0840152610100830191909152610120909101529695505050505050565b600080600060608486031215613c6e57600080fd5b83356001600160401b03811115613c8457600080fd5b613c90868287016138ca565b93505060208401356001600160401b03811115613cac57600080fd5b613cb8868287016138ca565b92505060408401356001600160401b03811115613cd457600080fd5b613ce0868287016138ca565b9150509250925092565b60006080828403128015613cfd57600080fd5b50613d066138a2565b8235613d1181613744565b81526020830135613d2181613744565b60208201526040830135613d3481613744565b60408201526060830135613d4781613744565b60608201529392505050565b600080600060608486031215613d6857600080fd5b505081359360208301359350604090920135919050565b602080825282518282018190526000918401906040840190835b81811015613db7578351835260209384019390920191600101613d99565b509095945050505050565b60008060408385031215613dd557600080fd5b82356001600160401b03811115613deb57600080fd5b613df7858286016138ca565b92505060208301356001600160401b0381111561399057600080fd5b6001600160401b03871681526001600160a01b038616602082015260c060408201819052600090613e46908301876137a8565b8281036060840152613e5881876137a8565b90508281036080840152613e6c81866137a8565b9150508260a0830152979650505050505050565b60208152613e9a6020820183516001600160401b03169052565b60006020830151613eb660408401826001600160a01b03169052565b5060408301516101806060840152613ed26101a08401826137a8565b606085015180516080860152602081015160a0860152909150506080840151838203601f190160c0850152613f0782826137a8565b91505060a084015160e084015260c084015161010084015260e0840151610120840152610100840151610140840152610120840151610160840152610140840151613f5761018085018215159052565b509392505050565b600181811c90821680613f7357607f821691505b602082108103613f9357634e487b7160e01b600052602260045260246000fd5b50919050565b600060208284031215613fab57600080fd5b8151801515811461230557600080fd5b6020808252600e908201526d4d6178206368617261637465727360901b604082015260600190565b634e487b7160e01b600052601160045260246000fd5b8082018082111561079c5761079c613fe3565b601f82111561306a57806000526020600020601f840160051c810160208510156140335750805b601f840160051c820191505b8181101561340b576000815560010161403f565b81516001600160401b0381111561406c5761406c61388c565b6140808161407a8454613f5f565b8461400c565b6020601f8211600181146140b4576000831561409c5750848201515b600019600385901b1c1916600184901b17845561340b565b600084815260208120601f198516915b828110156140e457878501518255602094850194600190920191016140c4565b50848210156141025786840151600019600387901b60f8161c191681555b50505050600190811b01905550565b60006020828403121561412357600080fd5b5051919050565b60208152600061230560208301846137a8565b6001600160401b038316815260406020820152600061415f60408301846137a8565b949350505050565b6008811061418557634e487b7160e01b600052602160045260246000fd5b9052565b604081016141978285614167565b6001600160a01b039290921660209190910152919050565b60208082526010908201526f4f6e6c7920726573656172636865727360801b604082015260600190565b6001600160401b03818116838216019081111561079c5761079c613fe3565b60006001600160401b0382166001600160401b03810361421a5761421a613fe3565b60010192915050565b60006001820161423557614235613fe3565b5060010190565b808202811582820484141761079c5761079c613fe3565b6020810161079c8284614167565b60006020828403121561427357600080fd5b815161230581613776565b6001600160a01b0383168152604081016123056020830184614167565b60006001600160401b038216806142b4576142b4613fe3565b6000190192915050565b8181038181111561079c5761079c613fe3565b6000816142e0576142e0613fe3565b506000190190565b600060808284031280156142fb57600080fd5b506143046138a2565b825161430f81613744565b8152602083015161431f81613744565b602082015260408301516008811061433657600080fd5b6040820152606092830151928101929092525091905056fea264697066735822122043c432d69089c55f7e08af8c675b9f3524177597c02b1c624316814cfdeaa73d64736f6c634300081b0033",
  "linkReferences": {},
  "deployedLinkReferences": {}
}