{
  "_format": "hh-sol-artifact-1",
  "contractName": "ResearcherRules",
  "sourceName": "contracts/ResearcherRules.sol",
  "abi": [
    {
      "inputs": [
        {
          "internalType": "uint32",
          "name": "timeBetweenWorks_",
          "type": "uint32"
        },
        {
          "internalType": "uint8",
          "name": "maxPenalties_",
          "type": "uint8"
        },
        {
          "internalType": "uint32",
          "name": "securityBlocksToValidation_",
          "type": "uint32"
        }
      ],
      "stateMutability": "nonpayable",
      "type": "constructor"
    },
    {
      "anonymous": false,
      "inputs": [
        {
          "indexed": true,
          "internalType": "address",
          "name": "previousOwner",
          "type": "address"
        },
        {
          "indexed": true,
          "internalType": "address",
          "name": "newOwner",
          "type": "address"
        }
      ],
      "name": "OwnershipTransferred",
      "type": "event"
    },
    {
      "anonymous": false,
      "inputs": [
        {
          "indexed": true,
          "internalType": "uint256",
          "name": "researchId",
          "type": "uint256"
        },
        {
          "indexed": true,
          "internalType": "address",
          "name": "invalidatedBy",
          "type": "address"
        },
        {
          "indexed": false,
          "internalType": "string",
          "name": "justification",
          "type": "string"
        }
      ],
      "name": "ResearchInvalidated",
      "type": "event"
    },
    {
      "anonymous": false,
      "inputs": [
        {
          "indexed": true,
          "internalType": "uint256",
          "name": "researchId",
          "type": "uint256"
        },
        {
          "indexed": true,
          "internalType": "address",
          "name": "researcher",
          "type": "address"
        },
        {
          "indexed": false,
          "internalType": "uint256",
          "name": "publishedAt",
          "type": "uint256"
        }
      ],
      "name": "ResearchPublished",
      "type": "event"
    },
    {
      "anonymous": false,
      "inputs": [
        {
          "indexed": true,
          "internalType": "address",
          "name": "researcherAddress",
          "type": "address"
        },
        {
          "indexed": false,
          "internalType": "uint256",
          "name": "researcherId",
          "type": "uint256"
        },
        {
          "indexed": false,
          "internalType": "string",
          "name": "name",
          "type": "string"
        }
      ],
      "name": "ResearcherRegistered",
      "type": "event"
    },
    {
      "inputs": [],
      "name": "INITIAL_USER_COUNT_THRESHOLD",
      "outputs": [
        {
          "internalType": "uint256",
          "name": "",
          "type": "uint256"
        }
      ],
      "stateMutability": "view",
      "type": "function"
    },
    {
      "inputs": [],
      "name": "MAX_USER_COUNT",
      "outputs": [
        {
          "internalType": "uint16",
          "name": "",
          "type": "uint16"
        }
      ],
      "stateMutability": "view",
      "type": "function"
    },
    {
      "inputs": [
        {
          "internalType": "string",
          "name": "item",
          "type": "string"
        },
        {
          "internalType": "string",
          "name": "thesis",
          "type": "string"
        },
        {
          "internalType": "string",
          "name": "unit",
          "type": "string"
        },
        {
          "internalType": "uint256",
          "name": "carbonImpact",
          "type": "uint256"
        }
      ],
      "name": "addCalculatorItem",
      "outputs": [],
      "stateMutability": "nonpayable",
      "type": "function"
    },
    {
      "inputs": [
        {
          "internalType": "string",
          "name": "title",
          "type": "string"
        },
        {
          "internalType": "string",
          "name": "research",
          "type": "string"
        },
        {
          "internalType": "string",
          "name": "projectURL",
          "type": "string"
        }
      ],
      "name": "addEvaluationMethod",
      "outputs": [],
      "stateMutability": "nonpayable",
      "type": "function"
    },
    {
      "inputs": [
        {
          "internalType": "address",
          "name": "addr",
          "type": "address"
        },
        {
          "internalType": "uint64",
          "name": "researchId",
          "type": "uint64"
        }
      ],
      "name": "addPenalty",
      "outputs": [
        {
          "internalType": "uint256",
          "name": "",
          "type": "uint256"
        }
      ],
      "stateMutability": "nonpayable",
      "type": "function"
    },
    {
      "inputs": [
        {
          "internalType": "string",
          "name": "title",
          "type": "string"
        },
        {
          "internalType": "string",
          "name": "thesis",
          "type": "string"
        },
        {
          "internalType": "string",
          "name": "file",
          "type": "string"
        }
      ],
      "name": "addResearch",
      "outputs": [],
      "stateMutability": "nonpayable",
      "type": "function"
    },
    {
      "inputs": [
        {
          "internalType": "uint64",
          "name": "id",
          "type": "uint64"
        },
        {
          "internalType": "string",
          "name": "justification",
          "type": "string"
        }
      ],
      "name": "addResearchValidation",
      "outputs": [],
      "stateMutability": "nonpayable",
      "type": "function"
    },
    {
      "inputs": [
        {
          "internalType": "string",
          "name": "name",
          "type": "string"
        },
        {
          "internalType": "string",
          "name": "proofPhoto",
          "type": "string"
        }
      ],
      "name": "addResearcher",
      "outputs": [],
      "stateMutability": "nonpayable",
      "type": "function"
    },
    {
      "inputs": [
        {
          "internalType": "address",
          "name": "",
          "type": "address"
        }
      ],
      "name": "allowedCallers",
      "outputs": [
        {
          "internalType": "bool",
          "name": "",
          "type": "bool"
        }
      ],
      "stateMutability": "view",
      "type": "function"
    },
    {
      "inputs": [
        {
          "internalType": "uint64",
          "name": "",
          "type": "uint64"
        }
      ],
      "name": "calculatorItems",
      "outputs": [
        {
          "internalType": "uint64",
          "name": "id",
          "type": "uint64"
        },
        {
          "internalType": "address",
          "name": "createdBy",
          "type": "address"
        },
        {
          "internalType": "string",
          "name": "item",
          "type": "string"
        },
        {
          "internalType": "string",
          "name": "thesis",
          "type": "string"
        },
        {
          "internalType": "string",
          "name": "unit",
          "type": "string"
        },
        {
          "internalType": "uint256",
          "name": "carbonImpact",
          "type": "uint256"
        }
      ],
      "stateMutability": "view",
      "type": "function"
    },
    {
      "inputs": [],
      "name": "calculatorItemsCount",
      "outputs": [
        {
          "internalType": "uint64",
          "name": "",
          "type": "uint64"
        }
      ],
      "stateMutability": "view",
      "type": "function"
    },
    {
      "inputs": [
        {
          "internalType": "uint256",
          "name": "totalLevels",
          "type": "uint256"
        },
        {
          "internalType": "uint256",
          "name": "totalUsers",
          "type": "uint256"
        },
        {
          "internalType": "uint256",
          "name": "userLevels",
          "type": "uint256"
        }
      ],
      "name": "canInvite",
      "outputs": [
        {
          "internalType": "bool",
          "name": "",
          "type": "bool"
        }
      ],
      "stateMutability": "pure",
      "type": "function"
    },
    {
      "inputs": [
        {
          "internalType": "address",
          "name": "addr",
          "type": "address"
        }
      ],
      "name": "canPublishCalculatorItem",
      "outputs": [
        {
          "internalType": "bool",
          "name": "",
          "type": "bool"
        }
      ],
      "stateMutability": "view",
      "type": "function"
    },
    {
      "inputs": [
        {
          "internalType": "address",
          "name": "addr",
          "type": "address"
        }
      ],
      "name": "canPublishResearch",
      "outputs": [
        {
          "internalType": "bool",
          "name": "",
          "type": "bool"
        }
      ],
      "stateMutability": "view",
      "type": "function"
    },
    {
      "inputs": [
        {
          "internalType": "address",
          "name": "addr",
          "type": "address"
        }
      ],
      "name": "canSendInvite",
      "outputs": [
        {
          "internalType": "bool",
          "name": "",
          "type": "bool"
        }
      ],
      "stateMutability": "view",
      "type": "function"
    },
    {
      "inputs": [
        {
          "internalType": "uint256",
          "name": "",
          "type": "uint256"
        }
      ],
      "name": "evaluationMethods",
      "outputs": [
        {
          "internalType": "uint64",
          "name": "id",
          "type": "uint64"
        },
        {
          "internalType": "address",
          "name": "createdBy",
          "type": "address"
        },
        {
          "internalType": "string",
          "name": "title",
          "type": "string"
        },
        {
          "internalType": "string",
          "name": "research",
          "type": "string"
        },
        {
          "internalType": "string",
          "name": "projectURL",
          "type": "string"
        }
      ],
      "stateMutability": "view",
      "type": "function"
    },
    {
      "inputs": [],
      "name": "evaluationMethodsCount",
      "outputs": [
        {
          "internalType": "uint64",
          "name": "",
          "type": "uint64"
        }
      ],
      "stateMutability": "view",
      "type": "function"
    },
    {
      "inputs": [
        {
          "internalType": "uint64",
          "name": "id",
          "type": "uint64"
        }
      ],
      "name": "getCalculatorItem",
      "outputs": [
        {
          "components": [
            {
              "internalType": "uint64",
              "name": "id",
              "type": "uint64"
            },
            {
              "internalType": "address",
              "name": "createdBy",
              "type": "address"
            },
            {
              "internalType": "string",
              "name": "item",
              "type": "string"
            },
            {
              "internalType": "string",
              "name": "thesis",
              "type": "string"
            },
            {
              "internalType": "string",
              "name": "unit",
              "type": "string"
            },
            {
              "internalType": "uint256",
              "name": "carbonImpact",
              "type": "uint256"
            }
          ],
          "internalType": "struct CalculatorItem",
          "name": "",
          "type": "tuple"
        }
      ],
      "stateMutability": "view",
      "type": "function"
    },
    {
      "inputs": [
        {
          "internalType": "uint64",
          "name": "id",
          "type": "uint64"
        }
      ],
      "name": "getResearch",
      "outputs": [
        {
          "components": [
            {
              "internalType": "uint64",
              "name": "id",
              "type": "uint64"
            },
            {
              "internalType": "uint256",
              "name": "era",
              "type": "uint256"
            },
            {
              "internalType": "address",
              "name": "createdBy",
              "type": "address"
            },
            {
              "internalType": "string",
              "name": "title",
              "type": "string"
            },
            {
              "internalType": "string",
              "name": "thesis",
              "type": "string"
            },
            {
              "internalType": "string",
              "name": "file",
              "type": "string"
            },
            {
              "internalType": "uint256",
              "name": "validationsCount",
              "type": "uint256"
            },
            {
              "internalType": "bool",
              "name": "valid",
              "type": "bool"
            },
            {
              "internalType": "uint256",
              "name": "invalidatedAt",
              "type": "uint256"
            },
            {
              "internalType": "uint256",
              "name": "createdAtBlock",
              "type": "uint256"
            }
          ],
          "internalType": "struct Research",
          "name": "",
          "type": "tuple"
        }
      ],
      "stateMutability": "view",
      "type": "function"
    },
    {
      "inputs": [
        {
          "internalType": "address",
          "name": "addr",
          "type": "address"
        }
      ],
      "name": "getResearcher",
      "outputs": [
        {
          "components": [
            {
              "internalType": "uint64",
              "name": "id",
              "type": "uint64"
            },
            {
              "internalType": "address",
              "name": "researcherWallet",
              "type": "address"
            },
            {
              "internalType": "string",
              "name": "name",
              "type": "string"
            },
            {
              "components": [
                {
                  "internalType": "uint256",
                  "name": "level",
                  "type": "uint256"
                },
                {
                  "internalType": "uint256",
                  "name": "currentEra",
                  "type": "uint256"
                }
              ],
              "internalType": "struct Pool",
              "name": "pool",
              "type": "tuple"
            },
            {
              "internalType": "string",
              "name": "proofPhoto",
              "type": "string"
            },
            {
              "internalType": "uint256",
              "name": "publishedResearches",
              "type": "uint256"
            },
            {
              "internalType": "uint256",
              "name": "lastPublishedAt",
              "type": "uint256"
            },
            {
              "internalType": "uint256",
              "name": "publishedItems",
              "type": "uint256"
            },
            {
              "internalType": "uint256",
              "name": "lastCalculatorItemAt",
              "type": "uint256"
            },
            {
              "internalType": "uint256",
              "name": "createdAt",
              "type": "uint256"
            },
            {
              "internalType": "bool",
              "name": "canPublishMethod",
              "type": "bool"
            }
          ],
          "internalType": "struct Researcher",
          "name": "",
          "type": "tuple"
        }
      ],
      "stateMutability": "view",
      "type": "function"
    },
    {
      "inputs": [
        {
          "internalType": "address",
          "name": "caller",
          "type": "address"
        }
      ],
      "name": "isAllowedCaller",
      "outputs": [
        {
          "internalType": "bool",
          "name": "",
          "type": "bool"
        }
      ],
      "stateMutability": "view",
      "type": "function"
    },
    {
      "inputs": [],
      "name": "maxPenalties",
      "outputs": [
        {
          "internalType": "uint8",
          "name": "",
          "type": "uint8"
        }
      ],
      "stateMutability": "view",
      "type": "function"
    },
    {
      "inputs": [
        {
          "internalType": "address",
          "name": "allowed",
          "type": "address"
        }
      ],
      "name": "newAllowedCaller",
      "outputs": [],
      "stateMutability": "nonpayable",
      "type": "function"
    },
    {
      "inputs": [],
      "name": "nextEraIn",
      "outputs": [
        {
          "internalType": "uint256",
          "name": "",
          "type": "uint256"
        }
      ],
      "stateMutability": "view",
      "type": "function"
    },
    {
      "inputs": [],
      "name": "owner",
      "outputs": [
        {
          "internalType": "address",
          "name": "",
          "type": "address"
        }
      ],
      "stateMutability": "view",
      "type": "function"
    },
    {
      "inputs": [
        {
          "internalType": "address",
          "name": "",
          "type": "address"
        },
        {
          "internalType": "uint256",
          "name": "",
          "type": "uint256"
        }
      ],
      "name": "penalties",
      "outputs": [
        {
          "internalType": "uint256",
          "name": "researchId",
          "type": "uint256"
        }
      ],
      "stateMutability": "view",
      "type": "function"
    },
    {
      "inputs": [],
      "name": "poolCurrentEra",
      "outputs": [
        {
          "internalType": "uint256",
          "name": "",
          "type": "uint256"
        }
      ],
      "stateMutability": "view",
      "type": "function"
    },
    {
      "inputs": [
        {
          "internalType": "address",
          "name": "addr",
          "type": "address"
        },
        {
          "internalType": "uint256",
          "name": "levelsToRemove",
          "type": "uint256"
        }
      ],
      "name": "removePoolLevels",
      "outputs": [],
      "stateMutability": "nonpayable",
      "type": "function"
    },
    {
      "inputs": [],
      "name": "renounceOwnership",
      "outputs": [],
      "stateMutability": "nonpayable",
      "type": "function"
    },
    {
      "inputs": [
        {
          "internalType": "uint256",
          "name": "",
          "type": "uint256"
        }
      ],
      "name": "researchersAddress",
      "outputs": [
        {
          "internalType": "address",
          "name": "",
          "type": "address"
        }
      ],
      "stateMutability": "view",
      "type": "function"
    },
    {
      "inputs": [
        {
          "internalType": "uint256",
          "name": "",
          "type": "uint256"
        }
      ],
      "name": "researches",
      "outputs": [
        {
          "internalType": "uint64",
          "name": "id",
          "type": "uint64"
        },
        {
          "internalType": "uint256",
          "name": "era",
          "type": "uint256"
        },
        {
          "internalType": "address",
          "name": "createdBy",
          "type": "address"
        },
        {
          "internalType": "string",
          "name": "title",
          "type": "string"
        },
        {
          "internalType": "string",
          "name": "thesis",
          "type": "string"
        },
        {
          "internalType": "string",
          "name": "file",
          "type": "string"
        },
        {
          "internalType": "uint256",
          "name": "validationsCount",
          "type": "uint256"
        },
        {
          "internalType": "bool",
          "name": "valid",
          "type": "bool"
        },
        {
          "internalType": "uint256",
          "name": "invalidatedAt",
          "type": "uint256"
        },
        {
          "internalType": "uint256",
          "name": "createdAtBlock",
          "type": "uint256"
        }
      ],
      "stateMutability": "view",
      "type": "function"
    },
    {
      "inputs": [],
      "name": "researchesCount",
      "outputs": [
        {
          "internalType": "uint64",
          "name": "",
          "type": "uint64"
        }
      ],
      "stateMutability": "view",
      "type": "function"
    },
    {
      "inputs": [
        {
          "internalType": "address",
          "name": "",
          "type": "address"
        },
        {
          "internalType": "uint256",
          "name": "",
          "type": "uint256"
        }
      ],
      "name": "researchesIds",
      "outputs": [
        {
          "internalType": "uint256",
          "name": "",
          "type": "uint256"
        }
      ],
      "stateMutability": "view",
      "type": "function"
    },
    {
      "inputs": [],
      "name": "researchesTotalCount",
      "outputs": [
        {
          "internalType": "uint64",
          "name": "",
          "type": "uint64"
        }
      ],
      "stateMutability": "view",
      "type": "function"
    },
    {
      "inputs": [],
      "name": "securityBlocksToValidation",
      "outputs": [
        {
          "internalType": "uint32",
          "name": "",
          "type": "uint32"
        }
      ],
      "stateMutability": "view",
      "type": "function"
    },
    {
      "inputs": [
        {
          "internalType": "address",
          "name": "_validationRulesAddress",
          "type": "address"
        }
      ],
      "name": "setContractCall",
      "outputs": [],
      "stateMutability": "nonpayable",
      "type": "function"
    },
    {
      "inputs": [
        {
          "components": [
            {
              "internalType": "address",
              "name": "communityRulesAddress",
              "type": "address"
            },
            {
              "internalType": "address",
              "name": "researcherPoolAddress",
              "type": "address"
            },
            {
              "internalType": "address",
              "name": "validationRulesAddress",
              "type": "address"
            },
            {
              "internalType": "address",
              "name": "voteRulesAddress",
              "type": "address"
            }
          ],
          "internalType": "struct ContractsDependency",
          "name": "contractDependency",
          "type": "tuple"
        }
      ],
      "name": "setContractInterfaces",
      "outputs": [],
      "stateMutability": "nonpayable",
      "type": "function"
    },
    {
      "inputs": [],
      "name": "timeBetweenWorks",
      "outputs": [
        {
          "internalType": "uint32",
          "name": "",
          "type": "uint32"
        }
      ],
      "stateMutability": "view",
      "type": "function"
    },
    {
      "inputs": [
        {
          "internalType": "address",
          "name": "addr",
          "type": "address"
        }
      ],
      "name": "totalPenalties",
      "outputs": [
        {
          "internalType": "uint256",
          "name": "",
          "type": "uint256"
        }
      ],
      "stateMutability": "view",
      "type": "function"
    },
    {
      "inputs": [
        {
          "internalType": "address",
          "name": "newOwner",
          "type": "address"
        }
      ],
      "name": "transferOwnership",
      "outputs": [],
      "stateMutability": "nonpayable",
      "type": "function"
    },
    {
      "inputs": [],
      "name": "withdraw",
      "outputs": [],
      "stateMutability": "nonpayable",
      "type": "function"
    }
  ],
  "bytecode": "0x60e060405234801561001057600080fd5b506040516140c23803806140c283398101604081905261002f916100c2565b61003833610059565b600160025563ffffffff92831660a05260ff9091166080521660c05261010d565b600080546001600160a01b038381166001600160a01b0319831681178455604051919092169283917f8be0079c531659141344cd1fd0a4f28419497f9722a3daafe3b4186f6b6457e09190a35050565b805163ffffffff811681146100bd57600080fd5b919050565b6000806000606084860312156100d757600080fd5b6100e0846100a9565b9250602084015160ff811681146100f657600080fd5b9150610104604085016100a9565b90509250925092565b60805160a05160c051613f7861014a600039600081816103830152612c060152600081816104830152613059015260006105b40152613f786000f3fe608060405234801561001057600080fd5b50600436106102535760003560e01c80636ec7053a11610146578063b1e86655116100c3578063be9dc58411610087578063be9dc58414610648578063c77c1ce614610650578063e05cf15514610663578063e7eba4c21461066b578063e8a6a9221461068b578063f2fde38b1461069e57600080fd5b8063b1e866551461059c578063b24eb769146105af578063b702523b146105e8578063b932c8b7146105fb578063be18bc801461062457600080fd5b80637c647a621161010a5780637c647a62146105125780638da5cb5b146105255780638f93716f1461054a5780639eaf666f1461055d578063a68012581461057057600080fd5b80636ec7053a146104a5578063715018a6146104c157806372e2e6cc146104c9578063755d4f97146104dc5780637b334154146104ef57600080fd5b80633ccfd60b116101d45780635a52293a116101985780635a52293a1461041c5780635f7d07041461042f5780635fa71c28146104585780636750d5231461046b5780636b6c7c2d1461047e57600080fd5b80633ccfd60b146103ba578063406458f2146103c25780634714b572146103d557806352d3ea9d146103fa578063582256f11461041457600080fd5b80632076267b1161021b5780632076267b1461030157806320d81713146103385780633270f4ad1461034b57806332980c9b1461035e57806335c116771461037e57600080fd5b80630884a672146102585780630eaf485c1461028057806311868d0b146102b257806318ad5c9a146102d25780631f701ee0146102e7575b600080fd5b61026b6102663660046133be565b6106b1565b60405190151581526020015b60405180910390f35b60035461029a90600160801b90046001600160401b031681565b6040516001600160401b039091168152602001610277565b6102c56102c03660046133ee565b6106dc565b6040516102779190613451565b6102e56102e03660046134e4565b610936565b005b60035461029a90600160c01b90046001600160401b031681565b61032a61030f3660046133be565b6001600160a01b031660009081526009602052604090205490565b604051908152602001610277565b6102e56103463660046135b1565b610c72565b6102e5610359366004613600565b6112c3565b61037161036c3660046133ee565b611530565b604051610277919061375e565b6103a57f000000000000000000000000000000000000000000000000000000000000000081565b60405163ffffffff9091168152602001610277565b6102e5611775565b60035461029a906001600160401b031681565b6103e86103e33660046133ee565b611977565b60405161027796959493929190613771565b60035461029a90600160401b90046001600160401b031681565b61032a611b5a565b61032a61042a3660046134e4565b611bda565b61044261043d3660046137de565b611c0b565b6040516102779a999897969594939291906137f7565b61032a6104663660046134e4565b611e0b565b61026b6104793660046133be565b611e3a565b6103a57f000000000000000000000000000000000000000000000000000000000000000081565b6104ae613e8081565b60405161ffff9091168152602001610277565b6102e5611e5f565b6102e56104d7366004613881565b611e71565b6102e56104ea3660046133be565b6120d5565b61026b6104fd3660046133be565b60016020526000908152604090205460ff1681565b6102e5610520366004613912565b6120ff565b6000546001600160a01b03165b6040516001600160a01b039091168152602001610277565b6102e56105583660046133be565b612164565b61026b61056b366004613990565b612193565b61026b61057e3660046133be565b6001600160a01b031660009081526001602052604090205460ff1690565b61032a6105aa3660046139bc565b6121ca565b6105d67f000000000000000000000000000000000000000000000000000000000000000081565b60405160ff9091168152602001610277565b6102e56105f63660046139f3565b6122ce565b6105326106093660046137de565b600a602052600090815260409020546001600160a01b031681565b6106376106323660046137de565b61265a565b604051610277959493929190613a44565b61032a600581565b61026b61065e3660046133be565b612837565b61032a6128fe565b61067e6106793660046133be565b612948565b6040516102779190613aa9565b6102e5610699366004613881565b612b2d565b6102e56106ac3660046133be565b612fc4565b6001600160a01b0381166000908152600460205260408120600601546106d69061303d565b92915050565b6107276040518060c0016040528060006001600160401b0316815260200160006001600160a01b03168152602001606081526020016060815260200160608152602001600081525090565b6001600160401b03828116600090815260076020908152604091829020825160c08101845281549485168152600160401b9094046001600160a01b031691840191909152600181018054919284019161077f90613b88565b80601f01602080910402602001604051908101604052809291908181526020018280546107ab90613b88565b80156107f85780601f106107cd576101008083540402835291602001916107f8565b820191906000526020600020905b8154815290600101906020018083116107db57829003601f168201915b5050505050815260200160028201805461081190613b88565b80601f016020809104026020016040519081016040528092919081815260200182805461083d90613b88565b801561088a5780601f1061085f5761010080835404028352916020019161088a565b820191906000526020600020905b81548152906001019060200180831161086d57829003601f168201915b505050505081526020016003820180546108a390613b88565b80601f01602080910402602001604051908101604052809291908181526020018280546108cf90613b88565b801561091c5780601f106108f15761010080835404028352916020019161091c565b820191906000526020600020905b8154815290600101906020018083116108ff57829003601f168201915b505050505081526020016004820154815250509050919050565b3360009081526001602052604090205460ff1661098f5760405162461bcd60e51b81526020600482015260126024820152712737ba1030b63637bbb2b21031b0b63632b960711b60448201526064015b60405180910390fd5b600f546001600160a01b03163381146109ea5760405162461bcd60e51b815260206004820152601e60248201527f43616c6c6572206d7573742062652073797374656d20636f6e747261637400006044820152606401610986565b6001600160a01b03808416600090815260046020908152604080832081516101608101835281546001600160401b0381168252600160401b90049095169285019290925260018201805493949391840191610a4490613b88565b80601f0160208091040260200160405190810160405280929190818152602001828054610a7090613b88565b8015610abd5780601f10610a9257610100808354040283529160200191610abd565b820191906000526020600020905b815481529060010190602001808311610aa057829003601f168201915b5050505050815260200160028201604051806040016040529081600082015481526020016001820154815250508152602001600482018054610afe90613b88565b80601f0160208091040260200160405190810160405280929190818152602001828054610b2a90613b88565b8015610b775780601f10610b4c57610100808354040283529160200191610b77565b820191906000526020600020905b815481529060010190602001808311610b5a57829003601f168201915b505050918352505060058201546020820152600682015460408201526007820154606082015260088201546080820152600982015460a0820152600a9091015460ff16151560c090910152905082610bd457606081015151610bd6565b825b6001600160a01b03851660009081526004602052604081206002018054909190610c01908490613bd8565b9091555050600c54604051630c56ae4d60e11b81526001600160a01b03868116600483015260248201869052909116906318ad5c9a90604401600060405180830381600087803b158015610c5457600080fd5b505af1158015610c68573d6000803e3d6000fd5b5050505050505050565b610c7a613087565b805161012c1015610c9d5760405162461bcd60e51b815260040161098690613beb565b600e546040516356fd539760e11b81523360048201526001600160a01b039091169063adfaa72e90602401602060405180830381865afa158015610ce5573d6000803e3d6000fd5b505050506040513d601f19601f82011682018060405250810190610d099190613c13565b610d435760405162461bcd60e51b815260206004820152600b60248201526a2737ba1030903b37ba32b960a91b6044820152606401610986565b600d54604051630d84466b60e21b81523360048201526001600160a01b039091169063361119ac90602401602060405180830381865afa158015610d8b573d6000803e3d6000fd5b505050506040513d601f19601f82011682018060405250810190610daf9190613c13565b610df35760405162461bcd60e51b8152602060048201526015602482015274576169742074696d654265747765656e566f74657360581b6044820152606401610986565b6001600160401b0380831660009081526005602090815260408083208151610140810183528154909516855260018101549285019290925260028201546001600160a01b031690840152600381018054929392606084019190610e5590613b88565b80601f0160208091040260200160405190810160405280929190818152602001828054610e8190613b88565b8015610ece5780601f10610ea357610100808354040283529160200191610ece565b820191906000526020600020905b815481529060010190602001808311610eb157829003601f168201915b50505050508152602001600482018054610ee790613b88565b80601f0160208091040260200160405190810160405280929190818152602001828054610f1390613b88565b8015610f605780601f10610f3557610100808354040283529160200191610f60565b820191906000526020600020905b815481529060010190602001808311610f4357829003601f168201915b50505050508152602001600582018054610f7990613b88565b80601f0160208091040260200160405190810160405280929190818152602001828054610fa590613b88565b8015610ff25780601f10610fc757610100808354040283529160200191610ff2565b820191906000526020600020905b815481529060010190602001808311610fd557829003601f168201915b505050918352505060068201546020820152600782015460ff16151560408201526008820154606082015260099091015460809091015260e08101519091508015611047575080602001516110456128fe565b145b6110885760405162461bcd60e51b815260206004820152601260248201527114995cd9585c98da081b9bdd08159053125160721b6044820152606401610986565b60018160c00181815161109b9190613c35565b9052506001600160401b038381166000908152600560209081526040918290208451815467ffffffffffffffff1916941693909317835583015160018301558201516002820180546001600160a01b0319166001600160a01b03909216919091179055606082015182919060038201906111159082613c96565b506080820151600482019061112a9082613c96565b5060a0820151600582019061113f9082613c96565b5060c0820151600682015560e082015160078201805460ff1916911515919091179055610100820151600882015561012090910151600990910155600d54604080516369bf81c360e01b815290516000926001600160a01b0316916369bf81c39160048083019260209291908290030181865afa1580156111c4573d6000803e3d6000fd5b505050506040513d601f19601f820116820180604052508101906111e89190613d54565b60c0830151108015915061124d576111ff826130de565b9150336001600160a01b0316846001600160401b03167fec82afd035df5f6da576aafb10163adedd64aa9955e7843369f1151fe7bcc627856040516112449190613d6d565b60405180910390a35b600d5460405163513d5dfd60e01b81526001600160a01b039091169063513d5dfd9061128190859087903390600401613d80565b600060405180830381600087803b15801561129b57600080fd5b505af11580156112af573d6000803e3d6000fd5b5050505050506112bf6001600255565b5050565b83516023108015906112d85750825161012c10155b80156112e657508151601410155b6113025760405162461bcd60e51b815260040161098690613beb565b600b54604051631292f8c160e31b81526001600160a01b0390911690639497c60890611335906003903390600401613de0565b602060405180830381865afa158015611352573d6000803e3d6000fd5b505050506040513d601f19601f820116820180604052508101906113769190613c13565b6113925760405162461bcd60e51b815260040161098690613e06565b61139b33611e3a565b6113db5760405162461bcd60e51b815260206004820152601160248201527010d85b89dd081c1d589b1a5cda081e595d607a1b6044820152606401610986565b6003546000906113fc90600160801b90046001600160401b03166001613e30565b6040805160c0810182526001600160401b038084168083523360208085019182528486018c8152606086018c9052608086018b905260a086018a905260009384526007909152949091208351815492516001600160a01b0316600160401b026001600160e01b031990931693169290921717815591519293509160018201906114859082613c96565b506060820151600282019061149a9082613c96565b50608082015160038201906114af9082613c96565b5060a0919091015160049091015560038054600160801b90046001600160401b03169060106114dd83613e4f565b82546001600160401b039182166101009390930a92830291909202199091161790555033600090815260046020526040812043600882015560070180549161152483613e7a565b91905055505050505050565b6115386132b2565b6001600160401b038083166000908152600560209081526040918290208251610140810184528154909416845260018101549184019190915260028101546001600160a01b03169183019190915260038101805460608401919061159b90613b88565b80601f01602080910402602001604051908101604052809291908181526020018280546115c790613b88565b80156116145780601f106115e957610100808354040283529160200191611614565b820191906000526020600020905b8154815290600101906020018083116115f757829003601f168201915b5050505050815260200160048201805461162d90613b88565b80601f016020809104026020016040519081016040528092919081815260200182805461165990613b88565b80156116a65780601f1061167b576101008083540402835291602001916116a6565b820191906000526020600020905b81548152906001019060200180831161168957829003601f168201915b505050505081526020016005820180546116bf90613b88565b80601f01602080910402602001604051908101604052809291908181526020018280546116eb90613b88565b80156117385780601f1061170d57610100808354040283529160200191611738565b820191906000526020600020905b81548152906001019060200180831161171b57829003601f168201915b505050918352505060068201546020820152600782015460ff16151560408201526008820154606082015260099091015460809091015292915050565b61177d613087565b600b54604051631292f8c160e31b81526001600160a01b0390911690639497c608906117b0906003903390600401613de0565b602060405180830381865afa1580156117cd573d6000803e3d6000fd5b505050506040513d601f19601f820116820180604052508101906117f19190613c13565b61180d5760405162461bcd60e51b815260040161098690613e06565b336000908152600460208190526040918290206003810154600c549351637df42f8360e11b8152928301819052909290916001600160a01b039091169063fbe85f0690602401602060405180830381865afa158015611870573d6000803e3d6000fd5b505050506040513d601f19601f820116820180604052508101906118949190613c13565b6118ee5760405162461bcd60e51b815260206004820152602560248201527f4e6f7420656c696769626c6520746f20776974686472617720666f7220746869604482015264732065726160d81b6064820152608401610986565b60038201805490600061190083613e7a565b9091555050600c5460405163f3fef3a360e01b8152336004820152602481018390526001600160a01b039091169063f3fef3a390604401600060405180830381600087803b15801561195157600080fd5b505af1158015611965573d6000803e3d6000fd5b5050505050506119756001600255565b565b600760205260009081526040902080546001820180546001600160401b03831693600160401b9093046001600160a01b03169291906119b590613b88565b80601f01602080910402602001604051908101604052809291908181526020018280546119e190613b88565b8015611a2e5780601f10611a0357610100808354040283529160200191611a2e565b820191906000526020600020905b815481529060010190602001808311611a1157829003601f168201915b505050505090806002018054611a4390613b88565b80601f0160208091040260200160405190810160405280929190818152602001828054611a6f90613b88565b8015611abc5780601f10611a9157610100808354040283529160200191611abc565b820191906000526020600020905b815481529060010190602001808311611a9f57829003601f168201915b505050505090806003018054611ad190613b88565b80601f0160208091040260200160405190810160405280929190818152602001828054611afd90613b88565b8015611b4a5780601f10611b1f57610100808354040283529160200191611b4a565b820191906000526020600020905b815481529060010190602001808311611b2d57829003601f168201915b5050505050908060040154905086565b600c546000906001600160a01b031663d5ee3eb5611b766128fe565b6040518263ffffffff1660e01b8152600401611b9491815260200190565b602060405180830381865afa158015611bb1573d6000803e3d6000fd5b505050506040513d601f19601f82011682018060405250810190611bd59190613d54565b905090565b60066020528160005260406000208181548110611bf657600080fd5b90600052602060002001600091509150505481565b60056020526000908152604090208054600182015460028301546003840180546001600160401b039094169492936001600160a01b039092169291611c4f90613b88565b80601f0160208091040260200160405190810160405280929190818152602001828054611c7b90613b88565b8015611cc85780601f10611c9d57610100808354040283529160200191611cc8565b820191906000526020600020905b815481529060010190602001808311611cab57829003601f168201915b505050505090806004018054611cdd90613b88565b80601f0160208091040260200160405190810160405280929190818152602001828054611d0990613b88565b8015611d565780601f10611d2b57610100808354040283529160200191611d56565b820191906000526020600020905b815481529060010190602001808311611d3957829003601f168201915b505050505090806005018054611d6b90613b88565b80601f0160208091040260200160405190810160405280929190818152602001828054611d9790613b88565b8015611de45780601f10611db957610100808354040283529160200191611de4565b820191906000526020600020905b815481529060010190602001808311611dc757829003601f168201915b505050506006830154600784015460088501546009909501549394919360ff90911692508a565b60096020528160005260406000208181548110611e2757600080fd5b6000918252602090912001549150829050565b6001600160a01b0381166000908152600460205260408120600801546106d69061303d565b611e67613208565b6119756000613262565b8251606410801590611e865750815161012c10155b8015611e9457508051609610155b611eb05760405162461bcd60e51b815260040161098690613beb565b600b54604051631292f8c160e31b81526001600160a01b0390911690639497c60890611ee3906003903390600401613de0565b602060405180830381865afa158015611f00573d6000803e3d6000fd5b505050506040513d601f19601f82011682018060405250810190611f249190613c13565b611f405760405162461bcd60e51b815260040161098690613e06565b336000908152600460205260409020600a015460ff16611fa25760405162461bcd60e51b815260206004820152601760248201527f4f6e6c79206f6e65206d6574686f6420616c6c6f7765640000000000000000006044820152606401610986565b600354600090611fc390600160c01b90046001600160401b03166001613e30565b6040805160a0810182526001600160401b038084168083523360208085019182528486018b8152606086018b9052608086018a905260009384526008909152949091208351815492516001600160a01b0316600160401b026001600160e01b031990931693169290921717815591519293509160018201906120459082613c96565b506060820151600282019061205a9082613c96565b506080820151600382019061206f9082613c96565b505060038054600160c01b90046001600160401b03169150601861209283613e4f565b82546001600160401b039182166101009390930a92830291909202199091161790555050336000908152600460205260409020600a01805460ff19169055505050565b6120dd613208565b600f80546001600160a01b0319166001600160a01b0392909216919091179055565b612107613208565b8051600b80546001600160a01b03199081166001600160a01b03938416179091556020830151600c805483169184169190911790556040830151600d80548316918416919091179055606090920151600e80549093169116179055565b61216c613208565b6001600160a01b03166000908152600160208190526040909120805460ff19169091179055565b6000600583116121a5575060016121c3565b60006121b18486613e93565b6121bc906001613c35565b8310159150505b9392505050565b3360009081526001602052604081205460ff1661221e5760405162461bcd60e51b81526020600482015260126024820152712737ba1030b63637bbb2b21031b0b63632b960711b6044820152606401610986565b600f546001600160a01b03163381146122795760405162461bcd60e51b815260206004820152601e60248201527f43616c6c6572206d7573742062652073797374656d20636f6e747261637400006044820152606401610986565b6001600160a01b038416600081815260096020818152604080842081518084019092526001600160401b038916825280546001810182558186528386209251920191909155939092529052545b949350505050565b81516032108015906122e257508051609610155b6122fe5760405162461bcd60e51b815260040161098690613beb565b600b54604051632f22dc7b60e01b8152613e80916001600160a01b031690632f22dc7b9061233190600390600401613eb5565b602060405180830381865afa15801561234e573d6000803e3d6000fd5b505050506040513d601f19601f820116820180604052508101906123729190613d54565b11156123b15760405162461bcd60e51b815260206004820152600e60248201526d13585e081d5cd95c881b1a5b5a5d60921b6044820152606401610986565b600b5460405162f5960960e51b81526000916001600160a01b031690631eb2c120906123e290600390600401613eb5565b602060405180830381865afa1580156123ff573d6000803e3d6000fd5b505050506040513d601f19601f820116820180604052508101906124239190613ec3565b61242e906001613e30565b9050604051806101600160405280826001600160401b03168152602001336001600160a01b0316815260200184815260200160405180604001604052806000815260200161247a6128fe565b90528152602080820185905260006040808401829052606084018290526080840182905260a084018290524360c0850152600160e0909401849052338252600483529081902084518154938601516001600160a01b0316600160401b026001600160e01b03199094166001600160401b039091161792909217825583015190918201906125079082613c96565b50606082015180516002830155602001516003820155608082015160048201906125319082613c96565b5060a0820151600582015560c0820151600682015560e082015160078201556101008201516008820155610120820151600982015561014090910151600a918201805460ff19169115159190911790556001600160401b03821660009081526020919091526040908190208054336001600160a01b03199091168117909155600b549151639c3eead960e01b81526001600160a01b0390921691639c3eead9916125e091600390600401613ee0565b600060405180830381600087803b1580156125fa57600080fd5b505af115801561260e573d6000803e3d6000fd5b50505050336001600160a01b03167fd9e252c4299740928760c15af4c9d6fee5a786293f1f330440036039a6ed533a828560405161264d929190613efd565b60405180910390a2505050565b600860205260009081526040902080546001820180546001600160401b03831693600160401b9093046001600160a01b031692919061269890613b88565b80601f01602080910402602001604051908101604052809291908181526020018280546126c490613b88565b80156127115780601f106126e657610100808354040283529160200191612711565b820191906000526020600020905b8154815290600101906020018083116126f457829003601f168201915b50505050509080600201805461272690613b88565b80601f016020809104026020016040519081016040528092919081815260200182805461275290613b88565b801561279f5780601f106127745761010080835404028352916020019161279f565b820191906000526020600020905b81548152906001019060200180831161278257829003601f168201915b5050505050908060030180546127b490613b88565b80601f01602080910402602001604051908101604052809291908181526020018280546127e090613b88565b801561282d5780601f106128025761010080835404028352916020019161282d565b820191906000526020600020905b81548152906001019060200180831161281057829003601f168201915b5050505050905085565b60008061284383612948565b80519091506001600160401b031661285e5750600092915050565b60038054600b5460405162f5960960e51b81526121c393600160401b9093046001600160401b0316926001600160a01b0390921691631eb2c120916128a69190600401613eb5565b602060405180830381865afa1580156128c3573d6000803e3d6000fd5b505050506040513d601f19601f820116820180604052508101906128e79190613ec3565b6001600160401b0316836060015160000151612193565b600c5460408051637686fbcf60e11b815290516000926001600160a01b03169163ed0df79e9160048083019260209291908290030181865afa158015611bb1573d6000803e3d6000fd5b612950613319565b6001600160a01b0380831660009081526004602090815260409182902082516101608101845281546001600160401b0381168252600160401b90049094169184019190915260018101805491928401916129a990613b88565b80601f01602080910402602001604051908101604052809291908181526020018280546129d590613b88565b8015612a225780601f106129f757610100808354040283529160200191612a22565b820191906000526020600020905b815481529060010190602001808311612a0557829003601f168201915b5050505050815260200160028201604051806040016040529081600082015481526020016001820154815250508152602001600482018054612a6390613b88565b80601f0160208091040260200160405190810160405280929190818152602001828054612a8f90613b88565b8015612adc5780601f10612ab157610100808354040283529160200191612adc565b820191906000526020600020905b815481529060010190602001808311612abf57829003601f168201915b505050918352505060058201546020820152600682015460408201526007820154606082015260088201546080820152600982015460a0820152600a9091015460ff16151560c09091015292915050565b612b35613087565b8251606410801590612b4a5750815161012c10155b8015612b5857508051609610155b612b745760405162461bcd60e51b815260040161098690613beb565b600b54604051631292f8c160e31b81526001600160a01b0390911690639497c60890612ba7906003903390600401613de0565b602060405180830381865afa158015612bc4573d6000803e3d6000fd5b505050506040513d601f19601f82011682018060405250810190612be89190613c13565b612c045760405162461bcd60e51b815260040161098690613e06565b7f000000000000000000000000000000000000000000000000000000000000000063ffffffff16612c33611b5a565b11612c765760405162461bcd60e51b81526020600482015260136024820152725761697420756e74696c206e6578742065726160681b6044820152606401610986565b612c7f336106b1565b612cbf5760405162461bcd60e51b815260206004820152601160248201527010d85b89dd081c1d589b1a5cda081e595d607a1b6044820152606401610986565b600380546001600160401b0316906000612cd883613e4f565b91906101000a8154816001600160401b0302191690836001600160401b03160217905550506003600881819054906101000a90046001600160401b031680929190612d2290613e4f565b91906101000a8154816001600160401b0302191690836001600160401b03160217905550506000600360089054906101000a90046001600160401b03169050604051806101400160405280826001600160401b03168152602001612d846128fe565b8152336020808301919091526040808301889052606080840188905260808401879052600060a08501819052600160c0860181905260e0860182905243610100909601959095526001600160401b03878116825260058552908390208651815467ffffffffffffffff1916921691909117815592850151938301939093558301516002820180546001600160a01b0319166001600160a01b03909216919091179055908201516003820190612e399082613c96565b5060808201516004820190612e4e9082613c96565b5060a08201516005820190612e639082613c96565b5060c0820151600682015560e082015160078201805460ff19169115159190911790556101008201516008820155610120909101516009909101553360009081526004602052604081206005810180549192612ebe83613e7a565b90915550504360068083019190915533600090815260209182526040812080546001810182559082529181206001600160401b03851692019190915560028201805491612f0a83613e7a565b9091555050600c546040516352b8d3ed60e01b8152336004820152600160248201526001600160a01b03909116906352b8d3ed90604401600060405180830381600087803b158015612f5b57600080fd5b505af1158015612f6f573d6000803e3d6000fd5b50506040514381523392506001600160401b03851691507fe4c1c9646dc792c06d1b46cbe82f47bc6843a8dee984ecab0e2e4fb1280f1fed9060200160405180910390a35050612fbf6001600255565b505050565b612fcc613208565b6001600160a01b0381166130315760405162461bcd60e51b815260206004820152602660248201527f4f776e61626c653a206e6577206f776e657220697320746865207a65726f206160448201526564647265737360d01b6064820152608401610986565b61303a81613262565b50565b60008160000361304f57506001919050565b61307f63ffffffff7f00000000000000000000000000000000000000000000000000000000000000001683613c35565b431192915050565b60028054036130d85760405162461bcd60e51b815260206004820152601f60248201527f5265656e7472616e637947756172643a207265656e7472616e742063616c6c006044820152606401610986565b60028055565b6130e66132b2565b600380546001600160401b03169060006130ff83613f1f565b825461010092830a6001600160401b03818102199092169282160291909117909255600060e086018190524391860191909152845182168152600560209081526040918290208651815467ffffffffffffffff1916941693909317835585015160018301558401516002820180546001600160a01b0319166001600160a01b039092169190911790556060840151849250600382019061319f9082613c96565b50608082015160048201906131b49082613c96565b5060a082015160058201906131c99082613c96565b5060c0820151600682015560e082015160078201805460ff19169115159190911790556101008201516008820155610120909101516009909101555090565b6000546001600160a01b031633146119755760405162461bcd60e51b815260206004820181905260248201527f4f776e61626c653a2063616c6c6572206973206e6f7420746865206f776e65726044820152606401610986565b600080546001600160a01b038381166001600160a01b0319831681178455604051919092169283917f8be0079c531659141344cd1fd0a4f28419497f9722a3daafe3b4186f6b6457e09190a35050565b60405180610140016040528060006001600160401b031681526020016000815260200160006001600160a01b031681526020016060815260200160608152602001606081526020016000815260200160001515815260200160008152602001600081525090565b60405180610160016040528060006001600160401b0316815260200160006001600160a01b0316815260200160608152602001613369604051806040016040528060008152602001600081525090565b81526020016060815260200160008152602001600081526020016000815260200160008152602001600081526020016000151581525090565b80356001600160a01b03811681146133b957600080fd5b919050565b6000602082840312156133d057600080fd5b6121c3826133a2565b6001600160401b038116811461303a57600080fd5b60006020828403121561340057600080fd5b81356121c3816133d9565b6000815180845260005b8181101561343157602081850181015186830182015201613415565b506000602082860101526020601f19601f83011685010191505092915050565b602081526001600160401b03825116602082015260018060a01b0360208301511660408201526000604083015160c0606084015261349260e084018261340b565b90506060840151601f198483030160808501526134af828261340b565b9150506080840151601f198483030160a08501526134cd828261340b565b91505060a084015160c08401528091505092915050565b600080604083850312156134f757600080fd5b613500836133a2565b946020939093013593505050565b634e487b7160e01b600052604160045260246000fd5b600082601f83011261353557600080fd5b81356001600160401b0381111561354e5761354e61350e565b604051601f8201601f19908116603f011681016001600160401b038111828210171561357c5761357c61350e565b60405281815283820160200185101561359457600080fd5b816020850160208301376000918101602001919091529392505050565b600080604083850312156135c457600080fd5b82356135cf816133d9565b915060208301356001600160401b038111156135ea57600080fd5b6135f685828601613524565b9150509250929050565b6000806000806080858703121561361657600080fd5b84356001600160401b0381111561362c57600080fd5b61363887828801613524565b94505060208501356001600160401b0381111561365457600080fd5b61366087828801613524565b93505060408501356001600160401b0381111561367c57600080fd5b61368887828801613524565b949793965093946060013593505050565b80516001600160401b0316825260208101516020830152600060408201516136cc60408501826001600160a01b03169052565b50606082015161014060608501526136e861014085018261340b565b905060808301518482036080860152613701828261340b565b91505060a083015184820360a086015261371b828261340b565b91505060c083015160c085015260e083015161373b60e086018215159052565b506101008301516101008501526101208301516101208501528091505092915050565b6020815260006121c36020830184613699565b6001600160401b03871681526001600160a01b038616602082015260c0604082018190526000906137a49083018761340b565b82810360608401526137b6818761340b565b905082810360808401526137ca818661340b565b9150508260a0830152979650505050505050565b6000602082840312156137f057600080fd5b5035919050565b6001600160401b038b16815289602082015260018060a01b03891660408201526101406060820152600061382f61014083018a61340b565b8281036080840152613841818a61340b565b905082810360a0840152613855818961340b565b60c0840197909752505092151560e0840152610100830191909152610120909101529695505050505050565b60008060006060848603121561389657600080fd5b83356001600160401b038111156138ac57600080fd5b6138b886828701613524565b93505060208401356001600160401b038111156138d457600080fd5b6138e086828701613524565b92505060408401356001600160401b038111156138fc57600080fd5b61390886828701613524565b9150509250925092565b6000608082840312801561392557600080fd5b50604051608081016001600160401b03811182821017156139485761394861350e565b604052613954836133a2565b8152613962602084016133a2565b6020820152613973604084016133a2565b6040820152613984606084016133a2565b60608201529392505050565b6000806000606084860312156139a557600080fd5b505081359360208301359350604090920135919050565b600080604083850312156139cf57600080fd5b6139d8836133a2565b915060208301356139e8816133d9565b809150509250929050565b60008060408385031215613a0657600080fd5b82356001600160401b03811115613a1c57600080fd5b613a2885828601613524565b92505060208301356001600160401b038111156135ea57600080fd5b6001600160401b03861681526001600160a01b038516602082015260a060408201819052600090613a779083018661340b565b8281036060840152613a89818661340b565b90508281036080840152613a9d818561340b565b98975050505050505050565b60208152613ac36020820183516001600160401b03169052565b60006020830151613adf60408401826001600160a01b03169052565b5060408301516101806060840152613afb6101a084018261340b565b606085015180516080860152602081015160a0860152909150506080840151838203601f190160c0850152613b30828261340b565b91505060a084015160e084015260c084015161010084015260e0840151610120840152610100840151610140840152610120840151610160840152610140840151613b8061018085018215159052565b509392505050565b600181811c90821680613b9c57607f821691505b602082108103613bbc57634e487b7160e01b600052602260045260246000fd5b50919050565b634e487b7160e01b600052601160045260246000fd5b818103818111156106d6576106d6613bc2565b6020808252600e908201526d4d6178206368617261637465727360901b604082015260600190565b600060208284031215613c2557600080fd5b815180151581146121c357600080fd5b808201808211156106d6576106d6613bc2565b601f821115612fbf57806000526020600020601f840160051c81016020851015613c6f5750805b601f840160051c820191505b81811015613c8f5760008155600101613c7b565b5050505050565b81516001600160401b03811115613caf57613caf61350e565b613cc381613cbd8454613b88565b84613c48565b6020601f821160018114613cf75760008315613cdf5750848201515b600019600385901b1c1916600184901b178455613c8f565b600084815260208120601f198516915b82811015613d275787850151825560209485019460019092019101613d07565b5084821015613d455786840151600019600387901b60f8161c191681555b50505050600190811b01905550565b600060208284031215613d6657600080fd5b5051919050565b6020815260006121c3602083018461340b565b606081526000613d936060830186613699565b8281036020840152613da5818661340b565b91505060018060a01b0383166040830152949350505050565b60098110613ddc57634e487b7160e01b600052602160045260246000fd5b9052565b60408101613dee8285613dbe565b6001600160a01b039290921660209190910152919050565b60208082526010908201526f4f6e6c7920726573656172636865727360801b604082015260600190565b6001600160401b0381811683821601908111156106d6576106d6613bc2565b60006001600160401b0382166001600160401b038103613e7157613e71613bc2565b60010192915050565b600060018201613e8c57613e8c613bc2565b5060010190565b600082613eb057634e487b7160e01b600052601260045260246000fd5b500490565b602081016106d68284613dbe565b600060208284031215613ed557600080fd5b81516121c3816133d9565b6001600160a01b0383168152604081016121c36020830184613dbe565b6001600160401b03831681526040602082015260006122c6604083018461340b565b60006001600160401b03821680613f3857613f38613bc2565b600019019291505056fea26469706673582212202945f0a593cbba1dc151373e904c0954a8503a4390fe077d826d5a1551ef2b9264736f6c634300081b0033",
  "linkReferences": {},
  "deployedLinkReferences": {}
}