{
  "_format": "hh-sol-artifact-1",
  "contractName": "ResearcherRules",
  "sourceName": "contracts/ResearcherRules.sol",
  "abi": [
    {
      "inputs": [
        {
          "internalType": "uint32",
          "name": "timeBetweenWorks_",
          "type": "uint32"
        },
        {
          "internalType": "uint8",
          "name": "maxPenalties_",
          "type": "uint8"
        },
        {
          "internalType": "uint32",
          "name": "securityBlocksToValidation_",
          "type": "uint32"
        }
      ],
      "stateMutability": "nonpayable",
      "type": "constructor"
    },
    {
      "inputs": [
        {
          "internalType": "address",
          "name": "owner",
          "type": "address"
        }
      ],
      "name": "OwnableInvalidOwner",
      "type": "error"
    },
    {
      "inputs": [
        {
          "internalType": "address",
          "name": "account",
          "type": "address"
        }
      ],
      "name": "OwnableUnauthorizedAccount",
      "type": "error"
    },
    {
      "inputs": [],
      "name": "ReentrancyGuardReentrantCall",
      "type": "error"
    },
    {
      "anonymous": false,
      "inputs": [
        {
          "indexed": true,
          "internalType": "address",
          "name": "previousOwner",
          "type": "address"
        },
        {
          "indexed": true,
          "internalType": "address",
          "name": "newOwner",
          "type": "address"
        }
      ],
      "name": "OwnershipTransferred",
      "type": "event"
    },
    {
      "anonymous": false,
      "inputs": [
        {
          "indexed": true,
          "internalType": "uint256",
          "name": "researchId",
          "type": "uint256"
        },
        {
          "indexed": true,
          "internalType": "address",
          "name": "invalidatedBy",
          "type": "address"
        },
        {
          "indexed": false,
          "internalType": "string",
          "name": "justification",
          "type": "string"
        }
      ],
      "name": "ResearchInvalidated",
      "type": "event"
    },
    {
      "anonymous": false,
      "inputs": [
        {
          "indexed": true,
          "internalType": "uint256",
          "name": "researchId",
          "type": "uint256"
        },
        {
          "indexed": true,
          "internalType": "address",
          "name": "researcher",
          "type": "address"
        },
        {
          "indexed": false,
          "internalType": "uint256",
          "name": "publishedAt",
          "type": "uint256"
        }
      ],
      "name": "ResearchPublished",
      "type": "event"
    },
    {
      "anonymous": false,
      "inputs": [
        {
          "indexed": true,
          "internalType": "address",
          "name": "_validatorAddress",
          "type": "address"
        },
        {
          "indexed": false,
          "internalType": "uint256",
          "name": "_resourceId",
          "type": "uint256"
        },
        {
          "indexed": false,
          "internalType": "string",
          "name": "_justification",
          "type": "string"
        }
      ],
      "name": "ResearchValidation",
      "type": "event"
    },
    {
      "anonymous": false,
      "inputs": [
        {
          "indexed": true,
          "internalType": "address",
          "name": "researcherAddress",
          "type": "address"
        },
        {
          "indexed": false,
          "internalType": "uint256",
          "name": "researcherId",
          "type": "uint256"
        },
        {
          "indexed": false,
          "internalType": "string",
          "name": "name",
          "type": "string"
        }
      ],
      "name": "ResearcherRegistered",
      "type": "event"
    },
    {
      "inputs": [],
      "name": "INITIAL_USER_COUNT_THRESHOLD",
      "outputs": [
        {
          "internalType": "uint256",
          "name": "",
          "type": "uint256"
        }
      ],
      "stateMutability": "view",
      "type": "function"
    },
    {
      "inputs": [],
      "name": "MAX_USER_COUNT",
      "outputs": [
        {
          "internalType": "uint16",
          "name": "",
          "type": "uint16"
        }
      ],
      "stateMutability": "view",
      "type": "function"
    },
    {
      "inputs": [
        {
          "internalType": "string",
          "name": "item",
          "type": "string"
        },
        {
          "internalType": "string",
          "name": "thesis",
          "type": "string"
        },
        {
          "internalType": "string",
          "name": "unit",
          "type": "string"
        },
        {
          "internalType": "uint256",
          "name": "carbonImpact",
          "type": "uint256"
        }
      ],
      "name": "addCalculatorItem",
      "outputs": [],
      "stateMutability": "nonpayable",
      "type": "function"
    },
    {
      "inputs": [
        {
          "internalType": "string",
          "name": "title",
          "type": "string"
        },
        {
          "internalType": "string",
          "name": "research",
          "type": "string"
        },
        {
          "internalType": "string",
          "name": "projectURL",
          "type": "string"
        }
      ],
      "name": "addEvaluationMethod",
      "outputs": [],
      "stateMutability": "nonpayable",
      "type": "function"
    },
    {
      "inputs": [
        {
          "internalType": "string",
          "name": "title",
          "type": "string"
        },
        {
          "internalType": "string",
          "name": "thesis",
          "type": "string"
        },
        {
          "internalType": "string",
          "name": "file",
          "type": "string"
        }
      ],
      "name": "addResearch",
      "outputs": [],
      "stateMutability": "nonpayable",
      "type": "function"
    },
    {
      "inputs": [
        {
          "internalType": "uint64",
          "name": "id",
          "type": "uint64"
        },
        {
          "internalType": "string",
          "name": "justification",
          "type": "string"
        }
      ],
      "name": "addResearchValidation",
      "outputs": [],
      "stateMutability": "nonpayable",
      "type": "function"
    },
    {
      "inputs": [
        {
          "internalType": "string",
          "name": "name",
          "type": "string"
        },
        {
          "internalType": "string",
          "name": "proofPhoto",
          "type": "string"
        }
      ],
      "name": "addResearcher",
      "outputs": [],
      "stateMutability": "nonpayable",
      "type": "function"
    },
    {
      "inputs": [
        {
          "internalType": "address",
          "name": "",
          "type": "address"
        }
      ],
      "name": "allowedCallers",
      "outputs": [
        {
          "internalType": "bool",
          "name": "",
          "type": "bool"
        }
      ],
      "stateMutability": "view",
      "type": "function"
    },
    {
      "inputs": [
        {
          "internalType": "uint64",
          "name": "",
          "type": "uint64"
        }
      ],
      "name": "calculatorItems",
      "outputs": [
        {
          "internalType": "uint64",
          "name": "id",
          "type": "uint64"
        },
        {
          "internalType": "address",
          "name": "createdBy",
          "type": "address"
        },
        {
          "internalType": "string",
          "name": "item",
          "type": "string"
        },
        {
          "internalType": "string",
          "name": "thesis",
          "type": "string"
        },
        {
          "internalType": "string",
          "name": "unit",
          "type": "string"
        },
        {
          "internalType": "uint256",
          "name": "carbonImpact",
          "type": "uint256"
        },
        {
          "internalType": "uint256",
          "name": "createdAtBlock",
          "type": "uint256"
        }
      ],
      "stateMutability": "view",
      "type": "function"
    },
    {
      "inputs": [],
      "name": "calculatorItemsCount",
      "outputs": [
        {
          "internalType": "uint64",
          "name": "",
          "type": "uint64"
        }
      ],
      "stateMutability": "view",
      "type": "function"
    },
    {
      "inputs": [
        {
          "internalType": "uint256",
          "name": "totalLevels",
          "type": "uint256"
        },
        {
          "internalType": "uint256",
          "name": "totalUsers",
          "type": "uint256"
        },
        {
          "internalType": "uint256",
          "name": "userLevels",
          "type": "uint256"
        }
      ],
      "name": "canInvite",
      "outputs": [
        {
          "internalType": "bool",
          "name": "",
          "type": "bool"
        }
      ],
      "stateMutability": "pure",
      "type": "function"
    },
    {
      "inputs": [
        {
          "internalType": "address",
          "name": "addr",
          "type": "address"
        }
      ],
      "name": "canPublishCalculatorItem",
      "outputs": [
        {
          "internalType": "bool",
          "name": "",
          "type": "bool"
        }
      ],
      "stateMutability": "view",
      "type": "function"
    },
    {
      "inputs": [
        {
          "internalType": "address",
          "name": "addr",
          "type": "address"
        }
      ],
      "name": "canPublishResearch",
      "outputs": [
        {
          "internalType": "bool",
          "name": "",
          "type": "bool"
        }
      ],
      "stateMutability": "view",
      "type": "function"
    },
    {
      "inputs": [
        {
          "internalType": "address",
          "name": "addr",
          "type": "address"
        }
      ],
      "name": "canSendInvite",
      "outputs": [
        {
          "internalType": "bool",
          "name": "",
          "type": "bool"
        }
      ],
      "stateMutability": "view",
      "type": "function"
    },
    {
      "inputs": [],
      "name": "communityRules",
      "outputs": [
        {
          "internalType": "contract ICommunityRules",
          "name": "",
          "type": "address"
        }
      ],
      "stateMutability": "view",
      "type": "function"
    },
    {
      "inputs": [
        {
          "internalType": "uint256",
          "name": "",
          "type": "uint256"
        }
      ],
      "name": "evaluationMethods",
      "outputs": [
        {
          "internalType": "uint64",
          "name": "id",
          "type": "uint64"
        },
        {
          "internalType": "address",
          "name": "createdBy",
          "type": "address"
        },
        {
          "internalType": "string",
          "name": "title",
          "type": "string"
        },
        {
          "internalType": "string",
          "name": "research",
          "type": "string"
        },
        {
          "internalType": "string",
          "name": "projectURL",
          "type": "string"
        },
        {
          "internalType": "uint256",
          "name": "createdAtBlock",
          "type": "uint256"
        }
      ],
      "stateMutability": "view",
      "type": "function"
    },
    {
      "inputs": [],
      "name": "evaluationMethodsCount",
      "outputs": [
        {
          "internalType": "uint64",
          "name": "",
          "type": "uint64"
        }
      ],
      "stateMutability": "view",
      "type": "function"
    },
    {
      "inputs": [
        {
          "internalType": "uint64",
          "name": "id",
          "type": "uint64"
        }
      ],
      "name": "getCalculatorItem",
      "outputs": [
        {
          "components": [
            {
              "internalType": "uint64",
              "name": "id",
              "type": "uint64"
            },
            {
              "internalType": "address",
              "name": "createdBy",
              "type": "address"
            },
            {
              "internalType": "string",
              "name": "item",
              "type": "string"
            },
            {
              "internalType": "string",
              "name": "thesis",
              "type": "string"
            },
            {
              "internalType": "string",
              "name": "unit",
              "type": "string"
            },
            {
              "internalType": "uint256",
              "name": "carbonImpact",
              "type": "uint256"
            },
            {
              "internalType": "uint256",
              "name": "createdAtBlock",
              "type": "uint256"
            }
          ],
          "internalType": "struct CalculatorItem",
          "name": "",
          "type": "tuple"
        }
      ],
      "stateMutability": "view",
      "type": "function"
    },
    {
      "inputs": [
        {
          "internalType": "uint64",
          "name": "id",
          "type": "uint64"
        }
      ],
      "name": "getResearch",
      "outputs": [
        {
          "components": [
            {
              "internalType": "uint64",
              "name": "id",
              "type": "uint64"
            },
            {
              "internalType": "uint256",
              "name": "era",
              "type": "uint256"
            },
            {
              "internalType": "address",
              "name": "createdBy",
              "type": "address"
            },
            {
              "internalType": "string",
              "name": "title",
              "type": "string"
            },
            {
              "internalType": "string",
              "name": "thesis",
              "type": "string"
            },
            {
              "internalType": "string",
              "name": "file",
              "type": "string"
            },
            {
              "internalType": "uint256",
              "name": "validationsCount",
              "type": "uint256"
            },
            {
              "internalType": "bool",
              "name": "valid",
              "type": "bool"
            },
            {
              "internalType": "uint256",
              "name": "invalidatedAt",
              "type": "uint256"
            },
            {
              "internalType": "uint256",
              "name": "createdAtBlock",
              "type": "uint256"
            }
          ],
          "internalType": "struct Research",
          "name": "",
          "type": "tuple"
        }
      ],
      "stateMutability": "view",
      "type": "function"
    },
    {
      "inputs": [
        {
          "internalType": "address",
          "name": "addr",
          "type": "address"
        }
      ],
      "name": "getResearcher",
      "outputs": [
        {
          "components": [
            {
              "internalType": "uint64",
              "name": "id",
              "type": "uint64"
            },
            {
              "internalType": "address",
              "name": "researcherWallet",
              "type": "address"
            },
            {
              "internalType": "string",
              "name": "name",
              "type": "string"
            },
            {
              "components": [
                {
                  "internalType": "uint256",
                  "name": "level",
                  "type": "uint256"
                },
                {
                  "internalType": "uint256",
                  "name": "currentEra",
                  "type": "uint256"
                }
              ],
              "internalType": "struct Pool",
              "name": "pool",
              "type": "tuple"
            },
            {
              "internalType": "string",
              "name": "proofPhoto",
              "type": "string"
            },
            {
              "internalType": "uint256",
              "name": "publishedResearches",
              "type": "uint256"
            },
            {
              "internalType": "uint256",
              "name": "lastPublishedAt",
              "type": "uint256"
            },
            {
              "internalType": "uint256",
              "name": "publishedItems",
              "type": "uint256"
            },
            {
              "internalType": "uint256",
              "name": "lastCalculatorItemAt",
              "type": "uint256"
            },
            {
              "internalType": "uint256",
              "name": "createdAt",
              "type": "uint256"
            },
            {
              "internalType": "bool",
              "name": "canPublishMethod",
              "type": "bool"
            }
          ],
          "internalType": "struct Researcher",
          "name": "",
          "type": "tuple"
        }
      ],
      "stateMutability": "view",
      "type": "function"
    },
    {
      "inputs": [
        {
          "internalType": "address",
          "name": "caller",
          "type": "address"
        }
      ],
      "name": "isAllowedCaller",
      "outputs": [
        {
          "internalType": "bool",
          "name": "",
          "type": "bool"
        }
      ],
      "stateMutability": "view",
      "type": "function"
    },
    {
      "inputs": [],
      "name": "maxPenalties",
      "outputs": [
        {
          "internalType": "uint8",
          "name": "",
          "type": "uint8"
        }
      ],
      "stateMutability": "view",
      "type": "function"
    },
    {
      "inputs": [
        {
          "internalType": "address",
          "name": "allowed",
          "type": "address"
        }
      ],
      "name": "newAllowedCaller",
      "outputs": [],
      "stateMutability": "nonpayable",
      "type": "function"
    },
    {
      "inputs": [],
      "name": "nextEraIn",
      "outputs": [
        {
          "internalType": "uint256",
          "name": "",
          "type": "uint256"
        }
      ],
      "stateMutability": "view",
      "type": "function"
    },
    {
      "inputs": [],
      "name": "owner",
      "outputs": [
        {
          "internalType": "address",
          "name": "",
          "type": "address"
        }
      ],
      "stateMutability": "view",
      "type": "function"
    },
    {
      "inputs": [
        {
          "internalType": "address",
          "name": "",
          "type": "address"
        },
        {
          "internalType": "uint256",
          "name": "",
          "type": "uint256"
        }
      ],
      "name": "penalties",
      "outputs": [
        {
          "internalType": "uint256",
          "name": "researchId",
          "type": "uint256"
        }
      ],
      "stateMutability": "view",
      "type": "function"
    },
    {
      "inputs": [],
      "name": "poolCurrentEra",
      "outputs": [
        {
          "internalType": "uint256",
          "name": "",
          "type": "uint256"
        }
      ],
      "stateMutability": "view",
      "type": "function"
    },
    {
      "inputs": [
        {
          "internalType": "address",
          "name": "addr",
          "type": "address"
        }
      ],
      "name": "removePoolLevels",
      "outputs": [],
      "stateMutability": "nonpayable",
      "type": "function"
    },
    {
      "inputs": [],
      "name": "renounceOwnership",
      "outputs": [],
      "stateMutability": "nonpayable",
      "type": "function"
    },
    {
      "inputs": [
        {
          "internalType": "uint64",
          "name": "",
          "type": "uint64"
        }
      ],
      "name": "researchPenalized",
      "outputs": [
        {
          "internalType": "bool",
          "name": "",
          "type": "bool"
        }
      ],
      "stateMutability": "view",
      "type": "function"
    },
    {
      "inputs": [],
      "name": "researcherPool",
      "outputs": [
        {
          "internalType": "contract IResearcherPool",
          "name": "",
          "type": "address"
        }
      ],
      "stateMutability": "view",
      "type": "function"
    },
    {
      "inputs": [
        {
          "internalType": "uint256",
          "name": "",
          "type": "uint256"
        }
      ],
      "name": "researchersAddress",
      "outputs": [
        {
          "internalType": "address",
          "name": "",
          "type": "address"
        }
      ],
      "stateMutability": "view",
      "type": "function"
    },
    {
      "inputs": [
        {
          "internalType": "uint256",
          "name": "",
          "type": "uint256"
        }
      ],
      "name": "researches",
      "outputs": [
        {
          "internalType": "uint64",
          "name": "id",
          "type": "uint64"
        },
        {
          "internalType": "uint256",
          "name": "era",
          "type": "uint256"
        },
        {
          "internalType": "address",
          "name": "createdBy",
          "type": "address"
        },
        {
          "internalType": "string",
          "name": "title",
          "type": "string"
        },
        {
          "internalType": "string",
          "name": "thesis",
          "type": "string"
        },
        {
          "internalType": "string",
          "name": "file",
          "type": "string"
        },
        {
          "internalType": "uint256",
          "name": "validationsCount",
          "type": "uint256"
        },
        {
          "internalType": "bool",
          "name": "valid",
          "type": "bool"
        },
        {
          "internalType": "uint256",
          "name": "invalidatedAt",
          "type": "uint256"
        },
        {
          "internalType": "uint256",
          "name": "createdAtBlock",
          "type": "uint256"
        }
      ],
      "stateMutability": "view",
      "type": "function"
    },
    {
      "inputs": [],
      "name": "researchesCount",
      "outputs": [
        {
          "internalType": "uint64",
          "name": "",
          "type": "uint64"
        }
      ],
      "stateMutability": "view",
      "type": "function"
    },
    {
      "inputs": [
        {
          "internalType": "address",
          "name": "",
          "type": "address"
        },
        {
          "internalType": "uint256",
          "name": "",
          "type": "uint256"
        }
      ],
      "name": "researchesIds",
      "outputs": [
        {
          "internalType": "uint256",
          "name": "",
          "type": "uint256"
        }
      ],
      "stateMutability": "view",
      "type": "function"
    },
    {
      "inputs": [],
      "name": "researchesTotalCount",
      "outputs": [
        {
          "internalType": "uint64",
          "name": "",
          "type": "uint64"
        }
      ],
      "stateMutability": "view",
      "type": "function"
    },
    {
      "inputs": [],
      "name": "securityBlocksToValidation",
      "outputs": [
        {
          "internalType": "uint32",
          "name": "",
          "type": "uint32"
        }
      ],
      "stateMutability": "view",
      "type": "function"
    },
    {
      "inputs": [
        {
          "internalType": "address",
          "name": "_validationRulesAddress",
          "type": "address"
        }
      ],
      "name": "setContractCall",
      "outputs": [],
      "stateMutability": "nonpayable",
      "type": "function"
    },
    {
      "inputs": [
        {
          "components": [
            {
              "internalType": "address",
              "name": "communityRulesAddress",
              "type": "address"
            },
            {
              "internalType": "address",
              "name": "researcherPoolAddress",
              "type": "address"
            },
            {
              "internalType": "address",
              "name": "validationRulesAddress",
              "type": "address"
            },
            {
              "internalType": "address",
              "name": "voteRulesAddress",
              "type": "address"
            }
          ],
          "internalType": "struct ContractsDependency",
          "name": "contractDependency",
          "type": "tuple"
        }
      ],
      "name": "setContractInterfaces",
      "outputs": [],
      "stateMutability": "nonpayable",
      "type": "function"
    },
    {
      "inputs": [],
      "name": "timeBetweenWorks",
      "outputs": [
        {
          "internalType": "uint32",
          "name": "",
          "type": "uint32"
        }
      ],
      "stateMutability": "view",
      "type": "function"
    },
    {
      "inputs": [],
      "name": "totalActiveLevels",
      "outputs": [
        {
          "internalType": "uint256",
          "name": "",
          "type": "uint256"
        }
      ],
      "stateMutability": "view",
      "type": "function"
    },
    {
      "inputs": [
        {
          "internalType": "address",
          "name": "addr",
          "type": "address"
        }
      ],
      "name": "totalPenalties",
      "outputs": [
        {
          "internalType": "uint256",
          "name": "",
          "type": "uint256"
        }
      ],
      "stateMutability": "view",
      "type": "function"
    },
    {
      "inputs": [
        {
          "internalType": "address",
          "name": "newOwner",
          "type": "address"
        }
      ],
      "name": "transferOwnership",
      "outputs": [],
      "stateMutability": "nonpayable",
      "type": "function"
    },
    {
      "inputs": [],
      "name": "validationRules",
      "outputs": [
        {
          "internalType": "contract IValidationRules",
          "name": "",
          "type": "address"
        }
      ],
      "stateMutability": "view",
      "type": "function"
    },
    {
      "inputs": [],
      "name": "voteRules",
      "outputs": [
        {
          "internalType": "contract IVoteRules",
          "name": "",
          "type": "address"
        }
      ],
      "stateMutability": "view",
      "type": "function"
    },
    {
      "inputs": [],
      "name": "withdraw",
      "outputs": [],
      "stateMutability": "nonpayable",
      "type": "function"
    }
  ],
  "bytecode": "0x60e060405234801561001057600080fd5b5060405161442238038061442283398101604081905261002f916100e9565b338061005557604051631e4fbdf760e01b81526000600482015260240160405180910390fd5b61005e81610080565b50600160025563ffffffff92831660a05260ff9091166080521660c052610134565b600080546001600160a01b038381166001600160a01b0319831681178455604051919092169283917f8be0079c531659141344cd1fd0a4f28419497f9722a3daafe3b4186f6b6457e09190a35050565b805163ffffffff811681146100e457600080fd5b919050565b6000806000606084860312156100fe57600080fd5b610107846100d0565b9250602084015160ff8116811461011d57600080fd5b915061012b604085016100d0565b90509250925092565b60805160a05160c0516142aa610178600039600081816103a00152612c000152600081816104a1015261314c0152600081816105f2015261122b01526142aa6000f3fe608060405234801561001057600080fd5b506004361061028a5760003560e01c8063760072521161015c578063b932c8b7116100ce578063e0d56bde11610087578063e0d56bde146106bd578063e7eba4c2146106d0578063e8a6a922146106f0578063eb58709214610703578063f2fde38b14610726578063f92f0f8e1461073957600080fd5b8063b932c8b714610639578063be18bc8014610662578063be9dc58414610687578063c77c1ce61461068f578063ce59654a146106a2578063e05cf155146106b557600080fd5b80638f93716f116101205780638f93716f1461059257806394a7444e146105a55780639eaf666f146105ae578063a6801258146105c1578063b24eb769146105ed578063b702523b1461062657600080fd5b8063760072521461050d5780637b334154146105385780637c647a621461055b5780637f4b05151461056e5780638da5cb5b1461058157600080fd5b80634714b572116102005780636750d523116101b95780636750d523146104895780636b6c7c2d1461049c5780636ec7053a146104c3578063715018a6146104df57806372e2e6cc146104e7578063755d4f97146104fa57600080fd5b80634714b572146103f257806352d3ea9d14610418578063582256f1146104325780635a52293a1461043a5780635f7d07041461044d5780635fa71c281461047657600080fd5b806320d817131161025257806320d81713146103535780633270f4ad1461036857806332980c9b1461037b57806335c116771461039b5780633ccfd60b146103d7578063406458f2146103df57600080fd5b80630884a6721461028f5780630eaf485c146102b757806311868d0b146102e25780631f701ee0146103025780632076267b1461031c575b600080fd5b6102a261029d3660046136c2565b61074c565b60405190151581526020015b60405180910390f35b6005546102ca906001600160401b031681565b6040516001600160401b0390911681526020016102ae565b6102f56102f03660046136f4565b610777565b6040516102ae9190613757565b6005546102ca90600160401b90046001600160401b031681565b61034561032a3660046136c2565b6001600160a01b03166000908152600b602052604090205490565b6040519081526020016102ae565b6103666103613660046138c0565b6109e2565b005b61036661037636600461390f565b61130a565b61038e6103893660046136f4565b6115ce565b6040516102ae91906139a8565b6103c27f000000000000000000000000000000000000000000000000000000000000000081565b60405163ffffffff90911681526020016102ae565b610366611875565b6003546102ca906001600160401b031681565b6104056104003660046136f4565b611a76565b6040516102ae9796959493929190613a83565b6003546102ca90600160401b90046001600160401b031681565b610345611c5f565b610345610448366004613af3565b611cdf565b61046061045b366004613b1f565b611d10565b6040516102ae9a99989796959493929190613b38565b610345610484366004613af3565b611f10565b6102a26104973660046136c2565b611f3f565b6103c27f000000000000000000000000000000000000000000000000000000000000000081565b6104cc613e8081565b60405161ffff90911681526020016102ae565b610366611f64565b6103666104f5366004613bc2565b611f76565b6103666105083660046136c2565b6121eb565b601054610520906001600160a01b031681565b6040516001600160a01b0390911681526020016102ae565b6102a26105463660046136c2565b60016020526000908152604090205460ff1681565b610366610569366004613c53565b612215565b600f54610520906001600160a01b031681565b6000546001600160a01b0316610520565b6103666105a03660046136c2565b61227a565b61034560045481565b6102a26105bc366004613cbc565b6122a9565b6102a26105cf3660046136c2565b6001600160a01b031660009081526001602052604090205460ff1690565b6106147f000000000000000000000000000000000000000000000000000000000000000081565b60405160ff90911681526020016102ae565b610366610634366004613ce8565b6122e1565b610520610647366004613b1f565b600d602052600090815260409020546001600160a01b031681565b610675610670366004613b1f565b61266b565b6040516102ae96959493929190613d39565b610345600581565b6102a261069d3660046136c2565b61284e565b600e54610520906001600160a01b031681565b6103456128f8565b601154610520906001600160a01b031681565b6106e36106de3660046136c2565b612942565b6040516102ae9190613da6565b6103666106fe366004613bc2565b612b27565b6102a26107113660046136f4565b600c6020526000908152604090205460ff1681565b6103666107343660046136c2565b612fd8565b6103666107473660046136c2565b613016565b6001600160a01b03811660009081526006602081905260408220015461077190613130565b92915050565b6107c96040518060e0016040528060006001600160401b0316815260200160006001600160a01b0316815260200160608152602001606081526020016060815260200160008152602001600081525090565b6001600160401b03828116600090815260096020908152604091829020825160e08101845281549485168152600160401b9094046001600160a01b031691840191909152600181018054919284019161082190613e85565b80601f016020809104026020016040519081016040528092919081815260200182805461084d90613e85565b801561089a5780601f1061086f5761010080835404028352916020019161089a565b820191906000526020600020905b81548152906001019060200180831161087d57829003601f168201915b505050505081526020016002820180546108b390613e85565b80601f01602080910402602001604051908101604052809291908181526020018280546108df90613e85565b801561092c5780601f106109015761010080835404028352916020019161092c565b820191906000526020600020905b81548152906001019060200180831161090f57829003601f168201915b5050505050815260200160038201805461094590613e85565b80601f016020809104026020016040519081016040528092919081815260200182805461097190613e85565b80156109be5780601f10610993576101008083540402835291602001916109be565b820191906000526020600020905b8154815290600101906020018083116109a157829003601f168201915b50505050508152602001600482015481526020016005820154815250509050919050565b6109ea61317a565b600e5460405163e838dfbb60e01b81523360048201526001600160a01b039091169063e838dfbb90602401602060405180830381865afa158015610a32573d6000803e3d6000fd5b505050506040513d601f19601f82011682018060405250810190610a569190613ebf565b15610a965760405162461bcd60e51b815260206004820152600b60248201526a155cd95c8819195b9a595960aa1b60448201526064015b60405180910390fd5b805161012c1015610ab95760405162461bcd60e51b8152600401610a8d90613ee1565b6011546040516356fd539760e11b81523360048201526001600160a01b039091169063adfaa72e90602401602060405180830381865afa158015610b01573d6000803e3d6000fd5b505050506040513d601f19601f82011682018060405250810190610b259190613ebf565b610b5f5760405162461bcd60e51b815260206004820152600b60248201526a2737ba1030903b37ba32b960a91b6044820152606401610a8d565b601054604051630d84466b60e21b81523360048201526001600160a01b039091169063361119ac90602401602060405180830381865afa158015610ba7573d6000803e3d6000fd5b505050506040513d601f19601f82011682018060405250810190610bcb9190613ebf565b610c0f5760405162461bcd60e51b8152602060048201526015602482015274576169742074696d654265747765656e566f74657360581b6044820152606401610a8d565b6001600160401b038216600090815260136020908152604080832033845290915290205460ff1615610c735760405162461bcd60e51b815260206004820152600d60248201526c105b1c9958591e481d9bdd1959609a1b6044820152606401610a8d565b6001600160401b0382166000908152600c602052604090205460ff1615610cdc5760405162461bcd60e51b815260206004820152601960248201527f50656e616c7469657320616c7265616479206170706c696564000000000000006044820152606401610a8d565b6001600160401b0380831660008181526013602090815260408083203384528252808320805460ff191660019081179091559383526007825280832081516101408101835281549096168652938401549185019190915260028301546001600160a01b03169084015260038201805491939291606084019190610d5e90613e85565b80601f0160208091040260200160405190810160405280929190818152602001828054610d8a90613e85565b8015610dd75780601f10610dac57610100808354040283529160200191610dd7565b820191906000526020600020905b815481529060010190602001808311610dba57829003601f168201915b50505050508152602001600482018054610df090613e85565b80601f0160208091040260200160405190810160405280929190818152602001828054610e1c90613e85565b8015610e695780601f10610e3e57610100808354040283529160200191610e69565b820191906000526020600020905b815481529060010190602001808311610e4c57829003601f168201915b50505050508152602001600582018054610e8290613e85565b80601f0160208091040260200160405190810160405280929190818152602001828054610eae90613e85565b8015610efb5780601f10610ed057610100808354040283529160200191610efb565b820191906000526020600020905b815481529060010190602001808311610ede57829003601f168201915b505050918352505060068201546020820152600782015460ff16151560408201526008820154606082015260099091015460809091015260e08101519091508015610f5057508060200151610f4e6128f8565b145b610f915760405162461bcd60e51b815260206004820152601260248201527114995cd9585c98da081b9bdd08159053125160721b6044820152606401610a8d565b60018160c001818151610fa49190613f1f565b9052506001600160401b038381166000908152600760209081526040918290208451815467ffffffffffffffff1916941693909317835583015160018301558201516002820180546001600160a01b0319166001600160a01b039092169190911790556060820151829190600382019061101e9082613f79565b50608082015160048201906110339082613f79565b5060a082015160058201906110489082613f79565b5060c0820151600682015560e082015160078201805460ff1916911515919091179055610100820151600882015561012090910151600990910155601054604080516369bf81c360e01b815290516000926001600160a01b0316916369bf81c39160048083019260209291908290030181865afa1580156110cd573d6000803e3d6000fd5b505050506040513d601f19601f820116820180604052508101906110f19190614037565b9050600181116111565760405162461bcd60e51b815260206004820152602a60248201527f56616c69646174696f6e207468726573686f6c642063616e6e6f74206265206c60448201526932b9b9903a3430b7101960b11b6064820152608401610a8d565b808260c0015110611260576001600160401b0384166000908152600c60205260409020805460ff1916600117905561118d826131a2565b336001600160a01b0316846001600160401b03167fec82afd035df5f6da576aafb10163adedd64aa9955e7843369f1151fe7bcc627856040516111d09190614050565b60405180910390a36040828101516001600160a01b03166000818152600b602081815284832085518083019096526001600160401b038a168652805460018101825581855282852096519601959095559290915290525460ff7f000000000000000000000000000000000000000000000000000000000000000016811061125e5761125e836040015161337b565b505b60105460405163eb48556b60e01b81523360048201526001600160a01b039091169063eb48556b90602401600060405180830381600087803b1580156112a557600080fd5b505af11580156112b9573d6000803e3d6000fd5b505083516040513393507fa60b3cba17d47d019e43ed78d18b7dbcdb3356746136e92739e184014baed95b92506112f291908790614063565b60405180910390a250506113066001600255565b5050565b835160231080159061131f5750825161012c10155b801561132d57508151601410155b6113495760405162461bcd60e51b8152600401610a8d90613ee1565b600e54604051631292f8c160e31b81526001600160a01b0390911690639497c6089061137c9060039033906004016140af565b602060405180830381865afa158015611399573d6000803e3d6000fd5b505050506040513d601f19601f820116820180604052508101906113bd9190613ebf565b6113d95760405162461bcd60e51b8152600401610a8d906140d5565b6113e233611f3f565b6114225760405162461bcd60e51b815260206004820152601160248201527010d85b89dd081c1d589b1a5cda081e595d607a1b6044820152606401610a8d565b600181101580156114365750620f42408111155b61147a5760405162461bcd60e51b8152602060048201526015602482015274125b9d985b1a590818d85c989bdb881a5b5c1858dd605a1b6044820152606401610a8d565b600554600090611494906001600160401b031660016140ff565b6040805160e0810182526001600160401b038084168083523360208085019182528486018c8152606086018c9052608086018b905260a086018a90524360c087015260009384526009909152949091208351815492516001600160a01b0316600160401b026001600160e01b031990931693169290921717815591519293509160018201906115239082613f79565b50606082015160028201906115389082613f79565b506080820151600382019061154d9082613f79565b5060a0820151600482015560c09091015160059182015580546001600160401b031690600061157b8361411e565b82546001600160401b039182166101009390930a9283029190920219909116179055503360009081526006602052604081204360088201556007018054916115c283614149565b91905055505050505050565b61163860405180610140016040528060006001600160401b031681526020016000815260200160006001600160a01b031681526020016060815260200160608152602001606081526020016000815260200160001515815260200160008152602001600081525090565b6001600160401b038083166000908152600760209081526040918290208251610140810184528154909416845260018101549184019190915260028101546001600160a01b03169183019190915260038101805460608401919061169b90613e85565b80601f01602080910402602001604051908101604052809291908181526020018280546116c790613e85565b80156117145780601f106116e957610100808354040283529160200191611714565b820191906000526020600020905b8154815290600101906020018083116116f757829003601f168201915b5050505050815260200160048201805461172d90613e85565b80601f016020809104026020016040519081016040528092919081815260200182805461175990613e85565b80156117a65780601f1061177b576101008083540402835291602001916117a6565b820191906000526020600020905b81548152906001019060200180831161178957829003601f168201915b505050505081526020016005820180546117bf90613e85565b80601f01602080910402602001604051908101604052809291908181526020018280546117eb90613e85565b80156118385780601f1061180d57610100808354040283529160200191611838565b820191906000526020600020905b81548152906001019060200180831161181b57829003601f168201915b505050918352505060068201546020820152600782015460ff16151560408201526008820154606082015260099091015460809091015292915050565b61187d61317a565b600e54604051631292f8c160e31b81526001600160a01b0390911690639497c608906118b09060039033906004016140af565b602060405180830381865afa1580156118cd573d6000803e3d6000fd5b505050506040513d601f19601f820116820180604052508101906118f19190613ebf565b61190d5760405162461bcd60e51b8152600401610a8d906140d5565b33600090815260066020526040908190206003810154600f549251637df42f8360e11b815260048101829052919290916001600160a01b039091169063fbe85f0690602401602060405180830381865afa15801561196f573d6000803e3d6000fd5b505050506040513d601f19601f820116820180604052508101906119939190613ebf565b6119ed5760405162461bcd60e51b815260206004820152602560248201527f4e6f7420656c696769626c6520746f20776974686472617720666f7220746869604482015264732065726160d81b6064820152608401610a8d565b6003820180549060006119ff83614149565b9091555050600f5460405163f3fef3a360e01b8152336004820152602481018390526001600160a01b039091169063f3fef3a390604401600060405180830381600087803b158015611a5057600080fd5b505af1158015611a64573d6000803e3d6000fd5b505050505050611a746001600255565b565b600960205260009081526040902080546001820180546001600160401b03831693600160401b9093046001600160a01b0316929190611ab490613e85565b80601f0160208091040260200160405190810160405280929190818152602001828054611ae090613e85565b8015611b2d5780601f10611b0257610100808354040283529160200191611b2d565b820191906000526020600020905b815481529060010190602001808311611b1057829003601f168201915b505050505090806002018054611b4290613e85565b80601f0160208091040260200160405190810160405280929190818152602001828054611b6e90613e85565b8015611bbb5780601f10611b9057610100808354040283529160200191611bbb565b820191906000526020600020905b815481529060010190602001808311611b9e57829003601f168201915b505050505090806003018054611bd090613e85565b80601f0160208091040260200160405190810160405280929190818152602001828054611bfc90613e85565b8015611c495780601f10611c1e57610100808354040283529160200191611c49565b820191906000526020600020905b815481529060010190602001808311611c2c57829003601f168201915b5050505050908060040154908060050154905087565b600f546000906001600160a01b031663d5ee3eb5611c7b6128f8565b6040518263ffffffff1660e01b8152600401611c9991815260200190565b602060405180830381865afa158015611cb6573d6000803e3d6000fd5b505050506040513d601f19601f82011682018060405250810190611cda9190614037565b905090565b60086020528160005260406000208181548110611cfb57600080fd5b90600052602060002001600091509150505481565b60076020526000908152604090208054600182015460028301546003840180546001600160401b039094169492936001600160a01b039092169291611d5490613e85565b80601f0160208091040260200160405190810160405280929190818152602001828054611d8090613e85565b8015611dcd5780601f10611da257610100808354040283529160200191611dcd565b820191906000526020600020905b815481529060010190602001808311611db057829003601f168201915b505050505090806004018054611de290613e85565b80601f0160208091040260200160405190810160405280929190818152602001828054611e0e90613e85565b8015611e5b5780601f10611e3057610100808354040283529160200191611e5b565b820191906000526020600020905b815481529060010190602001808311611e3e57829003601f168201915b505050505090806005018054611e7090613e85565b80601f0160208091040260200160405190810160405280929190818152602001828054611e9c90613e85565b8015611ee95780601f10611ebe57610100808354040283529160200191611ee9565b820191906000526020600020905b815481529060010190602001808311611ecc57829003601f168201915b505050506006830154600784015460088501546009909501549394919360ff90911692508a565b600b6020528160005260406000208181548110611f2c57600080fd5b6000918252602090912001549150829050565b6001600160a01b03811660009081526006602052604081206008015461077190613130565b611f6c6135a7565b611a7460006135d4565b8251606410801590611f8b5750815161012c10155b8015611f9957508051609610155b611fb55760405162461bcd60e51b8152600401610a8d90613ee1565b600e54604051631292f8c160e31b81526001600160a01b0390911690639497c60890611fe89060039033906004016140af565b602060405180830381865afa158015612005573d6000803e3d6000fd5b505050506040513d601f19601f820116820180604052508101906120299190613ebf565b6120455760405162461bcd60e51b8152600401610a8d906140d5565b336000908152600660205260409020600a015460ff166120a75760405162461bcd60e51b815260206004820152601760248201527f4f6e6c79206f6e65206d6574686f6420616c6c6f7765640000000000000000006044820152606401610a8d565b6005546000906120c890600160401b90046001600160401b031660016140ff565b6040805160c0810182526001600160401b038084168083523360208085019182528486018b8152606086018b9052608086018a90524360a08701526000938452600a909152949091208351815492516001600160a01b0316600160401b026001600160e01b031990931693169290921717815591519293509160018201906121509082613f79565b50606082015160028201906121659082613f79565b506080820151600382019061217a9082613f79565b5060a0919091015160049091015560058054600160401b90046001600160401b03169060086121a88361411e565b82546001600160401b039182166101009390930a92830291909202199091161790555050336000908152600660205260409020600a01805460ff19169055505050565b6121f36135a7565b601280546001600160a01b0319166001600160a01b0392909216919091179055565b61221d6135a7565b8051600e80546001600160a01b03199081166001600160a01b03938416179091556020830151600f805483169184169190911790556040830151601080548316918416919091179055606090920151601180549093169116179055565b6122826135a7565b6001600160a01b03166000908152600160208190526040909120805460ff19169091179055565b6000826000036122bb575060006122da565b600583116122cb575060016122da565b836122d68484614162565b1190505b9392505050565b81516032108015906122f557508051609610155b6123115760405162461bcd60e51b8152600401610a8d90613ee1565b600e54604051632f22dc7b60e01b8152613e80916001600160a01b031690632f22dc7b9061234490600390600401614179565b602060405180830381865afa158015612361573d6000803e3d6000fd5b505050506040513d601f19601f820116820180604052508101906123859190614037565b106123c35760405162461bcd60e51b815260206004820152600e60248201526d13585e081d5cd95c881b1a5b5a5d60921b6044820152606401610a8d565b600e5460405162f5960960e51b81526000916001600160a01b031690631eb2c120906123f490600390600401614179565b602060405180830381865afa158015612411573d6000803e3d6000fd5b505050506040513d601f19601f820116820180604052508101906124359190614187565b6124409060016140ff565b9050604051806101600160405280826001600160401b03168152602001336001600160a01b0316815260200184815260200160405180604001604052806000815260200161248c6128f8565b90528152602080820185905260006040808401829052606084018290526080840182905260a084018290524360c0850152600160e0909401849052338252600683529081902084518154938601516001600160a01b0316600160401b026001600160e01b03199094166001600160401b039091161792909217825583015190918201906125199082613f79565b50606082015180516002830155602001516003820155608082015160048201906125439082613f79565b5060a0820151600582015560c0820151600682015560e082015160078201556101008201516008820155610120820151600982015561014090910151600a909101805460ff19169115159190911790556001600160401b0381166000908152600d6020526040908190208054336001600160a01b03199091168117909155600e549151639c3eead960e01b81526001600160a01b0390921691639c3eead9916125f1916003906004016141a4565b600060405180830381600087803b15801561260b57600080fd5b505af115801561261f573d6000803e3d6000fd5b50505050336001600160a01b03167fd9e252c4299740928760c15af4c9d6fee5a786293f1f330440036039a6ed533a828560405161265e929190614063565b60405180910390a2505050565b600a60205260009081526040902080546001820180546001600160401b03831693600160401b9093046001600160a01b03169291906126a990613e85565b80601f01602080910402602001604051908101604052809291908181526020018280546126d590613e85565b80156127225780601f106126f757610100808354040283529160200191612722565b820191906000526020600020905b81548152906001019060200180831161270557829003601f168201915b50505050509080600201805461273790613e85565b80601f016020809104026020016040519081016040528092919081815260200182805461276390613e85565b80156127b05780601f10612785576101008083540402835291602001916127b0565b820191906000526020600020905b81548152906001019060200180831161279357829003601f168201915b5050505050908060030180546127c590613e85565b80601f01602080910402602001604051908101604052809291908181526020018280546127f190613e85565b801561283e5780601f106128135761010080835404028352916020019161283e565b820191906000526020600020905b81548152906001019060200180831161282157829003601f168201915b5050505050908060040154905086565b60008061285a83612942565b80519091506001600160401b03166128755750600092915050565b60048054600e54604051632f22dc7b60e01b81526122da936001600160a01b0390921691632f22dc7b916128ac9160039101614179565b602060405180830381865afa1580156128c9573d6000803e3d6000fd5b505050506040513d601f19601f820116820180604052508101906128ed9190614037565b6060840151516122a9565b600f5460408051637686fbcf60e11b815290516000926001600160a01b03169163ed0df79e9160048083019260209291908290030181865afa158015611cb6573d6000803e3d6000fd5b61294a613624565b6001600160a01b0380831660009081526006602090815260409182902082516101608101845281546001600160401b0381168252600160401b90049094169184019190915260018101805491928401916129a390613e85565b80601f01602080910402602001604051908101604052809291908181526020018280546129cf90613e85565b8015612a1c5780601f106129f157610100808354040283529160200191612a1c565b820191906000526020600020905b8154815290600101906020018083116129ff57829003601f168201915b5050505050815260200160028201604051806040016040529081600082015481526020016001820154815250508152602001600482018054612a5d90613e85565b80601f0160208091040260200160405190810160405280929190818152602001828054612a8990613e85565b8015612ad65780601f10612aab57610100808354040283529160200191612ad6565b820191906000526020600020905b815481529060010190602001808311612ab957829003601f168201915b505050918352505060058201546020820152600682015460408201526007820154606082015260088201546080820152600982015460a0820152600a9091015460ff16151560c09091015292915050565b612b2f61317a565b8251606410801590612b445750815161012c10155b8015612b5257508051609610155b612b6e5760405162461bcd60e51b8152600401610a8d90613ee1565b600e54604051631292f8c160e31b81526001600160a01b0390911690639497c60890612ba19060039033906004016140af565b602060405180830381865afa158015612bbe573d6000803e3d6000fd5b505050506040513d601f19601f82011682018060405250810190612be29190613ebf565b612bfe5760405162461bcd60e51b8152600401610a8d906140d5565b7f000000000000000000000000000000000000000000000000000000000000000063ffffffff16612c2d611c5f565b11612c705760405162461bcd60e51b81526020600482015260136024820152725761697420756e74696c206e6578742065726160681b6044820152606401610a8d565b612c793361074c565b612cb95760405162461bcd60e51b815260206004820152601160248201527010d85b89dd081c1d589b1a5cda081e595d607a1b6044820152606401610a8d565b600380546001600160401b0316906000612cd28361411e565b91906101000a8154816001600160401b0302191690836001600160401b03160217905550506003600881819054906101000a90046001600160401b031680929190612d1c9061411e565b91906101000a8154816001600160401b0302191690836001600160401b031602179055505060046000815480929190612d5490614149565b9091555050600354604080516101408101909152600160401b9091046001600160401b03168082529060208101612d896128f8565b8152336020808301919091526040808301889052606080840188905260808401879052600060a08501819052600160c0860181905260e0860182905243610100909601959095526001600160401b03878116825260078552908390208651815467ffffffffffffffff1916921691909117815592850151938301939093558301516002820180546001600160a01b0319166001600160a01b03909216919091179055908201516003820190612e3e9082613f79565b5060808201516004820190612e539082613f79565b5060a08201516005820190612e689082613f79565b5060c082015160068281019190915560e083015160078301805460ff1916911515919091179055610100830151600883015561012090920151600990910155336000908152602091909152604081206005810180549192612ec883614149565b9091555050436006820155336000908152600860209081526040822080546001810182559083529082206001600160401b03851691015560028201805491612f0f83614149565b9091555050600f546040516338e8490d60e11b8152336004820152600160248201526001600160401b03841660448201526001600160a01b03909116906371d0921a90606401600060405180830381600087803b158015612f6f57600080fd5b505af1158015612f83573d6000803e3d6000fd5b50506040514381523392506001600160401b03851691507fe4c1c9646dc792c06d1b46cbe82f47bc6843a8dee984ecab0e2e4fb1280f1fed9060200160405180910390a35050612fd36001600255565b505050565b612fe06135a7565b6001600160a01b03811661300a57604051631e4fbdf760e01b815260006004820152602401610a8d565b613013816135d4565b50565b3360009081526001602052604090205460ff1661306a5760405162461bcd60e51b81526020600482015260126024820152712737ba1030b63637bbb2b21031b0b63632b960711b6044820152606401610a8d565b6012546001600160a01b03163381146130c55760405162461bcd60e51b815260206004820152601e60248201527f43616c6c6572206d7573742062652073797374656d20636f6e747261637400006044820152606401610a8d565b600f546040516310c791e560e11b81526001600160a01b038481166004830152600160248301529091169063218f23ca906044015b600060405180830381600087803b15801561311457600080fd5b505af1158015613128573d6000803e3d6000fd5b505050505050565b60008160000361314257506001919050565b61317263ffffffff7f00000000000000000000000000000000000000000000000000000000000000001683613f1f565b431192915050565b600280540361319c57604051633ee5aeb560e01b815260040160405180910390fd5b60028055565b600380546001600160401b03169060006131bb836141c1565b825461010092830a6001600160401b03818102199092169282160291909117909255600060e085018190524391850191909152835182168152600760209081526040918290208551815467ffffffffffffffff1916941693909317835584015160018301558301516002820180546001600160a01b0319166001600160a01b039092169190911790556060830151839250600382019061325b9082613f79565b50608082015160048201906132709082613f79565b5060a082015160058201906132859082613f79565b5060c082015160068281019190915560e083015160078301805460ff19169115159190911790556101008301516008830155610120909201516009909101556040828101516001600160a01b0316600090815260209290925281206002018054600192906132f49084906141e4565b909155505060048054906000613309836141f7565b9091555050600f5460408281015190516310c791e560e11b81526001600160a01b0391821660048201526000602482015291169063218f23ca90604401600060405180830381600087803b15801561336057600080fd5b505af1158015613374573d6000803e3d6000fd5b5050505050565b600e5460405163e838dfbb60e01b81526001600160a01b0383811660048301529091169063e838dfbb90602401602060405180830381865afa1580156133c5573d6000803e3d6000fd5b505050506040513d601f19601f820116820180604052508101906133e99190613ebf565b156133f15750565b6001600160a01b03811660009081526006602052604081206002015460048054919290916134209084906141e4565b9091555050600e54604051634acf78e960e11b81526001600160a01b0383811660048301529091169063959ef1d290602401600060405180830381600087803b15801561346c57600080fd5b505af1158015613480573d6000803e3d6000fd5b5050600e5460405163158bdc5f60e11b81526001600160a01b038581166004830152600094509091169150632b17b8be90602401608060405180830381865afa1580156134d1573d6000803e3d6000fd5b505050506040513d601f19601f820116820180604052508101906134f5919061420e565b60208101519091506001600160a01b0316156130c557600e546020820151604051636101bf2160e01b81526001600160a01b039182166004820152911690636101bf2190602401600060405180830381600087803b15801561355657600080fd5b505af115801561356a573d6000803e3d6000fd5b5050600f546040516310c791e560e11b81526001600160a01b03868116600483015260016024830152909116925063218f23ca91506044016130fa565b6000546001600160a01b03163314611a745760405163118cdaa760e01b8152336004820152602401610a8d565b600080546001600160a01b038381166001600160a01b0319831681178455604051919092169283917f8be0079c531659141344cd1fd0a4f28419497f9722a3daafe3b4186f6b6457e09190a35050565b60405180610160016040528060006001600160401b0316815260200160006001600160a01b0316815260200160608152602001613674604051806040016040528060008152602001600081525090565b81526020016060815260200160008152602001600081526020016000815260200160008152602001600081526020016000151581525090565b6001600160a01b038116811461301357600080fd5b6000602082840312156136d457600080fd5b81356122da816136ad565b6001600160401b038116811461301357600080fd5b60006020828403121561370657600080fd5b81356122da816136df565b6000815180845260005b818110156137375760208185018101518683018201520161371b565b506000602082860101526020601f19601f83011685010191505092915050565b602081526001600160401b03825116602082015260018060a01b0360208301511660408201526000604083015160e06060840152613799610100840182613711565b90506060840151601f198483030160808501526137b68282613711565b9150506080840151601f198483030160a08501526137d48282613711565b91505060a084015160c084015260c084015160e08401528091505092915050565b634e487b7160e01b600052604160045260246000fd5b604051608081016001600160401b038111828210171561382d5761382d6137f5565b60405290565b600082601f83011261384457600080fd5b81356001600160401b0381111561385d5761385d6137f5565b604051601f8201601f19908116603f011681016001600160401b038111828210171561388b5761388b6137f5565b6040528181528382016020018510156138a357600080fd5b816020850160208301376000918101602001919091529392505050565b600080604083850312156138d357600080fd5b82356138de816136df565b915060208301356001600160401b038111156138f957600080fd5b61390585828601613833565b9150509250929050565b6000806000806080858703121561392557600080fd5b84356001600160401b0381111561393b57600080fd5b61394787828801613833565b94505060208501356001600160401b0381111561396357600080fd5b61396f87828801613833565b93505060408501356001600160401b0381111561398b57600080fd5b61399787828801613833565b949793965093946060013593505050565b602081526139c26020820183516001600160401b03169052565b60208201516040820152600060408301516139e860608401826001600160a01b03169052565b5060608301516101406080840152613a04610160840182613711565b90506080840151601f198483030160a0850152613a218282613711565b91505060a0840151601f198483030160c0850152613a3f8282613711565b91505060c084015160e084015260e0840151613a6061010085018215159052565b506101008401516101208401526101208401516101408401528091505092915050565b6001600160401b03881681526001600160a01b038716602082015260e060408201819052600090613ab690830188613711565b8281036060840152613ac88188613711565b90508281036080840152613adc8187613711565b60a0840195909552505060c0015295945050505050565b60008060408385031215613b0657600080fd5b8235613b11816136ad565b946020939093013593505050565b600060208284031215613b3157600080fd5b5035919050565b6001600160401b038b16815289602082015260018060a01b038916604082015261014060608201526000613b7061014083018a613711565b8281036080840152613b82818a613711565b905082810360a0840152613b968189613711565b60c0840197909752505092151560e0840152610100830191909152610120909101529695505050505050565b600080600060608486031215613bd757600080fd5b83356001600160401b03811115613bed57600080fd5b613bf986828701613833565b93505060208401356001600160401b03811115613c1557600080fd5b613c2186828701613833565b92505060408401356001600160401b03811115613c3d57600080fd5b613c4986828701613833565b9150509250925092565b60006080828403128015613c6657600080fd5b50613c6f61380b565b8235613c7a816136ad565b81526020830135613c8a816136ad565b60208201526040830135613c9d816136ad565b60408201526060830135613cb0816136ad565b60608201529392505050565b600080600060608486031215613cd157600080fd5b505081359360208301359350604090920135919050565b60008060408385031215613cfb57600080fd5b82356001600160401b03811115613d1157600080fd5b613d1d85828601613833565b92505060208301356001600160401b038111156138f957600080fd5b6001600160401b03871681526001600160a01b038616602082015260c060408201819052600090613d6c90830187613711565b8281036060840152613d7e8187613711565b90508281036080840152613d928186613711565b9150508260a0830152979650505050505050565b60208152613dc06020820183516001600160401b03169052565b60006020830151613ddc60408401826001600160a01b03169052565b5060408301516101806060840152613df86101a0840182613711565b606085015180516080860152602081015160a0860152909150506080840151838203601f190160c0850152613e2d8282613711565b91505060a084015160e084015260c084015161010084015260e0840151610120840152610100840151610140840152610120840151610160840152610140840151613e7d61018085018215159052565b509392505050565b600181811c90821680613e9957607f821691505b602082108103613eb957634e487b7160e01b600052602260045260246000fd5b50919050565b600060208284031215613ed157600080fd5b815180151581146122da57600080fd5b6020808252600e908201526d4d6178206368617261637465727360901b604082015260600190565b634e487b7160e01b600052601160045260246000fd5b8082018082111561077157610771613f09565b601f821115612fd357806000526020600020601f840160051c81016020851015613f595750805b601f840160051c820191505b818110156133745760008155600101613f65565b81516001600160401b03811115613f9257613f926137f5565b613fa681613fa08454613e85565b84613f32565b6020601f821160018114613fda5760008315613fc25750848201515b600019600385901b1c1916600184901b178455613374565b600084815260208120601f198516915b8281101561400a5787850151825560209485019460019092019101613fea565b50848210156140285786840151600019600387901b60f8161c191681555b50505050600190811b01905550565b60006020828403121561404957600080fd5b5051919050565b6020815260006122da6020830184613711565b6001600160401b03831681526040602082015260006140856040830184613711565b949350505050565b600881106140ab57634e487b7160e01b600052602160045260246000fd5b9052565b604081016140bd828561408d565b6001600160a01b039290921660209190910152919050565b60208082526010908201526f4f6e6c7920726573656172636865727360801b604082015260600190565b6001600160401b03818116838216019081111561077157610771613f09565b60006001600160401b0382166001600160401b03810361414057614140613f09565b60010192915050565b60006001820161415b5761415b613f09565b5060010190565b808202811582820484141761077157610771613f09565b60208101610771828461408d565b60006020828403121561419957600080fd5b81516122da816136df565b6001600160a01b0383168152604081016122da602083018461408d565b60006001600160401b038216806141da576141da613f09565b6000190192915050565b8181038181111561077157610771613f09565b60008161420657614206613f09565b506000190190565b6000608082840312801561422157600080fd5b5061422a61380b565b8251614235816136ad565b81526020830151614245816136ad565b602082015260408301516008811061425c57600080fd5b6040820152606092830151928101929092525091905056fea2646970667358221220a65306621b3c5ed0f9107679358754b12ca445230f9f4f16de61660b0ff643a764736f6c634300081b0033",
  "linkReferences": {},
  "deployedLinkReferences": {}
}