{
  "_format": "hh-sol-artifact-1",
  "contractName": "ResearcherRules",
  "sourceName": "contracts/ResearcherRules.sol",
  "abi": [
    {
      "inputs": [
        {
          "internalType": "uint32",
          "name": "timeBetweenWorks_",
          "type": "uint32"
        },
        {
          "internalType": "uint8",
          "name": "maxPenalties_",
          "type": "uint8"
        },
        {
          "internalType": "uint32",
          "name": "securityBlocksToValidation_",
          "type": "uint32"
        }
      ],
      "stateMutability": "nonpayable",
      "type": "constructor"
    },
    {
      "anonymous": false,
      "inputs": [
        {
          "indexed": true,
          "internalType": "address",
          "name": "previousOwner",
          "type": "address"
        },
        {
          "indexed": true,
          "internalType": "address",
          "name": "newOwner",
          "type": "address"
        }
      ],
      "name": "OwnershipTransferred",
      "type": "event"
    },
    {
      "anonymous": false,
      "inputs": [
        {
          "indexed": true,
          "internalType": "uint256",
          "name": "researchId",
          "type": "uint256"
        },
        {
          "indexed": true,
          "internalType": "address",
          "name": "invalidatedBy",
          "type": "address"
        },
        {
          "indexed": false,
          "internalType": "string",
          "name": "justification",
          "type": "string"
        }
      ],
      "name": "ResearchInvalidated",
      "type": "event"
    },
    {
      "anonymous": false,
      "inputs": [
        {
          "indexed": true,
          "internalType": "uint256",
          "name": "researchId",
          "type": "uint256"
        },
        {
          "indexed": true,
          "internalType": "address",
          "name": "researcher",
          "type": "address"
        },
        {
          "indexed": false,
          "internalType": "uint256",
          "name": "publishedAt",
          "type": "uint256"
        }
      ],
      "name": "ResearchPublished",
      "type": "event"
    },
    {
      "anonymous": false,
      "inputs": [
        {
          "indexed": true,
          "internalType": "address",
          "name": "researcherAddress",
          "type": "address"
        },
        {
          "indexed": false,
          "internalType": "uint256",
          "name": "researcherId",
          "type": "uint256"
        },
        {
          "indexed": false,
          "internalType": "string",
          "name": "name",
          "type": "string"
        }
      ],
      "name": "ResearcherRegistered",
      "type": "event"
    },
    {
      "inputs": [],
      "name": "INITIAL_USER_COUNT_THRESHOLD",
      "outputs": [
        {
          "internalType": "uint256",
          "name": "",
          "type": "uint256"
        }
      ],
      "stateMutability": "view",
      "type": "function"
    },
    {
      "inputs": [],
      "name": "MAX_USER_COUNT",
      "outputs": [
        {
          "internalType": "uint16",
          "name": "",
          "type": "uint16"
        }
      ],
      "stateMutability": "view",
      "type": "function"
    },
    {
      "inputs": [
        {
          "internalType": "string",
          "name": "item",
          "type": "string"
        },
        {
          "internalType": "string",
          "name": "thesis",
          "type": "string"
        },
        {
          "internalType": "string",
          "name": "unit",
          "type": "string"
        },
        {
          "internalType": "uint256",
          "name": "carbonImpact",
          "type": "uint256"
        }
      ],
      "name": "addCalculatorItem",
      "outputs": [],
      "stateMutability": "nonpayable",
      "type": "function"
    },
    {
      "inputs": [
        {
          "internalType": "string",
          "name": "title",
          "type": "string"
        },
        {
          "internalType": "string",
          "name": "research",
          "type": "string"
        },
        {
          "internalType": "string",
          "name": "projectURL",
          "type": "string"
        }
      ],
      "name": "addEvaluationMethod",
      "outputs": [],
      "stateMutability": "nonpayable",
      "type": "function"
    },
    {
      "inputs": [
        {
          "internalType": "address",
          "name": "addr",
          "type": "address"
        },
        {
          "internalType": "uint64",
          "name": "researchId",
          "type": "uint64"
        }
      ],
      "name": "addPenalty",
      "outputs": [
        {
          "internalType": "uint256",
          "name": "",
          "type": "uint256"
        }
      ],
      "stateMutability": "nonpayable",
      "type": "function"
    },
    {
      "inputs": [
        {
          "internalType": "string",
          "name": "title",
          "type": "string"
        },
        {
          "internalType": "string",
          "name": "thesis",
          "type": "string"
        },
        {
          "internalType": "string",
          "name": "file",
          "type": "string"
        }
      ],
      "name": "addResearch",
      "outputs": [],
      "stateMutability": "nonpayable",
      "type": "function"
    },
    {
      "inputs": [
        {
          "internalType": "uint64",
          "name": "id",
          "type": "uint64"
        },
        {
          "internalType": "string",
          "name": "justification",
          "type": "string"
        }
      ],
      "name": "addResearchValidation",
      "outputs": [],
      "stateMutability": "nonpayable",
      "type": "function"
    },
    {
      "inputs": [
        {
          "internalType": "string",
          "name": "name",
          "type": "string"
        },
        {
          "internalType": "string",
          "name": "proofPhoto",
          "type": "string"
        }
      ],
      "name": "addResearcher",
      "outputs": [],
      "stateMutability": "nonpayable",
      "type": "function"
    },
    {
      "inputs": [
        {
          "internalType": "address",
          "name": "",
          "type": "address"
        }
      ],
      "name": "allowedCallers",
      "outputs": [
        {
          "internalType": "bool",
          "name": "",
          "type": "bool"
        }
      ],
      "stateMutability": "view",
      "type": "function"
    },
    {
      "inputs": [
        {
          "internalType": "uint64",
          "name": "",
          "type": "uint64"
        }
      ],
      "name": "calculatorItems",
      "outputs": [
        {
          "internalType": "uint64",
          "name": "id",
          "type": "uint64"
        },
        {
          "internalType": "address",
          "name": "createdBy",
          "type": "address"
        },
        {
          "internalType": "string",
          "name": "item",
          "type": "string"
        },
        {
          "internalType": "string",
          "name": "thesis",
          "type": "string"
        },
        {
          "internalType": "string",
          "name": "unit",
          "type": "string"
        },
        {
          "internalType": "uint256",
          "name": "carbonImpact",
          "type": "uint256"
        }
      ],
      "stateMutability": "view",
      "type": "function"
    },
    {
      "inputs": [],
      "name": "calculatorItemsCount",
      "outputs": [
        {
          "internalType": "uint64",
          "name": "",
          "type": "uint64"
        }
      ],
      "stateMutability": "view",
      "type": "function"
    },
    {
      "inputs": [
        {
          "internalType": "uint256",
          "name": "totalLevels",
          "type": "uint256"
        },
        {
          "internalType": "uint256",
          "name": "totalUsers",
          "type": "uint256"
        },
        {
          "internalType": "uint256",
          "name": "userLevels",
          "type": "uint256"
        }
      ],
      "name": "canInvite",
      "outputs": [
        {
          "internalType": "bool",
          "name": "",
          "type": "bool"
        }
      ],
      "stateMutability": "pure",
      "type": "function"
    },
    {
      "inputs": [
        {
          "internalType": "address",
          "name": "addr",
          "type": "address"
        }
      ],
      "name": "canPublishCalculatorItem",
      "outputs": [
        {
          "internalType": "bool",
          "name": "",
          "type": "bool"
        }
      ],
      "stateMutability": "view",
      "type": "function"
    },
    {
      "inputs": [
        {
          "internalType": "address",
          "name": "addr",
          "type": "address"
        }
      ],
      "name": "canPublishResearch",
      "outputs": [
        {
          "internalType": "bool",
          "name": "",
          "type": "bool"
        }
      ],
      "stateMutability": "view",
      "type": "function"
    },
    {
      "inputs": [
        {
          "internalType": "address",
          "name": "addr",
          "type": "address"
        }
      ],
      "name": "canSendInvite",
      "outputs": [
        {
          "internalType": "bool",
          "name": "",
          "type": "bool"
        }
      ],
      "stateMutability": "view",
      "type": "function"
    },
    {
      "inputs": [
        {
          "internalType": "uint256",
          "name": "",
          "type": "uint256"
        }
      ],
      "name": "evaluationMethods",
      "outputs": [
        {
          "internalType": "uint64",
          "name": "id",
          "type": "uint64"
        },
        {
          "internalType": "address",
          "name": "createdBy",
          "type": "address"
        },
        {
          "internalType": "string",
          "name": "title",
          "type": "string"
        },
        {
          "internalType": "string",
          "name": "research",
          "type": "string"
        },
        {
          "internalType": "string",
          "name": "projectURL",
          "type": "string"
        }
      ],
      "stateMutability": "view",
      "type": "function"
    },
    {
      "inputs": [],
      "name": "evaluationMethodsCount",
      "outputs": [
        {
          "internalType": "uint64",
          "name": "",
          "type": "uint64"
        }
      ],
      "stateMutability": "view",
      "type": "function"
    },
    {
      "inputs": [
        {
          "internalType": "uint64",
          "name": "id",
          "type": "uint64"
        }
      ],
      "name": "getCalculatorItem",
      "outputs": [
        {
          "components": [
            {
              "internalType": "uint64",
              "name": "id",
              "type": "uint64"
            },
            {
              "internalType": "address",
              "name": "createdBy",
              "type": "address"
            },
            {
              "internalType": "string",
              "name": "item",
              "type": "string"
            },
            {
              "internalType": "string",
              "name": "thesis",
              "type": "string"
            },
            {
              "internalType": "string",
              "name": "unit",
              "type": "string"
            },
            {
              "internalType": "uint256",
              "name": "carbonImpact",
              "type": "uint256"
            }
          ],
          "internalType": "struct CalculatorItem",
          "name": "",
          "type": "tuple"
        }
      ],
      "stateMutability": "view",
      "type": "function"
    },
    {
      "inputs": [
        {
          "internalType": "uint64",
          "name": "id",
          "type": "uint64"
        }
      ],
      "name": "getResearch",
      "outputs": [
        {
          "components": [
            {
              "internalType": "uint64",
              "name": "id",
              "type": "uint64"
            },
            {
              "internalType": "uint256",
              "name": "era",
              "type": "uint256"
            },
            {
              "internalType": "address",
              "name": "createdBy",
              "type": "address"
            },
            {
              "internalType": "string",
              "name": "title",
              "type": "string"
            },
            {
              "internalType": "string",
              "name": "thesis",
              "type": "string"
            },
            {
              "internalType": "string",
              "name": "file",
              "type": "string"
            },
            {
              "internalType": "uint256",
              "name": "validationsCount",
              "type": "uint256"
            },
            {
              "internalType": "bool",
              "name": "valid",
              "type": "bool"
            },
            {
              "internalType": "uint256",
              "name": "invalidatedAt",
              "type": "uint256"
            },
            {
              "internalType": "uint256",
              "name": "createdAtBlock",
              "type": "uint256"
            }
          ],
          "internalType": "struct Research",
          "name": "",
          "type": "tuple"
        }
      ],
      "stateMutability": "view",
      "type": "function"
    },
    {
      "inputs": [
        {
          "internalType": "address",
          "name": "addr",
          "type": "address"
        }
      ],
      "name": "getResearcher",
      "outputs": [
        {
          "components": [
            {
              "internalType": "uint64",
              "name": "id",
              "type": "uint64"
            },
            {
              "internalType": "address",
              "name": "researcherWallet",
              "type": "address"
            },
            {
              "internalType": "string",
              "name": "name",
              "type": "string"
            },
            {
              "components": [
                {
                  "internalType": "uint256",
                  "name": "level",
                  "type": "uint256"
                },
                {
                  "internalType": "uint256",
                  "name": "currentEra",
                  "type": "uint256"
                }
              ],
              "internalType": "struct Pool",
              "name": "pool",
              "type": "tuple"
            },
            {
              "internalType": "string",
              "name": "proofPhoto",
              "type": "string"
            },
            {
              "internalType": "uint256",
              "name": "publishedResearches",
              "type": "uint256"
            },
            {
              "internalType": "uint256",
              "name": "lastPublishedAt",
              "type": "uint256"
            },
            {
              "internalType": "uint256",
              "name": "publishedItems",
              "type": "uint256"
            },
            {
              "internalType": "uint256",
              "name": "lastCalculatorItemAt",
              "type": "uint256"
            },
            {
              "internalType": "uint256",
              "name": "createdAt",
              "type": "uint256"
            },
            {
              "internalType": "bool",
              "name": "canPublishMethod",
              "type": "bool"
            }
          ],
          "internalType": "struct Researcher",
          "name": "",
          "type": "tuple"
        }
      ],
      "stateMutability": "view",
      "type": "function"
    },
    {
      "inputs": [
        {
          "internalType": "address",
          "name": "caller",
          "type": "address"
        }
      ],
      "name": "isAllowedCaller",
      "outputs": [
        {
          "internalType": "bool",
          "name": "",
          "type": "bool"
        }
      ],
      "stateMutability": "view",
      "type": "function"
    },
    {
      "inputs": [],
      "name": "maxPenalties",
      "outputs": [
        {
          "internalType": "uint8",
          "name": "",
          "type": "uint8"
        }
      ],
      "stateMutability": "view",
      "type": "function"
    },
    {
      "inputs": [
        {
          "internalType": "address",
          "name": "allowed",
          "type": "address"
        }
      ],
      "name": "newAllowedCaller",
      "outputs": [],
      "stateMutability": "nonpayable",
      "type": "function"
    },
    {
      "inputs": [],
      "name": "nextEraIn",
      "outputs": [
        {
          "internalType": "uint256",
          "name": "",
          "type": "uint256"
        }
      ],
      "stateMutability": "view",
      "type": "function"
    },
    {
      "inputs": [],
      "name": "owner",
      "outputs": [
        {
          "internalType": "address",
          "name": "",
          "type": "address"
        }
      ],
      "stateMutability": "view",
      "type": "function"
    },
    {
      "inputs": [
        {
          "internalType": "address",
          "name": "",
          "type": "address"
        },
        {
          "internalType": "uint256",
          "name": "",
          "type": "uint256"
        }
      ],
      "name": "penalties",
      "outputs": [
        {
          "internalType": "uint256",
          "name": "researchId",
          "type": "uint256"
        }
      ],
      "stateMutability": "view",
      "type": "function"
    },
    {
      "inputs": [],
      "name": "poolCurrentEra",
      "outputs": [
        {
          "internalType": "uint256",
          "name": "",
          "type": "uint256"
        }
      ],
      "stateMutability": "view",
      "type": "function"
    },
    {
      "inputs": [
        {
          "internalType": "address",
          "name": "addr",
          "type": "address"
        },
        {
          "internalType": "uint256",
          "name": "levelsToRemove",
          "type": "uint256"
        }
      ],
      "name": "removePoolLevels",
      "outputs": [],
      "stateMutability": "nonpayable",
      "type": "function"
    },
    {
      "inputs": [],
      "name": "renounceOwnership",
      "outputs": [],
      "stateMutability": "nonpayable",
      "type": "function"
    },
    {
      "inputs": [
        {
          "internalType": "uint256",
          "name": "",
          "type": "uint256"
        }
      ],
      "name": "researchersAddress",
      "outputs": [
        {
          "internalType": "address",
          "name": "",
          "type": "address"
        }
      ],
      "stateMutability": "view",
      "type": "function"
    },
    {
      "inputs": [
        {
          "internalType": "uint256",
          "name": "",
          "type": "uint256"
        }
      ],
      "name": "researches",
      "outputs": [
        {
          "internalType": "uint64",
          "name": "id",
          "type": "uint64"
        },
        {
          "internalType": "uint256",
          "name": "era",
          "type": "uint256"
        },
        {
          "internalType": "address",
          "name": "createdBy",
          "type": "address"
        },
        {
          "internalType": "string",
          "name": "title",
          "type": "string"
        },
        {
          "internalType": "string",
          "name": "thesis",
          "type": "string"
        },
        {
          "internalType": "string",
          "name": "file",
          "type": "string"
        },
        {
          "internalType": "uint256",
          "name": "validationsCount",
          "type": "uint256"
        },
        {
          "internalType": "bool",
          "name": "valid",
          "type": "bool"
        },
        {
          "internalType": "uint256",
          "name": "invalidatedAt",
          "type": "uint256"
        },
        {
          "internalType": "uint256",
          "name": "createdAtBlock",
          "type": "uint256"
        }
      ],
      "stateMutability": "view",
      "type": "function"
    },
    {
      "inputs": [],
      "name": "researchesCount",
      "outputs": [
        {
          "internalType": "uint64",
          "name": "",
          "type": "uint64"
        }
      ],
      "stateMutability": "view",
      "type": "function"
    },
    {
      "inputs": [
        {
          "internalType": "address",
          "name": "",
          "type": "address"
        },
        {
          "internalType": "uint256",
          "name": "",
          "type": "uint256"
        }
      ],
      "name": "researchesIds",
      "outputs": [
        {
          "internalType": "uint256",
          "name": "",
          "type": "uint256"
        }
      ],
      "stateMutability": "view",
      "type": "function"
    },
    {
      "inputs": [],
      "name": "researchesTotalCount",
      "outputs": [
        {
          "internalType": "uint64",
          "name": "",
          "type": "uint64"
        }
      ],
      "stateMutability": "view",
      "type": "function"
    },
    {
      "inputs": [],
      "name": "securityBlocksToValidation",
      "outputs": [
        {
          "internalType": "uint32",
          "name": "",
          "type": "uint32"
        }
      ],
      "stateMutability": "view",
      "type": "function"
    },
    {
      "inputs": [
        {
          "components": [
            {
              "internalType": "address",
              "name": "communityRulesAddress",
              "type": "address"
            },
            {
              "internalType": "address",
              "name": "researcherPoolAddress",
              "type": "address"
            },
            {
              "internalType": "address",
              "name": "validationRulesAddress",
              "type": "address"
            },
            {
              "internalType": "address",
              "name": "voteRulesAddress",
              "type": "address"
            }
          ],
          "internalType": "struct ContractsDependency",
          "name": "contractDependency",
          "type": "tuple"
        }
      ],
      "name": "setContractAddressDependencies",
      "outputs": [],
      "stateMutability": "nonpayable",
      "type": "function"
    },
    {
      "inputs": [],
      "name": "timeBetweenWorks",
      "outputs": [
        {
          "internalType": "uint32",
          "name": "",
          "type": "uint32"
        }
      ],
      "stateMutability": "view",
      "type": "function"
    },
    {
      "inputs": [
        {
          "internalType": "address",
          "name": "addr",
          "type": "address"
        }
      ],
      "name": "totalPenalties",
      "outputs": [
        {
          "internalType": "uint256",
          "name": "",
          "type": "uint256"
        }
      ],
      "stateMutability": "view",
      "type": "function"
    },
    {
      "inputs": [
        {
          "internalType": "address",
          "name": "newOwner",
          "type": "address"
        }
      ],
      "name": "transferOwnership",
      "outputs": [],
      "stateMutability": "nonpayable",
      "type": "function"
    },
    {
      "inputs": [],
      "name": "withdraw",
      "outputs": [],
      "stateMutability": "nonpayable",
      "type": "function"
    }
  ],
  "bytecode": "0x60e060405234801561001057600080fd5b50604051613fde380380613fde83398101604081905261002f916100c2565b61003833610059565b600160025563ffffffff92831660a05260ff9091166080521660c05261010d565b600080546001600160a01b038381166001600160a01b0319831681178455604051919092169283917f8be0079c531659141344cd1fd0a4f28419497f9722a3daafe3b4186f6b6457e09190a35050565b805163ffffffff811681146100bd57600080fd5b919050565b6000806000606084860312156100d757600080fd5b6100e0846100a9565b9250602084015160ff811681146100f657600080fd5b9150610104604085016100a9565b90509250925092565b60805160a05160c051613e9461014a6000396000818161038b0152612b0201526000818161048b0152612f55015260006105960152613e946000f3fe608060405234801561001057600080fd5b50600436106102485760003560e01c80636b6c7c2d1161013b578063b24eb769116100b8578063c77c1ce61161007c578063c77c1ce614610632578063e05cf15514610645578063e7eba4c21461064d578063e8a6a9221461066d578063f2fde38b1461068057600080fd5b8063b24eb76914610591578063b702523b146105ca578063b932c8b7146105dd578063be18bc8014610606578063be9dc5841461062a57600080fd5b80638da5cb5b116100ff5780638da5cb5b146105075780638f93716f1461052c5780639eaf666f1461053f578063a680125814610552578063b1e866551461057e57600080fd5b80636b6c7c2d146104865780636ec7053a146104ad578063715018a6146104c957806372e2e6cc146104d15780637b334154146104e457600080fd5b806335c11677116101c9578063582256f11161018d578063582256f11461041c5780635a52293a146104245780635f7d0704146104375780635fa71c28146104605780636750d5231461047357600080fd5b806335c11677146103865780633ccfd60b146103c2578063406458f2146103ca5780634714b572146103dd57806352d3ea9d1461040257600080fd5b80632076267b116102105780632076267b146102f657806320d817131461032d5780632d68402e146103405780633270f4ad1461035357806332980c9b1461036657600080fd5b80630884a6721461024d5780630eaf485c1461027557806311868d0b146102a757806318ad5c9a146102c75780631f701ee0146102dc575b600080fd5b61026061025b3660046132d2565b610693565b60405190151581526020015b60405180910390f35b60035461028f90600160801b90046001600160401b031681565b6040516001600160401b03909116815260200161026c565b6102ba6102b5366004613302565b6106be565b60405161026c9190613365565b6102da6102d53660046133f8565b610918565b005b60035461028f90600160c01b90046001600160401b031681565b61031f6103043660046132d2565b6001600160a01b031660009081526009602052604090205490565b60405190815260200161026c565b6102da61033b3660046134c5565b610bf8565b6102da61034e366004613514565b611249565b6102da610361366004613592565b6112ae565b610379610374366004613302565b61151b565b60405161026c91906136f0565b6103ad7f000000000000000000000000000000000000000000000000000000000000000081565b60405163ffffffff909116815260200161026c565b6102da611760565b60035461028f906001600160401b031681565b6103f06103eb366004613302565b611962565b60405161026c96959493929190613703565b60035461028f90600160401b90046001600160401b031681565b61031f611b45565b61031f6104323660046133f8565b611bc5565b61044a610445366004613770565b611bf6565b60405161026c9a99989796959493929190613789565b61031f61046e3660046133f8565b611df6565b6102606104813660046132d2565b611e25565b6103ad7f000000000000000000000000000000000000000000000000000000000000000081565b6104b6613e8081565b60405161ffff909116815260200161026c565b6102da611e4a565b6102da6104df366004613813565b611e5c565b6102606104f23660046132d2565b60016020526000908152604090205460ff1681565b6000546001600160a01b03165b6040516001600160a01b03909116815260200161026c565b6102da61053a3660046132d2565b6120c0565b61026061054d3660046138a4565b6120ef565b6102606105603660046132d2565b6001600160a01b031660009081526001602052604090205460ff1690565b61031f61058c3660046138d0565b612126565b6105b87f000000000000000000000000000000000000000000000000000000000000000081565b60405160ff909116815260200161026c565b6102da6105d8366004613907565b6121ca565b6105146105eb366004613770565b600a602052600090815260409020546001600160a01b031681565b610619610614366004613770565b612556565b60405161026c959493929190613958565b61031f600581565b6102606106403660046132d2565b612733565b61031f6127fa565b61066061065b3660046132d2565b612844565b60405161026c91906139bd565b6102da61067b366004613813565b612a29565b6102da61068e3660046132d2565b612ec0565b6001600160a01b0381166000908152600460205260408120600601546106b890612f39565b92915050565b6107096040518060c0016040528060006001600160401b0316815260200160006001600160a01b03168152602001606081526020016060815260200160608152602001600081525090565b6001600160401b03828116600090815260076020908152604091829020825160c08101845281549485168152600160401b9094046001600160a01b031691840191909152600181018054919284019161076190613a9c565b80601f016020809104026020016040519081016040528092919081815260200182805461078d90613a9c565b80156107da5780601f106107af576101008083540402835291602001916107da565b820191906000526020600020905b8154815290600101906020018083116107bd57829003601f168201915b505050505081526020016002820180546107f390613a9c565b80601f016020809104026020016040519081016040528092919081815260200182805461081f90613a9c565b801561086c5780601f106108415761010080835404028352916020019161086c565b820191906000526020600020905b81548152906001019060200180831161084f57829003601f168201915b5050505050815260200160038201805461088590613a9c565b80601f01602080910402602001604051908101604052809291908181526020018280546108b190613a9c565b80156108fe5780601f106108d3576101008083540402835291602001916108fe565b820191906000526020600020905b8154815290600101906020018083116108e157829003601f168201915b505050505081526020016004820154815250509050919050565b3360009081526001602052604090205460ff166109715760405162461bcd60e51b81526020600482015260126024820152712737ba1030b63637bbb2b21031b0b63632b960711b60448201526064015b60405180910390fd5b6001600160a01b03808316600090815260046020908152604080832081516101608101835281546001600160401b0381168252600160401b900490951692850192909252600182018054939493918401916109cb90613a9c565b80601f01602080910402602001604051908101604052809291908181526020018280546109f790613a9c565b8015610a445780601f10610a1957610100808354040283529160200191610a44565b820191906000526020600020905b815481529060010190602001808311610a2757829003601f168201915b5050505050815260200160028201604051806040016040529081600082015481526020016001820154815250508152602001600482018054610a8590613a9c565b80601f0160208091040260200160405190810160405280929190818152602001828054610ab190613a9c565b8015610afe5780601f10610ad357610100808354040283529160200191610afe565b820191906000526020600020905b815481529060010190602001808311610ae157829003601f168201915b505050918352505060058201546020820152600682015460408201526007820154606082015260088201546080820152600982015460a0820152600a9091015460ff16151560c090910152905081610b5b57606081015151610b5d565b815b6001600160a01b03841660009081526004602052604081206002018054909190610b88908490613aec565b9091555050600c54604051630c56ae4d60e11b81526001600160a01b03858116600483015260248201859052909116906318ad5c9a90604401600060405180830381600087803b158015610bdb57600080fd5b505af1158015610bef573d6000803e3d6000fd5b50505050505050565b610c00612f83565b805161012c1015610c235760405162461bcd60e51b815260040161096890613aff565b600e546040516356fd539760e11b81523360048201526001600160a01b039091169063adfaa72e90602401602060405180830381865afa158015610c6b573d6000803e3d6000fd5b505050506040513d601f19601f82011682018060405250810190610c8f9190613b27565b610cc95760405162461bcd60e51b815260206004820152600b60248201526a2737ba1030903b37ba32b960a91b6044820152606401610968565b600d54604051630d84466b60e21b81523360048201526001600160a01b039091169063361119ac90602401602060405180830381865afa158015610d11573d6000803e3d6000fd5b505050506040513d601f19601f82011682018060405250810190610d359190613b27565b610d795760405162461bcd60e51b8152602060048201526015602482015274576169742074696d654265747765656e566f74657360581b6044820152606401610968565b6001600160401b0380831660009081526005602090815260408083208151610140810183528154909516855260018101549285019290925260028201546001600160a01b031690840152600381018054929392606084019190610ddb90613a9c565b80601f0160208091040260200160405190810160405280929190818152602001828054610e0790613a9c565b8015610e545780601f10610e2957610100808354040283529160200191610e54565b820191906000526020600020905b815481529060010190602001808311610e3757829003601f168201915b50505050508152602001600482018054610e6d90613a9c565b80601f0160208091040260200160405190810160405280929190818152602001828054610e9990613a9c565b8015610ee65780601f10610ebb57610100808354040283529160200191610ee6565b820191906000526020600020905b815481529060010190602001808311610ec957829003601f168201915b50505050508152602001600582018054610eff90613a9c565b80601f0160208091040260200160405190810160405280929190818152602001828054610f2b90613a9c565b8015610f785780601f10610f4d57610100808354040283529160200191610f78565b820191906000526020600020905b815481529060010190602001808311610f5b57829003601f168201915b505050918352505060068201546020820152600782015460ff16151560408201526008820154606082015260099091015460809091015260e08101519091508015610fcd57508060200151610fcb6127fa565b145b61100e5760405162461bcd60e51b815260206004820152601260248201527114995cd9585c98da081b9bdd08159053125160721b6044820152606401610968565b60018160c0018181516110219190613b49565b9052506001600160401b038381166000908152600560209081526040918290208451815467ffffffffffffffff1916941693909317835583015160018301558201516002820180546001600160a01b0319166001600160a01b039092169190911790556060820151829190600382019061109b9082613baa565b50608082015160048201906110b09082613baa565b5060a082015160058201906110c59082613baa565b5060c0820151600682015560e082015160078201805460ff1916911515919091179055610100820151600882015561012090910151600990910155600d54604080516369bf81c360e01b815290516000926001600160a01b0316916369bf81c39160048083019260209291908290030181865afa15801561114a573d6000803e3d6000fd5b505050506040513d601f19601f8201168201806040525081019061116e9190613c68565b60c083015110801591506111d35761118582612fda565b9150336001600160a01b0316846001600160401b03167fec82afd035df5f6da576aafb10163adedd64aa9955e7843369f1151fe7bcc627856040516111ca9190613c81565b60405180910390a35b600d5460405163513d5dfd60e01b81526001600160a01b039091169063513d5dfd9061120790859087903390600401613c94565b600060405180830381600087803b15801561122157600080fd5b505af1158015611235573d6000803e3d6000fd5b5050505050506112456001600255565b5050565b611251613104565b8051600b80546001600160a01b03199081166001600160a01b03938416179091556020830151600c805483169184169190911790556040830151600d80548316918416919091179055606090920151600e80549093169116179055565b83516023108015906112c35750825161012c10155b80156112d157508151601410155b6112ed5760405162461bcd60e51b815260040161096890613aff565b600b54604051631292f8c160e31b81526001600160a01b0390911690639497c60890611320906003903390600401613cf4565b602060405180830381865afa15801561133d573d6000803e3d6000fd5b505050506040513d601f19601f820116820180604052508101906113619190613b27565b61137d5760405162461bcd60e51b815260040161096890613d1a565b61138633611e25565b6113c65760405162461bcd60e51b815260206004820152601160248201527010d85b89dd081c1d589b1a5cda081e595d607a1b6044820152606401610968565b6003546000906113e790600160801b90046001600160401b03166001613d44565b6040805160c0810182526001600160401b038084168083523360208085019182528486018c8152606086018c9052608086018b905260a086018a905260009384526007909152949091208351815492516001600160a01b0316600160401b026001600160e01b031990931693169290921717815591519293509160018201906114709082613baa565b50606082015160028201906114859082613baa565b506080820151600382019061149a9082613baa565b5060a0919091015160049091015560038054600160801b90046001600160401b03169060106114c883613d63565b82546001600160401b039182166101009390930a92830291909202199091161790555033600090815260046020526040812043600882015560070180549161150f83613d8e565b91905055505050505050565b6115236131c6565b6001600160401b038083166000908152600560209081526040918290208251610140810184528154909416845260018101549184019190915260028101546001600160a01b03169183019190915260038101805460608401919061158690613a9c565b80601f01602080910402602001604051908101604052809291908181526020018280546115b290613a9c565b80156115ff5780601f106115d4576101008083540402835291602001916115ff565b820191906000526020600020905b8154815290600101906020018083116115e257829003601f168201915b5050505050815260200160048201805461161890613a9c565b80601f016020809104026020016040519081016040528092919081815260200182805461164490613a9c565b80156116915780601f1061166657610100808354040283529160200191611691565b820191906000526020600020905b81548152906001019060200180831161167457829003601f168201915b505050505081526020016005820180546116aa90613a9c565b80601f01602080910402602001604051908101604052809291908181526020018280546116d690613a9c565b80156117235780601f106116f857610100808354040283529160200191611723565b820191906000526020600020905b81548152906001019060200180831161170657829003601f168201915b505050918352505060068201546020820152600782015460ff16151560408201526008820154606082015260099091015460809091015292915050565b611768612f83565b600b54604051631292f8c160e31b81526001600160a01b0390911690639497c6089061179b906003903390600401613cf4565b602060405180830381865afa1580156117b8573d6000803e3d6000fd5b505050506040513d601f19601f820116820180604052508101906117dc9190613b27565b6117f85760405162461bcd60e51b815260040161096890613d1a565b336000908152600460208190526040918290206003810154600c549351637df42f8360e11b8152928301819052909290916001600160a01b039091169063fbe85f0690602401602060405180830381865afa15801561185b573d6000803e3d6000fd5b505050506040513d601f19601f8201168201806040525081019061187f9190613b27565b6118d95760405162461bcd60e51b815260206004820152602560248201527f4e6f7420656c696769626c6520746f20776974686472617720666f7220746869604482015264732065726160d81b6064820152608401610968565b6003820180549060006118eb83613d8e565b9091555050600c5460405163f3fef3a360e01b8152336004820152602481018390526001600160a01b039091169063f3fef3a390604401600060405180830381600087803b15801561193c57600080fd5b505af1158015611950573d6000803e3d6000fd5b5050505050506119606001600255565b565b600760205260009081526040902080546001820180546001600160401b03831693600160401b9093046001600160a01b03169291906119a090613a9c565b80601f01602080910402602001604051908101604052809291908181526020018280546119cc90613a9c565b8015611a195780601f106119ee57610100808354040283529160200191611a19565b820191906000526020600020905b8154815290600101906020018083116119fc57829003601f168201915b505050505090806002018054611a2e90613a9c565b80601f0160208091040260200160405190810160405280929190818152602001828054611a5a90613a9c565b8015611aa75780601f10611a7c57610100808354040283529160200191611aa7565b820191906000526020600020905b815481529060010190602001808311611a8a57829003601f168201915b505050505090806003018054611abc90613a9c565b80601f0160208091040260200160405190810160405280929190818152602001828054611ae890613a9c565b8015611b355780601f10611b0a57610100808354040283529160200191611b35565b820191906000526020600020905b815481529060010190602001808311611b1857829003601f168201915b5050505050908060040154905086565b600c546000906001600160a01b031663d5ee3eb5611b616127fa565b6040518263ffffffff1660e01b8152600401611b7f91815260200190565b602060405180830381865afa158015611b9c573d6000803e3d6000fd5b505050506040513d601f19601f82011682018060405250810190611bc09190613c68565b905090565b60066020528160005260406000208181548110611be157600080fd5b90600052602060002001600091509150505481565b60056020526000908152604090208054600182015460028301546003840180546001600160401b039094169492936001600160a01b039092169291611c3a90613a9c565b80601f0160208091040260200160405190810160405280929190818152602001828054611c6690613a9c565b8015611cb35780601f10611c8857610100808354040283529160200191611cb3565b820191906000526020600020905b815481529060010190602001808311611c9657829003601f168201915b505050505090806004018054611cc890613a9c565b80601f0160208091040260200160405190810160405280929190818152602001828054611cf490613a9c565b8015611d415780601f10611d1657610100808354040283529160200191611d41565b820191906000526020600020905b815481529060010190602001808311611d2457829003601f168201915b505050505090806005018054611d5690613a9c565b80601f0160208091040260200160405190810160405280929190818152602001828054611d8290613a9c565b8015611dcf5780601f10611da457610100808354040283529160200191611dcf565b820191906000526020600020905b815481529060010190602001808311611db257829003601f168201915b505050506006830154600784015460088501546009909501549394919360ff90911692508a565b60096020528160005260406000208181548110611e1257600080fd5b6000918252602090912001549150829050565b6001600160a01b0381166000908152600460205260408120600801546106b890612f39565b611e52613104565b611960600061315e565b8251606410801590611e715750815161012c10155b8015611e7f57508051609610155b611e9b5760405162461bcd60e51b815260040161096890613aff565b600b54604051631292f8c160e31b81526001600160a01b0390911690639497c60890611ece906003903390600401613cf4565b602060405180830381865afa158015611eeb573d6000803e3d6000fd5b505050506040513d601f19601f82011682018060405250810190611f0f9190613b27565b611f2b5760405162461bcd60e51b815260040161096890613d1a565b336000908152600460205260409020600a015460ff16611f8d5760405162461bcd60e51b815260206004820152601760248201527f4f6e6c79206f6e65206d6574686f6420616c6c6f7765640000000000000000006044820152606401610968565b600354600090611fae90600160c01b90046001600160401b03166001613d44565b6040805160a0810182526001600160401b038084168083523360208085019182528486018b8152606086018b9052608086018a905260009384526008909152949091208351815492516001600160a01b0316600160401b026001600160e01b031990931693169290921717815591519293509160018201906120309082613baa565b50606082015160028201906120459082613baa565b506080820151600382019061205a9082613baa565b505060038054600160c01b90046001600160401b03169150601861207d83613d63565b82546001600160401b039182166101009390930a92830291909202199091161790555050336000908152600460205260409020600a01805460ff19169055505050565b6120c8613104565b6001600160a01b03166000908152600160208190526040909120805460ff19169091179055565b6000600583116121015750600161211f565b6000612118600161211287876131ae565b906131ba565b8310159150505b9392505050565b3360009081526001602052604081205460ff1661217a5760405162461bcd60e51b81526020600482015260126024820152712737ba1030b63637bbb2b21031b0b63632b960711b6044820152606401610968565b506001600160a01b0391909116600081815260096020818152604080842081518084019092526001600160401b039096168152855460018101875586855282852091519101559290915290525490565b81516032108015906121de57508051609610155b6121fa5760405162461bcd60e51b815260040161096890613aff565b600b54604051632f22dc7b60e01b8152613e80916001600160a01b031690632f22dc7b9061222d90600390600401613da7565b602060405180830381865afa15801561224a573d6000803e3d6000fd5b505050506040513d601f19601f8201168201806040525081019061226e9190613c68565b11156122ad5760405162461bcd60e51b815260206004820152600e60248201526d13585e081d5cd95c881b1a5b5a5d60921b6044820152606401610968565b600b5460405162f5960960e51b81526000916001600160a01b031690631eb2c120906122de90600390600401613da7565b602060405180830381865afa1580156122fb573d6000803e3d6000fd5b505050506040513d601f19601f8201168201806040525081019061231f9190613db5565b61232a906001613d44565b9050604051806101600160405280826001600160401b03168152602001336001600160a01b031681526020018481526020016040518060400160405280600081526020016123766127fa565b90528152602080820185905260006040808401829052606084018290526080840182905260a084018290524360c0850152600160e0909401849052338252600483529081902084518154938601516001600160a01b0316600160401b026001600160e01b03199094166001600160401b039091161792909217825583015190918201906124039082613baa565b506060820151805160028301556020015160038201556080820151600482019061242d9082613baa565b5060a0820151600582015560c0820151600682015560e082015160078201556101008201516008820155610120820151600982015561014090910151600a918201805460ff19169115159190911790556001600160401b03821660009081526020919091526040908190208054336001600160a01b03199091168117909155600b549151639c3eead960e01b81526001600160a01b0390921691639c3eead9916124dc91600390600401613dd2565b600060405180830381600087803b1580156124f657600080fd5b505af115801561250a573d6000803e3d6000fd5b50505050336001600160a01b03167fd9e252c4299740928760c15af4c9d6fee5a786293f1f330440036039a6ed533a8285604051612549929190613def565b60405180910390a2505050565b600860205260009081526040902080546001820180546001600160401b03831693600160401b9093046001600160a01b031692919061259490613a9c565b80601f01602080910402602001604051908101604052809291908181526020018280546125c090613a9c565b801561260d5780601f106125e25761010080835404028352916020019161260d565b820191906000526020600020905b8154815290600101906020018083116125f057829003601f168201915b50505050509080600201805461262290613a9c565b80601f016020809104026020016040519081016040528092919081815260200182805461264e90613a9c565b801561269b5780601f106126705761010080835404028352916020019161269b565b820191906000526020600020905b81548152906001019060200180831161267e57829003601f168201915b5050505050908060030180546126b090613a9c565b80601f01602080910402602001604051908101604052809291908181526020018280546126dc90613a9c565b80156127295780601f106126fe57610100808354040283529160200191612729565b820191906000526020600020905b81548152906001019060200180831161270c57829003601f168201915b5050505050905085565b60008061273f83612844565b80519091506001600160401b031661275a5750600092915050565b60038054600b5460405162f5960960e51b815261211f93600160401b9093046001600160401b0316926001600160a01b0390921691631eb2c120916127a29190600401613da7565b602060405180830381865afa1580156127bf573d6000803e3d6000fd5b505050506040513d601f19601f820116820180604052508101906127e39190613db5565b6001600160401b03168360600151600001516120ef565b600c5460408051637686fbcf60e11b815290516000926001600160a01b03169163ed0df79e9160048083019260209291908290030181865afa158015611b9c573d6000803e3d6000fd5b61284c61322d565b6001600160a01b0380831660009081526004602090815260409182902082516101608101845281546001600160401b0381168252600160401b90049094169184019190915260018101805491928401916128a590613a9c565b80601f01602080910402602001604051908101604052809291908181526020018280546128d190613a9c565b801561291e5780601f106128f35761010080835404028352916020019161291e565b820191906000526020600020905b81548152906001019060200180831161290157829003601f168201915b505050505081526020016002820160405180604001604052908160008201548152602001600182015481525050815260200160048201805461295f90613a9c565b80601f016020809104026020016040519081016040528092919081815260200182805461298b90613a9c565b80156129d85780601f106129ad576101008083540402835291602001916129d8565b820191906000526020600020905b8154815290600101906020018083116129bb57829003601f168201915b505050918352505060058201546020820152600682015460408201526007820154606082015260088201546080820152600982015460a0820152600a9091015460ff16151560c09091015292915050565b612a31612f83565b8251606410801590612a465750815161012c10155b8015612a5457508051609610155b612a705760405162461bcd60e51b815260040161096890613aff565b600b54604051631292f8c160e31b81526001600160a01b0390911690639497c60890612aa3906003903390600401613cf4565b602060405180830381865afa158015612ac0573d6000803e3d6000fd5b505050506040513d601f19601f82011682018060405250810190612ae49190613b27565b612b005760405162461bcd60e51b815260040161096890613d1a565b7f000000000000000000000000000000000000000000000000000000000000000063ffffffff16612b2f611b45565b11612b725760405162461bcd60e51b81526020600482015260136024820152725761697420756e74696c206e6578742065726160681b6044820152606401610968565b612b7b33610693565b612bbb5760405162461bcd60e51b815260206004820152601160248201527010d85b89dd081c1d589b1a5cda081e595d607a1b6044820152606401610968565b600380546001600160401b0316906000612bd483613d63565b91906101000a8154816001600160401b0302191690836001600160401b03160217905550506003600881819054906101000a90046001600160401b031680929190612c1e90613d63565b91906101000a8154816001600160401b0302191690836001600160401b03160217905550506000600360089054906101000a90046001600160401b03169050604051806101400160405280826001600160401b03168152602001612c806127fa565b8152336020808301919091526040808301889052606080840188905260808401879052600060a08501819052600160c0860181905260e0860182905243610100909601959095526001600160401b03878116825260058552908390208651815467ffffffffffffffff1916921691909117815592850151938301939093558301516002820180546001600160a01b0319166001600160a01b03909216919091179055908201516003820190612d359082613baa565b5060808201516004820190612d4a9082613baa565b5060a08201516005820190612d5f9082613baa565b5060c0820151600682015560e082015160078201805460ff19169115159190911790556101008201516008820155610120909101516009909101553360009081526004602052604081206005810180549192612dba83613d8e565b90915550504360068083019190915533600090815260209182526040812080546001810182559082529181206001600160401b03851692019190915560028201805491612e0683613d8e565b9091555050600c546040516352b8d3ed60e01b8152336004820152600160248201526001600160a01b03909116906352b8d3ed90604401600060405180830381600087803b158015612e5757600080fd5b505af1158015612e6b573d6000803e3d6000fd5b50506040514381523392506001600160401b03851691507fe4c1c9646dc792c06d1b46cbe82f47bc6843a8dee984ecab0e2e4fb1280f1fed9060200160405180910390a35050612ebb6001600255565b505050565b612ec8613104565b6001600160a01b038116612f2d5760405162461bcd60e51b815260206004820152602660248201527f4f776e61626c653a206e6577206f776e657220697320746865207a65726f206160448201526564647265737360d01b6064820152608401610968565b612f368161315e565b50565b600081600003612f4b57506001919050565b612f7b63ffffffff7f00000000000000000000000000000000000000000000000000000000000000001683613b49565b431192915050565b6002805403612fd45760405162461bcd60e51b815260206004820152601f60248201527f5265656e7472616e637947756172643a207265656e7472616e742063616c6c006044820152606401610968565b60028055565b612fe26131c6565b600380546001600160401b0316906000612ffb83613e19565b825461010092830a6001600160401b03818102199092169282160291909117909255600060e086018190524391860191909152845182168152600560209081526040918290208651815467ffffffffffffffff1916941693909317835585015160018301558401516002820180546001600160a01b0319166001600160a01b039092169190911790556060840151849250600382019061309b9082613baa565b50608082015160048201906130b09082613baa565b5060a082015160058201906130c59082613baa565b5060c0820151600682015560e082015160078201805460ff19169115159190911790556101008201516008820155610120909101516009909101555090565b6000546001600160a01b031633146119605760405162461bcd60e51b815260206004820181905260248201527f4f776e61626c653a2063616c6c6572206973206e6f7420746865206f776e65726044820152606401610968565b600080546001600160a01b038381166001600160a01b0319831681178455604051919092169283917f8be0079c531659141344cd1fd0a4f28419497f9722a3daafe3b4186f6b6457e09190a35050565b600061211f8284613e3c565b600061211f8284613b49565b60405180610140016040528060006001600160401b031681526020016000815260200160006001600160a01b031681526020016060815260200160608152602001606081526020016000815260200160001515815260200160008152602001600081525090565b60405180610160016040528060006001600160401b0316815260200160006001600160a01b031681526020016060815260200161327d604051806040016040528060008152602001600081525090565b81526020016060815260200160008152602001600081526020016000815260200160008152602001600081526020016000151581525090565b80356001600160a01b03811681146132cd57600080fd5b919050565b6000602082840312156132e457600080fd5b61211f826132b6565b6001600160401b0381168114612f3657600080fd5b60006020828403121561331457600080fd5b813561211f816132ed565b6000815180845260005b8181101561334557602081850181015186830182015201613329565b506000602082860101526020601f19601f83011685010191505092915050565b602081526001600160401b03825116602082015260018060a01b0360208301511660408201526000604083015160c060608401526133a660e084018261331f565b90506060840151601f198483030160808501526133c3828261331f565b9150506080840151601f198483030160a08501526133e1828261331f565b91505060a084015160c08401528091505092915050565b6000806040838503121561340b57600080fd5b613414836132b6565b946020939093013593505050565b634e487b7160e01b600052604160045260246000fd5b600082601f83011261344957600080fd5b81356001600160401b0381111561346257613462613422565b604051601f8201601f19908116603f011681016001600160401b038111828210171561349057613490613422565b6040528181528382016020018510156134a857600080fd5b816020850160208301376000918101602001919091529392505050565b600080604083850312156134d857600080fd5b82356134e3816132ed565b915060208301356001600160401b038111156134fe57600080fd5b61350a85828601613438565b9150509250929050565b6000608082840312801561352757600080fd5b50604051608081016001600160401b038111828210171561354a5761354a613422565b604052613556836132b6565b8152613564602084016132b6565b6020820152613575604084016132b6565b6040820152613586606084016132b6565b60608201529392505050565b600080600080608085870312156135a857600080fd5b84356001600160401b038111156135be57600080fd5b6135ca87828801613438565b94505060208501356001600160401b038111156135e657600080fd5b6135f287828801613438565b93505060408501356001600160401b0381111561360e57600080fd5b61361a87828801613438565b949793965093946060013593505050565b80516001600160401b03168252602081015160208301526000604082015161365e60408501826001600160a01b03169052565b506060820151610140606085015261367a61014085018261331f565b905060808301518482036080860152613693828261331f565b91505060a083015184820360a08601526136ad828261331f565b91505060c083015160c085015260e08301516136cd60e086018215159052565b506101008301516101008501526101208301516101208501528091505092915050565b60208152600061211f602083018461362b565b6001600160401b03871681526001600160a01b038616602082015260c0604082018190526000906137369083018761331f565b8281036060840152613748818761331f565b9050828103608084015261375c818661331f565b9150508260a0830152979650505050505050565b60006020828403121561378257600080fd5b5035919050565b6001600160401b038b16815289602082015260018060a01b0389166040820152610140606082015260006137c161014083018a61331f565b82810360808401526137d3818a61331f565b905082810360a08401526137e7818961331f565b60c0840197909752505092151560e0840152610100830191909152610120909101529695505050505050565b60008060006060848603121561382857600080fd5b83356001600160401b0381111561383e57600080fd5b61384a86828701613438565b93505060208401356001600160401b0381111561386657600080fd5b61387286828701613438565b92505060408401356001600160401b0381111561388e57600080fd5b61389a86828701613438565b9150509250925092565b6000806000606084860312156138b957600080fd5b505081359360208301359350604090920135919050565b600080604083850312156138e357600080fd5b6138ec836132b6565b915060208301356138fc816132ed565b809150509250929050565b6000806040838503121561391a57600080fd5b82356001600160401b0381111561393057600080fd5b61393c85828601613438565b92505060208301356001600160401b038111156134fe57600080fd5b6001600160401b03861681526001600160a01b038516602082015260a06040820181905260009061398b9083018661331f565b828103606084015261399d818661331f565b905082810360808401526139b1818561331f565b98975050505050505050565b602081526139d76020820183516001600160401b03169052565b600060208301516139f360408401826001600160a01b03169052565b5060408301516101806060840152613a0f6101a084018261331f565b606085015180516080860152602081015160a0860152909150506080840151838203601f190160c0850152613a44828261331f565b91505060a084015160e084015260c084015161010084015260e0840151610120840152610100840151610140840152610120840151610160840152610140840151613a9461018085018215159052565b509392505050565b600181811c90821680613ab057607f821691505b602082108103613ad057634e487b7160e01b600052602260045260246000fd5b50919050565b634e487b7160e01b600052601160045260246000fd5b818103818111156106b8576106b8613ad6565b6020808252600e908201526d4d6178206368617261637465727360901b604082015260600190565b600060208284031215613b3957600080fd5b8151801515811461211f57600080fd5b808201808211156106b8576106b8613ad6565b601f821115612ebb57806000526020600020601f840160051c81016020851015613b835750805b601f840160051c820191505b81811015613ba35760008155600101613b8f565b5050505050565b81516001600160401b03811115613bc357613bc3613422565b613bd781613bd18454613a9c565b84613b5c565b6020601f821160018114613c0b5760008315613bf35750848201515b600019600385901b1c1916600184901b178455613ba3565b600084815260208120601f198516915b82811015613c3b5787850151825560209485019460019092019101613c1b565b5084821015613c595786840151600019600387901b60f8161c191681555b50505050600190811b01905550565b600060208284031215613c7a57600080fd5b5051919050565b60208152600061211f602083018461331f565b606081526000613ca7606083018661362b565b8281036020840152613cb9818661331f565b91505060018060a01b0383166040830152949350505050565b60098110613cf057634e487b7160e01b600052602160045260246000fd5b9052565b60408101613d028285613cd2565b6001600160a01b039290921660209190910152919050565b60208082526010908201526f4f6e6c7920726573656172636865727360801b604082015260600190565b6001600160401b0381811683821601908111156106b8576106b8613ad6565b60006001600160401b0382166001600160401b038103613d8557613d85613ad6565b60010192915050565b600060018201613da057613da0613ad6565b5060010190565b602081016106b88284613cd2565b600060208284031215613dc757600080fd5b815161211f816132ed565b6001600160a01b03831681526040810161211f6020830184613cd2565b6001600160401b0383168152604060208201526000613e11604083018461331f565b949350505050565b60006001600160401b03821680613e3257613e32613ad6565b6000190192915050565b600082613e5957634e487b7160e01b600052601260045260246000fd5b50049056fea2646970667358221220817f2f9e7efe909a07bbac648ed628d7e13a35ebf4b0a4f5b3d0d034a55043ec64736f6c634300081b0033",
  "linkReferences": {},
  "deployedLinkReferences": {}
}