{
  "_format": "hh-sol-artifact-1",
  "contractName": "ResearcherRules",
  "sourceName": "contracts/ResearcherRules.sol",
  "abi": [
    {
      "inputs": [
        {
          "internalType": "uint32",
          "name": "timeBetweenWorks_",
          "type": "uint32"
        },
        {
          "internalType": "uint8",
          "name": "maxPenalties_",
          "type": "uint8"
        },
        {
          "internalType": "uint32",
          "name": "securityBlocksToValidation_",
          "type": "uint32"
        }
      ],
      "stateMutability": "nonpayable",
      "type": "constructor"
    },
    {
      "inputs": [
        {
          "internalType": "address",
          "name": "owner",
          "type": "address"
        }
      ],
      "name": "OwnableInvalidOwner",
      "type": "error"
    },
    {
      "inputs": [
        {
          "internalType": "address",
          "name": "account",
          "type": "address"
        }
      ],
      "name": "OwnableUnauthorizedAccount",
      "type": "error"
    },
    {
      "inputs": [],
      "name": "ReentrancyGuardReentrantCall",
      "type": "error"
    },
    {
      "anonymous": false,
      "inputs": [
        {
          "indexed": true,
          "internalType": "address",
          "name": "previousOwner",
          "type": "address"
        },
        {
          "indexed": true,
          "internalType": "address",
          "name": "newOwner",
          "type": "address"
        }
      ],
      "name": "OwnershipTransferred",
      "type": "event"
    },
    {
      "anonymous": false,
      "inputs": [
        {
          "indexed": true,
          "internalType": "uint256",
          "name": "researchId",
          "type": "uint256"
        },
        {
          "indexed": true,
          "internalType": "address",
          "name": "invalidatedBy",
          "type": "address"
        },
        {
          "indexed": false,
          "internalType": "string",
          "name": "justification",
          "type": "string"
        }
      ],
      "name": "ResearchInvalidated",
      "type": "event"
    },
    {
      "anonymous": false,
      "inputs": [
        {
          "indexed": true,
          "internalType": "uint256",
          "name": "researchId",
          "type": "uint256"
        },
        {
          "indexed": true,
          "internalType": "address",
          "name": "researcher",
          "type": "address"
        },
        {
          "indexed": false,
          "internalType": "uint256",
          "name": "publishedAt",
          "type": "uint256"
        }
      ],
      "name": "ResearchPublished",
      "type": "event"
    },
    {
      "anonymous": false,
      "inputs": [
        {
          "indexed": true,
          "internalType": "address",
          "name": "researcherAddress",
          "type": "address"
        },
        {
          "indexed": false,
          "internalType": "uint256",
          "name": "researcherId",
          "type": "uint256"
        },
        {
          "indexed": false,
          "internalType": "string",
          "name": "name",
          "type": "string"
        }
      ],
      "name": "ResearcherRegistered",
      "type": "event"
    },
    {
      "inputs": [],
      "name": "INITIAL_USER_COUNT_THRESHOLD",
      "outputs": [
        {
          "internalType": "uint256",
          "name": "",
          "type": "uint256"
        }
      ],
      "stateMutability": "view",
      "type": "function"
    },
    {
      "inputs": [],
      "name": "MAX_USER_COUNT",
      "outputs": [
        {
          "internalType": "uint16",
          "name": "",
          "type": "uint16"
        }
      ],
      "stateMutability": "view",
      "type": "function"
    },
    {
      "inputs": [
        {
          "internalType": "string",
          "name": "item",
          "type": "string"
        },
        {
          "internalType": "string",
          "name": "thesis",
          "type": "string"
        },
        {
          "internalType": "string",
          "name": "unit",
          "type": "string"
        },
        {
          "internalType": "uint256",
          "name": "carbonImpact",
          "type": "uint256"
        }
      ],
      "name": "addCalculatorItem",
      "outputs": [],
      "stateMutability": "nonpayable",
      "type": "function"
    },
    {
      "inputs": [
        {
          "internalType": "string",
          "name": "title",
          "type": "string"
        },
        {
          "internalType": "string",
          "name": "research",
          "type": "string"
        },
        {
          "internalType": "string",
          "name": "projectURL",
          "type": "string"
        }
      ],
      "name": "addEvaluationMethod",
      "outputs": [],
      "stateMutability": "nonpayable",
      "type": "function"
    },
    {
      "inputs": [
        {
          "internalType": "address",
          "name": "addr",
          "type": "address"
        },
        {
          "internalType": "uint64",
          "name": "researchId",
          "type": "uint64"
        }
      ],
      "name": "addPenalty",
      "outputs": [
        {
          "internalType": "uint256",
          "name": "",
          "type": "uint256"
        }
      ],
      "stateMutability": "nonpayable",
      "type": "function"
    },
    {
      "inputs": [
        {
          "internalType": "string",
          "name": "title",
          "type": "string"
        },
        {
          "internalType": "string",
          "name": "thesis",
          "type": "string"
        },
        {
          "internalType": "string",
          "name": "file",
          "type": "string"
        }
      ],
      "name": "addResearch",
      "outputs": [],
      "stateMutability": "nonpayable",
      "type": "function"
    },
    {
      "inputs": [
        {
          "internalType": "uint64",
          "name": "id",
          "type": "uint64"
        },
        {
          "internalType": "string",
          "name": "justification",
          "type": "string"
        }
      ],
      "name": "addResearchValidation",
      "outputs": [],
      "stateMutability": "nonpayable",
      "type": "function"
    },
    {
      "inputs": [
        {
          "internalType": "string",
          "name": "name",
          "type": "string"
        },
        {
          "internalType": "string",
          "name": "proofPhoto",
          "type": "string"
        }
      ],
      "name": "addResearcher",
      "outputs": [],
      "stateMutability": "nonpayable",
      "type": "function"
    },
    {
      "inputs": [
        {
          "internalType": "address",
          "name": "",
          "type": "address"
        }
      ],
      "name": "allowedCallers",
      "outputs": [
        {
          "internalType": "bool",
          "name": "",
          "type": "bool"
        }
      ],
      "stateMutability": "view",
      "type": "function"
    },
    {
      "inputs": [
        {
          "internalType": "uint64",
          "name": "",
          "type": "uint64"
        }
      ],
      "name": "calculatorItems",
      "outputs": [
        {
          "internalType": "uint64",
          "name": "id",
          "type": "uint64"
        },
        {
          "internalType": "address",
          "name": "createdBy",
          "type": "address"
        },
        {
          "internalType": "string",
          "name": "item",
          "type": "string"
        },
        {
          "internalType": "string",
          "name": "thesis",
          "type": "string"
        },
        {
          "internalType": "string",
          "name": "unit",
          "type": "string"
        },
        {
          "internalType": "uint256",
          "name": "carbonImpact",
          "type": "uint256"
        }
      ],
      "stateMutability": "view",
      "type": "function"
    },
    {
      "inputs": [],
      "name": "calculatorItemsCount",
      "outputs": [
        {
          "internalType": "uint64",
          "name": "",
          "type": "uint64"
        }
      ],
      "stateMutability": "view",
      "type": "function"
    },
    {
      "inputs": [
        {
          "internalType": "uint256",
          "name": "totalLevels",
          "type": "uint256"
        },
        {
          "internalType": "uint256",
          "name": "totalUsers",
          "type": "uint256"
        },
        {
          "internalType": "uint256",
          "name": "userLevels",
          "type": "uint256"
        }
      ],
      "name": "canInvite",
      "outputs": [
        {
          "internalType": "bool",
          "name": "",
          "type": "bool"
        }
      ],
      "stateMutability": "pure",
      "type": "function"
    },
    {
      "inputs": [
        {
          "internalType": "address",
          "name": "addr",
          "type": "address"
        }
      ],
      "name": "canPublishCalculatorItem",
      "outputs": [
        {
          "internalType": "bool",
          "name": "",
          "type": "bool"
        }
      ],
      "stateMutability": "view",
      "type": "function"
    },
    {
      "inputs": [
        {
          "internalType": "address",
          "name": "addr",
          "type": "address"
        }
      ],
      "name": "canPublishResearch",
      "outputs": [
        {
          "internalType": "bool",
          "name": "",
          "type": "bool"
        }
      ],
      "stateMutability": "view",
      "type": "function"
    },
    {
      "inputs": [
        {
          "internalType": "address",
          "name": "addr",
          "type": "address"
        }
      ],
      "name": "canSendInvite",
      "outputs": [
        {
          "internalType": "bool",
          "name": "",
          "type": "bool"
        }
      ],
      "stateMutability": "view",
      "type": "function"
    },
    {
      "inputs": [
        {
          "internalType": "uint256",
          "name": "",
          "type": "uint256"
        }
      ],
      "name": "evaluationMethods",
      "outputs": [
        {
          "internalType": "uint64",
          "name": "id",
          "type": "uint64"
        },
        {
          "internalType": "address",
          "name": "createdBy",
          "type": "address"
        },
        {
          "internalType": "string",
          "name": "title",
          "type": "string"
        },
        {
          "internalType": "string",
          "name": "research",
          "type": "string"
        },
        {
          "internalType": "string",
          "name": "projectURL",
          "type": "string"
        }
      ],
      "stateMutability": "view",
      "type": "function"
    },
    {
      "inputs": [],
      "name": "evaluationMethodsCount",
      "outputs": [
        {
          "internalType": "uint64",
          "name": "",
          "type": "uint64"
        }
      ],
      "stateMutability": "view",
      "type": "function"
    },
    {
      "inputs": [
        {
          "internalType": "uint64",
          "name": "id",
          "type": "uint64"
        }
      ],
      "name": "getCalculatorItem",
      "outputs": [
        {
          "components": [
            {
              "internalType": "uint64",
              "name": "id",
              "type": "uint64"
            },
            {
              "internalType": "address",
              "name": "createdBy",
              "type": "address"
            },
            {
              "internalType": "string",
              "name": "item",
              "type": "string"
            },
            {
              "internalType": "string",
              "name": "thesis",
              "type": "string"
            },
            {
              "internalType": "string",
              "name": "unit",
              "type": "string"
            },
            {
              "internalType": "uint256",
              "name": "carbonImpact",
              "type": "uint256"
            }
          ],
          "internalType": "struct CalculatorItem",
          "name": "",
          "type": "tuple"
        }
      ],
      "stateMutability": "view",
      "type": "function"
    },
    {
      "inputs": [
        {
          "internalType": "uint64",
          "name": "id",
          "type": "uint64"
        }
      ],
      "name": "getResearch",
      "outputs": [
        {
          "components": [
            {
              "internalType": "uint64",
              "name": "id",
              "type": "uint64"
            },
            {
              "internalType": "uint256",
              "name": "era",
              "type": "uint256"
            },
            {
              "internalType": "address",
              "name": "createdBy",
              "type": "address"
            },
            {
              "internalType": "string",
              "name": "title",
              "type": "string"
            },
            {
              "internalType": "string",
              "name": "thesis",
              "type": "string"
            },
            {
              "internalType": "string",
              "name": "file",
              "type": "string"
            },
            {
              "internalType": "uint256",
              "name": "validationsCount",
              "type": "uint256"
            },
            {
              "internalType": "bool",
              "name": "valid",
              "type": "bool"
            },
            {
              "internalType": "uint256",
              "name": "invalidatedAt",
              "type": "uint256"
            },
            {
              "internalType": "uint256",
              "name": "createdAtBlock",
              "type": "uint256"
            }
          ],
          "internalType": "struct Research",
          "name": "",
          "type": "tuple"
        }
      ],
      "stateMutability": "view",
      "type": "function"
    },
    {
      "inputs": [
        {
          "internalType": "address",
          "name": "addr",
          "type": "address"
        }
      ],
      "name": "getResearcher",
      "outputs": [
        {
          "components": [
            {
              "internalType": "uint64",
              "name": "id",
              "type": "uint64"
            },
            {
              "internalType": "address",
              "name": "researcherWallet",
              "type": "address"
            },
            {
              "internalType": "string",
              "name": "name",
              "type": "string"
            },
            {
              "components": [
                {
                  "internalType": "uint256",
                  "name": "level",
                  "type": "uint256"
                },
                {
                  "internalType": "uint256",
                  "name": "currentEra",
                  "type": "uint256"
                }
              ],
              "internalType": "struct Pool",
              "name": "pool",
              "type": "tuple"
            },
            {
              "internalType": "string",
              "name": "proofPhoto",
              "type": "string"
            },
            {
              "internalType": "uint256",
              "name": "publishedResearches",
              "type": "uint256"
            },
            {
              "internalType": "uint256",
              "name": "lastPublishedAt",
              "type": "uint256"
            },
            {
              "internalType": "uint256",
              "name": "publishedItems",
              "type": "uint256"
            },
            {
              "internalType": "uint256",
              "name": "lastCalculatorItemAt",
              "type": "uint256"
            },
            {
              "internalType": "uint256",
              "name": "createdAt",
              "type": "uint256"
            },
            {
              "internalType": "bool",
              "name": "canPublishMethod",
              "type": "bool"
            }
          ],
          "internalType": "struct Researcher",
          "name": "",
          "type": "tuple"
        }
      ],
      "stateMutability": "view",
      "type": "function"
    },
    {
      "inputs": [
        {
          "internalType": "address",
          "name": "caller",
          "type": "address"
        }
      ],
      "name": "isAllowedCaller",
      "outputs": [
        {
          "internalType": "bool",
          "name": "",
          "type": "bool"
        }
      ],
      "stateMutability": "view",
      "type": "function"
    },
    {
      "inputs": [],
      "name": "maxPenalties",
      "outputs": [
        {
          "internalType": "uint8",
          "name": "",
          "type": "uint8"
        }
      ],
      "stateMutability": "view",
      "type": "function"
    },
    {
      "inputs": [
        {
          "internalType": "address",
          "name": "allowed",
          "type": "address"
        }
      ],
      "name": "newAllowedCaller",
      "outputs": [],
      "stateMutability": "nonpayable",
      "type": "function"
    },
    {
      "inputs": [],
      "name": "nextEraIn",
      "outputs": [
        {
          "internalType": "uint256",
          "name": "",
          "type": "uint256"
        }
      ],
      "stateMutability": "view",
      "type": "function"
    },
    {
      "inputs": [],
      "name": "owner",
      "outputs": [
        {
          "internalType": "address",
          "name": "",
          "type": "address"
        }
      ],
      "stateMutability": "view",
      "type": "function"
    },
    {
      "inputs": [
        {
          "internalType": "address",
          "name": "",
          "type": "address"
        },
        {
          "internalType": "uint256",
          "name": "",
          "type": "uint256"
        }
      ],
      "name": "penalties",
      "outputs": [
        {
          "internalType": "uint256",
          "name": "researchId",
          "type": "uint256"
        }
      ],
      "stateMutability": "view",
      "type": "function"
    },
    {
      "inputs": [],
      "name": "poolCurrentEra",
      "outputs": [
        {
          "internalType": "uint256",
          "name": "",
          "type": "uint256"
        }
      ],
      "stateMutability": "view",
      "type": "function"
    },
    {
      "inputs": [
        {
          "internalType": "address",
          "name": "addr",
          "type": "address"
        },
        {
          "internalType": "bool",
          "name": "denied",
          "type": "bool"
        }
      ],
      "name": "removePoolLevels",
      "outputs": [],
      "stateMutability": "nonpayable",
      "type": "function"
    },
    {
      "inputs": [],
      "name": "renounceOwnership",
      "outputs": [],
      "stateMutability": "nonpayable",
      "type": "function"
    },
    {
      "inputs": [
        {
          "internalType": "uint256",
          "name": "",
          "type": "uint256"
        }
      ],
      "name": "researchersAddress",
      "outputs": [
        {
          "internalType": "address",
          "name": "",
          "type": "address"
        }
      ],
      "stateMutability": "view",
      "type": "function"
    },
    {
      "inputs": [
        {
          "internalType": "uint256",
          "name": "",
          "type": "uint256"
        }
      ],
      "name": "researches",
      "outputs": [
        {
          "internalType": "uint64",
          "name": "id",
          "type": "uint64"
        },
        {
          "internalType": "uint256",
          "name": "era",
          "type": "uint256"
        },
        {
          "internalType": "address",
          "name": "createdBy",
          "type": "address"
        },
        {
          "internalType": "string",
          "name": "title",
          "type": "string"
        },
        {
          "internalType": "string",
          "name": "thesis",
          "type": "string"
        },
        {
          "internalType": "string",
          "name": "file",
          "type": "string"
        },
        {
          "internalType": "uint256",
          "name": "validationsCount",
          "type": "uint256"
        },
        {
          "internalType": "bool",
          "name": "valid",
          "type": "bool"
        },
        {
          "internalType": "uint256",
          "name": "invalidatedAt",
          "type": "uint256"
        },
        {
          "internalType": "uint256",
          "name": "createdAtBlock",
          "type": "uint256"
        }
      ],
      "stateMutability": "view",
      "type": "function"
    },
    {
      "inputs": [],
      "name": "researchesCount",
      "outputs": [
        {
          "internalType": "uint64",
          "name": "",
          "type": "uint64"
        }
      ],
      "stateMutability": "view",
      "type": "function"
    },
    {
      "inputs": [
        {
          "internalType": "address",
          "name": "",
          "type": "address"
        },
        {
          "internalType": "uint256",
          "name": "",
          "type": "uint256"
        }
      ],
      "name": "researchesIds",
      "outputs": [
        {
          "internalType": "uint256",
          "name": "",
          "type": "uint256"
        }
      ],
      "stateMutability": "view",
      "type": "function"
    },
    {
      "inputs": [],
      "name": "researchesTotalCount",
      "outputs": [
        {
          "internalType": "uint64",
          "name": "",
          "type": "uint64"
        }
      ],
      "stateMutability": "view",
      "type": "function"
    },
    {
      "inputs": [],
      "name": "securityBlocksToValidation",
      "outputs": [
        {
          "internalType": "uint32",
          "name": "",
          "type": "uint32"
        }
      ],
      "stateMutability": "view",
      "type": "function"
    },
    {
      "inputs": [
        {
          "internalType": "address",
          "name": "_validationRulesAddress",
          "type": "address"
        }
      ],
      "name": "setContractCall",
      "outputs": [],
      "stateMutability": "nonpayable",
      "type": "function"
    },
    {
      "inputs": [
        {
          "components": [
            {
              "internalType": "address",
              "name": "communityRulesAddress",
              "type": "address"
            },
            {
              "internalType": "address",
              "name": "researcherPoolAddress",
              "type": "address"
            },
            {
              "internalType": "address",
              "name": "validationRulesAddress",
              "type": "address"
            },
            {
              "internalType": "address",
              "name": "voteRulesAddress",
              "type": "address"
            }
          ],
          "internalType": "struct ContractsDependency",
          "name": "contractDependency",
          "type": "tuple"
        }
      ],
      "name": "setContractInterfaces",
      "outputs": [],
      "stateMutability": "nonpayable",
      "type": "function"
    },
    {
      "inputs": [],
      "name": "timeBetweenWorks",
      "outputs": [
        {
          "internalType": "uint32",
          "name": "",
          "type": "uint32"
        }
      ],
      "stateMutability": "view",
      "type": "function"
    },
    {
      "inputs": [
        {
          "internalType": "address",
          "name": "addr",
          "type": "address"
        }
      ],
      "name": "totalPenalties",
      "outputs": [
        {
          "internalType": "uint256",
          "name": "",
          "type": "uint256"
        }
      ],
      "stateMutability": "view",
      "type": "function"
    },
    {
      "inputs": [
        {
          "internalType": "address",
          "name": "newOwner",
          "type": "address"
        }
      ],
      "name": "transferOwnership",
      "outputs": [],
      "stateMutability": "nonpayable",
      "type": "function"
    },
    {
      "inputs": [],
      "name": "withdraw",
      "outputs": [],
      "stateMutability": "nonpayable",
      "type": "function"
    }
  ],
  "bytecode": "0x60e060405234801561001057600080fd5b506040516141e73803806141e783398101604081905261002f916100e9565b338061005557604051631e4fbdf760e01b81526000600482015260240160405180910390fd5b61005e81610080565b50600160025563ffffffff92831660a05260ff9091166080521660c052610134565b600080546001600160a01b038381166001600160a01b0319831681178455604051919092169283917f8be0079c531659141344cd1fd0a4f28419497f9722a3daafe3b4186f6b6457e09190a35050565b805163ffffffff811681146100e457600080fd5b919050565b6000806000606084860312156100fe57600080fd5b610107846100d0565b9250602084015160ff8116811461011d57600080fd5b915061012b604085016100d0565b90509250925092565b60805160a05160c051614076610171600039600081816103830152612cf6015260008181610483015261311d015260006105b401526140766000f3fe608060405234801561001057600080fd5b50600436106102535760003560e01c80636ec7053a11610146578063b1e86655116100c3578063be9dc58411610087578063be9dc58414610648578063c77c1ce614610650578063e05cf15514610663578063e7eba4c21461066b578063e8a6a9221461068b578063f2fde38b1461069e57600080fd5b8063b1e866551461059c578063b24eb769146105af578063b702523b146105e8578063b932c8b7146105fb578063be18bc801461062457600080fd5b80637c647a621161010a5780637c647a62146105125780638da5cb5b146105255780638f93716f1461054a5780639eaf666f1461055d578063a68012581461057057600080fd5b80636ec7053a146104a5578063715018a6146104c157806372e2e6cc146104c9578063755d4f97146104dc5780637b334154146104ef57600080fd5b80633ccfd60b116101d45780635a52293a116101985780635a52293a1461041c5780635f7d07041461042f5780635fa71c28146104585780636750d5231461046b5780636b6c7c2d1461047e57600080fd5b80633ccfd60b146103ba578063406458f2146103c25780634714b572146103d557806352d3ea9d146103fa578063582256f11461041457600080fd5b806320d817131161021b57806320d8171314610323578063218f23ca146103385780633270f4ad1461034b57806332980c9b1461035e57806335c116771461037e57600080fd5b80630884a672146102585780630eaf485c1461028057806311868d0b146102b25780631f701ee0146102d25780632076267b146102ec575b600080fd5b61026b610266366004613492565b6106b1565b60405190151581526020015b60405180910390f35b60035461029a90600160801b90046001600160401b031681565b6040516001600160401b039091168152602001610277565b6102c56102c03660046134c2565b6106dc565b6040516102779190613525565b60035461029a90600160c01b90046001600160401b031681565b6103156102fa366004613492565b6001600160a01b031660009081526009602052604090205490565b604051908152602001610277565b61033661033136600461365b565b610936565b005b6103366103463660046136b8565b61107a565b6103366103593660046136ef565b6113b3565b61037161036c3660046134c2565b611620565b604051610277919061384d565b6103a57f000000000000000000000000000000000000000000000000000000000000000081565b60405163ffffffff9091168152602001610277565b610336611865565b60035461029a906001600160401b031681565b6103e86103e33660046134c2565b611a67565b60405161027796959493929190613860565b60035461029a90600160401b90046001600160401b031681565b610315611c4a565b61031561042a3660046138cd565b611cca565b61044261043d3660046138f7565b611cfb565b6040516102779a99989796959493929190613910565b6103156104663660046138cd565b611efb565b61026b610479366004613492565b611f2a565b6103a57f000000000000000000000000000000000000000000000000000000000000000081565b6104ae613e8081565b60405161ffff9091168152602001610277565b610336611f4f565b6103366104d736600461399a565b611f61565b6103366104ea366004613492565b6121c5565b61026b6104fd366004613492565b60016020526000908152604090205460ff1681565b610336610520366004613a2b565b6121ef565b6000546001600160a01b03165b6040516001600160a01b039091168152602001610277565b610336610558366004613492565b612254565b61026b61056b366004613aa9565b612283565b61026b61057e366004613492565b6001600160a01b031660009081526001602052604090205460ff1690565b6103156105aa366004613ad5565b6122bb565b6105d67f000000000000000000000000000000000000000000000000000000000000000081565b60405160ff9091168152602001610277565b6103366105f6366004613b01565b6123bf565b6105326106093660046138f7565b600a602052600090815260409020546001600160a01b031681565b6106376106323660046138f7565b61274a565b604051610277959493929190613b52565b610315600581565b61026b61065e366004613492565b612927565b6103156129ee565b61067e610679366004613492565b612a38565b6040516102779190613bb7565b61033661069936600461399a565b612c1d565b6103366106ac366004613492565b6130c3565b6001600160a01b0381166000908152600460205260408120600601546106d690613101565b92915050565b6107276040518060c0016040528060006001600160401b0316815260200160006001600160a01b03168152602001606081526020016060815260200160608152602001600081525090565b6001600160401b03828116600090815260076020908152604091829020825160c08101845281549485168152600160401b9094046001600160a01b031691840191909152600181018054919284019161077f90613c96565b80601f01602080910402602001604051908101604052809291908181526020018280546107ab90613c96565b80156107f85780601f106107cd576101008083540402835291602001916107f8565b820191906000526020600020905b8154815290600101906020018083116107db57829003601f168201915b5050505050815260200160028201805461081190613c96565b80601f016020809104026020016040519081016040528092919081815260200182805461083d90613c96565b801561088a5780601f1061085f5761010080835404028352916020019161088a565b820191906000526020600020905b81548152906001019060200180831161086d57829003601f168201915b505050505081526020016003820180546108a390613c96565b80601f01602080910402602001604051908101604052809291908181526020018280546108cf90613c96565b801561091c5780601f106108f15761010080835404028352916020019161091c565b820191906000526020600020905b8154815290600101906020018083116108ff57829003601f168201915b505050505081526020016004820154815250509050919050565b61093e61314b565b805161012c101561096a5760405162461bcd60e51b815260040161096190613cd0565b60405180910390fd5b600e546040516356fd539760e11b81523360048201526001600160a01b039091169063adfaa72e90602401602060405180830381865afa1580156109b2573d6000803e3d6000fd5b505050506040513d601f19601f820116820180604052508101906109d69190613cf8565b610a105760405162461bcd60e51b815260206004820152600b60248201526a2737ba1030903b37ba32b960a91b6044820152606401610961565b600d54604051630d84466b60e21b81523360048201526001600160a01b039091169063361119ac90602401602060405180830381865afa158015610a58573d6000803e3d6000fd5b505050506040513d601f19601f82011682018060405250810190610a7c9190613cf8565b610ac05760405162461bcd60e51b8152602060048201526015602482015274576169742074696d654265747765656e566f74657360581b6044820152606401610961565b6001600160401b038216600090815260106020908152604080832033845290915290205460ff1615610b245760405162461bcd60e51b815260206004820152600d60248201526c105b1c9958591e481d9bdd1959609a1b6044820152606401610961565b6001600160401b0380831660008181526010602090815260408083203384528252808320805460ff191660019081179091559383526005825280832081516101408101835281549096168652938401549185019190915260028301546001600160a01b03169084015260038201805491939291606084019190610ba690613c96565b80601f0160208091040260200160405190810160405280929190818152602001828054610bd290613c96565b8015610c1f5780601f10610bf457610100808354040283529160200191610c1f565b820191906000526020600020905b815481529060010190602001808311610c0257829003601f168201915b50505050508152602001600482018054610c3890613c96565b80601f0160208091040260200160405190810160405280929190818152602001828054610c6490613c96565b8015610cb15780601f10610c8657610100808354040283529160200191610cb1565b820191906000526020600020905b815481529060010190602001808311610c9457829003601f168201915b50505050508152602001600582018054610cca90613c96565b80601f0160208091040260200160405190810160405280929190818152602001828054610cf690613c96565b8015610d435780601f10610d1857610100808354040283529160200191610d43565b820191906000526020600020905b815481529060010190602001808311610d2657829003601f168201915b505050918352505060068201546020820152600782015460ff16151560408201526008820154606082015260099091015460809091015260e08101519091508015610d9857508060200151610d966129ee565b145b610dd95760405162461bcd60e51b815260206004820152601260248201527114995cd9585c98da081b9bdd08159053125160721b6044820152606401610961565b60018160c001818151610dec9190613d2b565b9052506001600160401b038381166000908152600560209081526040918290208451815467ffffffffffffffff1916941693909317835583015160018301558201516002820180546001600160a01b0319166001600160a01b0390921691909117905560608201518291906003820190610e669082613d8c565b5060808201516004820190610e7b9082613d8c565b5060a08201516005820190610e909082613d8c565b5060c0820151600682015560e082015160078201805460ff1916911515919091179055610100820151600882015561012090910151600990910155600d54604080516369bf81c360e01b815290516000926001600160a01b0316916369bf81c39160048083019260209291908290030181865afa158015610f15573d6000803e3d6000fd5b505050506040513d601f19601f82011682018060405250810190610f399190613e4a565b905060018111610f9e5760405162461bcd60e51b815260206004820152602a60248201527f56616c69646174696f6e207468726573686f6c642063616e6e6f74206265206c60448201526932b9b9903a3430b7101960b11b6064820152608401610961565b60c0820151811180159061100357610fb583613173565b9250336001600160a01b0316856001600160401b03167fec82afd035df5f6da576aafb10163adedd64aa9955e7843369f1151fe7bcc62786604051610ffa9190613e63565b60405180910390a35b600d5460405163513d5dfd60e01b81526001600160a01b039091169063513d5dfd9061103790869088903390600401613e76565b600060405180830381600087803b15801561105157600080fd5b505af1158015611065573d6000803e3d6000fd5b505050505050506110766001600255565b5050565b3360009081526001602052604090205460ff166110ce5760405162461bcd60e51b81526020600482015260126024820152712737ba1030b63637bbb2b21031b0b63632b960711b6044820152606401610961565b600f546001600160a01b03163381146111295760405162461bcd60e51b815260206004820152601e60248201527f43616c6c6572206d7573742062652073797374656d20636f6e747261637400006044820152606401610961565b6001600160a01b03808416600090815260046020908152604080832081516101608101835281546001600160401b0381168252600160401b9004909516928501929092526001820180549394939184019161118390613c96565b80601f01602080910402602001604051908101604052809291908181526020018280546111af90613c96565b80156111fc5780601f106111d1576101008083540402835291602001916111fc565b820191906000526020600020905b8154815290600101906020018083116111df57829003601f168201915b505050505081526020016002820160405180604001604052908160008201548152602001600182015481525050815260200160048201805461123d90613c96565b80601f016020809104026020016040519081016040528092919081815260200182805461126990613c96565b80156112b65780601f1061128b576101008083540402835291602001916112b6565b820191906000526020600020905b81548152906001019060200180831161129957829003601f168201915b505050918352505060058201546020820152600682015460408201526007820154606082015260088201546080820152600982015460a0820152600a9091015460ff16151560c09091015290508261130f576001611316565b6060810151515b6001600160a01b03851660009081526004602052604081206002018054909190611341908490613eb4565b9091555050600c546040516310c791e560e11b81526001600160a01b03868116600483015285151560248301529091169063218f23ca90604401600060405180830381600087803b15801561139557600080fd5b505af11580156113a9573d6000803e3d6000fd5b5050505050505050565b83516023108015906113c85750825161012c10155b80156113d657508151601410155b6113f25760405162461bcd60e51b815260040161096190613cd0565b600b54604051631292f8c160e31b81526001600160a01b0390911690639497c60890611425906003903390600401613ee9565b602060405180830381865afa158015611442573d6000803e3d6000fd5b505050506040513d601f19601f820116820180604052508101906114669190613cf8565b6114825760405162461bcd60e51b815260040161096190613f0f565b61148b33611f2a565b6114cb5760405162461bcd60e51b815260206004820152601160248201527010d85b89dd081c1d589b1a5cda081e595d607a1b6044820152606401610961565b6003546000906114ec90600160801b90046001600160401b03166001613f39565b6040805160c0810182526001600160401b038084168083523360208085019182528486018c8152606086018c9052608086018b905260a086018a905260009384526007909152949091208351815492516001600160a01b0316600160401b026001600160e01b031990931693169290921717815591519293509160018201906115759082613d8c565b506060820151600282019061158a9082613d8c565b506080820151600382019061159f9082613d8c565b5060a0919091015160049091015560038054600160801b90046001600160401b03169060106115cd83613f58565b82546001600160401b039182166101009390930a92830291909202199091161790555033600090815260046020526040812043600882015560070180549161161483613f83565b91905055505050505050565b611628613386565b6001600160401b038083166000908152600560209081526040918290208251610140810184528154909416845260018101549184019190915260028101546001600160a01b03169183019190915260038101805460608401919061168b90613c96565b80601f01602080910402602001604051908101604052809291908181526020018280546116b790613c96565b80156117045780601f106116d957610100808354040283529160200191611704565b820191906000526020600020905b8154815290600101906020018083116116e757829003601f168201915b5050505050815260200160048201805461171d90613c96565b80601f016020809104026020016040519081016040528092919081815260200182805461174990613c96565b80156117965780601f1061176b57610100808354040283529160200191611796565b820191906000526020600020905b81548152906001019060200180831161177957829003601f168201915b505050505081526020016005820180546117af90613c96565b80601f01602080910402602001604051908101604052809291908181526020018280546117db90613c96565b80156118285780601f106117fd57610100808354040283529160200191611828565b820191906000526020600020905b81548152906001019060200180831161180b57829003601f168201915b505050918352505060068201546020820152600782015460ff16151560408201526008820154606082015260099091015460809091015292915050565b61186d61314b565b600b54604051631292f8c160e31b81526001600160a01b0390911690639497c608906118a0906003903390600401613ee9565b602060405180830381865afa1580156118bd573d6000803e3d6000fd5b505050506040513d601f19601f820116820180604052508101906118e19190613cf8565b6118fd5760405162461bcd60e51b815260040161096190613f0f565b336000908152600460208190526040918290206003810154600c549351637df42f8360e11b8152928301819052909290916001600160a01b039091169063fbe85f0690602401602060405180830381865afa158015611960573d6000803e3d6000fd5b505050506040513d601f19601f820116820180604052508101906119849190613cf8565b6119de5760405162461bcd60e51b815260206004820152602560248201527f4e6f7420656c696769626c6520746f20776974686472617720666f7220746869604482015264732065726160d81b6064820152608401610961565b6003820180549060006119f083613f83565b9091555050600c5460405163f3fef3a360e01b8152336004820152602481018390526001600160a01b039091169063f3fef3a390604401600060405180830381600087803b158015611a4157600080fd5b505af1158015611a55573d6000803e3d6000fd5b505050505050611a656001600255565b565b600760205260009081526040902080546001820180546001600160401b03831693600160401b9093046001600160a01b0316929190611aa590613c96565b80601f0160208091040260200160405190810160405280929190818152602001828054611ad190613c96565b8015611b1e5780601f10611af357610100808354040283529160200191611b1e565b820191906000526020600020905b815481529060010190602001808311611b0157829003601f168201915b505050505090806002018054611b3390613c96565b80601f0160208091040260200160405190810160405280929190818152602001828054611b5f90613c96565b8015611bac5780601f10611b8157610100808354040283529160200191611bac565b820191906000526020600020905b815481529060010190602001808311611b8f57829003601f168201915b505050505090806003018054611bc190613c96565b80601f0160208091040260200160405190810160405280929190818152602001828054611bed90613c96565b8015611c3a5780601f10611c0f57610100808354040283529160200191611c3a565b820191906000526020600020905b815481529060010190602001808311611c1d57829003601f168201915b5050505050908060040154905086565b600c546000906001600160a01b031663d5ee3eb5611c666129ee565b6040518263ffffffff1660e01b8152600401611c8491815260200190565b602060405180830381865afa158015611ca1573d6000803e3d6000fd5b505050506040513d601f19601f82011682018060405250810190611cc59190613e4a565b905090565b60066020528160005260406000208181548110611ce657600080fd5b90600052602060002001600091509150505481565b60056020526000908152604090208054600182015460028301546003840180546001600160401b039094169492936001600160a01b039092169291611d3f90613c96565b80601f0160208091040260200160405190810160405280929190818152602001828054611d6b90613c96565b8015611db85780601f10611d8d57610100808354040283529160200191611db8565b820191906000526020600020905b815481529060010190602001808311611d9b57829003601f168201915b505050505090806004018054611dcd90613c96565b80601f0160208091040260200160405190810160405280929190818152602001828054611df990613c96565b8015611e465780601f10611e1b57610100808354040283529160200191611e46565b820191906000526020600020905b815481529060010190602001808311611e2957829003601f168201915b505050505090806005018054611e5b90613c96565b80601f0160208091040260200160405190810160405280929190818152602001828054611e8790613c96565b8015611ed45780601f10611ea957610100808354040283529160200191611ed4565b820191906000526020600020905b815481529060010190602001808311611eb757829003601f168201915b505050506006830154600784015460088501546009909501549394919360ff90911692508a565b60096020528160005260406000208181548110611f1757600080fd5b6000918252602090912001549150829050565b6001600160a01b0381166000908152600460205260408120600801546106d690613101565b611f57613309565b611a656000613336565b8251606410801590611f765750815161012c10155b8015611f8457508051609610155b611fa05760405162461bcd60e51b815260040161096190613cd0565b600b54604051631292f8c160e31b81526001600160a01b0390911690639497c60890611fd3906003903390600401613ee9565b602060405180830381865afa158015611ff0573d6000803e3d6000fd5b505050506040513d601f19601f820116820180604052508101906120149190613cf8565b6120305760405162461bcd60e51b815260040161096190613f0f565b336000908152600460205260409020600a015460ff166120925760405162461bcd60e51b815260206004820152601760248201527f4f6e6c79206f6e65206d6574686f6420616c6c6f7765640000000000000000006044820152606401610961565b6003546000906120b390600160c01b90046001600160401b03166001613f39565b6040805160a0810182526001600160401b038084168083523360208085019182528486018b8152606086018b9052608086018a905260009384526008909152949091208351815492516001600160a01b0316600160401b026001600160e01b031990931693169290921717815591519293509160018201906121359082613d8c565b506060820151600282019061214a9082613d8c565b506080820151600382019061215f9082613d8c565b505060038054600160c01b90046001600160401b03169150601861218283613f58565b82546001600160401b039182166101009390930a92830291909202199091161790555050336000908152600460205260409020600a01805460ff19169055505050565b6121cd613309565b600f80546001600160a01b0319166001600160a01b0392909216919091179055565b6121f7613309565b8051600b80546001600160a01b03199081166001600160a01b03938416179091556020830151600c805483169184169190911790556040830151600d80548316918416919091179055606090920151600e80549093169116179055565b61225c613309565b6001600160a01b03166000908152600160208190526040909120805460ff19169091179055565b600060058311612295575060016122b4565b826000036122a5575060006122b4565b836122b08484613f9c565b1190505b9392505050565b3360009081526001602052604081205460ff1661230f5760405162461bcd60e51b81526020600482015260126024820152712737ba1030b63637bbb2b21031b0b63632b960711b6044820152606401610961565b600f546001600160a01b031633811461236a5760405162461bcd60e51b815260206004820152601e60248201527f43616c6c6572206d7573742062652073797374656d20636f6e747261637400006044820152606401610961565b6001600160a01b038416600081815260096020818152604080842081518084019092526001600160401b038916825280546001810182558186528386209251920191909155939092529052545b949350505050565b81516032108015906123d357508051609610155b6123ef5760405162461bcd60e51b815260040161096190613cd0565b600b54604051632f22dc7b60e01b8152613e80916001600160a01b031690632f22dc7b9061242290600390600401613fb3565b602060405180830381865afa15801561243f573d6000803e3d6000fd5b505050506040513d601f19601f820116820180604052508101906124639190613e4a565b106124a15760405162461bcd60e51b815260206004820152600e60248201526d13585e081d5cd95c881b1a5b5a5d60921b6044820152606401610961565b600b5460405162f5960960e51b81526000916001600160a01b031690631eb2c120906124d290600390600401613fb3565b602060405180830381865afa1580156124ef573d6000803e3d6000fd5b505050506040513d601f19601f820116820180604052508101906125139190613fc1565b61251e906001613f39565b9050604051806101600160405280826001600160401b03168152602001336001600160a01b0316815260200184815260200160405180604001604052806000815260200161256a6129ee565b90528152602080820185905260006040808401829052606084018290526080840182905260a084018290524360c0850152600160e0909401849052338252600483529081902084518154938601516001600160a01b0316600160401b026001600160e01b03199094166001600160401b039091161792909217825583015190918201906125f79082613d8c565b50606082015180516002830155602001516003820155608082015160048201906126219082613d8c565b5060a0820151600582015560c0820151600682015560e082015160078201556101008201516008820155610120820151600982015561014090910151600a918201805460ff19169115159190911790556001600160401b03821660009081526020919091526040908190208054336001600160a01b03199091168117909155600b549151639c3eead960e01b81526001600160a01b0390921691639c3eead9916126d091600390600401613fde565b600060405180830381600087803b1580156126ea57600080fd5b505af11580156126fe573d6000803e3d6000fd5b50505050336001600160a01b03167fd9e252c4299740928760c15af4c9d6fee5a786293f1f330440036039a6ed533a828560405161273d929190613ffb565b60405180910390a2505050565b600860205260009081526040902080546001820180546001600160401b03831693600160401b9093046001600160a01b031692919061278890613c96565b80601f01602080910402602001604051908101604052809291908181526020018280546127b490613c96565b80156128015780601f106127d657610100808354040283529160200191612801565b820191906000526020600020905b8154815290600101906020018083116127e457829003601f168201915b50505050509080600201805461281690613c96565b80601f016020809104026020016040519081016040528092919081815260200182805461284290613c96565b801561288f5780601f106128645761010080835404028352916020019161288f565b820191906000526020600020905b81548152906001019060200180831161287257829003601f168201915b5050505050908060030180546128a490613c96565b80601f01602080910402602001604051908101604052809291908181526020018280546128d090613c96565b801561291d5780601f106128f25761010080835404028352916020019161291d565b820191906000526020600020905b81548152906001019060200180831161290057829003601f168201915b5050505050905085565b60008061293383612a38565b80519091506001600160401b031661294e5750600092915050565b60038054600b5460405162f5960960e51b81526122b493600160401b9093046001600160401b0316926001600160a01b0390921691631eb2c120916129969190600401613fb3565b602060405180830381865afa1580156129b3573d6000803e3d6000fd5b505050506040513d601f19601f820116820180604052508101906129d79190613fc1565b6001600160401b0316836060015160000151612283565b600c5460408051637686fbcf60e11b815290516000926001600160a01b03169163ed0df79e9160048083019260209291908290030181865afa158015611ca1573d6000803e3d6000fd5b612a406133ed565b6001600160a01b0380831660009081526004602090815260409182902082516101608101845281546001600160401b0381168252600160401b9004909416918401919091526001810180549192840191612a9990613c96565b80601f0160208091040260200160405190810160405280929190818152602001828054612ac590613c96565b8015612b125780601f10612ae757610100808354040283529160200191612b12565b820191906000526020600020905b815481529060010190602001808311612af557829003601f168201915b5050505050815260200160028201604051806040016040529081600082015481526020016001820154815250508152602001600482018054612b5390613c96565b80601f0160208091040260200160405190810160405280929190818152602001828054612b7f90613c96565b8015612bcc5780601f10612ba157610100808354040283529160200191612bcc565b820191906000526020600020905b815481529060010190602001808311612baf57829003601f168201915b505050918352505060058201546020820152600682015460408201526007820154606082015260088201546080820152600982015460a0820152600a9091015460ff16151560c09091015292915050565b612c2561314b565b8251606410801590612c3a5750815161012c10155b8015612c4857508051609610155b612c645760405162461bcd60e51b815260040161096190613cd0565b600b54604051631292f8c160e31b81526001600160a01b0390911690639497c60890612c97906003903390600401613ee9565b602060405180830381865afa158015612cb4573d6000803e3d6000fd5b505050506040513d601f19601f82011682018060405250810190612cd89190613cf8565b612cf45760405162461bcd60e51b815260040161096190613f0f565b7f000000000000000000000000000000000000000000000000000000000000000063ffffffff16612d23611c4a565b11612d665760405162461bcd60e51b81526020600482015260136024820152725761697420756e74696c206e6578742065726160681b6044820152606401610961565b612d6f336106b1565b612daf5760405162461bcd60e51b815260206004820152601160248201527010d85b89dd081c1d589b1a5cda081e595d607a1b6044820152606401610961565b600380546001600160401b0316906000612dc883613f58565b91906101000a8154816001600160401b0302191690836001600160401b03160217905550506003600881819054906101000a90046001600160401b031680929190612e1290613f58565b91906101000a8154816001600160401b0302191690836001600160401b03160217905550506000600360089054906101000a90046001600160401b03169050604051806101400160405280826001600160401b03168152602001612e746129ee565b8152336020808301919091526040808301889052606080840188905260808401879052600060a08501819052600160c0860181905260e0860182905243610100909601959095526001600160401b03878116825260058552908390208651815467ffffffffffffffff1916921691909117815592850151938301939093558301516002820180546001600160a01b0319166001600160a01b03909216919091179055908201516003820190612f299082613d8c565b5060808201516004820190612f3e9082613d8c565b5060a08201516005820190612f539082613d8c565b5060c0820151600682015560e082015160078201805460ff19169115159190911790556101008201516008820155610120909101516009909101553360009081526004602052604081206005810180549192612fae83613f83565b90915550504360068083019190915533600090815260209182526040812080546001810182559082529181206001600160401b03851692019190915560028201805491612ffa83613f83565b9091555050600c546040516338e8490d60e11b8152336004820152600160248201526001600160401b03841660448201526001600160a01b03909116906371d0921a90606401600060405180830381600087803b15801561305a57600080fd5b505af115801561306e573d6000803e3d6000fd5b50506040514381523392506001600160401b03851691507fe4c1c9646dc792c06d1b46cbe82f47bc6843a8dee984ecab0e2e4fb1280f1fed9060200160405180910390a350506130be6001600255565b505050565b6130cb613309565b6001600160a01b0381166130f557604051631e4fbdf760e01b815260006004820152602401610961565b6130fe81613336565b50565b60008160000361311357506001919050565b61314363ffffffff7f00000000000000000000000000000000000000000000000000000000000000001683613d2b565b431192915050565b600280540361316d57604051633ee5aeb560e01b815260040160405180910390fd5b60028055565b61317b613386565b600380546001600160401b03169060006131948361401d565b825461010092830a6001600160401b03818102199092169282160291909117909255600060e086018190524391860191909152845182168152600560209081526040918290208651815467ffffffffffffffff1916941693909317835585015160018301558401516002820180546001600160a01b0319166001600160a01b03909216919091179055606084015184925060038201906132349082613d8c565b50608082015160048201906132499082613d8c565b5060a0820151600582019061325e9082613d8c565b5060c0820151600682015560e082015160078201805460ff1916911515919091179055610100820151600882015561012090910151600990910155600c5460408381015190516310c791e560e11b81526001600160a01b0391821660048201526000602482015291169063218f23ca90604401600060405180830381600087803b1580156132eb57600080fd5b505af11580156132ff573d6000803e3d6000fd5b5093949350505050565b6000546001600160a01b03163314611a655760405163118cdaa760e01b8152336004820152602401610961565b600080546001600160a01b038381166001600160a01b0319831681178455604051919092169283917f8be0079c531659141344cd1fd0a4f28419497f9722a3daafe3b4186f6b6457e09190a35050565b60405180610140016040528060006001600160401b031681526020016000815260200160006001600160a01b031681526020016060815260200160608152602001606081526020016000815260200160001515815260200160008152602001600081525090565b60405180610160016040528060006001600160401b0316815260200160006001600160a01b031681526020016060815260200161343d604051806040016040528060008152602001600081525090565b81526020016060815260200160008152602001600081526020016000815260200160008152602001600081526020016000151581525090565b80356001600160a01b038116811461348d57600080fd5b919050565b6000602082840312156134a457600080fd5b6122b482613476565b6001600160401b03811681146130fe57600080fd5b6000602082840312156134d457600080fd5b81356122b4816134ad565b6000815180845260005b81811015613505576020818501810151868301820152016134e9565b506000602082860101526020601f19601f83011685010191505092915050565b602081526001600160401b03825116602082015260018060a01b0360208301511660408201526000604083015160c0606084015261356660e08401826134df565b90506060840151601f1984830301608085015261358382826134df565b9150506080840151601f198483030160a08501526135a182826134df565b91505060a084015160c08401528091505092915050565b634e487b7160e01b600052604160045260246000fd5b600082601f8301126135df57600080fd5b81356001600160401b038111156135f8576135f86135b8565b604051601f8201601f19908116603f011681016001600160401b0381118282101715613626576136266135b8565b60405281815283820160200185101561363e57600080fd5b816020850160208301376000918101602001919091529392505050565b6000806040838503121561366e57600080fd5b8235613679816134ad565b915060208301356001600160401b0381111561369457600080fd5b6136a0858286016135ce565b9150509250929050565b80151581146130fe57600080fd5b600080604083850312156136cb57600080fd5b6136d483613476565b915060208301356136e4816136aa565b809150509250929050565b6000806000806080858703121561370557600080fd5b84356001600160401b0381111561371b57600080fd5b613727878288016135ce565b94505060208501356001600160401b0381111561374357600080fd5b61374f878288016135ce565b93505060408501356001600160401b0381111561376b57600080fd5b613777878288016135ce565b949793965093946060013593505050565b80516001600160401b0316825260208101516020830152600060408201516137bb60408501826001600160a01b03169052565b50606082015161014060608501526137d76101408501826134df565b9050608083015184820360808601526137f082826134df565b91505060a083015184820360a086015261380a82826134df565b91505060c083015160c085015260e083015161382a60e086018215159052565b506101008301516101008501526101208301516101208501528091505092915050565b6020815260006122b46020830184613788565b6001600160401b03871681526001600160a01b038616602082015260c060408201819052600090613893908301876134df565b82810360608401526138a581876134df565b905082810360808401526138b981866134df565b9150508260a0830152979650505050505050565b600080604083850312156138e057600080fd5b6138e983613476565b946020939093013593505050565b60006020828403121561390957600080fd5b5035919050565b6001600160401b038b16815289602082015260018060a01b03891660408201526101406060820152600061394861014083018a6134df565b828103608084015261395a818a6134df565b905082810360a084015261396e81896134df565b60c0840197909752505092151560e0840152610100830191909152610120909101529695505050505050565b6000806000606084860312156139af57600080fd5b83356001600160401b038111156139c557600080fd5b6139d1868287016135ce565b93505060208401356001600160401b038111156139ed57600080fd5b6139f9868287016135ce565b92505060408401356001600160401b03811115613a1557600080fd5b613a21868287016135ce565b9150509250925092565b60006080828403128015613a3e57600080fd5b50604051608081016001600160401b0381118282101715613a6157613a616135b8565b604052613a6d83613476565b8152613a7b60208401613476565b6020820152613a8c60408401613476565b6040820152613a9d60608401613476565b60608201529392505050565b600080600060608486031215613abe57600080fd5b505081359360208301359350604090920135919050565b60008060408385031215613ae857600080fd5b613af183613476565b915060208301356136e4816134ad565b60008060408385031215613b1457600080fd5b82356001600160401b03811115613b2a57600080fd5b613b36858286016135ce565b92505060208301356001600160401b0381111561369457600080fd5b6001600160401b03861681526001600160a01b038516602082015260a060408201819052600090613b85908301866134df565b8281036060840152613b9781866134df565b90508281036080840152613bab81856134df565b98975050505050505050565b60208152613bd16020820183516001600160401b03169052565b60006020830151613bed60408401826001600160a01b03169052565b5060408301516101806060840152613c096101a08401826134df565b606085015180516080860152602081015160a0860152909150506080840151838203601f190160c0850152613c3e82826134df565b91505060a084015160e084015260c084015161010084015260e0840151610120840152610100840151610140840152610120840151610160840152610140840151613c8e61018085018215159052565b509392505050565b600181811c90821680613caa57607f821691505b602082108103613cca57634e487b7160e01b600052602260045260246000fd5b50919050565b6020808252600e908201526d4d6178206368617261637465727360901b604082015260600190565b600060208284031215613d0a57600080fd5b81516122b4816136aa565b634e487b7160e01b600052601160045260246000fd5b808201808211156106d6576106d6613d15565b601f8211156130be57806000526020600020601f840160051c81016020851015613d655750805b601f840160051c820191505b81811015613d855760008155600101613d71565b5050505050565b81516001600160401b03811115613da557613da56135b8565b613db981613db38454613c96565b84613d3e565b6020601f821160018114613ded5760008315613dd55750848201515b600019600385901b1c1916600184901b178455613d85565b600084815260208120601f198516915b82811015613e1d5787850151825560209485019460019092019101613dfd565b5084821015613e3b5786840151600019600387901b60f8161c191681555b50505050600190811b01905550565b600060208284031215613e5c57600080fd5b5051919050565b6020815260006122b460208301846134df565b606081526000613e896060830186613788565b8281036020840152613e9b81866134df565b91505060018060a01b0383166040830152949350505050565b818103818111156106d6576106d6613d15565b60098110613ee557634e487b7160e01b600052602160045260246000fd5b9052565b60408101613ef78285613ec7565b6001600160a01b039290921660209190910152919050565b60208082526010908201526f4f6e6c7920726573656172636865727360801b604082015260600190565b6001600160401b0381811683821601908111156106d6576106d6613d15565b60006001600160401b0382166001600160401b038103613f7a57613f7a613d15565b60010192915050565b600060018201613f9557613f95613d15565b5060010190565b80820281158282048414176106d6576106d6613d15565b602081016106d68284613ec7565b600060208284031215613fd357600080fd5b81516122b4816134ad565b6001600160a01b0383168152604081016122b46020830184613ec7565b6001600160401b03831681526040602082015260006123b760408301846134df565b60006001600160401b0382168061403657614036613d15565b600019019291505056fea2646970667358221220397ca80725cc133f9bd7d7e78882390ca1bea0c476742ed40c2c1ad726492d9764736f6c634300081b0033",
  "linkReferences": {},
  "deployedLinkReferences": {}
}