{
  "_format": "hh-sol-artifact-1",
  "contractName": "ResearcherRules",
  "sourceName": "contracts/ResearcherRules.sol",
  "abi": [
    {
      "inputs": [
        {
          "internalType": "address",
          "name": "communityRulesAddress",
          "type": "address"
        },
        {
          "internalType": "address",
          "name": "researcherPoolAddress",
          "type": "address"
        },
        {
          "internalType": "address",
          "name": "validatorRulesAddress",
          "type": "address"
        },
        {
          "internalType": "uint256",
          "name": "timeBetweenWorks_",
          "type": "uint256"
        },
        {
          "internalType": "uint256",
          "name": "maxPenalties_",
          "type": "uint256"
        },
        {
          "internalType": "uint256",
          "name": "securityBlocksToValidatorAnalysis",
          "type": "uint256"
        }
      ],
      "stateMutability": "nonpayable",
      "type": "constructor"
    },
    {
      "anonymous": false,
      "inputs": [
        {
          "indexed": true,
          "internalType": "address",
          "name": "previousOwner",
          "type": "address"
        },
        {
          "indexed": true,
          "internalType": "address",
          "name": "newOwner",
          "type": "address"
        }
      ],
      "name": "OwnershipTransferred",
      "type": "event"
    },
    {
      "inputs": [],
      "name": "MAX_PENALTIES",
      "outputs": [
        {
          "internalType": "uint256",
          "name": "",
          "type": "uint256"
        }
      ],
      "stateMutability": "view",
      "type": "function"
    },
    {
      "inputs": [],
      "name": "SECURITY_BLOCKS_TO_VALIDATOR_ANALYSIS",
      "outputs": [
        {
          "internalType": "uint256",
          "name": "",
          "type": "uint256"
        }
      ],
      "stateMutability": "view",
      "type": "function"
    },
    {
      "inputs": [
        {
          "internalType": "string",
          "name": "title",
          "type": "string"
        },
        {
          "internalType": "string",
          "name": "unit",
          "type": "string"
        },
        {
          "internalType": "string",
          "name": "justification",
          "type": "string"
        },
        {
          "internalType": "uint256",
          "name": "carbonImpact",
          "type": "uint256"
        }
      ],
      "name": "addCalculatorItem",
      "outputs": [],
      "stateMutability": "nonpayable",
      "type": "function"
    },
    {
      "inputs": [
        {
          "internalType": "address",
          "name": "addr",
          "type": "address"
        },
        {
          "internalType": "uint256",
          "name": "researchId",
          "type": "uint256"
        }
      ],
      "name": "addPenalty",
      "outputs": [
        {
          "internalType": "uint256",
          "name": "",
          "type": "uint256"
        }
      ],
      "stateMutability": "nonpayable",
      "type": "function"
    },
    {
      "inputs": [
        {
          "internalType": "string",
          "name": "title",
          "type": "string"
        },
        {
          "internalType": "string",
          "name": "thesis",
          "type": "string"
        },
        {
          "internalType": "string",
          "name": "file",
          "type": "string"
        }
      ],
      "name": "addResearch",
      "outputs": [],
      "stateMutability": "nonpayable",
      "type": "function"
    },
    {
      "inputs": [
        {
          "internalType": "uint256",
          "name": "id",
          "type": "uint256"
        },
        {
          "internalType": "string",
          "name": "justification",
          "type": "string"
        }
      ],
      "name": "addResearchValidation",
      "outputs": [],
      "stateMutability": "nonpayable",
      "type": "function"
    },
    {
      "inputs": [
        {
          "internalType": "string",
          "name": "name",
          "type": "string"
        },
        {
          "internalType": "string",
          "name": "proofPhoto",
          "type": "string"
        }
      ],
      "name": "addResearcher",
      "outputs": [
        {
          "components": [
            {
              "internalType": "uint256",
              "name": "id",
              "type": "uint256"
            },
            {
              "internalType": "address",
              "name": "researcherWallet",
              "type": "address"
            },
            {
              "internalType": "string",
              "name": "name",
              "type": "string"
            },
            {
              "components": [
                {
                  "internalType": "uint256",
                  "name": "level",
                  "type": "uint256"
                },
                {
                  "internalType": "uint256",
                  "name": "currentEra",
                  "type": "uint256"
                }
              ],
              "internalType": "struct Pool",
              "name": "pool",
              "type": "tuple"
            },
            {
              "internalType": "string",
              "name": "proofPhoto",
              "type": "string"
            },
            {
              "internalType": "uint256",
              "name": "publishedResearches",
              "type": "uint256"
            },
            {
              "internalType": "uint256",
              "name": "lastPublishedAt",
              "type": "uint256"
            },
            {
              "internalType": "uint256",
              "name": "lastCalculatorItemAt",
              "type": "uint256"
            },
            {
              "internalType": "uint256",
              "name": "createdAt",
              "type": "uint256"
            }
          ],
          "internalType": "struct Researcher",
          "name": "",
          "type": "tuple"
        }
      ],
      "stateMutability": "nonpayable",
      "type": "function"
    },
    {
      "inputs": [
        {
          "internalType": "address",
          "name": "",
          "type": "address"
        }
      ],
      "name": "allowedCallers",
      "outputs": [
        {
          "internalType": "bool",
          "name": "",
          "type": "bool"
        }
      ],
      "stateMutability": "view",
      "type": "function"
    },
    {
      "inputs": [
        {
          "internalType": "uint256",
          "name": "",
          "type": "uint256"
        }
      ],
      "name": "calculatorItems",
      "outputs": [
        {
          "internalType": "uint256",
          "name": "id",
          "type": "uint256"
        },
        {
          "internalType": "address",
          "name": "createdBy",
          "type": "address"
        },
        {
          "internalType": "string",
          "name": "title",
          "type": "string"
        },
        {
          "internalType": "string",
          "name": "unit",
          "type": "string"
        },
        {
          "internalType": "string",
          "name": "justification",
          "type": "string"
        },
        {
          "internalType": "uint256",
          "name": "carbonImpact",
          "type": "uint256"
        }
      ],
      "stateMutability": "view",
      "type": "function"
    },
    {
      "inputs": [],
      "name": "calculatorItemsCount",
      "outputs": [
        {
          "internalType": "uint256",
          "name": "",
          "type": "uint256"
        }
      ],
      "stateMutability": "view",
      "type": "function"
    },
    {
      "inputs": [
        {
          "internalType": "uint256",
          "name": "totalLevels",
          "type": "uint256"
        },
        {
          "internalType": "uint256",
          "name": "totalUsers",
          "type": "uint256"
        },
        {
          "internalType": "uint256",
          "name": "userLevels",
          "type": "uint256"
        }
      ],
      "name": "canInvite",
      "outputs": [
        {
          "internalType": "bool",
          "name": "",
          "type": "bool"
        }
      ],
      "stateMutability": "pure",
      "type": "function"
    },
    {
      "inputs": [
        {
          "internalType": "address",
          "name": "addr",
          "type": "address"
        }
      ],
      "name": "canSendInvite",
      "outputs": [
        {
          "internalType": "bool",
          "name": "",
          "type": "bool"
        }
      ],
      "stateMutability": "view",
      "type": "function"
    },
    {
      "inputs": [
        {
          "internalType": "uint256",
          "name": "id",
          "type": "uint256"
        }
      ],
      "name": "getCalculatorItem",
      "outputs": [
        {
          "components": [
            {
              "internalType": "uint256",
              "name": "id",
              "type": "uint256"
            },
            {
              "internalType": "address",
              "name": "createdBy",
              "type": "address"
            },
            {
              "internalType": "string",
              "name": "title",
              "type": "string"
            },
            {
              "internalType": "string",
              "name": "unit",
              "type": "string"
            },
            {
              "internalType": "string",
              "name": "justification",
              "type": "string"
            },
            {
              "internalType": "uint256",
              "name": "carbonImpact",
              "type": "uint256"
            }
          ],
          "internalType": "struct CalculatorItem",
          "name": "",
          "type": "tuple"
        }
      ],
      "stateMutability": "view",
      "type": "function"
    },
    {
      "inputs": [
        {
          "internalType": "uint256",
          "name": "id",
          "type": "uint256"
        }
      ],
      "name": "getResearch",
      "outputs": [
        {
          "components": [
            {
              "internalType": "uint256",
              "name": "id",
              "type": "uint256"
            },
            {
              "internalType": "uint256",
              "name": "era",
              "type": "uint256"
            },
            {
              "internalType": "address",
              "name": "createdBy",
              "type": "address"
            },
            {
              "internalType": "string",
              "name": "title",
              "type": "string"
            },
            {
              "internalType": "string",
              "name": "thesis",
              "type": "string"
            },
            {
              "internalType": "string",
              "name": "file",
              "type": "string"
            },
            {
              "internalType": "uint256",
              "name": "validationsCount",
              "type": "uint256"
            },
            {
              "internalType": "bool",
              "name": "valid",
              "type": "bool"
            },
            {
              "internalType": "uint256",
              "name": "invalidatedAt",
              "type": "uint256"
            },
            {
              "internalType": "uint256",
              "name": "createdAtBlock",
              "type": "uint256"
            }
          ],
          "internalType": "struct Research",
          "name": "",
          "type": "tuple"
        }
      ],
      "stateMutability": "view",
      "type": "function"
    },
    {
      "inputs": [
        {
          "internalType": "address",
          "name": "addr",
          "type": "address"
        }
      ],
      "name": "getResearcher",
      "outputs": [
        {
          "components": [
            {
              "internalType": "uint256",
              "name": "id",
              "type": "uint256"
            },
            {
              "internalType": "address",
              "name": "researcherWallet",
              "type": "address"
            },
            {
              "internalType": "string",
              "name": "name",
              "type": "string"
            },
            {
              "components": [
                {
                  "internalType": "uint256",
                  "name": "level",
                  "type": "uint256"
                },
                {
                  "internalType": "uint256",
                  "name": "currentEra",
                  "type": "uint256"
                }
              ],
              "internalType": "struct Pool",
              "name": "pool",
              "type": "tuple"
            },
            {
              "internalType": "string",
              "name": "proofPhoto",
              "type": "string"
            },
            {
              "internalType": "uint256",
              "name": "publishedResearches",
              "type": "uint256"
            },
            {
              "internalType": "uint256",
              "name": "lastPublishedAt",
              "type": "uint256"
            },
            {
              "internalType": "uint256",
              "name": "lastCalculatorItemAt",
              "type": "uint256"
            },
            {
              "internalType": "uint256",
              "name": "createdAt",
              "type": "uint256"
            }
          ],
          "internalType": "struct Researcher",
          "name": "",
          "type": "tuple"
        }
      ],
      "stateMutability": "view",
      "type": "function"
    },
    {
      "inputs": [
        {
          "internalType": "address",
          "name": "addr",
          "type": "address"
        }
      ],
      "name": "getResearchesIds",
      "outputs": [
        {
          "internalType": "uint256[]",
          "name": "",
          "type": "uint256[]"
        }
      ],
      "stateMutability": "view",
      "type": "function"
    },
    {
      "inputs": [
        {
          "internalType": "address",
          "name": "caller",
          "type": "address"
        }
      ],
      "name": "isAllowedCaller",
      "outputs": [
        {
          "internalType": "bool",
          "name": "",
          "type": "bool"
        }
      ],
      "stateMutability": "view",
      "type": "function"
    },
    {
      "inputs": [
        {
          "internalType": "address",
          "name": "allowed",
          "type": "address"
        }
      ],
      "name": "newAllowedCaller",
      "outputs": [],
      "stateMutability": "nonpayable",
      "type": "function"
    },
    {
      "inputs": [],
      "name": "nextEraIn",
      "outputs": [
        {
          "internalType": "uint256",
          "name": "",
          "type": "uint256"
        }
      ],
      "stateMutability": "view",
      "type": "function"
    },
    {
      "inputs": [],
      "name": "owner",
      "outputs": [
        {
          "internalType": "address",
          "name": "",
          "type": "address"
        }
      ],
      "stateMutability": "view",
      "type": "function"
    },
    {
      "inputs": [
        {
          "internalType": "address",
          "name": "",
          "type": "address"
        },
        {
          "internalType": "uint256",
          "name": "",
          "type": "uint256"
        }
      ],
      "name": "penalties",
      "outputs": [
        {
          "internalType": "uint256",
          "name": "researchId",
          "type": "uint256"
        }
      ],
      "stateMutability": "view",
      "type": "function"
    },
    {
      "inputs": [
        {
          "internalType": "address",
          "name": "addr",
          "type": "address"
        },
        {
          "internalType": "uint256",
          "name": "removeSomeLevels",
          "type": "uint256"
        }
      ],
      "name": "removePoolLevels",
      "outputs": [],
      "stateMutability": "nonpayable",
      "type": "function"
    },
    {
      "inputs": [],
      "name": "renounceOwnership",
      "outputs": [],
      "stateMutability": "nonpayable",
      "type": "function"
    },
    {
      "inputs": [
        {
          "internalType": "address",
          "name": "addr",
          "type": "address"
        }
      ],
      "name": "researcherExists",
      "outputs": [
        {
          "internalType": "bool",
          "name": "",
          "type": "bool"
        }
      ],
      "stateMutability": "view",
      "type": "function"
    },
    {
      "inputs": [
        {
          "internalType": "uint256",
          "name": "",
          "type": "uint256"
        }
      ],
      "name": "researchersAddress",
      "outputs": [
        {
          "internalType": "address",
          "name": "",
          "type": "address"
        }
      ],
      "stateMutability": "view",
      "type": "function"
    },
    {
      "inputs": [
        {
          "internalType": "uint256",
          "name": "",
          "type": "uint256"
        }
      ],
      "name": "researches",
      "outputs": [
        {
          "internalType": "uint256",
          "name": "id",
          "type": "uint256"
        },
        {
          "internalType": "uint256",
          "name": "era",
          "type": "uint256"
        },
        {
          "internalType": "address",
          "name": "createdBy",
          "type": "address"
        },
        {
          "internalType": "string",
          "name": "title",
          "type": "string"
        },
        {
          "internalType": "string",
          "name": "thesis",
          "type": "string"
        },
        {
          "internalType": "string",
          "name": "file",
          "type": "string"
        },
        {
          "internalType": "uint256",
          "name": "validationsCount",
          "type": "uint256"
        },
        {
          "internalType": "bool",
          "name": "valid",
          "type": "bool"
        },
        {
          "internalType": "uint256",
          "name": "invalidatedAt",
          "type": "uint256"
        },
        {
          "internalType": "uint256",
          "name": "createdAtBlock",
          "type": "uint256"
        }
      ],
      "stateMutability": "view",
      "type": "function"
    },
    {
      "inputs": [],
      "name": "researchesCount",
      "outputs": [
        {
          "internalType": "uint256",
          "name": "",
          "type": "uint256"
        }
      ],
      "stateMutability": "view",
      "type": "function"
    },
    {
      "inputs": [
        {
          "internalType": "address",
          "name": "",
          "type": "address"
        },
        {
          "internalType": "uint256",
          "name": "",
          "type": "uint256"
        }
      ],
      "name": "researchesIds",
      "outputs": [
        {
          "internalType": "uint256",
          "name": "",
          "type": "uint256"
        }
      ],
      "stateMutability": "view",
      "type": "function"
    },
    {
      "inputs": [],
      "name": "researchesTotalCount",
      "outputs": [
        {
          "internalType": "uint256",
          "name": "",
          "type": "uint256"
        }
      ],
      "stateMutability": "view",
      "type": "function"
    },
    {
      "inputs": [
        {
          "internalType": "address",
          "name": "addr",
          "type": "address"
        }
      ],
      "name": "totalPenalties",
      "outputs": [
        {
          "internalType": "uint256",
          "name": "",
          "type": "uint256"
        }
      ],
      "stateMutability": "view",
      "type": "function"
    },
    {
      "inputs": [
        {
          "internalType": "address",
          "name": "newOwner",
          "type": "address"
        }
      ],
      "name": "transferOwnership",
      "outputs": [],
      "stateMutability": "nonpayable",
      "type": "function"
    },
    {
      "inputs": [],
      "name": "withdraw",
      "outputs": [],
      "stateMutability": "nonpayable",
      "type": "function"
    }
  ],
  "bytecode": "0x60e060405234801561001057600080fd5b506040516153ca3803806153ca83398181016040528101906100329190610299565b61004e61004361013460201b60201c565b61013c60201b60201c565b85600860006101000a81548173ffffffffffffffffffffffffffffffffffffffff021916908373ffffffffffffffffffffffffffffffffffffffff16021790555084600960006101000a81548173ffffffffffffffffffffffffffffffffffffffff021916908373ffffffffffffffffffffffffffffffffffffffff16021790555083600a60006101000a81548173ffffffffffffffffffffffffffffffffffffffff021916908373ffffffffffffffffffffffffffffffffffffffff16021790555082608081815250508160a081815250508060c08181525050505050505050610326565b600033905090565b60008060009054906101000a900473ffffffffffffffffffffffffffffffffffffffff169050816000806101000a81548173ffffffffffffffffffffffffffffffffffffffff021916908373ffffffffffffffffffffffffffffffffffffffff1602179055508173ffffffffffffffffffffffffffffffffffffffff168173ffffffffffffffffffffffffffffffffffffffff167f8be0079c531659141344cd1fd0a4f28419497f9722a3daafe3b4186f6b6457e060405160405180910390a35050565b600080fd5b600073ffffffffffffffffffffffffffffffffffffffff82169050919050565b600061023082610205565b9050919050565b61024081610225565b811461024b57600080fd5b50565b60008151905061025d81610237565b92915050565b6000819050919050565b61027681610263565b811461028157600080fd5b50565b6000815190506102938161026d565b92915050565b60008060008060008060c087890312156102b6576102b5610200565b5b60006102c489828a0161024e565b96505060206102d589828a0161024e565b95505060406102e689828a0161024e565b94505060606102f789828a01610284565b935050608061030889828a01610284565b92505060a061031989828a01610284565b9150509295509295509295565b60805160a05160c051615067610363600039600081816121d10152612f66015260006124e4015260008181613462015261378e01526150676000f3fe608060405234801561001057600080fd5b50600436106101f05760003560e01c80638b2b80e21161010f578063b4de0ff4116100a2578063e3e02ba711610071578063e3e02ba714610629578063e7eba4c214610659578063e8a6a92214610689578063f2fde38b146106a5576101f0565b8063b4de0ff414610569578063b702523b14610599578063b932c8b7146105c9578063c77c1ce6146105f9576101f0565b80639eaf666f116100de5780639eaf666f146104bb578063a58273c8146104eb578063a68012581461051b578063b43f070a1461054b576101f0565b80638b2b80e2146104475780638da5cb5b146104635780638f93716f1461048157806397705d601461049d576101f0565b806352d3ea9d116101875780635f7d0704116101565780635f7d0704146103a45780635fa71c28146103dd578063715018a61461040d5780637b33415414610417576101f0565b806352d3ea9d14610303578063582256f1146103215780635a52293a1461033f5780635f1f65871461036f576101f0565b80632076267b116101c35780632076267b1461028f5780633270f4ad146102bf5780633ccfd60b146102db578063406458f2146102e5576101f0565b80630eaf485c146101f557806318ad5c9a146102135780631b63a43c1461022f5780631e6dffc21461025f575b600080fd5b6101fd6106c1565b60405161020a919061392b565b60405180910390f35b61022d600480360381019061022891906139e4565b6106c7565b005b610249600480360381019061024491906139e4565b610a86565b604051610256919061392b565b60405180910390f35b61027960048036038101906102749190613a24565b610ba4565b6040516102869190613a6c565b60405180910390f35b6102a960048036038101906102a49190613a24565b610bfe565b6040516102b6919061392b565b60405180910390f35b6102d960048036038101906102d49190613bcd565b610c4a565b005b6102e3611109565b005b6102ed6115e0565b6040516102fa919061392b565b60405180910390f35b61030b6115e6565b604051610318919061392b565b60405180910390f35b6103296115ec565b604051610336919061392b565b60405180910390f35b610359600480360381019061035491906139e4565b611696565b604051610366919061392b565b60405180910390f35b61038960048036038101906103849190613c88565b6116c7565b60405161039b96959493929190613d43565b60405180910390f35b6103be60048036038101906103b99190613c88565b6118bb565b6040516103d49a99989796959493929190613db9565b60405180910390f35b6103f760048036038101906103f291906139e4565b611ad4565b604051610404919061392b565b60405180910390f35b610415611b0b565b005b610431600480360381019061042c9190613a24565b611b1f565b60405161043e9190613a6c565b60405180910390f35b610461600480360381019061045c9190613e6a565b611b3f565b005b61046b612144565b6040516104789190613ec6565b60405180910390f35b61049b60048036038101906104969190613a24565b61216d565b005b6104a56121cf565b6040516104b2919061392b565b60405180910390f35b6104d560048036038101906104d09190613ee1565b6121f3565b6040516104e29190613a6c565b60405180910390f35b61050560048036038101906105009190613c88565b61223f565b6040516105129190614033565b60405180910390f35b61053560048036038101906105309190613a24565b61248c565b6040516105429190613a6c565b60405180910390f35b6105536124e2565b604051610560919061392b565b60405180910390f35b610583600480360381019061057e9190613a24565b612506565b6040516105909190614104565b60405180910390f35b6105b360048036038101906105ae9190614126565b61259d565b6040516105c0919061429a565b60405180910390f35b6105e360048036038101906105de9190613c88565b6128c0565b6040516105f09190613ec6565b60405180910390f35b610613600480360381019061060e9190613a24565b6128f3565b6040516106209190613a6c565b60405180910390f35b610643600480360381019061063e9190613c88565b6129d1565b60405161065091906143b3565b60405180910390f35b610673600480360381019061066e9190613a24565b612c58565b604051610680919061429a565b60405180910390f35b6106a3600480360381019061069e91906143d5565b612e86565b005b6106bf60048036038101906106ba9190613a24565b613339565b005b600d5481565b600160003373ffffffffffffffffffffffffffffffffffffffff1673ffffffffffffffffffffffffffffffffffffffff16815260200190815260200160002060009054906101000a900460ff16610753576040517f08c379a000000000000000000000000000000000000000000000000000000000815260040161074a906144c8565b60405180910390fd5b6000600260008473ffffffffffffffffffffffffffffffffffffffff1673ffffffffffffffffffffffffffffffffffffffff16815260200190815260200160002060405180610120016040529081600082015481526020016001820160009054906101000a900473ffffffffffffffffffffffffffffffffffffffff1673ffffffffffffffffffffffffffffffffffffffff1673ffffffffffffffffffffffffffffffffffffffff16815260200160028201805461081090614517565b80601f016020809104026020016040519081016040528092919081815260200182805461083c90614517565b80156108895780601f1061085e57610100808354040283529160200191610889565b820191906000526020600020905b81548152906001019060200180831161086c57829003601f168201915b50505050508152602001600382016040518060400160405290816000820154815260200160018201548152505081526020016005820180546108ca90614517565b80601f01602080910402602001604051908101604052809291908181526020018280546108f690614517565b80156109435780601f1061091857610100808354040283529160200191610943565b820191906000526020600020905b81548152906001019060200180831161092657829003601f168201915b5050505050815260200160068201548152602001600782015481526020016008820154815260200160098201548152505090506000821161098c5780606001516000015161098e565b815b600260008573ffffffffffffffffffffffffffffffffffffffff1673ffffffffffffffffffffffffffffffffffffffff16815260200190815260200160002060030160000160008282546109e29190614577565b92505081905550600960009054906101000a900473ffffffffffffffffffffffffffffffffffffffff1673ffffffffffffffffffffffffffffffffffffffff1663157ffc5284610a306133bc565b856040518463ffffffff1660e01b8152600401610a4f939291906145ab565b600060405180830381600087803b158015610a6957600080fd5b505af1158015610a7d573d6000803e3d6000fd5b50505050505050565b6000600160003373ffffffffffffffffffffffffffffffffffffffff1673ffffffffffffffffffffffffffffffffffffffff16815260200190815260200160002060009054906101000a900460ff16610b14576040517f08c379a0000000000000000000000000000000000000000000000000000000008152600401610b0b906144c8565b60405180910390fd5b600660008473ffffffffffffffffffffffffffffffffffffffff1673ffffffffffffffffffffffffffffffffffffffff16815260200190815260200160002060405180602001604052808481525090806001815401808255809150506001900390600052602060002001600090919091909150600082015181600001555050610b9c83610bfe565b905092915050565b600080600260008473ffffffffffffffffffffffffffffffffffffffff1673ffffffffffffffffffffffffffffffffffffffff1681526020019081526020016000206002018054610bf490614517565b9050119050919050565b6000600660008373ffffffffffffffffffffffffffffffffffffffff1673ffffffffffffffffffffffffffffffffffffffff168152602001908152602001600020805490509050919050565b600860009054906101000a900473ffffffffffffffffffffffffffffffffffffffff1673ffffffffffffffffffffffffffffffffffffffff16639497c6086003336040518363ffffffff1660e01b8152600401610ca8929190614659565b602060405180830381865afa158015610cc5573d6000803e3d6000fd5b505050506040513d601f19601f82011682018060405250810190610ce991906146ae565b610d28576040517f08c379a0000000000000000000000000000000000000000000000000000000008152600401610d1f90614727565b60405180910390fd5b6000600260003373ffffffffffffffffffffffffffffffffffffffff1673ffffffffffffffffffffffffffffffffffffffff16815260200190815260200160002060405180610120016040529081600082015481526020016001820160009054906101000a900473ffffffffffffffffffffffffffffffffffffffff1673ffffffffffffffffffffffffffffffffffffffff1673ffffffffffffffffffffffffffffffffffffffff168152602001600282018054610de590614517565b80601f0160208091040260200160405190810160405280929190818152602001828054610e1190614517565b8015610e5e5780601f10610e3357610100808354040283529160200191610e5e565b820191906000526020600020905b815481529060010190602001808311610e4157829003601f168201915b5050505050815260200160038201604051806040016040529081600082015481526020016001820154815250508152602001600582018054610e9f90614517565b80601f0160208091040260200160405190810160405280929190818152602001828054610ecb90614517565b8015610f185780601f10610eed57610100808354040283529160200191610f18565b820191906000526020600020905b815481529060010190602001808311610efb57829003601f168201915b505050505081526020016006820154815260200160078201548152602001600882015481526020016009820154815250509050610f5481613454565b610f93576040517f08c379a0000000000000000000000000000000000000000000000000000000008152600401610f8a90614793565b60405180910390fd5b60006001600d54610fa491906147b3565b905060006040518060c001604052808381526020013373ffffffffffffffffffffffffffffffffffffffff16815260200188815260200187815260200186815260200185815250905080600560008481526020019081526020016000206000820151816000015560208201518160010160006101000a81548173ffffffffffffffffffffffffffffffffffffffff021916908373ffffffffffffffffffffffffffffffffffffffff16021790555060408201518160020190816110679190614993565b50606082015181600301908161107d9190614993565b5060808201518160040190816110939190614993565b5060a08201518160050155905050600d60008154809291906110b490614a65565b919050555043600260003373ffffffffffffffffffffffffffffffffffffffff1673ffffffffffffffffffffffffffffffffffffffff1681526020019081526020016000206008018190555050505050505050565b600860009054906101000a900473ffffffffffffffffffffffffffffffffffffffff1673ffffffffffffffffffffffffffffffffffffffff16639497c6086003336040518363ffffffff1660e01b8152600401611167929190614659565b602060405180830381865afa158015611184573d6000803e3d6000fd5b505050506040513d601f19601f820116820180604052508101906111a891906146ae565b6111e7576040517f08c379a00000000000000000000000000000000000000000000000000000000081526004016111de90614af9565b60405180910390fd5b6000600260003373ffffffffffffffffffffffffffffffffffffffff1673ffffffffffffffffffffffffffffffffffffffff16815260200190815260200160002060405180610120016040529081600082015481526020016001820160009054906101000a900473ffffffffffffffffffffffffffffffffffffffff1673ffffffffffffffffffffffffffffffffffffffff1673ffffffffffffffffffffffffffffffffffffffff1681526020016002820180546112a490614517565b80601f01602080910402602001604051908101604052809291908181526020018280546112d090614517565b801561131d5780601f106112f25761010080835404028352916020019161131d565b820191906000526020600020905b81548152906001019060200180831161130057829003601f168201915b505050505081526020016003820160405180604001604052908160008201548152602001600182015481525050815260200160058201805461135e90614517565b80601f016020809104026020016040519081016040528092919081815260200182805461138a90614517565b80156113d75780601f106113ac576101008083540402835291602001916113d7565b820191906000526020600020905b8154815290600101906020018083116113ba57829003601f168201915b50505050508152602001600682015481526020016007820154815260200160088201548152602001600982015481525050905060008160600151602001519050600960009054906101000a900473ffffffffffffffffffffffffffffffffffffffff1673ffffffffffffffffffffffffffffffffffffffff1663fbe85f06826040518263ffffffff1660e01b8152600401611472919061392b565b602060405180830381865afa15801561148f573d6000803e3d6000fd5b505050506040513d601f19601f820116820180604052508101906114b391906146ae565b6114f2576040517f08c379a00000000000000000000000000000000000000000000000000000000081526004016114e990614b65565b60405180910390fd5b600260003373ffffffffffffffffffffffffffffffffffffffff1673ffffffffffffffffffffffffffffffffffffffff168152602001908152602001600020600301600101600081548092919061154890614a65565b9190505550600960009054906101000a900473ffffffffffffffffffffffffffffffffffffffff1673ffffffffffffffffffffffffffffffffffffffff1663f3fef3a333836040518363ffffffff1660e01b81526004016115aa929190614b85565b600060405180830381600087803b1580156115c457600080fd5b505af11580156115d8573d6000803e3d6000fd5b505050505050565b600b5481565b600c5481565b6000600960009054906101000a900473ffffffffffffffffffffffffffffffffffffffff1673ffffffffffffffffffffffffffffffffffffffff1663d5ee3eb56116346133bc565b6040518263ffffffff1660e01b8152600401611650919061392b565b602060405180830381865afa15801561166d573d6000803e3d6000fd5b505050506040513d601f19601f820116820180604052508101906116919190614be4565b905090565b600460205281600052604060002081815481106116b257600080fd5b90600052602060002001600091509150505481565b60056020528060005260406000206000915090508060000154908060010160009054906101000a900473ffffffffffffffffffffffffffffffffffffffff169080600201805461171690614517565b80601f016020809104026020016040519081016040528092919081815260200182805461174290614517565b801561178f5780601f106117645761010080835404028352916020019161178f565b820191906000526020600020905b81548152906001019060200180831161177257829003601f168201915b5050505050908060030180546117a490614517565b80601f01602080910402602001604051908101604052809291908181526020018280546117d090614517565b801561181d5780601f106117f25761010080835404028352916020019161181d565b820191906000526020600020905b81548152906001019060200180831161180057829003601f168201915b50505050509080600401805461183290614517565b80601f016020809104026020016040519081016040528092919081815260200182805461185e90614517565b80156118ab5780601f10611880576101008083540402835291602001916118ab565b820191906000526020600020905b81548152906001019060200180831161188e57829003601f168201915b5050505050908060050154905086565b60036020528060005260406000206000915090508060000154908060010154908060020160009054906101000a900473ffffffffffffffffffffffffffffffffffffffff169080600301805461191090614517565b80601f016020809104026020016040519081016040528092919081815260200182805461193c90614517565b80156119895780601f1061195e57610100808354040283529160200191611989565b820191906000526020600020905b81548152906001019060200180831161196c57829003601f168201915b50505050509080600401805461199e90614517565b80601f01602080910402602001604051908101604052809291908181526020018280546119ca90614517565b8015611a175780601f106119ec57610100808354040283529160200191611a17565b820191906000526020600020905b8154815290600101906020018083116119fa57829003601f168201915b505050505090806005018054611a2c90614517565b80601f0160208091040260200160405190810160405280929190818152602001828054611a5890614517565b8015611aa55780601f10611a7a57610100808354040283529160200191611aa5565b820191906000526020600020905b815481529060010190602001808311611a8857829003601f168201915b5050505050908060060154908060070160009054906101000a900460ff1690806008015490806009015490508a565b60066020528160005260406000208181548110611af057600080fd5b90600052602060002001600091509150508060000154905081565b611b136134a5565b611b1d6000613523565b565b60016020528060005260406000206000915054906101000a900460ff1681565b600860009054906101000a900473ffffffffffffffffffffffffffffffffffffffff1673ffffffffffffffffffffffffffffffffffffffff16639497c6086008336040518363ffffffff1660e01b8152600401611b9d929190614659565b602060405180830381865afa158015611bba573d6000803e3d6000fd5b505050506040513d601f19601f82011682018060405250810190611bde91906146ae565b611c1d576040517f08c379a0000000000000000000000000000000000000000000000000000000008152600401611c1490614c5d565b60405180910390fd5b6000600360008481526020019081526020016000206040518061014001604052908160008201548152602001600182015481526020016002820160009054906101000a900473ffffffffffffffffffffffffffffffffffffffff1673ffffffffffffffffffffffffffffffffffffffff1673ffffffffffffffffffffffffffffffffffffffff168152602001600382018054611cb890614517565b80601f0160208091040260200160405190810160405280929190818152602001828054611ce490614517565b8015611d315780601f10611d0657610100808354040283529160200191611d31565b820191906000526020600020905b815481529060010190602001808311611d1457829003601f168201915b50505050508152602001600482018054611d4a90614517565b80601f0160208091040260200160405190810160405280929190818152602001828054611d7690614517565b8015611dc35780601f10611d9857610100808354040283529160200191611dc3565b820191906000526020600020905b815481529060010190602001808311611da657829003601f168201915b50505050508152602001600582018054611ddc90614517565b80601f0160208091040260200160405190810160405280929190818152602001828054611e0890614517565b8015611e555780601f10611e2a57610100808354040283529160200191611e55565b820191906000526020600020905b815481529060010190602001808311611e3857829003601f168201915b50505050508152602001600682015481526020016007820160009054906101000a900460ff161515151581526020016008820154815260200160098201548152505090508060e001518015611eb45750611ead6133bc565b8160200151145b611ef3576040517f08c379a0000000000000000000000000000000000000000000000000000000008152600401611eea90614cc9565b60405180910390fd5b60018160c001818151611f0691906147b3565b915081815250508060036000858152602001908152602001600020600082015181600001556020820151816001015560408201518160020160006101000a81548173ffffffffffffffffffffffffffffffffffffffff021916908373ffffffffffffffffffffffffffffffffffffffff1602179055506060820151816003019081611f919190614993565b506080820151816004019081611fa79190614993565b5060a0820151816005019081611fbd9190614993565b5060c0820151816006015560e08201518160070160006101000a81548160ff021916908315150217905550610100820151816008015561012082015181600901559050506000600a60009054906101000a900473ffffffffffffffffffffffffffffffffffffffff1673ffffffffffffffffffffffffffffffffffffffff166384f0f65f6040518163ffffffff1660e01b8152600401602060405180830381865afa158015612070573d6000803e3d6000fd5b505050506040513d601f19601f820116820180604052508101906120949190614cfe565b8260c001511015905080156120ad576120ac826135e7565b5b600a60009054906101000a900473ffffffffffffffffffffffffffffffffffffffff1673ffffffffffffffffffffffffffffffffffffffff1663e5899bc38385336040518463ffffffff1660e01b815260040161210c93929190614d2b565b600060405180830381600087803b15801561212657600080fd5b505af115801561213a573d6000803e3d6000fd5b5050505050505050565b60008060009054906101000a900473ffffffffffffffffffffffffffffffffffffffff16905090565b6121756134a5565b60018060008373ffffffffffffffffffffffffffffffffffffffff1673ffffffffffffffffffffffffffffffffffffffff16815260200190815260200160002060006101000a81548160ff02191690831515021790555050565b7f000000000000000000000000000000000000000000000000000000000000000081565b6000600583116122065760019050612238565b600061222e6001612220868861371690919063ffffffff16565b61372c90919063ffffffff16565b9050808310159150505b9392505050565b6122476137d9565b600560008381526020019081526020016000206040518060c0016040529081600082015481526020016001820160009054906101000a900473ffffffffffffffffffffffffffffffffffffffff1673ffffffffffffffffffffffffffffffffffffffff1673ffffffffffffffffffffffffffffffffffffffff1681526020016002820180546122d590614517565b80601f016020809104026020016040519081016040528092919081815260200182805461230190614517565b801561234e5780601f106123235761010080835404028352916020019161234e565b820191906000526020600020905b81548152906001019060200180831161233157829003601f168201915b5050505050815260200160038201805461236790614517565b80601f016020809104026020016040519081016040528092919081815260200182805461239390614517565b80156123e05780601f106123b5576101008083540402835291602001916123e0565b820191906000526020600020905b8154815290600101906020018083116123c357829003601f168201915b505050505081526020016004820180546123f990614517565b80601f016020809104026020016040519081016040528092919081815260200182805461242590614517565b80156124725780601f1061244757610100808354040283529160200191612472565b820191906000526020600020905b81548152906001019060200180831161245557829003601f168201915b505050505081526020016005820154815250509050919050565b6000600160008373ffffffffffffffffffffffffffffffffffffffff1673ffffffffffffffffffffffffffffffffffffffff16815260200190815260200160002060009054906101000a900460ff169050919050565b7f000000000000000000000000000000000000000000000000000000000000000081565b6060600460008373ffffffffffffffffffffffffffffffffffffffff1673ffffffffffffffffffffffffffffffffffffffff16815260200190815260200160002080548060200260200160405190810160405280929190818152602001828054801561259157602002820191906000526020600020905b81548152602001906001019080831161257d575b50505050509050919050565b6125a5613825565b60006001600860009054906101000a900473ffffffffffffffffffffffffffffffffffffffff1673ffffffffffffffffffffffffffffffffffffffff16631eb2c12060036040518263ffffffff1660e01b81526004016126059190614d70565b602060405180830381865afa158015612622573d6000803e3d6000fd5b505050506040513d601f19601f820116820180604052508101906126469190614cfe565b61265091906147b3565b905060006040518061012001604052808381526020013373ffffffffffffffffffffffffffffffffffffffff1681526020018681526020016040518060400160405280600081526020016126a26133bc565b815250815260200185815260200160008152602001600081526020016000815260200143815250905080600260003373ffffffffffffffffffffffffffffffffffffffff1673ffffffffffffffffffffffffffffffffffffffff1681526020019081526020016000206000820151816000015560208201518160010160006101000a81548173ffffffffffffffffffffffffffffffffffffffff021916908373ffffffffffffffffffffffffffffffffffffffff16021790555060408201518160020190816127719190614993565b506060820151816003016000820151816000015560208201518160010155505060808201518160050190816127a69190614993565b5060a0820151816006015560c0820151816007015560e082015181600801556101008201518160090155905050336007600084815260200190815260200160002060006101000a81548173ffffffffffffffffffffffffffffffffffffffff021916908373ffffffffffffffffffffffffffffffffffffffff160217905550600860009054906101000a900473ffffffffffffffffffffffffffffffffffffffff1673ffffffffffffffffffffffffffffffffffffffff16639c3eead93360036040518363ffffffff1660e01b8152600401612883929190614d8b565b600060405180830381600087803b15801561289d57600080fd5b505af11580156128b1573d6000803e3d6000fd5b50505050809250505092915050565b60076020528060005260406000206000915054906101000a900473ffffffffffffffffffffffffffffffffffffffff1681565b6000806128ff83612c58565b905060008160000151116129175760009150506129cc565b6129c8600c54600860009054906101000a900473ffffffffffffffffffffffffffffffffffffffff1673ffffffffffffffffffffffffffffffffffffffff16631eb2c12060036040518263ffffffff1660e01b81526004016129799190614d70565b602060405180830381865afa158015612996573d6000803e3d6000fd5b505050506040513d601f19601f820116820180604052508101906129ba9190614cfe565b8360600151600001516121f3565b9150505b919050565b6129d961388d565b600360008381526020019081526020016000206040518061014001604052908160008201548152602001600182015481526020016002820160009054906101000a900473ffffffffffffffffffffffffffffffffffffffff1673ffffffffffffffffffffffffffffffffffffffff1673ffffffffffffffffffffffffffffffffffffffff168152602001600382018054612a7290614517565b80601f0160208091040260200160405190810160405280929190818152602001828054612a9e90614517565b8015612aeb5780601f10612ac057610100808354040283529160200191612aeb565b820191906000526020600020905b815481529060010190602001808311612ace57829003601f168201915b50505050508152602001600482018054612b0490614517565b80601f0160208091040260200160405190810160405280929190818152602001828054612b3090614517565b8015612b7d5780601f10612b5257610100808354040283529160200191612b7d565b820191906000526020600020905b815481529060010190602001808311612b6057829003601f168201915b50505050508152602001600582018054612b9690614517565b80601f0160208091040260200160405190810160405280929190818152602001828054612bc290614517565b8015612c0f5780601f10612be457610100808354040283529160200191612c0f565b820191906000526020600020905b815481529060010190602001808311612bf257829003601f168201915b50505050508152602001600682015481526020016007820160009054906101000a900460ff16151515158152602001600882015481526020016009820154815250509050919050565b612c60613825565b600260008373ffffffffffffffffffffffffffffffffffffffff1673ffffffffffffffffffffffffffffffffffffffff16815260200190815260200160002060405180610120016040529081600082015481526020016001820160009054906101000a900473ffffffffffffffffffffffffffffffffffffffff1673ffffffffffffffffffffffffffffffffffffffff1673ffffffffffffffffffffffffffffffffffffffff168152602001600282018054612d1b90614517565b80601f0160208091040260200160405190810160405280929190818152602001828054612d4790614517565b8015612d945780601f10612d6957610100808354040283529160200191612d94565b820191906000526020600020905b815481529060010190602001808311612d7757829003601f168201915b5050505050815260200160038201604051806040016040529081600082015481526020016001820154815250508152602001600582018054612dd590614517565b80601f0160208091040260200160405190810160405280929190818152602001828054612e0190614517565b8015612e4e5780601f10612e2357610100808354040283529160200191612e4e565b820191906000526020600020905b815481529060010190602001808311612e3157829003601f168201915b505050505081526020016006820154815260200160078201548152602001600882015481526020016009820154815250509050919050565b600860009054906101000a900473ffffffffffffffffffffffffffffffffffffffff1673ffffffffffffffffffffffffffffffffffffffff16639497c6086003336040518363ffffffff1660e01b8152600401612ee4929190614659565b602060405180830381865afa158015612f01573d6000803e3d6000fd5b505050506040513d601f19601f82011682018060405250810190612f2591906146ae565b612f64576040517f08c379a0000000000000000000000000000000000000000000000000000000008152600401612f5b90614727565b60405180910390fd5b7f0000000000000000000000000000000000000000000000000000000000000000612f8d6115ec565b11612fcd576040517f08c379a0000000000000000000000000000000000000000000000000000000008152600401612fc490614e26565b60405180910390fd5b612fd633613742565b613015576040517f08c379a000000000000000000000000000000000000000000000000000000000815260040161300c90614793565b60405180910390fd5b6000600260003373ffffffffffffffffffffffffffffffffffffffff1673ffffffffffffffffffffffffffffffffffffffff168152602001908152602001600020905060006001600b5461306991906147b3565b905060006040518061014001604052808381526020016130876133bc565b81526020013373ffffffffffffffffffffffffffffffffffffffff16815260200187815260200186815260200185815260200160008152602001600115158152602001600081526020014381525090508060036000848152602001908152602001600020600082015181600001556020820151816001015560408201518160020160006101000a81548173ffffffffffffffffffffffffffffffffffffffff021916908373ffffffffffffffffffffffffffffffffffffffff160217905550606082015181600301908161315b9190614993565b5060808201518160040190816131719190614993565b5060a08201518160050190816131879190614993565b5060c0820151816006015560e08201518160070160006101000a81548160ff02191690831515021790555061010082015181600801556101208201518160090155905050600b60008154809291906131de90614a65565b9190505550600c60008154809291906131f690614a65565b919050555082600601600081548092919061321090614a65565b9190505550438360070181905550600460003373ffffffffffffffffffffffffffffffffffffffff1673ffffffffffffffffffffffffffffffffffffffff16815260200190815260200160002082908060018154018082558091505060019003906000526020600020016000909190919091505582600301600001600081548092919061329c90614a65565b9190505550600960009054906101000a900473ffffffffffffffffffffffffffffffffffffffff1673ffffffffffffffffffffffffffffffffffffffff166352b8d3ed3360016040518363ffffffff1660e01b81526004016132ff929190614e81565b600060405180830381600087803b15801561331957600080fd5b505af115801561332d573d6000803e3d6000fd5b50505050505050505050565b6133416134a5565b600073ffffffffffffffffffffffffffffffffffffffff168173ffffffffffffffffffffffffffffffffffffffff16036133b0576040517f08c379a00000000000000000000000000000000000000000000000000000000081526004016133a790614f1c565b60405180910390fd5b6133b981613523565b50565b6000600960009054906101000a900473ffffffffffffffffffffffffffffffffffffffff1673ffffffffffffffffffffffffffffffffffffffff1663ed0df79e6040518163ffffffff1660e01b8152600401602060405180830381865afa15801561342b573d6000803e3d6000fd5b505050506040513d601f19601f8201168201806040525081019061344f9190614cfe565b905090565b6000808260e00151905060007f00000000000000000000000000000000000000000000000000000000000000008261348c91906147b3565b43119050808061349c5750600082145b92505050919050565b6134ad6137d1565b73ffffffffffffffffffffffffffffffffffffffff166134cb612144565b73ffffffffffffffffffffffffffffffffffffffff1614613521576040517f08c379a000000000000000000000000000000000000000000000000000000000815260040161351890614f88565b60405180910390fd5b565b60008060009054906101000a900473ffffffffffffffffffffffffffffffffffffffff169050816000806101000a81548173ffffffffffffffffffffffffffffffffffffffff021916908373ffffffffffffffffffffffffffffffffffffffff1602179055508173ffffffffffffffffffffffffffffffffffffffff168173ffffffffffffffffffffffffffffffffffffffff167f8be0079c531659141344cd1fd0a4f28419497f9722a3daafe3b4186f6b6457e060405160405180910390a35050565b600c60008154809291906135fa90614fa8565b919050555060008160e00190151590811515815250504381610100018181525050806003600083600001518152602001908152602001600020600082015181600001556020820151816001015560408201518160020160006101000a81548173ffffffffffffffffffffffffffffffffffffffff021916908373ffffffffffffffffffffffffffffffffffffffff16021790555060608201518160030190816136a39190614993565b5060808201518160040190816136b99190614993565b5060a08201518160050190816136cf9190614993565b5060c0820151816006015560e08201518160070160006101000a81548160ff0219169083151502179055506101008201518160080155610120820151816009015590505050565b600081836137249190615000565b905092915050565b6000818361373a91906147b3565b905092915050565b600080600260008473ffffffffffffffffffffffffffffffffffffffff1673ffffffffffffffffffffffffffffffffffffffff16815260200190815260200160002060070154905060007f0000000000000000000000000000000000000000000000000000000000000000826137b891906147b3565b4311905080806137c85750600082145b92505050919050565b600033905090565b6040518060c0016040528060008152602001600073ffffffffffffffffffffffffffffffffffffffff168152602001606081526020016060815260200160608152602001600081525090565b60405180610120016040528060008152602001600073ffffffffffffffffffffffffffffffffffffffff168152602001606081526020016138646138f8565b815260200160608152602001600081526020016000815260200160008152602001600081525090565b6040518061014001604052806000815260200160008152602001600073ffffffffffffffffffffffffffffffffffffffff1681526020016060815260200160608152602001606081526020016000815260200160001515815260200160008152602001600081525090565b604051806040016040528060008152602001600081525090565b6000819050919050565b61392581613912565b82525050565b6000602082019050613940600083018461391c565b92915050565b6000604051905090565b600080fd5b600080fd5b600073ffffffffffffffffffffffffffffffffffffffff82169050919050565b60006139858261395a565b9050919050565b6139958161397a565b81146139a057600080fd5b50565b6000813590506139b28161398c565b92915050565b6139c181613912565b81146139cc57600080fd5b50565b6000813590506139de816139b8565b92915050565b600080604083850312156139fb576139fa613950565b5b6000613a09858286016139a3565b9250506020613a1a858286016139cf565b9150509250929050565b600060208284031215613a3a57613a39613950565b5b6000613a48848285016139a3565b91505092915050565b60008115159050919050565b613a6681613a51565b82525050565b6000602082019050613a816000830184613a5d565b92915050565b600080fd5b600080fd5b6000601f19601f8301169050919050565b7f4e487b7100000000000000000000000000000000000000000000000000000000600052604160045260246000fd5b613ada82613a91565b810181811067ffffffffffffffff82111715613af957613af8613aa2565b5b80604052505050565b6000613b0c613946565b9050613b188282613ad1565b919050565b600067ffffffffffffffff821115613b3857613b37613aa2565b5b613b4182613a91565b9050602081019050919050565b82818337600083830152505050565b6000613b70613b6b84613b1d565b613b02565b905082815260208101848484011115613b8c57613b8b613a8c565b5b613b97848285613b4e565b509392505050565b600082601f830112613bb457613bb3613a87565b5b8135613bc4848260208601613b5d565b91505092915050565b60008060008060808587031215613be757613be6613950565b5b600085013567ffffffffffffffff811115613c0557613c04613955565b5b613c1187828801613b9f565b945050602085013567ffffffffffffffff811115613c3257613c31613955565b5b613c3e87828801613b9f565b935050604085013567ffffffffffffffff811115613c5f57613c5e613955565b5b613c6b87828801613b9f565b9250506060613c7c878288016139cf565b91505092959194509250565b600060208284031215613c9e57613c9d613950565b5b6000613cac848285016139cf565b91505092915050565b613cbe8161397a565b82525050565b600081519050919050565b600082825260208201905092915050565b60005b83811015613cfe578082015181840152602081019050613ce3565b60008484015250505050565b6000613d1582613cc4565b613d1f8185613ccf565b9350613d2f818560208601613ce0565b613d3881613a91565b840191505092915050565b600060c082019050613d58600083018961391c565b613d656020830188613cb5565b8181036040830152613d778187613d0a565b90508181036060830152613d8b8186613d0a565b90508181036080830152613d9f8185613d0a565b9050613dae60a083018461391c565b979650505050505050565b600061014082019050613dcf600083018d61391c565b613ddc602083018c61391c565b613de9604083018b613cb5565b8181036060830152613dfb818a613d0a565b90508181036080830152613e0f8189613d0a565b905081810360a0830152613e238188613d0a565b9050613e3260c083018761391c565b613e3f60e0830186613a5d565b613e4d61010083018561391c565b613e5b61012083018461391c565b9b9a5050505050505050505050565b60008060408385031215613e8157613e80613950565b5b6000613e8f858286016139cf565b925050602083013567ffffffffffffffff811115613eb057613eaf613955565b5b613ebc85828601613b9f565b9150509250929050565b6000602082019050613edb6000830184613cb5565b92915050565b600080600060608486031215613efa57613ef9613950565b5b6000613f08868287016139cf565b9350506020613f19868287016139cf565b9250506040613f2a868287016139cf565b9150509250925092565b613f3d81613912565b82525050565b613f4c8161397a565b82525050565b600082825260208201905092915050565b6000613f6e82613cc4565b613f788185613f52565b9350613f88818560208601613ce0565b613f9181613a91565b840191505092915050565b600060c083016000830151613fb46000860182613f34565b506020830151613fc76020860182613f43565b5060408301518482036040860152613fdf8282613f63565b91505060608301518482036060860152613ff98282613f63565b915050608083015184820360808601526140138282613f63565b91505060a083015161402860a0860182613f34565b508091505092915050565b6000602082019050818103600083015261404d8184613f9c565b905092915050565b600081519050919050565b600082825260208201905092915050565b6000819050602082019050919050565b600061408d8383613f34565b60208301905092915050565b6000602082019050919050565b60006140b182614055565b6140bb8185614060565b93506140c683614071565b8060005b838110156140f75781516140de8882614081565b97506140e983614099565b9250506001810190506140ca565b5085935050505092915050565b6000602082019050818103600083015261411e81846140a6565b905092915050565b6000806040838503121561413d5761413c613950565b5b600083013567ffffffffffffffff81111561415b5761415a613955565b5b61416785828601613b9f565b925050602083013567ffffffffffffffff81111561418857614187613955565b5b61419485828601613b9f565b9150509250929050565b6040820160008201516141b46000850182613f34565b5060208201516141c76020850182613f34565b50505050565b6000610140830160008301516141e66000860182613f34565b5060208301516141f96020860182613f43565b50604083015184820360408601526142118282613f63565b9150506060830151614226606086018261419e565b50608083015184820360a086015261423e8282613f63565b91505060a083015161425360c0860182613f34565b5060c083015161426660e0860182613f34565b5060e083015161427a610100860182613f34565b5061010083015161428f610120860182613f34565b508091505092915050565b600060208201905081810360008301526142b481846141cd565b905092915050565b6142c581613a51565b82525050565b6000610140830160008301516142e46000860182613f34565b5060208301516142f76020860182613f34565b50604083015161430a6040860182613f43565b50606083015184820360608601526143228282613f63565b9150506080830151848203608086015261433c8282613f63565b91505060a083015184820360a08601526143568282613f63565b91505060c083015161436b60c0860182613f34565b5060e083015161437e60e08601826142bc565b50610100830151614393610100860182613f34565b506101208301516143a8610120860182613f34565b508091505092915050565b600060208201905081810360008301526143cd81846142cb565b905092915050565b6000806000606084860312156143ee576143ed613950565b5b600084013567ffffffffffffffff81111561440c5761440b613955565b5b61441886828701613b9f565b935050602084013567ffffffffffffffff81111561443957614438613955565b5b61444586828701613b9f565b925050604084013567ffffffffffffffff81111561446657614465613955565b5b61447286828701613b9f565b9150509250925092565b7f4e6f7420616c6c6f7765642063616c6c65720000000000000000000000000000600082015250565b60006144b2601283613ccf565b91506144bd8261447c565b602082019050919050565b600060208201905081810360008301526144e1816144a5565b9050919050565b7f4e487b7100000000000000000000000000000000000000000000000000000000600052602260045260246000fd5b6000600282049050600182168061452f57607f821691505b602082108103614542576145416144e8565b5b50919050565b7f4e487b7100000000000000000000000000000000000000000000000000000000600052601160045260246000fd5b600061458282613912565b915061458d83613912565b92508282039050818111156145a5576145a4614548565b5b92915050565b60006060820190506145c06000830186613cb5565b6145cd602083018561391c565b6145da604083018461391c565b949350505050565b7f4e487b7100000000000000000000000000000000000000000000000000000000600052602160045260246000fd5b600a8110614622576146216145e2565b5b50565b600081905061463382614611565b919050565b600061464382614625565b9050919050565b61465381614638565b82525050565b600060408201905061466e600083018561464a565b61467b6020830184613cb5565b9392505050565b61468b81613a51565b811461469657600080fd5b50565b6000815190506146a881614682565b92915050565b6000602082840312156146c4576146c3613950565b5b60006146d284828501614699565b91505092915050565b7f4f6e6c7920616c6c6f77656420746f2072657365617263686572730000000000600082015250565b6000614711601b83613ccf565b915061471c826146db565b602082019050919050565b6000602082019050818103600083015261474081614704565b9050919050565b7f43616e2774207075626c69736820796574000000000000000000000000000000600082015250565b600061477d601183613ccf565b915061478882614747565b602082019050919050565b600060208201905081810360008301526147ac81614770565b9050919050565b60006147be82613912565b91506147c983613912565b92508282019050808211156147e1576147e0614548565b5b92915050565b60008190508160005260206000209050919050565b60006020601f8301049050919050565b600082821b905092915050565b6000600883026148497fffffffffffffffffffffffffffffffffffffffffffffffffffffffffffffffff8261480c565b614853868361480c565b95508019841693508086168417925050509392505050565b6000819050919050565b600061489061488b61488684613912565b61486b565b613912565b9050919050565b6000819050919050565b6148aa83614875565b6148be6148b682614897565b848454614819565b825550505050565b600090565b6148d36148c6565b6148de8184846148a1565b505050565b5b81811015614902576148f76000826148cb565b6001810190506148e4565b5050565b601f82111561494757614918816147e7565b614921846147fc565b81016020851015614930578190505b61494461493c856147fc565b8301826148e3565b50505b505050565b600082821c905092915050565b600061496a6000198460080261494c565b1980831691505092915050565b60006149838383614959565b9150826002028217905092915050565b61499c82613cc4565b67ffffffffffffffff8111156149b5576149b4613aa2565b5b6149bf8254614517565b6149ca828285614906565b600060209050601f8311600181146149fd57600084156149eb578287015190505b6149f58582614977565b865550614a5d565b601f198416614a0b866147e7565b60005b82811015614a3357848901518255600182019150602085019450602081019050614a0e565b86831015614a505784890151614a4c601f891682614959565b8355505b6001600288020188555050505b505050505050565b6000614a7082613912565b91507fffffffffffffffffffffffffffffffffffffffffffffffffffffffffffffffff8203614aa257614aa1614548565b5b600182019050919050565b7f506f6f6c206f6e6c7920746f2072657365617263686572730000000000000000600082015250565b6000614ae3601883613ccf565b9150614aee82614aad565b602082019050919050565b60006020820190508181036000830152614b1281614ad6565b9050919050565b7f43616e277420617070726f766520776974686472617700000000000000000000600082015250565b6000614b4f601683613ccf565b9150614b5a82614b19565b602082019050919050565b60006020820190508181036000830152614b7e81614b42565b9050919050565b6000604082019050614b9a6000830185613cb5565b614ba7602083018461391c565b9392505050565b6000819050919050565b614bc181614bae565b8114614bcc57600080fd5b50565b600081519050614bde81614bb8565b92915050565b600060208284031215614bfa57614bf9613950565b5b6000614c0884828501614bcf565b91505092915050565b7f506c656173652072656769737465722061732076616c696461746f7200000000600082015250565b6000614c47601c83613ccf565b9150614c5282614c11565b602082019050919050565b60006020820190508181036000830152614c7681614c3a565b9050919050565b7f54686973207265736561726368206973206e6f742056414c4944000000000000600082015250565b6000614cb3601a83613ccf565b9150614cbe82614c7d565b602082019050919050565b60006020820190508181036000830152614ce281614ca6565b9050919050565b600081519050614cf8816139b8565b92915050565b600060208284031215614d1457614d13613950565b5b6000614d2284828501614ce9565b91505092915050565b60006060820190508181036000830152614d4581866142cb565b90508181036020830152614d598185613d0a565b9050614d686040830184613cb5565b949350505050565b6000602082019050614d85600083018461464a565b92915050565b6000604082019050614da06000830185613cb5565b614dad602083018461464a565b9392505050565b7f5761697420756e74696c206e6578742065726120746f2061646420726573656160008201527f7263680000000000000000000000000000000000000000000000000000000000602082015250565b6000614e10602383613ccf565b9150614e1b82614db4565b604082019050919050565b60006020820190508181036000830152614e3f81614e03565b9050919050565b6000819050919050565b6000614e6b614e66614e6184614e46565b61486b565b613912565b9050919050565b614e7b81614e50565b82525050565b6000604082019050614e966000830185613cb5565b614ea36020830184614e72565b9392505050565b7f4f776e61626c653a206e6577206f776e657220697320746865207a65726f206160008201527f6464726573730000000000000000000000000000000000000000000000000000602082015250565b6000614f06602683613ccf565b9150614f1182614eaa565b604082019050919050565b60006020820190508181036000830152614f3581614ef9565b9050919050565b7f4f776e61626c653a2063616c6c6572206973206e6f7420746865206f776e6572600082015250565b6000614f72602083613ccf565b9150614f7d82614f3c565b602082019050919050565b60006020820190508181036000830152614fa181614f65565b9050919050565b6000614fb382613912565b915060008203614fc657614fc5614548565b5b600182039050919050565b7f4e487b7100000000000000000000000000000000000000000000000000000000600052601260045260246000fd5b600061500b82613912565b915061501683613912565b92508261502657615025614fd1565b5b82820490509291505056fea2646970667358221220b7084fcd79e115065633ad0805226f1aa14cca40a15339f5ef5eeab1304e543664736f6c634300081b0033",
  "linkReferences": {},
  "deployedLinkReferences": {}
}