{
  "_format": "hh-sol-artifact-1",
  "contractName": "ResearcherRules",
  "sourceName": "contracts/ResearcherRules.sol",
  "abi": [
    {
      "inputs": [
        {
          "internalType": "address",
          "name": "communityRulesAddress",
          "type": "address"
        },
        {
          "internalType": "address",
          "name": "researcherPoolAddress",
          "type": "address"
        },
        {
          "internalType": "address",
          "name": "validatorRulesAddress",
          "type": "address"
        },
        {
          "internalType": "uint256",
          "name": "timeBetweenWorks_",
          "type": "uint256"
        },
        {
          "internalType": "uint256",
          "name": "maxPenalties_",
          "type": "uint256"
        },
        {
          "internalType": "uint256",
          "name": "securityBlocksToValidatorAnalysis",
          "type": "uint256"
        }
      ],
      "stateMutability": "nonpayable",
      "type": "constructor"
    },
    {
      "anonymous": false,
      "inputs": [
        {
          "indexed": true,
          "internalType": "address",
          "name": "previousOwner",
          "type": "address"
        },
        {
          "indexed": true,
          "internalType": "address",
          "name": "newOwner",
          "type": "address"
        }
      ],
      "name": "OwnershipTransferred",
      "type": "event"
    },
    {
      "inputs": [],
      "name": "MAX_PENALTIES",
      "outputs": [
        {
          "internalType": "uint256",
          "name": "",
          "type": "uint256"
        }
      ],
      "stateMutability": "view",
      "type": "function"
    },
    {
      "inputs": [],
      "name": "SECURITY_BLOCKS_TO_VALIDATOR_ANALYSIS",
      "outputs": [
        {
          "internalType": "uint256",
          "name": "",
          "type": "uint256"
        }
      ],
      "stateMutability": "view",
      "type": "function"
    },
    {
      "inputs": [
        {
          "internalType": "string",
          "name": "title",
          "type": "string"
        },
        {
          "internalType": "string",
          "name": "unit",
          "type": "string"
        },
        {
          "internalType": "string",
          "name": "justification",
          "type": "string"
        },
        {
          "internalType": "uint256",
          "name": "carbonImpact",
          "type": "uint256"
        }
      ],
      "name": "addCalculatorItem",
      "outputs": [],
      "stateMutability": "nonpayable",
      "type": "function"
    },
    {
      "inputs": [
        {
          "internalType": "address",
          "name": "addr",
          "type": "address"
        },
        {
          "internalType": "uint256",
          "name": "researchId",
          "type": "uint256"
        }
      ],
      "name": "addPenalty",
      "outputs": [
        {
          "internalType": "uint256",
          "name": "",
          "type": "uint256"
        }
      ],
      "stateMutability": "nonpayable",
      "type": "function"
    },
    {
      "inputs": [
        {
          "internalType": "string",
          "name": "title",
          "type": "string"
        },
        {
          "internalType": "string",
          "name": "thesis",
          "type": "string"
        },
        {
          "internalType": "string",
          "name": "file",
          "type": "string"
        }
      ],
      "name": "addResearch",
      "outputs": [],
      "stateMutability": "nonpayable",
      "type": "function"
    },
    {
      "inputs": [
        {
          "internalType": "uint256",
          "name": "id",
          "type": "uint256"
        },
        {
          "internalType": "string",
          "name": "justification",
          "type": "string"
        }
      ],
      "name": "addResearchValidation",
      "outputs": [],
      "stateMutability": "nonpayable",
      "type": "function"
    },
    {
      "inputs": [
        {
          "internalType": "string",
          "name": "name",
          "type": "string"
        },
        {
          "internalType": "string",
          "name": "proofPhoto",
          "type": "string"
        }
      ],
      "name": "addResearcher",
      "outputs": [
        {
          "components": [
            {
              "internalType": "uint256",
              "name": "id",
              "type": "uint256"
            },
            {
              "internalType": "address",
              "name": "researcherWallet",
              "type": "address"
            },
            {
              "internalType": "string",
              "name": "name",
              "type": "string"
            },
            {
              "components": [
                {
                  "internalType": "uint256",
                  "name": "level",
                  "type": "uint256"
                },
                {
                  "internalType": "uint256",
                  "name": "currentEra",
                  "type": "uint256"
                }
              ],
              "internalType": "struct Pool",
              "name": "pool",
              "type": "tuple"
            },
            {
              "internalType": "string",
              "name": "proofPhoto",
              "type": "string"
            },
            {
              "internalType": "uint256",
              "name": "publishedResearches",
              "type": "uint256"
            },
            {
              "internalType": "uint256",
              "name": "lastPublishedAt",
              "type": "uint256"
            },
            {
              "internalType": "uint256",
              "name": "lastCalculatorItemAt",
              "type": "uint256"
            },
            {
              "internalType": "uint256",
              "name": "createdAt",
              "type": "uint256"
            }
          ],
          "internalType": "struct Researcher",
          "name": "",
          "type": "tuple"
        }
      ],
      "stateMutability": "nonpayable",
      "type": "function"
    },
    {
      "inputs": [
        {
          "internalType": "address",
          "name": "",
          "type": "address"
        }
      ],
      "name": "allowedCallers",
      "outputs": [
        {
          "internalType": "bool",
          "name": "",
          "type": "bool"
        }
      ],
      "stateMutability": "view",
      "type": "function"
    },
    {
      "inputs": [
        {
          "internalType": "uint256",
          "name": "",
          "type": "uint256"
        }
      ],
      "name": "calculatorItems",
      "outputs": [
        {
          "internalType": "uint256",
          "name": "id",
          "type": "uint256"
        },
        {
          "internalType": "address",
          "name": "createdBy",
          "type": "address"
        },
        {
          "internalType": "string",
          "name": "title",
          "type": "string"
        },
        {
          "internalType": "string",
          "name": "unit",
          "type": "string"
        },
        {
          "internalType": "string",
          "name": "justification",
          "type": "string"
        },
        {
          "internalType": "uint256",
          "name": "carbonImpact",
          "type": "uint256"
        }
      ],
      "stateMutability": "view",
      "type": "function"
    },
    {
      "inputs": [],
      "name": "calculatorItemsCount",
      "outputs": [
        {
          "internalType": "uint256",
          "name": "",
          "type": "uint256"
        }
      ],
      "stateMutability": "view",
      "type": "function"
    },
    {
      "inputs": [
        {
          "internalType": "uint256",
          "name": "totalLevels",
          "type": "uint256"
        },
        {
          "internalType": "uint256",
          "name": "totalUsers",
          "type": "uint256"
        },
        {
          "internalType": "uint256",
          "name": "userLevels",
          "type": "uint256"
        }
      ],
      "name": "canInvite",
      "outputs": [
        {
          "internalType": "bool",
          "name": "",
          "type": "bool"
        }
      ],
      "stateMutability": "pure",
      "type": "function"
    },
    {
      "inputs": [
        {
          "internalType": "address",
          "name": "addr",
          "type": "address"
        }
      ],
      "name": "canSendInvite",
      "outputs": [
        {
          "internalType": "bool",
          "name": "",
          "type": "bool"
        }
      ],
      "stateMutability": "view",
      "type": "function"
    },
    {
      "inputs": [
        {
          "internalType": "uint256",
          "name": "id",
          "type": "uint256"
        }
      ],
      "name": "getCalculatorItem",
      "outputs": [
        {
          "components": [
            {
              "internalType": "uint256",
              "name": "id",
              "type": "uint256"
            },
            {
              "internalType": "address",
              "name": "createdBy",
              "type": "address"
            },
            {
              "internalType": "string",
              "name": "title",
              "type": "string"
            },
            {
              "internalType": "string",
              "name": "unit",
              "type": "string"
            },
            {
              "internalType": "string",
              "name": "justification",
              "type": "string"
            },
            {
              "internalType": "uint256",
              "name": "carbonImpact",
              "type": "uint256"
            }
          ],
          "internalType": "struct CalculatorItem",
          "name": "",
          "type": "tuple"
        }
      ],
      "stateMutability": "view",
      "type": "function"
    },
    {
      "inputs": [
        {
          "internalType": "uint256",
          "name": "id",
          "type": "uint256"
        }
      ],
      "name": "getResearch",
      "outputs": [
        {
          "components": [
            {
              "internalType": "uint256",
              "name": "id",
              "type": "uint256"
            },
            {
              "internalType": "uint256",
              "name": "era",
              "type": "uint256"
            },
            {
              "internalType": "address",
              "name": "createdBy",
              "type": "address"
            },
            {
              "internalType": "string",
              "name": "title",
              "type": "string"
            },
            {
              "internalType": "string",
              "name": "thesis",
              "type": "string"
            },
            {
              "internalType": "string",
              "name": "file",
              "type": "string"
            },
            {
              "internalType": "uint256",
              "name": "validationsCount",
              "type": "uint256"
            },
            {
              "internalType": "bool",
              "name": "valid",
              "type": "bool"
            },
            {
              "internalType": "uint256",
              "name": "invalidatedAt",
              "type": "uint256"
            },
            {
              "internalType": "uint256",
              "name": "createdAtBlock",
              "type": "uint256"
            }
          ],
          "internalType": "struct Research",
          "name": "",
          "type": "tuple"
        }
      ],
      "stateMutability": "view",
      "type": "function"
    },
    {
      "inputs": [
        {
          "internalType": "address",
          "name": "addr",
          "type": "address"
        }
      ],
      "name": "getResearcher",
      "outputs": [
        {
          "components": [
            {
              "internalType": "uint256",
              "name": "id",
              "type": "uint256"
            },
            {
              "internalType": "address",
              "name": "researcherWallet",
              "type": "address"
            },
            {
              "internalType": "string",
              "name": "name",
              "type": "string"
            },
            {
              "components": [
                {
                  "internalType": "uint256",
                  "name": "level",
                  "type": "uint256"
                },
                {
                  "internalType": "uint256",
                  "name": "currentEra",
                  "type": "uint256"
                }
              ],
              "internalType": "struct Pool",
              "name": "pool",
              "type": "tuple"
            },
            {
              "internalType": "string",
              "name": "proofPhoto",
              "type": "string"
            },
            {
              "internalType": "uint256",
              "name": "publishedResearches",
              "type": "uint256"
            },
            {
              "internalType": "uint256",
              "name": "lastPublishedAt",
              "type": "uint256"
            },
            {
              "internalType": "uint256",
              "name": "lastCalculatorItemAt",
              "type": "uint256"
            },
            {
              "internalType": "uint256",
              "name": "createdAt",
              "type": "uint256"
            }
          ],
          "internalType": "struct Researcher",
          "name": "",
          "type": "tuple"
        }
      ],
      "stateMutability": "view",
      "type": "function"
    },
    {
      "inputs": [
        {
          "internalType": "address",
          "name": "caller",
          "type": "address"
        }
      ],
      "name": "isAllowedCaller",
      "outputs": [
        {
          "internalType": "bool",
          "name": "",
          "type": "bool"
        }
      ],
      "stateMutability": "view",
      "type": "function"
    },
    {
      "inputs": [
        {
          "internalType": "address",
          "name": "allowed",
          "type": "address"
        }
      ],
      "name": "newAllowedCaller",
      "outputs": [],
      "stateMutability": "nonpayable",
      "type": "function"
    },
    {
      "inputs": [],
      "name": "nextEraIn",
      "outputs": [
        {
          "internalType": "uint256",
          "name": "",
          "type": "uint256"
        }
      ],
      "stateMutability": "view",
      "type": "function"
    },
    {
      "inputs": [],
      "name": "owner",
      "outputs": [
        {
          "internalType": "address",
          "name": "",
          "type": "address"
        }
      ],
      "stateMutability": "view",
      "type": "function"
    },
    {
      "inputs": [
        {
          "internalType": "address",
          "name": "",
          "type": "address"
        },
        {
          "internalType": "uint256",
          "name": "",
          "type": "uint256"
        }
      ],
      "name": "penalties",
      "outputs": [
        {
          "internalType": "uint256",
          "name": "researchId",
          "type": "uint256"
        }
      ],
      "stateMutability": "view",
      "type": "function"
    },
    {
      "inputs": [
        {
          "internalType": "address",
          "name": "addr",
          "type": "address"
        },
        {
          "internalType": "uint256",
          "name": "removeSomeLevels",
          "type": "uint256"
        }
      ],
      "name": "removePoolLevels",
      "outputs": [],
      "stateMutability": "nonpayable",
      "type": "function"
    },
    {
      "inputs": [],
      "name": "renounceOwnership",
      "outputs": [],
      "stateMutability": "nonpayable",
      "type": "function"
    },
    {
      "inputs": [
        {
          "internalType": "address",
          "name": "addr",
          "type": "address"
        }
      ],
      "name": "researcherExists",
      "outputs": [
        {
          "internalType": "bool",
          "name": "",
          "type": "bool"
        }
      ],
      "stateMutability": "view",
      "type": "function"
    },
    {
      "inputs": [
        {
          "internalType": "uint256",
          "name": "",
          "type": "uint256"
        }
      ],
      "name": "researchersAddress",
      "outputs": [
        {
          "internalType": "address",
          "name": "",
          "type": "address"
        }
      ],
      "stateMutability": "view",
      "type": "function"
    },
    {
      "inputs": [
        {
          "internalType": "uint256",
          "name": "",
          "type": "uint256"
        }
      ],
      "name": "researches",
      "outputs": [
        {
          "internalType": "uint256",
          "name": "id",
          "type": "uint256"
        },
        {
          "internalType": "uint256",
          "name": "era",
          "type": "uint256"
        },
        {
          "internalType": "address",
          "name": "createdBy",
          "type": "address"
        },
        {
          "internalType": "string",
          "name": "title",
          "type": "string"
        },
        {
          "internalType": "string",
          "name": "thesis",
          "type": "string"
        },
        {
          "internalType": "string",
          "name": "file",
          "type": "string"
        },
        {
          "internalType": "uint256",
          "name": "validationsCount",
          "type": "uint256"
        },
        {
          "internalType": "bool",
          "name": "valid",
          "type": "bool"
        },
        {
          "internalType": "uint256",
          "name": "invalidatedAt",
          "type": "uint256"
        },
        {
          "internalType": "uint256",
          "name": "createdAtBlock",
          "type": "uint256"
        }
      ],
      "stateMutability": "view",
      "type": "function"
    },
    {
      "inputs": [],
      "name": "researchesCount",
      "outputs": [
        {
          "internalType": "uint256",
          "name": "",
          "type": "uint256"
        }
      ],
      "stateMutability": "view",
      "type": "function"
    },
    {
      "inputs": [],
      "name": "researchesTotalCount",
      "outputs": [
        {
          "internalType": "uint256",
          "name": "",
          "type": "uint256"
        }
      ],
      "stateMutability": "view",
      "type": "function"
    },
    {
      "inputs": [
        {
          "internalType": "address",
          "name": "addr",
          "type": "address"
        }
      ],
      "name": "totalPenalties",
      "outputs": [
        {
          "internalType": "uint256",
          "name": "",
          "type": "uint256"
        }
      ],
      "stateMutability": "view",
      "type": "function"
    },
    {
      "inputs": [
        {
          "internalType": "address",
          "name": "newOwner",
          "type": "address"
        }
      ],
      "name": "transferOwnership",
      "outputs": [],
      "stateMutability": "nonpayable",
      "type": "function"
    },
    {
      "inputs": [],
      "name": "withdraw",
      "outputs": [],
      "stateMutability": "nonpayable",
      "type": "function"
    }
  ],
  "bytecode": "0x60e060405234801561001057600080fd5b5060405161515538038061515583398181016040528101906100329190610299565b61004e61004361013460201b60201c565b61013c60201b60201c565b85600760006101000a81548173ffffffffffffffffffffffffffffffffffffffff021916908373ffffffffffffffffffffffffffffffffffffffff16021790555084600860006101000a81548173ffffffffffffffffffffffffffffffffffffffff021916908373ffffffffffffffffffffffffffffffffffffffff16021790555083600960006101000a81548173ffffffffffffffffffffffffffffffffffffffff021916908373ffffffffffffffffffffffffffffffffffffffff16021790555082608081815250508160a081815250508060c08181525050505050505050610326565b600033905090565b60008060009054906101000a900473ffffffffffffffffffffffffffffffffffffffff169050816000806101000a81548173ffffffffffffffffffffffffffffffffffffffff021916908373ffffffffffffffffffffffffffffffffffffffff1602179055508173ffffffffffffffffffffffffffffffffffffffff168173ffffffffffffffffffffffffffffffffffffffff167f8be0079c531659141344cd1fd0a4f28419497f9722a3daafe3b4186f6b6457e060405160405180910390a35050565b600080fd5b600073ffffffffffffffffffffffffffffffffffffffff82169050919050565b600061023082610205565b9050919050565b61024081610225565b811461024b57600080fd5b50565b60008151905061025d81610237565b92915050565b6000819050919050565b61027681610263565b811461028157600080fd5b50565b6000815190506102938161026d565b92915050565b60008060008060008060c087890312156102b6576102b5610200565b5b60006102c489828a0161024e565b96505060206102d589828a0161024e565b95505060406102e689828a0161024e565b94505060606102f789828a01610284565b935050608061030889828a01610284565b92505060a061031989828a01610284565b9150509295509295509295565b60805160a05160c051614df26103636000396000818161212a0152612e280152600061243d0152600081816132be01526135ea0152614df26000f3fe608060405234801561001057600080fd5b50600436106101da5760003560e01c80638b2b80e211610104578063b43f070a116100a2578063e3e02ba711610071578063e3e02ba7146105b3578063e7eba4c2146105e3578063e8a6a92214610613578063f2fde38b1461062f576101da565b8063b43f070a14610505578063b702523b14610523578063b932c8b714610553578063c77c1ce614610583576101da565b806397705d60116100de57806397705d60146104575780639eaf666f14610475578063a58273c8146104a5578063a6801258146104d5576101da565b80638b2b80e2146104015780638da5cb5b1461041d5780638f93716f1461043b576101da565b8063406458f21161017c5780635f7d07041161014b5780635f7d07041461035e5780635fa71c2814610397578063715018a6146103c75780637b334154146103d1576101da565b8063406458f2146102cf57806352d3ea9d146102ed578063582256f11461030b5780635f1f658714610329576101da565b80631e6dffc2116101b85780631e6dffc2146102495780632076267b146102795780633270f4ad146102a95780633ccfd60b146102c5576101da565b80630eaf485c146101df57806318ad5c9a146101fd5780631b63a43c14610219575b600080fd5b6101e761064b565b6040516101f49190613787565b60405180910390f35b61021760048036038101906102129190613840565b610651565b005b610233600480360381019061022e9190613840565b610a10565b6040516102409190613787565b60405180910390f35b610263600480360381019061025e9190613880565b610b2e565b60405161027091906138c8565b60405180910390f35b610293600480360381019061028e9190613880565b610b88565b6040516102a09190613787565b60405180910390f35b6102c360048036038101906102be9190613a29565b610bd4565b005b6102cd611093565b005b6102d761156a565b6040516102e49190613787565b60405180910390f35b6102f5611570565b6040516103029190613787565b60405180910390f35b610313611576565b6040516103209190613787565b60405180910390f35b610343600480360381019061033e9190613ae4565b611620565b60405161035596959493929190613b9f565b60405180910390f35b61037860048036038101906103739190613ae4565b611814565b60405161038e9a99989796959493929190613c15565b60405180910390f35b6103b160048036038101906103ac9190613840565b611a2d565b6040516103be9190613787565b60405180910390f35b6103cf611a64565b005b6103eb60048036038101906103e69190613880565b611a78565b6040516103f891906138c8565b60405180910390f35b61041b60048036038101906104169190613cc6565b611a98565b005b61042561209d565b6040516104329190613d22565b60405180910390f35b61045560048036038101906104509190613880565b6120c6565b005b61045f612128565b60405161046c9190613787565b60405180910390f35b61048f600480360381019061048a9190613d3d565b61214c565b60405161049c91906138c8565b60405180910390f35b6104bf60048036038101906104ba9190613ae4565b612198565b6040516104cc9190613e8f565b60405180910390f35b6104ef60048036038101906104ea9190613880565b6123e5565b6040516104fc91906138c8565b60405180910390f35b61050d61243b565b60405161051a9190613787565b60405180910390f35b61053d60048036038101906105389190613eb1565b61245f565b60405161054a9190614025565b60405180910390f35b61056d60048036038101906105689190613ae4565b612782565b60405161057a9190613d22565b60405180910390f35b61059d60048036038101906105989190613880565b6127b5565b6040516105aa91906138c8565b60405180910390f35b6105cd60048036038101906105c89190613ae4565b612893565b6040516105da919061413e565b60405180910390f35b6105fd60048036038101906105f89190613880565b612b1a565b60405161060a9190614025565b60405180910390f35b61062d60048036038101906106289190614160565b612d48565b005b61064960048036038101906106449190613880565b613195565b005b600c5481565b600160003373ffffffffffffffffffffffffffffffffffffffff1673ffffffffffffffffffffffffffffffffffffffff16815260200190815260200160002060009054906101000a900460ff166106dd576040517f08c379a00000000000000000000000000000000000000000000000000000000081526004016106d490614253565b60405180910390fd5b6000600260008473ffffffffffffffffffffffffffffffffffffffff1673ffffffffffffffffffffffffffffffffffffffff16815260200190815260200160002060405180610120016040529081600082015481526020016001820160009054906101000a900473ffffffffffffffffffffffffffffffffffffffff1673ffffffffffffffffffffffffffffffffffffffff1673ffffffffffffffffffffffffffffffffffffffff16815260200160028201805461079a906142a2565b80601f01602080910402602001604051908101604052809291908181526020018280546107c6906142a2565b80156108135780601f106107e857610100808354040283529160200191610813565b820191906000526020600020905b8154815290600101906020018083116107f657829003601f168201915b5050505050815260200160038201604051806040016040529081600082015481526020016001820154815250508152602001600582018054610854906142a2565b80601f0160208091040260200160405190810160405280929190818152602001828054610880906142a2565b80156108cd5780601f106108a2576101008083540402835291602001916108cd565b820191906000526020600020905b8154815290600101906020018083116108b057829003601f168201915b5050505050815260200160068201548152602001600782015481526020016008820154815260200160098201548152505090506000821161091657806060015160000151610918565b815b600260008573ffffffffffffffffffffffffffffffffffffffff1673ffffffffffffffffffffffffffffffffffffffff168152602001908152602001600020600301600001600082825461096c9190614302565b92505081905550600860009054906101000a900473ffffffffffffffffffffffffffffffffffffffff1673ffffffffffffffffffffffffffffffffffffffff1663157ffc52846109ba613218565b856040518463ffffffff1660e01b81526004016109d993929190614336565b600060405180830381600087803b1580156109f357600080fd5b505af1158015610a07573d6000803e3d6000fd5b50505050505050565b6000600160003373ffffffffffffffffffffffffffffffffffffffff1673ffffffffffffffffffffffffffffffffffffffff16815260200190815260200160002060009054906101000a900460ff16610a9e576040517f08c379a0000000000000000000000000000000000000000000000000000000008152600401610a9590614253565b60405180910390fd5b600560008473ffffffffffffffffffffffffffffffffffffffff1673ffffffffffffffffffffffffffffffffffffffff16815260200190815260200160002060405180602001604052808481525090806001815401808255809150506001900390600052602060002001600090919091909150600082015181600001555050610b2683610b88565b905092915050565b600080600260008473ffffffffffffffffffffffffffffffffffffffff1673ffffffffffffffffffffffffffffffffffffffff1681526020019081526020016000206002018054610b7e906142a2565b9050119050919050565b6000600560008373ffffffffffffffffffffffffffffffffffffffff1673ffffffffffffffffffffffffffffffffffffffff168152602001908152602001600020805490509050919050565b600760009054906101000a900473ffffffffffffffffffffffffffffffffffffffff1673ffffffffffffffffffffffffffffffffffffffff16639497c6086003336040518363ffffffff1660e01b8152600401610c329291906143e4565b602060405180830381865afa158015610c4f573d6000803e3d6000fd5b505050506040513d601f19601f82011682018060405250810190610c739190614439565b610cb2576040517f08c379a0000000000000000000000000000000000000000000000000000000008152600401610ca9906144b2565b60405180910390fd5b6000600260003373ffffffffffffffffffffffffffffffffffffffff1673ffffffffffffffffffffffffffffffffffffffff16815260200190815260200160002060405180610120016040529081600082015481526020016001820160009054906101000a900473ffffffffffffffffffffffffffffffffffffffff1673ffffffffffffffffffffffffffffffffffffffff1673ffffffffffffffffffffffffffffffffffffffff168152602001600282018054610d6f906142a2565b80601f0160208091040260200160405190810160405280929190818152602001828054610d9b906142a2565b8015610de85780601f10610dbd57610100808354040283529160200191610de8565b820191906000526020600020905b815481529060010190602001808311610dcb57829003601f168201915b5050505050815260200160038201604051806040016040529081600082015481526020016001820154815250508152602001600582018054610e29906142a2565b80601f0160208091040260200160405190810160405280929190818152602001828054610e55906142a2565b8015610ea25780601f10610e7757610100808354040283529160200191610ea2565b820191906000526020600020905b815481529060010190602001808311610e8557829003601f168201915b505050505081526020016006820154815260200160078201548152602001600882015481526020016009820154815250509050610ede816132b0565b610f1d576040517f08c379a0000000000000000000000000000000000000000000000000000000008152600401610f149061451e565b60405180910390fd5b60006001600c54610f2e919061453e565b905060006040518060c001604052808381526020013373ffffffffffffffffffffffffffffffffffffffff16815260200188815260200187815260200186815260200185815250905080600460008481526020019081526020016000206000820151816000015560208201518160010160006101000a81548173ffffffffffffffffffffffffffffffffffffffff021916908373ffffffffffffffffffffffffffffffffffffffff1602179055506040820151816002019081610ff1919061471e565b506060820151816003019081611007919061471e565b50608082015181600401908161101d919061471e565b5060a08201518160050155905050600c600081548092919061103e906147f0565b919050555043600260003373ffffffffffffffffffffffffffffffffffffffff1673ffffffffffffffffffffffffffffffffffffffff1681526020019081526020016000206008018190555050505050505050565b600760009054906101000a900473ffffffffffffffffffffffffffffffffffffffff1673ffffffffffffffffffffffffffffffffffffffff16639497c6086003336040518363ffffffff1660e01b81526004016110f19291906143e4565b602060405180830381865afa15801561110e573d6000803e3d6000fd5b505050506040513d601f19601f820116820180604052508101906111329190614439565b611171576040517f08c379a000000000000000000000000000000000000000000000000000000000815260040161116890614884565b60405180910390fd5b6000600260003373ffffffffffffffffffffffffffffffffffffffff1673ffffffffffffffffffffffffffffffffffffffff16815260200190815260200160002060405180610120016040529081600082015481526020016001820160009054906101000a900473ffffffffffffffffffffffffffffffffffffffff1673ffffffffffffffffffffffffffffffffffffffff1673ffffffffffffffffffffffffffffffffffffffff16815260200160028201805461122e906142a2565b80601f016020809104026020016040519081016040528092919081815260200182805461125a906142a2565b80156112a75780601f1061127c576101008083540402835291602001916112a7565b820191906000526020600020905b81548152906001019060200180831161128a57829003601f168201915b50505050508152602001600382016040518060400160405290816000820154815260200160018201548152505081526020016005820180546112e8906142a2565b80601f0160208091040260200160405190810160405280929190818152602001828054611314906142a2565b80156113615780601f1061133657610100808354040283529160200191611361565b820191906000526020600020905b81548152906001019060200180831161134457829003601f168201915b50505050508152602001600682015481526020016007820154815260200160088201548152602001600982015481525050905060008160600151602001519050600860009054906101000a900473ffffffffffffffffffffffffffffffffffffffff1673ffffffffffffffffffffffffffffffffffffffff1663fbe85f06826040518263ffffffff1660e01b81526004016113fc9190613787565b602060405180830381865afa158015611419573d6000803e3d6000fd5b505050506040513d601f19601f8201168201806040525081019061143d9190614439565b61147c576040517f08c379a0000000000000000000000000000000000000000000000000000000008152600401611473906148f0565b60405180910390fd5b600260003373ffffffffffffffffffffffffffffffffffffffff1673ffffffffffffffffffffffffffffffffffffffff16815260200190815260200160002060030160010160008154809291906114d2906147f0565b9190505550600860009054906101000a900473ffffffffffffffffffffffffffffffffffffffff1673ffffffffffffffffffffffffffffffffffffffff1663f3fef3a333836040518363ffffffff1660e01b8152600401611534929190614910565b600060405180830381600087803b15801561154e57600080fd5b505af1158015611562573d6000803e3d6000fd5b505050505050565b600a5481565b600b5481565b6000600860009054906101000a900473ffffffffffffffffffffffffffffffffffffffff1673ffffffffffffffffffffffffffffffffffffffff1663d5ee3eb56115be613218565b6040518263ffffffff1660e01b81526004016115da9190613787565b602060405180830381865afa1580156115f7573d6000803e3d6000fd5b505050506040513d601f19601f8201168201806040525081019061161b919061496f565b905090565b60046020528060005260406000206000915090508060000154908060010160009054906101000a900473ffffffffffffffffffffffffffffffffffffffff169080600201805461166f906142a2565b80601f016020809104026020016040519081016040528092919081815260200182805461169b906142a2565b80156116e85780601f106116bd576101008083540402835291602001916116e8565b820191906000526020600020905b8154815290600101906020018083116116cb57829003601f168201915b5050505050908060030180546116fd906142a2565b80601f0160208091040260200160405190810160405280929190818152602001828054611729906142a2565b80156117765780601f1061174b57610100808354040283529160200191611776565b820191906000526020600020905b81548152906001019060200180831161175957829003601f168201915b50505050509080600401805461178b906142a2565b80601f01602080910402602001604051908101604052809291908181526020018280546117b7906142a2565b80156118045780601f106117d957610100808354040283529160200191611804565b820191906000526020600020905b8154815290600101906020018083116117e757829003601f168201915b5050505050908060050154905086565b60036020528060005260406000206000915090508060000154908060010154908060020160009054906101000a900473ffffffffffffffffffffffffffffffffffffffff1690806003018054611869906142a2565b80601f0160208091040260200160405190810160405280929190818152602001828054611895906142a2565b80156118e25780601f106118b7576101008083540402835291602001916118e2565b820191906000526020600020905b8154815290600101906020018083116118c557829003601f168201915b5050505050908060040180546118f7906142a2565b80601f0160208091040260200160405190810160405280929190818152602001828054611923906142a2565b80156119705780601f1061194557610100808354040283529160200191611970565b820191906000526020600020905b81548152906001019060200180831161195357829003601f168201915b505050505090806005018054611985906142a2565b80601f01602080910402602001604051908101604052809291908181526020018280546119b1906142a2565b80156119fe5780601f106119d3576101008083540402835291602001916119fe565b820191906000526020600020905b8154815290600101906020018083116119e157829003601f168201915b5050505050908060060154908060070160009054906101000a900460ff1690806008015490806009015490508a565b60056020528160005260406000208181548110611a4957600080fd5b90600052602060002001600091509150508060000154905081565b611a6c613301565b611a76600061337f565b565b60016020528060005260406000206000915054906101000a900460ff1681565b600760009054906101000a900473ffffffffffffffffffffffffffffffffffffffff1673ffffffffffffffffffffffffffffffffffffffff16639497c6086008336040518363ffffffff1660e01b8152600401611af69291906143e4565b602060405180830381865afa158015611b13573d6000803e3d6000fd5b505050506040513d601f19601f82011682018060405250810190611b379190614439565b611b76576040517f08c379a0000000000000000000000000000000000000000000000000000000008152600401611b6d906149e8565b60405180910390fd5b6000600360008481526020019081526020016000206040518061014001604052908160008201548152602001600182015481526020016002820160009054906101000a900473ffffffffffffffffffffffffffffffffffffffff1673ffffffffffffffffffffffffffffffffffffffff1673ffffffffffffffffffffffffffffffffffffffff168152602001600382018054611c11906142a2565b80601f0160208091040260200160405190810160405280929190818152602001828054611c3d906142a2565b8015611c8a5780601f10611c5f57610100808354040283529160200191611c8a565b820191906000526020600020905b815481529060010190602001808311611c6d57829003601f168201915b50505050508152602001600482018054611ca3906142a2565b80601f0160208091040260200160405190810160405280929190818152602001828054611ccf906142a2565b8015611d1c5780601f10611cf157610100808354040283529160200191611d1c565b820191906000526020600020905b815481529060010190602001808311611cff57829003601f168201915b50505050508152602001600582018054611d35906142a2565b80601f0160208091040260200160405190810160405280929190818152602001828054611d61906142a2565b8015611dae5780601f10611d8357610100808354040283529160200191611dae565b820191906000526020600020905b815481529060010190602001808311611d9157829003601f168201915b50505050508152602001600682015481526020016007820160009054906101000a900460ff161515151581526020016008820154815260200160098201548152505090508060e001518015611e0d5750611e06613218565b8160200151145b611e4c576040517f08c379a0000000000000000000000000000000000000000000000000000000008152600401611e4390614a54565b60405180910390fd5b60018160c001818151611e5f919061453e565b915081815250508060036000858152602001908152602001600020600082015181600001556020820151816001015560408201518160020160006101000a81548173ffffffffffffffffffffffffffffffffffffffff021916908373ffffffffffffffffffffffffffffffffffffffff1602179055506060820151816003019081611eea919061471e565b506080820151816004019081611f00919061471e565b5060a0820151816005019081611f16919061471e565b5060c0820151816006015560e08201518160070160006101000a81548160ff021916908315150217905550610100820151816008015561012082015181600901559050506000600960009054906101000a900473ffffffffffffffffffffffffffffffffffffffff1673ffffffffffffffffffffffffffffffffffffffff166384f0f65f6040518163ffffffff1660e01b8152600401602060405180830381865afa158015611fc9573d6000803e3d6000fd5b505050506040513d601f19601f82011682018060405250810190611fed9190614a89565b8260c001511015905080156120065761200582613443565b5b600960009054906101000a900473ffffffffffffffffffffffffffffffffffffffff1673ffffffffffffffffffffffffffffffffffffffff1663e5899bc38385336040518463ffffffff1660e01b815260040161206593929190614ab6565b600060405180830381600087803b15801561207f57600080fd5b505af1158015612093573d6000803e3d6000fd5b5050505050505050565b60008060009054906101000a900473ffffffffffffffffffffffffffffffffffffffff16905090565b6120ce613301565b60018060008373ffffffffffffffffffffffffffffffffffffffff1673ffffffffffffffffffffffffffffffffffffffff16815260200190815260200160002060006101000a81548160ff02191690831515021790555050565b7f000000000000000000000000000000000000000000000000000000000000000081565b60006005831161215f5760019050612191565b60006121876001612179868861357290919063ffffffff16565b61358890919063ffffffff16565b9050808310159150505b9392505050565b6121a0613635565b600460008381526020019081526020016000206040518060c0016040529081600082015481526020016001820160009054906101000a900473ffffffffffffffffffffffffffffffffffffffff1673ffffffffffffffffffffffffffffffffffffffff1673ffffffffffffffffffffffffffffffffffffffff16815260200160028201805461222e906142a2565b80601f016020809104026020016040519081016040528092919081815260200182805461225a906142a2565b80156122a75780601f1061227c576101008083540402835291602001916122a7565b820191906000526020600020905b81548152906001019060200180831161228a57829003601f168201915b505050505081526020016003820180546122c0906142a2565b80601f01602080910402602001604051908101604052809291908181526020018280546122ec906142a2565b80156123395780601f1061230e57610100808354040283529160200191612339565b820191906000526020600020905b81548152906001019060200180831161231c57829003601f168201915b50505050508152602001600482018054612352906142a2565b80601f016020809104026020016040519081016040528092919081815260200182805461237e906142a2565b80156123cb5780601f106123a0576101008083540402835291602001916123cb565b820191906000526020600020905b8154815290600101906020018083116123ae57829003601f168201915b505050505081526020016005820154815250509050919050565b6000600160008373ffffffffffffffffffffffffffffffffffffffff1673ffffffffffffffffffffffffffffffffffffffff16815260200190815260200160002060009054906101000a900460ff169050919050565b7f000000000000000000000000000000000000000000000000000000000000000081565b612467613681565b60006001600760009054906101000a900473ffffffffffffffffffffffffffffffffffffffff1673ffffffffffffffffffffffffffffffffffffffff16631eb2c12060036040518263ffffffff1660e01b81526004016124c79190614afb565b602060405180830381865afa1580156124e4573d6000803e3d6000fd5b505050506040513d601f19601f820116820180604052508101906125089190614a89565b612512919061453e565b905060006040518061012001604052808381526020013373ffffffffffffffffffffffffffffffffffffffff168152602001868152602001604051806040016040528060008152602001612564613218565b815250815260200185815260200160008152602001600081526020016000815260200143815250905080600260003373ffffffffffffffffffffffffffffffffffffffff1673ffffffffffffffffffffffffffffffffffffffff1681526020019081526020016000206000820151816000015560208201518160010160006101000a81548173ffffffffffffffffffffffffffffffffffffffff021916908373ffffffffffffffffffffffffffffffffffffffff1602179055506040820151816002019081612633919061471e565b50606082015181600301600082015181600001556020820151816001015550506080820151816005019081612668919061471e565b5060a0820151816006015560c0820151816007015560e082015181600801556101008201518160090155905050336006600084815260200190815260200160002060006101000a81548173ffffffffffffffffffffffffffffffffffffffff021916908373ffffffffffffffffffffffffffffffffffffffff160217905550600760009054906101000a900473ffffffffffffffffffffffffffffffffffffffff1673ffffffffffffffffffffffffffffffffffffffff16639c3eead93360036040518363ffffffff1660e01b8152600401612745929190614b16565b600060405180830381600087803b15801561275f57600080fd5b505af1158015612773573d6000803e3d6000fd5b50505050809250505092915050565b60066020528060005260406000206000915054906101000a900473ffffffffffffffffffffffffffffffffffffffff1681565b6000806127c183612b1a565b905060008160000151116127d957600091505061288e565b61288a600b54600760009054906101000a900473ffffffffffffffffffffffffffffffffffffffff1673ffffffffffffffffffffffffffffffffffffffff16631eb2c12060036040518263ffffffff1660e01b815260040161283b9190614afb565b602060405180830381865afa158015612858573d6000803e3d6000fd5b505050506040513d601f19601f8201168201806040525081019061287c9190614a89565b83606001516000015161214c565b9150505b919050565b61289b6136e9565b600360008381526020019081526020016000206040518061014001604052908160008201548152602001600182015481526020016002820160009054906101000a900473ffffffffffffffffffffffffffffffffffffffff1673ffffffffffffffffffffffffffffffffffffffff1673ffffffffffffffffffffffffffffffffffffffff168152602001600382018054612934906142a2565b80601f0160208091040260200160405190810160405280929190818152602001828054612960906142a2565b80156129ad5780601f10612982576101008083540402835291602001916129ad565b820191906000526020600020905b81548152906001019060200180831161299057829003601f168201915b505050505081526020016004820180546129c6906142a2565b80601f01602080910402602001604051908101604052809291908181526020018280546129f2906142a2565b8015612a3f5780601f10612a1457610100808354040283529160200191612a3f565b820191906000526020600020905b815481529060010190602001808311612a2257829003601f168201915b50505050508152602001600582018054612a58906142a2565b80601f0160208091040260200160405190810160405280929190818152602001828054612a84906142a2565b8015612ad15780601f10612aa657610100808354040283529160200191612ad1565b820191906000526020600020905b815481529060010190602001808311612ab457829003601f168201915b50505050508152602001600682015481526020016007820160009054906101000a900460ff16151515158152602001600882015481526020016009820154815250509050919050565b612b22613681565b600260008373ffffffffffffffffffffffffffffffffffffffff1673ffffffffffffffffffffffffffffffffffffffff16815260200190815260200160002060405180610120016040529081600082015481526020016001820160009054906101000a900473ffffffffffffffffffffffffffffffffffffffff1673ffffffffffffffffffffffffffffffffffffffff1673ffffffffffffffffffffffffffffffffffffffff168152602001600282018054612bdd906142a2565b80601f0160208091040260200160405190810160405280929190818152602001828054612c09906142a2565b8015612c565780601f10612c2b57610100808354040283529160200191612c56565b820191906000526020600020905b815481529060010190602001808311612c3957829003601f168201915b5050505050815260200160038201604051806040016040529081600082015481526020016001820154815250508152602001600582018054612c97906142a2565b80601f0160208091040260200160405190810160405280929190818152602001828054612cc3906142a2565b8015612d105780601f10612ce557610100808354040283529160200191612d10565b820191906000526020600020905b815481529060010190602001808311612cf357829003601f168201915b505050505081526020016006820154815260200160078201548152602001600882015481526020016009820154815250509050919050565b600760009054906101000a900473ffffffffffffffffffffffffffffffffffffffff1673ffffffffffffffffffffffffffffffffffffffff16639497c6086003336040518363ffffffff1660e01b8152600401612da69291906143e4565b602060405180830381865afa158015612dc3573d6000803e3d6000fd5b505050506040513d601f19601f82011682018060405250810190612de79190614439565b612e26576040517f08c379a0000000000000000000000000000000000000000000000000000000008152600401612e1d906144b2565b60405180910390fd5b7f0000000000000000000000000000000000000000000000000000000000000000612e4f611576565b11612e8f576040517f08c379a0000000000000000000000000000000000000000000000000000000008152600401612e8690614bb1565b60405180910390fd5b612e983361359e565b612ed7576040517f08c379a0000000000000000000000000000000000000000000000000000000008152600401612ece9061451e565b60405180910390fd5b6000600260003373ffffffffffffffffffffffffffffffffffffffff1673ffffffffffffffffffffffffffffffffffffffff168152602001908152602001600020905060006001600a54612f2b919061453e565b90506000604051806101400160405280838152602001612f49613218565b81526020013373ffffffffffffffffffffffffffffffffffffffff16815260200187815260200186815260200185815260200160008152602001600115158152602001600081526020014381525090508060036000848152602001908152602001600020600082015181600001556020820151816001015560408201518160020160006101000a81548173ffffffffffffffffffffffffffffffffffffffff021916908373ffffffffffffffffffffffffffffffffffffffff160217905550606082015181600301908161301d919061471e565b506080820151816004019081613033919061471e565b5060a0820151816005019081613049919061471e565b5060c0820151816006015560e08201518160070160006101000a81548160ff02191690831515021790555061010082015181600801556101208201518160090155905050600a60008154809291906130a0906147f0565b9190505550600b60008154809291906130b8906147f0565b91905055508260060160008154809291906130d2906147f0565b91905055504383600701819055508260030160000160008154809291906130f8906147f0565b9190505550600860009054906101000a900473ffffffffffffffffffffffffffffffffffffffff1673ffffffffffffffffffffffffffffffffffffffff166352b8d3ed3360016040518363ffffffff1660e01b815260040161315b929190614c0c565b600060405180830381600087803b15801561317557600080fd5b505af1158015613189573d6000803e3d6000fd5b50505050505050505050565b61319d613301565b600073ffffffffffffffffffffffffffffffffffffffff168173ffffffffffffffffffffffffffffffffffffffff160361320c576040517f08c379a000000000000000000000000000000000000000000000000000000000815260040161320390614ca7565b60405180910390fd5b6132158161337f565b50565b6000600860009054906101000a900473ffffffffffffffffffffffffffffffffffffffff1673ffffffffffffffffffffffffffffffffffffffff1663ed0df79e6040518163ffffffff1660e01b8152600401602060405180830381865afa158015613287573d6000803e3d6000fd5b505050506040513d601f19601f820116820180604052508101906132ab9190614a89565b905090565b6000808260e00151905060007f0000000000000000000000000000000000000000000000000000000000000000826132e8919061453e565b4311905080806132f85750600082145b92505050919050565b61330961362d565b73ffffffffffffffffffffffffffffffffffffffff1661332761209d565b73ffffffffffffffffffffffffffffffffffffffff161461337d576040517f08c379a000000000000000000000000000000000000000000000000000000000815260040161337490614d13565b60405180910390fd5b565b60008060009054906101000a900473ffffffffffffffffffffffffffffffffffffffff169050816000806101000a81548173ffffffffffffffffffffffffffffffffffffffff021916908373ffffffffffffffffffffffffffffffffffffffff1602179055508173ffffffffffffffffffffffffffffffffffffffff168173ffffffffffffffffffffffffffffffffffffffff167f8be0079c531659141344cd1fd0a4f28419497f9722a3daafe3b4186f6b6457e060405160405180910390a35050565b600b600081548092919061345690614d33565b919050555060008160e00190151590811515815250504381610100018181525050806003600083600001518152602001908152602001600020600082015181600001556020820151816001015560408201518160020160006101000a81548173ffffffffffffffffffffffffffffffffffffffff021916908373ffffffffffffffffffffffffffffffffffffffff16021790555060608201518160030190816134ff919061471e565b506080820151816004019081613515919061471e565b5060a082015181600501908161352b919061471e565b5060c0820151816006015560e08201518160070160006101000a81548160ff0219169083151502179055506101008201518160080155610120820151816009015590505050565b600081836135809190614d8b565b905092915050565b60008183613596919061453e565b905092915050565b600080600260008473ffffffffffffffffffffffffffffffffffffffff1673ffffffffffffffffffffffffffffffffffffffff16815260200190815260200160002060070154905060007f000000000000000000000000000000000000000000000000000000000000000082613614919061453e565b4311905080806136245750600082145b92505050919050565b600033905090565b6040518060c0016040528060008152602001600073ffffffffffffffffffffffffffffffffffffffff168152602001606081526020016060815260200160608152602001600081525090565b60405180610120016040528060008152602001600073ffffffffffffffffffffffffffffffffffffffff168152602001606081526020016136c0613754565b815260200160608152602001600081526020016000815260200160008152602001600081525090565b6040518061014001604052806000815260200160008152602001600073ffffffffffffffffffffffffffffffffffffffff1681526020016060815260200160608152602001606081526020016000815260200160001515815260200160008152602001600081525090565b604051806040016040528060008152602001600081525090565b6000819050919050565b6137818161376e565b82525050565b600060208201905061379c6000830184613778565b92915050565b6000604051905090565b600080fd5b600080fd5b600073ffffffffffffffffffffffffffffffffffffffff82169050919050565b60006137e1826137b6565b9050919050565b6137f1816137d6565b81146137fc57600080fd5b50565b60008135905061380e816137e8565b92915050565b61381d8161376e565b811461382857600080fd5b50565b60008135905061383a81613814565b92915050565b60008060408385031215613857576138566137ac565b5b6000613865858286016137ff565b92505060206138768582860161382b565b9150509250929050565b600060208284031215613896576138956137ac565b5b60006138a4848285016137ff565b91505092915050565b60008115159050919050565b6138c2816138ad565b82525050565b60006020820190506138dd60008301846138b9565b92915050565b600080fd5b600080fd5b6000601f19601f8301169050919050565b7f4e487b7100000000000000000000000000000000000000000000000000000000600052604160045260246000fd5b613936826138ed565b810181811067ffffffffffffffff82111715613955576139546138fe565b5b80604052505050565b60006139686137a2565b9050613974828261392d565b919050565b600067ffffffffffffffff821115613994576139936138fe565b5b61399d826138ed565b9050602081019050919050565b82818337600083830152505050565b60006139cc6139c784613979565b61395e565b9050828152602081018484840111156139e8576139e76138e8565b5b6139f38482856139aa565b509392505050565b600082601f830112613a1057613a0f6138e3565b5b8135613a208482602086016139b9565b91505092915050565b60008060008060808587031215613a4357613a426137ac565b5b600085013567ffffffffffffffff811115613a6157613a606137b1565b5b613a6d878288016139fb565b945050602085013567ffffffffffffffff811115613a8e57613a8d6137b1565b5b613a9a878288016139fb565b935050604085013567ffffffffffffffff811115613abb57613aba6137b1565b5b613ac7878288016139fb565b9250506060613ad88782880161382b565b91505092959194509250565b600060208284031215613afa57613af96137ac565b5b6000613b088482850161382b565b91505092915050565b613b1a816137d6565b82525050565b600081519050919050565b600082825260208201905092915050565b60005b83811015613b5a578082015181840152602081019050613b3f565b60008484015250505050565b6000613b7182613b20565b613b7b8185613b2b565b9350613b8b818560208601613b3c565b613b94816138ed565b840191505092915050565b600060c082019050613bb46000830189613778565b613bc16020830188613b11565b8181036040830152613bd38187613b66565b90508181036060830152613be78186613b66565b90508181036080830152613bfb8185613b66565b9050613c0a60a0830184613778565b979650505050505050565b600061014082019050613c2b600083018d613778565b613c38602083018c613778565b613c45604083018b613b11565b8181036060830152613c57818a613b66565b90508181036080830152613c6b8189613b66565b905081810360a0830152613c7f8188613b66565b9050613c8e60c0830187613778565b613c9b60e08301866138b9565b613ca9610100830185613778565b613cb7610120830184613778565b9b9a5050505050505050505050565b60008060408385031215613cdd57613cdc6137ac565b5b6000613ceb8582860161382b565b925050602083013567ffffffffffffffff811115613d0c57613d0b6137b1565b5b613d18858286016139fb565b9150509250929050565b6000602082019050613d376000830184613b11565b92915050565b600080600060608486031215613d5657613d556137ac565b5b6000613d648682870161382b565b9350506020613d758682870161382b565b9250506040613d868682870161382b565b9150509250925092565b613d998161376e565b82525050565b613da8816137d6565b82525050565b600082825260208201905092915050565b6000613dca82613b20565b613dd48185613dae565b9350613de4818560208601613b3c565b613ded816138ed565b840191505092915050565b600060c083016000830151613e106000860182613d90565b506020830151613e236020860182613d9f565b5060408301518482036040860152613e3b8282613dbf565b91505060608301518482036060860152613e558282613dbf565b91505060808301518482036080860152613e6f8282613dbf565b91505060a0830151613e8460a0860182613d90565b508091505092915050565b60006020820190508181036000830152613ea98184613df8565b905092915050565b60008060408385031215613ec857613ec76137ac565b5b600083013567ffffffffffffffff811115613ee657613ee56137b1565b5b613ef2858286016139fb565b925050602083013567ffffffffffffffff811115613f1357613f126137b1565b5b613f1f858286016139fb565b9150509250929050565b604082016000820151613f3f6000850182613d90565b506020820151613f526020850182613d90565b50505050565b600061014083016000830151613f716000860182613d90565b506020830151613f846020860182613d9f565b5060408301518482036040860152613f9c8282613dbf565b9150506060830151613fb16060860182613f29565b50608083015184820360a0860152613fc98282613dbf565b91505060a0830151613fde60c0860182613d90565b5060c0830151613ff160e0860182613d90565b5060e0830151614005610100860182613d90565b5061010083015161401a610120860182613d90565b508091505092915050565b6000602082019050818103600083015261403f8184613f58565b905092915050565b614050816138ad565b82525050565b60006101408301600083015161406f6000860182613d90565b5060208301516140826020860182613d90565b5060408301516140956040860182613d9f565b50606083015184820360608601526140ad8282613dbf565b915050608083015184820360808601526140c78282613dbf565b91505060a083015184820360a08601526140e18282613dbf565b91505060c08301516140f660c0860182613d90565b5060e083015161410960e0860182614047565b5061010083015161411e610100860182613d90565b50610120830151614133610120860182613d90565b508091505092915050565b600060208201905081810360008301526141588184614056565b905092915050565b600080600060608486031215614179576141786137ac565b5b600084013567ffffffffffffffff811115614197576141966137b1565b5b6141a3868287016139fb565b935050602084013567ffffffffffffffff8111156141c4576141c36137b1565b5b6141d0868287016139fb565b925050604084013567ffffffffffffffff8111156141f1576141f06137b1565b5b6141fd868287016139fb565b9150509250925092565b7f4e6f7420616c6c6f7765642063616c6c65720000000000000000000000000000600082015250565b600061423d601283613b2b565b915061424882614207565b602082019050919050565b6000602082019050818103600083015261426c81614230565b9050919050565b7f4e487b7100000000000000000000000000000000000000000000000000000000600052602260045260246000fd5b600060028204905060018216806142ba57607f821691505b6020821081036142cd576142cc614273565b5b50919050565b7f4e487b7100000000000000000000000000000000000000000000000000000000600052601160045260246000fd5b600061430d8261376e565b91506143188361376e565b92508282039050818111156143305761432f6142d3565b5b92915050565b600060608201905061434b6000830186613b11565b6143586020830185613778565b6143656040830184613778565b949350505050565b7f4e487b7100000000000000000000000000000000000000000000000000000000600052602160045260246000fd5b600a81106143ad576143ac61436d565b5b50565b60008190506143be8261439c565b919050565b60006143ce826143b0565b9050919050565b6143de816143c3565b82525050565b60006040820190506143f960008301856143d5565b6144066020830184613b11565b9392505050565b614416816138ad565b811461442157600080fd5b50565b6000815190506144338161440d565b92915050565b60006020828403121561444f5761444e6137ac565b5b600061445d84828501614424565b91505092915050565b7f4f6e6c7920616c6c6f77656420746f2072657365617263686572730000000000600082015250565b600061449c601b83613b2b565b91506144a782614466565b602082019050919050565b600060208201905081810360008301526144cb8161448f565b9050919050565b7f43616e2774207075626c69736820796574000000000000000000000000000000600082015250565b6000614508601183613b2b565b9150614513826144d2565b602082019050919050565b60006020820190508181036000830152614537816144fb565b9050919050565b60006145498261376e565b91506145548361376e565b925082820190508082111561456c5761456b6142d3565b5b92915050565b60008190508160005260206000209050919050565b60006020601f8301049050919050565b600082821b905092915050565b6000600883026145d47fffffffffffffffffffffffffffffffffffffffffffffffffffffffffffffffff82614597565b6145de8683614597565b95508019841693508086168417925050509392505050565b6000819050919050565b600061461b6146166146118461376e565b6145f6565b61376e565b9050919050565b6000819050919050565b61463583614600565b61464961464182614622565b8484546145a4565b825550505050565b600090565b61465e614651565b61466981848461462c565b505050565b5b8181101561468d57614682600082614656565b60018101905061466f565b5050565b601f8211156146d2576146a381614572565b6146ac84614587565b810160208510156146bb578190505b6146cf6146c785614587565b83018261466e565b50505b505050565b600082821c905092915050565b60006146f5600019846008026146d7565b1980831691505092915050565b600061470e83836146e4565b9150826002028217905092915050565b61472782613b20565b67ffffffffffffffff8111156147405761473f6138fe565b5b61474a82546142a2565b614755828285614691565b600060209050601f8311600181146147885760008415614776578287015190505b6147808582614702565b8655506147e8565b601f19841661479686614572565b60005b828110156147be57848901518255600182019150602085019450602081019050614799565b868310156147db57848901516147d7601f8916826146e4565b8355505b6001600288020188555050505b505050505050565b60006147fb8261376e565b91507fffffffffffffffffffffffffffffffffffffffffffffffffffffffffffffffff820361482d5761482c6142d3565b5b600182019050919050565b7f506f6f6c206f6e6c7920746f2072657365617263686572730000000000000000600082015250565b600061486e601883613b2b565b915061487982614838565b602082019050919050565b6000602082019050818103600083015261489d81614861565b9050919050565b7f43616e277420617070726f766520776974686472617700000000000000000000600082015250565b60006148da601683613b2b565b91506148e5826148a4565b602082019050919050565b60006020820190508181036000830152614909816148cd565b9050919050565b60006040820190506149256000830185613b11565b6149326020830184613778565b9392505050565b6000819050919050565b61494c81614939565b811461495757600080fd5b50565b60008151905061496981614943565b92915050565b600060208284031215614985576149846137ac565b5b60006149938482850161495a565b91505092915050565b7f506c656173652072656769737465722061732076616c696461746f7200000000600082015250565b60006149d2601c83613b2b565b91506149dd8261499c565b602082019050919050565b60006020820190508181036000830152614a01816149c5565b9050919050565b7f54686973207265736561726368206973206e6f742056414c4944000000000000600082015250565b6000614a3e601a83613b2b565b9150614a4982614a08565b602082019050919050565b60006020820190508181036000830152614a6d81614a31565b9050919050565b600081519050614a8381613814565b92915050565b600060208284031215614a9f57614a9e6137ac565b5b6000614aad84828501614a74565b91505092915050565b60006060820190508181036000830152614ad08186614056565b90508181036020830152614ae48185613b66565b9050614af36040830184613b11565b949350505050565b6000602082019050614b1060008301846143d5565b92915050565b6000604082019050614b2b6000830185613b11565b614b3860208301846143d5565b9392505050565b7f5761697420756e74696c206e6578742065726120746f2061646420726573656160008201527f7263680000000000000000000000000000000000000000000000000000000000602082015250565b6000614b9b602383613b2b565b9150614ba682614b3f565b604082019050919050565b60006020820190508181036000830152614bca81614b8e565b9050919050565b6000819050919050565b6000614bf6614bf1614bec84614bd1565b6145f6565b61376e565b9050919050565b614c0681614bdb565b82525050565b6000604082019050614c216000830185613b11565b614c2e6020830184614bfd565b9392505050565b7f4f776e61626c653a206e6577206f776e657220697320746865207a65726f206160008201527f6464726573730000000000000000000000000000000000000000000000000000602082015250565b6000614c91602683613b2b565b9150614c9c82614c35565b604082019050919050565b60006020820190508181036000830152614cc081614c84565b9050919050565b7f4f776e61626c653a2063616c6c6572206973206e6f7420746865206f776e6572600082015250565b6000614cfd602083613b2b565b9150614d0882614cc7565b602082019050919050565b60006020820190508181036000830152614d2c81614cf0565b9050919050565b6000614d3e8261376e565b915060008203614d5157614d506142d3565b5b600182039050919050565b7f4e487b7100000000000000000000000000000000000000000000000000000000600052601260045260246000fd5b6000614d968261376e565b9150614da18361376e565b925082614db157614db0614d5c565b5b82820490509291505056fea264697066735822122072b10a23a2ae64c0191f8396b66965484daac2114568a640fb96dca69fb7d79864736f6c634300081b0033",
  "linkReferences": {},
  "deployedLinkReferences": {}
}