{
  "_format": "hh-sol-artifact-1",
  "contractName": "ResearcherRules",
  "sourceName": "contracts/ResearcherRules.sol",
  "abi": [
    {
      "inputs": [
        {
          "internalType": "uint256",
          "name": "timeBetweenWorks_",
          "type": "uint256"
        },
        {
          "internalType": "uint256",
          "name": "maxPenalties_",
          "type": "uint256"
        },
        {
          "internalType": "uint256",
          "name": "securityBlocksToValidatorAnalysis",
          "type": "uint256"
        }
      ],
      "stateMutability": "nonpayable",
      "type": "constructor"
    },
    {
      "anonymous": false,
      "inputs": [
        {
          "indexed": true,
          "internalType": "address",
          "name": "previousOwner",
          "type": "address"
        },
        {
          "indexed": true,
          "internalType": "address",
          "name": "newOwner",
          "type": "address"
        }
      ],
      "name": "OwnershipTransferred",
      "type": "event"
    },
    {
      "inputs": [],
      "name": "MAX_PENALTIES",
      "outputs": [
        {
          "internalType": "uint256",
          "name": "",
          "type": "uint256"
        }
      ],
      "stateMutability": "view",
      "type": "function"
    },
    {
      "inputs": [],
      "name": "SECURITY_BLOCKS_TO_VALIDATOR_ANALYSIS",
      "outputs": [
        {
          "internalType": "uint256",
          "name": "",
          "type": "uint256"
        }
      ],
      "stateMutability": "view",
      "type": "function"
    },
    {
      "inputs": [
        {
          "internalType": "string",
          "name": "title",
          "type": "string"
        },
        {
          "internalType": "string",
          "name": "unit",
          "type": "string"
        },
        {
          "internalType": "string",
          "name": "justification",
          "type": "string"
        },
        {
          "internalType": "uint256",
          "name": "carbonImpact",
          "type": "uint256"
        }
      ],
      "name": "addCalculatorItem",
      "outputs": [],
      "stateMutability": "nonpayable",
      "type": "function"
    },
    {
      "inputs": [
        {
          "internalType": "string",
          "name": "title",
          "type": "string"
        },
        {
          "internalType": "string",
          "name": "research",
          "type": "string"
        },
        {
          "internalType": "string",
          "name": "projectURL",
          "type": "string"
        }
      ],
      "name": "addEvaluationMethod",
      "outputs": [],
      "stateMutability": "nonpayable",
      "type": "function"
    },
    {
      "inputs": [
        {
          "internalType": "address",
          "name": "addr",
          "type": "address"
        },
        {
          "internalType": "uint256",
          "name": "researchId",
          "type": "uint256"
        }
      ],
      "name": "addPenalty",
      "outputs": [
        {
          "internalType": "uint256",
          "name": "",
          "type": "uint256"
        }
      ],
      "stateMutability": "nonpayable",
      "type": "function"
    },
    {
      "inputs": [
        {
          "internalType": "string",
          "name": "title",
          "type": "string"
        },
        {
          "internalType": "string",
          "name": "thesis",
          "type": "string"
        },
        {
          "internalType": "string",
          "name": "file",
          "type": "string"
        }
      ],
      "name": "addResearch",
      "outputs": [],
      "stateMutability": "nonpayable",
      "type": "function"
    },
    {
      "inputs": [
        {
          "internalType": "uint256",
          "name": "id",
          "type": "uint256"
        },
        {
          "internalType": "string",
          "name": "justification",
          "type": "string"
        }
      ],
      "name": "addResearchValidation",
      "outputs": [],
      "stateMutability": "nonpayable",
      "type": "function"
    },
    {
      "inputs": [
        {
          "internalType": "string",
          "name": "name",
          "type": "string"
        },
        {
          "internalType": "string",
          "name": "proofPhoto",
          "type": "string"
        }
      ],
      "name": "addResearcher",
      "outputs": [],
      "stateMutability": "nonpayable",
      "type": "function"
    },
    {
      "inputs": [
        {
          "internalType": "address",
          "name": "",
          "type": "address"
        }
      ],
      "name": "allowedCallers",
      "outputs": [
        {
          "internalType": "bool",
          "name": "",
          "type": "bool"
        }
      ],
      "stateMutability": "view",
      "type": "function"
    },
    {
      "inputs": [
        {
          "internalType": "uint256",
          "name": "",
          "type": "uint256"
        }
      ],
      "name": "calculatorItems",
      "outputs": [
        {
          "internalType": "uint256",
          "name": "id",
          "type": "uint256"
        },
        {
          "internalType": "address",
          "name": "createdBy",
          "type": "address"
        },
        {
          "internalType": "string",
          "name": "title",
          "type": "string"
        },
        {
          "internalType": "string",
          "name": "unit",
          "type": "string"
        },
        {
          "internalType": "string",
          "name": "justification",
          "type": "string"
        },
        {
          "internalType": "uint256",
          "name": "carbonImpact",
          "type": "uint256"
        }
      ],
      "stateMutability": "view",
      "type": "function"
    },
    {
      "inputs": [],
      "name": "calculatorItemsCount",
      "outputs": [
        {
          "internalType": "uint256",
          "name": "",
          "type": "uint256"
        }
      ],
      "stateMutability": "view",
      "type": "function"
    },
    {
      "inputs": [
        {
          "internalType": "uint256",
          "name": "totalLevels",
          "type": "uint256"
        },
        {
          "internalType": "uint256",
          "name": "totalUsers",
          "type": "uint256"
        },
        {
          "internalType": "uint256",
          "name": "userLevels",
          "type": "uint256"
        }
      ],
      "name": "canInvite",
      "outputs": [
        {
          "internalType": "bool",
          "name": "",
          "type": "bool"
        }
      ],
      "stateMutability": "pure",
      "type": "function"
    },
    {
      "inputs": [
        {
          "internalType": "address",
          "name": "addr",
          "type": "address"
        }
      ],
      "name": "canSendInvite",
      "outputs": [
        {
          "internalType": "bool",
          "name": "",
          "type": "bool"
        }
      ],
      "stateMutability": "view",
      "type": "function"
    },
    {
      "inputs": [
        {
          "internalType": "uint256",
          "name": "",
          "type": "uint256"
        }
      ],
      "name": "evaluationMethods",
      "outputs": [
        {
          "internalType": "uint256",
          "name": "id",
          "type": "uint256"
        },
        {
          "internalType": "address",
          "name": "createdBy",
          "type": "address"
        },
        {
          "internalType": "string",
          "name": "title",
          "type": "string"
        },
        {
          "internalType": "string",
          "name": "research",
          "type": "string"
        },
        {
          "internalType": "string",
          "name": "projectURL",
          "type": "string"
        }
      ],
      "stateMutability": "view",
      "type": "function"
    },
    {
      "inputs": [],
      "name": "evaluationMethodsCount",
      "outputs": [
        {
          "internalType": "uint256",
          "name": "",
          "type": "uint256"
        }
      ],
      "stateMutability": "view",
      "type": "function"
    },
    {
      "inputs": [
        {
          "internalType": "uint256",
          "name": "id",
          "type": "uint256"
        }
      ],
      "name": "getCalculatorItem",
      "outputs": [
        {
          "components": [
            {
              "internalType": "uint256",
              "name": "id",
              "type": "uint256"
            },
            {
              "internalType": "address",
              "name": "createdBy",
              "type": "address"
            },
            {
              "internalType": "string",
              "name": "title",
              "type": "string"
            },
            {
              "internalType": "string",
              "name": "unit",
              "type": "string"
            },
            {
              "internalType": "string",
              "name": "justification",
              "type": "string"
            },
            {
              "internalType": "uint256",
              "name": "carbonImpact",
              "type": "uint256"
            }
          ],
          "internalType": "struct CalculatorItem",
          "name": "",
          "type": "tuple"
        }
      ],
      "stateMutability": "view",
      "type": "function"
    },
    {
      "inputs": [
        {
          "internalType": "uint256",
          "name": "id",
          "type": "uint256"
        }
      ],
      "name": "getResearch",
      "outputs": [
        {
          "components": [
            {
              "internalType": "uint256",
              "name": "id",
              "type": "uint256"
            },
            {
              "internalType": "uint256",
              "name": "era",
              "type": "uint256"
            },
            {
              "internalType": "address",
              "name": "createdBy",
              "type": "address"
            },
            {
              "internalType": "string",
              "name": "title",
              "type": "string"
            },
            {
              "internalType": "string",
              "name": "thesis",
              "type": "string"
            },
            {
              "internalType": "string",
              "name": "file",
              "type": "string"
            },
            {
              "internalType": "uint256",
              "name": "validationsCount",
              "type": "uint256"
            },
            {
              "internalType": "bool",
              "name": "valid",
              "type": "bool"
            },
            {
              "internalType": "uint256",
              "name": "invalidatedAt",
              "type": "uint256"
            },
            {
              "internalType": "uint256",
              "name": "createdAtBlock",
              "type": "uint256"
            }
          ],
          "internalType": "struct Research",
          "name": "",
          "type": "tuple"
        }
      ],
      "stateMutability": "view",
      "type": "function"
    },
    {
      "inputs": [
        {
          "internalType": "address",
          "name": "addr",
          "type": "address"
        }
      ],
      "name": "getResearcher",
      "outputs": [
        {
          "components": [
            {
              "internalType": "uint256",
              "name": "id",
              "type": "uint256"
            },
            {
              "internalType": "address",
              "name": "researcherWallet",
              "type": "address"
            },
            {
              "internalType": "string",
              "name": "name",
              "type": "string"
            },
            {
              "components": [
                {
                  "internalType": "uint256",
                  "name": "level",
                  "type": "uint256"
                },
                {
                  "internalType": "uint256",
                  "name": "currentEra",
                  "type": "uint256"
                }
              ],
              "internalType": "struct Pool",
              "name": "pool",
              "type": "tuple"
            },
            {
              "internalType": "string",
              "name": "proofPhoto",
              "type": "string"
            },
            {
              "internalType": "uint256",
              "name": "publishedResearches",
              "type": "uint256"
            },
            {
              "internalType": "uint256",
              "name": "lastPublishedAt",
              "type": "uint256"
            },
            {
              "internalType": "uint256",
              "name": "publishedItems",
              "type": "uint256"
            },
            {
              "internalType": "uint256",
              "name": "lastCalculatorItemAt",
              "type": "uint256"
            },
            {
              "internalType": "uint256",
              "name": "createdAt",
              "type": "uint256"
            },
            {
              "internalType": "bool",
              "name": "canPublishMethod",
              "type": "bool"
            }
          ],
          "internalType": "struct Researcher",
          "name": "",
          "type": "tuple"
        }
      ],
      "stateMutability": "view",
      "type": "function"
    },
    {
      "inputs": [
        {
          "internalType": "address",
          "name": "addr",
          "type": "address"
        }
      ],
      "name": "getResearchesIds",
      "outputs": [
        {
          "internalType": "uint256[]",
          "name": "",
          "type": "uint256[]"
        }
      ],
      "stateMutability": "view",
      "type": "function"
    },
    {
      "inputs": [
        {
          "internalType": "address",
          "name": "caller",
          "type": "address"
        }
      ],
      "name": "isAllowedCaller",
      "outputs": [
        {
          "internalType": "bool",
          "name": "",
          "type": "bool"
        }
      ],
      "stateMutability": "view",
      "type": "function"
    },
    {
      "inputs": [
        {
          "internalType": "address",
          "name": "allowed",
          "type": "address"
        }
      ],
      "name": "newAllowedCaller",
      "outputs": [],
      "stateMutability": "nonpayable",
      "type": "function"
    },
    {
      "inputs": [],
      "name": "nextEraIn",
      "outputs": [
        {
          "internalType": "uint256",
          "name": "",
          "type": "uint256"
        }
      ],
      "stateMutability": "view",
      "type": "function"
    },
    {
      "inputs": [],
      "name": "owner",
      "outputs": [
        {
          "internalType": "address",
          "name": "",
          "type": "address"
        }
      ],
      "stateMutability": "view",
      "type": "function"
    },
    {
      "inputs": [
        {
          "internalType": "address",
          "name": "",
          "type": "address"
        },
        {
          "internalType": "uint256",
          "name": "",
          "type": "uint256"
        }
      ],
      "name": "penalties",
      "outputs": [
        {
          "internalType": "uint256",
          "name": "researchId",
          "type": "uint256"
        }
      ],
      "stateMutability": "view",
      "type": "function"
    },
    {
      "inputs": [
        {
          "internalType": "address",
          "name": "addr",
          "type": "address"
        },
        {
          "internalType": "uint256",
          "name": "removeSomeLevels",
          "type": "uint256"
        }
      ],
      "name": "removePoolLevels",
      "outputs": [],
      "stateMutability": "nonpayable",
      "type": "function"
    },
    {
      "inputs": [],
      "name": "renounceOwnership",
      "outputs": [],
      "stateMutability": "nonpayable",
      "type": "function"
    },
    {
      "inputs": [
        {
          "internalType": "address",
          "name": "addr",
          "type": "address"
        }
      ],
      "name": "researcherExists",
      "outputs": [
        {
          "internalType": "bool",
          "name": "",
          "type": "bool"
        }
      ],
      "stateMutability": "view",
      "type": "function"
    },
    {
      "inputs": [
        {
          "internalType": "uint256",
          "name": "",
          "type": "uint256"
        }
      ],
      "name": "researchersAddress",
      "outputs": [
        {
          "internalType": "address",
          "name": "",
          "type": "address"
        }
      ],
      "stateMutability": "view",
      "type": "function"
    },
    {
      "inputs": [
        {
          "internalType": "uint256",
          "name": "",
          "type": "uint256"
        }
      ],
      "name": "researches",
      "outputs": [
        {
          "internalType": "uint256",
          "name": "id",
          "type": "uint256"
        },
        {
          "internalType": "uint256",
          "name": "era",
          "type": "uint256"
        },
        {
          "internalType": "address",
          "name": "createdBy",
          "type": "address"
        },
        {
          "internalType": "string",
          "name": "title",
          "type": "string"
        },
        {
          "internalType": "string",
          "name": "thesis",
          "type": "string"
        },
        {
          "internalType": "string",
          "name": "file",
          "type": "string"
        },
        {
          "internalType": "uint256",
          "name": "validationsCount",
          "type": "uint256"
        },
        {
          "internalType": "bool",
          "name": "valid",
          "type": "bool"
        },
        {
          "internalType": "uint256",
          "name": "invalidatedAt",
          "type": "uint256"
        },
        {
          "internalType": "uint256",
          "name": "createdAtBlock",
          "type": "uint256"
        }
      ],
      "stateMutability": "view",
      "type": "function"
    },
    {
      "inputs": [],
      "name": "researchesCount",
      "outputs": [
        {
          "internalType": "uint256",
          "name": "",
          "type": "uint256"
        }
      ],
      "stateMutability": "view",
      "type": "function"
    },
    {
      "inputs": [
        {
          "internalType": "address",
          "name": "",
          "type": "address"
        },
        {
          "internalType": "uint256",
          "name": "",
          "type": "uint256"
        }
      ],
      "name": "researchesIds",
      "outputs": [
        {
          "internalType": "uint256",
          "name": "",
          "type": "uint256"
        }
      ],
      "stateMutability": "view",
      "type": "function"
    },
    {
      "inputs": [],
      "name": "researchesTotalCount",
      "outputs": [
        {
          "internalType": "uint256",
          "name": "",
          "type": "uint256"
        }
      ],
      "stateMutability": "view",
      "type": "function"
    },
    {
      "inputs": [
        {
          "components": [
            {
              "internalType": "address",
              "name": "communityRulesAddress",
              "type": "address"
            },
            {
              "internalType": "address",
              "name": "researcherPoolAddress",
              "type": "address"
            },
            {
              "internalType": "address",
              "name": "validationRulesAddress",
              "type": "address"
            },
            {
              "internalType": "address",
              "name": "voteRulesAddress",
              "type": "address"
            }
          ],
          "internalType": "struct ContractsDependency",
          "name": "contractDependency",
          "type": "tuple"
        }
      ],
      "name": "setContractAddressDependencies",
      "outputs": [],
      "stateMutability": "nonpayable",
      "type": "function"
    },
    {
      "inputs": [
        {
          "internalType": "address",
          "name": "addr",
          "type": "address"
        }
      ],
      "name": "totalPenalties",
      "outputs": [
        {
          "internalType": "uint256",
          "name": "",
          "type": "uint256"
        }
      ],
      "stateMutability": "view",
      "type": "function"
    },
    {
      "inputs": [
        {
          "internalType": "address",
          "name": "newOwner",
          "type": "address"
        }
      ],
      "name": "transferOwnership",
      "outputs": [],
      "stateMutability": "nonpayable",
      "type": "function"
    },
    {
      "inputs": [],
      "name": "withdraw",
      "outputs": [],
      "stateMutability": "nonpayable",
      "type": "function"
    }
  ],
  "bytecode": "0x60e060405234801561001057600080fd5b506040516160a13803806160a183398181016040528101906100329190610175565b61004e61004361006e60201b60201c565b61007660201b60201c565b82608081815250508160a081815250508060c081815250505050506101c8565b600033905090565b60008060009054906101000a900473ffffffffffffffffffffffffffffffffffffffff169050816000806101000a81548173ffffffffffffffffffffffffffffffffffffffff021916908373ffffffffffffffffffffffffffffffffffffffff1602179055508173ffffffffffffffffffffffffffffffffffffffff168173ffffffffffffffffffffffffffffffffffffffff167f8be0079c531659141344cd1fd0a4f28419497f9722a3daafe3b4186f6b6457e060405160405180910390a35050565b600080fd5b6000819050919050565b6101528161013f565b811461015d57600080fd5b50565b60008151905061016f81610149565b92915050565b60008060006060848603121561018e5761018d61013a565b5b600061019c86828701610160565b93505060206101ad86828701610160565b92505060406101be86828701610160565b9150509250925092565b60805160a05160c051615e9c61020560003960008181612857015261396201526000612b6a015260008181613f3f01526141ee0152615e9c6000f3fe608060405234801561001057600080fd5b506004361061021c5760003560e01c80637b33415411610125578063b4de0ff4116100ad578063c77c1ce61161007c578063c77c1ce61461069b578063e3e02ba7146106cb578063e7eba4c2146106fb578063e8a6a9221461072b578063f2fde38b146107475761021c565b8063b4de0ff4146105eb578063b702523b1461061b578063b932c8b714610637578063be18bc80146106675761021c565b806397705d60116100f457806397705d601461051f5780639eaf666f1461053d578063a58273c81461056d578063a68012581461059d578063b43f070a146105cd5761021c565b80637b334154146104995780638b2b80e2146104c95780638da5cb5b146104e55780638f93716f146105035761021c565b8063406458f2116101a85780635f1f6587116101775780635f1f6587146103d55780635f7d07041461040a5780635fa71c2814610443578063715018a61461047357806372e2e6cc1461047d5761021c565b8063406458f21461034b57806352d3ea9d14610369578063582256f1146103875780635a52293a146103a55761021c565b80631f701ee0116101ef5780631f701ee0146102bb5780632076267b146102d95780632d68402e146103095780633270f4ad146103255780633ccfd60b146103415761021c565b80630eaf485c1461022157806318ad5c9a1461023f5780631b63a43c1461025b5780631e6dffc21461028b575b600080fd5b610229610763565b604051610236919061439c565b60405180910390f35b61025960048036038101906102549190614455565b610769565b005b61027560048036038101906102709190614455565b610b4d565b604051610282919061439c565b60405180910390f35b6102a560048036038101906102a09190614495565b610c6b565b6040516102b291906144dd565b60405180910390f35b6102c3610cc5565b6040516102d0919061439c565b60405180910390f35b6102f360048036038101906102ee9190614495565b610ccb565b604051610300919061439c565b60405180910390f35b610323600480360381019061031e9190614601565b610d17565b005b61033f600480360381019061033a91906146e8565b610e36565b005b61034961136c565b005b610353611868565b604051610360919061439c565b60405180910390f35b61037161186e565b60405161037e919061439c565b60405180910390f35b61038f611874565b60405161039c919061439c565b60405180910390f35b6103bf60048036038101906103ba9190614455565b61191e565b6040516103cc919061439c565b60405180910390f35b6103ef60048036038101906103ea91906147a3565b61194f565b6040516104019695949392919061485e565b60405180910390f35b610424600480360381019061041f91906147a3565b611b43565b60405161043a9a999897969594939291906148d4565b60405180910390f35b61045d60048036038101906104589190614455565b611d5c565b60405161046a919061439c565b60405180910390f35b61047b611d93565b005b61049760048036038101906104929190614985565b611da7565b005b6104b360048036038101906104ae9190614495565b612086565b6040516104c091906144dd565b60405180910390f35b6104e360048036038101906104de9190614a2c565b6120a6565b005b6104ed6127ca565b6040516104fa9190614a88565b60405180910390f35b61051d60048036038101906105189190614495565b6127f3565b005b610527612855565b604051610534919061439c565b60405180910390f35b61055760048036038101906105529190614aa3565b612879565b60405161056491906144dd565b60405180910390f35b610587600480360381019061058291906147a3565b6128c5565b6040516105949190614bf5565b60405180910390f35b6105b760048036038101906105b29190614495565b612b12565b6040516105c491906144dd565b60405180910390f35b6105d5612b68565b6040516105e2919061439c565b60405180910390f35b61060560048036038101906106009190614495565b612b8c565b6040516106129190614cc6565b60405180910390f35b61063560048036038101906106309190614ce8565b612c23565b005b610651600480360381019061064c91906147a3565b6130a9565b60405161065e9190614a88565b60405180910390f35b610681600480360381019061067c91906147a3565b6130dc565b604051610692959493929190614d60565b60405180910390f35b6106b560048036038101906106b09190614495565b6132ca565b6040516106c291906144dd565b60405180910390f35b6106e560048036038101906106e091906147a3565b6133a8565b6040516106f29190614ebf565b60405180910390f35b61071560048036038101906107109190614495565b61362f565b6040516107229190615007565b60405180910390f35b61074560048036038101906107409190614985565b613882565b005b610761600480360381019061075c9190614495565b613d97565b005b600f5481565b600160003373ffffffffffffffffffffffffffffffffffffffff1673ffffffffffffffffffffffffffffffffffffffff16815260200190815260200160002060009054906101000a900460ff166107f5576040517f08c379a00000000000000000000000000000000000000000000000000000000081526004016107ec90615075565b60405180910390fd5b6000600260008473ffffffffffffffffffffffffffffffffffffffff1673ffffffffffffffffffffffffffffffffffffffff16815260200190815260200160002060405180610160016040529081600082015481526020016001820160009054906101000a900473ffffffffffffffffffffffffffffffffffffffff1673ffffffffffffffffffffffffffffffffffffffff1673ffffffffffffffffffffffffffffffffffffffff1681526020016002820180546108b2906150c4565b80601f01602080910402602001604051908101604052809291908181526020018280546108de906150c4565b801561092b5780601f106109005761010080835404028352916020019161092b565b820191906000526020600020905b81548152906001019060200180831161090e57829003601f168201915b505050505081526020016003820160405180604001604052908160008201548152602001600182015481525050815260200160058201805461096c906150c4565b80601f0160208091040260200160405190810160405280929190818152602001828054610998906150c4565b80156109e55780601f106109ba576101008083540402835291602001916109e5565b820191906000526020600020905b8154815290600101906020018083116109c857829003601f168201915b5050505050815260200160068201548152602001600782015481526020016008820154815260200160098201548152602001600a8201548152602001600b820160009054906101000a900460ff161515151581525050905060008211610a5357806060015160000151610a55565b815b600260008573ffffffffffffffffffffffffffffffffffffffff1673ffffffffffffffffffffffffffffffffffffffff1681526020019081526020016000206003016000016000828254610aa99190615124565b92505081905550600a60009054906101000a900473ffffffffffffffffffffffffffffffffffffffff1673ffffffffffffffffffffffffffffffffffffffff1663157ffc5284610af7613e1a565b856040518463ffffffff1660e01b8152600401610b1693929190615158565b600060405180830381600087803b158015610b3057600080fd5b505af1158015610b44573d6000803e3d6000fd5b50505050505050565b6000600160003373ffffffffffffffffffffffffffffffffffffffff1673ffffffffffffffffffffffffffffffffffffffff16815260200190815260200160002060009054906101000a900460ff16610bdb576040517f08c379a0000000000000000000000000000000000000000000000000000000008152600401610bd290615075565b60405180910390fd5b600760008473ffffffffffffffffffffffffffffffffffffffff1673ffffffffffffffffffffffffffffffffffffffff16815260200190815260200160002060405180602001604052808481525090806001815401808255809150506001900390600052602060002001600090919091909150600082015181600001555050610c6383610ccb565b905092915050565b600080600260008473ffffffffffffffffffffffffffffffffffffffff1673ffffffffffffffffffffffffffffffffffffffff1681526020019081526020016000206002018054610cbb906150c4565b9050119050919050565b60105481565b6000600760008373ffffffffffffffffffffffffffffffffffffffff1673ffffffffffffffffffffffffffffffffffffffff168152602001908152602001600020805490509050919050565b610d1f613eb2565b8060000151600960006101000a81548173ffffffffffffffffffffffffffffffffffffffff021916908373ffffffffffffffffffffffffffffffffffffffff1602179055508060200151600a60006101000a81548173ffffffffffffffffffffffffffffffffffffffff021916908373ffffffffffffffffffffffffffffffffffffffff1602179055508060400151600b60006101000a81548173ffffffffffffffffffffffffffffffffffffffff021916908373ffffffffffffffffffffffffffffffffffffffff1602179055508060600151600c60006101000a81548173ffffffffffffffffffffffffffffffffffffffff021916908373ffffffffffffffffffffffffffffffffffffffff16021790555050565b600960009054906101000a900473ffffffffffffffffffffffffffffffffffffffff1673ffffffffffffffffffffffffffffffffffffffff16639497c6086003336040518363ffffffff1660e01b8152600401610e94929190615206565b602060405180830381865afa158015610eb1573d6000803e3d6000fd5b505050506040513d601f19601f82011682018060405250810190610ed5919061525b565b610f14576040517f08c379a0000000000000000000000000000000000000000000000000000000008152600401610f0b906152d4565b60405180910390fd5b6000600260003373ffffffffffffffffffffffffffffffffffffffff1673ffffffffffffffffffffffffffffffffffffffff16815260200190815260200160002060405180610160016040529081600082015481526020016001820160009054906101000a900473ffffffffffffffffffffffffffffffffffffffff1673ffffffffffffffffffffffffffffffffffffffff1673ffffffffffffffffffffffffffffffffffffffff168152602001600282018054610fd1906150c4565b80601f0160208091040260200160405190810160405280929190818152602001828054610ffd906150c4565b801561104a5780601f1061101f5761010080835404028352916020019161104a565b820191906000526020600020905b81548152906001019060200180831161102d57829003601f168201915b505050505081526020016003820160405180604001604052908160008201548152602001600182015481525050815260200160058201805461108b906150c4565b80601f01602080910402602001604051908101604052809291908181526020018280546110b7906150c4565b80156111045780601f106110d957610100808354040283529160200191611104565b820191906000526020600020905b8154815290600101906020018083116110e757829003601f168201915b5050505050815260200160068201548152602001600782015481526020016008820154815260200160098201548152602001600a8201548152602001600b820160009054906101000a900460ff161515151581525050905061116581613f30565b6111a4576040517f08c379a000000000000000000000000000000000000000000000000000000000815260040161119b90615340565b60405180910390fd5b60006001600f546111b59190615360565b90506040518060c001604052808281526020013373ffffffffffffffffffffffffffffffffffffffff16815260200187815260200186815260200185815260200184815250600560008381526020019081526020016000206000820151816000015560208201518160010160006101000a81548173ffffffffffffffffffffffffffffffffffffffff021916908373ffffffffffffffffffffffffffffffffffffffff16021790555060408201518160020190816112739190615540565b5060608201518160030190816112899190615540565b50608082015181600401908161129f9190615540565b5060a08201518160050155905050600f60008154809291906112c090615612565b919050555043600260003373ffffffffffffffffffffffffffffffffffffffff1673ffffffffffffffffffffffffffffffffffffffff16815260200190815260200160002060090181905550600260003373ffffffffffffffffffffffffffffffffffffffff1673ffffffffffffffffffffffffffffffffffffffff168152602001908152602001600020600801600081548092919061135f90615612565b9190505550505050505050565b600960009054906101000a900473ffffffffffffffffffffffffffffffffffffffff1673ffffffffffffffffffffffffffffffffffffffff16639497c6086003336040518363ffffffff1660e01b81526004016113ca929190615206565b602060405180830381865afa1580156113e7573d6000803e3d6000fd5b505050506040513d601f19601f8201168201806040525081019061140b919061525b565b61144a576040517f08c379a0000000000000000000000000000000000000000000000000000000008152600401611441906156a6565b60405180910390fd5b6000600260003373ffffffffffffffffffffffffffffffffffffffff1673ffffffffffffffffffffffffffffffffffffffff16815260200190815260200160002060405180610160016040529081600082015481526020016001820160009054906101000a900473ffffffffffffffffffffffffffffffffffffffff1673ffffffffffffffffffffffffffffffffffffffff1673ffffffffffffffffffffffffffffffffffffffff168152602001600282018054611507906150c4565b80601f0160208091040260200160405190810160405280929190818152602001828054611533906150c4565b80156115805780601f1061155557610100808354040283529160200191611580565b820191906000526020600020905b81548152906001019060200180831161156357829003601f168201915b50505050508152602001600382016040518060400160405290816000820154815260200160018201548152505081526020016005820180546115c1906150c4565b80601f01602080910402602001604051908101604052809291908181526020018280546115ed906150c4565b801561163a5780601f1061160f5761010080835404028352916020019161163a565b820191906000526020600020905b81548152906001019060200180831161161d57829003601f168201915b5050505050815260200160068201548152602001600782015481526020016008820154815260200160098201548152602001600a8201548152602001600b820160009054906101000a900460ff161515151581525050905060008160600151602001519050600a60009054906101000a900473ffffffffffffffffffffffffffffffffffffffff1673ffffffffffffffffffffffffffffffffffffffff1663fbe85f06826040518263ffffffff1660e01b81526004016116fa919061439c565b602060405180830381865afa158015611717573d6000803e3d6000fd5b505050506040513d601f19601f8201168201806040525081019061173b919061525b565b61177a576040517f08c379a000000000000000000000000000000000000000000000000000000000815260040161177190615712565b60405180910390fd5b600260003373ffffffffffffffffffffffffffffffffffffffff1673ffffffffffffffffffffffffffffffffffffffff16815260200190815260200160002060030160010160008154809291906117d090615612565b9190505550600a60009054906101000a900473ffffffffffffffffffffffffffffffffffffffff1673ffffffffffffffffffffffffffffffffffffffff1663f3fef3a333836040518363ffffffff1660e01b8152600401611832929190615732565b600060405180830381600087803b15801561184c57600080fd5b505af1158015611860573d6000803e3d6000fd5b505050505050565b600d5481565b600e5481565b6000600a60009054906101000a900473ffffffffffffffffffffffffffffffffffffffff1673ffffffffffffffffffffffffffffffffffffffff1663d5ee3eb56118bc613e1a565b6040518263ffffffff1660e01b81526004016118d8919061439c565b602060405180830381865afa1580156118f5573d6000803e3d6000fd5b505050506040513d601f19601f820116820180604052508101906119199190615791565b905090565b6004602052816000526040600020818154811061193a57600080fd5b90600052602060002001600091509150505481565b60056020528060005260406000206000915090508060000154908060010160009054906101000a900473ffffffffffffffffffffffffffffffffffffffff169080600201805461199e906150c4565b80601f01602080910402602001604051908101604052809291908181526020018280546119ca906150c4565b8015611a175780601f106119ec57610100808354040283529160200191611a17565b820191906000526020600020905b8154815290600101906020018083116119fa57829003601f168201915b505050505090806003018054611a2c906150c4565b80601f0160208091040260200160405190810160405280929190818152602001828054611a58906150c4565b8015611aa55780601f10611a7a57610100808354040283529160200191611aa5565b820191906000526020600020905b815481529060010190602001808311611a8857829003601f168201915b505050505090806004018054611aba906150c4565b80601f0160208091040260200160405190810160405280929190818152602001828054611ae6906150c4565b8015611b335780601f10611b0857610100808354040283529160200191611b33565b820191906000526020600020905b815481529060010190602001808311611b1657829003601f168201915b5050505050908060050154905086565b60036020528060005260406000206000915090508060000154908060010154908060020160009054906101000a900473ffffffffffffffffffffffffffffffffffffffff1690806003018054611b98906150c4565b80601f0160208091040260200160405190810160405280929190818152602001828054611bc4906150c4565b8015611c115780601f10611be657610100808354040283529160200191611c11565b820191906000526020600020905b815481529060010190602001808311611bf457829003601f168201915b505050505090806004018054611c26906150c4565b80601f0160208091040260200160405190810160405280929190818152602001828054611c52906150c4565b8015611c9f5780601f10611c7457610100808354040283529160200191611c9f565b820191906000526020600020905b815481529060010190602001808311611c8257829003601f168201915b505050505090806005018054611cb4906150c4565b80601f0160208091040260200160405190810160405280929190818152602001828054611ce0906150c4565b8015611d2d5780601f10611d0257610100808354040283529160200191611d2d565b820191906000526020600020905b815481529060010190602001808311611d1057829003601f168201915b5050505050908060060154908060070160009054906101000a900460ff1690806008015490806009015490508a565b60076020528160005260406000208181548110611d7857600080fd5b90600052602060002001600091509150508060000154905081565b611d9b613eb2565b611da56000613f83565b565b600960009054906101000a900473ffffffffffffffffffffffffffffffffffffffff1673ffffffffffffffffffffffffffffffffffffffff16639497c6086003336040518363ffffffff1660e01b8152600401611e05929190615206565b602060405180830381865afa158015611e22573d6000803e3d6000fd5b505050506040513d601f19601f82011682018060405250810190611e46919061525b565b611e85576040517f08c379a0000000000000000000000000000000000000000000000000000000008152600401611e7c906152d4565b60405180910390fd5b600260003373ffffffffffffffffffffffffffffffffffffffff1673ffffffffffffffffffffffffffffffffffffffff168152602001908152602001600020600b0160009054906101000a900460ff16611f14576040517f08c379a0000000000000000000000000000000000000000000000000000000008152600401611f0b9061580a565b60405180910390fd5b60006001601054611f259190615360565b90506040518060a001604052808281526020013373ffffffffffffffffffffffffffffffffffffffff16815260200185815260200184815260200183815250600660008381526020019081526020016000206000820151816000015560208201518160010160006101000a81548173ffffffffffffffffffffffffffffffffffffffff021916908373ffffffffffffffffffffffffffffffffffffffff1602179055506040820151816002019081611fdd9190615540565b506060820151816003019081611ff39190615540565b5060808201518160040190816120099190615540565b509050506010600081548092919061202090615612565b91905055506000600260003373ffffffffffffffffffffffffffffffffffffffff1673ffffffffffffffffffffffffffffffffffffffff168152602001908152602001600020600b0160006101000a81548160ff02191690831515021790555050505050565b60016020528060005260406000206000915054906101000a900460ff1681565b600c60009054906101000a900473ffffffffffffffffffffffffffffffffffffffff1673ffffffffffffffffffffffffffffffffffffffff1663adfaa72e336040518263ffffffff1660e01b81526004016121019190614a88565b602060405180830381865afa15801561211e573d6000803e3d6000fd5b505050506040513d601f19601f82011682018060405250810190612142919061525b565b612181576040517f08c379a000000000000000000000000000000000000000000000000000000000815260040161217890615876565b60405180910390fd5b600b60009054906101000a900473ffffffffffffffffffffffffffffffffffffffff1673ffffffffffffffffffffffffffffffffffffffff1663361119ac336040518263ffffffff1660e01b81526004016121dc9190614a88565b602060405180830381865afa1580156121f9573d6000803e3d6000fd5b505050506040513d601f19601f8201168201806040525081019061221d919061525b565b61225c576040517f08c379a0000000000000000000000000000000000000000000000000000000008152600401612253906158e2565b60405180910390fd5b61012c815111156122a2576040517f08c379a00000000000000000000000000000000000000000000000000000000081526004016122999061594e565b60405180910390fd5b6000600360008481526020019081526020016000206040518061014001604052908160008201548152602001600182015481526020016002820160009054906101000a900473ffffffffffffffffffffffffffffffffffffffff1673ffffffffffffffffffffffffffffffffffffffff1673ffffffffffffffffffffffffffffffffffffffff16815260200160038201805461233d906150c4565b80601f0160208091040260200160405190810160405280929190818152602001828054612369906150c4565b80156123b65780601f1061238b576101008083540402835291602001916123b6565b820191906000526020600020905b81548152906001019060200180831161239957829003601f168201915b505050505081526020016004820180546123cf906150c4565b80601f01602080910402602001604051908101604052809291908181526020018280546123fb906150c4565b80156124485780601f1061241d57610100808354040283529160200191612448565b820191906000526020600020905b81548152906001019060200180831161242b57829003601f168201915b50505050508152602001600582018054612461906150c4565b80601f016020809104026020016040519081016040528092919081815260200182805461248d906150c4565b80156124da5780601f106124af576101008083540402835291602001916124da565b820191906000526020600020905b8154815290600101906020018083116124bd57829003601f168201915b50505050508152602001600682015481526020016007820160009054906101000a900460ff161515151581526020016008820154815260200160098201548152505090508060e00151801561253a57508060200151612537613e1a565b11155b612579576040517f08c379a0000000000000000000000000000000000000000000000000000000008152600401612570906159ba565b60405180910390fd5b60018160c00181815161258c9190615360565b915081815250508060036000858152602001908152602001600020600082015181600001556020820151816001015560408201518160020160006101000a81548173ffffffffffffffffffffffffffffffffffffffff021916908373ffffffffffffffffffffffffffffffffffffffff16021790555060608201518160030190816126179190615540565b50608082015181600401908161262d9190615540565b5060a08201518160050190816126439190615540565b5060c0820151816006015560e08201518160070160006101000a81548160ff021916908315150217905550610100820151816008015561012082015181600901559050506000600b60009054906101000a900473ffffffffffffffffffffffffffffffffffffffff1673ffffffffffffffffffffffffffffffffffffffff166369bf81c36040518163ffffffff1660e01b8152600401602060405180830381865afa1580156126f6573d6000803e3d6000fd5b505050506040513d601f19601f8201168201806040525081019061271a91906159ef565b8260c001511015905080156127335761273282614047565b5b600b60009054906101000a900473ffffffffffffffffffffffffffffffffffffffff1673ffffffffffffffffffffffffffffffffffffffff1663e5899bc38385336040518463ffffffff1660e01b815260040161279293929190615a1c565b600060405180830381600087803b1580156127ac57600080fd5b505af11580156127c0573d6000803e3d6000fd5b5050505050505050565b60008060009054906101000a900473ffffffffffffffffffffffffffffffffffffffff16905090565b6127fb613eb2565b60018060008373ffffffffffffffffffffffffffffffffffffffff1673ffffffffffffffffffffffffffffffffffffffff16815260200190815260200160002060006101000a81548160ff02191690831515021790555050565b7f000000000000000000000000000000000000000000000000000000000000000081565b60006005831161288c57600190506128be565b60006128b460016128a6868861417690919063ffffffff16565b61418c90919063ffffffff16565b9050808310159150505b9392505050565b6128cd61423a565b600560008381526020019081526020016000206040518060c0016040529081600082015481526020016001820160009054906101000a900473ffffffffffffffffffffffffffffffffffffffff1673ffffffffffffffffffffffffffffffffffffffff1673ffffffffffffffffffffffffffffffffffffffff16815260200160028201805461295b906150c4565b80601f0160208091040260200160405190810160405280929190818152602001828054612987906150c4565b80156129d45780601f106129a9576101008083540402835291602001916129d4565b820191906000526020600020905b8154815290600101906020018083116129b757829003601f168201915b505050505081526020016003820180546129ed906150c4565b80601f0160208091040260200160405190810160405280929190818152602001828054612a19906150c4565b8015612a665780601f10612a3b57610100808354040283529160200191612a66565b820191906000526020600020905b815481529060010190602001808311612a4957829003601f168201915b50505050508152602001600482018054612a7f906150c4565b80601f0160208091040260200160405190810160405280929190818152602001828054612aab906150c4565b8015612af85780601f10612acd57610100808354040283529160200191612af8565b820191906000526020600020905b815481529060010190602001808311612adb57829003601f168201915b505050505081526020016005820154815250509050919050565b6000600160008373ffffffffffffffffffffffffffffffffffffffff1673ffffffffffffffffffffffffffffffffffffffff16815260200190815260200160002060009054906101000a900460ff169050919050565b7f000000000000000000000000000000000000000000000000000000000000000081565b6060600460008373ffffffffffffffffffffffffffffffffffffffff1673ffffffffffffffffffffffffffffffffffffffff168152602001908152602001600020805480602002602001604051908101604052809291908181526020018280548015612c1757602002820191906000526020600020905b815481526020019060010190808311612c03575b50505050509050919050565b6064825111158015612c3757506064815111155b612c76576040517f08c379a0000000000000000000000000000000000000000000000000000000008152600401612c6d90615aad565b60405180910390fd5b613e80600960009054906101000a900473ffffffffffffffffffffffffffffffffffffffff1673ffffffffffffffffffffffffffffffffffffffff16632f22dc7b60036040518263ffffffff1660e01b8152600401612cd59190615acd565b602060405180830381865afa158015612cf2573d6000803e3d6000fd5b505050506040513d601f19601f82011682018060405250810190612d1691906159ef565b1115612d57576040517f08c379a0000000000000000000000000000000000000000000000000000000008152600401612d4e90615b34565b60405180910390fd5b60006001600960009054906101000a900473ffffffffffffffffffffffffffffffffffffffff1673ffffffffffffffffffffffffffffffffffffffff16631eb2c12060036040518263ffffffff1660e01b8152600401612db79190615acd565b602060405180830381865afa158015612dd4573d6000803e3d6000fd5b505050506040513d601f19601f82011682018060405250810190612df891906159ef565b612e029190615360565b905060006040518061016001604052808381526020013373ffffffffffffffffffffffffffffffffffffffff168152602001858152602001604051806040016040528060008152602001612e54613e1a565b81525081526020018481526020016000815260200160008152602001600081526020016000815260200143815260200160011515815250905080600260003373ffffffffffffffffffffffffffffffffffffffff1673ffffffffffffffffffffffffffffffffffffffff1681526020019081526020016000206000820151816000015560208201518160010160006101000a81548173ffffffffffffffffffffffffffffffffffffffff021916908373ffffffffffffffffffffffffffffffffffffffff1602179055506040820151816002019081612f339190615540565b50606082015181600301600082015181600001556020820151816001015550506080820151816005019081612f689190615540565b5060a0820151816006015560c0820151816007015560e08201518160080155610100820151816009015561012082015181600a015561014082015181600b0160006101000a81548160ff021916908315150217905550905050336008600084815260200190815260200160002060006101000a81548173ffffffffffffffffffffffffffffffffffffffff021916908373ffffffffffffffffffffffffffffffffffffffff160217905550600960009054906101000a900473ffffffffffffffffffffffffffffffffffffffff1673ffffffffffffffffffffffffffffffffffffffff16639c3eead93360036040518363ffffffff1660e01b8152600401613071929190615b54565b600060405180830381600087803b15801561308b57600080fd5b505af115801561309f573d6000803e3d6000fd5b5050505050505050565b60086020528060005260406000206000915054906101000a900473ffffffffffffffffffffffffffffffffffffffff1681565b60066020528060005260406000206000915090508060000154908060010160009054906101000a900473ffffffffffffffffffffffffffffffffffffffff169080600201805461312b906150c4565b80601f0160208091040260200160405190810160405280929190818152602001828054613157906150c4565b80156131a45780601f10613179576101008083540402835291602001916131a4565b820191906000526020600020905b81548152906001019060200180831161318757829003601f168201915b5050505050908060030180546131b9906150c4565b80601f01602080910402602001604051908101604052809291908181526020018280546131e5906150c4565b80156132325780601f1061320757610100808354040283529160200191613232565b820191906000526020600020905b81548152906001019060200180831161321557829003601f168201915b505050505090806004018054613247906150c4565b80601f0160208091040260200160405190810160405280929190818152602001828054613273906150c4565b80156132c05780601f10613295576101008083540402835291602001916132c0565b820191906000526020600020905b8154815290600101906020018083116132a357829003601f168201915b5050505050905085565b6000806132d68361362f565b905060008160000151116132ee5760009150506133a3565b61339f600e54600960009054906101000a900473ffffffffffffffffffffffffffffffffffffffff1673ffffffffffffffffffffffffffffffffffffffff16631eb2c12060036040518263ffffffff1660e01b81526004016133509190615acd565b602060405180830381865afa15801561336d573d6000803e3d6000fd5b505050506040513d601f19601f8201168201806040525081019061339191906159ef565b836060015160000151612879565b9150505b919050565b6133b0614286565b600360008381526020019081526020016000206040518061014001604052908160008201548152602001600182015481526020016002820160009054906101000a900473ffffffffffffffffffffffffffffffffffffffff1673ffffffffffffffffffffffffffffffffffffffff1673ffffffffffffffffffffffffffffffffffffffff168152602001600382018054613449906150c4565b80601f0160208091040260200160405190810160405280929190818152602001828054613475906150c4565b80156134c25780601f10613497576101008083540402835291602001916134c2565b820191906000526020600020905b8154815290600101906020018083116134a557829003601f168201915b505050505081526020016004820180546134db906150c4565b80601f0160208091040260200160405190810160405280929190818152602001828054613507906150c4565b80156135545780601f1061352957610100808354040283529160200191613554565b820191906000526020600020905b81548152906001019060200180831161353757829003601f168201915b5050505050815260200160058201805461356d906150c4565b80601f0160208091040260200160405190810160405280929190818152602001828054613599906150c4565b80156135e65780601f106135bb576101008083540402835291602001916135e6565b820191906000526020600020905b8154815290600101906020018083116135c957829003601f168201915b50505050508152602001600682015481526020016007820160009054906101000a900460ff16151515158152602001600882015481526020016009820154815250509050919050565b6136376142f1565b600260008373ffffffffffffffffffffffffffffffffffffffff1673ffffffffffffffffffffffffffffffffffffffff16815260200190815260200160002060405180610160016040529081600082015481526020016001820160009054906101000a900473ffffffffffffffffffffffffffffffffffffffff1673ffffffffffffffffffffffffffffffffffffffff1673ffffffffffffffffffffffffffffffffffffffff1681526020016002820180546136f2906150c4565b80601f016020809104026020016040519081016040528092919081815260200182805461371e906150c4565b801561376b5780601f106137405761010080835404028352916020019161376b565b820191906000526020600020905b81548152906001019060200180831161374e57829003601f168201915b50505050508152602001600382016040518060400160405290816000820154815260200160018201548152505081526020016005820180546137ac906150c4565b80601f01602080910402602001604051908101604052809291908181526020018280546137d8906150c4565b80156138255780601f106137fa57610100808354040283529160200191613825565b820191906000526020600020905b81548152906001019060200180831161380857829003601f168201915b5050505050815260200160068201548152602001600782015481526020016008820154815260200160098201548152602001600a8201548152602001600b820160009054906101000a900460ff1615151515815250509050919050565b600960009054906101000a900473ffffffffffffffffffffffffffffffffffffffff1673ffffffffffffffffffffffffffffffffffffffff16639497c6086003336040518363ffffffff1660e01b81526004016138e0929190615206565b602060405180830381865afa1580156138fd573d6000803e3d6000fd5b505050506040513d601f19601f82011682018060405250810190613921919061525b565b613960576040517f08c379a0000000000000000000000000000000000000000000000000000000008152600401613957906152d4565b60405180910390fd5b7f0000000000000000000000000000000000000000000000000000000000000000613989611874565b116139c9576040517f08c379a00000000000000000000000000000000000000000000000000000000081526004016139c090615bef565b60405180910390fd5b6139d2336141a2565b613a11576040517f08c379a0000000000000000000000000000000000000000000000000000000008152600401613a0890615340565b60405180910390fd5b6064835111158015613a2657506101f4825111155b8015613a3457506064815111155b613a73576040517f08c379a0000000000000000000000000000000000000000000000000000000008152600401613a6a90615c5b565b60405180910390fd5b6000600260003373ffffffffffffffffffffffffffffffffffffffff1673ffffffffffffffffffffffffffffffffffffffff168152602001908152602001600020905060006001600d54613ac79190615360565b90506000604051806101400160405280838152602001613ae5613e1a565b81526020013373ffffffffffffffffffffffffffffffffffffffff16815260200187815260200186815260200185815260200160008152602001600115158152602001600081526020014381525090508060036000848152602001908152602001600020600082015181600001556020820151816001015560408201518160020160006101000a81548173ffffffffffffffffffffffffffffffffffffffff021916908373ffffffffffffffffffffffffffffffffffffffff1602179055506060820151816003019081613bb99190615540565b506080820151816004019081613bcf9190615540565b5060a0820151816005019081613be59190615540565b5060c0820151816006015560e08201518160070160006101000a81548160ff02191690831515021790555061010082015181600801556101208201518160090155905050600d6000815480929190613c3c90615612565b9190505550600e6000815480929190613c5490615612565b9190505550826006016000815480929190613c6e90615612565b9190505550438360070181905550600460003373ffffffffffffffffffffffffffffffffffffffff1673ffffffffffffffffffffffffffffffffffffffff168152602001908152602001600020829080600181540180825580915050600190039060005260206000200160009091909190915055826003016000016000815480929190613cfa90615612565b9190505550600a60009054906101000a900473ffffffffffffffffffffffffffffffffffffffff1673ffffffffffffffffffffffffffffffffffffffff166352b8d3ed3360016040518363ffffffff1660e01b8152600401613d5d929190615cb6565b600060405180830381600087803b158015613d7757600080fd5b505af1158015613d8b573d6000803e3d6000fd5b50505050505050505050565b613d9f613eb2565b600073ffffffffffffffffffffffffffffffffffffffff168173ffffffffffffffffffffffffffffffffffffffff1603613e0e576040517f08c379a0000000000000000000000000000000000000000000000000000000008152600401613e0590615d51565b60405180910390fd5b613e1781613f83565b50565b6000600a60009054906101000a900473ffffffffffffffffffffffffffffffffffffffff1673ffffffffffffffffffffffffffffffffffffffff1663ed0df79e6040518163ffffffff1660e01b8152600401602060405180830381865afa158015613e89573d6000803e3d6000fd5b505050506040513d601f19601f82011682018060405250810190613ead91906159ef565b905090565b613eba614232565b73ffffffffffffffffffffffffffffffffffffffff16613ed86127ca565b73ffffffffffffffffffffffffffffffffffffffff1614613f2e576040517f08c379a0000000000000000000000000000000000000000000000000000000008152600401613f2590615dbd565b60405180910390fd5b565b600080826101000151905060007f000000000000000000000000000000000000000000000000000000000000000082613f699190615360565b431190508080613f7a575060008211155b92505050919050565b60008060009054906101000a900473ffffffffffffffffffffffffffffffffffffffff169050816000806101000a81548173ffffffffffffffffffffffffffffffffffffffff021916908373ffffffffffffffffffffffffffffffffffffffff1602179055508173ffffffffffffffffffffffffffffffffffffffff168173ffffffffffffffffffffffffffffffffffffffff167f8be0079c531659141344cd1fd0a4f28419497f9722a3daafe3b4186f6b6457e060405160405180910390a35050565b600e600081548092919061405a90615ddd565b919050555060008160e00190151590811515815250504381610100018181525050806003600083600001518152602001908152602001600020600082015181600001556020820151816001015560408201518160020160006101000a81548173ffffffffffffffffffffffffffffffffffffffff021916908373ffffffffffffffffffffffffffffffffffffffff16021790555060608201518160030190816141039190615540565b5060808201518160040190816141199190615540565b5060a082015181600501908161412f9190615540565b5060c0820151816006015560e08201518160070160006101000a81548160ff0219169083151502179055506101008201518160080155610120820151816009015590505050565b600081836141849190615e35565b905092915050565b6000818361419a9190615360565b905092915050565b600080600260008473ffffffffffffffffffffffffffffffffffffffff1673ffffffffffffffffffffffffffffffffffffffff16815260200190815260200160002060070154905060007f0000000000000000000000000000000000000000000000000000000000000000826142189190615360565b431190508080614229575060008211155b92505050919050565b600033905090565b6040518060c0016040528060008152602001600073ffffffffffffffffffffffffffffffffffffffff168152602001606081526020016060815260200160608152602001600081525090565b6040518061014001604052806000815260200160008152602001600073ffffffffffffffffffffffffffffffffffffffff1681526020016060815260200160608152602001606081526020016000815260200160001515815260200160008152602001600081525090565b60405180610160016040528060008152602001600073ffffffffffffffffffffffffffffffffffffffff16815260200160608152602001614330614369565b81526020016060815260200160008152602001600081526020016000815260200160008152602001600081526020016000151581525090565b604051806040016040528060008152602001600081525090565b6000819050919050565b61439681614383565b82525050565b60006020820190506143b1600083018461438d565b92915050565b6000604051905090565b600080fd5b600080fd5b600073ffffffffffffffffffffffffffffffffffffffff82169050919050565b60006143f6826143cb565b9050919050565b614406816143eb565b811461441157600080fd5b50565b600081359050614423816143fd565b92915050565b61443281614383565b811461443d57600080fd5b50565b60008135905061444f81614429565b92915050565b6000806040838503121561446c5761446b6143c1565b5b600061447a85828601614414565b925050602061448b85828601614440565b9150509250929050565b6000602082840312156144ab576144aa6143c1565b5b60006144b984828501614414565b91505092915050565b60008115159050919050565b6144d7816144c2565b82525050565b60006020820190506144f260008301846144ce565b92915050565b600080fd5b6000601f19601f8301169050919050565b7f4e487b7100000000000000000000000000000000000000000000000000000000600052604160045260246000fd5b614546826144fd565b810181811067ffffffffffffffff821117156145655761456461450e565b5b80604052505050565b60006145786143b7565b9050614584828261453d565b919050565b60006080828403121561459f5761459e6144f8565b5b6145a9608061456e565b905060006145b984828501614414565b60008301525060206145cd84828501614414565b60208301525060406145e184828501614414565b60408301525060606145f584828501614414565b60608301525092915050565b600060808284031215614617576146166143c1565b5b600061462584828501614589565b91505092915050565b600080fd5b600080fd5b600067ffffffffffffffff8211156146535761465261450e565b5b61465c826144fd565b9050602081019050919050565b82818337600083830152505050565b600061468b61468684614638565b61456e565b9050828152602081018484840111156146a7576146a6614633565b5b6146b2848285614669565b509392505050565b600082601f8301126146cf576146ce61462e565b5b81356146df848260208601614678565b91505092915050565b60008060008060808587031215614702576147016143c1565b5b600085013567ffffffffffffffff8111156147205761471f6143c6565b5b61472c878288016146ba565b945050602085013567ffffffffffffffff81111561474d5761474c6143c6565b5b614759878288016146ba565b935050604085013567ffffffffffffffff81111561477a576147796143c6565b5b614786878288016146ba565b925050606061479787828801614440565b91505092959194509250565b6000602082840312156147b9576147b86143c1565b5b60006147c784828501614440565b91505092915050565b6147d9816143eb565b82525050565b600081519050919050565b600082825260208201905092915050565b60005b838110156148195780820151818401526020810190506147fe565b60008484015250505050565b6000614830826147df565b61483a81856147ea565b935061484a8185602086016147fb565b614853816144fd565b840191505092915050565b600060c082019050614873600083018961438d565b61488060208301886147d0565b81810360408301526148928187614825565b905081810360608301526148a68186614825565b905081810360808301526148ba8185614825565b90506148c960a083018461438d565b979650505050505050565b6000610140820190506148ea600083018d61438d565b6148f7602083018c61438d565b614904604083018b6147d0565b8181036060830152614916818a614825565b9050818103608083015261492a8189614825565b905081810360a083015261493e8188614825565b905061494d60c083018761438d565b61495a60e08301866144ce565b61496861010083018561438d565b61497661012083018461438d565b9b9a5050505050505050505050565b60008060006060848603121561499e5761499d6143c1565b5b600084013567ffffffffffffffff8111156149bc576149bb6143c6565b5b6149c8868287016146ba565b935050602084013567ffffffffffffffff8111156149e9576149e86143c6565b5b6149f5868287016146ba565b925050604084013567ffffffffffffffff811115614a1657614a156143c6565b5b614a22868287016146ba565b9150509250925092565b60008060408385031215614a4357614a426143c1565b5b6000614a5185828601614440565b925050602083013567ffffffffffffffff811115614a7257614a716143c6565b5b614a7e858286016146ba565b9150509250929050565b6000602082019050614a9d60008301846147d0565b92915050565b600080600060608486031215614abc57614abb6143c1565b5b6000614aca86828701614440565b9350506020614adb86828701614440565b9250506040614aec86828701614440565b9150509250925092565b614aff81614383565b82525050565b614b0e816143eb565b82525050565b600082825260208201905092915050565b6000614b30826147df565b614b3a8185614b14565b9350614b4a8185602086016147fb565b614b53816144fd565b840191505092915050565b600060c083016000830151614b766000860182614af6565b506020830151614b896020860182614b05565b5060408301518482036040860152614ba18282614b25565b91505060608301518482036060860152614bbb8282614b25565b91505060808301518482036080860152614bd58282614b25565b91505060a0830151614bea60a0860182614af6565b508091505092915050565b60006020820190508181036000830152614c0f8184614b5e565b905092915050565b600081519050919050565b600082825260208201905092915050565b6000819050602082019050919050565b6000614c4f8383614af6565b60208301905092915050565b6000602082019050919050565b6000614c7382614c17565b614c7d8185614c22565b9350614c8883614c33565b8060005b83811015614cb9578151614ca08882614c43565b9750614cab83614c5b565b925050600181019050614c8c565b5085935050505092915050565b60006020820190508181036000830152614ce08184614c68565b905092915050565b60008060408385031215614cff57614cfe6143c1565b5b600083013567ffffffffffffffff811115614d1d57614d1c6143c6565b5b614d29858286016146ba565b925050602083013567ffffffffffffffff811115614d4a57614d496143c6565b5b614d56858286016146ba565b9150509250929050565b600060a082019050614d75600083018861438d565b614d8260208301876147d0565b8181036040830152614d948186614825565b90508181036060830152614da88185614825565b90508181036080830152614dbc8184614825565b90509695505050505050565b614dd1816144c2565b82525050565b600061014083016000830151614df06000860182614af6565b506020830151614e036020860182614af6565b506040830151614e166040860182614b05565b5060608301518482036060860152614e2e8282614b25565b91505060808301518482036080860152614e488282614b25565b91505060a083015184820360a0860152614e628282614b25565b91505060c0830151614e7760c0860182614af6565b5060e0830151614e8a60e0860182614dc8565b50610100830151614e9f610100860182614af6565b50610120830151614eb4610120860182614af6565b508091505092915050565b60006020820190508181036000830152614ed98184614dd7565b905092915050565b604082016000820151614ef76000850182614af6565b506020820151614f0a6020850182614af6565b50505050565b600061018083016000830151614f296000860182614af6565b506020830151614f3c6020860182614b05565b5060408301518482036040860152614f548282614b25565b9150506060830151614f696060860182614ee1565b50608083015184820360a0860152614f818282614b25565b91505060a0830151614f9660c0860182614af6565b5060c0830151614fa960e0860182614af6565b5060e0830151614fbd610100860182614af6565b50610100830151614fd2610120860182614af6565b50610120830151614fe7610140860182614af6565b50610140830151614ffc610160860182614dc8565b508091505092915050565b600060208201905081810360008301526150218184614f10565b905092915050565b7f4e6f7420616c6c6f7765642063616c6c65720000000000000000000000000000600082015250565b600061505f6012836147ea565b915061506a82615029565b602082019050919050565b6000602082019050818103600083015261508e81615052565b9050919050565b7f4e487b7100000000000000000000000000000000000000000000000000000000600052602260045260246000fd5b600060028204905060018216806150dc57607f821691505b6020821081036150ef576150ee615095565b5b50919050565b7f4e487b7100000000000000000000000000000000000000000000000000000000600052601160045260246000fd5b600061512f82614383565b915061513a83614383565b9250828203905081811115615152576151516150f5565b5b92915050565b600060608201905061516d60008301866147d0565b61517a602083018561438d565b615187604083018461438d565b949350505050565b7f4e487b7100000000000000000000000000000000000000000000000000000000600052602160045260246000fd5b600981106151cf576151ce61518f565b5b50565b60008190506151e0826151be565b919050565b60006151f0826151d2565b9050919050565b615200816151e5565b82525050565b600060408201905061521b60008301856151f7565b61522860208301846147d0565b9392505050565b615238816144c2565b811461524357600080fd5b50565b6000815190506152558161522f565b92915050565b600060208284031215615271576152706143c1565b5b600061527f84828501615246565b91505092915050565b7f4f6e6c7920616c6c6f77656420746f2072657365617263686572730000000000600082015250565b60006152be601b836147ea565b91506152c982615288565b602082019050919050565b600060208201905081810360008301526152ed816152b1565b9050919050565b7f43616e2774207075626c69736820796574000000000000000000000000000000600082015250565b600061532a6011836147ea565b9150615335826152f4565b602082019050919050565b600060208201905081810360008301526153598161531d565b9050919050565b600061536b82614383565b915061537683614383565b925082820190508082111561538e5761538d6150f5565b5b92915050565b60008190508160005260206000209050919050565b60006020601f8301049050919050565b600082821b905092915050565b6000600883026153f67fffffffffffffffffffffffffffffffffffffffffffffffffffffffffffffffff826153b9565b61540086836153b9565b95508019841693508086168417925050509392505050565b6000819050919050565b600061543d61543861543384614383565b615418565b614383565b9050919050565b6000819050919050565b61545783615422565b61546b61546382615444565b8484546153c6565b825550505050565b600090565b615480615473565b61548b81848461544e565b505050565b5b818110156154af576154a4600082615478565b600181019050615491565b5050565b601f8211156154f4576154c581615394565b6154ce846153a9565b810160208510156154dd578190505b6154f16154e9856153a9565b830182615490565b50505b505050565b600082821c905092915050565b6000615517600019846008026154f9565b1980831691505092915050565b60006155308383615506565b9150826002028217905092915050565b615549826147df565b67ffffffffffffffff8111156155625761556161450e565b5b61556c82546150c4565b6155778282856154b3565b600060209050601f8311600181146155aa5760008415615598578287015190505b6155a28582615524565b86555061560a565b601f1984166155b886615394565b60005b828110156155e0578489015182556001820191506020850194506020810190506155bb565b868310156155fd57848901516155f9601f891682615506565b8355505b6001600288020188555050505b505050505050565b600061561d82614383565b91507fffffffffffffffffffffffffffffffffffffffffffffffffffffffffffffffff820361564f5761564e6150f5565b5b600182019050919050565b7f506f6f6c206f6e6c7920746f2072657365617263686572730000000000000000600082015250565b60006156906018836147ea565b915061569b8261565a565b602082019050919050565b600060208201905081810360008301526156bf81615683565b9050919050565b7f43616e277420617070726f766520776974686472617700000000000000000000600082015250565b60006156fc6016836147ea565b9150615707826156c6565b602082019050919050565b6000602082019050818103600083015261572b816156ef565b9050919050565b600060408201905061574760008301856147d0565b615754602083018461438d565b9392505050565b6000819050919050565b61576e8161575b565b811461577957600080fd5b50565b60008151905061578b81615765565b92915050565b6000602082840312156157a7576157a66143c1565b5b60006157b58482850161577c565b91505092915050565b7f4f6e6c79206f6e65206d6574686f6420616c6c6f776564000000000000000000600082015250565b60006157f46017836147ea565b91506157ff826157be565b602082019050919050565b60006020820190508181036000830152615823816157e7565b9050919050565b7f557365722063616e6e6f7420766f746500000000000000000000000000000000600082015250565b60006158606010836147ea565b915061586b8261582a565b602082019050919050565b6000602082019050818103600083015261588f81615853565b9050919050565b7f576169742074696d654265747765656e566f7465730000000000000000000000600082015250565b60006158cc6015836147ea565b91506158d782615896565b602082019050919050565b600060208201905081810360008301526158fb816158bf565b9050919050565b7f4d61782033303020636861726163746572732072656163686564000000000000600082015250565b6000615938601a836147ea565b915061594382615902565b602082019050919050565b600060208201905081810360008301526159678161592b565b9050919050565b7f54686973207265736561726368206973206e6f742056414c4944000000000000600082015250565b60006159a4601a836147ea565b91506159af8261596e565b602082019050919050565b600060208201905081810360008301526159d381615997565b9050919050565b6000815190506159e981614429565b92915050565b600060208284031215615a0557615a046143c1565b5b6000615a13848285016159da565b91505092915050565b60006060820190508181036000830152615a368186614dd7565b90508181036020830152615a4a8185614825565b9050615a5960408301846147d0565b949350505050565b7f4d61782031303020636861726163746572730000000000000000000000000000600082015250565b6000615a976012836147ea565b9150615aa282615a61565b602082019050919050565b60006020820190508181036000830152615ac681615a8a565b9050919050565b6000602082019050615ae260008301846151f7565b92915050565b7f4d6178206c696d69742072656163686564000000000000000000000000000000600082015250565b6000615b1e6011836147ea565b9150615b2982615ae8565b602082019050919050565b60006020820190508181036000830152615b4d81615b11565b9050919050565b6000604082019050615b6960008301856147d0565b615b7660208301846151f7565b9392505050565b7f5761697420756e74696c206e6578742065726120746f2061646420726573656160008201527f7263680000000000000000000000000000000000000000000000000000000000602082015250565b6000615bd96023836147ea565b9150615be482615b7d565b604082019050919050565b60006020820190508181036000830152615c0881615bcc565b9050919050565b7f4d61782063686172616374657273207265616368656400000000000000000000600082015250565b6000615c456016836147ea565b9150615c5082615c0f565b602082019050919050565b60006020820190508181036000830152615c7481615c38565b9050919050565b6000819050919050565b6000615ca0615c9b615c9684615c7b565b615418565b614383565b9050919050565b615cb081615c85565b82525050565b6000604082019050615ccb60008301856147d0565b615cd86020830184615ca7565b9392505050565b7f4f776e61626c653a206e6577206f776e657220697320746865207a65726f206160008201527f6464726573730000000000000000000000000000000000000000000000000000602082015250565b6000615d3b6026836147ea565b9150615d4682615cdf565b604082019050919050565b60006020820190508181036000830152615d6a81615d2e565b9050919050565b7f4f776e61626c653a2063616c6c6572206973206e6f7420746865206f776e6572600082015250565b6000615da76020836147ea565b9150615db282615d71565b602082019050919050565b60006020820190508181036000830152615dd681615d9a565b9050919050565b6000615de882614383565b915060008203615dfb57615dfa6150f5565b5b600182039050919050565b7f4e487b7100000000000000000000000000000000000000000000000000000000600052601260045260246000fd5b6000615e4082614383565b9150615e4b83614383565b925082615e5b57615e5a615e06565b5b82820490509291505056fea264697066735822122067ff2a83ad9fcb54b8f7bca1f85db8183162e48321a358855b36c99dd4b7d60e64736f6c634300081b0033",
  "linkReferences": {},
  "deployedLinkReferences": {}
}