{
  "_format": "hh-sol-artifact-1",
  "contractName": "ResearcherRules",
  "sourceName": "contracts/ResearcherRules.sol",
  "abi": [
    {
      "inputs": [
        {
          "internalType": "address",
          "name": "communityRulesAddress",
          "type": "address"
        },
        {
          "internalType": "address",
          "name": "researcherPoolAddress",
          "type": "address"
        },
        {
          "internalType": "address",
          "name": "validatorRulesAddress",
          "type": "address"
        },
        {
          "internalType": "uint256",
          "name": "timeBetweenWorks_",
          "type": "uint256"
        },
        {
          "internalType": "uint256",
          "name": "maxPenalties_",
          "type": "uint256"
        },
        {
          "internalType": "uint256",
          "name": "securityBlocksToValidatorAnalysis",
          "type": "uint256"
        }
      ],
      "stateMutability": "nonpayable",
      "type": "constructor"
    },
    {
      "anonymous": false,
      "inputs": [
        {
          "indexed": true,
          "internalType": "address",
          "name": "previousOwner",
          "type": "address"
        },
        {
          "indexed": true,
          "internalType": "address",
          "name": "newOwner",
          "type": "address"
        }
      ],
      "name": "OwnershipTransferred",
      "type": "event"
    },
    {
      "inputs": [],
      "name": "MAX_PENALTIES",
      "outputs": [
        {
          "internalType": "uint256",
          "name": "",
          "type": "uint256"
        }
      ],
      "stateMutability": "view",
      "type": "function"
    },
    {
      "inputs": [],
      "name": "SECURITY_BLOCKS_TO_VALIDATOR_ANALYSIS",
      "outputs": [
        {
          "internalType": "uint256",
          "name": "",
          "type": "uint256"
        }
      ],
      "stateMutability": "view",
      "type": "function"
    },
    {
      "inputs": [
        {
          "internalType": "string",
          "name": "title",
          "type": "string"
        },
        {
          "internalType": "string",
          "name": "unit",
          "type": "string"
        },
        {
          "internalType": "string",
          "name": "justification",
          "type": "string"
        },
        {
          "internalType": "uint256",
          "name": "carbonImpact",
          "type": "uint256"
        }
      ],
      "name": "addCalculatorItem",
      "outputs": [],
      "stateMutability": "nonpayable",
      "type": "function"
    },
    {
      "inputs": [
        {
          "internalType": "address",
          "name": "addr",
          "type": "address"
        },
        {
          "internalType": "uint256",
          "name": "researchId",
          "type": "uint256"
        }
      ],
      "name": "addPenalty",
      "outputs": [
        {
          "internalType": "uint256",
          "name": "",
          "type": "uint256"
        }
      ],
      "stateMutability": "nonpayable",
      "type": "function"
    },
    {
      "inputs": [
        {
          "internalType": "string",
          "name": "title",
          "type": "string"
        },
        {
          "internalType": "string",
          "name": "thesis",
          "type": "string"
        },
        {
          "internalType": "string",
          "name": "file",
          "type": "string"
        }
      ],
      "name": "addResearch",
      "outputs": [],
      "stateMutability": "nonpayable",
      "type": "function"
    },
    {
      "inputs": [
        {
          "internalType": "uint256",
          "name": "id",
          "type": "uint256"
        },
        {
          "internalType": "string",
          "name": "justification",
          "type": "string"
        }
      ],
      "name": "addResearchValidation",
      "outputs": [],
      "stateMutability": "nonpayable",
      "type": "function"
    },
    {
      "inputs": [
        {
          "internalType": "string",
          "name": "name",
          "type": "string"
        },
        {
          "internalType": "string",
          "name": "proofPhoto",
          "type": "string"
        }
      ],
      "name": "addResearcher",
      "outputs": [
        {
          "components": [
            {
              "internalType": "uint256",
              "name": "id",
              "type": "uint256"
            },
            {
              "internalType": "address",
              "name": "researcherWallet",
              "type": "address"
            },
            {
              "internalType": "string",
              "name": "name",
              "type": "string"
            },
            {
              "components": [
                {
                  "internalType": "uint256",
                  "name": "level",
                  "type": "uint256"
                },
                {
                  "internalType": "uint256",
                  "name": "currentEra",
                  "type": "uint256"
                }
              ],
              "internalType": "struct Pool",
              "name": "pool",
              "type": "tuple"
            },
            {
              "internalType": "string",
              "name": "proofPhoto",
              "type": "string"
            },
            {
              "internalType": "uint256",
              "name": "publishedResearches",
              "type": "uint256"
            },
            {
              "internalType": "uint256",
              "name": "lastPublishedAt",
              "type": "uint256"
            },
            {
              "internalType": "uint256",
              "name": "lastCalculatorItemAt",
              "type": "uint256"
            },
            {
              "internalType": "uint256",
              "name": "createdAt",
              "type": "uint256"
            }
          ],
          "internalType": "struct Researcher",
          "name": "",
          "type": "tuple"
        }
      ],
      "stateMutability": "nonpayable",
      "type": "function"
    },
    {
      "inputs": [
        {
          "internalType": "address",
          "name": "",
          "type": "address"
        }
      ],
      "name": "allowedCallers",
      "outputs": [
        {
          "internalType": "bool",
          "name": "",
          "type": "bool"
        }
      ],
      "stateMutability": "view",
      "type": "function"
    },
    {
      "inputs": [
        {
          "internalType": "uint256",
          "name": "",
          "type": "uint256"
        }
      ],
      "name": "calculatorItems",
      "outputs": [
        {
          "internalType": "uint256",
          "name": "id",
          "type": "uint256"
        },
        {
          "internalType": "address",
          "name": "createdBy",
          "type": "address"
        },
        {
          "internalType": "string",
          "name": "title",
          "type": "string"
        },
        {
          "internalType": "string",
          "name": "unit",
          "type": "string"
        },
        {
          "internalType": "string",
          "name": "justification",
          "type": "string"
        },
        {
          "internalType": "uint256",
          "name": "carbonImpact",
          "type": "uint256"
        }
      ],
      "stateMutability": "view",
      "type": "function"
    },
    {
      "inputs": [],
      "name": "calculatorItemsCount",
      "outputs": [
        {
          "internalType": "uint256",
          "name": "",
          "type": "uint256"
        }
      ],
      "stateMutability": "view",
      "type": "function"
    },
    {
      "inputs": [
        {
          "internalType": "uint256",
          "name": "totalLevels",
          "type": "uint256"
        },
        {
          "internalType": "uint256",
          "name": "totalUsers",
          "type": "uint256"
        },
        {
          "internalType": "uint256",
          "name": "userLevels",
          "type": "uint256"
        }
      ],
      "name": "canInvite",
      "outputs": [
        {
          "internalType": "bool",
          "name": "",
          "type": "bool"
        }
      ],
      "stateMutability": "pure",
      "type": "function"
    },
    {
      "inputs": [
        {
          "internalType": "address",
          "name": "addr",
          "type": "address"
        }
      ],
      "name": "canSendInvite",
      "outputs": [
        {
          "internalType": "bool",
          "name": "",
          "type": "bool"
        }
      ],
      "stateMutability": "view",
      "type": "function"
    },
    {
      "inputs": [
        {
          "internalType": "uint256",
          "name": "id",
          "type": "uint256"
        }
      ],
      "name": "getCalculatorItem",
      "outputs": [
        {
          "components": [
            {
              "internalType": "uint256",
              "name": "id",
              "type": "uint256"
            },
            {
              "internalType": "address",
              "name": "createdBy",
              "type": "address"
            },
            {
              "internalType": "string",
              "name": "title",
              "type": "string"
            },
            {
              "internalType": "string",
              "name": "unit",
              "type": "string"
            },
            {
              "internalType": "string",
              "name": "justification",
              "type": "string"
            },
            {
              "internalType": "uint256",
              "name": "carbonImpact",
              "type": "uint256"
            }
          ],
          "internalType": "struct CalculatorItem",
          "name": "",
          "type": "tuple"
        }
      ],
      "stateMutability": "view",
      "type": "function"
    },
    {
      "inputs": [
        {
          "internalType": "address",
          "name": "addr",
          "type": "address"
        }
      ],
      "name": "getResearcher",
      "outputs": [
        {
          "components": [
            {
              "internalType": "uint256",
              "name": "id",
              "type": "uint256"
            },
            {
              "internalType": "address",
              "name": "researcherWallet",
              "type": "address"
            },
            {
              "internalType": "string",
              "name": "name",
              "type": "string"
            },
            {
              "components": [
                {
                  "internalType": "uint256",
                  "name": "level",
                  "type": "uint256"
                },
                {
                  "internalType": "uint256",
                  "name": "currentEra",
                  "type": "uint256"
                }
              ],
              "internalType": "struct Pool",
              "name": "pool",
              "type": "tuple"
            },
            {
              "internalType": "string",
              "name": "proofPhoto",
              "type": "string"
            },
            {
              "internalType": "uint256",
              "name": "publishedResearches",
              "type": "uint256"
            },
            {
              "internalType": "uint256",
              "name": "lastPublishedAt",
              "type": "uint256"
            },
            {
              "internalType": "uint256",
              "name": "lastCalculatorItemAt",
              "type": "uint256"
            },
            {
              "internalType": "uint256",
              "name": "createdAt",
              "type": "uint256"
            }
          ],
          "internalType": "struct Researcher",
          "name": "",
          "type": "tuple"
        }
      ],
      "stateMutability": "view",
      "type": "function"
    },
    {
      "inputs": [
        {
          "internalType": "address",
          "name": "caller",
          "type": "address"
        }
      ],
      "name": "isAllowedCaller",
      "outputs": [
        {
          "internalType": "bool",
          "name": "",
          "type": "bool"
        }
      ],
      "stateMutability": "view",
      "type": "function"
    },
    {
      "inputs": [
        {
          "internalType": "address",
          "name": "allowed",
          "type": "address"
        }
      ],
      "name": "newAllowedCaller",
      "outputs": [],
      "stateMutability": "nonpayable",
      "type": "function"
    },
    {
      "inputs": [],
      "name": "nextEraIn",
      "outputs": [
        {
          "internalType": "uint256",
          "name": "",
          "type": "uint256"
        }
      ],
      "stateMutability": "view",
      "type": "function"
    },
    {
      "inputs": [],
      "name": "owner",
      "outputs": [
        {
          "internalType": "address",
          "name": "",
          "type": "address"
        }
      ],
      "stateMutability": "view",
      "type": "function"
    },
    {
      "inputs": [
        {
          "internalType": "address",
          "name": "",
          "type": "address"
        },
        {
          "internalType": "uint256",
          "name": "",
          "type": "uint256"
        }
      ],
      "name": "penalties",
      "outputs": [
        {
          "internalType": "uint256",
          "name": "researchId",
          "type": "uint256"
        }
      ],
      "stateMutability": "view",
      "type": "function"
    },
    {
      "inputs": [
        {
          "internalType": "address",
          "name": "addr",
          "type": "address"
        },
        {
          "internalType": "uint256",
          "name": "removeSomeLevels",
          "type": "uint256"
        }
      ],
      "name": "removePoolLevels",
      "outputs": [],
      "stateMutability": "nonpayable",
      "type": "function"
    },
    {
      "inputs": [],
      "name": "renounceOwnership",
      "outputs": [],
      "stateMutability": "nonpayable",
      "type": "function"
    },
    {
      "inputs": [
        {
          "internalType": "address",
          "name": "addr",
          "type": "address"
        }
      ],
      "name": "researcherExists",
      "outputs": [
        {
          "internalType": "bool",
          "name": "",
          "type": "bool"
        }
      ],
      "stateMutability": "view",
      "type": "function"
    },
    {
      "inputs": [
        {
          "internalType": "uint256",
          "name": "",
          "type": "uint256"
        }
      ],
      "name": "researchersAddress",
      "outputs": [
        {
          "internalType": "address",
          "name": "",
          "type": "address"
        }
      ],
      "stateMutability": "view",
      "type": "function"
    },
    {
      "inputs": [
        {
          "internalType": "uint256",
          "name": "",
          "type": "uint256"
        }
      ],
      "name": "researches",
      "outputs": [
        {
          "internalType": "uint256",
          "name": "id",
          "type": "uint256"
        },
        {
          "internalType": "uint256",
          "name": "era",
          "type": "uint256"
        },
        {
          "internalType": "address",
          "name": "createdBy",
          "type": "address"
        },
        {
          "internalType": "string",
          "name": "title",
          "type": "string"
        },
        {
          "internalType": "string",
          "name": "thesis",
          "type": "string"
        },
        {
          "internalType": "string",
          "name": "file",
          "type": "string"
        },
        {
          "internalType": "uint256",
          "name": "validationsCount",
          "type": "uint256"
        },
        {
          "internalType": "bool",
          "name": "valid",
          "type": "bool"
        },
        {
          "internalType": "uint256",
          "name": "invalidatedAt",
          "type": "uint256"
        },
        {
          "internalType": "uint256",
          "name": "createdAtBlock",
          "type": "uint256"
        }
      ],
      "stateMutability": "view",
      "type": "function"
    },
    {
      "inputs": [],
      "name": "researchesCount",
      "outputs": [
        {
          "internalType": "uint256",
          "name": "",
          "type": "uint256"
        }
      ],
      "stateMutability": "view",
      "type": "function"
    },
    {
      "inputs": [],
      "name": "researchesTotalCount",
      "outputs": [
        {
          "internalType": "uint256",
          "name": "",
          "type": "uint256"
        }
      ],
      "stateMutability": "view",
      "type": "function"
    },
    {
      "inputs": [
        {
          "internalType": "address",
          "name": "addr",
          "type": "address"
        }
      ],
      "name": "totalPenalties",
      "outputs": [
        {
          "internalType": "uint256",
          "name": "",
          "type": "uint256"
        }
      ],
      "stateMutability": "view",
      "type": "function"
    },
    {
      "inputs": [
        {
          "internalType": "address",
          "name": "newOwner",
          "type": "address"
        }
      ],
      "name": "transferOwnership",
      "outputs": [],
      "stateMutability": "nonpayable",
      "type": "function"
    },
    {
      "inputs": [],
      "name": "withdraw",
      "outputs": [],
      "stateMutability": "nonpayable",
      "type": "function"
    }
  ],
  "bytecode": "0x60e060405234801561001057600080fd5b50604051614df3380380614df383398181016040528101906100329190610299565b61004e61004361013460201b60201c565b61013c60201b60201c565b85600760006101000a81548173ffffffffffffffffffffffffffffffffffffffff021916908373ffffffffffffffffffffffffffffffffffffffff16021790555084600860006101000a81548173ffffffffffffffffffffffffffffffffffffffff021916908373ffffffffffffffffffffffffffffffffffffffff16021790555083600960006101000a81548173ffffffffffffffffffffffffffffffffffffffff021916908373ffffffffffffffffffffffffffffffffffffffff16021790555082608081815250508160a081815250508060c08181525050505050505050610326565b600033905090565b60008060009054906101000a900473ffffffffffffffffffffffffffffffffffffffff169050816000806101000a81548173ffffffffffffffffffffffffffffffffffffffff021916908373ffffffffffffffffffffffffffffffffffffffff1602179055508173ffffffffffffffffffffffffffffffffffffffff168173ffffffffffffffffffffffffffffffffffffffff167f8be0079c531659141344cd1fd0a4f28419497f9722a3daafe3b4186f6b6457e060405160405180910390a35050565b600080fd5b600073ffffffffffffffffffffffffffffffffffffffff82169050919050565b600061023082610205565b9050919050565b61024081610225565b811461024b57600080fd5b50565b60008151905061025d81610237565b92915050565b6000819050919050565b61027681610263565b811461028157600080fd5b50565b6000815190506102938161026d565b92915050565b60008060008060008060c087890312156102b6576102b5610200565b5b60006102c489828a0161024e565b96505060206102d589828a0161024e565b95505060406102e689828a0161024e565b94505060606102f789828a01610284565b935050608061030889828a01610284565b92505060a061031989828a01610284565b9150509295509295509295565b60805160a05160c051614a90610363600039600081816120ef0152612b53015260006123ef015260008181612fe901526133150152614a906000f3fe608060405234801561001057600080fd5b50600436106101cf5760003560e01c80637b33415411610104578063a6801258116100a2578063c77c1ce611610071578063c77c1ce614610578578063e7eba4c2146105a8578063e8a6a922146105d8578063f2fde38b146105f4576101cf565b8063a6801258146104ca578063b43f070a146104fa578063b702523b14610518578063b932c8b714610548576101cf565b80638f93716f116100de5780638f93716f1461043057806397705d601461044c5780639eaf666f1461046a578063a58273c81461049a576101cf565b80637b334154146103c65780638b2b80e2146103f65780638da5cb5b14610412576101cf565b8063406458f2116101715780635f1f65871161014b5780635f1f65871461031e5780635f7d0704146103535780635fa71c281461038c578063715018a6146103bc576101cf565b8063406458f2146102c457806352d3ea9d146102e2578063582256f114610300576101cf565b80631e6dffc2116101ad5780631e6dffc21461023e5780632076267b1461026e5780633270f4ad1461029e5780633ccfd60b146102ba576101cf565b80630eaf485c146101d457806318ad5c9a146101f25780631b63a43c1461020e575b600080fd5b6101dc610610565b6040516101e99190613447565b60405180910390f35b61020c60048036038101906102079190613500565b610616565b005b61022860048036038101906102239190613500565b6109d5565b6040516102359190613447565b60405180910390f35b61025860048036038101906102539190613540565b610af3565b6040516102659190613588565b60405180910390f35b61028860048036038101906102839190613540565b610b4d565b6040516102959190613447565b60405180910390f35b6102b860048036038101906102b391906136e9565b610b99565b005b6102c2611058565b005b6102cc61152f565b6040516102d99190613447565b60405180910390f35b6102ea611535565b6040516102f79190613447565b60405180910390f35b61030861153b565b6040516103159190613447565b60405180910390f35b610338600480360381019061033391906137a4565b6115e5565b60405161034a9695949392919061385f565b60405180910390f35b61036d600480360381019061036891906137a4565b6117d9565b6040516103839a999897969594939291906138d5565b60405180910390f35b6103a660048036038101906103a19190613500565b6119f2565b6040516103b39190613447565b60405180910390f35b6103c4611a29565b005b6103e060048036038101906103db9190613540565b611a3d565b6040516103ed9190613588565b60405180910390f35b610410600480360381019061040b9190613986565b611a5d565b005b61041a612062565b60405161042791906139e2565b60405180910390f35b61044a60048036038101906104459190613540565b61208b565b005b6104546120ed565b6040516104619190613447565b60405180910390f35b610484600480360381019061047f91906139fd565b612111565b6040516104919190613588565b60405180910390f35b6104b460048036038101906104af91906137a4565b61214a565b6040516104c19190613b4f565b60405180910390f35b6104e460048036038101906104df9190613540565b612397565b6040516104f19190613588565b60405180910390f35b6105026123ed565b60405161050f9190613447565b60405180910390f35b610532600480360381019061052d9190613b71565b612411565b60405161053f9190613ce5565b60405180910390f35b610562600480360381019061055d91906137a4565b612734565b60405161056f91906139e2565b60405180910390f35b610592600480360381019061058d9190613540565b612767565b60405161059f9190613588565b60405180910390f35b6105c260048036038101906105bd9190613540565b612845565b6040516105cf9190613ce5565b60405180910390f35b6105f260048036038101906105ed9190613d07565b612a73565b005b61060e60048036038101906106099190613540565b612ec0565b005b600c5481565b600160003373ffffffffffffffffffffffffffffffffffffffff1673ffffffffffffffffffffffffffffffffffffffff16815260200190815260200160002060009054906101000a900460ff166106a2576040517f08c379a000000000000000000000000000000000000000000000000000000000815260040161069990613dfa565b60405180910390fd5b6000600260008473ffffffffffffffffffffffffffffffffffffffff1673ffffffffffffffffffffffffffffffffffffffff16815260200190815260200160002060405180610120016040529081600082015481526020016001820160009054906101000a900473ffffffffffffffffffffffffffffffffffffffff1673ffffffffffffffffffffffffffffffffffffffff1673ffffffffffffffffffffffffffffffffffffffff16815260200160028201805461075f90613e49565b80601f016020809104026020016040519081016040528092919081815260200182805461078b90613e49565b80156107d85780601f106107ad576101008083540402835291602001916107d8565b820191906000526020600020905b8154815290600101906020018083116107bb57829003601f168201915b505050505081526020016003820160405180604001604052908160008201548152602001600182015481525050815260200160058201805461081990613e49565b80601f016020809104026020016040519081016040528092919081815260200182805461084590613e49565b80156108925780601f1061086757610100808354040283529160200191610892565b820191906000526020600020905b81548152906001019060200180831161087557829003601f168201915b505050505081526020016006820154815260200160078201548152602001600882015481526020016009820154815250509050600082116108db578060600151600001516108dd565b815b600260008573ffffffffffffffffffffffffffffffffffffffff1673ffffffffffffffffffffffffffffffffffffffff16815260200190815260200160002060030160000160008282546109319190613ea9565b92505081905550600860009054906101000a900473ffffffffffffffffffffffffffffffffffffffff1673ffffffffffffffffffffffffffffffffffffffff1663157ffc528461097f612f43565b856040518463ffffffff1660e01b815260040161099e93929190613edd565b600060405180830381600087803b1580156109b857600080fd5b505af11580156109cc573d6000803e3d6000fd5b50505050505050565b6000600160003373ffffffffffffffffffffffffffffffffffffffff1673ffffffffffffffffffffffffffffffffffffffff16815260200190815260200160002060009054906101000a900460ff16610a63576040517f08c379a0000000000000000000000000000000000000000000000000000000008152600401610a5a90613dfa565b60405180910390fd5b600560008473ffffffffffffffffffffffffffffffffffffffff1673ffffffffffffffffffffffffffffffffffffffff16815260200190815260200160002060405180602001604052808481525090806001815401808255809150506001900390600052602060002001600090919091909150600082015181600001555050610aeb83610b4d565b905092915050565b600080600260008473ffffffffffffffffffffffffffffffffffffffff1673ffffffffffffffffffffffffffffffffffffffff1681526020019081526020016000206002018054610b4390613e49565b9050119050919050565b6000600560008373ffffffffffffffffffffffffffffffffffffffff1673ffffffffffffffffffffffffffffffffffffffff168152602001908152602001600020805490509050919050565b600760009054906101000a900473ffffffffffffffffffffffffffffffffffffffff1673ffffffffffffffffffffffffffffffffffffffff16639497c6086003336040518363ffffffff1660e01b8152600401610bf7929190613f8b565b602060405180830381865afa158015610c14573d6000803e3d6000fd5b505050506040513d601f19601f82011682018060405250810190610c389190613fe0565b610c77576040517f08c379a0000000000000000000000000000000000000000000000000000000008152600401610c6e90614059565b60405180910390fd5b6000600260003373ffffffffffffffffffffffffffffffffffffffff1673ffffffffffffffffffffffffffffffffffffffff16815260200190815260200160002060405180610120016040529081600082015481526020016001820160009054906101000a900473ffffffffffffffffffffffffffffffffffffffff1673ffffffffffffffffffffffffffffffffffffffff1673ffffffffffffffffffffffffffffffffffffffff168152602001600282018054610d3490613e49565b80601f0160208091040260200160405190810160405280929190818152602001828054610d6090613e49565b8015610dad5780601f10610d8257610100808354040283529160200191610dad565b820191906000526020600020905b815481529060010190602001808311610d9057829003601f168201915b5050505050815260200160038201604051806040016040529081600082015481526020016001820154815250508152602001600582018054610dee90613e49565b80601f0160208091040260200160405190810160405280929190818152602001828054610e1a90613e49565b8015610e675780601f10610e3c57610100808354040283529160200191610e67565b820191906000526020600020905b815481529060010190602001808311610e4a57829003601f168201915b505050505081526020016006820154815260200160078201548152602001600882015481526020016009820154815250509050610ea381612fdb565b610ee2576040517f08c379a0000000000000000000000000000000000000000000000000000000008152600401610ed9906140c5565b60405180910390fd5b60006001600c54610ef391906140e5565b905060006040518060c001604052808381526020013373ffffffffffffffffffffffffffffffffffffffff16815260200188815260200187815260200186815260200185815250905080600460008481526020019081526020016000206000820151816000015560208201518160010160006101000a81548173ffffffffffffffffffffffffffffffffffffffff021916908373ffffffffffffffffffffffffffffffffffffffff1602179055506040820151816002019081610fb691906142c5565b506060820151816003019081610fcc91906142c5565b506080820151816004019081610fe291906142c5565b5060a08201518160050155905050600c600081548092919061100390614397565b919050555043600260003373ffffffffffffffffffffffffffffffffffffffff1673ffffffffffffffffffffffffffffffffffffffff1681526020019081526020016000206008018190555050505050505050565b600760009054906101000a900473ffffffffffffffffffffffffffffffffffffffff1673ffffffffffffffffffffffffffffffffffffffff16639497c6086003336040518363ffffffff1660e01b81526004016110b6929190613f8b565b602060405180830381865afa1580156110d3573d6000803e3d6000fd5b505050506040513d601f19601f820116820180604052508101906110f79190613fe0565b611136576040517f08c379a000000000000000000000000000000000000000000000000000000000815260040161112d9061442b565b60405180910390fd5b6000600260003373ffffffffffffffffffffffffffffffffffffffff1673ffffffffffffffffffffffffffffffffffffffff16815260200190815260200160002060405180610120016040529081600082015481526020016001820160009054906101000a900473ffffffffffffffffffffffffffffffffffffffff1673ffffffffffffffffffffffffffffffffffffffff1673ffffffffffffffffffffffffffffffffffffffff1681526020016002820180546111f390613e49565b80601f016020809104026020016040519081016040528092919081815260200182805461121f90613e49565b801561126c5780601f106112415761010080835404028352916020019161126c565b820191906000526020600020905b81548152906001019060200180831161124f57829003601f168201915b50505050508152602001600382016040518060400160405290816000820154815260200160018201548152505081526020016005820180546112ad90613e49565b80601f01602080910402602001604051908101604052809291908181526020018280546112d990613e49565b80156113265780601f106112fb57610100808354040283529160200191611326565b820191906000526020600020905b81548152906001019060200180831161130957829003601f168201915b50505050508152602001600682015481526020016007820154815260200160088201548152602001600982015481525050905060008160600151602001519050600860009054906101000a900473ffffffffffffffffffffffffffffffffffffffff1673ffffffffffffffffffffffffffffffffffffffff1663fbe85f06826040518263ffffffff1660e01b81526004016113c19190613447565b602060405180830381865afa1580156113de573d6000803e3d6000fd5b505050506040513d601f19601f820116820180604052508101906114029190613fe0565b611441576040517f08c379a000000000000000000000000000000000000000000000000000000000815260040161143890614497565b60405180910390fd5b600260003373ffffffffffffffffffffffffffffffffffffffff1673ffffffffffffffffffffffffffffffffffffffff168152602001908152602001600020600301600101600081548092919061149790614397565b9190505550600860009054906101000a900473ffffffffffffffffffffffffffffffffffffffff1673ffffffffffffffffffffffffffffffffffffffff1663f3fef3a333836040518363ffffffff1660e01b81526004016114f99291906144b7565b600060405180830381600087803b15801561151357600080fd5b505af1158015611527573d6000803e3d6000fd5b505050505050565b600a5481565b600b5481565b6000600860009054906101000a900473ffffffffffffffffffffffffffffffffffffffff1673ffffffffffffffffffffffffffffffffffffffff1663d5ee3eb5611583612f43565b6040518263ffffffff1660e01b815260040161159f9190613447565b602060405180830381865afa1580156115bc573d6000803e3d6000fd5b505050506040513d601f19601f820116820180604052508101906115e09190614516565b905090565b60046020528060005260406000206000915090508060000154908060010160009054906101000a900473ffffffffffffffffffffffffffffffffffffffff169080600201805461163490613e49565b80601f016020809104026020016040519081016040528092919081815260200182805461166090613e49565b80156116ad5780601f10611682576101008083540402835291602001916116ad565b820191906000526020600020905b81548152906001019060200180831161169057829003601f168201915b5050505050908060030180546116c290613e49565b80601f01602080910402602001604051908101604052809291908181526020018280546116ee90613e49565b801561173b5780601f106117105761010080835404028352916020019161173b565b820191906000526020600020905b81548152906001019060200180831161171e57829003601f168201915b50505050509080600401805461175090613e49565b80601f016020809104026020016040519081016040528092919081815260200182805461177c90613e49565b80156117c95780601f1061179e576101008083540402835291602001916117c9565b820191906000526020600020905b8154815290600101906020018083116117ac57829003601f168201915b5050505050908060050154905086565b60036020528060005260406000206000915090508060000154908060010154908060020160009054906101000a900473ffffffffffffffffffffffffffffffffffffffff169080600301805461182e90613e49565b80601f016020809104026020016040519081016040528092919081815260200182805461185a90613e49565b80156118a75780601f1061187c576101008083540402835291602001916118a7565b820191906000526020600020905b81548152906001019060200180831161188a57829003601f168201915b5050505050908060040180546118bc90613e49565b80601f01602080910402602001604051908101604052809291908181526020018280546118e890613e49565b80156119355780601f1061190a57610100808354040283529160200191611935565b820191906000526020600020905b81548152906001019060200180831161191857829003601f168201915b50505050509080600501805461194a90613e49565b80601f016020809104026020016040519081016040528092919081815260200182805461197690613e49565b80156119c35780601f10611998576101008083540402835291602001916119c3565b820191906000526020600020905b8154815290600101906020018083116119a657829003601f168201915b5050505050908060060154908060070160009054906101000a900460ff1690806008015490806009015490508a565b60056020528160005260406000208181548110611a0e57600080fd5b90600052602060002001600091509150508060000154905081565b611a3161302c565b611a3b60006130aa565b565b60016020528060005260406000206000915054906101000a900460ff1681565b600760009054906101000a900473ffffffffffffffffffffffffffffffffffffffff1673ffffffffffffffffffffffffffffffffffffffff16639497c6086008336040518363ffffffff1660e01b8152600401611abb929190613f8b565b602060405180830381865afa158015611ad8573d6000803e3d6000fd5b505050506040513d601f19601f82011682018060405250810190611afc9190613fe0565b611b3b576040517f08c379a0000000000000000000000000000000000000000000000000000000008152600401611b329061458f565b60405180910390fd5b6000600360008481526020019081526020016000206040518061014001604052908160008201548152602001600182015481526020016002820160009054906101000a900473ffffffffffffffffffffffffffffffffffffffff1673ffffffffffffffffffffffffffffffffffffffff1673ffffffffffffffffffffffffffffffffffffffff168152602001600382018054611bd690613e49565b80601f0160208091040260200160405190810160405280929190818152602001828054611c0290613e49565b8015611c4f5780601f10611c2457610100808354040283529160200191611c4f565b820191906000526020600020905b815481529060010190602001808311611c3257829003601f168201915b50505050508152602001600482018054611c6890613e49565b80601f0160208091040260200160405190810160405280929190818152602001828054611c9490613e49565b8015611ce15780601f10611cb657610100808354040283529160200191611ce1565b820191906000526020600020905b815481529060010190602001808311611cc457829003601f168201915b50505050508152602001600582018054611cfa90613e49565b80601f0160208091040260200160405190810160405280929190818152602001828054611d2690613e49565b8015611d735780601f10611d4857610100808354040283529160200191611d73565b820191906000526020600020905b815481529060010190602001808311611d5657829003601f168201915b50505050508152602001600682015481526020016007820160009054906101000a900460ff161515151581526020016008820154815260200160098201548152505090508060e001518015611dd25750611dcb612f43565b8160200151145b611e11576040517f08c379a0000000000000000000000000000000000000000000000000000000008152600401611e08906145fb565b60405180910390fd5b60018160c001818151611e2491906140e5565b915081815250508060036000858152602001908152602001600020600082015181600001556020820151816001015560408201518160020160006101000a81548173ffffffffffffffffffffffffffffffffffffffff021916908373ffffffffffffffffffffffffffffffffffffffff1602179055506060820151816003019081611eaf91906142c5565b506080820151816004019081611ec591906142c5565b5060a0820151816005019081611edb91906142c5565b5060c0820151816006015560e08201518160070160006101000a81548160ff021916908315150217905550610100820151816008015561012082015181600901559050506000600960009054906101000a900473ffffffffffffffffffffffffffffffffffffffff1673ffffffffffffffffffffffffffffffffffffffff166384f0f65f6040518163ffffffff1660e01b8152600401602060405180830381865afa158015611f8e573d6000803e3d6000fd5b505050506040513d601f19601f82011682018060405250810190611fb29190614630565b8260c00151101590508015611fcb57611fca8261316e565b5b600960009054906101000a900473ffffffffffffffffffffffffffffffffffffffff1673ffffffffffffffffffffffffffffffffffffffff1663e5899bc38385336040518463ffffffff1660e01b815260040161202a93929190614754565b600060405180830381600087803b15801561204457600080fd5b505af1158015612058573d6000803e3d6000fd5b5050505050505050565b60008060009054906101000a900473ffffffffffffffffffffffffffffffffffffffff16905090565b61209361302c565b60018060008373ffffffffffffffffffffffffffffffffffffffff1673ffffffffffffffffffffffffffffffffffffffff16815260200190815260200160002060006101000a81548160ff02191690831515021790555050565b7f000000000000000000000000000000000000000000000000000000000000000081565b60008061213a600161212c868861329d90919063ffffffff16565b6132b390919063ffffffff16565b9050808310159150509392505050565b612152613360565b600460008381526020019081526020016000206040518060c0016040529081600082015481526020016001820160009054906101000a900473ffffffffffffffffffffffffffffffffffffffff1673ffffffffffffffffffffffffffffffffffffffff1673ffffffffffffffffffffffffffffffffffffffff1681526020016002820180546121e090613e49565b80601f016020809104026020016040519081016040528092919081815260200182805461220c90613e49565b80156122595780601f1061222e57610100808354040283529160200191612259565b820191906000526020600020905b81548152906001019060200180831161223c57829003601f168201915b5050505050815260200160038201805461227290613e49565b80601f016020809104026020016040519081016040528092919081815260200182805461229e90613e49565b80156122eb5780601f106122c0576101008083540402835291602001916122eb565b820191906000526020600020905b8154815290600101906020018083116122ce57829003601f168201915b5050505050815260200160048201805461230490613e49565b80601f016020809104026020016040519081016040528092919081815260200182805461233090613e49565b801561237d5780601f106123525761010080835404028352916020019161237d565b820191906000526020600020905b81548152906001019060200180831161236057829003601f168201915b505050505081526020016005820154815250509050919050565b6000600160008373ffffffffffffffffffffffffffffffffffffffff1673ffffffffffffffffffffffffffffffffffffffff16815260200190815260200160002060009054906101000a900460ff169050919050565b7f000000000000000000000000000000000000000000000000000000000000000081565b6124196133ac565b60006001600760009054906101000a900473ffffffffffffffffffffffffffffffffffffffff1673ffffffffffffffffffffffffffffffffffffffff16631eb2c12060036040518263ffffffff1660e01b81526004016124799190614799565b602060405180830381865afa158015612496573d6000803e3d6000fd5b505050506040513d601f19601f820116820180604052508101906124ba9190614630565b6124c491906140e5565b905060006040518061012001604052808381526020013373ffffffffffffffffffffffffffffffffffffffff168152602001868152602001604051806040016040528060008152602001612516612f43565b815250815260200185815260200160008152602001600081526020016000815260200143815250905080600260003373ffffffffffffffffffffffffffffffffffffffff1673ffffffffffffffffffffffffffffffffffffffff1681526020019081526020016000206000820151816000015560208201518160010160006101000a81548173ffffffffffffffffffffffffffffffffffffffff021916908373ffffffffffffffffffffffffffffffffffffffff16021790555060408201518160020190816125e591906142c5565b5060608201518160030160008201518160000155602082015181600101555050608082015181600501908161261a91906142c5565b5060a0820151816006015560c0820151816007015560e082015181600801556101008201518160090155905050336006600084815260200190815260200160002060006101000a81548173ffffffffffffffffffffffffffffffffffffffff021916908373ffffffffffffffffffffffffffffffffffffffff160217905550600760009054906101000a900473ffffffffffffffffffffffffffffffffffffffff1673ffffffffffffffffffffffffffffffffffffffff16639c3eead93360036040518363ffffffff1660e01b81526004016126f79291906147b4565b600060405180830381600087803b15801561271157600080fd5b505af1158015612725573d6000803e3d6000fd5b50505050809250505092915050565b60066020528060005260406000206000915054906101000a900473ffffffffffffffffffffffffffffffffffffffff1681565b60008061277383612845565b9050600081600001511161278b576000915050612840565b61283c600b54600760009054906101000a900473ffffffffffffffffffffffffffffffffffffffff1673ffffffffffffffffffffffffffffffffffffffff16631eb2c12060036040518263ffffffff1660e01b81526004016127ed9190614799565b602060405180830381865afa15801561280a573d6000803e3d6000fd5b505050506040513d601f19601f8201168201806040525081019061282e9190614630565b836060015160000151612111565b9150505b919050565b61284d6133ac565b600260008373ffffffffffffffffffffffffffffffffffffffff1673ffffffffffffffffffffffffffffffffffffffff16815260200190815260200160002060405180610120016040529081600082015481526020016001820160009054906101000a900473ffffffffffffffffffffffffffffffffffffffff1673ffffffffffffffffffffffffffffffffffffffff1673ffffffffffffffffffffffffffffffffffffffff16815260200160028201805461290890613e49565b80601f016020809104026020016040519081016040528092919081815260200182805461293490613e49565b80156129815780601f1061295657610100808354040283529160200191612981565b820191906000526020600020905b81548152906001019060200180831161296457829003601f168201915b50505050508152602001600382016040518060400160405290816000820154815260200160018201548152505081526020016005820180546129c290613e49565b80601f01602080910402602001604051908101604052809291908181526020018280546129ee90613e49565b8015612a3b5780601f10612a1057610100808354040283529160200191612a3b565b820191906000526020600020905b815481529060010190602001808311612a1e57829003601f168201915b505050505081526020016006820154815260200160078201548152602001600882015481526020016009820154815250509050919050565b600760009054906101000a900473ffffffffffffffffffffffffffffffffffffffff1673ffffffffffffffffffffffffffffffffffffffff16639497c6086003336040518363ffffffff1660e01b8152600401612ad1929190613f8b565b602060405180830381865afa158015612aee573d6000803e3d6000fd5b505050506040513d601f19601f82011682018060405250810190612b129190613fe0565b612b51576040517f08c379a0000000000000000000000000000000000000000000000000000000008152600401612b4890614059565b60405180910390fd5b7f0000000000000000000000000000000000000000000000000000000000000000612b7a61153b565b11612bba576040517f08c379a0000000000000000000000000000000000000000000000000000000008152600401612bb19061484f565b60405180910390fd5b612bc3336132c9565b612c02576040517f08c379a0000000000000000000000000000000000000000000000000000000008152600401612bf9906140c5565b60405180910390fd5b6000600260003373ffffffffffffffffffffffffffffffffffffffff1673ffffffffffffffffffffffffffffffffffffffff168152602001908152602001600020905060006001600a54612c5691906140e5565b90506000604051806101400160405280838152602001612c74612f43565b81526020013373ffffffffffffffffffffffffffffffffffffffff16815260200187815260200186815260200185815260200160008152602001600115158152602001600081526020014381525090508060036000848152602001908152602001600020600082015181600001556020820151816001015560408201518160020160006101000a81548173ffffffffffffffffffffffffffffffffffffffff021916908373ffffffffffffffffffffffffffffffffffffffff1602179055506060820151816003019081612d4891906142c5565b506080820151816004019081612d5e91906142c5565b5060a0820151816005019081612d7491906142c5565b5060c0820151816006015560e08201518160070160006101000a81548160ff02191690831515021790555061010082015181600801556101208201518160090155905050600a6000815480929190612dcb90614397565b9190505550600b6000815480929190612de390614397565b9190505550826006016000815480929190612dfd90614397565b9190505550438360070181905550826003016000016000815480929190612e2390614397565b9190505550600860009054906101000a900473ffffffffffffffffffffffffffffffffffffffff1673ffffffffffffffffffffffffffffffffffffffff166352b8d3ed3360016040518363ffffffff1660e01b8152600401612e869291906148aa565b600060405180830381600087803b158015612ea057600080fd5b505af1158015612eb4573d6000803e3d6000fd5b50505050505050505050565b612ec861302c565b600073ffffffffffffffffffffffffffffffffffffffff168173ffffffffffffffffffffffffffffffffffffffff1603612f37576040517f08c379a0000000000000000000000000000000000000000000000000000000008152600401612f2e90614945565b60405180910390fd5b612f40816130aa565b50565b6000600860009054906101000a900473ffffffffffffffffffffffffffffffffffffffff1673ffffffffffffffffffffffffffffffffffffffff1663ed0df79e6040518163ffffffff1660e01b8152600401602060405180830381865afa158015612fb2573d6000803e3d6000fd5b505050506040513d601f19601f82011682018060405250810190612fd69190614630565b905090565b6000808260e00151905060007f00000000000000000000000000000000000000000000000000000000000000008261301391906140e5565b4311905080806130235750600082145b92505050919050565b613034613358565b73ffffffffffffffffffffffffffffffffffffffff16613052612062565b73ffffffffffffffffffffffffffffffffffffffff16146130a8576040517f08c379a000000000000000000000000000000000000000000000000000000000815260040161309f906149b1565b60405180910390fd5b565b60008060009054906101000a900473ffffffffffffffffffffffffffffffffffffffff169050816000806101000a81548173ffffffffffffffffffffffffffffffffffffffff021916908373ffffffffffffffffffffffffffffffffffffffff1602179055508173ffffffffffffffffffffffffffffffffffffffff168173ffffffffffffffffffffffffffffffffffffffff167f8be0079c531659141344cd1fd0a4f28419497f9722a3daafe3b4186f6b6457e060405160405180910390a35050565b600b6000815480929190613181906149d1565b919050555060008160e00190151590811515815250504381610100018181525050806003600083600001518152602001908152602001600020600082015181600001556020820151816001015560408201518160020160006101000a81548173ffffffffffffffffffffffffffffffffffffffff021916908373ffffffffffffffffffffffffffffffffffffffff160217905550606082015181600301908161322a91906142c5565b50608082015181600401908161324091906142c5565b5060a082015181600501908161325691906142c5565b5060c0820151816006015560e08201518160070160006101000a81548160ff0219169083151502179055506101008201518160080155610120820151816009015590505050565b600081836132ab9190614a29565b905092915050565b600081836132c191906140e5565b905092915050565b600080600260008473ffffffffffffffffffffffffffffffffffffffff1673ffffffffffffffffffffffffffffffffffffffff16815260200190815260200160002060070154905060007f00000000000000000000000000000000000000000000000000000000000000008261333f91906140e5565b43119050808061334f5750600082145b92505050919050565b600033905090565b6040518060c0016040528060008152602001600073ffffffffffffffffffffffffffffffffffffffff168152602001606081526020016060815260200160608152602001600081525090565b60405180610120016040528060008152602001600073ffffffffffffffffffffffffffffffffffffffff168152602001606081526020016133eb613414565b815260200160608152602001600081526020016000815260200160008152602001600081525090565b604051806040016040528060008152602001600081525090565b6000819050919050565b6134418161342e565b82525050565b600060208201905061345c6000830184613438565b92915050565b6000604051905090565b600080fd5b600080fd5b600073ffffffffffffffffffffffffffffffffffffffff82169050919050565b60006134a182613476565b9050919050565b6134b181613496565b81146134bc57600080fd5b50565b6000813590506134ce816134a8565b92915050565b6134dd8161342e565b81146134e857600080fd5b50565b6000813590506134fa816134d4565b92915050565b600080604083850312156135175761351661346c565b5b6000613525858286016134bf565b9250506020613536858286016134eb565b9150509250929050565b6000602082840312156135565761355561346c565b5b6000613564848285016134bf565b91505092915050565b60008115159050919050565b6135828161356d565b82525050565b600060208201905061359d6000830184613579565b92915050565b600080fd5b600080fd5b6000601f19601f8301169050919050565b7f4e487b7100000000000000000000000000000000000000000000000000000000600052604160045260246000fd5b6135f6826135ad565b810181811067ffffffffffffffff82111715613615576136146135be565b5b80604052505050565b6000613628613462565b905061363482826135ed565b919050565b600067ffffffffffffffff821115613654576136536135be565b5b61365d826135ad565b9050602081019050919050565b82818337600083830152505050565b600061368c61368784613639565b61361e565b9050828152602081018484840111156136a8576136a76135a8565b5b6136b384828561366a565b509392505050565b600082601f8301126136d0576136cf6135a3565b5b81356136e0848260208601613679565b91505092915050565b600080600080608085870312156137035761370261346c565b5b600085013567ffffffffffffffff81111561372157613720613471565b5b61372d878288016136bb565b945050602085013567ffffffffffffffff81111561374e5761374d613471565b5b61375a878288016136bb565b935050604085013567ffffffffffffffff81111561377b5761377a613471565b5b613787878288016136bb565b9250506060613798878288016134eb565b91505092959194509250565b6000602082840312156137ba576137b961346c565b5b60006137c8848285016134eb565b91505092915050565b6137da81613496565b82525050565b600081519050919050565b600082825260208201905092915050565b60005b8381101561381a5780820151818401526020810190506137ff565b60008484015250505050565b6000613831826137e0565b61383b81856137eb565b935061384b8185602086016137fc565b613854816135ad565b840191505092915050565b600060c0820190506138746000830189613438565b61388160208301886137d1565b81810360408301526138938187613826565b905081810360608301526138a78186613826565b905081810360808301526138bb8185613826565b90506138ca60a0830184613438565b979650505050505050565b6000610140820190506138eb600083018d613438565b6138f8602083018c613438565b613905604083018b6137d1565b8181036060830152613917818a613826565b9050818103608083015261392b8189613826565b905081810360a083015261393f8188613826565b905061394e60c0830187613438565b61395b60e0830186613579565b613969610100830185613438565b613977610120830184613438565b9b9a5050505050505050505050565b6000806040838503121561399d5761399c61346c565b5b60006139ab858286016134eb565b925050602083013567ffffffffffffffff8111156139cc576139cb613471565b5b6139d8858286016136bb565b9150509250929050565b60006020820190506139f760008301846137d1565b92915050565b600080600060608486031215613a1657613a1561346c565b5b6000613a24868287016134eb565b9350506020613a35868287016134eb565b9250506040613a46868287016134eb565b9150509250925092565b613a598161342e565b82525050565b613a6881613496565b82525050565b600082825260208201905092915050565b6000613a8a826137e0565b613a948185613a6e565b9350613aa48185602086016137fc565b613aad816135ad565b840191505092915050565b600060c083016000830151613ad06000860182613a50565b506020830151613ae36020860182613a5f565b5060408301518482036040860152613afb8282613a7f565b91505060608301518482036060860152613b158282613a7f565b91505060808301518482036080860152613b2f8282613a7f565b91505060a0830151613b4460a0860182613a50565b508091505092915050565b60006020820190508181036000830152613b698184613ab8565b905092915050565b60008060408385031215613b8857613b8761346c565b5b600083013567ffffffffffffffff811115613ba657613ba5613471565b5b613bb2858286016136bb565b925050602083013567ffffffffffffffff811115613bd357613bd2613471565b5b613bdf858286016136bb565b9150509250929050565b604082016000820151613bff6000850182613a50565b506020820151613c126020850182613a50565b50505050565b600061014083016000830151613c316000860182613a50565b506020830151613c446020860182613a5f565b5060408301518482036040860152613c5c8282613a7f565b9150506060830151613c716060860182613be9565b50608083015184820360a0860152613c898282613a7f565b91505060a0830151613c9e60c0860182613a50565b5060c0830151613cb160e0860182613a50565b5060e0830151613cc5610100860182613a50565b50610100830151613cda610120860182613a50565b508091505092915050565b60006020820190508181036000830152613cff8184613c18565b905092915050565b600080600060608486031215613d2057613d1f61346c565b5b600084013567ffffffffffffffff811115613d3e57613d3d613471565b5b613d4a868287016136bb565b935050602084013567ffffffffffffffff811115613d6b57613d6a613471565b5b613d77868287016136bb565b925050604084013567ffffffffffffffff811115613d9857613d97613471565b5b613da4868287016136bb565b9150509250925092565b7f4e6f7420616c6c6f7765642063616c6c65720000000000000000000000000000600082015250565b6000613de46012836137eb565b9150613def82613dae565b602082019050919050565b60006020820190508181036000830152613e1381613dd7565b9050919050565b7f4e487b7100000000000000000000000000000000000000000000000000000000600052602260045260246000fd5b60006002820490506001821680613e6157607f821691505b602082108103613e7457613e73613e1a565b5b50919050565b7f4e487b7100000000000000000000000000000000000000000000000000000000600052601160045260246000fd5b6000613eb48261342e565b9150613ebf8361342e565b9250828203905081811115613ed757613ed6613e7a565b5b92915050565b6000606082019050613ef260008301866137d1565b613eff6020830185613438565b613f0c6040830184613438565b949350505050565b7f4e487b7100000000000000000000000000000000000000000000000000000000600052602160045260246000fd5b600a8110613f5457613f53613f14565b5b50565b6000819050613f6582613f43565b919050565b6000613f7582613f57565b9050919050565b613f8581613f6a565b82525050565b6000604082019050613fa06000830185613f7c565b613fad60208301846137d1565b9392505050565b613fbd8161356d565b8114613fc857600080fd5b50565b600081519050613fda81613fb4565b92915050565b600060208284031215613ff657613ff561346c565b5b600061400484828501613fcb565b91505092915050565b7f4f6e6c7920616c6c6f77656420746f2072657365617263686572730000000000600082015250565b6000614043601b836137eb565b915061404e8261400d565b602082019050919050565b6000602082019050818103600083015261407281614036565b9050919050565b7f43616e2774207075626c69736820796574000000000000000000000000000000600082015250565b60006140af6011836137eb565b91506140ba82614079565b602082019050919050565b600060208201905081810360008301526140de816140a2565b9050919050565b60006140f08261342e565b91506140fb8361342e565b925082820190508082111561411357614112613e7a565b5b92915050565b60008190508160005260206000209050919050565b60006020601f8301049050919050565b600082821b905092915050565b60006008830261417b7fffffffffffffffffffffffffffffffffffffffffffffffffffffffffffffffff8261413e565b614185868361413e565b95508019841693508086168417925050509392505050565b6000819050919050565b60006141c26141bd6141b88461342e565b61419d565b61342e565b9050919050565b6000819050919050565b6141dc836141a7565b6141f06141e8826141c9565b84845461414b565b825550505050565b600090565b6142056141f8565b6142108184846141d3565b505050565b5b81811015614234576142296000826141fd565b600181019050614216565b5050565b601f8211156142795761424a81614119565b6142538461412e565b81016020851015614262578190505b61427661426e8561412e565b830182614215565b50505b505050565b600082821c905092915050565b600061429c6000198460080261427e565b1980831691505092915050565b60006142b5838361428b565b9150826002028217905092915050565b6142ce826137e0565b67ffffffffffffffff8111156142e7576142e66135be565b5b6142f18254613e49565b6142fc828285614238565b600060209050601f83116001811461432f576000841561431d578287015190505b61432785826142a9565b86555061438f565b601f19841661433d86614119565b60005b8281101561436557848901518255600182019150602085019450602081019050614340565b86831015614382578489015161437e601f89168261428b565b8355505b6001600288020188555050505b505050505050565b60006143a28261342e565b91507fffffffffffffffffffffffffffffffffffffffffffffffffffffffffffffffff82036143d4576143d3613e7a565b5b600182019050919050565b7f506f6f6c206f6e6c7920746f2072657365617263686572730000000000000000600082015250565b60006144156018836137eb565b9150614420826143df565b602082019050919050565b6000602082019050818103600083015261444481614408565b9050919050565b7f43616e277420617070726f766520776974686472617700000000000000000000600082015250565b60006144816016836137eb565b915061448c8261444b565b602082019050919050565b600060208201905081810360008301526144b081614474565b9050919050565b60006040820190506144cc60008301856137d1565b6144d96020830184613438565b9392505050565b6000819050919050565b6144f3816144e0565b81146144fe57600080fd5b50565b600081519050614510816144ea565b92915050565b60006020828403121561452c5761452b61346c565b5b600061453a84828501614501565b91505092915050565b7f506c656173652072656769737465722061732076616c696461746f7200000000600082015250565b6000614579601c836137eb565b915061458482614543565b602082019050919050565b600060208201905081810360008301526145a88161456c565b9050919050565b7f54686973207265736561726368206973206e6f742056414c4944000000000000600082015250565b60006145e5601a836137eb565b91506145f0826145af565b602082019050919050565b60006020820190508181036000830152614614816145d8565b9050919050565b60008151905061462a816134d4565b92915050565b6000602082840312156146465761464561346c565b5b60006146548482850161461b565b91505092915050565b6146668161356d565b82525050565b6000610140830160008301516146856000860182613a50565b5060208301516146986020860182613a50565b5060408301516146ab6040860182613a5f565b50606083015184820360608601526146c38282613a7f565b915050608083015184820360808601526146dd8282613a7f565b91505060a083015184820360a08601526146f78282613a7f565b91505060c083015161470c60c0860182613a50565b5060e083015161471f60e086018261465d565b50610100830151614734610100860182613a50565b50610120830151614749610120860182613a50565b508091505092915050565b6000606082019050818103600083015261476e818661466c565b905081810360208301526147828185613826565b905061479160408301846137d1565b949350505050565b60006020820190506147ae6000830184613f7c565b92915050565b60006040820190506147c960008301856137d1565b6147d66020830184613f7c565b9392505050565b7f5761697420756e74696c206e6578742065726120746f2061646420726573656160008201527f7263680000000000000000000000000000000000000000000000000000000000602082015250565b60006148396023836137eb565b9150614844826147dd565b604082019050919050565b600060208201905081810360008301526148688161482c565b9050919050565b6000819050919050565b600061489461488f61488a8461486f565b61419d565b61342e565b9050919050565b6148a481614879565b82525050565b60006040820190506148bf60008301856137d1565b6148cc602083018461489b565b9392505050565b7f4f776e61626c653a206e6577206f776e657220697320746865207a65726f206160008201527f6464726573730000000000000000000000000000000000000000000000000000602082015250565b600061492f6026836137eb565b915061493a826148d3565b604082019050919050565b6000602082019050818103600083015261495e81614922565b9050919050565b7f4f776e61626c653a2063616c6c6572206973206e6f7420746865206f776e6572600082015250565b600061499b6020836137eb565b91506149a682614965565b602082019050919050565b600060208201905081810360008301526149ca8161498e565b9050919050565b60006149dc8261342e565b9150600082036149ef576149ee613e7a565b5b600182039050919050565b7f4e487b7100000000000000000000000000000000000000000000000000000000600052601260045260246000fd5b6000614a348261342e565b9150614a3f8361342e565b925082614a4f57614a4e6149fa565b5b82820490509291505056fea264697066735822122004c8ead8b4e5a27bc0e9ea6586d340f4c72b4668811eda1af96dcf70eb939e5564736f6c634300081b0033",
  "linkReferences": {},
  "deployedLinkReferences": {}
}