{
  "_format": "hh-sol-artifact-1",
  "contractName": "SupporterRules",
  "sourceName": "contracts/SupporterRules.sol",
  "abi": [
    {
      "inputs": [
        {
          "internalType": "address",
          "name": "communityRulesAddress",
          "type": "address"
        },
        {
          "internalType": "address",
          "name": "supporterPoolAddress",
          "type": "address"
        },
        {
          "internalType": "address",
          "name": "researcherRulesAddress",
          "type": "address"
        }
      ],
      "stateMutability": "nonpayable",
      "type": "constructor"
    },
    {
      "inputs": [],
      "name": "INVITER_PERCENTAGE",
      "outputs": [
        {
          "internalType": "uint256",
          "name": "",
          "type": "uint256"
        }
      ],
      "stateMutability": "view",
      "type": "function"
    },
    {
      "inputs": [
        {
          "internalType": "string",
          "name": "name",
          "type": "string"
        },
        {
          "internalType": "string",
          "name": "profilePhoto",
          "type": "string"
        }
      ],
      "name": "addSupporter",
      "outputs": [
        {
          "components": [
            {
              "internalType": "uint256",
              "name": "id",
              "type": "uint256"
            },
            {
              "internalType": "address",
              "name": "supporterWallet",
              "type": "address"
            },
            {
              "internalType": "string",
              "name": "name",
              "type": "string"
            },
            {
              "internalType": "string",
              "name": "profilePhoto",
              "type": "string"
            },
            {
              "internalType": "uint256",
              "name": "createdAt",
              "type": "uint256"
            }
          ],
          "internalType": "struct Supporter",
          "name": "",
          "type": "tuple"
        }
      ],
      "stateMutability": "nonpayable",
      "type": "function"
    },
    {
      "inputs": [
        {
          "internalType": "address",
          "name": "",
          "type": "address"
        },
        {
          "internalType": "uint256",
          "name": "",
          "type": "uint256"
        }
      ],
      "name": "calculatorItemCertificates",
      "outputs": [
        {
          "internalType": "uint256",
          "name": "",
          "type": "uint256"
        }
      ],
      "stateMutability": "view",
      "type": "function"
    },
    {
      "inputs": [
        {
          "internalType": "uint256",
          "name": "calculatorItemId",
          "type": "uint256"
        }
      ],
      "name": "declareReductionCommitment",
      "outputs": [],
      "stateMutability": "nonpayable",
      "type": "function"
    },
    {
      "inputs": [
        {
          "internalType": "address",
          "name": "addr",
          "type": "address"
        }
      ],
      "name": "getReductionCommitments",
      "outputs": [
        {
          "internalType": "uint256[]",
          "name": "",
          "type": "uint256[]"
        }
      ],
      "stateMutability": "view",
      "type": "function"
    },
    {
      "inputs": [
        {
          "internalType": "address",
          "name": "addr",
          "type": "address"
        }
      ],
      "name": "getSupporter",
      "outputs": [
        {
          "components": [
            {
              "internalType": "uint256",
              "name": "id",
              "type": "uint256"
            },
            {
              "internalType": "address",
              "name": "supporterWallet",
              "type": "address"
            },
            {
              "internalType": "string",
              "name": "name",
              "type": "string"
            },
            {
              "internalType": "string",
              "name": "profilePhoto",
              "type": "string"
            },
            {
              "internalType": "uint256",
              "name": "createdAt",
              "type": "uint256"
            }
          ],
          "internalType": "struct Supporter",
          "name": "",
          "type": "tuple"
        }
      ],
      "stateMutability": "view",
      "type": "function"
    },
    {
      "inputs": [
        {
          "internalType": "uint256",
          "name": "amount",
          "type": "uint256"
        },
        {
          "internalType": "uint256",
          "name": "calculatorItemId",
          "type": "uint256"
        }
      ],
      "name": "offset",
      "outputs": [],
      "stateMutability": "nonpayable",
      "type": "function"
    },
    {
      "inputs": [
        {
          "internalType": "address",
          "name": "",
          "type": "address"
        },
        {
          "internalType": "uint256",
          "name": "",
          "type": "uint256"
        }
      ],
      "name": "offsetIds",
      "outputs": [
        {
          "internalType": "uint256",
          "name": "id",
          "type": "uint256"
        }
      ],
      "stateMutability": "view",
      "type": "function"
    },
    {
      "inputs": [
        {
          "internalType": "uint256",
          "name": "",
          "type": "uint256"
        }
      ],
      "name": "offsets",
      "outputs": [
        {
          "internalType": "address",
          "name": "supporterAddress",
          "type": "address"
        },
        {
          "internalType": "uint256",
          "name": "createdAt",
          "type": "uint256"
        },
        {
          "internalType": "uint256",
          "name": "amountBurn",
          "type": "uint256"
        },
        {
          "internalType": "uint256",
          "name": "calculatorItemId",
          "type": "uint256"
        }
      ],
      "stateMutability": "view",
      "type": "function"
    },
    {
      "inputs": [],
      "name": "offsetsCount",
      "outputs": [
        {
          "internalType": "uint256",
          "name": "",
          "type": "uint256"
        }
      ],
      "stateMutability": "view",
      "type": "function"
    },
    {
      "inputs": [
        {
          "internalType": "address",
          "name": "",
          "type": "address"
        },
        {
          "internalType": "uint256",
          "name": "",
          "type": "uint256"
        }
      ],
      "name": "publicationIds",
      "outputs": [
        {
          "internalType": "uint256",
          "name": "id",
          "type": "uint256"
        }
      ],
      "stateMutability": "view",
      "type": "function"
    },
    {
      "inputs": [
        {
          "internalType": "uint256",
          "name": "",
          "type": "uint256"
        }
      ],
      "name": "publications",
      "outputs": [
        {
          "internalType": "address",
          "name": "supporterAddress",
          "type": "address"
        },
        {
          "internalType": "uint256",
          "name": "createdAt",
          "type": "uint256"
        },
        {
          "internalType": "uint256",
          "name": "amount",
          "type": "uint256"
        },
        {
          "internalType": "string",
          "name": "description",
          "type": "string"
        },
        {
          "internalType": "string",
          "name": "content",
          "type": "string"
        }
      ],
      "stateMutability": "view",
      "type": "function"
    },
    {
      "inputs": [],
      "name": "publicationsCount",
      "outputs": [
        {
          "internalType": "uint256",
          "name": "",
          "type": "uint256"
        }
      ],
      "stateMutability": "view",
      "type": "function"
    },
    {
      "inputs": [
        {
          "internalType": "uint256",
          "name": "amount",
          "type": "uint256"
        },
        {
          "internalType": "string",
          "name": "description",
          "type": "string"
        },
        {
          "internalType": "string",
          "name": "content",
          "type": "string"
        }
      ],
      "name": "publish",
      "outputs": [],
      "stateMutability": "nonpayable",
      "type": "function"
    },
    {
      "inputs": [
        {
          "internalType": "address",
          "name": "",
          "type": "address"
        },
        {
          "internalType": "uint256",
          "name": "",
          "type": "uint256"
        }
      ],
      "name": "reductionCommitments",
      "outputs": [
        {
          "internalType": "uint256",
          "name": "",
          "type": "uint256"
        }
      ],
      "stateMutability": "view",
      "type": "function"
    },
    {
      "inputs": [
        {
          "internalType": "uint256",
          "name": "",
          "type": "uint256"
        }
      ],
      "name": "supportersAddress",
      "outputs": [
        {
          "internalType": "address",
          "name": "",
          "type": "address"
        }
      ],
      "stateMutability": "view",
      "type": "function"
    },
    {
      "inputs": [
        {
          "internalType": "string",
          "name": "newPhoto",
          "type": "string"
        }
      ],
      "name": "updateProfilePhoto",
      "outputs": [],
      "stateMutability": "nonpayable",
      "type": "function"
    }
  ],
  "bytecode": "0x608060405234801561001057600080fd5b50604051612af4380380612af483398181016040528101906100329190610160565b82600a60006101000a81548173ffffffffffffffffffffffffffffffffffffffff021916908373ffffffffffffffffffffffffffffffffffffffff16021790555081600b60006101000a81548173ffffffffffffffffffffffffffffffffffffffff021916908373ffffffffffffffffffffffffffffffffffffffff16021790555080600c60006101000a81548173ffffffffffffffffffffffffffffffffffffffff021916908373ffffffffffffffffffffffffffffffffffffffff1602179055505050506101b3565b600080fd5b600073ffffffffffffffffffffffffffffffffffffffff82169050919050565b600061012d82610102565b9050919050565b61013d81610122565b811461014857600080fd5b50565b60008151905061015a81610134565b92915050565b600080600060608486031215610179576101786100fd565b5b60006101878682870161014b565b93505060206101988682870161014b565b92505060406101a98682870161014b565b9150509250925092565b612932806101c26000396000f3fe608060405234801561001057600080fd5b506004361061010b5760003560e01c80636c960b0d116100a257806394cea0a31161007157806394cea0a3146102f7578063d4fadeae14610315578063d64da33114610345578063dc02837f14610375578063f0006940146103a55761010b565b80636c960b0d1461025a578063819146191461028a57806385851afc146102bd57806388cc28da146102db5761010b565b80631fd5bbab116100de5780631fd5bbab146101aa578063243c1452146101de578063335525ad1461020e578063591ba3911461022a5761010b565b806305b95fbe146101105780630864e8f6146101405780630d378ffd1461015e5780630e2647ad1461018e575b600080fd5b61012a600480360381019061012591906117d8565b6103c1565b6040516101379190611846565b60405180910390f35b6101486103f4565b6040516101559190611870565b60405180910390f35b610178600480360381019061017391906118b7565b6103fa565b6040516101859190611870565b60405180910390f35b6101a860048036038101906101a39190611a3d565b61042b565b005b6101c460048036038101906101bf91906117d8565b61055b565b6040516101d5959493929190611b05565b60405180910390f35b6101f860048036038101906101f39190611b66565b6106c1565b6040516102059190611cc3565b60405180910390f35b61022860048036038101906102239190611ce5565b61096d565b005b610244600480360381019061023f91906118b7565b610d10565b6040516102519190611870565b60405180910390f35b610274600480360381019061026f91906118b7565b610d47565b6040516102819190611870565b60405180910390f35b6102a4600480360381019061029f91906117d8565b610d6c565b6040516102b49493929190611d25565b60405180910390f35b6102c5610dbc565b6040516102d29190611870565b60405180910390f35b6102f560048036038101906102f091906117d8565b610dc2565b005b6102ff610ff6565b60405161030c9190611870565b60405180910390f35b61032f600480360381019061032a9190611d6a565b610ffb565b60405161033c9190611e46565b60405180910390f35b61035f600480360381019061035a91906118b7565b611092565b60405161036c9190611870565b60405180910390f35b61038f600480360381019061038a9190611d6a565b6110c9565b60405161039c9190611cc3565b60405180910390f35b6103bf60048036038101906103ba9190611e68565b6112af565b005b60036020528060005260406000206000915054906101000a900473ffffffffffffffffffffffffffffffffffffffff1681565b60065481565b6002602052816000526040600020818154811061041657600080fd5b90600052602060002001600091509150505481565b600a60009054906101000a900473ffffffffffffffffffffffffffffffffffffffff1673ffffffffffffffffffffffffffffffffffffffff16639497c6086007336040518363ffffffff1660e01b8152600401610489929190611f6a565b602060405180830381865afa1580156104a6573d6000803e3d6000fd5b505050506040513d601f19601f820116820180604052508101906104ca9190611fcb565b610509576040517f08c379a000000000000000000000000000000000000000000000000000000000815260040161050090612044565b60405180910390fd5b806000803373ffffffffffffffffffffffffffffffffffffffff1673ffffffffffffffffffffffffffffffffffffffff16815260200190815260200160002060030190816105579190612270565b5050565b60046020528060005260406000206000915090508060000160009054906101000a900473ffffffffffffffffffffffffffffffffffffffff16908060010154908060020154908060030180546105b090612093565b80601f01602080910402602001604051908101604052809291908181526020018280546105dc90612093565b80156106295780601f106105fe57610100808354040283529160200191610629565b820191906000526020600020905b81548152906001019060200180831161060c57829003601f168201915b50505050509080600401805461063e90612093565b80601f016020809104026020016040519081016040528092919081815260200182805461066a90612093565b80156106b75780601f1061068c576101008083540402835291602001916106b7565b820191906000526020600020905b81548152906001019060200180831161069a57829003601f168201915b5050505050905085565b6106c9611749565b60006001600a60009054906101000a900473ffffffffffffffffffffffffffffffffffffffff1673ffffffffffffffffffffffffffffffffffffffff16631eb2c12060076040518263ffffffff1660e01b81526004016107299190612342565b602060405180830381865afa158015610746573d6000803e3d6000fd5b505050506040513d601f19601f8201168201806040525081019061076a9190612372565b61077491906123ce565b905060006040518060a001604052808381526020013373ffffffffffffffffffffffffffffffffffffffff168152602001868152602001858152602001438152509050806000803373ffffffffffffffffffffffffffffffffffffffff1673ffffffffffffffffffffffffffffffffffffffff1681526020019081526020016000206000820151816000015560208201518160010160006101000a81548173ffffffffffffffffffffffffffffffffffffffff021916908373ffffffffffffffffffffffffffffffffffffffff160217905550604082015181600201908161085c9190612270565b5060608201518160030190816108729190612270565b5060808201518160040155905050336003600084815260200190815260200160002060006101000a81548173ffffffffffffffffffffffffffffffffffffffff021916908373ffffffffffffffffffffffffffffffffffffffff160217905550600a60009054906101000a900473ffffffffffffffffffffffffffffffffffffffff1673ffffffffffffffffffffffffffffffffffffffff16639c3eead93360076040518363ffffffff1660e01b8152600401610930929190612402565b600060405180830381600087803b15801561094a57600080fd5b505af115801561095e573d6000803e3d6000fd5b50505050809250505092915050565b600a60009054906101000a900473ffffffffffffffffffffffffffffffffffffffff1673ffffffffffffffffffffffffffffffffffffffff16639497c6086007336040518363ffffffff1660e01b81526004016109cb929190611f6a565b602060405180830381865afa1580156109e8573d6000803e3d6000fd5b505050506040513d601f19601f82011682018060405250810190610a0c9190611fcb565b610a4b576040517f08c379a0000000000000000000000000000000000000000000000000000000008152600401610a4290612044565b60405180910390fd5b60008211610a8e576040517f08c379a0000000000000000000000000000000000000000000000000000000008152600401610a8590612477565b60405180910390fd5b6000610a9983611568565b905060006001600954610aac91906123ce565b90506000831115610bc1576000600c60009054906101000a900473ffffffffffffffffffffffffffffffffffffffff1673ffffffffffffffffffffffffffffffffffffffff1663a58273c8856040518263ffffffff1660e01b8152600401610b149190611870565b600060405180830381865afa158015610b31573d6000803e3d6000fd5b505050506040513d6000823e3d601f19601f82011682018060405250810190610b5a919061261a565b9050600081600001511115610bbf5782600160003373ffffffffffffffffffffffffffffffffffffffff1673ffffffffffffffffffffffffffffffffffffffff1681526020019081526020016000206000868152602001908152602001600020819055505b505b60405180608001604052803373ffffffffffffffffffffffffffffffffffffffff168152602001438152602001838152602001848152506007600083815260200190815260200160002060008201518160000160006101000a81548173ffffffffffffffffffffffffffffffffffffffff021916908373ffffffffffffffffffffffffffffffffffffffff160217905550602082015181600101556040820151816002015560608201518160030155905050600860003373ffffffffffffffffffffffffffffffffffffffff1673ffffffffffffffffffffffffffffffffffffffff1681526020019081526020016000206040518060200160405280838152509080600181540180825580915050600190039060005260206000200160009091909190915060008201518160000155505060096000815480929190610d0590612663565b919050555050505050565b60086020528160005260406000208181548110610d2c57600080fd5b90600052602060002001600091509150508060000154905081565b6001602052816000526040600020602052806000526040600020600091509150505481565b60076020528060005260406000206000915090508060000160009054906101000a900473ffffffffffffffffffffffffffffffffffffffff16908060010154908060020154908060030154905084565b60095481565b600a60009054906101000a900473ffffffffffffffffffffffffffffffffffffffff1673ffffffffffffffffffffffffffffffffffffffff16639497c6086007336040518363ffffffff1660e01b8152600401610e20929190611f6a565b602060405180830381865afa158015610e3d573d6000803e3d6000fd5b505050506040513d601f19601f82011682018060405250810190610e619190611fcb565b610ea0576040517f08c379a0000000000000000000000000000000000000000000000000000000008152600401610e9790612044565b60405180910390fd5b6000600c60009054906101000a900473ffffffffffffffffffffffffffffffffffffffff1673ffffffffffffffffffffffffffffffffffffffff1663a58273c8836040518263ffffffff1660e01b8152600401610efd9190611870565b600060405180830381865afa158015610f1a573d6000803e3d6000fd5b505050506040513d6000823e3d601f19601f82011682018060405250810190610f43919061261a565b90506000816000015111610f8c576040517f08c379a0000000000000000000000000000000000000000000000000000000008152600401610f83906126f7565b60405180910390fd5b600260003373ffffffffffffffffffffffffffffffffffffffff1673ffffffffffffffffffffffffffffffffffffffff1681526020019081526020016000208290806001815401808255809150506001900390600052602060002001600090919091909150555050565b600581565b6060600260008373ffffffffffffffffffffffffffffffffffffffff1673ffffffffffffffffffffffffffffffffffffffff16815260200190815260200160002080548060200260200160405190810160405280929190818152602001828054801561108657602002820191906000526020600020905b815481526020019060010190808311611072575b50505050509050919050565b600560205281600052604060002081815481106110ae57600080fd5b90600052602060002001600091509150508060000154905081565b6110d1611749565b6000808373ffffffffffffffffffffffffffffffffffffffff1673ffffffffffffffffffffffffffffffffffffffff1681526020019081526020016000206040518060a0016040529081600082015481526020016001820160009054906101000a900473ffffffffffffffffffffffffffffffffffffffff1673ffffffffffffffffffffffffffffffffffffffff1673ffffffffffffffffffffffffffffffffffffffff16815260200160028201805461118a90612093565b80601f01602080910402602001604051908101604052809291908181526020018280546111b690612093565b80156112035780601f106111d857610100808354040283529160200191611203565b820191906000526020600020905b8154815290600101906020018083116111e657829003601f168201915b5050505050815260200160038201805461121c90612093565b80601f016020809104026020016040519081016040528092919081815260200182805461124890612093565b80156112955780601f1061126a57610100808354040283529160200191611295565b820191906000526020600020905b81548152906001019060200180831161127857829003601f168201915b505050505081526020016004820154815250509050919050565b600a60009054906101000a900473ffffffffffffffffffffffffffffffffffffffff1673ffffffffffffffffffffffffffffffffffffffff16639497c6086007336040518363ffffffff1660e01b815260040161130d929190611f6a565b602060405180830381865afa15801561132a573d6000803e3d6000fd5b505050506040513d601f19601f8201168201806040525081019061134e9190611fcb565b61138d576040517f08c379a000000000000000000000000000000000000000000000000000000000815260040161138490612044565b60405180910390fd5b600183116113d0576040517f08c379a00000000000000000000000000000000000000000000000000000000081526004016113c790612477565b60405180910390fd5b60006113db84611568565b9050600060016006546113ee91906123ce565b90506040518060a001604052803373ffffffffffffffffffffffffffffffffffffffff168152602001438152602001838152602001858152602001848152506004600083815260200190815260200160002060008201518160000160006101000a81548173ffffffffffffffffffffffffffffffffffffffff021916908373ffffffffffffffffffffffffffffffffffffffff160217905550602082015181600101556040820151816002015560608201518160030190816114b09190612270565b5060808201518160040190816114c69190612270565b50905050600560003373ffffffffffffffffffffffffffffffffffffffff1673ffffffffffffffffffffffffffffffffffffffff168152602001908152602001600020604051806020016040528083815250908060018154018082558091505060019003906000526020600020016000909190919091506000820151816000015550506006600081548092919061155c90612663565b91905055505050505050565b600080600a60009054906101000a900473ffffffffffffffffffffffffffffffffffffffff1673ffffffffffffffffffffffffffffffffffffffff16632b17b8be336040518263ffffffff1660e01b81526004016115c69190611846565b608060405180830381865afa1580156115e3573d6000803e3d6000fd5b505050506040513d601f19601f8201168201806040525081019061160791906127b4565b905060008082606001511415905060008161162357600061164b565b61164a606461163c60058861170790919063ffffffff16565b61171d90919063ffffffff16565b5b90506000611662828761173390919063ffffffff16565b9050600b60009054906101000a900473ffffffffffffffffffffffffffffffffffffffff1673ffffffffffffffffffffffffffffffffffffffff1663f61b916033866020015184866040518563ffffffff1660e01b81526004016116c994939291906127e1565b600060405180830381600087803b1580156116e357600080fd5b505af11580156116f7573d6000803e3d6000fd5b5050505080945050505050919050565b600081836117159190612826565b905092915050565b6000818361172b9190612897565b905092915050565b6000818361174191906128c8565b905092915050565b6040518060a0016040528060008152602001600073ffffffffffffffffffffffffffffffffffffffff1681526020016060815260200160608152602001600081525090565b6000604051905090565b600080fd5b600080fd5b6000819050919050565b6117b5816117a2565b81146117c057600080fd5b50565b6000813590506117d2816117ac565b92915050565b6000602082840312156117ee576117ed611798565b5b60006117fc848285016117c3565b91505092915050565b600073ffffffffffffffffffffffffffffffffffffffff82169050919050565b600061183082611805565b9050919050565b61184081611825565b82525050565b600060208201905061185b6000830184611837565b92915050565b61186a816117a2565b82525050565b60006020820190506118856000830184611861565b92915050565b61189481611825565b811461189f57600080fd5b50565b6000813590506118b18161188b565b92915050565b600080604083850312156118ce576118cd611798565b5b60006118dc858286016118a2565b92505060206118ed858286016117c3565b9150509250929050565b600080fd5b600080fd5b6000601f19601f8301169050919050565b7f4e487b7100000000000000000000000000000000000000000000000000000000600052604160045260246000fd5b61194a82611901565b810181811067ffffffffffffffff8211171561196957611968611912565b5b80604052505050565b600061197c61178e565b90506119888282611941565b919050565b600067ffffffffffffffff8211156119a8576119a7611912565b5b6119b182611901565b9050602081019050919050565b82818337600083830152505050565b60006119e06119db8461198d565b611972565b9050828152602081018484840111156119fc576119fb6118fc565b5b611a078482856119be565b509392505050565b600082601f830112611a2457611a236118f7565b5b8135611a348482602086016119cd565b91505092915050565b600060208284031215611a5357611a52611798565b5b600082013567ffffffffffffffff811115611a7157611a7061179d565b5b611a7d84828501611a0f565b91505092915050565b600081519050919050565b600082825260208201905092915050565b60005b83811015611ac0578082015181840152602081019050611aa5565b60008484015250505050565b6000611ad782611a86565b611ae18185611a91565b9350611af1818560208601611aa2565b611afa81611901565b840191505092915050565b600060a082019050611b1a6000830188611837565b611b276020830187611861565b611b346040830186611861565b8181036060830152611b468185611acc565b90508181036080830152611b5a8184611acc565b90509695505050505050565b60008060408385031215611b7d57611b7c611798565b5b600083013567ffffffffffffffff811115611b9b57611b9a61179d565b5b611ba785828601611a0f565b925050602083013567ffffffffffffffff811115611bc857611bc761179d565b5b611bd485828601611a0f565b9150509250929050565b611be7816117a2565b82525050565b611bf681611825565b82525050565b600082825260208201905092915050565b6000611c1882611a86565b611c228185611bfc565b9350611c32818560208601611aa2565b611c3b81611901565b840191505092915050565b600060a083016000830151611c5e6000860182611bde565b506020830151611c716020860182611bed565b5060408301518482036040860152611c898282611c0d565b91505060608301518482036060860152611ca38282611c0d565b9150506080830151611cb86080860182611bde565b508091505092915050565b60006020820190508181036000830152611cdd8184611c46565b905092915050565b60008060408385031215611cfc57611cfb611798565b5b6000611d0a858286016117c3565b9250506020611d1b858286016117c3565b9150509250929050565b6000608082019050611d3a6000830187611837565b611d476020830186611861565b611d546040830185611861565b611d616060830184611861565b95945050505050565b600060208284031215611d8057611d7f611798565b5b6000611d8e848285016118a2565b91505092915050565b600081519050919050565b600082825260208201905092915050565b6000819050602082019050919050565b6000611dcf8383611bde565b60208301905092915050565b6000602082019050919050565b6000611df382611d97565b611dfd8185611da2565b9350611e0883611db3565b8060005b83811015611e39578151611e208882611dc3565b9750611e2b83611ddb565b925050600181019050611e0c565b5085935050505092915050565b60006020820190508181036000830152611e608184611de8565b905092915050565b600080600060608486031215611e8157611e80611798565b5b6000611e8f868287016117c3565b935050602084013567ffffffffffffffff811115611eb057611eaf61179d565b5b611ebc86828701611a0f565b925050604084013567ffffffffffffffff811115611edd57611edc61179d565b5b611ee986828701611a0f565b9150509250925092565b7f4e487b7100000000000000000000000000000000000000000000000000000000600052602160045260246000fd5b600a8110611f3357611f32611ef3565b5b50565b6000819050611f4482611f22565b919050565b6000611f5482611f36565b9050919050565b611f6481611f49565b82525050565b6000604082019050611f7f6000830185611f5b565b611f8c6020830184611837565b9392505050565b60008115159050919050565b611fa881611f93565b8114611fb357600080fd5b50565b600081519050611fc581611f9f565b92915050565b600060208284031215611fe157611fe0611798565b5b6000611fef84828501611fb6565b91505092915050565b7f4f6e6c7920737570706f72746572730000000000000000000000000000000000600082015250565b600061202e600f83611a91565b915061203982611ff8565b602082019050919050565b6000602082019050818103600083015261205d81612021565b9050919050565b7f4e487b7100000000000000000000000000000000000000000000000000000000600052602260045260246000fd5b600060028204905060018216806120ab57607f821691505b6020821081036120be576120bd612064565b5b50919050565b60008190508160005260206000209050919050565b60006020601f8301049050919050565b600082821b905092915050565b6000600883026121267fffffffffffffffffffffffffffffffffffffffffffffffffffffffffffffffff826120e9565b61213086836120e9565b95508019841693508086168417925050509392505050565b6000819050919050565b600061216d612168612163846117a2565b612148565b6117a2565b9050919050565b6000819050919050565b61218783612152565b61219b61219382612174565b8484546120f6565b825550505050565b600090565b6121b06121a3565b6121bb81848461217e565b505050565b5b818110156121df576121d46000826121a8565b6001810190506121c1565b5050565b601f821115612224576121f5816120c4565b6121fe846120d9565b8101602085101561220d578190505b612221612219856120d9565b8301826121c0565b50505b505050565b600082821c905092915050565b600061224760001984600802612229565b1980831691505092915050565b60006122608383612236565b9150826002028217905092915050565b61227982611a86565b67ffffffffffffffff81111561229257612291611912565b5b61229c8254612093565b6122a78282856121e3565b600060209050601f8311600181146122da57600084156122c8578287015190505b6122d28582612254565b86555061233a565b601f1984166122e8866120c4565b60005b82811015612310578489015182556001820191506020850194506020810190506122eb565b8683101561232d5784890151612329601f891682612236565b8355505b6001600288020188555050505b505050505050565b60006020820190506123576000830184611f5b565b92915050565b60008151905061236c816117ac565b92915050565b60006020828403121561238857612387611798565b5b60006123968482850161235d565b91505092915050565b7f4e487b7100000000000000000000000000000000000000000000000000000000600052601160045260246000fd5b60006123d9826117a2565b91506123e4836117a2565b92508282019050808211156123fc576123fb61239f565b5b92915050565b60006040820190506124176000830185611837565b6124246020830184611f5b565b9392505050565b7f416d6f756e7420696e76616c6964000000000000000000000000000000000000600082015250565b6000612461600e83611a91565b915061246c8261242b565b602082019050919050565b6000602082019050818103600083015261249081612454565b9050919050565b600080fd5b600080fd5b6000815190506124b08161188b565b92915050565b60006124c96124c48461198d565b611972565b9050828152602081018484840111156124e5576124e46118fc565b5b6124f0848285611aa2565b509392505050565b600082601f83011261250d5761250c6118f7565b5b815161251d8482602086016124b6565b91505092915050565b600060c0828403121561253c5761253b612497565b5b61254660c0611972565b905060006125568482850161235d565b600083015250602061256a848285016124a1565b602083015250604082015167ffffffffffffffff81111561258e5761258d61249c565b5b61259a848285016124f8565b604083015250606082015167ffffffffffffffff8111156125be576125bd61249c565b5b6125ca848285016124f8565b606083015250608082015167ffffffffffffffff8111156125ee576125ed61249c565b5b6125fa848285016124f8565b60808301525060a061260e8482850161235d565b60a08301525092915050565b6000602082840312156126305761262f611798565b5b600082015167ffffffffffffffff81111561264e5761264d61179d565b5b61265a84828501612526565b91505092915050565b600061266e826117a2565b91507fffffffffffffffffffffffffffffffffffffffffffffffffffffffffffffffff82036126a05761269f61239f565b5b600182019050919050565b7f43616c63756c61746f72206974656d20646f6573206e6f742065786973740000600082015250565b60006126e1601e83611a91565b91506126ec826126ab565b602082019050919050565b60006020820190508181036000830152612710816126d4565b9050919050565b600a811061272457600080fd5b50565b60008151905061273681612717565b92915050565b60006080828403121561275257612751612497565b5b61275c6080611972565b9050600061276c848285016124a1565b6000830152506020612780848285016124a1565b602083015250604061279484828501612727565b60408301525060606127a88482850161235d565b60608301525092915050565b6000608082840312156127ca576127c9611798565b5b60006127d88482850161273c565b91505092915050565b60006080820190506127f66000830187611837565b6128036020830186611837565b6128106040830185611861565b61281d6060830184611861565b95945050505050565b6000612831826117a2565b915061283c836117a2565b925082820261284a816117a2565b915082820484148315176128615761286061239f565b5b5092915050565b7f4e487b7100000000000000000000000000000000000000000000000000000000600052601260045260246000fd5b60006128a2826117a2565b91506128ad836117a2565b9250826128bd576128bc612868565b5b828204905092915050565b60006128d3826117a2565b91506128de836117a2565b92508282039050818111156128f6576128f561239f565b5b9291505056fea264697066735822122018bb2c5841dd704c5ea0d54502ca6b2148eccb804f610656cfaf8ce9d8debf9b64736f6c634300081b0033",
  "linkReferences": {},
  "deployedLinkReferences": {}
}