{
  "_format": "hh-sol-artifact-1",
  "contractName": "SupporterRules",
  "sourceName": "contracts/SupporterRules.sol",
  "abi": [
    {
      "inputs": [
        {
          "internalType": "address",
          "name": "communityRulesAddress",
          "type": "address"
        },
        {
          "internalType": "address",
          "name": "researcherRulesAddress",
          "type": "address"
        },
        {
          "internalType": "address",
          "name": "regenerationCreditAddress",
          "type": "address"
        }
      ],
      "stateMutability": "nonpayable",
      "type": "constructor"
    },
    {
      "inputs": [],
      "name": "ReentrancyGuardReentrantCall",
      "type": "error"
    },
    {
      "anonymous": false,
      "inputs": [
        {
          "indexed": true,
          "internalType": "address",
          "name": "supporterAddress",
          "type": "address"
        },
        {
          "indexed": false,
          "internalType": "uint256",
          "name": "offsetId",
          "type": "uint256"
        },
        {
          "indexed": false,
          "internalType": "uint256",
          "name": "amountBurned",
          "type": "uint256"
        },
        {
          "indexed": false,
          "internalType": "uint256",
          "name": "calculatorItemId",
          "type": "uint256"
        },
        {
          "indexed": false,
          "internalType": "uint256",
          "name": "blockNumber",
          "type": "uint256"
        }
      ],
      "name": "OffsetMade",
      "type": "event"
    },
    {
      "anonymous": false,
      "inputs": [
        {
          "indexed": true,
          "internalType": "address",
          "name": "publisherAddress",
          "type": "address"
        },
        {
          "indexed": false,
          "internalType": "uint256",
          "name": "publicationId",
          "type": "uint256"
        },
        {
          "indexed": false,
          "internalType": "uint256",
          "name": "amountBurned",
          "type": "uint256"
        },
        {
          "indexed": false,
          "internalType": "string",
          "name": "description",
          "type": "string"
        },
        {
          "indexed": false,
          "internalType": "uint256",
          "name": "blockNumber",
          "type": "uint256"
        }
      ],
      "name": "PublicationPosted",
      "type": "event"
    },
    {
      "anonymous": false,
      "inputs": [
        {
          "indexed": true,
          "internalType": "address",
          "name": "supporterAddress",
          "type": "address"
        },
        {
          "indexed": false,
          "internalType": "uint256",
          "name": "calculatorItemId",
          "type": "uint256"
        },
        {
          "indexed": false,
          "internalType": "uint256",
          "name": "blockNumber",
          "type": "uint256"
        }
      ],
      "name": "ReductionCommitmentDeclared",
      "type": "event"
    },
    {
      "anonymous": false,
      "inputs": [
        {
          "indexed": true,
          "internalType": "address",
          "name": "supporterAddress",
          "type": "address"
        },
        {
          "indexed": false,
          "internalType": "uint256",
          "name": "supporterId",
          "type": "uint256"
        },
        {
          "indexed": false,
          "internalType": "string",
          "name": "name",
          "type": "string"
        },
        {
          "indexed": false,
          "internalType": "string",
          "name": "profilePhoto",
          "type": "string"
        },
        {
          "indexed": false,
          "internalType": "uint256",
          "name": "createdAtBlock",
          "type": "uint256"
        }
      ],
      "name": "SupporterRegistered",
      "type": "event"
    },
    {
      "inputs": [],
      "name": "INVITER_PERCENTAGE",
      "outputs": [
        {
          "internalType": "uint8",
          "name": "",
          "type": "uint8"
        }
      ],
      "stateMutability": "view",
      "type": "function"
    },
    {
      "inputs": [],
      "name": "MAX_COMMITMENTS",
      "outputs": [
        {
          "internalType": "uint256",
          "name": "",
          "type": "uint256"
        }
      ],
      "stateMutability": "view",
      "type": "function"
    },
    {
      "inputs": [
        {
          "internalType": "string",
          "name": "name",
          "type": "string"
        },
        {
          "internalType": "string",
          "name": "description",
          "type": "string"
        },
        {
          "internalType": "string",
          "name": "profilePhoto",
          "type": "string"
        }
      ],
      "name": "addSupporter",
      "outputs": [],
      "stateMutability": "nonpayable",
      "type": "function"
    },
    {
      "inputs": [
        {
          "internalType": "address",
          "name": "",
          "type": "address"
        },
        {
          "internalType": "uint64",
          "name": "",
          "type": "uint64"
        }
      ],
      "name": "calculatorItemCertificates",
      "outputs": [
        {
          "internalType": "uint256",
          "name": "",
          "type": "uint256"
        }
      ],
      "stateMutability": "view",
      "type": "function"
    },
    {
      "inputs": [
        {
          "internalType": "uint64",
          "name": "calculatorItemId",
          "type": "uint64"
        }
      ],
      "name": "declareReductionCommitment",
      "outputs": [],
      "stateMutability": "nonpayable",
      "type": "function"
    },
    {
      "inputs": [
        {
          "internalType": "address",
          "name": "",
          "type": "address"
        },
        {
          "internalType": "uint256",
          "name": "",
          "type": "uint256"
        }
      ],
      "name": "declaredReduction",
      "outputs": [
        {
          "internalType": "bool",
          "name": "",
          "type": "bool"
        }
      ],
      "stateMutability": "view",
      "type": "function"
    },
    {
      "inputs": [
        {
          "internalType": "address",
          "name": "addr",
          "type": "address"
        }
      ],
      "name": "getReductionCommitments",
      "outputs": [
        {
          "internalType": "uint64[]",
          "name": "",
          "type": "uint64[]"
        }
      ],
      "stateMutability": "view",
      "type": "function"
    },
    {
      "inputs": [
        {
          "internalType": "address",
          "name": "addr",
          "type": "address"
        }
      ],
      "name": "getSupporter",
      "outputs": [
        {
          "components": [
            {
              "internalType": "uint64",
              "name": "id",
              "type": "uint64"
            },
            {
              "internalType": "address",
              "name": "supporterWallet",
              "type": "address"
            },
            {
              "internalType": "string",
              "name": "name",
              "type": "string"
            },
            {
              "internalType": "string",
              "name": "description",
              "type": "string"
            },
            {
              "internalType": "string",
              "name": "profilePhoto",
              "type": "string"
            },
            {
              "internalType": "uint32",
              "name": "publicationsCount",
              "type": "uint32"
            },
            {
              "internalType": "uint32",
              "name": "offsetsCount",
              "type": "uint32"
            },
            {
              "internalType": "uint16",
              "name": "reductionItemsCount",
              "type": "uint16"
            },
            {
              "internalType": "uint256",
              "name": "createdAt",
              "type": "uint256"
            }
          ],
          "internalType": "struct Supporter",
          "name": "",
          "type": "tuple"
        }
      ],
      "stateMutability": "view",
      "type": "function"
    },
    {
      "inputs": [
        {
          "internalType": "uint256",
          "name": "amount",
          "type": "uint256"
        },
        {
          "internalType": "uint256",
          "name": "minAmountToBurn",
          "type": "uint256"
        },
        {
          "internalType": "uint64",
          "name": "calculatorItemId",
          "type": "uint64"
        }
      ],
      "name": "offset",
      "outputs": [],
      "stateMutability": "nonpayable",
      "type": "function"
    },
    {
      "inputs": [
        {
          "internalType": "uint64",
          "name": "",
          "type": "uint64"
        }
      ],
      "name": "offsets",
      "outputs": [
        {
          "internalType": "address",
          "name": "supporterAddress",
          "type": "address"
        },
        {
          "internalType": "uint256",
          "name": "createdAt",
          "type": "uint256"
        },
        {
          "internalType": "uint256",
          "name": "amountBurn",
          "type": "uint256"
        },
        {
          "internalType": "uint256",
          "name": "calculatorItemId",
          "type": "uint256"
        }
      ],
      "stateMutability": "view",
      "type": "function"
    },
    {
      "inputs": [],
      "name": "offsetsCount",
      "outputs": [
        {
          "internalType": "uint64",
          "name": "",
          "type": "uint64"
        }
      ],
      "stateMutability": "view",
      "type": "function"
    },
    {
      "inputs": [
        {
          "internalType": "uint64",
          "name": "",
          "type": "uint64"
        }
      ],
      "name": "publications",
      "outputs": [
        {
          "internalType": "address",
          "name": "supporterAddress",
          "type": "address"
        },
        {
          "internalType": "uint256",
          "name": "createdAt",
          "type": "uint256"
        },
        {
          "internalType": "uint256",
          "name": "amount",
          "type": "uint256"
        },
        {
          "internalType": "string",
          "name": "description",
          "type": "string"
        },
        {
          "internalType": "string",
          "name": "content",
          "type": "string"
        }
      ],
      "stateMutability": "view",
      "type": "function"
    },
    {
      "inputs": [],
      "name": "publicationsCount",
      "outputs": [
        {
          "internalType": "uint64",
          "name": "",
          "type": "uint64"
        }
      ],
      "stateMutability": "view",
      "type": "function"
    },
    {
      "inputs": [
        {
          "internalType": "uint256",
          "name": "amount",
          "type": "uint256"
        },
        {
          "internalType": "uint256",
          "name": "minAmountToBurn",
          "type": "uint256"
        },
        {
          "internalType": "string",
          "name": "description",
          "type": "string"
        },
        {
          "internalType": "string",
          "name": "content",
          "type": "string"
        }
      ],
      "name": "publish",
      "outputs": [],
      "stateMutability": "nonpayable",
      "type": "function"
    },
    {
      "inputs": [
        {
          "internalType": "address",
          "name": "",
          "type": "address"
        },
        {
          "internalType": "uint256",
          "name": "",
          "type": "uint256"
        }
      ],
      "name": "reductionCommitments",
      "outputs": [
        {
          "internalType": "uint64",
          "name": "",
          "type": "uint64"
        }
      ],
      "stateMutability": "view",
      "type": "function"
    },
    {
      "inputs": [],
      "name": "regenerationCredit",
      "outputs": [
        {
          "internalType": "contract IRegenerationCredit",
          "name": "",
          "type": "address"
        }
      ],
      "stateMutability": "view",
      "type": "function"
    },
    {
      "inputs": [
        {
          "internalType": "uint256",
          "name": "",
          "type": "uint256"
        }
      ],
      "name": "supportersAddress",
      "outputs": [
        {
          "internalType": "address",
          "name": "",
          "type": "address"
        }
      ],
      "stateMutability": "view",
      "type": "function"
    },
    {
      "inputs": [
        {
          "internalType": "string",
          "name": "newPhoto",
          "type": "string"
        }
      ],
      "name": "updateProfilePhoto",
      "outputs": [],
      "stateMutability": "nonpayable",
      "type": "function"
    }
  ],
  "bytecode": "0x6080604052348015600f57600080fd5b50604051612508380380612508833981016040819052602c91608d565b6001600055600980546001600160a01b039485166001600160a01b031991821617909155600a805493851693821693909317909255600b805491909316911617905560c9565b80516001600160a01b0381168114608857600080fd5b919050565b60008060006060848603121560a157600080fd5b60a8846072565b925060b4602085016072565b915060c0604085016072565b90509250925092565b612430806100d86000396000f3fe608060405234801561001057600080fd5b50600436106101165760003560e01c806385851afc116100a2578063dcfc77e011610071578063dcfc77e014610287578063ee9645e81461029e578063f3dbcae0146102dc578063f8a47d8a14610300578063f9c5512c1461036957600080fd5b806385851afc1461021a57806394cea0a31461022d578063d4fadeae14610247578063dc02837f1461026757600080fd5b806320f5f456116100e957806320f5f456146101bb5780632e7759ba146101ce5780632f9ed1ef146101e15780635383217b146101f4578063780bc4e51461020757600080fd5b806305b95fbe1461011b5780630864e8f6146101615780630d378ffd146101935780630e2647ad146101a6575b600080fd5b610144610129366004611911565b6005602052600090815260409020546001600160a01b031681565b6040516001600160a01b0390911681526020015b60405180910390f35b60065461017b90600160401b90046001600160401b031681565b6040516001600160401b039091168152602001610158565b61017b6101a1366004611942565b610394565b6101b96101b4366004611a59565b6103e0565b005b6101b96101c9366004611aaa565b6104d8565b6101b96101dc366004611ace565b610810565b600b54610144906001600160a01b031681565b6101b9610202366004611b5f565b610b0b565b6101b9610215366004611b98565b610f95565b60065461017b906001600160401b031681565b610235600581565b60405160ff9091168152602001610158565b61025a610255366004611c12565b61138e565b6040516101589190611c2f565b61027a610275366004611c12565b61142c565b6040516101589190611ccb565b6102906103e881565b604051908152602001610158565b6102cc6102ac366004611942565b600460209081526000928352604080842090915290825290205460ff1681565b6040519015158152602001610158565b6102ef6102ea366004611aaa565b6116dc565b604051610158959493929190611dac565b61033f61030e366004611aaa565b60086020526000908152604090208054600182015460028301546003909301546001600160a01b0390921692909184565b604080516001600160a01b0390951685526020850193909352918301526060820152608001610158565b610290610377366004611df7565b600260209081526000928352604080842090915290825290205481565b600360205281600052604060002081815481106103b057600080fd5b9060005260206000209060049182820401919006600802915091509054906101000a90046001600160401b031681565b8051609610156104285760405162461bcd60e51b815260206004820152600e60248201526d4d6178206368617261637465727360901b60448201526064015b60405180910390fd5b600954604051631292f8c160e31b81526001600160a01b0390911690639497c6089061045b906007903390600401611e52565b602060405180830381865afa158015610478573d6000803e3d6000fd5b505050506040513d601f19601f8201168201806040525081019061049c9190611e78565b6104b85760405162461bcd60e51b815260040161041f90611e9a565b3360009081526001602052604090206003016104d48282611f4b565b5050565b600954604051631292f8c160e31b81526001600160a01b0390911690639497c6089061050b906007903390600401611e52565b602060405180830381865afa158015610528573d6000803e3d6000fd5b505050506040513d601f19601f8201168201806040525081019061054c9190611e78565b6105685760405162461bcd60e51b815260040161041f90611e9a565b3360009081526004602090815260408083206001600160401b038516845290915290205460ff16156105dc5760405162461bcd60e51b815260206004820152601b60248201527f436f6d6d69746d656e7420616c7265616479206465636c617265640000000000604482015260640161041f565b336000908152600160205260409020600401546103e8600160401b90910461ffff161061064b5760405162461bcd60e51b815260206004820152601760248201527f4d617820636f6d6d69746d656e74732072656163686564000000000000000000604482015260640161041f565b600a546040516311868d0b60e01b81526001600160401b03831660048201526000916001600160a01b0316906311868d0b90602401600060405180830381865afa15801561069d573d6000803e3d6000fd5b505050506040513d6000823e601f3d908101601f191682016040526106c59190810190612069565b80519091506001600160401b031661071f5760405162461bcd60e51b815260206004820152601e60248201527f43616c63756c61746f72206974656d20646f6573206e6f742065786973740000604482015260640161041f565b336000818152600360208181526040808420805460018181018355918652838620600480830490910180546001600160401b03808d1660089590991685026101000a898102910219909116179055878752808552838720958752948452828620805460ff19168317905595855290915290912001805461ffff600160401b90910416916107ab8361217c565b825461ffff9182166101009390930a928302919092021990911617905550604080516001600160401b038416815243602082015233917f6a8703d0dfd7a2ebeec57615dbfe3bd225042a61a5ddc5e565d02ee8cc27c82d910160405180910390a25050565b82516032108015906108245750815160c810155b801561083257508051609610155b6108775760405162461bcd60e51b815260206004820152601660248201527513585e0818da185c9858dd195c9cc81c995858da195960521b604482015260640161041f565b60095460405162f5960960e51b81526000916001600160a01b031690631eb2c120906108a89060079060040161219d565b602060405180830381865afa1580156108c5573d6000803e3d6000fd5b505050506040513d601f19601f820116820180604052508101906108e991906121b1565b6108f49060016121ce565b60408051610120810182526001600160401b0380841682523360208084018281528486018b8152606086018b9052608086018a9052600060a0870181905260c0870181905260e0870181905243610100880152938452600192839052959092208451815493516001600160a01b0316600160401b026001600160e01b03199094169416939093179190911782559251939450909290918201906109979082611f4b565b50606082015160028201906109ac9082611f4b565b50608082015160038201906109c19082611f4b565b5060a08201516004808301805460c086015160e087015161ffff16600160401b0269ffff00000000000000001963ffffffff9283166401000000000267ffffffffffffffff199094169290961691909117919091179390931692909217909155610100909201516005918201556001600160401b038316600090815260209190915260409081902080546001600160a01b031916339081179091556009549151639c3eead960e01b81526001600160a01b039290921692639c3eead992610a8c9291600791016121ed565b600060405180830381600087803b158015610aa657600080fd5b505af1158015610aba573d6000803e3d6000fd5b50505050336001600160a01b03167f2fe5386557a95a5d820fa0514dc2a3c8d60986e6f41bace2d281e6b8d63636eb82868543604051610afd949392919061220a565b60405180910390a250505050565b610b13611827565b600a546040516311868d0b60e01b81526001600160401b03831660048201526000916001600160a01b0316906311868d0b90602401600060405180830381865afa158015610b65573d6000803e3d6000fd5b505050506040513d6000823e601f3d908101601f19168201604052610b8d9190810190612069565b516001600160401b031611610be45760405162461bcd60e51b815260206004820152601e60248201527f43616c63756c61746f72206974656d20646f6573206e6f742065786973740000604482015260640161041f565b600954604051631292f8c160e31b81526001600160a01b0390911690639497c60890610c17906007903390600401611e52565b602060405180830381865afa158015610c34573d6000803e3d6000fd5b505050506040513d601f19601f82011682018060405250810190610c589190611e78565b610c745760405162461bcd60e51b815260040161041f90611e9a565b670de0b6b3a7640000831015610ccc5760405162461bcd60e51b815260206004820152601c60248201527f416d6f756e74206d757374206265206174206c65617374203120524300000000604482015260640161041f565b6000806000610cdb3387611851565b92509250925084831015610d015760405162461bcd60e51b815260040161041f90612250565b600680546001600160401b0316906000610d1a8361229d565b82546101009290920a6001600160401b038181021990931691831602179091556006543360009081526002602090815260408083208a8616845290915281208054929093169350869291610d6f9084906122bf565b909155505060408051608081018252338082524360208084019182528385018981526001600160401b038b811660608701908152908816600090815260088452878120965187546001600160a01b0319166001600160a01b03909116178755935160018088019190915591516002870155516003909501949094559181529190522060049081018054640100000000900463ffffffff1691610e10836122d2565b91906101000a81548163ffffffff021916908363ffffffff16021790555050600083118015610e4757506001600160a01b03821615155b15610ecb57600b546040516323b872dd60e01b81523360048201526001600160a01b03848116602483015260448201869052909116906323b872dd906064016020604051808303816000875af1158015610ea5573d6000803e3d6000fd5b505050506040513d601f19601f82011682018060405250810190610ec99190611e78565b505b600b5460405163079cc67960e41b8152336004820152602481018690526001600160a01b03909116906379cc679090604401600060405180830381600087803b158015610f1757600080fd5b505af1158015610f2b573d6000803e3d6000fd5b5050604080516001600160401b0385811682526020820189905289168183015243606082015290513393507f37402fe4219227a84d8eb9834b7e64d61f4f583fd5a522e66731a697afecaf6592509081900360800190a250505050610f906001600055565b505050565b610f9d611827565b600954604051631292f8c160e31b81526001600160a01b0390911690639497c60890610fd0906007903390600401611e52565b602060405180830381865afa158015610fed573d6000803e3d6000fd5b505050506040513d601f19601f820116820180604052508101906110119190611e78565b61102d5760405162461bcd60e51b815260040161041f90611e9a565b678ac7230489e800008410156110855760405162461bcd60e51b815260206004820152601d60248201527f416d6f756e74206d757374206265206174206c65617374203130205243000000604482015260640161041f565b81516102581080159061109b5750805161025810155b6110dc5760405162461bcd60e51b81526020600482015260126024820152714d617820363030206368617261637465727360701b604482015260640161041f565b60008060006110eb3388611851565b925092509250858310156111115760405162461bcd60e51b815260040161041f90612250565b60068054600160401b90046001600160401b03169060086111318361229d565b82546101009290920a6001600160401b038181021990931691831602179091556006546040805160a0810182523381524360208083019182528284018a8152606084018d8152608085018d9052600160401b90960490961660008181526007909252939020825181546001600160a01b0319166001600160a01b039091161781559051600182015593516002850155915190935090919060038201906111d79082611f4b565b50608082015160048201906111ec9082611f4b565b5050336000908152600160205260408120600401805463ffffffff16925090611214836122d2565b91906101000a81548163ffffffff021916908363ffffffff1602179055505060008311801561124b57506001600160a01b03821615155b156112cf57600b546040516323b872dd60e01b81523360048201526001600160a01b03848116602483015260448201869052909116906323b872dd906064016020604051808303816000875af11580156112a9573d6000803e3d6000fd5b505050506040513d601f19601f820116820180604052508101906112cd9190611e78565b505b600b5460405163079cc67960e41b8152336004820152602481018690526001600160a01b03909116906379cc679090604401600060405180830381600087803b15801561131b57600080fd5b505af115801561132f573d6000803e3d6000fd5b50505050336001600160a01b03167fdf5cfbe4bde5ebebb5a679aed00fda9e915bd7d3b29742fe92dd2326636d3f218286894360405161137294939291906122ee565b60405180910390a2505050506113886001600055565b50505050565b6001600160a01b03811660009081526003602090815260409182902080548351818402810184019094528084526060939283018282801561142057602002820191906000526020600020906000905b82829054906101000a90046001600160401b03166001600160401b0316815260200190600801906020826007010492830192600103820291508084116113dd5790505b50505050509050919050565b61149d60405180610120016040528060006001600160401b0316815260200160006001600160a01b03168152602001606081526020016060815260200160608152602001600063ffffffff168152602001600063ffffffff168152602001600061ffff168152602001600081525090565b6001600160a01b0380831660009081526001602081815260409283902083516101208101855281546001600160401b0381168252600160401b900490951691850191909152908101805491928401916114f590611ec3565b80601f016020809104026020016040519081016040528092919081815260200182805461152190611ec3565b801561156e5780601f106115435761010080835404028352916020019161156e565b820191906000526020600020905b81548152906001019060200180831161155157829003601f168201915b5050505050815260200160028201805461158790611ec3565b80601f01602080910402602001604051908101604052809291908181526020018280546115b390611ec3565b80156116005780601f106115d557610100808354040283529160200191611600565b820191906000526020600020905b8154815290600101906020018083116115e357829003601f168201915b5050505050815260200160038201805461161990611ec3565b80601f016020809104026020016040519081016040528092919081815260200182805461164590611ec3565b80156116925780601f1061166757610100808354040283529160200191611692565b820191906000526020600020905b81548152906001019060200180831161167557829003601f168201915b5050509183525050600482015463ffffffff80821660208401526401000000008204166040830152600160401b900461ffff16606082015260059091015460809091015292915050565b60076020526000908152604090208054600182015460028301546003840180546001600160a01b0390941694929391929161171690611ec3565b80601f016020809104026020016040519081016040528092919081815260200182805461174290611ec3565b801561178f5780601f106117645761010080835404028352916020019161178f565b820191906000526020600020905b81548152906001019060200180831161177257829003601f168201915b5050505050908060040180546117a490611ec3565b80601f01602080910402602001604051908101604052809291908181526020018280546117d090611ec3565b801561181d5780601f106117f25761010080835404028352916020019161181d565b820191906000526020600020905b81548152906001019060200180831161180057829003601f168201915b5050505050905085565b60026000540361184a57604051633ee5aeb560e01b815260040160405180910390fd5b6002600055565b60095460405163158bdc5f60e11b81526001600160a01b0384811660048301526000928392839283921690632b17b8be90602401608060405180830381865afa1580156118a2573d6000803e3d6000fd5b505050506040513d601f19601f820116820180604052508101906118c69190612327565b6060810151602082015193509091501515806118e35760006118fa565b60646118f06005886123ae565b6118fa91906123c5565b935061190684876123e7565b945050509250925092565b60006020828403121561192357600080fd5b5035919050565b6001600160a01b038116811461193f57600080fd5b50565b6000806040838503121561195557600080fd5b82356119608161192a565b946020939093013593505050565b634e487b7160e01b600052604160045260246000fd5b60405160e081016001600160401b03811182821017156119a6576119a661196e565b60405290565b604051601f8201601f191681016001600160401b03811182821017156119d4576119d461196e565b604052919050565b60006001600160401b038211156119f5576119f561196e565b50601f01601f191660200190565b600082601f830112611a1457600080fd5b8135611a27611a22826119dc565b6119ac565b818152846020838601011115611a3c57600080fd5b816020850160208301376000918101602001919091529392505050565b600060208284031215611a6b57600080fd5b81356001600160401b03811115611a8157600080fd5b611a8d84828501611a03565b949350505050565b6001600160401b038116811461193f57600080fd5b600060208284031215611abc57600080fd5b8135611ac781611a95565b9392505050565b600080600060608486031215611ae357600080fd5b83356001600160401b03811115611af957600080fd5b611b0586828701611a03565b93505060208401356001600160401b03811115611b2157600080fd5b611b2d86828701611a03565b92505060408401356001600160401b03811115611b4957600080fd5b611b5586828701611a03565b9150509250925092565b600080600060608486031215611b7457600080fd5b83359250602084013591506040840135611b8d81611a95565b809150509250925092565b60008060008060808587031215611bae57600080fd5b843593506020850135925060408501356001600160401b03811115611bd257600080fd5b611bde87828801611a03565b92505060608501356001600160401b03811115611bfa57600080fd5b611c0687828801611a03565b91505092959194509250565b600060208284031215611c2457600080fd5b8135611ac78161192a565b602080825282518282018190526000918401906040840190835b81811015611c705783516001600160401b0316835260209384019390920191600101611c49565b509095945050505050565b60005b83811015611c96578181015183820152602001611c7e565b50506000910152565b60008151808452611cb7816020860160208601611c7b565b601f01601f19169290920160200192915050565b60208152611ce56020820183516001600160401b03169052565b60006020830151611d0160408401826001600160a01b03169052565b5060408301516101206060840152611d1d610140840182611c9f565b90506060840151601f19848303016080850152611d3a8282611c9f565b9150506080840151601f198483030160a0850152611d588282611c9f565b91505060a0840151611d7260c085018263ffffffff169052565b5060c084015163ffffffff811660e08501525060e084015161ffff8116610100850152506101008401516101208401528091505092915050565b60018060a01b038616815284602082015283604082015260a060608201526000611dd960a0830185611c9f565b8281036080840152611deb8185611c9f565b98975050505050505050565b60008060408385031215611e0a57600080fd5b8235611e158161192a565b91506020830135611e2581611a95565b809150509250929050565b60088110611e4e57634e487b7160e01b600052602160045260246000fd5b9052565b60408101611e608285611e30565b6001600160a01b039290921660209190910152919050565b600060208284031215611e8a57600080fd5b81518015158114611ac757600080fd5b6020808252600f908201526e4f6e6c7920737570706f727465727360881b604082015260600190565b600181811c90821680611ed757607f821691505b602082108103611ef757634e487b7160e01b600052602260045260246000fd5b50919050565b601f821115610f9057806000526020600020601f840160051c81016020851015611f245750805b601f840160051c820191505b81811015611f445760008155600101611f30565b5050505050565b81516001600160401b03811115611f6457611f6461196e565b611f7881611f728454611ec3565b84611efd565b6020601f821160018114611fac5760008315611f945750848201515b600019600385901b1c1916600184901b178455611f44565b600084815260208120601f198516915b82811015611fdc5787850151825560209485019460019092019101611fbc565b5084821015611ffa5786840151600019600387901b60f8161c191681555b50505050600190811b01905550565b805161201481611a95565b919050565b80516120148161192a565b600082601f83011261203557600080fd5b8151612043611a22826119dc565b81815284602083860101111561205857600080fd5b611a8d826020830160208701611c7b565b60006020828403121561207b57600080fd5b81516001600160401b0381111561209157600080fd5b820160e081850312156120a357600080fd5b6120ab611984565b6120b482612009565b81526120c260208301612019565b602082015260408201516001600160401b038111156120e057600080fd5b6120ec86828501612024565b60408301525060608201516001600160401b0381111561210b57600080fd5b61211786828501612024565b60608301525060808201516001600160401b0381111561213657600080fd5b61214286828501612024565b60808301525060a0828101519082015260c091820151918101919091529392505050565b634e487b7160e01b600052601160045260246000fd5b600061ffff821661ffff810361219457612194612166565b60010192915050565b602081016121ab8284611e30565b92915050565b6000602082840312156121c357600080fd5b8151611ac781611a95565b6001600160401b0381811683821601908111156121ab576121ab612166565b6001600160a01b038316815260408101611ac76020830184611e30565b6001600160401b038516815260806020820152600061222c6080830186611c9f565b828103604084015261223e8186611c9f565b91505082606083015295945050505050565b6020808252602d908201527f536c6970706167653a20616d6f756e7420746f206275726e206973206c65737360408201526c207468616e206d696e696d756d60981b606082015260800190565b60006001600160401b0382166001600160401b03810361219457612194612166565b808201808211156121ab576121ab612166565b600063ffffffff821663ffffffff810361219457612194612166565b6001600160401b03851681528360208201526080604082015260006123166080830185611c9f565b905082606083015295945050505050565b6000608082840312801561233a57600080fd5b50604051600090608081016001600160401b03811182821017156123605761236061196e565b604052835161236e8161192a565b8152602084015161237e8161192a565b6020820152604084015160088110612394578283fd5b604082015260609384015193810193909352509092915050565b80820281158282048414176121ab576121ab612166565b6000826123e257634e487b7160e01b600052601260045260246000fd5b500490565b818103818111156121ab576121ab61216656fea2646970667358221220195809a36ee3235bb07e3012b0b25e18e3bba6579d2f2a837441dca5d17197bf64736f6c634300081b0033",
  "linkReferences": {},
  "deployedLinkReferences": {}
}