{
  "_format": "hh-sol-artifact-1",
  "contractName": "SupporterRules",
  "sourceName": "contracts/SupporterRules.sol",
  "abi": [
    {
      "inputs": [
        {
          "internalType": "address",
          "name": "communityRulesAddress",
          "type": "address"
        },
        {
          "internalType": "address",
          "name": "researcherRulesAddress",
          "type": "address"
        },
        {
          "internalType": "address",
          "name": "regenerationCreditAddress",
          "type": "address"
        }
      ],
      "stateMutability": "nonpayable",
      "type": "constructor"
    },
    {
      "inputs": [],
      "name": "ReentrancyGuardReentrantCall",
      "type": "error"
    },
    {
      "anonymous": false,
      "inputs": [
        {
          "indexed": true,
          "internalType": "address",
          "name": "supporterAddress",
          "type": "address"
        },
        {
          "indexed": false,
          "internalType": "uint256",
          "name": "offsetId",
          "type": "uint256"
        },
        {
          "indexed": false,
          "internalType": "uint256",
          "name": "amountBurned",
          "type": "uint256"
        },
        {
          "indexed": false,
          "internalType": "uint256",
          "name": "calculatorItemId",
          "type": "uint256"
        },
        {
          "indexed": false,
          "internalType": "uint256",
          "name": "blockNumber",
          "type": "uint256"
        }
      ],
      "name": "OffsetMade",
      "type": "event"
    },
    {
      "anonymous": false,
      "inputs": [
        {
          "indexed": true,
          "internalType": "address",
          "name": "publisherAddress",
          "type": "address"
        },
        {
          "indexed": false,
          "internalType": "uint256",
          "name": "publicationId",
          "type": "uint256"
        },
        {
          "indexed": false,
          "internalType": "uint256",
          "name": "amountBurned",
          "type": "uint256"
        },
        {
          "indexed": false,
          "internalType": "string",
          "name": "description",
          "type": "string"
        },
        {
          "indexed": false,
          "internalType": "uint256",
          "name": "blockNumber",
          "type": "uint256"
        }
      ],
      "name": "PublicationPosted",
      "type": "event"
    },
    {
      "anonymous": false,
      "inputs": [
        {
          "indexed": true,
          "internalType": "address",
          "name": "supporterAddress",
          "type": "address"
        },
        {
          "indexed": false,
          "internalType": "uint256",
          "name": "calculatorItemId",
          "type": "uint256"
        },
        {
          "indexed": false,
          "internalType": "uint256",
          "name": "blockNumber",
          "type": "uint256"
        }
      ],
      "name": "ReductionCommitmentDeclared",
      "type": "event"
    },
    {
      "anonymous": false,
      "inputs": [
        {
          "indexed": true,
          "internalType": "address",
          "name": "supporterAddress",
          "type": "address"
        },
        {
          "indexed": false,
          "internalType": "uint256",
          "name": "supporterId",
          "type": "uint256"
        },
        {
          "indexed": false,
          "internalType": "string",
          "name": "name",
          "type": "string"
        },
        {
          "indexed": false,
          "internalType": "string",
          "name": "profilePhoto",
          "type": "string"
        },
        {
          "indexed": false,
          "internalType": "uint256",
          "name": "createdAtBlock",
          "type": "uint256"
        }
      ],
      "name": "SupporterRegistered",
      "type": "event"
    },
    {
      "inputs": [],
      "name": "INVITER_PERCENTAGE",
      "outputs": [
        {
          "internalType": "uint8",
          "name": "",
          "type": "uint8"
        }
      ],
      "stateMutability": "view",
      "type": "function"
    },
    {
      "inputs": [
        {
          "internalType": "string",
          "name": "name",
          "type": "string"
        },
        {
          "internalType": "string",
          "name": "description",
          "type": "string"
        },
        {
          "internalType": "string",
          "name": "profilePhoto",
          "type": "string"
        }
      ],
      "name": "addSupporter",
      "outputs": [],
      "stateMutability": "nonpayable",
      "type": "function"
    },
    {
      "inputs": [
        {
          "internalType": "address",
          "name": "",
          "type": "address"
        },
        {
          "internalType": "uint64",
          "name": "",
          "type": "uint64"
        }
      ],
      "name": "calculatorItemCertificates",
      "outputs": [
        {
          "internalType": "uint256",
          "name": "",
          "type": "uint256"
        }
      ],
      "stateMutability": "view",
      "type": "function"
    },
    {
      "inputs": [
        {
          "internalType": "uint64",
          "name": "calculatorItemId",
          "type": "uint64"
        }
      ],
      "name": "declareReductionCommitment",
      "outputs": [],
      "stateMutability": "nonpayable",
      "type": "function"
    },
    {
      "inputs": [
        {
          "internalType": "address",
          "name": "",
          "type": "address"
        },
        {
          "internalType": "uint256",
          "name": "",
          "type": "uint256"
        }
      ],
      "name": "declaredReduction",
      "outputs": [
        {
          "internalType": "bool",
          "name": "",
          "type": "bool"
        }
      ],
      "stateMutability": "view",
      "type": "function"
    },
    {
      "inputs": [
        {
          "internalType": "address",
          "name": "addr",
          "type": "address"
        }
      ],
      "name": "getReductionCommitments",
      "outputs": [
        {
          "internalType": "uint64[]",
          "name": "",
          "type": "uint64[]"
        }
      ],
      "stateMutability": "view",
      "type": "function"
    },
    {
      "inputs": [
        {
          "internalType": "address",
          "name": "addr",
          "type": "address"
        }
      ],
      "name": "getSupporter",
      "outputs": [
        {
          "components": [
            {
              "internalType": "uint64",
              "name": "id",
              "type": "uint64"
            },
            {
              "internalType": "address",
              "name": "supporterWallet",
              "type": "address"
            },
            {
              "internalType": "string",
              "name": "name",
              "type": "string"
            },
            {
              "internalType": "string",
              "name": "description",
              "type": "string"
            },
            {
              "internalType": "string",
              "name": "profilePhoto",
              "type": "string"
            },
            {
              "internalType": "uint32",
              "name": "publicationsCount",
              "type": "uint32"
            },
            {
              "internalType": "uint32",
              "name": "offsetsCount",
              "type": "uint32"
            },
            {
              "internalType": "uint16",
              "name": "reductionItemsCount",
              "type": "uint16"
            },
            {
              "internalType": "uint256",
              "name": "createdAt",
              "type": "uint256"
            }
          ],
          "internalType": "struct Supporter",
          "name": "",
          "type": "tuple"
        }
      ],
      "stateMutability": "view",
      "type": "function"
    },
    {
      "inputs": [
        {
          "internalType": "uint256",
          "name": "amount",
          "type": "uint256"
        },
        {
          "internalType": "uint256",
          "name": "minAmountToBurn",
          "type": "uint256"
        },
        {
          "internalType": "uint64",
          "name": "calculatorItemId",
          "type": "uint64"
        }
      ],
      "name": "offset",
      "outputs": [],
      "stateMutability": "nonpayable",
      "type": "function"
    },
    {
      "inputs": [
        {
          "internalType": "uint64",
          "name": "",
          "type": "uint64"
        }
      ],
      "name": "offsets",
      "outputs": [
        {
          "internalType": "address",
          "name": "supporterAddress",
          "type": "address"
        },
        {
          "internalType": "uint256",
          "name": "createdAt",
          "type": "uint256"
        },
        {
          "internalType": "uint256",
          "name": "amountBurn",
          "type": "uint256"
        },
        {
          "internalType": "uint256",
          "name": "calculatorItemId",
          "type": "uint256"
        }
      ],
      "stateMutability": "view",
      "type": "function"
    },
    {
      "inputs": [],
      "name": "offsetsCount",
      "outputs": [
        {
          "internalType": "uint64",
          "name": "",
          "type": "uint64"
        }
      ],
      "stateMutability": "view",
      "type": "function"
    },
    {
      "inputs": [
        {
          "internalType": "uint64",
          "name": "",
          "type": "uint64"
        }
      ],
      "name": "publications",
      "outputs": [
        {
          "internalType": "address",
          "name": "supporterAddress",
          "type": "address"
        },
        {
          "internalType": "uint256",
          "name": "createdAt",
          "type": "uint256"
        },
        {
          "internalType": "uint256",
          "name": "amount",
          "type": "uint256"
        },
        {
          "internalType": "string",
          "name": "description",
          "type": "string"
        },
        {
          "internalType": "string",
          "name": "content",
          "type": "string"
        }
      ],
      "stateMutability": "view",
      "type": "function"
    },
    {
      "inputs": [],
      "name": "publicationsCount",
      "outputs": [
        {
          "internalType": "uint64",
          "name": "",
          "type": "uint64"
        }
      ],
      "stateMutability": "view",
      "type": "function"
    },
    {
      "inputs": [
        {
          "internalType": "uint256",
          "name": "amount",
          "type": "uint256"
        },
        {
          "internalType": "uint256",
          "name": "minAmountToBurn",
          "type": "uint256"
        },
        {
          "internalType": "string",
          "name": "description",
          "type": "string"
        },
        {
          "internalType": "string",
          "name": "content",
          "type": "string"
        }
      ],
      "name": "publish",
      "outputs": [],
      "stateMutability": "nonpayable",
      "type": "function"
    },
    {
      "inputs": [
        {
          "internalType": "address",
          "name": "",
          "type": "address"
        },
        {
          "internalType": "uint256",
          "name": "",
          "type": "uint256"
        }
      ],
      "name": "reductionCommitments",
      "outputs": [
        {
          "internalType": "uint64",
          "name": "",
          "type": "uint64"
        }
      ],
      "stateMutability": "view",
      "type": "function"
    },
    {
      "inputs": [],
      "name": "regenerationCredit",
      "outputs": [
        {
          "internalType": "contract IRegenerationCredit",
          "name": "",
          "type": "address"
        }
      ],
      "stateMutability": "view",
      "type": "function"
    },
    {
      "inputs": [
        {
          "internalType": "uint256",
          "name": "",
          "type": "uint256"
        }
      ],
      "name": "supportersAddress",
      "outputs": [
        {
          "internalType": "address",
          "name": "",
          "type": "address"
        }
      ],
      "stateMutability": "view",
      "type": "function"
    },
    {
      "inputs": [
        {
          "internalType": "string",
          "name": "newPhoto",
          "type": "string"
        }
      ],
      "name": "updateProfilePhoto",
      "outputs": [],
      "stateMutability": "nonpayable",
      "type": "function"
    }
  ],
  "bytecode": "0x6080604052348015600f57600080fd5b50604051612489380380612489833981016040819052602c91608d565b6001600055600980546001600160a01b039485166001600160a01b031991821617909155600a805493851693821693909317909255600b805491909316911617905560c9565b80516001600160a01b0381168114608857600080fd5b919050565b60008060006060848603121560a157600080fd5b60a8846072565b925060b4602085016072565b915060c0604085016072565b90509250925092565b6123b1806100d86000396000f3fe608060405234801561001057600080fd5b506004361061010b5760003560e01c8063780bc4e5116100a2578063dc02837f11610071578063dc02837f1461025c578063ee9645e81461027c578063f3dbcae0146102ba578063f8a47d8a146102de578063f9c5512c1461034757600080fd5b8063780bc4e5146101fc57806385851afc1461020f57806394cea0a314610222578063d4fadeae1461023c57600080fd5b806320f5f456116100de57806320f5f456146101b05780632e7759ba146101c35780632f9ed1ef146101d65780635383217b146101e957600080fd5b806305b95fbe146101105780630864e8f6146101565780630d378ffd146101885780630e2647ad1461019b575b600080fd5b61013961011e366004611892565b6005602052600090815260409020546001600160a01b031681565b6040516001600160a01b0390911681526020015b60405180910390f35b60065461017090600160401b90046001600160401b031681565b6040516001600160401b03909116815260200161014d565b6101706101963660046118c3565b610380565b6101ae6101a93660046119da565b6103cc565b005b6101ae6101be366004611a2b565b6104c4565b6101ae6101d1366004611a4f565b61078d565b600b54610139906001600160a01b031681565b6101ae6101f7366004611ae0565b610a88565b6101ae61020a366004611b19565b610f15565b600654610170906001600160401b031681565b61022a600581565b60405160ff909116815260200161014d565b61024f61024a366004611b93565b61130f565b60405161014d9190611bb0565b61026f61026a366004611b93565b6113ad565b60405161014d9190611c4c565b6102aa61028a3660046118c3565b600460209081526000928352604080842090915290825290205460ff1681565b604051901515815260200161014d565b6102cd6102c8366004611a2b565b61165d565b60405161014d959493929190611d2d565b61031d6102ec366004611a2b565b60086020526000908152604090208054600182015460028301546003909301546001600160a01b0390921692909184565b604080516001600160a01b039095168552602085019390935291830152606082015260800161014d565b610372610355366004611d78565b600260209081526000928352604080842090915290825290205481565b60405190815260200161014d565b6003602052816000526040600020818154811061039c57600080fd5b9060005260206000209060049182820401919006600802915091509054906101000a90046001600160401b031681565b8051609610156104145760405162461bcd60e51b815260206004820152600e60248201526d4d6178206368617261637465727360901b60448201526064015b60405180910390fd5b600954604051631292f8c160e31b81526001600160a01b0390911690639497c60890610447906007903390600401611dd3565b602060405180830381865afa158015610464573d6000803e3d6000fd5b505050506040513d601f19601f820116820180604052508101906104889190611df9565b6104a45760405162461bcd60e51b815260040161040b90611e1b565b3360009081526001602052604090206003016104c08282611ecc565b5050565b600954604051631292f8c160e31b81526001600160a01b0390911690639497c608906104f7906007903390600401611dd3565b602060405180830381865afa158015610514573d6000803e3d6000fd5b505050506040513d601f19601f820116820180604052508101906105389190611df9565b6105545760405162461bcd60e51b815260040161040b90611e1b565b3360009081526004602090815260408083206001600160401b038516845290915290205460ff16156105c85760405162461bcd60e51b815260206004820152601b60248201527f436f6d6d69746d656e7420616c7265616479206465636c617265640000000000604482015260640161040b565b600a546040516311868d0b60e01b81526001600160401b03831660048201526000916001600160a01b0316906311868d0b90602401600060405180830381865afa15801561061a573d6000803e3d6000fd5b505050506040513d6000823e601f3d908101601f191682016040526106429190810190611fea565b80519091506001600160401b031661069c5760405162461bcd60e51b815260206004820152601e60248201527f43616c63756c61746f72206974656d20646f6573206e6f742065786973740000604482015260640161040b565b336000818152600360208181526040808420805460018181018355918652838620600480830490910180546001600160401b03808d1660089590991685026101000a898102910219909116179055878752808552838720958752948452828620805460ff19168317905595855290915290912001805461ffff600160401b9091041691610728836120fd565b825461ffff9182166101009390930a928302919092021990911617905550604080516001600160401b038416815243602082015233917f6a8703d0dfd7a2ebeec57615dbfe3bd225042a61a5ddc5e565d02ee8cc27c82d910160405180910390a25050565b82516032108015906107a15750815160c810155b80156107af57508051609610155b6107f45760405162461bcd60e51b815260206004820152601660248201527513585e0818da185c9858dd195c9cc81c995858da195960521b604482015260640161040b565b60095460405162f5960960e51b81526000916001600160a01b031690631eb2c120906108259060079060040161211e565b602060405180830381865afa158015610842573d6000803e3d6000fd5b505050506040513d601f19601f820116820180604052508101906108669190612132565b61087190600161214f565b60408051610120810182526001600160401b0380841682523360208084018281528486018b8152606086018b9052608086018a9052600060a0870181905260c0870181905260e0870181905243610100880152938452600192839052959092208451815493516001600160a01b0316600160401b026001600160e01b03199094169416939093179190911782559251939450909290918201906109149082611ecc565b50606082015160028201906109299082611ecc565b506080820151600382019061093e9082611ecc565b5060a08201516004808301805460c086015160e087015161ffff16600160401b0269ffff00000000000000001963ffffffff9283166401000000000267ffffffffffffffff199094169290961691909117919091179390931692909217909155610100909201516005918201556001600160401b038316600090815260209190915260409081902080546001600160a01b031916339081179091556009549151639c3eead960e01b81526001600160a01b039290921692639c3eead992610a0992916007910161216e565b600060405180830381600087803b158015610a2357600080fd5b505af1158015610a37573d6000803e3d6000fd5b50505050336001600160a01b03167f2fe5386557a95a5d820fa0514dc2a3c8d60986e6f41bace2d281e6b8d63636eb82868543604051610a7a949392919061218b565b60405180910390a250505050565b610a906117a8565b600a546040516311868d0b60e01b81526001600160401b03831660048201526000916001600160a01b0316906311868d0b90602401600060405180830381865afa158015610ae2573d6000803e3d6000fd5b505050506040513d6000823e601f3d908101601f19168201604052610b0a9190810190611fea565b516001600160401b031611610b615760405162461bcd60e51b815260206004820152601e60248201527f43616c63756c61746f72206974656d20646f6573206e6f742065786973740000604482015260640161040b565b600954604051631292f8c160e31b81526001600160a01b0390911690639497c60890610b94906007903390600401611dd3565b602060405180830381865afa158015610bb1573d6000803e3d6000fd5b505050506040513d601f19601f82011682018060405250810190610bd59190611df9565b610bf15760405162461bcd60e51b815260040161040b90611e1b565b670de0b6b3a7640000831015610c495760405162461bcd60e51b815260206004820152601c60248201527f416d6f756e74206d757374206265206174206c65617374203120524300000000604482015260640161040b565b6000806000610c5833876117d2565b92509250925084831015610c7e5760405162461bcd60e51b815260040161040b906121d1565b600082118015610c9657506001600160a01b03811615155b15610d1a57600b546040516323b872dd60e01b81523360048201526001600160a01b03838116602483015260448201859052909116906323b872dd906064016020604051808303816000875af1158015610cf4573d6000803e3d6000fd5b505050506040513d601f19601f82011682018060405250810190610d189190611df9565b505b600b5460405163079cc67960e41b8152336004820152602481018590526001600160a01b03909116906379cc679090604401600060405180830381600087803b158015610d6657600080fd5b505af1158015610d7a573d6000803e3d6000fd5b5050600680546001600160401b0316925090506000610d988361221e565b82546101009290920a6001600160401b038181021990931691831602179091556006543360009081526002602090815260408083208a8616845290915281208054929093169350869291610ded908490612240565b909155505060408051608081018252338082524360208084019182528385018981526001600160401b038b811660608701908152908816600090815260088452878120965187546001600160a01b0319166001600160a01b03909116178755935160018088019190915591516002870155516003909501949094559181529190522060049081018054640100000000900463ffffffff1691610e8e83612253565b82546101009290920a63ffffffff81810219909316919092169190910217905550604080516001600160401b03838116825260208201879052871681830152436060820152905133917f37402fe4219227a84d8eb9834b7e64d61f4f583fd5a522e66731a697afecaf65919081900360800190a250505050610f106001600055565b505050565b610f1d6117a8565b600954604051631292f8c160e31b81526001600160a01b0390911690639497c60890610f50906007903390600401611dd3565b602060405180830381865afa158015610f6d573d6000803e3d6000fd5b505050506040513d601f19601f82011682018060405250810190610f919190611df9565b610fad5760405162461bcd60e51b815260040161040b90611e1b565b678ac7230489e800008410156110055760405162461bcd60e51b815260206004820152601d60248201527f416d6f756e74206d757374206265206174206c65617374203130205243000000604482015260640161040b565b81516102581080159061101b5750805161025810155b61105c5760405162461bcd60e51b81526020600482015260126024820152714d617820363030206368617261637465727360701b604482015260640161040b565b600080600061106b33886117d2565b925092509250858310156110915760405162461bcd60e51b815260040161040b906121d1565b6000821180156110a957506001600160a01b03811615155b1561112d57600b546040516323b872dd60e01b81523360048201526001600160a01b03838116602483015260448201859052909116906323b872dd906064016020604051808303816000875af1158015611107573d6000803e3d6000fd5b505050506040513d601f19601f8201168201806040525081019061112b9190611df9565b505b600b5460405163079cc67960e41b8152336004820152602481018590526001600160a01b03909116906379cc679090604401600060405180830381600087803b15801561117957600080fd5b505af115801561118d573d6000803e3d6000fd5b505060068054600160401b90046001600160401b03169250905060086111b28361221e565b82546101009290920a6001600160401b038181021990931691831602179091556006546040805160a0810182523381524360208083019182528284018a8152606084018d8152608085018d9052600160401b90960490961660008181526007909252939020825181546001600160a01b0319166001600160a01b039091161781559051600182015593516002850155915190935090919060038201906112589082611ecc565b506080820151600482019061126d9082611ecc565b5050336000908152600160205260408120600401805463ffffffff1692509061129583612253565b91906101000a81548163ffffffff021916908363ffffffff16021790555050336001600160a01b03167fdf5cfbe4bde5ebebb5a679aed00fda9e915bd7d3b29742fe92dd2326636d3f21828689436040516112f3949392919061226f565b60405180910390a2505050506113096001600055565b50505050565b6001600160a01b0381166000908152600360209081526040918290208054835181840281018401909452808452606093928301828280156113a157602002820191906000526020600020906000905b82829054906101000a90046001600160401b03166001600160401b03168152602001906008019060208260070104928301926001038202915080841161135e5790505b50505050509050919050565b61141e60405180610120016040528060006001600160401b0316815260200160006001600160a01b03168152602001606081526020016060815260200160608152602001600063ffffffff168152602001600063ffffffff168152602001600061ffff168152602001600081525090565b6001600160a01b0380831660009081526001602081815260409283902083516101208101855281546001600160401b0381168252600160401b9004909516918501919091529081018054919284019161147690611e44565b80601f01602080910402602001604051908101604052809291908181526020018280546114a290611e44565b80156114ef5780601f106114c4576101008083540402835291602001916114ef565b820191906000526020600020905b8154815290600101906020018083116114d257829003601f168201915b5050505050815260200160028201805461150890611e44565b80601f016020809104026020016040519081016040528092919081815260200182805461153490611e44565b80156115815780601f1061155657610100808354040283529160200191611581565b820191906000526020600020905b81548152906001019060200180831161156457829003601f168201915b5050505050815260200160038201805461159a90611e44565b80601f01602080910402602001604051908101604052809291908181526020018280546115c690611e44565b80156116135780601f106115e857610100808354040283529160200191611613565b820191906000526020600020905b8154815290600101906020018083116115f657829003601f168201915b5050509183525050600482015463ffffffff80821660208401526401000000008204166040830152600160401b900461ffff16606082015260059091015460809091015292915050565b60076020526000908152604090208054600182015460028301546003840180546001600160a01b0390941694929391929161169790611e44565b80601f01602080910402602001604051908101604052809291908181526020018280546116c390611e44565b80156117105780601f106116e557610100808354040283529160200191611710565b820191906000526020600020905b8154815290600101906020018083116116f357829003601f168201915b50505050509080600401805461172590611e44565b80601f016020809104026020016040519081016040528092919081815260200182805461175190611e44565b801561179e5780601f106117735761010080835404028352916020019161179e565b820191906000526020600020905b81548152906001019060200180831161178157829003601f168201915b5050505050905085565b6002600054036117cb57604051633ee5aeb560e01b815260040160405180910390fd5b6002600055565b60095460405163158bdc5f60e11b81526001600160a01b0384811660048301526000928392839283921690632b17b8be90602401608060405180830381865afa158015611823573d6000803e3d6000fd5b505050506040513d601f19601f8201168201806040525081019061184791906122a8565b60608101516020820151935090915015158061186457600061187b565b606461187160058861232f565b61187b9190612346565b93506118878487612368565b945050509250925092565b6000602082840312156118a457600080fd5b5035919050565b6001600160a01b03811681146118c057600080fd5b50565b600080604083850312156118d657600080fd5b82356118e1816118ab565b946020939093013593505050565b634e487b7160e01b600052604160045260246000fd5b60405160e081016001600160401b0381118282101715611927576119276118ef565b60405290565b604051601f8201601f191681016001600160401b0381118282101715611955576119556118ef565b604052919050565b60006001600160401b03821115611976576119766118ef565b50601f01601f191660200190565b600082601f83011261199557600080fd5b81356119a86119a38261195d565b61192d565b8181528460208386010111156119bd57600080fd5b816020850160208301376000918101602001919091529392505050565b6000602082840312156119ec57600080fd5b81356001600160401b03811115611a0257600080fd5b611a0e84828501611984565b949350505050565b6001600160401b03811681146118c057600080fd5b600060208284031215611a3d57600080fd5b8135611a4881611a16565b9392505050565b600080600060608486031215611a6457600080fd5b83356001600160401b03811115611a7a57600080fd5b611a8686828701611984565b93505060208401356001600160401b03811115611aa257600080fd5b611aae86828701611984565b92505060408401356001600160401b03811115611aca57600080fd5b611ad686828701611984565b9150509250925092565b600080600060608486031215611af557600080fd5b83359250602084013591506040840135611b0e81611a16565b809150509250925092565b60008060008060808587031215611b2f57600080fd5b843593506020850135925060408501356001600160401b03811115611b5357600080fd5b611b5f87828801611984565b92505060608501356001600160401b03811115611b7b57600080fd5b611b8787828801611984565b91505092959194509250565b600060208284031215611ba557600080fd5b8135611a48816118ab565b602080825282518282018190526000918401906040840190835b81811015611bf15783516001600160401b0316835260209384019390920191600101611bca565b509095945050505050565b60005b83811015611c17578181015183820152602001611bff565b50506000910152565b60008151808452611c38816020860160208601611bfc565b601f01601f19169290920160200192915050565b60208152611c666020820183516001600160401b03169052565b60006020830151611c8260408401826001600160a01b03169052565b5060408301516101206060840152611c9e610140840182611c20565b90506060840151601f19848303016080850152611cbb8282611c20565b9150506080840151601f198483030160a0850152611cd98282611c20565b91505060a0840151611cf360c085018263ffffffff169052565b5060c084015163ffffffff811660e08501525060e084015161ffff8116610100850152506101008401516101208401528091505092915050565b60018060a01b038616815284602082015283604082015260a060608201526000611d5a60a0830185611c20565b8281036080840152611d6c8185611c20565b98975050505050505050565b60008060408385031215611d8b57600080fd5b8235611d96816118ab565b91506020830135611da681611a16565b809150509250929050565b60088110611dcf57634e487b7160e01b600052602160045260246000fd5b9052565b60408101611de18285611db1565b6001600160a01b039290921660209190910152919050565b600060208284031215611e0b57600080fd5b81518015158114611a4857600080fd5b6020808252600f908201526e4f6e6c7920737570706f727465727360881b604082015260600190565b600181811c90821680611e5857607f821691505b602082108103611e7857634e487b7160e01b600052602260045260246000fd5b50919050565b601f821115610f1057806000526020600020601f840160051c81016020851015611ea55750805b601f840160051c820191505b81811015611ec55760008155600101611eb1565b5050505050565b81516001600160401b03811115611ee557611ee56118ef565b611ef981611ef38454611e44565b84611e7e565b6020601f821160018114611f2d5760008315611f155750848201515b600019600385901b1c1916600184901b178455611ec5565b600084815260208120601f198516915b82811015611f5d5787850151825560209485019460019092019101611f3d565b5084821015611f7b5786840151600019600387901b60f8161c191681555b50505050600190811b01905550565b8051611f9581611a16565b919050565b8051611f95816118ab565b600082601f830112611fb657600080fd5b8151611fc46119a38261195d565b818152846020838601011115611fd957600080fd5b611a0e826020830160208701611bfc565b600060208284031215611ffc57600080fd5b81516001600160401b0381111561201257600080fd5b820160e0818503121561202457600080fd5b61202c611905565b61203582611f8a565b815261204360208301611f9a565b602082015260408201516001600160401b0381111561206157600080fd5b61206d86828501611fa5565b60408301525060608201516001600160401b0381111561208c57600080fd5b61209886828501611fa5565b60608301525060808201516001600160401b038111156120b757600080fd5b6120c386828501611fa5565b60808301525060a0828101519082015260c091820151918101919091529392505050565b634e487b7160e01b600052601160045260246000fd5b600061ffff821661ffff8103612115576121156120e7565b60010192915050565b6020810161212c8284611db1565b92915050565b60006020828403121561214457600080fd5b8151611a4881611a16565b6001600160401b03818116838216019081111561212c5761212c6120e7565b6001600160a01b038316815260408101611a486020830184611db1565b6001600160401b03851681526080602082015260006121ad6080830186611c20565b82810360408401526121bf8186611c20565b91505082606083015295945050505050565b6020808252602d908201527f536c6970706167653a20616d6f756e7420746f206275726e206973206c65737360408201526c207468616e206d696e696d756d60981b606082015260800190565b60006001600160401b0382166001600160401b038103612115576121156120e7565b8082018082111561212c5761212c6120e7565b600063ffffffff821663ffffffff8103612115576121156120e7565b6001600160401b03851681528360208201526080604082015260006122976080830185611c20565b905082606083015295945050505050565b600060808284031280156122bb57600080fd5b50604051600090608081016001600160401b03811182821017156122e1576122e16118ef565b60405283516122ef816118ab565b815260208401516122ff816118ab565b6020820152604084015160088110612315578283fd5b604082015260609384015193810193909352509092915050565b808202811582820484141761212c5761212c6120e7565b60008261236357634e487b7160e01b600052601260045260246000fd5b500490565b8181038181111561212c5761212c6120e756fea264697066735822122088fb0c76a8b1b345f1ef71d0b63fe19fec79d296df7c19f36d5eb9133a2ec54364736f6c634300081b0033",
  "linkReferences": {},
  "deployedLinkReferences": {}
}