{
  "_format": "hh-sol-artifact-1",
  "contractName": "SupporterRules",
  "sourceName": "contracts/SupporterRules.sol",
  "abi": [
    {
      "inputs": [
        {
          "internalType": "address",
          "name": "communityRulesAddress",
          "type": "address"
        },
        {
          "internalType": "address",
          "name": "researcherRulesAddress",
          "type": "address"
        }
      ],
      "stateMutability": "nonpayable",
      "type": "constructor"
    },
    {
      "inputs": [
        {
          "internalType": "address",
          "name": "owner",
          "type": "address"
        }
      ],
      "name": "OwnableInvalidOwner",
      "type": "error"
    },
    {
      "inputs": [
        {
          "internalType": "address",
          "name": "account",
          "type": "address"
        }
      ],
      "name": "OwnableUnauthorizedAccount",
      "type": "error"
    },
    {
      "anonymous": false,
      "inputs": [
        {
          "indexed": true,
          "internalType": "address",
          "name": "supporterAddress",
          "type": "address"
        },
        {
          "indexed": false,
          "internalType": "uint256",
          "name": "offsetId",
          "type": "uint256"
        },
        {
          "indexed": false,
          "internalType": "uint256",
          "name": "amountBurned",
          "type": "uint256"
        },
        {
          "indexed": false,
          "internalType": "uint256",
          "name": "calculatorItemId",
          "type": "uint256"
        },
        {
          "indexed": false,
          "internalType": "uint256",
          "name": "blockNumber",
          "type": "uint256"
        }
      ],
      "name": "OffsetMade",
      "type": "event"
    },
    {
      "anonymous": false,
      "inputs": [
        {
          "indexed": true,
          "internalType": "address",
          "name": "previousOwner",
          "type": "address"
        },
        {
          "indexed": true,
          "internalType": "address",
          "name": "newOwner",
          "type": "address"
        }
      ],
      "name": "OwnershipTransferred",
      "type": "event"
    },
    {
      "anonymous": false,
      "inputs": [
        {
          "indexed": true,
          "internalType": "address",
          "name": "publisherAddress",
          "type": "address"
        },
        {
          "indexed": false,
          "internalType": "uint256",
          "name": "publicationId",
          "type": "uint256"
        },
        {
          "indexed": false,
          "internalType": "uint256",
          "name": "amountBurned",
          "type": "uint256"
        },
        {
          "indexed": false,
          "internalType": "string",
          "name": "description",
          "type": "string"
        },
        {
          "indexed": false,
          "internalType": "uint256",
          "name": "blockNumber",
          "type": "uint256"
        }
      ],
      "name": "PublicationPosted",
      "type": "event"
    },
    {
      "anonymous": false,
      "inputs": [
        {
          "indexed": true,
          "internalType": "address",
          "name": "supporterAddress",
          "type": "address"
        },
        {
          "indexed": false,
          "internalType": "uint256",
          "name": "calculatorItemId",
          "type": "uint256"
        },
        {
          "indexed": false,
          "internalType": "uint256",
          "name": "blockNumber",
          "type": "uint256"
        }
      ],
      "name": "ReductionCommitmentDeclared",
      "type": "event"
    },
    {
      "anonymous": false,
      "inputs": [
        {
          "indexed": true,
          "internalType": "address",
          "name": "supporterAddress",
          "type": "address"
        },
        {
          "indexed": false,
          "internalType": "uint256",
          "name": "supporterId",
          "type": "uint256"
        },
        {
          "indexed": false,
          "internalType": "string",
          "name": "name",
          "type": "string"
        },
        {
          "indexed": false,
          "internalType": "string",
          "name": "profilePhoto",
          "type": "string"
        },
        {
          "indexed": false,
          "internalType": "uint256",
          "name": "createdAtBlock",
          "type": "uint256"
        }
      ],
      "name": "SupporterRegistered",
      "type": "event"
    },
    {
      "inputs": [],
      "name": "INVITER_PERCENTAGE",
      "outputs": [
        {
          "internalType": "uint8",
          "name": "",
          "type": "uint8"
        }
      ],
      "stateMutability": "view",
      "type": "function"
    },
    {
      "inputs": [
        {
          "internalType": "string",
          "name": "name",
          "type": "string"
        },
        {
          "internalType": "string",
          "name": "description",
          "type": "string"
        },
        {
          "internalType": "string",
          "name": "profilePhoto",
          "type": "string"
        }
      ],
      "name": "addSupporter",
      "outputs": [],
      "stateMutability": "nonpayable",
      "type": "function"
    },
    {
      "inputs": [
        {
          "internalType": "address",
          "name": "",
          "type": "address"
        }
      ],
      "name": "allowedCallers",
      "outputs": [
        {
          "internalType": "bool",
          "name": "",
          "type": "bool"
        }
      ],
      "stateMutability": "view",
      "type": "function"
    },
    {
      "inputs": [
        {
          "internalType": "address",
          "name": "",
          "type": "address"
        },
        {
          "internalType": "uint64",
          "name": "",
          "type": "uint64"
        }
      ],
      "name": "calculatorItemCertificates",
      "outputs": [
        {
          "internalType": "uint256",
          "name": "",
          "type": "uint256"
        }
      ],
      "stateMutability": "view",
      "type": "function"
    },
    {
      "inputs": [
        {
          "internalType": "uint64",
          "name": "calculatorItemId",
          "type": "uint64"
        }
      ],
      "name": "declareReductionCommitment",
      "outputs": [],
      "stateMutability": "nonpayable",
      "type": "function"
    },
    {
      "inputs": [
        {
          "internalType": "address",
          "name": "",
          "type": "address"
        },
        {
          "internalType": "uint256",
          "name": "",
          "type": "uint256"
        }
      ],
      "name": "declaredReduction",
      "outputs": [
        {
          "internalType": "bool",
          "name": "",
          "type": "bool"
        }
      ],
      "stateMutability": "view",
      "type": "function"
    },
    {
      "inputs": [
        {
          "internalType": "address",
          "name": "addr",
          "type": "address"
        }
      ],
      "name": "getReductionCommitments",
      "outputs": [
        {
          "internalType": "uint64[]",
          "name": "",
          "type": "uint64[]"
        }
      ],
      "stateMutability": "view",
      "type": "function"
    },
    {
      "inputs": [
        {
          "internalType": "address",
          "name": "addr",
          "type": "address"
        }
      ],
      "name": "getSupporter",
      "outputs": [
        {
          "components": [
            {
              "internalType": "uint64",
              "name": "id",
              "type": "uint64"
            },
            {
              "internalType": "address",
              "name": "supporterWallet",
              "type": "address"
            },
            {
              "internalType": "string",
              "name": "name",
              "type": "string"
            },
            {
              "internalType": "string",
              "name": "description",
              "type": "string"
            },
            {
              "internalType": "string",
              "name": "profilePhoto",
              "type": "string"
            },
            {
              "internalType": "uint32",
              "name": "publicationsCount",
              "type": "uint32"
            },
            {
              "internalType": "uint32",
              "name": "offsetsCount",
              "type": "uint32"
            },
            {
              "internalType": "uint16",
              "name": "reductionItemsCount",
              "type": "uint16"
            },
            {
              "internalType": "uint256",
              "name": "createdAt",
              "type": "uint256"
            }
          ],
          "internalType": "struct Supporter",
          "name": "",
          "type": "tuple"
        }
      ],
      "stateMutability": "view",
      "type": "function"
    },
    {
      "inputs": [
        {
          "internalType": "address",
          "name": "caller",
          "type": "address"
        }
      ],
      "name": "isAllowedCaller",
      "outputs": [
        {
          "internalType": "bool",
          "name": "",
          "type": "bool"
        }
      ],
      "stateMutability": "view",
      "type": "function"
    },
    {
      "inputs": [
        {
          "internalType": "address",
          "name": "addr",
          "type": "address"
        }
      ],
      "name": "isSupporter",
      "outputs": [
        {
          "internalType": "bool",
          "name": "",
          "type": "bool"
        }
      ],
      "stateMutability": "view",
      "type": "function"
    },
    {
      "inputs": [
        {
          "internalType": "address",
          "name": "allowed",
          "type": "address"
        }
      ],
      "name": "newAllowedCaller",
      "outputs": [],
      "stateMutability": "nonpayable",
      "type": "function"
    },
    {
      "inputs": [
        {
          "internalType": "address",
          "name": "supporterAddress",
          "type": "address"
        },
        {
          "internalType": "uint256",
          "name": "amountToBurn",
          "type": "uint256"
        },
        {
          "internalType": "uint64",
          "name": "calculatorItemId",
          "type": "uint64"
        }
      ],
      "name": "offset",
      "outputs": [],
      "stateMutability": "nonpayable",
      "type": "function"
    },
    {
      "inputs": [
        {
          "internalType": "uint64",
          "name": "",
          "type": "uint64"
        }
      ],
      "name": "offsets",
      "outputs": [
        {
          "internalType": "address",
          "name": "supporterAddress",
          "type": "address"
        },
        {
          "internalType": "uint256",
          "name": "createdAt",
          "type": "uint256"
        },
        {
          "internalType": "uint256",
          "name": "amountBurn",
          "type": "uint256"
        },
        {
          "internalType": "uint256",
          "name": "calculatorItemId",
          "type": "uint256"
        }
      ],
      "stateMutability": "view",
      "type": "function"
    },
    {
      "inputs": [],
      "name": "offsetsCount",
      "outputs": [
        {
          "internalType": "uint64",
          "name": "",
          "type": "uint64"
        }
      ],
      "stateMutability": "view",
      "type": "function"
    },
    {
      "inputs": [],
      "name": "owner",
      "outputs": [
        {
          "internalType": "address",
          "name": "",
          "type": "address"
        }
      ],
      "stateMutability": "view",
      "type": "function"
    },
    {
      "inputs": [
        {
          "internalType": "uint64",
          "name": "",
          "type": "uint64"
        }
      ],
      "name": "publications",
      "outputs": [
        {
          "internalType": "address",
          "name": "supporterAddress",
          "type": "address"
        },
        {
          "internalType": "uint256",
          "name": "createdAt",
          "type": "uint256"
        },
        {
          "internalType": "uint256",
          "name": "amount",
          "type": "uint256"
        },
        {
          "internalType": "string",
          "name": "description",
          "type": "string"
        },
        {
          "internalType": "string",
          "name": "content",
          "type": "string"
        }
      ],
      "stateMutability": "view",
      "type": "function"
    },
    {
      "inputs": [],
      "name": "publicationsCount",
      "outputs": [
        {
          "internalType": "uint64",
          "name": "",
          "type": "uint64"
        }
      ],
      "stateMutability": "view",
      "type": "function"
    },
    {
      "inputs": [
        {
          "internalType": "address",
          "name": "supporterAddress",
          "type": "address"
        },
        {
          "internalType": "uint256",
          "name": "amountToBurn",
          "type": "uint256"
        },
        {
          "internalType": "string",
          "name": "description",
          "type": "string"
        },
        {
          "internalType": "string",
          "name": "content",
          "type": "string"
        }
      ],
      "name": "publish",
      "outputs": [],
      "stateMutability": "nonpayable",
      "type": "function"
    },
    {
      "inputs": [
        {
          "internalType": "address",
          "name": "",
          "type": "address"
        },
        {
          "internalType": "uint256",
          "name": "",
          "type": "uint256"
        }
      ],
      "name": "reductionCommitments",
      "outputs": [
        {
          "internalType": "uint64",
          "name": "",
          "type": "uint64"
        }
      ],
      "stateMutability": "view",
      "type": "function"
    },
    {
      "inputs": [],
      "name": "renounceOwnership",
      "outputs": [],
      "stateMutability": "nonpayable",
      "type": "function"
    },
    {
      "inputs": [
        {
          "internalType": "address",
          "name": "_regenerationCreditAddress",
          "type": "address"
        }
      ],
      "name": "setContractCall",
      "outputs": [],
      "stateMutability": "nonpayable",
      "type": "function"
    },
    {
      "inputs": [
        {
          "internalType": "uint256",
          "name": "",
          "type": "uint256"
        }
      ],
      "name": "supportersAddress",
      "outputs": [
        {
          "internalType": "address",
          "name": "",
          "type": "address"
        }
      ],
      "stateMutability": "view",
      "type": "function"
    },
    {
      "inputs": [
        {
          "internalType": "address",
          "name": "newOwner",
          "type": "address"
        }
      ],
      "name": "transferOwnership",
      "outputs": [],
      "stateMutability": "nonpayable",
      "type": "function"
    },
    {
      "inputs": [
        {
          "internalType": "string",
          "name": "newPhoto",
          "type": "string"
        }
      ],
      "name": "updateProfilePhoto",
      "outputs": [],
      "stateMutability": "nonpayable",
      "type": "function"
    }
  ],
  "bytecode": "0x608060405234801561001057600080fd5b5060405161225538038061225583398101604081905261002f916100fc565b338061005557604051631e4fbdf760e01b81526000600482015260240160405180910390fd5b61005e81610090565b50600a80546001600160a01b039384166001600160a01b031991821617909155600b805492909316911617905561012f565b600080546001600160a01b038381166001600160a01b0319831681178455604051919092169283917f8be0079c531659141344cd1fd0a4f28419497f9722a3daafe3b4186f6b6457e09190a35050565b80516001600160a01b03811681146100f757600080fd5b919050565b6000806040838503121561010f57600080fd5b610118836100e0565b9150610126602084016100e0565b90509250929050565b6121178061013e6000396000f3fe608060405234801561001057600080fd5b50600436106101585760003560e01c806394cea0a3116100c3578063e5fb50991161007c578063e5fb509914610354578063ee9645e814610367578063f2fde38b14610395578063f3dbcae0146103a8578063f8a47d8a146103cc578063f9c5512c1461043557600080fd5b806394cea0a3146102a8578063a6801258146102c2578063b9cccee3146102ee578063cf78537f14610301578063d4fadeae14610314578063dc02837f1461033457600080fd5b8063715018a611610115578063715018a614610223578063755d4f971461022b5780637b3341541461023e57806385851afc146102715780638da5cb5b146102845780638f93716f1461029557600080fd5b806305b95fbe1461015d5780630864e8f6146101a35780630d378ffd146101d55780630e2647ad146101e857806320f5f456146101fd5780632e7759ba14610210575b600080fd5b61018661016b366004611741565b6006602052600090815260409020546001600160a01b031681565b6040516001600160a01b0390911681526020015b60405180910390f35b6007546101bd90600160401b90046001600160401b031681565b6040516001600160401b03909116815260200161019a565b6101bd6101e336600461176f565b61046e565b6101fb6101f6366004611886565b6104ba565b005b6101fb61020b3660046118d7565b6105d4565b6101fb61021e3660046118fb565b6108c1565b6101fb610bb9565b6101fb61023936600461198c565b610bcd565b61026161024c36600461198c565b60016020526000908152604090205460ff1681565b604051901515815260200161019a565b6007546101bd906001600160401b031681565b6000546001600160a01b0316610186565b6101fb6102a336600461198c565b610bf7565b6102b0600581565b60405160ff909116815260200161019a565b6102616102d036600461198c565b6001600160a01b031660009081526001602052604090205460ff1690565b6102616102fc36600461198c565b610c26565b6101fb61030f3660046119a9565b610ca1565b61032761032236600461198c565b610ecc565b60405161019a9190611a2c565b61034761034236600461198c565b610f6a565b60405161019a9190611ac8565b6101fb610362366004611ba9565b61121b565b61026161037536600461176f565b600560209081526000928352604080842090915290825290205460ff1681565b6101fb6103a336600461198c565b61153b565b6103bb6103b63660046118d7565b611579565b60405161019a959493929190611beb565b61040b6103da3660046118d7565b60096020526000908152604090208054600182015460028301546003909301546001600160a01b0390921692909184565b604080516001600160a01b039095168552602085019390935291830152606082015260800161019a565b610460610443366004611c36565b600360209081526000928352604080842090915290825290205481565b60405190815260200161019a565b6004602052816000526040600020818154811061048a57600080fd5b9060005260206000209060049182820401919006600802915091509054906101000a90046001600160401b031681565b8051609610156105025760405162461bcd60e51b815260206004820152600e60248201526d4d6178206368617261637465727360901b60448201526064015b60405180910390fd5b600a54604051631292f8c160e31b81526001600160a01b0390911690639497c60890610535906007903390600401611c91565b602060405180830381865afa158015610552573d6000803e3d6000fd5b505050506040513d601f19601f820116820180604052508101906105769190611cb7565b6105b45760405162461bcd60e51b815260206004820152600f60248201526e4f6e6c7920737570706f727465727360881b60448201526064016104f9565b3360009081526002602052604090206003016105d08282611d62565b5050565b600a54604051631292f8c160e31b81526001600160a01b0390911690639497c60890610607906007903390600401611c91565b602060405180830381865afa158015610624573d6000803e3d6000fd5b505050506040513d601f19601f820116820180604052508101906106489190611cb7565b6106865760405162461bcd60e51b815260206004820152600f60248201526e4f6e6c7920737570706f727465727360881b60448201526064016104f9565b3360009081526005602090815260408083206001600160401b038516845290915290205460ff16156106fa5760405162461bcd60e51b815260206004820152601b60248201527f436f6d6d69746d656e7420616c7265616479206465636c61726564000000000060448201526064016104f9565b600b546040516311868d0b60e01b81526001600160401b03831660048201526000916001600160a01b0316906311868d0b90602401600060405180830381865afa15801561074c573d6000803e3d6000fd5b505050506040513d6000823e601f3d908101601f191682016040526107749190810190611e80565b80519091506001600160401b03166107ce5760405162461bcd60e51b815260206004820152601e60248201527f43616c63756c61746f72206974656d20646f6573206e6f74206578697374000060448201526064016104f9565b3360008181526004602081815260408084208054600181810183559186528386208582040180546001600160401b03808c166008600390951685026101000a81810292021990921617909155878752600585528387209087528452828620805460ff1916909217909155948452600290915290912001805461ffff600160401b909104169161085c83611f89565b825461ffff9182166101009390930a928302919092021990911617905550604080516001600160401b038416815243602082015233917f6a8703d0dfd7a2ebeec57615dbfe3bd225042a61a5ddc5e565d02ee8cc27c82d910160405180910390a25050565b82516032108015906108d55750815160c810155b80156108e357508051609610155b6109285760405162461bcd60e51b815260206004820152601660248201527513585e0818da185c9858dd195c9cc81c995858da195960521b60448201526064016104f9565b600a5460405162f5960960e51b81526000916001600160a01b031690631eb2c1209061095990600790600401611faa565b602060405180830381865afa158015610976573d6000803e3d6000fd5b505050506040513d601f19601f8201168201806040525081019061099a9190611fb8565b6109a5906001611fd5565b60408051610120810182526001600160401b0380841682523360208084018281528486018b8152606086018b9052608086018a9052600060a0870181905260c0870181905260e08701819052436101008801529384526002909252949091208351815495516001600160a01b0316600160401b026001600160e01b03199096169316929092179390931781559151929350916001820190610a469082611d62565b5060608201516002820190610a5b9082611d62565b5060808201516003820190610a709082611d62565b5060a08201516004808301805460c086015160e087015161ffff16600160401b0269ffff00000000000000001963ffffffff9283166401000000000267ffffffffffffffff199094169290961691909117919091179390931692909217909155610100909201516005909101556001600160401b0382166000908152600660205260409081902080546001600160a01b03191633908117909155600a549151639c3eead960e01b81526001600160a01b039290921692639c3eead992610b3a929160079101611ff4565b600060405180830381600087803b158015610b5457600080fd5b505af1158015610b68573d6000803e3d6000fd5b50505050336001600160a01b03167f2fe5386557a95a5d820fa0514dc2a3c8d60986e6f41bace2d281e6b8d63636eb82868543604051610bab9493929190612011565b60405180910390a250505050565b610bc16116c4565b610bcb60006116f1565b565b610bd56116c4565b600c80546001600160a01b0319166001600160a01b0392909216919091179055565b610bff6116c4565b6001600160a01b03166000908152600160208190526040909120805460ff19169091179055565b600a54604051631292f8c160e31b81526000916001600160a01b031690639497c60890610c5a906007908690600401611c91565b602060405180830381865afa158015610c77573d6000803e3d6000fd5b505050506040513d601f19601f82011682018060405250810190610c9b9190611cb7565b92915050565b3360009081526001602052604090205460ff16610cf55760405162461bcd60e51b81526020600482015260126024820152712737ba1030b63637bbb2b21031b0b63632b960711b60448201526064016104f9565b600c546001600160a01b0316338114610d505760405162461bcd60e51b815260206004820152601e60248201527f43616c6c6572206d7573742062652073797374656d20636f6e7472616374000060448201526064016104f9565b60078054600160401b90046001600160401b0316906008610d7083612057565b82546101009290920a6001600160401b038181021990931691831602179091556007546040805160a0810182526001600160a01b038a811682524360208084019182528385018c8152606085018c8152608086018c9052600160401b90970490971660008181526008909252949020835181546001600160a01b03191693169290921782555160018201559351600285015591519093509091906003820190610e199082611d62565b5060808201516004820190610e2e9082611d62565b5050506001600160a01b0386166000908152600260205260408120600401805463ffffffff1691610e5e83612079565b91906101000a81548163ffffffff021916908363ffffffff16021790555050856001600160a01b03167fdf5cfbe4bde5ebebb5a679aed00fda9e915bd7d3b29742fe92dd2326636d3f2182878743604051610ebc9493929190612095565b60405180910390a2505050505050565b6001600160a01b038116600090815260046020908152604091829020805483518184028101840190945280845260609392830182828015610f5e57602002820191906000526020600020906000905b82829054906101000a90046001600160401b03166001600160401b031681526020019060080190602082600701049283019260010382029150808411610f1b5790505b50505050509050919050565b610fdb60405180610120016040528060006001600160401b0316815260200160006001600160a01b03168152602001606081526020016060815260200160608152602001600063ffffffff168152602001600063ffffffff168152602001600061ffff168152602001600081525090565b6001600160a01b0380831660009081526002602090815260409182902082516101208101845281546001600160401b0381168252600160401b900490941691840191909152600181018054919284019161103490611cd9565b80601f016020809104026020016040519081016040528092919081815260200182805461106090611cd9565b80156110ad5780601f10611082576101008083540402835291602001916110ad565b820191906000526020600020905b81548152906001019060200180831161109057829003601f168201915b505050505081526020016002820180546110c690611cd9565b80601f01602080910402602001604051908101604052809291908181526020018280546110f290611cd9565b801561113f5780601f106111145761010080835404028352916020019161113f565b820191906000526020600020905b81548152906001019060200180831161112257829003601f168201915b5050505050815260200160038201805461115890611cd9565b80601f016020809104026020016040519081016040528092919081815260200182805461118490611cd9565b80156111d15780601f106111a6576101008083540402835291602001916111d1565b820191906000526020600020905b8154815290600101906020018083116111b457829003601f168201915b5050509183525050600482015463ffffffff80821660208401526401000000008204166040830152600160401b900461ffff16606082015260059091015460809091015292915050565b3360009081526001602052604090205460ff1661126f5760405162461bcd60e51b81526020600482015260126024820152712737ba1030b63637bbb2b21031b0b63632b960711b60448201526064016104f9565b600c546001600160a01b03163381146112ca5760405162461bcd60e51b815260206004820152601e60248201527f43616c6c6572206d7573742062652073797374656d20636f6e7472616374000060448201526064016104f9565b600b546040516311868d0b60e01b81526001600160401b03841660048201526000916001600160a01b0316906311868d0b90602401600060405180830381865afa15801561131c573d6000803e3d6000fd5b505050506040513d6000823e601f3d908101601f191682016040526113449190810190611e80565b516001600160401b03161161139b5760405162461bcd60e51b815260206004820152601e60248201527f43616c63756c61746f72206974656d20646f6573206e6f74206578697374000060448201526064016104f9565b600780546001600160401b03169060006113b483612057565b82546101009290920a6001600160401b038181021990931691831602179091556007546001600160a01b03871660009081526003602090815260408083208886168452909152812080549290931693508692916114129084906120ce565b9091555050604080516080810182526001600160a01b038781168083524360208085019182528486018a81526001600160401b038a811660608801908152908916600090815260098452888120975188546001600160a01b0319169716969096178755925160018701555160028087019190915591516003909501949094559082529091522060049081018054640100000000900463ffffffff16916114b783612079565b82546101009290920a63ffffffff81810219909316919092169190910217905550604080516001600160401b0383811682526020820187905285168183015243606082015290516001600160a01b038716917f37402fe4219227a84d8eb9834b7e64d61f4f583fd5a522e66731a697afecaf65919081900360800190a25050505050565b6115436116c4565b6001600160a01b03811661156d57604051631e4fbdf760e01b8152600060048201526024016104f9565b611576816116f1565b50565b60086020526000908152604090208054600182015460028301546003840180546001600160a01b039094169492939192916115b390611cd9565b80601f01602080910402602001604051908101604052809291908181526020018280546115df90611cd9565b801561162c5780601f106116015761010080835404028352916020019161162c565b820191906000526020600020905b81548152906001019060200180831161160f57829003601f168201915b50505050509080600401805461164190611cd9565b80601f016020809104026020016040519081016040528092919081815260200182805461166d90611cd9565b80156116ba5780601f1061168f576101008083540402835291602001916116ba565b820191906000526020600020905b81548152906001019060200180831161169d57829003601f168201915b5050505050905085565b6000546001600160a01b03163314610bcb5760405163118cdaa760e01b81523360048201526024016104f9565b600080546001600160a01b038381166001600160a01b0319831681178455604051919092169283917f8be0079c531659141344cd1fd0a4f28419497f9722a3daafe3b4186f6b6457e09190a35050565b60006020828403121561175357600080fd5b5035919050565b6001600160a01b038116811461157657600080fd5b6000806040838503121561178257600080fd5b823561178d8161175a565b946020939093013593505050565b634e487b7160e01b600052604160045260246000fd5b60405160c081016001600160401b03811182821017156117d3576117d361179b565b60405290565b604051601f8201601f191681016001600160401b03811182821017156118015761180161179b565b604052919050565b60006001600160401b038211156118225761182261179b565b50601f01601f191660200190565b600082601f83011261184157600080fd5b813561185461184f82611809565b6117d9565b81815284602083860101111561186957600080fd5b816020850160208301376000918101602001919091529392505050565b60006020828403121561189857600080fd5b81356001600160401b038111156118ae57600080fd5b6118ba84828501611830565b949350505050565b6001600160401b038116811461157657600080fd5b6000602082840312156118e957600080fd5b81356118f4816118c2565b9392505050565b60008060006060848603121561191057600080fd5b83356001600160401b0381111561192657600080fd5b61193286828701611830565b93505060208401356001600160401b0381111561194e57600080fd5b61195a86828701611830565b92505060408401356001600160401b0381111561197657600080fd5b61198286828701611830565b9150509250925092565b60006020828403121561199e57600080fd5b81356118f48161175a565b600080600080608085870312156119bf57600080fd5b84356119ca8161175a565b93506020850135925060408501356001600160401b038111156119ec57600080fd5b6119f887828801611830565b92505060608501356001600160401b03811115611a1457600080fd5b611a2087828801611830565b91505092959194509250565b602080825282518282018190526000918401906040840190835b81811015611a6d5783516001600160401b0316835260209384019390920191600101611a46565b509095945050505050565b60005b83811015611a93578181015183820152602001611a7b565b50506000910152565b60008151808452611ab4816020860160208601611a78565b601f01601f19169290920160200192915050565b60208152611ae26020820183516001600160401b03169052565b60006020830151611afe60408401826001600160a01b03169052565b5060408301516101206060840152611b1a610140840182611a9c565b90506060840151601f19848303016080850152611b378282611a9c565b9150506080840151601f198483030160a0850152611b558282611a9c565b91505060a0840151611b6f60c085018263ffffffff169052565b5060c084015163ffffffff811660e08501525060e084015161ffff8116610100850152506101008401516101208401528091505092915050565b600080600060608486031215611bbe57600080fd5b8335611bc98161175a565b9250602084013591506040840135611be0816118c2565b809150509250925092565b60018060a01b038616815284602082015283604082015260a060608201526000611c1860a0830185611a9c565b8281036080840152611c2a8185611a9c565b98975050505050505050565b60008060408385031215611c4957600080fd5b8235611c548161175a565b91506020830135611c64816118c2565b809150509250929050565b60098110611c8d57634e487b7160e01b600052602160045260246000fd5b9052565b60408101611c9f8285611c6f565b6001600160a01b039290921660209190910152919050565b600060208284031215611cc957600080fd5b815180151581146118f457600080fd5b600181811c90821680611ced57607f821691505b602082108103611d0d57634e487b7160e01b600052602260045260246000fd5b50919050565b601f821115611d5d57806000526020600020601f840160051c81016020851015611d3a5750805b601f840160051c820191505b81811015611d5a5760008155600101611d46565b50505b505050565b81516001600160401b03811115611d7b57611d7b61179b565b611d8f81611d898454611cd9565b84611d13565b6020601f821160018114611dc35760008315611dab5750848201515b600019600385901b1c1916600184901b178455611d5a565b600084815260208120601f198516915b82811015611df35787850151825560209485019460019092019101611dd3565b5084821015611e115786840151600019600387901b60f8161c191681555b50505050600190811b01905550565b8051611e2b816118c2565b919050565b8051611e2b8161175a565b600082601f830112611e4c57600080fd5b8151611e5a61184f82611809565b818152846020838601011115611e6f57600080fd5b6118ba826020830160208701611a78565b600060208284031215611e9257600080fd5b81516001600160401b03811115611ea857600080fd5b820160c08185031215611eba57600080fd5b611ec26117b1565b611ecb82611e20565b8152611ed960208301611e30565b602082015260408201516001600160401b03811115611ef757600080fd5b611f0386828501611e3b565b60408301525060608201516001600160401b03811115611f2257600080fd5b611f2e86828501611e3b565b60608301525060808201516001600160401b03811115611f4d57600080fd5b611f5986828501611e3b565b60808301525060a091820151918101919091529392505050565b634e487b7160e01b600052601160045260246000fd5b600061ffff821661ffff8103611fa157611fa1611f73565b60010192915050565b60208101610c9b8284611c6f565b600060208284031215611fca57600080fd5b81516118f4816118c2565b6001600160401b038181168382160190811115610c9b57610c9b611f73565b6001600160a01b0383168152604081016118f46020830184611c6f565b6001600160401b03851681526080602082015260006120336080830186611a9c565b82810360408401526120458186611a9c565b91505082606083015295945050505050565b60006001600160401b0382166001600160401b038103611fa157611fa1611f73565b600063ffffffff821663ffffffff8103611fa157611fa1611f73565b6001600160401b03851681528360208201526080604082015260006120bd6080830185611a9c565b905082606083015295945050505050565b80820180821115610c9b57610c9b611f7356fea26469706673582212200f31f0c726a2503132454ab21cc8ae23188ce21adb626a2e39926dea2914bbac64736f6c634300081b0033",
  "linkReferences": {},
  "deployedLinkReferences": {}
}