{
  "_format": "hh-sol-artifact-1",
  "contractName": "SupporterRules",
  "sourceName": "contracts/SupporterRules.sol",
  "abi": [
    {
      "inputs": [
        {
          "internalType": "address",
          "name": "communityRulesAddress",
          "type": "address"
        },
        {
          "internalType": "address",
          "name": "supporterPoolAddress",
          "type": "address"
        },
        {
          "internalType": "address",
          "name": "researcherRulesAddress",
          "type": "address"
        }
      ],
      "stateMutability": "nonpayable",
      "type": "constructor"
    },
    {
      "inputs": [],
      "name": "INVITER_PERCENTAGE",
      "outputs": [
        {
          "internalType": "uint256",
          "name": "",
          "type": "uint256"
        }
      ],
      "stateMutability": "view",
      "type": "function"
    },
    {
      "inputs": [
        {
          "internalType": "string",
          "name": "name",
          "type": "string"
        }
      ],
      "name": "addSupporter",
      "outputs": [
        {
          "components": [
            {
              "internalType": "uint256",
              "name": "id",
              "type": "uint256"
            },
            {
              "internalType": "address",
              "name": "supporterWallet",
              "type": "address"
            },
            {
              "internalType": "string",
              "name": "name",
              "type": "string"
            },
            {
              "internalType": "uint256",
              "name": "createdAt",
              "type": "uint256"
            }
          ],
          "internalType": "struct Supporter",
          "name": "",
          "type": "tuple"
        }
      ],
      "stateMutability": "nonpayable",
      "type": "function"
    },
    {
      "inputs": [
        {
          "internalType": "uint256",
          "name": "amount",
          "type": "uint256"
        },
        {
          "internalType": "uint256",
          "name": "calculatorItemId",
          "type": "uint256"
        }
      ],
      "name": "burnTokensCalculator",
      "outputs": [],
      "stateMutability": "nonpayable",
      "type": "function"
    },
    {
      "inputs": [
        {
          "internalType": "uint256",
          "name": "amount",
          "type": "uint256"
        },
        {
          "internalType": "string",
          "name": "description",
          "type": "string"
        },
        {
          "internalType": "string",
          "name": "content",
          "type": "string"
        }
      ],
      "name": "burnTokensPublication",
      "outputs": [],
      "stateMutability": "nonpayable",
      "type": "function"
    },
    {
      "inputs": [
        {
          "internalType": "address",
          "name": "",
          "type": "address"
        },
        {
          "internalType": "uint256",
          "name": "",
          "type": "uint256"
        }
      ],
      "name": "calculatorItemCertificates",
      "outputs": [
        {
          "internalType": "uint256",
          "name": "",
          "type": "uint256"
        }
      ],
      "stateMutability": "view",
      "type": "function"
    },
    {
      "inputs": [
        {
          "internalType": "uint256",
          "name": "calculatorItemId",
          "type": "uint256"
        }
      ],
      "name": "declareReductionCommitment",
      "outputs": [],
      "stateMutability": "nonpayable",
      "type": "function"
    },
    {
      "inputs": [
        {
          "internalType": "address",
          "name": "addr",
          "type": "address"
        }
      ],
      "name": "getReductionCommitments",
      "outputs": [
        {
          "internalType": "uint256[]",
          "name": "",
          "type": "uint256[]"
        }
      ],
      "stateMutability": "view",
      "type": "function"
    },
    {
      "inputs": [
        {
          "internalType": "address",
          "name": "addr",
          "type": "address"
        }
      ],
      "name": "getSupporter",
      "outputs": [
        {
          "components": [
            {
              "internalType": "uint256",
              "name": "id",
              "type": "uint256"
            },
            {
              "internalType": "address",
              "name": "supporterWallet",
              "type": "address"
            },
            {
              "internalType": "string",
              "name": "name",
              "type": "string"
            },
            {
              "internalType": "uint256",
              "name": "createdAt",
              "type": "uint256"
            }
          ],
          "internalType": "struct Supporter",
          "name": "",
          "type": "tuple"
        }
      ],
      "stateMutability": "view",
      "type": "function"
    },
    {
      "inputs": [
        {
          "internalType": "address",
          "name": "",
          "type": "address"
        },
        {
          "internalType": "uint256",
          "name": "",
          "type": "uint256"
        }
      ],
      "name": "publications",
      "outputs": [
        {
          "internalType": "uint256",
          "name": "amount",
          "type": "uint256"
        },
        {
          "internalType": "string",
          "name": "description",
          "type": "string"
        },
        {
          "internalType": "string",
          "name": "content",
          "type": "string"
        }
      ],
      "stateMutability": "view",
      "type": "function"
    },
    {
      "inputs": [
        {
          "internalType": "address",
          "name": "",
          "type": "address"
        },
        {
          "internalType": "uint256",
          "name": "",
          "type": "uint256"
        }
      ],
      "name": "reductionCommitments",
      "outputs": [
        {
          "internalType": "uint256",
          "name": "",
          "type": "uint256"
        }
      ],
      "stateMutability": "view",
      "type": "function"
    },
    {
      "inputs": [
        {
          "internalType": "uint256",
          "name": "",
          "type": "uint256"
        }
      ],
      "name": "supportersAddress",
      "outputs": [
        {
          "internalType": "address",
          "name": "",
          "type": "address"
        }
      ],
      "stateMutability": "view",
      "type": "function"
    }
  ],
  "bytecode": "0x608060405234801561001057600080fd5b5060405161238438038061238483398181016040528101906100329190610160565b82600560006101000a81548173ffffffffffffffffffffffffffffffffffffffff021916908373ffffffffffffffffffffffffffffffffffffffff16021790555081600660006101000a81548173ffffffffffffffffffffffffffffffffffffffff021916908373ffffffffffffffffffffffffffffffffffffffff16021790555080600760006101000a81548173ffffffffffffffffffffffffffffffffffffffff021916908373ffffffffffffffffffffffffffffffffffffffff1602179055505050506101b3565b600080fd5b600073ffffffffffffffffffffffffffffffffffffffff82169050919050565b600061012d82610102565b9050919050565b61013d81610122565b811461014857600080fd5b50565b60008151905061015a81610134565b92915050565b600080600060608486031215610179576101786100fd565b5b60006101878682870161014b565b93505060206101988682870161014b565b92505060406101a98682870161014b565b9150509250925092565b6121c2806101c26000396000f3fe608060405234801561001057600080fd5b50600436106100a95760003560e01c806388cc28da1161007157806388cc28da1461018a57806394cea0a3146101a6578063d1059a74146101c4578063d4fadeae146101e0578063dbba601514610210578063dc02837f14610242576100a9565b806305b95fbe146100ae5780630d378ffd146100de5780634d8e43971461010e57806356c899271461013e5780636c960b0d1461015a575b600080fd5b6100c860048036038101906100c391906111a3565b610272565b6040516100d59190611211565b60405180910390f35b6100f860048036038101906100f39190611258565b6102a5565b60405161010591906112a7565b60405180910390f35b61012860048036038101906101239190611408565b6102d6565b6040516101359190611551565b60405180910390f35b61015860048036038101906101539190611573565b610565565b005b610174600480360381019061016f9190611258565b6107ab565b60405161018191906112a7565b60405180910390f35b6101a4600480360381019061019f91906111a3565b6107d0565b005b6101ae610a04565b6040516101bb91906112a7565b60405180910390f35b6101de60048036038101906101d991906115b3565b610a09565b005b6101fa60048036038101906101f5919061163e565b610bf8565b604051610207919061171a565b60405180910390f35b61022a60048036038101906102259190611258565b610c8f565b60405161023993929190611786565b60405180910390f35b61025c6004803603810190610257919061163e565b610de6565b6040516102699190611551565b60405180910390f35b60036020528060005260406000206000915054906101000a900473ffffffffffffffffffffffffffffffffffffffff1681565b600260205281600052604060002081815481106102c157600080fd5b90600052602060002001600091509150505481565b6102de61111b565b60006001600560009054906101000a900473ffffffffffffffffffffffffffffffffffffffff1673ffffffffffffffffffffffffffffffffffffffff16631eb2c12060076040518263ffffffff1660e01b815260040161033e9190611842565b602060405180830381865afa15801561035b573d6000803e3d6000fd5b505050506040513d601f19601f8201168201806040525081019061037f9190611872565b61038991906118ce565b9050600060405180608001604052808381526020013373ffffffffffffffffffffffffffffffffffffffff168152602001858152602001438152509050806000803373ffffffffffffffffffffffffffffffffffffffff1673ffffffffffffffffffffffffffffffffffffffff1681526020019081526020016000206000820151816000015560208201518160010160006101000a81548173ffffffffffffffffffffffffffffffffffffffff021916908373ffffffffffffffffffffffffffffffffffffffff160217905550604082015181600201908161046b9190611b0e565b5060608201518160030155905050336003600084815260200190815260200160002060006101000a81548173ffffffffffffffffffffffffffffffffffffffff021916908373ffffffffffffffffffffffffffffffffffffffff160217905550600560009054906101000a900473ffffffffffffffffffffffffffffffffffffffff1673ffffffffffffffffffffffffffffffffffffffff16639c3eead93360076040518363ffffffff1660e01b8152600401610529929190611be0565b600060405180830381600087803b15801561054357600080fd5b505af1158015610557573d6000803e3d6000fd5b505050508092505050919050565b600560009054906101000a900473ffffffffffffffffffffffffffffffffffffffff1673ffffffffffffffffffffffffffffffffffffffff16639497c6086007336040518363ffffffff1660e01b81526004016105c3929190611c09565b602060405180830381865afa1580156105e0573d6000803e3d6000fd5b505050506040513d601f19601f820116820180604052508101906106049190611c6a565b610643576040517f08c379a000000000000000000000000000000000000000000000000000000000815260040161063a90611ce3565b60405180910390fd5b60008211610686576040517f08c379a000000000000000000000000000000000000000000000000000000000815260040161067d90611d4f565b60405180910390fd5b600061069183610f3a565b905060008211156107a6576000600760009054906101000a900473ffffffffffffffffffffffffffffffffffffffff1673ffffffffffffffffffffffffffffffffffffffff1663a58273c8846040518263ffffffff1660e01b81526004016106f991906112a7565b600060405180830381865afa158015610716573d6000803e3d6000fd5b505050506040513d6000823e3d601f19601f8201168201806040525081019061073f9190611ef2565b90506000816000015111156107a45781600160003373ffffffffffffffffffffffffffffffffffffffff1673ffffffffffffffffffffffffffffffffffffffff1681526020019081526020016000206000858152602001908152602001600020819055505b505b505050565b6001602052816000526040600020602052806000526040600020600091509150505481565b600560009054906101000a900473ffffffffffffffffffffffffffffffffffffffff1673ffffffffffffffffffffffffffffffffffffffff16639497c6086007336040518363ffffffff1660e01b815260040161082e929190611c09565b602060405180830381865afa15801561084b573d6000803e3d6000fd5b505050506040513d601f19601f8201168201806040525081019061086f9190611c6a565b6108ae576040517f08c379a00000000000000000000000000000000000000000000000000000000081526004016108a590611ce3565b60405180910390fd5b6000600760009054906101000a900473ffffffffffffffffffffffffffffffffffffffff1673ffffffffffffffffffffffffffffffffffffffff1663a58273c8836040518263ffffffff1660e01b815260040161090b91906112a7565b600060405180830381865afa158015610928573d6000803e3d6000fd5b505050506040513d6000823e3d601f19601f820116820180604052508101906109519190611ef2565b9050600081600001511161099a576040517f08c379a000000000000000000000000000000000000000000000000000000000815260040161099190611f87565b60405180910390fd5b600260003373ffffffffffffffffffffffffffffffffffffffff1673ffffffffffffffffffffffffffffffffffffffff1681526020019081526020016000208290806001815401808255809150506001900390600052602060002001600090919091909150555050565b600581565b600560009054906101000a900473ffffffffffffffffffffffffffffffffffffffff1673ffffffffffffffffffffffffffffffffffffffff16639497c6086007336040518363ffffffff1660e01b8152600401610a67929190611c09565b602060405180830381865afa158015610a84573d6000803e3d6000fd5b505050506040513d601f19601f82011682018060405250810190610aa89190611c6a565b610ae7576040517f08c379a0000000000000000000000000000000000000000000000000000000008152600401610ade90611ce3565b60405180910390fd5b60018311610b2a576040517f08c379a0000000000000000000000000000000000000000000000000000000008152600401610b2190611d4f565b60405180910390fd5b6000610b3584610f3a565b9050600460003373ffffffffffffffffffffffffffffffffffffffff1673ffffffffffffffffffffffffffffffffffffffff1681526020019081526020016000206040518060600160405280838152602001858152602001848152509080600181540180825580915050600190039060005260206000209060030201600090919091909150600082015181600001556020820151816001019081610bd99190611b0e565b506040820151816002019081610bef9190611b0e565b50505050505050565b6060600260008373ffffffffffffffffffffffffffffffffffffffff1673ffffffffffffffffffffffffffffffffffffffff168152602001908152602001600020805480602002602001604051908101604052809291908181526020018280548015610c8357602002820191906000526020600020905b815481526020019060010190808311610c6f575b50505050509050919050565b60046020528160005260406000208181548110610cab57600080fd5b906000526020600020906003020160009150915050806000015490806001018054610cd590611931565b80601f0160208091040260200160405190810160405280929190818152602001828054610d0190611931565b8015610d4e5780601f10610d2357610100808354040283529160200191610d4e565b820191906000526020600020905b815481529060010190602001808311610d3157829003601f168201915b505050505090806002018054610d6390611931565b80601f0160208091040260200160405190810160405280929190818152602001828054610d8f90611931565b8015610ddc5780601f10610db157610100808354040283529160200191610ddc565b820191906000526020600020905b815481529060010190602001808311610dbf57829003601f168201915b5050505050905083565b610dee61111b565b6000808373ffffffffffffffffffffffffffffffffffffffff1673ffffffffffffffffffffffffffffffffffffffff168152602001908152602001600020604051806080016040529081600082015481526020016001820160009054906101000a900473ffffffffffffffffffffffffffffffffffffffff1673ffffffffffffffffffffffffffffffffffffffff1673ffffffffffffffffffffffffffffffffffffffff168152602001600282018054610ea790611931565b80601f0160208091040260200160405190810160405280929190818152602001828054610ed390611931565b8015610f205780601f10610ef557610100808354040283529160200191610f20565b820191906000526020600020905b815481529060010190602001808311610f0357829003601f168201915b505050505081526020016003820154815250509050919050565b600080600560009054906101000a900473ffffffffffffffffffffffffffffffffffffffff1673ffffffffffffffffffffffffffffffffffffffff16632b17b8be336040518263ffffffff1660e01b8152600401610f989190611211565b608060405180830381865afa158015610fb5573d6000803e3d6000fd5b505050506040513d601f19601f82011682018060405250810190610fd99190612044565b9050600080826060015114159050600081610ff557600061101d565b61101c606461100e6005886110d990919063ffffffff16565b6110ef90919063ffffffff16565b5b90506000611034828761110590919063ffffffff16565b9050600660009054906101000a900473ffffffffffffffffffffffffffffffffffffffff1673ffffffffffffffffffffffffffffffffffffffff1663f61b916033866020015184866040518563ffffffff1660e01b815260040161109b9493929190612071565b600060405180830381600087803b1580156110b557600080fd5b505af11580156110c9573d6000803e3d6000fd5b5050505080945050505050919050565b600081836110e791906120b6565b905092915050565b600081836110fd9190612127565b905092915050565b600081836111139190612158565b905092915050565b604051806080016040528060008152602001600073ffffffffffffffffffffffffffffffffffffffff16815260200160608152602001600081525090565b6000604051905090565b600080fd5b600080fd5b6000819050919050565b6111808161116d565b811461118b57600080fd5b50565b60008135905061119d81611177565b92915050565b6000602082840312156111b9576111b8611163565b5b60006111c78482850161118e565b91505092915050565b600073ffffffffffffffffffffffffffffffffffffffff82169050919050565b60006111fb826111d0565b9050919050565b61120b816111f0565b82525050565b60006020820190506112266000830184611202565b92915050565b611235816111f0565b811461124057600080fd5b50565b6000813590506112528161122c565b92915050565b6000806040838503121561126f5761126e611163565b5b600061127d85828601611243565b925050602061128e8582860161118e565b9150509250929050565b6112a18161116d565b82525050565b60006020820190506112bc6000830184611298565b92915050565b600080fd5b600080fd5b6000601f19601f8301169050919050565b7f4e487b7100000000000000000000000000000000000000000000000000000000600052604160045260246000fd5b611315826112cc565b810181811067ffffffffffffffff82111715611334576113336112dd565b5b80604052505050565b6000611347611159565b9050611353828261130c565b919050565b600067ffffffffffffffff821115611373576113726112dd565b5b61137c826112cc565b9050602081019050919050565b82818337600083830152505050565b60006113ab6113a684611358565b61133d565b9050828152602081018484840111156113c7576113c66112c7565b5b6113d2848285611389565b509392505050565b600082601f8301126113ef576113ee6112c2565b5b81356113ff848260208601611398565b91505092915050565b60006020828403121561141e5761141d611163565b5b600082013567ffffffffffffffff81111561143c5761143b611168565b5b611448848285016113da565b91505092915050565b61145a8161116d565b82525050565b611469816111f0565b82525050565b600081519050919050565b600082825260208201905092915050565b60005b838110156114a957808201518184015260208101905061148e565b60008484015250505050565b60006114c08261146f565b6114ca818561147a565b93506114da81856020860161148b565b6114e3816112cc565b840191505092915050565b60006080830160008301516115066000860182611451565b5060208301516115196020860182611460565b506040830151848203604086015261153182826114b5565b91505060608301516115466060860182611451565b508091505092915050565b6000602082019050818103600083015261156b81846114ee565b905092915050565b6000806040838503121561158a57611589611163565b5b60006115988582860161118e565b92505060206115a98582860161118e565b9150509250929050565b6000806000606084860312156115cc576115cb611163565b5b60006115da8682870161118e565b935050602084013567ffffffffffffffff8111156115fb576115fa611168565b5b611607868287016113da565b925050604084013567ffffffffffffffff81111561162857611627611168565b5b611634868287016113da565b9150509250925092565b60006020828403121561165457611653611163565b5b600061166284828501611243565b91505092915050565b600081519050919050565b600082825260208201905092915050565b6000819050602082019050919050565b60006116a38383611451565b60208301905092915050565b6000602082019050919050565b60006116c78261166b565b6116d18185611676565b93506116dc83611687565b8060005b8381101561170d5781516116f48882611697565b97506116ff836116af565b9250506001810190506116e0565b5085935050505092915050565b6000602082019050818103600083015261173481846116bc565b905092915050565b600082825260208201905092915050565b60006117588261146f565b611762818561173c565b935061177281856020860161148b565b61177b816112cc565b840191505092915050565b600060608201905061179b6000830186611298565b81810360208301526117ad818561174d565b905081810360408301526117c1818461174d565b9050949350505050565b7f4e487b7100000000000000000000000000000000000000000000000000000000600052602160045260246000fd5b600a811061180b5761180a6117cb565b5b50565b600081905061181c826117fa565b919050565b600061182c8261180e565b9050919050565b61183c81611821565b82525050565b60006020820190506118576000830184611833565b92915050565b60008151905061186c81611177565b92915050565b60006020828403121561188857611887611163565b5b60006118968482850161185d565b91505092915050565b7f4e487b7100000000000000000000000000000000000000000000000000000000600052601160045260246000fd5b60006118d98261116d565b91506118e48361116d565b92508282019050808211156118fc576118fb61189f565b5b92915050565b7f4e487b7100000000000000000000000000000000000000000000000000000000600052602260045260246000fd5b6000600282049050600182168061194957607f821691505b60208210810361195c5761195b611902565b5b50919050565b60008190508160005260206000209050919050565b60006020601f8301049050919050565b600082821b905092915050565b6000600883026119c47fffffffffffffffffffffffffffffffffffffffffffffffffffffffffffffffff82611987565b6119ce8683611987565b95508019841693508086168417925050509392505050565b6000819050919050565b6000611a0b611a06611a018461116d565b6119e6565b61116d565b9050919050565b6000819050919050565b611a25836119f0565b611a39611a3182611a12565b848454611994565b825550505050565b600090565b611a4e611a41565b611a59818484611a1c565b505050565b5b81811015611a7d57611a72600082611a46565b600181019050611a5f565b5050565b601f821115611ac257611a9381611962565b611a9c84611977565b81016020851015611aab578190505b611abf611ab785611977565b830182611a5e565b50505b505050565b600082821c905092915050565b6000611ae560001984600802611ac7565b1980831691505092915050565b6000611afe8383611ad4565b9150826002028217905092915050565b611b178261146f565b67ffffffffffffffff811115611b3057611b2f6112dd565b5b611b3a8254611931565b611b45828285611a81565b600060209050601f831160018114611b785760008415611b66578287015190505b611b708582611af2565b865550611bd8565b601f198416611b8686611962565b60005b82811015611bae57848901518255600182019150602085019450602081019050611b89565b86831015611bcb5784890151611bc7601f891682611ad4565b8355505b6001600288020188555050505b505050505050565b6000604082019050611bf56000830185611202565b611c026020830184611833565b9392505050565b6000604082019050611c1e6000830185611833565b611c2b6020830184611202565b9392505050565b60008115159050919050565b611c4781611c32565b8114611c5257600080fd5b50565b600081519050611c6481611c3e565b92915050565b600060208284031215611c8057611c7f611163565b5b6000611c8e84828501611c55565b91505092915050565b7f4f6e6c7920737570706f72746572730000000000000000000000000000000000600082015250565b6000611ccd600f8361173c565b9150611cd882611c97565b602082019050919050565b60006020820190508181036000830152611cfc81611cc0565b9050919050565b7f416d6f756e7420696e76616c6964000000000000000000000000000000000000600082015250565b6000611d39600e8361173c565b9150611d4482611d03565b602082019050919050565b60006020820190508181036000830152611d6881611d2c565b9050919050565b600080fd5b600080fd5b600081519050611d888161122c565b92915050565b6000611da1611d9c84611358565b61133d565b905082815260208101848484011115611dbd57611dbc6112c7565b5b611dc884828561148b565b509392505050565b600082601f830112611de557611de46112c2565b5b8151611df5848260208601611d8e565b91505092915050565b600060c08284031215611e1457611e13611d6f565b5b611e1e60c061133d565b90506000611e2e8482850161185d565b6000830152506020611e4284828501611d79565b602083015250604082015167ffffffffffffffff811115611e6657611e65611d74565b5b611e7284828501611dd0565b604083015250606082015167ffffffffffffffff811115611e9657611e95611d74565b5b611ea284828501611dd0565b606083015250608082015167ffffffffffffffff811115611ec657611ec5611d74565b5b611ed284828501611dd0565b60808301525060a0611ee68482850161185d565b60a08301525092915050565b600060208284031215611f0857611f07611163565b5b600082015167ffffffffffffffff811115611f2657611f25611168565b5b611f3284828501611dfe565b91505092915050565b7f43616c63756c61746f72206974656d20646f6573206e6f742065786973740000600082015250565b6000611f71601e8361173c565b9150611f7c82611f3b565b602082019050919050565b60006020820190508181036000830152611fa081611f64565b9050919050565b600a8110611fb457600080fd5b50565b600081519050611fc681611fa7565b92915050565b600060808284031215611fe257611fe1611d6f565b5b611fec608061133d565b90506000611ffc84828501611d79565b600083015250602061201084828501611d79565b602083015250604061202484828501611fb7565b60408301525060606120388482850161185d565b60608301525092915050565b60006080828403121561205a57612059611163565b5b600061206884828501611fcc565b91505092915050565b60006080820190506120866000830187611202565b6120936020830186611202565b6120a06040830185611298565b6120ad6060830184611298565b95945050505050565b60006120c18261116d565b91506120cc8361116d565b92508282026120da8161116d565b915082820484148315176120f1576120f061189f565b5b5092915050565b7f4e487b7100000000000000000000000000000000000000000000000000000000600052601260045260246000fd5b60006121328261116d565b915061213d8361116d565b92508261214d5761214c6120f8565b5b828204905092915050565b60006121638261116d565b915061216e8361116d565b92508282039050818111156121865761218561189f565b5b9291505056fea2646970667358221220369ae9227e6ac62023922c29c46dcba95210383586e84351b9554151ecc62e4e64736f6c634300081b0033",
  "linkReferences": {},
  "deployedLinkReferences": {}
}