{
  "_format": "hh-sol-artifact-1",
  "contractName": "SupporterRules",
  "sourceName": "contracts/SupporterRules.sol",
  "abi": [
    {
      "inputs": [
        {
          "internalType": "address",
          "name": "communityRulesAddress",
          "type": "address"
        },
        {
          "internalType": "address",
          "name": "supporterPoolAddress",
          "type": "address"
        },
        {
          "internalType": "address",
          "name": "researcherRulesAddress",
          "type": "address"
        }
      ],
      "stateMutability": "nonpayable",
      "type": "constructor"
    },
    {
      "inputs": [],
      "name": "INVITER_PERCENTAGE",
      "outputs": [
        {
          "internalType": "uint256",
          "name": "",
          "type": "uint256"
        }
      ],
      "stateMutability": "view",
      "type": "function"
    },
    {
      "inputs": [
        {
          "internalType": "string",
          "name": "name",
          "type": "string"
        },
        {
          "internalType": "string",
          "name": "profilePhoto",
          "type": "string"
        }
      ],
      "name": "addSupporter",
      "outputs": [
        {
          "components": [
            {
              "internalType": "uint256",
              "name": "id",
              "type": "uint256"
            },
            {
              "internalType": "address",
              "name": "supporterWallet",
              "type": "address"
            },
            {
              "internalType": "string",
              "name": "name",
              "type": "string"
            },
            {
              "internalType": "string",
              "name": "profilePhoto",
              "type": "string"
            },
            {
              "internalType": "uint256",
              "name": "publicationsCount",
              "type": "uint256"
            },
            {
              "internalType": "uint256",
              "name": "offsetsCount",
              "type": "uint256"
            },
            {
              "internalType": "uint256",
              "name": "reductionItemsCount",
              "type": "uint256"
            },
            {
              "internalType": "uint256",
              "name": "createdAt",
              "type": "uint256"
            }
          ],
          "internalType": "struct Supporter",
          "name": "",
          "type": "tuple"
        }
      ],
      "stateMutability": "nonpayable",
      "type": "function"
    },
    {
      "inputs": [
        {
          "internalType": "address",
          "name": "",
          "type": "address"
        },
        {
          "internalType": "uint256",
          "name": "",
          "type": "uint256"
        }
      ],
      "name": "calculatorItemCertificates",
      "outputs": [
        {
          "internalType": "uint256",
          "name": "",
          "type": "uint256"
        }
      ],
      "stateMutability": "view",
      "type": "function"
    },
    {
      "inputs": [
        {
          "internalType": "uint256",
          "name": "calculatorItemId",
          "type": "uint256"
        }
      ],
      "name": "declareReductionCommitment",
      "outputs": [],
      "stateMutability": "nonpayable",
      "type": "function"
    },
    {
      "inputs": [
        {
          "internalType": "address",
          "name": "addr",
          "type": "address"
        }
      ],
      "name": "getPublications",
      "outputs": [
        {
          "internalType": "uint256[]",
          "name": "",
          "type": "uint256[]"
        }
      ],
      "stateMutability": "view",
      "type": "function"
    },
    {
      "inputs": [
        {
          "internalType": "address",
          "name": "addr",
          "type": "address"
        }
      ],
      "name": "getReductionCommitments",
      "outputs": [
        {
          "internalType": "uint256[]",
          "name": "",
          "type": "uint256[]"
        }
      ],
      "stateMutability": "view",
      "type": "function"
    },
    {
      "inputs": [
        {
          "internalType": "address",
          "name": "addr",
          "type": "address"
        }
      ],
      "name": "getSupporter",
      "outputs": [
        {
          "components": [
            {
              "internalType": "uint256",
              "name": "id",
              "type": "uint256"
            },
            {
              "internalType": "address",
              "name": "supporterWallet",
              "type": "address"
            },
            {
              "internalType": "string",
              "name": "name",
              "type": "string"
            },
            {
              "internalType": "string",
              "name": "profilePhoto",
              "type": "string"
            },
            {
              "internalType": "uint256",
              "name": "publicationsCount",
              "type": "uint256"
            },
            {
              "internalType": "uint256",
              "name": "offsetsCount",
              "type": "uint256"
            },
            {
              "internalType": "uint256",
              "name": "reductionItemsCount",
              "type": "uint256"
            },
            {
              "internalType": "uint256",
              "name": "createdAt",
              "type": "uint256"
            }
          ],
          "internalType": "struct Supporter",
          "name": "",
          "type": "tuple"
        }
      ],
      "stateMutability": "view",
      "type": "function"
    },
    {
      "inputs": [
        {
          "internalType": "uint256",
          "name": "amount",
          "type": "uint256"
        },
        {
          "internalType": "uint256",
          "name": "calculatorItemId",
          "type": "uint256"
        }
      ],
      "name": "offset",
      "outputs": [],
      "stateMutability": "nonpayable",
      "type": "function"
    },
    {
      "inputs": [
        {
          "internalType": "address",
          "name": "",
          "type": "address"
        },
        {
          "internalType": "uint256",
          "name": "",
          "type": "uint256"
        }
      ],
      "name": "offsetIds",
      "outputs": [
        {
          "internalType": "uint256",
          "name": "id",
          "type": "uint256"
        }
      ],
      "stateMutability": "view",
      "type": "function"
    },
    {
      "inputs": [
        {
          "internalType": "uint256",
          "name": "",
          "type": "uint256"
        }
      ],
      "name": "offsets",
      "outputs": [
        {
          "internalType": "address",
          "name": "supporterAddress",
          "type": "address"
        },
        {
          "internalType": "uint256",
          "name": "createdAt",
          "type": "uint256"
        },
        {
          "internalType": "uint256",
          "name": "amountBurn",
          "type": "uint256"
        },
        {
          "internalType": "uint256",
          "name": "calculatorItemId",
          "type": "uint256"
        }
      ],
      "stateMutability": "view",
      "type": "function"
    },
    {
      "inputs": [],
      "name": "offsetsCount",
      "outputs": [
        {
          "internalType": "uint256",
          "name": "",
          "type": "uint256"
        }
      ],
      "stateMutability": "view",
      "type": "function"
    },
    {
      "inputs": [
        {
          "internalType": "address",
          "name": "",
          "type": "address"
        },
        {
          "internalType": "uint256",
          "name": "",
          "type": "uint256"
        }
      ],
      "name": "publicationIds",
      "outputs": [
        {
          "internalType": "uint256",
          "name": "id",
          "type": "uint256"
        }
      ],
      "stateMutability": "view",
      "type": "function"
    },
    {
      "inputs": [
        {
          "internalType": "uint256",
          "name": "",
          "type": "uint256"
        }
      ],
      "name": "publications",
      "outputs": [
        {
          "internalType": "address",
          "name": "supporterAddress",
          "type": "address"
        },
        {
          "internalType": "uint256",
          "name": "createdAt",
          "type": "uint256"
        },
        {
          "internalType": "uint256",
          "name": "amount",
          "type": "uint256"
        },
        {
          "internalType": "string",
          "name": "description",
          "type": "string"
        },
        {
          "internalType": "string",
          "name": "content",
          "type": "string"
        }
      ],
      "stateMutability": "view",
      "type": "function"
    },
    {
      "inputs": [],
      "name": "publicationsCount",
      "outputs": [
        {
          "internalType": "uint256",
          "name": "",
          "type": "uint256"
        }
      ],
      "stateMutability": "view",
      "type": "function"
    },
    {
      "inputs": [
        {
          "internalType": "uint256",
          "name": "amount",
          "type": "uint256"
        },
        {
          "internalType": "string",
          "name": "description",
          "type": "string"
        },
        {
          "internalType": "string",
          "name": "content",
          "type": "string"
        }
      ],
      "name": "publish",
      "outputs": [],
      "stateMutability": "nonpayable",
      "type": "function"
    },
    {
      "inputs": [
        {
          "internalType": "address",
          "name": "",
          "type": "address"
        },
        {
          "internalType": "uint256",
          "name": "",
          "type": "uint256"
        }
      ],
      "name": "reductionCommitments",
      "outputs": [
        {
          "internalType": "uint256",
          "name": "",
          "type": "uint256"
        }
      ],
      "stateMutability": "view",
      "type": "function"
    },
    {
      "inputs": [
        {
          "internalType": "uint256",
          "name": "",
          "type": "uint256"
        }
      ],
      "name": "supportersAddress",
      "outputs": [
        {
          "internalType": "address",
          "name": "",
          "type": "address"
        }
      ],
      "stateMutability": "view",
      "type": "function"
    },
    {
      "inputs": [
        {
          "internalType": "string",
          "name": "newPhoto",
          "type": "string"
        }
      ],
      "name": "updateProfilePhoto",
      "outputs": [],
      "stateMutability": "nonpayable",
      "type": "function"
    }
  ],
  "bytecode": "0x608060405234801561001057600080fd5b50604051612d6e380380612d6e83398181016040528101906100329190610160565b82600a60006101000a81548173ffffffffffffffffffffffffffffffffffffffff021916908373ffffffffffffffffffffffffffffffffffffffff16021790555081600b60006101000a81548173ffffffffffffffffffffffffffffffffffffffff021916908373ffffffffffffffffffffffffffffffffffffffff16021790555080600c60006101000a81548173ffffffffffffffffffffffffffffffffffffffff021916908373ffffffffffffffffffffffffffffffffffffffff1602179055505050506101b3565b600080fd5b600073ffffffffffffffffffffffffffffffffffffffff82169050919050565b600061012d82610102565b9050919050565b61013d81610122565b811461014857600080fd5b50565b60008151905061015a81610134565b92915050565b600080600060608486031215610179576101786100fd565b5b60006101878682870161014b565b93505060206101988682870161014b565b92505060406101a98682870161014b565b9150509250925092565b612bac806101c26000396000f3fe608060405234801561001057600080fd5b50600436106101165760003560e01c80636c960b0d116100a257806394cea0a31161007157806394cea0a314610332578063d4fadeae14610350578063d64da33114610380578063dc02837f146103b0578063f0006940146103e057610116565b80636c960b0d1461029557806381914619146102c557806385851afc146102f857806388cc28da1461031657610116565b80630e2647ad116100e95780630e2647ad146101c95780631fd5bbab146101e5578063243c145214610219578063335525ad14610249578063591ba3911461026557610116565b806305b95fbe1461011b578063082047801461014b5780630864e8f61461017b5780630d378ffd14610199575b600080fd5b61013560048036038101906101309190611a18565b6103fc565b6040516101429190611a86565b60405180910390f35b61016560048036038101906101609190611acd565b61042f565b6040516101729190611bb8565b60405180910390f35b6101836104c6565b6040516101909190611be9565b60405180910390f35b6101b360048036038101906101ae9190611c04565b6104cc565b6040516101c09190611be9565b60405180910390f35b6101e360048036038101906101de9190611d8a565b6104fd565b005b6101ff60048036038101906101fa9190611a18565b61062d565b604051610210959493929190611e52565b60405180910390f35b610233600480360381019061022e9190611eb3565b610793565b604051610240919061203b565b60405180910390f35b610263600480360381019061025e919061205d565b610a73565b005b61027f600480360381019061027a9190611c04565b610e6d565b60405161028c9190611be9565b60405180910390f35b6102af60048036038101906102aa9190611c04565b610ea4565b6040516102bc9190611be9565b60405180910390f35b6102df60048036038101906102da9190611a18565b610ec9565b6040516102ef949392919061209d565b60405180910390f35b610300610f19565b60405161030d9190611be9565b60405180910390f35b610330600480360381019061032b9190611a18565b610f1f565b005b61033a6111aa565b6040516103479190611be9565b60405180910390f35b61036a60048036038101906103659190611acd565b6111af565b6040516103779190611bb8565b60405180910390f35b61039a60048036038101906103959190611c04565b611246565b6040516103a79190611be9565b60405180910390f35b6103ca60048036038101906103c59190611acd565b61127d565b6040516103d7919061203b565b60405180910390f35b6103fa60048036038101906103f591906120e2565b611482565b005b60036020528060005260406000206000915054906101000a900473ffffffffffffffffffffffffffffffffffffffff1681565b6060600260008373ffffffffffffffffffffffffffffffffffffffff1673ffffffffffffffffffffffffffffffffffffffff1681526020019081526020016000208054806020026020016040519081016040528092919081815260200182805480156104ba57602002820191906000526020600020905b8154815260200190600101908083116104a6575b50505050509050919050565b60065481565b600260205281600052604060002081815481106104e857600080fd5b90600052602060002001600091509150505481565b600a60009054906101000a900473ffffffffffffffffffffffffffffffffffffffff1673ffffffffffffffffffffffffffffffffffffffff16639497c6086007336040518363ffffffff1660e01b815260040161055b9291906121e4565b602060405180830381865afa158015610578573d6000803e3d6000fd5b505050506040513d601f19601f8201168201806040525081019061059c9190612245565b6105db576040517f08c379a00000000000000000000000000000000000000000000000000000000081526004016105d2906122be565b60405180910390fd5b806000803373ffffffffffffffffffffffffffffffffffffffff1673ffffffffffffffffffffffffffffffffffffffff168152602001908152602001600020600301908161062991906124ea565b5050565b60046020528060005260406000206000915090508060000160009054906101000a900473ffffffffffffffffffffffffffffffffffffffff16908060010154908060020154908060030180546106829061230d565b80601f01602080910402602001604051908101604052809291908181526020018280546106ae9061230d565b80156106fb5780601f106106d0576101008083540402835291602001916106fb565b820191906000526020600020905b8154815290600101906020018083116106de57829003601f168201915b5050505050908060040180546107109061230d565b80601f016020809104026020016040519081016040528092919081815260200182805461073c9061230d565b80156107895780601f1061075e57610100808354040283529160200191610789565b820191906000526020600020905b81548152906001019060200180831161076c57829003601f168201915b5050505050905085565b61079b611973565b60006001600a60009054906101000a900473ffffffffffffffffffffffffffffffffffffffff1673ffffffffffffffffffffffffffffffffffffffff16631eb2c12060076040518263ffffffff1660e01b81526004016107fb91906125bc565b602060405180830381865afa158015610818573d6000803e3d6000fd5b505050506040513d601f19601f8201168201806040525081019061083c91906125ec565b6108469190612648565b905060006040518061010001604052808381526020013373ffffffffffffffffffffffffffffffffffffffff168152602001868152602001858152602001600081526020016000815260200160008152602001438152509050806000803373ffffffffffffffffffffffffffffffffffffffff1673ffffffffffffffffffffffffffffffffffffffff1681526020019081526020016000206000820151816000015560208201518160010160006101000a81548173ffffffffffffffffffffffffffffffffffffffff021916908373ffffffffffffffffffffffffffffffffffffffff160217905550604082015181600201908161094491906124ea565b50606082015181600301908161095a91906124ea565b506080820151816004015560a0820151816005015560c0820151816006015560e08201518160070155905050336003600084815260200190815260200160002060006101000a81548173ffffffffffffffffffffffffffffffffffffffff021916908373ffffffffffffffffffffffffffffffffffffffff160217905550600a60009054906101000a900473ffffffffffffffffffffffffffffffffffffffff1673ffffffffffffffffffffffffffffffffffffffff16639c3eead93360076040518363ffffffff1660e01b8152600401610a3692919061267c565b600060405180830381600087803b158015610a5057600080fd5b505af1158015610a64573d6000803e3d6000fd5b50505050809250505092915050565b600a60009054906101000a900473ffffffffffffffffffffffffffffffffffffffff1673ffffffffffffffffffffffffffffffffffffffff16639497c6086007336040518363ffffffff1660e01b8152600401610ad19291906121e4565b602060405180830381865afa158015610aee573d6000803e3d6000fd5b505050506040513d601f19601f82011682018060405250810190610b129190612245565b610b51576040517f08c379a0000000000000000000000000000000000000000000000000000000008152600401610b48906122be565b60405180910390fd5b60008211610b94576040517f08c379a0000000000000000000000000000000000000000000000000000000008152600401610b8b906126f1565b60405180910390fd5b6000610b9f83611792565b905060006001600954610bb29190612648565b90506000831115610cc7576000600c60009054906101000a900473ffffffffffffffffffffffffffffffffffffffff1673ffffffffffffffffffffffffffffffffffffffff1663a58273c8856040518263ffffffff1660e01b8152600401610c1a9190611be9565b600060405180830381865afa158015610c37573d6000803e3d6000fd5b505050506040513d6000823e3d601f19601f82011682018060405250810190610c609190612894565b9050600081600001511115610cc55782600160003373ffffffffffffffffffffffffffffffffffffffff1673ffffffffffffffffffffffffffffffffffffffff1681526020019081526020016000206000868152602001908152602001600020819055505b505b60405180608001604052803373ffffffffffffffffffffffffffffffffffffffff168152602001438152602001838152602001848152506007600083815260200190815260200160002060008201518160000160006101000a81548173ffffffffffffffffffffffffffffffffffffffff021916908373ffffffffffffffffffffffffffffffffffffffff160217905550602082015181600101556040820151816002015560608201518160030155905050600860003373ffffffffffffffffffffffffffffffffffffffff1673ffffffffffffffffffffffffffffffffffffffff1681526020019081526020016000206040518060200160405280838152509080600181540180825580915050600190039060005260206000200160009091909190915060008201518160000155505060096000815480929190610e0b906128dd565b91905055506000803373ffffffffffffffffffffffffffffffffffffffff1673ffffffffffffffffffffffffffffffffffffffff1681526020019081526020016000206005016000815480929190610e62906128dd565b919050555050505050565b60086020528160005260406000208181548110610e8957600080fd5b90600052602060002001600091509150508060000154905081565b6001602052816000526040600020602052806000526040600020600091509150505481565b60076020528060005260406000206000915090508060000160009054906101000a900473ffffffffffffffffffffffffffffffffffffffff16908060010154908060020154908060030154905084565b60095481565b600a60009054906101000a900473ffffffffffffffffffffffffffffffffffffffff1673ffffffffffffffffffffffffffffffffffffffff16639497c6086007336040518363ffffffff1660e01b8152600401610f7d9291906121e4565b602060405180830381865afa158015610f9a573d6000803e3d6000fd5b505050506040513d601f19601f82011682018060405250810190610fbe9190612245565b610ffd576040517f08c379a0000000000000000000000000000000000000000000000000000000008152600401610ff4906122be565b60405180910390fd5b6000600c60009054906101000a900473ffffffffffffffffffffffffffffffffffffffff1673ffffffffffffffffffffffffffffffffffffffff1663a58273c8836040518263ffffffff1660e01b815260040161105a9190611be9565b600060405180830381865afa158015611077573d6000803e3d6000fd5b505050506040513d6000823e3d601f19601f820116820180604052508101906110a09190612894565b905060008160000151116110e9576040517f08c379a00000000000000000000000000000000000000000000000000000000081526004016110e090612971565b60405180910390fd5b600260003373ffffffffffffffffffffffffffffffffffffffff1673ffffffffffffffffffffffffffffffffffffffff1681526020019081526020016000208290806001815401808255809150506001900390600052602060002001600090919091909150556000803373ffffffffffffffffffffffffffffffffffffffff1673ffffffffffffffffffffffffffffffffffffffff16815260200190815260200160002060060160008154809291906111a1906128dd565b91905055505050565b600581565b6060600260008373ffffffffffffffffffffffffffffffffffffffff1673ffffffffffffffffffffffffffffffffffffffff16815260200190815260200160002080548060200260200160405190810160405280929190818152602001828054801561123a57602002820191906000526020600020905b815481526020019060010190808311611226575b50505050509050919050565b6005602052816000526040600020818154811061126257600080fd5b90600052602060002001600091509150508060000154905081565b611285611973565b6000808373ffffffffffffffffffffffffffffffffffffffff1673ffffffffffffffffffffffffffffffffffffffff16815260200190815260200160002060405180610100016040529081600082015481526020016001820160009054906101000a900473ffffffffffffffffffffffffffffffffffffffff1673ffffffffffffffffffffffffffffffffffffffff1673ffffffffffffffffffffffffffffffffffffffff16815260200160028201805461133f9061230d565b80601f016020809104026020016040519081016040528092919081815260200182805461136b9061230d565b80156113b85780601f1061138d576101008083540402835291602001916113b8565b820191906000526020600020905b81548152906001019060200180831161139b57829003601f168201915b505050505081526020016003820180546113d19061230d565b80601f01602080910402602001604051908101604052809291908181526020018280546113fd9061230d565b801561144a5780601f1061141f5761010080835404028352916020019161144a565b820191906000526020600020905b81548152906001019060200180831161142d57829003601f168201915b505050505081526020016004820154815260200160058201548152602001600682015481526020016007820154815250509050919050565b600a60009054906101000a900473ffffffffffffffffffffffffffffffffffffffff1673ffffffffffffffffffffffffffffffffffffffff16639497c6086007336040518363ffffffff1660e01b81526004016114e09291906121e4565b602060405180830381865afa1580156114fd573d6000803e3d6000fd5b505050506040513d601f19601f820116820180604052508101906115219190612245565b611560576040517f08c379a0000000000000000000000000000000000000000000000000000000008152600401611557906122be565b60405180910390fd5b600183116115a3576040517f08c379a000000000000000000000000000000000000000000000000000000000815260040161159a906126f1565b60405180910390fd5b60006115ae84611792565b9050600060016006546115c19190612648565b90506040518060a001604052803373ffffffffffffffffffffffffffffffffffffffff168152602001438152602001838152602001858152602001848152506004600083815260200190815260200160002060008201518160000160006101000a81548173ffffffffffffffffffffffffffffffffffffffff021916908373ffffffffffffffffffffffffffffffffffffffff1602179055506020820151816001015560408201518160020155606082015181600301908161168391906124ea565b50608082015181600401908161169991906124ea565b50905050600560003373ffffffffffffffffffffffffffffffffffffffff1673ffffffffffffffffffffffffffffffffffffffff168152602001908152602001600020604051806020016040528083815250908060018154018082558091505060019003906000526020600020016000909190919091506000820151816000015550506006600081548092919061172f906128dd565b91905055506000803373ffffffffffffffffffffffffffffffffffffffff1673ffffffffffffffffffffffffffffffffffffffff1681526020019081526020016000206004016000815480929190611786906128dd565b91905055505050505050565b600080600a60009054906101000a900473ffffffffffffffffffffffffffffffffffffffff1673ffffffffffffffffffffffffffffffffffffffff16632b17b8be336040518263ffffffff1660e01b81526004016117f09190611a86565b608060405180830381865afa15801561180d573d6000803e3d6000fd5b505050506040513d601f19601f820116820180604052508101906118319190612a2e565b905060008082606001511415905060008161184d576000611875565b611874606461186660058861193190919063ffffffff16565b61194790919063ffffffff16565b5b9050600061188c828761195d90919063ffffffff16565b9050600b60009054906101000a900473ffffffffffffffffffffffffffffffffffffffff1673ffffffffffffffffffffffffffffffffffffffff1663f61b916033866020015184866040518563ffffffff1660e01b81526004016118f39493929190612a5b565b600060405180830381600087803b15801561190d57600080fd5b505af1158015611921573d6000803e3d6000fd5b5050505080945050505050919050565b6000818361193f9190612aa0565b905092915050565b600081836119559190612b11565b905092915050565b6000818361196b9190612b42565b905092915050565b60405180610100016040528060008152602001600073ffffffffffffffffffffffffffffffffffffffff1681526020016060815260200160608152602001600081526020016000815260200160008152602001600081525090565b6000604051905090565b600080fd5b600080fd5b6000819050919050565b6119f5816119e2565b8114611a0057600080fd5b50565b600081359050611a12816119ec565b92915050565b600060208284031215611a2e57611a2d6119d8565b5b6000611a3c84828501611a03565b91505092915050565b600073ffffffffffffffffffffffffffffffffffffffff82169050919050565b6000611a7082611a45565b9050919050565b611a8081611a65565b82525050565b6000602082019050611a9b6000830184611a77565b92915050565b611aaa81611a65565b8114611ab557600080fd5b50565b600081359050611ac781611aa1565b92915050565b600060208284031215611ae357611ae26119d8565b5b6000611af184828501611ab8565b91505092915050565b600081519050919050565b600082825260208201905092915050565b6000819050602082019050919050565b611b2f816119e2565b82525050565b6000611b418383611b26565b60208301905092915050565b6000602082019050919050565b6000611b6582611afa565b611b6f8185611b05565b9350611b7a83611b16565b8060005b83811015611bab578151611b928882611b35565b9750611b9d83611b4d565b925050600181019050611b7e565b5085935050505092915050565b60006020820190508181036000830152611bd28184611b5a565b905092915050565b611be3816119e2565b82525050565b6000602082019050611bfe6000830184611bda565b92915050565b60008060408385031215611c1b57611c1a6119d8565b5b6000611c2985828601611ab8565b9250506020611c3a85828601611a03565b9150509250929050565b600080fd5b600080fd5b6000601f19601f8301169050919050565b7f4e487b7100000000000000000000000000000000000000000000000000000000600052604160045260246000fd5b611c9782611c4e565b810181811067ffffffffffffffff82111715611cb657611cb5611c5f565b5b80604052505050565b6000611cc96119ce565b9050611cd58282611c8e565b919050565b600067ffffffffffffffff821115611cf557611cf4611c5f565b5b611cfe82611c4e565b9050602081019050919050565b82818337600083830152505050565b6000611d2d611d2884611cda565b611cbf565b905082815260208101848484011115611d4957611d48611c49565b5b611d54848285611d0b565b509392505050565b600082601f830112611d7157611d70611c44565b5b8135611d81848260208601611d1a565b91505092915050565b600060208284031215611da057611d9f6119d8565b5b600082013567ffffffffffffffff811115611dbe57611dbd6119dd565b5b611dca84828501611d5c565b91505092915050565b600081519050919050565b600082825260208201905092915050565b60005b83811015611e0d578082015181840152602081019050611df2565b60008484015250505050565b6000611e2482611dd3565b611e2e8185611dde565b9350611e3e818560208601611def565b611e4781611c4e565b840191505092915050565b600060a082019050611e676000830188611a77565b611e746020830187611bda565b611e816040830186611bda565b8181036060830152611e938185611e19565b90508181036080830152611ea78184611e19565b90509695505050505050565b60008060408385031215611eca57611ec96119d8565b5b600083013567ffffffffffffffff811115611ee857611ee76119dd565b5b611ef485828601611d5c565b925050602083013567ffffffffffffffff811115611f1557611f146119dd565b5b611f2185828601611d5c565b9150509250929050565b611f3481611a65565b82525050565b600082825260208201905092915050565b6000611f5682611dd3565b611f608185611f3a565b9350611f70818560208601611def565b611f7981611c4e565b840191505092915050565b600061010083016000830151611f9d6000860182611b26565b506020830151611fb06020860182611f2b565b5060408301518482036040860152611fc88282611f4b565b91505060608301518482036060860152611fe28282611f4b565b9150506080830151611ff76080860182611b26565b5060a083015161200a60a0860182611b26565b5060c083015161201d60c0860182611b26565b5060e083015161203060e0860182611b26565b508091505092915050565b600060208201905081810360008301526120558184611f84565b905092915050565b60008060408385031215612074576120736119d8565b5b600061208285828601611a03565b925050602061209385828601611a03565b9150509250929050565b60006080820190506120b26000830187611a77565b6120bf6020830186611bda565b6120cc6040830185611bda565b6120d96060830184611bda565b95945050505050565b6000806000606084860312156120fb576120fa6119d8565b5b600061210986828701611a03565b935050602084013567ffffffffffffffff81111561212a576121296119dd565b5b61213686828701611d5c565b925050604084013567ffffffffffffffff811115612157576121566119dd565b5b61216386828701611d5c565b9150509250925092565b7f4e487b7100000000000000000000000000000000000000000000000000000000600052602160045260246000fd5b600a81106121ad576121ac61216d565b5b50565b60008190506121be8261219c565b919050565b60006121ce826121b0565b9050919050565b6121de816121c3565b82525050565b60006040820190506121f960008301856121d5565b6122066020830184611a77565b9392505050565b60008115159050919050565b6122228161220d565b811461222d57600080fd5b50565b60008151905061223f81612219565b92915050565b60006020828403121561225b5761225a6119d8565b5b600061226984828501612230565b91505092915050565b7f4f6e6c7920737570706f72746572730000000000000000000000000000000000600082015250565b60006122a8600f83611dde565b91506122b382612272565b602082019050919050565b600060208201905081810360008301526122d78161229b565b9050919050565b7f4e487b7100000000000000000000000000000000000000000000000000000000600052602260045260246000fd5b6000600282049050600182168061232557607f821691505b602082108103612338576123376122de565b5b50919050565b60008190508160005260206000209050919050565b60006020601f8301049050919050565b600082821b905092915050565b6000600883026123a07fffffffffffffffffffffffffffffffffffffffffffffffffffffffffffffffff82612363565b6123aa8683612363565b95508019841693508086168417925050509392505050565b6000819050919050565b60006123e76123e26123dd846119e2565b6123c2565b6119e2565b9050919050565b6000819050919050565b612401836123cc565b61241561240d826123ee565b848454612370565b825550505050565b600090565b61242a61241d565b6124358184846123f8565b505050565b5b818110156124595761244e600082612422565b60018101905061243b565b5050565b601f82111561249e5761246f8161233e565b61247884612353565b81016020851015612487578190505b61249b61249385612353565b83018261243a565b50505b505050565b600082821c905092915050565b60006124c1600019846008026124a3565b1980831691505092915050565b60006124da83836124b0565b9150826002028217905092915050565b6124f382611dd3565b67ffffffffffffffff81111561250c5761250b611c5f565b5b612516825461230d565b61252182828561245d565b600060209050601f8311600181146125545760008415612542578287015190505b61254c85826124ce565b8655506125b4565b601f1984166125628661233e565b60005b8281101561258a57848901518255600182019150602085019450602081019050612565565b868310156125a757848901516125a3601f8916826124b0565b8355505b6001600288020188555050505b505050505050565b60006020820190506125d160008301846121d5565b92915050565b6000815190506125e6816119ec565b92915050565b600060208284031215612602576126016119d8565b5b6000612610848285016125d7565b91505092915050565b7f4e487b7100000000000000000000000000000000000000000000000000000000600052601160045260246000fd5b6000612653826119e2565b915061265e836119e2565b925082820190508082111561267657612675612619565b5b92915050565b60006040820190506126916000830185611a77565b61269e60208301846121d5565b9392505050565b7f416d6f756e7420696e76616c6964000000000000000000000000000000000000600082015250565b60006126db600e83611dde565b91506126e6826126a5565b602082019050919050565b6000602082019050818103600083015261270a816126ce565b9050919050565b600080fd5b600080fd5b60008151905061272a81611aa1565b92915050565b600061274361273e84611cda565b611cbf565b90508281526020810184848401111561275f5761275e611c49565b5b61276a848285611def565b509392505050565b600082601f83011261278757612786611c44565b5b8151612797848260208601612730565b91505092915050565b600060c082840312156127b6576127b5612711565b5b6127c060c0611cbf565b905060006127d0848285016125d7565b60008301525060206127e48482850161271b565b602083015250604082015167ffffffffffffffff81111561280857612807612716565b5b61281484828501612772565b604083015250606082015167ffffffffffffffff81111561283857612837612716565b5b61284484828501612772565b606083015250608082015167ffffffffffffffff81111561286857612867612716565b5b61287484828501612772565b60808301525060a0612888848285016125d7565b60a08301525092915050565b6000602082840312156128aa576128a96119d8565b5b600082015167ffffffffffffffff8111156128c8576128c76119dd565b5b6128d4848285016127a0565b91505092915050565b60006128e8826119e2565b91507fffffffffffffffffffffffffffffffffffffffffffffffffffffffffffffffff820361291a57612919612619565b5b600182019050919050565b7f43616c63756c61746f72206974656d20646f6573206e6f742065786973740000600082015250565b600061295b601e83611dde565b915061296682612925565b602082019050919050565b6000602082019050818103600083015261298a8161294e565b9050919050565b600a811061299e57600080fd5b50565b6000815190506129b081612991565b92915050565b6000608082840312156129cc576129cb612711565b5b6129d66080611cbf565b905060006129e68482850161271b565b60008301525060206129fa8482850161271b565b6020830152506040612a0e848285016129a1565b6040830152506060612a22848285016125d7565b60608301525092915050565b600060808284031215612a4457612a436119d8565b5b6000612a52848285016129b6565b91505092915050565b6000608082019050612a706000830187611a77565b612a7d6020830186611a77565b612a8a6040830185611bda565b612a976060830184611bda565b95945050505050565b6000612aab826119e2565b9150612ab6836119e2565b9250828202612ac4816119e2565b91508282048414831517612adb57612ada612619565b5b5092915050565b7f4e487b7100000000000000000000000000000000000000000000000000000000600052601260045260246000fd5b6000612b1c826119e2565b9150612b27836119e2565b925082612b3757612b36612ae2565b5b828204905092915050565b6000612b4d826119e2565b9150612b58836119e2565b9250828203905081811115612b7057612b6f612619565b5b9291505056fea2646970667358221220a6e8f3ec9c55d576bf28cddb8bb0c563a3e424db925079c713119d3d239fd85864736f6c634300081b0033",
  "linkReferences": {},
  "deployedLinkReferences": {}
}