{
  "_format": "hh-sol-artifact-1",
  "contractName": "SupporterPool",
  "sourceName": "contracts/SupporterPool.sol",
  "abi": [
    {
      "inputs": [
        {
          "internalType": "address",
          "name": "regenerationCreditAddress",
          "type": "address"
        }
      ],
      "stateMutability": "nonpayable",
      "type": "constructor"
    },
    {
      "anonymous": false,
      "inputs": [
        {
          "indexed": true,
          "internalType": "address",
          "name": "previousOwner",
          "type": "address"
        },
        {
          "indexed": true,
          "internalType": "address",
          "name": "newOwner",
          "type": "address"
        }
      ],
      "name": "OwnershipTransferred",
      "type": "event"
    },
    {
      "anonymous": false,
      "inputs": [
        {
          "indexed": true,
          "internalType": "address",
          "name": "_tokenOwner",
          "type": "address"
        },
        {
          "indexed": false,
          "internalType": "uint256",
          "name": "_amountBurned",
          "type": "uint256"
        },
        {
          "indexed": true,
          "internalType": "address",
          "name": "_inviter",
          "type": "address"
        },
        {
          "indexed": false,
          "internalType": "uint256",
          "name": "_inviterTotalTokens",
          "type": "uint256"
        }
      ],
      "name": "PoolBurnTokensEvent",
      "type": "event"
    },
    {
      "inputs": [
        {
          "internalType": "address",
          "name": "",
          "type": "address"
        }
      ],
      "name": "allowedCallers",
      "outputs": [
        {
          "internalType": "bool",
          "name": "",
          "type": "bool"
        }
      ],
      "stateMutability": "view",
      "type": "function"
    },
    {
      "inputs": [
        {
          "internalType": "address",
          "name": "addr",
          "type": "address"
        }
      ],
      "name": "balanceOf",
      "outputs": [
        {
          "internalType": "uint256",
          "name": "",
          "type": "uint256"
        }
      ],
      "stateMutability": "view",
      "type": "function"
    },
    {
      "inputs": [
        {
          "internalType": "address",
          "name": "tokenOwner",
          "type": "address"
        },
        {
          "internalType": "address",
          "name": "inviter",
          "type": "address"
        },
        {
          "internalType": "uint256",
          "name": "amountBurn",
          "type": "uint256"
        },
        {
          "internalType": "uint256",
          "name": "inviterTotalTokens",
          "type": "uint256"
        }
      ],
      "name": "burnTokens",
      "outputs": [],
      "stateMutability": "nonpayable",
      "type": "function"
    },
    {
      "inputs": [
        {
          "internalType": "address",
          "name": "caller",
          "type": "address"
        }
      ],
      "name": "isAllowedCaller",
      "outputs": [
        {
          "internalType": "bool",
          "name": "",
          "type": "bool"
        }
      ],
      "stateMutability": "view",
      "type": "function"
    },
    {
      "inputs": [
        {
          "internalType": "address",
          "name": "allowed",
          "type": "address"
        }
      ],
      "name": "newAllowedCaller",
      "outputs": [],
      "stateMutability": "nonpayable",
      "type": "function"
    },
    {
      "inputs": [],
      "name": "owner",
      "outputs": [
        {
          "internalType": "address",
          "name": "",
          "type": "address"
        }
      ],
      "stateMutability": "view",
      "type": "function"
    },
    {
      "inputs": [],
      "name": "renounceOwnership",
      "outputs": [],
      "stateMutability": "nonpayable",
      "type": "function"
    },
    {
      "inputs": [
        {
          "internalType": "address",
          "name": "newOwner",
          "type": "address"
        }
      ],
      "name": "transferOwnership",
      "outputs": [],
      "stateMutability": "nonpayable",
      "type": "function"
    }
  ],
  "bytecode": "0x608060405234801561001057600080fd5b50604051610de1380380610de1833981810160405281019061003291906101c4565b61004e61004361009560201b60201c565b61009d60201b60201c565b80600260006101000a81548173ffffffffffffffffffffffffffffffffffffffff021916908373ffffffffffffffffffffffffffffffffffffffff160217905550506101f1565b600033905090565b60008060009054906101000a900473ffffffffffffffffffffffffffffffffffffffff169050816000806101000a81548173ffffffffffffffffffffffffffffffffffffffff021916908373ffffffffffffffffffffffffffffffffffffffff1602179055508173ffffffffffffffffffffffffffffffffffffffff168173ffffffffffffffffffffffffffffffffffffffff167f8be0079c531659141344cd1fd0a4f28419497f9722a3daafe3b4186f6b6457e060405160405180910390a35050565b600080fd5b600073ffffffffffffffffffffffffffffffffffffffff82169050919050565b600061019182610166565b9050919050565b6101a181610186565b81146101ac57600080fd5b50565b6000815190506101be81610198565b92915050565b6000602082840312156101da576101d9610161565b5b60006101e8848285016101af565b91505092915050565b610be1806102006000396000f3fe608060405234801561001057600080fd5b50600436106100885760003560e01c80638f93716f1161005b5780638f93716f14610115578063a680125814610131578063f2fde38b14610161578063f61b91601461017d57610088565b806370a082311461008d578063715018a6146100bd5780637b334154146100c75780638da5cb5b146100f7575b600080fd5b6100a760048036038101906100a291906107b8565b610199565b6040516100b491906107fe565b60405180910390f35b6100c561023e565b005b6100e160048036038101906100dc91906107b8565b610252565b6040516100ee9190610834565b60405180910390f35b6100ff610272565b60405161010c919061085e565b60405180910390f35b61012f600480360381019061012a91906107b8565b61029b565b005b61014b600480360381019061014691906107b8565b6102fd565b6040516101589190610834565b60405180910390f35b61017b600480360381019061017691906107b8565b610353565b005b610197600480360381019061019291906108a5565b6103d6565b005b6000600260009054906101000a900473ffffffffffffffffffffffffffffffffffffffff1673ffffffffffffffffffffffffffffffffffffffff166370a08231836040518263ffffffff1660e01b81526004016101f6919061085e565b602060405180830381865afa158015610213573d6000803e3d6000fd5b505050506040513d601f19601f820116820180604052508101906102379190610921565b9050919050565b61024661060b565b6102506000610689565b565b60016020528060005260406000206000915054906101000a900460ff1681565b60008060009054906101000a900473ffffffffffffffffffffffffffffffffffffffff16905090565b6102a361060b565b60018060008373ffffffffffffffffffffffffffffffffffffffff1673ffffffffffffffffffffffffffffffffffffffff16815260200190815260200160002060006101000a81548160ff02191690831515021790555050565b6000600160008373ffffffffffffffffffffffffffffffffffffffff1673ffffffffffffffffffffffffffffffffffffffff16815260200190815260200160002060009054906101000a900460ff169050919050565b61035b61060b565b600073ffffffffffffffffffffffffffffffffffffffff168173ffffffffffffffffffffffffffffffffffffffff16036103ca576040517f08c379a00000000000000000000000000000000000000000000000000000000081526004016103c1906109d1565b60405180910390fd5b6103d381610689565b50565b600160003373ffffffffffffffffffffffffffffffffffffffff1673ffffffffffffffffffffffffffffffffffffffff16815260200190815260200160002060009054906101000a900460ff16610462576040517f08c379a000000000000000000000000000000000000000000000000000000000815260040161045990610a3d565b60405180910390fd5b600260009054906101000a900473ffffffffffffffffffffffffffffffffffffffff1673ffffffffffffffffffffffffffffffffffffffff1663b34b4d0085846040518363ffffffff1660e01b81526004016104bf929190610a5d565b600060405180830381600087803b1580156104d957600080fd5b505af11580156104ed573d6000803e3d6000fd5b505050508273ffffffffffffffffffffffffffffffffffffffff168473ffffffffffffffffffffffffffffffffffffffff167f7b313a3b1b185b233a730071a1ccc5df73f9abc93aaabcef2ee9ffec26a8a56b8484604051610550929190610a86565b60405180910390a3600081111561060557600260009054906101000a900473ffffffffffffffffffffffffffffffffffffffff1673ffffffffffffffffffffffffffffffffffffffff1663a2c7670e8585846040518463ffffffff1660e01b81526004016105c093929190610aaf565b6020604051808303816000875af11580156105df573d6000803e3d6000fd5b505050506040513d601f19601f820116820180604052508101906106039190610b12565b505b50505050565b61061361074d565b73ffffffffffffffffffffffffffffffffffffffff16610631610272565b73ffffffffffffffffffffffffffffffffffffffff1614610687576040517f08c379a000000000000000000000000000000000000000000000000000000000815260040161067e90610b8b565b60405180910390fd5b565b60008060009054906101000a900473ffffffffffffffffffffffffffffffffffffffff169050816000806101000a81548173ffffffffffffffffffffffffffffffffffffffff021916908373ffffffffffffffffffffffffffffffffffffffff1602179055508173ffffffffffffffffffffffffffffffffffffffff168173ffffffffffffffffffffffffffffffffffffffff167f8be0079c531659141344cd1fd0a4f28419497f9722a3daafe3b4186f6b6457e060405160405180910390a35050565b600033905090565b600080fd5b600073ffffffffffffffffffffffffffffffffffffffff82169050919050565b60006107858261075a565b9050919050565b6107958161077a565b81146107a057600080fd5b50565b6000813590506107b28161078c565b92915050565b6000602082840312156107ce576107cd610755565b5b60006107dc848285016107a3565b91505092915050565b6000819050919050565b6107f8816107e5565b82525050565b600060208201905061081360008301846107ef565b92915050565b60008115159050919050565b61082e81610819565b82525050565b60006020820190506108496000830184610825565b92915050565b6108588161077a565b82525050565b6000602082019050610873600083018461084f565b92915050565b610882816107e5565b811461088d57600080fd5b50565b60008135905061089f81610879565b92915050565b600080600080608085870312156108bf576108be610755565b5b60006108cd878288016107a3565b94505060206108de878288016107a3565b93505060406108ef87828801610890565b925050606061090087828801610890565b91505092959194509250565b60008151905061091b81610879565b92915050565b60006020828403121561093757610936610755565b5b60006109458482850161090c565b91505092915050565b600082825260208201905092915050565b7f4f776e61626c653a206e6577206f776e657220697320746865207a65726f206160008201527f6464726573730000000000000000000000000000000000000000000000000000602082015250565b60006109bb60268361094e565b91506109c68261095f565b604082019050919050565b600060208201905081810360008301526109ea816109ae565b9050919050565b7f4e6f7420616c6c6f7765642063616c6c65720000000000000000000000000000600082015250565b6000610a2760128361094e565b9150610a32826109f1565b602082019050919050565b60006020820190508181036000830152610a5681610a1a565b9050919050565b6000604082019050610a72600083018561084f565b610a7f60208301846107ef565b9392505050565b6000604082019050610a9b60008301856107ef565b610aa860208301846107ef565b9392505050565b6000606082019050610ac4600083018661084f565b610ad1602083018561084f565b610ade60408301846107ef565b949350505050565b610aef81610819565b8114610afa57600080fd5b50565b600081519050610b0c81610ae6565b92915050565b600060208284031215610b2857610b27610755565b5b6000610b3684828501610afd565b91505092915050565b7f4f776e61626c653a2063616c6c6572206973206e6f7420746865206f776e6572600082015250565b6000610b7560208361094e565b9150610b8082610b3f565b602082019050919050565b60006020820190508181036000830152610ba481610b68565b905091905056fea2646970667358221220a7dd57429bf37cab828b79bef87c275959c2d2f81f33d43559fd468357eb48e364736f6c634300081b0033",
  "linkReferences": {},
  "deployedLinkReferences": {}
}