{
  "_format": "hh-sol-artifact-1",
  "contractName": "SupporterRules",
  "sourceName": "contracts/SupporterRules.sol",
  "abi": [
    {
      "inputs": [
        {
          "internalType": "address",
          "name": "communityRulesAddress",
          "type": "address"
        },
        {
          "internalType": "address",
          "name": "researcherRulesAddress",
          "type": "address"
        }
      ],
      "stateMutability": "nonpayable",
      "type": "constructor"
    },
    {
      "anonymous": false,
      "inputs": [
        {
          "indexed": true,
          "internalType": "address",
          "name": "supporterAddress",
          "type": "address"
        },
        {
          "indexed": false,
          "internalType": "uint256",
          "name": "offsetId",
          "type": "uint256"
        },
        {
          "indexed": false,
          "internalType": "uint256",
          "name": "amountBurned",
          "type": "uint256"
        },
        {
          "indexed": false,
          "internalType": "uint256",
          "name": "calculatorItemId",
          "type": "uint256"
        },
        {
          "indexed": false,
          "internalType": "uint256",
          "name": "blockNumber",
          "type": "uint256"
        }
      ],
      "name": "OffsetMade",
      "type": "event"
    },
    {
      "anonymous": false,
      "inputs": [
        {
          "indexed": true,
          "internalType": "address",
          "name": "previousOwner",
          "type": "address"
        },
        {
          "indexed": true,
          "internalType": "address",
          "name": "newOwner",
          "type": "address"
        }
      ],
      "name": "OwnershipTransferred",
      "type": "event"
    },
    {
      "anonymous": false,
      "inputs": [
        {
          "indexed": true,
          "internalType": "address",
          "name": "publisherAddress",
          "type": "address"
        },
        {
          "indexed": false,
          "internalType": "uint256",
          "name": "publicationId",
          "type": "uint256"
        },
        {
          "indexed": false,
          "internalType": "uint256",
          "name": "amountBurned",
          "type": "uint256"
        },
        {
          "indexed": false,
          "internalType": "string",
          "name": "description",
          "type": "string"
        },
        {
          "indexed": false,
          "internalType": "uint256",
          "name": "blockNumber",
          "type": "uint256"
        }
      ],
      "name": "PublicationPosted",
      "type": "event"
    },
    {
      "anonymous": false,
      "inputs": [
        {
          "indexed": true,
          "internalType": "address",
          "name": "supporterAddress",
          "type": "address"
        },
        {
          "indexed": false,
          "internalType": "uint256",
          "name": "calculatorItemId",
          "type": "uint256"
        },
        {
          "indexed": false,
          "internalType": "uint256",
          "name": "blockNumber",
          "type": "uint256"
        }
      ],
      "name": "ReductionCommitmentDeclared",
      "type": "event"
    },
    {
      "anonymous": false,
      "inputs": [
        {
          "indexed": true,
          "internalType": "address",
          "name": "supporterAddress",
          "type": "address"
        },
        {
          "indexed": false,
          "internalType": "uint256",
          "name": "supporterId",
          "type": "uint256"
        },
        {
          "indexed": false,
          "internalType": "string",
          "name": "name",
          "type": "string"
        },
        {
          "indexed": false,
          "internalType": "string",
          "name": "profilePhoto",
          "type": "string"
        },
        {
          "indexed": false,
          "internalType": "uint256",
          "name": "createdAtBlock",
          "type": "uint256"
        }
      ],
      "name": "SupporterRegistered",
      "type": "event"
    },
    {
      "inputs": [],
      "name": "INVITER_PERCENTAGE",
      "outputs": [
        {
          "internalType": "uint8",
          "name": "",
          "type": "uint8"
        }
      ],
      "stateMutability": "view",
      "type": "function"
    },
    {
      "inputs": [
        {
          "internalType": "string",
          "name": "name",
          "type": "string"
        },
        {
          "internalType": "string",
          "name": "description",
          "type": "string"
        },
        {
          "internalType": "string",
          "name": "profilePhoto",
          "type": "string"
        }
      ],
      "name": "addSupporter",
      "outputs": [],
      "stateMutability": "nonpayable",
      "type": "function"
    },
    {
      "inputs": [
        {
          "internalType": "address",
          "name": "",
          "type": "address"
        }
      ],
      "name": "allowedCallers",
      "outputs": [
        {
          "internalType": "bool",
          "name": "",
          "type": "bool"
        }
      ],
      "stateMutability": "view",
      "type": "function"
    },
    {
      "inputs": [
        {
          "internalType": "address",
          "name": "supporterAddress",
          "type": "address"
        },
        {
          "internalType": "uint256",
          "name": "amount",
          "type": "uint256"
        }
      ],
      "name": "calculateCommission",
      "outputs": [
        {
          "internalType": "uint256",
          "name": "amountToBurn",
          "type": "uint256"
        },
        {
          "internalType": "uint256",
          "name": "commission",
          "type": "uint256"
        },
        {
          "internalType": "address",
          "name": "inviter",
          "type": "address"
        }
      ],
      "stateMutability": "view",
      "type": "function"
    },
    {
      "inputs": [
        {
          "internalType": "address",
          "name": "",
          "type": "address"
        },
        {
          "internalType": "uint64",
          "name": "",
          "type": "uint64"
        }
      ],
      "name": "calculatorItemCertificates",
      "outputs": [
        {
          "internalType": "uint256",
          "name": "",
          "type": "uint256"
        }
      ],
      "stateMutability": "view",
      "type": "function"
    },
    {
      "inputs": [
        {
          "internalType": "uint64",
          "name": "calculatorItemId",
          "type": "uint64"
        }
      ],
      "name": "declareReductionCommitment",
      "outputs": [],
      "stateMutability": "nonpayable",
      "type": "function"
    },
    {
      "inputs": [
        {
          "internalType": "address",
          "name": "",
          "type": "address"
        },
        {
          "internalType": "uint256",
          "name": "",
          "type": "uint256"
        }
      ],
      "name": "declaredReduction",
      "outputs": [
        {
          "internalType": "bool",
          "name": "",
          "type": "bool"
        }
      ],
      "stateMutability": "view",
      "type": "function"
    },
    {
      "inputs": [
        {
          "internalType": "address",
          "name": "addr",
          "type": "address"
        }
      ],
      "name": "getReductionCommitments",
      "outputs": [
        {
          "internalType": "uint64[]",
          "name": "",
          "type": "uint64[]"
        }
      ],
      "stateMutability": "view",
      "type": "function"
    },
    {
      "inputs": [
        {
          "internalType": "address",
          "name": "addr",
          "type": "address"
        }
      ],
      "name": "getSupporter",
      "outputs": [
        {
          "components": [
            {
              "internalType": "uint64",
              "name": "id",
              "type": "uint64"
            },
            {
              "internalType": "address",
              "name": "supporterWallet",
              "type": "address"
            },
            {
              "internalType": "string",
              "name": "name",
              "type": "string"
            },
            {
              "internalType": "string",
              "name": "description",
              "type": "string"
            },
            {
              "internalType": "string",
              "name": "profilePhoto",
              "type": "string"
            },
            {
              "internalType": "uint32",
              "name": "publicationsCount",
              "type": "uint32"
            },
            {
              "internalType": "uint32",
              "name": "offsetsCount",
              "type": "uint32"
            },
            {
              "internalType": "uint16",
              "name": "reductionItemsCount",
              "type": "uint16"
            },
            {
              "internalType": "uint256",
              "name": "createdAt",
              "type": "uint256"
            }
          ],
          "internalType": "struct Supporter",
          "name": "",
          "type": "tuple"
        }
      ],
      "stateMutability": "view",
      "type": "function"
    },
    {
      "inputs": [
        {
          "internalType": "address",
          "name": "caller",
          "type": "address"
        }
      ],
      "name": "isAllowedCaller",
      "outputs": [
        {
          "internalType": "bool",
          "name": "",
          "type": "bool"
        }
      ],
      "stateMutability": "view",
      "type": "function"
    },
    {
      "inputs": [
        {
          "internalType": "address",
          "name": "addr",
          "type": "address"
        }
      ],
      "name": "isSupporter",
      "outputs": [
        {
          "internalType": "bool",
          "name": "",
          "type": "bool"
        }
      ],
      "stateMutability": "view",
      "type": "function"
    },
    {
      "inputs": [
        {
          "internalType": "address",
          "name": "allowed",
          "type": "address"
        }
      ],
      "name": "newAllowedCaller",
      "outputs": [],
      "stateMutability": "nonpayable",
      "type": "function"
    },
    {
      "inputs": [
        {
          "internalType": "address",
          "name": "supporterAddress",
          "type": "address"
        },
        {
          "internalType": "uint256",
          "name": "amountToBurn",
          "type": "uint256"
        },
        {
          "internalType": "uint64",
          "name": "calculatorItemId",
          "type": "uint64"
        }
      ],
      "name": "offset",
      "outputs": [],
      "stateMutability": "nonpayable",
      "type": "function"
    },
    {
      "inputs": [
        {
          "internalType": "uint64",
          "name": "",
          "type": "uint64"
        }
      ],
      "name": "offsets",
      "outputs": [
        {
          "internalType": "address",
          "name": "supporterAddress",
          "type": "address"
        },
        {
          "internalType": "uint256",
          "name": "createdAt",
          "type": "uint256"
        },
        {
          "internalType": "uint256",
          "name": "amountBurn",
          "type": "uint256"
        },
        {
          "internalType": "uint256",
          "name": "calculatorItemId",
          "type": "uint256"
        }
      ],
      "stateMutability": "view",
      "type": "function"
    },
    {
      "inputs": [],
      "name": "offsetsCount",
      "outputs": [
        {
          "internalType": "uint64",
          "name": "",
          "type": "uint64"
        }
      ],
      "stateMutability": "view",
      "type": "function"
    },
    {
      "inputs": [],
      "name": "owner",
      "outputs": [
        {
          "internalType": "address",
          "name": "",
          "type": "address"
        }
      ],
      "stateMutability": "view",
      "type": "function"
    },
    {
      "inputs": [
        {
          "internalType": "uint64",
          "name": "",
          "type": "uint64"
        }
      ],
      "name": "publications",
      "outputs": [
        {
          "internalType": "address",
          "name": "supporterAddress",
          "type": "address"
        },
        {
          "internalType": "uint256",
          "name": "createdAt",
          "type": "uint256"
        },
        {
          "internalType": "uint256",
          "name": "amount",
          "type": "uint256"
        },
        {
          "internalType": "string",
          "name": "description",
          "type": "string"
        },
        {
          "internalType": "string",
          "name": "content",
          "type": "string"
        }
      ],
      "stateMutability": "view",
      "type": "function"
    },
    {
      "inputs": [],
      "name": "publicationsCount",
      "outputs": [
        {
          "internalType": "uint64",
          "name": "",
          "type": "uint64"
        }
      ],
      "stateMutability": "view",
      "type": "function"
    },
    {
      "inputs": [
        {
          "internalType": "address",
          "name": "supporterAddress",
          "type": "address"
        },
        {
          "internalType": "uint256",
          "name": "amountToBurn",
          "type": "uint256"
        },
        {
          "internalType": "string",
          "name": "description",
          "type": "string"
        },
        {
          "internalType": "string",
          "name": "content",
          "type": "string"
        }
      ],
      "name": "publish",
      "outputs": [],
      "stateMutability": "nonpayable",
      "type": "function"
    },
    {
      "inputs": [
        {
          "internalType": "address",
          "name": "",
          "type": "address"
        },
        {
          "internalType": "uint256",
          "name": "",
          "type": "uint256"
        }
      ],
      "name": "reductionCommitments",
      "outputs": [
        {
          "internalType": "uint64",
          "name": "",
          "type": "uint64"
        }
      ],
      "stateMutability": "view",
      "type": "function"
    },
    {
      "inputs": [],
      "name": "renounceOwnership",
      "outputs": [],
      "stateMutability": "nonpayable",
      "type": "function"
    },
    {
      "inputs": [
        {
          "internalType": "uint256",
          "name": "",
          "type": "uint256"
        }
      ],
      "name": "supportersAddress",
      "outputs": [
        {
          "internalType": "address",
          "name": "",
          "type": "address"
        }
      ],
      "stateMutability": "view",
      "type": "function"
    },
    {
      "inputs": [
        {
          "internalType": "address",
          "name": "newOwner",
          "type": "address"
        }
      ],
      "name": "transferOwnership",
      "outputs": [],
      "stateMutability": "nonpayable",
      "type": "function"
    },
    {
      "inputs": [
        {
          "internalType": "string",
          "name": "newPhoto",
          "type": "string"
        }
      ],
      "name": "updateProfilePhoto",
      "outputs": [],
      "stateMutability": "nonpayable",
      "type": "function"
    }
  ],
  "bytecode": "0x608060405234801561001057600080fd5b5060405161238738038061238783398101604081905261002f916100d5565b61003833610069565b600a80546001600160a01b039384166001600160a01b031991821617909155600b8054929093169116179055610108565b600080546001600160a01b038381166001600160a01b0319831681178455604051919092169283917f8be0079c531659141344cd1fd0a4f28419497f9722a3daafe3b4186f6b6457e09190a35050565b80516001600160a01b03811681146100d057600080fd5b919050565b600080604083850312156100e857600080fd5b6100f1836100b9565b91506100ff602084016100b9565b90509250929050565b612270806101176000396000f3fe608060405234801561001057600080fd5b50600436106101585760003560e01c806394cea0a3116100c3578063e5fb50991161007c578063e5fb509914610378578063ee9645e81461038b578063f2fde38b146103b9578063f3dbcae0146103cc578063f8a47d8a146103f0578063f9c5512c1461045957600080fd5b806394cea0a3146102cc578063a6801258146102e6578063b9cccee314610312578063cf78537f14610325578063d4fadeae14610338578063dc02837f1461035857600080fd5b80632e7759ba116101155780632e7759ba14610247578063715018a61461025a5780637b3341541461026257806385851afc146102955780638da5cb5b146102a85780638f93716f146102b957600080fd5b806305b95fbe1461015d5780630864e8f6146101a35780630d378ffd146101d55780630e2647ad146101e857806320f5f456146101fd5780632d87134714610210575b600080fd5b61018661016b3660046117ce565b6006602052600090815260409020546001600160a01b031681565b6040516001600160a01b0390911681526020015b60405180910390f35b6007546101bd90600160401b90046001600160401b031681565b6040516001600160401b03909116815260200161019a565b6101bd6101e33660046117fc565b610492565b6101fb6101f6366004611913565b6104de565b005b6101fb61020b366004611964565b6105f8565b61022361021e3660046117fc565b6108e5565b6040805193845260208401929092526001600160a01b03169082015260600161019a565b6101fb610255366004611981565b6109a4565b6101fb610c9c565b610285610270366004611a12565b60016020526000908152604090205460ff1681565b604051901515815260200161019a565b6007546101bd906001600160401b031681565b6000546001600160a01b0316610186565b6101fb6102c7366004611a12565b610cb0565b6102d4600581565b60405160ff909116815260200161019a565b6102856102f4366004611a12565b6001600160a01b031660009081526001602052604090205460ff1690565b610285610320366004611a12565b610cdf565b6101fb610333366004611a2f565b610d5a565b61034b610346366004611a12565b610f29565b60405161019a9190611ab2565b61036b610366366004611a12565b610fc7565b60405161019a9190611b4e565b6101fb610386366004611c2f565b611278565b6102856103993660046117fc565b600560209081526000928352604080842090915290825290205460ff1681565b6101fb6103c7366004611a12565b611535565b6103df6103da366004611964565b6115ae565b60405161019a959493929190611c71565b61042f6103fe366004611964565b60096020526000908152604090208054600182015460028301546003909301546001600160a01b0390921692909184565b604080516001600160a01b039095168552602085019390935291830152606082015260800161019a565b610484610467366004611cbc565b600360209081526000928352604080842090915290825290205481565b60405190815260200161019a565b600460205281600052604060002081815481106104ae57600080fd5b9060005260206000209060049182820401919006600802915091509054906101000a90046001600160401b031681565b8051609610156105265760405162461bcd60e51b815260206004820152600e60248201526d4d6178206368617261637465727360901b60448201526064015b60405180910390fd5b600a54604051631292f8c160e31b81526001600160a01b0390911690639497c60890610559906007903390600401611d17565b602060405180830381865afa158015610576573d6000803e3d6000fd5b505050506040513d601f19601f8201168201806040525081019061059a9190611d3d565b6105d85760405162461bcd60e51b815260206004820152600f60248201526e4f6e6c7920737570706f727465727360881b604482015260640161051d565b3360009081526002602052604090206003016105f48282611de8565b5050565b600a54604051631292f8c160e31b81526001600160a01b0390911690639497c6089061062b906007903390600401611d17565b602060405180830381865afa158015610648573d6000803e3d6000fd5b505050506040513d601f19601f8201168201806040525081019061066c9190611d3d565b6106aa5760405162461bcd60e51b815260206004820152600f60248201526e4f6e6c7920737570706f727465727360881b604482015260640161051d565b3360009081526005602090815260408083206001600160401b038516845290915290205460ff161561071e5760405162461bcd60e51b815260206004820152601b60248201527f436f6d6d69746d656e7420616c7265616479206465636c617265640000000000604482015260640161051d565b600b546040516311868d0b60e01b81526001600160401b03831660048201526000916001600160a01b0316906311868d0b90602401600060405180830381865afa158015610770573d6000803e3d6000fd5b505050506040513d6000823e601f3d908101601f191682016040526107989190810190611f06565b80519091506001600160401b03166107f25760405162461bcd60e51b815260206004820152601e60248201527f43616c63756c61746f72206974656d20646f6573206e6f742065786973740000604482015260640161051d565b3360008181526004602081815260408084208054600181810183559186528386208582040180546001600160401b03808c166008600390951685026101000a81810292021990921617909155878752600585528387209087528452828620805460ff1916909217909155948452600290915290912001805461ffff600160401b90910416916108808361200f565b825461ffff9182166101009390930a928302919092021990911617905550604080516001600160401b038416815243602082015233917f6a8703d0dfd7a2ebeec57615dbfe3bd225042a61a5ddc5e565d02ee8cc27c82d910160405180910390a25050565b600a5460405163158bdc5f60e11b81526001600160a01b0384811660048301526000928392839283921690632b17b8be90602401608060405180830381865afa158015610936573d6000803e3d6000fd5b505050506040513d601f19601f8201168201806040525081019061095a9190612030565b60608101516020820151935090915015158061097757600061098d565b61098d60646109878860056116f9565b9061170c565b93506109998685611718565b945050509250925092565b82516032108015906109b85750815160c810155b80156109c657508051609610155b610a0b5760405162461bcd60e51b815260206004820152601660248201527513585e0818da185c9858dd195c9cc81c995858da195960521b604482015260640161051d565b600a5460405162f5960960e51b81526000916001600160a01b031690631eb2c12090610a3c906007906004016120b7565b602060405180830381865afa158015610a59573d6000803e3d6000fd5b505050506040513d601f19601f82011682018060405250810190610a7d91906120c5565b610a889060016120e2565b60408051610120810182526001600160401b0380841682523360208084018281528486018b8152606086018b9052608086018a9052600060a0870181905260c0870181905260e08701819052436101008801529384526002909252949091208351815495516001600160a01b0316600160401b026001600160e01b03199096169316929092179390931781559151929350916001820190610b299082611de8565b5060608201516002820190610b3e9082611de8565b5060808201516003820190610b539082611de8565b5060a08201516004808301805460c086015160e087015161ffff16600160401b0269ffff00000000000000001963ffffffff9283166401000000000267ffffffffffffffff199094169290961691909117919091179390931692909217909155610100909201516005909101556001600160401b0382166000908152600660205260409081902080546001600160a01b03191633908117909155600a549151639c3eead960e01b81526001600160a01b039290921692639c3eead992610c1d929160079101612101565b600060405180830381600087803b158015610c3757600080fd5b505af1158015610c4b573d6000803e3d6000fd5b50505050336001600160a01b03167f2fe5386557a95a5d820fa0514dc2a3c8d60986e6f41bace2d281e6b8d63636eb82868543604051610c8e949392919061211e565b60405180910390a250505050565b610ca4611724565b610cae600061177e565b565b610cb8611724565b6001600160a01b03166000908152600160208190526040909120805460ff19169091179055565b600a54604051631292f8c160e31b81526000916001600160a01b031690639497c60890610d13906007908690600401611d17565b602060405180830381865afa158015610d30573d6000803e3d6000fd5b505050506040513d601f19601f82011682018060405250810190610d549190611d3d565b92915050565b3360009081526001602052604090205460ff16610dae5760405162461bcd60e51b81526020600482015260126024820152712737ba1030b63637bbb2b21031b0b63632b960711b604482015260640161051d565b60078054600160401b90046001600160401b0316906008610dce83612164565b82546101009290920a6001600160401b038181021990931691831602179091556007546040805160a0810182526001600160a01b0389811682524360208084019182528385018b8152606085018b8152608086018b9052600160401b90970490971660008181526008909252949020835181546001600160a01b03191693169290921782555160018201559351600285015591519093509091906003820190610e779082611de8565b5060808201516004820190610e8c9082611de8565b5050506001600160a01b0385166000908152600260205260408120600401805463ffffffff1691610ebc83612186565b91906101000a81548163ffffffff021916908363ffffffff16021790555050846001600160a01b03167fdf5cfbe4bde5ebebb5a679aed00fda9e915bd7d3b29742fe92dd2326636d3f2182868643604051610f1a94939291906121a2565b60405180910390a25050505050565b6001600160a01b038116600090815260046020908152604091829020805483518184028101840190945280845260609392830182828015610fbb57602002820191906000526020600020906000905b82829054906101000a90046001600160401b03166001600160401b031681526020019060080190602082600701049283019260010382029150808411610f785790505b50505050509050919050565b61103860405180610120016040528060006001600160401b0316815260200160006001600160a01b03168152602001606081526020016060815260200160608152602001600063ffffffff168152602001600063ffffffff168152602001600061ffff168152602001600081525090565b6001600160a01b0380831660009081526002602090815260409182902082516101208101845281546001600160401b0381168252600160401b900490941691840191909152600181018054919284019161109190611d5f565b80601f01602080910402602001604051908101604052809291908181526020018280546110bd90611d5f565b801561110a5780601f106110df5761010080835404028352916020019161110a565b820191906000526020600020905b8154815290600101906020018083116110ed57829003601f168201915b5050505050815260200160028201805461112390611d5f565b80601f016020809104026020016040519081016040528092919081815260200182805461114f90611d5f565b801561119c5780601f106111715761010080835404028352916020019161119c565b820191906000526020600020905b81548152906001019060200180831161117f57829003601f168201915b505050505081526020016003820180546111b590611d5f565b80601f01602080910402602001604051908101604052809291908181526020018280546111e190611d5f565b801561122e5780601f106112035761010080835404028352916020019161122e565b820191906000526020600020905b81548152906001019060200180831161121157829003601f168201915b5050509183525050600482015463ffffffff80821660208401526401000000008204166040830152600160401b900461ffff16606082015260059091015460809091015292915050565b3360009081526001602052604090205460ff166112cc5760405162461bcd60e51b81526020600482015260126024820152712737ba1030b63637bbb2b21031b0b63632b960711b604482015260640161051d565b600b546040516311868d0b60e01b81526001600160401b03831660048201526000916001600160a01b0316906311868d0b90602401600060405180830381865afa15801561131e573d6000803e3d6000fd5b505050506040513d6000823e601f3d908101601f191682016040526113469190810190611f06565b516001600160401b03161161139d5760405162461bcd60e51b815260206004820152601e60248201527f43616c63756c61746f72206974656d20646f6573206e6f742065786973740000604482015260640161051d565b600780546001600160401b03169060006113b683612164565b82546101009290920a6001600160401b038181021990931691831602179091556007546001600160a01b03861660009081526003602090815260408083208786168452909152812080549290931693508592916114149084906121db565b9091555050604080516080810182526001600160a01b038681168083524360208085019182528486018981526001600160401b0389811660608801908152908916600090815260098452888120975188546001600160a01b0319169716969096178755925160018701555160028087019190915591516003909501949094559082529091522060049081018054640100000000900463ffffffff16916114b983612186565b825463ffffffff9182166101009390930a928302919092021990911617905550604080516001600160401b038084168252602082018690528416918101919091524360608201526001600160a01b038516907f37402fe4219227a84d8eb9834b7e64d61f4f583fd5a522e66731a697afecaf6590608001610c8e565b61153d611724565b6001600160a01b0381166115a25760405162461bcd60e51b815260206004820152602660248201527f4f776e61626c653a206e6577206f776e657220697320746865207a65726f206160448201526564647265737360d01b606482015260840161051d565b6115ab8161177e565b50565b60086020526000908152604090208054600182015460028301546003840180546001600160a01b039094169492939192916115e890611d5f565b80601f016020809104026020016040519081016040528092919081815260200182805461161490611d5f565b80156116615780601f1061163657610100808354040283529160200191611661565b820191906000526020600020905b81548152906001019060200180831161164457829003601f168201915b50505050509080600401805461167690611d5f565b80601f01602080910402602001604051908101604052809291908181526020018280546116a290611d5f565b80156116ef5780601f106116c4576101008083540402835291602001916116ef565b820191906000526020600020905b8154815290600101906020018083116116d257829003601f168201915b5050505050905085565b600061170582846121ee565b9392505050565b60006117058284612205565b60006117058284612227565b6000546001600160a01b03163314610cae5760405162461bcd60e51b815260206004820181905260248201527f4f776e61626c653a2063616c6c6572206973206e6f7420746865206f776e6572604482015260640161051d565b600080546001600160a01b038381166001600160a01b0319831681178455604051919092169283917f8be0079c531659141344cd1fd0a4f28419497f9722a3daafe3b4186f6b6457e09190a35050565b6000602082840312156117e057600080fd5b5035919050565b6001600160a01b03811681146115ab57600080fd5b6000806040838503121561180f57600080fd5b823561181a816117e7565b946020939093013593505050565b634e487b7160e01b600052604160045260246000fd5b60405160c081016001600160401b038111828210171561186057611860611828565b60405290565b604051601f8201601f191681016001600160401b038111828210171561188e5761188e611828565b604052919050565b60006001600160401b038211156118af576118af611828565b50601f01601f191660200190565b600082601f8301126118ce57600080fd5b81356118e16118dc82611896565b611866565b8181528460208386010111156118f657600080fd5b816020850160208301376000918101602001919091529392505050565b60006020828403121561192557600080fd5b81356001600160401b0381111561193b57600080fd5b611947848285016118bd565b949350505050565b6001600160401b03811681146115ab57600080fd5b60006020828403121561197657600080fd5b81356117058161194f565b60008060006060848603121561199657600080fd5b83356001600160401b038111156119ac57600080fd5b6119b8868287016118bd565b93505060208401356001600160401b038111156119d457600080fd5b6119e0868287016118bd565b92505060408401356001600160401b038111156119fc57600080fd5b611a08868287016118bd565b9150509250925092565b600060208284031215611a2457600080fd5b8135611705816117e7565b60008060008060808587031215611a4557600080fd5b8435611a50816117e7565b93506020850135925060408501356001600160401b03811115611a7257600080fd5b611a7e878288016118bd565b92505060608501356001600160401b03811115611a9a57600080fd5b611aa6878288016118bd565b91505092959194509250565b602080825282518282018190526000918401906040840190835b81811015611af35783516001600160401b0316835260209384019390920191600101611acc565b509095945050505050565b60005b83811015611b19578181015183820152602001611b01565b50506000910152565b60008151808452611b3a816020860160208601611afe565b601f01601f19169290920160200192915050565b60208152611b686020820183516001600160401b03169052565b60006020830151611b8460408401826001600160a01b03169052565b5060408301516101206060840152611ba0610140840182611b22565b90506060840151601f19848303016080850152611bbd8282611b22565b9150506080840151601f198483030160a0850152611bdb8282611b22565b91505060a0840151611bf560c085018263ffffffff169052565b5060c084015163ffffffff811660e08501525060e084015161ffff8116610100850152506101008401516101208401528091505092915050565b600080600060608486031215611c4457600080fd5b8335611c4f816117e7565b9250602084013591506040840135611c668161194f565b809150509250925092565b60018060a01b038616815284602082015283604082015260a060608201526000611c9e60a0830185611b22565b8281036080840152611cb08185611b22565b98975050505050505050565b60008060408385031215611ccf57600080fd5b8235611cda816117e7565b91506020830135611cea8161194f565b809150509250929050565b60098110611d1357634e487b7160e01b600052602160045260246000fd5b9052565b60408101611d258285611cf5565b6001600160a01b039290921660209190910152919050565b600060208284031215611d4f57600080fd5b8151801515811461170557600080fd5b600181811c90821680611d7357607f821691505b602082108103611d9357634e487b7160e01b600052602260045260246000fd5b50919050565b601f821115611de357806000526020600020601f840160051c81016020851015611dc05750805b601f840160051c820191505b81811015611de05760008155600101611dcc565b50505b505050565b81516001600160401b03811115611e0157611e01611828565b611e1581611e0f8454611d5f565b84611d99565b6020601f821160018114611e495760008315611e315750848201515b600019600385901b1c1916600184901b178455611de0565b600084815260208120601f198516915b82811015611e795787850151825560209485019460019092019101611e59565b5084821015611e975786840151600019600387901b60f8161c191681555b50505050600190811b01905550565b8051611eb18161194f565b919050565b8051611eb1816117e7565b600082601f830112611ed257600080fd5b8151611ee06118dc82611896565b818152846020838601011115611ef557600080fd5b611947826020830160208701611afe565b600060208284031215611f1857600080fd5b81516001600160401b03811115611f2e57600080fd5b820160c08185031215611f4057600080fd5b611f4861183e565b611f5182611ea6565b8152611f5f60208301611eb6565b602082015260408201516001600160401b03811115611f7d57600080fd5b611f8986828501611ec1565b60408301525060608201516001600160401b03811115611fa857600080fd5b611fb486828501611ec1565b60608301525060808201516001600160401b03811115611fd357600080fd5b611fdf86828501611ec1565b60808301525060a091820151918101919091529392505050565b634e487b7160e01b600052601160045260246000fd5b600061ffff821661ffff810361202757612027611ff9565b60010192915050565b6000608082840312801561204357600080fd5b50604051600090608081016001600160401b038111828210171561206957612069611828565b6040528351612077816117e7565b81526020840151612087816117e7565b602082015260408401516009811061209d578283fd5b604082015260609384015193810193909352509092915050565b60208101610d548284611cf5565b6000602082840312156120d757600080fd5b81516117058161194f565b6001600160401b038181168382160190811115610d5457610d54611ff9565b6001600160a01b0383168152604081016117056020830184611cf5565b6001600160401b03851681526080602082015260006121406080830186611b22565b82810360408401526121528186611b22565b91505082606083015295945050505050565b60006001600160401b0382166001600160401b03810361202757612027611ff9565b600063ffffffff821663ffffffff810361202757612027611ff9565b6001600160401b03851681528360208201526080604082015260006121ca6080830185611b22565b905082606083015295945050505050565b80820180821115610d5457610d54611ff9565b8082028115828204841417610d5457610d54611ff9565b60008261222257634e487b7160e01b600052601260045260246000fd5b500490565b81810381811115610d5457610d54611ff956fea2646970667358221220a105daf210eb0b22408d7123e4de9a6887a867754133b59bb9c383c01e44515e64736f6c634300081b0033",
  "linkReferences": {},
  "deployedLinkReferences": {}
}