{
  "_format": "hh-sol-artifact-1",
  "contractName": "SupporterRules",
  "sourceName": "contracts/SupporterRules.sol",
  "abi": [
    {
      "inputs": [
        {
          "internalType": "address",
          "name": "communityRulesAddress",
          "type": "address"
        },
        {
          "internalType": "address",
          "name": "supporterPoolAddress",
          "type": "address"
        },
        {
          "internalType": "address",
          "name": "researcherRulesAddress",
          "type": "address"
        }
      ],
      "stateMutability": "nonpayable",
      "type": "constructor"
    },
    {
      "inputs": [],
      "name": "INVITER_PERCENTAGE",
      "outputs": [
        {
          "internalType": "uint256",
          "name": "",
          "type": "uint256"
        }
      ],
      "stateMutability": "view",
      "type": "function"
    },
    {
      "inputs": [
        {
          "internalType": "string",
          "name": "name",
          "type": "string"
        }
      ],
      "name": "addSupporter",
      "outputs": [
        {
          "components": [
            {
              "internalType": "uint256",
              "name": "id",
              "type": "uint256"
            },
            {
              "internalType": "address",
              "name": "supporterWallet",
              "type": "address"
            },
            {
              "internalType": "string",
              "name": "name",
              "type": "string"
            },
            {
              "internalType": "uint256",
              "name": "createdAt",
              "type": "uint256"
            }
          ],
          "internalType": "struct Supporter",
          "name": "",
          "type": "tuple"
        }
      ],
      "stateMutability": "nonpayable",
      "type": "function"
    },
    {
      "inputs": [
        {
          "internalType": "uint256",
          "name": "amount",
          "type": "uint256"
        },
        {
          "internalType": "uint256",
          "name": "calculatorItemId",
          "type": "uint256"
        }
      ],
      "name": "burnTokensCalculator",
      "outputs": [],
      "stateMutability": "nonpayable",
      "type": "function"
    },
    {
      "inputs": [
        {
          "internalType": "uint256",
          "name": "amount",
          "type": "uint256"
        },
        {
          "internalType": "string",
          "name": "description",
          "type": "string"
        },
        {
          "internalType": "string",
          "name": "content",
          "type": "string"
        }
      ],
      "name": "burnTokensPublication",
      "outputs": [],
      "stateMutability": "nonpayable",
      "type": "function"
    },
    {
      "inputs": [
        {
          "internalType": "address",
          "name": "",
          "type": "address"
        },
        {
          "internalType": "uint256",
          "name": "",
          "type": "uint256"
        }
      ],
      "name": "calculatorItemCertificates",
      "outputs": [
        {
          "internalType": "uint256",
          "name": "",
          "type": "uint256"
        }
      ],
      "stateMutability": "view",
      "type": "function"
    },
    {
      "inputs": [
        {
          "internalType": "uint256",
          "name": "calculatorItemId",
          "type": "uint256"
        }
      ],
      "name": "declareReductionCommitment",
      "outputs": [],
      "stateMutability": "nonpayable",
      "type": "function"
    },
    {
      "inputs": [
        {
          "internalType": "address",
          "name": "addr",
          "type": "address"
        }
      ],
      "name": "getReductionCommitments",
      "outputs": [
        {
          "internalType": "uint256[]",
          "name": "",
          "type": "uint256[]"
        }
      ],
      "stateMutability": "view",
      "type": "function"
    },
    {
      "inputs": [
        {
          "internalType": "address",
          "name": "addr",
          "type": "address"
        }
      ],
      "name": "getSupporter",
      "outputs": [
        {
          "components": [
            {
              "internalType": "uint256",
              "name": "id",
              "type": "uint256"
            },
            {
              "internalType": "address",
              "name": "supporterWallet",
              "type": "address"
            },
            {
              "internalType": "string",
              "name": "name",
              "type": "string"
            },
            {
              "internalType": "uint256",
              "name": "createdAt",
              "type": "uint256"
            }
          ],
          "internalType": "struct Supporter",
          "name": "",
          "type": "tuple"
        }
      ],
      "stateMutability": "view",
      "type": "function"
    },
    {
      "inputs": [
        {
          "internalType": "address",
          "name": "",
          "type": "address"
        },
        {
          "internalType": "uint256",
          "name": "",
          "type": "uint256"
        }
      ],
      "name": "publicationIds",
      "outputs": [
        {
          "internalType": "uint256",
          "name": "id",
          "type": "uint256"
        }
      ],
      "stateMutability": "view",
      "type": "function"
    },
    {
      "inputs": [
        {
          "internalType": "uint256",
          "name": "",
          "type": "uint256"
        }
      ],
      "name": "publications",
      "outputs": [
        {
          "internalType": "address",
          "name": "supporterAddress",
          "type": "address"
        },
        {
          "internalType": "uint256",
          "name": "amount",
          "type": "uint256"
        },
        {
          "internalType": "string",
          "name": "description",
          "type": "string"
        },
        {
          "internalType": "string",
          "name": "content",
          "type": "string"
        }
      ],
      "stateMutability": "view",
      "type": "function"
    },
    {
      "inputs": [],
      "name": "publicationsCount",
      "outputs": [
        {
          "internalType": "uint256",
          "name": "",
          "type": "uint256"
        }
      ],
      "stateMutability": "view",
      "type": "function"
    },
    {
      "inputs": [
        {
          "internalType": "address",
          "name": "",
          "type": "address"
        },
        {
          "internalType": "uint256",
          "name": "",
          "type": "uint256"
        }
      ],
      "name": "reductionCommitments",
      "outputs": [
        {
          "internalType": "uint256",
          "name": "",
          "type": "uint256"
        }
      ],
      "stateMutability": "view",
      "type": "function"
    },
    {
      "inputs": [
        {
          "internalType": "uint256",
          "name": "",
          "type": "uint256"
        }
      ],
      "name": "supportersAddress",
      "outputs": [
        {
          "internalType": "address",
          "name": "",
          "type": "address"
        }
      ],
      "stateMutability": "view",
      "type": "function"
    }
  ],
  "bytecode": "0x608060405234801561001057600080fd5b5060405161254f38038061254f83398181016040528101906100329190610160565b82600760006101000a81548173ffffffffffffffffffffffffffffffffffffffff021916908373ffffffffffffffffffffffffffffffffffffffff16021790555081600860006101000a81548173ffffffffffffffffffffffffffffffffffffffff021916908373ffffffffffffffffffffffffffffffffffffffff16021790555080600960006101000a81548173ffffffffffffffffffffffffffffffffffffffff021916908373ffffffffffffffffffffffffffffffffffffffff1602179055505050506101b3565b600080fd5b600073ffffffffffffffffffffffffffffffffffffffff82169050919050565b600061012d82610102565b9050919050565b61013d81610122565b811461014857600080fd5b50565b60008151905061015a81610134565b92915050565b600080600060608486031215610179576101786100fd565b5b60006101878682870161014b565b93505060206101988682870161014b565b92505060406101a98682870161014b565b9150509250925092565b61238d806101c26000396000f3fe608060405234801561001057600080fd5b50600436106100cf5760003560e01c80636c960b0d1161008c578063d1059a7411610066578063d1059a741461023b578063d4fadeae14610257578063d64da33114610287578063dc02837f146102b7576100cf565b80636c960b0d146101d157806388cc28da1461020157806394cea0a31461021d576100cf565b806305b95fbe146100d45780630864e8f6146101045780630d378ffd146101225780631fd5bbab146101525780634d8e43971461018557806356c89927146101b5575b600080fd5b6100ee60048036038101906100e99190611318565b6102e7565b6040516100fb9190611386565b60405180910390f35b61010c61031a565b60405161011991906113b0565b60405180910390f35b61013c600480360381019061013791906113f7565b610320565b60405161014991906113b0565b60405180910390f35b61016c60048036038101906101679190611318565b610351565b60405161017c94939291906114c7565b60405180910390f35b61019f600480360381019061019a919061164f565b6104b1565b6040516101ac9190611763565b60405180910390f35b6101cf60048036038101906101ca9190611785565b610740565b005b6101eb60048036038101906101e691906113f7565b610986565b6040516101f891906113b0565b60405180910390f35b61021b60048036038101906102169190611318565b6109ab565b005b610225610bdf565b60405161023291906113b0565b60405180910390f35b610255600480360381019061025091906117c5565b610be4565b005b610271600480360381019061026c9190611850565b610e8d565b60405161027e919061192c565b60405180910390f35b6102a1600480360381019061029c91906113f7565b610f24565b6040516102ae91906113b0565b60405180910390f35b6102d160048036038101906102cc9190611850565b610f5b565b6040516102de9190611763565b60405180910390f35b60036020528060005260406000206000915054906101000a900473ffffffffffffffffffffffffffffffffffffffff1681565b60065481565b6002602052816000526040600020818154811061033c57600080fd5b90600052602060002001600091509150505481565b60046020528060005260406000206000915090508060000160009054906101000a900473ffffffffffffffffffffffffffffffffffffffff16908060010154908060020180546103a09061197d565b80601f01602080910402602001604051908101604052809291908181526020018280546103cc9061197d565b80156104195780601f106103ee57610100808354040283529160200191610419565b820191906000526020600020905b8154815290600101906020018083116103fc57829003601f168201915b50505050509080600301805461042e9061197d565b80601f016020809104026020016040519081016040528092919081815260200182805461045a9061197d565b80156104a75780601f1061047c576101008083540402835291602001916104a7565b820191906000526020600020905b81548152906001019060200180831161048a57829003601f168201915b5050505050905084565b6104b9611290565b60006001600760009054906101000a900473ffffffffffffffffffffffffffffffffffffffff1673ffffffffffffffffffffffffffffffffffffffff16631eb2c12060076040518263ffffffff1660e01b81526004016105199190611a25565b602060405180830381865afa158015610536573d6000803e3d6000fd5b505050506040513d601f19601f8201168201806040525081019061055a9190611a55565b6105649190611ab1565b9050600060405180608001604052808381526020013373ffffffffffffffffffffffffffffffffffffffff168152602001858152602001438152509050806000803373ffffffffffffffffffffffffffffffffffffffff1673ffffffffffffffffffffffffffffffffffffffff1681526020019081526020016000206000820151816000015560208201518160010160006101000a81548173ffffffffffffffffffffffffffffffffffffffff021916908373ffffffffffffffffffffffffffffffffffffffff16021790555060408201518160020190816106469190611c91565b5060608201518160030155905050336003600084815260200190815260200160002060006101000a81548173ffffffffffffffffffffffffffffffffffffffff021916908373ffffffffffffffffffffffffffffffffffffffff160217905550600760009054906101000a900473ffffffffffffffffffffffffffffffffffffffff1673ffffffffffffffffffffffffffffffffffffffff16639c3eead93360076040518363ffffffff1660e01b8152600401610704929190611d63565b600060405180830381600087803b15801561071e57600080fd5b505af1158015610732573d6000803e3d6000fd5b505050508092505050919050565b600760009054906101000a900473ffffffffffffffffffffffffffffffffffffffff1673ffffffffffffffffffffffffffffffffffffffff16639497c6086007336040518363ffffffff1660e01b815260040161079e929190611d8c565b602060405180830381865afa1580156107bb573d6000803e3d6000fd5b505050506040513d601f19601f820116820180604052508101906107df9190611ded565b61081e576040517f08c379a000000000000000000000000000000000000000000000000000000000815260040161081590611e66565b60405180910390fd5b60008211610861576040517f08c379a000000000000000000000000000000000000000000000000000000000815260040161085890611ed2565b60405180910390fd5b600061086c836110af565b90506000821115610981576000600960009054906101000a900473ffffffffffffffffffffffffffffffffffffffff1673ffffffffffffffffffffffffffffffffffffffff1663a58273c8846040518263ffffffff1660e01b81526004016108d491906113b0565b600060405180830381865afa1580156108f1573d6000803e3d6000fd5b505050506040513d6000823e3d601f19601f8201168201806040525081019061091a9190612075565b905060008160000151111561097f5781600160003373ffffffffffffffffffffffffffffffffffffffff1673ffffffffffffffffffffffffffffffffffffffff1681526020019081526020016000206000858152602001908152602001600020819055505b505b505050565b6001602052816000526040600020602052806000526040600020600091509150505481565b600760009054906101000a900473ffffffffffffffffffffffffffffffffffffffff1673ffffffffffffffffffffffffffffffffffffffff16639497c6086007336040518363ffffffff1660e01b8152600401610a09929190611d8c565b602060405180830381865afa158015610a26573d6000803e3d6000fd5b505050506040513d601f19601f82011682018060405250810190610a4a9190611ded565b610a89576040517f08c379a0000000000000000000000000000000000000000000000000000000008152600401610a8090611e66565b60405180910390fd5b6000600960009054906101000a900473ffffffffffffffffffffffffffffffffffffffff1673ffffffffffffffffffffffffffffffffffffffff1663a58273c8836040518263ffffffff1660e01b8152600401610ae691906113b0565b600060405180830381865afa158015610b03573d6000803e3d6000fd5b505050506040513d6000823e3d601f19601f82011682018060405250810190610b2c9190612075565b90506000816000015111610b75576040517f08c379a0000000000000000000000000000000000000000000000000000000008152600401610b6c9061210a565b60405180910390fd5b600260003373ffffffffffffffffffffffffffffffffffffffff1673ffffffffffffffffffffffffffffffffffffffff1681526020019081526020016000208290806001815401808255809150506001900390600052602060002001600090919091909150555050565b600581565b600760009054906101000a900473ffffffffffffffffffffffffffffffffffffffff1673ffffffffffffffffffffffffffffffffffffffff16639497c6086007336040518363ffffffff1660e01b8152600401610c42929190611d8c565b602060405180830381865afa158015610c5f573d6000803e3d6000fd5b505050506040513d601f19601f82011682018060405250810190610c839190611ded565b610cc2576040517f08c379a0000000000000000000000000000000000000000000000000000000008152600401610cb990611e66565b60405180910390fd5b60018311610d05576040517f08c379a0000000000000000000000000000000000000000000000000000000008152600401610cfc90611ed2565b60405180910390fd5b6000610d10846110af565b905060006001600654610d239190611ab1565b905060405180608001604052803373ffffffffffffffffffffffffffffffffffffffff168152602001838152602001858152602001848152506004600083815260200190815260200160002060008201518160000160006101000a81548173ffffffffffffffffffffffffffffffffffffffff021916908373ffffffffffffffffffffffffffffffffffffffff160217905550602082015181600101556040820151816002019081610dd59190611c91565b506060820151816003019081610deb9190611c91565b50905050600560003373ffffffffffffffffffffffffffffffffffffffff1673ffffffffffffffffffffffffffffffffffffffff1681526020019081526020016000206040518060200160405280838152509080600181540180825580915050600190039060005260206000200160009091909190915060008201518160000155505060066000815480929190610e819061212a565b91905055505050505050565b6060600260008373ffffffffffffffffffffffffffffffffffffffff1673ffffffffffffffffffffffffffffffffffffffff168152602001908152602001600020805480602002602001604051908101604052809291908181526020018280548015610f1857602002820191906000526020600020905b815481526020019060010190808311610f04575b50505050509050919050565b60056020528160005260406000208181548110610f4057600080fd5b90600052602060002001600091509150508060000154905081565b610f63611290565b6000808373ffffffffffffffffffffffffffffffffffffffff1673ffffffffffffffffffffffffffffffffffffffff168152602001908152602001600020604051806080016040529081600082015481526020016001820160009054906101000a900473ffffffffffffffffffffffffffffffffffffffff1673ffffffffffffffffffffffffffffffffffffffff1673ffffffffffffffffffffffffffffffffffffffff16815260200160028201805461101c9061197d565b80601f01602080910402602001604051908101604052809291908181526020018280546110489061197d565b80156110955780601f1061106a57610100808354040283529160200191611095565b820191906000526020600020905b81548152906001019060200180831161107857829003601f168201915b505050505081526020016003820154815250509050919050565b600080600760009054906101000a900473ffffffffffffffffffffffffffffffffffffffff1673ffffffffffffffffffffffffffffffffffffffff16632b17b8be336040518263ffffffff1660e01b815260040161110d9190611386565b608060405180830381865afa15801561112a573d6000803e3d6000fd5b505050506040513d601f19601f8201168201806040525081019061114e919061220f565b905060008082606001511415905060008161116a576000611192565b611191606461118360058861124e90919063ffffffff16565b61126490919063ffffffff16565b5b905060006111a9828761127a90919063ffffffff16565b9050600860009054906101000a900473ffffffffffffffffffffffffffffffffffffffff1673ffffffffffffffffffffffffffffffffffffffff1663f61b916033866020015184866040518563ffffffff1660e01b8152600401611210949392919061223c565b600060405180830381600087803b15801561122a57600080fd5b505af115801561123e573d6000803e3d6000fd5b5050505080945050505050919050565b6000818361125c9190612281565b905092915050565b6000818361127291906122f2565b905092915050565b600081836112889190612323565b905092915050565b604051806080016040528060008152602001600073ffffffffffffffffffffffffffffffffffffffff16815260200160608152602001600081525090565b6000604051905090565b600080fd5b600080fd5b6000819050919050565b6112f5816112e2565b811461130057600080fd5b50565b600081359050611312816112ec565b92915050565b60006020828403121561132e5761132d6112d8565b5b600061133c84828501611303565b91505092915050565b600073ffffffffffffffffffffffffffffffffffffffff82169050919050565b600061137082611345565b9050919050565b61138081611365565b82525050565b600060208201905061139b6000830184611377565b92915050565b6113aa816112e2565b82525050565b60006020820190506113c560008301846113a1565b92915050565b6113d481611365565b81146113df57600080fd5b50565b6000813590506113f1816113cb565b92915050565b6000806040838503121561140e5761140d6112d8565b5b600061141c858286016113e2565b925050602061142d85828601611303565b9150509250929050565b600081519050919050565b600082825260208201905092915050565b60005b83811015611471578082015181840152602081019050611456565b60008484015250505050565b6000601f19601f8301169050919050565b600061149982611437565b6114a38185611442565b93506114b3818560208601611453565b6114bc8161147d565b840191505092915050565b60006080820190506114dc6000830187611377565b6114e960208301866113a1565b81810360408301526114fb818561148e565b9050818103606083015261150f818461148e565b905095945050505050565b600080fd5b600080fd5b7f4e487b7100000000000000000000000000000000000000000000000000000000600052604160045260246000fd5b61155c8261147d565b810181811067ffffffffffffffff8211171561157b5761157a611524565b5b80604052505050565b600061158e6112ce565b905061159a8282611553565b919050565b600067ffffffffffffffff8211156115ba576115b9611524565b5b6115c38261147d565b9050602081019050919050565b82818337600083830152505050565b60006115f26115ed8461159f565b611584565b90508281526020810184848401111561160e5761160d61151f565b5b6116198482856115d0565b509392505050565b600082601f8301126116365761163561151a565b5b81356116468482602086016115df565b91505092915050565b600060208284031215611665576116646112d8565b5b600082013567ffffffffffffffff811115611683576116826112dd565b5b61168f84828501611621565b91505092915050565b6116a1816112e2565b82525050565b6116b081611365565b82525050565b600082825260208201905092915050565b60006116d282611437565b6116dc81856116b6565b93506116ec818560208601611453565b6116f58161147d565b840191505092915050565b60006080830160008301516117186000860182611698565b50602083015161172b60208601826116a7565b506040830151848203604086015261174382826116c7565b91505060608301516117586060860182611698565b508091505092915050565b6000602082019050818103600083015261177d8184611700565b905092915050565b6000806040838503121561179c5761179b6112d8565b5b60006117aa85828601611303565b92505060206117bb85828601611303565b9150509250929050565b6000806000606084860312156117de576117dd6112d8565b5b60006117ec86828701611303565b935050602084013567ffffffffffffffff81111561180d5761180c6112dd565b5b61181986828701611621565b925050604084013567ffffffffffffffff81111561183a576118396112dd565b5b61184686828701611621565b9150509250925092565b600060208284031215611866576118656112d8565b5b6000611874848285016113e2565b91505092915050565b600081519050919050565b600082825260208201905092915050565b6000819050602082019050919050565b60006118b58383611698565b60208301905092915050565b6000602082019050919050565b60006118d98261187d565b6118e38185611888565b93506118ee83611899565b8060005b8381101561191f57815161190688826118a9565b9750611911836118c1565b9250506001810190506118f2565b5085935050505092915050565b6000602082019050818103600083015261194681846118ce565b905092915050565b7f4e487b7100000000000000000000000000000000000000000000000000000000600052602260045260246000fd5b6000600282049050600182168061199557607f821691505b6020821081036119a8576119a761194e565b5b50919050565b7f4e487b7100000000000000000000000000000000000000000000000000000000600052602160045260246000fd5b600a81106119ee576119ed6119ae565b5b50565b60008190506119ff826119dd565b919050565b6000611a0f826119f1565b9050919050565b611a1f81611a04565b82525050565b6000602082019050611a3a6000830184611a16565b92915050565b600081519050611a4f816112ec565b92915050565b600060208284031215611a6b57611a6a6112d8565b5b6000611a7984828501611a40565b91505092915050565b7f4e487b7100000000000000000000000000000000000000000000000000000000600052601160045260246000fd5b6000611abc826112e2565b9150611ac7836112e2565b9250828201905080821115611adf57611ade611a82565b5b92915050565b60008190508160005260206000209050919050565b60006020601f8301049050919050565b600082821b905092915050565b600060088302611b477fffffffffffffffffffffffffffffffffffffffffffffffffffffffffffffffff82611b0a565b611b518683611b0a565b95508019841693508086168417925050509392505050565b6000819050919050565b6000611b8e611b89611b84846112e2565b611b69565b6112e2565b9050919050565b6000819050919050565b611ba883611b73565b611bbc611bb482611b95565b848454611b17565b825550505050565b600090565b611bd1611bc4565b611bdc818484611b9f565b505050565b5b81811015611c0057611bf5600082611bc9565b600181019050611be2565b5050565b601f821115611c4557611c1681611ae5565b611c1f84611afa565b81016020851015611c2e578190505b611c42611c3a85611afa565b830182611be1565b50505b505050565b600082821c905092915050565b6000611c6860001984600802611c4a565b1980831691505092915050565b6000611c818383611c57565b9150826002028217905092915050565b611c9a82611437565b67ffffffffffffffff811115611cb357611cb2611524565b5b611cbd825461197d565b611cc8828285611c04565b600060209050601f831160018114611cfb5760008415611ce9578287015190505b611cf38582611c75565b865550611d5b565b601f198416611d0986611ae5565b60005b82811015611d3157848901518255600182019150602085019450602081019050611d0c565b86831015611d4e5784890151611d4a601f891682611c57565b8355505b6001600288020188555050505b505050505050565b6000604082019050611d786000830185611377565b611d856020830184611a16565b9392505050565b6000604082019050611da16000830185611a16565b611dae6020830184611377565b9392505050565b60008115159050919050565b611dca81611db5565b8114611dd557600080fd5b50565b600081519050611de781611dc1565b92915050565b600060208284031215611e0357611e026112d8565b5b6000611e1184828501611dd8565b91505092915050565b7f4f6e6c7920737570706f72746572730000000000000000000000000000000000600082015250565b6000611e50600f83611442565b9150611e5b82611e1a565b602082019050919050565b60006020820190508181036000830152611e7f81611e43565b9050919050565b7f416d6f756e7420696e76616c6964000000000000000000000000000000000000600082015250565b6000611ebc600e83611442565b9150611ec782611e86565b602082019050919050565b60006020820190508181036000830152611eeb81611eaf565b9050919050565b600080fd5b600080fd5b600081519050611f0b816113cb565b92915050565b6000611f24611f1f8461159f565b611584565b905082815260208101848484011115611f4057611f3f61151f565b5b611f4b848285611453565b509392505050565b600082601f830112611f6857611f6761151a565b5b8151611f78848260208601611f11565b91505092915050565b600060c08284031215611f9757611f96611ef2565b5b611fa160c0611584565b90506000611fb184828501611a40565b6000830152506020611fc584828501611efc565b602083015250604082015167ffffffffffffffff811115611fe957611fe8611ef7565b5b611ff584828501611f53565b604083015250606082015167ffffffffffffffff81111561201957612018611ef7565b5b61202584828501611f53565b606083015250608082015167ffffffffffffffff81111561204957612048611ef7565b5b61205584828501611f53565b60808301525060a061206984828501611a40565b60a08301525092915050565b60006020828403121561208b5761208a6112d8565b5b600082015167ffffffffffffffff8111156120a9576120a86112dd565b5b6120b584828501611f81565b91505092915050565b7f43616c63756c61746f72206974656d20646f6573206e6f742065786973740000600082015250565b60006120f4601e83611442565b91506120ff826120be565b602082019050919050565b60006020820190508181036000830152612123816120e7565b9050919050565b6000612135826112e2565b91507fffffffffffffffffffffffffffffffffffffffffffffffffffffffffffffffff820361216757612166611a82565b5b600182019050919050565b600a811061217f57600080fd5b50565b60008151905061219181612172565b92915050565b6000608082840312156121ad576121ac611ef2565b5b6121b76080611584565b905060006121c784828501611efc565b60008301525060206121db84828501611efc565b60208301525060406121ef84828501612182565b604083015250606061220384828501611a40565b60608301525092915050565b600060808284031215612225576122246112d8565b5b600061223384828501612197565b91505092915050565b60006080820190506122516000830187611377565b61225e6020830186611377565b61226b60408301856113a1565b61227860608301846113a1565b95945050505050565b600061228c826112e2565b9150612297836112e2565b92508282026122a5816112e2565b915082820484148315176122bc576122bb611a82565b5b5092915050565b7f4e487b7100000000000000000000000000000000000000000000000000000000600052601260045260246000fd5b60006122fd826112e2565b9150612308836112e2565b925082612318576123176122c3565b5b828204905092915050565b600061232e826112e2565b9150612339836112e2565b925082820390508181111561235157612350611a82565b5b9291505056fea2646970667358221220e031b87bcf50ad189d7822ee3e03b73f5506325e9a3020f54c3ad2eee3ff622a64736f6c634300081b0033",
  "linkReferences": {},
  "deployedLinkReferences": {}
}