{
  "_format": "hh-sol-artifact-1",
  "contractName": "ValidationRules",
  "sourceName": "contracts/ValidationRules.sol",
  "abi": [
    {
      "inputs": [
        {
          "internalType": "uint256",
          "name": "timeBetweenVotes_",
          "type": "uint256"
        }
      ],
      "stateMutability": "nonpayable",
      "type": "constructor"
    },
    {
      "inputs": [
        {
          "internalType": "address",
          "name": "owner",
          "type": "address"
        }
      ],
      "name": "OwnableInvalidOwner",
      "type": "error"
    },
    {
      "inputs": [
        {
          "internalType": "address",
          "name": "account",
          "type": "address"
        }
      ],
      "name": "OwnableUnauthorizedAccount",
      "type": "error"
    },
    {
      "inputs": [],
      "name": "ReentrancyGuardReentrantCall",
      "type": "error"
    },
    {
      "anonymous": false,
      "inputs": [
        {
          "indexed": true,
          "internalType": "address",
          "name": "previousOwner",
          "type": "address"
        },
        {
          "indexed": true,
          "internalType": "address",
          "name": "newOwner",
          "type": "address"
        }
      ],
      "name": "OwnershipTransferred",
      "type": "event"
    },
    {
      "anonymous": false,
      "inputs": [
        {
          "indexed": true,
          "internalType": "address",
          "name": "_validatorAddress",
          "type": "address"
        },
        {
          "indexed": true,
          "internalType": "address",
          "name": "_userAddress",
          "type": "address"
        },
        {
          "indexed": false,
          "internalType": "string",
          "name": "_justification",
          "type": "string"
        }
      ],
      "name": "UserValidation",
      "type": "event"
    },
    {
      "inputs": [],
      "name": "activistRules",
      "outputs": [
        {
          "internalType": "contract IActivistRules",
          "name": "",
          "type": "address"
        }
      ],
      "stateMutability": "view",
      "type": "function"
    },
    {
      "inputs": [
        {
          "internalType": "address",
          "name": "userAddress",
          "type": "address"
        },
        {
          "internalType": "string",
          "name": "justification",
          "type": "string"
        }
      ],
      "name": "addUserValidation",
      "outputs": [],
      "stateMutability": "nonpayable",
      "type": "function"
    },
    {
      "inputs": [
        {
          "internalType": "address",
          "name": "",
          "type": "address"
        }
      ],
      "name": "allowedCallers",
      "outputs": [
        {
          "internalType": "bool",
          "name": "",
          "type": "bool"
        }
      ],
      "stateMutability": "view",
      "type": "function"
    },
    {
      "inputs": [],
      "name": "communityRules",
      "outputs": [
        {
          "internalType": "contract ICommunityRules",
          "name": "",
          "type": "address"
        }
      ],
      "stateMutability": "view",
      "type": "function"
    },
    {
      "inputs": [],
      "name": "contributorRules",
      "outputs": [
        {
          "internalType": "contract IContributorRules",
          "name": "",
          "type": "address"
        }
      ],
      "stateMutability": "view",
      "type": "function"
    },
    {
      "inputs": [],
      "name": "developerRules",
      "outputs": [
        {
          "internalType": "contract IDeveloperRules",
          "name": "",
          "type": "address"
        }
      ],
      "stateMutability": "view",
      "type": "function"
    },
    {
      "inputs": [
        {
          "internalType": "address",
          "name": "userAddress",
          "type": "address"
        },
        {
          "internalType": "uint256",
          "name": "currentEra",
          "type": "uint256"
        }
      ],
      "name": "getUserValidations",
      "outputs": [
        {
          "internalType": "uint256",
          "name": "",
          "type": "uint256"
        }
      ],
      "stateMutability": "view",
      "type": "function"
    },
    {
      "inputs": [
        {
          "internalType": "address",
          "name": "",
          "type": "address"
        }
      ],
      "name": "hunterPools",
      "outputs": [
        {
          "internalType": "uint256",
          "name": "level",
          "type": "uint256"
        },
        {
          "internalType": "uint256",
          "name": "currentEra",
          "type": "uint256"
        }
      ],
      "stateMutability": "view",
      "type": "function"
    },
    {
      "inputs": [
        {
          "internalType": "address",
          "name": "",
          "type": "address"
        },
        {
          "internalType": "uint256",
          "name": "",
          "type": "uint256"
        }
      ],
      "name": "hunterVoter",
      "outputs": [
        {
          "internalType": "address",
          "name": "",
          "type": "address"
        }
      ],
      "stateMutability": "view",
      "type": "function"
    },
    {
      "inputs": [],
      "name": "inspectorRules",
      "outputs": [
        {
          "internalType": "contract IInspectorRules",
          "name": "",
          "type": "address"
        }
      ],
      "stateMutability": "view",
      "type": "function"
    },
    {
      "inputs": [
        {
          "internalType": "address",
          "name": "caller",
          "type": "address"
        }
      ],
      "name": "isAllowedCaller",
      "outputs": [
        {
          "internalType": "bool",
          "name": "",
          "type": "bool"
        }
      ],
      "stateMutability": "view",
      "type": "function"
    },
    {
      "inputs": [
        {
          "internalType": "address",
          "name": "allowed",
          "type": "address"
        }
      ],
      "name": "newAllowedCaller",
      "outputs": [],
      "stateMutability": "nonpayable",
      "type": "function"
    },
    {
      "inputs": [],
      "name": "owner",
      "outputs": [
        {
          "internalType": "address",
          "name": "",
          "type": "address"
        }
      ],
      "stateMutability": "view",
      "type": "function"
    },
    {
      "inputs": [],
      "name": "regeneratorRules",
      "outputs": [
        {
          "internalType": "contract IRegeneratorRules",
          "name": "",
          "type": "address"
        }
      ],
      "stateMutability": "view",
      "type": "function"
    },
    {
      "inputs": [],
      "name": "renounceOwnership",
      "outputs": [],
      "stateMutability": "nonpayable",
      "type": "function"
    },
    {
      "inputs": [],
      "name": "researcherRules",
      "outputs": [
        {
          "internalType": "contract IResearcherRules",
          "name": "",
          "type": "address"
        }
      ],
      "stateMutability": "view",
      "type": "function"
    },
    {
      "inputs": [
        {
          "components": [
            {
              "internalType": "address",
              "name": "communityRulesAddress",
              "type": "address"
            },
            {
              "internalType": "address",
              "name": "regeneratorRulesAddress",
              "type": "address"
            },
            {
              "internalType": "address",
              "name": "inspectorRulesAddress",
              "type": "address"
            },
            {
              "internalType": "address",
              "name": "developerRulesAddress",
              "type": "address"
            },
            {
              "internalType": "address",
              "name": "researcherRulesAddress",
              "type": "address"
            },
            {
              "internalType": "address",
              "name": "contributorRulesAddress",
              "type": "address"
            },
            {
              "internalType": "address",
              "name": "activistRulesAddress",
              "type": "address"
            },
            {
              "internalType": "address",
              "name": "voteRulesAddress",
              "type": "address"
            },
            {
              "internalType": "address",
              "name": "validationPoolAddress",
              "type": "address"
            }
          ],
          "internalType": "struct ContractsDependency",
          "name": "contractDependency",
          "type": "tuple"
        }
      ],
      "name": "setContractInterfaces",
      "outputs": [],
      "stateMutability": "nonpayable",
      "type": "function"
    },
    {
      "inputs": [],
      "name": "timeBetweenVotes",
      "outputs": [
        {
          "internalType": "uint256",
          "name": "",
          "type": "uint256"
        }
      ],
      "stateMutability": "view",
      "type": "function"
    },
    {
      "inputs": [
        {
          "internalType": "address",
          "name": "newOwner",
          "type": "address"
        }
      ],
      "name": "transferOwnership",
      "outputs": [],
      "stateMutability": "nonpayable",
      "type": "function"
    },
    {
      "inputs": [
        {
          "internalType": "address",
          "name": "validatorAddress",
          "type": "address"
        }
      ],
      "name": "updateValidatorLastVoteBlock",
      "outputs": [],
      "stateMutability": "nonpayable",
      "type": "function"
    },
    {
      "inputs": [
        {
          "internalType": "address",
          "name": "",
          "type": "address"
        },
        {
          "internalType": "uint256",
          "name": "",
          "type": "uint256"
        }
      ],
      "name": "userValidations",
      "outputs": [
        {
          "internalType": "uint256",
          "name": "",
          "type": "uint256"
        }
      ],
      "stateMutability": "view",
      "type": "function"
    },
    {
      "inputs": [],
      "name": "validationPool",
      "outputs": [
        {
          "internalType": "contract IValidationPool",
          "name": "",
          "type": "address"
        }
      ],
      "stateMutability": "view",
      "type": "function"
    },
    {
      "inputs": [
        {
          "internalType": "address",
          "name": "",
          "type": "address"
        }
      ],
      "name": "validatorLastVoteAt",
      "outputs": [
        {
          "internalType": "uint256",
          "name": "",
          "type": "uint256"
        }
      ],
      "stateMutability": "view",
      "type": "function"
    },
    {
      "inputs": [],
      "name": "voteRules",
      "outputs": [
        {
          "internalType": "contract IVoteRules",
          "name": "",
          "type": "address"
        }
      ],
      "stateMutability": "view",
      "type": "function"
    },
    {
      "inputs": [],
      "name": "votesToInvalidate",
      "outputs": [
        {
          "internalType": "uint256",
          "name": "",
          "type": "uint256"
        }
      ],
      "stateMutability": "view",
      "type": "function"
    },
    {
      "inputs": [
        {
          "internalType": "address",
          "name": "validatorAddress",
          "type": "address"
        }
      ],
      "name": "waitedTimeBetweenVotes",
      "outputs": [
        {
          "internalType": "bool",
          "name": "",
          "type": "bool"
        }
      ],
      "stateMutability": "view",
      "type": "function"
    },
    {
      "inputs": [],
      "name": "withdraw",
      "outputs": [],
      "stateMutability": "nonpayable",
      "type": "function"
    }
  ],
  "bytecode": "0x60a060405234801561001057600080fd5b506040516121f73803806121f783398101604081905261002f916100bc565b338061005557604051631e4fbdf760e01b81526000600482015260240160405180910390fd5b61005e8161006c565b5060016002556080526100d5565b600080546001600160a01b038381166001600160a01b0319831681178455604051919092169283917f8be0079c531659141344cd1fd0a4f28419497f9722a3daafe3b4186f6b6457e09190a35050565b6000602082840312156100ce57600080fd5b5051919050565b6080516121006100f7600039600081816101b3015261049401526121006000f3fe608060405234801561001057600080fd5b50600436106101a95760003560e01c80638da5cb5b116100f9578063ddb494f711610097578063f2fde38b11610071578063f2fde38b14610429578063f873fe541461043c578063f9e056901461044f578063fc533ca91461046257600080fd5b8063ddb494f7146103cf578063e0d56bde14610403578063eb48556b1461041657600080fd5b8063a6801258116100d3578063a68012581461035d578063bdac344f14610389578063c6c9b9b4146103a9578063ce59654a146103bc57600080fd5b80638da5cb5b146103265780638f93716f146103375780639b7242e01461034a57600080fd5b8063575a3c3511610166578063715018a611610140578063715018a6146102d55780637591a904146102dd5780637b334154146102f0578063859b12f31461031357600080fd5b8063575a3c35146102a757806364bbc515146102ba57806369bf81c3146102cd57600080fd5b806321e3c5bb146101ae5780632c885cfd146101e8578063361119ac146102135780633ccfd60b1461023657806344fdca101461024057806355e7cfe51461027c575b600080fd5b6101d57f000000000000000000000000000000000000000000000000000000000000000081565b6040519081526020015b60405180910390f35b6101d56101f6366004611a0d565b600360209081526000928352604080842090915290825290205481565b610226610221366004611a39565b610475565b60405190151581526020016101df565b61023e6104cf565b005b61026761024e366004611a39565b6007602052600090815260409020805460019091015482565b604080519283526020830191909152016101df565b600e5461028f906001600160a01b031681565b6040516001600160a01b0390911681526020016101df565b61023e6102b5366004611aeb565b61074f565b600a5461028f906001600160a01b031681565b6101d5610819565b61023e6108fd565b600b5461028f906001600160a01b031681565b6102266102fe366004611a39565b60016020526000908152604090205460ff1681565b600c5461028f906001600160a01b031681565b6000546001600160a01b031661028f565b61023e610345366004611a39565b61090f565b60105461028f906001600160a01b031681565b61022661036b366004611a39565b6001600160a01b031660009081526001602052604090205460ff1690565b6101d5610397366004611a39565b60056020526000908152604090205481565b6101d56103b7366004611a0d565b61093e565b60085461028f906001600160a01b031681565b61028f6103dd366004611a0d565b60066020908152600092835260408084209091529082529020546001600160a01b031681565b600f5461028f906001600160a01b031681565b61023e610424366004611a39565b610969565b61023e610437366004611a39565b6109d9565b600d5461028f906001600160a01b031681565b61023e61045d366004611bcc565b610a17565b60095461028f906001600160a01b031681565b6001600160a01b038116600090815260056020526040812054816104b97f000000000000000000000000000000000000000000000000000000000000000083611c75565b4311905080806104c7575081155b949350505050565b6104d76110e8565b60085460405163a7771ee360e01b81523360048201526001600160a01b039091169063a7771ee390602401602060405180830381865afa15801561051f573d6000803e3d6000fd5b505050506040513d601f19601f820116820180604052508101906105439190611c98565b61058a5760405162461bcd60e51b8152602060048201526013602482015272506f6f6c206f6e6c7920746f20766f7465727360681b60448201526064015b60405180910390fd5b336000908152600560205260409020546105e65760405162461bcd60e51b815260206004820152601860248201527f4e6f7420656c696769626c6520746f20776974686472617700000000000000006044820152606401610581565b336000908152600760205260409081902060018101546010549251637df42f8360e11b815260048101829052919290916001600160a01b039091169063fbe85f0690602401602060405180830381865afa158015610648573d6000803e3d6000fd5b505050506040513d601f19601f8201168201806040525081019061066c9190611c98565b6106c65760405162461bcd60e51b815260206004820152602560248201527f4e6f7420656c696769626c6520746f20776974686472617720666f7220746869604482015264732065726160d81b6064820152608401610581565b6001820180549060006106d883611cb3565b909155505060105460405163f3fef3a360e01b8152336004820152602481018390526001600160a01b039091169063f3fef3a390604401600060405180830381600087803b15801561072957600080fd5b505af115801561073d573d6000803e3d6000fd5b50505050505061074d6001600255565b565b610757611110565b8051600880546001600160a01b03199081166001600160a01b039384161790915560208301516009805483169184169190911790556040830151600a805483169184169190911790556060830151600b805483169184169190911790556080830151600c8054831691841691909117905560a0830151600d8054831691841691909117905560c0830151600e8054831691841691909117905560e0830151600f8054831691841691909117905561010090920151601080549093169116179055565b600080600860009054906101000a90046001600160a01b03166001600160a01b03166398c079386040518163ffffffff1660e01b8152600401602060405180830381865afa15801561086f573d6000803e3d6000fd5b505050506040513d601f19601f820116820180604052508101906108939190611ccc565b9050600c8110156108a657506002919050565b60a78110156108b757506005919050565b600060646108c6600384611ce5565b6108d09190611cfc565b905060006108df826001611c75565b90506101f48111156108f657506101f49392505050565b9392505050565b610905611110565b61074d600061113d565b610917611110565b6001600160a01b03166000908152600160208190526040909120805460ff19169091179055565b6001600160a01b03821660009081526003602090815260408083208484529091529020545b92915050565b3360009081526001602052604090205460ff166109bd5760405162461bcd60e51b81526020600482015260126024820152712737ba1030b63637bbb2b21031b0b63632b960711b6044820152606401610581565b6001600160a01b03166000908152600560205260409020439055565b6109e1611110565b6001600160a01b038116610a0b57604051631e4fbdf760e01b815260006004820152602401610581565b610a148161113d565b50565b610a1f6110e8565b805161012c1015610a635760405162461bcd60e51b815260206004820152600e60248201526d4d6178206368617261637465727360901b6044820152606401610581565b600f546040516356fd539760e11b81523360048201526001600160a01b039091169063adfaa72e90602401602060405180830381865afa158015610aab573d6000803e3d6000fd5b505050506040513d601f19601f82011682018060405250810190610acf9190611c98565b610b095760405162461bcd60e51b815260206004820152600b60248201526a2737ba1030903b37ba32b960a91b6044820152606401610581565b600854604051631292f8c160e31b81526001600160a01b0390911690639497c60890610b3c906000908690600401611d34565b602060405180830381865afa158015610b59573d6000803e3d6000fd5b505050506040513d601f19601f82011682018060405250810190610b7d9190611c98565b15610bc05760405162461bcd60e51b8152602060048201526013602482015272155cd95c881b9bdd081c9959da5cdd195c9959606a1b6044820152606401610581565b600854604051631292f8c160e31b81526001600160a01b0390911690639497c60890610bf3906007908690600401611d34565b602060405180830381865afa158015610c10573d6000803e3d6000fd5b505050506040513d601f19601f82011682018060405250810190610c349190611c98565b15610c815760405162461bcd60e51b815260206004820181905260248201527f537570706f727465722076616c69646174696f6e206e6f7420616c6c6f7765646044820152606401610581565b60085460405163e838dfbb60e01b81526001600160a01b0384811660048301529091169063e838dfbb90602401602060405180830381865afa158015610ccb573d6000803e3d6000fd5b505050506040513d601f19601f82011682018060405250810190610cef9190611c98565b15610d325760405162461bcd60e51b8152602060048201526013602482015272155cd95c88185b1c9958591e4819195b9a5959606a1b6044820152606401610581565b610d3b8261118d565b610d9b5760405162461bcd60e51b815260206004820152602b60248201527f526567656e657261746f722068617320726561636865642076616c696461746960448201526a6f6e20696d6d756e69747960a81b6064820152608401610581565b6000610da68361128f565b3360009081526004602090815260408083206001600160a01b0388168452825280832084845290915290205490915060ff1615610e155760405162461bcd60e51b815260206004820152600d60248201526c105b1c9958591e481d9bdd1959609a1b6044820152606401610581565b610e1e33610475565b610e625760405162461bcd60e51b8152602060048201526015602482015274576169742074696d654265747765656e566f74657360581b6044820152606401610581565b336000908152600560205260408120549003610f0357601060009054906101000a90046001600160a01b03166001600160a01b031663ed0df79e6040518163ffffffff1660e01b8152600401602060405180830381865afa158015610ecb573d6000803e3d6000fd5b505050506040513d601f19601f82011682018060405250810190610eef9190611ccc565b336000908152600760205260409020600101555b6001600160a01b03831660009081526003602090815260408083208484529091528120549003610f61576001600160a01b0383166000908152600660209081526040808320848452909152902080546001600160a01b031916331790555b3360008181526004602090815260408083206001600160a01b0388168085529083528184208685528352818420805460ff1916600117905593835260058252808320439055928252600381528282208483529052908120805491610fc483611cb3565b90915550506001600160a01b038316600090815260036020908152604080832084845290915281205490610ff6610819565b905080821061108c57611008856115b5565b6010546001600160a01b0386811660008181526006602090815260408083208984529091529081902054905162d1490760e41b815290831660048201526024810191909152911690630d14907090604401600060405180830381600087803b15801561107357600080fd5b505af1158015611087573d6000803e3d6000fd5b505050505b846001600160a01b0316336001600160a01b03167f8cb53ba58e6b58f4456b623f61a5b8776a23ac36733b731d50fd9e40ee39c0fc866040516110cf9190611d92565b60405180910390a35050506110e46001600255565b5050565b600280540361110a57604051633ee5aeb560e01b815260040160405180910390fd5b60028055565b6000546001600160a01b0316331461074d5760405163118cdaa760e01b8152336004820152602401610581565b600080546001600160a01b038381166001600160a01b0319831681178455604051919092169283917f8be0079c531659141344cd1fd0a4f28419497f9722a3daafe3b4186f6b6457e09190a35050565b600854604051631292f8c160e31b81526000916001600160a01b031690639497c608906111c1906001908690600401611d34565b602060405180830381865afa1580156111de573d6000803e3d6000fd5b505050506040513d601f19601f820116820180604052508101906112029190611c98565b61120e57506001919050565b60095460405163065ab21b60e41b81526001600160a01b03848116600483015260009216906365ab21b090602401600060405180830381865afa158015611259573d6000803e3d6000fd5b505050506040513d6000823e601f3d908101601f191682016040526112819190810190611eda565b60c001516006119392505050565b600854604051636f77926b60e01b81526001600160a01b0383811660048301526000928392911690636f77926b90602401602060405180830381865afa1580156112dd573d6000803e3d6000fd5b505050506040513d601f19601f820116820180604052508101906113019190612031565b9050600681600781111561131757611317611d1e565b0361139357600e60009054906101000a90046001600160a01b03166001600160a01b031663e05cf1556040518163ffffffff1660e01b8152600401602060405180830381865afa15801561136f573d6000803e3d6000fd5b505050506040513d601f19601f820116820180604052508101906108f69190611ccc565b60058160078111156113a7576113a7611d1e565b036113ff57600d60009054906101000a90046001600160a01b03166001600160a01b031663e05cf1556040518163ffffffff1660e01b8152600401602060405180830381865afa15801561136f573d6000803e3d6000fd5b600481600781111561141357611413611d1e565b0361146b57600b60009054906101000a90046001600160a01b03166001600160a01b031663e05cf1556040518163ffffffff1660e01b8152600401602060405180830381865afa15801561136f573d6000803e3d6000fd5b600281600781111561147f5761147f611d1e565b036114d757600a60009054906101000a90046001600160a01b03166001600160a01b031663e05cf1556040518163ffffffff1660e01b8152600401602060405180830381865afa15801561136f573d6000803e3d6000fd5b60038160078111156114eb576114eb611d1e565b0361154357600c60009054906101000a90046001600160a01b03166001600160a01b031663e05cf1556040518163ffffffff1660e01b8152600401602060405180830381865afa15801561136f573d6000803e3d6000fd5b600181600781111561155757611557611d1e565b036115af57600960009054906101000a90046001600160a01b03166001600160a01b031663e05cf1556040518163ffffffff1660e01b8152600401602060405180830381865afa15801561136f573d6000803e3d6000fd5b50919050565b600854604051636f77926b60e01b81526001600160a01b0383811660048301526000921690636f77926b90602401602060405180830381865afa158015611600573d6000803e3d6000fd5b505050506040513d601f19601f820116820180604052508101906116249190612031565b60085460405163e838dfbb60e01b81526001600160a01b03858116600483015292935091169063e838dfbb90602401602060405180830381865afa158015611670573d6000803e3d6000fd5b505050506040513d601f19601f820116820180604052508101906116949190611c98565b1561169d575050565b600854604051634acf78e960e11b81526001600160a01b0384811660048301529091169063959ef1d290602401600060405180830381600087803b1580156116e457600080fd5b505af11580156116f8573d6000803e3d6000fd5b505060085460405163158bdc5f60e11b81526001600160a01b038681166004830152600094509091169150632b17b8be90602401608060405180830381865afa158015611749573d6000803e3d6000fd5b505050506040513d601f19601f8201168201806040525081019061176d919061204c565b60208101519091506001600160a01b0316156117e7576008546020820151604051636101bf2160e01b81526001600160a01b039182166004820152911690636101bf2190602401600060405180830381600087803b1580156117ce57600080fd5b505af11580156117e2573d6000803e3d6000fd5b505050505b60018260078111156117fb576117fb611d1e565b0361186557600954604051637c9787c760e11b81526001600160a01b0385811660048301529091169063f92f0f8e906024015b600060405180830381600087803b15801561184857600080fd5b505af115801561185c573d6000803e3d6000fd5b50505050505050565b600282600781111561187957611879611d1e565b036118b757600a546040516310c791e560e11b81526001600160a01b038581166004830152600160248301529091169063218f23ca9060440161182e565b60048260078111156118cb576118cb611d1e565b0361190257600b54604051637c9787c760e11b81526001600160a01b0385811660048301529091169063f92f0f8e9060240161182e565b600382600781111561191657611916611d1e565b0361194d57600c54604051637c9787c760e11b81526001600160a01b0385811660048301529091169063f92f0f8e9060240161182e565b600582600781111561196157611961611d1e565b0361199857600d54604051637c9787c760e11b81526001600160a01b0385811660048301529091169063f92f0f8e9060240161182e565b60068260078111156119ac576119ac611d1e565b036119e357600e54604051637c9787c760e11b81526001600160a01b0385811660048301529091169063f92f0f8e9060240161182e565b505050565b6001600160a01b0381168114610a1457600080fd5b8035611a08816119e8565b919050565b60008060408385031215611a2057600080fd5b8235611a2b816119e8565b946020939093013593505050565b600060208284031215611a4b57600080fd5b81356108f6816119e8565b634e487b7160e01b600052604160045260246000fd5b604051610120810167ffffffffffffffff81118282101715611a9057611a90611a56565b60405290565b6040516101a0810167ffffffffffffffff81118282101715611a9057611a90611a56565b604051601f8201601f1916810167ffffffffffffffff81118282101715611ae357611ae3611a56565b604052919050565b6000610120828403128015611aff57600080fd5b50611b08611a6c565b611b11836119fd565b8152611b1f602084016119fd565b6020820152611b30604084016119fd565b6040820152611b41606084016119fd565b6060820152611b52608084016119fd565b6080820152611b6360a084016119fd565b60a0820152611b7460c084016119fd565b60c0820152611b8560e084016119fd565b60e0820152611b9761010084016119fd565b6101008201529392505050565b600067ffffffffffffffff821115611bbe57611bbe611a56565b50601f01601f191660200190565b60008060408385031215611bdf57600080fd5b8235611bea816119e8565b9150602083013567ffffffffffffffff811115611c0657600080fd5b8301601f81018513611c1757600080fd5b8035611c2a611c2582611ba4565b611aba565b818152866020838501011115611c3f57600080fd5b816020840160208301376000602083830101528093505050509250929050565b634e487b7160e01b600052601160045260246000fd5b8082018082111561096357610963611c5f565b80518015158114611a0857600080fd5b600060208284031215611caa57600080fd5b6108f682611c88565b600060018201611cc557611cc5611c5f565b5060010190565b600060208284031215611cde57600080fd5b5051919050565b808202811582820484141761096357610963611c5f565b600082611d1957634e487b7160e01b600052601260045260246000fd5b500490565b634e487b7160e01b600052602160045260246000fd5b6040810160088410611d5657634e487b7160e01b600052602160045260246000fd5b9281526001600160a01b039190911660209091015290565b60005b83811015611d89578181015183820152602001611d71565b50506000910152565b6020815260008251806020840152611db1816040850160208701611d6e565b601f01601f19169190910160400192915050565b805167ffffffffffffffff81168114611a0857600080fd5b8051611a08816119e8565b600082601f830112611df957600080fd5b8151611e07611c2582611ba4565b818152846020838601011115611e1c57600080fd5b6104c7826020830160208701611d6e565b805163ffffffff81168114611a0857600080fd5b600060208284031215611e5357600080fd5b6040516020810167ffffffffffffffff81118282101715611e7657611e76611a56565b6040529151825250919050565b600060408284031215611e9557600080fd5b6040805190810167ffffffffffffffff81118282101715611eb857611eb8611a56565b604052905080611ec783611c88565b8152602092830151920191909152919050565b600060208284031215611eec57600080fd5b815167ffffffffffffffff811115611f0357600080fd5b82016101c08185031215611f1657600080fd5b611f1e611a96565b611f2782611dc5565b8152611f3560208301611ddd565b6020820152604082015167ffffffffffffffff811115611f5457600080fd5b611f6086828501611de8565b604083015250606082015167ffffffffffffffff811115611f8057600080fd5b611f8c86828501611de8565b606083015250611f9e60808301611e2d565b6080820152611faf60a08301611c88565b60a082015260c0828101519082015260e08083015190820152611fd6856101008401611e41565b610100820152611fea856101208401611e83565b61012082015261016082810151610140830152610180830151908201526120146101a08301611c88565b610180820152949350505050565b805160088110611a0857600080fd5b60006020828403121561204357600080fd5b6108f682612022565b6000608082840312801561205f57600080fd5b506040516080810167ffffffffffffffff8111828210171561208357612083611a56565b6040528251612091816119e8565b815260208301516120a1816119e8565b60208201526120b260408401612022565b6040820152606092830151928101929092525091905056fea2646970667358221220ce77f6333c1588fe1530e0d6034ce9253c1b6085c38ec1ca9e9add3f9a9033d264736f6c634300081b0033",
  "linkReferences": {},
  "deployedLinkReferences": {}
}