{
  "_format": "hh-sol-artifact-1",
  "contractName": "ValidationRules",
  "sourceName": "contracts/ValidationRules.sol",
  "abi": [
    {
      "inputs": [
        {
          "internalType": "uint256",
          "name": "timeBetweenVotes_",
          "type": "uint256"
        }
      ],
      "stateMutability": "nonpayable",
      "type": "constructor"
    },
    {
      "inputs": [
        {
          "internalType": "address",
          "name": "owner",
          "type": "address"
        }
      ],
      "name": "OwnableInvalidOwner",
      "type": "error"
    },
    {
      "inputs": [
        {
          "internalType": "address",
          "name": "account",
          "type": "address"
        }
      ],
      "name": "OwnableUnauthorizedAccount",
      "type": "error"
    },
    {
      "inputs": [],
      "name": "ReentrancyGuardReentrantCall",
      "type": "error"
    },
    {
      "anonymous": false,
      "inputs": [
        {
          "indexed": true,
          "internalType": "address",
          "name": "previousOwner",
          "type": "address"
        },
        {
          "indexed": true,
          "internalType": "address",
          "name": "newOwner",
          "type": "address"
        }
      ],
      "name": "OwnershipTransferred",
      "type": "event"
    },
    {
      "anonymous": false,
      "inputs": [
        {
          "indexed": true,
          "internalType": "address",
          "name": "_validatorAddress",
          "type": "address"
        },
        {
          "indexed": true,
          "internalType": "address",
          "name": "_userAddress",
          "type": "address"
        },
        {
          "indexed": false,
          "internalType": "string",
          "name": "_justification",
          "type": "string"
        }
      ],
      "name": "UserValidation",
      "type": "event"
    },
    {
      "inputs": [],
      "name": "activistRules",
      "outputs": [
        {
          "internalType": "contract IActivistRules",
          "name": "",
          "type": "address"
        }
      ],
      "stateMutability": "view",
      "type": "function"
    },
    {
      "inputs": [
        {
          "internalType": "address",
          "name": "userAddress",
          "type": "address"
        },
        {
          "internalType": "string",
          "name": "justification",
          "type": "string"
        }
      ],
      "name": "addUserValidation",
      "outputs": [],
      "stateMutability": "nonpayable",
      "type": "function"
    },
    {
      "inputs": [
        {
          "internalType": "address",
          "name": "",
          "type": "address"
        }
      ],
      "name": "allowedCallers",
      "outputs": [
        {
          "internalType": "bool",
          "name": "",
          "type": "bool"
        }
      ],
      "stateMutability": "view",
      "type": "function"
    },
    {
      "inputs": [],
      "name": "communityRules",
      "outputs": [
        {
          "internalType": "contract ICommunityRules",
          "name": "",
          "type": "address"
        }
      ],
      "stateMutability": "view",
      "type": "function"
    },
    {
      "inputs": [],
      "name": "contributorRules",
      "outputs": [
        {
          "internalType": "contract IContributorRules",
          "name": "",
          "type": "address"
        }
      ],
      "stateMutability": "view",
      "type": "function"
    },
    {
      "inputs": [],
      "name": "developerRules",
      "outputs": [
        {
          "internalType": "contract IDeveloperRules",
          "name": "",
          "type": "address"
        }
      ],
      "stateMutability": "view",
      "type": "function"
    },
    {
      "inputs": [
        {
          "internalType": "address",
          "name": "userAddress",
          "type": "address"
        },
        {
          "internalType": "uint256",
          "name": "currentEra",
          "type": "uint256"
        }
      ],
      "name": "getUserValidations",
      "outputs": [
        {
          "internalType": "uint256",
          "name": "",
          "type": "uint256"
        }
      ],
      "stateMutability": "view",
      "type": "function"
    },
    {
      "inputs": [],
      "name": "inspectorRules",
      "outputs": [
        {
          "internalType": "contract IInspectorRules",
          "name": "",
          "type": "address"
        }
      ],
      "stateMutability": "view",
      "type": "function"
    },
    {
      "inputs": [
        {
          "internalType": "address",
          "name": "caller",
          "type": "address"
        }
      ],
      "name": "isAllowedCaller",
      "outputs": [
        {
          "internalType": "bool",
          "name": "",
          "type": "bool"
        }
      ],
      "stateMutability": "view",
      "type": "function"
    },
    {
      "inputs": [
        {
          "internalType": "address",
          "name": "allowed",
          "type": "address"
        }
      ],
      "name": "newAllowedCaller",
      "outputs": [],
      "stateMutability": "nonpayable",
      "type": "function"
    },
    {
      "inputs": [],
      "name": "owner",
      "outputs": [
        {
          "internalType": "address",
          "name": "",
          "type": "address"
        }
      ],
      "stateMutability": "view",
      "type": "function"
    },
    {
      "inputs": [],
      "name": "regeneratorRules",
      "outputs": [
        {
          "internalType": "contract IRegeneratorRules",
          "name": "",
          "type": "address"
        }
      ],
      "stateMutability": "view",
      "type": "function"
    },
    {
      "inputs": [],
      "name": "renounceOwnership",
      "outputs": [],
      "stateMutability": "nonpayable",
      "type": "function"
    },
    {
      "inputs": [],
      "name": "researcherRules",
      "outputs": [
        {
          "internalType": "contract IResearcherRules",
          "name": "",
          "type": "address"
        }
      ],
      "stateMutability": "view",
      "type": "function"
    },
    {
      "inputs": [
        {
          "components": [
            {
              "internalType": "address",
              "name": "communityRulesAddress",
              "type": "address"
            },
            {
              "internalType": "address",
              "name": "regeneratorRulesAddress",
              "type": "address"
            },
            {
              "internalType": "address",
              "name": "inspectorRulesAddress",
              "type": "address"
            },
            {
              "internalType": "address",
              "name": "developerRulesAddress",
              "type": "address"
            },
            {
              "internalType": "address",
              "name": "researcherRulesAddress",
              "type": "address"
            },
            {
              "internalType": "address",
              "name": "contributorRulesAddress",
              "type": "address"
            },
            {
              "internalType": "address",
              "name": "activistRulesAddress",
              "type": "address"
            },
            {
              "internalType": "address",
              "name": "voteRulesAddress",
              "type": "address"
            }
          ],
          "internalType": "struct ContractsDependency",
          "name": "contractDependency",
          "type": "tuple"
        }
      ],
      "name": "setContractInterfaces",
      "outputs": [],
      "stateMutability": "nonpayable",
      "type": "function"
    },
    {
      "inputs": [],
      "name": "timeBetweenVotes",
      "outputs": [
        {
          "internalType": "uint256",
          "name": "",
          "type": "uint256"
        }
      ],
      "stateMutability": "view",
      "type": "function"
    },
    {
      "inputs": [
        {
          "internalType": "address",
          "name": "newOwner",
          "type": "address"
        }
      ],
      "name": "transferOwnership",
      "outputs": [],
      "stateMutability": "nonpayable",
      "type": "function"
    },
    {
      "inputs": [
        {
          "internalType": "address",
          "name": "validatorAddress",
          "type": "address"
        }
      ],
      "name": "updateValidatorLastVoteBlock",
      "outputs": [],
      "stateMutability": "nonpayable",
      "type": "function"
    },
    {
      "inputs": [
        {
          "internalType": "address",
          "name": "",
          "type": "address"
        },
        {
          "internalType": "uint256",
          "name": "",
          "type": "uint256"
        }
      ],
      "name": "userValidations",
      "outputs": [
        {
          "internalType": "uint256",
          "name": "",
          "type": "uint256"
        }
      ],
      "stateMutability": "view",
      "type": "function"
    },
    {
      "inputs": [
        {
          "internalType": "address",
          "name": "",
          "type": "address"
        }
      ],
      "name": "validatorLastVoteAt",
      "outputs": [
        {
          "internalType": "uint256",
          "name": "",
          "type": "uint256"
        }
      ],
      "stateMutability": "view",
      "type": "function"
    },
    {
      "inputs": [],
      "name": "voteRules",
      "outputs": [
        {
          "internalType": "contract IVoteRules",
          "name": "",
          "type": "address"
        }
      ],
      "stateMutability": "view",
      "type": "function"
    },
    {
      "inputs": [],
      "name": "votesToInvalidate",
      "outputs": [
        {
          "internalType": "uint256",
          "name": "",
          "type": "uint256"
        }
      ],
      "stateMutability": "view",
      "type": "function"
    },
    {
      "inputs": [
        {
          "internalType": "address",
          "name": "validatorAddress",
          "type": "address"
        }
      ],
      "name": "waitedTimeBetweenVotes",
      "outputs": [
        {
          "internalType": "bool",
          "name": "",
          "type": "bool"
        }
      ],
      "stateMutability": "view",
      "type": "function"
    }
  ],
  "bytecode": "0x60a060405234801561001057600080fd5b50604051611ce1380380611ce183398101604081905261002f916100bc565b338061005557604051631e4fbdf760e01b81526000600482015260240160405180910390fd5b61005e8161006c565b5060016002556080526100d5565b600080546001600160a01b038381166001600160a01b0319831681178455604051919092169283917f8be0079c531659141344cd1fd0a4f28419497f9722a3daafe3b4186f6b6457e09190a35050565b6000602082840312156100ce57600080fd5b5051919050565b608051611bea6100f76000396000818161016c01526104620152611bea6000f3fe608060405234801561001057600080fd5b506004361061014d5760003560e01c80638da5cb5b116100c3578063e0d56bde1161007c578063e0d56bde1461031c578063eb48556b1461032f578063f2fde38b14610342578063f873fe5414610355578063f9e0569014610368578063fc533ca91461037b57600080fd5b80638da5cb5b146102865780638f93716f14610297578063a6801258146102aa578063bdac344f146102d6578063c6c9b9b4146102f6578063ce59654a1461030957600080fd5b806364bbc5151161011557806364bbc5151461021a57806369bf81c31461022d578063715018a6146102355780637591a9041461023d5780637b33415414610250578063859b12f31461027357600080fd5b80631422b7831461015257806321e3c5bb146101675780632c885cfd146101a1578063361119ac146101cc57806355e7cfe5146101ef575b600080fd5b61016561016036600461159d565b61038e565b005b61018e7f000000000000000000000000000000000000000000000000000000000000000081565b6040519081526020015b60405180910390f35b61018e6101af366004611645565b600360209081526000928352604080842090915290825290205481565b6101df6101da366004611671565b610443565b6040519015158152602001610198565b600c54610202906001600160a01b031681565b6040516001600160a01b039091168152602001610198565b600854610202906001600160a01b031681565b61018e61049d565b610165610581565b600954610202906001600160a01b031681565b6101df61025e366004611671565b60016020526000908152604090205460ff1681565b600a54610202906001600160a01b031681565b6000546001600160a01b0316610202565b6101656102a5366004611671565b610595565b6101df6102b8366004611671565b6001600160a01b031660009081526001602052604090205460ff1690565b61018e6102e4366004611671565b60056020526000908152604090205481565b61018e610304366004611645565b6105c4565b600654610202906001600160a01b031681565b600d54610202906001600160a01b031681565b61016561033d366004611671565b6105ef565b610165610350366004611671565b610664565b600b54610202906001600160a01b031681565b6101656103763660046116b6565b6106a2565b600754610202906001600160a01b031681565b610396610be3565b8051600680546001600160a01b03199081166001600160a01b03938416179091556020830151600780548316918416919091179055604083015160088054831691841691909117905560608301516009805483169184169190911790556080830151600a8054831691841691909117905560a0830151600b8054831691841691909117905560c0830151600c8054831691841691909117905560e090920151600d80549093169116179055565b6001600160a01b038116600090815260056020526040812054816104877f00000000000000000000000000000000000000000000000000000000000000008361175f565b431190508080610495575081155b949350505050565b600080600660009054906101000a90046001600160a01b03166001600160a01b03166398c079386040518163ffffffff1660e01b8152600401602060405180830381865afa1580156104f3573d6000803e3d6000fd5b505050506040513d601f19601f820116820180604052508101906105179190611772565b9050600c81101561052a57506002919050565b60a781101561053b57506005919050565b6000606461054a60038461178b565b61055491906117a2565b9050600061056382600161175f565b90506101f481111561057a57506101f49392505050565b9392505050565b610589610be3565b6105936000610c10565b565b61059d610be3565b6001600160a01b03166000908152600160208190526040909120805460ff19169091179055565b6001600160a01b03821660009081526003602090815260408083208484529091529020545b92915050565b3360009081526001602052604090205460ff166106485760405162461bcd60e51b81526020600482015260126024820152712737ba1030b63637bbb2b21031b0b63632b960711b60448201526064015b60405180910390fd5b6001600160a01b03166000908152600560205260409020439055565b61066c610be3565b6001600160a01b03811661069657604051631e4fbdf760e01b81526000600482015260240161063f565b61069f81610c10565b50565b6106aa610c60565b805161012c10156106ee5760405162461bcd60e51b815260206004820152600e60248201526d4d6178206368617261637465727360901b604482015260640161063f565b600d546040516356fd539760e11b81523360048201526001600160a01b039091169063adfaa72e90602401602060405180830381865afa158015610736573d6000803e3d6000fd5b505050506040513d601f19601f8201168201806040525081019061075a91906117d4565b6107945760405162461bcd60e51b815260206004820152600b60248201526a2737ba1030903b37ba32b960a91b604482015260640161063f565b600654604051631292f8c160e31b81526001600160a01b0390911690639497c608906107c7906000908690600401611805565b602060405180830381865afa1580156107e4573d6000803e3d6000fd5b505050506040513d601f19601f8201168201806040525081019061080891906117d4565b1561084b5760405162461bcd60e51b8152602060048201526013602482015272155cd95c881b9bdd081c9959da5cdd195c9959606a1b604482015260640161063f565b600654604051631292f8c160e31b81526001600160a01b0390911690639497c6089061087e906007908690600401611805565b602060405180830381865afa15801561089b573d6000803e3d6000fd5b505050506040513d601f19601f820116820180604052508101906108bf91906117d4565b1561090c5760405162461bcd60e51b815260206004820181905260248201527f537570706f727465722076616c69646174696f6e206e6f7420616c6c6f776564604482015260640161063f565b60065460405163e838dfbb60e01b81526001600160a01b0384811660048301529091169063e838dfbb90602401602060405180830381865afa158015610956573d6000803e3d6000fd5b505050506040513d601f19601f8201168201806040525081019061097a91906117d4565b156109bd5760405162461bcd60e51b8152602060048201526013602482015272155cd95c88185b1c9958591e4819195b9a5959606a1b604482015260640161063f565b6109c682610c88565b610a265760405162461bcd60e51b815260206004820152602b60248201527f526567656e657261746f722068617320726561636865642076616c696461746960448201526a6f6e20696d6d756e69747960a81b606482015260840161063f565b6000610a3183610d8a565b3360009081526004602090815260408083206001600160a01b0388168452825280832084845290915290205490915060ff1615610aa05760405162461bcd60e51b815260206004820152600d60248201526c105b1c9958591e481d9bdd1959609a1b604482015260640161063f565b610aa933610443565b610aed5760405162461bcd60e51b8152602060048201526015602482015274576169742074696d654265747765656e566f74657360581b604482015260640161063f565b3360008181526004602090815260408083206001600160a01b0388168085529083528184208685528352818420805460ff1916600117905593835260058252808320439055928252600381528282208483529052908120805491610b508361183f565b91905055506000610b5f61049d565b6001600160a01b0385166000818152600360209081526040808320878452909152908190205490519293509133907f8cb53ba58e6b58f4456b623f61a5b8776a23ac36733b731d50fd9e40ee39c0fc90610bba90889061187c565b60405180910390a3818110610bd257610bd2856110b0565b505050610bdf6001600255565b5050565b6000546001600160a01b031633146105935760405163118cdaa760e01b815233600482015260240161063f565b600080546001600160a01b038381166001600160a01b0319831681178455604051919092169283917f8be0079c531659141344cd1fd0a4f28419497f9722a3daafe3b4186f6b6457e09190a35050565b6002805403610c8257604051633ee5aeb560e01b815260040160405180910390fd5b60028055565b600654604051631292f8c160e31b81526000916001600160a01b031690639497c60890610cbc906001908690600401611805565b602060405180830381865afa158015610cd9573d6000803e3d6000fd5b505050506040513d601f19601f82011682018060405250810190610cfd91906117d4565b610d0957506001919050565b60075460405163065ab21b60e41b81526001600160a01b03848116600483015260009216906365ab21b090602401600060405180830381865afa158015610d54573d6000803e3d6000fd5b505050506040513d6000823e601f3d908101601f19168201604052610d7c91908101906119c4565b60c001516006119392505050565b600654604051636f77926b60e01b81526001600160a01b0383811660048301526000928392911690636f77926b90602401602060405180830381865afa158015610dd8573d6000803e3d6000fd5b505050506040513d601f19601f82011682018060405250810190610dfc9190611b1b565b90506006816007811115610e1257610e126117ef565b03610e8e57600c60009054906101000a90046001600160a01b03166001600160a01b031663e05cf1556040518163ffffffff1660e01b8152600401602060405180830381865afa158015610e6a573d6000803e3d6000fd5b505050506040513d601f19601f8201168201806040525081019061057a9190611772565b6005816007811115610ea257610ea26117ef565b03610efa57600b60009054906101000a90046001600160a01b03166001600160a01b031663e05cf1556040518163ffffffff1660e01b8152600401602060405180830381865afa158015610e6a573d6000803e3d6000fd5b6004816007811115610f0e57610f0e6117ef565b03610f6657600960009054906101000a90046001600160a01b03166001600160a01b031663e05cf1556040518163ffffffff1660e01b8152600401602060405180830381865afa158015610e6a573d6000803e3d6000fd5b6002816007811115610f7a57610f7a6117ef565b03610fd257600860009054906101000a90046001600160a01b03166001600160a01b031663e05cf1556040518163ffffffff1660e01b8152600401602060405180830381865afa158015610e6a573d6000803e3d6000fd5b6003816007811115610fe657610fe66117ef565b0361103e57600a60009054906101000a90046001600160a01b03166001600160a01b031663e05cf1556040518163ffffffff1660e01b8152600401602060405180830381865afa158015610e6a573d6000803e3d6000fd5b6001816007811115611052576110526117ef565b036110aa57600760009054906101000a90046001600160a01b03166001600160a01b031663e05cf1556040518163ffffffff1660e01b8152600401602060405180830381865afa158015610e6a573d6000803e3d6000fd5b50919050565b600654604051636f77926b60e01b81526001600160a01b0383811660048301526000921690636f77926b90602401602060405180830381865afa1580156110fb573d6000803e3d6000fd5b505050506040513d601f19601f8201168201806040525081019061111f9190611b1b565b60065460405163e838dfbb60e01b81526001600160a01b03858116600483015292935091169063e838dfbb90602401602060405180830381865afa15801561116b573d6000803e3d6000fd5b505050506040513d601f19601f8201168201806040525081019061118f91906117d4565b15611198575050565b600654604051634acf78e960e11b81526001600160a01b0384811660048301529091169063959ef1d290602401600060405180830381600087803b1580156111df57600080fd5b505af11580156111f3573d6000803e3d6000fd5b505060065460405163158bdc5f60e11b81526001600160a01b038681166004830152600094509091169150632b17b8be90602401608060405180830381865afa158015611244573d6000803e3d6000fd5b505050506040513d601f19601f820116820180604052508101906112689190611b36565b60208101519091506001600160a01b0316156112e2576006546020820151604051636101bf2160e01b81526001600160a01b039182166004820152911690636101bf2190602401600060405180830381600087803b1580156112c957600080fd5b505af11580156112dd573d6000803e3d6000fd5b505050505b60018260078111156112f6576112f66117ef565b0361136057600754604051637c9787c760e11b81526001600160a01b0385811660048301529091169063f92f0f8e906024015b600060405180830381600087803b15801561134357600080fd5b505af1158015611357573d6000803e3d6000fd5b50505050505050565b6002826007811115611374576113746117ef565b036113b2576008546040516310c791e560e11b81526001600160a01b038581166004830152600160248301529091169063218f23ca90604401611329565b60048260078111156113c6576113c66117ef565b036113fd57600954604051637c9787c760e11b81526001600160a01b0385811660048301529091169063f92f0f8e90602401611329565b6003826007811115611411576114116117ef565b0361144857600a54604051637c9787c760e11b81526001600160a01b0385811660048301529091169063f92f0f8e90602401611329565b600582600781111561145c5761145c6117ef565b0361149357600b54604051637c9787c760e11b81526001600160a01b0385811660048301529091169063f92f0f8e90602401611329565b60068260078111156114a7576114a76117ef565b036114de57600c54604051637c9787c760e11b81526001600160a01b0385811660048301529091169063f92f0f8e90602401611329565b505050565b634e487b7160e01b600052604160045260246000fd5b604051610100810167ffffffffffffffff8111828210171561151d5761151d6114e3565b60405290565b6040516101a0810167ffffffffffffffff8111828210171561151d5761151d6114e3565b604051601f8201601f1916810167ffffffffffffffff81118282101715611570576115706114e3565b604052919050565b6001600160a01b038116811461069f57600080fd5b803561159881611578565b919050565b60006101008284031280156115b157600080fd5b506115ba6114f9565b82356115c581611578565b81526115d36020840161158d565b60208201526115e46040840161158d565b60408201526115f56060840161158d565b60608201526116066080840161158d565b608082015261161760a0840161158d565b60a082015261162860c0840161158d565b60c082015261163960e0840161158d565b60e08201529392505050565b6000806040838503121561165857600080fd5b823561166381611578565b946020939093013593505050565b60006020828403121561168357600080fd5b813561057a81611578565b600067ffffffffffffffff8211156116a8576116a86114e3565b50601f01601f191660200190565b600080604083850312156116c957600080fd5b82356116d481611578565b9150602083013567ffffffffffffffff8111156116f057600080fd5b8301601f8101851361170157600080fd5b803561171461170f8261168e565b611547565b81815286602083850101111561172957600080fd5b816020840160208301376000602083830101528093505050509250929050565b634e487b7160e01b600052601160045260246000fd5b808201808211156105e9576105e9611749565b60006020828403121561178457600080fd5b5051919050565b80820281158282048414176105e9576105e9611749565b6000826117bf57634e487b7160e01b600052601260045260246000fd5b500490565b8051801515811461159857600080fd5b6000602082840312156117e657600080fd5b61057a826117c4565b634e487b7160e01b600052602160045260246000fd5b604081016008841061182757634e487b7160e01b600052602160045260246000fd5b9281526001600160a01b039190911660209091015290565b60006001820161185157611851611749565b5060010190565b60005b8381101561187357818101518382015260200161185b565b50506000910152565b602081526000825180602084015261189b816040850160208701611858565b601f01601f19169190910160400192915050565b805167ffffffffffffffff8116811461159857600080fd5b805161159881611578565b600082601f8301126118e357600080fd5b81516118f161170f8261168e565b81815284602083860101111561190657600080fd5b610495826020830160208701611858565b805163ffffffff8116811461159857600080fd5b60006020828403121561193d57600080fd5b6040516020810167ffffffffffffffff81118282101715611960576119606114e3565b6040529151825250919050565b60006040828403121561197f57600080fd5b6040805190810167ffffffffffffffff811182821017156119a2576119a26114e3565b6040529050806119b1836117c4565b8152602092830151920191909152919050565b6000602082840312156119d657600080fd5b815167ffffffffffffffff8111156119ed57600080fd5b82016101c08185031215611a0057600080fd5b611a08611523565b611a11826118af565b8152611a1f602083016118c7565b6020820152604082015167ffffffffffffffff811115611a3e57600080fd5b611a4a868285016118d2565b604083015250606082015167ffffffffffffffff811115611a6a57600080fd5b611a76868285016118d2565b606083015250611a8860808301611917565b6080820152611a9960a083016117c4565b60a082015260c0828101519082015260e08083015190820152611ac085610100840161192b565b610100820152611ad485610120840161196d565b6101208201526101608281015161014083015261018083015190820152611afe6101a083016117c4565b610180820152949350505050565b80516008811061159857600080fd5b600060208284031215611b2d57600080fd5b61057a82611b0c565b60006080828403128015611b4957600080fd5b506040516080810167ffffffffffffffff81118282101715611b6d57611b6d6114e3565b6040528251611b7b81611578565b81526020830151611b8b81611578565b6020820152611b9c60408401611b0c565b6040820152606092830151928101929092525091905056fea2646970667358221220334aa379fe08635aeeb4e8a4ef794b5ad91442a4aa2d9c414f5ffa432e4b354164736f6c634300081b0033",
  "linkReferences": {},
  "deployedLinkReferences": {}
}