{
  "_format": "hh-sol-artifact-1",
  "contractName": "ValidationRules",
  "sourceName": "contracts/ValidationRules.sol",
  "abi": [
    {
      "inputs": [
        {
          "internalType": "uint256",
          "name": "timeBetweenVotes_",
          "type": "uint256"
        }
      ],
      "stateMutability": "nonpayable",
      "type": "constructor"
    },
    {
      "inputs": [
        {
          "internalType": "address",
          "name": "owner",
          "type": "address"
        }
      ],
      "name": "OwnableInvalidOwner",
      "type": "error"
    },
    {
      "inputs": [
        {
          "internalType": "address",
          "name": "account",
          "type": "address"
        }
      ],
      "name": "OwnableUnauthorizedAccount",
      "type": "error"
    },
    {
      "inputs": [],
      "name": "ReentrancyGuardReentrantCall",
      "type": "error"
    },
    {
      "anonymous": false,
      "inputs": [
        {
          "indexed": true,
          "internalType": "address",
          "name": "_validatorAddress",
          "type": "address"
        },
        {
          "indexed": false,
          "internalType": "uint256",
          "name": "_resourceId",
          "type": "uint256"
        },
        {
          "indexed": false,
          "internalType": "string",
          "name": "_justification",
          "type": "string"
        }
      ],
      "name": "ContributionValidation",
      "type": "event"
    },
    {
      "anonymous": false,
      "inputs": [
        {
          "indexed": true,
          "internalType": "address",
          "name": "_validatorAddress",
          "type": "address"
        },
        {
          "indexed": false,
          "internalType": "uint256",
          "name": "_resourceId",
          "type": "uint256"
        },
        {
          "indexed": false,
          "internalType": "string",
          "name": "_justification",
          "type": "string"
        }
      ],
      "name": "InspectionValidation",
      "type": "event"
    },
    {
      "anonymous": false,
      "inputs": [
        {
          "indexed": true,
          "internalType": "address",
          "name": "previousOwner",
          "type": "address"
        },
        {
          "indexed": true,
          "internalType": "address",
          "name": "newOwner",
          "type": "address"
        }
      ],
      "name": "OwnershipTransferred",
      "type": "event"
    },
    {
      "anonymous": false,
      "inputs": [
        {
          "indexed": true,
          "internalType": "address",
          "name": "_validatorAddress",
          "type": "address"
        },
        {
          "indexed": false,
          "internalType": "uint256",
          "name": "_resourceId",
          "type": "uint256"
        },
        {
          "indexed": false,
          "internalType": "string",
          "name": "_justification",
          "type": "string"
        }
      ],
      "name": "ReportValidation",
      "type": "event"
    },
    {
      "anonymous": false,
      "inputs": [
        {
          "indexed": true,
          "internalType": "address",
          "name": "_validatorAddress",
          "type": "address"
        },
        {
          "indexed": false,
          "internalType": "uint256",
          "name": "_resourceId",
          "type": "uint256"
        },
        {
          "indexed": false,
          "internalType": "string",
          "name": "_justification",
          "type": "string"
        }
      ],
      "name": "ResearchValidation",
      "type": "event"
    },
    {
      "anonymous": false,
      "inputs": [
        {
          "indexed": false,
          "internalType": "string",
          "name": "_resourceType",
          "type": "string"
        },
        {
          "indexed": false,
          "internalType": "uint256",
          "name": "_resourceId",
          "type": "uint256"
        },
        {
          "indexed": true,
          "internalType": "address",
          "name": "_ownerAddress",
          "type": "address"
        },
        {
          "indexed": false,
          "internalType": "uint256",
          "name": "_penaltiesAdded",
          "type": "uint256"
        }
      ],
      "name": "ResourceInvalidated",
      "type": "event"
    },
    {
      "anonymous": false,
      "inputs": [
        {
          "indexed": true,
          "internalType": "address",
          "name": "_userAddress",
          "type": "address"
        }
      ],
      "name": "UserDenied",
      "type": "event"
    },
    {
      "anonymous": false,
      "inputs": [
        {
          "indexed": true,
          "internalType": "address",
          "name": "_validatorAddress",
          "type": "address"
        },
        {
          "indexed": true,
          "internalType": "address",
          "name": "_userAddress",
          "type": "address"
        },
        {
          "indexed": false,
          "internalType": "string",
          "name": "_justification",
          "type": "string"
        }
      ],
      "name": "UserValidation",
      "type": "event"
    },
    {
      "inputs": [
        {
          "components": [
            {
              "internalType": "uint64",
              "name": "id",
              "type": "uint64"
            },
            {
              "internalType": "uint256",
              "name": "era",
              "type": "uint256"
            },
            {
              "internalType": "address",
              "name": "user",
              "type": "address"
            },
            {
              "internalType": "string",
              "name": "description",
              "type": "string"
            },
            {
              "internalType": "string",
              "name": "report",
              "type": "string"
            },
            {
              "internalType": "uint256",
              "name": "validationsCount",
              "type": "uint256"
            },
            {
              "internalType": "bool",
              "name": "valid",
              "type": "bool"
            },
            {
              "internalType": "uint256",
              "name": "invalidatedAt",
              "type": "uint256"
            },
            {
              "internalType": "uint256",
              "name": "createdAtBlockNumber",
              "type": "uint256"
            }
          ],
          "internalType": "struct Contribution",
          "name": "contribution",
          "type": "tuple"
        },
        {
          "internalType": "string",
          "name": "justification",
          "type": "string"
        },
        {
          "internalType": "address",
          "name": "validatorAddress",
          "type": "address"
        }
      ],
      "name": "addContributionValidation",
      "outputs": [],
      "stateMutability": "nonpayable",
      "type": "function"
    },
    {
      "inputs": [
        {
          "components": [
            {
              "internalType": "uint64",
              "name": "id",
              "type": "uint64"
            },
            {
              "internalType": "enum InspectionStatus",
              "name": "status",
              "type": "uint8"
            },
            {
              "internalType": "address",
              "name": "regenerator",
              "type": "address"
            },
            {
              "internalType": "address",
              "name": "inspector",
              "type": "address"
            },
            {
              "internalType": "uint32",
              "name": "treesResult",
              "type": "uint32"
            },
            {
              "internalType": "uint32",
              "name": "biodiversityResult",
              "type": "uint32"
            },
            {
              "internalType": "uint32",
              "name": "regenerationScore",
              "type": "uint32"
            },
            {
              "internalType": "string",
              "name": "proofPhotos",
              "type": "string"
            },
            {
              "internalType": "string",
              "name": "justificationReport",
              "type": "string"
            },
            {
              "internalType": "uint256",
              "name": "validationsCount",
              "type": "uint256"
            },
            {
              "internalType": "uint256",
              "name": "createdAt",
              "type": "uint256"
            },
            {
              "internalType": "uint256",
              "name": "acceptedAt",
              "type": "uint256"
            },
            {
              "internalType": "uint256",
              "name": "inspectedAt",
              "type": "uint256"
            },
            {
              "internalType": "uint256",
              "name": "inspectedAtEra",
              "type": "uint256"
            },
            {
              "internalType": "uint256",
              "name": "invalidatedAt",
              "type": "uint256"
            }
          ],
          "internalType": "struct Inspection",
          "name": "inspection",
          "type": "tuple"
        },
        {
          "internalType": "string",
          "name": "justification",
          "type": "string"
        },
        {
          "internalType": "address",
          "name": "validatorAddress",
          "type": "address"
        }
      ],
      "name": "addInspectionValidation",
      "outputs": [],
      "stateMutability": "nonpayable",
      "type": "function"
    },
    {
      "inputs": [
        {
          "components": [
            {
              "internalType": "uint64",
              "name": "id",
              "type": "uint64"
            },
            {
              "internalType": "uint256",
              "name": "era",
              "type": "uint256"
            },
            {
              "internalType": "address",
              "name": "developer",
              "type": "address"
            },
            {
              "internalType": "string",
              "name": "description",
              "type": "string"
            },
            {
              "internalType": "string",
              "name": "report",
              "type": "string"
            },
            {
              "internalType": "uint256",
              "name": "validationsCount",
              "type": "uint256"
            },
            {
              "internalType": "bool",
              "name": "valid",
              "type": "bool"
            },
            {
              "internalType": "uint256",
              "name": "invalidatedAt",
              "type": "uint256"
            },
            {
              "internalType": "uint256",
              "name": "createdAtBlockNumber",
              "type": "uint256"
            }
          ],
          "internalType": "struct Report",
          "name": "report",
          "type": "tuple"
        },
        {
          "internalType": "string",
          "name": "justification",
          "type": "string"
        },
        {
          "internalType": "address",
          "name": "validatorAddress",
          "type": "address"
        }
      ],
      "name": "addReportValidation",
      "outputs": [],
      "stateMutability": "nonpayable",
      "type": "function"
    },
    {
      "inputs": [
        {
          "components": [
            {
              "internalType": "uint64",
              "name": "id",
              "type": "uint64"
            },
            {
              "internalType": "uint256",
              "name": "era",
              "type": "uint256"
            },
            {
              "internalType": "address",
              "name": "createdBy",
              "type": "address"
            },
            {
              "internalType": "string",
              "name": "title",
              "type": "string"
            },
            {
              "internalType": "string",
              "name": "thesis",
              "type": "string"
            },
            {
              "internalType": "string",
              "name": "file",
              "type": "string"
            },
            {
              "internalType": "uint256",
              "name": "validationsCount",
              "type": "uint256"
            },
            {
              "internalType": "bool",
              "name": "valid",
              "type": "bool"
            },
            {
              "internalType": "uint256",
              "name": "invalidatedAt",
              "type": "uint256"
            },
            {
              "internalType": "uint256",
              "name": "createdAtBlock",
              "type": "uint256"
            }
          ],
          "internalType": "struct Research",
          "name": "research",
          "type": "tuple"
        },
        {
          "internalType": "string",
          "name": "justification",
          "type": "string"
        },
        {
          "internalType": "address",
          "name": "validatorAddress",
          "type": "address"
        }
      ],
      "name": "addResearchValidation",
      "outputs": [],
      "stateMutability": "nonpayable",
      "type": "function"
    },
    {
      "inputs": [
        {
          "internalType": "address",
          "name": "userAddress",
          "type": "address"
        },
        {
          "internalType": "string",
          "name": "justification",
          "type": "string"
        }
      ],
      "name": "addUserValidation",
      "outputs": [],
      "stateMutability": "nonpayable",
      "type": "function"
    },
    {
      "inputs": [
        {
          "internalType": "address",
          "name": "",
          "type": "address"
        }
      ],
      "name": "allowedCallers",
      "outputs": [
        {
          "internalType": "bool",
          "name": "",
          "type": "bool"
        }
      ],
      "stateMutability": "view",
      "type": "function"
    },
    {
      "inputs": [
        {
          "internalType": "uint256",
          "name": "",
          "type": "uint256"
        }
      ],
      "name": "contributionAlreadyInvalidated",
      "outputs": [
        {
          "internalType": "bool",
          "name": "",
          "type": "bool"
        }
      ],
      "stateMutability": "view",
      "type": "function"
    },
    {
      "inputs": [
        {
          "internalType": "address",
          "name": "userAddress",
          "type": "address"
        },
        {
          "internalType": "uint256",
          "name": "currentEra",
          "type": "uint256"
        }
      ],
      "name": "getUserValidations",
      "outputs": [
        {
          "internalType": "uint256",
          "name": "",
          "type": "uint256"
        }
      ],
      "stateMutability": "view",
      "type": "function"
    },
    {
      "inputs": [
        {
          "internalType": "uint256",
          "name": "",
          "type": "uint256"
        }
      ],
      "name": "inspectionAlreadyInvalidated",
      "outputs": [
        {
          "internalType": "bool",
          "name": "",
          "type": "bool"
        }
      ],
      "stateMutability": "view",
      "type": "function"
    },
    {
      "inputs": [
        {
          "internalType": "address",
          "name": "caller",
          "type": "address"
        }
      ],
      "name": "isAllowedCaller",
      "outputs": [
        {
          "internalType": "bool",
          "name": "",
          "type": "bool"
        }
      ],
      "stateMutability": "view",
      "type": "function"
    },
    {
      "inputs": [
        {
          "internalType": "address",
          "name": "allowed",
          "type": "address"
        }
      ],
      "name": "newAllowedCaller",
      "outputs": [],
      "stateMutability": "nonpayable",
      "type": "function"
    },
    {
      "inputs": [],
      "name": "owner",
      "outputs": [
        {
          "internalType": "address",
          "name": "",
          "type": "address"
        }
      ],
      "stateMutability": "view",
      "type": "function"
    },
    {
      "inputs": [],
      "name": "renounceOwnership",
      "outputs": [],
      "stateMutability": "nonpayable",
      "type": "function"
    },
    {
      "inputs": [
        {
          "internalType": "uint256",
          "name": "",
          "type": "uint256"
        }
      ],
      "name": "reportAlreadyInvalidated",
      "outputs": [
        {
          "internalType": "bool",
          "name": "",
          "type": "bool"
        }
      ],
      "stateMutability": "view",
      "type": "function"
    },
    {
      "inputs": [
        {
          "internalType": "uint256",
          "name": "",
          "type": "uint256"
        }
      ],
      "name": "researchAlreadyInvalidated",
      "outputs": [
        {
          "internalType": "bool",
          "name": "",
          "type": "bool"
        }
      ],
      "stateMutability": "view",
      "type": "function"
    },
    {
      "inputs": [
        {
          "internalType": "address",
          "name": "_inspectionRulesAddress",
          "type": "address"
        },
        {
          "internalType": "address",
          "name": "_contributorRulesAddress",
          "type": "address"
        },
        {
          "internalType": "address",
          "name": "_developerRulesAddress",
          "type": "address"
        },
        {
          "internalType": "address",
          "name": "_researcherRulesAddress",
          "type": "address"
        }
      ],
      "name": "setContractCall",
      "outputs": [],
      "stateMutability": "nonpayable",
      "type": "function"
    },
    {
      "inputs": [
        {
          "components": [
            {
              "internalType": "address",
              "name": "communityRulesAddress",
              "type": "address"
            },
            {
              "internalType": "address",
              "name": "regeneratorRulesAddress",
              "type": "address"
            },
            {
              "internalType": "address",
              "name": "inspectorRulesAddress",
              "type": "address"
            },
            {
              "internalType": "address",
              "name": "developerRulesAddress",
              "type": "address"
            },
            {
              "internalType": "address",
              "name": "researcherRulesAddress",
              "type": "address"
            },
            {
              "internalType": "address",
              "name": "contributorRulesAddress",
              "type": "address"
            },
            {
              "internalType": "address",
              "name": "activistRulesAddress",
              "type": "address"
            },
            {
              "internalType": "address",
              "name": "voteRulesAddress",
              "type": "address"
            }
          ],
          "internalType": "struct ContractsDependency",
          "name": "contractDependency",
          "type": "tuple"
        }
      ],
      "name": "setContractInterfaces",
      "outputs": [],
      "stateMutability": "nonpayable",
      "type": "function"
    },
    {
      "inputs": [],
      "name": "timeBetweenVotes",
      "outputs": [
        {
          "internalType": "uint256",
          "name": "",
          "type": "uint256"
        }
      ],
      "stateMutability": "view",
      "type": "function"
    },
    {
      "inputs": [
        {
          "internalType": "address",
          "name": "newOwner",
          "type": "address"
        }
      ],
      "name": "transferOwnership",
      "outputs": [],
      "stateMutability": "nonpayable",
      "type": "function"
    },
    {
      "inputs": [
        {
          "internalType": "address",
          "name": "",
          "type": "address"
        },
        {
          "internalType": "uint256",
          "name": "",
          "type": "uint256"
        }
      ],
      "name": "userValidations",
      "outputs": [
        {
          "internalType": "uint256",
          "name": "",
          "type": "uint256"
        }
      ],
      "stateMutability": "view",
      "type": "function"
    },
    {
      "inputs": [
        {
          "internalType": "address",
          "name": "",
          "type": "address"
        }
      ],
      "name": "validatorLastVoteAt",
      "outputs": [
        {
          "internalType": "uint256",
          "name": "",
          "type": "uint256"
        }
      ],
      "stateMutability": "view",
      "type": "function"
    },
    {
      "inputs": [],
      "name": "votesToInvalidate",
      "outputs": [
        {
          "internalType": "uint256",
          "name": "count",
          "type": "uint256"
        }
      ],
      "stateMutability": "view",
      "type": "function"
    },
    {
      "inputs": [
        {
          "internalType": "address",
          "name": "validatorAddress",
          "type": "address"
        }
      ],
      "name": "waitedTimeBetweenVotes",
      "outputs": [
        {
          "internalType": "bool",
          "name": "",
          "type": "bool"
        }
      ],
      "stateMutability": "view",
      "type": "function"
    }
  ],
  "bytecode": "0x60a060405234801561001057600080fd5b50604051612e99380380612e9983398101604081905261002f916100bc565b338061005557604051631e4fbdf760e01b81526000600482015260240160405180910390fd5b61005e8161006c565b5060016002556080526100d5565b600080546001600160a01b038381166001600160a01b0319831681178455604051919092169283917f8be0079c531659141344cd1fd0a4f28419497f9722a3daafe3b4186f6b6457e09190a35050565b6000602082840312156100ce57600080fd5b5051919050565b608051612da26100f76000396000818161019201526108100152612da26000f3fe608060405234801561001057600080fd5b506004361061014d5760003560e01c806369bf81c3116100c3578063b3d981611161007c578063b3d9816114610331578063bdac344f14610354578063c6c9b9b414610374578063f2fde38b14610387578063f73535c91461039a578063f9e05690146103ad57600080fd5b806369bf81c3146102a4578063715018a6146102ac5780637b334154146102b45780638da5cb5b146102d75780638f93716f146102f2578063a68012581461030557600080fd5b80632968e454116101155780632968e454146101fa5780632c885cfd1461021d578063305ac48414610248578063361119ac1461026b57806347ec8e971461027e578063513d5dfd1461029157600080fd5b80630eafe45e146101525780631422b7831461016757806320bd34e81461017a57806321e3c5bb1461018d57806323c1fff4146101c7575b600080fd5b610165610160366004612054565b6103c0565b005b6101656101753660046121ab565b610418565b6101656101883660046123da565b6104cd565b6101b47f000000000000000000000000000000000000000000000000000000000000000081565b6040519081526020015b60405180910390f35b6101ea6101d5366004612455565b600b6020526000908152604090205460ff1681565b60405190151581526020016101be565b6101ea610208366004612455565b600c6020526000908152604090205460ff1681565b6101b461022b36600461246e565b600360209081526000928352604080842090915290825290205481565b6101ea610256366004612455565b600a6020526000908152604090205460ff1681565b6101ea61027936600461249a565b6107f1565b61016561028c3660046123da565b61084b565b61016561029f3660046124b7565b610b20565b6101b4610df1565b610165610f0c565b6101ea6102c236600461249a565b60016020526000908152604090205460ff1681565b6000546040516001600160a01b0390911681526020016101be565b61016561030036600461249a565b610f20565b6101ea61031336600461249a565b6001600160a01b031660009081526001602052604090205460ff1690565b6101ea61033f366004612455565b600d6020526000908152604090205460ff1681565b6101b461036236600461249a565b60096020526000908152604090205481565b6101b461038236600461246e565b610f4f565b61016561039536600461249a565b610f7a565b6101656103a8366004612643565b610fb8565b6101656103bb3660046127b2565b6112f9565b6103c861175f565b601680546001600160a01b039586166001600160a01b0319918216179091556017805494861694821694909417909355601880549285169284169290921790915560198054919093169116179055565b61042061175f565b8051600e80546001600160a01b03199081166001600160a01b03938416179091556020830151600f8054831691841691909117905560408301516010805483169184169190911790556060830151601180548316918416919091179055608083015160128054831691841691909117905560a083015160138054831691841691909117905560c083015160148054831691841691909117905560e090920151601580549093169116179055565b3360009081526001602052604090205460ff166105055760405162461bcd60e51b81526004016104fc90612801565b60405180910390fd5b6018546001600160a01b03163381146105305760405162461bcd60e51b81526004016104fc9061282d565b61053861178c565b6001600160a01b038216600090815260046020908152604080832087516001600160401b0316845290915290205460ff16156105865760405162461bcd60e51b81526004016104fc90612864565b6001600160a01b038216600081815260046020908152604080832088516001600160401b031684528252808320805460ff19166001179055838352600990915290819020439055855190517fb19764e85ca109ec31cda3dd13e75f97da9939ba8df810aa2a2aa38d77f19ff8916105fe9187906128db565b60405180910390a28360c001516107e15783516001600160401b03166000908152600b602052604090205460ff16156106495760405162461bcd60e51b81526004016104fc906128fd565b83516001600160401b03166000908152600b6020526040808220805460ff19166001179055601154818701518751925163b1e8665560e01b81526001600160a01b039092169263b1e86655926106a3929190600401612934565b6020604051808303816000875af11580156106c2573d6000803e3d6000fd5b505050506040513d601f19601f820116820180604052508101906106e69190612956565b905084604001516001600160a01b0316600080516020612d4d83398151915286600001518360405161074a92919060608082526006908201526514995c1bdc9d60d21b60808201526001600160401b03929092166020830152604082015260a00190565b60405180910390a2601160009054906101000a90046001600160a01b03166001600160a01b031663b24eb7696040518163ffffffff1660e01b8152600401602060405180830381865afa1580156107a5573d6000803e3d6000fd5b505050506040513d601f19601f820116820180604052508101906107c9919061296f565b60ff1681106107df576107df85604001516117b4565b505b6107eb6001600255565b50505050565b6001600160a01b038116600090815260096020526040812054816108357f0000000000000000000000000000000000000000000000000000000000000000836129a8565b431190508080610843575081155b949350505050565b3360009081526001602052604090205460ff1661087a5760405162461bcd60e51b81526004016104fc90612801565b6017546001600160a01b03163381146108a55760405162461bcd60e51b81526004016104fc9061282d565b6108ad61178c565b6001600160a01b038216600090815260056020908152604080832087516001600160401b0316845290915290205460ff16156108fb5760405162461bcd60e51b81526004016104fc90612864565b6001600160a01b038216600081815260056020908152604080832088516001600160401b031684528252808320805460ff19166001179055838352600990915290819020439055855190517fd61b6e2c73784f8cc7ef49527075f70bb175237a4bb1cb8f5e840ab67faf65c2916109739187906128db565b60405180910390a28360c001516107e15783516001600160401b03166000908152600d602052604090205460ff16156109be5760405162461bcd60e51b81526004016104fc906128fd565b83516001600160401b03166000908152600d6020526040808220805460ff19166001179055601354818701518751925163b1e8665560e01b81526001600160a01b039092169263b1e8665592610a18929190600401612934565b6020604051808303816000875af1158015610a37573d6000803e3d6000fd5b505050506040513d601f19601f82011682018060405250810190610a5b9190612956565b905084604001516001600160a01b0316600080516020612d4d833981519152866000015183604051610ac59291906060808252600c908201526b21b7b73a3934b13aba34b7b760a11b60808201526001600160401b03929092166020830152604082015260a00190565b60405180910390a2601360009054906101000a90046001600160a01b03166001600160a01b031663b24eb7696040518163ffffffff1660e01b8152600401602060405180830381865afa1580156107a5573d6000803e3d6000fd5b3360009081526001602052604090205460ff16610b4f5760405162461bcd60e51b81526004016104fc90612801565b6019546001600160a01b0316338114610b7a5760405162461bcd60e51b81526004016104fc9061282d565b610b8261178c565b6001600160a01b038216600090815260076020908152604080832087516001600160401b0316845290915290205460ff1615610bd05760405162461bcd60e51b81526004016104fc90612864565b6001600160a01b038216600081815260076020908152604080832088516001600160401b031684528252808320805460ff19166001179055838352600990915290819020439055855190517fa60b3cba17d47d019e43ed78d18b7dbcdb3356746136e92739e184014baed95b91610c489187906128db565b60405180910390a28360e001516107e15783516001600160401b03166000908152600c602052604090205460ff1615610c935760405162461bcd60e51b81526004016104fc906128fd565b83516001600160401b03166000908152600c6020526040808220805460ff19166001179055601254818701518751925163b1e8665560e01b81526001600160a01b039092169263b1e8665592610ced929190600401612934565b6020604051808303816000875af1158015610d0c573d6000803e3d6000fd5b505050506040513d601f19601f82011682018060405250810190610d309190612956565b905084604001516001600160a01b0316600080516020612d4d833981519152866000015183604051610d969291906060808252600890820152670a4cae6cac2e4c6d60c31b60808201526001600160401b03929092166020830152604082015260a00190565b60405180910390a2601260009054906101000a90046001600160a01b03166001600160a01b031663b24eb7696040518163ffffffff1660e01b8152600401602060405180830381865afa1580156107a5573d6000803e3d6000fd5b600080600e60009054906101000a90046001600160a01b03166001600160a01b03166398c079386040518163ffffffff1660e01b8152600401602060405180830381865afa158015610e47573d6000803e3d6000fd5b505050506040513d601f19601f82011682018060405250810190610e6b9190612956565b905060328111610e7d57506002919050565b6101f48111610e8e57506005919050565b6103e88111610e9f5750600a919050565b6107d08111610eb057506014919050565b610fa08111610ec157506028919050565b611f408111610ed257506050919050565b613e808111610ee3575060a0919050565b617d008111610ef55750610140919050565b617d00811115610f0857506101f4919050565b5090565b610f1461175f565b610f1e6000611bb0565b565b610f2861175f565b6001600160a01b03166000908152600160208190526040909120805460ff19169091179055565b6001600160a01b03821660009081526003602090815260408083208484529091529020545b92915050565b610f8261175f565b6001600160a01b038116610fac57604051631e4fbdf760e01b8152600060048201526024016104fc565b610fb581611bb0565b50565b3360009081526001602052604090205460ff16610fe75760405162461bcd60e51b81526004016104fc90612801565b6016546001600160a01b03163381146110125760405162461bcd60e51b81526004016104fc9061282d565b61101a61178c565b6001600160a01b038216600090815260066020908152604080832087516001600160401b0316845290915290205460ff16156110685760405162461bcd60e51b81526004016104fc90612864565b6001600160a01b038216600081815260066020908152604080832088516001600160401b031684528252808320805460ff19166001179055928252600990529081204390556110b5610df1565b905060008186610120015110159050836001600160a01b03167f804fe88dce417b67dd8890f8cac643949e87d8edcba4e9efb221cbd850c52feb8760000151876040516111039291906128db565b60405180910390a2806111175750506107e1565b85516001600160401b03166000908152600a602052604090205460ff16156111515760405162461bcd60e51b81526004016104fc906128fd565b85516001600160401b03166000908152600a6020526040808220805460ff1916600117905560105460608901518951925163b1e8665560e01b81526001600160a01b039092169263b1e86655926111ac929190600401612934565b6020604051808303816000875af11580156111cb573d6000803e3d6000fd5b505050506040513d601f19601f820116820180604052508101906111ef9190612956565b905086606001516001600160a01b0316600080516020612d4d8339815191528860000151836040516112579291906060808252600a908201526924b739b832b1ba34b7b760b11b60808201526001600160401b03929092166020830152604082015260a00190565b60405180910390a2601060009054906101000a90046001600160a01b03166001600160a01b031663b24eb7696040518163ffffffff1660e01b8152600401602060405180830381865afa1580156112b2573d6000803e3d6000fd5b505050506040513d601f19601f820116820180604052508101906112d6919061296f565b60ff1681106112ec576112ec87606001516117b4565b5050506107eb6001600255565b61130161178c565b805161012c10156113455760405162461bcd60e51b815260206004820152600e60248201526d4d6178206368617261637465727360901b60448201526064016104fc565b6015546040516356fd539760e11b81523360048201526001600160a01b039091169063adfaa72e90602401602060405180830381865afa15801561138d573d6000803e3d6000fd5b505050506040513d601f19601f820116820180604052508101906113b191906129c6565b6113eb5760405162461bcd60e51b815260206004820152600b60248201526a2737ba1030903b37ba32b960a91b60448201526064016104fc565b600e54604051631292f8c160e31b81526001600160a01b0390911690639497c6089061141e9060009086906004016129f9565b602060405180830381865afa15801561143b573d6000803e3d6000fd5b505050506040513d601f19601f8201168201806040525081019061145f91906129c6565b156114a25760405162461bcd60e51b8152602060048201526013602482015272155cd95c881b9bdd081c9959da5cdd195c9959606a1b60448201526064016104fc565b600e54604051631292f8c160e31b81526001600160a01b0390911690639497c608906114d59060089086906004016129f9565b602060405180830381865afa1580156114f2573d6000803e3d6000fd5b505050506040513d601f19601f8201168201806040525081019061151691906129c6565b156115595760405162461bcd60e51b8152602060048201526013602482015272155cd95c88185b1c9958591e4819195b9a5959606a1b60448201526064016104fc565b61156282611c00565b6115c25760405162461bcd60e51b815260206004820152602b60248201527f526567656e657261746f722068617320726561636865642076616c696461746960448201526a6f6e20696d6d756e69747960a81b60648201526084016104fc565b60006115cd83611d02565b3360009081526008602090815260408083206001600160a01b0388168452825280832084845290915290205490915060ff161561161c5760405162461bcd60e51b81526004016104fc90612864565b611625336107f1565b6116695760405162461bcd60e51b8152602060048201526015602482015274576169742074696d654265747765656e566f74657360581b60448201526064016104fc565b3360008181526008602090815260408083206001600160a01b0388168085529083528184208685528352818420805460ff19166001179055938352600982528083204390559282526003815282822084835290529081208054916116cc83612a33565b919050555060006116db610df1565b6001600160a01b0385166000818152600360209081526040808320878452909152908190205490519293509133907f8cb53ba58e6b58f4456b623f61a5b8776a23ac36733b731d50fd9e40ee39c0fc90611736908890612a4c565b60405180910390a381811061174e5761174e856117b4565b50505061175b6001600255565b5050565b6000546001600160a01b03163314610f1e5760405163118cdaa760e01b81523360048201526024016104fc565b60028054036117ae57604051633ee5aeb560e01b815260040160405180910390fd5b60028055565b600e54604051636f77926b60e01b81526001600160a01b0383811660048301526000921690636f77926b90602401602060405180830381865afa1580156117ff573d6000803e3d6000fd5b505050506040513d601f19601f820116820180604052508101906118239190612a6e565b90506008816008811115611839576118396129e3565b03611842575050565b600e5460405163e202fa4d60e01b81526001600160a01b0384811660048301529091169063e202fa4d90602401600060405180830381600087803b15801561188957600080fd5b505af115801561189d573d6000803e3d6000fd5b5050600e5460405163158bdc5f60e11b81526001600160a01b038681166004830152600094509091169150632b17b8be90602401608060405180830381865afa1580156118ee573d6000803e3d6000fd5b505050506040513d601f19601f820116820180604052508101906119129190612a94565b60208101519091506001600160a01b03161561198c57600e546020820151604051636101bf2160e01b81526001600160a01b039182166004820152911690636101bf2190602401600060405180830381600087803b15801561197357600080fd5b505af1158015611987573d6000803e3d6000fd5b505050505b60018260088111156119a0576119a06129e3565b03611a1157600f546040516310c791e560e11b81526001600160a01b038581166004830152600160248301529091169063218f23ca906044015b600060405180830381600087803b1580156119f457600080fd5b505af1158015611a08573d6000803e3d6000fd5b50505050505050565b6002826008811115611a2557611a256129e3565b03611a63576010546040516310c791e560e11b81526001600160a01b038581166004830152600160248301529091169063218f23ca906044016119da565b6004826008811115611a7757611a776129e3565b03611ab5576011546040516310c791e560e11b81526001600160a01b038581166004830152600160248301529091169063218f23ca906044016119da565b6003826008811115611ac957611ac96129e3565b03611b07576012546040516310c791e560e11b81526001600160a01b038581166004830152600160248301529091169063218f23ca906044016119da565b6005826008811115611b1b57611b1b6129e3565b03611b59576013546040516310c791e560e11b81526001600160a01b038581166004830152600160248301529091169063218f23ca906044016119da565b6006826008811115611b6d57611b6d6129e3565b03611bab576014546040516310c791e560e11b81526001600160a01b038581166004830152600160248301529091169063218f23ca906044016119da565b505050565b600080546001600160a01b038381166001600160a01b0319831681178455604051919092169283917f8be0079c531659141344cd1fd0a4f28419497f9722a3daafe3b4186f6b6457e09190a35050565b600e54604051631292f8c160e31b81526000916001600160a01b031690639497c60890611c349060019086906004016129f9565b602060405180830381865afa158015611c51573d6000803e3d6000fd5b505050506040513d601f19601f82011682018060405250810190611c7591906129c6565b611c8157506001919050565b600f5460405163065ab21b60e41b81526001600160a01b03848116600483015260009216906365ab21b090602401600060405180830381865afa158015611ccc573d6000803e3d6000fd5b505050506040513d6000823e601f3d908101601f19168201604052611cf49190810190612c07565b60c001516005119392505050565b600e54604051636f77926b60e01b81526001600160a01b0383811660048301526000928392911690636f77926b90602401602060405180830381865afa158015611d50573d6000803e3d6000fd5b505050506040513d601f19601f82011682018060405250810190611d749190612a6e565b90506006816008811115611d8a57611d8a6129e3565b03611e0d57601460009054906101000a90046001600160a01b03166001600160a01b031663e05cf1556040518163ffffffff1660e01b8152600401602060405180830381865afa158015611de2573d6000803e3d6000fd5b505050506040513d601f19601f82011682018060405250810190611e069190612956565b9392505050565b6005816008811115611e2157611e216129e3565b03611e7957601360009054906101000a90046001600160a01b03166001600160a01b031663e05cf1556040518163ffffffff1660e01b8152600401602060405180830381865afa158015611de2573d6000803e3d6000fd5b6004816008811115611e8d57611e8d6129e3565b03611ee557601160009054906101000a90046001600160a01b03166001600160a01b031663e05cf1556040518163ffffffff1660e01b8152600401602060405180830381865afa158015611de2573d6000803e3d6000fd5b6002816008811115611ef957611ef96129e3565b03611f5157601060009054906101000a90046001600160a01b03166001600160a01b031663e05cf1556040518163ffffffff1660e01b8152600401602060405180830381865afa158015611de2573d6000803e3d6000fd5b6003816008811115611f6557611f656129e3565b03611fbd57601260009054906101000a90046001600160a01b03166001600160a01b031663e05cf1556040518163ffffffff1660e01b8152600401602060405180830381865afa158015611de2573d6000803e3d6000fd5b6001816008811115611fd157611fd16129e3565b0361202957600f60009054906101000a90046001600160a01b03166001600160a01b031663e05cf1556040518163ffffffff1660e01b8152600401602060405180830381865afa158015611de2573d6000803e3d6000fd5b50919050565b6001600160a01b0381168114610fb557600080fd5b803561204f8161202f565b919050565b6000806000806080858703121561206a57600080fd5b84356120758161202f565b935060208501356120858161202f565b925060408501356120958161202f565b915060608501356120a58161202f565b939692955090935050565b634e487b7160e01b600052604160045260246000fd5b60405161010081016001600160401b03811182821017156120e9576120e96120b0565b60405290565b60405161012081016001600160401b03811182821017156120e9576120e96120b0565b60405161014081016001600160401b03811182821017156120e9576120e96120b0565b6040516101e081016001600160401b03811182821017156120e9576120e96120b0565b6040516101a081016001600160401b03811182821017156120e9576120e96120b0565b604051601f8201601f191681016001600160401b03811182821017156121a3576121a36120b0565b604052919050565b60006101008284031280156121bf57600080fd5b506121c86120c6565b82356121d38161202f565b81526121e160208401612044565b60208201526121f260408401612044565b604082015261220360608401612044565b606082015261221460808401612044565b608082015261222560a08401612044565b60a082015261223660c08401612044565b60c082015261224760e08401612044565b60e08201529392505050565b6001600160401b0381168114610fb557600080fd5b803561204f81612253565b60006001600160401b0382111561228c5761228c6120b0565b50601f01601f191660200190565b600082601f8301126122ab57600080fd5b81356122be6122b982612273565b61217b565b8181528460208386010111156122d357600080fd5b816020850160208301376000918101602001919091529392505050565b8015158114610fb557600080fd5b803561204f816122f0565b6000610120828403121561231c57600080fd5b6123246120ef565b905061232f82612268565b81526020828101359082015261234760408301612044565b604082015260608201356001600160401b0381111561236557600080fd5b6123718482850161229a565b60608301525060808201356001600160401b0381111561239057600080fd5b61239c8482850161229a565b60808301525060a082810135908201526123b860c083016122fe565b60c082015260e082810135908201526101009182013591810191909152919050565b6000806000606084860312156123ef57600080fd5b83356001600160401b0381111561240557600080fd5b61241186828701612309565b93505060208401356001600160401b0381111561242d57600080fd5b6124398682870161229a565b925050604084013561244a8161202f565b809150509250925092565b60006020828403121561246757600080fd5b5035919050565b6000806040838503121561248157600080fd5b823561248c8161202f565b946020939093013593505050565b6000602082840312156124ac57600080fd5b8135611e068161202f565b6000806000606084860312156124cc57600080fd5b83356001600160401b038111156124e257600080fd5b840161014081870312156124f557600080fd5b6124fd612112565b61250682612268565b81526020828101359082015261251e60408301612044565b604082015260608201356001600160401b0381111561253c57600080fd5b6125488882850161229a565b60608301525060808201356001600160401b0381111561256757600080fd5b6125738882850161229a565b60808301525060a08201356001600160401b0381111561259257600080fd5b61259e8882850161229a565b60a08301525060c082810135908201526125ba60e083016122fe565b60e082015261010082810135908201526101209182013591810191909152925060208401356001600160401b038111156125f357600080fd5b6125ff8682870161229a565b92505061260e60408501612044565b90509250925092565b80356004811061204f57600080fd5b63ffffffff81168114610fb557600080fd5b803561204f81612626565b60008060006060848603121561265857600080fd5b83356001600160401b0381111561266e57600080fd5b84016101e0818703121561268157600080fd5b612689612135565b61269282612268565b81526126a060208301612617565b60208201526126b160408301612044565b60408201526126c260608301612044565b60608201526126d360808301612638565b60808201526126e460a08301612638565b60a08201526126f560c08301612638565b60c082015260e08201356001600160401b0381111561271357600080fd5b61271f8882850161229a565b60e0830152506101008201356001600160401b0381111561273f57600080fd5b61274b8882850161229a565b6101008301525061012082810135908201526101408083013590820152610160808301359082015261018080830135908201526101a080830135908201526101c09182013591810191909152925060208401356001600160401b038111156125f357600080fd5b600080604083850312156127c557600080fd5b82356127d08161202f565b915060208301356001600160401b038111156127eb57600080fd5b6127f78582860161229a565b9150509250929050565b6020808252601290820152712737ba1030b63637bbb2b21031b0b63632b960711b604082015260600190565b6020808252601e908201527f43616c6c6572206d7573742062652073797374656d20636f6e74726163740000604082015260600190565b6020808252600d908201526c105b1c9958591e481d9bdd1959609a1b604082015260600190565b60005b838110156128a657818101518382015260200161288e565b50506000910152565b600081518084526128c781602086016020860161288b565b601f01601f19169290920160200192915050565b6001600160401b038316815260406020820152600061084360408301846128af565b60208082526019908201527f50656e616c7469657320616c7265616479206170706c69656400000000000000604082015260600190565b6001600160a01b039290921682526001600160401b0316602082015260400190565b60006020828403121561296857600080fd5b5051919050565b60006020828403121561298157600080fd5b815160ff81168114611e0657600080fd5b634e487b7160e01b600052601160045260246000fd5b80820180821115610f7457610f74612992565b805161204f816122f0565b6000602082840312156129d857600080fd5b8151611e06816122f0565b634e487b7160e01b600052602160045260246000fd5b6040810160098410612a1b57634e487b7160e01b600052602160045260246000fd5b9281526001600160a01b039190911660209091015290565b600060018201612a4557612a45612992565b5060010190565b602081526000611e0660208301846128af565b80516009811061204f57600080fd5b600060208284031215612a8057600080fd5b611e0682612a5f565b805161204f8161202f565b60006080828403128015612aa757600080fd5b50604051608081016001600160401b0381118282101715612aca57612aca6120b0565b6040528251612ad88161202f565b81526020830151612ae88161202f565b6020820152612af960408401612a5f565b60408201526060928301519281019290925250919050565b805161204f81612253565b600082601f830112612b2d57600080fd5b8151612b3b6122b982612273565b818152846020838601011115612b5057600080fd5b61084382602083016020870161288b565b805161204f81612626565b600060208284031215612b7e57600080fd5b604051602081016001600160401b0381118282101715612ba057612ba06120b0565b6040529151825250919050565b600060408284031215612bbf57600080fd5b604080519081016001600160401b0381118282101715612be157612be16120b0565b80604052508091508251612bf4816122f0565b8152602092830151920191909152919050565b600060208284031215612c1957600080fd5b81516001600160401b03811115612c2f57600080fd5b82016101c08185031215612c4257600080fd5b612c4a612158565b612c5382612b11565b8152612c6160208301612a89565b602082015260408201516001600160401b03811115612c7f57600080fd5b612c8b86828501612b1c565b60408301525060608201516001600160401b03811115612caa57600080fd5b612cb686828501612b1c565b606083015250612cc860808301612b61565b6080820152612cd960a083016129bb565b60a082015260c0828101519082015260e08083015190820152612d00856101008401612b6c565b610100820152612d14856101208401612bad565b6101208201526101608281015161014083015261018083015190820152612d3e6101a083016129bb565b61018082015294935050505056fe226413e2cbca808fc074a1cf011f01e3727417456abafe80e5add5c446a8853ea26469706673582212201edd234921171cdcfa5aff3c03774499a2cc7c184c75c3bd7bd375269ede808664736f6c634300081b0033",
  "linkReferences": {},
  "deployedLinkReferences": {}
}