{
  "_format": "hh-sol-artifact-1",
  "contractName": "ValidationRules",
  "sourceName": "contracts/ValidationRules.sol",
  "abi": [
    {
      "inputs": [
        {
          "internalType": "uint256",
          "name": "timeBetweenVotes_",
          "type": "uint256"
        }
      ],
      "stateMutability": "nonpayable",
      "type": "constructor"
    },
    {
      "inputs": [
        {
          "internalType": "address",
          "name": "owner",
          "type": "address"
        }
      ],
      "name": "OwnableInvalidOwner",
      "type": "error"
    },
    {
      "inputs": [
        {
          "internalType": "address",
          "name": "account",
          "type": "address"
        }
      ],
      "name": "OwnableUnauthorizedAccount",
      "type": "error"
    },
    {
      "inputs": [],
      "name": "ReentrancyGuardReentrantCall",
      "type": "error"
    },
    {
      "anonymous": false,
      "inputs": [
        {
          "indexed": true,
          "internalType": "address",
          "name": "previousOwner",
          "type": "address"
        },
        {
          "indexed": true,
          "internalType": "address",
          "name": "newOwner",
          "type": "address"
        }
      ],
      "name": "OwnershipTransferred",
      "type": "event"
    },
    {
      "anonymous": false,
      "inputs": [
        {
          "indexed": true,
          "internalType": "address",
          "name": "_userAddress",
          "type": "address"
        }
      ],
      "name": "UserDenied",
      "type": "event"
    },
    {
      "anonymous": false,
      "inputs": [
        {
          "indexed": true,
          "internalType": "address",
          "name": "_validatorAddress",
          "type": "address"
        },
        {
          "indexed": true,
          "internalType": "address",
          "name": "_userAddress",
          "type": "address"
        },
        {
          "indexed": false,
          "internalType": "string",
          "name": "_justification",
          "type": "string"
        }
      ],
      "name": "UserValidation",
      "type": "event"
    },
    {
      "inputs": [
        {
          "internalType": "address",
          "name": "userAddress",
          "type": "address"
        },
        {
          "internalType": "string",
          "name": "justification",
          "type": "string"
        }
      ],
      "name": "addUserValidation",
      "outputs": [],
      "stateMutability": "nonpayable",
      "type": "function"
    },
    {
      "inputs": [
        {
          "internalType": "address",
          "name": "",
          "type": "address"
        }
      ],
      "name": "allowedCallers",
      "outputs": [
        {
          "internalType": "bool",
          "name": "",
          "type": "bool"
        }
      ],
      "stateMutability": "view",
      "type": "function"
    },
    {
      "inputs": [
        {
          "internalType": "address",
          "name": "userAddress",
          "type": "address"
        },
        {
          "internalType": "uint256",
          "name": "currentEra",
          "type": "uint256"
        }
      ],
      "name": "getUserValidations",
      "outputs": [
        {
          "internalType": "uint256",
          "name": "",
          "type": "uint256"
        }
      ],
      "stateMutability": "view",
      "type": "function"
    },
    {
      "inputs": [
        {
          "internalType": "address",
          "name": "caller",
          "type": "address"
        }
      ],
      "name": "isAllowedCaller",
      "outputs": [
        {
          "internalType": "bool",
          "name": "",
          "type": "bool"
        }
      ],
      "stateMutability": "view",
      "type": "function"
    },
    {
      "inputs": [
        {
          "internalType": "address",
          "name": "allowed",
          "type": "address"
        }
      ],
      "name": "newAllowedCaller",
      "outputs": [],
      "stateMutability": "nonpayable",
      "type": "function"
    },
    {
      "inputs": [],
      "name": "owner",
      "outputs": [
        {
          "internalType": "address",
          "name": "",
          "type": "address"
        }
      ],
      "stateMutability": "view",
      "type": "function"
    },
    {
      "inputs": [],
      "name": "renounceOwnership",
      "outputs": [],
      "stateMutability": "nonpayable",
      "type": "function"
    },
    {
      "inputs": [
        {
          "components": [
            {
              "internalType": "address",
              "name": "communityRulesAddress",
              "type": "address"
            },
            {
              "internalType": "address",
              "name": "regeneratorRulesAddress",
              "type": "address"
            },
            {
              "internalType": "address",
              "name": "inspectorRulesAddress",
              "type": "address"
            },
            {
              "internalType": "address",
              "name": "developerRulesAddress",
              "type": "address"
            },
            {
              "internalType": "address",
              "name": "researcherRulesAddress",
              "type": "address"
            },
            {
              "internalType": "address",
              "name": "contributorRulesAddress",
              "type": "address"
            },
            {
              "internalType": "address",
              "name": "activistRulesAddress",
              "type": "address"
            },
            {
              "internalType": "address",
              "name": "voteRulesAddress",
              "type": "address"
            }
          ],
          "internalType": "struct ContractsDependency",
          "name": "contractDependency",
          "type": "tuple"
        }
      ],
      "name": "setContractInterfaces",
      "outputs": [],
      "stateMutability": "nonpayable",
      "type": "function"
    },
    {
      "inputs": [],
      "name": "timeBetweenVotes",
      "outputs": [
        {
          "internalType": "uint256",
          "name": "",
          "type": "uint256"
        }
      ],
      "stateMutability": "view",
      "type": "function"
    },
    {
      "inputs": [
        {
          "internalType": "address",
          "name": "newOwner",
          "type": "address"
        }
      ],
      "name": "transferOwnership",
      "outputs": [],
      "stateMutability": "nonpayable",
      "type": "function"
    },
    {
      "inputs": [
        {
          "internalType": "address",
          "name": "validatorAddress",
          "type": "address"
        }
      ],
      "name": "updateValidatorLastVoteBlock",
      "outputs": [],
      "stateMutability": "nonpayable",
      "type": "function"
    },
    {
      "inputs": [
        {
          "internalType": "address",
          "name": "",
          "type": "address"
        },
        {
          "internalType": "uint256",
          "name": "",
          "type": "uint256"
        }
      ],
      "name": "userValidations",
      "outputs": [
        {
          "internalType": "uint256",
          "name": "",
          "type": "uint256"
        }
      ],
      "stateMutability": "view",
      "type": "function"
    },
    {
      "inputs": [
        {
          "internalType": "address",
          "name": "",
          "type": "address"
        }
      ],
      "name": "validatorLastVoteAt",
      "outputs": [
        {
          "internalType": "uint256",
          "name": "",
          "type": "uint256"
        }
      ],
      "stateMutability": "view",
      "type": "function"
    },
    {
      "inputs": [],
      "name": "votesToInvalidate",
      "outputs": [
        {
          "internalType": "uint256",
          "name": "",
          "type": "uint256"
        }
      ],
      "stateMutability": "view",
      "type": "function"
    },
    {
      "inputs": [
        {
          "internalType": "address",
          "name": "validatorAddress",
          "type": "address"
        }
      ],
      "name": "waitedTimeBetweenVotes",
      "outputs": [
        {
          "internalType": "bool",
          "name": "",
          "type": "bool"
        }
      ],
      "stateMutability": "view",
      "type": "function"
    }
  ],
  "bytecode": "0x60a060405234801561001057600080fd5b50604051611b10380380611b1083398101604081905261002f916100bc565b338061005557604051631e4fbdf760e01b81526000600482015260240160405180910390fd5b61005e8161006c565b5060016002556080526100d5565b600080546001600160a01b038381166001600160a01b0319831681178455604051919092169283917f8be0079c531659141344cd1fd0a4f28419497f9722a3daafe3b4186f6b6457e09190a35050565b6000602082840312156100ce57600080fd5b5051919050565b608051611a196100f76000396000818161011401526103640152611a196000f3fe608060405234801561001057600080fd5b50600436106100f55760003560e01c80638da5cb5b11610097578063c6c9b9b411610066578063c6c9b9b414610244578063eb48556b14610257578063f2fde38b1461026a578063f9e056901461027d57600080fd5b80638da5cb5b146101ca5780638f93716f146101e5578063a6801258146101f8578063bdac344f1461022457600080fd5b8063361119ac116100d3578063361119ac1461017457806369bf81c314610197578063715018a61461019f5780637b334154146101a757600080fd5b80631422b783146100fa57806321e3c5bb1461010f5780632c885cfd14610149575b600080fd5b61010d6101083660046113cc565b610290565b005b6101367f000000000000000000000000000000000000000000000000000000000000000081565b6040519081526020015b60405180910390f35b610136610157366004611474565b600360209081526000928352604080842090915290825290205481565b6101876101823660046114a0565b610345565b6040519015158152602001610140565b61013661039f565b61010d61046a565b6101876101b53660046114a0565b60016020526000908152604090205460ff1681565b6000546040516001600160a01b039091168152602001610140565b61010d6101f33660046114a0565b61047e565b6101876102063660046114a0565b6001600160a01b031660009081526001602052604090205460ff1690565b6101366102323660046114a0565b60056020526000908152604090205481565b610136610252366004611474565b6104ad565b61010d6102653660046114a0565b6104d8565b61010d6102783660046114a0565b61054d565b61010d61028b3660046114e5565b61058b565b610298610a0b565b8051600680546001600160a01b03199081166001600160a01b03938416179091556020830151600780548316918416919091179055604083015160088054831691841691909117905560608301516009805483169184169190911790556080830151600a8054831691841691909117905560a0830151600b8054831691841691909117905560c0830151600c8054831691841691909117905560e090920151600d80549093169116179055565b6001600160a01b038116600090815260056020526040812054816103897f00000000000000000000000000000000000000000000000000000000000000008361158e565b431190508080610397575081155b949350505050565b600080600660009054906101000a90046001600160a01b03166001600160a01b03166398c079386040518163ffffffff1660e01b8152600401602060405180830381865afa1580156103f5573d6000803e3d6000fd5b505050506040513d601f19601f8201168201806040525081019061041991906115a1565b9050601981101561042c57506002919050565b60fa81101561043d57506005919050565b6000606461044c6002846115ba565b61045691906115d1565b905061046381600161158e565b9250505090565b610472610a0b565b61047c6000610a38565b565b610486610a0b565b6001600160a01b03166000908152600160208190526040909120805460ff19169091179055565b6001600160a01b03821660009081526003602090815260408083208484529091529020545b92915050565b3360009081526001602052604090205460ff166105315760405162461bcd60e51b81526020600482015260126024820152712737ba1030b63637bbb2b21031b0b63632b960711b60448201526064015b60405180910390fd5b6001600160a01b03166000908152600560205260409020439055565b610555610a0b565b6001600160a01b03811661057f57604051631e4fbdf760e01b815260006004820152602401610528565b61058881610a38565b50565b610593610a88565b805161012c10156105d75760405162461bcd60e51b815260206004820152600e60248201526d4d6178206368617261637465727360901b6044820152606401610528565b600d546040516356fd539760e11b81523360048201526001600160a01b039091169063adfaa72e90602401602060405180830381865afa15801561061f573d6000803e3d6000fd5b505050506040513d601f19601f820116820180604052508101906106439190611603565b61067d5760405162461bcd60e51b815260206004820152600b60248201526a2737ba1030903b37ba32b960a91b6044820152606401610528565b600654604051631292f8c160e31b81526001600160a01b0390911690639497c608906106b0906000908690600401611634565b602060405180830381865afa1580156106cd573d6000803e3d6000fd5b505050506040513d601f19601f820116820180604052508101906106f19190611603565b156107345760405162461bcd60e51b8152602060048201526013602482015272155cd95c881b9bdd081c9959da5cdd195c9959606a1b6044820152606401610528565b60065460405163e838dfbb60e01b81526001600160a01b0384811660048301529091169063e838dfbb90602401602060405180830381865afa15801561077e573d6000803e3d6000fd5b505050506040513d601f19601f820116820180604052508101906107a29190611603565b156107e55760405162461bcd60e51b8152602060048201526013602482015272155cd95c88185b1c9958591e4819195b9a5959606a1b6044820152606401610528565b6107ee82610ab0565b61084e5760405162461bcd60e51b815260206004820152602b60248201527f526567656e657261746f722068617320726561636865642076616c696461746960448201526a6f6e20696d6d756e69747960a81b6064820152608401610528565b600061085983610bb2565b3360009081526004602090815260408083206001600160a01b0388168452825280832084845290915290205490915060ff16156108c85760405162461bcd60e51b815260206004820152600d60248201526c105b1c9958591e481d9bdd1959609a1b6044820152606401610528565b6108d133610345565b6109155760405162461bcd60e51b8152602060048201526015602482015274576169742074696d654265747765656e566f74657360581b6044820152606401610528565b3360008181526004602090815260408083206001600160a01b0388168085529083528184208685528352818420805460ff19166001179055938352600582528083204390559282526003815282822084835290529081208054916109788361166e565b9190505550600061098761039f565b6001600160a01b0385166000818152600360209081526040808320878452909152908190205490519293509133907f8cb53ba58e6b58f4456b623f61a5b8776a23ac36733b731d50fd9e40ee39c0fc906109e29088906116ab565b60405180910390a38181106109fa576109fa85610edf565b505050610a076001600255565b5050565b6000546001600160a01b0316331461047c5760405163118cdaa760e01b8152336004820152602401610528565b600080546001600160a01b038381166001600160a01b0319831681178455604051919092169283917f8be0079c531659141344cd1fd0a4f28419497f9722a3daafe3b4186f6b6457e09190a35050565b6002805403610aaa57604051633ee5aeb560e01b815260040160405180910390fd5b60028055565b600654604051631292f8c160e31b81526000916001600160a01b031690639497c60890610ae4906001908690600401611634565b602060405180830381865afa158015610b01573d6000803e3d6000fd5b505050506040513d601f19601f82011682018060405250810190610b259190611603565b610b3157506001919050565b60075460405163065ab21b60e41b81526001600160a01b03848116600483015260009216906365ab21b090602401600060405180830381865afa158015610b7c573d6000803e3d6000fd5b505050506040513d6000823e601f3d908101601f19168201604052610ba491908101906117f3565b60c001516006119392505050565b600654604051636f77926b60e01b81526001600160a01b0383811660048301526000928392911690636f77926b90602401602060405180830381865afa158015610c00573d6000803e3d6000fd5b505050506040513d601f19601f82011682018060405250810190610c24919061194a565b90506006816007811115610c3a57610c3a61161e565b03610cbd57600c60009054906101000a90046001600160a01b03166001600160a01b031663e05cf1556040518163ffffffff1660e01b8152600401602060405180830381865afa158015610c92573d6000803e3d6000fd5b505050506040513d601f19601f82011682018060405250810190610cb691906115a1565b9392505050565b6005816007811115610cd157610cd161161e565b03610d2957600b60009054906101000a90046001600160a01b03166001600160a01b031663e05cf1556040518163ffffffff1660e01b8152600401602060405180830381865afa158015610c92573d6000803e3d6000fd5b6004816007811115610d3d57610d3d61161e565b03610d9557600960009054906101000a90046001600160a01b03166001600160a01b031663e05cf1556040518163ffffffff1660e01b8152600401602060405180830381865afa158015610c92573d6000803e3d6000fd5b6002816007811115610da957610da961161e565b03610e0157600860009054906101000a90046001600160a01b03166001600160a01b031663e05cf1556040518163ffffffff1660e01b8152600401602060405180830381865afa158015610c92573d6000803e3d6000fd5b6003816007811115610e1557610e1561161e565b03610e6d57600a60009054906101000a90046001600160a01b03166001600160a01b031663e05cf1556040518163ffffffff1660e01b8152600401602060405180830381865afa158015610c92573d6000803e3d6000fd5b6001816007811115610e8157610e8161161e565b03610ed957600760009054906101000a90046001600160a01b03166001600160a01b031663e05cf1556040518163ffffffff1660e01b8152600401602060405180830381865afa158015610c92573d6000803e3d6000fd5b50919050565b600654604051636f77926b60e01b81526001600160a01b0383811660048301526000921690636f77926b90602401602060405180830381865afa158015610f2a573d6000803e3d6000fd5b505050506040513d601f19601f82011682018060405250810190610f4e919061194a565b60065460405163e838dfbb60e01b81526001600160a01b03858116600483015292935091169063e838dfbb90602401602060405180830381865afa158015610f9a573d6000803e3d6000fd5b505050506040513d601f19601f82011682018060405250810190610fbe9190611603565b15610fc7575050565b600654604051634acf78e960e11b81526001600160a01b0384811660048301529091169063959ef1d290602401600060405180830381600087803b15801561100e57600080fd5b505af1158015611022573d6000803e3d6000fd5b505060065460405163158bdc5f60e11b81526001600160a01b038681166004830152600094509091169150632b17b8be90602401608060405180830381865afa158015611073573d6000803e3d6000fd5b505050506040513d601f19601f820116820180604052508101906110979190611965565b60208101519091506001600160a01b031615611111576006546020820151604051636101bf2160e01b81526001600160a01b039182166004820152911690636101bf2190602401600060405180830381600087803b1580156110f857600080fd5b505af115801561110c573d6000803e3d6000fd5b505050505b60018260078111156111255761112561161e565b0361118f57600754604051637c9787c760e11b81526001600160a01b0385811660048301529091169063f92f0f8e906024015b600060405180830381600087803b15801561117257600080fd5b505af1158015611186573d6000803e3d6000fd5b50505050505050565b60028260078111156111a3576111a361161e565b036111e1576008546040516310c791e560e11b81526001600160a01b038581166004830152600160248301529091169063218f23ca90604401611158565b60048260078111156111f5576111f561161e565b0361122c57600954604051637c9787c760e11b81526001600160a01b0385811660048301529091169063f92f0f8e90602401611158565b60038260078111156112405761124061161e565b0361127757600a54604051637c9787c760e11b81526001600160a01b0385811660048301529091169063f92f0f8e90602401611158565b600582600781111561128b5761128b61161e565b036112c257600b54604051637c9787c760e11b81526001600160a01b0385811660048301529091169063f92f0f8e90602401611158565b60068260078111156112d6576112d661161e565b0361130d57600c54604051637c9787c760e11b81526001600160a01b0385811660048301529091169063f92f0f8e90602401611158565b505050565b634e487b7160e01b600052604160045260246000fd5b604051610100810167ffffffffffffffff8111828210171561134c5761134c611312565b60405290565b6040516101a0810167ffffffffffffffff8111828210171561134c5761134c611312565b604051601f8201601f1916810167ffffffffffffffff8111828210171561139f5761139f611312565b604052919050565b6001600160a01b038116811461058857600080fd5b80356113c7816113a7565b919050565b60006101008284031280156113e057600080fd5b506113e9611328565b82356113f4816113a7565b8152611402602084016113bc565b6020820152611413604084016113bc565b6040820152611424606084016113bc565b6060820152611435608084016113bc565b608082015261144660a084016113bc565b60a082015261145760c084016113bc565b60c082015261146860e084016113bc565b60e08201529392505050565b6000806040838503121561148757600080fd5b8235611492816113a7565b946020939093013593505050565b6000602082840312156114b257600080fd5b8135610cb6816113a7565b600067ffffffffffffffff8211156114d7576114d7611312565b50601f01601f191660200190565b600080604083850312156114f857600080fd5b8235611503816113a7565b9150602083013567ffffffffffffffff81111561151f57600080fd5b8301601f8101851361153057600080fd5b803561154361153e826114bd565b611376565b81815286602083850101111561155857600080fd5b816020840160208301376000602083830101528093505050509250929050565b634e487b7160e01b600052601160045260246000fd5b808201808211156104d2576104d2611578565b6000602082840312156115b357600080fd5b5051919050565b80820281158282048414176104d2576104d2611578565b6000826115ee57634e487b7160e01b600052601260045260246000fd5b500490565b805180151581146113c757600080fd5b60006020828403121561161557600080fd5b610cb6826115f3565b634e487b7160e01b600052602160045260246000fd5b604081016008841061165657634e487b7160e01b600052602160045260246000fd5b9281526001600160a01b039190911660209091015290565b60006001820161168057611680611578565b5060010190565b60005b838110156116a257818101518382015260200161168a565b50506000910152565b60208152600082518060208401526116ca816040850160208701611687565b601f01601f19169190910160400192915050565b805167ffffffffffffffff811681146113c757600080fd5b80516113c7816113a7565b600082601f83011261171257600080fd5b815161172061153e826114bd565b81815284602083860101111561173557600080fd5b610397826020830160208701611687565b805163ffffffff811681146113c757600080fd5b60006020828403121561176c57600080fd5b6040516020810167ffffffffffffffff8111828210171561178f5761178f611312565b6040529151825250919050565b6000604082840312156117ae57600080fd5b6040805190810167ffffffffffffffff811182821017156117d1576117d1611312565b6040529050806117e0836115f3565b8152602092830151920191909152919050565b60006020828403121561180557600080fd5b815167ffffffffffffffff81111561181c57600080fd5b82016101c0818503121561182f57600080fd5b611837611352565b611840826116de565b815261184e602083016116f6565b6020820152604082015167ffffffffffffffff81111561186d57600080fd5b61187986828501611701565b604083015250606082015167ffffffffffffffff81111561189957600080fd5b6118a586828501611701565b6060830152506118b760808301611746565b60808201526118c860a083016115f3565b60a082015260c0828101519082015260e080830151908201526118ef85610100840161175a565b61010082015261190385610120840161179c565b610120820152610160828101516101408301526101808301519082015261192d6101a083016115f3565b610180820152949350505050565b8051600881106113c757600080fd5b60006020828403121561195c57600080fd5b610cb68261193b565b6000608082840312801561197857600080fd5b506040516080810167ffffffffffffffff8111828210171561199c5761199c611312565b60405282516119aa816113a7565b815260208301516119ba816113a7565b60208201526119cb6040840161193b565b6040820152606092830151928101929092525091905056fea26469706673582212208c0bd8b6c0fb9a00859ad44491b6afc13231e998aa1b43e5a439a1394d76c60b64736f6c634300081b0033",
  "linkReferences": {},
  "deployedLinkReferences": {}
}