{
  "_format": "hh-sol-artifact-1",
  "contractName": "ValidationPool",
  "sourceName": "contracts/ValidationPool.sol",
  "abi": [
    {
      "inputs": [
        {
          "internalType": "address",
          "name": "regenerationCreditAddress",
          "type": "address"
        },
        {
          "internalType": "uint256",
          "name": "_halving",
          "type": "uint256"
        },
        {
          "internalType": "uint256",
          "name": "_blocksPerEra",
          "type": "uint256"
        }
      ],
      "stateMutability": "nonpayable",
      "type": "constructor"
    },
    {
      "inputs": [
        {
          "internalType": "address",
          "name": "owner",
          "type": "address"
        }
      ],
      "name": "OwnableInvalidOwner",
      "type": "error"
    },
    {
      "inputs": [
        {
          "internalType": "address",
          "name": "account",
          "type": "address"
        }
      ],
      "name": "OwnableUnauthorizedAccount",
      "type": "error"
    },
    {
      "inputs": [],
      "name": "ReentrancyGuardReentrantCall",
      "type": "error"
    },
    {
      "anonymous": false,
      "inputs": [
        {
          "indexed": true,
          "internalType": "address",
          "name": "previousOwner",
          "type": "address"
        },
        {
          "indexed": true,
          "internalType": "address",
          "name": "newOwner",
          "type": "address"
        }
      ],
      "name": "OwnershipTransferred",
      "type": "event"
    },
    {
      "anonymous": false,
      "inputs": [
        {
          "indexed": true,
          "internalType": "address",
          "name": "user",
          "type": "address"
        },
        {
          "indexed": false,
          "internalType": "uint256",
          "name": "era",
          "type": "uint256"
        },
        {
          "indexed": false,
          "internalType": "uint256",
          "name": "levelsAdded",
          "type": "uint256"
        },
        {
          "indexed": false,
          "internalType": "uint256",
          "name": "newTotalEraLevels",
          "type": "uint256"
        },
        {
          "indexed": false,
          "internalType": "uint256",
          "name": "newEraUserLevels",
          "type": "uint256"
        }
      ],
      "name": "PoolLevelAdded",
      "type": "event"
    },
    {
      "anonymous": false,
      "inputs": [
        {
          "indexed": true,
          "internalType": "address",
          "name": "user",
          "type": "address"
        },
        {
          "indexed": false,
          "internalType": "uint256",
          "name": "era",
          "type": "uint256"
        },
        {
          "indexed": false,
          "internalType": "uint256",
          "name": "levelsRemoved",
          "type": "uint256"
        },
        {
          "indexed": false,
          "internalType": "uint256",
          "name": "newTotalEraLevels",
          "type": "uint256"
        },
        {
          "indexed": false,
          "internalType": "uint256",
          "name": "newEraUserLevels",
          "type": "uint256"
        }
      ],
      "name": "PoolLevelRemoved",
      "type": "event"
    },
    {
      "anonymous": false,
      "inputs": [
        {
          "indexed": true,
          "internalType": "address",
          "name": "user",
          "type": "address"
        },
        {
          "indexed": false,
          "internalType": "uint256",
          "name": "era",
          "type": "uint256"
        },
        {
          "indexed": false,
          "internalType": "uint256",
          "name": "amount",
          "type": "uint256"
        }
      ],
      "name": "TokensWithdrawn",
      "type": "event"
    },
    {
      "inputs": [],
      "name": "BLOCKS_PRECISION",
      "outputs": [
        {
          "internalType": "uint256",
          "name": "",
          "type": "uint256"
        }
      ],
      "stateMutability": "view",
      "type": "function"
    },
    {
      "inputs": [
        {
          "internalType": "address",
          "name": "addr",
          "type": "address"
        },
        {
          "internalType": "address",
          "name": "denied",
          "type": "address"
        }
      ],
      "name": "addLevel",
      "outputs": [],
      "stateMutability": "nonpayable",
      "type": "function"
    },
    {
      "inputs": [
        {
          "internalType": "address",
          "name": "",
          "type": "address"
        }
      ],
      "name": "allowedCallers",
      "outputs": [
        {
          "internalType": "bool",
          "name": "",
          "type": "bool"
        }
      ],
      "stateMutability": "view",
      "type": "function"
    },
    {
      "inputs": [
        {
          "internalType": "uint256",
          "name": "currentUserEra",
          "type": "uint256"
        }
      ],
      "name": "canWithdraw",
      "outputs": [
        {
          "internalType": "bool",
          "name": "",
          "type": "bool"
        }
      ],
      "stateMutability": "view",
      "type": "function"
    },
    {
      "inputs": [
        {
          "internalType": "uint256",
          "name": "currentUserEra",
          "type": "uint256"
        }
      ],
      "name": "canWithdrawTimes",
      "outputs": [
        {
          "internalType": "uint256",
          "name": "",
          "type": "uint256"
        }
      ],
      "stateMutability": "view",
      "type": "function"
    },
    {
      "inputs": [],
      "name": "currentContractEra",
      "outputs": [
        {
          "internalType": "uint256",
          "name": "",
          "type": "uint256"
        }
      ],
      "stateMutability": "view",
      "type": "function"
    },
    {
      "inputs": [],
      "name": "currentEpoch",
      "outputs": [
        {
          "internalType": "uint256",
          "name": "",
          "type": "uint256"
        }
      ],
      "stateMutability": "view",
      "type": "function"
    },
    {
      "inputs": [
        {
          "internalType": "uint256",
          "name": "",
          "type": "uint256"
        },
        {
          "internalType": "address",
          "name": "",
          "type": "address"
        }
      ],
      "name": "eraLevels",
      "outputs": [
        {
          "internalType": "uint256",
          "name": "",
          "type": "uint256"
        }
      ],
      "stateMutability": "view",
      "type": "function"
    },
    {
      "inputs": [
        {
          "internalType": "uint256",
          "name": "",
          "type": "uint256"
        },
        {
          "internalType": "address",
          "name": "",
          "type": "address"
        }
      ],
      "name": "eraTokens",
      "outputs": [
        {
          "internalType": "uint256",
          "name": "",
          "type": "uint256"
        }
      ],
      "stateMutability": "view",
      "type": "function"
    },
    {
      "inputs": [
        {
          "internalType": "uint256",
          "name": "",
          "type": "uint256"
        }
      ],
      "name": "eras",
      "outputs": [
        {
          "internalType": "uint256",
          "name": "claimsCount",
          "type": "uint256"
        },
        {
          "internalType": "uint256",
          "name": "tokens",
          "type": "uint256"
        },
        {
          "internalType": "uint256",
          "name": "levels",
          "type": "uint256"
        }
      ],
      "stateMutability": "view",
      "type": "function"
    },
    {
      "inputs": [
        {
          "internalType": "uint256",
          "name": "era",
          "type": "uint256"
        }
      ],
      "name": "getEpochForEra",
      "outputs": [
        {
          "internalType": "uint256",
          "name": "",
          "type": "uint256"
        }
      ],
      "stateMutability": "view",
      "type": "function"
    },
    {
      "inputs": [
        {
          "internalType": "uint256",
          "name": "era",
          "type": "uint256"
        }
      ],
      "name": "getEra",
      "outputs": [
        {
          "components": [
            {
              "internalType": "uint256",
              "name": "claimsCount",
              "type": "uint256"
            },
            {
              "internalType": "uint256",
              "name": "tokens",
              "type": "uint256"
            },
            {
              "internalType": "uint256",
              "name": "levels",
              "type": "uint256"
            }
          ],
          "internalType": "struct Era",
          "name": "",
          "type": "tuple"
        }
      ],
      "stateMutability": "view",
      "type": "function"
    },
    {
      "inputs": [
        {
          "internalType": "address",
          "name": "",
          "type": "address"
        }
      ],
      "name": "hasProcessedLevel",
      "outputs": [
        {
          "internalType": "bool",
          "name": "",
          "type": "bool"
        }
      ],
      "stateMutability": "view",
      "type": "function"
    },
    {
      "inputs": [
        {
          "internalType": "uint256",
          "name": "",
          "type": "uint256"
        },
        {
          "internalType": "address",
          "name": "",
          "type": "address"
        }
      ],
      "name": "hasWithdrawn",
      "outputs": [
        {
          "internalType": "bool",
          "name": "",
          "type": "bool"
        }
      ],
      "stateMutability": "view",
      "type": "function"
    },
    {
      "inputs": [
        {
          "internalType": "address",
          "name": "delegate",
          "type": "address"
        },
        {
          "internalType": "uint256",
          "name": "era",
          "type": "uint256"
        }
      ],
      "name": "haveTokensToWithdraw",
      "outputs": [
        {
          "internalType": "bool",
          "name": "",
          "type": "bool"
        }
      ],
      "stateMutability": "view",
      "type": "function"
    },
    {
      "inputs": [
        {
          "internalType": "address",
          "name": "caller",
          "type": "address"
        }
      ],
      "name": "isAllowedCaller",
      "outputs": [
        {
          "internalType": "bool",
          "name": "",
          "type": "bool"
        }
      ],
      "stateMutability": "view",
      "type": "function"
    },
    {
      "inputs": [
        {
          "internalType": "address",
          "name": "allowed",
          "type": "address"
        }
      ],
      "name": "newAllowedCaller",
      "outputs": [],
      "stateMutability": "nonpayable",
      "type": "function"
    },
    {
      "inputs": [
        {
          "internalType": "uint256",
          "name": "targetEra",
          "type": "uint256"
        }
      ],
      "name": "nextEraIn",
      "outputs": [
        {
          "internalType": "int256",
          "name": "",
          "type": "int256"
        }
      ],
      "stateMutability": "view",
      "type": "function"
    },
    {
      "inputs": [],
      "name": "owner",
      "outputs": [
        {
          "internalType": "address",
          "name": "",
          "type": "address"
        }
      ],
      "stateMutability": "view",
      "type": "function"
    },
    {
      "inputs": [],
      "name": "renounceOwnership",
      "outputs": [],
      "stateMutability": "nonpayable",
      "type": "function"
    },
    {
      "inputs": [
        {
          "internalType": "address",
          "name": "_validationRulesAddress",
          "type": "address"
        }
      ],
      "name": "setContractCall",
      "outputs": [],
      "stateMutability": "nonpayable",
      "type": "function"
    },
    {
      "inputs": [
        {
          "internalType": "uint256",
          "name": "currentEpoch",
          "type": "uint256"
        }
      ],
      "name": "tokensPerEpoch",
      "outputs": [
        {
          "internalType": "uint256",
          "name": "",
          "type": "uint256"
        }
      ],
      "stateMutability": "view",
      "type": "function"
    },
    {
      "inputs": [
        {
          "internalType": "uint256",
          "name": "currentEpoch",
          "type": "uint256"
        },
        {
          "internalType": "uint256",
          "name": "halvingFactor",
          "type": "uint256"
        }
      ],
      "name": "tokensPerEra",
      "outputs": [
        {
          "internalType": "uint256",
          "name": "",
          "type": "uint256"
        }
      ],
      "stateMutability": "view",
      "type": "function"
    },
    {
      "inputs": [
        {
          "internalType": "address",
          "name": "newOwner",
          "type": "address"
        }
      ],
      "name": "transferOwnership",
      "outputs": [],
      "stateMutability": "nonpayable",
      "type": "function"
    },
    {
      "inputs": [
        {
          "internalType": "address",
          "name": "delegate",
          "type": "address"
        },
        {
          "internalType": "uint256",
          "name": "era",
          "type": "uint256"
        }
      ],
      "name": "withdraw",
      "outputs": [],
      "stateMutability": "nonpayable",
      "type": "function"
    }
  ],
  "bytecode": "0x61010060405234801561001157600080fd5b50604051611421380380611421833981016040819052610030916100fb565b6a0422ca8b0a00a42500000060805260a08190524360c05260e0829052338061007357604051631e4fbdf760e01b81526000600482015260240160405180910390fd5b61007c816100a9565b5050600160065550600780546001600160a01b0319166001600160a01b039290921691909117905561013e565b600480546001600160a01b038381166001600160a01b0319831681179093556040519116919082907f8be0079c531659141344cd1fd0a4f28419497f9722a3daafe3b4186f6b6457e090600090a35050565b60008060006060848603121561011057600080fd5b83516001600160a01b038116811461012757600080fd5b602085015160409095015190969495509392505050565b60805160a05160c05160e05161128e610193600039600081816105ac01526107cb01526000818161089701526108d60152600081816107050152818161086c015261090201526000610607015261128e6000f3fe608060405234801561001057600080fd5b50600436106101735760003560e01c806388b3acae116100de578063b86c569911610097578063f2fde38b11610071578063f2fde38b146103cd578063f3fef3a3146103e0578063fbe85f06146103f3578063ff39043c1461040657600080fd5b8063b86c56991461039f578063d5ee3eb5146103b2578063ed0df79e146103c557600080fd5b806388b3acae146102c95780638da5cb5b146102f45780638f93716f1461030f57806394cec7a714610322578063a680125814610350578063b1c290261461037c57600080fd5b8063720a70bd11610130578063720a70bd14610226578063755d4f971461027057806376671808146102835780637721f1b51461028b5780637b3341541461029e578063861b4ce1146102c157600080fd5b80630d149070146101785780630f2dbe601461018d5780631f14f415146101b55780632506b932146101d65780632eedcb18146101e9578063715018a61461021e575b600080fd5b61018b610186366004610f9c565b610431565b005b6101a061019b366004610fcf565b610597565b60405190151581526020015b60405180910390f35b6101c86101c3366004610ff9565b6105de565b6040519081526020016101ac565b6101c86101e436600461101b565b6105f4565b6101fc6101f736600461101b565b61062b565b60408051825181526020808401519082015291810151908201526060016101ac565b61018b610686565b61025561023436600461101b565b60006020819052908152604090208054600182015460029092015490919083565b604080519384526020840192909252908201526060016101ac565b61018b61027e366004611034565b61069a565b6101c86106c4565b6101c861029936600461101b565b6106d6565b6101a06102ac366004611034565b60056020526000908152604090205460ff1681565b6101c8600581565b6101c86102d736600461104f565b600160209081526000928352604080842090915290825290205481565b6004546040516001600160a01b0390911681526020016101ac565b61018b61031d366004611034565b61074c565b6101a061033036600461104f565b600360209081526000928352604080842090915290825290205460ff1681565b6101a061035e366004611034565b6001600160a01b031660009081526005602052604090205460ff1690565b6101a061038a366004611034565b60096020526000908152604090205460ff1681565b6101c86103ad36600461101b565b610778565b6101c86103c036600461101b565b61080a565b6101c86108ce565b61018b6103db366004611034565b610938565b61018b6103ee366004610fcf565b610976565b6101a061040136600461101b565b610cd0565b6101c861041436600461104f565b600260209081526000928352604080842090915290825290205481565b3360009081526005602052604090205460ff1661048a5760405162461bcd60e51b81526020600482015260126024820152712737ba1030b63637bbb2b21031b0b63632b960711b60448201526064015b60405180910390fd5b6008546001600160a01b03163381146104e55760405162461bcd60e51b815260206004820152601e60248201527f43616c6c6572206d7573742062652073797374656d20636f6e747261637400006044820152606401610481565b6104ed610ce2565b6001600160a01b03821660009081526009602052604090205460ff161561054f5760405162461bcd60e51b8152602060048201526016602482015275155cd95c88185b1c9958591e481c1c9bd8d95cdcd95960521b6044820152606401610481565b6001600160a01b0382166000908152600960205260409020805460ff191660019081179091556105889084906105836108ce565b610d0c565b6105926001600655565b505050565b60006105d583836105d06105aa86610778565b7f00000000000000000000000000000000000000000000000000000000000000006105de565b610de2565b90505b92915050565b6000816105ea846105f4565b6105d59190611088565b6000610601826002611191565b6105d8907f0000000000000000000000000000000000000000000000000000000000000000611088565b61064f60405180606001604052806000815260200160008152602001600081525090565b5060009081526020818152604091829020825160608101845281548152600182015492810192909252600201549181019190915290565b61068e610dfb565b6106986000610e28565b565b6106a2610dfb565b600880546001600160a01b0319166001600160a01b0392909216919091179055565b60006106d16103ad6108ce565b905090565b6000806106e28361080a565b905060008113156106f65750600092915050565b60006107018261119d565b90507f00000000000000000000000000000000000000000000000000000000000000006107306005600a611191565b61073a90836111b9565b6107449190611088565b949350505050565b610754610dfb565b6001600160a01b03166000908152600560205260409020805460ff19166001179055565b60008082116107c95760405162461bcd60e51b815260206004820152601a60248201527f457261206d7573742062652067726561746572207468616e20300000000000006044820152606401610481565b7f00000000000000000000000000000000000000000000000000000000000000006107f56001846111d0565b6107ff9190611088565b6105d89060016111e3565b60008082116108655760405162461bcd60e51b815260206004820152602160248201527f54617267657420657261206d7573742062652067726561746572207468616e206044820152600360fc1b6064820152608401610481565b60006108917f0000000000000000000000000000000000000000000000000000000000000000846111b9565b6108bb907f00000000000000000000000000000000000000000000000000000000000000006111e3565b90506108c743826111f6565b9392505050565b6000806108fb7f0000000000000000000000000000000000000000000000000000000000000000436111d0565b90506109277f000000000000000000000000000000000000000000000000000000000000000082611088565b6109329060016111e3565b91505090565b610940610dfb565b6001600160a01b03811661096a57604051631e4fbdf760e01b815260006004820152602401610481565b61097381610e28565b50565b3360009081526005602052604090205460ff166109ca5760405162461bcd60e51b81526020600482015260126024820152712737ba1030b63637bbb2b21031b0b63632b960711b6044820152606401610481565b6008546001600160a01b0316338114610a255760405162461bcd60e51b815260206004820152601e60248201527f43616c6c6572206d7573742062652073797374656d20636f6e747261637400006044820152606401610481565b81610a2f81610cd0565b610a735760405162461bcd60e51b8152602060048201526015602482015274165bdd4818d85b89dd08185c1c1c9bdd99481e595d605a1b6044820152606401610481565b60008381526003602090815260408083206001600160a01b03881684529091529020548390859060ff1615610aea5760405162461bcd60e51b815260206004820152601e60248201527f416c72656164792077697468647261776e20666f7220746869732065726100006044820152606401610481565b610af2610ce2565b610afa6108ce565b851115610b3d5760405162461bcd60e51b815260206004820152601160248201527045726120696e207468652066757475726560781b6044820152606401610481565b60008581526003602090815260408083206001600160a01b038a1684529091528120805460ff19166001179055610b808688610b7b6105aa83610778565b610e7a565b9050610b8d868883610ee0565b80600003610b9b5750610cbe565b600754604051631caccb1d60e31b8152600481018390526001600160a01b039091169063e56658e890602401600060405180830381600087803b158015610be157600080fd5b505af1158015610bf5573d6000803e3d6000fd5b505060075460405163a9059cbb60e01b81526001600160a01b038b811660048301526024820186905260009450909116915063a9059cbb906044016020604051808303816000875af1158015610c4f573d6000803e3d6000fd5b505050506040513d601f19601f82011682018060405250810190610c73919061121d565b905080610cbb5760405162461bcd60e51b8152602060048201526016602482015275115490cc8c0e881d1c985b9cd9995c8819985a5b195960521b6044820152606401610481565b50505b610cc86001600655565b505050505050565b6000610cda6108ce565b909110919050565b600260065403610d0557604051633ee5aeb560e01b815260040160405180910390fd5b6002600655565b600081815260208190526040902060020154610d299083906111e3565b60008281526020818152604080832060020193909355600181528282206001600160a01b038716835290529081208054849290610d679084906111e3565b909155505060008181526020818152604080832060020154600183528184206001600160a01b038816808652908452938290205482518681529384018790529183015260608201527ffc6907b3f86e1e63de43e8e6af6345e03bbc9726a0f63eddb4021532417f78b1906080015b60405180910390a2505050565b600080610df0848685610e7a565b151595945050505050565b6004546001600160a01b031633146106985760405163118cdaa760e01b8152336004820152602401610481565b600480546001600160a01b038381166001600160a01b0319831681179093556040519116919082907f8be0079c531659141344cd1fd0a4f28419497f9722a3daafe3b4186f6b6457e090600090a35050565b60008381526020818152604080832060020154600183528184206001600160a01b0387168552909252822054801580610eb1575081155b15610ec1576000925050506108c7565b81610ecc85836111b9565b610ed69190611088565b9695505050505050565b6000838152602081905260408120805491610efa8361123f565b909155505060008381526020819052604081206001018054839290610f209084906111e3565b909155505060008381526002602090815260408083206001600160a01b0386168085529083529281902084905580518681529182018490527fffe903c0abe6b2dbb2f3474ef43d7a3c1fca49e5a774453423ca8e1952aabffa9101610dd5565b80356001600160a01b0381168114610f9757600080fd5b919050565b60008060408385031215610faf57600080fd5b610fb883610f80565b9150610fc660208401610f80565b90509250929050565b60008060408385031215610fe257600080fd5b610feb83610f80565b946020939093013593505050565b6000806040838503121561100c57600080fd5b50508035926020909101359150565b60006020828403121561102d57600080fd5b5035919050565b60006020828403121561104657600080fd5b6105d582610f80565b6000806040838503121561106257600080fd5b82359150610fc660208401610f80565b634e487b7160e01b600052601160045260246000fd5b6000826110a557634e487b7160e01b600052601260045260246000fd5b500490565b6001815b60018411156110e5578085048111156110c9576110c9611072565b60018416156110d757908102905b60019390931c9280026110ae565b935093915050565b6000826110fc575060016105d8565b81611109575060006105d8565b816001811461111f576002811461112957611145565b60019150506105d8565b60ff84111561113a5761113a611072565b50506001821b6105d8565b5060208310610133831016604e8410600b8410161715611168575081810a6105d8565b61117560001984846110aa565b806000190482111561118957611189611072565b029392505050565b60006105d583836110ed565b6000600160ff1b82016111b2576111b2611072565b5060000390565b80820281158282048414176105d8576105d8611072565b818103818111156105d8576105d8611072565b808201808211156105d8576105d8611072565b818103600083128015838313168383128216171561121657611216611072565b5092915050565b60006020828403121561122f57600080fd5b815180151581146108c757600080fd5b60006001820161125157611251611072565b506001019056fea26469706673582212206009265662c0ae0c1b990bda2c2c009618bf423924dee40a9bc0d300a023fe5d64736f6c634300081b0033",
  "linkReferences": {},
  "deployedLinkReferences": {}
}