{
  "_format": "hh-sol-artifact-1",
  "contractName": "ValidationRules",
  "sourceName": "contracts/ValidationRules.sol",
  "abi": [
    {
      "inputs": [
        {
          "internalType": "uint256",
          "name": "timeBetweenVotes_",
          "type": "uint256"
        }
      ],
      "stateMutability": "nonpayable",
      "type": "constructor"
    },
    {
      "inputs": [
        {
          "internalType": "address",
          "name": "owner",
          "type": "address"
        }
      ],
      "name": "OwnableInvalidOwner",
      "type": "error"
    },
    {
      "inputs": [
        {
          "internalType": "address",
          "name": "account",
          "type": "address"
        }
      ],
      "name": "OwnableUnauthorizedAccount",
      "type": "error"
    },
    {
      "inputs": [],
      "name": "ReentrancyGuardReentrantCall",
      "type": "error"
    },
    {
      "anonymous": false,
      "inputs": [
        {
          "indexed": true,
          "internalType": "address",
          "name": "_validatorAddress",
          "type": "address"
        },
        {
          "indexed": false,
          "internalType": "uint256",
          "name": "_resourceId",
          "type": "uint256"
        },
        {
          "indexed": false,
          "internalType": "string",
          "name": "_justification",
          "type": "string"
        }
      ],
      "name": "ContributionValidation",
      "type": "event"
    },
    {
      "anonymous": false,
      "inputs": [
        {
          "indexed": true,
          "internalType": "address",
          "name": "_validatorAddress",
          "type": "address"
        },
        {
          "indexed": false,
          "internalType": "uint256",
          "name": "_resourceId",
          "type": "uint256"
        },
        {
          "indexed": false,
          "internalType": "string",
          "name": "_justification",
          "type": "string"
        }
      ],
      "name": "InspectionValidation",
      "type": "event"
    },
    {
      "anonymous": false,
      "inputs": [
        {
          "indexed": true,
          "internalType": "address",
          "name": "previousOwner",
          "type": "address"
        },
        {
          "indexed": true,
          "internalType": "address",
          "name": "newOwner",
          "type": "address"
        }
      ],
      "name": "OwnershipTransferred",
      "type": "event"
    },
    {
      "anonymous": false,
      "inputs": [
        {
          "indexed": true,
          "internalType": "address",
          "name": "_validatorAddress",
          "type": "address"
        },
        {
          "indexed": false,
          "internalType": "uint256",
          "name": "_resourceId",
          "type": "uint256"
        },
        {
          "indexed": false,
          "internalType": "string",
          "name": "_justification",
          "type": "string"
        }
      ],
      "name": "ReportValidation",
      "type": "event"
    },
    {
      "anonymous": false,
      "inputs": [
        {
          "indexed": true,
          "internalType": "address",
          "name": "_validatorAddress",
          "type": "address"
        },
        {
          "indexed": false,
          "internalType": "uint256",
          "name": "_resourceId",
          "type": "uint256"
        },
        {
          "indexed": false,
          "internalType": "string",
          "name": "_justification",
          "type": "string"
        }
      ],
      "name": "ResearchValidation",
      "type": "event"
    },
    {
      "anonymous": false,
      "inputs": [
        {
          "indexed": false,
          "internalType": "string",
          "name": "_resourceType",
          "type": "string"
        },
        {
          "indexed": false,
          "internalType": "uint256",
          "name": "_resourceId",
          "type": "uint256"
        },
        {
          "indexed": true,
          "internalType": "address",
          "name": "_ownerAddress",
          "type": "address"
        },
        {
          "indexed": false,
          "internalType": "uint256",
          "name": "_penaltiesAdded",
          "type": "uint256"
        }
      ],
      "name": "ResourceInvalidated",
      "type": "event"
    },
    {
      "anonymous": false,
      "inputs": [
        {
          "indexed": true,
          "internalType": "address",
          "name": "_userAddress",
          "type": "address"
        }
      ],
      "name": "UserDenied",
      "type": "event"
    },
    {
      "anonymous": false,
      "inputs": [
        {
          "indexed": true,
          "internalType": "address",
          "name": "_validatorAddress",
          "type": "address"
        },
        {
          "indexed": true,
          "internalType": "address",
          "name": "_userAddress",
          "type": "address"
        },
        {
          "indexed": false,
          "internalType": "string",
          "name": "_justification",
          "type": "string"
        }
      ],
      "name": "UserValidation",
      "type": "event"
    },
    {
      "inputs": [
        {
          "components": [
            {
              "internalType": "uint64",
              "name": "id",
              "type": "uint64"
            },
            {
              "internalType": "uint256",
              "name": "era",
              "type": "uint256"
            },
            {
              "internalType": "address",
              "name": "user",
              "type": "address"
            },
            {
              "internalType": "string",
              "name": "description",
              "type": "string"
            },
            {
              "internalType": "string",
              "name": "report",
              "type": "string"
            },
            {
              "internalType": "uint256",
              "name": "validationsCount",
              "type": "uint256"
            },
            {
              "internalType": "bool",
              "name": "valid",
              "type": "bool"
            },
            {
              "internalType": "uint256",
              "name": "invalidatedAt",
              "type": "uint256"
            },
            {
              "internalType": "uint256",
              "name": "createdAtBlockNumber",
              "type": "uint256"
            }
          ],
          "internalType": "struct Contribution",
          "name": "contribution",
          "type": "tuple"
        },
        {
          "internalType": "string",
          "name": "justification",
          "type": "string"
        },
        {
          "internalType": "address",
          "name": "validatorAddress",
          "type": "address"
        }
      ],
      "name": "addContributionValidation",
      "outputs": [],
      "stateMutability": "nonpayable",
      "type": "function"
    },
    {
      "inputs": [
        {
          "components": [
            {
              "internalType": "uint64",
              "name": "id",
              "type": "uint64"
            },
            {
              "internalType": "enum InspectionStatus",
              "name": "status",
              "type": "uint8"
            },
            {
              "internalType": "address",
              "name": "regenerator",
              "type": "address"
            },
            {
              "internalType": "address",
              "name": "inspector",
              "type": "address"
            },
            {
              "internalType": "uint32",
              "name": "treesResult",
              "type": "uint32"
            },
            {
              "internalType": "uint32",
              "name": "biodiversityResult",
              "type": "uint32"
            },
            {
              "internalType": "uint32",
              "name": "regenerationScore",
              "type": "uint32"
            },
            {
              "internalType": "string",
              "name": "proofPhotos",
              "type": "string"
            },
            {
              "internalType": "string",
              "name": "justificationReport",
              "type": "string"
            },
            {
              "internalType": "uint256",
              "name": "validationsCount",
              "type": "uint256"
            },
            {
              "internalType": "uint256",
              "name": "createdAt",
              "type": "uint256"
            },
            {
              "internalType": "uint256",
              "name": "acceptedAt",
              "type": "uint256"
            },
            {
              "internalType": "uint256",
              "name": "inspectedAt",
              "type": "uint256"
            },
            {
              "internalType": "uint256",
              "name": "inspectedAtEra",
              "type": "uint256"
            },
            {
              "internalType": "uint256",
              "name": "invalidatedAt",
              "type": "uint256"
            }
          ],
          "internalType": "struct Inspection",
          "name": "inspection",
          "type": "tuple"
        },
        {
          "internalType": "string",
          "name": "justification",
          "type": "string"
        },
        {
          "internalType": "address",
          "name": "validatorAddress",
          "type": "address"
        }
      ],
      "name": "addInspectionValidation",
      "outputs": [],
      "stateMutability": "nonpayable",
      "type": "function"
    },
    {
      "inputs": [
        {
          "components": [
            {
              "internalType": "uint64",
              "name": "id",
              "type": "uint64"
            },
            {
              "internalType": "uint256",
              "name": "era",
              "type": "uint256"
            },
            {
              "internalType": "address",
              "name": "developer",
              "type": "address"
            },
            {
              "internalType": "string",
              "name": "description",
              "type": "string"
            },
            {
              "internalType": "string",
              "name": "report",
              "type": "string"
            },
            {
              "internalType": "uint256",
              "name": "validationsCount",
              "type": "uint256"
            },
            {
              "internalType": "bool",
              "name": "valid",
              "type": "bool"
            },
            {
              "internalType": "uint256",
              "name": "invalidatedAt",
              "type": "uint256"
            },
            {
              "internalType": "uint256",
              "name": "createdAtBlockNumber",
              "type": "uint256"
            }
          ],
          "internalType": "struct Report",
          "name": "report",
          "type": "tuple"
        },
        {
          "internalType": "string",
          "name": "justification",
          "type": "string"
        },
        {
          "internalType": "address",
          "name": "validatorAddress",
          "type": "address"
        }
      ],
      "name": "addReportValidation",
      "outputs": [],
      "stateMutability": "nonpayable",
      "type": "function"
    },
    {
      "inputs": [
        {
          "components": [
            {
              "internalType": "uint64",
              "name": "id",
              "type": "uint64"
            },
            {
              "internalType": "uint256",
              "name": "era",
              "type": "uint256"
            },
            {
              "internalType": "address",
              "name": "createdBy",
              "type": "address"
            },
            {
              "internalType": "string",
              "name": "title",
              "type": "string"
            },
            {
              "internalType": "string",
              "name": "thesis",
              "type": "string"
            },
            {
              "internalType": "string",
              "name": "file",
              "type": "string"
            },
            {
              "internalType": "uint256",
              "name": "validationsCount",
              "type": "uint256"
            },
            {
              "internalType": "bool",
              "name": "valid",
              "type": "bool"
            },
            {
              "internalType": "uint256",
              "name": "invalidatedAt",
              "type": "uint256"
            },
            {
              "internalType": "uint256",
              "name": "createdAtBlock",
              "type": "uint256"
            }
          ],
          "internalType": "struct Research",
          "name": "research",
          "type": "tuple"
        },
        {
          "internalType": "string",
          "name": "justification",
          "type": "string"
        },
        {
          "internalType": "address",
          "name": "validatorAddress",
          "type": "address"
        }
      ],
      "name": "addResearchValidation",
      "outputs": [],
      "stateMutability": "nonpayable",
      "type": "function"
    },
    {
      "inputs": [
        {
          "internalType": "address",
          "name": "userAddress",
          "type": "address"
        },
        {
          "internalType": "string",
          "name": "justification",
          "type": "string"
        }
      ],
      "name": "addUserValidation",
      "outputs": [],
      "stateMutability": "nonpayable",
      "type": "function"
    },
    {
      "inputs": [
        {
          "internalType": "address",
          "name": "",
          "type": "address"
        }
      ],
      "name": "allowedCallers",
      "outputs": [
        {
          "internalType": "bool",
          "name": "",
          "type": "bool"
        }
      ],
      "stateMutability": "view",
      "type": "function"
    },
    {
      "inputs": [
        {
          "internalType": "uint256",
          "name": "",
          "type": "uint256"
        }
      ],
      "name": "contributionAlreadyInvalidated",
      "outputs": [
        {
          "internalType": "bool",
          "name": "",
          "type": "bool"
        }
      ],
      "stateMutability": "view",
      "type": "function"
    },
    {
      "inputs": [
        {
          "internalType": "address",
          "name": "userAddress",
          "type": "address"
        },
        {
          "internalType": "uint256",
          "name": "currentEra",
          "type": "uint256"
        }
      ],
      "name": "getUserValidations",
      "outputs": [
        {
          "internalType": "uint256",
          "name": "",
          "type": "uint256"
        }
      ],
      "stateMutability": "view",
      "type": "function"
    },
    {
      "inputs": [
        {
          "internalType": "uint256",
          "name": "",
          "type": "uint256"
        }
      ],
      "name": "inspectionAlreadyInvalidated",
      "outputs": [
        {
          "internalType": "bool",
          "name": "",
          "type": "bool"
        }
      ],
      "stateMutability": "view",
      "type": "function"
    },
    {
      "inputs": [
        {
          "internalType": "address",
          "name": "caller",
          "type": "address"
        }
      ],
      "name": "isAllowedCaller",
      "outputs": [
        {
          "internalType": "bool",
          "name": "",
          "type": "bool"
        }
      ],
      "stateMutability": "view",
      "type": "function"
    },
    {
      "inputs": [
        {
          "internalType": "address",
          "name": "allowed",
          "type": "address"
        }
      ],
      "name": "newAllowedCaller",
      "outputs": [],
      "stateMutability": "nonpayable",
      "type": "function"
    },
    {
      "inputs": [],
      "name": "owner",
      "outputs": [
        {
          "internalType": "address",
          "name": "",
          "type": "address"
        }
      ],
      "stateMutability": "view",
      "type": "function"
    },
    {
      "inputs": [],
      "name": "renounceOwnership",
      "outputs": [],
      "stateMutability": "nonpayable",
      "type": "function"
    },
    {
      "inputs": [
        {
          "internalType": "uint256",
          "name": "",
          "type": "uint256"
        }
      ],
      "name": "reportAlreadyInvalidated",
      "outputs": [
        {
          "internalType": "bool",
          "name": "",
          "type": "bool"
        }
      ],
      "stateMutability": "view",
      "type": "function"
    },
    {
      "inputs": [
        {
          "internalType": "uint256",
          "name": "",
          "type": "uint256"
        }
      ],
      "name": "researchAlreadyInvalidated",
      "outputs": [
        {
          "internalType": "bool",
          "name": "",
          "type": "bool"
        }
      ],
      "stateMutability": "view",
      "type": "function"
    },
    {
      "inputs": [
        {
          "internalType": "address",
          "name": "_inspectionRulesAddress",
          "type": "address"
        },
        {
          "internalType": "address",
          "name": "_contributorRulesAddress",
          "type": "address"
        },
        {
          "internalType": "address",
          "name": "_developerRulesAddress",
          "type": "address"
        },
        {
          "internalType": "address",
          "name": "_researcherRulesAddress",
          "type": "address"
        }
      ],
      "name": "setContractCall",
      "outputs": [],
      "stateMutability": "nonpayable",
      "type": "function"
    },
    {
      "inputs": [
        {
          "components": [
            {
              "internalType": "address",
              "name": "communityRulesAddress",
              "type": "address"
            },
            {
              "internalType": "address",
              "name": "regeneratorRulesAddress",
              "type": "address"
            },
            {
              "internalType": "address",
              "name": "inspectorRulesAddress",
              "type": "address"
            },
            {
              "internalType": "address",
              "name": "developerRulesAddress",
              "type": "address"
            },
            {
              "internalType": "address",
              "name": "researcherRulesAddress",
              "type": "address"
            },
            {
              "internalType": "address",
              "name": "contributorRulesAddress",
              "type": "address"
            },
            {
              "internalType": "address",
              "name": "activistRulesAddress",
              "type": "address"
            },
            {
              "internalType": "address",
              "name": "voteRulesAddress",
              "type": "address"
            }
          ],
          "internalType": "struct ContractsDependency",
          "name": "contractDependency",
          "type": "tuple"
        }
      ],
      "name": "setContractInterfaces",
      "outputs": [],
      "stateMutability": "nonpayable",
      "type": "function"
    },
    {
      "inputs": [],
      "name": "timeBetweenVotes",
      "outputs": [
        {
          "internalType": "uint256",
          "name": "",
          "type": "uint256"
        }
      ],
      "stateMutability": "view",
      "type": "function"
    },
    {
      "inputs": [
        {
          "internalType": "address",
          "name": "newOwner",
          "type": "address"
        }
      ],
      "name": "transferOwnership",
      "outputs": [],
      "stateMutability": "nonpayable",
      "type": "function"
    },
    {
      "inputs": [
        {
          "internalType": "address",
          "name": "",
          "type": "address"
        },
        {
          "internalType": "uint256",
          "name": "",
          "type": "uint256"
        }
      ],
      "name": "userValidations",
      "outputs": [
        {
          "internalType": "uint256",
          "name": "",
          "type": "uint256"
        }
      ],
      "stateMutability": "view",
      "type": "function"
    },
    {
      "inputs": [
        {
          "internalType": "address",
          "name": "",
          "type": "address"
        }
      ],
      "name": "validatorLastVoteAt",
      "outputs": [
        {
          "internalType": "uint256",
          "name": "",
          "type": "uint256"
        }
      ],
      "stateMutability": "view",
      "type": "function"
    },
    {
      "inputs": [],
      "name": "votesToInvalidate",
      "outputs": [
        {
          "internalType": "uint256",
          "name": "count",
          "type": "uint256"
        }
      ],
      "stateMutability": "view",
      "type": "function"
    },
    {
      "inputs": [
        {
          "internalType": "address",
          "name": "validatorAddress",
          "type": "address"
        }
      ],
      "name": "waitedTimeBetweenVotes",
      "outputs": [
        {
          "internalType": "bool",
          "name": "",
          "type": "bool"
        }
      ],
      "stateMutability": "view",
      "type": "function"
    }
  ],
  "bytecode": "0x60a060405234801561001057600080fd5b50604051612ed7380380612ed783398101604081905261002f916100bc565b338061005557604051631e4fbdf760e01b81526000600482015260240160405180910390fd5b61005e8161006c565b5060016002556080526100d5565b600080546001600160a01b038381166001600160a01b0319831681178455604051919092169283917f8be0079c531659141344cd1fd0a4f28419497f9722a3daafe3b4186f6b6457e09190a35050565b6000602082840312156100ce57600080fd5b5051919050565b608051612de06100f760003960008181610192015261080e0152612de06000f3fe608060405234801561001057600080fd5b506004361061014d5760003560e01c806369bf81c3116100c3578063b3d981611161007c578063b3d9816114610331578063bdac344f14610354578063c6c9b9b414610374578063f2fde38b14610387578063f73535c91461039a578063f9e05690146103ad57600080fd5b806369bf81c3146102a4578063715018a6146102ac5780637b334154146102b45780638da5cb5b146102d75780638f93716f146102f2578063a68012581461030557600080fd5b80632968e454116101155780632968e454146101fa5780632c885cfd1461021d578063305ac48414610248578063361119ac1461026b57806347ec8e971461027e578063513d5dfd1461029157600080fd5b80630eafe45e146101525780631422b7831461016757806320bd34e81461017a57806321e3c5bb1461018d57806323c1fff4146101c7575b600080fd5b610165610160366004612092565b6103c0565b005b6101656101753660046121e9565b610418565b610165610188366004612418565b6104cd565b6101b47f000000000000000000000000000000000000000000000000000000000000000081565b6040519081526020015b60405180910390f35b6101ea6101d5366004612493565b600b6020526000908152604090205460ff1681565b60405190151581526020016101be565b6101ea610208366004612493565b600c6020526000908152604090205460ff1681565b6101b461022b3660046124ac565b600360209081526000928352604080842090915290825290205481565b6101ea610256366004612493565b600a6020526000908152604090205460ff1681565b6101ea6102793660046124d8565b6107ef565b61016561028c366004612418565b610849565b61016561029f3660046124f5565b610b1c565b6101b4610deb565b610165610f06565b6101ea6102c23660046124d8565b60016020526000908152604090205460ff1681565b6000546040516001600160a01b0390911681526020016101be565b6101656103003660046124d8565b610f1a565b6101ea6103133660046124d8565b6001600160a01b031660009081526001602052604090205460ff1690565b6101ea61033f366004612493565b600d6020526000908152604090205460ff1681565b6101b46103623660046124d8565b60096020526000908152604090205481565b6101b46103823660046124ac565b610f49565b6101656103953660046124d8565b610f74565b6101656103a8366004612681565b610fb2565b6101656103bb3660046127f0565b6112f3565b6103c8611759565b601680546001600160a01b039586166001600160a01b0319918216179091556017805494861694821694909417909355601880549285169284169290921790915560198054919093169116179055565b610420611759565b8051600e80546001600160a01b03199081166001600160a01b03938416179091556020830151600f8054831691841691909117905560408301516010805483169184169190911790556060830151601180548316918416919091179055608083015160128054831691841691909117905560a083015160138054831691841691909117905560c083015160148054831691841691909117905560e090920151601580549093169116179055565b3360009081526001602052604090205460ff166105055760405162461bcd60e51b81526004016104fc9061283f565b60405180910390fd5b6018546001600160a01b03163381146105305760405162461bcd60e51b81526004016104fc9061286b565b610538611786565b6001600160a01b038216600090815260046020908152604080832087516001600160401b0316845290915290205460ff16156105865760405162461bcd60e51b81526004016104fc906128a2565b6001600160a01b038216600081815260046020908152604080832088516001600160401b031684528252808320805460ff19166001179055838352600990915290819020439055855190517fb19764e85ca109ec31cda3dd13e75f97da9939ba8df810aa2a2aa38d77f19ff8916105fe918790612919565b60405180910390a28360c001516107df5783516001600160401b03166000908152600b602052604090205460ff16156106495760405162461bcd60e51b81526004016104fc9061293b565b83516001600160401b03166000908152600b6020526040808220805460ff19166001179055601154818701518751925163b1e8665560e01b81526001600160a01b039092169263b1e86655926106a3929190600401612972565b6020604051808303816000875af11580156106c2573d6000803e3d6000fd5b505050506040513d601f19601f820116820180604052508101906106e69190612994565b90506106f1856117ae565b6040808601518651825160608082526006908201526514995c1bdc9d60d21b60808201526001600160401b0390911660208201529182018390526001600160a01b031690600080516020612d8b8339815191529060a00160405180910390a2601160009054906101000a90046001600160a01b03166001600160a01b031663b24eb7696040518163ffffffff1660e01b8152600401602060405180830381865afa1580156107a3573d6000803e3d6000fd5b505050506040513d601f19601f820116820180604052508101906107c791906129ad565b60ff1681106107dd576107dd85604001516117bd565b505b6107e96001600255565b50505050565b6001600160a01b038116600090815260096020526040812054816108337f0000000000000000000000000000000000000000000000000000000000000000836129e6565b431190508080610841575081155b949350505050565b3360009081526001602052604090205460ff166108785760405162461bcd60e51b81526004016104fc9061283f565b6017546001600160a01b03163381146108a35760405162461bcd60e51b81526004016104fc9061286b565b6108ab611786565b6001600160a01b038216600090815260056020908152604080832087516001600160401b0316845290915290205460ff16156108f95760405162461bcd60e51b81526004016104fc906128a2565b6001600160a01b038216600081815260056020908152604080832088516001600160401b031684528252808320805460ff19166001179055838352600990915290819020439055855190517fd61b6e2c73784f8cc7ef49527075f70bb175237a4bb1cb8f5e840ab67faf65c291610971918790612919565b60405180910390a28360c001516107df5783516001600160401b03166000908152600d602052604090205460ff16156109bc5760405162461bcd60e51b81526004016104fc9061293b565b83516001600160401b03166000908152600d6020526040808220805460ff19166001179055601354818701518751925163b1e8665560e01b81526001600160a01b039092169263b1e8665592610a16929190600401612972565b6020604051808303816000875af1158015610a35573d6000803e3d6000fd5b505050506040513d601f19601f82011682018060405250810190610a599190612994565b9050610a64856117ae565b604080860151865182516060808252600c908201526b21b7b73a3934b13aba34b7b760a11b60808201526001600160401b0390911660208201529182018390526001600160a01b031690600080516020612d8b8339815191529060a00160405180910390a2601360009054906101000a90046001600160a01b03166001600160a01b031663b24eb7696040518163ffffffff1660e01b8152600401602060405180830381865afa1580156107a3573d6000803e3d6000fd5b3360009081526001602052604090205460ff16610b4b5760405162461bcd60e51b81526004016104fc9061283f565b6019546001600160a01b0316338114610b765760405162461bcd60e51b81526004016104fc9061286b565b610b7e611786565b6001600160a01b038216600090815260076020908152604080832087516001600160401b0316845290915290205460ff1615610bcc5760405162461bcd60e51b81526004016104fc906128a2565b6001600160a01b038216600081815260076020908152604080832088516001600160401b031684528252808320805460ff19166001179055838352600990915290819020439055855190517fa60b3cba17d47d019e43ed78d18b7dbcdb3356746136e92739e184014baed95b91610c44918790612919565b60405180910390a28360e001516107df5783516001600160401b03166000908152600c602052604090205460ff1615610c8f5760405162461bcd60e51b81526004016104fc9061293b565b83516001600160401b03166000908152600c6020526040808220805460ff19166001179055601254818701518751925163b1e8665560e01b81526001600160a01b039092169263b1e8665592610ce9929190600401612972565b6020604051808303816000875af1158015610d08573d6000803e3d6000fd5b505050506040513d601f19601f82011682018060405250810190610d2c9190612994565b9050610d37856117ae565b604080860151865182516060808252600890820152670a4cae6cac2e4c6d60c31b60808201526001600160401b0390911660208201529182018390526001600160a01b031690600080516020612d8b8339815191529060a00160405180910390a2601260009054906101000a90046001600160a01b03166001600160a01b031663b24eb7696040518163ffffffff1660e01b8152600401602060405180830381865afa1580156107a3573d6000803e3d6000fd5b600080600e60009054906101000a90046001600160a01b03166001600160a01b03166398c079386040518163ffffffff1660e01b8152600401602060405180830381865afa158015610e41573d6000803e3d6000fd5b505050506040513d601f19601f82011682018060405250810190610e659190612994565b905060328111610e7757506002919050565b6101f48111610e8857506005919050565b6103e88111610e995750600a919050565b6107d08111610eaa57506014919050565b610fa08111610ebb57506028919050565b611f408111610ecc57506050919050565b613e808111610edd575060a0919050565b617d008111610eef5750610140919050565b617d00811115610f0257506101f4919050565b5090565b610f0e611759565b610f186000611914565b565b610f22611759565b6001600160a01b03166000908152600160208190526040909120805460ff19169091179055565b6001600160a01b03821660009081526003602090815260408083208484529091529020545b92915050565b610f7c611759565b6001600160a01b038116610fa657604051631e4fbdf760e01b8152600060048201526024016104fc565b610faf81611914565b50565b3360009081526001602052604090205460ff16610fe15760405162461bcd60e51b81526004016104fc9061283f565b6016546001600160a01b031633811461100c5760405162461bcd60e51b81526004016104fc9061286b565b611014611786565b6001600160a01b038216600090815260066020908152604080832087516001600160401b0316845290915290205460ff16156110625760405162461bcd60e51b81526004016104fc906128a2565b6001600160a01b038216600081815260066020908152604080832088516001600160401b031684528252808320805460ff19166001179055928252600990529081204390556110af610deb565b905060008186610120015110159050836001600160a01b03167f804fe88dce417b67dd8890f8cac643949e87d8edcba4e9efb221cbd850c52feb8760000151876040516110fd929190612919565b60405180910390a2806111115750506107df565b85516001600160401b03166000908152600a602052604090205460ff161561114b5760405162461bcd60e51b81526004016104fc9061293b565b85516001600160401b03166000908152600a6020526040808220805460ff1916600117905560105460608901518951925163b1e8665560e01b81526001600160a01b039092169263b1e86655926111a6929190600401612972565b6020604051808303816000875af11580156111c5573d6000803e3d6000fd5b505050506040513d601f19601f820116820180604052508101906111e99190612994565b90506111f487611964565b606080880151885160408051848152600a948101949094526924b739b832b1ba34b7b760b11b60808501526001600160401b03909116602084015282018390526001600160a01b031690600080516020612d8b8339815191529060a00160405180910390a2601060009054906101000a90046001600160a01b03166001600160a01b031663b24eb7696040518163ffffffff1660e01b8152600401602060405180830381865afa1580156112ac573d6000803e3d6000fd5b505050506040513d601f19601f820116820180604052508101906112d091906129ad565b60ff1681106112e6576112e687606001516117bd565b5050506107e96001600255565b6112fb611786565b805161012c101561133f5760405162461bcd60e51b815260206004820152600e60248201526d4d6178206368617261637465727360901b60448201526064016104fc565b6015546040516356fd539760e11b81523360048201526001600160a01b039091169063adfaa72e90602401602060405180830381865afa158015611387573d6000803e3d6000fd5b505050506040513d601f19601f820116820180604052508101906113ab9190612a04565b6113e55760405162461bcd60e51b815260206004820152600b60248201526a2737ba1030903b37ba32b960a91b60448201526064016104fc565b600e54604051631292f8c160e31b81526001600160a01b0390911690639497c60890611418906000908690600401612a37565b602060405180830381865afa158015611435573d6000803e3d6000fd5b505050506040513d601f19601f820116820180604052508101906114599190612a04565b1561149c5760405162461bcd60e51b8152602060048201526013602482015272155cd95c881b9bdd081c9959da5cdd195c9959606a1b60448201526064016104fc565b600e54604051631292f8c160e31b81526001600160a01b0390911690639497c608906114cf906008908690600401612a37565b602060405180830381865afa1580156114ec573d6000803e3d6000fd5b505050506040513d601f19601f820116820180604052508101906115109190612a04565b156115535760405162461bcd60e51b8152602060048201526013602482015272155cd95c88185b1c9958591e4819195b9a5959606a1b60448201526064016104fc565b61155c8261198b565b6115bc5760405162461bcd60e51b815260206004820152602b60248201527f526567656e657261746f722068617320726561636865642076616c696461746960448201526a6f6e20696d6d756e69747960a81b60648201526084016104fc565b60006115c783611a8d565b3360009081526008602090815260408083206001600160a01b0388168452825280832084845290915290205490915060ff16156116165760405162461bcd60e51b81526004016104fc906128a2565b61161f336107ef565b6116635760405162461bcd60e51b8152602060048201526015602482015274576169742074696d654265747765656e566f74657360581b60448201526064016104fc565b3360008181526008602090815260408083206001600160a01b0388168085529083528184208685528352818420805460ff19166001179055938352600982528083204390559282526003815282822084835290529081208054916116c683612a71565b919050555060006116d5610deb565b6001600160a01b0385166000818152600360209081526040808320878452909152908190205490519293509133907f8cb53ba58e6b58f4456b623f61a5b8776a23ac36733b731d50fd9e40ee39c0fc90611730908890612a8a565b60405180910390a381811061174857611748856117bd565b5050506117556001600255565b5050565b6000546001600160a01b03163314610f185760405163118cdaa760e01b81523360048201526024016104fc565b60028054036117a857604051633ee5aeb560e01b815260040160405180910390fd5b60028055565b610faf81604001516001611dba565b6117c8816000611dba565b600e5460405163158bdc5f60e11b81526001600160a01b0383811660048301526000921690632b17b8be90602401608060405180830381865afa158015611813573d6000803e3d6000fd5b505050506040513d601f19601f820116820180604052508101906118379190612ab7565b60208101519091506001600160a01b0316156118b157600e546020820151604051636101bf2160e01b81526001600160a01b039182166004820152911690636101bf2190602401600060405180830381600087803b15801561189857600080fd5b505af11580156118ac573d6000803e3d6000fd5b505050505b600e5460405163e202fa4d60e01b81526001600160a01b0384811660048301529091169063e202fa4d90602401600060405180830381600087803b1580156118f857600080fd5b505af115801561190c573d6000803e3d6000fd5b505050505050565b600080546001600160a01b038381166001600160a01b0319831681178455604051919092169283917f8be0079c531659141344cd1fd0a4f28419497f9722a3daafe3b4186f6b6457e09190a35050565b61197381606001516001611dba565b610faf81604001518260c0015163ffffffff16611dba565b600e54604051631292f8c160e31b81526000916001600160a01b031690639497c608906119bf906001908690600401612a37565b602060405180830381865afa1580156119dc573d6000803e3d6000fd5b505050506040513d601f19601f82011682018060405250810190611a009190612a04565b611a0c57506001919050565b600f5460405163065ab21b60e41b81526001600160a01b03848116600483015260009216906365ab21b090602401600060405180830381865afa158015611a57573d6000803e3d6000fd5b505050506040513d6000823e601f3d908101601f19168201604052611a7f9190810190612c2a565b60c001516005119392505050565b600e54604051636f77926b60e01b81526001600160a01b0383811660048301526000928392911690636f77926b90602401602060405180830381865afa158015611adb573d6000803e3d6000fd5b505050506040513d601f19601f82011682018060405250810190611aff9190612d6f565b90506006816008811115611b1557611b15612a21565b03611b9857601460009054906101000a90046001600160a01b03166001600160a01b031663e05cf1556040518163ffffffff1660e01b8152600401602060405180830381865afa158015611b6d573d6000803e3d6000fd5b505050506040513d601f19601f82011682018060405250810190611b919190612994565b9392505050565b6005816008811115611bac57611bac612a21565b03611c0457601360009054906101000a90046001600160a01b03166001600160a01b031663e05cf1556040518163ffffffff1660e01b8152600401602060405180830381865afa158015611b6d573d6000803e3d6000fd5b6004816008811115611c1857611c18612a21565b03611c7057601160009054906101000a90046001600160a01b03166001600160a01b031663e05cf1556040518163ffffffff1660e01b8152600401602060405180830381865afa158015611b6d573d6000803e3d6000fd5b6002816008811115611c8457611c84612a21565b03611cdc57601060009054906101000a90046001600160a01b03166001600160a01b031663e05cf1556040518163ffffffff1660e01b8152600401602060405180830381865afa158015611b6d573d6000803e3d6000fd5b6003816008811115611cf057611cf0612a21565b03611d4857601260009054906101000a90046001600160a01b03166001600160a01b031663e05cf1556040518163ffffffff1660e01b8152600401602060405180830381865afa158015611b6d573d6000803e3d6000fd5b6001816008811115611d5c57611d5c612a21565b03611db457600f60009054906101000a90046001600160a01b03166001600160a01b031663e05cf1556040518163ffffffff1660e01b8152600401602060405180830381865afa158015611b6d573d6000803e3d6000fd5b50919050565b600e54604051636f77926b60e01b81526001600160a01b0384811660048301526000921690636f77926b90602401602060405180830381865afa158015611e05573d6000803e3d6000fd5b505050506040513d601f19601f82011682018060405250810190611e299190612d6f565b90506008816008811115611e3f57611e3f612a21565b03611e4957505050565b6002816008811115611e5d57611e5d612a21565b03611ece57601054604051630c56ae4d60e11b81526001600160a01b03858116600483015260248201859052909116906318ad5c9a906044015b600060405180830381600087803b158015611eb157600080fd5b505af1158015611ec5573d6000803e3d6000fd5b50505050505050565b6001816008811115611ee257611ee2612a21565b03611f2057600f54604051630c56ae4d60e11b81526001600160a01b03858116600483015260248201859052909116906318ad5c9a90604401611e97565b6004816008811115611f3457611f34612a21565b03611f7257601154604051630c56ae4d60e11b81526001600160a01b03858116600483015260248201859052909116906318ad5c9a90604401611e97565b6003816008811115611f8657611f86612a21565b03611fc457601254604051630c56ae4d60e11b81526001600160a01b03858116600483015260248201859052909116906318ad5c9a90604401611e97565b6005816008811115611fd857611fd8612a21565b0361201657601354604051630c56ae4d60e11b81526001600160a01b03858116600483015260248201859052909116906318ad5c9a90604401611e97565b600681600881111561202a5761202a612a21565b0361206857601454604051630c56ae4d60e11b81526001600160a01b03858116600483015260248201859052909116906318ad5c9a90604401611e97565b505050565b6001600160a01b0381168114610faf57600080fd5b803561208d8161206d565b919050565b600080600080608085870312156120a857600080fd5b84356120b38161206d565b935060208501356120c38161206d565b925060408501356120d38161206d565b915060608501356120e38161206d565b939692955090935050565b634e487b7160e01b600052604160045260246000fd5b60405161010081016001600160401b0381118282101715612127576121276120ee565b60405290565b60405161012081016001600160401b0381118282101715612127576121276120ee565b60405161014081016001600160401b0381118282101715612127576121276120ee565b6040516101e081016001600160401b0381118282101715612127576121276120ee565b6040516101a081016001600160401b0381118282101715612127576121276120ee565b604051601f8201601f191681016001600160401b03811182821017156121e1576121e16120ee565b604052919050565b60006101008284031280156121fd57600080fd5b50612206612104565b82356122118161206d565b815261221f60208401612082565b602082015261223060408401612082565b604082015261224160608401612082565b606082015261225260808401612082565b608082015261226360a08401612082565b60a082015261227460c08401612082565b60c082015261228560e08401612082565b60e08201529392505050565b6001600160401b0381168114610faf57600080fd5b803561208d81612291565b60006001600160401b038211156122ca576122ca6120ee565b50601f01601f191660200190565b600082601f8301126122e957600080fd5b81356122fc6122f7826122b1565b6121b9565b81815284602083860101111561231157600080fd5b816020850160208301376000918101602001919091529392505050565b8015158114610faf57600080fd5b803561208d8161232e565b6000610120828403121561235a57600080fd5b61236261212d565b905061236d826122a6565b81526020828101359082015261238560408301612082565b604082015260608201356001600160401b038111156123a357600080fd5b6123af848285016122d8565b60608301525060808201356001600160401b038111156123ce57600080fd5b6123da848285016122d8565b60808301525060a082810135908201526123f660c0830161233c565b60c082015260e082810135908201526101009182013591810191909152919050565b60008060006060848603121561242d57600080fd5b83356001600160401b0381111561244357600080fd5b61244f86828701612347565b93505060208401356001600160401b0381111561246b57600080fd5b612477868287016122d8565b92505060408401356124888161206d565b809150509250925092565b6000602082840312156124a557600080fd5b5035919050565b600080604083850312156124bf57600080fd5b82356124ca8161206d565b946020939093013593505050565b6000602082840312156124ea57600080fd5b8135611b918161206d565b60008060006060848603121561250a57600080fd5b83356001600160401b0381111561252057600080fd5b8401610140818703121561253357600080fd5b61253b612150565b612544826122a6565b81526020828101359082015261255c60408301612082565b604082015260608201356001600160401b0381111561257a57600080fd5b612586888285016122d8565b60608301525060808201356001600160401b038111156125a557600080fd5b6125b1888285016122d8565b60808301525060a08201356001600160401b038111156125d057600080fd5b6125dc888285016122d8565b60a08301525060c082810135908201526125f860e0830161233c565b60e082015261010082810135908201526101209182013591810191909152925060208401356001600160401b0381111561263157600080fd5b61263d868287016122d8565b92505061264c60408501612082565b90509250925092565b80356004811061208d57600080fd5b63ffffffff81168114610faf57600080fd5b803561208d81612664565b60008060006060848603121561269657600080fd5b83356001600160401b038111156126ac57600080fd5b84016101e081870312156126bf57600080fd5b6126c7612173565b6126d0826122a6565b81526126de60208301612655565b60208201526126ef60408301612082565b604082015261270060608301612082565b606082015261271160808301612676565b608082015261272260a08301612676565b60a082015261273360c08301612676565b60c082015260e08201356001600160401b0381111561275157600080fd5b61275d888285016122d8565b60e0830152506101008201356001600160401b0381111561277d57600080fd5b612789888285016122d8565b6101008301525061012082810135908201526101408083013590820152610160808301359082015261018080830135908201526101a080830135908201526101c09182013591810191909152925060208401356001600160401b0381111561263157600080fd5b6000806040838503121561280357600080fd5b823561280e8161206d565b915060208301356001600160401b0381111561282957600080fd5b612835858286016122d8565b9150509250929050565b6020808252601290820152712737ba1030b63637bbb2b21031b0b63632b960711b604082015260600190565b6020808252601e908201527f43616c6c6572206d7573742062652073797374656d20636f6e74726163740000604082015260600190565b6020808252600d908201526c105b1c9958591e481d9bdd1959609a1b604082015260600190565b60005b838110156128e45781810151838201526020016128cc565b50506000910152565b600081518084526129058160208601602086016128c9565b601f01601f19169290920160200192915050565b6001600160401b038316815260406020820152600061084160408301846128ed565b60208082526019908201527f50656e616c7469657320616c7265616479206170706c69656400000000000000604082015260600190565b6001600160a01b039290921682526001600160401b0316602082015260400190565b6000602082840312156129a657600080fd5b5051919050565b6000602082840312156129bf57600080fd5b815160ff81168114611b9157600080fd5b634e487b7160e01b600052601160045260246000fd5b80820180821115610f6e57610f6e6129d0565b805161208d8161232e565b600060208284031215612a1657600080fd5b8151611b918161232e565b634e487b7160e01b600052602160045260246000fd5b6040810160098410612a5957634e487b7160e01b600052602160045260246000fd5b9281526001600160a01b039190911660209091015290565b600060018201612a8357612a836129d0565b5060010190565b602081526000611b9160208301846128ed565b805161208d8161206d565b80516009811061208d57600080fd5b60006080828403128015612aca57600080fd5b50604051608081016001600160401b0381118282101715612aed57612aed6120ee565b6040528251612afb8161206d565b81526020830151612b0b8161206d565b6020820152612b1c60408401612aa8565b60408201526060928301519281019290925250919050565b805161208d81612291565b600082601f830112612b5057600080fd5b8151612b5e6122f7826122b1565b818152846020838601011115612b7357600080fd5b6108418260208301602087016128c9565b805161208d81612664565b600060208284031215612ba157600080fd5b604051602081016001600160401b0381118282101715612bc357612bc36120ee565b6040529151825250919050565b600060408284031215612be257600080fd5b604080519081016001600160401b0381118282101715612c0457612c046120ee565b80604052508091508251612c178161232e565b8152602092830151920191909152919050565b600060208284031215612c3c57600080fd5b81516001600160401b03811115612c5257600080fd5b82016101c08185031215612c6557600080fd5b612c6d612196565b612c7682612b34565b8152612c8460208301612a9d565b602082015260408201516001600160401b03811115612ca257600080fd5b612cae86828501612b3f565b60408301525060608201516001600160401b03811115612ccd57600080fd5b612cd986828501612b3f565b606083015250612ceb60808301612b84565b6080820152612cfc60a083016129f9565b60a082015260c0828101519082015260e08083015190820152612d23856101008401612b8f565b610100820152612d37856101208401612bd0565b6101208201526101608281015161014083015261018083015190820152612d616101a083016129f9565b610180820152949350505050565b600060208284031215612d8157600080fd5b611b9182612aa856fe226413e2cbca808fc074a1cf011f01e3727417456abafe80e5add5c446a8853ea2646970667358221220f6bf42f35a82ae908ddbe179ddf72e483f9c33f30b910c08263e9129993a838d64736f6c634300081b0033",
  "linkReferences": {},
  "deployedLinkReferences": {}
}