{
  "_format": "hh-sol-artifact-1",
  "contractName": "ValidationPool",
  "sourceName": "contracts/ValidationPool.sol",
  "abi": [
    {
      "inputs": [
        {
          "internalType": "address",
          "name": "regenerationCreditAddress",
          "type": "address"
        },
        {
          "internalType": "uint256",
          "name": "_halving",
          "type": "uint256"
        },
        {
          "internalType": "uint256",
          "name": "_blocksPerEra",
          "type": "uint256"
        }
      ],
      "stateMutability": "nonpayable",
      "type": "constructor"
    },
    {
      "inputs": [
        {
          "internalType": "address",
          "name": "owner",
          "type": "address"
        }
      ],
      "name": "OwnableInvalidOwner",
      "type": "error"
    },
    {
      "inputs": [
        {
          "internalType": "address",
          "name": "account",
          "type": "address"
        }
      ],
      "name": "OwnableUnauthorizedAccount",
      "type": "error"
    },
    {
      "inputs": [],
      "name": "ReentrancyGuardReentrantCall",
      "type": "error"
    },
    {
      "anonymous": false,
      "inputs": [
        {
          "indexed": true,
          "internalType": "address",
          "name": "previousOwner",
          "type": "address"
        },
        {
          "indexed": true,
          "internalType": "address",
          "name": "newOwner",
          "type": "address"
        }
      ],
      "name": "OwnershipTransferred",
      "type": "event"
    },
    {
      "anonymous": false,
      "inputs": [
        {
          "indexed": true,
          "internalType": "address",
          "name": "user",
          "type": "address"
        },
        {
          "indexed": false,
          "internalType": "uint256",
          "name": "era",
          "type": "uint256"
        },
        {
          "indexed": false,
          "internalType": "uint256",
          "name": "levelsAdded",
          "type": "uint256"
        },
        {
          "indexed": false,
          "internalType": "uint256",
          "name": "newTotalEraLevels",
          "type": "uint256"
        },
        {
          "indexed": false,
          "internalType": "uint256",
          "name": "newEraUserLevels",
          "type": "uint256"
        }
      ],
      "name": "PoolLevelAdded",
      "type": "event"
    },
    {
      "anonymous": false,
      "inputs": [
        {
          "indexed": true,
          "internalType": "address",
          "name": "user",
          "type": "address"
        },
        {
          "indexed": false,
          "internalType": "uint256",
          "name": "era",
          "type": "uint256"
        },
        {
          "indexed": false,
          "internalType": "uint256",
          "name": "levelsRemoved",
          "type": "uint256"
        },
        {
          "indexed": false,
          "internalType": "uint256",
          "name": "newTotalEraLevels",
          "type": "uint256"
        },
        {
          "indexed": false,
          "internalType": "uint256",
          "name": "newEraUserLevels",
          "type": "uint256"
        }
      ],
      "name": "PoolLevelRemoved",
      "type": "event"
    },
    {
      "anonymous": false,
      "inputs": [
        {
          "indexed": true,
          "internalType": "address",
          "name": "user",
          "type": "address"
        },
        {
          "indexed": false,
          "internalType": "uint256",
          "name": "era",
          "type": "uint256"
        },
        {
          "indexed": false,
          "internalType": "uint256",
          "name": "amount",
          "type": "uint256"
        }
      ],
      "name": "TokensWithdrawn",
      "type": "event"
    },
    {
      "inputs": [],
      "name": "BLOCKS_PRECISION",
      "outputs": [
        {
          "internalType": "uint256",
          "name": "",
          "type": "uint256"
        }
      ],
      "stateMutability": "view",
      "type": "function"
    },
    {
      "inputs": [
        {
          "internalType": "address",
          "name": "addr",
          "type": "address"
        },
        {
          "internalType": "address",
          "name": "denied",
          "type": "address"
        }
      ],
      "name": "addLevel",
      "outputs": [],
      "stateMutability": "nonpayable",
      "type": "function"
    },
    {
      "inputs": [
        {
          "internalType": "address",
          "name": "",
          "type": "address"
        }
      ],
      "name": "allowedCallers",
      "outputs": [
        {
          "internalType": "bool",
          "name": "",
          "type": "bool"
        }
      ],
      "stateMutability": "view",
      "type": "function"
    },
    {
      "inputs": [
        {
          "internalType": "uint256",
          "name": "currentUserEra",
          "type": "uint256"
        }
      ],
      "name": "canWithdraw",
      "outputs": [
        {
          "internalType": "bool",
          "name": "",
          "type": "bool"
        }
      ],
      "stateMutability": "view",
      "type": "function"
    },
    {
      "inputs": [
        {
          "internalType": "uint256",
          "name": "currentUserEra",
          "type": "uint256"
        }
      ],
      "name": "canWithdrawTimes",
      "outputs": [
        {
          "internalType": "uint256",
          "name": "",
          "type": "uint256"
        }
      ],
      "stateMutability": "view",
      "type": "function"
    },
    {
      "inputs": [],
      "name": "currentContractEra",
      "outputs": [
        {
          "internalType": "uint256",
          "name": "",
          "type": "uint256"
        }
      ],
      "stateMutability": "view",
      "type": "function"
    },
    {
      "inputs": [],
      "name": "currentEpoch",
      "outputs": [
        {
          "internalType": "uint256",
          "name": "",
          "type": "uint256"
        }
      ],
      "stateMutability": "view",
      "type": "function"
    },
    {
      "inputs": [
        {
          "internalType": "uint256",
          "name": "",
          "type": "uint256"
        },
        {
          "internalType": "address",
          "name": "",
          "type": "address"
        }
      ],
      "name": "eraLevels",
      "outputs": [
        {
          "internalType": "uint256",
          "name": "",
          "type": "uint256"
        }
      ],
      "stateMutability": "view",
      "type": "function"
    },
    {
      "inputs": [
        {
          "internalType": "uint256",
          "name": "",
          "type": "uint256"
        },
        {
          "internalType": "address",
          "name": "",
          "type": "address"
        }
      ],
      "name": "eraTokens",
      "outputs": [
        {
          "internalType": "uint256",
          "name": "",
          "type": "uint256"
        }
      ],
      "stateMutability": "view",
      "type": "function"
    },
    {
      "inputs": [
        {
          "internalType": "uint256",
          "name": "",
          "type": "uint256"
        }
      ],
      "name": "eras",
      "outputs": [
        {
          "internalType": "uint256",
          "name": "claimsCount",
          "type": "uint256"
        },
        {
          "internalType": "uint256",
          "name": "tokens",
          "type": "uint256"
        },
        {
          "internalType": "uint256",
          "name": "levels",
          "type": "uint256"
        }
      ],
      "stateMutability": "view",
      "type": "function"
    },
    {
      "inputs": [
        {
          "internalType": "uint256",
          "name": "era",
          "type": "uint256"
        }
      ],
      "name": "getEpochForEra",
      "outputs": [
        {
          "internalType": "uint256",
          "name": "",
          "type": "uint256"
        }
      ],
      "stateMutability": "view",
      "type": "function"
    },
    {
      "inputs": [
        {
          "internalType": "uint256",
          "name": "era",
          "type": "uint256"
        }
      ],
      "name": "getEra",
      "outputs": [
        {
          "components": [
            {
              "internalType": "uint256",
              "name": "claimsCount",
              "type": "uint256"
            },
            {
              "internalType": "uint256",
              "name": "tokens",
              "type": "uint256"
            },
            {
              "internalType": "uint256",
              "name": "levels",
              "type": "uint256"
            }
          ],
          "internalType": "struct Era",
          "name": "",
          "type": "tuple"
        }
      ],
      "stateMutability": "view",
      "type": "function"
    },
    {
      "inputs": [
        {
          "internalType": "address",
          "name": "",
          "type": "address"
        }
      ],
      "name": "hasProcessedLevel",
      "outputs": [
        {
          "internalType": "bool",
          "name": "",
          "type": "bool"
        }
      ],
      "stateMutability": "view",
      "type": "function"
    },
    {
      "inputs": [
        {
          "internalType": "uint256",
          "name": "",
          "type": "uint256"
        },
        {
          "internalType": "address",
          "name": "",
          "type": "address"
        }
      ],
      "name": "hasWithdrawn",
      "outputs": [
        {
          "internalType": "bool",
          "name": "",
          "type": "bool"
        }
      ],
      "stateMutability": "view",
      "type": "function"
    },
    {
      "inputs": [
        {
          "internalType": "address",
          "name": "delegate",
          "type": "address"
        },
        {
          "internalType": "uint256",
          "name": "era",
          "type": "uint256"
        }
      ],
      "name": "haveTokensToWithdraw",
      "outputs": [
        {
          "internalType": "bool",
          "name": "",
          "type": "bool"
        }
      ],
      "stateMutability": "view",
      "type": "function"
    },
    {
      "inputs": [
        {
          "internalType": "address",
          "name": "caller",
          "type": "address"
        }
      ],
      "name": "isAllowedCaller",
      "outputs": [
        {
          "internalType": "bool",
          "name": "",
          "type": "bool"
        }
      ],
      "stateMutability": "view",
      "type": "function"
    },
    {
      "inputs": [
        {
          "internalType": "address",
          "name": "allowed",
          "type": "address"
        }
      ],
      "name": "newAllowedCaller",
      "outputs": [],
      "stateMutability": "nonpayable",
      "type": "function"
    },
    {
      "inputs": [
        {
          "internalType": "uint256",
          "name": "targetEra",
          "type": "uint256"
        }
      ],
      "name": "nextEraIn",
      "outputs": [
        {
          "internalType": "int256",
          "name": "",
          "type": "int256"
        }
      ],
      "stateMutability": "view",
      "type": "function"
    },
    {
      "inputs": [],
      "name": "owner",
      "outputs": [
        {
          "internalType": "address",
          "name": "",
          "type": "address"
        }
      ],
      "stateMutability": "view",
      "type": "function"
    },
    {
      "inputs": [],
      "name": "regenerationCredit",
      "outputs": [
        {
          "internalType": "contract IRegenerationCredit",
          "name": "",
          "type": "address"
        }
      ],
      "stateMutability": "view",
      "type": "function"
    },
    {
      "inputs": [],
      "name": "renounceOwnership",
      "outputs": [],
      "stateMutability": "nonpayable",
      "type": "function"
    },
    {
      "inputs": [
        {
          "internalType": "address",
          "name": "_validationRulesAddress",
          "type": "address"
        }
      ],
      "name": "setContractCall",
      "outputs": [],
      "stateMutability": "nonpayable",
      "type": "function"
    },
    {
      "inputs": [
        {
          "internalType": "uint256",
          "name": "currentEpoch",
          "type": "uint256"
        }
      ],
      "name": "tokensPerEpoch",
      "outputs": [
        {
          "internalType": "uint256",
          "name": "",
          "type": "uint256"
        }
      ],
      "stateMutability": "view",
      "type": "function"
    },
    {
      "inputs": [
        {
          "internalType": "uint256",
          "name": "currentEpoch",
          "type": "uint256"
        },
        {
          "internalType": "uint256",
          "name": "halvingFactor",
          "type": "uint256"
        }
      ],
      "name": "tokensPerEra",
      "outputs": [
        {
          "internalType": "uint256",
          "name": "",
          "type": "uint256"
        }
      ],
      "stateMutability": "view",
      "type": "function"
    },
    {
      "inputs": [
        {
          "internalType": "address",
          "name": "newOwner",
          "type": "address"
        }
      ],
      "name": "transferOwnership",
      "outputs": [],
      "stateMutability": "nonpayable",
      "type": "function"
    },
    {
      "inputs": [],
      "name": "validationRulesAddress",
      "outputs": [
        {
          "internalType": "address",
          "name": "",
          "type": "address"
        }
      ],
      "stateMutability": "view",
      "type": "function"
    },
    {
      "inputs": [
        {
          "internalType": "address",
          "name": "delegate",
          "type": "address"
        },
        {
          "internalType": "uint256",
          "name": "era",
          "type": "uint256"
        }
      ],
      "name": "withdraw",
      "outputs": [],
      "stateMutability": "nonpayable",
      "type": "function"
    }
  ],
  "bytecode": "0x61010060405234801561001157600080fd5b5060405161148b38038061148b833981016040819052610030916100fb565b6a0422ca8b0a00a42500000060805260a08190524360c05260e0829052338061007357604051631e4fbdf760e01b81526000600482015260240160405180910390fd5b61007c816100a9565b5050600160065550600780546001600160a01b0319166001600160a01b039290921691909117905561013e565b600480546001600160a01b038381166001600160a01b0319831681179093556040519116919082907f8be0079c531659141344cd1fd0a4f28419497f9722a3daafe3b4186f6b6457e090600090a35050565b60008060006060848603121561011057600080fd5b83516001600160a01b038116811461012757600080fd5b602085015160409095015190969495509392505050565b60805160a05160c05160e0516112f8610193600039600081816106160152610835015260008181610901015261094001526000818161076f015281816108d6015261096c0152600061067101526112f86000f3fe608060405234801561001057600080fd5b50600436106101a95760003560e01c8063861b4ce1116100f9578063b86c569911610097578063f2fde38b11610071578063f2fde38b14610437578063f3fef3a31461044a578063fbe85f061461045d578063ff39043c1461047057600080fd5b8063b86c569914610409578063d5ee3eb51461041c578063ed0df79e1461042f57600080fd5b80638f93716f116100d35780638f93716f1461037957806394cec7a71461038c578063a6801258146103ba578063b1c29026146103e657600080fd5b8063861b4ce11461033557806388b3acae1461033d5780638da5cb5b1461036857600080fd5b80633974b34511610166578063755d4f9711610140578063755d4f97146102e457806376671808146102f75780637721f1b5146102ff5780637b3341541461031257600080fd5b80633974b3451461027f578063715018a614610292578063720a70bd1461029a57600080fd5b80630d149070146101ae5780630f2dbe60146101c35780631f14f415146101eb5780632506b9321461020c5780632eedcb181461021f5780632f9ed1ef14610254575b600080fd5b6101c16101bc366004611006565b61049b565b005b6101d66101d1366004611039565b610601565b60405190151581526020015b60405180910390f35b6101fe6101f9366004611063565b610648565b6040519081526020016101e2565b6101fe61021a366004611085565b61065e565b61023261022d366004611085565b610695565b60408051825181526020808401519082015291810151908201526060016101e2565b600754610267906001600160a01b031681565b6040516001600160a01b0390911681526020016101e2565b600854610267906001600160a01b031681565b6101c16106f0565b6102c96102a8366004611085565b60006020819052908152604090208054600182015460029092015490919083565b604080519384526020840192909252908201526060016101e2565b6101c16102f236600461109e565b610704565b6101fe61072e565b6101fe61030d366004611085565b610740565b6101d661032036600461109e565b60056020526000908152604090205460ff1681565b6101fe600581565b6101fe61034b3660046110b9565b600160209081526000928352604080842090915290825290205481565b6004546001600160a01b0316610267565b6101c161038736600461109e565b6107b6565b6101d661039a3660046110b9565b600360209081526000928352604080842090915290825290205460ff1681565b6101d66103c836600461109e565b6001600160a01b031660009081526005602052604090205460ff1690565b6101d66103f436600461109e565b60096020526000908152604090205460ff1681565b6101fe610417366004611085565b6107e2565b6101fe61042a366004611085565b610874565b6101fe610938565b6101c161044536600461109e565b6109a2565b6101c1610458366004611039565b6109e0565b6101d661046b366004611085565b610d3a565b6101fe61047e3660046110b9565b600260209081526000928352604080842090915290825290205481565b3360009081526005602052604090205460ff166104f45760405162461bcd60e51b81526020600482015260126024820152712737ba1030b63637bbb2b21031b0b63632b960711b60448201526064015b60405180910390fd5b6008546001600160a01b031633811461054f5760405162461bcd60e51b815260206004820152601e60248201527f43616c6c6572206d7573742062652073797374656d20636f6e7472616374000060448201526064016104eb565b610557610d4c565b6001600160a01b03821660009081526009602052604090205460ff16156105b95760405162461bcd60e51b8152602060048201526016602482015275155cd95c88185b1c9958591e481c1c9bd8d95cdcd95960521b60448201526064016104eb565b6001600160a01b0382166000908152600960205260409020805460ff191660019081179091556105f29084906105ed610938565b610d76565b6105fc6001600655565b505050565b600061063f838361063a610614866107e2565b7f0000000000000000000000000000000000000000000000000000000000000000610648565b610e4c565b90505b92915050565b6000816106548461065e565b61063f91906110f2565b600061066b8260026111fb565b610642907f00000000000000000000000000000000000000000000000000000000000000006110f2565b6106b960405180606001604052806000815260200160008152602001600081525090565b5060009081526020818152604091829020825160608101845281548152600182015492810192909252600201549181019190915290565b6106f8610e65565b6107026000610e92565b565b61070c610e65565b600880546001600160a01b0319166001600160a01b0392909216919091179055565b600061073b610417610938565b905090565b60008061074c83610874565b905060008113156107605750600092915050565b600061076b82611207565b90507f000000000000000000000000000000000000000000000000000000000000000061079a6005600a6111fb565b6107a49083611223565b6107ae91906110f2565b949350505050565b6107be610e65565b6001600160a01b03166000908152600560205260409020805460ff19166001179055565b60008082116108335760405162461bcd60e51b815260206004820152601a60248201527f457261206d7573742062652067726561746572207468616e203000000000000060448201526064016104eb565b7f000000000000000000000000000000000000000000000000000000000000000061085f60018461123a565b61086991906110f2565b61064290600161124d565b60008082116108cf5760405162461bcd60e51b815260206004820152602160248201527f54617267657420657261206d7573742062652067726561746572207468616e206044820152600360fc1b60648201526084016104eb565b60006108fb7f000000000000000000000000000000000000000000000000000000000000000084611223565b610925907f000000000000000000000000000000000000000000000000000000000000000061124d565b90506109314382611260565b9392505050565b6000806109657f00000000000000000000000000000000000000000000000000000000000000004361123a565b90506109917f0000000000000000000000000000000000000000000000000000000000000000826110f2565b61099c90600161124d565b91505090565b6109aa610e65565b6001600160a01b0381166109d457604051631e4fbdf760e01b8152600060048201526024016104eb565b6109dd81610e92565b50565b3360009081526005602052604090205460ff16610a345760405162461bcd60e51b81526020600482015260126024820152712737ba1030b63637bbb2b21031b0b63632b960711b60448201526064016104eb565b6008546001600160a01b0316338114610a8f5760405162461bcd60e51b815260206004820152601e60248201527f43616c6c6572206d7573742062652073797374656d20636f6e7472616374000060448201526064016104eb565b81610a9981610d3a565b610add5760405162461bcd60e51b8152602060048201526015602482015274165bdd4818d85b89dd08185c1c1c9bdd99481e595d605a1b60448201526064016104eb565b60008381526003602090815260408083206001600160a01b03881684529091529020548390859060ff1615610b545760405162461bcd60e51b815260206004820152601e60248201527f416c72656164792077697468647261776e20666f72207468697320657261000060448201526064016104eb565b610b5c610d4c565b610b64610938565b851115610ba75760405162461bcd60e51b815260206004820152601160248201527045726120696e207468652066757475726560781b60448201526064016104eb565b60008581526003602090815260408083206001600160a01b038a1684529091528120805460ff19166001179055610bea8688610be5610614836107e2565b610ee4565b9050610bf7868883610f4a565b80600003610c055750610d28565b600754604051631caccb1d60e31b8152600481018390526001600160a01b039091169063e56658e890602401600060405180830381600087803b158015610c4b57600080fd5b505af1158015610c5f573d6000803e3d6000fd5b505060075460405163a9059cbb60e01b81526001600160a01b038b811660048301526024820186905260009450909116915063a9059cbb906044016020604051808303816000875af1158015610cb9573d6000803e3d6000fd5b505050506040513d601f19601f82011682018060405250810190610cdd9190611287565b905080610d255760405162461bcd60e51b8152602060048201526016602482015275115490cc8c0e881d1c985b9cd9995c8819985a5b195960521b60448201526064016104eb565b50505b610d326001600655565b505050505050565b6000610d44610938565b909110919050565b600260065403610d6f57604051633ee5aeb560e01b815260040160405180910390fd5b6002600655565b600081815260208190526040902060020154610d9390839061124d565b60008281526020818152604080832060020193909355600181528282206001600160a01b038716835290529081208054849290610dd190849061124d565b909155505060008181526020818152604080832060020154600183528184206001600160a01b038816808652908452938290205482518681529384018790529183015260608201527ffc6907b3f86e1e63de43e8e6af6345e03bbc9726a0f63eddb4021532417f78b1906080015b60405180910390a2505050565b600080610e5a848685610ee4565b151595945050505050565b6004546001600160a01b031633146107025760405163118cdaa760e01b81523360048201526024016104eb565b600480546001600160a01b038381166001600160a01b0319831681179093556040519116919082907f8be0079c531659141344cd1fd0a4f28419497f9722a3daafe3b4186f6b6457e090600090a35050565b60008381526020818152604080832060020154600183528184206001600160a01b0387168552909252822054801580610f1b575081155b15610f2b57600092505050610931565b81610f368583611223565b610f4091906110f2565b9695505050505050565b6000838152602081905260408120805491610f64836112a9565b909155505060008381526020819052604081206001018054839290610f8a90849061124d565b909155505060008381526002602090815260408083206001600160a01b0386168085529083529281902084905580518681529182018490527fffe903c0abe6b2dbb2f3474ef43d7a3c1fca49e5a774453423ca8e1952aabffa9101610e3f565b80356001600160a01b038116811461100157600080fd5b919050565b6000806040838503121561101957600080fd5b61102283610fea565b915061103060208401610fea565b90509250929050565b6000806040838503121561104c57600080fd5b61105583610fea565b946020939093013593505050565b6000806040838503121561107657600080fd5b50508035926020909101359150565b60006020828403121561109757600080fd5b5035919050565b6000602082840312156110b057600080fd5b61063f82610fea565b600080604083850312156110cc57600080fd5b8235915061103060208401610fea565b634e487b7160e01b600052601160045260246000fd5b60008261110f57634e487b7160e01b600052601260045260246000fd5b500490565b6001815b600184111561114f57808504811115611133576111336110dc565b600184161561114157908102905b60019390931c928002611118565b935093915050565b60008261116657506001610642565b8161117357506000610642565b81600181146111895760028114611193576111af565b6001915050610642565b60ff8411156111a4576111a46110dc565b50506001821b610642565b5060208310610133831016604e8410600b84101617156111d2575081810a610642565b6111df6000198484611114565b80600019048211156111f3576111f36110dc565b029392505050565b600061063f8383611157565b6000600160ff1b820161121c5761121c6110dc565b5060000390565b8082028115828204841417610642576106426110dc565b81810381811115610642576106426110dc565b80820180821115610642576106426110dc565b8181036000831280158383131683831282161715611280576112806110dc565b5092915050565b60006020828403121561129957600080fd5b8151801515811461093157600080fd5b6000600182016112bb576112bb6110dc565b506001019056fea264697066735822122000f87c0e98b6d8463f323d0068f670d3d9254a690e3825014b81cc3053a506c364736f6c634300081b0033",
  "linkReferences": {},
  "deployedLinkReferences": {}
}