{
  "_format": "hh-sol-artifact-1",
  "contractName": "ValidationRules",
  "sourceName": "contracts/ValidationRules.sol",
  "abi": [
    {
      "inputs": [
        {
          "internalType": "uint256",
          "name": "timeBetweenVotes_",
          "type": "uint256"
        }
      ],
      "stateMutability": "nonpayable",
      "type": "constructor"
    },
    {
      "inputs": [
        {
          "internalType": "address",
          "name": "owner",
          "type": "address"
        }
      ],
      "name": "OwnableInvalidOwner",
      "type": "error"
    },
    {
      "inputs": [
        {
          "internalType": "address",
          "name": "account",
          "type": "address"
        }
      ],
      "name": "OwnableUnauthorizedAccount",
      "type": "error"
    },
    {
      "inputs": [],
      "name": "ReentrancyGuardReentrantCall",
      "type": "error"
    },
    {
      "anonymous": false,
      "inputs": [
        {
          "indexed": true,
          "internalType": "address",
          "name": "previousOwner",
          "type": "address"
        },
        {
          "indexed": true,
          "internalType": "address",
          "name": "newOwner",
          "type": "address"
        }
      ],
      "name": "OwnershipTransferred",
      "type": "event"
    },
    {
      "anonymous": false,
      "inputs": [
        {
          "indexed": true,
          "internalType": "address",
          "name": "_validatorAddress",
          "type": "address"
        },
        {
          "indexed": true,
          "internalType": "address",
          "name": "_userAddress",
          "type": "address"
        },
        {
          "indexed": false,
          "internalType": "string",
          "name": "_justification",
          "type": "string"
        },
        {
          "indexed": true,
          "internalType": "uint256",
          "name": "_currentEra",
          "type": "uint256"
        }
      ],
      "name": "UserValidation",
      "type": "event"
    },
    {
      "inputs": [],
      "name": "POINTS_PER_LEVEL",
      "outputs": [
        {
          "internalType": "uint256",
          "name": "",
          "type": "uint256"
        }
      ],
      "stateMutability": "view",
      "type": "function"
    },
    {
      "inputs": [],
      "name": "activistRules",
      "outputs": [
        {
          "internalType": "contract IActivistRules",
          "name": "",
          "type": "address"
        }
      ],
      "stateMutability": "view",
      "type": "function"
    },
    {
      "inputs": [
        {
          "internalType": "address",
          "name": "userAddress",
          "type": "address"
        },
        {
          "internalType": "string",
          "name": "justification",
          "type": "string"
        }
      ],
      "name": "addUserValidation",
      "outputs": [],
      "stateMutability": "nonpayable",
      "type": "function"
    },
    {
      "inputs": [
        {
          "internalType": "address",
          "name": "voter",
          "type": "address"
        }
      ],
      "name": "addValidationPoint",
      "outputs": [],
      "stateMutability": "nonpayable",
      "type": "function"
    },
    {
      "inputs": [
        {
          "internalType": "address",
          "name": "",
          "type": "address"
        }
      ],
      "name": "allowedCallers",
      "outputs": [
        {
          "internalType": "bool",
          "name": "",
          "type": "bool"
        }
      ],
      "stateMutability": "view",
      "type": "function"
    },
    {
      "inputs": [],
      "name": "communityRules",
      "outputs": [
        {
          "internalType": "contract ICommunityRules",
          "name": "",
          "type": "address"
        }
      ],
      "stateMutability": "view",
      "type": "function"
    },
    {
      "inputs": [],
      "name": "contributorRules",
      "outputs": [
        {
          "internalType": "contract IContributorRules",
          "name": "",
          "type": "address"
        }
      ],
      "stateMutability": "view",
      "type": "function"
    },
    {
      "inputs": [],
      "name": "developerRules",
      "outputs": [
        {
          "internalType": "contract IDeveloperRules",
          "name": "",
          "type": "address"
        }
      ],
      "stateMutability": "view",
      "type": "function"
    },
    {
      "inputs": [],
      "name": "exchangePointsForLevel",
      "outputs": [],
      "stateMutability": "nonpayable",
      "type": "function"
    },
    {
      "inputs": [
        {
          "internalType": "address",
          "name": "userAddress",
          "type": "address"
        },
        {
          "internalType": "uint256",
          "name": "currentEra",
          "type": "uint256"
        }
      ],
      "name": "getUserValidations",
      "outputs": [
        {
          "internalType": "uint256",
          "name": "",
          "type": "uint256"
        }
      ],
      "stateMutability": "view",
      "type": "function"
    },
    {
      "inputs": [
        {
          "internalType": "address",
          "name": "",
          "type": "address"
        }
      ],
      "name": "hunterPools",
      "outputs": [
        {
          "internalType": "uint256",
          "name": "level",
          "type": "uint256"
        },
        {
          "internalType": "uint256",
          "name": "currentEra",
          "type": "uint256"
        }
      ],
      "stateMutability": "view",
      "type": "function"
    },
    {
      "inputs": [
        {
          "internalType": "address",
          "name": "",
          "type": "address"
        },
        {
          "internalType": "uint256",
          "name": "",
          "type": "uint256"
        }
      ],
      "name": "hunterVoter",
      "outputs": [
        {
          "internalType": "address",
          "name": "",
          "type": "address"
        }
      ],
      "stateMutability": "view",
      "type": "function"
    },
    {
      "inputs": [],
      "name": "inspectorRules",
      "outputs": [
        {
          "internalType": "contract IInspectorRules",
          "name": "",
          "type": "address"
        }
      ],
      "stateMutability": "view",
      "type": "function"
    },
    {
      "inputs": [
        {
          "internalType": "address",
          "name": "caller",
          "type": "address"
        }
      ],
      "name": "isAllowedCaller",
      "outputs": [
        {
          "internalType": "bool",
          "name": "",
          "type": "bool"
        }
      ],
      "stateMutability": "view",
      "type": "function"
    },
    {
      "inputs": [
        {
          "internalType": "address",
          "name": "allowed",
          "type": "address"
        }
      ],
      "name": "newAllowedCaller",
      "outputs": [],
      "stateMutability": "nonpayable",
      "type": "function"
    },
    {
      "inputs": [],
      "name": "owner",
      "outputs": [
        {
          "internalType": "address",
          "name": "",
          "type": "address"
        }
      ],
      "stateMutability": "view",
      "type": "function"
    },
    {
      "inputs": [],
      "name": "regeneratorRules",
      "outputs": [
        {
          "internalType": "contract IRegeneratorRules",
          "name": "",
          "type": "address"
        }
      ],
      "stateMutability": "view",
      "type": "function"
    },
    {
      "inputs": [],
      "name": "renounceOwnership",
      "outputs": [],
      "stateMutability": "nonpayable",
      "type": "function"
    },
    {
      "inputs": [],
      "name": "researcherRules",
      "outputs": [
        {
          "internalType": "contract IResearcherRules",
          "name": "",
          "type": "address"
        }
      ],
      "stateMutability": "view",
      "type": "function"
    },
    {
      "inputs": [
        {
          "components": [
            {
              "internalType": "address",
              "name": "communityRulesAddress",
              "type": "address"
            },
            {
              "internalType": "address",
              "name": "regeneratorRulesAddress",
              "type": "address"
            },
            {
              "internalType": "address",
              "name": "inspectorRulesAddress",
              "type": "address"
            },
            {
              "internalType": "address",
              "name": "developerRulesAddress",
              "type": "address"
            },
            {
              "internalType": "address",
              "name": "researcherRulesAddress",
              "type": "address"
            },
            {
              "internalType": "address",
              "name": "contributorRulesAddress",
              "type": "address"
            },
            {
              "internalType": "address",
              "name": "activistRulesAddress",
              "type": "address"
            },
            {
              "internalType": "address",
              "name": "voteRulesAddress",
              "type": "address"
            },
            {
              "internalType": "address",
              "name": "validationPoolAddress",
              "type": "address"
            }
          ],
          "internalType": "struct ContractsDependency",
          "name": "contractDependency",
          "type": "tuple"
        }
      ],
      "name": "setContractInterfaces",
      "outputs": [],
      "stateMutability": "nonpayable",
      "type": "function"
    },
    {
      "inputs": [],
      "name": "timeBetweenVotes",
      "outputs": [
        {
          "internalType": "uint256",
          "name": "",
          "type": "uint256"
        }
      ],
      "stateMutability": "view",
      "type": "function"
    },
    {
      "inputs": [
        {
          "internalType": "address",
          "name": "newOwner",
          "type": "address"
        }
      ],
      "name": "transferOwnership",
      "outputs": [],
      "stateMutability": "nonpayable",
      "type": "function"
    },
    {
      "inputs": [
        {
          "internalType": "address",
          "name": "validatorAddress",
          "type": "address"
        }
      ],
      "name": "updateValidatorLastVoteBlock",
      "outputs": [],
      "stateMutability": "nonpayable",
      "type": "function"
    },
    {
      "inputs": [
        {
          "internalType": "address",
          "name": "",
          "type": "address"
        },
        {
          "internalType": "uint256",
          "name": "",
          "type": "uint256"
        }
      ],
      "name": "userValidations",
      "outputs": [
        {
          "internalType": "uint256",
          "name": "",
          "type": "uint256"
        }
      ],
      "stateMutability": "view",
      "type": "function"
    },
    {
      "inputs": [
        {
          "internalType": "address",
          "name": "",
          "type": "address"
        }
      ],
      "name": "validationPoints",
      "outputs": [
        {
          "internalType": "uint256",
          "name": "",
          "type": "uint256"
        }
      ],
      "stateMutability": "view",
      "type": "function"
    },
    {
      "inputs": [],
      "name": "validationPool",
      "outputs": [
        {
          "internalType": "contract IValidationPool",
          "name": "",
          "type": "address"
        }
      ],
      "stateMutability": "view",
      "type": "function"
    },
    {
      "inputs": [
        {
          "internalType": "address",
          "name": "",
          "type": "address"
        }
      ],
      "name": "validatorLastVoteAt",
      "outputs": [
        {
          "internalType": "uint256",
          "name": "",
          "type": "uint256"
        }
      ],
      "stateMutability": "view",
      "type": "function"
    },
    {
      "inputs": [],
      "name": "voteRules",
      "outputs": [
        {
          "internalType": "contract IVoteRules",
          "name": "",
          "type": "address"
        }
      ],
      "stateMutability": "view",
      "type": "function"
    },
    {
      "inputs": [],
      "name": "votesToInvalidate",
      "outputs": [
        {
          "internalType": "uint256",
          "name": "",
          "type": "uint256"
        }
      ],
      "stateMutability": "view",
      "type": "function"
    },
    {
      "inputs": [
        {
          "internalType": "address",
          "name": "validatorAddress",
          "type": "address"
        }
      ],
      "name": "waitedTimeBetweenVotes",
      "outputs": [
        {
          "internalType": "bool",
          "name": "",
          "type": "bool"
        }
      ],
      "stateMutability": "view",
      "type": "function"
    },
    {
      "inputs": [],
      "name": "withdraw",
      "outputs": [],
      "stateMutability": "nonpayable",
      "type": "function"
    }
  ],
  "bytecode": "0x60a060405234801561001057600080fd5b506040516124be3803806124be83398101604081905261002f916100bc565b338061005557604051631e4fbdf760e01b81526000600482015260240160405180910390fd5b61005e8161006c565b5060016002556080526100d5565b600080546001600160a01b038381166001600160a01b0319831681178455604051919092169283917f8be0079c531659141344cd1fd0a4f28419497f9722a3daafe3b4186f6b6457e09190a35050565b6000602082840312156100ce57600080fd5b5051919050565b6080516123c76100f7600039600081816101ef015261051301526123c76000f3fe608060405234801561001057600080fd5b50600436106101e55760003560e01c80638f93716f1161010f578063ddb494f7116100a2578063f2fde38b11610071578063f2fde38b146104a8578063f873fe54146104bb578063f9e05690146104ce578063fc533ca9146104e157600080fd5b8063ddb494f714610446578063dedeec191461047a578063e0d56bde14610482578063eb48556b1461049557600080fd5b8063bdac344f116100de578063bdac344f146103e0578063c6c9b9b414610400578063ce59654a14610413578063d655b43a1461042657600080fd5b80638f93716f1461037b5780639330945c1461038e5780639b7242e0146103a1578063a6801258146103b457600080fd5b806359ac87ac116101875780637591a904116101565780637591a904146103215780637b33415414610334578063859b12f3146103575780638da5cb5b1461036a57600080fd5b806359ac87ac146102f657806364bbc515146102fe57806369bf81c314610311578063715018a61461031957600080fd5b80633ccfd60b116101c35780633ccfd60b1461027257806344fdca101461027c57806355e7cfe5146102b8578063575a3c35146102e357600080fd5b806321e3c5bb146101ea5780632c885cfd14610224578063361119ac1461024f575b600080fd5b6102117f000000000000000000000000000000000000000000000000000000000000000081565b6040519081526020015b60405180910390f35b610211610232366004611cc1565b600360209081526000928352604080842090915290825290205481565b61026261025d366004611ced565b6104f4565b604051901515815260200161021b565b61027a61054e565b005b6102a361028a366004611ced565b6007602052600090815260409020805460019091015482565b6040805192835260208301919091520161021b565b600f546102cb906001600160a01b031681565b6040516001600160a01b03909116815260200161021b565b61027a6102f1366004611d9f565b6107ce565b610211600281565b600b546102cb906001600160a01b031681565b610211610898565b61027a61097c565b600c546102cb906001600160a01b031681565b610262610342366004611ced565b60016020526000908152604090205460ff1681565b600d546102cb906001600160a01b031681565b6000546001600160a01b03166102cb565b61027a610389366004611ced565b61098e565b61027a61039c366004611ced565b6109bd565b6011546102cb906001600160a01b031681565b6102626103c2366004611ced565b6001600160a01b031660009081526001602052604090205460ff1690565b6102116103ee366004611ced565b60056020526000908152604090205481565b61021161040e366004611cc1565b610a3d565b6009546102cb906001600160a01b031681565b610211610434366004611ced565b60086020526000908152604090205481565b6102cb610454366004611cc1565b60066020908152600092835260408084209091529082529020546001600160a01b031681565b61027a610a68565b6010546102cb906001600160a01b031681565b61027a6104a3366004611ced565b610bfc565b61027a6104b6366004611ced565b610c6c565b600e546102cb906001600160a01b031681565b61027a6104dc366004611e80565b610caa565b600a546102cb906001600160a01b031681565b6001600160a01b038116600090815260056020526040812054816105387f000000000000000000000000000000000000000000000000000000000000000083611f29565b431190508080610546575081155b949350505050565b61055661139c565b60095460405163a7771ee360e01b81523360048201526001600160a01b039091169063a7771ee390602401602060405180830381865afa15801561059e573d6000803e3d6000fd5b505050506040513d601f19601f820116820180604052508101906105c29190611f4c565b6106095760405162461bcd60e51b8152602060048201526013602482015272506f6f6c206f6e6c7920746f20766f7465727360681b60448201526064015b60405180910390fd5b336000908152600560205260409020546106655760405162461bcd60e51b815260206004820152601860248201527f4e6f7420656c696769626c6520746f20776974686472617700000000000000006044820152606401610600565b336000908152600760205260409081902060018101546011549251637df42f8360e11b815260048101829052919290916001600160a01b039091169063fbe85f0690602401602060405180830381865afa1580156106c7573d6000803e3d6000fd5b505050506040513d601f19601f820116820180604052508101906106eb9190611f4c565b6107455760405162461bcd60e51b815260206004820152602560248201527f4e6f7420656c696769626c6520746f20776974686472617720666f7220746869604482015264732065726160d81b6064820152608401610600565b60018201805490600061075783611f67565b909155505060115460405163f3fef3a360e01b8152336004820152602481018390526001600160a01b039091169063f3fef3a390604401600060405180830381600087803b1580156107a857600080fd5b505af11580156107bc573d6000803e3d6000fd5b5050505050506107cc6001600255565b565b6107d66113c4565b8051600980546001600160a01b03199081166001600160a01b03938416179091556020830151600a805483169184169190911790556040830151600b805483169184169190911790556060830151600c805483169184169190911790556080830151600d8054831691841691909117905560a0830151600e8054831691841691909117905560c0830151600f8054831691841691909117905560e083015160108054831691841691909117905561010090920151601180549093169116179055565b600080600960009054906101000a90046001600160a01b03166001600160a01b03166398c079386040518163ffffffff1660e01b8152600401602060405180830381865afa1580156108ee573d6000803e3d6000fd5b505050506040513d601f19601f820116820180604052508101906109129190611f80565b9050600c81101561092557506002919050565b60a781101561093657506005919050565b60006064610945600384611f99565b61094f9190611fb0565b9050600061095e826001611f29565b905061016881111561097557506101689392505050565b9392505050565b6109846113c4565b6107cc60006113f1565b6109966113c4565b6001600160a01b03166000908152600160208190526040909120805460ff19169091179055565b3360009081526001602052604090205460ff16610a115760405162461bcd60e51b81526020600482015260126024820152712737ba1030b63637bbb2b21031b0b63632b960711b6044820152606401610600565b6001600160a01b0381166000908152600860205260408120805491610a3583611f67565b919050555050565b6001600160a01b03821660009081526003602090815260408083208484529091529020545b92915050565b610a7061139c565b60095460405163a7771ee360e01b81523360048201526001600160a01b039091169063a7771ee390602401602060405180830381865afa158015610ab8573d6000803e3d6000fd5b505050506040513d601f19601f82011682018060405250810190610adc9190611f4c565b610b1e5760405162461bcd60e51b8152602060048201526013602482015272506f6f6c206f6e6c7920746f20766f7465727360681b6044820152606401610600565b336000908152600860205260409020546002811015610b735760405162461bcd60e51b81526020600482015260116024820152704e6f7420656e6f75676820706f696e747360781b6044820152606401610600565b610b7e600282611fd2565b3360008181526008602052604090819020929092556011549151632825add160e21b815260048101919091526001600160a01b039091169063a096b74490602401600060405180830381600087803b158015610bd957600080fd5b505af1158015610bed573d6000803e3d6000fd5b50505050506107cc6001600255565b3360009081526001602052604090205460ff16610c505760405162461bcd60e51b81526020600482015260126024820152712737ba1030b63637bbb2b21031b0b63632b960711b6044820152606401610600565b6001600160a01b03166000908152600560205260409020439055565b610c746113c4565b6001600160a01b038116610c9e57604051631e4fbdf760e01b815260006004820152602401610600565b610ca7816113f1565b50565b610cb261139c565b805161012c1015610cf65760405162461bcd60e51b815260206004820152600e60248201526d4d6178206368617261637465727360901b6044820152606401610600565b6010546040516356fd539760e11b81523360048201526001600160a01b039091169063adfaa72e90602401602060405180830381865afa158015610d3e573d6000803e3d6000fd5b505050506040513d601f19601f82011682018060405250810190610d629190611f4c565b610d9c5760405162461bcd60e51b815260206004820152600b60248201526a2737ba1030903b37ba32b960a91b6044820152606401610600565b600954604051631292f8c160e31b81526001600160a01b0390911690639497c60890610dcf906000908690600401611ffb565b602060405180830381865afa158015610dec573d6000803e3d6000fd5b505050506040513d601f19601f82011682018060405250810190610e109190611f4c565b15610e535760405162461bcd60e51b8152602060048201526013602482015272155cd95c881b9bdd081c9959da5cdd195c9959606a1b6044820152606401610600565b600954604051631292f8c160e31b81526001600160a01b0390911690639497c60890610e86906007908690600401611ffb565b602060405180830381865afa158015610ea3573d6000803e3d6000fd5b505050506040513d601f19601f82011682018060405250810190610ec79190611f4c565b15610f145760405162461bcd60e51b815260206004820181905260248201527f537570706f727465722076616c69646174696f6e206e6f7420616c6c6f7765646044820152606401610600565b60095460405163e838dfbb60e01b81526001600160a01b0384811660048301529091169063e838dfbb90602401602060405180830381865afa158015610f5e573d6000803e3d6000fd5b505050506040513d601f19601f82011682018060405250810190610f829190611f4c565b15610fc55760405162461bcd60e51b8152602060048201526013602482015272155cd95c88185b1c9958591e4819195b9a5959606a1b6044820152606401610600565b610fce82611441565b61102e5760405162461bcd60e51b815260206004820152602b60248201527f526567656e657261746f722068617320726561636865642076616c696461746960448201526a6f6e20696d6d756e69747960a81b6064820152608401610600565b600061103983611543565b3360009081526004602090815260408083206001600160a01b0388168452825280832084845290915290205490915060ff16156110a85760405162461bcd60e51b815260206004820152600d60248201526c105b1c9958591e481d9bdd1959609a1b6044820152606401610600565b6110b1336104f4565b6110f55760405162461bcd60e51b8152602060048201526015602482015274576169742074696d654265747765656e566f74657360581b6044820152606401610600565b33600090815260056020526040812054900361119657601160009054906101000a90046001600160a01b03166001600160a01b031663ed0df79e6040518163ffffffff1660e01b8152600401602060405180830381865afa15801561115e573d6000803e3d6000fd5b505050506040513d601f19601f820116820180604052508101906111829190611f80565b336000908152600760205260409020600101555b6001600160a01b038316600090815260036020908152604080832084845290915281205490036111f4576001600160a01b0383166000908152600660209081526040808320848452909152902080546001600160a01b031916331790555b3360008181526004602090815260408083206001600160a01b0388168085529083528184208685528352818420805460ff191660011790559383526005825280832043905592825260038152828220848352905290812080549161125783611f67565b909155505033600090815260086020526040812080549161127783611f67565b90915550506001600160a01b0383166000908152600360209081526040808320848452909152812054906112a9610898565b905080821061133f576112bb85611869565b6011546001600160a01b0386811660008181526006602090815260408083208984529091529081902054905162d1490760e41b815290831660048201526024810191909152911690630d14907090604401600060405180830381600087803b15801561132657600080fd5b505af115801561133a573d6000803e3d6000fd5b505050505b82856001600160a01b0316336001600160a01b03167f4a1bc45c74b62c183fbe9b6634a90d126f2fedb7ff748eafc651322a7da3d5ca876040516113839190612059565b60405180910390a45050506113986001600255565b5050565b60028054036113be57604051633ee5aeb560e01b815260040160405180910390fd5b60028055565b6000546001600160a01b031633146107cc5760405163118cdaa760e01b8152336004820152602401610600565b600080546001600160a01b038381166001600160a01b0319831681178455604051919092169283917f8be0079c531659141344cd1fd0a4f28419497f9722a3daafe3b4186f6b6457e09190a35050565b600954604051631292f8c160e31b81526000916001600160a01b031690639497c60890611475906001908690600401611ffb565b602060405180830381865afa158015611492573d6000803e3d6000fd5b505050506040513d601f19601f820116820180604052508101906114b69190611f4c565b6114c257506001919050565b600a5460405163065ab21b60e41b81526001600160a01b03848116600483015260009216906365ab21b090602401600060405180830381865afa15801561150d573d6000803e3d6000fd5b505050506040513d6000823e601f3d908101601f1916820160405261153591908101906121a1565b60c001516006119392505050565b600954604051636f77926b60e01b81526001600160a01b0383811660048301526000928392911690636f77926b90602401602060405180830381865afa158015611591573d6000803e3d6000fd5b505050506040513d601f19601f820116820180604052508101906115b591906122f8565b905060068160078111156115cb576115cb611fe5565b0361164757600f60009054906101000a90046001600160a01b03166001600160a01b031663e05cf1556040518163ffffffff1660e01b8152600401602060405180830381865afa158015611623573d6000803e3d6000fd5b505050506040513d601f19601f820116820180604052508101906109759190611f80565b600581600781111561165b5761165b611fe5565b036116b357600e60009054906101000a90046001600160a01b03166001600160a01b031663e05cf1556040518163ffffffff1660e01b8152600401602060405180830381865afa158015611623573d6000803e3d6000fd5b60048160078111156116c7576116c7611fe5565b0361171f57600c60009054906101000a90046001600160a01b03166001600160a01b031663e05cf1556040518163ffffffff1660e01b8152600401602060405180830381865afa158015611623573d6000803e3d6000fd5b600281600781111561173357611733611fe5565b0361178b57600b60009054906101000a90046001600160a01b03166001600160a01b031663e05cf1556040518163ffffffff1660e01b8152600401602060405180830381865afa158015611623573d6000803e3d6000fd5b600381600781111561179f5761179f611fe5565b036117f757600d60009054906101000a90046001600160a01b03166001600160a01b031663e05cf1556040518163ffffffff1660e01b8152600401602060405180830381865afa158015611623573d6000803e3d6000fd5b600181600781111561180b5761180b611fe5565b0361186357600a60009054906101000a90046001600160a01b03166001600160a01b031663e05cf1556040518163ffffffff1660e01b8152600401602060405180830381865afa158015611623573d6000803e3d6000fd5b50919050565b600954604051636f77926b60e01b81526001600160a01b0383811660048301526000921690636f77926b90602401602060405180830381865afa1580156118b4573d6000803e3d6000fd5b505050506040513d601f19601f820116820180604052508101906118d891906122f8565b60095460405163e838dfbb60e01b81526001600160a01b03858116600483015292935091169063e838dfbb90602401602060405180830381865afa158015611924573d6000803e3d6000fd5b505050506040513d601f19601f820116820180604052508101906119489190611f4c565b15611951575050565b600954604051634acf78e960e11b81526001600160a01b0384811660048301529091169063959ef1d290602401600060405180830381600087803b15801561199857600080fd5b505af11580156119ac573d6000803e3d6000fd5b505060095460405163158bdc5f60e11b81526001600160a01b038681166004830152600094509091169150632b17b8be90602401608060405180830381865afa1580156119fd573d6000803e3d6000fd5b505050506040513d601f19601f82011682018060405250810190611a219190612313565b60208101519091506001600160a01b031615611a9b576009546020820151604051636101bf2160e01b81526001600160a01b039182166004820152911690636101bf2190602401600060405180830381600087803b158015611a8257600080fd5b505af1158015611a96573d6000803e3d6000fd5b505050505b6001826007811115611aaf57611aaf611fe5565b03611b1957600a54604051637c9787c760e11b81526001600160a01b0385811660048301529091169063f92f0f8e906024015b600060405180830381600087803b158015611afc57600080fd5b505af1158015611b10573d6000803e3d6000fd5b50505050505050565b6002826007811115611b2d57611b2d611fe5565b03611b6b57600b546040516310c791e560e11b81526001600160a01b038581166004830152600160248301529091169063218f23ca90604401611ae2565b6004826007811115611b7f57611b7f611fe5565b03611bb657600c54604051637c9787c760e11b81526001600160a01b0385811660048301529091169063f92f0f8e90602401611ae2565b6003826007811115611bca57611bca611fe5565b03611c0157600d54604051637c9787c760e11b81526001600160a01b0385811660048301529091169063f92f0f8e90602401611ae2565b6005826007811115611c1557611c15611fe5565b03611c4c57600e54604051637c9787c760e11b81526001600160a01b0385811660048301529091169063f92f0f8e90602401611ae2565b6006826007811115611c6057611c60611fe5565b03611c9757600f54604051637c9787c760e11b81526001600160a01b0385811660048301529091169063f92f0f8e90602401611ae2565b505050565b6001600160a01b0381168114610ca757600080fd5b8035611cbc81611c9c565b919050565b60008060408385031215611cd457600080fd5b8235611cdf81611c9c565b946020939093013593505050565b600060208284031215611cff57600080fd5b813561097581611c9c565b634e487b7160e01b600052604160045260246000fd5b604051610120810167ffffffffffffffff81118282101715611d4457611d44611d0a565b60405290565b6040516101a0810167ffffffffffffffff81118282101715611d4457611d44611d0a565b604051601f8201601f1916810167ffffffffffffffff81118282101715611d9757611d97611d0a565b604052919050565b6000610120828403128015611db357600080fd5b50611dbc611d20565b611dc583611cb1565b8152611dd360208401611cb1565b6020820152611de460408401611cb1565b6040820152611df560608401611cb1565b6060820152611e0660808401611cb1565b6080820152611e1760a08401611cb1565b60a0820152611e2860c08401611cb1565b60c0820152611e3960e08401611cb1565b60e0820152611e4b6101008401611cb1565b6101008201529392505050565b600067ffffffffffffffff821115611e7257611e72611d0a565b50601f01601f191660200190565b60008060408385031215611e9357600080fd5b8235611e9e81611c9c565b9150602083013567ffffffffffffffff811115611eba57600080fd5b8301601f81018513611ecb57600080fd5b8035611ede611ed982611e58565b611d6e565b818152866020838501011115611ef357600080fd5b816020840160208301376000602083830101528093505050509250929050565b634e487b7160e01b600052601160045260246000fd5b80820180821115610a6257610a62611f13565b80518015158114611cbc57600080fd5b600060208284031215611f5e57600080fd5b61097582611f3c565b600060018201611f7957611f79611f13565b5060010190565b600060208284031215611f9257600080fd5b5051919050565b8082028115828204841417610a6257610a62611f13565b600082611fcd57634e487b7160e01b600052601260045260246000fd5b500490565b81810381811115610a6257610a62611f13565b634e487b7160e01b600052602160045260246000fd5b604081016008841061201d57634e487b7160e01b600052602160045260246000fd5b9281526001600160a01b039190911660209091015290565b60005b83811015612050578181015183820152602001612038565b50506000910152565b6020815260008251806020840152612078816040850160208701612035565b601f01601f19169190910160400192915050565b805167ffffffffffffffff81168114611cbc57600080fd5b8051611cbc81611c9c565b600082601f8301126120c057600080fd5b81516120ce611ed982611e58565b8181528460208386010111156120e357600080fd5b610546826020830160208701612035565b805163ffffffff81168114611cbc57600080fd5b60006020828403121561211a57600080fd5b6040516020810167ffffffffffffffff8111828210171561213d5761213d611d0a565b6040529151825250919050565b60006040828403121561215c57600080fd5b6040805190810167ffffffffffffffff8111828210171561217f5761217f611d0a565b60405290508061218e83611f3c565b8152602092830151920191909152919050565b6000602082840312156121b357600080fd5b815167ffffffffffffffff8111156121ca57600080fd5b82016101c081850312156121dd57600080fd5b6121e5611d4a565b6121ee8261208c565b81526121fc602083016120a4565b6020820152604082015167ffffffffffffffff81111561221b57600080fd5b612227868285016120af565b604083015250606082015167ffffffffffffffff81111561224757600080fd5b612253868285016120af565b606083015250612265608083016120f4565b608082015261227660a08301611f3c565b60a082015260c0828101519082015260e0808301519082015261229d856101008401612108565b6101008201526122b185610120840161214a565b61012082015261016082810151610140830152610180830151908201526122db6101a08301611f3c565b610180820152949350505050565b805160088110611cbc57600080fd5b60006020828403121561230a57600080fd5b610975826122e9565b6000608082840312801561232657600080fd5b506040516080810167ffffffffffffffff8111828210171561234a5761234a611d0a565b604052825161235881611c9c565b8152602083015161236881611c9c565b6020820152612379604084016122e9565b6040820152606092830151928101929092525091905056fea2646970667358221220202a4d66fb26544f0e7659bcf2d3276ffd8f5881e8bb77531995ba4550162b8364736f6c634300081b0033",
  "linkReferences": {},
  "deployedLinkReferences": {}
}