{
  "_format": "hh-sol-artifact-1",
  "contractName": "ValidationRules",
  "sourceName": "contracts/ValidationRules.sol",
  "abi": [
    {
      "inputs": [
        {
          "internalType": "uint256",
          "name": "timeBetweenVotes_",
          "type": "uint256"
        }
      ],
      "stateMutability": "nonpayable",
      "type": "constructor"
    },
    {
      "anonymous": false,
      "inputs": [
        {
          "indexed": true,
          "internalType": "address",
          "name": "_validatorAddress",
          "type": "address"
        },
        {
          "indexed": false,
          "internalType": "uint256",
          "name": "_resourceId",
          "type": "uint256"
        },
        {
          "indexed": false,
          "internalType": "string",
          "name": "_justification",
          "type": "string"
        }
      ],
      "name": "ContributionValidation",
      "type": "event"
    },
    {
      "anonymous": false,
      "inputs": [
        {
          "indexed": true,
          "internalType": "address",
          "name": "_validatorAddress",
          "type": "address"
        },
        {
          "indexed": false,
          "internalType": "uint256",
          "name": "_resourceId",
          "type": "uint256"
        },
        {
          "indexed": false,
          "internalType": "string",
          "name": "_justification",
          "type": "string"
        }
      ],
      "name": "InspectionValidation",
      "type": "event"
    },
    {
      "anonymous": false,
      "inputs": [
        {
          "indexed": true,
          "internalType": "address",
          "name": "previousOwner",
          "type": "address"
        },
        {
          "indexed": true,
          "internalType": "address",
          "name": "newOwner",
          "type": "address"
        }
      ],
      "name": "OwnershipTransferred",
      "type": "event"
    },
    {
      "anonymous": false,
      "inputs": [
        {
          "indexed": true,
          "internalType": "address",
          "name": "_validatorAddress",
          "type": "address"
        },
        {
          "indexed": false,
          "internalType": "uint256",
          "name": "_resourceId",
          "type": "uint256"
        },
        {
          "indexed": false,
          "internalType": "string",
          "name": "_justification",
          "type": "string"
        }
      ],
      "name": "ReportValidation",
      "type": "event"
    },
    {
      "anonymous": false,
      "inputs": [
        {
          "indexed": true,
          "internalType": "address",
          "name": "_validatorAddress",
          "type": "address"
        },
        {
          "indexed": false,
          "internalType": "uint256",
          "name": "_resourceId",
          "type": "uint256"
        },
        {
          "indexed": false,
          "internalType": "string",
          "name": "_justification",
          "type": "string"
        }
      ],
      "name": "ResearchValidation",
      "type": "event"
    },
    {
      "anonymous": false,
      "inputs": [
        {
          "indexed": false,
          "internalType": "string",
          "name": "_resourceType",
          "type": "string"
        },
        {
          "indexed": false,
          "internalType": "uint256",
          "name": "_resourceId",
          "type": "uint256"
        },
        {
          "indexed": true,
          "internalType": "address",
          "name": "_ownerAddress",
          "type": "address"
        },
        {
          "indexed": false,
          "internalType": "uint256",
          "name": "_penaltiesAdded",
          "type": "uint256"
        }
      ],
      "name": "ResourceInvalidated",
      "type": "event"
    },
    {
      "anonymous": false,
      "inputs": [
        {
          "indexed": true,
          "internalType": "address",
          "name": "_userAddress",
          "type": "address"
        }
      ],
      "name": "UserDenied",
      "type": "event"
    },
    {
      "anonymous": false,
      "inputs": [
        {
          "indexed": true,
          "internalType": "address",
          "name": "_validatorAddress",
          "type": "address"
        },
        {
          "indexed": true,
          "internalType": "address",
          "name": "_userAddress",
          "type": "address"
        },
        {
          "indexed": false,
          "internalType": "string",
          "name": "_justification",
          "type": "string"
        }
      ],
      "name": "UserValidation",
      "type": "event"
    },
    {
      "inputs": [
        {
          "components": [
            {
              "internalType": "uint64",
              "name": "id",
              "type": "uint64"
            },
            {
              "internalType": "uint256",
              "name": "era",
              "type": "uint256"
            },
            {
              "internalType": "address",
              "name": "user",
              "type": "address"
            },
            {
              "internalType": "string",
              "name": "description",
              "type": "string"
            },
            {
              "internalType": "string",
              "name": "report",
              "type": "string"
            },
            {
              "internalType": "uint256",
              "name": "validationsCount",
              "type": "uint256"
            },
            {
              "internalType": "bool",
              "name": "valid",
              "type": "bool"
            },
            {
              "internalType": "uint256",
              "name": "invalidatedAt",
              "type": "uint256"
            },
            {
              "internalType": "uint256",
              "name": "createdAtBlockNumber",
              "type": "uint256"
            }
          ],
          "internalType": "struct Contribution",
          "name": "contribution",
          "type": "tuple"
        },
        {
          "internalType": "string",
          "name": "justification",
          "type": "string"
        },
        {
          "internalType": "address",
          "name": "validatorAddress",
          "type": "address"
        }
      ],
      "name": "addContributionValidation",
      "outputs": [],
      "stateMutability": "nonpayable",
      "type": "function"
    },
    {
      "inputs": [
        {
          "components": [
            {
              "internalType": "uint64",
              "name": "id",
              "type": "uint64"
            },
            {
              "internalType": "enum InspectionStatus",
              "name": "status",
              "type": "uint8"
            },
            {
              "internalType": "address",
              "name": "regenerator",
              "type": "address"
            },
            {
              "internalType": "address",
              "name": "inspector",
              "type": "address"
            },
            {
              "internalType": "uint32",
              "name": "treesResult",
              "type": "uint32"
            },
            {
              "internalType": "uint32",
              "name": "biodiversityResult",
              "type": "uint32"
            },
            {
              "internalType": "uint32",
              "name": "regenerationScore",
              "type": "uint32"
            },
            {
              "internalType": "string",
              "name": "proofPhotos",
              "type": "string"
            },
            {
              "internalType": "string",
              "name": "justificationReport",
              "type": "string"
            },
            {
              "internalType": "uint256",
              "name": "validationsCount",
              "type": "uint256"
            },
            {
              "internalType": "uint256",
              "name": "createdAt",
              "type": "uint256"
            },
            {
              "internalType": "uint256",
              "name": "acceptedAt",
              "type": "uint256"
            },
            {
              "internalType": "uint256",
              "name": "inspectedAt",
              "type": "uint256"
            },
            {
              "internalType": "uint256",
              "name": "inspectedAtEra",
              "type": "uint256"
            },
            {
              "internalType": "uint256",
              "name": "invalidatedAt",
              "type": "uint256"
            }
          ],
          "internalType": "struct Inspection",
          "name": "inspection",
          "type": "tuple"
        },
        {
          "internalType": "string",
          "name": "justification",
          "type": "string"
        },
        {
          "internalType": "address",
          "name": "validatorAddress",
          "type": "address"
        }
      ],
      "name": "addInspectionValidation",
      "outputs": [],
      "stateMutability": "nonpayable",
      "type": "function"
    },
    {
      "inputs": [
        {
          "components": [
            {
              "internalType": "uint64",
              "name": "id",
              "type": "uint64"
            },
            {
              "internalType": "uint256",
              "name": "era",
              "type": "uint256"
            },
            {
              "internalType": "address",
              "name": "developer",
              "type": "address"
            },
            {
              "internalType": "string",
              "name": "description",
              "type": "string"
            },
            {
              "internalType": "string",
              "name": "report",
              "type": "string"
            },
            {
              "internalType": "uint256",
              "name": "validationsCount",
              "type": "uint256"
            },
            {
              "internalType": "bool",
              "name": "valid",
              "type": "bool"
            },
            {
              "internalType": "uint256",
              "name": "invalidatedAt",
              "type": "uint256"
            },
            {
              "internalType": "uint256",
              "name": "createdAtBlockNumber",
              "type": "uint256"
            }
          ],
          "internalType": "struct Report",
          "name": "report",
          "type": "tuple"
        },
        {
          "internalType": "string",
          "name": "justification",
          "type": "string"
        },
        {
          "internalType": "address",
          "name": "validatorAddress",
          "type": "address"
        }
      ],
      "name": "addReportValidation",
      "outputs": [],
      "stateMutability": "nonpayable",
      "type": "function"
    },
    {
      "inputs": [
        {
          "components": [
            {
              "internalType": "uint64",
              "name": "id",
              "type": "uint64"
            },
            {
              "internalType": "uint256",
              "name": "era",
              "type": "uint256"
            },
            {
              "internalType": "address",
              "name": "createdBy",
              "type": "address"
            },
            {
              "internalType": "string",
              "name": "title",
              "type": "string"
            },
            {
              "internalType": "string",
              "name": "thesis",
              "type": "string"
            },
            {
              "internalType": "string",
              "name": "file",
              "type": "string"
            },
            {
              "internalType": "uint256",
              "name": "validationsCount",
              "type": "uint256"
            },
            {
              "internalType": "bool",
              "name": "valid",
              "type": "bool"
            },
            {
              "internalType": "uint256",
              "name": "invalidatedAt",
              "type": "uint256"
            },
            {
              "internalType": "uint256",
              "name": "createdAtBlock",
              "type": "uint256"
            }
          ],
          "internalType": "struct Research",
          "name": "research",
          "type": "tuple"
        },
        {
          "internalType": "string",
          "name": "justification",
          "type": "string"
        },
        {
          "internalType": "address",
          "name": "validatorAddress",
          "type": "address"
        }
      ],
      "name": "addResearchValidation",
      "outputs": [],
      "stateMutability": "nonpayable",
      "type": "function"
    },
    {
      "inputs": [
        {
          "internalType": "address",
          "name": "userAddress",
          "type": "address"
        },
        {
          "internalType": "string",
          "name": "justification",
          "type": "string"
        }
      ],
      "name": "addUserValidation",
      "outputs": [],
      "stateMutability": "nonpayable",
      "type": "function"
    },
    {
      "inputs": [
        {
          "internalType": "address",
          "name": "",
          "type": "address"
        }
      ],
      "name": "allowedCallers",
      "outputs": [
        {
          "internalType": "bool",
          "name": "",
          "type": "bool"
        }
      ],
      "stateMutability": "view",
      "type": "function"
    },
    {
      "inputs": [
        {
          "internalType": "address",
          "name": "userAddress",
          "type": "address"
        },
        {
          "internalType": "uint256",
          "name": "currentEra",
          "type": "uint256"
        }
      ],
      "name": "getUserValidations",
      "outputs": [
        {
          "internalType": "uint256",
          "name": "",
          "type": "uint256"
        }
      ],
      "stateMutability": "view",
      "type": "function"
    },
    {
      "inputs": [
        {
          "internalType": "address",
          "name": "caller",
          "type": "address"
        }
      ],
      "name": "isAllowedCaller",
      "outputs": [
        {
          "internalType": "bool",
          "name": "",
          "type": "bool"
        }
      ],
      "stateMutability": "view",
      "type": "function"
    },
    {
      "inputs": [
        {
          "internalType": "address",
          "name": "allowed",
          "type": "address"
        }
      ],
      "name": "newAllowedCaller",
      "outputs": [],
      "stateMutability": "nonpayable",
      "type": "function"
    },
    {
      "inputs": [],
      "name": "owner",
      "outputs": [
        {
          "internalType": "address",
          "name": "",
          "type": "address"
        }
      ],
      "stateMutability": "view",
      "type": "function"
    },
    {
      "inputs": [],
      "name": "renounceOwnership",
      "outputs": [],
      "stateMutability": "nonpayable",
      "type": "function"
    },
    {
      "inputs": [
        {
          "components": [
            {
              "internalType": "address",
              "name": "communityRulesAddress",
              "type": "address"
            },
            {
              "internalType": "address",
              "name": "regeneratorRulesAddress",
              "type": "address"
            },
            {
              "internalType": "address",
              "name": "inspectorRulesAddress",
              "type": "address"
            },
            {
              "internalType": "address",
              "name": "developerRulesAddress",
              "type": "address"
            },
            {
              "internalType": "address",
              "name": "researcherRulesAddress",
              "type": "address"
            },
            {
              "internalType": "address",
              "name": "contributorRulesAddress",
              "type": "address"
            },
            {
              "internalType": "address",
              "name": "activistRulesAddress",
              "type": "address"
            },
            {
              "internalType": "address",
              "name": "voteRulesAddress",
              "type": "address"
            }
          ],
          "internalType": "struct ContractsDependency",
          "name": "contractDependency",
          "type": "tuple"
        }
      ],
      "name": "setContractAddressDependencies",
      "outputs": [],
      "stateMutability": "nonpayable",
      "type": "function"
    },
    {
      "inputs": [],
      "name": "timeBetweenVotes",
      "outputs": [
        {
          "internalType": "uint256",
          "name": "",
          "type": "uint256"
        }
      ],
      "stateMutability": "view",
      "type": "function"
    },
    {
      "inputs": [
        {
          "internalType": "address",
          "name": "newOwner",
          "type": "address"
        }
      ],
      "name": "transferOwnership",
      "outputs": [],
      "stateMutability": "nonpayable",
      "type": "function"
    },
    {
      "inputs": [
        {
          "internalType": "address",
          "name": "",
          "type": "address"
        },
        {
          "internalType": "uint256",
          "name": "",
          "type": "uint256"
        }
      ],
      "name": "userValidations",
      "outputs": [
        {
          "internalType": "uint256",
          "name": "",
          "type": "uint256"
        }
      ],
      "stateMutability": "view",
      "type": "function"
    },
    {
      "inputs": [
        {
          "internalType": "address",
          "name": "",
          "type": "address"
        }
      ],
      "name": "validatorLastVoteAt",
      "outputs": [
        {
          "internalType": "uint256",
          "name": "",
          "type": "uint256"
        }
      ],
      "stateMutability": "view",
      "type": "function"
    },
    {
      "inputs": [],
      "name": "votesToInvalidate",
      "outputs": [
        {
          "internalType": "uint256",
          "name": "count",
          "type": "uint256"
        }
      ],
      "stateMutability": "view",
      "type": "function"
    },
    {
      "inputs": [
        {
          "internalType": "address",
          "name": "validatorAddress",
          "type": "address"
        }
      ],
      "name": "waitedTimeBetweenVotes",
      "outputs": [
        {
          "internalType": "bool",
          "name": "",
          "type": "bool"
        }
      ],
      "stateMutability": "view",
      "type": "function"
    }
  ],
  "bytecode": "0x60a060405234801561001057600080fd5b506040516127bf3803806127bf83398101604081905261002f91610095565b61003833610045565b60016002556080526100ae565b600080546001600160a01b038381166001600160a01b0319831681178455604051919092169283917f8be0079c531659141344cd1fd0a4f28419497f9722a3daafe3b4186f6b6457e09190a35050565b6000602082840312156100a757600080fd5b5051919050565b6080516126ef6100d06000396000818161013501526105a401526126ef6000f3fe608060405234801561001057600080fd5b50600436106101165760003560e01c80638da5cb5b116100a2578063bdac344f11610071578063bdac344f1461027e578063c6c9b9b41461029e578063f2fde38b146102b1578063f73535c9146102c4578063f9e05690146102d757600080fd5b80638da5cb5b146102115780638f93716f1461022c5780639e6a0efb1461023f578063a68012581461025257600080fd5b806347ec8e97116100e957806347ec8e97146101b8578063513d5dfd146101cb57806369bf81c3146101de578063715018a6146101e65780637b334154146101ee57600080fd5b806320bd34e81461011b57806321e3c5bb146101305780632c885cfd1461016a578063361119ac14610195575b600080fd5b61012e610129366004611f6a565b6102ea565b005b6101577f000000000000000000000000000000000000000000000000000000000000000081565b6040519081526020015b60405180910390f35b610157610178366004611fe5565b600360209081526000928352604080842090915290825290205481565b6101a86101a3366004612011565b610585565b6040519015158152602001610161565b61012e6101c6366004611f6a565b6105df565b61012e6101d936600461202e565b61082c565b610157610a75565b61012e610b90565b6101a86101fc366004612011565b60016020526000908152604090205460ff1681565b6000546040516001600160a01b039091168152602001610161565b61012e61023a366004612011565b610ba4565b61012e61024d36600461218e565b610bd3565b6101a8610260366004612011565b6001600160a01b031660009081526001602052604090205460ff1690565b61015761028c366004612011565b60096020526000908152604090205481565b6101576102ac366004611fe5565b610c88565b61012e6102bf366004612011565b610cb3565b61012e6102d2366004612259565b610d2c565b61012e6102e53660046123c8565b610fe3565b3360009081526001602052604090205460ff166103225760405162461bcd60e51b815260040161031990612417565b60405180910390fd5b61032a6113e0565b6001600160a01b038116600090815260046020908152604080832086516001600160401b0316845290915290205460ff16156103785760405162461bcd60e51b815260040161031990612443565b6001600160a01b038116600081815260046020908152604080832087516001600160401b031684528252808320805460ff19166001179055838352600990915290819020439055845190517fb19764e85ca109ec31cda3dd13e75f97da9939ba8df810aa2a2aa38d77f19ff8916103f09186906124b0565b60405180910390a28260c0015161057657600d546040808501518551915163b1e8665560e01b81526000936001600160a01b03169263b1e866559261043a929091906004016124d2565b6020604051808303816000875af1158015610459573d6000803e3d6000fd5b505050506040513d601f19601f8201168201806040525081019061047d91906124f4565b905061048884611437565b6040808501518551825160608082526006908201526514995c1bdc9d60d21b60808201526001600160401b0390911660208201529182018390526001600160a01b03169060008051602061269a8339815191529060a00160405180910390a2600d60009054906101000a90046001600160a01b03166001600160a01b031663b24eb7696040518163ffffffff1660e01b8152600401602060405180830381865afa15801561053a573d6000803e3d6000fd5b505050506040513d601f19601f8201168201806040525081019061055e919061250d565b60ff168110610574576105748460400151611446565b505b6105806001600255565b505050565b6001600160a01b038116600090815260096020526040812054816105c97f000000000000000000000000000000000000000000000000000000000000000083612546565b4311905080806105d7575081155b949350505050565b3360009081526001602052604090205460ff1661060e5760405162461bcd60e51b815260040161031990612417565b6106166113e0565b6001600160a01b038116600090815260056020908152604080832086516001600160401b0316845290915290205460ff16156106645760405162461bcd60e51b815260040161031990612443565b6001600160a01b038116600081815260056020908152604080832087516001600160401b031684528252808320805460ff19166001179055838352600990915290819020439055845190517fd61b6e2c73784f8cc7ef49527075f70bb175237a4bb1cb8f5e840ab67faf65c2916106dc9186906124b0565b60405180910390a28260c0015161057657600f546040808501518551915163b1e8665560e01b81526000936001600160a01b03169263b1e8665592610726929091906004016124d2565b6020604051808303816000875af1158015610745573d6000803e3d6000fd5b505050506040513d601f19601f8201168201806040525081019061076991906124f4565b905061077484611437565b604080850151855182516060808252600c908201526b21b7b73a3934b13aba34b7b760a11b60808201526001600160401b0390911660208201529182018390526001600160a01b03169060008051602061269a8339815191529060a00160405180910390a2600f60009054906101000a90046001600160a01b03166001600160a01b031663b24eb7696040518163ffffffff1660e01b8152600401602060405180830381865afa15801561053a573d6000803e3d6000fd5b3360009081526001602052604090205460ff1661085b5760405162461bcd60e51b815260040161031990612417565b6108636113e0565b6001600160a01b038116600090815260076020908152604080832086516001600160401b0316845290915290205460ff16156108b15760405162461bcd60e51b815260040161031990612443565b6001600160a01b038116600081815260076020908152604080832087516001600160401b031684528252808320805460ff19166001179055838352600990915290819020439055845190517fa60b3cba17d47d019e43ed78d18b7dbcdb3356746136e92739e184014baed95b916109299186906124b0565b60405180910390a28260e0015161057657600e546040808501518551915163b1e8665560e01b81526000936001600160a01b03169263b1e8665592610973929091906004016124d2565b6020604051808303816000875af1158015610992573d6000803e3d6000fd5b505050506040513d601f19601f820116820180604052508101906109b691906124f4565b90506109c184611437565b604080850151855182516060808252600890820152670a4cae6cac2e4c6d60c31b60808201526001600160401b0390911660208201529182018390526001600160a01b03169060008051602061269a8339815191529060a00160405180910390a2600e60009054906101000a90046001600160a01b03166001600160a01b031663b24eb7696040518163ffffffff1660e01b8152600401602060405180830381865afa15801561053a573d6000803e3d6000fd5b600080600a60009054906101000a90046001600160a01b03166001600160a01b03166398c079386040518163ffffffff1660e01b8152600401602060405180830381865afa158015610acb573d6000803e3d6000fd5b505050506040513d601f19601f82011682018060405250810190610aef91906124f4565b905060328111610b0157506002919050565b6101f48111610b1257506005919050565b6103e88111610b235750600a919050565b6107d08111610b3457506014919050565b610fa08111610b4557506028919050565b611f408111610b5657506050919050565b613e808111610b67575060a0919050565b617d008111610b795750610140919050565b617d00811115610b8c57506101f4919050565b5090565b610b9861159d565b610ba260006115f7565b565b610bac61159d565b6001600160a01b03166000908152600160208190526040909120805460ff19169091179055565b610bdb61159d565b8051600a80546001600160a01b03199081166001600160a01b03938416179091556020830151600b805483169184169190911790556040830151600c805483169184169190911790556060830151600d805483169184169190911790556080830151600e8054831691841691909117905560a0830151600f8054831691841691909117905560c083015160108054831691841691909117905560e090920151601180549093169116179055565b6001600160a01b03821660009081526003602090815260408083208484529091529020545b92915050565b610cbb61159d565b6001600160a01b038116610d205760405162461bcd60e51b815260206004820152602660248201527f4f776e61626c653a206e6577206f776e657220697320746865207a65726f206160448201526564647265737360d01b6064820152608401610319565b610d29816115f7565b50565b3360009081526001602052604090205460ff16610d5b5760405162461bcd60e51b815260040161031990612417565b610d636113e0565b6001600160a01b038116600090815260066020908152604080832086516001600160401b0316845290915290205460ff1615610db15760405162461bcd60e51b815260040161031990612443565b6001600160a01b038116600081815260066020908152604080832087516001600160401b031684528252808320805460ff1916600117905592825260099052908120439055610dfe610a75565b905060008185610120015110159050826001600160a01b03167f804fe88dce417b67dd8890f8cac643949e87d8edcba4e9efb221cbd850c52feb866000015186604051610e4c9291906124b0565b60405180910390a280610e60575050610576565b600c546060860151865160405163b1e8665560e01b81526000936001600160a01b03169263b1e8665592610e96926004016124d2565b6020604051808303816000875af1158015610eb5573d6000803e3d6000fd5b505050506040513d601f19601f82011682018060405250810190610ed991906124f4565b9050610ee486611647565b606080870151875160408051848152600a948101949094526924b739b832b1ba34b7b760b11b60808501526001600160401b03909116602084015282018390526001600160a01b03169060008051602061269a8339815191529060a00160405180910390a2600c60009054906101000a90046001600160a01b03166001600160a01b031663b24eb7696040518163ffffffff1660e01b8152600401602060405180830381865afa158015610f9c573d6000803e3d6000fd5b505050506040513d601f19601f82011682018060405250810190610fc0919061250d565b60ff168110610fd657610fd68660600151611446565b5050506105806001600255565b610feb6113e0565b805161012c101561102f5760405162461bcd60e51b815260206004820152600e60248201526d4d6178206368617261637465727360901b6044820152606401610319565b6011546040516356fd539760e11b81523360048201526001600160a01b039091169063adfaa72e90602401602060405180830381865afa158015611077573d6000803e3d6000fd5b505050506040513d601f19601f8201168201806040525081019061109b9190612559565b6110d55760405162461bcd60e51b815260206004820152600b60248201526a2737ba1030903b37ba32b960a91b6044820152606401610319565b600a54604051631292f8c160e31b81526001600160a01b0390911690639497c6089061110890600090869060040161258c565b602060405180830381865afa158015611125573d6000803e3d6000fd5b505050506040513d601f19601f820116820180604052508101906111499190612559565b1561118c5760405162461bcd60e51b8152602060048201526013602482015272155cd95c881b9bdd081c9959da5cdd195c9959606a1b6044820152606401610319565b600a54604051631292f8c160e31b81526001600160a01b0390911690639497c608906111bf90600890869060040161258c565b602060405180830381865afa1580156111dc573d6000803e3d6000fd5b505050506040513d601f19601f820116820180604052508101906112009190612559565b156112435760405162461bcd60e51b8152602060048201526013602482015272155cd95c88185b1c9958591e4819195b9a5959606a1b6044820152606401610319565b600061124e83611734565b3360009081526008602090815260408083206001600160a01b0388168452825280832084845290915290205490915060ff161561129d5760405162461bcd60e51b815260040161031990612443565b6112a633610585565b6112ea5760405162461bcd60e51b8152602060048201526015602482015274576169742074696d654265747765656e566f74657360581b6044820152606401610319565b3360008181526008602090815260408083206001600160a01b0388168085529083528184208685528352818420805460ff191660011790559383526009825280832043905592825260038152828220848352905290812080549161134d836125c6565b9190505550600061135c610a75565b6001600160a01b0385166000818152600360209081526040808320878452909152908190205490519293509133907f8cb53ba58e6b58f4456b623f61a5b8776a23ac36733b731d50fd9e40ee39c0fc906113b79088906125df565b60405180910390a38181106113cf576113cf85611446565b5050506113dc6001600255565b5050565b60028054036114315760405162461bcd60e51b815260206004820152601f60248201527f5265656e7472616e637947756172643a207265656e7472616e742063616c6c006044820152606401610319565b60028055565b610d2981604001516001611a61565b611451816000611a61565b600a5460405163158bdc5f60e11b81526001600160a01b0383811660048301526000921690632b17b8be90602401608060405180830381865afa15801561149c573d6000803e3d6000fd5b505050506040513d601f19601f820116820180604052508101906114c09190612601565b60208101519091506001600160a01b03161561153a57600a546020820151604051636101bf2160e01b81526001600160a01b039182166004820152911690636101bf2190602401600060405180830381600087803b15801561152157600080fd5b505af1158015611535573d6000803e3d6000fd5b505050505b600a5460405163e202fa4d60e01b81526001600160a01b0384811660048301529091169063e202fa4d90602401600060405180830381600087803b15801561158157600080fd5b505af1158015611595573d6000803e3d6000fd5b505050505050565b6000546001600160a01b03163314610ba25760405162461bcd60e51b815260206004820181905260248201527f4f776e61626c653a2063616c6c6572206973206e6f7420746865206f776e65726044820152606401610319565b600080546001600160a01b038381166001600160a01b0319831681178455604051919092169283917f8be0079c531659141344cd1fd0a4f28419497f9722a3daafe3b4186f6b6457e09190a35050565b600c5460608201516040516361e4c1e960e11b81526001600160a01b03918216600482015291169063c3c983d290602401600060405180830381600087803b15801561169257600080fd5b505af11580156116a6573d6000803e3d6000fd5b5050600b5460408481015190516361e4c1e960e11b81526001600160a01b0391821660048201529116925063c3c983d29150602401600060405180830381600087803b1580156116f557600080fd5b505af1158015611709573d6000803e3d6000fd5b5050505061171c81606001516001611a61565b610d2981604001518260c0015163ffffffff16611a61565b600a54604051636f77926b60e01b81526001600160a01b0383811660048301526000928392911690636f77926b90602401602060405180830381865afa158015611782573d6000803e3d6000fd5b505050506040513d601f19601f820116820180604052508101906117a6919061267e565b905060068160088111156117bc576117bc612576565b0361183f57601060009054906101000a90046001600160a01b03166001600160a01b031663e05cf1556040518163ffffffff1660e01b8152600401602060405180830381865afa158015611814573d6000803e3d6000fd5b505050506040513d601f19601f8201168201806040525081019061183891906124f4565b9392505050565b600581600881111561185357611853612576565b036118ab57600f60009054906101000a90046001600160a01b03166001600160a01b031663e05cf1556040518163ffffffff1660e01b8152600401602060405180830381865afa158015611814573d6000803e3d6000fd5b60048160088111156118bf576118bf612576565b0361191757600d60009054906101000a90046001600160a01b03166001600160a01b031663e05cf1556040518163ffffffff1660e01b8152600401602060405180830381865afa158015611814573d6000803e3d6000fd5b600281600881111561192b5761192b612576565b0361198357600c60009054906101000a90046001600160a01b03166001600160a01b031663e05cf1556040518163ffffffff1660e01b8152600401602060405180830381865afa158015611814573d6000803e3d6000fd5b600381600881111561199757611997612576565b036119ef57600e60009054906101000a90046001600160a01b03166001600160a01b031663e05cf1556040518163ffffffff1660e01b8152600401602060405180830381865afa158015611814573d6000803e3d6000fd5b6001816008811115611a0357611a03612576565b03611a5b57600b60009054906101000a90046001600160a01b03166001600160a01b031663e05cf1556040518163ffffffff1660e01b8152600401602060405180830381865afa158015611814573d6000803e3d6000fd5b50919050565b600a54604051636f77926b60e01b81526001600160a01b0384811660048301526000921690636f77926b90602401602060405180830381865afa158015611aac573d6000803e3d6000fd5b505050506040513d601f19601f82011682018060405250810190611ad0919061267e565b90506008816008811115611ae657611ae6612576565b03611af057505050565b6002816008811115611b0457611b04612576565b03611b7557600c54604051630c56ae4d60e11b81526001600160a01b03858116600483015260248201859052909116906318ad5c9a906044015b600060405180830381600087803b158015611b5857600080fd5b505af1158015611b6c573d6000803e3d6000fd5b50505050505050565b6001816008811115611b8957611b89612576565b03611bc757600b54604051630c56ae4d60e11b81526001600160a01b03858116600483015260248201859052909116906318ad5c9a90604401611b3e565b6004816008811115611bdb57611bdb612576565b03611c1957600d54604051630c56ae4d60e11b81526001600160a01b03858116600483015260248201859052909116906318ad5c9a90604401611b3e565b6003816008811115611c2d57611c2d612576565b03611c6b57600e54604051630c56ae4d60e11b81526001600160a01b03858116600483015260248201859052909116906318ad5c9a90604401611b3e565b6005816008811115611c7f57611c7f612576565b03611cbd57600f54604051630c56ae4d60e11b81526001600160a01b03858116600483015260248201859052909116906318ad5c9a90604401611b3e565b6006816008811115611cd157611cd1612576565b0361058057601054604051630c56ae4d60e11b81526001600160a01b03858116600483015260248201859052909116906318ad5c9a90604401611b3e565b634e487b7160e01b600052604160045260246000fd5b60405161012081016001600160401b0381118282101715611d4857611d48611d0f565b60405290565b60405161014081016001600160401b0381118282101715611d4857611d48611d0f565b60405161010081016001600160401b0381118282101715611d4857611d48611d0f565b6040516101e081016001600160401b0381118282101715611d4857611d48611d0f565b80356001600160401b0381168114611dce57600080fd5b919050565b6001600160a01b0381168114610d2957600080fd5b8035611dce81611dd3565b600082601f830112611e0457600080fd5b81356001600160401b03811115611e1d57611e1d611d0f565b604051601f8201601f19908116603f011681016001600160401b0381118282101715611e4b57611e4b611d0f565b604052818152838201602001851015611e6357600080fd5b816020850160208301376000918101602001919091529392505050565b8015158114610d2957600080fd5b8035611dce81611e80565b60006101208284031215611eac57600080fd5b611eb4611d25565b9050611ebf82611db7565b815260208281013590820152611ed760408301611de8565b604082015260608201356001600160401b03811115611ef557600080fd5b611f0184828501611df3565b60608301525060808201356001600160401b03811115611f2057600080fd5b611f2c84828501611df3565b60808301525060a08281013590820152611f4860c08301611e8e565b60c082015260e082810135908201526101009182013591810191909152919050565b600080600060608486031215611f7f57600080fd5b83356001600160401b03811115611f9557600080fd5b611fa186828701611e99565b93505060208401356001600160401b03811115611fbd57600080fd5b611fc986828701611df3565b9250506040840135611fda81611dd3565b809150509250925092565b60008060408385031215611ff857600080fd5b823561200381611dd3565b946020939093013593505050565b60006020828403121561202357600080fd5b813561183881611dd3565b60008060006060848603121561204357600080fd5b83356001600160401b0381111561205957600080fd5b8401610140818703121561206c57600080fd5b612074611d4e565b61207d82611db7565b81526020828101359082015261209560408301611de8565b604082015260608201356001600160401b038111156120b357600080fd5b6120bf88828501611df3565b60608301525060808201356001600160401b038111156120de57600080fd5b6120ea88828501611df3565b60808301525060a08201356001600160401b0381111561210957600080fd5b61211588828501611df3565b60a08301525060c0828101359082015261213160e08301611e8e565b60e082015261010082810135908201526101209182013591810191909152925060208401356001600160401b0381111561216a57600080fd5b61217686828701611df3565b92505061218560408501611de8565b90509250925092565b60006101008284031280156121a257600080fd5b506121ab611d71565b82356121b681611dd3565b81526121c460208401611de8565b60208201526121d560408401611de8565b60408201526121e660608401611de8565b60608201526121f760808401611de8565b608082015261220860a08401611de8565b60a082015261221960c08401611de8565b60c082015261222a60e08401611de8565b60e08201529392505050565b803560048110611dce57600080fd5b803563ffffffff81168114611dce57600080fd5b60008060006060848603121561226e57600080fd5b83356001600160401b0381111561228457600080fd5b84016101e0818703121561229757600080fd5b61229f611d94565b6122a882611db7565b81526122b660208301612236565b60208201526122c760408301611de8565b60408201526122d860608301611de8565b60608201526122e960808301612245565b60808201526122fa60a08301612245565b60a082015261230b60c08301612245565b60c082015260e08201356001600160401b0381111561232957600080fd5b61233588828501611df3565b60e0830152506101008201356001600160401b0381111561235557600080fd5b61236188828501611df3565b6101008301525061012082810135908201526101408083013590820152610160808301359082015261018080830135908201526101a080830135908201526101c09182013591810191909152925060208401356001600160401b0381111561216a57600080fd5b600080604083850312156123db57600080fd5b82356123e681611dd3565b915060208301356001600160401b0381111561240157600080fd5b61240d85828601611df3565b9150509250929050565b6020808252601290820152712737ba1030b63637bbb2b21031b0b63632b960711b604082015260600190565b6020808252600d908201526c105b1c9958591e481d9bdd1959609a1b604082015260600190565b6000815180845260005b8181101561249057602081850181015186830182015201612474565b506000602082860101526020601f19601f83011685010191505092915050565b6001600160401b03831681526040602082015260006105d7604083018461246a565b6001600160a01b039290921682526001600160401b0316602082015260400190565b60006020828403121561250657600080fd5b5051919050565b60006020828403121561251f57600080fd5b815160ff8116811461183857600080fd5b634e487b7160e01b600052601160045260246000fd5b80820180821115610cad57610cad612530565b60006020828403121561256b57600080fd5b815161183881611e80565b634e487b7160e01b600052602160045260246000fd5b60408101600984106125ae57634e487b7160e01b600052602160045260246000fd5b9281526001600160a01b039190911660209091015290565b6000600182016125d8576125d8612530565b5060010190565b602081526000611838602083018461246a565b805160098110611dce57600080fd5b6000608082840312801561261457600080fd5b50604051608081016001600160401b038111828210171561263757612637611d0f565b604052825161264581611dd3565b8152602083015161265581611dd3565b6020820152612666604084016125f2565b60408201526060928301519281019290925250919050565b60006020828403121561269057600080fd5b611838826125f256fe226413e2cbca808fc074a1cf011f01e3727417456abafe80e5add5c446a8853ea2646970667358221220f897d2e2594b32a9d2005bf73f636f5c95f5209305aa7eccaa09c3827b4f358b64736f6c634300081b0033",
  "linkReferences": {},
  "deployedLinkReferences": {}
}