{
  "_format": "hh-sol-artifact-1",
  "contractName": "VoteRules",
  "sourceName": "contracts/VoteRules.sol",
  "abi": [
    {
      "inputs": [
        {
          "internalType": "address",
          "name": "communityRulesAddress",
          "type": "address"
        },
        {
          "internalType": "address",
          "name": "activistRulesAddress",
          "type": "address"
        },
        {
          "internalType": "address",
          "name": "contributorRulesAddress",
          "type": "address"
        },
        {
          "internalType": "address",
          "name": "developerRulesAddress",
          "type": "address"
        },
        {
          "internalType": "address",
          "name": "researcherRulesAddress",
          "type": "address"
        }
      ],
      "stateMutability": "nonpayable",
      "type": "constructor"
    },
    {
      "inputs": [
        {
          "internalType": "address",
          "name": "addr",
          "type": "address"
        }
      ],
      "name": "canVote",
      "outputs": [
        {
          "internalType": "bool",
          "name": "",
          "type": "bool"
        }
      ],
      "stateMutability": "view",
      "type": "function"
    }
  ],
  "bytecode": "0x608060405234801561001057600080fd5b50604051610dc4380380610dc483398101604081905261002f916100ad565b600080546001600160a01b03199081166001600160a01b03978816179091556001805482169587169590951790945560028054851693861693909317909255600380548416918516919091179055600480549092169216919091179055610112565b80516001600160a01b03811681146100a857600080fd5b919050565b600080600080600060a086880312156100c557600080fd5b6100ce86610091565b94506100dc60208701610091565b93506100ea60408701610091565b92506100f860608701610091565b915061010660808701610091565b90509295509295909350565b610ca3806101216000396000f3fe608060405234801561001057600080fd5b506004361061002b5760003560e01c8063adfaa72e14610030575b600080fd5b61004361003e3660046106a0565b610057565b604051901515815260200160405180910390f35b6000805460405163a7771ee360e01b81526001600160a01b0384811660048301529091169063a7771ee390602401602060405180830381865afa1580156100a2573d6000803e3d6000fd5b505050506040513d601f19601f820116820180604052508101906100c691906106cd565b6101095760405162461bcd60e51b815260206004820152601060248201526f2737ba1030903b37ba32b9103ab9b2b960811b604482015260640160405180910390fd5b60008054604051636f77926b60e01b81526001600160a01b03858116600483015290911690636f77926b90602401602060405180830381865afa158015610154573d6000803e3d6000fd5b505050506040513d601f19601f8201168201806040525081019061017891906106e8565b6000805460405162f5960960e51b815292935090916001600160a01b0390911690631eb2c120906101ad90859060040161071f565b602060405180830381865afa1580156101ca573d6000803e3d6000fd5b505050506040513d601f19601f820116820180604052508101906101ee919061075e565b6001600160401b031690506102156102058361021d565b826102108786610433565b610651565b949350505050565b6000600682600781111561023357610233610709565b036102bb57600160009054906101000a90046001600160a01b03166001600160a01b031663430816aa6040518163ffffffff1660e01b8152600401602060405180830381865afa15801561028b573d6000803e3d6000fd5b505050506040513d601f19601f820116820180604052508101906102af9190610779565b63ffffffff1692915050565b60058260078111156102cf576102cf610709565b0361035a57600260009054906101000a90046001600160a01b03166001600160a01b031663c69685566040518163ffffffff1660e01b8152600401602060405180830381865afa158015610327573d6000803e3d6000fd5b505050506040513d601f19601f8201168201806040525081019061034b919061075e565b6001600160401b031692915050565b600482600781111561036e5761036e610709565b036103c657600360009054906101000a90046001600160a01b03166001600160a01b03166374f7c4296040518163ffffffff1660e01b8152600401602060405180830381865afa158015610327573d6000803e3d6000fd5b60038260078111156103da576103da610709565b036104265760048054604080516352d3ea9d60e01b815290516001600160a01b03909216926352d3ea9d9282820192602092908290030181865afa158015610327573d6000803e3d6000fd5b506000919050565b919050565b6000600682600781111561044957610449610709565b036104cf576001546040516362efeff760e01b81526001600160a01b03858116600483015260009216906362efeff790602401600060405180830381865afa158015610499573d6000803e3d6000fd5b505050506040513d6000823e601f3d908101601f191682016040526104c19190810190610931565b6080015151915061064b9050565b60058260078111156104e3576104e3610709565b0361055c57600254604051633d8270f560e01b81526001600160a01b0385811660048301526000921690633d8270f5906024015b600060405180830381865afa158015610534573d6000803e3d6000fd5b505050506040513d6000823e601f3d908101601f191682016040526104c19190810190610ad6565b600482600781111561057057610570610709565b036105a85760035460405163033f09f760e51b81526001600160a01b03858116600483015260009216906367e13ee090602401610517565b60038260078111156105bc576105bc610709565b0361064757600480546040516373f5d26160e11b81526001600160a01b03868116938201939093526000929091169063e7eba4c290602401600060405180830381865afa158015610611573d6000803e3d6000fd5b505050506040513d6000823e601f3d908101601f191682016040526106399190810190610b0a565b6060015151915061064b9050565b5060005b92915050565b60006005831161066357506001610681565b600061066f8486610c2a565b61067a906001610c4c565b8310159150505b9392505050565b6001600160a01b038116811461069d57600080fd5b50565b6000602082840312156106b257600080fd5b813561068181610688565b8051801515811461042e57600080fd5b6000602082840312156106df57600080fd5b610681826106bd565b6000602082840312156106fa57600080fd5b81516008811061068157600080fd5b634e487b7160e01b600052602160045260246000fd5b602081016008831061074157634e487b7160e01b600052602160045260246000fd5b91905290565b80516001600160401b038116811461042e57600080fd5b60006020828403121561077057600080fd5b61068182610747565b60006020828403121561078b57600080fd5b815163ffffffff8116811461068157600080fd5b634e487b7160e01b600052604160045260246000fd5b60405160c081016001600160401b03811182821017156107d7576107d761079f565b60405290565b60405161010081016001600160401b03811182821017156107d7576107d761079f565b60405161016081016001600160401b03811182821017156107d7576107d761079f565b604051601f8201601f191681016001600160401b038111828210171561084b5761084b61079f565b604052919050565b805161042e81610688565b600082601f83011261086f57600080fd5b81516001600160401b038111156108885761088861079f565b61089b601f8201601f1916602001610823565b8181528460208386010111156108b057600080fd5b60005b828110156108cf576020818601810151838301820152016108b3565b506000918101602001919091529392505050565b6000604082840312156108f557600080fd5b604080519081016001600160401b03811182821017156109175761091761079f565b604052825181526020928301519281019290925250919050565b60006020828403121561094357600080fd5b81516001600160401b0381111561095957600080fd5b820160e0818503121561096b57600080fd5b6109736107b5565b61097c82610747565b815261098a60208301610853565b602082015260408201516001600160401b038111156109a857600080fd5b6109b48682850161085e565b60408301525060608201516001600160401b038111156109d357600080fd5b6109df8682850161085e565b6060830152506109f285608084016108e3565b608082015260c0919091015160a08201529392505050565b60006101208284031215610a1d57600080fd5b610a256107dd565b9050610a3082610747565b8152610a3e60208301610853565b602082015260408201516001600160401b03811115610a5c57600080fd5b610a688482850161085e565b60408301525060608201516001600160401b03811115610a8757600080fd5b610a938482850161085e565b606083015250610aa683608084016108e3565b608082015260c08281015160a083015260e080840151918301919091526101009092015191810191909152919050565b600060208284031215610ae857600080fd5b81516001600160401b03811115610afe57600080fd5b61021584828501610a0a565b600060208284031215610b1c57600080fd5b81516001600160401b03811115610b3257600080fd5b82016101808185031215610b4557600080fd5b610b4d610800565b610b5682610747565b8152610b6460208301610853565b602082015260408201516001600160401b03811115610b8257600080fd5b610b8e8682850161085e565b604083015250610ba185606084016108e3565b606082015260a08201516001600160401b03811115610bbf57600080fd5b610bcb8682850161085e565b60808301525060c08281015160a083015260e080840151918301919091526101008084015191830191909152610120808401519183019190915261014083015190820152610c1c61016083016106bd565b610140820152949350505050565b600082610c4757634e487b7160e01b600052601260045260246000fd5b500490565b8082018082111561064b57634e487b7160e01b600052601160045260246000fdfea26469706673582212208eec84a8886c37564ddf3647e3521824ac4de4566e27b77ee18a7851641e9a2064736f6c634300081b0033",
  "linkReferences": {},
  "deployedLinkReferences": {}
}