{
  "_format": "hh-sol-artifact-1",
  "contractName": "VoteRules",
  "sourceName": "contracts/VoteRules.sol",
  "abi": [
    {
      "inputs": [
        {
          "internalType": "address",
          "name": "communityRulesAddress",
          "type": "address"
        },
        {
          "internalType": "address",
          "name": "contributorRulesAddress",
          "type": "address"
        },
        {
          "internalType": "address",
          "name": "developerRulesAddress",
          "type": "address"
        },
        {
          "internalType": "address",
          "name": "researcherRulesAddress",
          "type": "address"
        }
      ],
      "stateMutability": "nonpayable",
      "type": "constructor"
    },
    {
      "inputs": [],
      "name": "INITIAL_USER_COUNT_THRESHOLD",
      "outputs": [
        {
          "internalType": "uint256",
          "name": "",
          "type": "uint256"
        }
      ],
      "stateMutability": "view",
      "type": "function"
    },
    {
      "inputs": [
        {
          "internalType": "address",
          "name": "addr",
          "type": "address"
        }
      ],
      "name": "canVote",
      "outputs": [
        {
          "internalType": "bool",
          "name": "",
          "type": "bool"
        }
      ],
      "stateMutability": "view",
      "type": "function"
    }
  ],
  "bytecode": "0x608060405234801561001057600080fd5b50604051610b5f380380610b5f83398101604081905261002f9161009e565b600080546001600160a01b039586166001600160a01b03199182161790915560018054948616948216949094179093556002805492851692841692909217909155600380549190931691161790556100f2565b80516001600160a01b038116811461009957600080fd5b919050565b600080600080608085870312156100b457600080fd5b6100bd85610082565b93506100cb60208601610082565b92506100d960408601610082565b91506100e760608601610082565b905092959194509250565b610a5e806101016000396000f3fe608060405234801561001057600080fd5b50600436106100365760003560e01c8063adfaa72e1461003b578063be9dc58414610063575b600080fd5b61004e610049366004610590565b610079565b60405190151581526020015b60405180910390f35b61006b600581565b60405190815260200161005a565b6000805460405163a7771ee360e01b81526001600160a01b0384811660048301529091169063a7771ee390602401602060405180830381865afa1580156100c4573d6000803e3d6000fd5b505050506040513d601f19601f820116820180604052508101906100e891906105bd565b61012b5760405162461bcd60e51b815260206004820152601060248201526f2737ba1030903b37ba32b9103ab9b2b960811b604482015260640160405180910390fd5b60008054604051636f77926b60e01b81526001600160a01b03858116600483015290911690636f77926b90602401602060405180830381865afa158015610176573d6000803e3d6000fd5b505050506040513d601f19601f8201168201806040525081019061019a91906105d8565b60008054604051632f22dc7b60e01b815292935090916001600160a01b0390911690632f22dc7b906101d090859060040161060f565b602060405180830381865afa1580156101ed573d6000803e3d6000fd5b505050506040513d601f19601f820116820180604052508101906102119190610637565b905061022f61021f83610237565b8261022a87866103b4565b610540565b949350505050565b6000600582600781111561024d5761024d6105f9565b036102cf57600160009054906101000a90046001600160a01b03166001600160a01b03166394a7444e6040518163ffffffff1660e01b8152600401602060405180830381865afa1580156102a5573d6000803e3d6000fd5b505050506040513d601f19601f820116820180604052508101906102c99190610637565b92915050565b60048260078111156102e3576102e36105f9565b0361033b57600260009054906101000a90046001600160a01b03166001600160a01b03166394a7444e6040518163ffffffff1660e01b8152600401602060405180830381865afa1580156102a5573d6000803e3d6000fd5b600382600781111561034f5761034f6105f9565b036103a757600360009054906101000a90046001600160a01b03166001600160a01b03166394a7444e6040518163ffffffff1660e01b8152600401602060405180830381865afa1580156102a5573d6000803e3d6000fd5b506000919050565b919050565b600060058260078111156103ca576103ca6105f9565b0361045157600154604051633d8270f560e01b81526001600160a01b0385811660048301526000921690633d8270f5906024015b600060405180830381865afa15801561041b573d6000803e3d6000fd5b505050506040513d6000823e601f3d908101601f1916820160405261044391908101906108ab565b608001515191506102c99050565b6004826007811115610465576104656105f9565b0361049d5760025460405163033f09f760e51b81526001600160a01b03858116600483015260009216906367e13ee0906024016103fe565b60038260078111156104b1576104b16105f9565b03610537576003546040516373f5d26160e11b81526001600160a01b038581166004830152600092169063e7eba4c290602401600060405180830381865afa158015610501573d6000803e3d6000fd5b505050506040513d6000823e601f3d908101601f1916820160405261052991908101906108e0565b606001515191506102c99050565b50600092915050565b60008260000361055257506000610571565b6005831161056257506001610571565b8361056d8484610a03565b1190505b9392505050565b6001600160a01b038116811461058d57600080fd5b50565b6000602082840312156105a257600080fd5b813561057181610578565b805180151581146103af57600080fd5b6000602082840312156105cf57600080fd5b610571826105ad565b6000602082840312156105ea57600080fd5b81516008811061057157600080fd5b634e487b7160e01b600052602160045260246000fd5b602081016008831061063157634e487b7160e01b600052602160045260246000fd5b91905290565b60006020828403121561064957600080fd5b5051919050565b634e487b7160e01b600052604160045260246000fd5b604051610100810167ffffffffffffffff8111828210171561068a5761068a610650565b60405290565b604051610160810167ffffffffffffffff8111828210171561068a5761068a610650565b604051601f8201601f1916810167ffffffffffffffff811182821017156106dd576106dd610650565b604052919050565b805167ffffffffffffffff811681146103af57600080fd5b80516103af81610578565b600082601f83011261071957600080fd5b815167ffffffffffffffff81111561073357610733610650565b610746601f8201601f19166020016106b4565b81815284602083860101111561075b57600080fd5b60005b8281101561077a5760208186018101518383018201520161075e565b506000918101602001919091529392505050565b6000604082840312156107a057600080fd5b6040805190810167ffffffffffffffff811182821017156107c3576107c3610650565b604052825181526020928301519281019290925250919050565b600061012082840312156107f057600080fd5b6107f8610666565b9050610803826106e5565b8152610811602083016106fd565b6020820152604082015167ffffffffffffffff81111561083057600080fd5b61083c84828501610708565b604083015250606082015167ffffffffffffffff81111561085c57600080fd5b61086884828501610708565b60608301525061087b836080840161078e565b608082015260c08281015160a083015260e080840151918301919091526101009092015191810191909152919050565b6000602082840312156108bd57600080fd5b815167ffffffffffffffff8111156108d457600080fd5b61022f848285016107dd565b6000602082840312156108f257600080fd5b815167ffffffffffffffff81111561090957600080fd5b8201610180818503121561091c57600080fd5b610924610690565b61092d826106e5565b815261093b602083016106fd565b6020820152604082015167ffffffffffffffff81111561095a57600080fd5b61096686828501610708565b604083015250610979856060840161078e565b606082015260a082015167ffffffffffffffff81111561099857600080fd5b6109a486828501610708565b60808301525060c08281015160a083015260e0808401519183019190915261010080840151918301919091526101208084015191830191909152610140830151908201526109f561016083016105ad565b610140820152949350505050565b80820281158282048414176102c957634e487b7160e01b600052601160045260246000fdfea2646970667358221220af38988cfcc8c978e47b6746e3805d94010c4646f20a42c7cfb81bc1e4f85f8564736f6c634300081b0033",
  "linkReferences": {},
  "deployedLinkReferences": {}
}