{
  "_format": "hh-sol-artifact-1",
  "contractName": "VoteRules",
  "sourceName": "contracts/VoteRules.sol",
  "abi": [
    {
      "inputs": [
        {
          "internalType": "address",
          "name": "communityRulesAddress",
          "type": "address"
        },
        {
          "internalType": "address",
          "name": "activistRulesAddress",
          "type": "address"
        },
        {
          "internalType": "address",
          "name": "contributorRulesAddress",
          "type": "address"
        },
        {
          "internalType": "address",
          "name": "developerRulesAddress",
          "type": "address"
        },
        {
          "internalType": "address",
          "name": "researcherRulesAddress",
          "type": "address"
        }
      ],
      "stateMutability": "nonpayable",
      "type": "constructor"
    },
    {
      "inputs": [],
      "name": "INITIAL_USER_COUNT_THRESHOLD",
      "outputs": [
        {
          "internalType": "uint256",
          "name": "",
          "type": "uint256"
        }
      ],
      "stateMutability": "view",
      "type": "function"
    },
    {
      "inputs": [
        {
          "internalType": "address",
          "name": "addr",
          "type": "address"
        }
      ],
      "name": "canVote",
      "outputs": [
        {
          "internalType": "bool",
          "name": "",
          "type": "bool"
        }
      ],
      "stateMutability": "view",
      "type": "function"
    }
  ],
  "bytecode": "0x608060405234801561001057600080fd5b50604051610dc9380380610dc983398101604081905261002f916100ad565b600080546001600160a01b03199081166001600160a01b03978816179091556001805482169587169590951790945560028054851693861693909317909255600380548416918516919091179055600480549092169216919091179055610112565b80516001600160a01b03811681146100a857600080fd5b919050565b600080600080600060a086880312156100c557600080fd5b6100ce86610091565b94506100dc60208701610091565b93506100ea60408701610091565b92506100f860608701610091565b915061010660808701610091565b90509295509295909350565b610ca8806101216000396000f3fe608060405234801561001057600080fd5b50600436106100365760003560e01c8063adfaa72e1461003b578063be9dc58414610063575b600080fd5b61004e6100493660046106c3565b610079565b60405190151581526020015b60405180910390f35b61006b600581565b60405190815260200161005a565b6000805460405163a7771ee360e01b81526001600160a01b0384811660048301529091169063a7771ee390602401602060405180830381865afa1580156100c4573d6000803e3d6000fd5b505050506040513d601f19601f820116820180604052508101906100e891906106f0565b61012b5760405162461bcd60e51b815260206004820152601060248201526f2737ba1030903b37ba32b9103ab9b2b960811b604482015260640160405180910390fd5b60008054604051636f77926b60e01b81526001600160a01b03858116600483015290911690636f77926b90602401602060405180830381865afa158015610176573d6000803e3d6000fd5b505050506040513d601f19601f8201168201806040525081019061019a919061070b565b6000805460405162f5960960e51b815292935090916001600160a01b0390911690631eb2c120906101cf908590600401610742565b602060405180830381865afa1580156101ec573d6000803e3d6000fd5b505050506040513d601f19601f820116820180604052508101906102109190610781565b6001600160401b031690506102376102278361023f565b826102328786610455565b610673565b949350505050565b600060068260078111156102555761025561072c565b036102dd57600160009054906101000a90046001600160a01b03166001600160a01b031663430816aa6040518163ffffffff1660e01b8152600401602060405180830381865afa1580156102ad573d6000803e3d6000fd5b505050506040513d601f19601f820116820180604052508101906102d1919061079c565b63ffffffff1692915050565b60058260078111156102f1576102f161072c565b0361037c57600260009054906101000a90046001600160a01b03166001600160a01b031663c69685566040518163ffffffff1660e01b8152600401602060405180830381865afa158015610349573d6000803e3d6000fd5b505050506040513d601f19601f8201168201806040525081019061036d9190610781565b6001600160401b031692915050565b60048260078111156103905761039061072c565b036103e857600360009054906101000a90046001600160a01b03166001600160a01b03166374f7c4296040518163ffffffff1660e01b8152600401602060405180830381865afa158015610349573d6000803e3d6000fd5b60038260078111156103fc576103fc61072c565b036104485760048054604080516352d3ea9d60e01b815290516001600160a01b03909216926352d3ea9d9282820192602092908290030181865afa158015610349573d6000803e3d6000fd5b506000919050565b919050565b6000600682600781111561046b5761046b61072c565b036104f1576001546040516362efeff760e01b81526001600160a01b03858116600483015260009216906362efeff790602401600060405180830381865afa1580156104bb573d6000803e3d6000fd5b505050506040513d6000823e601f3d908101601f191682016040526104e39190810190610954565b6080015151915061066d9050565b60058260078111156105055761050561072c565b0361057e57600254604051633d8270f560e01b81526001600160a01b0385811660048301526000921690633d8270f5906024015b600060405180830381865afa158015610556573d6000803e3d6000fd5b505050506040513d6000823e601f3d908101601f191682016040526104e39190810190610af9565b60048260078111156105925761059261072c565b036105ca5760035460405163033f09f760e51b81526001600160a01b03858116600483015260009216906367e13ee090602401610539565b60038260078111156105de576105de61072c565b0361066957600480546040516373f5d26160e11b81526001600160a01b03868116938201939093526000929091169063e7eba4c290602401600060405180830381865afa158015610633573d6000803e3d6000fd5b505050506040513d6000823e601f3d908101601f1916820160405261065b9190810190610b2d565b6060015151915061066d9050565b5060005b92915050565b600060058311610685575060016106a4565b82600003610695575060006106a4565b836106a08484610c4d565b1190505b9392505050565b6001600160a01b03811681146106c057600080fd5b50565b6000602082840312156106d557600080fd5b81356106a4816106ab565b8051801515811461045057600080fd5b60006020828403121561070257600080fd5b6106a4826106e0565b60006020828403121561071d57600080fd5b8151600881106106a457600080fd5b634e487b7160e01b600052602160045260246000fd5b602081016008831061076457634e487b7160e01b600052602160045260246000fd5b91905290565b80516001600160401b038116811461045057600080fd5b60006020828403121561079357600080fd5b6106a48261076a565b6000602082840312156107ae57600080fd5b815163ffffffff811681146106a457600080fd5b634e487b7160e01b600052604160045260246000fd5b60405160c081016001600160401b03811182821017156107fa576107fa6107c2565b60405290565b60405161010081016001600160401b03811182821017156107fa576107fa6107c2565b60405161016081016001600160401b03811182821017156107fa576107fa6107c2565b604051601f8201601f191681016001600160401b038111828210171561086e5761086e6107c2565b604052919050565b8051610450816106ab565b600082601f83011261089257600080fd5b81516001600160401b038111156108ab576108ab6107c2565b6108be601f8201601f1916602001610846565b8181528460208386010111156108d357600080fd5b60005b828110156108f2576020818601810151838301820152016108d6565b506000918101602001919091529392505050565b60006040828403121561091857600080fd5b604080519081016001600160401b038111828210171561093a5761093a6107c2565b604052825181526020928301519281019290925250919050565b60006020828403121561096657600080fd5b81516001600160401b0381111561097c57600080fd5b820160e0818503121561098e57600080fd5b6109966107d8565b61099f8261076a565b81526109ad60208301610876565b602082015260408201516001600160401b038111156109cb57600080fd5b6109d786828501610881565b60408301525060608201516001600160401b038111156109f657600080fd5b610a0286828501610881565b606083015250610a158560808401610906565b608082015260c0919091015160a08201529392505050565b60006101208284031215610a4057600080fd5b610a48610800565b9050610a538261076a565b8152610a6160208301610876565b602082015260408201516001600160401b03811115610a7f57600080fd5b610a8b84828501610881565b60408301525060608201516001600160401b03811115610aaa57600080fd5b610ab684828501610881565b606083015250610ac98360808401610906565b608082015260c08281015160a083015260e080840151918301919091526101009092015191810191909152919050565b600060208284031215610b0b57600080fd5b81516001600160401b03811115610b2157600080fd5b61023784828501610a2d565b600060208284031215610b3f57600080fd5b81516001600160401b03811115610b5557600080fd5b82016101808185031215610b6857600080fd5b610b70610823565b610b798261076a565b8152610b8760208301610876565b602082015260408201516001600160401b03811115610ba557600080fd5b610bb186828501610881565b604083015250610bc48560608401610906565b606082015260a08201516001600160401b03811115610be257600080fd5b610bee86828501610881565b60808301525060c08281015160a083015260e080840151918301919091526101008084015191830191909152610120808401519183019190915261014083015190820152610c3f61016083016106e0565b610140820152949350505050565b808202811582820484141761066d57634e487b7160e01b600052601160045260246000fdfea2646970667358221220288d579409742fce190d46224def4e231ec6901baf3998547bcd40cae555fbd664736f6c634300081b0033",
  "linkReferences": {},
  "deployedLinkReferences": {}
}