{
  "_format": "hh-sol-artifact-1",
  "contractName": "SupporterRules",
  "sourceName": "contracts/SupporterRules.sol",
  "abi": [
    {
      "inputs": [
        {
          "internalType": "address",
          "name": "communityRulesAddress",
          "type": "address"
        },
        {
          "internalType": "address",
          "name": "researcherRulesAddress",
          "type": "address"
        },
        {
          "internalType": "address",
          "name": "regenerationCreditAddress",
          "type": "address"
        }
      ],
      "stateMutability": "nonpayable",
      "type": "constructor"
    },
    {
      "inputs": [],
      "name": "ReentrancyGuardReentrantCall",
      "type": "error"
    },
    {
      "anonymous": false,
      "inputs": [
        {
          "indexed": true,
          "internalType": "address",
          "name": "supporterAddress",
          "type": "address"
        },
        {
          "indexed": false,
          "internalType": "uint256",
          "name": "offsetId",
          "type": "uint256"
        },
        {
          "indexed": false,
          "internalType": "uint256",
          "name": "amountBurned",
          "type": "uint256"
        },
        {
          "indexed": false,
          "internalType": "uint256",
          "name": "calculatorItemId",
          "type": "uint256"
        },
        {
          "indexed": false,
          "internalType": "uint256",
          "name": "blockNumber",
          "type": "uint256"
        },
        {
          "indexed": false,
          "internalType": "string",
          "name": "message",
          "type": "string"
        }
      ],
      "name": "OffsetMade",
      "type": "event"
    },
    {
      "anonymous": false,
      "inputs": [
        {
          "indexed": true,
          "internalType": "address",
          "name": "supporterAddress",
          "type": "address"
        },
        {
          "indexed": true,
          "internalType": "uint256",
          "name": "calculatorItemId",
          "type": "uint256"
        },
        {
          "indexed": false,
          "internalType": "uint256",
          "name": "blockNumber",
          "type": "uint256"
        }
      ],
      "name": "ReductionCommitmentDeclared",
      "type": "event"
    },
    {
      "anonymous": false,
      "inputs": [
        {
          "indexed": true,
          "internalType": "address",
          "name": "supporterAddress",
          "type": "address"
        },
        {
          "indexed": false,
          "internalType": "uint256",
          "name": "supporterId",
          "type": "uint256"
        },
        {
          "indexed": false,
          "internalType": "string",
          "name": "name",
          "type": "string"
        },
        {
          "indexed": false,
          "internalType": "string",
          "name": "profilePhoto",
          "type": "string"
        },
        {
          "indexed": false,
          "internalType": "uint256",
          "name": "createdAtBlock",
          "type": "uint256"
        }
      ],
      "name": "SupporterRegistered",
      "type": "event"
    },
    {
      "inputs": [],
      "name": "INVITER_PERCENTAGE",
      "outputs": [
        {
          "internalType": "uint8",
          "name": "",
          "type": "uint8"
        }
      ],
      "stateMutability": "view",
      "type": "function"
    },
    {
      "inputs": [],
      "name": "MAX_COMMITMENTS",
      "outputs": [
        {
          "internalType": "uint256",
          "name": "",
          "type": "uint256"
        }
      ],
      "stateMutability": "view",
      "type": "function"
    },
    {
      "inputs": [
        {
          "internalType": "string",
          "name": "name",
          "type": "string"
        },
        {
          "internalType": "string",
          "name": "description",
          "type": "string"
        },
        {
          "internalType": "string",
          "name": "profilePhoto",
          "type": "string"
        }
      ],
      "name": "addSupporter",
      "outputs": [],
      "stateMutability": "nonpayable",
      "type": "function"
    },
    {
      "inputs": [
        {
          "internalType": "address",
          "name": "",
          "type": "address"
        },
        {
          "internalType": "uint64",
          "name": "",
          "type": "uint64"
        }
      ],
      "name": "calculatorItemCertificates",
      "outputs": [
        {
          "internalType": "uint256",
          "name": "",
          "type": "uint256"
        }
      ],
      "stateMutability": "view",
      "type": "function"
    },
    {
      "inputs": [],
      "name": "communityRules",
      "outputs": [
        {
          "internalType": "contract ICommunityRules",
          "name": "",
          "type": "address"
        }
      ],
      "stateMutability": "view",
      "type": "function"
    },
    {
      "inputs": [
        {
          "internalType": "uint64",
          "name": "calculatorItemId",
          "type": "uint64"
        }
      ],
      "name": "declareReductionCommitment",
      "outputs": [],
      "stateMutability": "nonpayable",
      "type": "function"
    },
    {
      "inputs": [
        {
          "internalType": "address",
          "name": "",
          "type": "address"
        },
        {
          "internalType": "uint256",
          "name": "",
          "type": "uint256"
        }
      ],
      "name": "declaredReduction",
      "outputs": [
        {
          "internalType": "bool",
          "name": "",
          "type": "bool"
        }
      ],
      "stateMutability": "view",
      "type": "function"
    },
    {
      "inputs": [
        {
          "internalType": "address",
          "name": "addr",
          "type": "address"
        }
      ],
      "name": "getReductionCommitments",
      "outputs": [
        {
          "internalType": "uint64[]",
          "name": "",
          "type": "uint64[]"
        }
      ],
      "stateMutability": "view",
      "type": "function"
    },
    {
      "inputs": [
        {
          "internalType": "address",
          "name": "addr",
          "type": "address"
        }
      ],
      "name": "getSupporter",
      "outputs": [
        {
          "components": [
            {
              "internalType": "uint64",
              "name": "id",
              "type": "uint64"
            },
            {
              "internalType": "address",
              "name": "supporterWallet",
              "type": "address"
            },
            {
              "internalType": "string",
              "name": "name",
              "type": "string"
            },
            {
              "internalType": "string",
              "name": "description",
              "type": "string"
            },
            {
              "internalType": "string",
              "name": "profilePhoto",
              "type": "string"
            },
            {
              "internalType": "uint32",
              "name": "offsetsCount",
              "type": "uint32"
            },
            {
              "internalType": "uint16",
              "name": "reductionItemsCount",
              "type": "uint16"
            },
            {
              "internalType": "uint256",
              "name": "createdAt",
              "type": "uint256"
            }
          ],
          "internalType": "struct Supporter",
          "name": "",
          "type": "tuple"
        }
      ],
      "stateMutability": "view",
      "type": "function"
    },
    {
      "inputs": [
        {
          "internalType": "uint256",
          "name": "amount",
          "type": "uint256"
        },
        {
          "internalType": "uint256",
          "name": "minAmountToBurn",
          "type": "uint256"
        },
        {
          "internalType": "uint64",
          "name": "calculatorItemId",
          "type": "uint64"
        },
        {
          "internalType": "string",
          "name": "message",
          "type": "string"
        }
      ],
      "name": "offset",
      "outputs": [],
      "stateMutability": "nonpayable",
      "type": "function"
    },
    {
      "inputs": [
        {
          "internalType": "uint64",
          "name": "",
          "type": "uint64"
        }
      ],
      "name": "offsets",
      "outputs": [
        {
          "internalType": "address",
          "name": "supporterAddress",
          "type": "address"
        },
        {
          "internalType": "uint256",
          "name": "createdAt",
          "type": "uint256"
        },
        {
          "internalType": "uint256",
          "name": "amountBurn",
          "type": "uint256"
        },
        {
          "internalType": "uint256",
          "name": "calculatorItemId",
          "type": "uint256"
        },
        {
          "internalType": "string",
          "name": "message",
          "type": "string"
        }
      ],
      "stateMutability": "view",
      "type": "function"
    },
    {
      "inputs": [],
      "name": "offsetsCount",
      "outputs": [
        {
          "internalType": "uint64",
          "name": "",
          "type": "uint64"
        }
      ],
      "stateMutability": "view",
      "type": "function"
    },
    {
      "inputs": [
        {
          "internalType": "address",
          "name": "",
          "type": "address"
        },
        {
          "internalType": "uint256",
          "name": "",
          "type": "uint256"
        }
      ],
      "name": "reductionCommitments",
      "outputs": [
        {
          "internalType": "uint64",
          "name": "",
          "type": "uint64"
        }
      ],
      "stateMutability": "view",
      "type": "function"
    },
    {
      "inputs": [],
      "name": "regenerationCredit",
      "outputs": [
        {
          "internalType": "contract IRegenerationCredit",
          "name": "",
          "type": "address"
        }
      ],
      "stateMutability": "view",
      "type": "function"
    },
    {
      "inputs": [],
      "name": "researcherRules",
      "outputs": [
        {
          "internalType": "contract IResearcherRules",
          "name": "",
          "type": "address"
        }
      ],
      "stateMutability": "view",
      "type": "function"
    },
    {
      "inputs": [
        {
          "internalType": "uint256",
          "name": "",
          "type": "uint256"
        }
      ],
      "name": "supportersAddress",
      "outputs": [
        {
          "internalType": "address",
          "name": "",
          "type": "address"
        }
      ],
      "stateMutability": "view",
      "type": "function"
    },
    {
      "inputs": [
        {
          "internalType": "string",
          "name": "newPhoto",
          "type": "string"
        }
      ],
      "name": "updateProfilePhoto",
      "outputs": [],
      "stateMutability": "nonpayable",
      "type": "function"
    }
  ],
  "bytecode": "0x6080604052348015600f57600080fd5b50604051611fac380380611fac833981016040819052602c91608d565b6001600055600880546001600160a01b039485166001600160a01b0319918216179091556009805493851693821693909317909255600a805491909316911617905560c9565b80516001600160a01b0381168114608857600080fd5b919050565b60008060006060848603121560a157600080fd5b60a8846072565b925060b4602085016072565b915060c0604085016072565b90509250925092565b611ed4806100d86000396000f3fe608060405234801561001057600080fd5b506004361061010b5760003560e01c8063859b12f3116100a2578063dc02837f11610071578063dc02837f14610255578063dcfc77e014610275578063ee9645e81461028c578063f8a47d8a146102ca578063f9c5512c146102ee57600080fd5b8063859b12f3146101f557806394cea0a314610208578063ce59654a14610222578063d4fadeae1461023557600080fd5b80632e7759ba116100de5780632e7759ba146101a95780632f9ed1ef146101bc578063723ce4ae146101cf57806385851afc146101e257600080fd5b806305b95fbe146101105780630d378ffd146101565780630e2647ad1461018157806320f5f45614610196575b600080fd5b61013961011e36600461146f565b6005602052600090815260409020546001600160a01b031681565b6040516001600160a01b0390911681526020015b60405180910390f35b6101696101643660046114a0565b610319565b6040516001600160401b03909116815260200161014d565b61019461018f3660046115b7565b610365565b005b6101946101a4366004611608565b61045d565b6101946101b736600461162c565b6107a1565b600a54610139906001600160a01b031681565b6101946101dd3660046116bd565b610a6e565b600654610169906001600160401b031681565b600954610139906001600160a01b031681565b610210600581565b60405160ff909116815260200161014d565b600854610139906001600160a01b031681565b61024861024336600461171f565b610f8f565b60405161014d919061173c565b61026861026336600461171f565b61102d565b60405161014d91906117d8565b61027e6103e881565b60405190815260200161014d565b6102ba61029a3660046114a0565b600460209081526000928352604080842090915290825290205460ff1681565b604051901515815260200161014d565b6102dd6102d8366004611608565b6112c2565b60405161014d9594939291906118a5565b61027e6102fc3660046118e3565b600260209081526000928352604080842090915290825290205481565b6003602052816000526040600020818154811061033557600080fd5b9060005260206000209060049182820401919006600802915091509054906101000a90046001600160401b031681565b8051609610156103ad5760405162461bcd60e51b815260206004820152600e60248201526d4d6178206368617261637465727360901b60448201526064015b60405180910390fd5b600854604051631292f8c160e31b81526001600160a01b0390911690639497c608906103e090600790339060040161193e565b602060405180830381865afa1580156103fd573d6000803e3d6000fd5b505050506040513d601f19601f820116820180604052508101906104219190611964565b61043d5760405162461bcd60e51b81526004016103a490611986565b3360009081526001602052604090206003016104598282611a38565b5050565b600854604051631292f8c160e31b81526001600160a01b0390911690639497c6089061049090600790339060040161193e565b602060405180830381865afa1580156104ad573d6000803e3d6000fd5b505050506040513d601f19601f820116820180604052508101906104d19190611964565b6104ed5760405162461bcd60e51b81526004016103a490611986565b3360009081526004602090815260408083206001600160401b038516845290915290205460ff16156105615760405162461bcd60e51b815260206004820152601b60248201527f436f6d6d69746d656e7420616c7265616479206465636c61726564000000000060448201526064016103a4565b336000908152600160205260409020600401546103e864010000000090910461ffff16106105d15760405162461bcd60e51b815260206004820152601760248201527f4d617820636f6d6d69746d656e7473207265616368656400000000000000000060448201526064016103a4565b6009546040516311868d0b60e01b81526001600160401b03831660048201526000916001600160a01b0316906311868d0b90602401600060405180830381865afa158015610623573d6000803e3d6000fd5b505050506040513d6000823e601f3d908101601f1916820160405261064b9190810190611b56565b80519091506001600160401b03166106a55760405162461bcd60e51b815260206004820152601e60248201527f43616c63756c61746f72206974656d20646f6573206e6f74206578697374000060448201526064016103a4565b33600081815260036020818152604080842080546001808201835591865283862060048083049091018054929096166008026101000a6001600160401b0381810219909316928b16908102929092179095558686528484528286209086528352818520805460ff19168217905594845293905291902081018054640100000000900461ffff169161073583611c69565b91906101000a81548161ffff021916908361ffff16021790555050816001600160401b0316336001600160a01b03167f6a8703d0dfd7a2ebeec57615dbfe3bd225042a61a5ddc5e565d02ee8cc27c82d4360405161079591815260200190565b60405180910390a35050565b82516032108015906107b55750815160c810155b80156107c357508051609610155b6108085760405162461bcd60e51b815260206004820152601660248201527513585e0818da185c9858dd195c9cc81c995858da195960521b60448201526064016103a4565b60085460405162f5960960e51b81526000916001600160a01b031690631eb2c1209061083990600790600401611c8a565b602060405180830381865afa158015610856573d6000803e3d6000fd5b505050506040513d601f19601f8201168201806040525081019061087a9190611c9e565b610885906001611cbb565b60408051610100810182526001600160401b0380841682523360208084018281528486018b8152606086018b9052608086018a9052600060a0870181905260c087018190524360e0880152938452600192839052959092208451815493516001600160a01b0316600160401b026001600160e01b03199094169416939093179190911782559251939450909290918201906109209082611a38565b50606082015160028201906109359082611a38565b506080820151600382019061094a9082611a38565b5060a08201516004808301805460c086015161ffff166401000000000265ffffffffffff1990911663ffffffff909416939093179290921790915560e0909201516005918201556001600160401b038316600090815260209190915260409081902080546001600160a01b031916339081179091556008549151639c3eead960e01b81526001600160a01b039290921692639c3eead9926109ef929160079101611cda565b600060405180830381600087803b158015610a0957600080fd5b505af1158015610a1d573d6000803e3d6000fd5b50505050336001600160a01b03167f2fe5386557a95a5d820fa0514dc2a3c8d60986e6f41bace2d281e6b8d63636eb82868543604051610a609493929190611cf7565b60405180910390a250505050565b610a76611385565b6009546040516311868d0b60e01b81526001600160401b03841660048201526000916001600160a01b0316906311868d0b90602401600060405180830381865afa158015610ac8573d6000803e3d6000fd5b505050506040513d6000823e601f3d908101601f19168201604052610af09190810190611b56565b516001600160401b031611610b475760405162461bcd60e51b815260206004820152601e60248201527f43616c63756c61746f72206974656d20646f6573206e6f74206578697374000060448201526064016103a4565b600854604051631292f8c160e31b81526001600160a01b0390911690639497c60890610b7a90600790339060040161193e565b602060405180830381865afa158015610b97573d6000803e3d6000fd5b505050506040513d601f19601f82011682018060405250810190610bbb9190611964565b610bd75760405162461bcd60e51b81526004016103a490611986565b670de0b6b3a7640000841015610c2f5760405162461bcd60e51b815260206004820152601c60248201527f416d6f756e74206d757374206265206174206c6561737420312052430000000060448201526064016103a4565b805161012c1015610c735760405162461bcd60e51b815260206004820152600e60248201526d4d6178206368617261637465727360901b60448201526064016103a4565b6000806000610c8233886113af565b92509250925085831015610cee5760405162461bcd60e51b815260206004820152602d60248201527f536c6970706167653a20616d6f756e7420746f206275726e206973206c65737360448201526c207468616e206d696e696d756d60981b60648201526084016103a4565b600680546001600160401b0316906000610d0783611d3d565b82546101009290920a6001600160401b038181021990931691831602179091556006543360009081526002602090815260408083208b8616845290915281208054929093169350869291610d5c908490611d5f565b90915550506040805160a0810182523381524360208083019182528284018881526001600160401b038b811660608601908152608086018c81529188166000908152600790945295909220845181546001600160a01b0319166001600160a01b03909116178155925160018401555160028301559251600382015591519091906004820190610deb9082611a38565b5050336000908152600160205260408120600401805463ffffffff16925090610e1383611d72565b91906101000a81548163ffffffff021916908363ffffffff16021790555050600083118015610e4a57506001600160a01b03821615155b15610ece57600a546040516323b872dd60e01b81523360048201526001600160a01b03848116602483015260448201869052909116906323b872dd906064016020604051808303816000875af1158015610ea8573d6000803e3d6000fd5b505050506040513d601f19601f82011682018060405250810190610ecc9190611964565b505b600a5460405163079cc67960e41b8152336004820152602481018690526001600160a01b03909116906379cc679090604401600060405180830381600087803b158015610f1a57600080fd5b505af1158015610f2e573d6000803e3d6000fd5b50505050336001600160a01b03167fc62a9975173688bea5677b29a71ab0d3d6ac9a0234406d997e0b340a88d33aa3828689438a604051610f73959493929190611d8e565b60405180910390a250505050610f896001600055565b50505050565b6001600160a01b03811660009081526003602090815260409182902080548351818402810184019094528084526060939283018282801561102157602002820191906000526020600020906000905b82829054906101000a90046001600160401b03166001600160401b031681526020019060080190602082600701049283019260010382029150808411610fde5790505b50505050509050919050565b61109160405180610100016040528060006001600160401b0316815260200160006001600160a01b03168152602001606081526020016060815260200160608152602001600063ffffffff168152602001600061ffff168152602001600081525090565b6001600160a01b0380831660009081526001602081815260409283902083516101008101855281546001600160401b0381168252600160401b900490951691850191909152908101805491928401916110e9906119af565b80601f0160208091040260200160405190810160405280929190818152602001828054611115906119af565b80156111625780601f1061113757610100808354040283529160200191611162565b820191906000526020600020905b81548152906001019060200180831161114557829003601f168201915b5050505050815260200160028201805461117b906119af565b80601f01602080910402602001604051908101604052809291908181526020018280546111a7906119af565b80156111f45780601f106111c9576101008083540402835291602001916111f4565b820191906000526020600020905b8154815290600101906020018083116111d757829003601f168201915b5050505050815260200160038201805461120d906119af565b80601f0160208091040260200160405190810160405280929190818152602001828054611239906119af565b80156112865780601f1061125b57610100808354040283529160200191611286565b820191906000526020600020905b81548152906001019060200180831161126957829003601f168201915b5050509183525050600482015463ffffffff81166020830152640100000000900461ffff16604082015260059091015460609091015292915050565b600760205260009081526040902080546001820154600283015460038401546004850180546001600160a01b0390951695939492939192611302906119af565b80601f016020809104026020016040519081016040528092919081815260200182805461132e906119af565b801561137b5780601f106113505761010080835404028352916020019161137b565b820191906000526020600020905b81548152906001019060200180831161135e57829003601f168201915b5050505050905085565b6002600054036113a857604051633ee5aeb560e01b815260040160405180910390fd5b6002600055565b60085460405163158bdc5f60e11b81526001600160a01b0384811660048301526000928392839283921690632b17b8be90602401608060405180830381865afa158015611400573d6000803e3d6000fd5b505050506040513d601f19601f820116820180604052508101906114249190611dcb565b606081015160208201519350909150151580611441576000611458565b606461144e600588611e52565b6114589190611e69565b93506114648487611e8b565b945050509250925092565b60006020828403121561148157600080fd5b5035919050565b6001600160a01b038116811461149d57600080fd5b50565b600080604083850312156114b357600080fd5b82356114be81611488565b946020939093013593505050565b634e487b7160e01b600052604160045260246000fd5b60405160e081016001600160401b0381118282101715611504576115046114cc565b60405290565b604051601f8201601f191681016001600160401b0381118282101715611532576115326114cc565b604052919050565b60006001600160401b03821115611553576115536114cc565b50601f01601f191660200190565b600082601f83011261157257600080fd5b81356115856115808261153a565b61150a565b81815284602083860101111561159a57600080fd5b816020850160208301376000918101602001919091529392505050565b6000602082840312156115c957600080fd5b81356001600160401b038111156115df57600080fd5b6115eb84828501611561565b949350505050565b6001600160401b038116811461149d57600080fd5b60006020828403121561161a57600080fd5b8135611625816115f3565b9392505050565b60008060006060848603121561164157600080fd5b83356001600160401b0381111561165757600080fd5b61166386828701611561565b93505060208401356001600160401b0381111561167f57600080fd5b61168b86828701611561565b92505060408401356001600160401b038111156116a757600080fd5b6116b386828701611561565b9150509250925092565b600080600080608085870312156116d357600080fd5b843593506020850135925060408501356116ec816115f3565b915060608501356001600160401b0381111561170757600080fd5b61171387828801611561565b91505092959194509250565b60006020828403121561173157600080fd5b813561162581611488565b602080825282518282018190526000918401906040840190835b8181101561177d5783516001600160401b0316835260209384019390920191600101611756565b509095945050505050565b60005b838110156117a357818101518382015260200161178b565b50506000910152565b600081518084526117c4816020860160208601611788565b601f01601f19169290920160200192915050565b602081526117f26020820183516001600160401b03169052565b6000602083015161180e60408401826001600160a01b03169052565b506040830151610100606084015261182a6101208401826117ac565b90506060840151601f1984830301608085015261184782826117ac565b9150506080840151601f198483030160a085015261186582826117ac565b91505060a084015161187f60c085018263ffffffff169052565b5060c084015161ffff811660e08501525060e08401516101008401528091505092915050565b60018060a01b038616815284602082015283604082015282606082015260a0608082015260006118d860a08301846117ac565b979650505050505050565b600080604083850312156118f657600080fd5b823561190181611488565b91506020830135611911816115f3565b809150509250929050565b6008811061193a57634e487b7160e01b600052602160045260246000fd5b9052565b6040810161194c828561191c565b6001600160a01b039290921660209190910152919050565b60006020828403121561197657600080fd5b8151801515811461162557600080fd5b6020808252600f908201526e4f6e6c7920737570706f727465727360881b604082015260600190565b600181811c908216806119c357607f821691505b6020821081036119e357634e487b7160e01b600052602260045260246000fd5b50919050565b601f821115611a3357806000526020600020601f840160051c81016020851015611a105750805b601f840160051c820191505b81811015611a305760008155600101611a1c565b50505b505050565b81516001600160401b03811115611a5157611a516114cc565b611a6581611a5f84546119af565b846119e9565b6020601f821160018114611a995760008315611a815750848201515b600019600385901b1c1916600184901b178455611a30565b600084815260208120601f198516915b82811015611ac95787850151825560209485019460019092019101611aa9565b5084821015611ae75786840151600019600387901b60f8161c191681555b50505050600190811b01905550565b8051611b01816115f3565b919050565b8051611b0181611488565b600082601f830112611b2257600080fd5b8151611b306115808261153a565b818152846020838601011115611b4557600080fd5b6115eb826020830160208701611788565b600060208284031215611b6857600080fd5b81516001600160401b03811115611b7e57600080fd5b820160e08185031215611b9057600080fd5b611b986114e2565b611ba182611af6565b8152611baf60208301611b06565b602082015260408201516001600160401b03811115611bcd57600080fd5b611bd986828501611b11565b60408301525060608201516001600160401b03811115611bf857600080fd5b611c0486828501611b11565b60608301525060808201516001600160401b03811115611c2357600080fd5b611c2f86828501611b11565b60808301525060a0828101519082015260c091820151918101919091529392505050565b634e487b7160e01b600052601160045260246000fd5b600061ffff821661ffff8103611c8157611c81611c53565b60010192915050565b60208101611c98828461191c565b92915050565b600060208284031215611cb057600080fd5b8151611625816115f3565b6001600160401b038181168382160190811115611c9857611c98611c53565b6001600160a01b038316815260408101611625602083018461191c565b6001600160401b0385168152608060208201526000611d1960808301866117ac565b8281036040840152611d2b81866117ac565b91505082606083015295945050505050565b60006001600160401b0382166001600160401b038103611c8157611c81611c53565b80820180821115611c9857611c98611c53565b600063ffffffff821663ffffffff8103611c8157611c81611c53565b6001600160401b03861681528460208201526001600160401b038416604082015282606082015260a0608082015260006118d860a08301846117ac565b60006080828403128015611dde57600080fd5b50604051600090608081016001600160401b0381118282101715611e0457611e046114cc565b6040528351611e1281611488565b81526020840151611e2281611488565b6020820152604084015160088110611e38578283fd5b604082015260609384015193810193909352509092915050565b8082028115828204841417611c9857611c98611c53565b600082611e8657634e487b7160e01b600052601260045260246000fd5b500490565b81810381811115611c9857611c98611c5356fea26469706673582212201f2ce05a82ed0b86c829964c9e85024ae90efdecd06d9e6c54ab7053a0741d4864736f6c634300081b0033",
  "linkReferences": {},
  "deployedLinkReferences": {}
}